:020000041000EA
:10000000706B00208D2300109523001097230010A3
:1000100000000000000000000000000000000000E0
:100020000000000000000000000000009923001004
:1000300000000000000000009B2300109D23001022
:10004000E31100106B5B00109F2300109F23001032
:10005000391A00105D1A0010C71300109F230010FA
:100060009F2300107518001099180010BD1800107B
:10007000E1180010051900109F2300109F230010A5
:100080009F2300109F2300109F2300109F23001028
:100090009F2300109F2300109F2300109F23001018
:1000A0009F230010711400109F2300109F23001045
:1000B0009F2300109F2300109F2300109F230010F8
:1000C00000F002F800F0BDF80CA030C80838241881
:1000D0002D18A246671EAB4654465D46AC4201D180
:1000E00000F0AFF87E460F3E0FCCB64601263342F5
:1000F00000D0FB1AA246AB4633431847A0A100002C
:10010000C0A10000103A02D378C878C1FAD85207CB
:1001100001D330C830C101D504680C6070470000BD
:100120000023002400250026103A01D378C1FBD813
:10013000520700D330C100D50B60704710B56E294F
:1001400002D107F0DDFE10BD702902D108F017F8CA
:1001500010BD662902D109F0A9F810BD652902D1A8
:1001600009F0A4F810BD672902D109F09FF810BD6D
:10017000612902D1C046C04610BD03681B0A01D3E5
:1001800080231943692902D107F084FE10BD642938
:1001900002D107F07FFE10BD752902D107F07AFE6B
:1001A00010BD6F2902D107F095FF10BD782902D14B
:1001B00007F0D2FF10BDE92902D107F031FF10BDD1
:1001C000E42902D107F02CFF10BDF52902D107F078
:1001D00027FF10BDEF2902D107F088FF10BDF829D5
:1001E00002D107F0C7FF10BD0368DB0901D38023EC
:1001F0001943632902D108F03EFB10BD732902D1D7
:1002000008F041FB10BDE32902D108F04BFB10BD03
:10021000F32902D108F04EFB10BD002010BD1FB520
:1002200008F0A8FB04000020002108F07BFF401C20
:1002300060600020002108F05FFFE0601FBD10B586
:1002400010BD08F06FFB1146FFF7E9FF00F070FDED
:1002500008F090FE03B4FFF7F2FF03BC08F0DAFEEB
:1002600000B52D1D00BD000070B505460C461646B4
:1002700002E00FCC0FC5103E102EFAD2082E02D38A
:1002800003CC03C5083E042E07D301CC01C5361F9D
:1002900003E021782970641C6D1C761EF9D270BDB4
:1002A0001FB500216846017007214172192189019B
:1002B0004181F7498181032181730021017202F09C
:1002C000C1F8F44802F0AAF8F2484078F249C8733D
:1002D000F04880780874EF48C0784874ED48007999
:1002E0008874EC484079C874EA4880790875EB480E
:1002F0000378EB480178EB4AE74802F0A6F81FBD07
:100300003EB504460D46E848007801280FD101218A
:1003100068460180032141801F21818001210181E4
:1003200023462A466946012002F0ADFB3EBD00206F
:10033000FCE710B586B00446DCA103C9019100902A
:1003400004A802F00AFA6846428A018AD9A001F09C
:100350009BF9002C02D0012C3CD120E06846408A59
:10036000002814D06846008A102810DD0020D849E3
:100370000870102168464181C821C1810021818116
:10038000C02101720421417202A803F022F8D1A019
:1003900001F07AF905216846FFF7B2FF1AE06846D6
:1003A000408A0A2815DA6846008A502811DA502156
:1003B000684641810A2181814B21C900C181C02148
:1003C00001720421417202A803F003F8C7A001F0F2
:1003D0005BF900BF00BF06B010BD13B582B0684620
:1003E000408915214902884209D1C6A003C801915C
:1003F000009005246946204602F027FB9CE06846F1
:100400004089C249884208D1C1A0006801900224F5
:1004100001A9204602F019FB8EE068464089BB49DD
:100420002831884209D1BBA103C901910090082459
:100430006946204602F009FB7EE068464089B349E0
:100440002331884209D1B5A103C901910090072445
:100450006946204602F0F9FA6EE068464089AB49E9
:100460002431884209D1AFA103C90191009005242C
:100470006946204602F0E9FA5EE068464089A349F1
:100480002631884208D1A9A000680190042401A95E
:10049000204602F0DAFA4FE0684640899B49253150
:1004A000884208D1A2A000680190042401A9204636
:1004B00002F0CBFA40E068464089944927318842EF
:1004C00008D19CA000680190042401A9204602F0F4
:1004D000BCFA31E0684640898C494F31884209D1E5
:1004E00095A103C90191009007246946204602F0B6
:1004F000ACFA21E0684640899149884207D191A031
:1005000000680190042101A8FFF7FAFE14E0684694
:1005100040898B49383188420DD10021019100205A
:10052000009001A9684601F00EFF6946684600790F
:1005300002F08BFA00E000BF1FBD0FB410B5684693
:100540004089022807D16846827B03A903317E488F
:1005500001F029F90DE0684640897949383188422F
:1005600007D10020794908706846817B0F3001F07F
:10057000BEFE10BC08BC04B0184710B5FFB0FFB0F9
:1005800082B00446601C06F0BBFD012805D101F0D5
:1005900066FF6FA001F078F890E1601C06F0B0FDF6
:1005A000042814D100204049087001206D490870CA
:1005B000002047490870654908706B490870634915
:1005C00008700622A11D69A001F09BF876E1601C6D
:1005D00006F096FD08280DD1002062490870624996
:1005E000087031490870617966A001F04DF801F09A
:1005F00036FF63E1601C06F083FD0121C9038842D8
:1006000043D1A179627908021043012826D1217AC9
:10061000E279080210432028BED1A17A627A08024A
:10062000104301280DD15FA001F02EF801201E49D2
:1006300008706148807E4021884340305E4988765A
:100640003CE15EA001F020F80020174908705A48EC
:10065000807E40218843584988762FE1A1796279CC
:100660000802104336491E31884295D1217AE27939
:10067000080210432D288FD1A17A627A0802104314
:10068000012803D15249087018E1A7E0A2E0000058
:10069000FF3F00003800002013000020360000203B
:1006A00032000020340000200C000020FC0100007B
:1006B00000000000696E74657276616C3A257820DE
:1006C0006C6174656E63793A25780D0A000000004C
:1006D00010000020536574557064617465206F7458
:1006E00061206C696E6B0D0A000000005365745543
:1006F000706461746520696F73206C696E6B0D0A9C
:10070000000000005541525446000000012A00003C
:10071000FFFF000053594420496E632E424C452090
:10072000312E3000312E302E30000000322E30308D
:10073000332E3030342E3030023A09050A020000E0
:10074000C9FE000000010304440100200F00002046
:100750004741505F4556545F4144565F454E440DF6
:100760000A0000000E000020880000204741505F72
:100770004556545F434F4E4E4543544544206164B3
:1007800064723A004741505F4556545F44495343B1
:100790004F4E4E45435445442825303278290D0AA2
:1007A0000000000073746172745F747820656E617C
:1007B000626C650D0A000000601000507374617275
:1007C000745F74782064697361626C650D0A00005F
:1007D0000D0000200020FE4908706FE0601C06F04C
:1007E0008FFC0121C902884210D1FF22F832214634
:1007F0001531684606F023FCF64A611D7EA806F016
:100800001EFC7EA80FC8FFF798FE57E0601C06F09C
:1008100077FC01218902884209D10822611DFEA8C6
:1008200006F00DFCFF99FE98FFF7D7FD46E0601C2F
:1008300006F066FC0121890388423FD0601C06F067
:100840005FFC102806D10120E3490870E3A000F006
:100850001BFF33E0601C06F053FC802803D1E4A0AA
:1008600000F012FF2AE0601C06F04AFC0121490258
:10087000884223D1A179627908021043030008F06D
:100880000FFC0604080C1014181CDEA000F0FCFE7F
:1008900013E0E2A000F0F8FE0FE0E6A000F0F4FEA6
:1008A0000BE0EAA000F0F0FE07E0EEA000F0ECFEA6
:1008B00003E0F1A000F0E8FE00BF00BF7FB07FB012
:1008C00002B010BD00B591B001F092FDEF48099063
:1008D000EF480A90EF480B90EF480C90EF480D90CE
:1008E00009A801F022FF0321684601770021417722
:1008F000807F81088900491C68468177807F0421B8
:1009000088430146684681771021C177002108A8F5
:1009100001700321417007A801F00AFF0621684613
:1009200081800921C18064210181418106210173F7
:100930003221417300218173C1730174012101A827
:100940004173002181730221C173002101740321CD
:100950004174002181740421C174002101750521B5
:1009600041750021817501F0F0FECD49FF20013075
:1009700006F0D7FBCA49091DCA4806F0D2FBC84891
:1009800002F04DF8C84802F05DF8002002F0A3F92B
:10099000FFF786FC012108A80176002141760EA907
:1009A0000231002006F0BDFB0FA90231002006F045
:1009B000B8FB0EA802F00EFA11B000BDF8B5BB48A6
:1009C000007801285CD1BA4800F03FFF002857D1D9
:1009D00000240025B64800F041FF1421009006F0E5
:1009E000B2FB401CC6B2B24800F038FF14210090A0
:1009F00006F0A9FBCFB200BF3EE0AE4800788021F0
:100A0000084000280AD1002506E0AB484119A84853
:100A100000F006FF681CC5B2142DF6DB701EA04264
:100A200014DCA448007880210843A24908703946A4
:100A3000A148FFF765FC002807D000269D480078F4
:100A4000802188439B49087014E017E0994800789A
:100A5000802108439749087014219748FFF750FCFC
:100A6000002806D093480078802188439149087077
:100A700000E003E0601CC4B2B442BEDB00BF00BFB4
:100A8000F8BD08B50020009004E00122694600206E
:100A900000F00CFD69468648103000F0C1FE0028C9
:100AA000F3D108BD10B585480078401C8349087013
:100AB0000846007802280BDB00200870012000F0B7
:100AC00098FF7B4800F0C1FE002801D1FFF776FFB8
:100AD00010BD10B5012000F08CFF0123FF22483229
:100AE0007749184600F028FF0A2000F0DFF910BD12
:100AF00010B5002442E0182C32D008DC002C0DD0B8
:100B0000022C22D0042C21D00A2C2BD113E01E2C35
:100B100027D01F2C1BD0222C24D10DE000212046F1
:100B200000F0E5FB0121204600F0FDF90021204600
:100B300000F061FA1FE000BF0021204600F0D7FB63
:100B40000121204600F057FA15E000BF00BF002148
:100B5000204600F0CCFB0021204600F04CFA0AE0D1
:100B600000BF08E00021204600F0C1FB0021204624
:100B700000F0D9F900BF00BF601CC4B2272CBADB5B
:100B800010BD70B504460D460721142000F0AFFBE0
:100B90000721152000F0ABFB002C07D00721122005
:100BA00000F0A5FB0721132000F0A1FB0620012186
:100BB0008140444A116000BF434800680078000942
:100BC00000012907090F08433F49096808707DE0C3
:100BD0000D000020070200000F0000204741505F79
:100BE0004556545F454E435F4B45590D0A00000082
:100BF0004741505F4556545F454E435F5354415201
:100C0000540D0A0075706461746520727370204120
:100C1000434345505445440D0A000000757064611B
:100C20007465207273702052454A45435445440D03
:100C30000A0000007570646174652072737020543E
:100C4000494D45524F55540D0A00000075706461BE
:100C500074652072737020535543434545440D0A13
:100C600000000000456E61626C65206C6174656E09
:100C700063790D0A0000000044697361626C6520AD
:100C80006C6174656E63790D0A000000BC920010FF
:100C9000E6920010DB92001025930010E393001001
:100CA000000000207B050010080000200C00002040
:100CB000340100201200002020010020110000203B
:100CC000A50A001080E100E0540000207B48006885
:100CD000007880218843E101802211400843774950
:100CE0000968087075480068007840218843734996
:100CF00009680870714800688078082188430830C6
:100D00006E490968887092006D496E4800F042FD96
:100D10006D48406A402108436B4948620846006AB2
:100D20004021084368490862062000F0BFF870BD02
:100D30008CB00020089009900A900B9072B601F0D8
:100D400057FB0021192000F0D2FA0021172000F0F3
:100D5000CEFA0021222000F0CAFA00210A2000F079
:100D6000C6FA0121192000F046F90121172000F0F0
:100D700042F90121222000F03EF901210A2000F071
:100D80003AF900210E2000F0B2FA00210F2000F005
:100D9000AEFA0021102000F0AAFA0021112000F084
:100DA000A6FA00210E2000F0BEF800210F2000F06E
:100DB000BAF80021102000F0B6F80021112000F050
:100DC000B2F80721142000F092FA0721152000F054
:100DD0008EFA00F053FC3DA000F056FC06210820DE
:100DE00000F085FA0621092000F081FA0021012097
:100DF00000F08CFE0121084600F04BFE0121084660
:100E000000F05BFE0121084600F08FFE042000F098
:100E10004DF801F083F832A20021084601F0ACF948
:100E200032A20221002001F0A7F908A802F08CFDEF
:100E300008A8017A427A837AC07A049305920691CF
:100E4000039008A8017B427B807B01920291009075
:100E500008A8C37B28A20421002001F08DF908A86E
:100E6000017842788378C0780493059206910390C4
:100E700008A80279417980796B4607C308A8C3792D
:100E80001DA20621002001F077F908A8C07B401CB4
:100E9000C1B208A8C17302F064FD62B605E00A2081
:100EA00000F0D6F8642000F0E7F9F8E7C206D20EA9
:100EB00001219140194A1160704700005400002040
:100EC000540100203401002000800220535944388E
:100ED000383231204949432044454D4F0D0A000026
:100EE00053594420496E632E000000005359443882
:100EF000383231204556420025303278253032785C
:100F000025303278253032782530327825303278E5
:100F100025303278253032780000000000E100E012
:100F2000D1490860704770B5024620241440630917
:100F300020251446AC430125A54028469C00CB4DF6
:100F40002C592075050A6575050CA575050EE57506
:100F5000002B13D0002908D1C54D6D7D0543ECB29F
:100F6000C34D6D7DC24E747515E0C14D6D7D8543D9
:100F70002C46BF4D6D7DBE4E74750CE0002905D129
:100F8000BB4C64680443BA4D6C6004E0B84C6468C0
:100F90008443B74D6C6070BD70B502462024144088
:100FA000630920251446AC430125A5402846002BA3
:100FB00013D0002908D0AE4DED7D0543ECB2AC4D09
:100FC000ED7DAB4EF47515E0A94DED7D85432C46C6
:100FD000A74DED7DA64EF4750CE0002905D0A44C7C
:100FE000E4680443A24DEC6004E0A14CE46884434F
:100FF0009F4DEC6070BD30B50B4620240440610964
:1010000020250446AC430125A5402A468C00974D77
:101010002C592276150A6576150CA576150EE576FF
:10102000002B0AD08C00914D2C592271150A657144
:10103000150CA571150EE57109E08C008B4D2C592E
:101040002272150A6572150CA572150EE57230BD77
:1010500010B520230340590920240346A34301244B
:101060009C4022468B00814CE3581A73140A5C732F
:10107000140C9C73140EDC7310BD10B520230340B8
:10108000590920240346A34301249C4022468B0097
:10109000764CE3581A71140A5C71140C9C71140E8E
:1010A000DC7110BD10B520230340590920240346EC
:1010B000A34301249C4022468B006C4CE3581A72D7
:1010C000140A5C72140C9C72140EDC7210BD30B5E4
:1010D000014620200840420920240846A04301245C
:1010E000844023469000614C20584030102404195D
:1010F0002578284665782D022843A5782D042843B5
:10110000E478240620431840002801D0012030BD97
:101110000020FCE7F0B503460C46154620221A4095
:10112000500920261A46B243012696403146002C2B
:101130000BD182004D4EB258403211720E0A5672D7
:101140000E0C96720E0ED6720AE08200474EB2580E
:10115000403211710E0A56710E0C96710E0ED67138
:10116000002D0BD18200414EB258203211760E0A6A
:1011700056760E0C96760E0ED6760AE082003B4E20
:10118000B258203211750E0A56750E0C96750E0E59
:10119000D6758200354EB258203211710E0A567142
:1011A0000E0C96710E0ED671002201269640314F1C
:1011B0003E6000BFF0BD10B5202303405909202434
:1011C0000346A34301249C4022468B00274CE3584E
:1011D00020331A72140A5C72140C9C72140EDC72A6
:1011E00010BD70B500243CE0A000204908584030F4
:1011F000142141180A7810464A78120210438A785E
:1012000012041043C97809060843A100174A51582F
:1012100020310A461378194653781B0219439378F4
:101220001B041943D2781206114308400546002DCD
:1012300000D114E00C480068002804D0294620465C
:10124000094A12689047A0000849085840300575BF
:10125000290A4175290C8175290EC17500BF601CD2
:10126000C4B2022CC0DB70BD48000020400000204A
:101270004010005000E100E0002109E0002201E000
:10128000531C9AB27D239B019A42F9DB4B1C99B205
:101290008142F3DB7047002107E0002201E0531C8C
:1012A0009AB2092AFBDB4B1C99B28142F5DB7047ED
:1012B00010B50146272901DA002902DA0020C043CF
:1012C00010BDCC07E40F202904DA4A101B4800683F
:1012D000835C05E008462038421018484068835C6B
:1012E000002C01D01811EBE71807000FE8E770B5E4
:1012F000272801DA002800DA70BD0907090FC407A2
:10130000E40F202804DA43100C4E3668F21805E08A
:101310000646203E7310094E7668F2181578002CA8
:1013200001D00F2600E0F0263540002C01D00E073A
:10133000310E2E460E43167000BFDDE74C00002034
:1013400070B504460D46062000F00EF98A48006884
:101350000078000900012907090F08438649096838
:10136000087085480068007880218843E101802268
:10137000114008438049096808707F480068007878
:10138000402188437C49096808707B480068807860
:1013900008218843083078490968887092007749A5
:1013A000774800F0F7F97748406A402108437549CB
:1013B00048620846006A40210843724908620620D4
:1013C00000F0CBF870BD70B56B4800680478302031
:1013D00060400546684800680570102020400028DD
:1013E0000DD000BF644800680179654800F00AFA32
:1013F00061480068C078C007C00F0028F2D070BDF7
:1014000070B504460D46192000F0AEF85A48406801
:101410000078000900012907090F08435649496867
:10142000087055484068007880218843E101802297
:10143000114008435049496808704F484068007897
:10144000402188434C49496808704B48406880787F
:1014500008218843083048494968887092004A4901
:101460004748103000F096F9192000F076F870BD6A
:1014700070B54148406804783020604005463E48D9
:10148000406805701020204000280ED000BF3A4868
:10149000406801793A48103000F0B4F936484068A5
:1014A000C078C007C00F0028F1D070BDF0B50B4662
:1014B00001242404002112E000BF85002E4E75593E
:1014C000ED782D07ED0F002DF7D1850075596D785A
:1014D0005E5C35468600284FBE597570491C9142A6
:1014E000EADB00E0641E8500234E7559ED786D0738
:1014F000ED0F002D01D1002CF4D1F0BD70B50446E4
:101500000D4621011E4A8818294600F089F970BD50
:1015100070B504460D4600BF022C01DB002070BDF3
:101520002101174A881800F090F900280AD12001FB
:1015300013494018C5682101114A881800F08EF936
:10154000C0B2ECE70020EAE70146012901DD0020F6
:1015500070478800084A1058FAE7C206D20E0121E7
:1015600091400A4A11607047C206D20E0121914093
:10157000064A803211607047540000205401002058
:1015800034010020008002205403002000E100E02C
:1015900010B50246062001238340754C236000BF2E
:1015A000744800680078000900010B071B0F1843FE
:1015B000704B1B6818706F48006800788023984350
:1015C000D3018024234018436A4B1B681870694874
:1015D00000680078402398434030664B1B681870C1
:1015E00064480068C078102398431030614B1B6832
:1015F000D8706048006880780823984308305D4BB5
:101600001B6898705C48406A402318435A4B5862E4
:101610001846006A40231843574B186206200123DE
:101620008340534C803C236000BF10BDF0B50B4697
:1016300001242404002112E000BF85004D4E75599D
:10164000ED782D07ED0F002DF7D1850075596D78D8
:101650005E5C35468600474FBE597570491C914205
:10166000EADB00E0641E8500424E7559ED786D0797
:10167000ED0F002D01D1002CF4D1F0BD10B50821E3
:101680000020FFF785FF10BD0FB438B50024049883
:10169000002803D138BC08BC04B0184705A8009046
:1016A0003648009A049905F08BFCC4B200200090E3
:1016B000802C00DD8024224630490020FFF7B6FF51
:1016C00000BFE7E70FB438B50546002405980028A9
:1016D00003D138BC08BC04B0184706A800902748BE
:1016E000009A059905F06CFCC4B200200090802C93
:1016F00000DD8024224621492846FFF797FF00BFDE
:10170000E7E7F8B505460E4617460024002D02D03F
:101710002846FFF7B9FF00241BE02046E117490FD8
:101720000918C910C900611A03D1A1B214A0FFF7AA
:10173000ABFF315D14A0FFF7A7FF601CC117490F75
:101740000918C910C900411A02D111A0FFF79CFF66
:10175000641CBC42E1DB2046E117490F0918C9109F
:10176000C900611A02D00AA0FFF78EFFF8BD000081
:1017700080E100E05C000020008002205405002091
:101780005B253034785D2000253032782000000061
:101790000D0A00000023436003608260C16070474F
:1017A000416801607047F8B504460F461546606809
:1017B0004019A168884219DBA088281A86B262689D
:1017C000E16888183246394605F039FCA81B85B215
:1017D0002068A84202DC2088401E85B2B9192A463A
:1017E000E06805F02CFC65607019F8BD6268E1687E
:1017F00088182A46394605F022FC60684019606066
:101800002846F2E702465368581C5060D068C1541D
:1018100093685068984201DB0020506001207047B7
:10182000024653681068984201D10020704713683F
:10183000581C1060D068C05C0870936810689842AB
:1018400001DB002010600120F0E701464A680868CB
:10185000904201D1012070470020FCE701460022A0
:101860004B680868984200DD8A68486880180B68F1
:10187000C01A704710B56E480068007E40084000EE
:10188000401C6B49096808766A480068002802D045
:1018900068490868804710BD10B565484068007EFB
:1018A00040084000401C6249496808766148406829
:1018B000002802D05F494868804710BD10B55C48D9
:1018C0008068007E40084000401C594989680876BD
:1018D00058488068002802D056498868804710BD63
:1018E00010B55348C068007E40084000401C504975
:1018F000C96808764F48C068002802D04D49C868BA
:10190000804710BD10B54A480069007E400840007D
:10191000401C47490969087646480069002802D0FA
:1019200044490869804710BD01468800404A105864
:101930000078C007C00F7047F0B504460E46154644
:101940002046FFF7F1FF002801D1052C01DB002024
:10195000F0BDA00037490E50042C13D1A00034492B
:101960000A585179177909023943084691790904CF
:101970000843A1002E4A51580D712A0A4A71280CB9
:1019800088710EE0A0002A490958487909790002B7
:101990000843A9B20846A100254A51580871000A17
:1019A0004871002B0BD0A00021490858007F400847
:1019B0004000401CA1001E4A515808770CE0A000CE
:1019C0001B4908582030007840084000401CA10006
:1019D000174A515820310870A0001549085800785E
:1019E00040084000401CA100114A515808700120D5
:1019F000AEE700B503461846FFF796FF002801D072
:101A0000052B00DB00BD9800094908580078400804
:101A100040009900064A5158087000BFF2E701469D
:101A20008800034A10580078C007C00F70470000B4
:101A300064000020D405002010B5F8480068002894
:101A400002D0F64908688047F548006840794008A8
:101A50004000401CF2490968487110BD10B5EF48BC
:101A60004068002802D0ED4948688047EC4840684B
:101A7000407940084000401CE9494968487110BD60
:101A800001468800E64A105870478200E34B99509F
:101A9000704710B58200E24B9A58127852085200F3
:101AA000002901D0012300E00023DB07DB0F1A43EC
:101AB0008300DB4CE3581A7010BD10B58200D84B80
:101AC0009A58127952085200002901D1012300E0EE
:101AD0000023DB07DB0F1A438300D14CE3581A7154
:101AE00010BD10B58200CE4B9A58D27C08239A4381
:101AF000002901D0012300E00023DB00082423405B
:101B00001A438300C64CE358DA7410BD10B5820046
:101B1000C34B9A58D27CD208D2004B075B0F1A43B2
:101B20008300BF4CE358DA7410BD10B58200BC4B83
:101B30009A58927C80239A43002901D0012300E027
:101B40000023DB01802423401A438300B44CE35874
:101B50009A7410BDFFB581B004460E461D460A9F1B
:101B6000B807800F002805D1002D03DDFF200130CC
:101B7000854206DDABA10020FFF7A4FD002005B0E3
:101B8000F0BDA000A64908580078C007C00F002883
:101B900005D12246AAA1FFF795FD0020EFE7A0009E
:101BA0009F490958C878897800020843AB49084022
:101BB000E901AA4AD24311400843A100984A51586A
:101BC0008870000AC870A000114608580772390AC8
:101BD0004172390C8172390EC172A0001146085849
:101BE000807CC009C0017106490E0843A10051580C
:101BF0008874A00011460958487C097C00020843FB
:101C0000039989B20846A10051580874000A487423
:101C1000A00011460858407840084000401CA10030
:101C2000515848700120AAE7FFB581B004460E461E
:101C30001D460A9FB807800F002805D1002D03DD3F
:101C4000FF200130854206DD76A10020FFF73AFD36
:101C5000002005B0F0BDA000714908580078C00709
:101C6000C00F002805D1224675A1FFF72BFD0020EB
:101C7000EFE7A0006A4908588178427808021043CB
:101C800077490840A901764AD24311400843A10090
:101C9000634A51584870000A8870A00011460858DD
:101CA0000773390A4173390C8173390EC173A0006F
:101CB00011460858807CC009C0017106490E0843CE
:101CC000A10051588874A00011460958487C097C2D
:101CD00000020843039989B20846A10051580874CC
:101CE000000A4874A0001146085840780221884331
:101CF000801CA100515848700120AAE7FEB5044697
:101D00000E4617461D46A000454908580079C007F1
:101D1000C00F029000200190A000085800794008F0
:101D20004000401CA1003E4A51580871A0001146D5
:101D30000858407940084000401CA10051584871A3
:101D400000953A4631462046089BFFF76DFF002874
:101D500013D000BFA000324908588079C007C00FD7
:101D60000028F7D0A0000858407940084000401CE7
:101D7000A1002B4A5158487101E001200190A000B8
:101D8000274908580079400840000299C907C90F3F
:101D90000843A100224A515808710198FEBDFEB5C2
:101DA00004460E4617461D46A0001D4908580079F6
:101DB000C007C00F029000200190A00008580079D1
:101DC00040084000401CA100154A51580871A0006D
:101DD00011460858407940084000401CA100515865
:101DE000487100953A4631462046089BFFF7B2FEFF
:101DF000002837D000BFA000094908588079C007E3
:101E0000C00F0028F7D0A0000858407940084000D3
:101E1000401CA100024A5158487125E08000002072
:101E200078000020444D4120706172616D657465D9
:101E30007220696E636F72726563740D0A00000030
:101E4000493243204D6173746572202564206973A3
:101E50002064697361626C65640D0A007F00FFFF96
:101E60003F80FFFF01200190A0000749085800793A
:101E7000400840000299C907C90F0843A100024A5F
:101E8000515808710198FEBD7800002001B582B05C
:101E9000012002AB00223C210090FFF72FFF0EBD76
:101EA00001B582B0012002AB40223C210090FFF737
:101EB00025FF0EBD70B50646002415E02146B03161
:101EC000C8B2FFF7E3FF0120FFF7E0FF1020FFF7A4
:101ED000DDFF002504E03046FFF7E2FF681CC5B2D5
:101EE000802DF8DB601CC4B2082CE7DB70BD70B538
:101EF00004460D462946B031C8B2FFF7C7FFF021AE
:101F00002140091108461030FFF7C0FF2107090FD3
:101F1000012211430846FFF7B9FF70BD10B500213B
:101F20000620FFF7E4F900210620FFF764F80A20F5
:101F3000FFF7A2F90620FFF7A0F80A20FFF79CF9A7
:101F4000AE20FFF7A3FF0020FFF7A0FF1020FFF750
:101F50009DFF4020FFF79AFF8120FFF797FFCF20DA
:101F6000FFF794FFA120FFF791FFC820FFF78EFF36
:101F7000A620FFF78BFFA820FFF788FF3F20FFF781
:101F800085FFD320FFF782FF0020FFF77FFFD520DA
:101F9000FFF77CFF8020FFF779FFD920FFF776FF5E
:101FA000F120FFF773FFDA20FFF770FF1220FFF731
:101FB0006DFFDB20FFF76AFF4020FFF767FF20205F
:101FC000FFF764FF0220FFF761FF8D20FFF75EFF40
:101FD0001420FFF75BFFA420FFF758FFA620FFF7B0
:101FE00055FFAF20FFF752FF0020FFF763FF0021EE
:101FF0000846FFF77CFF10BDF7B582B004461546D2
:10200000002001900026002720E0E85D2038C0B2C3
:1020100001907E2C04DD00240398401CC0B2039084
:1020200020460399FFF763FF002609E00622019985
:102030005143634A8918885DFFF732FF701CC6B2AE
:10204000062EF3DBA01DC4B2781CC7B2E85D0028E1
:10205000DBD105B0F0BDFEB505460E4617460020A3
:1020600001900024009034E00098385C2038C0B221
:102070000190782D02DD0025701CC6B2314628463D
:10208000FFF735FF002408E00199090109194D4ABD
:10209000505CFFF705FF601CC4B2082CF4DB701C19
:1020A000C1B22846FFF723FF002409E00199090186
:1020B00009190831434A505CFFF7F2FE601CC4B2B4
:1020C000082CF3DB28460830C5B20098401CC0B28B
:1020D00000900098385C0028C6D1FEBDF7B582B0EC
:1020E0000746164643E000243BE023206043364980
:1020F0004018203000783178884230D12320604366
:1021000031494018203040787178884227D1039AAD
:10211000D1B2F8B2FFF7EBFE00250AE023206043BE
:1021200029494018405D01900198FFF7B9FE681CED
:10213000C5B2102DF2DB039A521CD1B2F8B2FFF7F0
:10214000D6FE0AE0232060431F494018405D0190FD
:102150000198FFF7A5FE681CC5B2202DF2DB601CBC
:1021600084B2402CC1DBB61C3846103087B23078C0
:102170000028B8D105B0F0BD0FB4F8B505460E463D
:1021800000240898002803D1F8BC08BC04B0184704
:1021900009A800900D48009A089904F011FFC4B2F4
:1021A00000200090802C00DD802400200749085585
:1021B0000A4631462846FFF74EFF00BFE4E700001D
:1021C000CB960010F39800104A950010E805002007
:1021D00070B504460E4615460E206349096808701E
:1021E000681C6149096848705F48006884702A4625
:1021F00031465D480068C01C04F021FF70BD08B581
:102200005AA0FFF741FA00F008FE002802D0002093
:10221000009001E001200090012269461620FFF79E
:10222000D7FF08BD38B50446002500BF2CE0E01CF0
:10223000415D524802790079401CC3B24F48037196
:102240002038815420300079202819DB4B4920396F
:10225000096A4801494A203A202100F08AFE0028F4
:1022600002D00020009001E00120009000214348AE
:1022700001712038006A401C40492039086201E0A1
:1022800000200090681CC5B2A078A842CFDC0122D3
:1022900069461720FFF79CFF38BD38B5044637481C
:1022A0000079002808D0354A1179203A126A500185
:1022B000324A203A00F05DFE204604F021FF054638
:1022C000607921790002084303462A460021084626
:1022D00000F05AFE002802D00020009001E001200A
:1022E0000090012269461820FFF772FF38BD70B5D3
:1022F00004460E4625462878162804D017280BD009
:1023000018281ED116E00020FEF713F8FFF777FF1C
:1023100001201B49087014E0A81CFFF783FF184830
:102320000078002802D102201549087000201549C4
:10233000087006E0A81CFFF7B0FF032010490870E2
:1023400000BF00BF70BD70B505460C46064800686A
:102350004078821C0C49284604F071FE024800684F
:102360004078801C207070BD90000020436D644652
:102370007745726173650D0A000000008806002031
:1023800088000020890000208A000020074880473C
:1023900007480047FEE7FEE7FEE7FEE7FEE7FEE749
:1023A00004480549054A064B70470000CD2300103C
:1023B000C1000010701B0020706B0020705B0020BB
:1023C000705B0020034804490860704701480249D7
:1023D0000860704740787D0194000020F749202272
:1023E00008781043EF221040042210430870704711
:1023F00010B5F3488047002802D002F051FF0120B9
:1024000010BD10B502F0AFFF10BDED4928310847EF
:10241000EB493C310847EA496C310847E94908472C
:10242000E8495C310847E7496A310847E5497631B0
:102430000847E44986310847E24994310847E149B1
:10244000A2310847DF49AE31084730B4DE4CA4461C
:1024500030BC6047DC4874300047DC480047F8B5C2
:10246000DB4DCF222968DB4C08780026104008702D
:102470002068D94918308847286822680178127F77
:10248000090912070901120F114301700907090F09
:10249000BF27012921687DD00A4622314B7809786F
:1024A0001B020B43114620310B711B0A4B71037841
:1024B000117A3B4089010B435906490E017022688D
:1024C00041784032127A8909921D92068901920E52
:1024D0001143417021680622801C093104F0AFFDD0
:1024E00021684820425C002A04D02868493108301D
:1024F00004F0A5FD2168B84A7020405C323A713181
:1025000090472868B54A41788906890E891C90470A
:102510002868017809090901091D017022683940FC
:10252000127AD207520E114301702268417820328C
:10253000127A8909921D92068901920E1143417007
:1025400021680622801C093104F079FD21682820C9
:10255000425C28682931083004F071FD2868A04ADF
:1025600041788906890E891C9047256800206F7F75
:10257000012181400F4204D0E97F0B2251438E1983
:10258000761C401C0328F3D32C4620346078217835
:10259000000200E01AE0084313214843401CB04207
:1025A00006D2701E04F0C5FD401C2070000A607049
:1025B0006078217800020843022803D202202070AC
:1025C00000206070287F012824D03AE00B4620319B
:1025D0008A79CA71197A0278C9073A40490E0A43C2
:1025E000027051062268490E6032127CD2011143FA
:1025F000017041780622890989010C3141702168F6
:10260000801C093104F01BFD28682168062208306F
:1026100071316DE7E079002813D0607822780102EB
:10262000114313204143A079491CC00304F081FDEC
:10263000401C06467F2104F07CFD401CC1B2E171C4
:102640001EE0607921790002084331D06078227859
:102650000102114313204143284622304278037877
:1026600010021843C003491C04F063FD401C0646D9
:102670007F2104F05EFD401C81B22171080A607167
:10268000304604F056FD401C7F2800D97F200121F0
:10269000E975A97F00916178237809021943514CAB
:1026A000EA7FC0B23B46A0474E4834308047F8BD71
:1026B00000204D4CE875034602460121A047F8BDB5
:1026C0004A48002201684A750A7C012002430A74C4
:1026D000404909682031C87108710020487170476D
:1026E0003A491A3108473948F43000474048004712
:1026F00038B5049C00943E4C0E34A04738BD30B42D
:102700003B4CE834A44630BC604710B502F021FFD2
:1027100010BD10B502F039FF10BD3549A43108478E
:102720003448004733483230004732494631084781
:102730003049B23108472F49C23108472D4AD032BB
:10274000104710B501F0FEF910BD2A49FC310847C9
:102750002949084728490E31084727493631084793
:1027600010B501F0CEFC10BD10B503F034FB10BD68
:102770002148DC3000471D480068C0788007C00F42
:10278000704770B513480068817C427C0802104392
:1027900012D0FFF7F0FF094C0225012830D116486E
:1027A000DC308047154988422AD12178012029430D
:1027B0000143217003F00FFB70BD0000CE16002016
:1027C000DF5600001558000027590000CD5B0000BF
:1027D000C4000020C0000020451D00002B26000082
:1027E00047270000971B000031540000B80000206C
:1027F000F55C00005B5E0000675F000006040000FF
:1028000020788021084328432070D5E7F8B5FE489A
:10281000C079000656D5FD480668B17C707C0F0271
:102820000743F948057801D0A80701D4680749D5BE
:10283000F54C207BE17A0002E41C084342D0002FD3
:1028400040D060782178000208432AD1307CF17BA7
:102850000002084305F03BF90022ED4B05F03AF980
:1028600005F0E8F880B278430A2104F06CFC4004DB
:10287000010C2170080A6070307DF27C0002104368
:102880000A224243914203D3401E2070000A607026
:10289000607821780002084303D1012020700020D5
:1028A0006070FD210D40D84801210D4305700020C6
:1028B00003F091FA6078227801021143D64BD54A91
:1028C00009209847F8BD10B50F21CF4804F014FC3B
:1028D00010BDF0B504468DB0401C04F011FCCA4E8A
:1028E00000253E3E024604282AD0C748D31F01785F
:1028F000FF3BFA3B18D001239B039A4279D1C6498A
:102900000A202431884770780621484381190A2219
:10291000601D891C04F093FB7078401CC0B270707D
:102920000A2876D3757074E0C279002A71D0CA067D
:102930006FD4A37966791A023243012A05D068E080
:1029400075703570FFF7BFFF63E08278521E120684
:10295000120E82704ED0AC49437888794E790202CB
:102960003243887A4E7A00023043491C012B47D00B
:10297000801A0872000A487200060B7A000C18438D
:10298000831A6A46138350839F4A167BD27A360293
:1029900016436A4696834A7B0F7B110239436A4687
:1029A000D183138050809680D18013723220507270
:1029B00000209072D572280A1073012050730020F5
:1029C00090730220D07300201074032050740020F4
:1029D00090740420D07400201075052050750020DC
:1029E00090758E49104688478C4906A81E31884745
:1029F0000FE007E0027A827040221143017008E084
:102A00008018B6E7880604D59004000F01D0FFF7C0
:102A1000FDFE83492046096988470DB0F0BD10B519
:102A20000446001D04F06CFB7D490861211D7D48B2
:102A300004F077FB794920465C31884710BD77491F
:102A40007E3108477549D4310847744ADC32104753
:102A5000724AE43210476C4900203E390A784978BE
:102A60008A4200D90A200818801A401EC0B2704756
:102A700000B5FFF7F0FF002804D1634800213E387D
:102A80004170017000BDF8B50E46074666491C4608
:102A9000154601208847002807D0FFF7B7FE2346D8
:102AA0002A463146384602F030FDF8BDF8B50E46EC
:102AB00004465D491F46154601208847002814D06A
:102AC000022C03D1FFF7C7FF002809D0EAB2534D0B
:102AD0003B4631462046F435A847012807D004E09C
:102AE0000A214D4B514A084698470020F8BD022C58
:102AF00012D1454C06213E3C20780A464843001935
:102B00003146801C04F09BFA2078401CC0B2207033
:102B10000A2801D3002020700120F8BD70B50D46B1
:102B200004461121401989031646884201D300202A
:102B300042E63F480068213004F0E2FA3D4B0019BC
:102B400032462946984737E6F8B50646EFF3108433
:102B500072B6374D2868213004F0D2FA8019364A0F
:102B60000121904784F31088334F0024F63FEFF3A0
:102B7000108572B62E480068213004F0C1FA311970
:102B800040182E4900230A192021B84785F31088E0
:102B90000120000320348442E9DBF8BDF7B50705C6
:102BA00001993F0D002912D0029900290FD01C492C
:102BB000897800290BD101997A18012109038A42E9
:102BC00005D8019A112382181B039A4201D90020CB
:102BD000FEBD0025C41BEFF3108672B614480068D2
:102BE000213004F08DFA611940181449114B4A192B
:102BF0002021984786F31088012000032035854264
:102C0000E9DB0E48C0191BE0CE160020C0000020F2
:102C10000000F43F83270010D3330000575F00000B
:102C200098000020D328001045850000712A00106C
:102C3000BC0000208F1600009F18000090060020A6
:102C4000019A029904F0FBF9FB490120884700280A
:102C50000AD0EFF3108072B6F84901228C808A7096
:102C600080F310880120FEBD2046FFF76DFFF9E7D5
:102C7000F3490847F24A0832104738B5049C0094DB
:102C8000EF4C1034A04738BD30B4ED4C1C34A44692
:102C900030BC6047EA4924310847E94A2C321047E2
:102CA000E74A3432104730B4E54C3C34A44630BCDB
:102CB0006047E34B44331847E14B4C33184730B47B
:102CC000DF4C5434A44630BC6047DD495C310847D2
:102CD000DB4864300047DA496C310847D949084776
:102CE000D84908310847D7498C310847D548BE3004
:102CF0000047D448E2300047D34A1047D249523106
:102D0000084710B503F026F810BDCF4964310847D5
:102D1000CD496C310847CC497631084710B502F0EF
:102D2000B9FB10BDC948004770B5C448002480688D
:102D30002546807A4006C60F72B6C44880470220F6
:102D400002F0A8FB641CA4B2FA2CFBD3002430468A
:102D500002F05CFB002801D0012503E0641CE4B212
:102D6000032CF4D362B6284626E510B502F066FFC0
:102D700010BDB6480E300047B54A1047B44A223A53
:102D8000104738B502F05AFFB2480068407805286D
:102D90001FD1AA488068807A4006C40FAB4880479C
:102DA00000217F20FFF7E8FF69463F20FFF7E6FF9D
:102DB000684600788109022906D14106490E684615
:102DC00001703F20FFF7D8FF002C02D19F480E3042
:102DD000804738BD9C49A431084730B49E4CA44676
:102DE00030BC60479848F630004798481438004790
:102DF00096491C31084795484230004793484C306B
:102E0000004710B591488047944C0120A04700200E
:102E1000A04710BD924908707047F8B5002472B6FB
:102E2000904A0121904B09032046984762B68F4E85
:102E300030680546093004F063F98A494718E87894
:102E4000002811D02846313004F05AF906462846A9
:102E50002D3004F055F9301A4002060E3878844FB0
:102E6000824D002857D073E02846293004F048F9F5
:102E700006462846253004F043F9301A4002060E73
:102E800038787B4F794D00280CD026E072B6286840
:102E9000293004F035F9E10340180821B84762B63B
:102EA000641CE4B2B442F1D32D682846293004F002
:102EB00027F906462846253037E072B6E203B018F7
:102EC00019E072B62868253004F01AF9E1034018B9
:102ED0000821B84762B6641CE4B2B442F1D3286852
:102EE0000646293004F00CF905463046253039E015
:102EF00072B6E2038018B84762B60120F8BD72B618
:102F00002868313004F0FCF8E10340180821B84784
:102F100062B6641CE4B2B442F1D32D682846313065
:102F200004F0EEF8064628462D3004F0E9F8301A91
:102F30004004410FC1D1E0E772B628682D3004F09B
:102F4000DFF8E10340180821B84762B6641CE4B218
:102F5000B442F1D328680646313004F0D1F8054672
:102F600030462D3004F0CCF8291A4904490FBFD15E
:102F7000C3E7364BC23318473E4B184730B43D4C7D
:102F80006634A44630BC604730B43B4CA44630BCE9
:102F90006047F8B539488047284DA878002809D0FF
:102FA000A888FFF7D1FDEFF3108072B60021A97059
:102FB00080F31088324CE079002834D0000610D518
:102FC0002078410705D5FFF721FC2078FB21084038
:102FD00006E0000605D5FFF719FC20784006400EF4
:102FE00020702078274F284E41060AD5BF2108407F
:102FF000207002206946088002466B463946002050
:10300000B0472078C1070ED04008400020708007EC
:1030100001D5042000E005206946088002226B46A5
:1030200039460020B0476878C10704D04008400006
:103030006870E8688047F8BD45850000980000206A
:103040005D6100008B620000916300006B66000010
:10305000A7290000C0000020E9310000692D000010
:10306000AE000020900600208F160000BC0000205B
:103070009F1800001B68000061690000D164000017
:10308000CE1600200002000031540000FE48004728
:10309000FD483A300047FC4852300047FA486A3051
:1030A0000047F9486E300047F8498A69120A12024F
:1030B00002434A61087C0122104308747047F8B546
:1030C0000446F348017DE20649094901D20E114345
:1030D00001750221EF4D7F20A847EE4E252069465D
:1030E000223EB04768460178214301702520A84759
:1030F00069462520B0479EE7E748E849006841183F
:10310000487C097C000208437047F8B50546EFF398
:10311000108472B60021DF4E7F20B047DD4A1720B1
:103120006946223A9047684601789F200140A807E7
:10313000400E0143684601701720B04784F31088A1
:1031400079E738B5EFF3108472B60021D14A7F20B9
:103150009047D04A17206946223A904784F3108856
:10316000684600784006800F38BDCD490840C74901
:103170004A6882434A607047C9490840C3494A685F
:1031800002434A6070471CB56A4690801180C5486A
:103190005080D0806946012001F0C0FC1CBDC248AF
:1031A000004770B50546C1480C468268107AFB217D
:1031B00008401072BE4928468847BD4A2146284625
:1031C0005E3A9047B4E470B5BA4C2468E47BA40638
:1031D000A40E00280AD0B04D2D68ED7D002D05D03D
:1031E000052C07D0062C05D00F2C03D002F0E1FEF1
:1031F00001209DE400209BE470B5044603200003F9
:10320000844221D9AC480568E878002802D001281A
:103210000AD01BE02846253003F072FF0646A04284
:1032200014D82846293008E028462D3003F068FFDE
:103230000646A0420AD82846313003F061FF014615
:10324000801B0818A04201D9002071E401206FE41E
:1032500010B572B6994A904762B610BD70B5144663
:103260000D460646FFF7C8FF002806D072B6224674
:10327000934B29463046984762B659E410B572B66A
:103280008F4BAE33984762B610BD10B572B68B4CFB
:10329000F63CA04762B610BDF7B50025C80288B05D
:1032A0000E462C46070C11E0089861010818844B63
:1032B0006A4620219847002069460A5C401C521942
:1032C000C0B295B22028F8D3641CA4B2BC42EBD3A0
:1032D000F6060898F60E61010818794B6A463146E1
:1032E00098470020694604E00A5C5219401C95B2D8
:1032F000C0B2B042F8D30A98854202D101200BB087
:10330000F0BD0020FBE7FFB50E460121074609038B
:103310006B4BA5B06B4A0020984735226949684637
:1033200003F08DFE02A8013003F0EAFE6549572242
:10333000441821460EA803F082FE2021601C03F0F1
:10334000DBFE0025002F10D00020395C00290AD0B8
:103350002218401CC0B251702028F6D305E0211875
:10336000401C4D70C0B22028F9D3204605212130E1
:1033700003F0C2FE002E12D00020315C00290CD0D8
:1033800022182032401CC0B251700528F5D306E047
:1033900021182031401C4D70C0B20528F8D32146B9
:1033A0002631279803F0BDFE214622312898087265
:1033B000000A48720121414A2570002090470121EE
:1033C0003F4B090300203F4AAE339847012029B004
:1033D000F0BDF0B5027889B0002A77D03A49CA71B9
:1033E00042780A72002A01D0042A01D904220A7202
:1033F000C278847813022343334A1C0A53729472AE
:103400004479057924022C431546EC72260A2E7362
:10341000A646C4798579200228435073040A84465D
:103420001D489473046808252746207CE47B00022D
:1034300020430124521C83424C7008D9181A07E01B
:103440001471200A01E01571280A507107E0C01AB2
:103450000E7AB04270DA1471260A56710872087A30
:1034600088700D70002B63D05079117900020843E9
:10347000191A6846018343836146C183714681837B
:10348000B87C797C000222E0713C00000010005002
:1034900040600250A7290000C00000206305000022
:1034A000FCFF0FFD480800000D33000098000020CD
:1034B000AB310000B8000020BC0000209F180000C5
:1034C0008F16000090060020CE16002038E008433A
:1034D00002D0002002F07FFC6846018B0180428B05
:1034E0004280828B8280C28BC28001723221417203
:1034F00000218172C17201734473210A8173022118
:10350000C1730021017403214174002181740421DD
:10351000C174002101750521417500218175F749AC
:103520008847F64906A81E318847F549092088478B
:10353000012009B0F0BDFFE7F600B04283DA7FE773
:103540000020F6E7FEB50746EE4801780A077DD56C
:10355000F72211400170BA797C1C7B7912021A4360
:103560007BD0C279120678D51022114301708806EB
:1035700073D4E54880470546607921790002084305
:10358000FF1C002832D004F0A2FA06460091787899
:1035900039780002084304F09AFADC4F00223B46D7
:1035A00004F098FA3246009B04F094FA0090D84850
:1035B00001910068017CC27B0802104304F087FA85
:1035C00000223B4604F086FA07460E46607A217ACE
:1035D00000020843401B04F072FA3A46334604F0F6
:1035E00079FA019B009A03F0D1FF24E078783978CA
:1035F0000002084304F0E8FB0646C5480068017C69
:10360000C27B0802104304F0DFFB314605F0A0FD49
:1036100004F084FB0022BD4B04F05CFA07460E4622
:10362000607A217A00020843401B04F048FA3A46C7
:10363000334604F04FFA0022B64B03F0D7FF04F0F4
:10364000F9F90104090C00D1012101E00EE004E0C8
:10365000AB4B0920B04A243B9847032069460881B8
:1036600002221102AD4C02AB0020A047FEBD38B5CE
:10367000AB4C2078002804D1AA496846884701202D
:103680002070012038BD10B50B30102801D9FF2063
:1036900010BD9B4BC4B22046243B9847204610BD2A
:1036A00010B50B30102801D9FF2010BDC4B29449C9
:1036B00020468847204610BD072801D900207047C2
:1036C00001228240964843781A434270C16001202B
:1036D00070478F480068C07D70478D4892490068E8
:1036E0004118487C097C00020843704710B503006C
:1036F00005F0D6FC09061C36506A849EB0CAE60066
:1037000000217F20FFF738FB00213020FFF734FB3A
:1037100001217F20FFF730FB1E216320FFF72CFBE8
:103720001F216D20FFF728FB882114E000217F2056
:10373000FFF722FB00213020FFF71EFB01217F2035
:10374000FFF71AFB1E216320FFF716FB1F216D20D8
:10375000FFF712FB8A216120FFF70EFB8121ACE00D
:1037600000217F20FFF708FB00213020FFF704FB3A
:1037700001217F20FFF700FB1E216320FFF7FCFAE9
:103780001F216D20FFF7F8FA8A216120FFF7F4FA74
:10379000832192E000217F20FFF7EEFA0021302004
:1037A000FFF7EAFA01217F20FFF7E6FA1E216320E6
:1037B000FFF7E2FA1F216D20FFF7DEFA8A21612070
:1037C000FFF7DAFA872178E000217F20FFF7D4FAAB
:1037D00000213020FFF7D0FA01217F20FFF7CCFA3B
:1037E0001E216320FFF7C8FA1F216D20FFF7C4FADE
:1037F0008A216120FFF7C0FA8F215EE000217F203F
:10380000FFF7BAFA00213020FFF7B6FA01217F2036
:10381000FFF7B2FA1E216320FFF7AEFA1F216D20D9
:10382000FFF7AAFA8A216120FFF7A6FA9F2144E058
:1038300000217F20FFF7A0FA00213020FFF79CFA3B
:1038400001217F20FFF798FA1E216320FFF794FAE9
:103850001F212AE000217F20FFF78EFA022130206D
:10386000FFF78AFA01217F20FFF786FA1F216320E4
:10387000FFF782FA03216D20FFF77EFA8A2161208B
:10388000FFF77AFAB02118E000217F20FFF774FAE1
:1038900002213020FFF770FA01217F20FFF76CFA38
:1038A0001F216320FFF768FA07216D20FFF764FAF4
:1038B0008A216120FFF760FABF216520FFF75CFADB
:1038C00010BD1A49096860310874704710B50028A6
:1038D0000ED001282CD0022830D0032807D1022195
:1038E0007F20FFF749FA40212920FFF745FA10BD54
:1038F00002217F20FFF740FA4621F5E7575F0000DD
:10390000F7330000CE160020051B00000000F43F36
:10391000C000002000002440DD23001031540000CE
:10392000980000209D2C000063050000B8000020D6
:1039300002217F20FFF720FA4421D5E702217F20D2
:10394000FFF71AFA4221CFE710B504467448006821
:10395000093003F0D5FB1021724B224657309847AF
:1039600010BDF8B50546EFF3108472B66E4E012710
:103970003F036C4B394600203268984701216B4A5F
:103980000020904766480068093003F0B9FB3168B1
:10399000102257314018294603F051FB0023634D94
:1039A00039461846F63D3268A84784F31088F8BDBA
:1039B0005F490A69D208D2000A61401E48610020AE
:1039C000886108690122104308610869C003FCD5B9
:1039D0007047F0B500260B460446012597B03046E7
:1039E00031462D03675C491CBE19A942FAD3002158
:1039F000675C491C7840A942FAD39E422BD1904281
:103A000029D1474E3068093003F07AFB454B6A46AE
:103A1000572198473068093003F072FB001957228C
:103A2000694603F00CFB30680D3003F069FB414937
:103A3000001909680722083103F001FB01213B4A04
:103A400000209047374B002022462946AE33984746
:103A5000012017B06EE50020FBE770B501252D03AE
:103A60000446304B344A29460020984733492046C3
:103A700088472B4800680D3003F042FB2E4907228F
:103A800040182C490968083103F0D9FA0121274A66
:103A900000209047234B0020274A2946AE33984701
:103AA00070BDF8B504001AD02549684688470098CB
:103AB000002816D01C4D012109031A4B00202A684A
:103AC0009847174F3868093003F01AFB29686731A7
:103AD000405C401CC6B2052E05D90220F8BD01206D
:103AE000F8BD0420F8BD0320800384430098A04261
:103AF00001D10020F8BD01210C4A00209047386810
:103B0000093003F0FDFA296800236731465401218A
:103B1000064C09031846F63C2A68A0470320F8BD66
:103B2000BC0000208F160000F00000209F1800004D
:103B300000E000E0C0000020900600204B5700008D
:103B4000C12C0000FE490A79002A00D00870704795
:103B5000F8B5FB4C63695979002915D0B121C95CCE
:103B6000C91F092956D8014618461022D93003F03A
:103B700066FAE078002502210128606905D04279C3
:103B8000D2060FD5EF488047F8BDCA22125C012A41
:103B9000FAD1C279012A01D1C57137E0002AF3D1E7
:103BA000C171F8BDC279012AF8D1CA21095C012985
:103BB0002AD1E0698026017801208840216A0968BD
:103BC000884300D181260027DF4880476169C919F1
:103BD000E0317F1CFFB24876102FF5D36069334681
:103BE0000146E93102460091FF31F9321131D74ED9
:103BF000FF305A30B047E0690078142803D2616979
:103C00000120C87101E06069C5716069D049E9307F
:103C10008847F8BDCB4B0622002101208C3B9847FA
:103C2000F8BDF1B5C64CA4B06069417900292BD02C
:103C3000CA210A5C2146C64F49691C370025E93173
:103C4000012A23D006460246713609320491711EBC
:103C5000531E0196BE4E02930392CA33C2320091A4
:103C60007A36FF300A302499B0476169102208463D
:103C7000D930E93103F0B6F900287CD0B14B0422E9
:103C8000002101208C3B984725B0F0BD0C950D9587
:103C90000E950F951195129513951495427901265D
:103CA000D206002A03DBA64A1379002B7ED0F93016
:103CB000B847A34C2079002822D01DA80195009078
:103CC0006369A44F18460146FF30FF31FA305A317C
:103CD000F933249AB8471DA8013003F011FA18A946
:103CE000097D000208439C4903F023FA0422019154
:103CF00011049A4F01AB0020B847207800287DD0EE
:103D0000676907223946093115A803F098F9394641
:103D10000722713117A803F092F9387A002810A809
:103D20006DD086767020C05D002818A868D0867097
:103D300004A83A460190F9321046844E15ADC030C1
:103D400017AB009546362499B0476069102204A944
:103D5000813003F074F908AE0FCE19AE0FC6616959
:103D600003220E4621A8D33103F069F9032231461C
:103D7000CC3122A800E073E003F061F93046FF3057
:103D8000EA30039017AF21A96846A2C03146714EB0
:103D9000F93111AB19A86A3E249AB047626922A989
:103DA0001046FF30DA300CAB019700E00AE00091DA
:103DB0000390029519A8F9322499B0476849002068
:103DC000884761E75E4A3446D2698023127894407E
:103DD0005B4A126A1268944300D181230091014624
:103DE000FF315A31594CFF30FA30249AA0475448D9
:103DF000102240690146E931D93002E025E02BE08C
:103E00002CE003F0EFF8002801D004221EE04C4C17
:103E10006069F930B847E0690178491CC9B201709E
:103E20001429CED3216A0868020C08A8827410A84D
:103E300082710888020A08A8427410A842710978A1
:103E400008A8017410A8017133E70C223D4B002132
:103E500001208C3B984717E7857663E7857067E715
:103E600060690026F930B8476369384F1946FF3357
:103E70000A33363F1846F931249AB847606910234F
:103E80000146A03106E017183246FF320A32761C8E
:103E9000BD54F6B24A7C9F1AB742F4DC3049002088
:103EA000884760694179490849004171ECE6F0B5FD
:103EB0000446C07885B0072807D2224B062200218D
:103EC00001208C3B984705B0F0BD1D4E0121706963
:103ED000CB221154002506222146CC3003F0AFF846
:103EE0001120716940010818A0314E7CC17E827F8B
:103EF000437F04920A07D20F009203934A07CF062A
:103F0000D30FFF0F02968A0701970E4E920F817E04
:103F1000407E643EB047A07810260007002843DAB0
:103F2000074A1121506949014718FB7E19073BD503
:103F30000121CA2211545A0715D4A278520711E060
:103F4000AC0000205DA100004D250000B3AA0000D8
:103F500055A90000FFAB000040420F0031540000A3
:103F6000F73300000ED57B7E22789D005B19FE4D55
:103F70005B19D55C882D02D0102D03D005E0FB4ADB
:103F8000117102E04179314341714179C90634D55B
:103F90000B21C9014018C07D01282ED16421F54BA9
:103FA000F34A0520984728E0F04F00217869CA229B
:103FB0001154112149014118CA7E520702D4A27836
:103FC000520709D5497E22788B00C918E64B193B68
:103FD000C918555C102D02D1417931434171E44A31
:103FE000E44B943AE449002098476079C00704D034
:103FF00078690322817911438171607980070BD53B
:10400000DA481121406949014118897F890703D5A0
:1040100081790C2211438171207980070BD5D34817
:104020001121406949014118497F890703D5417928
:10403000802211434171CD4841690846A030467441
:10404000E278102A00D24274487901221043CB4C06
:104050004871202D08D0402D00D034E700231A46A7
:1040600040210020A0472EE700231A462021F8E730
:1040700070B5BE4C0D466369002825D0A0690C219F
:1040800081711946FF3120225A31C01D02F0D7FF3D
:104090006169A069FF31202227307A3102F0CFFF19
:1040A0000621B74A412090470B216069C901411898
:1040B000C97D002907D14079C00602D420790128A2
:1040C00001D1AB48804770BD1846FF302022FA303E
:1040D00002F0B5FF2022AB4B6069A9180E46C0184C
:1040E00002F0ADFF6369A84C1846FF309A30FF33E9
:1040F00032462946BA33A04729460120FFF7B8FFC8
:1041000070BDF0B5994C0646606985B04179C90724
:104110002AD0FF3010210A3002F0EEFF6069320A27
:10412000C11DF9314E728A72320CCA72320E0A7394
:10413000CA21095C0125012918D00346064601461B
:104140000933E9365A1E713101AF4EC7491E00913D
:10415000C933C33289318D4EFF300A30B0476069B0
:10416000C17902292FD00BE00020ACE6206A0021A3
:104170000660E269802311706269D179022904D056
:104180006069C17900292AD02AE000682946814364
:1041900000D18123E168002040314E7D1718E037BF
:1041A000401CC0B27E761028F7D36069774E014676
:1041B000E93102460091FF31F9321131E436FF3026
:1041C0005A30B047CBE771497A39E930884760699E
:1041D000CA21095C012902D00021C17100E0C5712A
:1041E000012070E6F8B5614C694F6169CA19517BCD
:1041F000127B09021143009102F09BFF0646A07852
:104200000D46002826D0634908208847002804D09E
:1042100060490220884700280CD06069C119487B9A
:10422000097B00020843C01C704384B2002D1AD0E1
:10423000601916E06069C119487B0A7B0102A06C15
:104240001143C21C891871438CB2002D0BD0281861
:10425000001906E00098C01C704384B2002D02D003
:104260006018C01C84B24C488047A04201D2002094
:10427000F8BD0120F8BD70B50546D01D14460E46A8
:1042800080B2FFF7AFFF002810D038481B218069AB
:104290002A0A8171C571027222463146093002F044
:1042A000CEFEE41C364AA0B20421904770BD70B522
:1042B0000546D01D14460E4680B2FFF793FF002836
:1042C00010D02A481D2180692A0A8171C5710272A5
:1042D00022463146093002F0B2FEE41C284AA0B260
:1042E0000421904770BDF7B5204E2949706900241C
:1042F000091F2546401802F003FFB2691121917190
:10430000837846781B023343009E421C0146B34229
:1043100058D3019EB34255D80E79CF783302029E0E
:104320003B43B3424ED10B78172B55D00F4E06238B
:10433000B669F371577813783F021F43062363432E
:104340009E1937723F0A77725679177936023E43C3
:10435000064FBF69DF19BE72360AFE72034ECF796F
:10436000B6699E19377319E0FC9E0010AC0000205E
:104370005DA10000D3330000B80B000031540000F1
:10438000ED7F000019020000EF2A0000CFA9000015
:10439000610300006994000043600000F74F0E7A4B
:1043A000BF69AD1DDB195E73F44BF54E5B69ADB2B1
:1043B0009E19737C367C1B02641C3343AE1DE4B231
:1043C000B34225D3537916791A02EE4B32439A42FF
:1043D0001ED00178081893E7002C1BD1E74814235E
:1043E0008069C91DC3715478167823023343037260
:1043F0001B0A4372537914791A0222438272120AF9
:10440000C27210220C3002F01AFE1435ADB201E077
:10441000002C05D0AD1CDC4AA8B204219047FEBD9B
:104420000A22DA4B102000999847FEBDF7B5D34E0B
:10443000D749706900252C46401802F061FEB16929
:1044400009228A71837846781B023343009E421CFE
:104450000146B34232D3019EB3422FD80E79CF78B2
:104460003302029E3B43B34228D10B78172B2FD047
:10447000C24E0423B669241DF371577813783F02A6
:104480001F43AB009E1937723F0A7772BB4ECF793C
:10449000B669A4B29E19B772B84F0E7ABF696D1C87
:1044A000DB19DE72B54BB64E5B69EDB29E19737CBB
:1044B000367C1B023343261DB3421ED35379167933
:1044C0001A02B04B32439A4217D001780818B9E764
:1044D000002D14D1A94812228069C2718B784D78C1
:1044E0001A022A430272120A427210220A30C91DAD
:1044F00002F0A5FD1234A4B201E0002D05D0A41CE9
:10450000A14AA0B204219047FEBD0A229F4B082079
:1045100000999847FEBDF7B5984E9D4970690025F2
:1045200008312C46401802F0EBFDB2690921917167
:10453000837846781B023343009E421C0146B342F7
:1045400042D3019EB3423FD80E79CF783302029E08
:104550003B43B34238D10B78182B3FD0874E07230B
:10456000B669E41DF371577813783F021F43EB00DF
:104570005B1B9E1937723F0A7772804E4F79B6697E
:10458000A4B29E19B772CE798F7936023E437B4F23
:104590006D1CBF69EDB2DF19FE72360A3E73774EAD
:1045A0000F7AB6699E197773744F4E7ABF69DB191B
:1045B0009E73724B724E5B699E19737C367C1B0234
:1045C0003343E61DB34227D3537816781A026D4B56
:1045D00032439A4220D001780818A9E7002D1DD156
:1045E000664815228069C2718A784B7812021A4394
:1045F0000272120A42724A798272CA798B79120265
:104600001A43C272120A027310220D30083102F0EE
:1046100016FD1534A4B201E0002D05D0A41C5A4AA1
:10462000A0B204219047FEBD0A22584B08200099F1
:104630009847FEBDF7B5514E55498AB070690831AB
:1046400009900025401802F05BFD0446B669092078
:10465000B0710720F07127782046182F77D0417A63
:10466000207A09020143A37860781B0203430A9869
:1046700083426BD30B98834268D80C98814265D1F2
:10468000434909980C31401802F03AFD0190E07955
:10469000A179000208430C212F464F43B919087233
:1046A000000A487235480021806A3A4B0170E0796F
:1046B000A279000210436A469081D1810A3202A990
:1046C00098470822314ED101002002ABA436B047F2
:1046D0002A48806A007801283CD0E079A379294AE9
:1046E00001021943019EF078B37800021843884212
:1046F0006DD13079400604D5244820388047002801
:1047000036D03079810606D5C0062049C00E103952
:10471000884700282ED0E079A179000208431D4A7D
:104720000221343A9047002836D030793178C009D8
:1047300070783BD0000208431538C4B20F483146A8
:10474000806922463818153139E000E052E0417D99
:10475000207D86E7094CE06A216B0678A069324625
:1047600038180A3002F06BFCA069B61CC67137E03D
:10477000052200E00C220A9913E00000AC000020A2
:1047800063050000FFFF0000ED7F00008D53000077
:104790005D030000F93E0000A07862780102114339
:1047A0000222F94B082098470DB0F0BD00020843E3
:1047B000C01FC4B2F548224680693818F11D0A307E
:1047C00002F03DFCF148A41C8069C47108E09042ED
:1047D00006D070783378000218438019019081E781
:1047E0006D1C0CD0E94804218069E94AC079801C1D
:1047F0009047D9E7E748834201D03C192BE70A22CA
:10480000B9E710B5062912D0417C037C0A02417831
:104810001A430B020478C1788078090223430143CC
:104820008B4207D9012219460820D74B24E0417951
:104830000379EBE70520C002824202D0401C82428D
:1048400003D11846FFF7F2FD10BDD348824203D1D1
:104850001846CD4B18330FE0CF48401C824203D19D
:104860001846FFF758FE10BD100A2928184602D036
:10487000FFF7E0FE10BDC94B984710BDF0B5C34C23
:104880000746A07885B00D4600287DD0C44E08208C
:10489000B047002879D00220B047002875D1EFF347
:1048A0001080049072B6A06C2818801C86B2BD4897
:1048B00080470100BC4803D0E168C978C90708D027
:1048C0008047002875D1B74810308047761CB04229
:1048D0006FD3AE48AD49801D0770B44800900822E0
:1048E000673101A802F0ABFB63690022B233029981
:1048F000019801F0AFFE022F02D0012F0BD016E07D
:104900000120E071206D04224119A048891C4C301F
:1049100002F095FB0BE0E079012806D19B49206D60
:1049200004224C31801C02F08AFB0020E071206DD3
:10493000A16C9F4E801C0291039601950090934AB2
:1049400060692389921D9949BA3001F0CEFDA06CAF
:10495000711C2A18206D801C02F071FB8B4C67348F
:10496000201D02F0CDFB2378E27819466378120609
:104970001B021943A378C0091B0419431143227970
:10498000C0015206520E01E012E012E0491C002361
:104990005A415206520E104321700A0A62700A0CE4
:1049A000A270090EE1702071049880F31088012034
:1049B00017E4002015E47548C1680A466032907E0D
:1049C000927EC007C00FD207D20F603105E0887E0B
:1049D0008A7EC007C00FD207D20F9042F7D170472E
:1049E00010B56A484069017CC27B08021043072861
:1049F00007D8FFF7E0FF002804D0FFF7DCFF01280D
:104A0000FBD010BDFFF7D7FF0028FBD0FFF7D3FF87
:104A10000128FBD010BD10B55C48C16808462230A3
:104A20004279037912021A43624B9A4214D9DC4349
:104A3000121903711B0A4371FF2320310B72FA2AEA
:104A40000AD951015C4BD200C91889187D22120184
:104A5000891A0175090A417510BDF0B400285BD0B0
:104A600048780A7807021743484A15269469534D37
:104A7000E01C631C1B2FA67041D9CC788E782402D1
:104A800034431C71240A5C71CC798E79240234433E
:104A90001C72240A5C7293780C78002B4B7805D03A
:104AA0001B022343F92B12D9F92104E01B022343F3
:104AB000302B0CD9302101700B0A437001710B0AA5
:104AC0004371506940190173090A417312E0526938
:104AD000521913731B0A53734A780B7812021A4344
:104AE0000270120A42704A790B791102194301715E
:104AF000090A4171F0BC0921314A032010471B21EA
:104B0000017000244470F3241C7100265E71017151
:104B100046711C725E72D4E7F0BC7047F0B4002896
:104B200050D01A4A14209369987048780D7804027E
:104B30002C43DC70240A1C71CC788D7824022C4321
:104B40005C71240A9C714C790D7924022C43DC7130
:104B5000D81C240A4471CC798D7924022C435C72D0
:104B6000240A9C729578154C5B1C002D42D04D791F
:104B70000E792D023543F92D28D9F9210171002331
:104B800043710170437041E08D530000AC00002080
:104B9000ED7F0000FFFF00000228000087420000B8
:104BA00069940000ED340000DD340000E0160020C0
:104BB000F41700203E060000C0E0FFFF6103000084
:104BC000958C0000F0BC0022012046E705712D0AFB
:104BD0004571C8788D78000228431871000A587111
:104BE0004879097900020843516909190873000AD4
:104BF000487324E04B780D781B022B43302B0BD9E4
:104C00003021017000234370017143715069001914
:104C10000173090A417312E05269121913731B0AD6
:104C200053734A780B7812021A430270120A4270C8
:104C30004A790B79110219430171090A4171F0BCDB
:104C40000921F84A0320104710B507E0435C845C53
:104C50004454491C8354521EC9B2D2B29142F5D376
:104C600010BDF8B5F04D0520A969EE4A8870012104
:104C700003209047A87800282DD068690F220021D2
:104C8000BA30FFF7E1FF686907220021B230FFF771
:104C9000DBFF2E466736301D02F032FA00243470F6
:104CA0007470C009B470C001F470307146062F46AC
:104CB0005F37760E381D02F023FA3C70210A7970B6
:104CC000210CC009B970C001210E3043F970387150
:104CD000A878002806D1696902220846D34BBA3069
:104CE000B23198477D214901D24BD14A03209847E0
:104CF000CF49082048398847F8BDF8B50546CE4960
:104D000008208847C84C0B206169C0010818807EC4
:104D100001282FD10026374601E0042E04D2606915
:104D20008019A030877406E0C0480A38804761695E
:104D30008919A0318874761CF6B2082EEDD3BB4FCA
:104D400000260A3F01E0082E01D2002000E0B8470B
:104D500061698919A031761CF6B28876102EF2D3DB
:104D60000026B84761698919E031761CF6B24876A9
:104D7000102EF6D30B206169C0010918487E042863
:104D800002D005281DD01EE0A84F00260A3FB847D4
:104D900061698919FF318131761CF6B24876202E7F
:104DA000F5D36069A54B0146FF31A1310A7EFF3082
:104DB0005206520E0A760A46273A47399A309847E1
:104DC00001E0082048766169A0690E4604278770D3
:104DD0000822C01CC231B63602F031F9A0690422A3
:104DE00031460B3002F02BF90D218E4A03209047FB
:104DF0006069294608220A31BA3002F020F9606958
:104E0000294604221231B23002F019F92069C07823
:104E10000328606904D0CA21095C01290AD019E07D
:104E2000817D427D080210432A46854B083229467F
:104E30009847F8BD4179CA070CD08279520709D446
:104E4000C90907D10921890140180078012801D139
:104E5000616A08702A7A7B4E002A02D1687A00289B
:104E60002BD0606901466030C37D9A420AD16A7ACC
:104E7000007E824206D108222846793102F0B2F83B
:104E8000002839D06A4B0622002101200A339847B6
:104E9000694908200A31884763490120543102F0EA
:104EA00040F961490620543108710B460121052261
:104EB000C904654C0020A047F8BD6069CA21095C9F
:104EC00001290BD00246BA32FF3011460A30B047F2
:104ED0006069022241791143417112E04179024631
:104EE00039434171BA3211468130B0476069603050
:104EF000C07B012802D004E06069EFE74E49022040
:104F00008847FFF7AEFEF8BDF8B5474CA0780028FB
:104F100004D101220021454B08469847A16906208B
:104F2000887001213F4A03209047A07800280CD0C8
:104F3000464861690818417B027B09021143F9293F
:104F400003D9F9210173002141736069374D41791B
:104F500008228B070A3D0027002B25DA11434171F7
:104F60000026A8476169891980314870A84761699E
:104F70008A1991218854A032761CF6B25770102EEF
:104F8000EFD30026A847616989196031761CF6B213
:104F90004876082EF6D3A84761696031C875A847DE
:104FA00061696031087614E0CA231B5C012B10D1C3
:104FB00083795B070DD5114341710026A8476169CC
:104FC0008A1991218854A032761CF6B25770102E9F
:104FD000F4D31849032024318847174D0820103D89
:104FE000A847002803D0144908200A318847022026
:104FF000A847012815D10B206169C0010818407D20
:1050000001280ED12D20400109184A79002A21D00B
:10501000012A65D0022A04D1064B89790C4A07205F
:105020009847F8BD958C0000AC0000205725000083
:10503000C1940000D333000055850000C52900004D
:10504000996F0000ABAA000031540000610300001A
:10505000FB980000002535E00A226A4351180A181F
:10506000507C167C0302FA4833430380F94B43809B
:10507000F94BFB4ECB18597D1B7D090219438180EA
:10508000022181710321C1710772117600235376C9
:10509000F24A038813701B0A537080889070000ACC
:1050A000D070117100205071134606220121C903EE
:1050B000B047E94A01217B3AC902E54B0020B047DD
:1050C0006D1CEDB205206169C0010A18D27BAA42AD
:1050D000C2D80B2062690121C00110180175A0E738
:1050E000E26893789B06DB0FCB719178DF23194040
:1050F0009170616908188179017292E704E7F8B547
:1051000004460178401C002910D0022976D00329DA
:1051100087D1417802780802104310286DD0082802
:1051200003D1201DE178FFF76CFB7AE74178027824
:1051300008021043062838D0032839D014283BD061
:1051400015283ED0012842D00028EED1C348251DA5
:105150005938C16822314A7E0B7E110219430091F1
:105160004069E37A017DC27C0E021643227B002750
:1051700011021943027CC37B1002C900184381420B
:1051800000D80127FFF72CFCB6492846884700289D
:1051900020D0FFF740FCB1485938C068223041792F
:1051A00002790902114319D01DE0FFF7ADFE38E77F
:1051B000201DFFF7A2FD34E7211D0020FFF7AEFC04
:1051C0002FE70021221D0846FFF747FC29E7FFF7DC
:1051D00007FC26E7A4492820884709E000998900B0
:1051E0000175090A4175002F02D00673310A417317
:1051F000201DFEF7A7F914E700E01CE041780278D3
:105200000802104301280AD003280CD004280ED02D
:105210000C288AD1211D0020FEF72AFF01E7201D5E
:10522000FEF745FEFDE6201DFEF792FCF9E6201D87
:10523000FEF7F7FCF5E6E078231D062814D0587C2D
:10524000197C02020A435878197800020843D97879
:105250009B7809021943884209D90146804B0122F3
:105260001020A43B9847DCE658791979E9E7FFF765
:105270003AF8D6E610B50178042905D1827843784A
:1052800011021943022902D0FFF739FF10BD4179FD
:105290000079FFF7F3FA0028F8D0FAF7E1FF10BD24
:1052A00030B587B071480090801E01900024684698
:1052B0000481448106210182418227218181C181AB
:1052C00002258582C4826A4806906A4968468847F2
:1052D00062485938416B0A682A430A60816B0A6840
:1052E0002A430A60C4700471047007B030BD70B501
:1052F0005A4C0D46593C002828D05F4DA84700283D
:10530000FCD05E4880475E4880475B4901200839F1
:105310008847A069022181701321C1700221594A76
:10532000032090475849042088476069017DC27C6A
:10533000080210430A2101F0FCFE0A21401E4143ED
:105340004E4B0120514AEE3B984770BDE06820214A
:10535000417041788906FCD549480C38804742495C
:105360002878884770BD484910B501201039884712
:10537000002804D000210120FFF7B9FF10BD3A49F1
:105380001320884710BDFEB50021684601700171E9
:105390000D46304E01217F20A536B0472D4C0A2006
:1053A00069468334A04768460078010909016846C8
:1053B0000170022001430A20B04701A90A20A0473A
:1053C00068460079400704D56D1CEDB2FA2DF4D182
:1053D00008E0FA2D06D001A90A20A0476846007906
:1053E0004007F8D5684601780A20B0470020401CE5
:1053F00080B2FA28FBD301A90A20A04768460079A9
:10540000000701D40120FEBD0020FEBD70B5054699
:105410000024FFF7B8FF012817D10020FDF77EFC1C
:105420001B480169C908C9000161072141610021C8
:10543000816101690122114301610169C903FCD540
:10544000002D01D1FDF795FC0124204670BD000020
:10545000F818002002290000820200000501002047
:1054600031540000E52000006F9000001B80010017
:1054700075520010936000002B1B0000C134000027
:10548000FF250000958C0000558500008D940000DC
:1054900000E000E010B5FE49FE4C49690028887024
:1054A00013D001281FD002280ED100217F20A04751
:1054B00000210320A04720210420A04702217F20B3
:1054C000A04703210020A04710BD00217F20A04756
:1054D00000210320A04720210420A04702217F2093
:1054E000A0470021EEE700217F20A0471F210320D5
:1054F000A04702217F20A04701210020A0470021D2
:105500007F20A0473F210420DDE710B5012802D00D
:1055100002280ED01BE0487A0C7A00022043C00714
:1055200015D048790979000208431946FEF7A3FE11
:1055300010BD487A0C7A00022043800707D54879CD
:105540000979000208431946FEF7B1FE10BD00209C
:1055500010BD70B5CE4CE068817EFD221140817691
:105560006069CD4D837F427F203041780078090209
:1055700001430120A847E06881784906C90F61719D
:105580008178BF221140817060E710B5C04CE0689F
:10559000817E022211438176BF4834308047E06823
:1055A0008178BF2211406279D207520E1143817077
:1055B00010BDF0B51746B64A0446D0681E460D46E3
:1055C000C37885B000211B0702D5002005B0F0BDCF
:1055D00000BF491C89B26429FAD34030417C890755
:1055E000FCD4AB4841692D2040010818C07A01283D
:1055F00004D1FF210531204601F07EFDA00707D12F
:10560000A3482D21426949015118897A01291DD0E9
:105610009F4B0020D968C0310A792254401C80B2C7
:105620000228F9D39A488078002808D09B4908209E
:105630008847002803D096482178801D0170207883
:1056400080066078288034D5012033E0C1680846A0
:10565000E030427B037B12021A43837B1B041A4314
:10566000920C9204A3039B0B1A430273130A437315
:10567000120C82734822525CC37B5206520EDB0925
:10568000DB011343C373027A520852000272027A9A
:1056900002231A430272E031087A8007FCD4207892
:1056A00080066078288001D5012000E00020387055
:1056B00012E0002076493870CA680020C032A41C6D
:1056C00003E013792354401C80B22B888342F8D81E
:1056D000C8680122C030427228886D4F801C288023
:1056E000B87800280AD06D4908208847002853D090
:1056F0006A4902208847002809D04DE0F868403008
:10570000417C890748D4407CC007C00F45E02A8807
:1057100021466348921E01F092FC62485C49009069
:1057200008225F3101A801F08AFC7B690122B233B3
:105730000299019800F08EFF5548801D0178890775
:10574000890F01702888BA6C55490292801E009119
:1057500001904F4A78693B89921D5249BA3000F056
:1057600049FFC0B2307001280ED128884C49BA6C6C
:10577000009101AB801E15C3454A78693B89921D93
:105780004849BA3000F0EAFE2888B96C401A2880EF
:10579000801EA41E607001E001203070012015E71A
:1057A000F0B54048002687B018300590684606825C
:1057B0000672067300273C490120884700283B48B1
:1057C00003AB02AA04A90FD0FFF7F3FE00280FD104
:1057D0002F48C068C078C00673D502AA04A9334810
:1057E00000F04DFB012703E0314CA047002868D0B2
:1057F000274D2869C278032A03D1E86B0078012875
:10580000D4D06846007A012801D1002F07D0274C58
:10581000207886460007000F052854D055E01F4C1D
:105820000820A04700282DD00220A047002829D119
:105830006846007B002841D0A878002822D0144C6C
:105840005F34201D01F05CFC2378C1091A4663789F
:10585000E0781B021A43A37800061B041A43024394
:105860002079C9014006400E521C002358414006D1
:10587000400E01432270100A6070100CA070100ED0
:10588000E07021716846008A801EC1B2074812E0AC
:10589000AC000020A7290000D91B0000699400007B
:1058A000F4170020E016002045850000F0160020C7
:1058B000B127000005E0FE4A904777E7FD493D200B
:1058C000884707B0F0BD002F03D07146090718D0F4
:1058D0004CE0F949A01C8847FFF79DF8F7490222E0
:1058E000087F10430877F6488047207870214006EB
:1058F000C20F68690A540622A11C713001F09FFB97
:1059000054E76969CB7D022B10D0002360314F7BB7
:105910008C463946012F00D000273B4326D0032A6E
:1059200006D06046007A012817D040E00123EDE759
:10593000059900916946098AE24F0839CBB2714650
:105940004906C90FA21CB84768696030007A01286F
:10595000B3D1DD49A01C884728E7012903D0DA49E3
:10596000A01C884723E0A01CD849FAE70328A4D04C
:105970000428A2D16969CB7D022B0AD000236031B3
:10598000497B012900D000210B4396D0032A02D085
:105990000DE00123F3E7059900916946098AC94D95
:1059A000891FCBB271464906C90FA21CA8470598AA
:1059B000009001966846008AA21C0838C3B220787D
:1059C000C14C41060007C90F000F6834A047EDE63F
:1059D00070B5FFB0BE4985B00420884700280BD0C1
:1059E000BB4904201A318847BA488047B14916207C
:1059F00088477FB005B029E5B748804700250028D3
:105A00000FD0B64C606941790A075FD58279D30718
:105A10001ED0B349813088476069817949084900BF
:105A20003BE068460580AC4DAA4EA54C86359236C3
:105A3000283C09E0694601A8A8470028D9D0684653
:105A40000088C1B201A8B047A0470028F2D0D0E733
:105A5000930709D5A24A014679311C327730904725
:105A60006069FD22817908E0530708D59C496031BF
:105A7000913088476069FB22817911400DE012075F
:105A8000F725002A0BDA027A01461046944A0931BA
:105A9000423290476069817929408171A9E72940A4
:105AA0004171034677333A2210218E4D0020A847DA
:105AB00009216069890141180978012999D1407942
:105AC000C00996D1616A0120087092E7E16B0978FC
:105AD00000298ED1216C097801298AD1817D427DEE
