:020000041000EA
:10000000606B0020751F00107D1F00107F1F001007
:1000100000000000000000000000000000000000E0
:10002000000000000000000000000000811F001020
:100030000000000000000000831F0010851F00105A
:100040005F1100106D580010871F0010871F0010EF
:10005000871F0010871F001075130010871F0010E6
:10006000871F00105D18001081180010A5180010DF
:10007000C9180010ED180010871F0010871F00100E
:10008000871F0010871F0010871F0010871F001098
:10009000871F0010871F0010871F0010871F001088
:1000A000871F00101F140010871F0010871F0010EB
:1000B000871F0010871F0010871F0010871F001068
:1000C00000F002F800F0BDF80CA030C80838241881
:1000D0002D18A246671EAB4654465D46AC4201D180
:1000E00000F0AFF87E460F3E0FCCB64601263342F5
:1000F00000D0FB1AA246AB4633431847D49A0000FF
:10010000F49A0000103A02D378C878C1FAD852079E
:1001100001D330C830C101D504680C6070470000BD
:100120000023002400250026103A01D378C1FBD813
:10013000520700D330C100D50B60704710B56E294F
:1001400002D107F0B3FD10BD702902D107F0EDFE1A
:1001500010BD662902D108F0F5FF10BD652902D156
:1001600008F0F0FF10BD672902D108F0EBFF10BDC9
:10017000612902D1C046C04610BD03681B0A01D3E5
:1001800080231943692902D107F05AFD10BD642963
:1001900002D107F055FD10BD752902D107F050FDC1
:1001A00010BD6F2902D107F06BFE10BD782902D176
:1001B00007F0A8FE10BDE92902D107F007FE10BD27
:1001C000E42902D107F002FE10BDF52902D107F0A3
:1001D000FDFD10BDEF2902D107F05EFE10BDF8292C
:1001E00002D107F09DFE10BD0368DB0901D3802317
:1001F0001943632902D108F016FA10BD732902D100
:1002000008F019FA10BDE32902D108F023FA10BD55
:10021000F32902D108F026FA10BD002010BD1FB549
:1002200008F080FA04000020002108F0C7FE401CFE
:1002300060600020002108F0ABFEE0601FBD10B53B
:1002400010BD08F047FA1146FFF7E9FF00F095FDF1
:1002500008F0DCFD03B4FFF7F2FF03BC08F026FE54
:1002600000B52D1D00BD000070B505460C461646B4
:1002700002E00FCC0FC5103E102EFAD2082E02D38A
:1002800003CC03C5083E042E07D301CC01C5361F9D
:1002900003E021782970641C6D1C761EF9D270BDB4
:1002A0001FB500216846017007214172192189019B
:1002B0004181F9498181032181730021017201F09B
:1002C000B5FEF64801F09EFEF4484078F449C87344
:1002D000F24880780874F148C0784874EF48007993
:1002E0008874EE484079C874EC4880790875ED4808
:1002F0000378ED480178ED4AE94801F09AFE1FBD08
:100300003EB505460C46EA480078012827D1E94861
:100310000078002813D0E84968460180E6491F3973
:1003200041802C21818002210181142C00DD1424C4
:100330002B4622466946022002F099F93EBD012172
:1003400068460180032141801F21818001210181B4
:100350002B4622466946012002F089F9EEE700208B
:10036000ECE710B586B00446D4A103C90191009012
:1003700004A801F0E6FF6846428A018AD1A001F094
:1003800075F9002C02D0012C3CD120E06846408A4F
:10039000002814D06846008A102810DD0020D049BB
:1003A0000870102168464181C821C18100218181E6
:1003B000C02101720421417202A802F08EFEC9A080
:1003C00001F054F905216846FFF79AFF1AE06846E4
:1003D000408A0A2815DA6846008A502811DA502126
:1003E000684641810A2181814B21C900C181C02118
:1003F00001720421417202A802F06FFEBFA001F059
:1004000035F900BF00BF06B010BD13B584B0684613
:10041000408A15214902884209D1BEA003C8039130
:100420000290052402A9204602F003F99EE06846E6
:10043000408ABA49884208D1B9A0006803900224D2
:1004400003A9204602F0F5F890E06846408AB349D7
:100450002831884209D1B3A103C90391029008242D
:1004600002A9204602F0E5F880E06846408AAB49E0
:100470002331884209D1ADA103C903910290072419
:1004800002A9204602F0D5F870E06846408AA349E8
:100490002431884209D1A7A103C903910290052400
:1004A00002A9204602F0C5F860E06846408A9B49F0
:1004B0002631884208D1A1A000680390042403A932
:1004C000204602F0B6F851E06846408A934925314B
:1004D000884208D19AA000680390042403A920460A
:1004E00002F0A7F842E06846408A8C4927318842EA
:1004F00008D194A000680390042403A9204602F0C8
:1005000098F833E06846408A84494F31884209D1DF
:100510008DA103C903910290072402A9204602F08D
:1005200088F823E06846408A63491E39884207D12B
:1005300087A000680390042103A8FFF7E1FE15E0FF
:100540006846408A5C491A3188420ED100210391E5
:1005500000200190029003A901A801F0F1FC01A97B
:100560006846007B02F065F800E000BF06B010BDF1
:100570000FB410B568464089022807D16846827BCF
:1005800003A90331734801F000F90DE06846408982
:1005900049491A31884207D100206F4908706846DE
:1005A000817B0F3001F068FB10BC08BC04B0184719
:1005B00010B5FFB0FFB082B00446601C06F076FCB8
:1005C000012805D101F03AFD64A001F04FF86BE17C
:1005D000601C06F06BFC042817D100203449087019
:1005E00001206349087000203D4908705A4908708D
:1005F00060490870584908700622A11D5EA001F0EC
:1006000072F80120FFF7ADFE4EE1601C06F04EFCD3
:1006100008280DD100205649087056490870244911
:10062000087061795AA001F021F801F007FD3BE163
:10063000601C06F03BFC0121C90388422BD1A17943
:100640006279080210431C49884205D0A179627979
:1006500008021043012816D1A17A627A08021043D9
:10066000012805D0A17A627A08021043022806D137
:100670004FA000F0FBFF01200D49087014E100209D
:100680000B49087010E1A1796279080210434D49C5
:1006900088429CD108E197E0FF3F00003400002031
:1006A00012000020320000202E0000203000002028
:1006B0000C0000200D000020E7FE0000FC010000FF
:1006C00000000000696E74657276616C3A257820CE
:1006D0006C6174656E63793A25780D0A000000003C
:1006E00010000020536574557064617465206F7448
:1006F00061206C696E6B0D0A000000005365745533
:10070000706461746520696F73206C696E6B0D0A8B
:10071000000000005541525446000000012A00002C
:10072000FFFF000053594420496E632E424C452080
:10073000312E3000312E302E30000000322E30307D
:10074000332E3030342E3030023A09050A020000D0
:1007500000010304280100200F0000204741505FE2
:100760004556545F4144565F454E440D0A00000013
:100770000E000020740000204741505F4556545F32
:10078000434F4E4E454354454420616464723A00E1
:100790004741505F4556545F444953434F4E4E4581
:1007A000435445442825303278290D0A00000000C2
:1007B00073746172745F747820656E61626C650D2C
:1007C0000A0000000F180000601C06F06FFB0121FA
:1007D000C902884210D1FF22F832214615316846FD
:1007E00006F003FBFE4A611D7EA806F0FEFA7EA815
:1007F0000FC8FFF7BDFE57E0601C06F057FB012154
:100800008902884209D10822611DFEA806F0EDFA8E
:10081000FF99FE98FFF7F9FD46E0601C06F046FBE5
:100820000121890388423FD0601C06F03FFB10285D
:1008300006D10120EB490870EBA000F017FF33E070
:10084000601C06F033FB802803D1ECA000F00EFF03
:100850002AE0601C06F02AFB01214902884223D1CC
:10086000A179627908021043030008F065FB0604D1
:10087000080C1014181CE6A000F0F8FE13E0EAA023
:1008800000F0F4FE0FE0EEA000F0F0FE0BE0F2A0AE
:1008900000F0ECFE07E0F6A000F0E8FE03E0F9A0AF
:1008A00000F0E4FE00BF00BF7FB07FB002B010BD1B
:1008B00000B591B001F090FBF7480990F7480A9015
:1008C000F7480B90F7480C90F7480D9009A801F0F5
:1008D00020FD03216846017700214177807F810850
:1008E0008900491C68468177807F0421884301463E
:1008F000684681771021C177002108A80170032183
:10090000417007A801F008FD062168468180092191
:10091000C18064210181418106210173322141732B
:1009200000218173C1730174012101A84173002169
:1009300081730221C17300210174032141740021DC
:1009400081740421C17400210175052141750021C4
:10095000817501F0EEFCD549FF20013006F0B7FAB1
:10096000D249091DD24806F0B2FAD04801F04BFE38
:10097000D04801F05BFE002001F0A1FFFFF790FCE2
:10098000012108A80176002141760EA9023100203C
:1009900006F09DFA0FA90231002006F098FA0EA881
:1009A00001F0DBFF11B000BD70B5C348007801282D
:1009B00047D1C2480068C1494968884241D00024F3
:1009C000BE494968BD4A1268881A142106F091FA96
:1009D000401CC5B2B9494968B84A1268881A14213E
:1009E00006F087FACEB200BF27E0681EA04211DCF5
:1009F000B249C968B14A126888183146FFF780FCCD
:100A0000002806D00025AD4800688019AB49086071
:100A100011E014E0A949C968A84A1268881814218D
:100A2000FFF76EFC002805D0A44800681430A349E5
:100A3000086000E003E0601CC4B2AC42D5DB00BF3C
:100A400000BF70BD08B50020009004E00122694697
:100A5000002000F002FD69469848103000F0D3FEF7
:100A60000028F3D108BD10B595480078401C944982
:100A700008700846007802280BDB0020087001206F
:100A800000F0ABFF8D4800F0D3FE002801D1FFF746
:100A90008BFF10BD10B5002442E0182C32D008DCCA
:100AA000002C0DD0022C22D0042C21D00A2C2BD1CA
:100AB00013E01E2C27D01F2C1BD0222C24D10DE09C
:100AC0000021204600F0D1FB0121204600F0E1F991
:100AD0000021204600F045FA1FE000BF002120461B
:100AE00000F0C3FB0121204600F03BFA15E000BFF7
:100AF00000BF0021204600F0B8FB0021204600F096
:100B000030FA0AE000BF08E00021204600F0ADFB0B
:100B10000021204600F0BDF900BF00BF601CC4B238
:100B2000272CBADB10BD70B504460D4607211420F2
:100B300000F09BFB0721152000F097FB002C07D04D
:100B40000721122000F091FB0721132000F08DFBFC
:100B50000620002815DBC206D20E01219140594A19
:100B6000116000BF00BF00BFBFF34F8F00BF00BFC9
:100B700000BF00BF00BF00BFBFF36F8F00BF00BF4B
:100B800000BF00BF50480068007800090001290735
:100B9000090F08434C49096808704B480068007801
:100BA00080218843E10180221140084346490968B9
:100BB0000870454800680078402188434249096828
:100BC00008704148006880780821884308303E4911
:100BD0000968887092003D49384800F0CDFD77E003
:100BE000070200000F0000204741505F4556545F48
:100BF000454E435F4B45590D0A0000004741505F89
:100C00004556545F454E435F53544152540D0A00BC
:100C10007570646174652072737020414343455060
:100C20005445440D0A0000007570646174652072BB
:100C300073702052454A45435445440D0A00000054
:100C4000757064617465207273702054494D45520B
:100C50004F55540D0A000000757064617465207270
:100C6000737020535543434545440D0A000000006E
:100C7000456E61626C65206C6174656E63790D0A06
:100C80000000000044697361626C65206C617465EA
:100C90006E63790D0A000000549100107E910010DF
:100CA00073910010BD9100107B9200100000002095
:100CB000B1050010080000200C00002018010020E1
:100CC0001100002080E100E05000002038010020E9
:100CD0004448406A40210843424948620846006A45
:100CE000402108433F4908620620002809DB00BF75
:100CF00000BFC206D20E012191403B4A116000BFE5
:100D000000BF00BF70BD10B538480078002833D050
:100D100036480078012804D002280CD0032829D1B5
:100D200018E033A000F0A2FC022030490870002037
:100D3000324908801FE031480088401C2F49088054
:100D400008460088FF219131884202DD2CA000F086
:100D50008DFC10E00020254908702CA000F086FCD6
:100D600001F00CFEFF202D3000F044FA2BA000F023
:100D70007DFC00E000BF00BF10BD72B6FFF798FD1C
:100D8000032001F0B2FD01F0E4FD012001F0BAFD05
:100D9000FFF780FE08210020FFF7C5FE23A226A151
:100DA00028A000F063FC2DA000F060FC012252029C
:100DB0002E492F4800F0E0FC62B601F03FF92DA06B
:100DC00000F054FC0CE001F078FF0A2000F0F6F887
:100DD000FFF799FF16232C4A0421012002F05DF849
:100DE000F1E700000080022000E100E07400002034
:100DF0004F54412073746172740D0A007600002014
:100E00004F5441206661696C650D0A004F544120C2
:100E100066696E6973680D0A0000000052657365AB
:100E200074206661696C65640D0A000031303A34E3
:100E3000313A3136000000004A616E2020382032FD
:100E4000303231005359443838323120424C4575E4
:100E50006172742025733A25730D0A005359442D8D
:100E600054454B2E496E630D0A00000038030020E4
:100E7000280100206761705F735F6164765F73743F
:100E80006172740D0A000000F82A0000D54908605C
:100E9000704770B50246202414406309202514468B
:100EA000AC430125A54028469C00CF4D2C59207508
:100EB000050A6575050CA575050EE575002B13D0A3
:100EC000002908D1C94D6D7D0543ECB2C74D6D7D3C
:100ED000C64E747515E0C54D6D7D85432C46C34DDA
:100EE0006D7DC24E74750CE0002905D1BF4C64685D
:100EF0000443BE4D6C6004E0BC4C64688443BB4D4D
:100F00006C6070BD70B50246202414406309202532
:100F10001446AC430125A5402846002B13D00029D8
:100F200008D0B24DED7D0543ECB2B04DED7DAF4E36
:100F3000F47515E0AD4DED7D85432C46AB4DED7D53
:100F4000AA4EF4750CE0002905D0A84CE4680443CF
:100F5000A64DEC6004E0A54CE4688443A34DEC602E
:100F600070BD30B50B46202404406109202504469D
:100F7000AC430125A5402A468C009B4D2C59227676
:100F8000150A6576150CA576150EE576002B0AD0A8
:100F90008C00954D2C592271150A6571150CA5719F
:100FA000150EE57109E08C008F4D2C592272150A3F
:100FB0006572150CA572150EE57230BD10B52023B3
:100FC0000340590920240346A34301249C402246A0
:100FD0008B00854CE3581A73140A5C73140C9C73D1
:100FE000140EDC7310BD10B52023034059092024D2
:100FF0000346A34301249C4022468B007A4CE358CD
:101000001A71140A5C71140C9C71140EDC7110BD01
:1010100010B520230340590920240346A34301248B
:101020009C4022468B00704CE3581A72140A5C7282
:10103000140C9C72140EDC7210BD30B501462020D9
:101040000840420920240846A04301248440234646
:101050009000654C2058403010240419257828460B
:1010600065782D022843A5782D042843E4782406CA
:1010700020431840002801D0012030BD0020FCE7AB
:10108000F0B503460C46154620221A40500920268A
:101090001A46B243012696403146002C0BD18200FD
:1010A000514EB258403211720E0A56720E0C9672A0
:1010B0000E0ED6720AE082004B4EB25840321171C9
:1010C0000E0A56710E0C96710E0ED671002D0BD1B4
:1010D0008200454EB258203211760E0A56760E0C1A
:1010E00096760E0ED6760AE082003F4EB258203237
:1010F00011750E0A56750E0C96750E0ED675820079
:10110000394EB258203211710E0A56710E0C96717A
:101110000E0ED6710022002A09DB00BF00BFD706E1
:10112000FF0E0126BE40324F3E6000BF00BF00BF31
:10113000F0BD10B520230340590920240346A343E2
:1011400001249C4022468B00274CE35820331A721E
:10115000140A5C72140C9C72140EDC7210BD70B513
:1011600000243CE0A00020490858403014214118D8
:101170000A7810464A78120210438A781204104303
:10118000C97809060843A100174A515820310A4678
:101190001378194653781B02194393781B0419439B
:1011A000D2781206114308400546002D00D114E004
:1011B0000C480068002804D029462046094A1268D5
:1011C0009047A0000849085840300575290A417524
:1011D000290C8175290EC17500BF601CC4B2022C98
:1011E000C0DB70BD440000203C00002040100050D7
:1011F00000E100E0002109E0002201E0531C9AB266
:101200007D239B019A42F9DB4B1C99B28142F3DBAF
:101210007047002107E0002201E0531C9AB2092A1E
:10122000FBDB4B1C99B28142F5DB704710B50146E0
:10123000272901DA002902DA0020C04310BDCC07BB
:10124000E40F202904DA4A101B480068835C05E09B
:1012500008462038421018484068835C002C01D0B2
:101260001811EBE71807000FE8E770B5272801DA37
:10127000002800DA70BD0907090FC407E40F202811
:1012800004DA43100C4E3668F21805E00646203E9C
:101290007310094E7668F2181578002C01D00F26CD
:1012A00000E0F0263540002C01D00E07310E2E460E
:1012B0000E43167000BFDDE748000020002815DB54
:1012C000C206D20E01219140964A116000BF00BFB4
:1012D00000BFBFF34F8F00BF00BF00BF00BF00BF04
:1012E00000BFBFF36F8F00BF00BF00BF704770B576
:1012F00004460D460620FFF7E1FF8B4800680078A2
:10130000000900012907090F084387490968087087
:1013100085480068007880218843E10180221140DF
:1013200008438149096808707F48006800784021B7
:1013300088437D49096808707B48006880780821E7
:10134000884308307849096888709200774978485E
:1013500000F012FA7748406A402108437549486214
:101360000846006A4021084372490862062000F0DE
:10137000CBF870BD70B56C480068047830206040D0
:1013800005466948006805701020204000280DD0EF
:1013900000BF654800680179654800F026FA624898
:1013A0000068C078C007C00F0028F2D070BD70B5CB
:1013B00004460D461920FFF781FF5B48406800781E
:1013C000000900012907090F0843574949680870B7
:1013D00055484068007880218843E101802211400F
:1013E00008435149496808704F48406800784021D7
:1013F00088434D49496808704B4840688078082107
:101400008843083048494968887092004A494848EA
:10141000103000F0B1F9192000F076F870BD70B509
:101420004148406804783020604005463E484068A6
:1014300005701020204000280ED000BF3A484068B8
:1014400001793B48103000F0D0F937484068C07847
:10145000C007C00F0028F1D070BDF0B50B460124C5
:101460002404002112E000BF85002F4E7559ED784D
:101470002D07ED0F002DF7D1850075596D785E5C55
:1014800035468600284FBE597570491C9142EADBEB
:1014900000E0641E8500244E7559ED786D07ED0F50
:1014A000002D01D1002CF4D1F0BD70B504460D46DD
:1014B00021011F4A8818294600F0A5F970BD70B5B2
:1014C00004460D4600BF022C01DB002070BD210147
:1014D000174A881800F0ACF900280AD120011449F5
:1014E0004018C5682101124A881800F0AAF9C0B254
:1014F000ECE70020EAE70146012901DD0020704702
:101500008800094A1058FAE700280ADB00BF00BF2C
:10151000C206D20E01219140024A803A116000BFFA
:1015200000BF704780E100E050000020380100203B
:1015300018010020008002203803002010B5024668
:101540000620002815DBC406E40E0123A340814CCD
:10155000236000BF00BF00BFBFF34F8F00BF00BFBD
:1015600000BF00BF00BF00BFBFF36F8F00BF00BF51
:1015700000BF00BF784800680078000900010B0731
:101580001B0F1843744B1B68187073480068007871
:1015900080239843D3018024234018436E4B1B685B
:1015A00018706D48006800784023984340306A4BBB
:1015B0001B68187068480068C07810239843103082
:1015C000654B1B68D870644800688078082398438E
:1015D0000830614B1B6898706048406A402318438C
:1015E0005E4B58621846006A402318435B4B1862F2
:1015F000062000280ADB00BF00BFC406E40E01235A
:10160000A340544C803C236000BF00BF00BF10BD0E
:10161000F0B50B4601242404002112E000BF850030
:101620004D4E7559ED782D07ED0F002DF7D1850042
:1016300075596D785E5C35468600474FBE597570AA
:10164000491C9142EADB00E0641E8500424E755958
:10165000ED786D07ED0F002D01D1002CF4D1F0BD18
:1016600010B508210020FFF769FF10BD0FB438B591
:1016700000240498002803D138BC08BC04B01847E3
:1016800005A800903648009A049905F06FFBC4B293
:1016900000200090802C00DD80242246304900206C
:1016A000FFF7B6FF00BFE7E70FB438B505460024E3
:1016B0000598002803D138BC08BC04B0184706A818
:1016C00000902748009A059905F050FBC4B200200D
:1016D0000090802C00DD8024224621492846FFF717
:1016E00097FF00BFE7E7F8B505460E46174600240A
:1016F000002D02D02846FFF7B9FF00241BE020464A
:10170000E117490F0918C910C900611A03D1A1B224
:1017100014A0FFF7ABFF315D14A0FFF7A7FF601C1B
:10172000C117490F0918C910C900411A02D111A0E7
:10173000FFF79CFF641CBC42E1DB2046E117490F28
:101740000918C910C900611A02D00AA0FFF78EFF5C
:10175000F8BD000080E100E0580000200080022079
:10176000380500205B253034785D20002530327844
:10177000200000000D0A0000002343600360826027
:10178000C1607047416801607047F8B504460F4674
:10179000154660684019A16888421ADB2089A18833
:1017A000401A86B26268E16888183246394605F008
:1017B0001CFBA81B85B22068A84202DC2088401EC2
:1017C00085B2B9192A46E06805F00FFB656070190B
:1017D000F8BD6268E16888182A46394605F005FBBD
:1017E0006068401960602846F2E702465368581C5A
:1017F0005060D068C15493685068984201DB002063
:10180000506001207047024653681068984201D129
:10181000002070471368581C1060D068C05C0870C6
:1018200093681068984201DB002010600120F0E707
:1018300001464A680868904201D1012070470020A3
:10184000FCE7014600224B680868984200DD8A6880
:10185000486880180B68C01A7047000010B56E48C1
:101860000068007E40084000401C6B49096808760B
:101870006A480068002802D068490868804710BD9F
:1018800010B565484068007E40084000401C624931
:101890004968087661484068002802D05F49486876
:1018A000804710BD10B55C488068007E400840004D
:1018B000401C59498968087658488068002802D039
:1018C00056498868804710BD10B55348C068007EEF
:1018D00040084000401C5049C96808764F48C0681D
:1018E000002802D04D49C868804710BD10B54A484D
:1018F0000069007E40084000401C4749096908769D
:1019000046480069002802D044490869804710BD54
:1019100001468800404A10580078C007C00F704741
:10192000F0B504460E4615462046FFF7F1FF0028A5
:1019300001D1052C01DB0020F0BDA00037490E507D
:10194000042C13D1A00034490A585179177909029F
:1019500039430846917909040843A1002E4A515899
:101960000D712A0A4A71280C88710EE0A0002A49DC
:1019700009584879097900020843A9B20846A1002C
:10198000254A51580871000A4871002B0BD0A0005D
:1019900021490858007F40084000401CA1001E4A11
:1019A000515808770CE0A0001B49085820300078F7
:1019B00040084000401CA100174A515820310870CF
:1019C000A00015490858007840084000401CA100BC
:1019D000114A515808700120AEE700B50346184679
:1019E000FFF796FF002801D0052B00DB00BD980013
:1019F000094908580078400840009900064A5158A3
:101A0000087000BFF2E701468800034A10580078CA
:101A1000C007C00F7047000060000020B80500201C
:101A200070B504460E4615460E20F8490968087040
:101A3000681CF64909684870F448006884702A46B2
:101A40003146F2480068C01C05F0CFF970BD08B5FA
:101A500000F0A9FF002802D00020009001E0012042
:101A6000009000200090012269461620FFF7D8FF61
:101A700008BD38B504460025E5A0FFF7F7FD00BF17
:101A800029E0E01C415DE64802790079401CC3B2C0
:101A9000E34803712038815420300079202818DB76
:101AA000DF492039096A4801DD4A203A202101F046
:101AB00026F8002802D00020009001E001200090CC
:101AC0000021D74801712038006A401CD4492039D0
:101AD0000862681CC5B2A078A842D2DCD048203881
:101AE000C117890F091889108900411A02D0CDA0A9
:101AF000FFF7BCFD00200090012269461720FFF788
:101B00008FFF38BD7CB504460D46164668464570C5
:101B1000290A8170C670310A017104700522694674
:101B20001420FFF77DFF7CBD38B5044600BFBC48DC
:101B30000079002808D0BA4A1179203A126A500177
:101B4000B74A203A00F0DBFF61782278090211439E
:101B50000846B94900F0E3FFC5B22946B7A0FFF730
:101B600085FDE078A3780002184302466078237868
:101B7000000218430146B8A0FFF778FDE078A1788D
:101B800000020843034660782178000208430246B9
:101B90000021084600F0BEFF05462946B4A0FFF725
:101BA00065FD002D02D00020009001E00120009092
:101BB00000200090012269461820FFF731FF38BD50
:101BC000F8B5044600BF96480079002808D0944A2A
:101BD0001179203A126A5001914A203A00F08FFFA1
:101BE000204605F063F90646934900F098FFC5B218
:101BF000294692A0FFF73AFD204605F057F9064620
:101C000060792179000208430246314692A0FFF72D
:101C10002DFD204605F04AF906466079217900023B
:101C20000843034632460021084600F073FF05468C
:101C3000294693A0FFF71AFD002D02D10120009044
:101C400001E000200090012269461820FFF7E8FE1D
:101C5000F8BD002804D000218E4A11708E4A1180F0
:101C600000218E4A11808E4A11808E4A11808E4A40
:101C700011808E4A11607047F8B504460E4625461D
:101C800086480088002803D08248007800285AD16E
:101C900028781438030007F04FF9052F2804132182
:101CA00055000020FEF75DFB81A0FFF7DFFCFFF78A
:101CB000CEFE01207749087000207C49086041E091
:101CC000A81CFFF7D6FE73480078002802D1022036
:101CD0007049087000207049088033E0A81CFFF7A5
:101CE00023FF03206B4908702CE0A81CFFF768FF56
:101CF00003206849087025E0E979AA7908021043B1
:101D000066490880697A2A7A080210436449088083
:101D1000A81C05F0CBF865490860002061490880DF
:101D200061490880A81C05F0C1F80746697A2A7A3B
:101D300008021043034659480288394660A0FFF75D
:101D400095FC00BF61E0002053490880002707E0B0
:101D5000E05D55490988401853490880781C87B2CE
:101D6000B742F5DB2046E117890F09188910890071
:101D7000611A10D0324621462948203805F035F83E
:101D80004A490968474A12888818254A203A314644
:101D900000F0B5FE08E045490968424A12888818F3
:101DA0002246314600F0ABFE3E48008880193D498E
:101DB00008800846008839490988884224DB3A4867
:101DC00000883749098888420AD13748028835484F
:101DD00001880020FFF796FE46A0FFF747FC09E0C8
:101DE000314802882F4801880120FFF78BFE45A06B
:101DF000FFF73CFC2A4802882B48018845A0FFF7E2
:101E000035FC0020FFF725FF00BFF8BD8C00002047
:101E1000436D64467757726974650D0A00000000CF
:101E2000EC050020436D6446775772697465206540
:101E300072726F720D0A0000F4D906F96F74615F57
:101E4000636F64655F636865636B5F63726333329E
:101E50003D25640D0A0000006F746120737A3A25F5
:101E60007820636865636B73756D3A257820000090
:101E7000436F64655570646174653D25640D0A00A7
:101E8000436F64655570646174657632303D2564D6
:101E90000D0A000074000020760000207800002069
:101EA0007C0000207A0000207E00002080000020BE
:101EB000434D445F46575F45524153450D0A00006C
:101EC000434D445F46575F57524954455F53544111
:101ED0005254206F66667365743A25782C73697A5C
:101EE000653A257820636865636B73756D3A25786C
:101EF0000D0A000073656374696F6E204F4B2120DB
:101F00000000000073656374696F6E206661696C20
:101F1000652120006F74615F726563656976655F36
:101F2000636865636B3A2578206F74615F736563DE
:101F300074696F6E5F636865636B3A25780D0A009C
:101F400070B505460C46094800684078821C08496F
:101F5000284604F04AFF054800684078801C20703D
:101F6000034800210160416070BD00008C0000202A
:101F7000840000200748804707480047FEE7FEE747
:101F8000FEE7FEE7FEE7FEE704480549054A064B83
:101F900070470000B51F0010C1000010601B00203A
:101FA000606B0020605B0020605B002003480449F8
:101FB00008607047014802490860704740787D0119
:101FC00090000020F749202208781043EF221040AB
:101FD000042210430870704710B5F348804700286A
:101FE00002D002F0C9FF012010BD10B503F027F8A0
:101FF00010BDED4928310847EB493C310847EA4913
:102000006C310847E9490847E8495C310847E74926
:102010006A310847E54976310847E449863108477F
:10202000E24994310847E149A2310847DF49AE311E
:10203000084730B4DE4CA44630BC6047DC487430FE
:102040000047DC480047F8B5DB4DCF222968DB4C60
:1020500008780026104008702068D9491830884751
:10206000286822680178127F090912070901120FF6
:10207000114301700907090FBF27012921687DD08D
:102080000A4622314B7809781B020B431146203156
:102090000B711B0A4B710378117A3B4089010B438A
:1020A0005906490E0170226841784032127A890936
:1020B000921D92068901920E1143417021680622F9
:1020C000801C093104F091FE21684820425C002AFE
:1020D00004D028684931083004F087FE2168B84AE6
:1020E0007020405C323A713190472868B54A417897
:1020F0008906890E891C9047286801780909090119
:10210000091D017022683940127AD207520E11431C
:102110000170226841782032127A8909921D920654
:102120008901920E1143417021680622801C0931F9
:1021300004F05BFE21682820425C286829310830C1
:1021400004F053FE2868A04A41788906890E891C4C
:102150009047256800206F7F012181400F4204D005
:10216000E97F0B2251438E19761C401C0328F3D3C0
:102170002C46203460782178000200E01AE0084301
:1021800013214843401CB04206D2701E04F0A7FE43
:10219000401C2070000A60706078217800020843BB
:1021A000022803D20220207000206070287F0128BE
:1021B00024D03AE00B4620318A79CA71197A027824
:1021C000C9073A40490E0A43027051062268490E77
:1021D0006032127CD20111430170417806228909D4
:1021E00089010C3141702168801C093104F0FDFD2A
:1021F000286821680622083071316DE7E0790028EF
:1022000013D0607822780102114313204143A07952
:10221000491CC00304F063FE401C06467F2104F005
:102220005EFE401CC1B2E1711EE0607921790002BE
:10223000084331D0607822780102114313204143D2
:10224000284622304278037810021843C003491C04
:1022500004F045FE401C06467F2104F040FE401C71
:1022600081B22171080A6071304604F038FE401CCA
:102270007F2800D97F200121E975A97F009161782D
:10228000237809021943514CEA7FC0B23B46A0476C
:102290004E4834308047F8BD00204D4CE875034669
:1022A00002460121A047F8BD4A48002201684A754C
:1022B0000A7C012002430A74404909682031C87130
:1022C00008710020487170473A491A310847394867
:1022D000F43000474048004738B5049C00943E4C19
:1022E0000E34A04738BD30B43B4CE834A44630BC73
:1022F000604710B502F098FF10BD10B502F0B0FFB6
:1023000010BD3549A43108473448004733483230BE
:1023100000473249463108473049B23108472F4912
:10232000C23108472D4AD032104710B501F08EFA5D
:1023300010BD2A49FC3108472949084728490E3170
:10234000084727493631084710B501F05EFD10BD3A
:1023500010B503F0BDFB10BD2148DC3000471D481F
:102360000068C0788007C00F704770B513480068D8
:10237000817C427C0802104312D0FFF7F0FF094C29
:102380000225012830D11648DC30804715498842A3
:102390002AD12178012029430143217003F098FBC1
:1023A00070BD0000BE160020DF560000155800006A
:1023B00027590000CD5B0000C0000020BC000020B9
:1023C000451D00002B26000047270000971B00003A
:1023D00031540000B4000020F55C00005B5E00009A
:1023E000675F00000604000020788021084328432E
:1023F0002070D5E7F8B5FE48C079000656D5FD48EF
:102400000668B17C707C0F020743F948057801D05B
:10241000A80701D4680749D5F54C207BE17A000272
:10242000E41C084342D0002F40D06078217800029D
:1024300008432AD1307CF17B0002084305F01DFAE5
:102440000022ED4B05F01CFA05F0CAF980B2784382
:102450000A2104F04EFD4004010C2170080A60704E
:10246000307DF27C000210430A224243914203D3A2
:10247000401E2070000A60706078217800020843D6
:1024800003D10120207000206070FD210D40D8484C
:1024900001210D430570002003F01AFB60782278BB
:1024A00001021143D64BD54A09209847F8BD10B513
:1024B0000F21CF4804F0F6FC10BDF0B504468DB0F6
:1024C000401C04F0F3FCCA4E00253E3E02460428A0
:1024D0002AD0C748D31F0178FF3BFA3B18D001230D
:1024E0009B039A4279D1C6490A20243188477078E3
:1024F0000621484381190A22601D891C04F075FCDD
:102500007078401CC0B270700A2876D3757074E081
:10251000C279002A71D0CA066FD4A37966791A02EB
:102520003243012A05D068E075703570FFF7BFFFB0
:1025300063E08278521E1206120E82704ED0AC49B1
:10254000437888794E7902023243887A4E7A0002C3
:102550003043491C012B47D0801A0872000A487288
:1025600000060B7A000C1843831A6A4613835083C3
:102570009F4A167BD27A360216436A4696834A7B76
:102580000F7B110239436A46D183138050809680B5
:10259000D18013723220507200209072D572280AB6
:1025A000107301205073002090730220D07300201C
:1025B000107403205074002090740420D074002004
:1025C000107505205075002090758E49104688477B
:1025D0008C4906A81E3188470FE007E0027A827016
:1025E00040221143017008E08018B6E7880604D540
:1025F0009004000F01D0FFF7FDFE834920460969D2
:1026000088470DB0F0BD10B50446001D04F04EFC27
:102610007D490861211D7D4804F059FC7949204617
:102620005C31884710BD77497E3108477549D43100
:102630000847744ADC321047724AE43210476C494A
:1026400000203E390A7849788A4200D90A200818C1
:10265000801A401EC0B2704700B5FFF7F0FF002897
:1026600004D1634800213E384170017000BDF8B5C7
:102670000E46074666491C46154601208847002835
:1026800007D0FFF7B7FE23462A463146384602F008
:10269000A7FDF8BDF8B50E4604465D491F46154630
:1026A00001208847002814D0022C03D1FFF7C7FF70
:1026B000002809D0EAB2534D3B4631462046F43556
:1026C000A847012807D004E00A214D4B514A08468B
:1026D00098470020F8BD022C12D1454C06213E3C03
:1026E00020780A46484300193146801C04F07DFBDF
:1026F0002078401CC0B220700A2801D3002020702E
:102700000120F8BD70B50D4604461121401989031A
:102710001646884201D3002042E63F480068213037
:1027200004F0C4FB3D4B001932462946984737E672
:10273000F8B50646EFF3108472B6374D286821309D
:1027400004F0B4FB8019364A0121904784F31088C5
:10275000334F0024F63FEFF3108572B62E48006821
:10276000213004F0A3FB311940182E4900230A1927
:102770002021B84785F310880120000320348442CB
:10278000E9DBF8BDF7B5070501993F0D002912D027
:10279000029900290FD01C49897800290BD1019991
:1027A0007A18012109038A4205D8019A1123821857
:1027B0001B039A4201D90020FEBD0025C41BEFF384
:1027C000108672B614480068213004F06FFB61195E
:1027D00040181449114B4A192021984786F3108854
:1027E0000120000320358542E9DB0E48C0191BE0BB
:1027F000BE160020BC0000200000F43F6B23001038
:10280000D3330000575F000094000020BB24001069
:102810004585000059260010B80000208F160000E2
:102820009F18000080060020019A029904F0DDFA4A
:10283000FB490120884700280AD0EFF3108072B6C8
:10284000F84901228C808A7080F310880120FEBD37
:102850002046FFF76DFFF9E7F3490847F24A0832CF
:10286000104738B5049C0094EF4C1034A04738BD95
:1028700030B4ED4C1C34A44630BC6047EA492431E6
:102880000847E94A2C321047E74A3432104730B43F
:10289000E54C3C34A44630BC6047E34B4433184716
:1028A000E14B4C33184730B4DF4C5434A44630BCB1
:1028B0006047DD495C310847DB4864300047DA494E
:1028C0006C310847D9490847D84908310847D749E2
:1028D0008C310847D548BE300047D448E230004725
:1028E000D34A1047D2495231084710B503F08BF84C
:1028F00010BDCF4964310847CD496C310847CC49F8
:102900007631084710B502F00DFC10BDC9480047EC
:1029100070B5C448002480682546807A4006C60FFA
:1029200072B6C4488047022002F0FCFB641CA4B2CB
:10293000FA2CFBD30024304602F0D3FB002801D050
:10294000012503E0641CE4B2032CF4D362B62846EC
:1029500026E510B502F0F3FF10BDB549A4310847D4
:1029600030B4B54CA44630BC6047B148F63000479F
:10297000B04814380047AF491C310847AD484230D1
:102980000047AC484C300047AA480E30004710B50D
:10299000A8488047A94C0120A0470020A04710BDAF
:1029A000A74908707047F8B5002472B6A54A0121FE
:1029B000A54B09032046984762B6A44E30680546E9
:1029C000093004F073FA9F494718E878002811D0BD
:1029D0002846313004F06AFA064628462D3004F0C5
:1029E00065FA301A4002060E3878994F974D002844
:1029F00057D073E02846293004F058FA0646284696
:102A0000253004F053FA301A4002060E3878904F01
:102A10008E4D00280CD026E072B62868293004F0CC
:102A200045FAE10340180821B84762B6641CE4B2D5
:102A3000B442F1D32D682846293004F037FA06460F
:102A40002846253037E072B6E203B01819E072B6B6
:102A50002868253004F02AFAE10340180821B84715
:102A600062B6641CE4B2B442F1D328680646293049
:102A700004F01CFA05463046253039E072B6E20310
:102A80008018B84762B60120F8BD72B628683130A8
:102A900004F00CFAE10340180821B84762B6641C40
:102AA000E4B2B442F1D32D682846313004F0FEF987
:102AB000064628462D3004F0F9F9301A4004410F3B
:102AC000C1D1E0E772B628682D3004F0EFF9E103D8
:102AD00040180821B84762B6641CE4B2B442F1D38E
:102AE00028680646313004F0E1F9054630462D30BD
:102AF00004F0DCF9291A4904490FBFD1C3E74D4B53
:102B0000C2331847534B184730B4524C6634A4466E
:102B100030BC604730B4504CA44630BC6047F3B57D
:102B2000002481B00746651E72B6464A0121464B15
:102B300009032046984762B6444806683046093083
:102B400004F0B4F93F49F27840183E053901360DDA
:102B50000F0C0078002A02D0002858D093E00028FB
:102B600015D037E039480068293004F09FF9210377
:102B700040180121344B334A0903984701212A4662
:102B80000903304800F03CFE641C0546A4B2BC4278
:102B9000E8D3002E03D02D48006829307AE002994E
:102BA000E84381427ED10120FEBD284800682530DF
:102BB00004F07CF9210340180121234B214A090329
:102BC000984701212A4609031E4800F019FE641C9B
:102BD0000546A4B2BC42E8D3002EE0D01B480068F2
:102BE000253057E019480068313004F05FF92103BF
:102BF00040180121144B134A0903984701212A4622
:102C00000903104800F0FCFD641C0546A4B2BC4258
:102C1000E8D3002EC3D00D48006831303AE0000000
:102C200045850000940000205D6100008B6200007B
:102C3000916300006B660000E9310000692D00001F
:102C4000AA000020800600208F160000B800002097
:102C50009F1800001B68000061690000F8480068C8
:102C60002D3004F023F9210340180121F64BF54AD9
:102C70000903984701212A460903F24800F0C0FDE4
:102C8000641C0546A4B2BC42E8D3002E87D0EC48B1
:102C900000682D3004F00AF921034018E94A314652
:102CA000E94B00E007E098472A463146E54800F046
:102CB000A7FD054673E70020FEBDF8B5E348804751
:102CC000E34DA878002809D0A888FFF731FDEFF37D
:102CD000108072B60021A97080F31088DD4CE07975
:102CE000002834D0000610D52078410705D5FFF71D
:102CF00081FB2078FB21084006E0000605D5FFF7A0
:102D000079FB20784006400E20702078D24FD34EB9
:102D100041060AD5BF21084020700220694608807C
:102D200002466B4639460020B0472078C1070ED0D6
:102D3000400840002070800701D5042000E00520F5
:102D40006946088002226B4639460020B047687801
:102D5000C10704D0400840006870E8688047F8BDAB
:102D6000BF480047BE483A300047BD485230004790
:102D7000BB486A300047BA486E300047B9498A6993
:102D8000120A120202434A61087C012210430874AD
:102D90007047F8B50446B448017DE2064909490187
:102DA000D20E114301750221B04D7F20A847AF4ECE
:102DB00025206946223EB0476846017821430170CC
:102DC0002520A84769462520B047F8BDA848A9494D
:102DD00000684118487C097C000208437047F8B538
:102DE0000546EFF3108472B60021A04E7F20B04755
:102DF0009E4A17206946223A9047684601789F20EC
:102E00000140A807400E0143684601701720B047F3
:102E100084F31088F8BD38B5EFF3108472B6002142
:102E2000924A7F209047914A17206946223A90475C
:102E300084F31088684600784006800F38BD8E49BC
:102E4000084088494A6882434A6070478A49084076
:102E500084494A6802434A6070471CB56A469080BC
:102E6000118086485080D0806946012001F0DAFC4C
:102E70001CBD8348004770B5054675480C468268FE
:102E8000107AFB21084010727E49284688477D4A07
:102E9000214628465E3A90473EE410B502F052FFC4
:102EA000012010BD70B5044603200003844221D9DF
:102EB00063480568E878002802D001280AD01BE0A2
:102EC0002846253003F0F2FF0646A04214D82846D3
:102ED000293008E028462D3003F0E8FF0646A042DE
:102EE0000AD82846313003F0E1FF0146801B08185C
:102EF000A04201D300200FE401200DE410B572B60A
:102F0000614A904762B610BD70B514460D4606463C
:102F1000FFF7C8FF002806D072B622464A4B294662
:102F20003046984762B613E510B572B6464BAE33DD
:102F3000984762B610BD10B572B6534CF63CA04728
:102F400062B610BDF7B50025C80288B00E462C4603
:102F5000070C11E00898610108183B4B6A462021D4
:102F60009847002069460A5C401C5219C0B295B2CD
:102F70002028F8D3641CA4B2BC42EBD3F606089810
:102F8000F60E61010818304B6A463146984700201A
:102F9000694604E00A5C5219401C95B2C0B2B042C6
:102FA000F8D30A98854202D101200BB0F0BD002071
:102FB000FBE7FFB50E46012107460903224B81B00E
:102FC000204A002098471F49352208468C3803F0D4
:102FD0000CFF1C48833803F069FF1A495722441834
:102FE00018482146573803F000FF2021601C03F0E9
:102FF00059FF0025002F10D00020395C00290AD08D
:103000002218401CC0B251702028F6D305E02118C8
:10301000401C4D70C0B22028F9D320460521213034
:1030200003F040FF002E38D00020315C002932D060
:1030300022182032401CC0B251700528F5D32CE074
:10304000B8000020800600208F160000D164000028
:1030500094000020BE160020000200003154000041
:10306000713C00000010005040600250A729000091
:10307000BC00002063050000FCFF0FFD48080000B5
:103080000D330000AB3100009F18000021182031E3
:10309000401C4D70C0B20528F8D321462631039854
:1030A00003F015FF2146223104980872000A487285
:1030B0000121FF4A25700020904700230121FC4C8C
:1030C0000903FC4A1846F63CA047012005B0F0BDB4
:1030D000F94A1047F84A223A1047F0B5027889B009
:1030E000002A7DD0F549CA7142780A72002A01D0BF
:1030F000042A01D904220A72C27884781302234375
:10310000EE4A1C0A537294724479057924022C43C6
:103110001546EC72260A2E73A646C47985792002DC
:1031200028435073040A8446E548947304680825CC
:103130002746207CE47B000220430124521C83426A
:103140004C7008D9181A07E01471200A01E01571B3
:10315000280A507107E0C01A0E7AB0424DDA147195
:10316000260A56710872087A88700D70002B41D0BB
:103170005079117900020843191A68460183438384
:103180006146C18371468183B87C797C0002084323
:1031900002D0002002F09CFC6846018B0180428B2B
:1031A0004280828B8280C28BC28001723221417246
:1031B00000218172C17201734473210A817302215B
:1031C000C173002101740321417400218174042121
:1031D000C17400210175052141750021817500E050
:1031E0000FE0B8498847B74906A81E318847B64955
:1031F00009208847012009B0F0BDF600B042A6DAE8
:10320000A2E70020F7E7FEB50746AC4801780A07B9
:103210007DD5F72211400170BA797C1C7B791202AE
:103220001A437BD0C279120678D51022114301705F
:10323000880673D4A5488047054660792179000245
:103240000843FF1C002832D004F017FB064600910B
:10325000787839780002084304F00FFB9C4F002275
:103260003B4604F00DFB3246009B04F009FB009046
:10327000934801910068017CC27B0802104304F06E
:10328000FCFA00223B4604F0FBFA07460E46607A41
:10329000217A00020843401B04F0E7FA3A4633461D
:1032A00004F0EEFA019B009A04F046F824E07878E6
:1032B00039780002084304F05DFC06468048006847
:1032C000017CC27B0802104304F054FC314605F037
:1032D0008BFE04F0F9FB00227D4B04F0D1FA074687
:1032E0000E46607A217A00020843401B04F0BDFAC2
:1032F0003A46334604F0C4FA0022764B04F04CF808
:1033000004F06EFA0104090C00D1012101E00EE085
:1033100004E06D4B0920704A243B9847032069461E
:103320000881022211026D4C02AB0020A047FEBDB5
:1033300038B56B4C2078002804D16A496846884724
:1033400001202070012038BD10B50B30102801D9A4
:10335000FF2010BD5C4BC4B22046243B984720465A
:1033600010BD10B50B30102801D9FF2010BDC4B21C
:10337000554920468847204610BD072801D900201E
:10338000704701228240564843781A434270C16018
:10339000012070474A480068C07D7047484852493C
:1033A00000684118487C097C00020843704710B54A
:1033B000030005F0C1FD09061C36506AA3BDCFE924
:1033C000FC0000217F20FFF783FE00213020FFF763
:1033D0007FFE01217F20FFF77BFE1E216320FFF788
:1033E00077FE1F216D20FFF773FE882114E0002176
:1033F0007F20FFF76DFE00213020FFF769FE0121DD
:103400007F20FFF765FE1E216320FFF761FE1F216D
:103410006D20FFF75DFE8A216120FFF759FE8121B3
:10342000CDE000217F20FFF753FE00213020FFF781
:103430004FFE01217F20FFF74BFE1E216320FFF787
:1034400047FE1F216D20FFF743FE8A216120FFF711
:103450003FFE8321B3E000217F20FFF739FE0021EA
:103460003020FFF735FE01217F20FFF731FE1E21BE
:103470006320FFF72DFE1F216D20FFF729FE8A2113
:103480006120FFF725FE872199E000217F20FFF7CB
:103490001FFE00213020FFF71BFE01217F20FFF7D8
:1034A00017FE1E216320FFF713FE1F216D201DE074
:1034B0009F18000080060020A7290000BE160020EB
:1034C000BC000020575F0000F7330000051B000020
:1034D0000000F43F00002440C51F001031540000DC
:1034E000940000209D2C000063050000FFF7F0FD14
:1034F0008A216120FFF7ECFD8F2160E000217F2011
:10350000FFF7E6FD00213020FFF7E2FD01217F20DB
:10351000FFF7DEFD1E216320FFF7DAFD1F216D207E
:10352000FFF7D6FD8A216120FFF7D2FD9F2146E0FB
:1035300000217F20FFF7CCFD00213020FFF7C8FDE0
:1035400001217F20FFF7C4FD1E216320FFF7C0FD8E
:103550001F212AE000217F20FFF7BAFD0221302041
:10356000FFF7B6FD01217F20FFF7B2FD1F21632089
:10357000FFF7AEFD03216D20FFF7AAFD8A21612030
:10358000FFF7A6FDB0211AE000217F20FFF7A0FD84
:1035900002213020FFF79CFD01217F20FFF798FDDD
:1035A0001F216320FFF794FD07216D2000E009E053
:1035B000FFF78EFD8A216120FFF78AFDBF2165207C
:1035C000FFF786FD10BD97490968603108747047A0
:1035D00010B500280ED0012812D0022816D00328DA
:1035E00007D102217F20FFF773FD40212920FFF73B
:1035F0006FFD10BD02217F20FFF76AFD4621F5E730
:1036000002217F20FFF764FD4421EFE702217F20A4
:10361000FFF75EFD4221E9E710B5044682480068E5
:10362000093003F043FC1021804B22465730984765
:1036300010BD70B50546EFF3108472B67C4A0126C2
:1036400036037A4B3146002098470121794A002001
:10365000904775480068093003F028FC744910222F
:1036600057314018294603F0C0FB0023714D704AC2
:1036700031461846F63DA84784F310880CE46E499D
:103680000A69D208D2000A61401E486100208861A0
:1036900008690122104308610869C003FCD570471E
:1036A000F0B500260B460446012597B0314630465A
:1036B0002D03275C401CBE19A842FAD30020275CCA
:1036C000401C7940A842FAD39E4231D191422FD179
:1036D000EFF3108672B6544F3868093003F0E6FBFA
:1036E000524B6A46572198473868093003F0DEFB91
:1036F00000195722694603F078FB38680D3003F053
:10370000D5FB4E49001909680722083103F06DFB0B
:103710000121484A0020904722460023454C294673
:103720001846F63CA04786F31088012017B0F0BD7C
:103730000020FBE770B50546EFF3108472B63C4AF3
:1037400001263603394B3146002098473C4928462C
:103750008847354800680D3003F0A8FB344907223C
:10376000401836490968083103F03FFB0121314A0E
:103770000020904700232F4D2D4A31461846F63D34
:10378000A84784F3108879E7F8B5040019D02D49CB
:10379000684688470098002815D001210903234B6B
:1037A000234A00209847204F3868093003F07EFBF9
:1037B0001F4E6736805D401CC5B2052D05D902201D
:1037C000F8BD0120F8BD0420F8BD03208003844328
:1037D0000098A04201D10020F8BD0121154A002027
:1037E00090473868093003F061FB00230121114C38
:1037F000855509030E4A1846F63CA0470320F8BD3C
:1038000030B503460020104C07E01D5C55402D06E6
:10381000AD0D6559120A6A40401C8842F5D3104626
:1038200030BD0000B4000020B80000208F1600005A
:10383000800600209F18000000E000E0BC0000208F
:103840004B570000C12C0000E4930010FE490A7998
:10385000002A00D008707047F8B5FB4C63695979AD
:10386000002915D0B121C95CC91F092956D80146C4
:1038700018461022D93003F0B8FAE078002502216A
:103880000128606905D04279D2060FD5EF488047FC
:10389000F8BDCA22125C012AFAD1C279012A01D1EB
:1038A000C57137E0002AF3D1C171F8BDC279012A90
:1038B000F8D1CA21095C01292AD1E0698026017862
:1038C00001208840216A0968884300D181260027A9
:1038D000DF4880476169C919E0317F1CFFB2487633
:1038E000102FF5D3606933460146E9310246009155
:1038F000FF31F9321131D74EFF305A30B047E0690D
:103900000078142803D261690120C87101E0606960
:10391000C5716069D049E9308847F8BDCB4B0622B4
:10392000002101208C3B9847F8BDF1B5C64CA4B0EE
:103930006069417900292BD0CA210A5C2146C64F13
:1039400049691C370025E931012A23D00646024681
:10395000713609320491711E531E0196BE4E0293B8
:103960000392CA33C23200917A36FF300A3024996A
:10397000B047616910220846D930E93103F008FAEE
:1039800000287CD0B14B0422002101208C3B9847B9
:1039900025B0F0BD0C950D950E950F9511951295CE
:1039A0001395149542790126D206002A03DBA64A14
:1039B0001379002B7ED0F930B847A34C207900282A
:1039C00022D01DA8019500906369A44F18460146B6
:1039D000FF30FF31FA305A31F933249AB8471DA825
:1039E000013003F063FA18A9097D000208439C49DD
:1039F00003F075FA0422019111049A4F01AB0020E3
:103A0000B847207800287DD06769072239460931F8
:103A100015A803F0EAF939460722713117A803F017
:103A2000E4F9387A002810A86DD086767020C05D41
:103A3000002818A868D0867004A83A460190F93288
:103A40001046844E15ADC03017AB0095463624990C
:103A5000B0476069102204A9813003F0C6F908AEAE
:103A60000FCE19AE0FC6616903220E4621A8D331CD
:103A700003F0BBF903223146CC3122A800E073E009
:103A800003F0B3F93046FF30EA30039017AF21A9B5
:103A90006846A2C03146714EF93111AB19A86A3E91
:103AA000249AB047626922A91046FF30DA300CAB85
:103AB000019700E00AE000910390029519A8F932FD
:103AC0002499B04768490020884761E75E4A344638
:103AD000D2698023127894405B4A126A1268944338
:103AE00000D1812300910146FF315A31594CFF30FA
:103AF000FA30249AA0475448102240690146E9311F
:103B0000D93002E025E02BE02CE003F041F9002859
:103B100001D004221EE04C4C6069F930B847E069DE
:103B20000178491CC9B201701429CED3216A0868F2
:103B3000020C08A8827410A882710888020A08A8DA
:103B4000427410A84271097808A8017410A8017184
:103B500033E70C223D4B002101208C3B984717E7AF
:103B6000857663E7857067E760690026F930B847B6
:103B70006369384F1946FF330A33363F1846F93127
:103B8000249AB847606910230146A03106E017184F
:103B90003246FF320A32761CBD54F6B24A7C9F1A76
:103BA000B742F4DC30490020884760694179490810
:103BB00049004171ECE6F0B50446C07885B00728AD
:103BC00007D2224B0622002101208C3B984705B0EA
:103BD000F0BD1D4E01217069CB2211540025062233
:103BE0002146CC3003F001F9112071694001081819
:103BF000A0314E7CC17E827F437F04920A07D20FA0
:103C0000009203934A07CF06D30FFF0F02968A074D
:103C100001970E4E920F817E407E643EB047A078A1
:103C200010260007002843DA074A1121506949018C
:103C30004718FB7E19073BD50121CA2211545A07A8
:103C400015D4A278520711E0A80000205DA1000061
:103C50004D250000B3AA000055A90000FFAB0000ED
:103C600040420F0031540000F73300000ED57B7E38
:103C700022789D005B19FE4D5B19D55C882D02D022
:103C8000102D03D005E0FB4A117102E04179314368
:103C900041714179C90634D50B21C9014018C07D55
:103CA00001282ED16421F54BF34A0520984728E0DE
:103CB000F04F00217869CA2211541121490141189D
:103CC000CA7E520702D4A278520709D5497E2278CB
:103CD0008B00C918E64B193BC918555C102D02D151
:103CE000417931434171E44AE44B943AE44900207C
:103CF00098476079C00704D078690322817911431D
:103D00008171607980070BD5DA481121406949013A
:103D10004118897F890703D581790C22114381716C
:103D2000207980070BD5D3481121406949014118FA
:103D3000497F890703D54179802211434171CD48DC
:103D400041690846A0304674E278102A00D24274D5
:103D5000487901221043CB4C4871202D08D0402DCA
:103D600000D034E700231A4640210020A0472EE768
:103D700000231A462021F8E770B5BE4C0D46636952
:103D8000002825D0A0690C2181711946FF3120221D
:103D90005A31C01D03F029F86169A069FF31202262
:103DA00027307A3103F021F80621B74A41209047A5
:103DB0000B216069C9014118C97D002907D14079EB
:103DC000C00602D42079012801D1AB48804770BDDC
:103DD0001846FF302022FA3003F007F82022AB4BC0
:103DE0006069A9180E46C01802F0FFFF6369A84C6D
:103DF0001846FF309A30FF3332462946BA33A0477F
:103E000029460120FFF7B8FF70BDF0B5994C064672
:103E1000606985B04179C9072AD0FF3010210A3086
:103E200003F040F86069320AC11DF9314E728A729E
:103E3000320CCA72320E0A73CA21095C01250129AB
:103E400018D00346064601460933E9365A1E713139
:103E500001AF4EC7491E0091C933C33289318D4E1F
:103E6000FF300A30B0476069C17902292FD00BE0DA
:103E70000020ACE6206A00210660E2698023117010
:103E80006269D179022904D06069C17900292AD0F8
:103E90002AE000682946814300D18123E16800209F
:103EA00040314E7D1718E037401CC0B27E76102896
:103EB000F7D36069774E0146E93102460091FF3140
:103EC000F9321131E436FF305A30B047CBE771494F
:103ED0007A39E93088476069CA21095C012902D032
:103EE0000021C17100E0C571012070E6F8B5614C98
:103EF000694F6169CA19517B127B09021143009114
:103F000002F0EDFF0646A0780D46002826D0634952
:103F100008208847002804D06049022088470028EC
:103F20000CD06069C119487B097B00020843C01CA2
:103F3000704384B2002D1AD0601916E06069C1196F
:103F4000487B0A7B0102A06C1143C21C8918714393
:103F50008CB2002D0BD02818001906E00098C01C68
:103F6000704384B2002D02D06018C01C84B24C484B
:103F70008047A04201D20020F8BD0120F8BD70B5F5
:103F80000546D01D14460E4680B2FFF7AFFF00284D
:103F900010D038481B2180692A0A8171C5710272CC
:103FA00022463146093002F020FFE41C364AA0B216
:103FB0000421904770BD70B50546D01D14460E46CD
:103FC00080B2FFF793FF002810D02A481D21806996
:103FD0002A0A8171C571027222463146093002F007
:103FE00004FFE41C284AA0B20421904770BDF7B535
:103FF000204E294970690024091F2546401802F007
:1040000055FFB26911219171837846781B023343C1
:10401000009E421C0146B34258D3019EB34255D87C
:104020000E79CF783302029E3B43B3424ED10B78D8
:10403000172B55D00F4E0623B669F37157781378B6
:104040003F021F43062363439E1937723F0A77726C
:104050005679177936023E43064FBF69DF19BE72A3
:10406000360AFE72034ECF79B6699E19377319E08E
:10407000FD970010A80000205DA10000D3330000D0
:10408000B80B000031540000ED7F00001902000061
:10409000EF2A0000CFA9000061030000699400002E
:1040A00043600000F74F0E7ABF69AD1DDB195E73E8
:1040B000F44BF54E5B69ADB29E19737C367C1B02E6
:1040C000641C3343AE1DE4B2B34225D35379167951
:1040D0001A02EE4B32439A421ED00178081893E739
:1040E000002C1BD1E74814238069C91DC371547883
:1040F00016782302334303721B0A437253791479EF
:104100001A0222438272120AC27210220C3002F08A
:104110006CFE1435ADB201E0002C05D0AD1CDC4ABC
:10412000A8B204219047FEBD0A22DA4B1020009964
:104130009847FEBDF7B5D34ED749706900252C4688
:10414000401802F0B3FEB16909228A71837846787B
:104150001B023343009E421C0146B34232D3019EF0
:10416000B3422FD80E79CF783302029E3B43B3423D
:1041700028D10B78172B2FD0C24E0423B669241DEB
:10418000F371577813783F021F43AB009E193772C3
:104190003F0A7772BB4ECF79B669A4B29E19B77247
:1041A000B84F0E7ABF696D1CDB19DE72B54BB64E87
:1041B0005B69EDB29E19737C367C1B023343261D6E
:1041C000B3421ED3537916791A02B04B32439A4246
:1041D00017D001780818B9E7002D14D1A948122288
:1041E0008069C2718B784D781A022A430272120AD2
:1041F000427210220A30C91D02F0F7FD1234A4B237
:1042000001E0002D05D0A41CA14AA0B204219047D2
:10421000FEBD0A229F4B082000999847FEBDF7B5C6
:10422000984E9D497069002508312C46401802F0CF
:104230003DFEB26909219171837846781B023343B0
:10424000009E421C0146B34242D3019EB3423FD876
:104250000E79CF783302029E3B43B34238D10B78BC
:10426000182B3FD0874E0723B669E41DF3715778AA
:1042700013783F021F43EB005B1B9E1937723F0A06
:104280007772804E4F79B669A4B29E19B772CE7913
:104290008F7936023E437B4F6D1CBF69EDB2DF194B
:1042A000FE72360A3E73774E0F7AB6699E1977739F
:1042B000744F4E7ABF69DB199E73724B724E5B6905
:1042C0009E19737C367C1B023343E61DB34227D311
:1042D000537816781A026D4B32439A4220D00178F7
:1042E0000818A9E7002D1DD1664815228069C27102
:1042F0008A784B7812021A430272120A42724A7981
:104300008272CA798B7912021A43C272120A02733C
:1043100010220D30083102F068FD1534A4B201E01E
:10432000002D05D0A41C5A4AA0B204219047FEBD1E
:104330000A22584B082000999847FEBDF7B5514E08
:1043400055498AB07069083109900025401802F07B
:10435000ADFD0446B6690920B0710720F0712778D9
:104360002046182F77D0417A207A09020143A3789A
:1043700060781B0203430A9883426BD30B988342F5
:1043800068D80C98814265D1434909980C3140188E
:1043900002F08CFD0190E079A179000208430C2124
:1043A0002F464F43B9190872000A48723548002158
:1043B000806A3A4B0170E079A279000210436A46A4
:1043C0009081D1810A3202A998470822314ED10149
:1043D000002002ABA436B0472A48806A0078012842
:1043E0003CD0E079A379294A01021943019EF07873
:1043F000B3780002184388426DD13079400604D565
:10440000244820388047002836D03079810606D5E8
:10441000C0062049C00E1039884700282ED0E07908
:10442000A179000208431D4A0221343A904700282E
:1044300036D030793178C00970783BD0000208431B
:104440001538C4B20F4831468069224638181531F4
:1044500039E000E052E0417D207D86E7094CE06ACA
:10446000216B0678A069324638180A3002F0BDFC8C
:10447000A069B61CC67137E0052200E00C220A993B
:1044800013E00000A800002063050000FFFF00000B
:10449000ED7F00008D5300005D030000F93E000039
:1044A000A0786278010211430222F94B0820984754
:1044B0000DB0F0BD00020843C01FC4B2F54822464B
:1044C00080693818F11D0A3002F08FFCF148A41CF5
:1044D0008069C47108E0904206D070783378000299
:1044E00018438019019081E76D1C0CD0E948042124
:1044F0008069E94AC079801C9047D9E7E748834240
:1045000001D03C192BE70A22B9E710B5062912D0D1
:10451000417C037C0A0241781A430B020478C1787B
:1045200080780902234301438B4207D901221946AF
:104530000820D74B24E041790379EBE70520C0023E
:10454000824202D0401C824203D11846FFF7F2FD9E
:1045500010BDD348824203D11846CD4B18330FE02B
:10456000CF48401C824203D11846FFF758FE10BDC9
:10457000100A2928184602D0FFF7E0FE10BDC94BEB
:10458000984710BDF0B5C34C0746A07885B00D46DE
:1045900000287DD0C44E0820B047002879D00220E2
:1045A000B047002875D1EFF31080049072B6A06C6C
:1045B0002818801C86B2BD4880470100BC4803D043
:1045C000E168C978C90708D08047002875D1B74885
:1045D00010308047761CB0426FD3AE48AD49801D85
:1045E0000770B44800900822623101A802F0FDFB78
:1045F00063690022B2330299019801F001FF022F92
:1046000002D0012F0BD016E00120E071206D0422B2
:104610004119A048891C4C3002F0E7FB0BE0E0791F
:10462000012806D19B49206D04224C31801C02F0E8
:10463000DCFB0020E071206DA16C9F4E801C02917C
:10464000039601950090934A60696389921D994988
:10465000BA3001F020FEA06C711C2A18206D801C5D
:1046600002F0C3FB8B4C6234201D02F01FFC237848
:10467000E2781946637812061B021943A378C00931
:104680001B04194311432279C0015206520E01E066
:1046900012E012E0491C00235A415206520E104308
:1046A00021700A0A62700A0CA270090EE170207172
:1046B000049880F31088012017E4002015E4754861
:1046C000C1680A466032907E927EC007C00FD20752
:1046D000D20F603105E0887E8A7EC007C00FD20706
:1046E000D20F9042F7D1704710B56A484069017CFB
:1046F000C27B08021043072807D8FFF7E0FF002815
:1047000004D0FFF7DCFF0128FBD010BDFFF7D7FF77
:104710000028FBD0FFF7D3FF0128FBD010BD10B558
:104720005C48C168084622304279037912021A4374
:10473000624B9A4214D9DC43121903711B0A43716C
:10474000FF2320310B72FA2A0AD951015C4BD200A7
:10475000C91889187D221201891A0175090A417543
:1047600010BDF0B400285BD048780A7807021743E0
:10477000484A15269469534DE01C631C1B2FA670F4
:1047800041D9CC788E78240234431C71240A5C71A0
:10479000CC798E79240234431C72240A5C7293789B
:1047A0000C78002B4B7805D01B022343F92B12D930
:1047B000F92104E01B022343302B0CD93021017076
:1047C0000B0A437001710B0A437150694019017360
:1047D000090A417312E05269521913731B0A537389
:1047E0004A780B7812021A430270120A42704A7910
:1047F0000B79110219430171090A4171F0BC0921B9
:10480000314A032010471B21017000244470F32417
:104810001C7100265E71017146711C725E72D4E7D4
:10482000F0BC7047F0B4002850D01A4A14209369A5
:10483000987048780D7804022C43DC70240A1C71AF
:10484000CC788D7824022C435C71240A9C714C79BD
:104850000D7924022C43DC71D81C240A4471CC79D4
:104860008D7924022C435C72240A9C729578154C35
:104870005B1C002D42D04D790E792D023543F92D68
:1048800028D9F9210171002343710170437041E07F
:104890008D530000A8000020ED7F0000FFFF000006
:1048A000022800008742000069940000ED340000F7
:1048B000DD340000D0160020E41700203E06000082
:1048C000C0E0FFFF61030000958C0000F0BC0022F7
:1048D000012046E705712D0A4571C8788D780002E0
:1048E00028431871000A5871487909790002084371
:1048F000516909190873000A487324E04B780D7850
:104900001B022B43302B0BD9302101700023437045
:1049100001714371506900190173090A417312E072
:104920005269121913731B0A53734A780B781202D7
:104930001A430270120A42704A790B791102194324
:104940000171090A4171F0BC0921FE4A0320104798
:1049500010B507E0435C845C4454491C8354521EE8
:10496000C9B2D2B29142F5D310BDF8B5F64D0520CB
:10497000A969F44A8870012103209047A87800288B
:104980002DD068690F220021BA30FFF7E1FF686976
:1049900007220021B230FFF7DBFF2E466236301DC2
:1049A00002F084FA002434707470C009B470C0013D
:1049B000F470307146062F465A37760E381D02F0D5
:1049C00075FA3C70210A7970210CC009B970C001D8
:1049D000210E3043F9703871A878002806D1696932
:1049E00002220846D94BBA30B23198477D2149019D
:1049F000D84BD74A03209847D549082048398847DB
:104A0000F8BDF8B50546D44908208847CE4C0B20A0
:104A10006169C0010818807E01282FD10026374621
:104A200001E0042E04D260698019A030877406E08A
:104A3000C6480A38804761698919A0318874761C94
:104A4000F6B2082EEDD3C14F00260A3F01E0082E32
:104A500001D2002000E0B84761698919A031761CB5
:104A6000F6B28876102EF2D30026B847616989190C
:104A7000E031761CF6B24876102EF6D30B20616931
:104A8000C0010918487E042802D005281DD01EE068
:104A9000AE4F00260A3FB84761698919FF3181315D
:104AA000761CF6B24876202EF5D36069AB4B0146F2
:104AB000FF31A1310A7EFF305206520E0A760A46B5
:104AC000273A47399A30984701E0082048766169CB
:104AD000A0690E46042787700822C01CC231B63672
:104AE00002F083F9A069042231460B3002F07DF90F
:104AF0000D21944A032090476069294608220A3113
:104B0000BA3002F072F96069294604221231B230DB
:104B100002F06BF92069C0780328606904D0CA21CB
:104B2000095C012909D018E0817D427D080210430B
:104B30002A46083229468A4B2CE04179CA070CD014
:104B40008279520709D4C90907D10921890140187E
:104B50000078012801D1616A08702A7A814E002A02
:104B600002D1687A002817D0606901466030C37DA1
:104B70009A420AD16A7A007E824206D108222846E9
:104B8000793102F005F9002825D0714B0622002169
:104B900001200A339847F8BD6069CA21095C0129E0
:104BA0000BD00246BA32FF3011460A30B047606976
:104BB000022241791143417112E0417902463943A1
:104BC0004171BA3211468130B04760696030C07BB4
:104BD000012802D004E06069EFE75F4902208847BE
:104BE000FFF7C3FEF8BDF8B5574CA078002804D1F4
:104BF00001220021554B08469847A169062088707C
:104C00000121504A03209047A07800280CD0564834
:104C100061690818417B027B09021143F92903D914
:104C2000F9210173002141736069484D41790822DF
:104C30008B070A3D0027002B25DA1143417100261E
:104C4000A8476169891980314870A84761698A1944
:104C500091218854A032761CF6B25770102EEFD3F3
:104C60000026A847616989196031761CF6B248763A
:104C7000082EF6D3A84761696031C875A8476169F5
:104C80006031087614E0CA231B5C012B10D18379B4
:104C90005B070DD5114341710026A84761698A1948
:104CA00091218854A032761CF6B25770102EF4D39E
:104CB0002849032024318847274D0820103DA84764
:104CC000002803D0244908200A3188470220A84739
:104CD000012815D10B216069C9014118497D0129BD
:104CE0000ED12D22520180184179002909D00129C5
:104CF00062D0022904D18179164B1C4A07209847BB
:104D0000F8BD00254AE00A226A4351180A18507C6F
:104D1000167C0302164833430380104BC33B438089
:104D2000114BDF3BCB18597D1B7D09021943818054
:104D3000022181710321C17107721176002353761C
:104D4000038817E0958C0000A8000020572500007C
:104D5000C1940000D333000055850000C529000030
:104D6000996F0000ABAA000061030000FB980000EF
:104D7000E8180020F94AFA4E13808088508091800C
:104D8000134601210622C9030020B0470121C902B0
:104D9000F44BF54A0020B0476D1CEDB20520616967
:104DA000C0010A18D27BAA42ADD80B20626901214A
:104DB000C00110180175F8BDE1688B789B06DB0F08
:104DC000C3718878DF231840887060698018817902
:104DD0000172F8BD07E7F8B504460178401C0029C8
:104DE00010D0022976D003290BD14178027808022D
:104DF000104310286DD0082803D1201DE178FFF75B
:104E000084FBF8BD4178027808021043062838D0A8
:104E1000032839D014283BD015283ED0012842D091
:104E20000028EED1CD48251D5438C16822314A7E74
:104E30000B7E1102194300914069E37A017DC27C27
:104E40000E021643227B002711021943027CC37B0A
:104E50001002C9001843814200D80127FFF744FC23
:104E6000C24928468847002820D0FFF758FCBB4895
:104E70005438C0682230417902790902114319D0AF
:104E80001DE0FFF7B0FEF8BD201DFFF7BAFDF8BD2D
:104E9000211D0020FFF7C6FCF8BD0021221D084699
:104EA000FFF75FFCF8BDFFF71FFCF8BDB0492820F5
:104EB000884709E0009989000175090A4175002FAA
:104EC00002D00673310A4173201DFEF79CF9F8BD2C
:104ED00000E01CE0417802780802104301280AD063
:104EE00003280CD004280ED00C28F0D1211D00205E
:104EF000FEF742FFEBE7201DFEF75DFEE7E7201D12
:104F0000FEF7AAFCE3E7201DFEF70FFDDFE7E078E0
:104F1000231D062814D0587C197C02020A435878B5
:104F2000197800020843D9789B780902194388420E
:104F300009D901468A4B01221020A43B9847C6E7B5
:104F400058791979E9E7FFF752F8C0E710B5017809
:104F5000042905D18278437811021943022902D02D
:104F6000FFF739FF10BD41790079FFF70BFB0028EF
:104F7000F8D0FBF775F910BD30B587B07D480090CB
:104F8000801E01900024684604814481062101822C
:104F9000418227218181C18102258582C482764890
:104FA00006907649684688476C485438416B0A68D1
:104FB0002A430A60816B0A682A430A60C47004713C
:104FC000047007B030BD70B5644C0D46543C0028E9
:104FD00028D06B4DA8470028FCD06A4880476A4813
:104FE00080476749012008398847A06902218170FC
:104FF0001321C1700221654A0320904764490420AF
:1050000088476069017DC27C080210430A2101F0D3
:1050100066FF0A21401E41435A4B01205D4AEE3B88
:10502000984770BDE0682021417041788906FCD521
:1050300055480C3880474E492878884770BD5449F8
:1050400010B5012010398847002804D00021012024
:10505000FFF7B9FF10BD46491320884710BDFEB5C4
:1050600000216846017001710D4601214A4E7F20E2
:10507000B047494C0A206946223CA0476846007860
:105080000109090168460170022001430A20B04766
:1050900001A90A20A04768460079400704D56D1C85
:1050A000EDB2FA2DF4D108E0FA2D06D001A90A20BC
:1050B000A047684600794007F8D5684601780A207D
:1050C000B0470020401C80B2FA28FBD301A90A2077
:1050D000A04768460079000701D40120FEBD0020EA
:1050E000FEBD70B505460024FFF7B9FF012817D1B2
:1050F0000020FDF707FC29480169C908C9000161C2
:10510000072141610021816101690122114301618F
:105110000169C903FCD5002D01D1FDF735FC01243F
:10512000204670BD0D4910B5543949691A4C887034
:10513000002835D0012841D002280ED100217F203F
:10514000A04700210320A04720210420A0470221DE
:105150007F20A04703210020A04710BDFC000020B5
:1051600031540000E818002007020000E52000008C
:105170006F9000001B8001004D4F001093600000F5
:105180002B1B0000C1340000FF250000958C00009F
:10519000558500008D940000A729000000E000E084
:1051A00000217F20A04700210320A04720210420C8
:1051B000A04702217F20A0470021CCE700217F20CB
:1051C000A0471F210320A04702217F20A0470121E3
:1051D0000020A04700217F20A0473F210420BBE7FB
:1051E00010B5012802D002280ED01BE0487A0C7AB4
:1051F00000022043C00715D048790979000208430E
:105200001946FEF7BCFEA8E7487A0C7A0002204354
:10521000800707D548790979000208431946FEF747
:10522000CAFE9AE7002098E770B5FE4CE068817EE0
:10523000FD22114081766069FB4D837F427F2030E3
:1052400041780078090201430120A847E06881788D
:105250004906C90F61718178BF221140817070BD0C
:1052600010B5F04CE068817E022211438176EE4851
:1052700034308047E0688178BF2211406279D207DC
:10528000520E1143817068E7F0B51746E54A0446AF
:10529000D0681E460D46C37885B000211B0702D595
:1052A000002005B0F0BD00BF491C89B26429FAD3C3
:1052B0004030417C8907FCD4DA4841692D20400107
:1052C0000818C07A012804D1FF210531204601F0D9
:1052D000E9FDA00707D1D3482D21426949015118A2
:1052E000897A01291DD0CF4B0020D968C0310A79B5
:1052F0002254401C80B20228F9D3CA488078002882
:1053000008D0CA4908208847002803D0C54821781A
:10531000801D0170207880066078288034D50120B7
:1053200033E0C1680846E030427B037B12021A4337
:10533000837B1B041A43920C9204A3039B0B1A4316
:105340000273130A4373120C82734822525CC37BAC
:105350005206520EDB09DB011343C373027A520873
:1053600052000272027A02231A430272E031087A72
:105370008007FCD4207880066078288001D5012041
:1053800000E00020387012E00020A6493870CA689A
:105390000020C032A41C03E013792354401C80B2C7
:1053A0002B888342F8D8C8680122C030427228880E
:1053B0009C4F801C2880B87800280AD09B49082080
:1053C0008847002853D0994902208847002809D0EF
:1053D0004DE0F8684030417C890748D4407CC007E4
:1053E000C00F45E02A8821469148921E01F0FDFC3D
:1053F00090488C49009008225A3101A801F0F5FC30
:105400007B690122B2330299019800F0F9FF8548C7
:10541000801D01788907890F01702888BA6C84493A
:105420000292801E009101907E4A78697B89921DCC
:105430008049BA3000F0B4FFC0B2307001280ED1FC
:1054400028887B49BA6C009101AB801E15C3754A50
:1054500078697B89921D7749BA3000F055FF28881A
:10546000B96C401A2880801EA41E607001E00120E3
:105470003070012015E7F0B56E48002687B018306F
:105480000590684606820672067300276A49012065
:1054900088470028694803AB02AA04A90FD0FFF788
:1054A000F3FE00280FD15F48C068C078C00665D5FC
:1054B00002AA04A9614800F05FFB012703E0604CE9
:1054C000A04700285AD0574D2869C278032A03D133
:1054D000E86B00780128D4D06846007A012801D111
:1054E000002F07D0554C207886460007000F05286E
:1054F00046D047E04D4F514C0820B84700282DD0EA
:105500000220B847002829D16846007B002832D005
:10551000A878002822D0434D5A35281D01F0C6FC3A
:105520002B78C10918466B78EA781B021843AB78D0
:1055300012061B04184310432A79C9015206520E61
:10554000401C00235A415206520E11432870020A91
:105550006A70020CAA70000EE8702971204600F0F3
:1055600039FB00288DD06846008A364A801EC1B2B9
:105570003248904785E734493D20884707B0F0BD61
:10558000002F03D07146090722D071E0208B062836
:1055900002D3A08B0A2802D212202B495DE02B49AE
:1055A000A01C8847FFF7BBF829480222017F11435E
:1055B00001771D487A388047207870214006C20F55
:1055C00068690A540622A11C713001F00EFC58E7EC
:1055D0006969CB7D022B10D0002360314F7B8C4654
:1055E0003946012F00D000273B4341D0032A06D083
:1055F0006046007A012832D05BE00123EDE705998F
:1056000000916946098A134F0839CBB271464906A1
:10561000C90FA21CB84768696030007A0128A9D177
:10562000A01C19E0A8000020D91B0000699400000C
:10563000E4170020D016002045850000E016002069
:10564000B12700003F9C00006F900000CB1D0000C0
:1056500020000150CB6F0000F849884711E701296D
:1056600003D0F649A01C884723E0A01CF449FAE7C0
:105670000328ACD00428AAD16969CB7D022B0AD0BB
:1056800000236031497B012900D000210B439ED0CB
:10569000032A02D00DE00123F3E705990091694642
:1056A000098AE84D891FCBB271464906C90FA21C71
:1056B000A8470598009001966846008AA21C083801
:1056C000C3B22078DD4C41060007C90F000F6834D3
:1056D000A047D6E670B5FFB0DB4985B00420884707
:1056E00000280BD0D84904201A318847D748804772
:1056F000D749162088477FB005B070BDD548804790
:10570000002500280FD0D44C606941790A075ED586
:105710008279D3071DD0D14981308847606981796A
:10572000490849003AE068460580CA4DC74E8635AB
:105730009236CB4C09E0694601A8A8470028DAD088
:1057400068460088C1B201A8B047A0470028F2D03F
:10575000D1E7930709D5C14A014679311C32773028
:1057600090476069FD22817908E0530708D5BB495D
:105770006031913088476069FB22817911400DE0EA
:105780001207F725002A0BDA027A01461046B34ABF
:105790000931423290476069817929408171AAE7D5
:1057A00029404171034677333A221021AD4D002044
:1057B000A8470921606989014118097801299AD10E
:1057C0004079C00997D1616A0120087093E7E16BC5
:1057D000097800298FD1216C097801298BD1817D2D
:1057E000427D08021043A04A01219047206C0570B9
:1057F00081E7F0B585B00026974C00960196029699
:1058000003966069017A01292ED1817B89090129DA
:105810002AD110226946913001F0BAFA002823D02B
:10582000002504AF8948C238804778556D1CEDB219
:10583000032DF7D36946887C40214006400E08437B
:105840006946887460690621093001F02BFB6069A4
:10585000032204A90C3001F0C8FA6269834B104698
:10586000913004A90932984726711AE570B57A4E2D
:10587000F068447844707B4DE00706D0FFF72AFFBC
:10588000002301211A460846A847A00706D5FFF7BE
:10589000F2FD002302211A460120A847600706D521
:1058A00073488047002304211A460120A847200797
:1058B00007D56F48BC308047002308211A460120D5
:1058C000A847E00610D5F0682030407D60494007C9
:1058D00001D53E2000E008208847002310211A4609
:1058E0000120A847FFF785FFA0060CD500F0C8F9F6
:1058F000002320211A460120A8470023FF211A4631
:1059000001311846A847600611D54F490120884744
:10591000002807D070696030807B012802D1F168CF
:1059200007204875002340211A460120A847E009B6
:1059300004D0002380211A460120A84770BD38B545
:105940004C4C0120A04700214B4D7F20A8474A4ADC
:105950003B206946223A904768460178FB20014087
:10596000684601703B20A8473748943080470020A4
:10597000A04738BD414909788906890F01707047F1
:105980003549497801707047F8B53C4E3A4C0546A8
:1059900003280DD300217F20A047D8211120A04744
:1059A0001D213A20A0477078FB21084070700CE060
:1059B000707804210843707000217F20A047D8210F
:1059C0001120A04719213A20A0472B4A3F206946C1
:1059D000223A9047694608782B008006800E0870AE
:1059E00003F0AAFA060A06040A06040A802100E067
:1059F000402108436946087009783F20A0471648AF
:105A000040694570F8BD10B50446FFF7BDFF124868
:105A1000447006E470B5104D01210903184B0020B5
:105A20006A6C984728690446093001F03FFA696CAE
:105A300040180578012D25D9002070BD155C0000A7
:105A4000995D0000CB6F0000458500000F26000027
:105A50006F900000ED340000A80000207BA600003D
:105A6000371B0000315400004F6E000095A9000064
:105A7000C18D0000692D0000A72900000010005012
:105A80008F160000E07800280DD020462D3001F060
:105A90000DFA06462046313001F008FA02469642D9
:105AA00012D2911B07E02046253001F0FFF906468F
:105AB00020462930F0E7002D08D0304609039A4AE5
:105AC000090E90470120B8E7B11AF4E71046F5E750
:105AD000F8B5964C2D21E268656949016E181346A8
:105AE00011462033603101281FD16F1CBC46A87CB1
:105AF0006F7C0002384318D08D482C18607E247EBD
:105B00000002204322321075000A50756046427C24
:105B1000047C100220431873000A5873C87D1022B9
:105B20001043C87501207072F8BD2D27707A7F016F
:105B30000128F9D1307B002500280CD01D73280ADC
:105B40005873C87D10231843C87575729079022167
:105B500008439071F8BD00F0B5F8E06801462031C7
:105B60000D732A0A4A736030C17D10221143C1753A
:105B70006069C0194572F8BD70B56C4C0023E568CA
:105B8000C0352E7DC6545B1CDBB2022BF9D30378E3
:105B900001259B06002B43780B8001DA157001E08C
:105BA00000231370E3680022801CC03303E01E7DD5
:105BB0008654521CD2B20E889642F8D8B0B2801CDD
:105BC0000880E068D9210D54017902221143017146
:105BD000012032E710B5017800228B079B0F534953
:105BE000012B37D0022B0AD0032B31D18178182911
:105BF0002DD8504B4078595C884228D028E0437813
:105C0000042B09D9C37884781B022343012464023E
:105C1000A34201D8012300E000230B72002B17D010
:105C20004179027909021143052910D006290ED1C4
:105C3000C17882780902114380793E4A40001A32C5
:105C400080184038C08F814201D0002200E001223C
:105C50001046DEE60A7A002AF7D04969364A4078CB
:105C60008B185A7B1B7B12021A43334B9B1ECB189B
:105C7000597C1B7C09021943511A8142E7DAE4E797
:105C800010B52E4901208847002815D027484169C2
:105C900060314A7B012A05D1C2686032137808243A
:105CA00023431370897B012906D1C068017C4022FF
:105CB0001143017400214175214880472048C430B8
:105CC0008047A6E670B5194CE0682030417802782C
:105CD0000D02417E1543027E0E021643AE4208D8E5
:105CE00061698A7C4B7C1102194349190176090AC2
:105CF0004176FEF7E4FC00280DD0FEF7E0FC012819
:105D0000FBD0AE4205D8E0682030817802221143F2
:105D10008170012091E6FEF7D2FC0028FBD0FEF74F
:105D2000CEFC0128FBD0ECE79F180000A800002063
:105D300083050000169800106303000045850000ED
:105D4000498F0000FFB5074685B00020624C0090E7
:105D500020680E46411C216060491D46884205D9D5
:105D60005F488047002853D000202060062F6FD264
:105D70005C4841785C4A4907C90F090100788918D5
:105D80008006800F800008588446EFF3108004904E
:105D900072B62906534C04206034002907DB217EAB
:105DA0000391FB210D40039901400D432576F10736
:105DB00003D0A17E02221143A176B10703D5A17EB3
:105DC00001221143A17647498031F20702D08A7837
:105DD000D209FAD0B10704D54249803189788906C1
:105DE000F8D5424B002F14D0012F12D0022F1FD014
:105DF000032F1DD0E17E01221143E176E17EFD22D9
:105E00001140E176196901431961042F1DD018E092
:105E1000FEE7196981431961A17E002F01D0F722A5
:105E200011E008221143A1760799002917D110E04B
:105E3000E17E49084900E176196901431961022FA1
:105E400003D0A17EFB221140EDE7A17E0143EAE7EA
:105E50003FE02749C97A002913D0002F11D0012132
:105E600000912449720705D50869C008C00008617F
:105E7000092003E00A69D208D2000A6148610020C3
:105E800088617007C20F6046009903F017F8B007E9
:105E900003D5A07E40084000A076F0070BD0A07E7E
:105EA000FD210840A0760F48803001E0F10702D0C4
:105EB0008178C909FAD10B488030B10702D58178C1
:105EC0008906FAD4280601D403982076049880F332
:105ED000108809B0F0BD0000140100201027000058
:105EE00041070000001000504C98001000ED00E049
:105EF00000AA022000E000E0F8B50F46064615466D
:105F00001C461021184600F0CDFF012168460170A3
:105F100021700D223946601C00F067FF2902280A13
:105F20000143684601800078A07368464078E073BA
:105F30003146204600F0F7FEF8BDFFB589B01D469A
:105F40000F46139E00F07BFA0024029403940494FD
:105F5000684605940470002D01D0012000E0002067
:105F600081011498801EC20F10184010C000401804
:105F70006946401C08700872394602AF0D22781C31
:105F800000F033FFB0B20202000A024369460A8001
:105F9000CA8202A9099800F058FA002D3DD0A9B292
:105FA0000802090A0843029403940494694605947C
:105FB000088008810E2D01D90E2200E02A46B81C67
:105FC0000B9900F012FF0E2D01D90E2700E02F468D
:105FD0000E2D1ED90E202D1A099802A91BD000F0F3
:105FE00034FA0294039404940594102D01D91022DC
:105FF00000E02A460B98C11902A800F0F6FE102D09
:1060000001D9102000E02846C719102D01D9102011
:10601000E1E72846DFE700F018FA002E24D00294CA
:106020000394049400250594029403940494059425
:10603000102E01D9102200E032461298411902A810
:1060400000F0D3FE102E01D9102000E03046451993
:10605000102E01D9102000E03046361A02A9099806
:1060600000F0F3F9002EDFD102A9149A159800F080
:10607000BCFE14980DB0F0BDFFB589B01C46139D51
:1060800000F0DDF900260296039604966846059610
:106090000670002C01D0012000E00020810114983E
:1060A000801EC20F10184010C00040186A46401CE5
:1060B0001070107202A80D2201300A9900F095FEAE
:1060C000A8B20102000A01436A461180D18202A9E6
:1060D000099800F0BAF9002C3ED0A0B20102000AE3
:1060E0000143029603960496684605960180018155
:1060F0000E2C01D90E2200E0224602A802300B9994
:1061000000F073FE0E2C01D90E2700E027460E2C5E
:106110001ED90E20241A099802A91BD000F095F967
:106120000296039604960596102C01D9102200E0E1
:1061300022460B98C11902A800F057FE102C01D975
:10614000102000E02046C719102C01D91020E1E7EB
:106150002046DFE700F079F9002D32D000200290D0
:10616000039004902C46064601270590BAB202AB74
:106170000A990998FFF7C0FE00203118A94203D3FD
:10618000002102AA115406E002AA135C129A515C83
:106190004B4002A90B54401C1028EED37F1C102C3E
:1061A00001D9102000E020468619102C01D91020BA
:1061B00000E02046241A02A9099800F046F9002CB4
:1061C000D4D102A9149A159800F00FFE149851E743
:1061D000FFB5002585B01F461C4601262BE06B4607
:1061E000324606990598FFF787FE00202918B94224
:1061F00009D2079B6A46125C595C4A4069460A54B8
:10620000401C1028F2DB102C01D9102200E022469D
:106210000E986946401900F0E8FD102C01D91020B5
:1062200000E020464519102C01D9102000E020463E
:10623000241A761CB6B2002CD1D1284609B0F0BD84
:10624000FFB585B000261C460B4607460096019612
:106250000296012168460396017401700D221946C9
:106260006D46401C00F0C1FD68460682C681394675
:1062700000F059FD002005E0079A295C125C5140AE
:106280002954401CA042F7DB224669460E9800F0D4
:10629000ACFD2046D2E7FFB589B0159D1C461A46D5
:1062A0002846149F139E0B9900F09FFD04A9129895
:1062B0006A460391C1C209A807C82346FFF73DFEFD
:1062C000002801DBB84202D00020C043D2E62819E2
:1062D00000903346129A0A990998FFF779FF00282F
:1062E00002DA0120C043C5E6A419601900903B46BC
:1062F00004AA0A990998FFF7A3FF002802DA0220EE
:10630000C043B7E62018B5E6FFB58DB017ACA1CCF9
:10631000A84203D20520C04311B0F0BD461B169819
:1063200004A9009132182B460E990D98FFF788FFAB
:10633000040001D4AC4202D00020C043ECE7334655
:106340000097169A0E990D98FFF742FF06000FD09E
:1063500008A803900097019602950DA80FC8FFF7B3
:10636000ECFD002801DBA84205D00220C043D3E7A2
:106370000120C043D0E7844202D00320C043CBE7D2
:10638000002004A908AA07E00B5C155CAB4202D010
:106390000420C043C0E7401CA042F5D33046BBE711
:1063A000FFB58DB0189D179804A9169F461B009144
:1063B000F2192B460E990D98FFF742FF040018D4EE
:1063C000AC4216D108A803900097019602950DA83B
:1063D0000FC8FFF751FE00280BDBA84209D1844209
:1063E00007D1002004A908AA06E00B5C155CAB42AB
:1063F00001D0002090E7401CA042F6DB01208BE793
:1064000070B54906490E049C0E06050A35432070F6
:106410006570050C0E043543A5700D02000E28436F
:10642000E070D00101432171002007210A1A2518CC
:10643000401C9A5CC0B26A710828F7D370BD10B5D1
:1064400010210C4800F02EFD10BD70B50C46014621
:10645000084A0020235C155C6B402354401C102824
:10646000F8DB204600F05FFC10222146014800F0D6
:10647000BCFC70BDEF1A0020FCB500228B5C83547D
:10648000521C92B2102AF9D301231D012A18114679
:1064900020390E7FFF4CB6464E7F0F7CA65D7E40B6
:1064A000FD4FFF5C7E4046558F7F0197E65D4F7C38
:1064B0007E405670B446CE7F0096A75D8E7C7740B6
:1064C00097707646A45DCE7C7440D4700E7D455D99
:1064D0006E401671B6464D7D664675405571AC46A8
:1064E0008D7D76467D409571CF7D6740D7710C7E5E
:1064F00074401472A6464C7E6646744054728E7E7A
:10650000A4466E409672CD7E74467D40D5720F7F54
:1065100067401773497F644661405173019F77401C
:106520009773009E5B1C6E409BB2D6730B2BACD353
:10653000FCBDF0B591B00D46044600273901227824
:10654000685C49194240D348825C227023790E79F5
:106550007340C35C2371237A0E7A7340C35C237249
:10656000237B0E7B7340C35C237363784E78734048
:106570009C4663794E797340C35C63700593637A7C
:106580004E7A7340C35C6371637B4E7B7340C35C24
:1065900063726346C35C6373A3788E7873409E46D0
:1065A000A6798B795E40B446A37A8E7A5E40835D8D
:1065B000A3700493A37B8E7B5E40865DA6717346B9
:1065C000C35CA3726646835DA373E37BCE7B73409B
:1065D0009C46E37ACE7A7340C35CE373E379CE7969
:1065E0007340C35CE372E378C9784B40C15CE171EE
:1065F0006346C15CE170059B10465840049B06460B
:106600004B405E40029200F0A7FB21787040414071
:1066100021706078A178484000F09EFB617870405E
:1066200041406170A078E178484000F095FBA17886
:1066300070404140A170E078029A504000F08CFB1D
:10664000E17870404140E170207962790146A37998
:10665000E679504002467340584006461046029183
:1066600000F07AFB2279014671404A40227160793C
:10667000A179484000F070FB6279014671404A40C0
:106680006271A079E179484000F066FBA279014689
:1066900071404A40A271E0790299484000F05CFBE9
:1066A000E279014671404A40E271207A617A0246FD
:1066B000A37AE67A484001467340584006460846A9
:1066C000029200F049FB227A014671404A40227250
:1066D000607AA17A484000F03FFB627A014671403F
:1066E0004A406272A07AE17A484000F035FBA27A13
:1066F000014671404A40A272E07A029A504000F08E
:106700002BFBE27A014671404A40E272207B627BB9
:106710000146A37BE67B5040024673405840064644
:106720001046029100F018FB227B014671404A405E
:106730002273607BA17B484000F00EFB627B014628
:1067400071404A406273A07BE17B484000F004FB4B
:10675000A27B014671404A40A273E17B0298484007
:1067600000F0FAFAE27B014671404A407F1CFFB21A
:10677000E273092F00D2E1E63A012178A85C41409A
:106780004448415C21701091511923790A79534092
:10679000C75C27710D97227A0B7A5A40875C277263
:1067A0000997227B0B7B5A40825C227305926278A8
:1067B0004B784E795A4063797340C75C6770637A4F
:1067C0004E7ABC467340C75C67710C97637B4E7B07
:1067D0007340C75C67720897825C62730492A37807
:1067E0008A788E795340A2798F7A7240A67A7E4059
:1067F000875DA7700E97A67B8F7B7E40875DA77114
:106800000B97C65CA672825CA273E77B9646CA7B36
:10681000A03557400097E27ACB7A5A40835CE37305
:10682000E279CF797A40825CE272E778C9784F40AA
:10683000C15DE1710A91009FC05DE0702F781099F1
:1068400079402170697867464F406770A9780E9F3C
:106850004F40A770E9784840E07028790D9F474085
:10686000277168790C9F47406771A8790B9F474053
:10687000A771E8790A994140E171287A099F474058
:106880002772687A089F47406772A87A4640A672C6
:10689000E87A03E06C9800106C9A00104240E272B3
:1068A000287B059A42402273687B049A42406273B7
:1068B000A87B72464240A273E87B4340E37311B069
:1068C000F0BDF0B50446027808460D46A0300178C8
:1068D00091B04A402270637841784B4063709E4685
:1068E000A37881784B40A3700B93E378C1784B4039
:1068F000E3700793217903795940217167794379CE
:106900005F406771A37986797340A3710993E37936
:10691000C6797340E3710693237A067A7340237233
:106920000E93637A467A734063720293A67A837AEF
:106930005E40A6720596E37AC67A7340E3720493CA
:10694000237B067B734023730D93637B467B7340ED
:1069500063730193A67B837B5E40A6730396E37B00
:10696000C07B4340E3739C46FA489023825CEB5C17
:106970005A402270425C294690310B795A4022716C
:106980000E9BC25C0B7A5A4022720D9BC25C0B7B41
:106990005A402273019B4E7BC25C4B785A40029B4B
:1069A000C35C73406373C35D4E7A73406372734616
:1069B000C35C4E797340637162700B9B8E7BC25CCB
:1069C0008B7A8F785A40099BC35C7340059E865D25
:1069D0007E40A670039E8F79865D7E40A671A2726E
:1069E000A373079BC25CCB7B5A40069BC35CCE78EB
:1069F0007340E370049BCE79C35C7340E3716346DC
:106A0000C35CC97A4B40E372E27308262078A17810
:106A1000484000F0A1F900F09FF907466078E1785E
:106A2000484000F099F900F097F9217879402170F9
:106A3000617841406170A1787940A170E17841406E
:106A4000E1702079A179484000F086F900F084F9DE
:106A500007466079E179484000F07EF900F07CF962
:106A60000146207978402071607948406071A079B2
:106A70007840A071E0794840E071207AA17A4840DE
:106A800000F06AF900F068F90746607AE17A484058
:106A900000F062F900F060F9217A79402172617AA0
:106AA00041406172A17A7940A172E17A4140E1727C
:106AB000207BA17B484000F04FF900F04DF90746DC
:106AC000607BE17B484000F047F900F045F9217B0D
:106AD00079402173617B41406173A17B7940A1734F
:106AE000E17B4140E173207862780146A378E77842
:106AF000504002467B40584007461046029100F045
:106B00002BF92278014679404A4022706078A178BA
:106B1000484000F021F96278014679404A406270AD
:106B2000A078E178484000F017F9A2780146794052
:106B30004A40A270E0780299484000F00DF9E278EE
:106B4000014679404A40E270207962790146A37992
:106B5000E779504002467B40584007461046029174
:106B600000F0FAF82279014679404A4022716079B2
:106B7000A179484000F0F0F86279014679404A4036
:106B80006271A079E179484000F0E6F8A279014607
:106B900079404A40A271E0790299484000F0DCF85F
:106BA000E279014679404A40E271207A627A0146F0
:106BB000A37AE77A504002467B4058400746104689
:106BC000029100F0C9F8227A014679404A402272C7
:106BD000607AA17A484000F0BFF8627A01467940B5
:106BE0004A406272A07AE17A484000F0B5F8A27A91
:106BF000014679404A40A272E07A0299484000F08A
:106C0000ABF8E27A014679404A40E272207B627B2F
:106C10000146A37BE77B504002467B405840074635
:106C20001046029100F098F8227B014679404A40D4
:106C30002273607BA17B484000F08EF8627B0146A6
:106C400079404A406273A07BE17B484000F084F8C1
:106C5000A27B014679404A40A273E17B02984840FA
:106C600000F07AF80146E37B79404B40E3732178EA
:106C700038489E46425C31016B5C49195A4022708B
:106C800022790B79825C5A402271227A0B7A825CDB
:106C90005A402272227B0B7B825C5A402273627BB9
:106CA0004B78825C4F7B5A40637AC35C7B40637352
:106CB00063794F7AC35C7B40637263784F79C35CBE
:106CC0007B4063716270A2788F78835C8A7A5340CC
:106CD000A2799C46825C8B7B5A40A37AC35C7B4042
:106CE000A370A37B8F79C35C7B40A3716346A372BF
:106CF000A273E278CB7B825C5A40E379CF78C35CA5
:106D0000761E7B40E370E37ACF79C35C76B27B403A
:106D1000E3717346C05CC97A4840E072E273002EAA
:106D200000DB73E6CBE510B5ACB004466846FFF770
:106D3000A3FB69462046FFF7FCFB2CB010BD10B545
:106D4000ACB004466846FFF797FB69462046FFF75C
:106D5000B8FDF2E76C990010C1094000002903D08A
:106D6000C0B21B2148407047C0B270471CB50C46EA
:106D7000064B7B4469460090204600F0B0FF044675
:106D80000020694600F0BEFF20461CBD8F0F0000AA
:106D9000034610B50B439B070FD1042A0DD308C837
:106DA00010C9121FA342F8D018BA21BA884201D9DB
:106DB000012010BD0020C04310BD002A03D0D3071E
:106DC00003D0521C07E0002010BD03780C78401C53
:106DD000491C1B1B07D103780C78401C491C1B1B4A
:106DE00001D1921EF1D1184610BDF8B5042A2CD35A
:106DF000830712D00B78491C0370401C521E830776
:106E00000BD00B78491C0370401C521E830704D022
:106E10000B78491C0370401C521E8B079B0F05D03A
:106E2000C91ADF002023DE1B08C90AE0F9F71CFAA3
:106E3000F8BD1D4608C9FD401C46B4402C4310C097
:106E4000121F042AF5D2F308C91A521EF0D40B7887
:106E5000491C0370401C521EEAD40B78491C037075
:106E6000401C012AE4D409780170F8BD01E004C097
:106E7000091F0429FBD28B0701D50280801CC9079A
:106E800000D00270704700290BD0C30702D00270F7
:106E9000401C491E022904D3830702D50280801CAE
:106EA000891EE3E70022EEE70022DFE70378C278DD
:106EB0001946437812061B0219438378C0781B04D5
:106EC000194311430902090A000608437047020AE0
:106ED00008704A70020C8A70020ECA707047002255
:106EE00003098B422CD3030A8B4211D300239C4607
:106EF0004EE003460B433CD4002243088B4231D37F
:106F000003098B421CD3030A8B4201D394463FE012
:106F1000C3098B4201D3CB01C01A524183098B4272
:106F200001D38B01C01A524143098B4201D34B015B
:106F3000C01A524103098B4201D30B01C01A5241BE
:106F4000C3088B4201D3CB00C01A524183088B4245
:106F500001D38B00C01A524143088B4201D34B002E
:106F6000C01A5241411A00D20146524110467047A0
:106F70005DE0CA0F00D04942031000D340425340A5
:106F800000229C4603098B422DD3030A8B4212D365
:106F9000FC22890112BA030A8B420CD38901921197
:106FA0008B4208D3890192118B4204D389013AD0D4
:106FB000921100E08909C3098B4201D3CB01C01AA9
:106FC000524183098B4201D38B01C01A52414309BC
:106FD0008B4201D34B01C01A524103098B4201D3AA
:106FE0000B01C01A5241C3088B4201D3CB00C01A17
:106FF000524183088B4201D38B00C01A5241D9D22F
:1070000043088B4201D34B00C01A5241411A00D2AF
:107010000146634652415B10104601D34042002BAB
:1070200000D54942704763465B1000D3404201B52A
:107030000020C046C04602BD704770477047000040
:10704000F0B50C46871A9C410D46861A9D4103D225
:10705000C01BA141D21963410D0D1F0DC94EEC1B80
:10706000AE435CD07F057F0D0026002F51D02D054B
:10707000AC46A943DD020123ED0A1B051D43202375
:107080001B1B24D41746E740381871412F46E740B0
:10709000CC199D402818314661410C0D27D161441F
:1070A0009A4013D50023401C594152000ED140088C
:1070B000400001224B005205D34207D30520400770
:1070C000C14201D5B04900E0B0493046F0BD6B0087
:1070D000002A00D001229A181F23203C1B1B01D537
:1070E000002302E0E540281871410C0DD7D001249F
:1070F00024050919C407CD0740084908E40F2843AF
:107100006144002CD5D00024401C61419A40D0D16C
:10711000CDE76A05520DD9D1C90FC907D5E79C4DF6
:107120004E00002801D0012400E0002434195F0043
:10713000002A01D0012600E00026BE19954FAC427E
:107140000CD8AE420AD8B44206D001256D05EC42F7
:10715000BCD010461946F0BD9942FCD000203946FB
:10716000F0BDF0B51FB40C460F46811A9F4125466D
:10717000861A9D4106D20125ED076F40401ABC4199
:1071800052187B41210D1E0D8D1BAC467D4D8D434C
:107190007ED075056D0D7CD00D05AE46AC431B034E
:1071A0001B0B794D52429D41202366469B1B14D3F5
:1071B0001746F740381800260090744160462F4665
:1071C0000741E41900989D402818664116D471467D
:1071D00071189A4025D5012320E093182A466A4168
:1071E0005200002B00D0521C1E23203E9B1B002B64
:1071F00061DD3541EE1728186641E8D50018764163
:107200005B1C9A4000D3401C4B05F3181524E34047
:1072100010D3002B52D071467118D30FC01802D36F
:10722000491C05B0F0BD0123DB079A42F9D14008A3
:107230004000F6E701225205B21801D1002853D0D0
:107240000123CC0ADB029943891E002A08D1020CD3
:1072500003D0020C0004103902E00246002020395D
:107260000023550B05D112020823550B01D1520101
:107270000D23550C01D112011B1DD50C01D192001B
:107280009B1C150D01D152005B1C2025EE1A01E05C
:107290002CE022E00546F54015439840CA1AE10764
:1072A00069181305C918002ABBDA0320400708181B
:1072B000C10FC9070FE071466118B2E7F107400836
:1072C0000843711071444A000CD001235B059A42B7
:1072D000A7D2C90FC9070020A3E74905490D26D148
:1072E000002001E00028F4D100219AE7284D660033
:1072F000002801D0012100E0002171185F00002A60
:1073000001D0012600E00026BE19224FA94210D864
:10731000AE420ED8B14208D001256D05E94206D033
:107320001946A802414010467BE79C4201D0214605
:1073300077E70020394674E710B50C465C4005D568
:107340000124E4076340FFF70CFF10BDFFF778FE50
:1073500010BD30B40C465C4004D50124E407634002
:1073600030BC6DE630BCFCE670B50124E40761403A
:107370000D465D4002D4FFF763FE70BD6340FFF72A
:10738000F0FE70BDFF0700000000F0FF0000F07F7E
:107390000000E0FF0000F87FF0B5F94D0C091E0970
:1073A0002C402E402F468BB0A7437DD0B543FCD058
:1073B000002E7AD0002CFCD00D465D40ED0F254309
:1073C000AC1BFF25AD0464190894C502440DC90225
:1073D0002143500DDC0204430120C0070143044354
:1073E000D2020191200C110C00958C460104234619
:1073F0008B430A9161460904E24D8A430991010ACF
:107400007D4449198039097805464D4301266D1898
:10741000F605751B6943C90C640B891C4C43641841
:10742000B5012C1B250C2E04B4434C434D43210CB9
:10743000691889090591009DE90701D00121C90753
:1074400004912C4601996708CD072F434C08059DF0
:10745000E10B4D432D0C29466646754302950D46BA
:1074600045432E46029D7D1BB44100950D465D436C
:1074700001942C0C2F040D465543AE462D0C3D4374
:10748000029503947546049C2D04641B049406D253
:10749000029C039D641C002675410395029401AC77
:1074A00070CC009F7D1B01E03EE162E1B441090424
:1074B0000095079101940599A4086143090C0C46B5
:1074C0004443650BE7040C4666467443A646640BCA
:1074D0003C43039502947446049DE4042C1B0494DD
:1074E00006D2029C039D641C0026754103950294FC
:1074F00001AC70CC009F7D1BB44101940C465C43F1
:107500000095650FE7000C465443A646640F3C43C4
:10751000039502947446049DE4002C1B049406D247
:10752000029C039D641C002675410395029401ACE6
:1075300070CC009F7D1BB441AE09AF06049DC9000D
:10754000AD092F43049DA406AD060495079D344361
:1075500069180791059DE10B4D432D0C29466646A0
:10756000754302950D4645432E46029D7D1BB44151
:1075700000950D465D4301942C0C2F040D46554398
:10758000AE462D0C3D43029503947546049C2D0494
:10759000641B049406D2029C039D641C0026754162
:1075A0000395029401AC70CC009F7D1BB441019403
:1075B0008C050694079C890A611800950791019C27
:1075C0000599A4086143090C0D464543680BEF0477
:1075D0000D46644665436C0B3C43049FED047D1BE4
:1075E000AC4602D20025641C6841009E019D371BF9
:1075F00085410846584301950C46460FC500544343
:10760000600F28436546E4002C1B02D20025401C75
:107610006E41019D3F1AB5412846BD0980062843A9
:107620008446A009BF064E020699A40676180743B1
:10763000079D002068410A99079019430020099B83
:1076400000906046FF1913434041E20F64003A4343
:10765000A4460446D71A8C41A04203D901200090C9
:1076600020463A46C70F941840416246D20F224343
:10767000644664000494009CBE466400D71AA44685
:10768000044602978C417746002F01D1A04204D9CD
:107690006046401C8446029A2046C40FA6469418B1
:1076A0004041049A0546D20F224364466400D31A2F
:1076B0008D417146002901D1A84202D928461A46B7
:1076C000641C10430122002800D0164361020020F0
:1076D000079B891904465C410223002C02DB4918F0
:1076E00013466441089DCE0A2D145D194B056705AC
:1076F000E10A2C050D1908993E43C9076940002B82
:1077000008D0934006D30022761C5141002B01D1B2
:10771000760876001C4A002D43DB154241D0AA436F
:107720003FD030460BB0F0BD06180D464D41174C0A
:107730007642AC411AD395181C465C41134A6D42FF
:10774000A24113D3012252054C00D4420AD15C005D
:10775000D4420BD04B4002D592021143E2E74900DC
:107760004908DFE75940C90FC90718E00020084958
:10777000D8E7054801420DD10342F7D0F2E70000F7
:107780000000FF07732600000000F07F0000E0FF0C
:107790000000F87F114859400143C01241400020C9
:1077A000C0E70123089A9B069A4205DC0322520790
:1077B0008918C90FC907B5E7052252078918074A72
:1077C0001143D2125140ADE770B515461C46024632
:1077D0000B4628462146FFF7DFFD70BDFFFFFF7F08
:1077E0000346CA02400D10B510430A1504D0012407
:1077F000E4072043002A05DB0A4CA21A04D4D04037
:10780000FF2A00DD002010BD4A00002B01D001201E
:1078100000E00020101801225205D042F2D8C8170B
:10782000C04310BD1E0400001F22030C02D10F2212
:10783000000402D0030E03D004E00020014670478C
:107840000002083A030F01D10001121F830F01D17A
:107850008000921E002801DB4000521E12055118C4
:107860004205C012411810467047C10FC90700D029
:107870004042012292071143D6E701218907D3E74D
:10788000F0B58B4C0F09254689B0BD437BD01D094F
:107890002646AE43FAD00E465E402740F60F3E43E2
:1078A000254071D024012142FBD0FF24AD19A4044E
:1078B0002D1B039501252D05DB02DB0AC9022B4395
:1078C000C90A29431E010901040F130F05012143B1
:1078D0001701880B820391432D098C46A90B1E4387
:1078E0008A039543B30B9A0396433F09BA0B94035B
:1078F000A74302962E467E430497B6464E19D719E3
:107900000C460196544305977E43371B7646BF1BB2
:107910003601B646BE0B361900967646BC043719BA
:10792000009C01D3641C00946400002F01D0012648
:107930003443029E049F754366467E430496760058
:1079400034196E0034190094029C019E1C19664380
:10795000751BAE46069465464519059C05956C4316
:10796000594375460891691A0191049E0146514395
:10797000A41B0491611A009C0791E10605D06109DE
:107980000122114302E072E06EE06109089D0027C8
:107990002C0A2D066918049D7C412A0A2D066918B7
:1079A000019D6241AC0DAD026D185441079A910DD5
:1079B000920255196141029A644658435443069B0A
:1079C000059A5A43121A131B9A0E9B015B187A41AF
:1079D000010B0005C3185141220A200644195A41DF
:1079E0009A4200D2491C01204002814203D3152350
:1079F0000226F64302E014230326F6432020C51A8C
:107A0000A9401746AF40DA400A4320460399D840C0
:107A10000914731819055118039A3843D2075140B5
:107A2000AC4009D00122944006D30022401C5141B1
:107A3000002C01D1400840001E4A934212D301227B
:107A400003989206904207DB0520400709181A4860
:107A50000143C012414004E0032040070818C10F51
:107A6000C907002009B0F0BD0020F107FAE70518AA
:107A70000C464C4111486D42A04115D394181A464A
:107A80005A410E48644290410ED301204A004005FD
:107A9000824209D35A00824206D35940C90F084A8C
:107AA000C90700201143DDE700200649DAE700009E
:107AB0000000FF07FE070000FFFFFF7F0000E0FF60
:107AC0000000F07F0000F87F0121C9050123411863
:107AD00042001B06D3185B0E0AD0C1100722D20643
:107AE000891840075242D14201D552008918704787
:107AF000090208D50146002A03D0C10FC90700209A
:107B0000704710467047420202D000200249704779
:107B1000072109050143F4E70000F87F1F22030C49
:107B200002D10F2200041CD0030E01D10002083A3A
:107B3000030F01D10001121F830F01D18000921E9B
:107B4000002801DB4000521ED205511802125118C4
:107B50001922904004D3491C002801D1490849004A
:107B600008467047C10FC90700D040420122920762
:107B70001143D3E701218907D0E770B50446856931
:107B80000068C10601D5302600E02026C00707D0D6
:107B900070BD62683046A1689047206A401C206230
:107BA0006D1EF6D570BD70B5044685690078C007B6
:107BB00007D170BD6268A16820209047206A401CF0
:107BC00020626D1EF6D570BD09684A0501D540B228
:107BD0007047C905FCD500B2704709684A0501D550
:107BE000C0B27047C905FCD580B2704770B50C466D
:107BF0000546012A05D02878800600D5EA690023C9
:107C000002E0012305E05B1C934202D2E05C002805
:107C1000F9D1A869E618C01AA861286AC0182862B4
:107C20002846FFF7AAFF04E06A682078A968641C68
:107C30009047B442F8D32846FFF7B5FF70BD000067
:107C4000F7B5002575291068009914A611D0FFF723
:107C5000BBFF002802DA404211A608E0009909683B
:107C60008A0701D50FA602E0490704D50EA6012513
:107C700001E0FFF7B2FF009F0024243704E000F08A
:107C800015FD30313955641C0028F8D12B46324699
:107C90002146009800F057FAFEBD000000000000E9
:107CA0002D0000002B000000200000001168026879
:107CB000006A530501D5087009E0D30501D5088095
:107CC00005E0130602D5C21705C100E008600120D7
:107CD0007047000001694A1C02610878704700B5CE
:107CE0008FB00291002105910549019379440391D8
:107CF00011460490684600F025F90FB000BD000061
:107D0000E5FFFFFF0A681070521C0A607047000010
:107D1000F7B50446154686B02B487844002703C8BB
:107D20003E460090019111E007986A467100415A61
:107D300002A800F09BFC411C07D02178890603D5DE
:107D4000E269391891420ED83F18761C20788006D7
:107D500002D5E069B84206DDAE42E5DB0798710066
:107D6000405A0028E0D1A069C01BA0612046FFF75F
:107D700004FF154878445A3803C800900020019148
:107D800016E041006A460798415A02A800F06EFCCE
:107D90000590401C0AD0002505E0626802A8A16891
:107DA000405D90476D1C05988542F6D30498401CB1
:107DB000B0420490E5DB206AC01920622046FFF73C
:107DC000F2FE09B0F0BD0000DA1D0000F7B5D21DCB
:107DD0000025D20815A6D200F52905CA11D0002A1F
:107DE00005DA00214042914111A60A4608E00099B7
:107DF00009688B0701D50FA602E0490701D50EA639
:107E000001251146009F0024243704E000F05EF9AC
:107E100030323A55641C02460A43F7D12B463246AB
:107E20002146009800F08FF9FEBD00000000000020
:107E30002D0000002B0000002000000070B504465B
:107E40000021243408E05507D2086D0F3035655401
:107E50005D072A43DB08491C15461D43F3D104681E
:107E6000002310A2250708D5A40601D4002904D0B8
:107E7000C46901230CA2641EC46100F064F970BDE2
:107E800010B5044621461068FFF7A7FE00230246FE
:107E90002046FFF7D3FF10BDD21DD108C9000CC981
:107EA000CCE700000000000030000000F8B50F46ED
:107EB0000188090502D5224C7C4402E0204C7C4418
:107EC0000E3405460021243508E016071209360F46
:107ED000A65D6E541E0732431B09491C16461E43FD
:107EE000F3D1224604780023240705D5702F06D04D
:107EF000002901D00223113200F025F9F8BD012339
:107F00001032F9E770B504460D4621461068FFF7B8
:107F100064FE0023024629462046FFF7C7FF70BDD6
:107F2000D21DD308DB000CCBC0E730B4036820249B
:107F30001268234303600823C36130BC0023B5E704
:107F4000441C0000F3B50446002081B020622046A6
:107F5000E1688847002872D0252802D06268A168AD
:107F6000ABE0594F00267F442046E168884720282F
:107F7000054608DB312D06D2781920380078002814
:107F800001D00643F0E7B00701D504208643002066
:107F9000E0610746A0612A2D0AD0284600F0F0FFD4
:107FA000002827D0B8000019303D0090856119E005
:107FB0000298BA00121902C8916102902046E16845
:107FC0008847012F054617D1E06900281FDA2020D5
:107FD00086431CE000980A218069484300994019B3
:107FE000303888612046E1688847054600F0C8FFC0
:107FF0000028EFD1012F0AD02E2D08D12046E168AC
:1080000088470546202006437F1C022FC3DBA0695A
:10801000002803DA4042A06101200643F00701D0A6
:10802000102086436C2D0BD0682D09D04C2D3CD0F0
:108030006A2D38D0742D38D07A2D36D016E040E035
:10804000E1682F4620468847B842054609D16C2F83
:1080500029D001208002E168064320468847054672
:1080600004E06C2F1DD0FF2001300643002D28D0E6
:1080700028464138192803D80120C002064320357C
:10808000204626602946029A1646F8F757F8002837
:1080900010D001280BD0F61DF008C0000830029067
:1080A00055E74020E1E78020D5E70020D3E7361DE3
:1080B00002964CE762682846A1689047206A401CF7
:1080C00044E7206AFEBD0000BE1B00000B4670B5F1
:1080D000024689078008084319469D08141AA941D9
:1080E00025090807054308092C194841250A0106F6
:1080F0000D43010A2C194141200C0D0428430D0C9D
:1081000000194D41002140194D41C008690708433D
:10811000E908840F8D002543840024184D4124195B
:108120006D41121BAB4107E00925ED432C1152199B
:1081300063410024401C61411C460A250026551B52
:10814000B441F1D270BDFFB504460D4681B0243074
:1081500000902168880604D51022E06991432160CF
:1081600000E00120A84201DD471B00E00027049841
:10817000A1697A191018081AA0612078C00602D4E3
:108180002046FFF7FAFC002608E003986268A16821
:10819000805D9047206A401C761C206204988642CD
:1081A000F3DB2078C0060AD52046FFF7E6FC06E0A0
:1081B0006268A16830209047206A401C20623846DF
:1081C0007F1E0028F4DC07E000986268A168405D2B
:1081D0009047206A401C206228466D1E0028F3DC70
:1081E0002046FFF7E0FC2078000602D5022005B00B
:1081F000F0BD0120FBE700007047FFB50C461E46AE
:108200008FB003CA089009914F007D0D00D16D1EFB
:10821000002108460020C0460321099A890508402C
:10822000002A03DA8200801840080840800D0128E7
:108230000A9002DD0020C0430A90089807430DD041
:10824000F048F149281848430714189800281DD011
:108250007542291E1DDD0A9842421BE0189801282C
:1082600002D00020302104E00020F24305E0215438
:10827000401CB042FBDB30460022189B00212154F9
:108280000F998B600A60486013B0F0BDBD1B6D1C78
:10829000DFE70A9A002900DA69420BA800F08AFA9F
:1082A0000BAB07CB03AB07C30899099800F0EEFAB4
:1082B0006B4607C30146D5480918002D00910BDD18
:1082C000D24903980A9A49424018002303A903900F
:1082D000684600F04BFD08E003990A9A002308184D
:1082E00003A90390684600F0EBFC6B4607C300044B
:1082F000000C03D00020C043410800E01046189A4B
:10830000002A03D00022009215461EE0751E05D4F7
:10831000FFF7DCFE303262556D1EF9D501220843AD
:10832000079602D000227F1C04E02078302801D17B
:1083300000227F1E002A069787D01EE0112D07DA43
:10834000FFF7C4FE303262556D1C02460A43F5D178
:10835000084303D00098002819D00EE00021681EC1
:1083600005E0235C625C63542254401E491C814238
:10837000F7DBA81B401E07950690079A1899002066
:10838000A0540F98079B069A81600CC07CE71126C9
:108390000020189059E7D21DF0B50D460446D108CB
:1083A00093B0C90003C90C900D9100F0D3FD0246B3
:1083B0000D98C00F01D02D2007E02068810701D55E
:1083C0002B2002E04007C00F4001032A0F9001D08C
:1083D000072A05DB03462946204600F0A7F90EE1EF
:1083E0002078800601D5E76900E006272846652D3C
:1083F00004D0662814D0672D69D12DE00020112FFC
:10840000009001DB112300E07B1C0CAA03A910A83B
:10841000FFF7F3FE1199002610987D1C0E9142E0A3
:1084200001203B460CAAC0070B900120009003A935
:1084300010A8FFF7E2FE119D12981099002600285F
:108440000E9501D1781C0D18781B02D446427D1C74
:10845000761EE81B00903AE0012F00DA0127002089
:10846000112F009001DD112300E03B460CAA03A967
:1084700010A8FFF7C2FE11993D46109800260E91F4
:10848000217809070BD40E99A94200DA0D4603A9F9
:10849000012D04DD4A19203AD27F302A06D0B84295
:1084A00001DA011D04DA012100910FE06D1EEFE7F2
:1084B000002802DC86192D1A03E0411CA94200DDC8
:1084C0000D46801B401C00900120C0070B902078B7
:1084D000000705D40098A84202DB0020C0430090AA
:1084E00069460020C8720B98012102AF0337C90703
:1084F000884225D0022010902B2011900B98002844
:108500000BDA40420B902D20119006E00B9800F002
:10851000CDF830317F1E0B9039701099481E00291C
:108520001090F3DC0B980028F0D111987F1E387062
:108530002088000501D5452000E065207F1E3870A9
:1085400001A8C01BC01D0B900F98002800D001206F
:1085500041190098C01709180B980818A169081A42
:10856000401EA0612078C00602D42046FFF705FB1C
:108570000F98002805D06268A1689047206A401CC7
:1085800020622078C00625D52046FFF7F6FA21E0C4
:10859000002E07DB0E98B04204DD03A86268805D00
:1085A000A16802E06268A16830209047206A761CCA
:1085B000401C20620098401E002800900AD100F064
:1085C000B1F8C06862680168405CA1689047206AA1
:1085D000401C206228466D1E0028D9DC07E0626836
:1085E0003878A1687F1C9047206A401C20620B9954
:1085F000481E00290B90F2DC2046FFF7D4FA032036
:1086000042E6000001FCFFFF104D0000E1DFFFFF2C
:1086100010B54369002B02D0C046C04601E0FFF709
:10862000E5FA012010BD1278014624310A700022BB
:108630004A700122ECE711680022D243E8E710B546
:108640004369002B02D0C046C04601E0FFF760FB43
:10865000012010BD12880146243182840022C28488
:108660000122ECE711680022D243E8E770B5164614
:108670000C46054600F04EF80368FF200230C05C4F
:10868000012807D0FF2C0ED8185D00280BD0012040
:108690002C7070BDFF333246214608331868C3186A
:1086A0002846984770BD0020C04370BD0146800831
:1086B000081A02091018020A1018020C1018C00833
:1086C000820012185200891A01E0401C0A390A2956
:1086D000FBD27047754600F0A1FBAE460500694627
:1086E0005346C008C000854618B020B5F9F74CFCC9
:1086F00060BC00274908B6460026C0C5C0C5C0C535
:10870000C0C5C0C5C0C5C0C5C0C5403D49008D4637
:108710007047000010B500F005F8001D10BD00BF47
:108720009D08000000487047201B0020F8B51F4638
:10873000044601230068DB02032601461840072A8D
:1087400005DB002801D017A506E017A504E00028E6
:1087500001D016A500E016A5102081432160A06974
:10876000C01E002FA06101D0401EA0612046FFF76F
:1087700004FA002F09D038466268A1689047206A41
:10878000401C2062C01C206206E0206AFAE7626892
:108790002878A1686D1C9047761EF8D22046FFF716
:1087A00002FAF8BD4E414E006E616E00494E460021
:1087B000696E6600F7B516468AB0334878446C4651
:1087C00003467C33C06F5A689B680DC42E487844BA
:1087D000763003AC0DC80DC43720C001081837210E
:1087E0001B30FEF786FB05460C46803D1B3C02D540
:1087F0006442012000E000200027099010E0E0071B
:108800000CD00C2020497843794432464C39411829
:108810006846012300F054FA6B4607C364107F1CBE
:10882000002CECD1184F7F442E3F16E0E80712D001
:108830002001C0190EC80691089307920068F04203
:1088400001D1981908903246012306A903A800F027
:1088500037FA03AB07C36D10641C002DE6D10998ED
:10886000002806D032466946012303A800F07EFAAC
:1088700005E001233246694603A800F021FA0A9B6D
:1088800007C30DB0F0BD00007C130000034640009C
:108890000A4610B5400D0BD00121C9070F24A402D0
:1088A00000191C0364082143540D2143D20207E040
:1088B00000210120F2E7D40F490021435200401E5D
:1088C0000029F8DADB0FDB07184310BDFFB50D46B2
:1088D000144685B04868516800F016FB009101907D
:1088E000A868A16800F010FB02910390A868616875
:1088F00000F00AFB029A12188242029201D2012071
:1089000000E00020019A0B18D2180028019202D032
:108910008A4202D903E08A4201D2012000E000200D
:108920000099081800906868A16800F0EDFA029AB2
:1089300012188242029201D2012000E00020019A26
:108940000B18D2180028019202D08A4202D903E003
:108950008A4201D2012000E000200099081800900E
:108960002868216840004900400849084018FA4931
:10897000471814E001994000C90F0843009001987E
:1089800002994000C90F08430190029803994000E2
:10899000C90F08430290039840007F1E039000987F
:1089A0000028E7DA0898002801D0EC4E00E0002605
:1089B000B74201DA012000E00020002804902AD00C
:1089C000F71BF806C00E15D0029B2021091A039A46
:1089D0008B401A430392029A019BC2408B401A4378
:1089E0000292019A009BC2408B4000991A43019267
:1089F000C14000917B110DD06F460320C11A03D5F1
:108A000000218200B95003E08A008100BA587A50F0
:108A1000401EF3D5374603980299002800D0012064
:108A2000014308980291002808460CD0002800D085
:108A300001200199019A490508430121D20AC9027E
:108A4000D202019200E001210E9B0122D207012BEC
:108A500002D0002B03D013E0002807D120E0904281
:108A600004D890420CD1019B0B4209D0019B5918AC
:108A7000019105D10099491C009101D17F1C009200
:108A800000280DD0102108460020C0460498002878
:108A900006D00F98002803D0082108460020C046C1
:108AA00028682168019B009A4840C10F0598C907B2
:108AB00039430EC009B0F0BDFFB587B0099A0898D8
:108AC0000899536892684068896896460022039323
:108AD00017469446089A12685300099A5B08126870
:108AE000520052089A1A9E4BD4180A9A002A01D0B2
:108AF000352200E04022069200220123154604920E
:108B0000DB07059324E0002D05D175460346039E3F
:108B10004D1BB34109D375466646039B491B049D13
:108B20009841059B7519AC465F4163463B4308D0AD
:108B3000059B049EDD0776082E435B08049605938B
:108B400001E0521E641EC50FED0749184041521C3A
:108B5000069B9A42D7DB002D04D17546039A6B1A07
:108B6000824101D203200CE0039A0B466B40424045
:108B7000134303D0014303D0012002E0022000E0B0
:108B80000020614601910021009702910A99002975
:108B900005D0614640020143704B019102E080071D
:108BA000002302909C4201DA012000E0002007002F
:108BB0003AD01A1BD006C00E15D0029D2021019C70
:108BC000091AC5408C402543029C8C4000D00124EA
:108BD0002543019C0295009DC4408D4000992C4383
:108BE0000194C140009154111DD06D460221002214
:108BF00002290CD10320001B07E0002804DB8600BB
:108C0000AE59002E00D00122401C0328F5DB081BC2
:108C100002D588002A5004E08000285810438A00BA
:108C2000A850491EE3D51C460A98002802980CD08B
:108C3000002800D001200199019A4905084301212B
:108C4000D20AC902D202019200E00121109B012246
:108C5000D207012B02D0002B03D013E0002807D14C
:108C60001FE0904204D890420CD1019B0B4209D0E6
:108C7000019B5918019105D10099491C009101D11E
:108C8000641C009200280CD0102108460020C04629
:108C9000002F06D01198002803D008210846002094
:108CA000C04608980999019A009B006809684840E5
:108CB000C10F0798C907214382600AC00BB0F0BDFD
:108CC00000B585B0019300920A460146002302A830
:108CD000FFF7FCFD02A807C805B000BDFFB50A46B6
:108CE0001F4685B00799019301230091014602A810
:108CF000FFF7ECFD02990398049ECA0F4900D207C2
:108D000000920F22490892028C1A0021002800DBF1
:108D10000C46450013486D08844214D3079A002A74
:108D200004DA441E0026104DF64302E004460D46C8
:108D30000E46102108460020C046002F03D0042113
:108D400008460020C0462005E90A08430099084368
:108D50006905F20A1143ADE602C0FFFF013C0000C5
:108D6000FF3F0000FF070000FFFFFF7F00B585B059
:108D7000019300920A460146002302A8FFF79CFED9
:108D800002A807C8A8E7FFB50A461F4685B007999D
:108D9000019301230091014602A8FFF78DFE02997D
:108DA0000398049ECA0F4900D20700920F22490877
:108DB00092028C1A0021002800DB0C464500114865
:108DC0006D08844214D3079A002A04DA441E002650
:108DD0000D4DF64302E004460D460E4610210846AE
:108DE0000020C046002F03D0042108460020C046C2
:108DF0002005E90A0843009908436905F20A11436E
:108E000058E60000FF070000FFFFFF7F10B5044693
:108E1000C046C0462046F7F71DFA10BD004870470F
:108E2000001B0020024670B50A4392072AD11E4D4E
:108E3000EE0104C808C9541B9443344017D0D0B283
:108E4000D9B2401A2106014310D190B299B2401A0A
:108E5000210401430AD110021902000A090A401A2A
:108E60002102014302D1100E190E401A70BD9A4220
:108E7000DFD010BA19BA884201D9012070BD002094
:108E8000C04370BD02780B78401C491C002A09D0F1
:108E90009A4207D102780B78401C491C002A01D065
:108EA0009A42EFD0D01A70BD01010101014918208A
:108EB000ABBEFEE7260002007047000010B5104B65
:108EC000002A03D0DC7E6406640EDC7600BF30BF6F
:108ED000401EFDD20028FBDC0028F9DC002A03D06C
:108EE000D87E80221043D876002907D00548016932
:108EF0000122114301610169C903FCD510BD0000C5
:108F00006010005000E000E0F8B5040C8BB226467B
:108F100082B25E43104658430D0C370C36040021D4
:108F20008019164679416E43370C3604801926465F
:108F300079416E438919F8BD30B47446641E2578B2
:108F4000641CAB4200D21D46635D5B00E31830BC7D
:108F5000184700004900CA020243100000D0042054
:108F60004A0D01D001221043044A490D914201D11A
:108F700002210843012800D105207047FF070000A7
:108F800030380A2801D201207047002070470000C5
:108F900010B500290AD00878002807D00548784481
:108FA000FFF740FF002801D0002010BD02487844A0
:108FB00010BD0000520C00004A0C000010B5002942
:108FC0000AD00878002807D005487844FFF72AFF20
:108FD000002801D0002010BD0248784410BD0000D8
:108FE000420C00003A0C000070B501250400ED07AA
:108FF0004C4020D4441A01D2001B0919C60D4B0065
:10900000F2B2FF2A29D01B0E2CD000020C02D31A78
:109010002C43DC402843051910D2280A02D3401CF7
:109020006D0611D0761EF6058019FF2A00DA70BD94
:10903000C00DC00570BD694000F022F80120054355
:10904000C541521C761CE8E764089C40C901614098
:109050008900E7D10124A043E4E71B0E440200D0BD
:10906000034870BD002AFCD1C00FC00770BD00BF0F
:109070000000C07F70B501250400ED074C4022D4EC
:10908000441A02D26C40001B0919C60D4B00F2B203
:10909000FF2A4BD01B0E50D000020C02D31A2C43D7
:1090A000DC40A843051B05D5AD0019D36D08761E1D
:1090B000521E37D0F605280A01D2801970BD7041C2
:1090C0006D0603D070BD6940FFF794FF9C40090214
:1090D0006140490001D0401E70BD0124A04370BD15
:1090E0006D081DD001202B0C01D12D0410302B0E4A
:1090F00001D12D0208302B0F01D12D01001DAB0F26
:1091000001D1AD00801CEB0F01D16D00401C6D0042
:10911000361A121A680AF5054019012A02DB70BDD9
:10912000002070BDC036300AC00770BD1B0E44025F
:1091300001D1FF2B00D1024870BD002AF0D070BDD4
:109140000000C07F03B402487844844603BC6047F3
:109150004BF2FFFF03010003001F00200000000F7F
:1091600018192A260027000000E7FEC8FE2C002D53
:109170000000000AFFFF0000FFFFFFFF00000901E1
:109180000000280700001809080000280B0001183B
:10919000090C0000281A000A18091B0000282000EA
:1091A00001000921000028230000FF0924000028F5
:1091B00027000F180928000028FFFFE7FE0A020019
:1091C00003280A0300002A0A0400032802050001FC
:1091D0002A0A06000328020700042A0A09000328B5
:1091E000020A00052A0A0D000328020E00292A0A95
:1091F0000F000328021000242A0A1100032802127B
:1092000000252A0A13000328021400272A0A150041
:109210000328021600262A0A17000328021800282D
:109220002A0A19000328021A00502A0A1C000328DF
:10923000081D0002000A1E000328101F0003000A78
:10924000220003280E230001FF0A2500032812260E
:1092500000192A0A29000328082A00C7FE0A2B0041
:109260000328222C00C8FE0A2E000328022F00C962
:10927000FE0AFFFF000000FFFF00001400030010C3
:10928000002A53594420424C45204D6F757365099F
:1092900000050010012AC2030F00070010042A066F
:1092A000000600300064000B000A0010052A0000D0
:1092B000000009000B0010022900000A000E001037
:1092C000292A5359441400100010242A424C452DD9
:1092D0004D4F44454C2D3030310E00120010252AE0
:1092E000424C452D3030310A00140010272A312E0F
:1092F000300A00160010262A312E300A00180010FD
:10930000282A312E300E001A0010502A023A095431
:109310004201001C001D00100200000000000000BF
:109320000000000000000000000000000000001C21
:10933000001F0010030000000000000000000000FB
:1093400000000000000000000000000900200010E4
:10935000022900001C0023001001FF000000000093
:1093600000000000000000000000000000000000FD
:109370000800260010192A6409002700100229009D
:10938000001C002A0010C7FE0000000000000000C2
:10939000000000000000000000000000001C002C85
:1093A0000010C8FE000000000000000000000000E7
:1093B00000000000000000000009002D001002293C
:1093C00000001C002F0010C9FE000000000000007B
:1093D0000000000000000000000000000000FFFF8F
:1093E000FFFF000000000000963007772C610EEEB2
:1093F000BA51099919C46D078FF46A7035A563E9EC
:10940000A395649E3288DB0EA4B8DC791EE9D5E012
:1094100088D9D2972B4CB609BD7CB17E072DB8E711
:10942000911DBF906410B71DF220B06A4871B9F366
:10943000DE41BE847DD4DA1AEBE4DD6D51B5D4F49F
:10944000C785D38356986C13C0A86B647AF962FD04
:10945000ECC9658A4F5C0114D96C0663633D0FFA51
:10946000F50D088DC8206E3B5E10694CE44160D557
:10947000727167A2D1E4033C47D4044BFD850DD241
:109480006BB50AA5FAA8B5356C98B242D6C9BBDB54
:1094900040F9BCACE36CD832755CDF45CF0DD6DC4F
:1094A000593DD1ABAC30D9263A00DE518051D7C8F6
:1094B0001661D0BFB5F4B42123C4B3569995BACF81
:1094C0000FA5BDB89EB802280888055FB2D90CC6A2
:1094D00024E90BB1877C6F2F114C6858AB1D61C11B
:1094E0003D2D66B69041DC760671DB01BC20D2983A
:1094F0002A10D5EF8985B1711FB5B606A5E4BF9FC7
:1095000033D4B8E8A2C9077834F9000F8EA80996B9
:1095100018980EE1BB0D6A7F2D3D6D08976C649124
:10952000015C63E6F4516B6B62616C1CD83065853D
:109530004E0062F2ED95066C7BA5011BC1F408821A
:1095400057C40FF5C6D9B06550E9B712EAB8BE8B5B
:109550007C88B9FCDF1DDD62492DDA15F37CD38CE4
:10956000654CD4FB5861B24DCE51B53A7400BCA3E2
:10957000E230BBD441A5DF4AD795D83D6DC4D1A414
:10958000FBF4D6D36AE96943FCD96E34468867ADEB
:10959000D0B860DA732D0444E51D03335F4C0AAA8A
:1095A000C97C0DDD3C710550AA41022710100BBE8D
:1095B00086200CC925B56857B3856F2009D466B9D4
:1095C0009FE461CE0EF9DE5E98C9D9292298D0B009
:1095D000B4A8D7C7173DB359810DB42E3B5CBDB7B6
:1095E000AD6CBAC02083B8EDB6B3BF9A0CE2B60337
:1095F0009AD2B1743947D5EAAF77D29D1526DB04EC
:109600008316DC73120B63E3843B64943E6A6D0D36
:10961000A85A6A7A0BCF0EE49DFF099327AE000A81
:10962000B19E077D44930FF0D2A3088768F2011E14
:10963000FEC206695D5762F7CB67658071366C19AB
:10964000E7066B6E761BD4FEE02BD3895A7ADA10CC
:10965000CC4ADD676FDFB9F9F9EFBE8E43BEB717AD
:10966000D58EB060E8A3D6D67E93D1A1C4C2D83837
:1096700052F2DF4FF167BBD16757BCA6DD06B53F9D
:109680004B36B248DA2B0DD84C1B0AAFF64A0336DC
:10969000607A0441C3EF60DF55DF67A8EF8E6E315B
:1096A00079BE69468CB361CB1A8366BCA0D26F25A4
:1096B00036E2685295770CCC03470BBBB9160222F1
:1096C0002F260555BE3BBAC5280BBDB2925AB42B06
:1096D000046AB35CA7FFD7C231CFD0B58B9ED92C1B
:1096E0001DAEDE5BB0C2649B26F263EC9CA36A7580
:1096F0000A936D02A906099C3F360EEB8567077237
:1097000013570005824ABF95147AB8E2AE2BB17B9D
:10971000381BB60C9B8ED2920DBED5E5B7EFDC7C24
:1097200021DFDB0BD4D2D38642E2D4F1F8B3DD687B
:109730006E83DA1FCD16BE815B26B9F6E177B06F76
:109740007747B718E65A0888706A0FFFCA3B066663
:109750005C0B0111FF9E658F69AE62F8D3FF6B61F0
:1097600045CF6C1678E20AA0EED20DD75483044E92
:10977000C2B30339612667A7F71660D04D47694920
:10978000DB776E3E4A6AD1AEDC5AD6D9660BDF4033
:10979000F03BD83753AEBCA9C59EBBDE7FCFB247E6
:1097A000E9FFB5301CF2BDBD8AC2BACA3093B353CB
:1097B000A6A3B4240536D0BA9306D7CD2957DE54D4
:1097C000BF67D9232E7A66B3B84A61C4021B685DAD
:1097D000942B6F2A37BE0BB4A18E0CC31BDF055A26
:1097E0008DEF022D1010401040101040104020202E
:1097F00020102010101010102020401020101040B9
:1098000010401088401088202020102010101010C8
:109810001020884010880C0802170D0101FB09096F
:1098200001010602091818030101090903030500D3
:109830000700070011001100020011000B001100C9
:10984000080011000200410011000200C9090000D7
:10985000E5040000730200003A01000090020000DD
:1098600048010000A400000052000000637C777BE8
:10987000F26B6FC53001672BFED7AB76CA82C97D0C
:10988000FA5947F0ADD4A2AF9CA472C0B7FD93269D
:10989000363FF7CC34A5E5F171D8311504C723C3A1
:1098A0001896059A071280E2EB27B27509832C1AE5
:1098B0001B6E5AA0523BD6B329E32F8453D100ED3F
:1098C00020FCB15B6ACBBE394A4C58CFD0EFAAFB23
:1098D000434D338545F9027F503C9FA851A3408FEB
:1098E000929D38F5BCB6DA2110FFF3D2CD0C13EC03
:1098F0005F974417C4A77E3D645D197360814FDC98
:10990000222A908846EEB814DE5E0BDBE0323A0A7B
:109910004906245CC2D3AC629195E479E7C8376DFF
:109920008DD54EA96C56F4EA657AAE08BA78252E24
:109930001CA6B4C6E8DD741F4BBD8B8A703EB566AD
:109940004803F60E613557B986C11D9EE1F898119E
:1099500069D98E949B1E87E9CE5528DF8CA1890D8D
:10996000BFE6426841992D0FB054BB1652096AD523
:109970003036A538BF40A39E81F3D7FB7CE3398204
:109980009B2FFF87348E4344C4DEE9CB547B943253
:10999000A6C2233DEE4C950B42FAC34E082EA1669B
:1099A00028D924B2765BA2496D8BD12572F8F66472
:1099B00086689816D4A45CCC5D65B6926C704850ED
:1099C000FDEDB9DA5E154657A78D9D8490D8AB00A2
:1099D0008CBCD30AF7E45805B8B34506D02C1E8FCB
:1099E000CA3F0F02C1AFBD0301138A6B3A91114107
:1099F0004F67DCEA97F2CFCEF0B4E67396AC7422F0
:109A0000E7AD3585E2F937E81C75DF6E47F11A716D
:109A10001D29C5896FB7620EAA18BE1BFC563E4BA6
:109A2000C6D279209ADBC0FE78CD5AF41FDDA83368
:109A30008807C731B11210592780EC5F60517FA9A8
:109A400019B54A0D2DE57A9F93C99CEFA0E03B4DD7
:109A5000AE2AF5B0C8EBBB3C83539961172B047E4B
:109A6000BA77D626E169146355210C7D8D01020475
:109A700008102040801B3680807F7E7D7C7B7A7939
:109A800078777676757473727171706F6E6E6D6CB7
:109A90006C6B6A6A6968686766666564646363625A
:109AA000616160605F5F5E5E5D5D5C5C5B5B5A5ADE
:109AB000595958585757565655555554545353524B
:109AC000525251515050504F4F4F4E4E4D4D4D4CA4
:109AD0004C4C4B4B4B4A4A4A4949494848484747EE
:109AE000474746464645454544444444434343432B
:109AF000424242424141410000000000000000009B
:109B000030313233343536373839414243444546B3
:109B100040305800303132333435363738396162AD
:109B200063646566403078000400000800000000AF
:109B300000000002000100001000000002400000D0
:109B4000000000A00000000005400000000000C868
:109B5000000000000C4000000000409C00000000DD
:109B6000194000000020BCBE00000000344000008E
:109B7000BFC91B8E00000004B5400000504BCFD081
:109B80006607E2CF010000006C4100003E8251AA4E
:109B9000DFEEA73401000000D9420000DCB5A0E2EE
:109BA0003A301F97FFFFFFFFB4450000FD25A0C816
:109BB000E9A3C14FFFFFFFFFFF3F0000000000804F
:109BC00000000000FF3F00000000008000000000D7
:109BD0001C9D00100000002018010000040100106E
:109BE000349E001018010020486A00002001001077
:109BF0001C00000043000000F8FFFFFF0C00000005
:109C00000E0000000F0000002E00000010010000F8
:109C100043000000F8FFFFFF00404040404040404C
:109C2000404041414141414040404040404040402F
:109C300040404040404040404005020202020202D3
:109C40000202020202020202022020202020202022
:109C50002020200202020202020290909090909036
:109C600010101010101010101010101010101010F4
:109C70001010101002020202020288888888888868
:109C80000808080808080808080808080808080854
:109C9000080808080202020240000000000000005C
:109CA00000000000000000000000000000000000B4
:109CB00000000000000000000000000000000000A4
:109CC0000000000000000000000000000000000094
:109CD0000000000000000000000000000000000084
:109CE0000000000000000000000000000000000074
:109CF0000000000000000000000000000000000064
:109D00000000000000000000000000000000000053
:109D10000000000000000000000000000000000043
:109D20000000000000000000000000000000031917
:109D300000000201050303010009FF00000000000C
:109D4000000000060955415254461C000000000066
:109D500000000000000000000000005080000050E3
:109D600000000000601000508C10005070B00250D5
:109D700078B0025070B0025078B0025000A000508D
:109D800000B0005000C0005000D0005000E0005073
:109D900000000000000000000000000000000000C3
:109DA00000000000000000008400002040787D01D9
:109DB00000000000000000007010005000000000D3
:109DC000000000000003000000000000000001008F
:109DD0000000015008AA0220309F0220F8A60220AD
:109DE000C8810220CC810220D5800220748002200C
:109DF000768002209A870220248002202080022080
:109E00008F800220908002209989022004000000A7
:109E100000000000F8A60220000000000000000082
:109E20000000000000000000000000000000000032
:049E3000000000002E
:04000005100000C126
:00000001FF
