:020000041000EA
:10000000582A0020450C00104D0C00104F0C001019
:1000100000000000000000000000000000000000E0
:10002000000000000000000000000000510C001063
:100030000000000000000000530C0010550C0010E0
:10004000B304001077410010570C0010570C00103B
:10005000570C0010570C001097060010570C00109A
:10006000570C0010570C0010570C0010570C0010C4
:10007000570C0010570C00104D0B0010570C0010BF
:10008000570C0010570C0010570C0010570C0010A4
:10009000570C0010570C0010570C0010570C001094
:1000A000570C001041070010570C0010570C00109F
:1000B000570C0010570C0010570C0010570C001074
:1000C0000348854605F092FD00480047EB0000100C
:1000D000582A002000B52D1D00BD000010B53AA023
:1000E00000F03AFC01F092FA10BD72B6002119201E
:1000F00000F065FA0021172000F061FA00212220AB
:1001000000F05DFA00210A2000F059FA01211920BF
:1001100000F0D9F80121172000F0D5F801212220A4
:1001200000F0D1F801210A2000F0CDF800210E20C6
:1001300000F045FA00210F2000F041FA00211020C4
:1001400000F03DFA0021112000F039FA00210E20C4
:1001500000F051F800210F2000F04DF80021102090
:1001600000F049F80021112000F045F80721142083
:1001700000F025FA0721152000F021FA00F0E6FB37
:1001800015A000F0E9FB012001F004FA0F20C003E4
:1001900000F02FFDFF2000F02FFD002000F02FFDCC
:1001A000002000F00EFD114800F0DBFC00F0FBFC2D
:1001B000642000F0C9F962B605E00A2000F0B0F84A
:1001C000642000F0C1F9F8E77764745F63616C6CD8
:1001D0006261636B0D0A0000535944383832312094
:1001E00057445420544553540D0A0000DD000010BC
:1001F000D1490860704770B5024620241440630955
:1002000020251446AC430125A54028469C00CB4D33
:100210002C592075050A6575050CA575050EE57543
:10022000002B13D0002908D1C54D6D7D0543ECB2DC
:10023000C34D6D7DC24E747515E0C14D6D7D854316
:100240002C46BF4D6D7DBE4E74750CE0002905D166
:10025000BB4C64680443BA4D6C6004E0B84C6468FD
:100260008443B74D6C6070BD70B5024620241440C5
:10027000630920251446AC430125A5402846002BE0
:1002800013D0002908D0AE4DED7D0543ECB2AC4D46
:10029000ED7DAB4EF47515E0A94DED7D85432C4603
:1002A000A74DED7DA64EF4750CE0002905D0A44CB9
:1002B000E4680443A24DEC6004E0A14CE46884438C
:1002C0009F4DEC6070BD30B50B46202404406109A1
:1002D00020250446AC430125A5402A468C00974DB5
:1002E0002C592276150A6576150CA576150EE5763D
:1002F000002B0AD08C00914D2C592271150A657182
:10030000150CA571150EE57109E08C008B4D2C596B
:100310002272150A6572150CA572150EE57230BDB4
:1003200010B520230340590920240346A343012488
:100330009C4022468B00814CE3581A73140A5C736C
:10034000140C9C73140EDC7310BD10B520230340F5
:10035000590920240346A34301249C4022468B00D4
:10036000764CE3581A71140A5C71140C9C71140ECB
:10037000DC7110BD10B52023034059092024034629
:10038000A34301249C4022468B006C4CE3581A7214
:10039000140A5C72140C9C72140EDC7210BD30B521
:1003A000014620200840420920240846A043012499
:1003B000844023469000614C20584030102404199A
:1003C0002578284665782D022843A5782D042843F2
:1003D000E478240620431840002801D0012030BDD5
:1003E0000020FCE7F0B503460C46154620221A40D3
:1003F000500920261A46B243012696403146002C69
:100400000BD182004D4EB258403211720E0A567214
:100410000E0C96720E0ED6720AE08200474EB2584B
:10042000403211710E0A56710E0C96710E0ED67175
:10043000002D0BD18200414EB258203211760E0AA7
:1004400056760E0C96760E0ED6760AE082003B4E5D
:10045000B258203211750E0A56750E0C96750E0E96
:10046000D6758200354EB258203211710E0A56717F
:100470000E0C96710E0ED671002201269640314F59
:100480003E6000BFF0BD10B5202303405909202471
:100490000346A34301249C4022468B00274CE3588B
:1004A00020331A72140A5C72140C9C72140EDC72E3
:1004B00010BD70B500243CE0A00020490858403031
:1004C000142141180A7810464A78120210438A789B
:1004D00012041043C97809060843A100174A51586D
:1004E00020310A461378194653781B021943937832
:1004F0001B041943D2781206114308400546002D0B
:1005000000D114E00C480068002804D02946204699
:10051000094A12689047A0000849085840300575FC
:10052000290A4175290C8175290EC17500BF601C0F
:10053000C4B2022CC0DB70BD080000200000002007
:100540004010005000E100E0002109E0002201E03D
:10055000531C9AB27D239B019A42F9DB4B1C99B242
:100560008142F3DB7047002107E0002201E0531CC9
:100570009AB2092AFBDB4B1C99B28142F5DB70472A
:1005800010B50146272901DA002902DA0020C0430C
:1005900010BDCC07E40F202904DA4A101B4800687C
:1005A000835C05E008462038421018484068835CA8
:1005B000002C01D01811EBE71807000FE8E770B521
:1005C000272801DA002800DA70BD0907090FC407DF
:1005D000E40F202804DA43100C4E3668F21805E0C8
:1005E0000646203E7310094E7668F2181578002CE6
:1005F00001D00F2600E0F0263540002C01D00E0778
:10060000310E2E460E43167000BFDDE70C000020B1
:1006100070B504460D46062000F00EF98A480068C1
:100620000078000900012907090F08438649096875
:10063000087085480068007880218843E1018022A5
:10064000114008438049096808707F4800680078B5
:10065000402188437C49096808707B48006880789D
:1006600008218843083078490968887092007749E2
:10067000774800F0F7F97748406A40210843754908
:1006800048620846006A4021084372490862062011
:1006900000F0CBF870BD70B56B480068047830206E
:1006A000604005466848006805701020204000281A
:1006B0000DD000BF644800680179654800F00AFA6F
:1006C00061480068C078C007C00F0028F2D070BD34
:1006D00070B504460D46192000F0AEF85A4840683F
:1006E0000078000900012907090F084356494968A5
:1006F000087055484068007880218843E1018022D5
:10070000114008435049496808704F4840680078D4
:10071000402188434C49496808704B4840688078BC
:1007200008218843083048494968887092004A493E
:100730004748103000F096F9192000F076F870BDA7
:1007400070B54148406804783020604005463E4816
:10075000406805701020204000280ED000BF3A48A5
:10076000406801793A48103000F0B4F936484068E2
:10077000C078C007C00F0028F1D070BDF0B50B469F
:1007800001242404002112E000BF85002E4E75597B
:10079000ED782D07ED0F002DF7D1850075596D7897
:1007A0005E5C35468600284FBE597570491C9142E3
:1007B000EADB00E0641E8500234E7559ED786D0775
:1007C000ED0F002D01D1002CF4D1F0BD70B5044621
:1007D0000D4621011E4A8818294600F089F970BD8E
:1007E00070B504460D4600BF022C01DB002070BD31
:1007F0002101174A881800F090F900280AD1200139
:1008000013494018C5682101114A881800F08EF973
:10081000C0B2ECE70020EAE70146012901DD002033
:1008200070478800084A1058FAE7C206D20E012124
:1008300091400A4A11607047C206D20E01219140D0
:10084000064A80321160704714000020CC0000205E
:10085000AC00002000800220CC02002000E100E07B
:1008600010B50246062001238340754C236000BF6B
:10087000744800680078000900010B071B0F18433B
:10088000704B1B6818706F4800680078802398438D
:10089000D3018024234018436A4B1B6818706948B1
:1008A00000680078402398434030664B1B681870FE
:1008B00064480068C078102398431030614B1B686F
:1008C000D8706048006880780823984308305D4BF2
:1008D0001B6898705C48406A402318435A4B586222
:1008E0001846006A40231843574B1862062001231C
:1008F0008340534C803C236000BF10BDF0B50B46D5
:1009000001242404002112E000BF85004D4E7559DA
:10091000ED782D07ED0F002DF7D1850075596D7815
:100920005E5C35468600474FBE597570491C914242
:10093000EADB00E0641E8500424E7559ED786D07D4
:10094000ED0F002D01D1002CF4D1F0BD10B5082120
:100950000020FFF785FF10BD0FB438B500240498C0
:10096000002803D138BC08BC04B0184705A8009083
:100970003648009A049905F04BF9C4B20020009063
:10098000802C00DD8024224630490020FFF7B6FF8E
:1009900000BFE7E70FB438B50546002405980028E6
:1009A00003D138BC08BC04B0184706A800902748FB
:1009B000009A059905F02CF9C4B200200090802C13
:1009C00000DD8024224621492846FFF797FF00BF1B
:1009D000E7E7F8B505460E4617460024002D02D07D
:1009E0002846FFF7B9FF00241BE02046E117490F16
:1009F0000918C910C900611A03D1A1B214A0FFF7E8
:100A0000ABFF315D14A0FFF7A7FF601CC117490FB2
:100A10000918C910C900411A02D111A0FFF79CFFA3
:100A2000641CBC42E1DB2046E117490F0918C910DC
:100A3000C900611A02D00AA0FFF78EFFF8BD0000BE
:100A400080E100E01C00002000800220CC04002097
:100A50005B253034785D200025303278200000009E
:100A60000D0A00000023436003608260C16070478C
:100A7000416801607047F8B504460F461546606846
:100A80004019A168884219DBA088281A86B26268DA
:100A9000E16888183246394604F0E4FCA81B85B2A8
:100AA0002068A84202DC2088401E85B2B9192A4677
:100AB000E06804F0D7FC65607019F8BD6268E16811
:100AC00088182A46394604F0CDFC606840196060F9
:100AD0002846F2E702465368581C5060D068C1545B
:100AE00093685068984201DB0020506001207047F5
:100AF000024653681068984201D10020704713687D
:100B0000581C1060D068C05C0870936810689842E8
:100B100001DB002010600120F0E701464A68086808
:100B2000904201D1012070470020FCE701460022DD
:100B30004B680868984200DD8A68486880180B682E
:100B4000C01A704701203A494860704710B53948CB
:100B50000068002802D0374800688047FFF7F2FF9E
:100B600010BD34490860704710B500210DE0002821
:100B700000D10CE0C207D20F002A04D02E4B2C4A21
:100B800024328C0013514008491C0829EFDB00BFB8
:100B900010BD00B5FF20FFF7E7FF00BF2448006C41
:100BA0000028FBD000BD0120214988600E200121D2
:100BB0008140224A116000BF704701201C49C86073
:100BC000704710B50446002C01D0FFF7E2FF01206A
:100BD0001749086000BF164800680028FBD110BD07
:100BE00001201349086200BF1148006A0028FBD1A8
:100BF00070470F49886170470D49C86170471049B7
:100C0000497802229143420002231A4011430C4AC0
:100C1000517011464978082291430222024052083D
:100C2000D20008231A401143054A51707047000052
:100C300000800050240000201432765F00E100E0C4
:100C4000001000500448804704480047FEE7FEE7D4
:100C5000FEE7FEE7FEE7FEE7690C0010C1000010AA
:100C6000034804490860704701480249086070471A
:100C700040787D0128000020FE492022087810439A
:100C8000EF221040042210430870704710B5FA4854
:100C90008047002802D002F001FE012010BD10B5EF
:100CA00002F05FFE10BDF44928310847F2493C319B
:100CB0000847F1496C310847F0490847EF495C3172
:100CC0000847EE496A310847EC4976310847EB4955
:100CD00086310847E94994310847E849A231084775
:100CE000E649AE31084730B4E54CA44630BC604715
:100CF000E34874300047E3480047F8B5E24DCF229F
:100D00002968E24C08780026104008702068E04905
:100D100018308847286822680178127F090912076D
:100D20000901120F114301700907090FBF2701299B
:100D300021687DD00A4622314B7809781B020B438B
:100D4000114620310B711B0A4B710378117A3B401D
:100D500089010B435906490E0170226841784032DF
:100D6000127A8909921D92068901920E11434170EF
:100D700021680622801C093104F074FB2168482098
:100D8000425C002A04D028684931083004F06AFB2C
:100D90002168BF4A7020405C323A71319047286820
:100DA000BC4A41788906890E891C904728680178D9
:100DB00009090901091D017022683940127AD20718
:100DC000520E11430170226841782032127A89094B
:100DD000921D92068901920E1143417021680622EC
:100DE000801C093104F03EFB21682820425C286801
:100DF0002931083004F036FB2868A74A4178890673
:100E0000890E891C9047256800206F7F0121814051
:100E10000F4204D0E97F0B2251438E19761C401CEF
:100E20000328F3D32C46203460782178000200E0B8
:100E30001AE0084313214843401CB04206D2701EFA
:100E400004F0E6FA401C2070000A60706078217897
:100E500000020843022803D20220207000206070A4
:100E6000287F012824D03AE00B4620318A79CA71C4
:100E7000197A0278C9073A40490E0A4302705106AE
:100E80002268490E6032127CD20111430170417810
:100E90000622890989010C3141702168801C0931C1
:100EA00004F0E0FA286821680622083071316DE705
:100EB000E079002813D060782278010211431320D2
:100EC0004143A079491CC00304F0A2FA401C064625
:100ED0007F2104F09DFA401CC1B2E1711EE06079EF
:100EE00021790002084331D0607822780102114351
:100EF00013204143284622304278037810021843D9
:100F0000C003491C04F084FA401C06467F2104F00B
:100F10007FFA401C81B22171080A6071304604F0EA
:100F200077FA401C7F2800D97F200121E975A97F2D
:100F300000916178237809021943584CEA7FC0B2C6
:100F40003B46A047554834308047F8BD0020544CFC
:100F5000E875034602460121A047F8BD49491A3108
:100F600008474848F43000474E48004738B5049CCD
:100F700000944C4C0E34A04738BD30B4494CE83492
:100F8000A44630BC604710B502F0E0FD10BD10B5BE
:100F900002F0F8FD10BD4349A4310847424800471C
:100FA0004148323000474049463108473E49B23156
:100FB00008473D49C23108473B4AD032104710B577
:100FC00001F0D6F810BD3849FC31084737490847C9
:100FD00036490E31084735493631084710B501F01A
:100FE000A6FB10BD10B503F0F8F910BD2F48DC309A
:100FF00000472F480068C0788007C00F704770B561
:1010000022480068817C427C0802104312D0FFF71E
:10101000F0FF184C022501280DD12448DC30804710
:101020002449884207D121780120294301432170B6
:1010300003F0D3F970BD2078802108432843207045
:1010400070BDF8B50B48C079000679D50F48066821
:10105000B17C707C0F0207430648057801D0A807D1
:1010600001D468076CD5034C207BE17A0002E41CB4
:10107000084321E016160020DF5600001558000036
:1010800027590000CD5B00005800002054000020CC
:10109000451D00002B26000047270000971B00007D
:1010A00031540000F55C00005B5E0000675F0000EB
:1010B0004C0000200604000042D0002F40D0607891
:1010C0002178000208432AD1307CF17B00020843DA
:1010D00004F014FC0022F74B04F014FB04F01CFC99
:1010E00080B278430A2104F0A9F94004010C217070
:1010F000080A6070307DF27C000210430A224243ED
:10110000914203D3401E2070000A607060782178FD
:101110000002084303D10120207000206070FD21EF
:101120000D40E54801210D430570002003F055F9FD
:101130006078227801021143E14BE04A0920984788
:10114000F8BD10B50F21DC4804F0A5F910BDF0B5CD
:1011500004468DB0401C04F0B6F9D74E00253E3E43
:10116000024604282AD0D448D31F0178FF3BFA3B1B
:1011700018D001239B039A4279D1D1490A20243106
:10118000884770780621484381190A22601D891C0E
:1011900004F068F97078401CC0B270700A2876D3E9
:1011A000757074E0C279002A71D0CA066FD4A37931
:1011B00066791A023243012A05D068E075703570ED
:1011C000FFF7BFFF63E08278521E1206120E827094
:1011D0004ED0B949437888794E7902023243887AF1
:1011E0004E7A00023043491C012B47D0801A087206
:1011F000000A487200060B7A000C1843831A6A46EC
:1012000013835083AC4A167BD27A360216436A4661
:1012100096834A7B0F7B110239436A46D183138040
:1012200050809680D18013723220507200209072CC
:10123000D572280A10730120507300209073022089
:10124000D073002010740320507400209074042088
:10125000D0740020107505205075002090759949B4
:1012600010468847974906A81E3188470FE007E0D7
:10127000027A827040221143017008E08018B6E7BC
:10128000880604D59004000F01D0FFF7DAFE8E49DE
:101290002046096988470DB0F0BD10B50446001D11
:1012A00004F011F988490861211D884804F015F9F6
:1012B000844920465C31884710BD82497E31084709
:1012C0008049D43108477F4ADC3210477D4AE432F6
:1012D0001047794900203E390A7849788A4200D976
:1012E0000A200818801A401EC0B2704700B5FFF7E8
:1012F000F0FF002804D1704800213E384170017091
:1013000000BDF8B50E46074671491C46154601203A
:101310008847002807D0FFF794FE23462A46314627
:10132000384602F0EFFBF8BDF8B50E4604466849B2
:101330001F46154601208847002814D0022C03D1EF
:10134000FFF7C7FF002809D0EAB25E4D3B463146A1
:101350002046F435A847012807D004E00A21584B5D
:101360005C4A084698470020F8BD022C12D1524C26
:1013700006213E3C20780A46484300193146801C2D
:1013800004F070F82078401CC0B220700A2801D305
:10139000002020700120F8BD70B50D4604461121D3
:1013A000401989031646884201D3002070BD4A487F
:1013B0000068213004F087F8484B0019324629466E
:1013C000984770BDF8B50646EFF3108472B6424DEB
:1013D0002868213004F077F88019414A01219047AC
:1013E00084F310883E4F0024F63FEFF3108572B669
:1013F00039480068213004F066F83119401839493D
:1014000000230A192021B84785F310880120000322
:1014100020348442E9DBF8BDF7B5070501993F0D9B
:10142000002912D0029900290FD027498978002974
:101430000BD101997A18012109038A4205D8019A32
:10144000112382181B039A4201D90020FEBD0025FA
:10145000C41BEFF3108672B61F480068213004F0F9
:1014600032F8611940181F491C4B4A19202198472E
:1014700086F310880120000320358542E9DB1948F6
:10148000019AC019029903F0EDFF11490120884724
:1014900000280AD0EFF3108072B60B4901228C802D
:1014A0008A7080F310880120FEBD2046FFF78AFF76
:1014B000F9E700000000F43F16160020FF0F0010AF
:1014C000D3330000575F00002C0000204F110010A4
:1014D00045850000ED120010500000208F1600001E
:1014E0009F180000D8050020FA490847F94A083239
:1014F000104738B5049C0094F64C1034A04738BD12
:1015000030B4F44C1C34A44630BC6047F14924315B
:101510000847F04A2C321047EE4A3432104730B4B4
:10152000EC4C3C34A44630BC6047EA4B443318478B
:10153000E84B4C33184730B4E64C5434A44630BC26
:101540006047E4495C310847E24864300047E149BC
:101550006C310847E0490847DF4908310847DE4950
:101560008C310847DC48BE300047DB48E23000479A
:10157000DA4A1047D9495231084710B502F0C8FE7F
:1015800010BDD64964310847D4496C310847D34966
:101590007631084710B502F057FA10BDD048004721
:1015A00070B5D048002480682546807A4006C60F72
:1015B00072B6CB488047022002F046FA641CA4B2FF
:1015C000FA2CFBD30024304602F01DFA002801D08B
:1015D000012503E0641CE4B2032CF4D362B6284670
:1015E00070BD10B502F030FE10BDBC49A4310847F3
:1015F00030B4BD4CA44630BC6047B848F630004714
:10160000B74814380047B6491C310847B44842303F
:101610000047B3484C300047B1480E30004710B582
:10162000AF488047B14C0120A0470020A04710BD23
:10163000AF4908707047F8B5002472B6AD4A012171
:10164000AD4B09032046984762B6AC4E306805465C
:10165000093003F038FFA7494718E878002811D06F
:101660002846313003F02FFF064628462D3003F080
:101670002AFF301A4002060E3878A14F9F4D0028ED
:1016800057D073E02846293003F01DFF0646284650
:10169000253003F018FF301A4002060E3878984FB4
:1016A000964D00280CD026E072B62868293003F049
:1016B0000AFFE10340180821B84762B6641CE4B28F
:1016C000B442F1D32D682846293003F0FCFE0646CB
:1016D0002846253037E072B6E203B01819E072B63A
:1016E0002868253003F0EFFEE10340180821B847D1
:1016F00062B6641CE4B2B442F1D3286806462930CD
:1017000003F0E1FE05463046253039E072B6E203CB
:101710008018B84762B60120F8BD72B6286831302B
:1017200003F0D1FEE10340180821B84762B6641CFB
:10173000E4B2B442F1D32D682846313003F0C3FE41
:10174000064628462D3003F0BEFE301A4004410FF5
:10175000C1D1E0E772B628682D3003F0B4FEE10392
:1017600040180821B84762B6641CE4B2B442F1D311
:1017700028680646313003F0A6FE054630462D3077
:1017800003F0A1FE291A4904490FBFD1C3E7544B06
:10179000C23318475B4B184730B45A4C6634A446E2
:1017A00030BC604730B4584CA44630BC6047F8B5F4
:1017B000564880474B4DA878002809D0A888FFF7E5
:1017C00001FEEFF3108072B60021A97080F310883B
:1017D0004F4CE079002834D0000610D5207841071E
:1017E00005D5FFF72EFC2078FB21084006E0000617
:1017F00005D5FFF726FC20784006400E20702078A3
:10180000444F454E41060AD5BF21084020700220B2
:101810006946088002466B4639460020B04720786A
:10182000C1070ED0400840002070800701D5042079
:1018300000E005206946088002226B4639460020F8
:10184000B0476878C10704D0400840006870E86875
:101850008047F8BD3148004730483A3000472F48AC
:10186000523000472D486A3000472C486E30004700
:101870002B498A69120A120202434A61087C01223A
:10188000104308747047F8B504462648017DE20607
:1018900049094901D20E114301750221224D7F20D1
:1018A000A847214E25206946223EB0476846017868
:1018B000214301702520A84769462520B047F8BD7F
:1018C0001A481B4900684118487C097C00020843FB
:1018D000704700005D6100008B62000091630000B2
:1018E0006B6600002C000020E9310000692D00002B
:1018F00042000020D80500208F1600005000002074
:101900009F1800001B68000061690000D16400009E
:10191000161600200002000031540000713C000047
:101920000010005040600250A72900005400002021
:1019300063050000F8B50546EFF3108472B6002188
:10194000F84E7F20B047F74A17206946223A904761
:10195000684601789F200140A807400E0143684671
:1019600001701720B04784F31088F8BD38B5EFF345
:10197000108472B60021EB4A7F209047E94A172075
:101980006946223A904784F31088684600784006FA
:10199000800F38BDE4490840E4494A6882434A6000
:1019A00096E7E1490840E1494A6802434A608FE707
:1019B0001CB56A4690801180DD485080D080694611
:1019C000012001F0C1FB1CBDDA48004770B5054697
:1019D000D9480C468268107AFB2108401072D7491A
:1019E00028468847D54A214628465E3A904770BD2A
:1019F00010B572B6D14C3E34A047D14800680121E1
:101A00004A02104206D1CF48027ED20702D0027E9F
:101A10000A43027662B6012010BD70B50446032069
:101A20000003844221D9C8480568E878002802D01C
:101A300001280AD01BE02846253003F044FD064665
:101A4000A04214D82846293008E028462D3003F05B
:101A50003AFD0646A0420AD82846313003F033FD4D
:101A60000146801B0818A04201D3002070BD012050
:101A700070BD10B572B6B54A904762B610BD70B56C
:101A800014460D460646FFF7C8FF002806D072B67A
:101A90002246AF4B29463046984762B670BD10B516
:101AA00072B6AB4BAE33984762B610BD10B572B686
:101AB000A64CF63CA04762B610BDF7B50025C8029B
:101AC00088B00E462C46070C11E0089861010818F2
:101AD0009F4B6A4620219847002069460A5C401CBB
:101AE0005219C0B295B22028F8D3641CA4B2BC42EB
:101AF000EBD3F6060898F60E61010818944B6A4677
:101B0000314698470020694604E00A5C5219401C9F
:101B100095B2C0B2B042F8D30A98854202D10120F2
:101B20000BB0F0BD0020FBE7FFB50E4601210746D4
:101B30000903874B81B0874A0020984785493522A1
:101B400008468C3803F08EFC8248833803F0BBFCD7
:101B50008049572244187F482146573803F082FCB9
:101B60002021601C03F097FC0025002F10D00020DE
:101B7000395C00290AD02218401CC0B251702028BC
:101B8000F6D305E02118401C4D70C0B22028F9D3CF
:101B900020460521213003F07EFC002E12D00020CB
:101BA000315C00290CD022182032401CC0B2517088
:101BB0000528F5D306E021182031401C4D70C0B235
:101BC0000528F8D321462631039803F086FC2146E8
:101BD000223104980872000A487201215B4A25707C
:101BE0000020904701215A4B09030020594AAE3387
:101BF0009847012005B0F0BD4A4A1047494A223AA9
:101C00001047F0B5027889B0002A7DD05249CA71D8
:101C100042780A72002A01D0042A01D904220A72E9
:101C2000C2788478130223434B4A1C0A537294727D
:101C30004479057924022C431546EC72260A2E734A
:101C4000A646C4798579200228435073040A844645
:101C500042489473046808252746207CE47B0002F0
:101C600020430124521C83424C7008D9181A07E003
:101C70001471200A01E01571280A507107E0C01A9A
:101C80000E7AB0426FDA1471260A56710872087A19
:101C900088700D70002B42D05079117900020843F2
:101CA000191A6846018343836146C1837146818363
:101CB000B87C797C0002084302D0002002F08DFB42
:101CC0006846018B0180428B4280828B8280C28B6E
:101CD000C28001723221417200218172C17201738E
:101CE0004473210A81730221C1730021017403210D
:101CF0004174002181740421C17400210175052102
:101D000041750021817500E031E01549884714498B
:101D100006A81E31884707490920EA318847012073
:101D200009B0F0BDA7290000FCFF0FFD0010005016
:101D3000480800000D3300002C000020AB310000EB
:101D400000E100E000A00050500000209F180000BB
:101D50008F160000D8050020161600205400002021
:101D6000575F0000FFE7F600B04284DA80E700200A
:101D7000D6E7FEB50746F24801780A077DD5F72277
:101D800011400170BA797C1C7B7912021A437AD017
:101D9000C279120677D5102211430170880672D4D9
:101DA000E848804705466079217900020843FF1C16
:101DB000002832D003F0A2FD0646009178783978E9
:101DC0000002084303F09AFDDF4F00223B4603F078
:101DD00099FC3246009B03F095FC0090DB48019192
:101DE0000068017CC27B0802104303F087FD0022DB
:101DF0003B4603F087FC07460E46607A217A0002D4
:101E00000843401B03F066FD3A46334603F07AFC74
:101E1000019B009A03F0C4FB24E078783978000233
:101E2000084303F04FFD0646C8480068017CC27BAA
:101E30000802104303F046FD314603F057FB03F060
:101E400089FD0022C04B03F05DFC07460E46607A18
:101E5000217A00020843401B03F03CFD3A4633461A
:101E600003F050FC0022BA4B03F0B4FC03F054FD25
:101E70000104090C00D1012101E00DE003E0B64BA3
:101E8000B44A0920984703206946088102221102BA
:101E9000B24C02AB0020A047FEBD38B5B04C207854
:101EA000002804D1AF4968468847012020700120EE
:101EB00038BD10B50B30102801D9FF2010BDC4B2B9
:101EC000A54B20469847204610BD10B50B30102872
:101ED00001D9FF2010BDA049C4B220462431884753
:101EE000204610BD072801D90020F1E401228240DC
:101EF0009B4843781A434270C1600120E8E493484C
:101F00000068C07DE4E49148974900684118487C26
:101F1000097C00020843DBE410B5030003F0A1FED6
:101F200009061C36506A849EB0CAE60000217F2054
:101F3000FFF762FE00213020FFF75EFE01217F20C7
:101F4000FFF75AFE1E216320FFF756FE1F216D206A
:101F5000FFF752FE882114E000217F20FFF74CFE9E
:101F600000213020FFF748FE01217F20FFF744FECB
:101F70001E216320FFF740FE1F216D20FFF73CFE6E
:101F80008A216120FFF738FE8121ACE000217F200B
:101F9000FFF732FE00213020FFF72EFE01217F20C7
:101FA000FFF72AFE1E216320FFF726FE1F216D206A
:101FB000FFF722FE8A216120FFF71EFE832192E0B7
:101FC00000217F20FFF718FE00213020FFF714FECC
:101FD00001217F20FFF710FE1E216320FFF70CFE7A
:101FE0001F216D20FFF708FE8A216120FFF704FE04
:101FF000872178E000217F20FFF7FEFD00213020BF
:10200000FFF7FAFD01217F20FFF7F6FD1E21632077
:10201000FFF7F2FD1F216D20FFF7EEFD8A21612001
:10202000FFF7EAFD8F215EE000217F20FFF7E4FD4E
:1020300000213020FFF7E0FD01217F20FFF7DCFDCC
:102040001E216320FFF7D8FD1F216D20FFF7D4FD6F
:102050008A216120FFF7D0FD9F2144E000217F20ED
:10206000FFF7CAFD00213020FFF7C6FD01217F20C8
:10207000FFF7C2FD1E216320FFF7BEFD1F212AE0EE
:1020800000217F20FFF7B8FD02213020FFF7B4FDCB
:1020900001217F20FFF7B0FD1F216320FFF7ACFD7A
:1020A00003216D20FFF7A8FD8A216120FFF7A4FD21
:1020B000B02118E000217F20FFF79EFD0221302093
:1020C000FFF79AFD01217F20FFF796FD1F21632076
:1020D000FFF792FD07216D20FFF78EFD8A21612019
:1020E000FFF78AFDBF216520FFF786FD10BD1F4960
:1020F00009686031087453E410B500280ED0012837
:1021000012D0022816D0032807D102217F20FFF722
:1021100073FD40212920FFF76FFD10BD02217F20B4
:10212000FFF76AFD4621F5E702217F20FFF764FDF6
:102130004421EFE702217F20FFF75EFD4221E9E71E
:1021400016160020051B00000000F43F540000207C
:1021500000002440790C0010D333000031540000FB
:102160002C0000209D2C0000630500004C00002086
:10217000FE490A79002A00D008707047F8B5FB4C78
:1021800063695979002915D0B121C95CC91F092992
:1021900056D8014618461022D93003F063F9E0788A
:1021A000002502210128606905D04279D2060FD5A9
:1021B000EF488047F8BDCA22125C012AFAD1C279E1
:1021C000012A01D1C57137E0002AF3D1C171F8BDF0
:1021D000C279012AF8D1CA21095C01292AD1E06912
:1021E0008026017801208840216A0968884300D14F
:1021F00081260027DF4880476169C919E0317F1CCB
:10220000FFB24876102FF5D3606933460146E931B5
:1022100002460091FF31F9321131D74EFF305A306A
:10222000B047E0690078142803D261690120C871C1
:1022300001E06069C5716069D049E9308847F8BD3F
:10224000CB4B0622002101208C3B9847F8BDF1B50D
:10225000C64CA4B06069417900292BD0CA210A5C20
:102260002146C64F49691C370025E931012A23D090
:1022700006460246713609320491711E531E0196BC
:10228000BE4E02930392CA33C23200917A36FF30B7
:102290000A302499B047616910220846D930E931E3
:1022A00003F004F900287CD0B14B04220021012066
:1022B0008C3B984725B0F0BD0C950D950E950F956C
:1022C000119512951395149542790126D206002A8C
:1022D00003DBA64A1379002B7ED0F930B847A34C14
:1022E0002079002822D01DA8019500906369A44F91
:1022F00018460146FF30FF31FA305A31F933249A3B
:10230000B8471DA8013003F0DEF818A9097D0002C6
:1023100008439C4903F07CF80422019111049A4F70
:1023200001AB0020B847207800287DD067690722DC
:102330003946093115A803F095F83946072271315D
:1023400017A803F08FF8387A002810A86DD0867689
:102350007020C05D002818A868D0867004A83A468E
:102360000190F9321046844E15ADC03017AB009580
:1023700046362499B0476069102204A9813003F0E1
:1023800071F808AE0FCE19AE0FC6616903220E4672
:1023900021A8D33103F066F803223146CC3122A8BC
:1023A00000E073E003F05EF83046FF30EA3003905F
:1023B00017AF21A96846A2C03146714EF93111AB61
:1023C00019A86A3E249AB047626922A91046FF30D4
:1023D000DA300CAB019700E00AE00091039002951F
:1023E00019A8F9322499B04768490020884761E765
:1023F0005E4A3446D2698023127894405B4A126A5E
:102400001268944300D1812300910146FF315A3173
:10241000594CFF30FA30249AA047544810224069A2
:102420000146E931D93002E025E02BE02CE003F051
:102430003DF8002801D004221EE04C4C6069F930C0
:10244000B847E0690178491CC9B201701429CED39C
:10245000216A0868020C08A8827410A88271088892
:10246000020A08A8427410A84271097808A80174E9
:1024700010A8017133E70C223D4B002101208C3B59
:10248000984717E7857663E7857067E760690026F8
:10249000F930B8476369384F1946FF330A33363F7E
:1024A0001846F931249AB847606910230146A031D3
:1024B00006E017183246FF320A32761CBD54F6B2D7
:1024C0004A7C9F1AB742F4DC304900208847606993
:1024D0004179490849004171ECE6F0B50446C078FD
:1024E00085B0072807D2224B0622002101208C3B11
:1024F000984705B0F0BD1D4E01217069CB221154E3
:10250000002506222146CC3002F0ACFF1120716973
:1025100040010818A0314E7CC17E827F437F049227
:102520000A07D20F009203934A07CF06D30FFF0F7B
:1025300002968A0701970E4E920F817E407E643E7E
:10254000B047A07810260007002843DA074A112177
:10255000506949014718FB7E19073BD50121CA2262
:1025600011545A0715D4A278520711E040000020F8
:102570005DA100004D250000B3AA000055A9000090
:10258000FFAB000040420F0031540000F733000061
:102590000ED57B7E22789D005B19FE4D5B19D55CC4
:1025A000882D02D0102D03D005E0FB4A117102E006
:1025B0004179314341714179C90634D50B21C901B3
:1025C0004018C07D01282ED16421F54BF34A052027
:1025D000984728E0F04F00217869CA221154112150
:1025E00049014118CA7E520702D4A278520709D580
:1025F000497E22788B00C918E64B193BC918555CF7
:10260000102D02D1417931434171E44AE44B943AAF
:10261000E449002098476079C00704D07869032214
:10262000817911438171607980070BD5DA481121D6
:10263000406949014118897F890703D581790C22B6
:1026400011438171207980070BD5D348112140694E
:1026500049014118497F890703D5417980221143F7
:102660004171CD4841690846A0304674E278102A8D
:1026700000D24274487901221043CB4C4871202D7E
:1026800008D0402D00D034E700231A464021002016
:10269000A0472EE700231A462021F8E770B5BE4C6C
:1026A0000D466369002825D0A0690C218171194667
:1026B000FF3120225A31C01D02F0D4FE6169A069A9
:1026C000FF31202227307A3102F0CCFE0621B74AB2
:1026D000412090470B216069C9014118C97D00293B
:1026E00007D14079C00602D42079012801D1AB4836
:1026F000804770BD1846FF302022FA3002F0B2FE4B
:102700002022AB4B6069A9180E46C01802F0AAFE41
:102710006369A84C1846FF309A30FF333246294689
:10272000BA33A04729460120FFF7B8FF70BDF0B5C6
:10273000994C0646606985B04179C9072AD0FF30B7
:1027400010210A3002F0A7FE6069320AC11DF9317A
:102750004E728A72320CCA72320E0A73CA21095C36
:102760000125012918D00346064601460933E936FA
:102770005A1E713101AF4EC7491E0091C933C33291
:1027800089318D4EFF300A30B0476069C179022926
:102790002FD00BE00020ACE6206A00210660E26941
:1027A000802311706269D179022904D06069C179EE
:1027B00000292AD02AE000682946814300D18123DC
:1027C000E168002040314E7D1718E037401CC0B250
:1027D0007E761028F7D36069774E0146E9310246CC
:1027E0000091FF31F9321131E436FF305A30B047F1
:1027F000CBE771497A39E93088476069CA21095CB9
:10280000012902D00021C17100E0C571012070E6EC
:10281000F8B5614C694F6169CA19517B127B090295
:102820001143009102F0F4FD0646A0780D46002801
:1028300026D0634908208847002804D06049022038
:10284000884700280CD06069C119487B097B0002C9
:102850000843C01C704384B2002D1AD0601916E0E2
:102860006069C119487B0A7B0102A06C1143C21C3C
:10287000891871438CB2002D0BD02818001906E07E
:102880000098C01C704384B2002D02D06018C01C98
:1028900084B24C488047A04201D20020F8BD0120FC
:1028A000F8BD70B50546D01D14460E4680B2FFF740
:1028B000AFFF002810D038481B2180692A0A817197
:1028C000C571027222463146093002F0CBFDE41C8C
:1028D000364AA0B20421904770BD70B50546D01DA0
:1028E00014460E4680B2FFF793FF002810D02A4806
:1028F0001D2180692A0A8171C57102722246314602
:10290000093002F0AFFDE41C284AA0B20421904730
:1029100070BDF7B5204E294970690024091F25466E
:10292000401802F0D0FDB269112191718378467888
:102930001B023343009E421C0146B34258D3019E02
:10294000B34255D80E79CF783302029E3B43B3424F
:102950004ED10B78172B55D00F4E0623B669F37165
:10296000577813783F021F43062363439E1937723B
:102970003F0A77725679177936023E43064FBF6990
:10298000DF19BE72360AFE72034ECF79B6699E1900
:10299000377319E04F650010400000205DA1000072
:1029A000D3330000B80B000031540000ED7F00006D
:1029B00019020000EF2A0000CFA900006103000007
:1029C0006994000043600000F74F0E7ABF69AD1DA7
:1029D000DB195E73F44BF54E5B69ADB29E19737CE7
:1029E000367C1B02641C3343AE1DE4B2B34225D3D4
:1029F000537916791A02EE4B32439A421ED001786F
:102A0000081893E7002C1BD1E74814238069C91DDF
:102A1000C371547816782302334303721B0A43723E
:102A2000537914791A0222438272120AC272102256
:102A30000C3002F017FD1435ADB201E0002C05D0CA
:102A4000AD1CDC4AA8B204219047FEBD0A22DA4B35
:102A5000102000999847FEBDF7B5D34ED74970694D
:102A600000252C46401802F02EFDB16909228A711A
:102A7000837846781B023343009E421C0146B342D2
:102A800032D3019EB3422FD80E79CF783302029E03
:102A90003B43B34228D10B78172B2FD0C24E0423CF
:102AA000B669241DF371577813783F021F43AB00BA
:102AB0009E1937723F0A7772BB4ECF79B669A4B2BE
:102AC0009E19B772B84F0E7ABF696D1CDB19DE72A2
:102AD000B54BB64E5B69EDB29E19737C367C1B021A
:102AE0003343261DB3421ED3537916791A02B04BD5
:102AF00032439A4217D001780818B9E7002D14D153
:102B0000A94812228069C2718B784D781A022A4333
:102B10000272120A427210220A30C91D02F0A2FC8F
:102B20001234A4B201E0002D05D0A41CA14AA0B229
:102B300004219047FEBD0A229F4B08200099984728
:102B4000FEBDF7B5984E9D497069002508312C46A9
:102B5000401802F0B8FCB269092191718378467877
:102B60001B023343009E421C0146B34242D3019EE6
:102B7000B3423FD80E79CF783302029E3B43B34233
:102B800038D10B78182B3FD0874E0723B669E41D48
:102B9000F371577813783F021F43EB005B1B9E19BC
:102BA00037723F0A7772804E4F79B669A4B29E1988
:102BB000B772CE798F7936023E437B4F6D1CBF6969
:102BC000EDB2DF19FE72360A3E73774E0F7AB669A0
:102BD0009E197773744F4E7ABF69DB199E73724BDF
:102BE000724E5B699E19737C367C1B023343E61D73
:102BF000B34227D3537816781A026D4B32439A4268
:102C000020D001780818A9E7002D1DD166481522AB
:102C10008069C2718A784B7812021A430272120AD2
:102C200042724A798272CA798B7912021A43C2724D
:102C3000120A027310220D30083102F013FC153411
:102C4000A4B201E0002D05D0A41C5A4AA0B2042170
:102C50009047FEBD0A22584B082000999847FEBDB8
:102C6000F7B5514E55498AB0706908310990002571
:102C7000401802F028FC0446B6690920B07107200C
:102C8000F07127782046182F77D0417A207A0902F0
:102C90000143A37860781B0203430A9883426BD3F5
:102CA0000B98834268D80C98814265D143490998B2
:102CB0000C31401802F007FC0190E079A179000284
:102CC00008430C212F464F43B9190872000A487275
:102CD00035480021806A3A4B0170E079A279000200
:102CE00010436A469081D1810A3202A9984708228E
:102CF000314ED101002002ABA436B0472A48806A89
:102D0000007801283CD0E079A379294A01021943CF
:102D1000019EF078B3780002184388426DD1307973
:102D2000400604D5244820388047002836D0307922
:102D3000810606D5C0062049C00E103988470028F4
:102D40002ED0E079A179000208431D4A0221343ACD
:102D50009047002836D030793178C00970783BD060
:102D6000000208431538C4B20F4831468069224634
:102D70003818153139E000E052E0417D207D86E7CA
:102D8000094CE06A216B0678A069324638180A308F
:102D900002F068FBA069B61CC67137E0052200E0AE
:102DA0000C220A9913E00000400000206305000097
:102DB000FFFF0000ED7F00008D5300005D03000069
:102DC000F93E0000A0786278010211430222F94B1B
:102DD000082098470DB0F0BD00020843C01FC4B2E0
:102DE000F548224680693818F11D0A3002F03AFB96
:102DF000F148A41C8069C47108E0904206D0707844
:102E00003378000218438019019081E76D1C0CD0C3
:102E1000E94804218069E94AC079801C9047D9E7D4
:102E2000E748834201D03C192BE70A22B9E710B5E5
:102E3000062912D0417C037C0A0241781A430B0216
:102E40000478C17880780902234301438B4207D973
:102E5000012219460820D74B24E041790379EBE79A
:102E60000520C002824202D0401C824203D1184693
:102E7000FFF7F2FD10BDD348824203D11846CD4B77
:102E800018330FE0CF48401C824203D11846FFF7A9
:102E900058FE10BD100A2928184602D0FFF7E0FEA0
:102EA00010BDC94B984710BDF0B5C34C0746A0787C
:102EB00085B00D4600287DD0C44E0820B0470028BC
:102EC00079D00220B047002875D1EFF3108004902C
:102ED00072B6A06C2818801C86B2BD4880470100DD
:102EE000BC4803D0E168C978C90708D080470028EA
:102EF00075D1B74810308047761CB0426FD3AE48CA
:102F0000AD49801D0770B44800900822623101A8C5
:102F100002F0A8FA63690022B2330299019801F025
:102F2000C1FD022F02D0012F0BD016E00120E0716D
:102F3000206D04224119A048891C4C3002F092FAFD
:102F40000BE0E079012806D19B49206D04224C3129
:102F5000801C02F087FA0020E071206DA16C9F4E6A
:102F6000801C0291039601950090934A6069238921
:102F7000921D9949BA3001F0E0FCA06C711C2A182E
:102F8000206D801C02F06EFA8B4C6234201D02F022
:102F90009AFA2378E2781946637812061B021943DD
:102FA000A378C0091B04194311432279C0015206BA
:102FB000520E01E012E012E0491C00235A41520671
:102FC000520E104321700A0A62700A0CA270090E98
:102FD000E1702071049880F31088012017E400202C
:102FE00015E47548C1680A466032907E927EC0073B
:102FF000C00FD207D20F603105E0887E8A7EC007FD
:10300000C00FD207D20F9042F7D1704710B56A486F
:103010004069017CC27B08021043072807D8FFF7EC
:10302000E0FF002804D0FFF7DCFF0128FBD010BD33
:10303000FFF7D7FF0028FBD0FFF7D3FF0128FBD015
:1030400010BD10B55C48C16808462230427903794A
:1030500012021A43624B9A4214D9DC4312190371CB
:103060001B0A4371FF2320310B72FA2A0AD951013E
:103070005C4BD200C91889187D221201891A01758A
:10308000090A417510BDF0B400285BD048780A7871
:1030900007021743484A15269469534DE01C631CE8
:1030A0001B2FA67041D9CC788E78240234431C7132
:1030B000240A5C71CC798E79240234431C72240A70
:1030C0005C7293780C78002B4B7805D01B0223435D
:1030D000F92B12D9F92104E01B022343302B0CD920
:1030E000302101700B0A437001710B0A4371506962
:1030F00040190173090A417312E05269521913739E
:103100001B0A53734A780B7812021A430270120A90
:1031100042704A790B79110219430171090A417110
:10312000F0BC0921314A032010471B210170002403
:103130004470F3241C7100265E71017146711C728B
:103140005E72D4E7F0BC7047F0B4002850D01A4A41
:1031500014209369987048780D7804022C43DC7031
:10316000240A1C71CC788D7824022C435C71240ACB
:103170009C714C790D7924022C43DC71D81C240AF3
:103180004471CC798D7924022C435C72240A9C72A0
:103190009578154C5B1C002D42D04D790E792D028F
:1031A0003543F92D28D9F9210171002343710170AC
:1031B000437041E08D53000040000020ED7F00008F
:1031C000FFFF000002280000874200006994000011
:1031D000ED340000DD340000281600203C170020EC
:1031E0003E060000C0E0FFFF61030000958C000078
:1031F000F0BC0022012046E705712D0A4571C87810
:103200008D78000228431871000A587148790979AD
:1032100000020843516909190873000A487324E041
:103220004B780D781B022B43302B0BD930210170CA
:103230000023437001714371506900190173090A39
:10324000417312E05269121913731B0A53734A78BF
:103250000B7812021A430270120A42704A790B79F3
:10326000110219430171090A4171F0BC0921FE4A9A
:103270000320104710B507E0435C845C4454491CAC
:103280008354521EC9B2D2B29142F5D310BDF8B5E3
:10329000F64D0520A969F44A887001210320904762
:1032A000A87800282DD068690F220021BA30FFF7D6
:1032B000E1FF686907220021B230FFF7DBFF2E46ED
:1032C0006236301D02F0FFF8002434707470C009BB
:1032D000B470C001F470307146062F465A37760E2E
:1032E000381D02F0F0F83C70210A7970210CC009F9
:1032F000B970C001210E3043F9703871A8780028E8
:1033000006D1696902220846D94BBA30B2319847D2
:103310007D214901D84BD74A03209847D549082039
:1033200048398847F8BDF8B50546D449082088478C
:10333000CE4C0B206169C0010818807E01282FD176
:103340000026374601E0042E04D260698019A030BF
:10335000877406E0C6480A38804761698919A03138
:103360008874761CF6B2082EEDD3C14F00260A3FB2
:1033700001E0082E01D2002000E0B84761698919F8
:10338000A031761CF6B28876102EF2D30026B8470C
:1033900061698919E031761CF6B24876102EF6D3B1
:1033A0000B206169C0010918487E042802D0052855
:1033B0001DD01EE0AE4F00260A3FB847616989194B
:1033C000FF318131761CF6B24876202EF5D3606944
:1033D000AB4B0146FF31A1310A7EFF305206520E3F
:1033E0000A760A46273A47399A30984701E008207A
:1033F00048766169A0690E46042787700822C01CC0
:10340000C231B63602F02EF8A069042231460B30E4
:1034100002F028F80D21944A03209047606929465C
:1034200008220A31BA3002F01DF8606929460422E8
:103430001231B23002F016F82069C07803286069B2
:1034400004D0CA21095C012909D018E0817D427DA0
:10345000080210432A46083229468A4B2CE041795B
:10346000CA070CD08279520709D4C90907D10921AA
:10347000890140180078012801D1616A08702A7A10
:10348000814E002A02D1687A002817D0606901466F
:103490006030C37D9A420AD16A7A007E824206D1A8
:1034A00008222846793102F001F8002825D0714B16
:1034B0000622002101200A339847F8BD6069CA211D
:1034C000095C01290BD00246BA32FF3011460A309E
:1034D000B0476069022241791143417112E041799C
:1034E000024639434171BA3211468130B0476069B2
:1034F0006030C07B012802D004E06069EFE75F49DB
:1035000002208847FFF7C3FEF8BDF8B5574CA078F6
:10351000002804D101220021554B08469847A16993
:10352000062088700121504A03209047A078002887
:103530000CD0564861690818417B027B090211438F
:10354000F92903D9F9210173002141736069484DBC
:10355000417908228B070A3D0027002B25DA114309
:1035600041710026A8476169891980314870A847D0
:1035700061698A1991218854A032761CF6B257707D
:10358000102EEFD30026A847616989196031761C97
:10359000F6B24876082EF6D3A84761696031C8753F
:1035A000A84761696031087614E0CA231B5C012BCF
:1035B00010D183795B070DD5114341710026A847CF
:1035C00061698A1991218854A032761CF6B257702D
:1035D000102EF4D32849032024318847274D082092
:1035E000103DA847002803D0244908200A31884705
:1035F0000220A847012815D10B216069C901411893
:10360000497D01290ED12D225201801841790029CE
:1036100009D0012962D0022904D18179164B1C4AB4
:1036200007209847F8BD00254AE00A226A4351184E
:103630000A18507C167C0302164833430380104B53
:10364000C33B4380114BDF3BCB18597D1B7D0902E7
:1036500019438180022181710321C17107721176A2
:1036600000235376038817E0958C0000400000206B
:1036700057250000C1940000D33300005585000099
:10368000C5290000996F0000ABAA0000610300008B
:10369000FB98000040180020F94AFA4E13808088F9
:1036A00050809180134601210622C9030020B047B3
:1036B0000121C902F44BF54A0020B0476D1CEDB260
:1036C00005206169C0010A18D27BAA42ADD80B203F
:1036D00062690121C00110180175F8BDE1688B789D
:1036E0009B06DB0FC3718878DF2318408870606900
:1036F000801881790172F8BD07E7F8B504460178B2
:10370000401C002910D0022976D003290BD1417822
:1037100002780802104310286DD0082803D1201D1C
:10372000E178FFF784FBF8BD417802780802104386
:10373000062838D0032839D014283BD015283ED08D
:10374000012842D00028EED1CD48251D5438C1684B
:1037500022314A7E0B7E1102194300914069E37ABF
:10376000017DC27C0E021643227B00271102194301
:10377000027CC37B1002C9001843814200D8012794
:10378000FFF744FCC24928468847002820D0FFF7AD
:1037900058FCBB485438C06822304179027909028C
:1037A000114319D01DE0FFF7B0FEF8BD201DFFF753
:1037B000BAFDF8BD211D0020FFF7C6FCF8BD0021B1
:1037C000221D0846FFF75FFCF8BDFFF71FFCF8BDA0
:1037D000B0492820884709E0009989000175090A45
:1037E0004175002F02D00673310A4173201DFEF788
:1037F000C0FAF8BD00E01CE04178027808021043EE
:1038000001280AD003280CD004280ED00C28F0D1AF
:10381000211D0020FEF742FFEBE7201DFEF75DFEB5
:10382000E7E7201DFEF7AAFCE3E7201DFEF70FFDEA
:10383000DFE7E078231D062814D0587C197C0202AB
:103840000A435878197800020843D9789B7809020E
:103850001943884209D901468A4B01221020A43B12
:103860009847C6E758791979E9E7FFF752F8C0E7B2
:1038700010B50178042905D18278437811021943E3
:10388000022902D0FFF739FF10BD41790079FFF717
:103890000BFB0028F8D0FCF71DFC10BD30B587B03D
:1038A0007D480090801E0190002468460481448178
:1038B00006210182418227218181C18102258582E1
:1038C000C482764806907649684688476C485438E2
:1038D000416B0A682A430A60816B0A682A430A60BE
:1038E000C4700471047007B030BD70B5644C0D46EF
:1038F000543C002828D06B4DA8470028FCD06A48CB
:1039000080476A4880476749012008398847A0698D
:10391000022181701321C1700221654A0320904762
:103920006449042088476069017DC27C0802104315
:103930000A2101F06DFD0A21401E41435A4B01202E
:103940005D4AEE3B984770BDE068202141704178A8
:103950008906FCD555480C3880474E492878884759
:1039600070BD544910B5012010398847002804D093
:1039700000210120FFF7B9FF10BD464913208847F9
:1039800010BDFEB500216846017001710D46012190
:103990004A4E7F20B047494C0A206946223CA04746
:1039A0006846007801090901684601700220014358
:1039B0000A20B04701A90A20A047684600794007BD
:1039C00004D56D1CEDB2FA2DF4D108E0FA2D06D025
:1039D00001A90A20A047684600794007F8D5684643
:1039E00001780A20B0470020401C80B2FA28FBD39F
:1039F00001A90A20A04768460079000701D40120E8
:103A0000FEBD0020FEBD70B505460024FFF7B9FFDE
:103A1000012817D10020FDF7BDFD29480169C9081B
:103A2000C900016107214161002181610169012211
:103A3000114301610169C903FCD5002D01D1FDF7D6
:103A4000EBFD0124204670BD0D4910B5543949697C
:103A50001A4C8870002835D0012841D002280ED198
:103A600000217F20A04700210320A047202104201F
:103A7000A04702217F20A04703210020A04710BDBE
:103A8000940000203154000040180020070200007C
:103A9000E52000006F9000001B80010071380010CD
:103AA000936000002B1B0000C1340000FF250000C4
:103AB000958C0000558500008D940000A72900001A
:103AC00000E000E000217F20A04700210320A04764
:103AD00020210420A04702217F20A0470021CCE71D
:103AE00000217F20A0471F210320A04702217F2023
:103AF000A04701210020A04700217F20A0473F21AF
:103B00000420BBE710B5012802D002280ED01BE02C
:103B1000487A0C7A00022043C00715D04879097909
:103B2000000208431946FEF7BCFEA8E7487A0C7A63
:103B300000022043800707D548790979000208432D
:103B40001946FEF7CAFE9AE7002098E770B5F84CD0
:103B5000E068817EFD22114081766069F54D837FAA
:103B6000427F203041780078090201430120A847B4
:103B7000E06881784906C90F61718178BF221140E0
:103B8000817070BD10B5EA4CE068817E022211435D
:103B90008176E84834308047E0688178BF22114060
:103BA0006279D207520E1143817068E7F0B517466B
:103BB000DF4A0446D0681E460D46C37885B0002112
:103BC0001B0702D5002005B0F0BD00BF491C89B21B
:103BD0006429FAD34030417C8907FCD4D448416938
:103BE0002D2040010818C07A012804D1FF21053199
:103BF000204601F050FCA00707D1CD482D21426995
:103C000049015118897A01291DD0C94B0020D96872
:103C1000C0310A792254401C80B20228F9D3C4482A
:103C20008078002808D0C44908208847002803D09D
:103C3000BF482178801D0170207880066078288038
:103C400034D5012033E0C1680846E030427B037B75
:103C500012021A43837B1B041A43920C9204A3039F
:103C60009B0B1A430273130A4373120C827348228C
:103C7000525CC37B5206520EDB09DB011343C37354
:103C8000027A520852000272027A02231A43027226
:103C9000E031087A8007FCD420788006607828809C
:103CA00001D5012000E00020387012E00020A0497A
:103CB0003870CA680020C032A41C03E01379235472
:103CC000401C80B22B888342F8D8C8680122C030DB
:103CD00042722888964F801C2880B87800280AD025
:103CE000954908208847002853D0934902208847E7
:103CF000002809D04DE0F8684030417C890748D45D
:103D0000407CC007C00F45E02A8821468B48921EA0
:103D100001F0A8FB8A488649009008225A3101A880
:103D200001F0A0FB7B690122B2330299019800F0F7
:103D3000B9FE7F48801D01788907890F01702888A6
:103D4000BA6C7E490292801E00910190784A78698F
:103D50003B89921D7A49BA3000F074FEC0B23070CF
:103D600001280ED128887549BA6C009101AB801EDC
:103D700015C36F4A78693B89921D7149BA3000F0CA
:103D800015FE2888B96C401A2880801EA41E607019
:103D900001E001203070012015E7F0B568480026E9
:103DA00087B01830059068460682067206730027B1
:103DB0006449012088470028634803AB02AA04A98C
:103DC0000FD0FFF7F3FE00280FD15948C068C07824
:103DD000C0065FD502AA04A95B4800F052FB012788
:103DE00003E05A4CA047002854D0514D2869C278AE
:103DF000032A03D1E86B00780128D4D06846007A02
:103E0000012801D1002F07D04F4C207886460007AB
:103E1000000F052840D041E0474C0820A04700286B
:103E20002DD00220A047002829D16846007B002819
:103E30002DD0A878002822D03D4C5A34201D01F006
:103E400042FB2378C1091A466378E0781B021A43C3
:103E5000A37800061B041A4302432079C9014006D7
:103E6000400E521C002358414006400E0143227070
:103E7000100A6070100CA070100EE070217168467E
:103E8000008A334A801EC1B22F4890478BE73149E0
:103E90003D20884707B0F0BD002F03D071460907C9
:103EA00019D06AE02C49A01C8847FFF7CAF82B49B3
:103EB0000222087F104308771E487A38804720780E
:103EC00070214006C20F68690A540622A11C713095
:103ED00001F0C8FA67E76969CB7D022B10D0002397
:103EE00060314F7B8C463946012F00D000273B4381
:103EF00043D0032A06D06046007A012834D05DE022
:103F00000123EDE7059900916946098A144F0839A4
:103F1000CBB271464906C90FA21CB8476869603028
:103F2000007A0128B2D10F49A01C88473BE7000066
:103F300040000020D91B0000699400003C170020BD
:103F4000281600204585000038160020B127000003
:103F50003F9C00006F900000CB1D0000200001502E
:103F6000CB6F0000155C0000012903D0FE49A01CA6
:103F7000884723E0A01CFD49FAE7032886D00428DF
:103F800084D16969CB7D022B0AD000236031497B43
:103F9000012900D000210B439CD0032A02D00DE060
:103FA0000123F3E7059900916946098AF04D891FBD
:103FB000CBB271464906C90FA21CA84705980090CC
:103FC00001966846008AA21C0838C3B22078E64CE5
:103FD00041060007C90F000F6834A047E3E670B53B
:103FE000FFB0E44985B00420884700280BD0E149A0
:103FF00004201A318847E0488047E0491620884766
:104000007FB005B070BDDE488047002500280FD086
:10401000DC4C606941790A075ED58279D3071DD0EF
:10402000D9498130884760698179490849003AE077
:1040300068460580D24DD04E86359236D34C09E085
:10404000694601A8A8470028DAD068460088C1B2AE
:1040500001A8B047A0470028F2D0D1E7930709D5BF
:10406000C94A014679311C32773090476069FD2298
:10407000817908E0530708D5C349603191308847FA
:104080006069FB22817911400DE01207F725002AB3
:104090000BDA027A01461046BB4A09314232904798
:1040A0006069817929408171AAE7294041710346FD
:1040B00077333A221021B64D0020A84709216069C4
:1040C00089014118097801299AD14079C00997D10D
:1040D000616A0120087093E7E16B097800298FD1AC
:1040E000216C097801298BD1817D427D0802104322
:1040F000A84A01219047206C057081E7F0B585B092
:104100000026A04C00960196029603966069017AFB
:1041100001292ED1817B890901292AD110226946E2
:10412000913001F0C3F9002823D0002504AF924854
:10413000C238804778556D1CEDB2032DF7D3694620
:10414000887C40214006400E0843694688746069B7
:104150000621093001F09FF96069032204A90C309F
:1041600001F080F962698C4B1046913004A9093244
:104170009847267127E570B5824EF0684478447000
:10418000834DE00706D0FFF72AFF002301211A46DE
:104190000846A847A00706D5FFF7FFFD0023022128
:1041A0001A460120A847600706D57C4880470023AF
:1041B00004211A460120A847200707D57748BC30BC
:1041C0008047002308211A460120A847E00610D5A1
:1041D000F0682030407D6949400701D53E2000E06D
:1041E00008208847002310211A460120A847FFF71E
:1041F00085FFA0060CD500F072F9002320211A4695
:104200000120A8470023FF211A4601311846A8477C
:10421000600611D5574901208847002807D07069EA
:104220006030807B012802D1F168072048750023A7
:1042300040211A460120A847E00904D0002380212C
:104240001A460120A84770BD38B5554C0120A0473B
:104250000021544D7F20A847524A3B206946223A0C
:10426000904768460178FB200140684601703B207A
:10427000A8474048943080470020A04738BD4A49AD
:1042800009788906890F017070473E4949780170A5
:104290007047F8B5444E434C054603280DD3002122
:1042A0007F20A047D8211120A0471D213A20A047F8
:1042B0007078FB21084070700CE07078042108438E
:1042C000707000217F20A047D8211120A04719211C
:1042D0003A20A047334A3F206946223A9047694630
:1042E00008782B008006800E087001F0BAFC060AE0
:1042F00006040A06040A802100E0402108436946BA
:10430000087009783F20A0471E4840694570F8BDF5
:1043100010B50446FFF7BDFF1A48447005E470B5B8
:10432000184D01210903214B00206A6C9847286928
:104330000446093001F0C7F8696C40180578012D72
:1043400001D9002070BDE078002831D020462D3002
:1043500001F0B9F806462046313001F0B4F80246C3
:10436000964236D2911B2BE0155C0000995D00004F
:10437000CB6F0000458500000F2600006F90000005
:10438000ED340000400000207BA60000371B000039
:10439000315400004F6E000095A90000C18D00004F
:1043A000692D0000A7290000001000508F160000A2
:1043B0002046253001F087F8064620462930CCE714
:1043C000002D08D0304609036F4A090E904701209E
:1043D00070BDB11AF4E71046F5E7F8B56B4C2D2126
:1043E000E268656949016E18134611462033603151
:1043F00001281FD16F1CBC46A87C6F7C000238438B
:1044000018D063482C18607E247E0002204322329C
:104410001075000A50756046427C047C10022043EF
:104420001873000A5873C87D10221043C875012004
:104430007072F8BD2D27707A7F010128F9D1307B89
:10444000002500280CD01D73280A5873C87D10233E
:104450001843C87575729079022108439071F8BDB0
:1044600000F05FF8E068014620310D732A0A4A73B4
:104470006030C17D10221143C1756069C019457259
:10448000F8BD70B5414C0023E568C0352E7DC6549B
:104490005B1CDBB2022BF9D3037801259B06002BB2
:1044A00043780B8001DA157001E000231370E36894
:1044B0000022801CC03303E01E7D8654521CD2B201
:1044C0000E889642F8D8B0B2801C0880E068D921E6
:1044D0000D540179022211430171012070BD10B504
:1044E0002C4901208847002815D0284841696031AF
:1044F0004A7B012A05D1C26860321378082423431D
:104500001370897B012906D1C068017C40221143C8
:10451000017400214175204880471F48C4308047FE
:10452000FCE670B5194CE0682030417802780D0245
:10453000417E1543027E0E021643AE4208D86169E1
:104540008A7C4B7C1102194349190176090A41768C
:10455000FEF747FD00280DD0FEF743FD0128FBD0F4
:10456000AE4205D8E0682030817802221143817084
:10457000012070BDFEF735FD0028FBD0FEF731FDB0
:104580000128FBD0ECE700009F180000400000204D
:104590008305000045850000498F0000F8B50F46EF
:1045A000064615461C461021184600F074FF0121EE
:1045B0006846017021700D223946601C00F052FFE0
:1045C0002902280A0143684601800078A0736846E2
:1045D0004078E0733146204600F0F7FEF8BDFFB5A5
:1045E00089B01D460F46139E00F07BFA002402940A
:1045F00003940494684605940470002D01D00120B2
:1046000000E0002081011498801EC20F1018401095
:10461000C00040186946401C08700872394602AF55
:104620000D22781C00F01EFFB0B20202000A024305
:1046300069460A80CA8202A9099800F058FA002D3A
:104640003DD0A9B20802090A0843029403940494D5
:1046500069460594088008810E2D01D90E2200E0DC
:104660002A46B81C0B9900F0FDFE0E2D01D90E272D
:1046700000E02F460E2D1ED90E202D1A099802A9F2
:104680001BD000F034FA0294039404940594102D86
:1046900001D9102200E02A460B98C11902A800F0A7
:1046A000E1FE102D01D9102000E02846C719102D79
:1046B00001D91020E1E72846DFE700F018FA002EC4
:1046C00024D0029403940494002505940294039446
:1046D00004940594102E01D9102200E0324612985D
:1046E000411902A800F0BEFE102E01D9102000E0F2
:1046F00030464519102E01D9102000E03046361AF8
:1047000002A9099800F0F3F9002EDFD102A9149A4A
:10471000159800F0A7FE14980DB0F0BDFFB589B054
:104720001C46139D00F0DDF90026029603960496C0
:10473000684605960670002C01D0012000E000209C
:1047400081011498801EC20F10184010C00040183C
:104750006A46401C1070107202A80D2201300A999E
:1047600000F080FEA8B20102000A01436A461180EF
:10477000D18202A9099800F0BAF9002C3ED0A0B26B
:104780000102000A014302960396049668460596C4
:10479000018001810E2C01D90E2200E0224602A8E0
:1047A00002300B9900F05EFE0E2C01D90E2700E0BE
:1047B00027460E2C1ED90E20241A099802A91BD0B8
:1047C00000F095F90296039604960596102C01D9EF
:1047D000102200E022460B98C11902A800F042FE08
:1047E000102C01D9102000E02046C719102C01D947
:1047F0001020E1E72046DFE700F079F9002D32D004
:1048000000200290039004902C4606460127059054
:10481000BAB202AB0A990998FFF7C0FE002031181E
:10482000A94203D3002102AA115406E002AA135C94
:10483000129A515C4B4002A90B54401C1028EED335
:104840007F1C102C01D9102000E020468619102C66
:1048500001D9102000E02046241A02A9099800F08E
:1048600046F9002CD4D102A9149A159800F0FAFD4B
:10487000149851E7FFB5002585B01F461C46012658
:104880002BE06B46324606990598FFF787FE00201D
:104890002918B94209D2079B6A46125C595C4A4002
:1048A00069460A54401C1028F2DB102C01D9102252
:1048B00000E022460E986946401900F0D3FD102C06
:1048C00001D9102000E020464519102C01D91020F4
:1048D00000E02046241A761CB6B2002CD1D128461E
:1048E00009B0F0BDFFB585B000261C460B46074653
:1048F00000960196029601216846039601740170A4
:104900000D2219466D46401C00F0ACFD684606823B
:10491000C681394600F059FD002005E0079A295C60
:10492000125C51402954401CA042F7DB22466946E4
:104930000E9800F097FD2046D2E7FFB589B0159D8F
:104940001C461A462846149F139E0B9900F08AFDB8
:1049500004A912986A460391C1C209A807C8234650
:10496000FFF73DFE002801DBB84202D00020C04323
:10497000D2E6281900903346129A0A990998FFF74F
:1049800079FF002802DA0120C043C5E6A4196019A6
:1049900000903B4604AA0A990998FFF7A3FF002854
:1049A00002DA0220C043B7E62018B5E6FFB58DB0A5
:1049B00017ACA1CCA84203D20520C04311B0F0BD72
:1049C000461B169804A9009132182B460E990D9893
:1049D000FFF788FF040001D4AC4202D00020C0439E
:1049E000ECE733460097169A0E990D98FFF742FFB1
:1049F00006000FD008A803900097019602950DA815
:104A00000FC8FFF7ECFD002801DBA84205D002200B
:104A1000C043D3E70120C043D0E7844202D0032043
:104A2000C043CBE7002004A908AA07E00B5C155C93
:104A3000AB4202D00420C043C0E7401CA042F5D3E3
:104A40003046BBE7FFB58DB0189D179804A9169F97
:104A5000461B0091F2192B460E990D98FFF742FF65
:104A6000040018D4AC4216D108A803900097019610
:104A700002950DA80FC8FFF751FE00280BDBA842D6
:104A800009D1844207D1002004A908AA06E00B5CE2
:104A9000155CAB4201D0002090E7401CA042F6DB41
:104AA00001208BE770B54906490E049C0E06050AE5
:104AB000354320706570050C0E043543A5700D025A
:104AC000000E2843E070D00101432171002007212E
:104AD0000A1A2518401C9A5CC0B26A710828F7D3DC
:104AE00070BD10B510210C4800F0D5FC10BD70B59C
:104AF0000C460146084A0020235C155C6B40235499
:104B0000401C1028F8DB204600F05FFC10222146F4
:104B1000014800F0A7FC70BD471A0020FCB5002238
:104B20008B5C8354521C92B2102AF9D301231D01CD
:104B30002A18114620390E7FFF4CB6464E7F0F7C57
:104B4000A65D7E40FD4FFF5C7E4046558F7F0197FE
:104B5000E65D4F7C7E405670B446CE7F0096A75DE2
:104B60008E7C774097707646A45DCE7C7440D4707E
:104B70000E7D455D6E401671B6464D7D66467540AC
:104B80005571AC468D7D76467D409571CF7D6740F1
:104B9000D7710C7E74401472A6464C7E66467440F3
:104BA00054728E7EA4466E409672CD7E74467D40D1
:104BB000D5720F7F67401773497F64466140517318
:104BC000019F77409773009E5B1C6E409BB2D6732B
:104BD0000B2BACD3FCBDF0B591B00D4604460027BD
:104BE00039012278685C49194240D348825C2270BE
:104BF00023790E797340C35C2371237A0E7A734054
:104C0000C35C2372237B0E7B7340C35C2373637886
:104C10004E7873409C4663794E797340C35C6370F1
:104C20000593637A4E7A7340C35C6371637B4E7BFA
:104C30007340C35C63726346C35C6373A3788E780E
:104C400073409E46A6798B795E40B446A37A8E7AED
:104C50005E40835DA3700493A37B8E7B5E40865D84
:104C6000A6717346C35CA3726646835DA373E37B40
:104C7000CE7B73409C46E37ACE7A7340C35CE37389
:104C8000E379CE797340C35CE372E378C9784B4033
:104C9000C15CE1716346C15CE170059B1046584000
:104CA000049B06464B405E40029200F0A7FB217831
:104CB0007040414021706078A178484000F09EFB30
:104CC0006178704041406170A078E178484000F020
:104CD00095FBA17870404140A170E078029A504065
:104CE00000F08CFBE17870404140E17020796279FE
:104CF0000146A379E6795040024673405840064683
:104D00001046029100F07AFB2279014671404A4038
:104D100022716079A179484000F070FB6279014608
:104D200071404A406271A079E179484000F066FB29
:104D3000A279014671404A40A271E0790299484047
:104D400000F05CFBE279014671404A40E271207A52
:104D5000617A0246A37AE67A484001467340584099
:104D600006460846029200F049FB227A014671404D
:104D70004A402272607AA17A484000F03FFB627A92
:104D8000014671404A406272A07AE17A484000F0E0
:104D900035FBA27A014671404A40A272E07A029A3B
:104DA000504000F02BFBE27A014671404A40E2722B
:104DB000207B627B0146A37BE67B5040024673402A
:104DC000584006461046029100F018FB227B01462F
:104DD00071404A402273607BA17B484000F00EFB8B
:104DE000627B014671404A406273A07BE17B484090
:104DF00000F004FBA27B014671404A40A273E17BB4
:104E00000298484000F0FAFAE27B014671404A40BD
:104E10007F1CFFB2E273092F00D2E1E63A0121784C
:104E2000A85C41404448415C21701091511923799C
:104E30000A795340C75C27710D97227A0B7A5A4042
:104E4000875C27720997227B0B7B5A40825C227316
:104E5000059262784B784E795A4063797340C75C0B
:104E60006770637A4E7ABC467340C75C67710C9773
:104E7000637B4E7B7340C75C67720897825C62738A
:104E80000492A3788A788E795340A2798F7A7240FF
:104E9000A67A7E40875DA7700E97A67B8F7B7E40AB
:104EA000875DA7710B97C65CA672825CA273E77BD5
:104EB0009646CA7BA03557400097E27ACB7A5A4093
:104EC000835CE373E279CF797A40825CE272E778BF
:104ED000C9784F40C15DE1710A91009FC05DE070EB
:104EE0002F78109979402170697867464F40677034
:104EF000A9780E9F4F40A770E9784840E070287964
:104F00000D9F4740277168790C9F47406771A879CA
:104F10000B9F4740A771E8790A994140E171287ACF
:104F2000099F47402772687A089F47406772A87AAE
:104F30004640A672E87A03E06865001068670010D2
:104F40004240E272287B059A42402273687B049AB1
:104F500042406273A87B72464240A273E87B4340A2
:104F6000E37311B0F0BDF0B50446027808460D4673
:104F7000A030017891B04A402270637841784B406C
:104F800063709E46A37881784B40A3700B93E378BF
:104F9000C1784B40E370079321790379594021711F
:104FA000677943795F406771A37986797340A3710C
:104FB0000993E379C6797340E3710693237A067AFD
:104FC000734023720E93637A467A7340637202933E
:104FD000A67A837A5E40A6720596E37AC67A734013
:104FE000E3720493237B067B734023730D93637BEF
:104FF000467B734063730193A67B837B5E40A673FD
:105000000396E37BC07B4340E3739C46FA489023BE
:10501000825CEB5C5A402270425C294690310B79ED
:105020005A4022710E9BC25C0B7A5A4022720D9B31
:10503000C25C0B7B5A402273019B4E7BC25C4B7857
:105040005A40029BC35C73406373C35D4E7A7340E6
:1050500063727346C35C4E797340637162700B9BDD
:105060008E7BC25C8B7A8F785A40099BC35C7340FD
:10507000059E865D7E40A670039E8F79865D7E408C
:10508000A671A272A373079BC25CCB7B5A40069B9E
:10509000C35CCE787340E370049BCE79C35C7340ED
:1050A000E3716346C35CC97A4B40E372E27308263E
:1050B0002078A178484000F0A1F900F09FF9074658
:1050C0006078E178484000F099F900F097F921788C
:1050D00079402170617841406170A1787940A17078
:1050E000E1784140E1702079A179484000F086F9EB
:1050F00000F084F907466079E179484000F07EF9D4
:1051000000F07CF9014620797840207160794840B0
:105110006071A0797840A071E0794840E071207A10
:10512000A17A484000F06AF900F068F90746607A11
:10513000E17A484000F062F900F060F9217A7940A4
:105140002172617A41406172A17A7940A172E17A5B
:105150004140E172207BA17B484000F04FF900F014
:105160004DF90746607BE17B484000F047F900F0CD
:1051700045F9217B79402173617B41406173A17BBB
:105180007940A173E17B4140E17320786278014668
:10519000A378E778504002467B40584007461046C7
:1051A000029100F02BF92278014679404A402270A2
:1051B0006078A178484000F021F962780146794092
:1051C0004A406270A078E178484000F017F9A27870
:1051D000014679404A40A270E0780299484000F0C8
:1051E0000DF9E278014679404A40E270207962790F
:1051F0000146A379E779504002467B405840074674
:105200001046029100F0FAF82279014679404A40AE
:1052100022716079A179484000F0F0F86279014686
:1052200079404A406271A079E179484000F0E6F89F
:10523000A279014679404A40A271E079029948403A
:1052400000F0DCF8E279014679404A40E271207AC8
:10525000627A0146A37AE77A504002467B40584082
:1052600007461046029100F0C9F8227A01467940BB
:105270004A402272607AA17A484000F0BFF8627A10
:10528000014679404A406272A07AE17A484000F0D3
:10529000B5F8A27A014679404A40A272E07A0299B2
:1052A000484000F0ABF8E27A014679404A40E272A9
:1052B000207B627B0146A37BE77B504002467B401C
:1052C000584007461046029100F098F8227B0146AC
:1052D00079404A402273607BA17B484000F08EF801
:1052E000627B014679404A406273A07BE17B484083
:1052F00000F084F8A27B014679404A40A273E17B2A
:105300000298484000F07AF80146E37B79404B4030
:10531000E373217838489E46425C31016B5C491941
:105320005A40227022790B79825C5A402271227A8B
:105330000B7A825C5A402272227B0B7B825C5A4041
:105340002273627B4B78825C4F7B5A40637AC35CEA
:105350007B40637363794F7AC35C7B40637263788D
:105360004F79C35C7B4063716270A2788F78835CF5
:105370008A7A5340A2799C46825C8B7B5A40A37AFE
:10538000C35C7B40A370A37B8F79C35C7B40A3711C
:105390006346A372A273E278CB7B825C5A40E379C6
:1053A000CF78C35C761E7B40E370E37ACF79C35C31
:1053B00076B27B40E3717346C05CC97A4840E072C4
:1053C000E273002E00DB73E6CBE510B5ACB004460B
:1053D0006846FFF7A3FB69462046FFF7FCFB2CB0AD
:1053E00010BD10B5ACB004466846FFF797FB6946A0
:1053F0002046FFF7B8FDF2E768660010C1094000DB
:10540000002903D0C0B21B2148407047C0B270478A
:1054100030B50B46014600202022012409E00D464C
:10542000D5409D4205D31D469540491B25469540D4
:1054300040191546521E002DF1DC30BD70B5002418
:105440002546002801DA01244042002901DA01251D
:105450004942FFF7DDFFAC4200D04042002C00D0B3
:10546000494270BD03460B439B0703D009E008C9BE
:10547000121F08C0042AFAD203E00B780370401C04
:10548000491C521EF9D27047D2B201E00270401C92
:10549000491EFBD270470022F6E710B513460A46B4
:1054A00004461946FFF7F0FF204610BD30B504460C
:1054B0000020034600E05B1C934203D2E05CCD5C1D
:1054C000401BF8D030BD0321001D401E037812029E
:1054D0001A43491EF9D51046704703460322087047
:1054E000000A491C521EFAD518467047F8B5024604
:1054F0004A40D40F42004B0052085B089A4202D245
:105500000246084611464A0023D0C30D4A00DDB2C8
:10551000120EAD1A202D35DA49020126490AF60588
:105520008A19002C00D0524220214F1B1146B9404D
:105530002A411018C20D9A4221D0002C17D0012DFB
:1055400008DCDA05801AD20F8019D207DBB200F02E
:1055500081FAF8BDDA05801A012340001B06C01845
:1055600080185A428018CA0F1043490007E04908C2
:10557000C2071143DA05801A80194008801800F02C
:1055800061FAF8BD61000122511A001BF7E7012200
:10559000D2075140AAE70122D2075040A6E70000F7
:1055A000F0B507460846584087B0C00F0490480041
:1055B0000E46590040084908BC1A884105D23846B1
:1055C00031461E4617460B46024658004008104317
:1055D0004CD0300D039040055900400D490D059009
:1055E000401A0290402872DA18030121000B0905C5
:1055F0000843019004980092002805D00199524276
:105600000020884100920190029840210A1A0199D5
:10561000009800F0E3F905460C466B4607CB00F016
:10562000FEF9C0197141039A0E0D0023D717564099
:105630001A467A40164344D0049A002A2DD0029A82
:10564000012A039A15DC1205C01A9141012636057C
:10565000001C7141D20F059ED20700930192029661
:105660002A46234600F03CFA07B0F0BD38463146E2
:10567000FAE71605224A0F46B218C01AB7410121AF
:105680000905001C4F4100187F4111461818794147
:10569000E20F10436D19644113E0E2076D081543F2
:1056A0006408C2071443039A01261205C01A9141E7
:1056B0003605001C7141CE07400830434908C01828
:1056C00051412A46234600F0FEF9CDE7FFE7049852
:1056D00001224000C117121A00238B410498314661
:1056E000C417381AA141EEE730B40124E40763403F
:1056F00030BC55E730B40124E407614030BC4FE7CB
:105700000000E0FFF0B51FB488B00B9909980024A1
:1057100048400999C00F490049080991C0070B99F1
:105720000090490049080B9109990898A64608433A
:105730001CD00B990A98084318D0099801244000FE
:10574000420D4800410D099824050003000B204339
:1057500009900B980003000B20430B9050181C4934
:105760004018002201901446104605E00020014632
:105770000DB0F0BD032801DA034600E003239C4688
:10578000C11A0AAE0AE05F0008ADED5B4F00F75B9F
:105790007D430027AA187C41491C5B1E6145F2DD50
:1057A000410004AB5A522104120C0A43240C401C41
:1057B0000828DFDB01980290009970460191009063
:1057C000059B049A0799069800F08AF9D0E7000033
:1057D0000DFCFFFFF0B50C465C4085B0E40FE4071C
:1057E00003944C0000266408590094464908024678
:1057F0000296224321D062460A431ED06200570D12
:105800004A000E032303550D012402462C492405AA
:10581000781B1B0B360B4018234326436146009030
:105820001C46501AB44103D30098401C009002E07B
:10583000921800985B41002803DA0020014605B069
:10584000F0BD0020012109050746864611E06446A7
:105850001D46141BB54106D36546521BB341744621
:1058600007430C43A646CD07400849082843921831
:105870005B4105460D43EAD11046184313D06046FC
:10588000194650407140084306D06046101AB34193
:1058900006D20122002306E000220123DB0702E0FA
:1058A0000122D2435310009874460105381C61410F
:1058B000029C039D0019694100F005F9BFE7000053
:1058C000FD03000010B500229623114600F0C2F837
:1058D00010BD00000EB5C217C10F5040CA074018D6
:1058E0000021054B0293019200910A460B4600F0FD
:1058F000F7F803B000BD0000330400000EB5054901
:105900000291002100910A460B46019100F0E8F84F
:1059100003B000BD330400004A0009030123090B52
:105920001B051943094B10B5520D9A4201DA0020AC
:1059300010BD064B34339A4203DC9A1A00F05EF82D
:1059400010BD03495118884010BD0000FF0300003E
:10595000CDFBFFFFC20FD207400040080BD0C10DA6
:105960000723DB01C91840020905400A1143C20898
:10597000400711437047002001467047F0B51FB43F
:105980000646002082B005464024019100901BE0AD
:10599000019922460F46304600F030F8049A059BE4
:1059A000801A994110D310461946224600F016F885
:1059B000361A8F410197224601200021009F00F0F6
:1059C0000DF838184D4100902046641E0028DFDC99
:1059D000019B00982946324607B0F0BD10B5202A39
:1059E00004DB0146203A9140002010BD9140202365
:1059F0009C1A0346E3401943904010BD10B5202A7D
:105A000004DB0846203AD040002110BD0B46D340AD
:105A1000D0402024A21A91400843194610BD10B569
:105A2000202A06DBCB170846203A1041C1170B434A
:105A300006E00B461341D0402024A21A91400843AF
:105A4000194610BD002904DA401C490001D1400864
:105A50004000704770B40024050C05D110240004E8
:105A600002D1002921D01124050E01D100020834F1
:105A7000050F01D10001241D850F01D18000A41C58
:105A8000002801DB4000641C002908D020252E1BC3
:105A90000D46F540A14000D00121294308430106ED
:105AA0001B1B000ADB1D02D5002070BC7047DB0504
:105AB000181880180029F8DA401C4900F5D170BC8C
:105AC00040084000704710B5002B08DA0024401C45
:105AD000614192185B411A4301D14008400010BD5A
