:020000041000EA
:10000000E0670020E11B0010E91B0010EB1B001053
:1000100000000000000000000000000000000000E0
:10002000000000000000000000000000ED1B0010B8
:100030000000000000000000EF1B0010F11B00108A
:100040003F110010FB410010F31B0010F31B0010C8
:10005000F31B0010F31B001055130010F31B0010CE
:10006000F31B0010291800104D1800107118001013
:1000700095180010B9180010F31B0010F31B0010A6
:10008000F31B0010F31B0010F31B0010F31B0010F8
:10009000F31B0010F31B0010F31B0010F31B0010E8
:1000A000F31B0010FF130010F31B0010F31B0010D4
:1000B000F31B0010F31B0010F31B0010F31B0010C8
:1000C00000F002F800F0BDF80CA030C80838241881
:1000D0002D18A246671EAB4654465D46AC4201D180
:1000E00000F0AFF87E460F3E0FCCB64601263342F5
:1000F00000D0FB1AA246AB463343184710690000F4
:1001000030690000103A02D378C878C1FAD8520793
:1001100001D330C830C101D504680C6070470000BD
:100120000023002400250026103A01D378C1FBD813
:10013000520700D330C100D50B60704710B56E294F
:1001400002D105F09FF810BD702902D105F0D9F950
:1001500010BD662902D106F045FA10BD652902D10D
:1001600006F040FA10BD672902D106F03BFA10BD37
:10017000612902D1C046C04610BD03681B0A01D3E5
:1001800080231943692902D105F046F810BD64297E
:1001900002D105F041F810BD752902D105F03CF8F7
:1001A00010BD6F2902D105F057F910BD782902D191
:1001B00005F094F910BDE92902D105F0F3F810BD5E
:1001C000E42902D105F0EEF810BDF52902D105F0C1
:1001D000E9F810BDEF2902D105F04AF910BDF82960
:1001E00002D105F089F910BD0368DB0901D3802332
:1001F0001943632902D105F000FD10BD732902D116
:1002000005F003FD10BDE32902D105F00DFD10BD81
:10021000F32902D105F010FD10BD002010BD1FB55F
:1002200005F06AFD04000020002106F017F9401CCB
:1002300060600020002106F0FBF8E0601FBD10B5F3
:1002400010BD05F031FD1146FFF7E9FF00F089FD13
:1002500006F052F803B4FFF7F2FF03BC06F09CF877
:1002600070B505460C46164602E00FCC0FC5103E91
:10027000102EFAD2082E02D303CC03C5083E042E5A
:1002800007D301CC01C5361F03E021782970641C17
:100290006D1C761EF9D270BD1FB500216846017035
:1002A00007214172192189014181F8498181032186
:1002B00081730021017201F0EEFCF54801F0D7FCDA
:1002C000F3484078F349C873F14880780874F048DF
:1002D000C0784874EE4800798874ED484079C87455
:1002E000EB4880790875EC480378EC480178EC4AD3
:1002F000E84801F0D3FC1FBD3EB505460C46E94871
:100300000078012827D1E8480078002813D0E74971
:1003100068460180E5491F3941802C2181800221F6
:100320000181142C00DD14242B462246694602204C
:1003300001F08AFF3EBD0121684601800321418012
:100340001F218180012101812B462246694601201F
:1003500001F07AFFEEE70020ECE710B586B0044626
:10036000D3A103C90191009004A801F00FFE6846D3
:10037000428A018AD0A001F061F9002C02D0012C40
:100380003CD120E06846408A002814D06846008AA4
:10039000102810DD0020CF490870102168464181E7
:1003A000C821C18100218181C021017204214172D3
:1003B00002A802F041FAC8A001F040F90521684600
:1003C000FFF79AFF1AE06846408A0A2815DA68465D
:1003D000008A502811DA5021684641810A21818122
:1003E0004B21C900C181C02101720421417202A8C0
:1003F00002F022FABEA001F021F900BF00BF06B052
:1004000010BD13B582B06846408915214902884263
:1004100009D1BDA003C8019100900524694620467A
:1004200001F0F1FE9DE068464089B949884208D153
:10043000B8A000680190022401A9204601F0E3FE63
:100440008FE068464089B2492831884209D1B2A17B
:1004500003C90191009008246946204601F0D3FEAB
:100460007FE068464089AA492331884209D1ACA17E
:1004700003C90191009007246946204601F0C3FE9C
:100480006FE068464089A2492431884209D1A6A17B
:1004900003C90191009005246946204601F0B3FE8E
:1004A0005FE0684640899A492631884208D1A0A079
:1004B00000680190042401A9204601F0A4FE50E048
:1004C0006846408992492531884208D199A0006840
:1004D0000190042401A9204601F095FE41E0684600
:1004E00040898B492731884208D193A00068019048
:1004F000042401A9204601F086FE32E068464089C6
:1005000083494F31884209D18CA103C901910090E0
:1005100007246946204601F076FE22E068464089BD
:1005200062491E39884207D186A0006801900421E3
:1005300001A8FFF7E1FE14E0684640895B491A31E3
:1005400088420DD1002101910020009001A9684648
:1005500001F014FB69466846007901F054FE00E0A2
:1005600000BF1FBD0FB410B568464089022807D1EF
:100570006846827B03A90331734801F0EEF80DE071
:100580006846408949491A31884207D100206F499D
:1005900008706846817B0F3001F0C4FA10BC08BCBB
:1005A00004B0184710B5FFB0FFB082B00446601C1D
:1005B00003F068FF012805D101F075FB64A001F08C
:1005C0003DF86BE1601C03F05DFF042817D10020AB
:1005D0003449087001206349087000203D490870C3
:1005E0005A49087060490870584908700622A11DD0
:1005F0005EA001F060F80120FFF7AFFE4EE1601C45
:1006000003F040FF08280DD10020564908705649D4
:1006100008702449087061795AA001F00FF801F0C0
:1006200042FB3BE1601C03F02DFF0121C90388421E
:100630002BD1A1796279080210431C49884205D068
:10064000A179627908021043012816D1A17A627A51
:1006500008021043012805D0A17A627A08021043EB
:10066000022806D14FA000F0E9FF01200D490870D3
:1006700014E100200B49087010E1A17962790802A9
:1006800010434D4988429CD108E197E0FF3F0000AC
:100690003400002012000020320000202E00002034
:1006A000300000200C0000200D000020E7FE0000BC
:1006B000FC01000000000000696E74657276616CD8
:1006C0003A2578206C6174656E63793A25780D0A55
:1006D00000000000100000205365745570646174C0
:1006E00065206F7461206C696E6B0D0A000000005C
:1006F00053657455706461746520696F73206C690B
:100700006E6B0D0A00000000554152544600000077
:10071000012A0000FFFF000053594420496E632E58
:10072000424C4520312E3000312E302E300000005A
:10073000322E3030332E3030342E3030023A09052C
:100740000A02000000010304D40000200F00002072
:100750004741505F4556545F4144565F454E440DF6
:100760000A0000000E000020740000204741505F86
:100770004556545F434F4E4E4543544544206164B3
:1007800064723A004741505F4556545F44495343B1
:100790004F4E4E45435445442825303278290D0AA2
:1007A0000000000073746172745F747820656E617C
:1007B000626C650D0A0000000F180000601C03F059
:1007C00061FE0121C902884210D1FF22F832214680
:1007D0001531684603F0F5FDFE4A611D7EA803F061
:1007E000F0FD7EA80FC8FFF7BDFE57E0601C03F0C8
:1007F00049FE01218902884209D10822611DFEA813
:1008000003F0DFFDFF99FE98FFF7FBFD46E0601C5B
:1008100003F038FE0121890388423FD0601C03F0B9
:1008200031FE102806D10120EB490870EBA000F042
:1008300005FF33E0601C03F025FE802803D1ECA007
:1008400000F0FCFE2AE0601C03F01CFE01214902BE
:10085000884223D1A179627908021043030005F090
:10086000BAFD0604080C1014181CE6A000F0E6FE01
:1008700013E0EAA000F0E2FE0FE0EEA000F0DEFEE2
:100880000BE0F2A000F0DAFE07E0F6A000F0D6FEE2
:1008900003E0F9A000F0D2FE00BF00BF7FB07FB040
:1008A00002B010BD00B591B001F0CCF9F748099045
:1008B000F7480A90F7480B90F7480C90F7480D90CE
:1008C00009A801F04BFB032168460177002141771D
:1008D000807F81088900491C68468177807F0421D8
:1008E00088430146684681771021C177002108A816
:1008F00001700321417007A801F033FB062168460F
:1009000081800921C1806421018141810621017317
:100910003221417300218173C1730174012101A847
:100920004173002181730221C173002101740321ED
:100930004174002181740421C174002101750521D5
:1009400041750021817501F019FBD549FF20013067
:1009500003F0A9FDD249091DD24803F0A4FDD048F7
:1009600001F03CFCD04801F04BFC002001F075FD8B
:10097000FFF792FC012108A80176002141760EA91B
:100980000231002003F08FFD0FA90231002003F097
:100990008AFD0EA801F0AEFD11B000BD70B5C348D0
:1009A0000078012847D1C2480068C1494968884297
:1009B00041D00024BE494968BD4A1268881A1421F2
:1009C00003F083FD401CC5B2B9494968B84A1268B2
:1009D000881A142103F079FDCEB200BF27E0681E0B
:1009E000A04211DCB249C968B14A12688818314680
:1009F000FFF782FC002806D00025AD48006880196A
:100A0000AB49086011E014E0A949C968A84A126816
:100A100088181421FFF770FC002805D0A44800684E
:100A20001430A349086000E003E0601CC4B2AC428B
:100A3000D5DB00BF00BF70BD08B50020009004E00A
:100A400001226946002000F0F8FC69469848103001
:100A500000F0C0FE0028F3D108BD10B5954800781D
:100A6000401C944908700846007802280BDB0020DF
:100A70000870012000F097FF8D4800F0C0FE0028AC
:100A800001D1FFF78BFF10BD10B5002442E0182CF8
:100A900032D008DC002C0DD0022C22D0042C21D026
:100AA0000A2C2BD113E01E2C27D01F2C1BD0222C5C
:100AB00024D10DE00021204600F0C7FB0121204693
:100AC00000F0DBF90021204600F03FFA1FE000BFF4
:100AD0000021204600F0B9FB0121204600F035FA44
:100AE00015E000BF00BF0021204600F0AEFB002152
:100AF000204600F02AFA0AE000BF08E00021204664
:100B000000F0A3FB0021204600F0B7F900BF00BFB2
:100B1000601CC4B2272CBADB10BD70B504460D466C
:100B20000721142000F091FB0721152000F08DFB18
:100B3000002C07D00721122000F087FB072113208B
:100B400000F083FB0620002815DBC206D20E01212F
:100B50009140594A116000BF00BF00BFBFF34F8FE3
:100B600000BF00BF00BF00BF00BF00BFBFF36F8F5B
:100B700000BF00BF00BF00BF5048006800780009F8
:100B800000012907090F08434C49096808704B48C0
:100B90000068007880218843E101802211400843E9
:100BA0004649096808704548006800784021884334
:100BB00042490968087041480068807808218843E4
:100BC00008303E490968887092003D49384800F075
:100BD000BBFD77E0070200000F0000204741505F97
:100BE0004556545F454E435F4B45590D0A00000082
:100BF0004741505F4556545F454E435F5354415201
:100C0000540D0A0075706461746520727370204120
:100C1000434345505445440D0A000000757064611B
:100C20007465207273702052454A45435445440D03
:100C30000A0000007570646174652072737020543E
:100C4000494D45524F55540D0A00000075706461BE
:100C500074652072737020535543434545440D0A13
:100C600000000000456E61626C65206C6174656E09
:100C700063790D0A0000000044697361626C6520AD
:100C80006C6174656E63790D0A000000F4650010F4
:100C90001E660010136600105D6600101B670010D2
:100CA00000000020A5050010080000200C00002016
:100CB000C40000201100002080E100E0500000206E
:100CC000E40000204148406A402108433F4948620F
:100CD0000846006A402108433C4908620620002873
:100CE00005DBC206D20E01219140394A116000BFD6
:100CF00070BD10B537480078002831D035480078ED
:100D0000012804D002280CD0032827D116E032A0F5
:100D100000F094FC02202F4908700020314908702F
:100D20001DE030480078401C2E49087008460078C5
:100D3000C82802DD2CA000F081FC10E0002025492D
:100D400008702CA000F07AFC01F0E4FBFF202D30AD
:100D500000F040FA2BA000F071FC00E000BF00BFE3
:100D600010BD72B6FFF79EFD032001F0ACFB01F051
:100D7000BEFB012001F0B3FBFFF786FE0821002037
:100D8000FFF7CBFE23A226A128A000F057FC2DA040
:100D900000F054FC012252022E492F4800F0D4FCEE
:100DA00062B600F080FF2DA000F048FC0CE001F0DE
:100DB000D0FB0A2000F0F6F8FFF79BFF16232C4A21
:100DC0000421012001F029FCF1E70000008002204D
:100DD00000E100E0740000204F5441207374617200
:100DE000740D0A00750000204F5441206661696C43
:100DF000650D0A004F54412066696E6973680D0ADB
:100E0000000000005265736574206661696C65645A
:100E10000D0A000031313A35313A3230000000001D
:100E2000446563203133203230313800535944381F
:100E300038323120424C45756172742025733A2551
:100E4000730D0A005359442D54454B2E496E630DC2
:100E50000A000000E4020020D40000206761705FF7
:100E6000735F6164765F73746172740D0A000000D1
:100E7000F82A0000D3490860704770B50246202464
:100E80001440630920251446AC430125A54028469B
:100E90009C00CD4D2C592075050A6575050CA5756E
:100EA000050EE575002B13D0002908D1C74D6D7DC7
:100EB0000543ECB2C54D6D7DC44E747515E0C34D50
:100EC0006D7D85432C46C14D6D7DC04E74750CE023
:100ED000002905D1BD4C64680443BC4D6C6004E03E
:100EE000BA4C64688443B94D6C6070BD70B50246FD
:100EF00020241440630920251446AC430125A54055
:100F00002846002B13D0002908D0B04DED7D0543B5
:100F1000ECB2AE4DED7DAD4EF47515E0AB4DED7D13
:100F200085432C46A94DED7DA84EF4750CE00029B3
:100F300005D0A64CE4680443A44DEC6004E0A34C47
:100F4000E4688443A14DEC6070BD30B50B462024AD
:100F50000440610920250446AC430125A5402A46EA
:100F60008C00994D2C592276150A6576150CA576BC
:100F7000150EE576002B0AD08C00934D2C5922716A
:100F8000150A6571150CA571150EE57109E08C0047
:100F90008D4D2C592272150A6572150CA572150E0D
:100FA000E57230BD10B520230340590920240346C3
:100FB000A34301249C4022468B00834CE3581A73C0
:100FC000140A5C73140C9C73140EDC7310BD10B502
:100FD00020230340590920240346A34301249C40B5
:100FE00022468B00784CE3581A71140A5C71140C79
:100FF0009C71140EDC7110BD10B5202303405909FB
:1010000020240346A34301249C4022468B006E4CBF
:10101000E3581A72140A5C72140C9C72140EDC727F
:1010200010BD30B501462020084042092024084662
:10103000A0430124844023469000634C2058403054
:10104000102404192578284665782D022843A578B0
:101050002D042843E478240620431840002801D0BA
:10106000012030BD0020FCE7F0B503460C461546D4
:1010700020221A40500920261A46B24301269640E3
:101080003146002C0BD182004F4EB25840321172C3
:101090000E0A56720E0C96720E0ED6720AE082007E
:1010A000494EB258403211710E0A56710E0C9671AB
:1010B0000E0ED671002D0BD18200434EB258203255
:1010C00011760E0A56760E0C96760E0ED6760AE03D
:1010D00082003D4EB258203211750E0A56750E0C24
:1010E00096750E0ED6758200374EB25820321171A9
:1010F0000E0A56710E0C96710E0ED6710022002A41
:1011000005DBD706FF0E0126BE40314F3E6000BF13
:10111000F0BD10B520230340590920240346A34302
:1011200001249C4022468B00274CE35820331A723E
:10113000140A5C72140C9C72140EDC7210BD70B533
:1011400000243CE0A00020490858403014214118F8
:101150000A7810464A78120210438A781204104323
:10116000C97809060843A100174A515820310A4698
:101170001378194653781B02194393781B041943BB
:10118000D2781206114308400546002D00D114E024
:101190000C480068002804D029462046094A1268F5
:1011A0009047A0000849085840300575290A417544
:1011B000290C8175290EC17500BF601CC4B2022CB8
:1011C000C0DB70BD440000203C00002040100050F7
:1011D00000E100E0002109E0002201E0531C9AB286
:1011E0007D239B019A42F9DB4B1C99B28142F3DBD0
:1011F0007047002107E0002201E0531C9AB2092A3F
:10120000FBDB4B1C99B28142F5DB704710B5014600
:10121000272901DA002902DA0020C04310BDCC07DB
:10122000E40F202904DA4A101B480068835C05E0BB
:1012300008462038421018484068835C002C01D0D2
:101240001811EBE71807000FE8E770B5272801DA57
:10125000002800DA70BD0907090FC407E40F202831
:1012600004DA43100C4E3668F21805E00646203EBC
:101270007310094E7668F2181578002C01D00F26ED
:1012800000E0F0263540002C01D00E07310E2E462E
:101290000E43167000BFDDE748000020002815DB74
:1012A000C206D20E01219140944A116000BF00BFD6
:1012B00000BFBFF34F8F00BF00BF00BF00BF00BF24
:1012C00000BFBFF36F8F00BF00BF00BF704770B596
:1012D00004460D460620FFF7E1FF894800680078C4
:1012E000000900012907090F0843854909680870AA
:1012F00083480068007880218843E1018022114002
:1013000008437F49096808707D48006800784021DB
:1013100088437B490968087079480068807808210B
:101320008843083076490968887092007549764884
:1013300000F00AFA7548406A402108437349486240
:101340000846006A4021084370490862062000F000
:10135000CBF870BD70B56A480068047830206040F2
:1013600005466748006805701020204000280DD011
:1013700000BF634800680179634800F01DFA6048C7
:101380000068C078C007C00F0028F2D070BD70B5EB
:1013900004460D461920FFF781FF59484068007840
:1013A000000900012907090F0843554949680870D9
:1013B00053484068007880218843E1018022114031
:1013C00008434F49496808704D48406800784021FB
:1013D00088434B494968087049484068807808212B
:1013E0008843083046494968887092004849464811
:1013F000103000F0A9F9192000F076F870BD70B532
:101400003F48406804783020604005463C484068CA
:1014100005701020204000280ED000BF38484068DA
:1014200001793948103000F0C7F935484068C07874
:10143000C007C00F0028F1D070BDF0B50B460124E5
:101440002404002112E000BF85002D4E7559ED786F
:101450002D07ED0F002DF7D1850075596D785E5C75
:1014600035468600264FBE597570491C9142EADB0D
:1014700000E0641E8500224E7559ED786D07ED0F72
:10148000002D01D1002CF4D1F0BD70B504460D46FD
:1014900021011D4A8818294600F09CF970BD70B5DD
:1014A00004460D4600BF022C01DB002070BD210167
:1014B000154A881800F0A3F900280AD12001124922
:1014C0004018C5682101104A881800F0A1F9C0B27F
:1014D000ECE70020EAE70146012901DD0020704722
:1014E0008800074A1058FAE7002806DBC206D20E29
:1014F00001219140014A803A1160704780E100E08B
:1015000050000020E4000020C400002000800220E1
:10151000E402002010B502460620002815DBC406B0
:10152000E40E0123A3407F4C236000BF00BF00BF37
:10153000BFF34F8F00BF00BF00BF00BF00BF00BFA1
:10154000BFF36F8F00BF00BF00BF00BF76480068C9
:101550000078000900010B071B0F1843724B1B6832
:10156000187071480068007880239843D301802464
:10157000234018436C4B1B6818706B480068007858
:10158000402398434030684B1B68187066480068D9
:10159000C078102398431030634B1B68D8706248A2
:1015A000006880780823984308305F4B1B68987068
:1015B0005E48406A402318435C4B58621846006AF4
:1015C00040231843594B18620620002806DBC40646
:1015D000E40E0123A340534C803C236000BF10BDA8
:1015E000F0B50B4601242404002112E000BF850061
:1015F0004D4E7559ED782D07ED0F002DF7D1850073
:1016000075596D785E5C35468600474FBE597570DA
:10161000491C9142EADB00E0641E8500424E755988
:10162000ED786D07ED0F002D01D1002CF4D1F0BD48
:1016300010B508210020FFF76DFF10BD0FB438B5BD
:1016400000240498002803D138BC08BC04B0184713
:1016500005A800903648009A049902F073FEC4B2BF
:1016600000200090802C00DD80242246304900209C
:10167000FFF7B6FF00BFE7E70FB438B50546002413
:101680000598002803D138BC08BC04B0184706A848
:1016900000902748009A059902F054FEC4B2002039
:1016A0000090802C00DD8024224621492846FFF747
:1016B00097FF00BFE7E7F8B505460E46174600243A
:1016C000002D02D02846FFF7B9FF00241BE020467A
:1016D000E117490F0918C910C900611A03D1A1B255
:1016E00014A0FFF7ABFF315D14A0FFF7A7FF601C4C
:1016F000C117490F0918C910C900411A02D111A018
:10170000FFF79CFF641CBC42E1DB2046E117490F58
:101710000918C910C900611A02D00AA0FFF78EFF8C
:10172000F8BD000080E100E05800002000800220A9
:10173000E40400205B253034785D200025303278C9
:10174000200000000D0A0000002343600360826057
:10175000C1607047416801607047F8B504460F46A4
:10176000154660684019A168884219DBA088281ACC
:1017700086B26268E16888183246394602F021FE76
:10178000A81B85B22068A84202DC2088401E85B2D2
:10179000B9192A46E06802F014FE65607019F8BDB8
:1017A0006268E16888182A46394602F00AFE6068D5
:1017B000401960602846F2E702465368581C5060A2
:1017C000D068C15493685068984201DB0020506093
:1017D00001207047024653681068984201D10020EA
:1017E00070471368581C1060D068C05C087093681C
:1017F0001068984201DB002010600120F0E70146EC
:101800004A680868904201D1012070470020FCE737
:10181000014600224B680868984200DD8A684868E3
:1018200080180B68C01A704710B56E480068007EBB
:1018300040084000401C6B49096808766A48006807
:10184000002802D068490868804710BD10B5654877
:101850004068007E40084000401C624949680876A4
:1018600061484068002802D05F494868804710BD41
:1018700010B55C488068007E40084000401C594913
:101880008968087658488068002802D056498868D8
:10189000804710BD10B55348C068007E4008400026
:1018A000401C5049C96808764F48C068002802D0DB
:1018B0004D49C868804710BD10B54A480069007E90
:1018C00040084000401C47490969087646480069BD
:1018D000002802D044490869804710BD01468800AD
:1018E000404A10580078C007C00F7047F0B5044652
:1018F0000E4615462046FFF7F1FF002801D1052CC2
:1019000001DB0020F0BDA00037490E50042C13D19C
:10191000A00034490A585179177909023943084619
:10192000917909040843A1002E4A51580D712A0AE1
:101930004A71280C88710EE0A0002A49095848799C
:10194000097900020843A9B20846A100254A515866
:101950000871000A4871002B0BD0A00021490858DB
:10196000007F40084000401CA1001E4A51580877E3
:101970000CE0A0001B4908582030007840084000C7
:10198000401CA100174A515820310870A000154989
:101990000858007840084000401CA100114A5158E6
:1019A00008700120AEE700B503461846FFF796FF22
:1019B000002801D0052B00DB00BD9800094908581C
:1019C0000078400840009900064A5158087000BF4E
:1019D000F2E701468800034A10580078C007C00F9C
:1019E00070470000600000206405002070B50446C8
:1019F0000E4615460E206A4909680870681C684939
:101A0000096848706648006884702A463146644810
:101A10000068C01C02F0D5FC70BD08B561A0FFF7DE
:101A20000DFE00F083FD002802D00020009001E0B0
:101A300001200090012269461620FFF7D7FF08BD5C
:101A400038B50446002500BF2CE0E01C415D594834
:101A500002790079401CC3B2564803712038815482
:101A600020300079202819DB52492039096A4801C1
:101A7000504A203A202100F05CFD002802D00020CE
:101A8000009001E00120009000214A4801712038B7
:101A9000006A401C47492039086201E0002000909C
:101AA000681CC5B2A078A842CFDC01226946172085
:101AB000FFF79CFF38BD38B504463E480079002842
:101AC00008D03C4A1179203A126A5001394A203A2A
:101AD00000F02FFD204602F0D5FC05466079217903
:101AE000000208430246294633A0FFF7A7FD20461F
:101AF00002F0C8FC054660792179000208430346DC
:101B00002A460021084600F01FFD002802D00020D0
:101B1000009001E001200090012269461820FFF7A3
:101B200065FF38BD70B504460E4625462878162850
:101B300004D017280BD018281ED116E00020FEF77D
:101B40000CFCFFF76AFF01202249087014E0A81C72
:101B5000FFF776FF1F480078002802D102201D49B8
:101B6000087000201C49087006E0A81CFFF7A3FFBE
:101B700003201849087000BF00BF70BD70B505464E
:101B80000C46074800684078821C1449284602F039
:101B900018FC034800684078801C207070BD00006D
:101BA0007C000020436D64467745726173650D0AC1
:101BB00000000000980500206F746120737A3A25B8
:101BC0007820636865636B73756D3A2578200D0A1C
:101BD0000000000074000020750000207600002046
:101BE0000748804707480047FEE7FEE7FEE7FEE7B5
:101BF000FEE7FEE704480549054A064B704700002A
:101C0000211C0010C1000010E0170020E067002038
:101C1000E0570020E057002003480449086070475F
:101C2000014802490860704740787D01800000202B
:101C3000FE49202208781043EF221040042210436E
:101C40000870704710B5FA488047002802D001F0AC
:101C500086FF012010BDF6480A300047F4492831BC
:101C60000847F3493C310847F1496C310847F149CD
:101C70000847F0495C310847EE496A310847ED49A9
:101C800076310847EB4986310847EA4994310847DD
:101C9000E849A2310847E749AE31084730B4E64C7D
:101CA000A44630BC6047E44874300047E34800472E
:101CB000F8B5E34DCF222968E24C087800261040A1
:101CC00008702068E0491830884728682268017841
:101CD000127F090912070901120F11430170090748
:101CE000090FBF27012921687ED00A4622314B788F
:101CF00009781B020B43114620310B711B0A4B71F3
:101D00000378117A3B4089010B435906490E017053
:101D1000226841784032127A8909921D920689011F
:101D2000920E1143417021680622801C093102F095
:101D300048FB21684820425C002A04D028684931C9
:101D4000083002F03EFB2168BF4A7020405C323A06
:101D5000713190472868BD4A41788906890E891CEF
:101D600090472868017809090901091D0170226856
:101D70003940127AD207520E11430170226841781D
:101D80002032127A8909921D92068901920E11431E
:101D9000417021680622801C093102F012FB216883
:101DA0002820425C28682931083002F00AFB2868A4
:101DB000A74A41788906890E891C9047256800202A
:101DC0006F7F012181400F4204D0E97F0B225143F4
:101DD0008E19761C401C0328F3D32C4620346078DF
:101DE00021780002084300E019E013214843401C19
:101DF000B04206D2701E02F05EFB401C2070000A4A
:101E000060706078217800020843022803D2022023
:101E1000207000206070287F012824D03AE00B4613
:101E200020318A79CA71197A0278C9073A40490E75
:101E30000A43027051062268490E6032127CD201B8
:101E40001143017041780622890989010C314170E2
:101E50002168801C093102F0B4FA28682168062242
:101E6000083071316DE7E079002813D0607822786E
:101E70000102114313204143A079491CC00302F021
:101E80001AFB401C06467F2102F015FB401CC1B224
:101E9000E1711EE0607921790002084331D0607859
:101EA0002278010211431320414328462230427810
:101EB000037810021843C003491C02F0FCFA401CCE
:101EC00006467F2102F0F7FA401C81B22171080A10
:101ED0006071304602F0EFFA401C7F2800D97F2065
:101EE0000121E975A97F00916178237809021943DE
:101EF000584CEA7FC0B23B46A04756483430804732
:101F0000F8BD0020544CE875034602460121A04765
:101F1000F8BD4A491A3108474848F43000474F484D
:101F2000004738B5049C00944C4C0E34A04738BD93
:101F300030B44A4CE834A44630BC604710B501F0D8
:101F4000F9FE10BD10B501F011FF10BD4349A431D9
:101F5000084743480047424832300047404946312D
:101F600008473F49B23108473D49C23108473C4A1A
:101F7000D032104710B500F0E3FD10BD3849FC31F8
:101F800008473849084737490E310847354936313F
:101F9000084710B501F0B4F810BD33490847294887
:101FA0000068817C427C0802104308D01F4A02204E
:101FB000117801430120014311702B4908477047F4
:101FC000F8B51A48C079000679D51E480668B17C74
:101FD000707C0F0207431548057801D0A80701D48B
:101FE00068076CD5114C207BE17A0002E41C0843A1
:101FF00065D0002F63D060782178000208434DD16E
:10200000307CF17B0002084302F023FF0022174BD3
:1020100002F022FF02F0D0FE80B278430A2102F0E3
:1020200054FA4004010C2170080A21E06A160020CD
:10203000DF5600001558000027590000CD5B000056
:10204000A4000020A0000020451D00002B26000059
:1020500047270000971B000031540000F55C00008A
:102060005B5E0000675F0000B56000000000F43FA9
:102070006070307DF27C000210430A22424391429C
:1020800003D3401E2070000A60706078217800023F
:10209000084303D10120207000206070FD210D4015
:1020A0000121F6480D430570F54900208847607806
:1020B000227801021143F44BF24A09209847F8BDF7
:1020C00010B50F21ED4802F0D9F910BD7CB50546D9
:1020D000401C02F0D7F9082831D0E84C00263E3CDD
:1020E000042831D0802874D0E449C31F0A78FF3B0C
:1020F000FA3B18D001218903884263D1E2490A20C2
:102100002431884760780621484301190A22681D56
:10211000891C02F056F96078401CC0B260700A2831
:1021200057D3667055E0C879002852D0D00650D4F5
:10213000AB796C791802204301280AD049E001F0FC
:1021400015FED248804744E066702670FFF7B8FF5E
:102150003FE08878401E0006000E88702AD0C748ED
:102160004B788179427909021143827A447A1202CA
:102170002243401C012B23D0521A0272120A4272CF
:102180001206037A120C1A43531A69460B804A80CE
:10219000BA490A7BC97A12020A4369468A80417B9E
:1021A000027B080210436946C880B8496846E83196
:1021B00088470EE0087A8870402002430A7008E0E1
:1021C0005218DAE7910604D58004000F01D0FFF71A
:1021D000F7FEAF492846C96888477CBD10B504465C
:1021E000001D02F04FF9AA49C860211DA94802F05C
:1021F0005AF9A9492046884710BDA7492231084706
:10220000A54978310847A44A803210479C4A7A3A57
:1022100010479B4872380047984900203E390A7899
:1022200049788A4200D90A200818801A401EC0B294
:10223000704700B5FFF7F0FF002804D18F48002158
:102240003E384170017000BDF8B50E46074693490F
:102250001C46154601208847002805D023462A46FB
:102260003146384601F042FDF8BDF8B50E46044649
:102270008A491F46154601208847002814D0022CA1
:1022800003D1FFF7C9FF002809D0EAB27C4D3B46D5
:10229000314620466A3DA847012807D004E00A21BC
:1022A000794B7F4A084698470020F8BD022C12D18E
:1022B000724C06213E3C20780A46484300193146BC
:1022C000801C02F07EF82078401CC0B220700A28E2
:1022D00001D3002020700120F8BD70B50D460446E2
:1022E0001121401989031646884201D3002070BD90
:1022F0006C480068213002F0C5F86B4B001932467B
:102300002946984770BDF8B50646EFF3108472B6BB
:10231000644D2868213002F0B5F88019634A012124
:10232000904784F31088614F0024F63FEFF3108547
:1023300072B65C480068213002F0A4F831194018E8
:102340005B4900230A192021B84785F31088012032
:10235000000320348442E9DBF8BDF7B50705019995
:102360003F0D002912D0029900290FD048498978E1
:1023700000290BD101997A18012109038A4205D855
:10238000019A112382181B039A4201D90020FEBD35
:102390000025C41BEFF3108672B642480068213056
:1023A00002F070F86119401841493F4B4A19202149
:1023B000984786F310880120000320358542E9DB29
:1023C0003B48019AC019029901F0FBFF33490120F3
:1023D000884700280AD0EFF3108072B62C490122FA
:1023E0008C808A7080F310880120FEBD2046FFF7A4
:1023F0008AFFF9E72249A8310847214AB03210473D
:1024000038B5049C00941E4CB834A04738BD30B495
:102410001B4CC434A44630BC60471949CC31084732
:10242000174AD4321047164ADC32104730B4144CE5
:10243000E434A44630BC6047114BEC331847104BD2
:10244000F433184730B40E4CFC34A44630BC60471B
:1024500018490847174808300047164910310847FF
:102460001449D23108471349DA310847124908475D
:102470001148323000471048563000476A16002095
:10248000B56000009F1F0010D33300008D5E000078
:1024900084000020CD200010B35F000045850000BF
:1024A000332200109C0000208F1600009F180000AF
:1024B0002C060020B961000017630000F94A10479C
:1024C000F84952310847F7495C310847F54964310A
:1024D0000847F4496C310847F2497631084710B58E
:1024E00001F0C9FB10BD10B501F060FB10BDED4857
:1024F00090300047EB49A431084730B4EA4CA44679
:1025000030BC6047E748F6300047E8480047E749F5
:1025100030310847E54856300047E448603000470E
:10252000E24814300047E14822300047DF4872306B
:102530000047DE4BD6331847DD4B184730B4DC4C30
:102540006634A44630BC604730B4DA4CA44630BC94
:102550006047F8B5D8488047D84CA078002809D003
:10256000A088FFF7D0FEEFF3108072B60021A170B3
:1025700080F31088D24DE87900282CD0000608D5C9
:102580002878400705D5FFF71BFD2878FB21084078
:1025900028702878CB4FCC4E41060AD5BF21084081
:1025A000287002206946088002466B4639460020A2
:1025B000B0472878C1070ED0400840002870800737
:1025C00001D5042000E005206946088002226B4600
:1025D00039460020B0476078C10704D04008400069
:1025E0006070A0688047F8BDB8480047B7483A30E7
:1025F0000047B64852300047B4486A300047B348F5
:102600006E300047B2498A69120A120202434A61D7
:10261000087C012210430874704710B572B6A24CB2
:10262000A047AC48006801214A02104206D1AA48DE
:10263000027ED20702D0027E0A43027662B60120F1
:1026400010BD70B504460320000384422AD9A34874
:1026500003260568B603E878002802D0012810D0C8
:102660001EE02846253001F00DFFA04202D8801957
:10267000A04217D2284629300EE08019A04211D27C
:102680000EE028462D3001F0FDFEA04202D8801950
:10269000A04207D22846313001F0F4FEA042ECD926
:1026A000012070BD002070BD10B572B68C4A9047F5
:1026B00062B610BD70B514460D460646FFF7C1FF61
:1026C000002806D072B62246864B294630469847E7
:1026D00062B670BD10B572B6824BAE33984762B623
:1026E00010BD10B572B67E4CF63CA04762B610BD68
:1026F000F7B50025C80288B00E462C46070C11E03D
:10270000089861010818774B6A46202198470020F5
:1027100069460A5C401C5219C0B295B22028F8D311
:10272000641CA4B2BC42EBD3F6060898F60E610115
:1027300008186C4B6A46314698470020694604E009
:102740000A5C5219401C95B2C0B2B042F8D30A9844
:10275000854202D101200BB0F0BD0020FBE7FFB5A0
:102760000E460121074609035E4B81B05E4A0020F8
:1027700098475D49352208468C3801F022FE5A48B8
:10278000833801F07FFE58495722441856482146A5
:10279000573801F016FE2021601C01F06FFE002565
:1027A000002F10D00020395C00290AD02218401CCC
:1027B000C0B251702028F6D305E02118401C4D709E
:1027C000C0B22028F9D320460521213001F056FE61
:1027D000002E12D00020315C00290CD022182032AB
:1027E000401CC0B251700528F5D306E021182031F5
:1027F000401C4D70C0B20528F8D3214626310398FD
:1028000001F051FE2146223104980872000A4872F4
:102810000121334A2570002090470121314B0903E3
:102820000020314AAE339847012005B0F0BD2F4A51
:1028300010472E4A223A1047FEB50278002A7DD072
:102840001F49CA7142780A72002A01D0042A01D9AC
:1028500004220A72C278847813022343184A1C0A9D
:10286000537294724479057924022C431546EC7214
:10287000260A2E73A646C479857920022843507310
:10288000040A84461A489473056808262C7CE87B61
:10289000240204430120521CA342487031D91C1B5E
:1028A00030E0000091630000E9310000576600004D
:1028B0001B68000061690000D164000084000020F2
:1028C0006A1600200002000031540000713C000034
:1028D0000010005000E100E000A000509C0000202B
:1028E0009F1800008F1600002C060020A72900006A
:1028F000A00000201071000A01E01671300A50712A
:1029000007E0E41A0F7ABC4226DA1071000A50710F
:102910000C72087A88700E70002B1BD050791179D8
:1029200000020843191A6846018043806146C1804D
:1029300071468180A87C697C000200E010E00843B9
:1029400002D072490020884771496846884771491A
:10295000092088470120FEBDFF00BC42CDDAC9E74F
:102960000020FEBDFEB507466B4801780A077DD5FD
:10297000F72211400170BA797C1C7B7912021A434C
:102980007BD0C279120678D51022114301708806D7
:1029900073D4624880470546607921790002084374
:1029A000FF1C002832D002F054FA064600917878D5
:1029B00039780002084302F04CFA594F00223B4696
:1029C00002F04AFA3246009B02F046FA009055485F
:1029D00001910068017CC27B0802104302F039FAC1
:1029E00000223B4602F038FA07460E46607A217A0A
:1029F00000020843401B02F024FA3A46334602F034
:102A00002BFA019B009A01F083FF24E07878397853
:102A10000002084302F09AFB064642480068017C27
:102A2000C27B0802104302F091FB314603F02CFDFB
:102A300002F036FB00223A4B02F00EFA07460E4631
:102A4000607A217A00020843401B02F0FAF93A4604
:102A5000334602F001FA0022334B01F089FF02F005
:102A6000ABF90104090C00D1012101E00EE004E002
:102A7000284B09202D4A243B9847032069460881AA
:102A8000022211022A4C02AB0020A047FEBD38B53D
:102A9000284C2078002804D127496846884701201F
:102AA0002070012038BD10B50B30102801D9FF204F
:102AB00010BD184BC4B22046243B9847204610BD99
:102AC00010B50B30102801D9FF2010BDC4B2114938
:102AD00020468847204610BD072801D900207047AE
:102AE00001228240134843781A43427081600120DA
:102AF00070470C480068C07D70470A480F4900685D
:102B00004118487C097C000208437047B56000000A
:102B1000755F0000F73300006A160020051B0000F7
:102B20000000F43FA000002000002440311C0010F1
:102B300031540000840000209D2C0000630500003B
:102B4000FE498A78002A00D008707047F8B5FB4C1F
:102B5000E3685979002914D0B121C95CC91F09293A
:102B600058D8014618461022D93001F02AFC607866
:102B700002210128E06805D04279D20611D5F0483B
:102B80008047F8BDCA22125C012AFAD1C279012A13
:102B900003D1EC49E9308847F8BD002AFCD1C17166
:102BA000F8BDC279012AF8D1CA21095C012903D0F4
:102BB0000021C171E068ECE76069012601783046C8
:102BC0008840A16980250968884300D181250027B4
:102BD000DD488047E168C919E0317F1CFFB24876C3
:102BE000102FF5D3E0682B460146E93102460091EB
:102BF000FF31F9321131D54DFF305A30A8476069A5
:102C00000078142802D2E068C671D3E7E16800209A
:102C1000C871CFE7CA4B0622002101208C3B9847A0
:102C2000F8BDF1B5C54CA4B0E068A2784179114374
:102C30002BD0CA210B5C2146C24FC9681C37002526
:102C4000E931012B23D00646024671360932049140
:102C5000711E531E0196BB4E02930392CA33C232B9
:102C600000917A36FF300A302499B047E16810228B
:102C70000846D930E93101F077FB00287ED0B04B0F
:102C80000422002101208C3B984725B0F0BD0C9513
:102C90000D950E950F9511951295139514954379F1
:102CA0000126DB06002B01DB002A68D0F930B8478B
:102CB000A24CA078002822D01DA801950090E368BE
:102CC000A34F18460146FF30FF31FA305A31F9332D
:102CD000249AB8471DA8013001F0D4FB18A9097D3A
:102CE000000208439B4901F0E6FB04220191110414
:102CF000994F01AB0020B847207800287ED0E168CA
:102D000007220F4615A8093101F05BFB394607225F
:102D1000713117A801F055FB387A002810A86ED041
:102D200086767020C05D002818A869D0867004A837
:102D30003A460190F9321046844E15ADC03017ABBB
:102D4000009546362499B047E068102204A98130E6
:102D500001F037FB08AE0FCE19AE0FC6E1680322B3
:102D60000E4621A8D33101F02CFB31460322CC3191
:102D700022A801F026FB3046FF3001E06EE01FE0A4
:102D8000EA30039017AF21A96846A2C03146704EC1
:102D9000F93111AB19A86A3E249AB047E26822A91A
:102DA0001046FF30DA300197009103900CAB02958A
:102DB00019A8F9322499B04768490020884764E788
:102DC0005E4A8023526914783246A2405B4CA46963
:102DD0002468A24300D1812300910146FF315A317A
:102DE0005A4CFF30FA30249AA04754481022C06849
:102DF0000146E931D93001F0B7FA02E023E029E0D9
:102E00002AE0002801D004221EE04C4CE068F93092
:102E1000B84761690878401CC0B208701428CED346
:102E2000A1690868020C08A8827410A88271088839
:102E3000020A08A8427410A84271097808A801740F
:102E400010A8017134E70C223D4B002101208C3B7E
:102E500098471AE7857664E7857068E7E06800269A
:102E6000F930B847E368394F1946FF330A33363F24
:102E70001846F931249AB847E06810230146A0317A
:102E800006E017183246FF320A32761CBD54F6B2FD
:102E90004A7C9F1AB742F4DC304900208847E0683A
:102EA0004179490849004171EFE6F0B50446C07820
:102EB00085B0072807D2224B0622002101208C3B37
:102EC000984705B0F0BD1D4E0121F068CB2211548A
:102ED000002506222146CC3001F073FA1120F1685A
:102EE00040010818A0314E7CC17E827F437F04924E
:102EF0000A07D20F009203934A07CF06D30FFF0FA2
:102F000002968A0701970E4E920F817E407E643EA4
:102F1000B047A07810260007002843DA074A11219D
:102F2000D06849014718FB7E19073BD50121CA2209
:102F300011545A0715D4A278520711E094000020CA
:102F40005DA1000055A900004D250000B3AA0000B6
:102F5000FFAB000040420F0031540000F733000087
:102F60000ED57B7E22789D005B19FE4D5B19D55CEA
:102F7000882D02D0102D03D005E0FB4A917002E0AD
:102F80004179314341714179C90634D50B21C901D9
:102F90004018C07D01282ED16421F54BF34A05204D
:102FA000984728E0F04F0021F868CA2211541121F7
:102FB00049014118CA7E520702D4A278520709D5A6
:102FC000497E22788B00C918E64B193BC918555C1D
:102FD000102D02D1417931434171E44AE44B943AD6
:102FE000E449002098476079C00704D0F8680322BC
:102FF000817911438171607980070BD5DA481121FD
:10300000C06849014118897F890703D581790C225D
:1030100011438171207980070BD5D3481121C068F5
:1030200049014118497F890703D54179802211431D
:103030004171CD48C1680846A0304674E278102A34
:1030400000D24274487901221043CB4C4871202DA4
:1030500008D0402D00D034E700231A46402100203C
:10306000A0472EE700231A462021F8E770B5BE4C92
:103070000D46E36800281DD020690C218171194696
:10308000FF3120225A31C01D01F09BF9E16820690F
:10309000FF31202227307A3101F093F90621B74A17
:1030A000412090470B21E068C9014118C97D0029E2
:1030B0001DD01FE01846FF302022FA3001F081F9C0
:1030C0002022AF4BE068A9180E46C01801F079F92C
:1030D000E368AC4C1846FF309A30FF33324629463D
:1030E000BA33A04729460120FFF7C0FF70BD4079E1
:1030F000C00602D4A0780128F8D19C48804770BD52
:10310000F0B5994C0646E06885B04179C9072AD0E8
:10311000FF3010210A3001F0B1F9E068320AC11D18
:10312000F9314E728A72320CCA72320E0A73CA2197
:10313000095C0125012918D00346064601460933DA
:10314000E9365A1E713101AF4EC7491E0091C9338D
:10315000C33289318C4EFF300A30B047E068C17904
:1031600002292FD00BE00020ABE6A0690021066009
:10317000626980231170E268D179022904D0E06885
:10318000C17900292AD02AE000682946814300D16C
:1031900081236168002040314E7D1718E037401CC4
:1031A000C0B27E761028F7D3E068774E0146E93149
:1031B00002460091FF31F9321131E436FF305A30C6
:1031C000B047CBE770497A39E9308847E068CA21CF
:1031D000095C012902D00021C17100E0C571012004
:1031E0006FE670B51446604A1B25136922469D712F
:1031F000D871000A18721846093001F0E2F8E41C90
:103200005E4AA0B20421904770BD70B51446564A7C
:103210001D25136922469D71D871000A187218463F
:10322000093001F0CEF8E41C544AA0B204219047C2
:1032300070BDF7B54C4F5549F86800242546401835
:1032400001F020F93A6911219171827843781202D4
:103250001A43009B411C9A4238D3019B9A4235D8AD
:103260000379C2781B021343029A93422ED102784B
:10327000172A35D03B690622DA714E780A78360271
:10328000164306226243D3181E72360A5E724B79C9
:103290000E791B0233433E69AD1D9619B3721B0AAA
:1032A000F3723E69C379961933733E69037A9219B2
:1032B0005373374BFA68EDB2D3185A7C1B7C120259
:1032C000641C1A43AB1DE4B29A4225D34A790B79A8
:1032D0001102304A194391421ED001780818B4E710
:1032E000002C1BD13B691422DA714C780E78220233
:1032F00032431A72120A5A724A790C791102214326
:103300009972090AD972C11D184610220C3001F0B9
:1033100058F81435EDB201E0002C04D00421174A0E
:10332000A81C9047FEBD144B0A221020A43B009914
:103330009847FEBDF7B50C4F1449F86800252C4698
:10334000401801F09FF83A69092191718278437819
:1033500012021A43009B411C9A4249D3019B9A4294
:1033600046D819E09B680010940000205DA1000081
:10337000D3330000B80B000031540000ED7F000093
:1033800019020000EF2A0000CFA900005D03000031
:1033900063050000FFFF00000379C2781B0213439E
:1033A000029A934224D10278172A2BD03B69042237
:1033B000DA714E780A7836021643AA00D3181E72C4
:1033C000360A5E723E69C3799619B3723E69241D4E
:1033D0009219037A6D1CD372E4B2EDB2FE4BFA6817
:1033E000D3185A7C1B7C12021A43231D9A421ED307
:1033F0004A790B791102F94A1943914217D00178A1
:103400000818A3E7002D14D13B691221D9718278E5
:103410004578110229431972090A5972C11D1846CB
:1034200010220A3000F0CDFF1234E4B201E0002D8A
:1034300004D00421EA4AA01C9047FEBD0A22E94BB1
:10344000082000999847FEBDF7B5E74FE749F868AF
:1034500000252C46401801F015F83A6909219171B0
:103460008278437812021A43009B411C9A423CD353
:10347000019B9A4239D80379C2781B021343029AFE
:10348000934232D10278182A39D03B690722DA7187
:103490004E780A7836021643EA00521BD3181E7281
:1034A000360A5E723E6943799619B372C37986799A
:1034B0001B0233433E69E41D9619F3721B0A3373F2
:1034C0003E69037A961973733E69437A921993732E
:1034D000C14BFA68E4B2D3185A7C1B7C12026D1CF3
:1034E0001A43E31DEDB29A4228D34A780B781102B1
:1034F000BA4A1943914221D001780818B0E7002D4B
:103500001ED13B691521D971827845781102294372
:103510001972090A597241799972C179827909023D
:103520001143D972090A197301461846102208314D
:103530000D3000F046FF1534E4B201E0002D04D058
:103540000421A74AA01C9047FEBD0A22A54B0820D3
:1035500000999847FEBD30B4062912D0417C037C07
:103560000A0241781A430B020478C1788078090274
:10357000234301438B4207D9012219460820994B66
:103580001FE041790379EBE70520C002824202D0B7
:10359000401C824202D130BC1846CBE6944882429D
:1035A00003D118468F4B18330BE09148401C8242E0
:1035B00002D130BC184647E7100A2928184602D025
:1035C0008C4B30BC18478B4BE43BFAE7F0B4002837
:1035D00065D0854C487823690A780702834D1743E4
:1035E00015262D1F5A1CD81C1B2F9E7046D94B78B0
:1035F0000E781B023343302B1AD33023037000267E
:103600004670CE788F7836023E431671360A567170
:10361000037100264671C879897900020843107247
:10362000000A5072E06840190373190A417320E0E0
:1036300003701B0A4370CB788E781B0233431371DF
:103640001B0A53714B790E791B02334303711B0A1A
:103650004371C8798B79000218431072000A5072C6
:103660004878097800020843E16849190873000A9C
:103670004873F0BC0921604A032010471B210170E8
:1036800000234370F32313710026567101714671B4
:1036900013725672E068401901733146C6E7F0BCF8
:1036A000704730B4002816D04F4814210069FB221F
:1036B0008170C27000230371504B43711C0A8471E6
:1036C000C271002202724372190A817209214A4AA8
:1036D00030BC03201047002230BC012076E7F8B54B
:1036E00005464749082088473F4C0B20E168C00148
:1036F0000818807E01282DD10026374601E0042ECF
:1037000004D2E0688019A030877405E03D48804706
:10371000E1688919A0318874761CF6B2082EEED3C0
:103720000026384F01E0082E01D2002000E0B84703
:10373000E1688919A031761CF6B28876102EF2D392
:103740000026B847E1688919E031761CF6B2487660
:10375000102EF6D30B20E168C0010918487E04281A
:1037600002D005281CD01DE0264F0026B847E1688E
:103770008919FF318131761CF6B24876202EF5D3B7
:10378000E068214B0146FF31A1310A7EFF3052062D
:10379000520E0A760A46273A47399A30984701E08E
:1037A00008204876E16820690E46042787700822C1
:1037B000C01CC231B63600F004FE20690422314636
:1037C0000B3000F0FEFD0D210B4A0320904708222C
:1037D00029460A31E06819E063050000FFFF000098
:1037E000ED7F00008D530000940000206503000071
:1037F000022800006B430000958C00004808000080
:10380000558500004D250000C5290000BA3000F0A4
:10381000D8FDE068294604221231B23000F0D1FD13
:10382000A068C078032804D02A7AFE4E002A0AD065
:103830000CE0E068FC4B817D427D080210432A4683
:103840000832294617E0687A002816D0E068014659
:103850006030C37D9A420AD16A7A007E824206D1E4
:1038600008222846793100F07FFD002824D0062266
:103870000021EE4B01209847F8BDE068CA21095CA1
:1038800001290BD00246BA32FF3011460A30B04748
:10389000E068022241791143417112E04179024608
:1038A00039434171BA3211468130B047E068603027
:1038B000C07B012802D004E0E068EFE7DC49022089
:1038C0008847DC488047F8BDF8B501220021DA4B73
:1038D00008469847D94C06202169D94A88700121A9
:1038E00003209047E068D44D417908228B070027D8
:1038F0000A3D002B25DA114341710026A847E168F3
:10390000891980314870A847E1688A199121885443
:10391000A032761CF6B25770102EEFD30026A847BF
:10392000E16889196031761CF6B24876082EF6D324
:10393000A847E1686031C875A847E168603108763A
:1039400014E0CA231B5C012B10D183795B070DD5D2
:10395000114341710026A847E1689122891950540A
:10396000A031761CF6B24F70102EF4D3B549032067
:103970008847AF4D0820103DA847002803D0AC4928
:1039800008200A3188470220A84701283CD10B278C
:10399000E168FF01C819407D012835D12D20400183
:1039A0000A185379002B04D0012B19D0022B25D0F3
:1039B0002AE005220020D2018B1809E00A2646439E
:1039C00076180325B61835760025401C7576C0B2EA
:1039D000DD7B8542F2D8E1680120C919087513E042
:1039E00061688B789B06DB0FD3718A78DF231A40DE
:1039F0008A70E16808188179017205E0914B91792C
:103A00000720914A243B9847884D0220623DA847F1
:103A10000028E068817D407D0FD0090201438B4A78
:103A20000020904781490220483988470420A84750
:103A3000002801D086488047F8BD09020143834B26
:103A400001220020643B9847F8BD3DE710B502789D
:103A5000411C002A11D0022A33D0032A0CD14A7803
:103A60000B781102194310295BD0082904D1021DDB
:103A7000C1781046FFF76FFD10BD4A780B78110230
:103A8000194306290BD003290CD014290ED015296F
:103A900011D00029F0D1001DFEF764FF10BDFFF723
:103AA00013FF10BD001DFFF71AFE10BD011D002001
:103AB000FFF7F7FD10BD021D00210846FFF786FD48
:103AC00010BD4A780B7811021943012918D0032937
:103AD0001AD004291CD00C291ED00D29F0D157482A
:103AE000C1688A795207EBD44A79D209E8D1092210
:103AF0009201891809780129E2D1C069017010BDCD
:103B0000001DFFF7D2F910BD001DFFF71FF810BD13
:103B1000001DFFF786F810BD011D0020FFF7A6FA73
:103B200010BD031DC078062813D0587C197C0202F2
:103B30000A435878197800020843D9789B7809021B
:103B40001943884208D901220146424B1020984768
:103B500010BD58791979EAE7FFF76BFB10BD10B576
:103B600088B03D480090401E0190002468460481C2
:103B70004481062101824182672181812721C181FF
:103B80008482C482354806903549684688472B4868
:103B90000221026A13680B431360426A13680B43E5
:103BA000136044708470047008B010BDFEB500212D
:103BB0006846017001710D4601212A4E7F20B047F1
:103BC000284C0A206946223CA04768460078010933
:103BD000090168460170022001430A20B04701A98B
:103BE0000A20A04768460079400704D56D1CEDB255
:103BF000FA2DF4D108E0FA2D06D001A90A20A04739
:103C0000684600794007F8D5684601780A20B04731
:103C10000020401C80B2FA28FBD301A90A20A0474B
:103C2000684621E0ABAA0000996F0000CB94000029
:103C300055850000019700005725000094000020E2
:103C4000958C0000F7330000FB9800006D6E0000BB
:103C5000017A00008D530000198001004D3A0010D8
:103C600093600000A72900000079000701D401201B
:103C7000FEBD0020FEBD10B5F949FA4CC968002808
:103C8000887013D001281FD002280ED100217F2078
:103C9000A04700210320A04720210420A0470221A3
:103CA0007F20A04703210020A04710BD00217F20D6
:103CB000A04700210320A04720210420A047022183
:103CC0007F20A0470021EEE700217F20A0471F2191
:103CD0000320A04702217F20A04701210020A04708
:103CE00000217F20A0473F210420DDE710B50128F7
:103CF00002D002280ED01BE0487A0C7A0002204342
:103D0000C00715D048790979000208431946FFF722
:103D100068FA10BD487A0C7A00022043800707D564
:103D200048790979000208431946FFF76EFA10BD79
:103D3000002010BD70B5CA4C6068817EFD22114024
:103D40008176E068C84D837F427F203041780078DB
:103D5000090201430120A847606881784906C90F1C
:103D6000E1708178BF221140817070BD10B5BC4CEC
:103D70006068817E022211438176BB4834308047DF
:103D800060688178BF221140E278D207520E114359
:103D9000817010BDFFB51646B14A044650680D4605
:103DA000C37881B000211B0702D5002005B0F0BD0B
:103DB00000BF491C89B26429FAD34030417C89078D
:103DC000FCD4A748C1682D2040010818C07A0128FA
:103DD00004D1FF210531204600F050FBA007012748
:103DE000002807D19E482D21C26849015118897ABF
:103DF000012911D09A48002140680246C032137947
:103E00006354491C89B20229F9D321788906617863
:103E1000298034D5377034E041680846E030427B71
:103E2000037B12021A43837B1B041A43920C9204F5
:103E3000A3039B0B1A430273130A4373120C82737E
:103E40004822525CC37B5206520EDB09DB0113434E
:103E5000C373027A520852000272027A02231A4392
:103E60000272E031087A8007FCD4207880066078FE
:103E7000288001D5377010E0002030700DE000215F
:103E800031700021A41C03E013796354491C89B2EA
:103E90002B888B42F8D8C03047722888801C288035
:103EA0006F4840684030417C890702D5049807700C
:103EB00004E0407CC1070498C90F0170012075E738
:103EC000F0B587B0694800260590684606820672FC
:103ED000067300246649012088470028654803AB23
:103EE00002AA04A910D0FFF755FF002810D15C48A2
:103EF0004068C078C0063CD55A4B02AA04A95D4868
:103F0000803B9847012403E05B4DA847002830D050
:103F1000534DA868C278032A03D1A86A0078012803
:103F2000D3D06846007A012801D1002C09D0514C29
:103F300021780807000F844605281CD0080744D0C4
:103F40007AE04E4C0820A047002807D00220A04766
:103F5000002803D16846007B002807D06846008A05
:103F6000474A801EC1B243489047AEE745493D20CD
:103F7000884707B0F0BD4448E968081842790179DC
:103F800010020843400705D5A31C222204213F4FFD
:103F90000846B8473C48E968801E0918487A097AFB
:103FA00000020843400790D42F487A388047207891
:103FB00070224006C10FE86811540622A11C71301E
:103FC00000F0FFF9A01C32492BE0E868C37D022B0A
:103FD0000FD000236030477B8646012F0BD0002096
:103FE000034329D0032A08D07046007A01281AD04A
:103FF00064E00123EEE70120F2E7059800906846AF
:10400000008A244D0838C3B24806C10FA21C60467E
:10401000A8471348C0686030007A0128A5D11E491E
:10402000A01C884751E7012F03D01B49A01C8847DB
:1040300044E0A01C1949FAE76046032895D00428FB
:1040400093D1E868C37D022B2AD000236030407BE7
:10405000012800D00020034387D0032A22D02DE07E
:1040600094000020A7290000D91B0000841600201E
:10407000458500007C160020B127000069940000EF
:104080003F9C00006F90000083020000EF5400008E
:10409000CB1D0000CB6F0000155C0000995D000097
:1040A0000123D3E7059800906846008A984D801F49
:1040B000C3B24806C10FA21C6046A84705980090ED
:1040C00001966846008A0838C3B220784106000786
:1040D000C90F000FA21C8F4CA047F6E670B5FFB0C9
:1040E0008D4985B00420884700280BD08A490420D8
:1040F0001A318847894880478949162088477FB008
:1041000005B070BD87488047002500280FD0864C39
:10411000E06841790A075ED58279D3071DD08349CB
:1041200081308847E0688179490849003AE068466B
:1041300005807C4D794E863592367D4C09E0694686
:1041400001A8A8470028DAD068460088C1B201A8B3
:10415000B047A0470028F2D0D1E7930709D5734AAA
:10416000014679311C3277309047E068FD22817931
:1041700008E0530708D56D49603191308847E06801
:10418000FB22817911400DE01207F725002A0BDA96
:10419000027A01461046654A093142329047E0688A
:1041A000817929408171AAE729404171034677331B
:1041B0003A2210215F4D0020A8470921E0688901BB
:1041C0004118097801299AD14079C00997D1E1694C
:1041D0000120087093E7A16A097800298FD1E16A6C
:1041E000097801298BD1817D427D08021043524A12
:1041F00001219047E06A057081E770B54A4E70680A
:10420000447844704B4DE00706D0FFF767FF00236A
:1042100001211A460846A847A00706D5FFF750FE19
:10422000002302211A460120A847600706D543480B
:104230008047002304211A460120A847200707D5FC
:104240003E48BC308047002308211A460120A84779
:10425000E00610D570682030407D3149400701D517
:104260003E2000E008208847002310211A46012044
:10427000A8470020B070A0060CD500F027F8002356
:1042800020211A460120A8470023FF211A460131A8
:104290001846A847600611D51F4901208847002805
:1042A00007D0F0686030807B012802D17168072058
:1042B0004875002340211A460120A847E00904D090
:1042C000002380211A460120A84770BD10B512496D
:1042D00001208847002815D01348C16860314A7B07
:1042E000012A05D1426860321378082423431370F1
:1042F000897B012906D14068017C40221143017469
:10430000002141750E48804705486238804710BD3E
:10431000CB6F00007D5C0000458500000F2600008B
:104320006F900000ED340000940000207BA6000098
:10433000371B0000315400004F6E0000C18D00009B
:10434000498F00001CB50C46064B7B446946009023
:10435000204600F0B0FF04460020694600F0BEFF92
:1043600020461CBD8F0F0000034610B50B439B0772
:104370000FD1042A0DD308C810C9121FA342F8D0C8
:1043800018BA21BA884201D9012010BD0020C043CB
:1043900010BD002A03D0D30703D0521C07E0002031
:1043A00010BD03780C78401C491C1B1B07D10378F7
:1043B0000C78401C491C1B1B01D1921EF1D11846E0
:1043C00010BDF8B5042A2CD3830712D00B78491CF2
:1043D0000370401C521E83070BD00B78491C0370DE
:1043E000401C521E830704D00B78491C0370401CEC
:1043F000521E8B079B0F05D0C91ADF002023DE1B3E
:1044000008C90AE0FBF72CFFF8BD1D4608C9FD40AE
:104410001C46B4402C4310C0121F042AF5D2F308E6
:10442000C91A521EF0D40B78491C0370401C521E4E
:10443000EAD40B78491C0370401C012AE4D40978A3
:104440000170F8BD01E004C0091F0429FBD28B07ED
:1044500001D50280801CC90700D002707047002976
:104460000BD0C30702D00270401C491E022904D39E
:10447000830702D50280801C891EE3E70022EEE755
:104480000022DFE70378C2781946437812061B0240
:1044900019438378C0781B04194311430902090AA0
:1044A000000608437047020A08704A70020C8A70BE
:1044B000020ECA707047002203098B422CD3030AF4
:1044C0008B4211D300239C464EE003460B433CD461
:1044D000002243088B4231D303098B421CD3030AC9
:1044E0008B4201D394463FE0C3098B4201D3CB01F9
:1044F000C01A524183098B4201D38B01C01A524129
:1045000043098B4201D34B01C01A524103098B422C
:1045100001D30B01C01A5241C3088B4201D3CB0017
:10452000C01A524183088B4201D38B00C01A5241FA
:1045300043088B4201D34B00C01A5241411A00D2AA
:1045400001465241104670475DE0CA0F00D0494213
:10455000031000D34042534000229C4603098B4283
:104560002DD3030A8B4212D3FC22890112BA030A0B
:104570008B420CD3890192118B4208D3890192118D
:104580008B4204D389013AD0921100E08909C30912
:104590008B4201D3CB01C01A524183098B4201D314
:1045A0008B01C01A524143098B4201D34B01C01AFF
:1045B000524103098B4201D30B01C01A5241C30877
:1045C0008B4201D3CB00C01A524183088B4201D3E6
:1045D0008B00C01A5241D9D243088B4201D34B0001
:1045E000C01A5241411A00D20146634652415B1043
:1045F000104601D34042002B00D549427047634624
:104600005B1000D3404201B50020C046C04602BD49
:104610007047704770470000F0B50C46871A9C4100
:104620000D46861A9D4103D2C01BA141D219634198
:104630000D0D1F0DC94EEC1BAE435CD07F057F0DE9
:104640000026002F51D02D05AC46A943DD020123E1
:10465000ED0A1B051D4320231B1B24D41746E740EE
:10466000381871412F46E740CC199D402818314633
:1046700061410C0D27D161449A4013D50023401CA1
:10468000594152000ED14008400001224B00520512
:10469000D34207D305204007C14201D5B04900E00D
:1046A000B0493046F0BD6B00002A00D001229A18B4
:1046B0001F23203C1B1B01D5002302E0E5402818E6
:1046C00071410C0DD7D0012424050919C407CD0769
:1046D00040084908E40F28436144002CD5D0002449
:1046E000401C61419A40D0D1CDE76A05520DD9D125
:1046F000C90FC907D5E79C4D4E00002801D0012401
:1047000000E0002434195F00002A01D0012600E0F7
:104710000026BE19954FAC420CD8AE420AD8B4421E
:1047200006D001256D05EC42BCD010461946F0BDFF
:104730009942FCD000203946F0BDF0B51FB40C46BC
:104740000F46811A9F412546861A9D4106D20125B2
:10475000ED076F40401ABC4152187B41210D1E0DE0
:104760008D1BAC467D4D8D437ED075056D0D7CD087
:104770000D05AE46AC431B031B0B794D52429D41C8
:10478000202366469B1B14D31746F7403818002693
:104790000090744160462F460741E41900989D40FF
:1047A0002818664116D4714671189A4025D5012300
:1047B00020E093182A466A415200002B00D0521C78
:1047C0001E23203E9B1B002B61DD3541EE17281870
:1047D0006641E8D5001876415B1C9A4000D3401C26
:1047E0004B05F3181524E34010D3002B52D071462B
:1047F0007118D30FC01802D3491C05B0F0BD0123B6
:10480000DB079A42F9D140084000F6E70122520541
:10481000B21801D1002853D00123CC0ADB029943FE
:10482000891E002A08D1020C03D0020C00041039A2
:1048300002E00246002020390023550B05D1120268
:104840000823550B01D152010D23550C01D1120142
:104850001B1DD50C01D192009B1C150D01D15200DE
:104860005B1C2025EE1A01E02CE022E00546F54015
:1048700015439840CA1AE10769181305C918002A98
:10488000BBDA032040070818C10FC9070FE07146C3
:104890006118B2E7F10740080843711071444A00FB
:1048A0000CD001235B059A42A7D2C90FC90700208B
:1048B000A3E74905490D26D1002001E00028F4D1E5
:1048C00000219AE7284D6600002801D0012100E070
:1048D000002171185F00002A01D0012600E00026A7
:1048E000BE19224FA94210D8AE420ED8B14208D00C
:1048F00001256D05E94206D01946A802414010463F
:104900007BE79C4201D0214677E70020394674E7D7
:1049100010B50C465C4005D50124E4076340FFF761
:104920000CFF10BDFFF778FE10BD30B40C465C40A4
:1049300004D50124E407634030BC6DE630BCFCE6DE
:1049400070B50124E40761400D465D4002D4FFF7D5
:1049500063FE70BD6340FFF7F0FE70BDFF0700000F
:104960000000F0FF0000F07F0000E0FF0000F87F93
:10497000F0B5F94D0C091E092C402E402F468BB086
:10498000A7437DD0B543FCD0002E7AD0002CFCD0BC
:104990000D465D40ED0F2543AC1BFF25AD046419AA
:1049A0000894C502440DC9022143500DDC020443A2
:1049B0000120C00701430443D2020191200C110CD5
:1049C00000958C46010423468B430A9161460904F5
:1049D000E24D8A430991010A7D44491980390978D9
:1049E00005464D4301266D18F605751B6943C90C34
:1049F000640B891C4C436418B5012C1B250C2E0438
:104A0000B4434C434D43210C691889090591009D1D
:104A1000E90701D00121C90704912C4601996708D3
:104A2000CD072F434C08059DE10B4D432D0C294626
:104A30006646754302950D4645432E46029D7D1BF5
:104A4000B44100950D465D4301942C0C2F040D4696
:104A50005543AE462D0C3D43029503947546049C88
:104A60002D04641B049406D2029C039D641C002642
:104A700075410395029401AC70CC009F7D1B01E051
:104A80003EE162E1B4410904009507910194059962
:104A9000A4086143090C0C464443650BE7040C462B
:104AA00066467443A646640B3C43039502947446E1
:104AB000049DE4042C1B049406D2029C039D641CF8
:104AC000002675410395029401AC70CC009F7D1BBC
:104AD000B44101940C465C430095650FE7000C4619
:104AE0005443A646640F3C43039502947446049DC8
:104AF000E4002C1B049406D2029C039D641C002637
:104B000075410395029401AC70CC009F7D1BB441AC
:104B1000AE09AF06049DC900AD092F43049DA4064C
:104B2000AD060495079D344369180791059DE10B77
:104B30004D432D0C29466646754302950D46454367
:104B40002E46029D7D1BB44100950D465D430194A8
:104B50002C0C2F040D465543AE462D0C3D430295BB
:104B600003947546049C2D04641B049406D2029C95
:104B7000039D641C002675410395029401AC70CC22
:104B8000009F7D1BB44101948C050694079C890A03
:104B9000611800950791019C0599A4086143090CCF
:104BA0000D464543680BEF040D46644665436C0BA8
:104BB0003C43049FED047D1BAC4602D20025641CDF
:104BC0006841009E019D371B854108465843019569
:104BD0000C46460FC5005443600F28436546E40069
:104BE0002C1B02D20025401C6E41019D3F1AB5418D
:104BF0002846BD09800628438446A009BF064E0208
:104C00000699A40676180743079D002068410A9973
:104C1000079019430020099B00906046FF19134339
:104C20004041E20F64003A43A4460446D71A8C413F
:104C3000A04203D90120009020463A46C70F94189D
:104C400040416246D20F2243644664000494009CB3
:104C5000BE466400D71AA446044602978C417746A4
:104C6000002F01D1A04204D96046401C8446029A1C
:104C70002046C40FA64694184041049A0546D20F18
:104C8000224364466400D31A8D417146002901D144
:104C9000A84202D928461A46641C10430122002863
:104CA00000D0164361020020079B891904465C412D
:104CB0000223002C02DB491813466441089DCE0AEA
:104CC0002D145D194B056705E10A2C050D1908998E
:104CD0003E43C9076940002B08D0934006D3002209
:104CE000761C5141002B01D1760876001C4A002D1C
:104CF00043DB154241D0AA433FD030460BB0F0BD54
:104D000006180D464D41174C7642AC411AD3951802
:104D10001C465C41134A6D42A24113D30122520545
:104D20004C00D4420AD15C00D4420BD04B4002D597
:104D300092021143E2E749004908DFE75940C90FF1
:104D4000C90718E000200849D8E7054801420DD1FD
:104D50000342F7D0F2E700000000FF07D81E000072
:104D60000000F07F0000E0FF0000F87F114859408C
:104D70000143C01241400020C0E70123089A9B066E
:104D80009A4205DC032252078918C90FC907B5E703
:104D9000052252078918074A1143D2125140ADE744
:104DA00070B515461C4602460B4628462146FFF7BD
:104DB000DFFD70BDFFFFFF7F0346CA02400D10B547
:104DC00010430A1504D00124E4072043002A05DB20
:104DD0000A4CA21A04D4D040FF2A00DD002010BDE6
:104DE0004A00002B01D0012000E000201018012211
:104DF0005205D042F2D8C817C04310BD1E040000AF
:104E00001F22030C02D10F22000402D0030E03D094
:104E100004E00020014670470002083A030F01D168
:104E20000001121F830F01D18000921E002801DBB8
:104E30004000521E120551184205C012411810467A
:104E40007047C10FC90700D04042012292071143A9
:104E5000D6E701218907D3E7F0B58B4C0F0925462A
:104E600089B0BD437BD01D092646AE43FAD00E461D
:104E70005E402740F60F3E43254071D02401214279
:104E8000FBD0FF24AD19A4042D1B039501252D058E
:104E9000DB02DB0AC9022B43C90A29431E010901AF
:104EA000040F130F050121431701880B820391435F
:104EB0002D098C46A90B1E438A039543B30B9A0315
:104EC00096433F09BA0B9403A74302962E467E43AE
:104ED0000497B6464E19D7190C46019654430597C8
:104EE0007E43371B7646BF1B3601B646BE0B3619CE
:104EF00000967646BC043719009C01D3641C0094CC
:104F00006400002F01D001263443029E049F7543A4
:104F100066467E430496760034196E003419009478
:104F2000029C019E1C196643751BAE46069465469D
:104F30004519059C05956C43594375460891691AB6
:104F40000191049E01465143A41B0491611A009CE7
:104F50000791E10605D061090122114302E072E0E8
:104F60006EE06109089D00272C0A2D066918049D32
:104F70007C412A0A2D066918019D6241AC0DAD02E3
:104F80006D185441079A910D920255196141029A88
:104F9000644658435443069B059A5A43121A131BFE
:104FA0009A0E9B015B187A41010B0005C318514111
:104FB000220A200644195A419A4200D2491C012073
:104FC0004002814203D315230226F64302E0142354
:104FD0000326F6432020C51AA9401746AF40DA4001
:104FE0000A4320460399D84009147318190551182B
:104FF000039A3843D2075140AC4009D00122944073
:1050000006D30022401C5141002C01D14008400031
:105010001E4A934212D3012203989206904207DB64
:105020000520400709181A480143C012414004E016
:10503000032040070818C10FC907002009B0F0BDC0
:105040000020F107FAE705180C464C4111486D4263
:10505000A04115D394181A465A410E486442904113
:105060000ED301204A004005824209D35A008242F1
:1050700006D35940C90F084AC90700201143DDE78C
:1050800000200649DAE700000000FF07FE070000E5
:10509000FFFFFF7F0000E0FF0000F07F0000F87FCF
:1050A0000121C9050123411842001B06D3185B0EDC
:1050B0000AD0C1100722D206891840075242D142B5
:1050C00001D5520089187047090208D50146002A07
:1050D00003D0C10FC9070020704710467047420235
:1050E00002D0002002497047072109050143F4E777
:1050F0000000F87F1F22030C02D10F2200041CD0F5
:10510000030E01D10002083A030F01D10001121F62
:10511000830F01D18000921E002801DB4000521E47
:10512000D2055118021251181922904004D3491C7B
:10513000002801D14908490008467047C10FC90736
:1051400000D04042012292071143D3E70121890791
:10515000D0E770B5044685690068C10601D53026E0
:1051600000E02026C00707D070BD62683046A16805
:105170009047206A401C20626D1EF6D570BD70B548
:10518000044685690078C00707D170BD6268A168D0
:1051900020209047206A401C20626D1EF6D570BD0D
:1051A00009684A0501D540B27047C905FCD500B26F
:1051B000704709684A0501D5C0B27047C905FCD5DA
:1051C00080B2704770B50C460546012A05D0287894
:1051D000800600D5EA69002302E0012305E05B1C9C
:1051E000934202D2E05C0028F9D1A869E618C01AFF
:1051F000A861286AC01828622846FFF7AAFF04E0C1
:105200006A682078A968641C9047B442F8D328469D
:10521000FFF7B5FF70BD0000F7B5002575291068D0
:10522000009914A611D0FFF7BBFF002802DA404214
:1052300011A608E0009909688A0701D50FA602E0C7
:10524000490704D50EA6012501E0FFF7B2FF009F34
:105250000024243704E000F013FD30313955641C7C
:105260000028F8D12B4632462146009800F057FA24
:10527000FEBD0000000000002D0000002B0000001B
:105280002000000011680268006A530501D508700B
:1052900009E0D30501D5088005E0130602D5C21741
:1052A00005C100E0086001207047000001694A1C48
:1052B00002610878704700B58FB002910021059116
:1052C000054901937944039111460490684600F022
:1052D00025F90FB000BD0000E5FFFFFF0A68107060
:1052E000521C0A6070470000F7B50446154686B0A8
:1052F0002B487844002703C83E460090019111E0F6
:1053000007986A467100415A02A800F099FC411CB6
:1053100007D02178890603D5E269391891420ED861
:105320003F18761C2078800602D5E069B84206DD79
:10533000AE42E5DB07987100405A0028E0D1A06931
:10534000C01BA0612046FFF704FF154878445A3877
:1053500003C800900020019116E041006A460798BA
:10536000415A02A800F06CFC0590401C0AD00025B0
:1053700005E0626802A8A168405D90476D1C059831
:105380008542F6D30498401CB0420490E5DB206AC5
:10539000C01920622046FFF7F2FE09B0F0BD000000
:1053A0003E160000F7B5D21D0025D20815A6D20082
:1053B000F52905CA11D0002A05DA002140429141A1
:1053C00011A60A4608E0009909688B0701D50FA6C7
:1053D00002E0490701D50EA601251146009F0024D1
:1053E000243704E000F05EF930323A55641C02467E
:1053F0000A43F7D12B4632462146009800F08FF938
:10540000FEBD0000000000002D0000002B00000089
:105410002000000070B504460021243408E0550740
:10542000D2086D0F303565545D072A43DB08491CEF
:1054300015461D43F3D10468002310A2250708D5A3
:1054400020252C400C4304D0C46901230CA2641E07
:10545000C46100F064F970BD10B5044621461068BF
:10546000FFF7A7FE002302462046FFF7D3FF10BD3B
:10547000D21DD108C9000CC9CCE700000000000013
:1054800030000000F8B50F460188090502D5224C0E
:105490007C4402E0204C7C440E3405460021243537
:1054A00008E016071209360FA65D6E541E07324338
:1054B0001B09491C16461E43F3D1224604780023DB
:1054C000240705D5702F06D0002901D00223113200
:1054D00000F025F9F8BD01231032F9E770B5044654
:1054E0000D4621461068FFF764FE00230246294658
:1054F0002046FFF7C7FF70BDD21DD308DB000CCBE1
:10550000C0E730B4036820241268234303600823F3
:10551000C36130BC0023B5E7A8140000F3B504460E
:10552000002081B020622046E1688847002872D0C0
:10553000252802D06268A168ABE0594F00267F445D
:105540002046E16888472028054608DB312D06D231
:10555000781920380078002801D00643F0E7B0071A
:1055600001D5042086430020E0610746A0612A2D72
:105570000AD0284600F054FF002827D0B8000019B0
:10558000303D0090856119E00298BA00121902C8F6
:10559000916102902046E1688847012F054617D1A6
:1055A000E06900281FDA202086431CE000980A21C9
:1055B0008069484300994019303888612046E16885
:1055C0008847054600F02CFF0028EFD1012F0AD0B4
:1055D0002E2D08D12046E168884705462020064345
:1055E0007F1C022FC3DBA069002803DA4042A061C0
:1055F00001200643F00701D0102086436C2D0BD00C
:10560000682D09D04C2D3CD06A2D38D0742D38D05F
:105610007A2D36D016E040E0E1682F4620468847D4
:10562000B842054609D16C2F29D001208002E168DB
:10563000064320468847054604E06C2F1DD0FF2016
:1056400001300643002D28D028464138192803D8B8
:105650000120C00206432035204626602946029AD2
:105660001646FAF76BFD002810D001280BD0F61D66
:10567000F008C0000830029055E74020E1E78020A4
:10568000D5E70020D3E7361D02964CE7626828462E
:10569000A1689047206A401C44E7206AFEBD0000D4
:1056A000221400000B4670B50246890780080843A3
:1056B00019469D08141AA941250908070543080938
:1056C0002C194841250A01060D43010A2C194141B4
:1056D000200C0D0428430D0C00194D4100214019E8
:1056E0004D41C00869070843E908840F8D00254330
:1056F000840024184D4124196D41121BAB4107E071
:105700000925ED432C11521963410024401C6141CD
:105710001C460A250026551BB441F1D270BDFFB5C9
:1057200004460D4681B0243000902168880604D5D7
:105730001022E0699143216000E00120A84201DDD0
:10574000471B00E000270498A1697A191018081A6D
:10575000A0612078C00602D42046FFF7FAFC00269C
:1057600008E003986268A168805D9047206A401C49
:10577000761C206204988642F3DB2078C0060AD5A6
:105780002046FFF7E6FC06E06268A16830209047FB
:10579000206A401C206238467F1E0028F4DC07E0A7
:1057A00000986268A168405D9047206A401C2062B2
:1057B00028466D1E0028F3DC2046FFF7E0FC207829
:1057C000000602D5022005B0F0BD0120FBE7000075
:1057D0007047FFB50C461E468FB003CA089009916A
:1057E0004F007D0D00D16D1E002108460020C046EF
:1057F0000321099A89050840002A03DA82008018EB
:1058000040080840800D01280A9002DD0020C043B6
:105810000A90089807430DD0EF48F04928184843EC
:105820000714189800281DD07542291E1DDD0A98FE
:1058300042421BE01898012802D00020302104E0E9
:105840000020F24305E02154401CB042FBDB30460F
:105850000022189B002121540F998B600A60486038
:1058600013B0F0BDBD1B6D1CDFE70A9A002900DAFA
:1058700069420BA800F088FA0BAB07CB03AB07C358
:105880000899099800F0E4FA6B4607C30146D4482A
:105890000918002D00910ADDD14903980A9A49425E
:1058A000401803A90390684600F0F7FC07E003994D
:1058B0000A9A081803A90390684600F0C4FC6B46D6
:1058C00007C30004000C03D00020C043410800E0DF
:1058D0001046189A002A03D00022009215461EE0B6
:1058E000751E05D4FFF7DEFE303262556D1EF9D508
:1058F00001220843079602D000227F1C04E0207892
:10590000302801D100227F1E002A069789D01EE090
:10591000112D07DAFFF7C6FE303262556D1C0246C4
:105920000A43F5D1084303D00098002819D00EE0AF
:105930000021681E05E0235C625C63542254401E13
:10594000491C8142F7DBA81B401E07950690079A69
:1059500018990020A0540F98079B069A81600CC0EC
:105960007EE71126002018905BE7D21DF0B50D46AA
:105970000446D10893B0C90003C90C900D9100F002
:1059800039FD02460D98C00F01D02D2007E0206898
:10599000810701D52B2002E04007C00F4001032AF8
:1059A0000F9001D0072A05DB03462946204600F068
:1059B000A7F90EE12078800601D5E76900E0062707
:1059C0002846652D04D0662814D0672D69D12DE0B6
:1059D0000020112F009001DB112300E07B1C0CAA9A
:1059E00003A910A8FFF7F5FE1199002610987D1C59
:1059F0000E9142E001203B460CAAC0070B9001200B
:105A0000009003A910A8FFF7E4FE119D12981099C9
:105A1000002600280E9501D1781C0D18781B02D4A1
:105A200046427D1C761EE81B00903AE0012F00DA0A
:105A300001270020112F009001DD112300E03B46DB
:105A40000CAA03A910A8FFF7C4FE11993D461098AF
:105A500000260E91217809070BD40E99A94200DA8D
:105A60000D4603A9012D04DD4A19203AD27F302AC0
:105A700006D0B84201DA011D04DA012100910FE0DD
:105A80006D1EEFE7002802DC86192D1A03E0411C89
:105A9000A94200DD0D46801B401C00900120C0077C
:105AA0000B902078000705D40098A84202DB002064
:105AB000C043009069460020C8720B98012102AFD4
:105AC0000337C907884225D0022010902B2011905F
:105AD0000B9800280BDA40420B902D20119006E025
:105AE0000B9800F0CDF830317F1E0B903970109973
:105AF000481E00291090F3DC0B980028F0D1119873
:105B00007F1E38702088000501D5452000E0652003
:105B10007F1E387001A8C01BC01D0B900F98002875
:105B200000D0012041190098C01709180B980818D7
:105B3000A169081A401EA0612078C00602D4204640
:105B4000FFF707FB0F98002805D06268A16890470F
:105B5000206A401C20622078C00625D52046FFF729
:105B6000F8FA21E0002E07DB0E98B04204DD03A80E
:105B70006268805DA16802E06268A1683020904799
:105B8000206A761C401C20620098401E002800906D
:105B90000AD100F0B1F8C06862680168405CA16891
:105BA0009047206A401C206228466D1E0028D9DCE0
:105BB00007E062683878A1687F1C9047206A401C23
:105BC00020620B99481E00290B90F2DC2046FFF75B
:105BD000D6FA032044E6000001FCFFFF104D000050
:105BE000E1DFFFFF10B54369002B02D0C046C0467D
:105BF00001E0FFF7E7FA012010BD127801462431D9
:105C00000A7000224A700122ECE711680022D24398
:105C1000E8E710B54369002B02D0C046C04601E05A
:105C2000FFF762FB012010BD1288014624318284F7
:105C30000022C2840122ECE711680022D243E8E787
:105C400070B516460C46054600F04EF80368FF2076
:105C50000230C05C012807D0FF2C0ED8185D002848
:105C60000BD001202C7070BDFF3332462146083323
:105C70001868C3182846984770BD0020C04370BDFF
:105C800001468008081A02091018020A1018020CAE
:105C90001018C008820012185200891A01E0401C36
:105CA0000A390A29FBD27047754600F02DFBAE4633
:105CB000050069465346C008C000854618B020B5A7
:105CC000FBF798FF60BC00274908B6460026C0C510
:105CD000C0C5C0C5C0C5C0C5C0C5C0C5C0C5403DA4
:105CE00049008D467047000010B500F005F8001D12
:105CF00010BD00BF6907000000487047A0170020D2
:105D0000F8B51F46044601230068DB02032601465E
:105D10001840072A05DB002801D017A506E017A5C3
:105D200004E0002801D016A500E016A5102081434C
:105D30002160A069C01E002FA06101D0401EA0619B
:105D40002046FFF706FA002F09D038466268A1689E
:105D50009047206A401C2062C01C206206E0206A36
:105D6000FAE762682878A1686D1C9047761EF8D221
:105D70002046FFF704FAF8BD4E414E006E616E00FA
:105D8000494E4600696E6600F7B516468AB02F4840
:105D900078446C4603467C33C06F5A689B680DC4D8
:105DA0002A487844763003AC0DC80DC43720C001B2
:105DB000081837211B30FEF788FB05460C46803D4E
:105DC0001B3C02D56442012000E00020002709901E
:105DD0000FE0E0070BD00C201C4978437944324691
:105DE0004C394118684600F02EFA6B4607C3641020
:105DF0007F1C002CEDD1154F7F442C3F15E0E807A8
:105E000011D02001C0190EC80691089307920068AE
:105E1000F04201D198190890324606A903A800F073
:105E200012FA03AB07C36D10641C002DE7D1324694
:105E300069460998002803A802D000F02EFA01E074
:105E400000F001FA0A9B07C30DB0F0BDE40B00009F
:105E5000034640000A4610B5400D0BD00121C9078A
:105E60000F24A40200191C0364082143540D21438C
:105E7000D20207E000210120F2E7D40F49002143BC
:105E80005200401E0029F8DADB0FDB07184310BD73
:105E9000FFB50D46144685B04868516800F083FA96
:105EA00000910190A868A16800F07DFA029103902A
:105EB000A868616800F077FA029A1218824202928A
:105EC00001D2012000E00020019A0B18D21800280E
:105ED000019202D08A4202D903E08A4201D2012013
:105EE00000E000200099081800906868A16800F0A0
:105EF0005AFA029A12188242029201D2012000E05C
:105F00000020019A0B18D2180028019202D08A4270
:105F100002D903E08A4201D2012000E0002000996A
:105F20000818009028682168400049004008490886
:105F30004018EE49471814E001994000C90F084382
:105F40000090019802994000C90F084301900298FF
:105F500003994000C90F08430290039840007F1E38
:105F6000039000980028E7DA0898002801D0E04E56
:105F700000E00026B74228DAF71BF806C00E15D05D
:105F8000029B2021091A039A8B401A430392029A1A
:105F9000019BC2408B401A430292019A009BC2406F
:105FA0008B4000991A430192C14000917A110BD0A5
:105FB0006B460320811A01D5002101E08900595860
:105FC0008700401ED951F5D537460398029900281D
:105FD00000D00120014308980291002808460CD007
:105FE000002800D001200199019A490508430121A8
:105FF000D20AC902D202019200E001210E9B0122C5
:10600000D207012B02D0002B03D013E0002807D1C8
:1060100016E0904204D890420CD1019B0B4209D06B
:10602000019B5918019105D10099491C009101D19A
:106030007F1C0092002803D0102108460020C04693
:1060400028682168019B009A4840C10F0598C9073C
:1060500039430EC009B0F0BDFFB587B0099A089862
:1060600008995368926840688968964600220393AD
:1060700017469446089A12685300099A5B081268FA
:10608000520052089A1A9B4BD4180A9A002A01D03F
:10609000352200E040220692002201231546049298
:1060A000DB07059324E0002D05D175460346039ECA
:1060B0004D1BB34109D375466646039B491B049D9E
:1060C0009841059B7519AC465F4163463B4308D038
:1060D000059B049EDD0776082E435B080496059316
:1060E00001E0521E641EC50FED0749184041521CC5
:1060F000069B9A42D7DB002D04D17546039A6B1A92
:10610000824101D203200CE0039A0B466B404240CF
:10611000134303D0014303D0012002E0022000E03A
:106120000020614601910021009702910A990029FF
:1061300005D06146400201436D4B019102E08007AA
:10614000002302909C423ADA1A1BD006C00E15D0EA
:10615000029D2021019C091AC5408C402543029CC8
:106160008C4000D001242543019C02953D46C4404B
:106170008D4039462C43C1400194009154111DD0EB
:106180006D460221002202290CD10320001B07E0EA
:10619000002804DB8600AE59002E00D00122401CEE
:1061A0000328F5DB081B02D588002A5004E0800094
:1061B000285810438A00A850491EE3D51C460A9867
:1061C000002802980CD0002800D001200199019AE3
:1061D000490508430121D20AC902D202019200E016
:1061E0000121109B0122D207012B02D0002B03D0EA
:1061F00013E0002807D116E0904204D890420CD159
:10620000019B0B4209D0019B5918019105D10099BE
:10621000491C009101D1641C0092002803D0102178
:1062200008460020C04608980999019A0068096844
:1062300048400099C30F0798DB072343036082603F
:1062400041600BB0F0BD1FB5002300920A46014625
:1062500001A8FFF71DFE01AB07CB04B010BD1FB5B1
:10626000012300920A46014601A8FFF711FE01AB87
:106270000F2407CBA402C30F4000DB074008001B1C
:10628000002900DB0020490000054908CC0A204312
:1062900049051843D20A1143DFE71FB500230092D6
:1062A0000A46014601A8FFF7D7FE01AB07CBD4E7AA
:1062B0001FB5012300920A46014601A8FFF7CCFE54
:1062C00001AB0F2407CBA402C30F4000DB0740083B
:1062D000001B002900DB0020490000054908CC0A0A
:1062E000204349051843D20A1143B6E702C0FFFF15
:1062F000013C0000FF3F000010B50446C046C04608
:106300002046F9F7A7FF10BD00487047801700200E
:10631000024670B50A4392072AD11E4DEE0104C809
:1063200008C9541B9443344017D0D0B2D9B2401A94
:106330002106014310D190B299B2401A21040143C1
:106340000AD110021902000A090A401A2102014367
:1063500002D1100E190E401A70BD9A42DFD010BA49
:1063600019BA884201D9012070BD0020C04370BD18
:1063700002780B78401C491C002A09D09A4207D1A8
:1063800002780B78401C491C002A01D09A42EFD0B9
:10639000D01A70BD0101010101491820ABBEFEE712
:1063A000260002007047F8B5040C8BB2264682B274
:1063B0005E43104658430D0C370C360400218019FB
:1063C000164679416E43370C3604801926467941CA
:1063D0006E438919F8BD30B47446641E2578641C78
:1063E000AB4204D3635D5B00E31830BC18471D4625
:1063F000F8E700004900CA020243100000D0042060
:106400004A0D01D001221043044A490D914201D1A5
:1064100002210843012800D105207047FF07000032
:1064200030380A2801D20120704700207047000050
:1064300010B500290AD00878002807D0054878440C
:10644000FFF766FF002801D0002010BD0248784405
:1064500010BD0000EE050000E605000010B50029A3
:106460000AD00878002807D005487844FFF750FF85
:10647000002801D0002010BD0248784410BD000063
:10648000DE050000D605000070B501250400ED070B
:106490004C4020D4441A01D2001B0919C60D4B00F0
:1064A000F2B2FF2A29D01B0E2CD000020C02D31A04
:1064B0002C43DC402843051910D2280A02D3401C83
:1064C0006D0611D0761EF6058019FF2A00DA70BD20
:1064D000C00DC00570BD694000F022F801200543E1
:1064E000C541521C761CE8E764089C40C901614024
:1064F0008900E7D10124A043E4E71B0E440200D049
:10650000034870BD002AFCD1C00FC00770BD00BF9A
:106510000000C07F70B501250400ED074C4022D477
:10652000441A02D26C40001B0919C60D4B00F2B28E
:10653000FF2A4BD01B0E50D000020C02D31A2C4362
:10654000DC40A843051B05D5AD0019D36D08761EA8
:10655000521E37D0F605280A01D2801970BD70414D
:106560006D0603D070BD6940FFF794FF9C4009029F
:106570006140490001D0401E70BD0124A04370BDA0
:106580006D081DD001202B0C01D12D0410302B0ED5
:1065900001D12D0208302B0F01D12D01001DAB0FB1
:1065A00001D1AD00801CEB0F01D16D00401C6D00CE
:1065B000361A121A680AF5054019012A02DB70BD65
:1065C000002070BDC036300AC00770BD1B0E4402EB
:1065D00001D1FF2B00D1024870BD002AF0D070BD60
:1065E0000000C07F03B402487844844603BC60477F
:1065F0007FF3FFFF03010003001F00200000000FD6
:1066000018192A260027000000E7FEC8FE2C002DDE
:106610000000000AFFFF0000FFFFFFFF000009016C
:106620000000280700001809080000280B000118C6
:10663000090C0000281A000A18091B000028200075
:1066400001000921000028230000FF092400002880
:1066500027000F180928000028FFFFE7FE0A0200A4
:1066600003280A0300002A0A040003280205000187
:106670002A0A06000328020700042A0A0900032840
:10668000020A00052A0A0D000328020E00292A0A20
:106690000F000328021000242A0A11000328021206
:1066A00000252A0A13000328021400272A0A1500CD
:1066B0000328021600262A0A1700032802180028B9
:1066C0002A0A19000328021A00502A0A1C0003286B
:1066D000081D0002000A1E000328101F0003000A04
:1066E000220003280A230001FF0A2500032812269E
:1066F00000192A0A29000328082A00C7FE0A2B00CD
:106700000328222C00C8FE0A2E000328022F00C9ED
:10671000FE0AFFFF000000FFFF000014000300104E
:10672000002A53594420424C45204D6F757365092A
:1067300000050010012AC2030F00070010042A06FA
:10674000000600300064000B000A0010052A00005B
:10675000000009000B0010022900000A000E0010C2
:10676000292A5359441400100010242A424C452D64
:106770004D4F44454C2D3030310E00120010252A6B
:10678000424C452D3030310A00140010272A312E9A
:10679000300A00160010262A312E300A0018001088
:1067A000282A312E300E001A0010502A023A0954BD
:1067B0004201001C001D001002000000000000004B
:1067C0000000000000000000000000000000001CAD
:1067D000001F001003000000000000000000000087
:1067E0000000000000000000000000090020001070
:1067F000022900001C0023001001FF00000000001F
:106800000000000000000000000000000000000088
:106810000800260010192A64090027001002290028
:10682000001C002A0010C7FE00000000000000004D
:10683000000000000000000000000000001C002C10
:106840000010C8FE00000000000000000000000072
:1068500000000000000000000009002D00100229C7
:1068600000001C002F0010C9FE0000000000000006
:106870000000000000000000000000000000FFFF1A
:10688000FFFF10104010401010401040202020103A
:106890002010101010102020401020101040104028
:1068A0001088401088202020102010101010102078
:1068B0008840108880807F7E7D7C7B7A79787776AF
:1068C00076757473727171706F6E6E6D6C6C6B6ACD
:1068D0006A6968686766666564646363626161606B
:1068E000605F5F5E5E5D5D5C5C5B5B5A5A595958E8
:1068F0005857575656555555545453535252525152
:10690000515050504F4F4F4E4E4D4D4D4C4C4C4BA7
:106910004B4B4A4A4A4949494848484747474746EE
:10692000464645454544444444434343434242422A
:10693000424141410000000000000000303132338C
:1069400034353637383941424344454640305800A3
:1069500030313233343536373839616263646566D5
:106960004030780004000008000000000000000231
:10697000000100001000000002400000000000A024
:106980000000000005400000000000C800000000FA
:106990000C4000000000409C000000001940000076
:1069A0000020BCBE0000000034400000BFC91B8EA8
:1069B00000000004B5400000504BCFD06607E2CF86
:1069C000010000006C4100003E8251AADFEEA734B6
:1069D00001000000D9420000DCB5A0E23A301F9768
:1069E000FFFFFFFFB4450000FD25A0C8E9A3C14F8C
:1069F000FFFFFFFFFF3F00000000008000000000DD
:106A0000FF3F00000000008000000000586B0010F5
:106A100000000020C4000000040100101C6C0010E5
:106A2000C40000201C670000200100101C000000B2
:106A300043000000F8FFFFFF0C0000000E00000004
:106A40000F0000002E0000001001000043000000B5
:106A5000F8FFFFFF0040404040404040404041417F
:106A60004141414040404040404040404040404023
:106A700040404040400502020202020202020202BD
:106A800002020202022020202020202020202002BA
:106A9000020202020202909090909090101010104A
:106AA00010101010101010101010101010101010E6
:106AB000020202020202888888888888080808087A
:106AC0000808080808080808080808080808080846
:106AD000020202024000000000000000000000006E
:106AE00000000000000000000000000000000000A6
:106AF0000000000000000000000000000000000096
:106B00000000000000000000000000000000000085
:106B10000000000000000000000000000000000075
:106B20000000000000000000000000000000000065
:106B30000000000000000000000000000000000055
:106B40000000000000000000000000000000000045
:106B50000000000000000000000000000000000035
:106B60000000000000000000000003190000020106
:106B7000050303010009FF000000000000000006FB
:106B80000955415254461C0000000000000000005E
:106B900000000000000000508000005000000000D5
:106BA000601000508C10005070B0025078B002504D
:106BB00070B0025078B0025000A0005000B00050F9
:106BC00000C0005000D0005000E000500000000065
:106BD000000000007600002040787D0100000000E9
:106BE00000000000000000000000000000000000A5
:106BF0000000015008AA0220309F0220F8A60220BF
:106C0000C8810220CC810220D5800220248002206D
:0C6C1000208002208F8002209080022053
:04000005100000C126
:00000001FF
