:020000041000EA
:10000000401F002051120010591200105B12001006
:1000100000000000000000000000000000000000E0
:100020000000000000000000000000005D12001051
:1000300000000000000000005F12001061120010BC
:10004000830600106B3B0010631200106312001057
:100050006312001063120010990800106312001060
:10006000631200106312001063120010631200107C
:10007000631200106312001063120010631200106C
:10008000631200106312001063120010631200105C
:10009000631200106312001063120010631200104C
:1000A0006312001043090010631200106D0D001060
:1000B000631200106312001063120010631200102C
:1000C0000348854604F0E4F900480047F9010010B0
:1000D000401F002010B50D2000F092FF10BD10B59C
:1000E000022000F0B5FE002000F0BDFE002000F070
:1000F000A4FE012000F096FE012000F0BEFE2821A3
:10010000002000F00DFF0F2189019D4800F05EFEE8
:10011000E02000F03BFE1B20002805DBC206D20ECB
:1001200001219140974A116000BF10BDFEB5054600
:100130000020019000260090002400274020284045
:10014000402802D18E4890490860802028408028AD
:1001500002D18E488C49086078218D4803F0EDFD6E
:1001600000241DE06100884A1268505E894900F051
:1001700059FF06463007060E6100834A1268891847
:100180000220085E834900F04DFF00900098304344
:1001900001907F490198C855781C87B2A01C84B291
:1001A000F02CDFDB7A487C49086001207B4908702D
:1001B000FEBD10B500F02AFF002808D1012000F094
:1001C000D7FE00F0E8FD002072494880088010BD8D
:1001D00010B500F0EEFD002000F0CAFE10BD6E4824
:1001E0000068704710B5FFF7FAFF044678222146F1
:1001F000002000F0C4FB10BD002472B601F04CF8E2
:1002000001F0E1FC642000F087FA0021192000F0E1
:10021000BEFA0021172000F0BAFA0021222000F0D7
:10022000B6FA00210A2000F0B2FA0121192000F0EC
:100230002EF90121172000F02AF90121222000F0D7
:1002400026F901210A2000F022F900210E2000F0F9
:100250009EFA00210F2000F09AFA0021102000F0F1
:1002600096FA00210E2000F0AAF800210F2000F0DD
:10027000A6F80021102000F0A2F80721142000F0B9
:1002800086FA0721152000F082FA00F073FC44A0E2
:1002900000F076FC01211A2000F079FA01211B20E0
:1002A00000F075FA01211C2000F071FA01211D20D7
:1002B00000F06DFA00211A2000F0BAF800211B208E
:1002C00000F0B6F800211C2000F0B2F800211D203B
:1002D00000F0AEF80021022000F059FA00210320BE
:1002E00000F055FA0021022000F069F800210320F7
:1002F00000F065F8FFF7EEFEFFF7F1FE2D4800F085
:1003000042FD62B63AE025480078012804D1002079
:1003100022490870FFF766FF0E2000F024F900283C
:1003200010D1192000F0E0F8172000F0F2F8002CAE
:1003300002D10124FFF73DFF00BF0E2000F013F9AA
:100340000028FAD00F2000F00EF9002810D1172055
:1003500000F0CAF8192000F0DCF8012C02D10024CA
:10036000FFF736FF00BF0F2000F0FDF80028FAD09D
:100370000A2000F0B9F8322000F0CEF9C3E70000FF
:100380008400002000E100E0000000206402002062
:100390004404002008000020040000201000002079
:1003A0005359443838323120414D49432044454D5A
:1003B0004F0D0A002D010010D3490860704770B539
:1003C000024620241440630920251446AC4301252D
:1003D000A54028469C00CD4D2C592075050A657511
:1003E000050CA575050EE575002B13D0002908D165
:1003F000C74D6D7D0543ECB2C54D6D7DC44E747522
:1004000015E0C34D6D7D85432C46C14D6D7DC04EBD
:1004100074750CE0002905D1BD4C64680443BC4DE3
:100420006C6004E0BA4C64688443B94D6C6070BD84
:1004300070B5024620241440630920251446AC43BD
:100440000125A5402846002B13D0002908D0B04D27
:10045000ED7D0543ECB2AE4DED7DAD4EF47515E08E
:10046000AB4DED7D85432C46A94DED7DA84EF47531
:100470000CE0002905D0A64CE4680443A44DEC60D0
:1004800004E0A34CE4688443A14DEC6070BD30B53A
:100490000B4620240440610920250446AC43012575
:1004A000A5402A468C00994D2C592276150A65766E
:1004B000150CA576150EE576002B0AD08C00934D11
:1004C0002C592271150A6571150CA571150EE5716F
:1004D00009E08C008D4D2C592272150A6572150C9D
:1004E000A572150EE57230BD10B5202303405909E1
:1004F00020240346A34301249C4022468B00834CC6
:10050000E3581A73140A5C73140C9C73140EDC7396
:1005100010BD10B520230340590920240346A343EE
:1005200001249C4022468B00784CE3581A71140A2F
:100530005C71140C9C71140EDC7110BD10B520237D
:100540000340590920240346A34301249C4022462A
:100550008B006E4CE3581A72140A5C72140C9C7275
:10056000140EDC7210BD30B501462020084042094F
:1005700020240846A0430124844023469000634C75
:1005800020584030102404192578284665782D021B
:100590002843A5782D042843E478240620431840F6
:1005A000002801D0012030BD0020FCE7F0B5034653
:1005B0000C46154620221A40500920261A46B243FE
:1005C000012696403146002C0BD182004F4EB25886
:1005D000403211720E0A56720E0C96720E0ED672C0
:1005E0000AE08200494EB258403211710E0A56712B
:1005F0000E0C96710E0ED671002D0BD18200434E5B
:10060000B258203211760E0A56760E0C96760E0EE1
:10061000D6760AE082003D4EB258203211750E0A9D
:1006200056750E0C96750E0ED6758200374EB25862
:10063000203211710E0A56710E0C96710E0ED67183
:100640000022002A05DBD706FF0E0126BE40314FEF
:100650003E6000BFF0BD10B520230340590920249F
:100660000346A34301249C4022468B00274CE358B9
:1006700020331A72140A5C72140C9C72140EDC7211
:1006800010BD70B500243CE0A0002049085840305F
:10069000142141180A7810464A78120210438A78C9
:1006A00012041043C97809060843A100174A51589B
:1006B00020310A461378194653781B021943937860
:1006C0001B041943D2781206114308400546002D39
:1006D00000D114E00C480068002804D029462046C8
:1006E000094A12689047A00008490858403005752B
:1006F000290A4175290C8175290EC17500BF601C3E
:10070000C4B2022CC0DB70BD1C000020140000200D
:100710004010005000E100E0002109E0002201E06B
:10072000531C9AB27D239B019A42F9DB4B1C99B270
:100730008142F3DB7047002107E0002201E0531CF7
:100740009AB2092AFBDB4B1C99B28142F5DB704758
:1007500010B50146272901DA002902DA0020C0433A
:1007600010BDCC07E40F202904DA4A101B480068AA
:10077000835C05E008462038421018484068835CD6
:10078000002C01D01811EBE71807000FE8E770B54F
:10079000272801DA002800DA70BD0907090FC4070D
:1007A000E40F202804DA43100C4E3668F21805E0F6
:1007B0000646203E7310094E7668F2181578002C14
:1007C00001D00F2600E0F0263540002C01D00E07A6
:1007D000310E2E460E43167000BFDDE720000020CC
:1007E000002815DBC206D20E01219140944A116007
:1007F00000BF00BF00BFBFF34F8F00BF00BF00BFEF
:1008000000BF00BF00BFBFF36F8F00BF00BF00BFBE
:10081000704770B504460D460620FFF7E1FF894892
:1008200000680078000900012907090F084385497D
:100830000968087083480068007880218843E101D6
:100840008022114008437F49096808707D4800688C
:100850000078402188437B4909680870794800681E
:1008600080780821884308307649096888709200AA
:100870007549764800F00AFA7548406A40210843F5
:10088000734948620846006A40210843704908627B
:10089000062000F0CBF870BD70B56A480068047897
:1008A00030206040054667480068057010202040F1
:1008B00000280DD000BF634800680179634800F04C
:1008C0001DFA60480068C078C007C00F0028F2D049
:1008D00070BD70B504460D461920FFF781FF5948D9
:1008E00040680078000900012907090F08435549AD
:1008F0004968087053484068007880218843E101C6
:100900008022114008434F49496808704D484068AB
:100910000078402188434B4949680870494840683D
:1009200080780821884308304649496888709200D9
:1009300048494648103000F0A9F9192000F076F82F
:1009400070BD70B53F48406804783020604005466F
:100950003C48406805701020204000280ED000BFA1
:100960003848406801793948103000F0C7F93548F7
:100970004068C078C007C00F0028F1D070BDF0B546
:100980000B4601242404002112E000BF85002D4EF7
:100990007559ED782D07ED0F002DF7D185007559AC
:1009A0006D785E5C35468600264FBE597570491CD1
:1009B0009142EADB00E0641E8500224E7559ED7815
:1009C0006D07ED0F002D01D1002CF4D1F0BD70B5F5
:1009D00004460D4621011D4A8818294600F09CF95D
:1009E00070BD70B504460D4600BF022C01DB00202F
:1009F00070BD2101154A881800F0A3F900280AD11A
:100A0000200112494018C5682101104A881800F0D9
:100A1000A1F9C0B2ECE70020EAE70146012901DDB7
:100A2000002070478800074A1058FAE7002806DBC4
:100A3000C206D20E01219140014A803A11607047EE
:100A400080E100E028000020DC040020BC0400203D
:100A500000800220DC06002010B502460620002897
:100A600015DBC406E40E0123A3407F4C236000BFC6
:100A700000BF00BFBFF34F8F00BF00BF00BF00BF6C
:100A800000BF00BFBFF36F8F00BF00BF00BF00BF3C
:100A9000764800680078000900010B071B0F184317
:100AA000724B1B6818707148006800788023984367
:100AB000D3018024234018436C4B1B6818706B488B
:100AC00000680078402398434030684B1B681870DA
:100AD00066480068C078102398431030634B1B6849
:100AE000D8706248006880780823984308305F4BCC
:100AF0001B6898705E48406A402318435C4B5862FC
:100B00001846006A40231843594B186206200028F3
:100B100006DBC406E40E0123A340534C803C236053
:100B200000BF10BDF0B50B4601242404002112E0E3
:100B300000BF85004D4E7559ED782D07ED0F002D46
:100B4000F7D1850075596D785E5C35468600474F54
:100B5000BE597570491C9142EADB00E0641E8500B5
:100B6000424E7559ED786D07ED0F002D01D1002C27
:100B7000F4D1F0BD10B508210020FFF76DFF10BDC6
:100B80000FB438B500240498002803D138BC08BC41
:100B900004B0184705A800903648009A049903F05D
:100BA00089FCC4B200200090802C00DD8024224605
:100BB00030490020FFF7B6FF00BFE7E70FB438B5B4
:100BC000054600240598002803D138BC08BC04B0B1
:100BD000184706A800902748009A059903F06AFC78
:100BE000C4B200200090802C00DD802422462149E0
:100BF0002846FFF797FF00BFE7E7F8B505460E4622
:100C000017460024002D02D02846FFF7B9FF002424
:100C10001BE02046E117490F0918C910C900611AE5
:100C200003D1A1B214A0FFF7ABFF315D14A0FFF711
:100C3000A7FF601CC117490F0918C910C900411A44
:100C400002D111A0FFF79CFF641CBC42E1DB2046EF
:100C5000E117490F0918C910C900611A02D00AA08A
:100C6000FFF78EFFF8BD000080E100E030000020BB
:100C700000800220DC0800205B253034785D2000F5
:100C800025303278200000000D0A00000023436068
:100C900003608260C1607047416801607047F8B5C9
:100CA00004460F46154660684019A168884219DB62
:100CB000A088281A86B26268E168881832463946E8
:100CC00003F022F8A81B85B22068A84202DC208825
:100CD000401E85B2B9192A46E06803F015F8656030
:100CE0007019F8BD6268E16888182A46394603F031
:100CF0000BF86068401960602846F2E702465368C6
:100D0000581C5060D068C15493685068984201DB09
:100D100000205060012070470246536810689842D6
:100D200001D1002070471368581C1060D068C05C67
:100D3000087093681068984201DB00201060012061
:100D4000F0E701464A680868904201D101207047E7
:100D50000020FCE7014600224B680868984200DD4D
:100D60008A68486880180B68C01A704710B5AA488E
:100D7000C478C470A9480068002803D02046A74959
:100D80000968884710BDA54908607047E0214140C7
:100D9000A14A91707047A048007CC007C00F00288E
:100DA00006D19D48007C40084000401C9A490874C8
:100DB00070479948007CC007C00F002805D09648AE
:100DC000007C4008400094490874704730B50246E2
:100DD0000B4611468807800F002801D0002030BD47
:100DE00000290ED08C4C25892846A47A240420435F
:100DF000800C80048C03A40B2043874C2081000CC2
:100E0000A072854CA5892846A47B24042043400C6D
:100E10004004DC03E40B20437F4CA081000CA07352
:100E20000120DCE77C4949780422914382000423B5
:100E30001A401143784A5170704777494978022225
:100E40009143420002231A401143734A5170704784
:100E50007149497830229143020130231A401143ED
:100E60006D4A517070476C49497849084900C2077A
:100E7000D20F1143684A5170704767494978082278
:100E80009143C20008231A401143634A51707047CE
:100E900030B5002813D0604B9B7B2024A3434C012A
:100EA00020252C4023435C4CA37323469B7B1E24AC
:100EB000A34354001E252C402343574CA373564B89
:100EC0009B7B4024A343002801D1012400E000249F
:100ED000A40140252C4023434F4CA37330BD504AFE
:100EE000125C002A00D1704700228A5E4C4B1B5CCA
:100EF0001A410A8000BFF6E70146002902D148489E
:100F00000078704746484078FBE70146112901DB2D
:100F10001B2901DD282901DB012070470020FCE7A7
:100F200070B504460D46022C00DB70BD00203C4924
:100F3000085507E028460C30C5B23948005D401C12
:100F4000374908552846FFF7E0FF0028F2D0002C6B
:100F500006D131484079E9B208462F49487105E089
:100F60002D480079E9B208462B49087100BFDCE73B
:100F700029494031C97C80229143002801D00122B7
:100F800000E00022D20180231A401143224A40325D
:100F9000D174704720494031C97D80229143002897
:100FA00001D0012200E00022D20180231A40114327
:100FB000194A4032D175704738B504460021009176
:100FC00015484030007D40094001E106C90E084344
:100FD00011494031087502217F2000F0C4FF6946A5
:100FE000252000F0C2FF6846017821430091017876
:100FF000252000F0B8FF6946252000F0B6FF38BD77
:1010000010B504462046FFF7D7FF10BD0248007C0C
:10101000C007C00F70470000006002503800002079
:101020003C000020F3B581B00025002200230024FD
:10103000002000900220085E4000714E305A00905F
:101040008E5E0198831B002B01DA08255B42009A13
:10105000009AD410934204DB042005439B1A0098A5
:1010600024185210934205DB022005439B1A009876
:10107000401004195210934204DB012005430098EC
:101080008010041908202840002804DD0888001B6F
:1010900000B2088003E00888001900B20880002030
:1010A000085E584EB04202DD3046088007E000205E
:1010B000085E544EF643B04201DA70420880488818
:1010C0006E00514FBE5B801900B248800220085E5E
:1010D000002802DA0020488005E00220085E582837
:1010E00001DD582048802807000FFEBD70B502467C
:1010F000002400230220085E4000414D2C5AE310DA
:1011000004201040002800D01B19022010400028A5
:1011100001D06010C318D007C00F002801D0A01064
:10112000C31808201040002804D00888C01A00B254
:10113000088003E00888C01800B208800020085E1C
:10114000304DA84202DD2846088007E00020085EF6
:101150002C4DED43A84201DA6842088048885500CA
:10116000294E755B401900B248800220085E0028B5
:1011700001DA002048800220085E582801DD58204E
:1011800048800020085E70BDFFB583B005460F465D
:1011900000240026002002900190009000BF26E06D
:1011A0006000295E19A0FFF7EBFC601C4000295E7F
:1011B0001CA0FFF7E5FC6100685E0699FFF732FFAF
:1011C0000190611C4900685E0699FFF72BFF0090B3
:1011D00001980007000E01900099019808430290C1
:1011E000059902988855701C86B2A01C84B2BC4236
:1011F000D6DB314611A0FFF7C3FC07B0F0BD0000FD
:10120000DA4D0010FF7F00008C4E001073616D708E
:101210006C655F7372635F6275665B5D2025642039
:101220000D0A000073616D706C655F7372635F62BD
:1012300075665B5D2025640D0A00000066696E61BD
:101240006C5F646174615F69647825640D0A0000F5
:101250000448804704480047FEE7FEE7FEE7FEE754
:10126000FEE7FEE775120010C100001003480449B4
:1012700008607047014802490860704740787D0166
:1012800040000020FE49202208781043EF22104041
:10129000042210430870704710B5FA4880470028B0
:1012A00002D002F014F9012010BDF6480A300047C0
:1012B000F44928310847F3493C310847F1496C317A
:1012C0000847F1490847F0495C310847EE496A315F
:1012D0000847ED4976310847EB4986310847EA4926
:1012E00094310847E849A2310847E749AE31084739
:1012F00030B4E64CA44630BC6047E4487430004744
:10130000E3480047F8B5E34DCF222968E24C08785E
:101310000026104008702068E04918308847286887
:1013200022680178127F090912070901120F11437F
:1013300001700907090FBF27012921687ED00A46DD
:1013400022314B7809781B020B43114620310B7177
:101350001B0A4B710378117A3B4089010B435906F4
:10136000490E0170226841784032127A8909921D33
:1013700092068901920E1143417021680622801C59
:10138000093102F0C1FC21684820425C002A04D0E7
:1013900028684931083002F0B7FC2168BF4A702044
:1013A000405C323A713190472868BD4A41788906DD
:1013B000890E891C90472868017809090901091DCF
:1013C000017022683940127AD207520E114301701F
:1013D000226841782032127A8909921D9206890189
:1013E000920E1143417021680622801C093102F0DF
:1013F0008BFC21682820425C28682931083002F0E3
:1014000083FC2868A74A41788906890E891C904781
:10141000256800206F7F012181400F4204D0E97FC1
:101420000B2251438E19761C401C0328F3D32C4603
:101430002034607821780002084300E019E013218D
:101440004843401CB04206D2701E02F033FC401CE0
:101450002070000A6070607821780002084302283A
:1014600003D20220207000206070287F012824D041
:101470003AE00B4620318A79CA71197A0278C90795
:101480003A40490E0A43027051062268490E603202
:10149000127CD20111430170417806228909890129
:1014A0000C3141702168801C093102F02DFC286844
:1014B00021680622083071316DE7E079002813D0E9
:1014C000607822780102114313204143A079491C1E
:1014D000C00302F0EFFB401C06467F2102F0EAFB4E
:1014E000401CC1B2E1711EE060792179000208431D
:1014F00031D06078227801021143132041432846FD
:1015000022304278037810021843C003491C02F0CD
:10151000D1FB401C06467F2102F0CCFB401C81B26F
:101520002171080A6071304602F0C4FB401C7F281C
:1015300000D97F200121E975A97F00916178237886
:1015400009021943584CEA7FC0B23B46A0475648AF
:1015500034308047F8BD0020544CE87503460246FD
:101560000121A047F8BD4A491A3108474848F430DC
:1015700000474F48004738B5049C00944C4C0E344B
:10158000A04738BD30B44A4CE834A44630BC60476C
:1015900010B502F087F810BD10B502F09FF810BD2D
:1015A0004349A43108474348004742483230004786
:1015B0004049463108473F49B23108473D49C231A9
:1015C00008473C4AD032104710B500F071FF10BDFB
:1015D0003849FC3108473849084737490E31084730
:1015E00035493631084710B501F042FA10BD33498C
:1015F000084732487238004731480068C078800791
:10160000C00F704770B524480068817C427C080296
:10161000104312D0FFF7F0FF194C022501280DD11D
:101620002648723880472749884207D1217801200F
:101630002943014321702149884770BD20788021CA
:1016400008432843207070BDF8B50D48C0790006E6
:101650007BD511480668B17C707C0F0207430848AF
:10166000057801D0A80701D468076ED5044C207B0B
:10167000E17A0002E41C084367D0002F65D023E024
:10168000261A0020DF5600001558000027590000D8
:10169000CD5B00006400002060000020451D0000BC
:1016A0002B26000047270000971B00003154000044
:1016B000F55C00005B5E0000675F0000B560000045
:1016C00058000020060400006078217800020843DA
:1016D0002AD1307CF17B0002084302F061FD002238
:1016E000F94B02F061FC02F069FD80B278430A21F7
:1016F00002F0F6FA4004010C2170080A6070307D97
:10170000F27C000210430A224243914203D3401E5E
:101710002070000A6070607821780002084303D1CD
:101720000120207000206070FD210D400121E7485C
:101730000D430570E6490020884760782278010251
:101740001143E54BE34A09209847F8BD10B50F2136
:10175000DE4802F0F2FA10BDF0B504468DB0401C30
:1017600002F003FB0146082831D0D84E00253E3E4A
:10177000042931D080291DD0D448CB1F0278FF3BEB
:10178000FA3B18D001239B0399427DD1D2490A200C
:101790002431884770780621484381190A22601D48
:1017A000891C02F0B1FA7078401CC0B270700A282F
:1017B0007DD375707BE0C179002978D0D10676D4CD
:1017C000A37966791902314301290AD06FE001F04B
:1017D00085FFC24880476AE075703570FFF7B6FF35
:1017E00065E08178491E0906090E817050D0B7491D
:1017F000437888794E7902023243887A4E7A000221
:101800003043491C012B49D0801A0872000A4872E3
:1018100000060B7A000C1843831A6A461383508320
:10182000AA4A167BD27A360216436A4696834A7BC8
:101830000F7B110239436A46D18313805080968012
:10184000D18013723220507200209072D572280A13
:10185000107301205073002090730220D073002079
:10186000107403205074002090740420D074002061
:101870001075052050750020984990751046CA31A2
:10188000884706A8954900E00AE0E83188470EE05D
:10189000017A817040210A43027008E08018B4E7A1
:1018A000900604D58804000F01D0FFF7CDFE8C49C7
:1018B0002046C96888470DB0F0BD10B50446001D2C
:1018C00002F053FA8649C860211D864802F057FA93
:1018D00085492046884710BD8349223108478249FF
:1018E00078310847804A80321047794A7A3A10475F
:1018F000764900203E390A7849788A4200D90A2080
:101900000818801A401EC0B2704700B5FFF7F0FFFC
:10191000002804D16D4800213E384170017000BD9F
:10192000F8B50E46074671491C4615460120884702
:10193000002807D0FFF788FE23462A46314638465E
:1019400001F08CFEF8BDF8B50E46044667491F4607
:10195000154601208847002814D0022C03D1FFF738
:10196000C7FF002809D0EAB2594D3B463146204610
:101970006A3DA847012807D004E00A21564B5C4A7B
:10198000084698470020F8BD022C12D14F4C062182
:101990003E3C20780A46484300193146801C02F03C
:1019A000B3F92078401CC0B220700A2801D300206F
:1019B00020700120F8BD70B50D4604461121401974
:1019C00089031646884201D3002070BD494800684B
:1019D000213002F0CAF9484B00193246294698478F
:1019E00070BDF8B50646EFF3108472B6414D286815
:1019F000213002F0BAF98019404A0121904784F35E
:101A000010883E4F0024F63FEFF3108572B6394838
:101A10000068213002F0A9F9311940183849002333
:101A20000A192021B84785F31088012000032034CB
:101A30008442E9DBF8BDF7B5070501993F0D0029A0
:101A400012D0029900290FD02549897800290BD19D
:101A500001997A18012109038A4205D8019A1123B4
:101A600082181B039A4201D90020FEBD0025C41B29
:101A7000EFF3108672B61F480068213002F075F946
:101A8000611940181E491C4B4A192021984786F3BA
:101A900010880120000320358542E9DB1848019AAF
:101AA000C019029902F030F9104901208847002836
:101AB00028D0EFF3108072B6094901228C808A7019
:101AC00080F310880120FEBD0000F43F261A00209C
:101AD000B560000005160010D33300008D5E0000D5
:101AE0004400002059170010B35F00004585000036
:101AF0000B1900105C0000208F1600009F180000DA
:101B0000E80900202046FFF76CFFDBE7FE490847A5
:101B1000FD4A0832104738B5049C0094FA4C103442
:101B2000A04738BD30B4F84C1C34A44630BC6047E4
:101B3000F54924310847F44A2C321047F24A34322E
:101B4000104730B4F04C3C34A44630BC6047EE4BF8
:101B500044331847EC4B4C33184730B4EA4C5434F8
:101B6000A44630BC6047E8495C310847E648643029
:101B70000047E5496C310847E4490847E349083123
:101B80000847E2498C310847E048BE300047DF484B
:101B9000E2300047DE4A1047DD4952310847DC4950
:101BA0005C310847DA4964310847D9496C31084744
:101BB000D7497631084710B501F015FD10BD10B5B5
:101BC00001F0ACFC10BDD24890300047D049A431A0
:101BD000084730B4CF4CA44630BC6047CC48F63000
:101BE0000047CD480047CC4930310847CA485630F5
:101BF0000047C94860300047C74814300047C6480E
:101C000022300047C44872300047C34BD6331847D0
:101C1000C24B184730B4C14C6634A44630BC604750
:101C200030B4BF4CA44630BC6047F8B5BD488047CF
:101C3000BD4DA878002809D0A888FFF7D2FEEFF3A1
:101C4000108072B60021A97080F31088B74CE0793B
:101C5000002834D0000610D52078410705D5FFF7BD
:101C6000F3FC2078FB21084006E0000605D5FFF7CD
:101C7000EBFC20784006400E20702078AC4FAD4E33
:101C800041060AD5BF21084020700220694608801D
:101C900002466B4639460020B0472078C1070ED077
:101CA000400840002070800701D5042000E0052096
:101CB0006946088002226B4639460020B0476878A2
:101CC000C10704D0400840006870A8688047F8BD8C
:101CD0009948004798483A300047974852300047A3
:101CE00095486A30004794486E30004793498A69A6
:101CF000120A120202434A61087C0122104308744E
:101D0000704710B572B6834CA0478D48006801211A
:101D10004A02104206D18B48027ED20702D0027ED0
:101D20000A43027662B6012010BD70B50446032056
:101D3000000384422AD9844803260568B603E8785C
:101D4000002802D0012810D01EE02846253002F0DD
:101D50000CF8A04202D88019A04217D22846293098
:101D60000EE08019A04211D20EE028462D3001F07D
:101D7000FCFFA04202D88019A04207D22846313089
:101D800001F0F3FFA042ECD9012070BD002070BD2E
:101D900010B572B66D4A904762B610BD70B5144664
:101DA0000D460646FFF7C1FF002806D072B6224650
:101DB000674B29463046984762B670BD10B572B67B
:101DC000634BAE33984762B610BD10B572B65F4C28
:101DD000F63CA04762B610BDF7B50025C80288B032
:101DE0000E462C46070C11E0089861010818584B64
:101DF0006A4620219847002069460A5C401C521917
:101E0000C0B295B22028F8D3641CA4B2BC42EBD374
:101E1000F6060898F60E610108184D4B6A463146E1
:101E200098470020694604E00A5C5219401C95B2AC
:101E3000C0B2B042F8D30A98854202D101200BB05B
:101E4000F0BD0020FBE7FFB50E4601210746090360
:101E50003F4B81B03F4A002098473E493522084613
:101E60008C3801F051FF3B48833801F07EFF39493F
:101E70005722441837482146573801F045FF2021A2
:101E8000601C01F05AFF0025002F10D00020395CA3
:101E900000290AD02218401CC0B251702028F6D365
:101EA00005E02118401C4D70C0B22028F9D320460F
:101EB0000521213001F041FF002E12D00020315CBD
:101EC00000290CD022182032401CC0B251700528C5
:101ED000F5D306E021182031401C4D70C0B2052812
:101EE000F8D321462631039801F049FF21462231DB
:101EF00004980872000A48720121144A25700020D3
:101F00009047144A012127E05D6100008B620000C8
:101F100091630000E9310000576600001B68000073
:101F200061690000D164000044000020261A0020EE
:101F30000002000031540000713C0000001000500D
:101F400000E100E000A000505C0000209F180000AD
:101F50008F160000E80900200903FE4B0020984777
:101F6000012005B0F0BDFC4A1047FB4A223A104759
:101F7000F0B5027889B0002A7ED0F849CA7142785B
:101F80000A72002A01D0042A01D904220A72C278F6
:101F9000847813022343F14A1C0A537294724479E1
:101FA000057924022C431546EC72260A2E73A646A8
:101FB000C4798579200228435073040A8446E8488E
:101FC0009473046808252746207CE47B00022043A4
:101FD0000124521C83424C7008D9181A07E014716E
:101FE000200A01E01571280A507107E0C01A0E7A24
:101FF000B0424DDA1471260A56710872087A887058
:102000000D70002B41D05079117900020843191A44
:102010006846018343836146C18371468183B87CEE
:10202000797C0002084302D0CE49002088476846E8
:10203000018B0180428B4280828B8280C28BC28066
:1020400001723221417200218172C17201734473A5
:10205000210A81730221C17300210174032141749B
:10206000002181740421C17400210175052141758D
:1020700000218175BC4900E00EE08847BA4906A8F6
:102080001E318847B94909208847012009B0F0BDB1
:10209000F600B042A6DAA2E70020F7E7FEB5074651
:1020A000AE4801780A077DD5F72211400170BA7950
:1020B0007C1C7B7912021A437BD0C279120678D538
:1020C000102211430170880673D4A9488047054641
:1020D0006079217900020843FF1C002832D002F009
:1020E0005FF806460091787839780002084302F0DC
:1020F00057F8A04F00223B4601F056FF3246009BA6
:1021000001F052FF0090964801910068017CC27B6B
:102110000802104302F044F800223B4601F044FF5D
:1021200007460E46607A217A00020843401B02F0FF
:1021300023F83A46334601F037FF019B009A01F03D
:1021400081FE24E0787839780002084302F00CF828
:10215000064683480068017CC27B0802104302F0F7
:1021600003F8314601F014FE02F046F80022814BDC
:1021700001F01AFF07460E46607A217A00020843F2
:10218000401B01F0F9FF3A46334601F00DFF0022F3
:10219000794B01F071FF02F011F80104090C00D134
:1021A000012101E00EE004E0704B0920734A243B5A
:1021B000984703206946088102221102704C02AB45
:1021C0000020A047FEBD38B56E4C2078002804D111
:1021D0006D496846884701202070012038BD10B540
:1021E0000B30102801D9FF2010BD604BC4B220462F
:1021F000243B9847204610BD10B50B30102801D95C
:10220000FF2010BDC4B2594920468847204610BD62
:10221000072801D90020704701228240594843789D
:102220001A4342708160012070474D480068C07DAC
:1022300070474B48554900684118487C097C0002AA
:102240000843704710B5030002F05DF909061C361B
:10225000506AA2BCCEE8FE0000217F20FFF783FE7B
:1022600000213020FFF77FFE01217F20FFF77BFE5A
:102270001E216320FFF777FE1F216D20FFF773FEFD
:10228000882114E000217F20FFF76DFE002130201F
:10229000FFF769FE01217F20FFF765FE1E21632005
:1022A000FFF761FE1F216D20FFF75DFE8A2161208F
:1022B000FFF759FE8121CCE000217F20FFF753FE7C
:1022C00000213020FFF74FFE01217F20FFF74BFE5A
:1022D0001E216320FFF747FE1F216D20FFF743FEFD
:1022E0008A216120FFF73FFE8321B2E000217F2099
:1022F000FFF739FE00213020FFF735FE01217F2056
:10230000FFF731FE1E216320FFF72DFE1F216D20F8
:10231000FFF729FE8A216120FFF725FE872198E03B
:1023200000217F20FFF71FFE00213020FFF71BFE5A
:1023300001217F20FFF717FE1E216320FFF713FE08
:102340001F216D20FFF70FFE8A216120FFF70BFE92
:102350008F217EE03D170000A7290000261A0020EB
:1023600060000020B5600000575F0000F7330000F8
:10237000051B00000000F43F0000244085120010FF
:1023800031540000440000209D2C00006305000033
:1023900000217F20FFF7E7FD00213020FFF7E3FD5C
:1023A00001217F20FFF7DFFD1E216320FFF7DBFD0A
:1023B0001F216D20FFF7D7FD8A216120FFF7D3FD94
:1023C0009F2146E000217F20FFF7CDFD0021302036
:1023D000FFF7C9FD01217F20FFF7C5FD1E21632006
:1023E000FFF7C1FD1F212AE000217F20FFF7BBFD81
:1023F00002213020FFF7B7FD01217F20FFF7B3FD59
:102400001F216320FFF7AFFD03216D20FFF7ABFD18
:102410008A216120FFF7A7FDB0211AE000217F206B
:10242000FFF7A1FD02213020FFF79DFD01217F2054
:10243000FFF799FD1F216320FFF795FD07216D2010
:10244000FFF791FD8A2100E006E06120FFF78BFD98
:10245000BF216520FFF787FD10BD14490968603171
:102460000874704710B500280ED0012812D0022839
:1024700016D0032807D102217F20FFF774FD4021E9
:102480002920FFF770FD10BD02217F20FFF76BFDB3
:102490004621F5E702217F20FFF765FD4421EFE7A4
:1024A00002217F20FFF75FFD4221E9E7580000206D
:1024B000FE498A78002A00D008707047F8B5FB4CB6
:1024C000E3685979002914D0B121C95CC91F0929D1
:1024D00058D8014618461022D93001F015FC607812
:1024E00002210128E06805D04279D20611D5F048D2
:1024F0008047F8BDCA22125C012AFAD1C279012AAA
:1025000003D1EC49E9308847F8BD002AFCD1C171FC
:10251000F8BDC279012AF8D1CA21095C012903D08A
:102520000021C171E068ECE760690126017830465E
:102530008840A16980250968884300D1812500274A
:10254000DD488047E168C919E0317F1CFFB2487659
:10255000102FF5D3E0682B460146E9310246009181
:10256000FF31F9321131D54DFF305A30A84760693B
:102570000078142802D2E068C671D3E7E168002031
:10258000C871CFE7CA4B0622002101208C3B984737
:10259000F8BDF1B5C54CA4B0E068A278417911430B
:1025A0002BD0CA210B5C2146C24FC9681C370025BD
:1025B000E931012B23D006460246713609320491D7
:1025C000711E531E0196BB4E02930392CA33C23250
:1025D00000917A36FF300A302499B047E168102222
:1025E0000846D930E93101F0B3FB00287ED0B04B6A
:1025F0000422002101208C3B984725B0F0BD0C95AA
:102600000D950E950F951195129513951495437987
:102610000126DB06002B01DB002A68D0F930B84721
:10262000A24CA078002822D01DA801950090E36854
:10263000A34F18460146FF30FF31FA305A31F933C3
:10264000249AB8471DA8013001F08FFB18A9097D15
:10265000000208439B4901F02DFB04220191110463
:10266000994F01AB0020B847207800287ED0E16860
:1026700007220F4615A8093101F046FB394607220B
:10268000713117A801F040FB387A002810A86ED0ED
:1026900086767020C05D002818A869D0867004A8CE
:1026A0003A460190F9321046844E15ADC03017AB52
:1026B000009546362499B047E068102204A981307D
:1026C00001F022FB08AE0FCE19AE0FC6E16803225F
:1026D0000E4621A8D33101F017FB31460322CC313D
:1026E00022A801F011FB3046FF3001E06EE01FE050
:1026F000EA30039017AF21A96846A2C03146704E58
:10270000F93111AB19A86A3E249AB047E26822A9B0
:102710001046FF30DA300197009103900CAB029520
:1027200019A8F9322499B04768490020884764E71E
:102730005E4A8023526914783246A2405B4CA469F9
:102740002468A24300D1812300910146FF315A3110
:102750005A4CFF30FA30249AA04754481022C068DF
:102760000146E931D93001F0F3FA02E023E029E033
:102770002AE0002801D004221EE04C4CE068F93029
:10278000B84761690878401CC0B208701428CED3DD
:10279000A1690868020C08A8827410A882710888D0
:1027A000020A08A8427410A84271097808A80174A6
:1027B00010A8017134E70C223D4B002101208C3B15
:1027C00098471AE7857664E7857068E7E068002631
:1027D000F930B847E368394F1946FF330A33363FBB
:1027E0001846F931249AB847E06810230146A03111
:1027F00006E017183246FF320A32761CBD54F6B294
:102800004A7C9F1AB742F4DC304900208847E068D0
:102810004179490849004171EFE6F0B50446C078B6
:1028200085B0072807D2224B0622002101208C3BCD
:10283000984705B0F0BD1D4E0121F068CB22115420
:10284000002506222146CC3001F05EFA1120F16805
:1028500040010818A0314E7CC17E827F437F0492E4
:102860000A07D20F009203934A07CF06D30FFF0F38
:1028700002968A0701970E4E920F817E407E643E3B
:10288000B047A07810260007002843DA074A112134
:10289000D06849014718FB7E19073BD50121CA22A0
:1028A00011545A0715D4A278520711E054000020A1
:1028B0005DA1000055A900004D250000B3AA00004D
:1028C000FFAB000040420F0031540000F73300001E
:1028D0000ED57B7E22789D005B19FE4D5B19D55C81
:1028E000882D02D0102D03D005E0FB4A917002E044
:1028F0004179314341714179C90634D50B21C90170
:102900004018C07D01282ED16421F54BF34A0520E3
:10291000984728E0F04F0021F868CA22115411218D
:1029200049014118CA7E520702D4A278520709D53C
:10293000497E22788B00C918E64B193BC918555CB3
:10294000102D02D1417931434171E44AE44B943A6C
:10295000E449002098476079C00704D0F868032252
:10296000817911438171607980070BD5DA48112193
:10297000C06849014118897F890703D581790C22F4
:1029800011438171207980070BD5D3481121C0688C
:1029900049014118497F890703D5417980221143B4
:1029A0004171CD48C1680846A0304674E278102ACB
:1029B00000D24274487901221043CB4C4871202D3B
:1029C00008D0402D00D034E700231A4640210020D3
:1029D000A0472EE700231A462021F8E770B5BE4C29
:1029E0000D46E36800281DD020690C21817119462D
:1029F000FF3120225A31C01D01F086F9E1682069BB
:102A0000FF31202227307A3101F07EF90621B74AC2
:102A1000412090470B21E068C9014118C97D002978
:102A20001DD01FE01846FF302022FA3001F06CF96B
:102A30002022AF4BE068A9180E46C01801F064F9D7
:102A4000E368AC4C1846FF309A30FF3332462946D3
:102A5000BA33A04729460120FFF7C0FF70BD407977
:102A6000C00602D4A0780128F8D19C48804770BDE8
:102A7000F0B5994C0646E06885B04179C9072AD07F
:102A8000FF3010210A3001F058F9E068320AC11D08
:102A9000F9314E728A72320CCA72320E0A73CA212E
:102AA000095C0125012918D0034606460146093371
:102AB000E9365A1E713101AF4EC7491E0091C93324
:102AC000C33289318C4EFF300A30B047E068C1799B
:102AD00002292FD00BE00020ABE6A06900210660A0
:102AE000626980231170E268D179022904D0E0681C
:102AF000C17900292AD02AE000682946814300D103
:102B000081236168002040314E7D1718E037401C5A
:102B1000C0B27E761028F7D3E068774E0146E931DF
:102B200002460091FF31F9321131E436FF305A305C
:102B3000B047CBE770497A39E9308847E068CA2165
:102B4000095C012902D00021C17100E0C57101209A
:102B50006FE670B51446604A1B25136922469D71C5
:102B6000D871000A18721846093001F0CDF8E41C3B
:102B70005E4AA0B20421904770BD70B51446564A13
:102B80001D25136922469D71D871000A18721846D6
:102B9000093001F0B9F8E41C544AA0B2042190476E
:102BA00070BDF7B54C4F5549F868002425464018CC
:102BB00001F0DBF83A6911219171827843781202B1
:102BC0001A43009B411C9A4238D3019B9A4235D844
:102BD0000379C2781B021343029A93422ED10278E2
:102BE000172A35D03B690622DA714E780A78360208
:102BF000164306226243D3181E72360A5E724B7960
:102C00000E791B0233433E69AD1D9619B3721B0A40
:102C1000F3723E69C379961933733E69037A921948
:102C20005373374BFA68EDB2D3185A7C1B7C1202EF
:102C3000641C1A43AB1DE4B29A4225D34A790B793E
:102C40001102304A194391421ED001780818B4E7A6
:102C5000002C1BD13B691422DA714C780E782202C9
:102C600032431A72120A5A724A790C7911022143BC
:102C70009972090AD972C11D184610220C3001F050
:102C800043F81435EDB201E0002C04D00421174ABA
:102C9000A81C9047FEBD144B0A221020A43B0099AB
:102CA0009847FEBDF7B50C4F1449F86800252C462F
:102CB000401801F05AF83A690921917182784378F5
:102CC00012021A43009B411C9A4249D3019B9A422B
:102CD00046D819E0C54E0010540000205DA1000048
:102CE000D3330000B80B000031540000ED7F00002A
:102CF00019020000EF2A0000CFA900005D030000C8
:102D000063050000FFFF00000379C2781B02134334
:102D1000029A934224D10278172A2BD03B690422CD
:102D2000DA714E780A7836021643AA00D3181E725A
:102D3000360A5E723E69C3799619B3723E69241DE4
:102D40009219037A6D1CD372E4B2EDB2FE4BFA68AD
:102D5000D3185A7C1B7C12021A43231D9A421ED39D
:102D60004A790B791102F94A1943914217D0017837
:102D70000818A3E7002D14D13B691221D97182787C
:102D80004578110229431972090A5972C11D184662
:102D900010220A3000F0B8FF1234E4B201E0002D36
:102DA00004D00421EA4AA01C9047FEBD0A22E94B48
:102DB000082000999847FEBDF7B5E74FE749F86846
:102DC00000252C46401800F0D0FF3A690921917186
:102DD0008278437812021A43009B411C9A423CD3EA
:102DE000019B9A4239D80379C2781B021343029A95
:102DF000934232D10278182A39D03B690722DA711E
:102E00004E780A7836021643EA00521BD3181E7217
:102E1000360A5E723E6943799619B372C379867930
:102E20001B0233433E69E41D9619F3721B0A337388
:102E30003E69037A961973733E69437A92199373C4
:102E4000C14BFA68E4B2D3185A7C1B7C12026D1C89
:102E50001A43E31DEDB29A4228D34A780B78110247
:102E6000BA4A1943914221D001780818B0E7002DE1
:102E70001ED13B691521D971827845781102294309
:102E80001972090A597241799972C17982790902D4
:102E90001143D972090A19730146184610220831E4
:102EA0000D3000F031FF1534E4B201E0002D04D004
:102EB0000421A74AA01C9047FEBD0A22A54B08206A
:102EC00000999847FEBD30B4062912D0417C037C9E
:102ED0000A0241781A430B020478C178807809020B
:102EE000234301438B4207D9012219460820994BFD
:102EF0001FE041790379EBE70520C002824202D04E
:102F0000401C824202D130BC1846CBE69448824233
:102F100003D118468F4B18330BE09148401C824276
:102F200002D130BC184647E7100A2928184602D0BB
:102F30008C4B30BC18478B4BE43BFAE7F0B40028CD
:102F400065D0854C487823690A780702834D17437A
:102F500015262D1F5A1CD81C1B2F9E7046D94B7846
:102F60000E781B023343302B1AD330230370002614
:102F70004670CE788F7836023E431671360A567107
:102F8000037100264671C8798979000208431072DE
:102F9000000A5072E06840190373190A417320E077
:102FA00003701B0A4370CB788E781B023343137176
:102FB0001B0A53714B790E791B02334303711B0AB1
:102FC0004371C8798B79000218431072000A50725D
:102FD0004878097800020843E16849190873000A33
:102FE0004873F0BC0921604A032010471B2101707F
:102FF00000234370F323137100265671017146714B
:1030000013725672E068401901733146C6E7F0BC8E
:10301000704730B4002816D04F4814210069FB22B5
:103020008170C27000230371504B43711C0A84717C
:10303000C271002202724372190A817209214A4A3E
:1030400030BC03201047002230BC012076E7F8B5E1
:1030500005464749082088473F4C0B20E168C001DE
:103060000818807E01282DD10026374601E0042E65
:1030700004D2E0688019A030877405E03D4880479D
:10308000E1688919A0318874761CF6B2082EEED357
:103090000026384F01E0082E01D2002000E0B8479A
:1030A000E1688919A031761CF6B28876102EF2D329
:1030B0000026B847E1688919E031761CF6B24876F7
:1030C000102EF6D30B20E168C0010918487E0428B1
:1030D00002D005281CD01DE0264F0026B847E16825
:1030E0008919FF318131761CF6B24876202EF5D34E
:1030F000E068214B0146FF31A1310A7EFF305206C4
:10310000520E0A760A46273A47399A30984701E024
:1031100008204876E16820690E4604278770082257
:10312000C01CC231B63600F0EFFD206904223146E2
:103130000B3000F0E9FD0D210B4A032090470822D7
:1031400029460A31E06819E063050000FFFF00002E
:10315000ED7F00008D530000540000206503000047
:10316000022800006B430000958C00004808000016
:10317000558500004D250000C5290000BA3000F03B
:10318000C3FDE068294604221231B23000F0BCFDD4
:10319000A068C078032804D02A7AFE4E002A0AD0FC
:1031A0000CE0E068FC4B817D427D080210432A461A
:1031B0000832294617E0687A002816D0E0680146F0
:1031C0006030C37D9A420AD16A7A007E824206D17B
:1031D00008222846793100F0BBFD002824D00622C1
:1031E0000021EE4B01209847F8BDE068CA21095C38
:1031F00001290BD00246BA32FF3011460A30B047DF
:10320000E068022241791143417112E0417902469E
:1032100039434171BA3211468130B047E0686030BD
:10322000C07B012802D004E0E068EFE7DC4902201F
:103230008847DC488047F8BDF8B501220021DA4B09
:1032400008469847D94C06202169D94A887001213F
:1032500003209047E068D44D417908228B0700276E
:103260000A3D002B25DA114341710026A847E16889
:10327000891980314870A847E1688A1991218854DA
:10328000A032761CF6B25770102EEFD30026A84756
:10329000E16889196031761CF6B24876082EF6D3BB
:1032A000A847E1686031C875A847E16860310876D1
:1032B00014E0CA231B5C012B10D183795B070DD569
:1032C000114341710026A847E168912289195054A1
:1032D000A031761CF6B24F70102EF4D3B5490320FE
:1032E0008847AF4D0820103DA847002803D0AC49BF
:1032F00008200A3188470220A84701283CD10B2723
:10330000E168FF01C819407D012835D12D20400119
:103310000A185379002B04D0012B19D0022B25D089
:103320002AE005220020D2018B1809E00A26464334
:1033300076180325B61835760025401C7576C0B280
:10334000DD7B8542F2D8E1680120C919087513E0D8
:1033500061688B789B06DB0FD3718A78DF231A4074
:103360008A70E16808188179017205E0914B9179C2
:103370000720914A243B9847884D0220623DA84788
:103380000028E068817D407D0FD0090201438B4A0F
:103390000020904781490220483988470420A847E7
:1033A000002801D086488047F8BD09020143834BBD
:1033B00001220020643B9847F8BD3DE710B5027834
:1033C000411C002A11D0022A33D0032A0CD14A789A
:1033D0000B781102194310295BD0082904D1021D72
:1033E000C1781046FFF76FFD10BD4A780B781102C7
:1033F000194306290BD003290CD014290ED0152906
:1034000011D00029F0D1001DFEF748FE10BDFFF7D6
:1034100013FF10BD001DFFF71AFE10BD011D002097
:10342000FFF7F7FD10BD021D00210846FFF786FDDE
:1034300010BD4A780B7811021943012918D00329CD
:103440001AD004291CD00C291ED00D29F0D15748C0
:10345000C1688A795207EBD44A79D209E8D10922A6
:103460009201891809780129E2D1C069017010BD63
:10347000001DFFF7D2F910BD001DFFF71FF810BDAA
:10348000001DFFF786F810BD011D0020FFF7A6FA0A
:1034900010BD031DC078062813D0587C197C020289
:1034A0000A435878197800020843D9789B780902B2
:1034B0001943884208D901220146424B10209847FF
:1034C00010BD58791979EAE7FFF76BFB10BD10B50D
:1034D00088B03D480090401E019000246846048159
:1034E0004481062101824182672181812721C18196
:1034F0008482C482354806903549684688472B48FF
:103500000221026A13680B431360426A13680B437B
:10351000136044708470047008B010BDFEB50021C3
:103520006846017001710D4601212A4E7F20B04787
:10353000284C0A206946223CA047684600780109C9
:10354000090168460170022001430A20B04701A921
:103550000A20A04768460079400704D56D1CEDB2EB
:10356000FA2DF4D108E0FA2D06D001A90A20A047CF
:10357000684600794007F8D5684601780A20B047C8
:103580000020401C80B2FA28FBD301A90A20A047E2
:10359000684621E0ABAA0000996F0000CB940000C0
:1035A00055850000019700005725000054000020B9
:1035B000958C0000F7330000FB9800006D6E000052
:1035C000017A00008D53000019800100BD33001006
:1035D00093600000A72900000079000701D40120B2
:1035E000FEBD0020FEBD10B5F949FA4CC96800289F
:1035F000887013D001281FD002280ED100217F200F
:10360000A04700210320A04720210420A047022139
:103610007F20A04703210020A04710BD00217F206C
:10362000A04700210320A04720210420A047022119
:103630007F20A0470021EEE700217F20A0471F2127
:103640000320A04702217F20A04701210020A0479E
:1036500000217F20A0473F210420DDE710B501288D
:1036600002D002280ED01BE0487A0C7A00022043D8
:10367000C00715D048790979000208431946FFF7B9
:1036800068FA10BD487A0C7A00022043800707D5FB
:1036900048790979000208431946FFF76EFA10BD10
:1036A000002010BD70B5CA4C6068817EFD221140BB
:1036B0008176E068C84D837F427F20304178007872
:1036C000090201430120A847606881784906C90FB3
:1036D000E1708178BF221140817070BD10B5BC4C83
:1036E0006068817E022211438176BB483430804776
:1036F00060688178BF221140E278D207520E1143F0
:10370000817010BDFFB5B24C0546606817460E4685
:10371000C27881B00021120702D5002005B0F0BDAB
:1037200000BF491C89B26429FAD34030417C890723
:10373000FCD42D20E16840010818C07A012804D18A
:10374000FF210531284600F0F8FAA80700230028D9
:1037500006D12D20E16840010818807A012810D098
:1037600061680020C0310A792A54401C80B20228C6
:10377000F9D3287880066878308035D501203870F4
:1037800033E061680846E030427B037B12021A4353
:10379000837B1B041A43920C9204AB039B0B1A43CA
:1037A0000273130A4373120C82734822525CC37B68
:1037B0005206520EDB09DB011343C373027A52082F
:1037C00052000272027A02231A430272E031087A2E
:1037D0008007FCD4287880066878308001D50120E5
:1037E00000E00020387010E03B7061680020C031BC
:1037F000AD1C03E00A792A54401C80B23288824210
:10380000F8D861680120C03148723088801C30804F
:1038100060684030417C890703D504990120087015
:1038200004E0407CC1070498C90F0170012075E7CE
:10383000F0B587B069480026059068460682067292
:10384000067300246649012088470028654803ABB9
:1038500002AA04A910D0FFF755FF002810D15C4838
:103860004068C078C0063CD55A4B02AA04A95D48FE
:10387000803B9847012403E05B4DA847002830D0E7
:10388000534DA868C278032A03D1A86A007801289A
:10389000D3D06846007A012801D1002C09D0514CC0
:1038A00021780807000F844605281CD0080744D05B
:1038B0007AE04E4C0820A047002807D00220A047FD
:1038C000002803D16846007B002807D06846008A9C
:1038D000474A801EC1B243489047AEE745493D2064
:1038E000884707B0F0BD4448E96808184279017973
:1038F00010020843400705D5A31C222204213F4F94
:103900000846B8473C48E968801E0918487A097A91
:1039100000020843400790D42F487A388047207827
:1039200070224006C10FE86811540622A11C7130B4
:1039300000F0EAF9A01C32492BE0E868C37D022BB5
:103940000FD000236030477B8646012F0BD000202C
:10395000034329D0032A08D07046007A01281AD0E0
:1039600064E00123EEE70120F2E705980090684645
:10397000008A244D0838C3B24806C10FA21C604615
:10398000A8471348C0686030007A0128A5D11E49B5
:10399000A01C884751E7012F03D01B49A01C884772
:1039A00044E0A01C1949FAE76046032895D0042892
:1039B00093D1E868C37D022B2AD000236030407B7E
:1039C000012800D00020034387D0032A22D02DE015
:1039D00054000020A7290000D91B0000401A002035
:1039E00045850000381A0020B127000069940000C6
:1039F0003F9C00006F90000083020000EF54000025
:103A0000CB1D0000CB6F0000155C0000995D00002D
:103A10000123D3E7059800906846008A984D801FDF
:103A2000C3B24806C10FA21C6046A8470598009083
:103A300001966846008A0838C3B22078410600071C
:103A4000C90F000FA21C8F4CA047F6E670B5FFB05F
:103A50008D4985B00420884700280BD08A4904206E
:103A60001A318847894880478949162088477FB09E
:103A700005B070BD87488047002500280FD0864CD0
:103A8000E06841790A075ED58279D3071DD0834962
:103A900081308847E0688179490849003AE0684602
:103AA00005807C4D794E863592367D4C09E069461D
:103AB00001A8A8470028DAD068460088C1B201A84A
:103AC000B047A0470028F2D0D1E7930709D5734A41
:103AD000014679311C3277309047E068FD228179C8
:103AE00008E0530708D56D49603191308847E06898
:103AF000FB22817911400DE01207F725002A0BDA2D
:103B0000027A01461046654A093142329047E06820
:103B1000817929408171AAE72940417103467733B1
:103B20003A2210215F4D0020A8470921E068890151
:103B30004118097801299AD14079C00997D1E169E2
:103B40000120087093E7A16A097800298FD1E16A02
:103B5000097801298BD1817D427D08021043524AA8
:103B600001219047E06A057081E770B54A4E7068A0
:103B7000447844704B4DE00706D0FFF767FF002301
:103B800001211A460846A847A00706D5FFF750FEB0
:103B9000002302211A460120A847600706D54348A2
:103BA0008047002304211A460120A847200707D593
:103BB0003E48BC308047002308211A460120A84710
:103BC000E00610D570682030407D3149400701D5AE
:103BD0003E2000E008208847002310211A460120DB
:103BE000A8470020B070A0060CD500F027F80023ED
:103BF00020211A460120A8470023FF211A4601313F
:103C00001846A847600611D51F490120884700289B
:103C100007D0F0686030807B012802D171680720EE
:103C20004875002340211A460120A847E00904D026
:103C3000002380211A460120A84770BD10B5124903
:103C400001208847002815D01348C16860314A7B9D
:103C5000012A05D142686032137808242343137087
:103C6000897B012906D14068017C402211430174FF
:103C7000002141750E48804705486238804710BDD5
:103C8000CB6F00007D5C0000458500000F26000022
:103C90006F900000ED340000540000207BA600006F
:103CA000371B0000315400004F6E0000C18D000032
:103CB000498F000030B50B46014600202022012428
:103CC00009E00D46D5409D4205D31D469540491B50
:103CD0002546954040191546521E002DF1DC30BD99
:103CE00070B500242546002801DA0124404200294D
:103CF00001DA01254942FFF7DDFFAC4200D0404226
:103D0000002C00D0494270BD03460B439B0703D0F3
:103D100009E008C9121F08C0042AFAD203E00B7890
:103D20000370401C491C521EF9D27047D2B201E008
:103D30000270401C491EFBD270470022F6E710B506
:103D400013460A4604461946FFF7F0FF204610BD09
:103D500030B504460020034600E05B1C934203D2CA
:103D6000E05CCD5C401BF8D030BD0321001D401E3F
:103D7000037812021A43491EF9D5104670470346CC
:103D800003220870000A491C521EFAD518467047D3
:103D9000F8B502464A40D40F42004B0052085B0877
:103DA0009A4202D20246084611464A0023D0C30D69
:103DB0004A00DDB2120EAD1A202D35DA4902012675
:103DC000490AF6058A19002C00D0524220214F1BC7
:103DD0001146B9402A411018C20D9A4221D0002C38
:103DE00017D0012D08DCDA05801AD20F8019D2070E
:103DF000DBB200F081FAF8BDDA05801A0123400039
:103E00001B06C01880185A428018CA0F1043490078
:103E100007E04908C2071143DA05801A80194008F3
:103E2000801800F061FAF8BD61000122511A001BF0
:103E3000F7E70122D2075140AAE70122D2075040FA
:103E4000A6E70000F0B507460846584087B0C00F07
:103E5000049048000E46590040084908BC1A8841A1
:103E600005D2384631461E4617460B4602465800D4
:103E7000400810434CD0300D039040055900400DD0
:103E8000490D0590401A0290402872DA180301216A
:103E9000000B09050843019004980092002805D002
:103EA00001995242002088410092019002984021DD
:103EB0000A1A0199009800F0E3F905460C466B4692
:103EC00007CB00F0FEF9C0197141039A0E0D0023D3
:103ED000D71756401A467A40164344D0049A002A0F
:103EE0002DD0029A012A039A15DC1205C01A9141BD
:103EF00001263605001C7141D20F059ED2070093A2
:103F0000019202962A46234600F03CFA07B0F0BD23
:103F100038463146FAE71605224A0F46B218C01A4B
:103F2000B74101210905001C4F4100187F4111468E
:103F300018187941E20F10436D19644113E0E2074C
:103F40006D0815436408C2071443039A012612053D
:103F5000C01A91413605001C7141CE07400830431C
:103F60004908C01851412A46234600F0FEF9CDE722
:103F7000FFE7049801224000C117121A00238B4169
:103F800004983146C417381AA141EEE730B4012431
:103F9000E407634030BC55E730B40124E4076140D6
:103FA00030BC4FE70000E0FFF0B51FB488B00B99BC
:103FB0000998002448400999C00F4900490809910F
:103FC000C0070B990090490049080B91099908987E
:103FD000A64608431CD00B990A98084318D00998A4
:103FE00001244000420D4800410D099824050003BA
:103FF000000B204309900B980003000B20430B900B
:1040000050181C494018002201901446104605E043
:10401000002001460DB0F0BD032801DA034600E0A0
:1040200003239C46C11A0AAE0AE05F0008ADED5BAF
:104030004F00F75B7D430027AA187C41491C5B1E9B
:104040006145F2DD410004AB5A522104120C0A43CF
:10405000240C401C0828DFDB019802900099704670
:1040600001910090059B049A0799069800F08AF93F
:10407000D0E700000DFCFFFFF0B50C465C4085B0BA
:10408000E40FE40703944C000026640859009446AA
:10409000490802460296224321D062460A431ED0B6
:1040A0006200570D4A000E032303550D01240246FA
:1040B0002C492405781B1B0B360B40182343264341
:1040C000614600901C46501AB44103D30098401C2E
:1040D000009002E0921800985B41002803DA00206B
:1040E000014605B0F0BD00200121090507468646BE
:1040F00011E064461D46141BB54106D36546521BAC
:10410000B341744607430C43A646CD07400849080F
:10411000284392185B4105460D43EAD110461843E7
:1041200013D06046194650407140084306D060469F
:10413000101AB34106D20122002306E00022012317
:10414000DB0702E00122D2435310009874460105B8
:10415000381C6141029C039D0019694100F005F97A
:10416000BFE70000FD03000010B5002296231146B2
:1041700000F0C2F810BD00000EB5C217C10F5040CC
:10418000CA0740180021054B0293019200910A468C
:104190000B4600F0F7F803B000BD00003304000048
:1041A0000EB505490291002100910A460B46019186
:1041B00000F0E8F803B000BD330400004A00090332
:1041C0000123090B1B051943094B10B5520D9A42E7
:1041D00001DA002010BD064B34339A4203DC9A1AF0
:1041E00000F05EF810BD03495118884010BD000072
:1041F000FF030000CDFBFFFFC20FD20740004008C5
:104200000BD0C10D0723DB01C91840020905400A84
:104210001143C20840071143704700200146704710
:10422000F0B51FB40646002082B005464024019137
:1042300000901BE0019922460F46304600F030F80E
:10424000049A059B801A994110D3104619462246BC
:1042500000F016F8361A8F410197224601200021FE
:10426000009F00F00DF838184D4100902046641E64
:104270000028DFDC019B00982946324607B0F0BDDC
:1042800010B5202A04DB0146203A9140002010BDE1
:10429000914020239C1A0346E3401943904010BDEF
:1042A00010B5202A04DB0846203AD040002110BD7A
:1042B0000B46D340D0402024A21A9140084319460F
:1042C00010BD10B5202A06DBCB170846203A104156
:1042D000C1170B4306E00B461341D0402024A21A1D
:1042E00091400843194610BD002904DA401C4900DA
:1042F00001D140084000704770B40024050C05D17E
:104300001024000402D1002921D01124050E01D16E
:1043100000020834050F01D10001241D850F01D1D1
:104320008000A41C002801DB4000641C002908D088
:1043300020252E1B0D46F540A14000D00121294328
:10434000084301061B1B000ADB1D02D5002070BCC0
:104350007047DB05181880180029F8DA401C49005E
:10436000F5D170BC40084000704710B5002B08DA4A
:104370000024401C614192185B411A4301D140085E
:10438000400010BDF0B51FB482B005460C0003D04C
:10439000084600F0A1F802E000F09EF82030024646
:1043A000009021462846FFF76BFF049B059A0446C0
:1043B0000F4618431143084314D0184610431BD02E
:1043C000009840210A1A18460599FFF769FF05462B
:1043D0000E46009A05990498FFF752FF084305D04E
:1043E000012004E02046394607B0F0BD0020C11787
:1043F00005430E432C43374300990E986305401A3A
:104400007905E40A00220C43FD0A0A3002D5002097
:104410000146E9E70105101969410C9C0D9D001941
:104420006941FFF7A2FFDFE74A0009030123090BF7
:104430001B0519430A4B10B5520D9A4202DA0020AF
:10444000014610BD064B34339A4203DC9A1AFFF73B
:1044500027FF10BD034BD218FFF712FF10BD00005D
:10446000FF030000CDFBFFFF10B5002904DB012492
:10447000E40740428C412146002B04DB1C4601230B
:10448000DB075242A341994200D1904210BD000087
:10449000064C0125064E05E0E36807CC2B430C3C97
:1044A00098471034B442F7D3FBF70EFEE04E0010ED
:1044B000004F001037B514460846064B6A462146A1
:1044C00000F0EAF804466946002000F081FC20462E
:1044D0003EBD0000D14D00102021020C01D0102162
:1044E0001046020A01D010460839020901D01046D0
:1044F000091F820801D01046891E420801D0881E7B
:104500007047081A704730B47446641E2578641CDE
:10451000AB4200D21D46635D5B00E31830BC184718
:1045200002E008C8121F08C1002AFAD1704770477C
:10453000002001E001C1121F002AFBD170470000DA
:10454000F0B51FB484B007980699020D014314D04A
:104550004A484B491018484305140F9801280E98F3
:104560001CD0281A401C0024464E47490094019153
:104570000290002814DA474227E00F98012443A351
:10458000012808D0002104980F9A84600360C2605B
:10459000416009B0F0BD0E98C143F4E74042E2E744
:1045A000074612E0F80707D02246334601990098E3
:1045B000FFF7FAFC01910090224633461046194657
:1045C000FFF7F2FC04460E467F10002FEAD1029856
:1045D000019B0028009A0799069802DAFFF7E4FC8D
:1045E00001E0FFF749FD04460E460022284BFFF785
:1045F0003BFF03D80020C043014607E00022254BC3
:1046000020463146FFF71EFCFFF70EFF102409E09D
:10461000002C0ADB0A220023FFF702FE059B303242
:104620001A55641E02460A43F2D11122641C059BEE
:10463000121B1C190F9B012B03D0012308430ED121
:104640000AE0084304D011200E9000200F9084E768
:104650000E98151A6D1E0BE00E98824202DD0023A3
:104660006D1C03E0824201DA00236D1E002BEED0A8
:1046700004980F998260C16030C08AE701FCFFFF97
:10468000104D0000000024400000F03F300000000A
:104690000000F0430000E03FFFB597B0064600255C
:1046A00018E2252877D100242746FD49049400E02C
:1046B0000443761C32780120203A90400842F7D11A
:1046C00030782A280ED00222307801463039092964
:1046D00016D804990A235943303940181443761CDC
:1046E0000490F1E7189802C804911890002904DAA0
:1046F0000120400304434842049002200443761CF6
:1047000030782E2814D1042004437078761C2A288F
:1047100009D11898761C80C8189009E00A214F43E7
:10472000303FC719761C3078014630390929F5D950
:1047300030786C2810D006DC4C281AD068280ED0AF
:104740006A2817D104E0742813D07A2812D110E017
:104750000120400504430CE00121090501E003218B
:1047600009050C437178814203D10120000524180A
:10477000761C761C3078119066280BD013DC5828F4
:104780007DD009DC00287BD04528F6D04628F4D01F
:1047900047281AD1A5E118E0632835D0642870D0E5
:1047A000652812D19DE170286CD008DC6728F1D013
:1047B00069287BD06E280DD06F2806D1BAE0732807
:1047C0002ED0752871D0782859D01A9A1999904707
:1047D0006D1C7EE16002400F022809D003280DD035
:1047E0000428189801680DD00D60001D189070E124
:1047F0001898EA1701680D604A60F6E71898016892
:104800000D80F2E70D70F0E718986A460178117292
:10481000001D18900020507202A80090012005E0B1
:10482000189802C8189000200091C04361070DD568
:10483000002101E00199491C0191B94212DA81423B
:10484000F8DB009A515C0029F4D10BE0002101E073
:104850000199491C01918142FADB019A0099895C16
:104860000029F5D1019904981A9B471A2146384628
:10487000199A00F097FA0199401945180BE04FE09A
:104880002CE113E04EE0009800990078491C00915B
:104890001A9A199990470198401E0190401CF2D134
:1048A000214638461A9B199A10E137E00A20002168
:1048B000009001916002410F022907D0189A01CAA5
:1048C0001892C2179446032908D00AE01898C01D10
:1048D000C108C90005C91891944607E000B2C21783
:1048E0009446042902D140B2C1178C460022614689
:1048F000944506DA0A460021404291418C462D211A
:1049000002E0210504D52B216A461173012103E041
:10491000E10701D02021F7E7029155E00A200AE0E3
:10492000102008E010200090002104200443019191
:10493000082703E008200021019100906002410F48
:10494000022907D0189A01CA189200229446032916
:1049500008D008E01898C01DC108C90005C9189101
:10496000944603E080B2042900D1C0B20021029134
:10497000210729D51199702906D0009A1021019B91
:104980004A401A4305D00EE040216A4611730121C6
:1049900008E06146014306D030216A46117311993F
:1049A000517302210291009A0821019B4A401A4347
:1049B0000AD16146014301D1610705D530216A461C
:1049C000117301217F1E02911199582904D035A13C
:1049D0000E910DA90D910DE037A1F9E76146019BFC
:1049E000009AFFF71DFC0E9B8C469B5C0D9A521E95
:1049F0000D92137061460143F0D10D9805A9081A74
:104A000020300190600703D501200004844300E0BA
:104A100001270198874201DD381A00E00020019942
:104A200000904118029809180498401A0490E00375
:104A300006D421461A9B199A049800F0B3F9451937
:104A4000002706E003A81A9AC05D199990476D1CCB
:104A50007F1C02988742F5DBE0030CD521461A9BA8
:104A6000199A049800F09EF9451904E01A9A30202A
:104A7000199990476D1C0099481E00900029F5DC9B
:104A800008E00D980D990078491C0D911A9A199912
:104A900090476D1C0199481E01900029F1DC63E1EB
:104AA0000928010030313233343536373839616204
:104AB00063646566000000003031323334353637C8
:104AC00038394142434445460000000000F05AF99D
:104AD0004519761C3078002800D0E2E528461BB046
:104AE000F0BD600700D406271898C01DC108C90092
:104AF00048680A680831C30FDB071891190001D014
:104B00009CA108E0210501D59BA104E0E10701D0AB
:104B10009AA100E09AA1430011985B0810916528C2
:104B20000CD006DC452809D046281DD0472841D1A5
:104B300041E0662818D067283CD13CE00021112FC5
:104B400001DB112000E0781C0191009008A911A858
:104B5000FFF7F6FC139905910021119A15927F1C1D
:104B600012980197009150E00120C00703900120A6
:104B7000019008A9009711A8FFF7E2FC139A149975
:104B800005920022119B009212981593059A0192AA
:104B9000002901D0104602E0791C40180190381A13
:104BA00001D5019804E04042401E0090781C01901D
:104BB000C01B029043E0012F00DA01270021112FD2
:104BC00001DD112000E038460191009008A911A8EC
:104BD000FFF7B6FC13990591119A002112981592CE
:104BE0000091019721070CD40599B94201DB019985
:104BF00000E00191012904DD159A491E515C30291C
:104C000006D0B84201DA011D05DA0121029115E052
:104C10000199491EEDE7002805DC00994118009133
:104C20000199091A03E0019A411C914200DD0191AA
:104C30000099401A401C02900120C00703902007F1
:104C400006D402990198814202DB0020C043029001
:104C500000206946C87707AF012103980337C907C9
:104C6000884224D0022011902B2012900398002813
:104C70000CDA404203902D20129007E00A2103989D
:104C8000FFF718F830317F1E039039701199481ED4
:104C900011900029F2DC03980028EFD1791E1298B8
:104CA00008703078202108404530BF1E387006A8B3
:104CB000C01BC01D039010980078002800D0012070
:104CC000019941180298C017091803980918049807
:104CD000401A401E0490E00306D421461A9B199AFC
:104CE000049800F05FF8451910980078002803D068
:104CF0001A9A199990476D1CE00324D521461A9BF6
:104D0000199A049800F04EF845191CE00098002804
:104D100007DB00990598884203DD1598405C1999D6
:104D200001E0199930201A9A904700986D1C401C98
:104D300000900298401E0290002804D11A9A2E205A
:104D4000199990476D1C0199481E01900029DDDCDE
:104D500005E038781A9A7F1C199990476D1C0399C1
:104D6000481E03900029F4DC21461A9B199A0498E6
:104D7000ACE600002D0000002B0000002000000029
:104D800000000000F8B5044600251E4617468804BA
:104D900004D405E039462020B0476D1C641EF9D5C7
:104DA0002846F8BDFFB50446002581B01E46C8035D
:104DB00001D5302700E02027880404D505E03846D7
:104DC0000399B0476D1C641EF9D5284605B0F0BDA7
:104DD0000A68531C0B601070704707000800090038
:104DE0000A000B000C000D000E0010001100130053
:104DF0001500170019001C001F00220025002900C3
:104E00002D00320037003C0042004900500058009D
:104E100061006B00760082008F009D00AD00BE0037
:104E2000D100E600FD001701330151017301980123
:104E3000C101EE01200256029202D4021C036C034F
:104E4000C30324048E04020583051006AB0656072F
:104E50001208E008C309BD0AD00BFF0C4C0EBA0FB4
:104E60004C110713EE1406175419DC1BA51EB621AE
:104E70001525CA28DF2C5B314B36B93BB24144487B
:104E80007E4F71572F60CE696274FF7FFFFFFFFF77
:104E9000FFFFFFFF0200040006000800FFFFFFFF06
:104EA000FFFFFFFF02000400060008001010401082
:104EB0004010104010402020201020101010101022
:104EC00020204010201010401040108840108820F2
:104ED0002020102010101010102088401088000092
:104EE000004F00100000002084000000204500104A
:104EF000844F001084000020BC1E000030450010CC
:104F000000000000000000000000000000000000A1
:104F10000000000000000050800000500000000071
:104F2000601000508C10005070B0025078B00250E9
:104F300070B0025078B00250000000000000000085
:104F400040787D010000000000000000000000002B
:104F500000000000000000000000015008AA02202C
:104F6000309F0220F8A60220C8810220CC810220B6
:104F7000D580022024800220208002208F80022001
:044F800090800220FB
:04000005100000C126
:00000001FF
