:020000041000EA
:10000000C8230020FD10001005110010071100107A
:1000100000000000000000000000000000000000E0
:1000200000000000000000000000000009110010A6
:1000300000000000000000000B1100100D11001066
:1000400007080010BF4800100F1100100F1100101A
:100050000F1100100F110010EB0900100F1100100C
:100060000F1100100F1100100F1100100F110010D0
:100070000F1100100F1100100F1100100F110010C0
:100080000F1100100F1100100F1100100F110010B0
:100090000F1100100F1100100F1100100F110010A0
:1000A0000F110010950A00100F110010950C001090
:1000B0000F1100100F1100100F1100100F11001080
:1000C0000348854606F014FA00480047DD0000109A
:1000D000C823002000B52D1D00BD000072B601F040
:1000E00031F801F0ECFC642000F0D8FB002119206D
:1000F00000F00FFC0021172000F00BFC0021222053
:1001000000F007FC00210A2000F003FC0121192067
:1001100000F083FA0121172000F07FFA012122204C
:1001200000F07BFA01210A2000F077FA00210E206E
:1001300000F0EFFB00210F2000F0EBFB002110206E
:1001400000F0E7FB00210E2000F0FFF900210F2056
:1001500000F0FBF90021102000F0F7F9072114202E
:1001600000F0D7FB0721152000F0D3FB00F03AFF89
:100170001EA000F03DFF00F06BF862B6192000F001
:10018000A3FA32E00E2000F0B4FA002820D11C4877
:10019000007800280ED100F0B4F80120184908704A
:1001A000172000F091FA00BF0E2000F0A2FA0028FC
:1001B000FAD00DE000F0B0F80020114908701720C7
:1001C00000F06DFA00BF0E2000F093FA0028FAD07C
:1001D0000C480078012808D100200A4908707822CC
:1001E00009480168002000F073FCCBE753594438FC
:1001F00038323120414D49432044454D4F0D0A00CE
:10020000000000200C0000200800002010B504466B
:1002100040202040402802D14348444908608020C3
:100220002040802802D14248404908607821414856
:1002300005F0B3FD404BF0223E493C48006800F019
:1002400085F83C483D49086001203D49087010BDD3
:1002500010B500211A2000F05CFB00211B2000F0EB
:1002600058FB00211C2000F054FB00211D2000F051
:1002700050FB00211A2000F0A1F900211B2000F002
:100280009DF900211C2000F099F900211D2000F0AB
:1002900095F909211A2000F03CFB09211B2000F0F0
:1002A00038FB09211C2000F034FB09211D2000F03F
:1002B00030FB022000F060FD002000F068FD00200F
:1002C00000F04FFD012000F041FD012000F069FD2C
:1002D0000D2001F09EFD2821002000F0B5FD0F212A
:1002E0008901114800F006FDE02000F0E3FC15480C
:1002F00000F0DDFC1B2001218140134A116000BF8A
:1003000010BD10B500F0DBFC012000F0C5FD0020A1
:1003100009494880088010BD10B500F0DEFC0020BF
:1003200000F0BAFD10BD00007002002004000020A3
:10033000500400203006002010000020080000209B
:100340000C0000200D02001000E100E0FFB586B0B7
:1003500000260196079E0496069E05960023099E98
:10036000F35E0224099E345FA600734FB85901263C
:1003700000965DE00026059FBE5F0396BE1C0596B5
:10038000039EF11ACE0FF6000296029E002E00D0B8
:1003900049420022C510814202DB0422091A2D18AD
:1003A0004010814203DB02263243091A2D18401007
:1003B000814202DB012632432D18029E002E01D01D
:1003C0005B1B00E05B195D4EB34201DD334604E088
:1003D0005A4EF643B34200DA3346029E3243960049
:1003E000574FBE593419002C00DA0024582C00DD78
:1003F0005824A600504FB859009E002E04D0160174
:10040000F0273E40019609E01607360F019F3E4354
:1004100077B2049E3770049E761C0496009E002ED0
:1004200001D1012600E000260096089E761E08965F
:10043000089E002E9EDC009E002E06D1019E77B203
:10044000049E3770049E761C04961FB2099E378066
:1004500027B2099E77800AB0F0BDFFB585B00026AF
:100460000196069E0396059E04960021595E02227F
:100470009A5E9600304FBD590026009653E0009ECC
:10048000002E03D0019E3007000F08E00027049ED5
:10049000F757761C01970496019E3606300F009E92
:1004A000002E01D1012600E0002600968600244F90
:1004B000BE59B218002A00DA0022582A00DD58225C
:1004C0000826064002964007400FEC10042606401E
:1004D000002E00D0641902260640002E01D06E10B6
:1004E0003419C607F60F002E01D0AE103419029E43
:1004F000002E01D0091B00E00919104EB14201DDA8
:10050000314604E00D4EF643B14200DA3146960022
:10051000094FBD590FB2039E3780039EB61C039648
:10052000079E761E0796079E002EA8DC0EB21E8040
:1005300016B25E8009B0F0BD54000020FF7F0000BD
:1005400014000020D1490860704770B5024620248D
:100550001440630920251446AC430125A5402846D4
:100560009C00CB4D2C592075050A6575050CA575A9
:10057000050EE575002B13D0002908D1C54D6D7D02
:100580000543ECB2C34D6D7DC24E747515E0C14D8F
:100590006D7D85432C46BF4D6D7DBE4E74750CE060
:1005A000002905D1BB4C64680443BA4D6C6004E07B
:1005B000B84C64688443B74D6C6070BD70B502463A
:1005C00020241440630920251446AC430125A5408E
:1005D0002846002B13D0002908D0AE4DED7D0543F1
:1005E000ECB2AC4DED7DAB4EF47515E0A94DED7D53
:1005F00085432C46A74DED7DA64EF4750CE00029F1
:1006000005D0A44CE4680443A24DEC6004E0A14C86
:10061000E46884439F4DEC6070BD30B50B462024E8
:100620000440610920250446AC430125A5402A4623
:100630008C00974D2C592276150A6576150CA576F7
:10064000150EE576002B0AD08C00914D2C592271A5
:10065000150A6571150CA571150EE57109E08C0080
:100660008B4D2C592272150A6572150CA572150E48
:10067000E57230BD10B520230340590920240346FC
:10068000A34301249C4022468B00814CE3581A73FB
:10069000140A5C73140C9C73140EDC7310BD10B53B
:1006A00020230340590920240346A34301249C40EE
:1006B00022468B00764CE3581A71140A5C71140CB4
:1006C0009C71140EDC7110BD10B520230340590934
:1006D00020240346A34301249C4022468B006C4CFB
:1006E000E3581A72140A5C72140C9C72140EDC72B9
:1006F00010BD30B50146202008404209202408469C
:10070000A0430124844023469000614C205840308F
:10071000102404192578284665782D022843A578E9
:100720002D042843E478240620431840002801D0F3
:10073000012030BD0020FCE7F0B503460C4615460D
:1007400020221A40500920261A46B243012696401C
:100750003146002C0BD182004D4EB25840321172FE
:100760000E0A56720E0C96720E0ED6720AE08200B7
:10077000474EB258403211710E0A56710E0C9671E6
:100780000E0ED671002D0BD18200414EB258203290
:1007900011760E0A56760E0C96760E0ED6760AE076
:1007A00082003B4EB258203211750E0A56750E0C5F
:1007B00096750E0ED6758200354EB25820321171E4
:1007C0000E0A56710E0C96710E0ED671002201267D
:1007D0009640314F3E6000BFF0BD10B5202303406E
:1007E000590920240346A34301249C4022468B0040
:1007F000274CE35820331A72140A5C72140C9C7252
:10080000140EDC7210BD70B500243CE0A00020493D
:1008100008584030142141180A7810464A781202CC
:1008200010438A7812041043C97809060843A100CE
:10083000174A515820310A461378194653781B023B
:10084000194393781B041943D278120611430840C8
:100850000546002D00D114E00C480068002804D0A3
:1008600029462046094A12689047A00008490858BE
:1008700040300575290A4175290C8175290EC1750D
:1008800000BF601CC4B2022CC0DB70BDC0010020E0
:10089000B80100204010005000E100E0002109E014
:1008A000002201E0531C9AB27D239B019A42F9DB9E
:1008B0004B1C99B28142F3DB7047002107E0002214
:1008C00001E0531C9AB2092AFBDB4B1C99B281420E
:1008D000F5DB704710B50146272901DA002902DA55
:1008E0000020C04310BDCC07E40F202904DA4A10D1
:1008F0001B480068835C05E0084620384210184811
:100900004068835C002C01D01811EBE71807000F3A
:10091000E8E770B5272801DA002800DA70BD09077A
:10092000090FC407E40F202804DA43100C4E366880
:10093000F21805E00646203E7310094E7668F2185C
:100940001578002C01D00F2600E0F0263540002C51
:1009500001D00E07310E2E460E43167000BFDDE7A4
:10096000C401002070B504460D46062000F00EF9C3
:100970008A4800680078000900012907090F084328
:100980008649096808708548006800788021884396
:10099000E1018022114008438049096808707F48BE
:1009A00000680078402188437C49096808707B48CA
:1009B0000068807808218843083078490968887081
:1009C00092007749774800F0F5F87748406A40216F
:1009D0000843754948620846006A40210843724945
:1009E0000862062000F0CBF870BD70B56B48006857
:1009F0000478302060400546684800680570102083
:100A0000204000280DD000BF644800680179654887
:100A100000F008F961480068C078C007C00F0028DE
:100A2000F2D070BD70B504460D46192000F0AEF846
:100A30005A4840680078000900012907090F084357
:100A400056494968087055484068007880218843B5
:100A5000E1018022114008435049496808704F481D
:100A600040680078402188434C49496808704B48E9
:100A70004068807808218843083048494968887070
:100A800092004A494748103000F094F8192000F0CD
:100A900076F870BD70B541484068047830206040F9
:100AA00005463E48406805701020204000280ED0C2
:100AB00000BF3A48406801793A48103000F0B2F877
:100AC00036484068C078C007C00F0028F1D070BD1C
:100AD000F0B50B4601242404002112E000BF85007C
:100AE0002E4E7559ED782D07ED0F002DF7D18500AD
:100AF00075596D785E5C35468600284FBE59757015
:100B0000491C9142EADB00E0641E8500234E7559C2
:100B1000ED786D07ED0F002D01D1002CF4D1F0BD63
:100B200070B504460D4621011E4A8818294600F07A
:100B300087F870BD70B504460D4600BF022C01DB7E
:100B4000002070BD2101174A881800F08EF8002897
:100B50000AD1200113494018C5682101114A88189B
:100B600000F08CF8C0B2ECE70020EAE7014601296A
:100B700001DD002070478800084A1058FAE7C206D5
:100B8000D20E012191400A4A11607047C206D20E6E
:100B900001219140064A803211607047CC0100204B
:100BA000C8060020A806002000800220C8080020F7
:100BB00000E100E00023436003608260C160704791
:100BC000416801607047F8B504460F4615466068F5
:100BD0004019A168884219DBA088281A86B2626889
:100BE000E16888183246394605F0BEF8A81B85B280
:100BF0002068A84202DC2088401E85B2B9192A4626
:100C0000E06805F0B1F865607019F8BD6268E168E8
:100C100088182A46394605F0A7F8606840196060D0
:100C20002846F2E702465368581C5060D068C15409
:100C300093685068984201DB0020506001207047A3
:100C4000024653681068984201D10020704713682B
:100C5000581C1060D068C05C087093681068984297
:100C600001DB002010600120F0E701464A680868B7
:100C7000904201D1012070470020FCE7014600228C
:100C80004B680868984200DD8A68486880180B68DD
:100C9000C01A704710B59548C478C470944800686D
:100CA000002803D0204692490968884710BD904922
:100CB00008607047E02141408C4A917070478B4832
:100CC000007CC007C00F002806D18848007C40087F
:100CD0004000401C8549087470478448007CC00768
:100CE000C00F002805D08148007C400840007F49A3
:100CF0000874704730B502460B4611468807800FCE
:100D0000002801D0002030BD00290ED0774C258965
:100D10002846A47A24042043800C80048C03A40B6E
:100D20002043724C2081000CA072704CA58928468B
:100D3000A47B24042043400C4004DC03E40B204348
:100D40006A4CA081000CA0730120DCE76749497858
:100D500004229143820004231A401143634A5170D4
:100D600070476249497802229143420002231A40A7
:100D700011435E4A517070475C4949783022914373
:100D8000020130231A401143584A517070475749A5
:100D9000497849084900C207D20F1143534A51709C
:100DA00070475249497808229143C20008231A40EB
:100DB00011434E4A5170704730B5002813D04B4B49
:100DC0009B7B2024A3434C0120252C402343474CEC
:100DD000A37323469B7B1E24A34354001E252C4053
:100DE0002343424CA373414B9B7B4024A3430028E5
:100DF00001D1012400E00024A40140252C4023431C
:100E00003A4CA37330BD3B4A125C002A00D17047B4
:100E100000228A5E374B1B5C1A410A8000BFF6E74E
:100E20000146002902D133480078704731484078A4
:100E3000FBE70146112901DB1B2901DD282901DB24
:100E4000012070470020FCE770B504460D46022CD7
:100E500000DB70BD00202749085507E028460C300C
:100E6000C5B22448005D401C224908552846FFF7BA
:100E7000E0FF0028F2D0002C06D11C484079E9B2EE
:100E800008461A49487105E018480079E9B2084651
:100E90001649087100BFDCE714494031C97C802243
:100EA0009143002801D0012200E00022D2018023DA
:100EB0001A4011430D4A4032D17470470B494031FA
:100EC000C97D80229143002801D0012200E0002248
:100ED000D20180231A401143044A4032D175704731
:100EE0000248007CC007C00F70470000006002503D
:100EF000D4010020D801002010B5024606200123AD
:100F00008340754C236000BF744800680078000976
:100F100000010B071B0F1843704B1B6818706F48BC
:100F20000068007880239843D3018024234018432D
:100F30006A4B1B6818706948006800784023984322
:100F40004030664B1B68187064480068C0781023F6
:100F500098431030614B1B68D870604800688078F7
:100F60000823984308305D4B1B6898705C48406AC2
:100F7000402318435A4B58621846006A40231843CE
:100F8000574B1862062001238340534C803C23605A
:100F900000BF10BDF0B50B4601242404002112E06F
:100FA00000BF85004D4E7559ED782D07ED0F002DD2
:100FB000F7D1850075596D785E5C35468600474FE0
:100FC000BE597570491C9142EADB00E0641E850041
:100FD000424E7559ED786D07ED0F002D01D1002CB3
:100FE000F4D1F0BD10B50B210020FFF785FF10BD37
:100FF0000FB438B500240498002803D138BC08BCCD
:1010000004B0184705A800903648009A049905F0E6
:10101000D3FAC4B200200090802C00DD8024224648
:1010200030490020FFF7B6FF00BFE7E70FB438B53F
:10103000054600240598002803D138BC08BC04B03C
:10104000184706A800902748009A059905F0B4FAB9
:10105000C4B200200090802C00DD8024224621496B
:101060002846FFF797FF00BFE7E7F8B505460E46AD
:1010700017460024002D02D02846FFF7B9FF0024B0
:101080001BE02046E117490F0918C910C900611A71
:1010900003D1A1B214A0FFF7ABFF315D14A0FFF79D
:1010A000A7FF601CC117490F0918C910C900411AD0
:1010B00002D111A0FFF79CFF641CBC42E1DB20467B
:1010C000E117490F0918C910C900611A02D00AA016
:1010D000FFF78EFFF8BD000080E100E0DC0100209A
:1010E00000800220C80A00205B253034785D200093
:1010F00025303278200000000D0A000004488047A7
:1011000004480047FEE7FEE7FEE7FEE7FEE7FEE7EE
:1011100021110010C1000010034804490860704705
:10112000014802490860704740787D01E4010020D1
:10113000F749202208781043EF2210400422104380
:101140000870704710B5F3488047002802D002F0BD
:1011500051FF012010BD10B502F0AFFF10BDED49E9
:1011600028310847EB493C310847EA496C310847C8
:10117000E9490847E8495C310847E7496A310847C7
:10118000E54976310847E44986310847E249943118
:101190000847E149A2310847DF49AE31084730B47A
:1011A000DE4CA44630BC6047DC4874300047DC4865
:1011B0000047F8B5DB4DCF222968DB4C08780026C4
:1011C000104008702068D94918308847286822687C
:1011D0000178127F090912070901120F11430170EA
:1011E0000907090FBF27012921687DD00A4622314E
:1011F0004B7809781B020B43114620310B711B0AF7
:101200004B710378117A3B4089010B435906490E13
:101210000170226841784032127A8909921D920643
:101220008901920E1143417021680622801C093108
:1012300004F09AFD21684820425C002A04D0286806
:101240004931083004F090FD2168B84A7020405CB4
:10125000323A713190472868B54A41788906890E3B
:10126000891C90472868017809090901091D017046
:1012700022683940127AD207520E11430170226857
:1012800041782032127A8909921D92068901920EC4
:101290001143417021680622801C093104F064FD6D
:1012A00021682820425C28682931083004F05CFD60
:1012B0002868A04A41788906890E891C90472568CC
:1012C00000206F7F012181400F4204D0E97F0B2273
:1012D00051438E19761C401C0328F3D32C4620342E
:1012E00060782178000200E01AE0084313214843A7
:1012F000401CB04206D2701E04F00CFD401C207051
:10130000000A60706078217800020843022803D246
:101310000220207000206070287F012824D03AE04D
:101320000B4620318A79CA71197A0278C9073A4086
:10133000490E0A43027051062268490E6032127C3F
:10134000D2011143017041780622890989010C31CB
:1013500041702168801C093104F006FD286821686D
:101360000622083071316DE7E079002813D06078EB
:1013700022780102114313204143A079491CC00384
:1013800004F0C8FC401C06467F2104F0C3FC401C4E
:10139000C1B2E1711EE0607921790002084331D0C9
:1013A00060782278010211431320414328462230FD
:1013B0004278037810021843C003491C04F0AAFCC9
:1013C000401C06467F2104F0A5FC401C81B221711F
:1013D000080A6071304604F09DFC401C7F2800D94B
:1013E0007F200121E975A97F0091617823780902A6
:1013F0001943514CEA7FC0B23B46A0474E483430B7
:101400008047F8BD00204D4CE87503460246012197
:10141000A047F8BD4A48002201684A750A7C0120AD
:1014200002430A74404909682031C87108710020DC
:10143000487170473A491A3108473948F430004733
:101440004048004738B5049C00943E4C0E34A047F9
:1014500038BD30B43B4CE834A44630BC604710B5CE
:1014600002F021FF10BD10B502F039FF10BD354963
:10147000A4310847344800473348323000473249E6
:10148000463108473049B23108472F49C231084731
:101490002D4AD032104710B501F0FEF910BD2A498F
:1014A000FC3108472949084728490E310847274990
:1014B0003631084710B501F0CEFC10BD10B503F071
:1014C00034FB10BD2148DC3000471D480068C0785F
:1014D0008007C00F704770B513480068817C427C5C
:1014E0000802104312D0FFF7F0FF094C0225012833
:1014F00030D11648DC308047154988422AD12178FE
:10150000012029430143217003F00FFB70BD00004F
:10151000861B0020DF5600001558000027590000E8
:10152000CD5B00001402002010020020451D0000C9
:101530002B26000047270000971B000031540000B5
:1015400008020020F55C00005B5E0000675F0000A1
:101550000604000020788021084328432070D5E746
:10156000F8B5FE48C079000656D5FD480668B17C3E
:10157000707C0F020743F948057801D0A80701D411
:10158000680749D5F54C207BE17A0002E41C08434A
:1015900042D0002F40D060782178000208432AD141
:1015A000307CF17B0002084304F02AFE0022ED4B60
:1015B00004F02AFD04F032FE80B278430A2104F0E0
:1015C000BFFB4004010C2170080A6070307DF27C82
:1015D000000210430A224243914203D3401E20706E
:1015E000000A6070607821780002084303D101206E
:1015F000207000206070FD210D40D84801210D436E
:101600000570002003F091FA6078227801021143FE
:10161000D64BD54A09209847F8BD10B50F21CF48C1
:1016200004F0BBFB10BDF0B504468DB0401C04F0C7
:10163000CCFBCA4E00253E3E024604282AD0C748AD
:10164000D31F0178FF3BFA3B18D001239B039A423A
:1016500079D1C6490A202431884770780621484349
:1016600081190A22601D891C04F07EFB7078401CE1
:10167000C0B270700A2876D3757074E0C279002AFF
:1016800071D0CA066FD4A37966791A023243012A4F
:1016900005D068E075703570FFF7BFFF63E08278B2
:1016A000521E1206120E82704ED0AC4943788879D1
:1016B0004E7902023243887A4E7A00023043491C46
:1016C000012B47D0801A0872000A487200060B7A74
:1016D000000C1843831A6A46138350839F4A167B73
:1016E000D27A360216436A4696834A7B0F7B1102F2
:1016F00039436A46D183138050809680D18013721B
:101700003220507200209072D572280A1073012086
:101710005073002090730220D073002010740320B7
:101720005074002090740420D0740020107505209F
:101730005075002090758E49104688478C4906A840
:101740001E3188470FE007E0027A82704022114381
:10175000017008E08018B6E7880604D59004000FF1
:1017600001D0FFF7FDFE83492046096988470DB087
:10177000F0BD10B50446001D04F027FB7D4908614B
:10178000211D7D4804F02BFB794920465C318847B8
:1017900010BD77497E3108477549D4310847744AEE
:1017A000DC321047724AE43210476C4900203E395F
:1017B0000A7849788A4200D90A200818801A401EFF
:1017C000C0B2704700B5FFF7F0FF002804D16348AE
:1017D00000213E384170017000BDF8B50E46074645
:1017E00066491C46154601208847002807D0FFF7A8
:1017F000B7FE23462A463146384602F030FDF8BD92
:10180000F8B50E4604465D491F4615460120884737
:10181000002814D0022C03D1FFF7C7FF002809D0FD
:10182000EAB2534D3B4631462046F435A8470128DD
:1018300007D004E00A214D4B514A08469847002042
:10184000F8BD022C12D1454C06213E3C20780A46B8
:10185000484300193146801C04F086FA2078401C69
:10186000C0B220700A2801D3002020700120F8BDEA
:1018700070B50D4604461121401989031646884269
:1018800001D3002042E63F480068213004F09DFA71
:101890003D4B001932462946984737E6F8B50646CB
:1018A000EFF3108472B6374D2868213004F08DFABA
:1018B0008019364A0121904784F31088334F002461
:1018C000F63FEFF3108572B62E480068213004F021
:1018D0007CFA311940182E4900230A192021B847F3
:1018E00085F310880120000320348442E9DBF8BD31
:1018F000F7B5070501993F0D002912D0029900297B
:101900000FD01C49897800290BD101997A1801213F
:1019100009038A4205D8019A112382181B039A42AF
:1019200001D90020FEBD0025C41BEFF3108672B65E
:1019300014480068213004F048FA6119401814492D
:10194000114B4A192021984786F310880120000383
:1019500020358542E9DB0E48C0191BE0861B0020BC
:10196000100200200000F43FD7140010D333000011
:10197000575F0000E8010020271600104585000091
:10198000C51700100C0200208F1600009F180000E1
:10199000480B0020019A029904F0E6F9FB49012066
:1019A000884700280AD0EFF3108072B6F849012268
:1019B0008C808A7080F310880120FEBD2046FFF7DE
:1019C0006DFFF9E7F3490847F24A0832104738B586
:1019D000049C0094EF4C1034A04738BD30B4ED4C5B
:1019E0001C34A44630BC6047EA4924310847E94A20
:1019F0002C321047E74A3432104730B4E54C3C34BF
:101A0000A44630BC6047E34B44331847E14B4C33AA
:101A1000184730B4DF4C5434A44630BC6047DD492D
:101A20005C310847DB4864300047DA496C310847CD
:101A3000D9490847D84908310847D7498C31084760
:101A4000D548BE300047D448E2300047D34A10475B
:101A5000D2495231084710B503F026F810BDCF49DE
:101A600064310847CD496C310847CC497631084785
:101A700010B502F0B9FB10BDC948004770B5C448A5
:101A8000002480682546807A4006C60F72B6C44896
:101A90008047022002F0A8FB641CA4B2FA2CFBD3FE
:101AA0000024304602F05CFB002801D0012503E051
:101AB000641CE4B2032CF4D362B6284626E510B5C4
:101AC00002F066FF10BDB6480E300047B54A104719
:101AD000B44A223A104738B502F05AFFB2480068BB
:101AE000407805281FD1AA488068807A4006C40F34
:101AF000AB48804700217F20FFF7E8FF69463F2081
:101B0000FFF7E6FF684600788109022906D1410601
:101B1000490E684601703F20FFF7D8FF002C02D124
:101B20009F480E30804738BD9C49A431084730B4E7
:101B30009E4CA44630BC60479848F6300047984811
:101B40001438004796491C310847954842300047F1
:101B500093484C30004710B591488047944C012081
:101B6000A0470020A04710BD924908707047F8B503
:101B7000002472B6904A0121904B090320469847F1
:101B800062B68F4E30680546093004F01EF98A4966
:101B90004718E878002811D02846313004F015F9AC
:101BA000064628462D3004F010F9301A4002060E81
:101BB0003878844F824D002857D073E0284629306A
:101BC00004F003F906462846253004F0FEF8301AE2
:101BD0004002060E38787B4F794D00280CD026E065
:101BE00072B62868293004F0F0F8E10340180821A3
:101BF000B84762B6641CE4B2B442F1D32D682846FB
:101C0000293004F0E2F806462846253037E072B65F
:101C1000E203B01819E072B62868253004F0D5F850
:101C2000E10340180821B84762B6641CE4B2B4422C
:101C3000F1D328680646293004F0C7F80546304637
:101C4000253039E072B6E2038018B84762B6012049
:101C5000F8BD72B62868313004F0B7F8E1034018D7
:101C60000821B84762B6641CE4B2B442F1D32D68CF
:101C70002846313004F0A9F8064628462D3004F0F5
:101C8000A4F8301A4004410FC1D1E0E772B62868C9
:101C90002D3004F09AF8E10340180821B84762B6E5
:101CA000641CE4B2B442F1D328680646313004F033
:101CB0008CF8054630462D3004F087F8291A49047F
:101CC000490FBFD1C3E7364BC23318473E4B1847C5
:101CD00030B43D4C6634A44630BC604730B43B4C15
:101CE000A44630BC6047F8B539488047284DA878ED
:101CF000002809D0A888FFF7D1FDEFF3108072B655
:101D00000021A97080F31088324CE079002834D08B
:101D1000000610D52078410705D5FFF721FC207873
:101D2000FB21084006E0000605D5FFF719FC2078E6
:101D30004006400E20702078274F284E41060AD5D5
:101D4000BF210840207002206946088002466B4689
:101D500039460020B0472078C1070ED04008400027
:101D60002070800701D5042000E005206946088026
:101D700002226B4639460020B0476878C10704D07C
:101D8000400840006870E8688047F8BD458500005D
:101D9000E80100205D6100008B620000916300009B
:101DA0006B660000A729000010020020E931000046
:101DB000692D0000FE010020480B00208F16000056
:101DC0000C0200209F1800001B68000061690000E1
:101DD000D1640000861B0020000200003154000086
:101DE000FE480047FD483A300047FC485230004763
:101DF000FA486A300047F9486E300047F8498A6966
:101E0000120A120202434A61087C0122104308743C
:101E10007047F8B50446F348017DE20649094901D7
:101E2000D20E114301750221EF4D7F20A847EE4EDF
:101E300025206946223EB04768460178214301705B
:101E40002520A84769462520B0479EE7E748E8498E
:101E500000684118487C097C000208437047F8B5C7
:101E60000546EFF3108472B60021DF4E7F20B047A5
:101E7000DD4A17206946223A9047684601789F203C
:101E80000140A807400E0143684601701720B04783
:101E900084F3108879E738B5EFF3108472B6002127
:101EA000D14A7F209047D04A17206946223A90476E
:101EB00084F31088684600784006800F38BDCD490D
:101EC0000840C7494A6882434A607047C949084088
:101ED000C3494A6802434A6070471CB56A4690800D
:101EE0001180C5485080D0806946012001F0C0FCB7
:101EF0001CBDC248004770B50546C1480C46826803
:101F0000107AFB2108401072BE4928468847BD4A16
:101F1000214628465E3A9047B4E470B5BA4C24682E
:101F2000E47BA406A40E00280AD0B04D2D68ED7DF8
:101F3000002D05D0052C07D0062C05D00F2C03D082
:101F400002F0E1FE01209DE400209BE470B5044610
:101F500003200003844221D9AC480568E8780028B2
:101F600002D001280AD01BE02846253003F02DFFBF
:101F70000646A04214D82846293008E028462D30CD
:101F800003F023FF0646A0420AD82846313003F06A
:101F90001CFF0146801B0818A04201D9002071E4F3
:101FA00001206FE410B572B6994A904762B610BD31
:101FB00070B514460D460646FFF7C8FF002806D048
:101FC00072B62246934B29463046984762B659E48A
:101FD00010B572B68F4BAE33984762B610BD10B5D0
:101FE00072B68B4CF63CA04762B610BDF7B5002523
:101FF000C80288B00E462C46070C11E00898610113
:102000000818844B6A4620219847002069460A5CDC
:10201000401C5219C0B295B22028F8D3641CA4B257
:10202000BC42EBD3F6060898F60E61010818794B0E
:102030006A46314698470020694604E00A5C521916
:10204000401C95B2C0B2B042F8D30A98854202D182
:1020500001200BB0F0BD0020FBE7FFB50E460121CB
:10206000074609036B4BA5B06B4A00209847352201
:102070006949684603F078FE02A8013003F0A5FE26
:1020800065495722441821460EA803F06DFE202111
:10209000601C03F082FE0025002F10D00020395C68
:1020A00000290AD02218401CC0B251702028F6D353
:1020B00005E02118401C4D70C0B22028F9D32046FD
:1020C0000521213003F069FE002E12D00020315C82
:1020D00000290CD022182032401CC0B251700528B3
:1020E000F5D306E021182031401C4D70C0B2052800
:1020F000F8D321462631279803F071FE214622317C
:1021000028980872000A48720121414A257000206F
:10211000904701213F4B090300203F4AAE339847C7
:10212000012029B0F0BDF0B5027889B0002A77D03F
:102130003A49CA7142780A72002A01D0042A01D9A8
:1021400004220A72C278847813022343334A1C0A99
:10215000537294724479057924022C431546EC722B
:10216000260A2E73A646C479857920022843507327
:10217000040A84461D489473046808252746207C79
:10218000E47B000220430124521C83424C7008D996
:10219000181A07E01471200A01E01571280A50711D
:1021A00007E0C01A0E7AB04270DA1471260A56712E
:1021B0000872087A88700D70002B63D050791179FD
:1021C00000020843191A6846018343836146C183AC
:1021D00071468183B87C797C000222E0713C00006A
:1021E0000010005040600250A7290000100200209B
:1021F00063050000FCFF0FFD480800000D330000E0
:10220000E8010020AB310000080200200C02002091
:102210009F1800008F160000480B0020861B00202E
:1022200038E0084302D0002002F07FFC6846018BB2
:102230000180428B4280828B8280C28BC28001727D
:102240003221417200218172C17201734473210AEB
:1022500081730221C17300210174032141740021A3
:1022600081740421C174002101750521417500218B
:102270008175F7498847F64906A81E318847F54910
:1022800009208847012009B0F0BDFFE7F600B04201
:1022900083DA7FE70020F6E7FEB50746EE480178CF
:1022A0000A077DD5F72211400170BA797C1C7B7931
:1022B00012021A437BD0C279120678D5102211433C
:1022C0000170880673D4E548804705466079217916
:1022D00000020843FF1C002832D003F091FF06469D
:1022E0000091787839780002084303F089FFDC4FC9
:1022F00000223B4603F088FE3246009B03F084FE3A
:102300000090D84801910068017CC27B080210430C
:1023100003F076FF00223B4603F076FE07460E46AA
:10232000607A217A00020843401B03F055FF3A46C9
:10233000334603F069FE019B009A03F0B3FD24E0ED
:10234000787839780002084303F03EFF0646C54816
:102350000068017CC27B0802104303F035FF314660
:1023600003F046FD03F078FF0022BD4B03F04CFE66
:1023700007460E46607A217A00020843401B03F0AC
:102380002BFF3A46334603F03FFE0022B64B03F0E4
:10239000A3FE03F043FF0104090C00D1012101E079
:1023A0000EE004E0AB4B0920B04A243B98470320E1
:1023B0006946088102221102AD4C02AB0020A04701
:1023C000FEBD38B5AB4C2078002804D1AA49684638
:1023D000884701202070012038BD10B50B3010282F
:1023E00001D9FF2010BD9B4BC4B22046243B984727
:1023F000204610BD10B50B30102801D9FF2010BDAC
:10240000C4B2944920468847204610BD072801D908
:102410000020704701228240964843781A43427058
:10242000C160012070478F480068C07D70478D48AB
:10243000924900684118487C097C000208437047B3
:1024400010B5030004F0E1F809061C36506A849EBA
:10245000B0CAE60000217F20FFF738FB00213020C2
:10246000FFF734FB01217F20FFF730FB1E216320A3
:10247000FFF72CFB1F216D20FFF728FB882114E0BC
:1024800000217F20FFF722FB00213020FFF71EFBF9
:1024900001217F20FFF71AFB1E216320FFF716FBA7
:1024A0001F216D20FFF712FB8A216120FFF70EFB31
:1024B0008121ACE000217F20FFF708FB00213020C4
:1024C000FFF704FB01217F20FFF700FB1E216320A3
:1024D000FFF7FCFA1F216D20FFF7F8FA8A2161202F
:1024E000FFF7F4FA832192E000217F20FFF7EEFA54
:1024F00000213020FFF7EAFA01217F20FFF7E6FAFA
:102500001E216320FFF7E2FA1F216D20FFF7DEFA9C
:102510008A216120FFF7DAFA872178E000217F2005
:10252000FFF7D4FA00213020FFF7D0FA01217F20F5
:10253000FFF7CCFA1E216320FFF7C8FA1F216D2098
:10254000FFF7C4FA8A216120FFF7C0FA8F215EE00D
:1025500000217F20FFF7BAFA00213020FFF7B6FAFA
:1025600001217F20FFF7B2FA1E216320FFF7AEFAA8
:102570001F216D20FFF7AAFA8A216120FFF7A6FA32
:102580009F2144E000217F20FFF7A0FA00213020A6
:10259000FFF79CFA01217F20FFF798FA1E216320A4
:1025A000FFF794FA1F212AE000217F20FFF78EFA1F
:1025B00002213020FFF78AFA01217F20FFF786FAF7
:1025C0001F216320FFF782FA03216D20FFF77EFAB7
:1025D0008A216120FFF77AFAB02118E000217F20DC
:1025E000FFF774FA02213020FFF770FA01217F20F3
:1025F000FFF76CFA1F216320FFF768FA07216D20AF
:10260000FFF764FA8A216120FFF760FABF21652095
:10261000FFF75CFA10BD1A49096860310874704709
:1026200010B500280ED001282CD0022830D0032865
:1026300007D102217F20FFF749FA40212920FFF727
:1026400045FA10BD02217F20FFF740FA4621F5E749
:10265000575F0000F7330000861B0020051B0000B9
:102660000000F43F1002002000002440311100104F
:1026700031540000E80100209D2C0000630500009B
:102680000802002002217F20FFF720FA4421D5E72D
:1026900002217F20FFF71AFA4221CFE710B5044646
:1026A00074480068093003F090FB1021724B2246F9
:1026B0005730984710BDF8B50546EFF3108472B651
:1026C0006E4E01273F036C4B394600203268984715
:1026D00001216B4A0020904766480068093003F0EA
:1026E00074FB3168102257314018294603F03CFB37
:1026F0000023634D39461846F63D3268A84784F3F7
:102700001088F8BD5F490A69D208D2000A61401EEC
:102710004861002088610869012210430861086946
:10272000C003FCD57047F0B500260B4604460125D2
:1027300097B0304631462D03675C491CBE19A9424B
:10274000FAD30021675C491C7840A942FAD39E4223
:102750002BD1904229D1474E3068093003F035FB28
:10276000454B6A46572198473068093003F02DFBE6
:1027700000195722694603F0F7FA30680D3003F06C
:1027800024FB4149001909680722083103F0ECFADB
:1027900001213B4A00209047374B00202246294622
:1027A000AE339847012017B06EE50020FBE770B507
:1027B00001252D030446304B344A29460020984712
:1027C0003349204688472B4800680D3003F0FDFA56
:1027D0002E49072240182C490968083103F0C4FA31
:1027E0000121274A00209047234B0020274A2946F1
:1027F000AE33984770BDF8B504001AD02549684635
:1028000088470098002816D01C4D012109031A4B57
:1028100000202A689847174F3868093003F0D5FA26
:1028200029686731405C401CC6B2052E05D90220DC
:10283000F8BD0120F8BD0420F8BD032080038443C7
:102840000098A04201D10020F8BD01210C4A0020CF
:1028500090473868093003F0B8FA296800236731D7
:1028600046540121064C09031846F63C2A68A04745
:102870000320F8BD0C0200208F160000400200204B
:102880009F18000000E000E010020020480B00202C
:102890004B570000C12C0000FE490A79002A00D0E5
:1028A00008707047F8B5FB4C63695979002915D059
:1028B000B121C95CC91F092956D801461846102202
:1028C000D93003F051FAE07800250221012860692F
:1028D00005D04279D2060FD5EF488047F8BDCA220D
:1028E000125C012AFAD1C279012A01D1C57137E0FF
:1028F000002AF3D1C171F8BDC279012AF8D1CA21E9
:10290000095C01292AD1E0698026017801208840EC
:10291000216A0968884300D181260027DF48804763
:102920006169C919E0317F1CFFB24876102FF5D3D9
:10293000606933460146E93102460091FF31F932C0
:102940001131D74EFF305A30B047E0690078142873
:1029500003D261690120C87101E06069C5716069D5
:10296000D049E9308847F8BDCB4B06220021012031
:102970008C3B9847F8BDF1B5C64CA4B0606941796D
:1029800000292BD0CA210A5C2146C64F49691C3751
:102990000025E931012A23D0064602467136093264
:1029A0000491711E531E0196BE4E02930392CA33C8
:1029B000C23200917A36FF300A302499B0476169FB
:1029C00010220846D930E93103F0F2F900287CD012
:1029D000B14B0422002101208C3B984725B0F0BD6B
:1029E0000C950D950E950F951195129513951495BF
:1029F00042790126D206002A03DBA64A1379002B6E
:102A00007ED0F930B847A34C2079002822D01DA8E9
:102A1000019500906369A44F18460146FF30FF31CD
:102A2000FA305A31F933249AB8471DA8013003F01F
:102A3000CCF918A9097D000208439C4903F06AF902
:102A40000422019111049A4F01AB0020B84720786D
:102A500000287DD0676907223946093115A803F09F
:102A600083F939460722713117A803F07DF9387AC6
:102A7000002810A86DD086767020C05D002818A8A8
:102A800068D0867004A83A460190F9321046844E08
:102A900015ADC03017AB009546362499B047606934
:102AA000102204A9813003F05FF908AE0FCE19AEF1
:102AB0000FC6616903220E4621A8D33103F054F9F1
:102AC00003223146CC3122A800E073E003F04CF938
:102AD0003046FF30EA30039017AF21A96846A2C004
:102AE0003146714EF93111AB19A86A3E249AB047AC
:102AF000626922A91046FF30DA300CAB019700E082
:102B00000AE000910390029519A8F9322499B04780
:102B100068490020884761E75E4A3446D2698023CD
:102B2000127894405B4A126A1268944300D1812360
:102B300000910146FF315A31594CFF30FA30249A46
:102B4000A0475448102240690146E931D93002E0DB
:102B500025E02BE02CE003F02BF9002801D0042223
:102B60001EE04C4C6069F930B847E0690178491CB7
:102B7000C9B201701429CED3216A0868020C08A8D2
:102B8000827410A882710888020A08A8427410A8EA
:102B90004271097808A8017410A8017133E70C226A
:102BA0003D4B002101208C3B984717E7857663E772
:102BB000857067E760690026F930B8476369384F68
:102BC0001946FF330A33363F1846F931249AB8477D
:102BD000606910230146A03106E017183246FF3223
:102BE0000A32761CBD54F6B24A7C9F1AB742F4DC16
:102BF000304900208847606941794908490041719E
:102C0000ECE6F0B50446C07885B0072807D2224B21
:102C10000622002101208C3B984705B0F0BD1D4ED7
:102C200001217069CB221154002506222146CC30A7
:102C300003F09AF81120716940010818A0314E7C08
:102C4000C17E827F437F04920A07D20F00920393D2
:102C50004A07CF06D30FFF0F02968A0701970E4E41
:102C6000920F817E407E643EB047A0781026000718
:102C7000002843DA074A1121506949014718FB7EB1
:102C800019073BD50121CA2211545A0715D4A2783D
:102C9000520711E0FC0100205DA100004D2500005D
:102CA000B3AA000055A90000FFAB000040420F008E
:102CB00031540000F73300000ED57B7E22789D0052
:102CC0005B19FE4D5B19D55C882D02D0102D03D009
:102CD00005E0FB4A117102E04179314341714179CC
:102CE000C90634D50B21C9014018C07D01282ED159
:102CF0006421F54BF34A0520984728E0F04F002166
:102D00007869CA221154112149014118CA7E52071B
:102D100002D4A278520709D5497E22788B00C918BF
:102D2000E64B193BC918555C102D02D1417931434E
:102D30004171E44AE44B943AE449002098476079B1
:102D4000C00704D0786903228179114381716079C9
:102D500080070BD5DA481121406949014118897F64
:102D6000890703D581790C2211438171207980076D
:102D70000BD5D3481121406949014118497F890782
:102D800003D54179802211434171CD4841690846FC
:102D9000A0304674E278102A00D2427448790122A9
:102DA0001043CB4C4871202D08D0402D00D034E783
:102DB00000231A4640210020A0472EE700231A4690
:102DC0002021F8E770B5BE4C0D466369002825D078
:102DD000A0690C2181711946FF3120225A31C01D92
:102DE00002F0C2FF6169A069FF31202227307A31E9
:102DF00002F0BAFF0621B74A412090470B216069D3
:102E0000C9014118C97D002907D14079C00602D403
:102E10002079012801D1AB48804770BD1846FF30AA
:102E20002022FA3002F0A0FF2022AB4B6069A918E3
:102E30000E46C01802F098FF6369A84C1846FF3090
:102E40009A30FF3332462946BA33A047294601203B
:102E5000FFF7B8FF70BDF0B5994C0646606985B0C4
:102E60004179C9072AD0FF3010210A3002F095FFBE
:102E70006069320AC11DF9314E728A72320CCA720F
:102E8000320E0A73CA21095C0125012918D00346B4
:102E9000064601460933E9365A1E713101AF4EC765
:102EA000491E0091C933C33289318D4EFF300A303B
:102EB000B0476069C17902292FD00BE00020ACE651
:102EC000206A00210660E269802311706269D1796D
:102ED000022904D06069C17900292AD02AE000685B
:102EE0002946814300D18123E168002040314E7D95
:102EF0001718E037401CC0B27E761028F7D36069FF
:102F0000774E0146E93102460091FF31F932113125
:102F1000E436FF305A30B047CBE771497A39E930AF
:102F200088476069CA21095C012902D00021C1716A
:102F300000E0C571012070E6F8B5614C694F616928
:102F4000CA19517B127B09021143009102F0E2FE83
:102F50000646A0780D46002826D0634908208847F9
:102F6000002804D060490220884700280CD06069FE
:102F7000C119487B097B00020843C01C704384B21E
:102F8000002D1AD0601916E06069C119487B0A7BD0
:102F90000102A06C1143C21C891871438CB2002D30
:102FA0000BD02818001906E00098C01C704384B2AA
:102FB000002D02D06018C01C84B24C488047A0424B
:102FC00001D20020F8BD0120F8BD70B50546D01D26
:102FD00014460E4680B2FFF7AFFF002810D03848E5
:102FE0001B2180692A0A8171C5710272224631460D
:102FF000093002F0B9FEE41C364AA0B20421904721
:1030000070BD70B50546D01D14460E4680B2FFF760
:1030100093FF002810D02A481D2180692A0A817157
:10302000C571027222463146093002F09DFEE41C51
:10303000284AA0B20421904770BDF7B5204E294917
:1030400070690024091F2546401802F0BEFEB269CF
:1030500011219171837846781B023343009E421CF4
:103060000146B34258D3019EB34255D80E79CF786A
:103070003302029E3B43B3424ED10B78172B55D0FF
:103080000F4E0623B669F371577813783F021F433A
:10309000062363439E1937723F0A77725679177970
:1030A00036023E43064FBF69DF19BE72360AFE7212
:1030B000034ECF79B6699E19377319E0F76E001089
:1030C000FC0100205DA10000D3330000B80B00001C
:1030D00031540000ED7F000019020000EF2A0000CB
:1030E000CFA9000061030000699400004360000064
:1030F000F74F0E7ABF69AD1DDB195E73F44BF54EC9
:103100005B69ADB29E19737C367C1B02641C334331
:10311000AE1DE4B2B34225D3537916791A02EE4BB1
:1031200032439A421ED00178081893E7002C1BD135
:10313000E74814238069C91DC371547816782302A7
:10314000334303721B0A4372537914791A022243E0
:103150008272120AC27210220C3002F005FE14357F
:10316000ADB201E0002C05D0AD1CDC4AA8B20421B0
:103170009047FEBD0A22DA4B102000999847FEBD09
:10318000F7B5D34ED749706900252C46401802F098
:103190001CFEB16909228A71837846781B02334389
:1031A000009E421C0146B34232D3019EB3422FD847
:1031B0000E79CF783302029E3B43B34228D10B787D
:1031C000172B2FD0C24E0423B669241DF3715778F4
:1031D00013783F021F43AB009E1937723F0A777284
:1031E000BB4ECF79B669A4B29E19B772B84F0E7AAA
:1031F000BF696D1CDB19DE72B54BB64E5B69EDB273
:103200009E19737C367C1B023343261DB3421ED3AA
:10321000537916791A02B04B32439A4217D001788B
:103220000818B9E7002D14D1A94812228069C2718B
:103230008B784D781A022A430272120A42721022C7
:103240000A30C91D02F090FD1234A4B201E0002D35
:1032500005D0A41CA14AA0B204219047FEBD0A22B9
:103260009F4B082000999847FEBDF7B5984E9D49A1
:103270007069002508312C46401802F0A6FDB2699D
:1032800009219171837846781B023343009E421CCA
:103290000146B34242D3019EB3423FD80E79CF7864
:1032A0003302029E3B43B34238D10B78182B3FD0F8
:1032B000874E0723B669E41DF371577813783F02F0
:1032C0001F43EB005B1B9E1937723F0A7772804EDB
:1032D0004F79B669A4B29E19B772CE798F7936024A
:1032E0003E437B4F6D1CBF69EDB2DF19FE72360A9B
:1032F0003E73774E0F7AB6699E197773744F4E7A84
:10330000BF69DB199E73724B724E5B699E19737CA9
:10331000367C1B023343E61DB34227D3537816781D
:103320001A026D4B32439A4220D001780818A9E75F
:10333000002D1DD1664815228069C2718A784B78AC
:1033400012021A430272120A42724A798272CA79CE
:103350008B7912021A43C272120A027310220D30C4
:10336000083102F001FD1534A4B201E0002D05D0B2
:10337000A41C5A4AA0B204219047FEBD0A22584B11
:10338000082000999847FEBDF7B5514E55498AB0BF
:103390007069083109900025401802F016FD0446B6
:1033A000B6690920B0710720F07127782046182FE0
:1033B00077D0417A207A09020143A37860781B0212
:1033C00003430A9883426BD30B98834268D80C98C6
:1033D000814265D1434909980C31401802F0F5FC4F
:1033E0000190E079A179000208430C212F464F4358
:1033F000B9190872000A487235480021806A3A4BB0
:103400000170E079A279000210436A469081D1816F
:103410000A3202A998470822314ED101002002AB9E
:10342000A436B0472A48806A007801283CD0E07969
:10343000A379294A01021943019EF078B37800026A
:10344000184388426DD13079400604D5244820388D
:103450008047002836D03079810606D5C00620493D
:10346000C00E1039884700282ED0E079A1790002DB
:1034700008431D4A0221343A9047002836D030795B
:103480003178C00970783BD0000208431538C4B2C7
:103490000F483146806922463818153139E000E07E
:1034A00052E0417D207D86E7094CE06A216B067879
:1034B000A069324638180A3002F056FCA069B61CE2
:1034C000C67137E0052200E00C220A9913E00000E3
:1034D000FC01002063050000FFFF0000ED7F0000FD
:1034E0008D5300005D030000F93E0000A078627873
:1034F000010211430222F94B082098470DB0F0BD9C
:1035000000020843C01FC4B2F5482246806938183B
:10351000F11D0A3002F028FCF148A41C8069C47136
:1035200008E0904206D07078337800021843801982
:10353000019081E76D1C0CD0E94804218069E94ABB
:10354000C079801C9047D9E7E748834201D03C19F5
:103550002BE70A22B9E710B5062912D0417C037C7B
:103560000A0241781A430B020478C1788078090274
:10357000234301438B4207D9012219460820D74B28
:1035800024E041790379EBE70520C002824202D0B2
:10359000401C824203D11846FFF7F2FD10BDD3480C
:1035A000824203D11846CD4B18330FE0CF48401C60
:1035B000824203D11846FFF758FE10BD100A292891
:1035C000184602D0FFF7E0FE10BDC94B984710BD6A
:1035D000F0B5C34C0746A07885B00D4600287DD0D5
:1035E000C44E0820B047002879D00220B0470028F8
:1035F00075D1EFF31080049072B6A06C2818801C6F
:1036000086B2BD4880470100BC4803D0E168C97854
:10361000C90708D08047002875D1B74810308047C7
:10362000761CB0426FD3AE48AD49801D0770B448D8
:1036300000900822673101A802F096FB636900221E
:10364000B2330299019801F0AFFE022F02D0012F90
:103650000BD016E00120E071206D04224119A04832
:10366000891C4C3002F080FB0BE0E079012806D188
:103670009B49206D04224C31801C02F075FB002018
:10368000E071206DA16C9F4E801C02910396019504
:103690000090934A60692389921D9949BA3001F0DC
:1036A000CEFDA06C711C2A18206D801C02F05CFB02
:1036B0008B4C6734201D02F088FB2378E278194692
:1036C000637812061B021943A378C0091B0419432F
:1036D00011432279C0015206520E01E012E012E0BD
:1036E000491C00235A415206520E104321700A0A07
:1036F00062700A0CA270090EE1702071049880F3C8
:103700001088012017E4002015E47548C1680A46B6
:103710006032907E927EC007C00FD207D20F603118
:1037200005E0887E8A7EC007C00FD207D20F904284
:10373000F7D1704710B56A484069017CC27B080226
:103740001043072807D8FFF7E0FF002804D0FFF751
:10375000DCFF0128FBD010BDFFF7D7FF0028FBD00E
:10376000FFF7D3FF0128FBD010BD10B55C48C1683E
:10377000084622304279037912021A43624B9A4278
:1037800014D9DC43121903711B0A4371FF23203142
:103790000B72FA2A0AD951015C4BD200C918891858
:1037A0007D221201891A0175090A417510BDF0B414
:1037B00000285BD048780A7807021743484A152644
:1037C0009469534DE01C631C1B2FA67041D9CC7823
:1037D0008E78240234431C71240A5C71CC798E7972
:1037E000240234431C72240A5C7293780C78002BF8
:1037F0004B7805D01B022343F92B12D9F92104E0A1
:103800001B022343302B0CD9302101700B0A43706B
:1038100001710B0A4371506940190173090A417320
:1038200012E05269521913731B0A53734A780B78CA
:1038300012021A430270120A42704A790B7911027D
:1038400019430171090A4171F0BC0921314A032071
:1038500010471B21017000244470F3241C710026C2
:103860005E71017146711C725E72D4E7F0BC7047E4
:10387000F0B4002850D01A4A142093699870487800
:103880000D7804022C43DC70240A1C71CC788D78EE
:1038900024022C435C71240A9C714C790D7924021A
:1038A0002C43DC71D81C240A4471CC798D79240214
:1038B0002C435C72240A9C729578154C5B1C002D7D
:1038C00042D04D790E792D023543F92D28D9F921B1
:1038D0000171002343710170437041E08D5300007A
:1038E000FC010020ED7F0000FFFF00000228000027
:1038F0008742000069940000ED340000DD340000D0
:10390000981B0020AC1C00203E060000C0E0FFFF1A
:1039100061030000958C0000F0BC0022012046E706
:1039200005712D0A4571C8788D78000228431871F9
:10393000000A587148790979000208435169091948
:103940000873000A487324E04B780D781B022B4360
:10395000302B0BD93021017000234370017143716A
:10396000506900190173090A417312E05269121972
:1039700013731B0A53734A780B7812021A430270AE
:10398000120A42704A790B79110219430171090A2E
:103990004171F0BC0921F84A0320104710B507E037
:1039A000435C845C4454491C8354521EC9B2D2B255
:1039B0009142F5D310BDF8B5F04D0520A969EE4A46
:1039C0008870012103209047A87800282DD06869CD
:1039D0000F220021BA30FFF7E1FF686907220021BA
:1039E000B230FFF7DBFF2E466736301D02F0EDF9EF
:1039F000002434707470C009B470C001F470307168
:103A000046062F465F37760E381D02F0DEF93C7011
:103A1000210A7970210CC009B970C001210E304310
:103A2000F9703871A878002806D169690222084621
:103A3000D34BBA30B23198477D214901D24BD14A9C
:103A400003209847CF49082048398847F8BDF8B582
:103A50000546CE4908208847C84C0B206169C00143
:103A60000818807E01282FD10026374601E0042E59
:103A700004D260698019A030877406E0C0480A3813
:103A8000804761698919A0318874761CF6B2082EC6
:103A9000EDD3BB4F00260A3F01E0082E01D20020E3
:103AA00000E0B84761698919A031761CF6B28876C2
:103AB000102EF2D30026B84761698919E031761CCF
:103AC000F6B24876102EF6D30B206169C0010918B2
:103AD000487E042802D005281DD01EE0A84F0026ED
:103AE0000A3FB84761698919FF318131761CF6B206
:103AF0004876202EF5D36069A54B0146FF31A131F0
:103B00000A7EFF305206520E0A760A46273A473995
:103B10009A30984701E0082048766169A0690E460E
:103B2000042787700822C01CC231B63602F01CF987
:103B3000A069042231460B3002F016F90D218E4A9D
:103B4000032090476069294608220A31BA3002F002
:103B50000BF96069294604221231B23002F004F9EF
:103B60002069C0780328606904D0CA21095C012952
:103B70000AD019E0817D427D080210432A46854B18
:103B8000083229469847F8BD4179CA070CD0827996
:103B9000520709D4C90907D10921890140180078C1
:103BA000012801D1616A08702A7A7B4E002A02D16D
:103BB000687A00282BD0606901466030C37D9A4244
:103BC0000AD16A7A007E824206D1082228467931DB
:103BD00002F0EEF8002839D06A4B062200210120BD
:103BE0000A339847694908200A3188476349012008
:103BF000543102F0F4F861490620543108710B4643
:103C000001210522C904654C0020A047F8BD606968
:103C1000CA21095C01290BD00246BA32FF30114695
:103C20000A30B0476069022241791143417112E0C4
:103C30004179024639434171BA3211468130B04769
:103C400060696030C07B012802D004E06069EFE762
:103C50004E4902208847FFF7AEFEF8BDF8B5474C45
:103C6000A078002804D101220021454B084698473E
:103C7000A1690620887001213F4A03209047A0785F
:103C800000280CD0464861690818417B027B090274
:103C90001143F92903D9F9210173002141736069A6
:103CA000374D417908228B070A3D0027002B25DA82
:103CB000114341710026A847616989198031487014
:103CC000A84761698A1991218854A032761CF6B2FE
:103CD0005770102EEFD30026A8476169891960310B
:103CE000761CF6B24876082EF6D3A8476169603193
:103CF000C875A84761696031087614E0CA231B5C67
:103D0000012B10D183795B070DD51143417100263A
:103D1000A84761698A1991218854A032761CF6B2AD
:103D20005770102EF4D31849032024318847174DBB
:103D30000820103DA847002803D0144908200A3164
:103D400088470220A847012815D10B206169C001CE
:103D50000818407D01280ED12D20400109184A790C
:103D6000002A21D0012A65D0022A04D1064B897984
:103D70000C4A07209847F8BD958C0000FC010020F4
:103D800057250000C1940000D33300005585000082
:103D9000C5290000996F0000ABAA00003154000053
:103DA00061030000FB980000002535E00A226A4309
:103DB00051180A18507C167C0302FA4833430380DA
:103DC000F94B4380F94BFB4ECB18597D1B7D090203
:103DD00019438180022181710321C171077211761B
:103DE00000235376F24A038813701B0A53708088AD
:103DF0009070000AD0701171002050711346062295
:103E00000121C903B047E94A01217B3AC902E54BC8
:103E10000020B0476D1CEDB205206169C0010A1891
:103E2000D27BAA42C2D80B2062690121C0011018BE
:103E30000175A0E7E26893789B06DB0FCB71917860
:103E4000DF2319409170616908188179017292E746
:103E500004E7F8B504460178401C002910D0022977
:103E600076D0032987D141780278080210431028C0
:103E70006DD0082803D1201DE178FFF76CFB7AE7AD
:103E80004178027808021043062838D0032839D038
:103E900014283BD015283ED0012842D00028EED16E
:103EA000C348251D5938C16822314A7E0B7E110254
:103EB000194300914069E37A017DC27C0E021643EA
:103EC000227B002711021943027CC37B1002C90028
:103ED0001843814200D80127FFF72CFCB649284639
:103EE0008847002820D0FFF740FCB1485938C06807
:103EF0002230417902790902114319D01DE0FFF700
:103F0000ADFE38E7201DFFF7A2FD34E7211D00209C
:103F1000FFF7AEFC2FE70021221D0846FFF747FC04
:103F200029E7FFF707FC26E7A4492820884709E08E
:103F3000009989000175090A4175002F02D00673A6
:103F4000310A4173201DFEF7A7F914E700E01CE0D9
:103F5000417802780802104301280AD003280CD0C7
:103F600004280ED00C288AD1211D0020FEF72AFF3C
:103F700001E7201DFEF745FEFDE6201DFEF792FC41
:103F8000F9E6201DFEF7F7FCF5E6E078231D06288C
:103F900014D0587C197C02020A4358781978000220
:103FA0000843D9789B7809021943884209D9014608
:103FB000804B01221020A43B9847DCE65879197900
:103FC000E9E7FFF73AF8D6E610B50178042905D1FC
:103FD0008278437811021943022902D0FFF739FF92
:103FE00010BD41790079FFF7F3FA0028F8D0FCF70B
:103FF00071F810BD30B587B071480090801E0190F7
:1040000000246846048144810621018241822721DF
:104010008181C18102258582C4826A4806906A49ED
:104020006846884762485938416B0A682A430A60E3
:10403000816B0A682A430A60C4700471047007B077
:1040400030BD70B55A4C0D46593C002828D05F4D04
:10405000A8470028FCD05E4880475E4880475B49FF
:10406000012008398847A069022181701321C1709D
:104070000221594A03209047584904208847606923
:10408000017DC27C080210430A2101F043FE0A218F
:10409000401E41434E4B0120514AEE3B984770BDB4
:1040A000E0682021417041788906FCD549480C38E8
:1040B000804742492878884770BD484910B501209B
:1040C00010398847002804D000210120FFF7B9FFEC
:1040D00010BD3A491320884710BDFEB5002168463F
:1040E000017001710D46304E01217F20A536B04789
:1040F0002D4C0A2069468334A047684600780109A0
:10410000090168460170022001430A20B04701A955
:104110000A20A04768460079400704D56D1CEDB21F
:10412000FA2DF4D108E0FA2D06D001A90A20A04703
:10413000684600794007F8D5684601780A20B047FC
:104140000020401C80B2FA28FBD301A90A20A04716
:1041500068460079000701D40120FEBD0020FEBDA5
:1041600070B505460024FFF7B8FF012817D10020DD
:10417000FDF77EFC1B480169C908C90001610721E0
:1041800041610021816101690122114301610169DD
:10419000C903FCD5002D01D1FDF795FC0124204673
:1041A00070BD0000B01D0020022900008202000046
:1041B0005502002031540000E52000006F900000FF
:1041C0001B800100C93F0010936000002B1B000002
:1041D000C1340000FF250000958C000055850000CB
:1041E0008D94000000E000E010B5FE49FE4C4969E6
:1041F0000028887013D001281FD002280ED100217A
:104200007F20A04700210320A04720210420A047B1
:1042100002217F20A04703210020A04710BD0021DC
:104220007F20A04700210320A04720210420A04791
:1042300002217F20A0470021EEE700217F20A04738
:104240001F210320A04702217F20A0470121002039
:10425000A04700217F20A0473F210420DDE710B5C3
:10426000012802D002280ED01BE0487A0C7A000206
:104270002043C00715D04879097900020843194640
:10428000FEF7A3FE10BD487A0C7A00022043800797
:1042900007D548790979000208431946FEF7B1FEAF
:1042A00010BD002010BD70B5CE4CE068817EFD22AF
:1042B000114081766069CD4D837F427F2030417807
:1042C0000078090201430120A847E0688178490687
:1042D000C90F61718178BF221140817060E710B50C
:1042E000C04CE068817E022211438176BF483430A1
:1042F0008047E0688178BF2211406279D207520E70
:104300001143817010BDF0B51746B64A0446D06817
:104310001E460D46C37885B000211B0702D500203C
:1043200005B0F0BD00BF491C89B26429FAD3403002
:10433000417C8907FCD4AB4841692D204001081815
:10434000C07A012804D1FF210531204601F025FD66
:10435000A00707D1A3482D21426949015118897A44
:1043600001291DD09F4B0020D968C0310A79225401
:10437000401C80B20228F9D39A488078002808D0DF
:104380009B4908208847002803D096482178801D43
:104390000170207880066078288034D5012033E0D1
:1043A000C1680846E030427B037B12021A43837BDC
:1043B0001B041A43920C9204A3039B0B1A4302732F
:1043C000130A4373120C82734822525CC37B520659
:1043D000520EDB09DB011343C373027A5208520009
:1043E0000272027A02231A430272E031087A8007CD
:1043F000FCD4207880066078288001D5012000E078
:104400000020387012E0002076493870CA68002019
:10441000C032A41C03E013792354401C80B22B88C3
:104420008342F8D8C8680122C030427228886D4F94
:10443000801C2880B87800280AD06D490820884759
:10444000002853D06A4902208847002809D04DE04F
:10445000F8684030417C890748D4407CC007C00FD1
:1044600045E02A8821466348921E01F07DFC62489F
:104470005C49009008225F3101A801F075FC7B695E
:104480000122B2330299019800F08EFF5548801D39
:1044900001788907890F01702888BA6C5549029202
:1044A000801E009101904F4A78693B89921D5249C4
:1044B000BA3000F049FFC0B2307001280ED1288810
:1044C0004C49BA6C009101AB801E15C3454A78690E
:1044D0003B89921D4849BA3000F0EAFE2888B96C41
:1044E000401A2880801EA41E607001E001203070F8
:1044F000012015E7F0B54048002687B01830059038
:10450000684606820672067300273C4901208847E8
:1045100000283B4803AB02AA04A90FD0FFF7F3FE23
:1045200000280FD12F48C068C078C00673D502AAF2
:1045300004A9334800F04DFB012703E0314CA047AC
:10454000002868D0274D2869C278032A03D1E86B78
:1045500000780128D4D06846007A012801D1002FC4
:1045600007D0274C207886460007000F052854D036
:1045700055E01F4C0820A04700282DD00220A0475E
:10458000002829D16846007B002841D0A87800285F
:1045900022D0144C5F34201D01F017FC2378C10990
:1045A0001A466378E0781B021A43A37800061B04BE
:1045B0001A4302432079C9014006400E521C0023D1
:1045C00058414006400E01432270100A6070100CE2
:1045D000A070100EE07021716846008A801EC1B282
:1045E000074812E0FC010020A7290000D91B0000A9
:1045F00069940000AC1C0020981B00204585000039
:10460000A81B0020B127000005E0FE4A904777E78D
:10461000FD493D20884707B0F0BD002F03D071460B
:10462000090718D04CE0F949A01C8847FFF79DF80E
:10463000F7490222087F10430877F6488047207820
:1046400070214006C20F68690A540622A11C71300D
:1046500001F08AFB54E76969CB7D022B10D000235F
:1046600060314F7B8C463946012F00D000273B43F9
:1046700026D0032A06D06046007A012817D040E0F1
:104680000123EDE7059900916946098AE24F08394F
:10469000CBB271464906C90FA21CB84768696030A1
:1046A000007A0128B3D1DD49A01C884728E70129F9
:1046B00003D0DA49A01C884723E0A01CD849FAE7B8
:1046C0000328A4D00428A2D16969CB7D022B0AD08B
:1046D00000236031497B012900D000210B4396D093
:1046E000032A02D00DE00123F3E705990091694602
:1046F000098AC94D891FCBB271464906C90FA21C50
:10470000A8470598009001966846008AA21C0838C0
:10471000C3B22078C14C41060007C90F000F6834AE
:10472000A047EDE670B5FFB0BE4985B004208847CC
:1047300000280BD0BB4904201A318847BA4880476B
:10474000B149162088477FB005B029E5B7488047B2
:10475000002500280FD0B64C606941790A075FD563
:104760008279D3071ED0B349813088476069817947
:10477000490849003BE068460580AC4DAA4EA54C6F
:1047800086359236283C09E0694601A8A8470028EA
:10479000D9D068460088C1B201A8B047A047002818
:1047A000F2D0D0E7930709D5A24A014679311C32ED
:1047B000773090476069FD22817908E0530708D57A
:1047C0009C496031913088476069FB2281791140B2
:1047D0000DE01207F725002A0BDA027A014610468F
:1047E000944A093142329047606981792940817148
:1047F000A9E729404171034677333A2210218E4DB3
:104800000020A84709216069890141180978012918
:1048100099D14079C00996D1616A0120087092E768
:10482000E16B097800298ED1216C097801298AD1A0
:10483000817D427D08021043804A01219047206C0F
:10484000057080E7F0B585B00026794C009601969A
:10485000029603966069017A01292ED1817B89092C
:1048600001292AD110226946913001F0A1FA0028CD
:1048700023D0002504AF6C48C238804778556D1CA2
:10488000EDB2032DF7D36946887C40214006400EE7
:1048900008436946887460690621093001F07DFA91
:1048A0006069032204A90C3001F05EFA6269644B6E
:1048B0001046913004A909329847267130E570B549
:1048C0005B4EF068447844705B4DE00706D0FFF71C
:1048D00029FF002301211A460846A847A00706D54C
:1048E000FFF708FE002302211A460120A8476007AF
:1048F00006D554488047002304211A460120A847C2
:10490000200707D54F48BC308047002308211A46AE
:104910000120A847E00610D5F0682030407D3A49D4
:10492000400701D53E2000E00820884700231021E1
:104930001A460120A847FFF785FFA0060CD500F016
:1049400076F9002320211A460120A8470023FF21E1
:104950001A4601311846A847600611D53149012091
:104960008847002807D070696030807B012802D119
:10497000F16807204875002340211A460120A84706
:10498000E00904D0002380211A460120A84707E44B
:1049900038B52D4C0120A04700212C4D7F20A84781
:1049A0002A4A3B206946223A904768460178FB2014
:1049B0000140684601703B20A8471A489430804760
:1049C0000020A04738BD224909788906890F017067
:1049D00070471749497801707047F8B51C4E1B4C59
:1049E0000546032836D300217F20A047D821112077
:1049F000A0471D213A20A0477078FB210840707025
:104A000035E000003F9C00006F900000CB1D0000CF
:104A1000200001505F1B0000CB6F0000155C000000
:104A2000995D0000458500000F260000ED34000070
:104A3000FC0100207BA60000315400004F6E0000F6
:104A400095A90000C18D0000692D0000A729000074
:104A500000100050707804210843707000217F20FE
:104A6000A047D8211120A04719213A20A0479A4AEF
:104A700069463F209047694608782B008006800EE3
:104A8000087001F0C2FD060A06040A06040A802125
:104A900000E0402108436946087009783F20A0479C
:104AA0008E4840694570F8BD10B50446FFF795FF84
:104AB0008A48447010BD70B5884D01210903884BA8
:104AC00000206A6C984728690446093001F07DF996
:104AD000696C40180578012D01D9002057E7E0786E
:104AE00000280DD020462D3001F06FF906462046F3
:104AF000313001F06AF90246964212D2911B07E06A
:104B00002046253001F061F9064620462930F0E7BD
:104B1000002D08D030460903724A090E9047012043
:104B200035E7B11AF4E71046F5E7F8B56B4C2D21DF
:104B3000E268656949016E181346114620336031F9
:104B400001281FD16F1CBC46A87C6F7C0002384333
:104B500018D065482C18607E247E00022043223243
:104B60001075000A50756046427C047C1002204398
:104B70001873000A5873C87D10221043C8750120AD
:104B80007072F8BD2D27707A7F010128F9D1307B32
:104B9000002500280CD01D73280A5873C87D1023E7
:104BA0001843C87575729079022108439071F8BD59
:104BB00000F05FF8E068014620310D732A0A4A735D
:104BC0006030C17D10221143C1756069C019457202
:104BD000F8BD70B5414C0023E568C0352E7DC65444
:104BE0005B1CDBB2022BF9D3037801259B06002B5B
:104BF00043780B8001DA157001E000231370E3683D
:104C00000022801CC03303E01E7D8654521CD2B2A9
:104C10000E889642F8D8B0B2801C0880E068D9218E
:104C20000D5401790222114301710120AFE610B544
:104C30002E4901208847002815D028484169603155
:104C40004A7B012A05D1C2686032137808242343C5
:104C50001370897B012906D1C068017C4022114371
:104C6000017400214175224880472148C4308047A3
:104C700010BD70B5194CE0682030417802780D0203
:104C8000417E1543027E0E021643AE4208D861698A
:104C90008A7C4B7C1102194349190176090A417635
:104CA000FEF733FD00280DD0FEF72FFD0128FBD0C5
:104CB000AE4205D8E068203081780222114381702D
:104CC000012064E6FEF721FD0028FBD0FEF71DFD64
:104CD0000128FBD0ECE7000085290000FC01002042
:104CE0008F1600009F180000830500004585000016
:104CF000498F0000644800684078032801D80120EB
:104D0000704700207047FFB50E4600218C465E4973
:104D100081B009681D464978032900D9FEE70628B5
:104D200071D25A494A785A4B5207D20F1201097868
:104D3000D2188906890F890051588E46EFF31081E9
:104D4000009172B62A06514C04216034002A07DB18
:104D5000277E2A46FB233D461A400D401543257603
:104D6000F20703D0A27E02231A43A276B20703D52C
:104D7000A27E01231A43A276444A8032F30702D06E
:104D80009378DB09FAD0B20704D5404A8032927892
:104D90009206F8D5002814D0012812D0022821D07C
:104DA00003281FD0E27E01231A43E276E27EFD2330
:104DB0001A40E276374A13690B43136104281FD067
:104DC0001AE0344A13698B431361A27E002801D094
:104DD000F72313E008231A43A276039A0023002A3C
:104DE00018D111E0E27E52085200E276294A136996
:104DF0000B431361022803D0A27EFB231A40EBE78A
:104E0000A27E0A43E8E73DE0234AD27A002A12D084
:104E1000002810D0012084462048720705D501697A
:104E2000C908C9000161092103E00269D208D20062
:104E30000261416183617007C20F6146704601F0F3
:104E400095FBB00703D5A07E40084000A076F00790
:104E50000BD0A07EFD210840A0760C48803001E0F8
:104E6000F10702D08178C909FAD108488030B1072A
:104E700002D581788906FAD4280600D427760098CE
:104E800080F3108805B0F0BD6C02002000100050C7
:104E9000106F001000ED00E000AA022000E000E02A
:104EA000F8B50F46064615461C461021184600F078
:104EB00074FF01216846017021700D223946601C83
:104EC00000F052FF2902280A014368460180007859
:104ED000A07368464078E0733146204600F0F7FE44
:104EE000F8BDFFB589B01D460F46139E00F07BFA52
:104EF0000024029403940494684605940470002DE1
:104F000001D0012000E0002081011498801EC20F12
:104F100010184010C00040186946401C0870087204
:104F2000394602AF0D22781C00F01EFFB0B202021B
:104F3000000A024369460A80CA8202A9099800F061
:104F400058FA002D3DD0A9B20802090A084302947C
:104F50000394049469460594088008810E2D01D9B4
:104F60000E2200E02A46B81C0B9900F0FDFE0E2D23
:104F700001D90E2700E02F460E2D1ED90E202D1A26
:104F8000099802A91BD000F034FA02940394049407
:104F90000594102D01D9102200E02A460B98C11962
:104FA00002A800F0E1FE102D01D9102000E02846F3
:104FB000C719102D01D91020E1E72846DFE700F0DE
:104FC00018FA002E24D0029403940494002505942A
:104FD0000294039404940594102E01D9102200E049
:104FE00032461298411902A800F0BEFE102E01D9D7
:104FF000102000E030464519102E01D9102000E0A5
:105000003046361A02A9099800F0F3F9002EDFD1D4
:1050100002A9149A159800F0A7FE14980DB0F0BDDF
:10502000FFB589B01C46139D00F0DDF900260296FD
:1050300003960496684605960670002C01D0012060
:1050400000E0002081011498801EC20F101840104B
:10505000C00040186A46401C1070107202A80D2251
:1050600001300A9900F080FEA8B20102000A014353
:105070006A461180D18202A9099800F0BAF9002C81
:105080003ED0A0B20102000A0143029603960496A4
:1050900068460596018001810E2C01D90E2200E0A0
:1050A000224602A802300B9900F05EFE0E2C01D9B8
:1050B0000E2700E027460E2C1ED90E20241A099830
:1050C00002A91BD000F095F9029603960496059666
:1050D000102C01D9102200E022460B98C11902A819
:1050E00000F042FE102C01D9102000E02046C71924
:1050F000102C01D91020E1E72046DFE700F079F914
:10510000002D32D000200290039004902C460646D9
:1051100001270590BAB202AB0A990998FFF7C0FEC1
:1051200000203118A94203D3002102AA115406E03D
:1051300002AA135C129A515C4B4002A90B54401C0A
:105140001028EED37F1C102C01D9102000E020463F
:105150008619102C01D9102000E02046241A02A93B
:10516000099800F046F9002CD4D102A9149A159898
:1051700000F0FAFD149851E7FFB5002585B01F46F1
:105180001C4601262BE06B46324606990598FFF730
:1051900087FE00202918B94209D2079B6A46125C93
:1051A000595C4A4069460A54401C1028F2DB102C16
:1051B00001D9102200E022460E986946401900F0FD
:1051C000D3FD102C01D9102000E020464519102CE9
:1051D00001D9102000E02046241A761CB6B2002C1B
:1051E000D1D1284609B0F0BDFFB585B000261C46D8
:1051F0000B460746009601960296012168460396E3
:10520000017401700D2219466D46401C00F0ACFD82
:1052100068460682C681394600F059FD002005E047
:10522000079A295C125C51402954401CA042F7DBCC
:10523000224669460E9800F097FD2046D2E7FFB55A
:1052400089B0159D1C461A462846149F139E0B993B
:1052500000F08AFD04A912986A460391C1C209A808
:1052600007C82346FFF73DFE002801DBB84202D005
:105270000020C043D2E6281900903346129A0A99BA
:105280000998FFF779FF002802DA0120C043C5E63C
:10529000A419601900903B4604AA0A990998FFF7DF
:1052A000A3FF002802DA0220C043B7E62018B5E6C3
:1052B000FFB58DB017ACA1CCA84203D20520C043E6
:1052C00011B0F0BD461B169804A9009132182B4668
:1052D0000E990D98FFF788FF040001D4AC4202D06C
:1052E0000020C043ECE733460097169A0E990D98BC
:1052F000FFF742FF06000FD008A803900097019621
:1053000002950DA80FC8FFF7ECFD002801DBA842AD
:1053100005D00220C043D3E70120C043D0E7844238
:1053200002D00320C043CBE7002004A908AA07E06D
:105330000B5C155CAB4202D00420C043C0E7401CAC
:10534000A042F5D33046BBE7FFB58DB0189D179846
:1053500004A9169F461B0091F2192B460E990D9831
:10536000FFF742FF040018D4AC4216D108A80390FE
:105370000097019602950DA80FC8FFF751FE00286F
:105380000BDBA84209D1844207D1002004A908AA56
:1053900006E00B5C155CAB4201D0002090E7401C9E
:1053A000A042F6DB01208BE770B54906490E049C4C
:1053B0000E06050A354320706570050C0E04354352
:1053C000A5700D02000E2843E070D0010143217149
:1053D000002007210A1A2518401C9A5CC0B26A7185
:1053E0000828F7D370BD10B510210C4800F0D5FC8B
:1053F00010BD70B50C460146084A0020235C155CC0
:105400006B402354401C1028F8DB204600F05FFC62
:1054100010222146014800F0A7FC70BDB71F0020F4
:10542000FCB500228B5C8354521C92B2102AF9D333
:1054300001231D012A18114620390E7FFF4CB64664
:105440004E7F0F7CA65D7E40FD4FFF5C7E40465543
:105450008F7F0197E65D4F7C7E405670B446CE7FCD
:105460000096A75D8E7C774097707646A45DCE7CD3
:105470007440D4700E7D455D6E401671B6464D7D0C
:10548000664675405571AC468D7D76467D4095717A
:10549000CF7D6740D7710C7E74401472A6464C7E57
:1054A0006646744054728E7EA4466E409672CD7EDF
:1054B00074467D40D5720F7F67401773497F6446FD
:1054C00061405173019F77409773009E5B1C6E4053
:1054D0009BB2D6730B2BACD3FCBDF0B591B00D468F
:1054E0000446002739012278685C49194240D348B4
:1054F000825C227023790E797340C35C2371237A16
:105500000E7A7340C35C2372237B0E7B7340C35CB3
:10551000237363784E7873409C4663794E79734069
:10552000C35C63700593637A4E7A7340C35C6371A6
:10553000637B4E7B7340C35C63726346C35C63737F
:10554000A3788E7873409E46A6798B795E40B446E8
:10555000A37A8E7A5E40835DA3700493A37B8E7BD7
:105560005E40865DA6717346C35CA3726646835D2A
:10557000A373E37BCE7B73409C46E37ACE7A734081
:10558000C35CE373E379CE797340C35CE372E37881
:10559000C9784B40C15CE1716346C15CE170059B19
:1055A00010465840049B06464B405E40029200F075
:1055B000A7FB21787040414021706078A178484075
:1055C00000F09EFB6178704041406170A078E17806
:1055D000484000F095FBA17870404140A170E07810
:1055E000029A504000F08CFBE17870404140E1703D
:1055F000207962790146A379E679504002467340EA
:10560000584006461046029100F07AFB2279014686
:1056100071404A4022716079A179484000F070FBE6
:105620006279014671404A406271A079E17948404F
:1056300000F066FBA279014671404A40A271E07910
:105640000299484000F05CFBE279014671404A4013
:10565000E271207A617A0246A37AE67A48400146EE
:105660007340584006460846029200F049FB227AF1
:10567000014671404A402272607AA17A484000F0A7
:105680003FFB627A014671404A406272A07AE17A39
:10569000484000F035FBA27A014671404A40A272B0
:1056A000E07A029A504000F02BFBE27A014671400A
:1056B0004A40E272207B627B0146A37BE67B50403E
:1056C00002467340584006461046029100F018FB0F
:1056D000227B014671404A402273607BA17B484097
:1056E00000F00EFB627B014671404A406273A07B72
:1056F000E17B484000F004FBA27B014671404A4038
:10570000A273E17B0298484000F0FAFAE27B01467E
:1057100071404A407F1CFFB2E273092F00D2E1E6DC
:105720003A012178A85C41404448415C21701091C5
:10573000511923790A795340C75C27710D97227A52
:105740000B7A5A40875C27720997227B0B7B5A4061
:10575000825C2273059262784B784E795A40637965
:105760007340C75C6770637A4E7ABC467340C75C0F
:1057700067710C97637B4E7B7340C75C67720897B9
:10578000825C62730492A3788A788E795340A279FE
:105790008F7A7240A67A7E40875DA7700E97A67BAF
:1057A0008F7B7E40875DA7710B97C65CA672825C7B
:1057B000A273E77B9646CA7BA03557400097E27AF2
:1057C000CB7A5A40835CE373E279CF797A40825C8A
:1057D000E272E778C9784F40C15DE1710A91009F9C
:1057E000C05DE0702F781099794021706978674624
:1057F0004F406770A9780E9F4F40A770E9784840E6
:10580000E07028790D9F4740277168790C9F4740C9
:105810006771A8790B9F4740A771E8790A994140C1
:10582000E171287A099F47402772687A089F4740AC
:105830006772A87A4640A672E87A03E0306F0010DB
:10584000307100104240E272287B059A4240227378
:10585000687B049A42406273A87B72464240A273FE
:10586000E87B4340E37311B0F0BDF0B50446027825
:1058700008460D46A030017891B04A402270637806
:1058800041784B4063709E46A37881784B40A3706B
:105890000B93E378C1784B40E37007932179037948
:1058A00059402171677943795F406771A37986799F
:1058B0007340A3710993E379C6797340E37106934A
:1058C000237A067A734023720E93637A467A734082
:1058D00063720293A67A837A5E40A6720596E37A93
:1058E000C67A7340E3720493237B067B7340237371
:1058F0000D93637B467B734063730193A67B837B2D
:105900005E40A6730396E37BC07B4340E3739C46F3
:10591000FA489023825CEB5C5A402270425C294634
:1059200090310B795A4022710E9BC25C0B7A5A401F
:1059300022720D9BC25C0B7B5A402273019B4E7BF3
:10594000C25C4B785A40029BC35C73406373C35D77
:105950004E7A734063727346C35C4E7973406371D1
:1059600062700B9B8E7BC25C8B7A8F785A40099B4E
:10597000C35C7340059E865D7E40A670039E8F7952
:10598000865D7E40A671A272A373079BC25CCB7B2F
:105990005A40069BC35CCE787340E370049BCE797B
:1059A000C35C7340E3716346C35CC97A4B40E372E6
:1059B000E27308262078A178484000F0A1F900F0B1
:1059C0009FF907466078E178484000F099F900F0C7
:1059D00097F9217879402170617841406170A17810
:1059E0007940A170E1784140E1702079A179484087
:1059F00000F086F900F084F907466079E1794840C3
:105A000000F07EF900F07CF90146207978402071A1
:105A1000607948406071A0797840A071E079484091
:105A2000E071207AA17A484000F06AF900F068F944
:105A30000746607AE17A484000F062F900F060F9C8
:105A4000217A79402172617A41406172A17A79406C
:105A5000A172E17A4140E172207BA17B484000F0D5
:105A60004FF900F04DF90746607BE17B484000F0BC
:105A700047F900F045F9217B79402173617B414072
:105A80006173A17B7940A173E17B4140E173207890
:105A900062780146A378E778504002467B40584040
:105AA00007461046029100F02BF922780146794012
:105AB0004A4022706078A178484000F021F962786D
:105AC000014679404A406270A078E178484000F091
:105AD00017F9A278014679404A40A270E07802990D
:105AE000484000F00DF9E278014679404A40E27002
:105AF000207962790146A379E779504002467B40DC
:105B0000584007461046029100F0FAF82279014603
:105B100079404A4022716079A179484000F0F0F85C
:105B20006279014679404A406271A079E179484042
:105B300000F0E6F8A279014679404A40A271E07986
:105B40000299484000F0DCF8E279014679404A4089
:105B5000E271207A627A0146A37AE77A50400246DF
:105B60007B40584007461046029100F0C9F8227A5F
:105B7000014679404A402272607AA17A484000F09A
:105B8000BFF8627A014679404A406272A07AE17AAF
:105B9000484000F0B5F8A27A014679404A40A27226
:105BA000E07A0299484000F0ABF8E27A0146794089
:105BB0004A40E272207B627B0146A37BE77B504038
:105BC00002467B40584007461046029100F098F884
:105BD000227B014679404A402273607BA17B48408A
:105BE00000F08EF8627B014679404A406273A07BE8
:105BF000E17B484000F084F8A27B014679404A40AE
:105C0000A273E17B0298484000F07AF80146E37BFA
:105C100079404B40E373217838489E46425C31011D
:105C20006B5C49195A40227022790B79825C5A4088
:105C30002271227A0B7A825C5A402272227B0B7B81
:105C4000825C5A402273627B4B78825C4F7B5A4065
:105C5000637AC35C7B40637363794F7AC35C7B4038
:105C6000637263784F79C35C7B4063716270A27822
:105C70008F78835C8A7A5340A2799C46825C8B7BC6
:105C80005A40A37AC35C7B40A370A37B8F79C35C2B
:105C90007B40A3716346A372A273E278CB7B825CE4
:105CA0005A40E379CF78C35C761E7B40E370E37A99
:105CB000CF79C35C76B27B40E3717346C05CC97A2E
:105CC0004840E072E273002E00DB73E6CBE510B5CE
:105CD000ACB004466846FFF7A3FB69462046FFF7D1
:105CE000FCFB2CB010BD10B5ACB004466846FFF705
:105CF00097FB69462046FFF7B8FDF2E730700010C9
:105D0000C1094000002903D0C0B21B2148407047A0
:105D1000C0B2704730B50B46014600202022012456
:105D200009E00D46D5409D4205D31D469540491BCF
:105D30002546954040191546521E002DF1DC30BD18
:105D400070B500242546002801DA012440420029CC
:105D500001DA01254942FFF7DDFFAC4200D04042A5
:105D6000002C00D0494270BD03460B439B0703D073
:105D700009E008C9121F08C0042AFAD203E00B7810
:105D80000370401C491C521EF9D27047D2B201E088
:105D90000270401C491EFBD270470022F6E710B586
:105DA00013460A4604461946FFF7F0FF204610BD89
:105DB00030B504460020034600E05B1C934203D24A
:105DC000E05CCD5C401BF8D030BD0321001D401EBF
:105DD000037812021A43491EF9D51046704703464C
:105DE00003220870000A491C521EFAD51846704753
:105DF000F8B502464A40D40F42004B0052085B08F7
:105E00009A4202D20246084611464A0023D0C30DE8
:105E10004A00DDB2120EAD1A202D35DA49020126F4
:105E2000490AF6058A19002C00D0524220214F1B46
:105E30001146B9402A411018C20D9A4221D0002CB7
:105E400017D0012D08DCDA05801AD20F8019D2078D
:105E5000DBB200F081FAF8BDDA05801A01234000B8
:105E60001B06C01880185A428018CA0F10434900F8
:105E700007E04908C2071143DA05801A8019400873
:105E8000801800F061FAF8BD61000122511A001B70
:105E9000F7E70122D2075140AAE70122D20750407A
:105EA000A6E70000F0B507460846584087B0C00F87
:105EB000049048000E46590040084908BC1A884121
:105EC00005D2384631461E4617460B460246580054
:105ED000400810434CD0300D039040055900400D50
:105EE000490D0590401A0290402872DA18030121EA
:105EF000000B09050843019004980092002805D082
:105F0000019952420020884100920190029840215C
:105F10000A1A0199009800F0E3F905460C466B4611
:105F200007CB00F0FEF9C0197141039A0E0D002352
:105F3000D71756401A467A40164344D0049A002A8E
:105F40002DD0029A012A039A15DC1205C01A91413C
:105F500001263605001C7141D20F059ED207009321
:105F6000019202962A46234600F03CFA07B0F0BDA3
:105F700038463146FAE71605224A0F46B218C01ACB
:105F8000B74101210905001C4F4100187F4111460E
:105F900018187941E20F10436D19644113E0E207CC
:105FA0006D0815436408C2071443039A01261205BD
:105FB000C01A91413605001C7141CE07400830439C
:105FC0004908C01851412A46234600F0FEF9CDE7A2
:105FD000FFE7049801224000C117121A00238B41E9
:105FE00004983146C417381AA141EEE730B40124B1
:105FF000E407634030BC55E730B40124E407614056
:1060000030BC4FE70000E0FFF0B51FB488B00B993B
:106010000998002448400999C00F4900490809918E
:10602000C0070B990090490049080B9109990898FD
:10603000A64608431CD00B990A98084318D0099823
:1060400001244000420D4800410D09982405000339
:10605000000B204309900B980003000B20430B908A
:1060600050181C494018002201901446104605E0C3
:10607000002001460DB0F0BD032801DA034600E020
:1060800003239C46C11A0AAE0AE05F0008ADED5B2F
:106090004F00F75B7D430027AA187C41491C5B1E1B
:1060A0006145F2DD410004AB5A522104120C0A434F
:1060B000240C401C0828DFDB0198029000997046F0
:1060C00001910090059B049A0799069800F08AF9BF
:1060D000D0E700000DFCFFFFF0B50C465C4085B03A
:1060E000E40FE40703944C0000266408590094462A
:1060F000490802460296224321D062460A431ED036
:106100006200570D4A000E032303550D0124024679
:106110002C492405781B1B0B360B401823432643C0
:10612000614600901C46501AB44103D30098401CAD
:10613000009002E0921800985B41002803DA0020EA
:10614000014605B0F0BD002001210905074686463D
:1061500011E064461D46141BB54106D36546521B2B
:10616000B341744607430C43A646CD07400849088F
:10617000284392185B4105460D43EAD11046184367
:1061800013D06046194650407140084306D060461F
:10619000101AB34106D20122002306E00022012397
:1061A000DB0702E00122D243531000987446010538
:1061B000381C6141029C039D0019694100F005F9FA
:1061C000BFE70000FD03000010B500229623114632
:1061D00000F0C2F810BD00000EB5C217C10F50404C
:1061E000CA0740180021054B0293019200910A460C
:1061F0000B4600F0F7F803B000BD000033040000C8
:106200000EB505490291002100910A460B46019105
:1062100000F0E8F803B000BD330400004A000903B1
:106220000123090B1B051943094B10B5520D9A4266
:1062300001DA002010BD064B34339A4203DC9A1A6F
:1062400000F05EF810BD03495118884010BD0000F1
:10625000FF030000CDFBFFFFC20FD2074000400844
:106260000BD0C10D0723DB01C91840020905400A04
:106270001143C20840071143704700200146704790
:10628000F0B51FB40646002082B0054640240191B7
:1062900000901BE0019922460F46304600F030F88E
:1062A000049A059B801A994110D31046194622463C
:1062B00000F016F8361A8F4101972246012000217E
:1062C000009F00F00DF838184D4100902046641EE4
:1062D0000028DFDC019B00982946324607B0F0BD5C
:1062E00010B5202A04DB0146203A9140002010BD61
:1062F000914020239C1A0346E3401943904010BD6F
:1063000010B5202A04DB0846203AD040002110BDF9
:106310000B46D340D0402024A21A9140084319468E
:1063200010BD10B5202A06DBCB170846203A1041D5
:10633000C1170B4306E00B461341D0402024A21A9C
:1063400091400843194610BD002904DA401C490059
:1063500001D140084000704770B40024050C05D1FD
:106360001024000402D1002921D01124050E01D1EE
:1063700000020834050F01D10001241D850F01D151
:106380008000A41C002801DB4000641C002908D008
:1063900020252E1B0D46F540A14000D001212943A8
:1063A000084301061B1B000ADB1D02D5002070BC40
:1063B0007047DB05181880180029F8DA401C4900DE
:1063C000F5D170BC40084000704710B5002B08DACA
:1063D0000024401C614192185B411A4301D14008DE
:1063E000400010BDF0B51FB482B005460C0003D0CC
:1063F000084600F0F3F802E000F0F0F82030024622
:10640000009021462846FFF76BFF049B059A04463F
:106410000F4618431143084314D0184610431BD0AD
:10642000009840210A1A18460599FFF769FF0546AA
:106430000E46009A05990498FFF752FF084305D0CD
:10644000012004E02046394607B0F0BD0020C11706
:1064500005430E432C43374300990E986305401AB9
:106460007905E40A00220C43FD0A0A3002D5002017
:106470000146E9E70105101969410C9C0D9D0019C1
:106480006941FFF7A2FFDFE74A0009030123090B77
:106490001B0519430A4B10B5520D9A4202DA00202F
:1064A000014610BD064B34339A4203DC9A1AFFF7BB
:1064B00027FF10BD034BD218FFF712FF10BD0000DD
:1064C000FF030000CDFBFFFF10B5002904DB012412
:1064D000E40740428C412146002B04DB1C4601238B
:1064E000DB075242A341994200D1904210BD000007
:1064F000064C0125064E05E0E36807CC2B430C3C17
:1065000098471034B442F7D3F9F7DEFD3C71001020
:106510005C71001070B58C180578401C6B075B0F20
:1065200001D10378401C2A1106D10278401C03E0F7
:1065300006780E70401C491C5B1EF9D12B0705D450
:106540000023521E0DD40B70491CFAE70378401C3F
:10655000CB1A921C03E01D780D70491C5B1C521E67
:10656000F9D5A142D8D3002070BD000010B5104B62
:10657000002A03D0DC7E6406640EDC7600BF30BFE8
:10658000401EFDD20028FBDC0028F9DC002A03D0E5
:10659000D87E80221043D876002907D005480169AB
:1065A0000122114301610169C903FCD510BD00003E
:1065B0006010005000E000E037B514460846064B76
:1065C0006A46214600F0EAF804466946002000F0D9
:1065D00081FC20463EBD0000D56E00102021020C3B
:1065E00001D010211046020A01D0104608390209D4
:1065F00001D01046091F820801D01046891E4208AA
:1066000001D0881E7047081A704730B47446641E63
:106610002578641CAB4200D21D46635D5B00E31825
:1066200030BC184702E008C8121F08C1002AFAD17E
:1066300070477047002001E001C1121F002AFBD102
:1066400070470000F0B51FB484B007980699020D9A
:10665000014314D04A484B491018484305140F9879
:1066600001280E981CD0281A401C0024464E474989
:10667000009401910290002814DA474227E00F9815
:10668000012443A3012808D0002104980F9A8460B4
:106690000360C260416009B0F0BD0E98C143F4E7E9
:1066A0004042E2E7074612E0F80707D022463346A9
:1066B00001990098FFF7A8FC01910090224633460B
:1066C00010461946FFF7A0FC04460E467F10002F27
:1066D000EAD10298019B0028009A0799069802DAED
:1066E000FFF792FC01E0FFF7F7FC04460E4600229C
:1066F000284BFFF7E9FE03D80020C043014607E01E
:106700000022254B20463146FFF7CCFBFFF7BCFEAD
:10671000102409E0002C0ADB0A220023FFF7B0FD59
:10672000059B30321A55641E02460A43F2D11122EB
:10673000641C059B121B1C190F9B012B03D001230A
:1067400008430ED10AE0084304D011200E90002027
:106750000F9084E70E98151A6D1E0BE00E9882427A
:1067600002DD00236D1C03E0824201DA00236D1E6E
:10677000002BEED004980F998260C16030C08AE788
:1067800001FCFFFF104D0000000024400000F03F1E
:10679000300000000000F0430000E03FFFB597B07C
:1067A0000646002518E2252877D100242746FD4912
:1067B000049400E00443761C32780120203A904093
:1067C0000842F7D130782A280ED0022230780146CC
:1067D0003039092916D804990A2359433039401809
:1067E0001443761C0490F1E7189802C8049118909D
:1067F000002904DA012040030443484204900220A7
:106800000443761C30782E2814D104200443707879
:10681000761C2A2809D11898761C80C8189009E09F
:106820000A214F43303FC719761C30780146303972
:106830000929F5D930786C2810D006DC4C281AD0FC
:1068400068280ED06A2817D104E0742813D07A285B
:1068500012D110E00120400504430CE0012109059C
:1068600001E0032109050C437178814203D1012025
:1068700000052418761C761C3078119066280BD001
:1068800013DC58287DD009DC00287BD04528F6D0C1
:106890004628F4D047281AD1A5E118E0632835D05E
:1068A000642870D0652812D19DE170286CD008DC76
:1068B0006728F1D069287BD06E280DD06F2806D1CB
:1068C000BAE073282ED0752871D0782859D01A9A3A
:1068D000199990476D1C7EE16002400F022809D093
:1068E00003280DD00428189801680DD00D60001DF4
:1068F000189070E11898EA1701680D604A60F6E791
:10690000189801680D80F2E70D70F0E718986A4654
:1069100001781172001D18900020507202A800909A
:10692000012005E0189802C8189000200091C0438B
:1069300061070DD5002101E00199491C0191B9427F
:1069400012DA8142F8DB009A515C0029F4D10BE0A5
:10695000002101E00199491C01918142FADB019A71
:106960000099895C0029F5D1019904981A9B471A6E
:1069700021463846199A00F097FA019940194518AE
:106980000BE04FE02CE113E04EE000980099007816
:10699000491C00911A9A199990470198401E01903C
:1069A000401CF2D1214638461A9B199A10E137E073
:1069B0000A200021009001916002410F022907D0B6
:1069C000189A01CA1892C2179446032908D00AE0FF
:1069D0001898C01DC108C90005C91891944607E060
:1069E00000B2C2179446042902D140B2C1178C46A6
:1069F00000226146944506DA0A4600214042914150
:106A00008C462D2102E0210504D52B216A46117305
:106A1000012103E0E10701D02021F7E7029155E0D1
:106A20000A200AE0102008E0102000900021042035
:106A300004430191082703E0082000210191009000
:106A40006002410F022907D0189A01CA1892002249
:106A50009446032908D008E01898C01DC108C90051
:106A600005C91891944603E080B2042900D1C0B250
:106A700000210291210729D51199702906D0009A89
:106A80001021019B4A401A4305D00EE040216A467E
:106A90001173012108E06146014306D030216A46A6
:106AA00011731199517302210291009A0821019BDF
:106AB0004A401A430AD16146014301D1610705D515
:106AC00030216A46117301217F1E029111995829C4
:106AD00004D035A10E910DA90D910DE037A1F9E774
:106AE0006146019B009AFFF7CBFB0E9B8C469B5C9B
:106AF0000D9A521E0D92137061460143F0D10D980C
:106B000005A9081A20300190600703D50120000470
:106B1000844300E001270198874201DD381A00E034
:106B20000020019900904118029809180498401A11
:106B30000490E00306D421461A9B199A049800F0A9
:106B4000B3F94519002706E003A81A9AC05D199900
:106B500090476D1C7F1C02988742F5DBE0030CD543
:106B600021461A9B199A049800F09EF9451904E0F1
:106B70001A9A3020199990476D1C0099481E009070
:106B80000029F5DC08E00D980D990078491C0D915D
:106B90001A9A199990476D1C0199481E0190002975
:106BA000F1DC63E109280100303132333435363706
:106BB0003839616263646566000000003031323349
:106BC00034353637383941424344454600000000E9
:106BD00000F05AF94519761C3078002800D0E2E51B
:106BE00028461BB0F0BD600700D406271898C01DCA
:106BF000C108C90048680A680831C30FDB0718914B
:106C0000190001D09CA108E0210501D59BA104E059
:106C1000E10701D09AA100E09AA1430011985B0816
:106C2000109165280CD006DC452809D046281DD0D7
:106C3000472841D141E0662818D067283CD13CE084
:106C40000021112F01DB112000E0781C0191009040
:106C500008A911A8FFF7F6FC139905910021119AD4
:106C600015927F1C12980197009150E00120C007F7
:106C700003900120019008A9009711A8FFF7E2FCFA
:106C8000139A149905920022119B00921298159361
:106C9000059A0192002901D0104602E0791C4018A3
:106CA0000190381A01D5019804E04042401E00903E
:106CB000781C0190C01B029043E0012F00DA0127ED
:106CC0000021112F01DD112000E0384601910090D4
:106CD00008A911A8FFF7B6FC13990591119A002194
:106CE000129815920091019721070CD40599B94289
:106CF00001DB019900E00191012904DD159A491E8B
:106D0000515C302906D0B84201DA011D05DA0121B3
:106D1000029115E00199491EEDE7002805DC009974
:106D2000411800910199091A03E0019A411C91420E
:106D300000DD01910099401A401C02900120C0071B
:106D40000390200706D402990198814202DB0020BB
:106D5000C043029000206946C87707AF012103981D
:106D60000337C907884224D0022011902B201290AB
:106D7000039800280CDA404203902D20129007E07F
:106D80000A210398FEF7C6FF30317F1E0390397049
:106D90001199481E11900029F2DC03980028EFD1C8
:106DA000791E129808703078202108404530BF1EA7
:106DB000387006A8C01BC01D0390109800780028EA
:106DC00000D00120019941180298C01709180398B2
:106DD00009180498401A401E0490E00306D4214686
:106DE0001A9B199A049800F05FF8451910980078DA
:106DF000002803D01A9A199990476D1CE00324D5F6
:106E000021461A9B199A049800F04EF845191CE087
:106E10000098002807DB00990598884203DD159843
:106E2000405C199901E0199930201A9A904700980E
:106E30006D1C401C00900298401E0290002804D156
:106E40001A9A2E20199990476D1C0199481E01909D
:106E50000029DDDC05E038781A9A7F1C19999047E3
:106E60006D1C0399481E03900029F4DC21461A9BEF
:106E7000199A0498ACE600002D0000002B000000D9
:106E80002000000000000000F8B5044600251E4662
:106E90001746880404D405E039462020B0476D1C0D
:106EA000641EF9D52846F8BDFFB50446002581B01B
:106EB0001E46C80301D5302700E02027880404D5EA
:106EC00005E038460399B0476D1C641EF9D5284685
:106ED00005B0F0BD0A68531C0B60107070471010AD
:106EE00040104010104010402020201020101010A2
:106EF000101020204010201010401040108840102A
:106F00008820202010201010101010208840108899
:106F1000C9090000E5040000730200003A01000006
:106F20009002000048010000A40000005200000090
:106F3000637C777BF26B6FC53001672BFED7AB7636
:106F4000CA82C97DFA5947F0ADD4A2AF9CA472C0E1
:106F5000B7FD9326363FF7CC34A5E5F171D831154E
:106F600004C723C31896059A071280E2EB27B2756F
:106F700009832C1A1B6E5AA0523BD6B329E32F84E7
:106F800053D100ED20FCB15B6ACBBE394A4C58CFDF
:106F9000D0EFAAFB434D338545F9027F503C9FA8B3
:106FA00051A3408F929D38F5BCB6DA2110FFF3D281
:106FB000CD0C13EC5F974417C4A77E3D645D197335
:106FC00060814FDC222A908846EEB814DE5E0BDB2F
:106FD000E0323A0A4906245CC2D3AC629195E47966
:106FE000E7C8376D8DD54EA96C56F4EA657AAE08C0
:106FF000BA78252E1CA6B4C6E8DD741F4BBD8B8A5B
:10700000703EB5664803F60E613557B986C11D9EC0
:10701000E1F8981169D98E949B1E87E9CE5528DF37
:107020008CA1890DBFE6426841992D0FB054BB1663
:1070300052096AD53036A538BF40A39E81F3D7FBED
:107040007CE339829B2FFF87348E4344C4DEE9CB37
:10705000547B9432A6C2233DEE4C950B42FAC34EAC
:10706000082EA16628D924B2765BA2496D8BD12562
:1070700072F8F66486689816D4A45CCC5D65B69206
:107080006C704850FDEDB9DA5E154657A78D9D84AA
:1070900090D8AB008CBCD30AF7E45805B8B34506CA
:1070A000D02C1E8FCA3F0F02C1AFBD0301138A6BE4
:1070B0003A9111414F67DCEA97F2CFCEF0B4E67314
:1070C00096AC7422E7AD3585E2F937E81C75DF6EC2
:1070D00047F11A711D29C5896FB7620EAA18BE1B28
:1070E000FC563E4BC6D279209ADBC0FE78CD5AF4CE
:1070F0001FDDA8338807C731B11210592780EC5F14
:1071000060517FA919B54A0D2DE57A9F93C99CEF6F
:10711000A0E03B4DAE2AF5B0C8EBBB3C8353996170
:10712000172B047EBA77D626E169146355210C7DAE
:107130008D01020408102040801B36005C71001095
:10714000000000207002000014650010B0720010F2
:107150007002002058210000346600100114DAFF8C
:10716000013202320432060A2108205A0708320985
:10717000320A320B320C320D320E3210321132130F
:10718000321532173219321C321F3222322532297F
:10719000322D32323237323C32423249325032585A
:1071A0003261326B32763282328F329D32AD32BEF4
:1071B00032D132E62AFD6822011A33041A51041A28
:1071C00073041A98041AC1041AEE041A20C51A5638
:1071D000041A92041AD404231C031A6C041AC3045C
:1071E0001A24DD1A8E042302051A83041A10E91AE0
:1071F000AB041A56E91A12E91AE0041AC3ED1ABDD3
:10720000ED1AD0ED1AFFED1A4CE91BBA0F0819E977
:107210001A07E923EE141A06E91A54E923DC1B23A2
:10722000A51E23B6211A15E923CA2823DF2C235BC8
:1072300031234B3623B93B23B241234448237E4FAD
:10724000237157232F6023CE691B627460527F1B0A
:10725000508004411360101B508C041E70B002500B
:1072600078048169101C40787DE25914192891191D
:10727000DC41491D1814015008AA0220309F022049
:10728000F8A60220C8810220CC041ED580022074FA
:10729000041A76041E9A87022024081A20041A8FE2
:1072A000041A90047699890220042938011C295C6B
:04000005100000C126
:00000001FF
