:020000041000EA
:10000000506B0020691B0010711B0010731B001047
:1000100000000000000000000000000000000000E0
:10002000000000000000000000000000751B001030
:100030000000000000000000771B0010791B00107A
:1000400037110010B75000107B1B00107B1B0010F5
:100050007B1B00107B1B0010151300107B1B001076
:100060007B1B0010E91700100D180010311800104C
:1000700055180010791800107B1B00107B1B001016
:100080007B1B00107B1B00107B1B00107B1B0010D8
:100090007B1B00107B1B00107B1B00107B1B0010C8
:1000A0007B1B0010BF1300107B1B00107B1B00107C
:1000B0007B1B00107B1B00107B1B00107B1B0010A8
:1000C00000F002F800F0BDF80CA030C80838241881
:1000D0002D18A246671EAB4654465D46AC4201D180
:1000E00000F0AFF87E460F3E0FCCB64601263342F5
:1000F00000D0FB1AA246AB4633431847248B0000BE
:10010000448B0000103A02D378C878C1FAD852075D
:1001100001D330C830C101D504680C6070470000BD
:100120000023002400250026103A01D378C1FBD813
:10013000520700D330C100D50B60704710B56E294F
:1001400002D107F0A5F810BD702902D107F0DFF940
:1001500010BD662902D108F049FA10BD652902D107
:1001600008F044FA10BD672902D108F03FFA10BD2B
:10017000612902D1C046C04610BD03681B0A01D3E5
:1001800080231943692902D107F04CF810BD642976
:1001900002D107F047F810BD752902D107F042F8E7
:1001A00010BD6F2902D107F05DF910BD782902D189
:1001B00007F09AF910BDE92902D107F0F9F810BD4E
:1001C000E42902D107F0F4F810BDF52902D107F0B7
:1001D000EFF810BDEF2902D107F050F910BDF82952
:1001E00002D107F08FF910BD0368DB0901D380232A
:1001F0001943632902D107F006FD10BD732902D10E
:1002000007F009FD10BDE32902D107F013FD10BD71
:10021000F32902D107F016FD10BD002010BD1FB557
:1002200007F070FD04000020002108F01BF9401CBD
:1002300060600020002108F0FFF8E0601FBD10B5ED
:1002400010BD07F037FD1146FFF7E9FF00F09DFDF7
:1002500008F058F803B4FFF7F2FF03BC08F0A2F867
:1002600000B52D1D00BD000070B505460C461646B4
:1002700002E00FCC0FC5103E102EFAD2082E02D38A
:1002800003CC03C5083E042E07D301CC01C5361F9D
:1002900003E021782970641C6D1C761EF9D270BDB4
:1002A0001FB500216846017007214172192189019B
:1002B0004181F7498181032181730021017201F09D
:1002C000AFFCF44801F098FCF2484078F249C8735A
:1002D000F04880780874EF48C0784874ED48007999
:1002E0008874EC484079C874EA4880790875EB480E
:1002F0000378EB480178EB4AE74801F094FC1FBD16
:100300003EB504460D46E848007801280FD101218A
:1003100068460180032141801F21818001210181E4
:1003200023462A466946012001F08BFF3EBD00208E
:10033000FCE710B586B00446DCA103C9019100902A
:1003400004A801F0E8FD6846428A018AD9A001F0BC
:1003500055F9002C02D0012C3CD120E06846408A9F
:10036000002814D06846008A102810DD0020D849E3
:100370000870102168464181C821C1810021818116
:10038000C02101720421417202A802F0DAFBD1A05F
:1003900001F034F905216846FFF7B2FF1AE068461C
:1003A000408A0A2815DA6846008A502811DA502156
:1003B000684641810A2181814B21C900C181C02148
:1003C00001720421417202A802F0BBFBC7A001F038
:1003D00015F900BF00BF06B010BD13B582B0684666
:1003E000408915214902884209D1C6A003C801915C
:1003F000009005246946204601F005FF9CE0684610
:100400004089C249884208D1C1A0006801900224F5
:1004100001A9204601F0F7FE8EE068464089BB49FD
:100420002831884209D1BBA103C901910090082459
:100430006946204601F0E7FE7EE068464089B34900
:100440002331884209D1B5A103C901910090072445
:100450006946204601F0D7FE6EE068464089AB4908
:100460002431884209D1AFA103C90191009005242C
:100470006946204601F0C7FE5EE068464089A34910
:100480002631884208D1A9A000680190042401A95E
:10049000204601F0B8FE4FE0684640899B4925316F
:1004A000884208D1A2A000680190042401A9204636
:1004B00001F0A9FE40E0684640899449273188420E
:1004C00008D19CA000680190042401A9204601F0F5
:1004D0009AFE31E0684640898C494F31884209D103
:1004E00095A103C90191009007246946204601F0B7
:1004F0008AFE21E0684640899149884207D191A04F
:1005000000680190042101A8FFF7FAFE14E0684694
:1005100040898B49383188420DD10021019100205A
:10052000009001A9684601F0FCFA69466846007926
:1005300001F069FE00E000BF1FBD0FB410B56846B2
:100540004089022807D16846827B03A903317E488F
:1005500001F0E3F80DE06846408979493831884276
:1005600007D10020794908706846817B0F3001F07F
:10057000ACFA10BC08BC04B0184710B5FFB0FFB00F
:1005800082B00446601C05F083FF012805D101F00C
:100590004FFB6FA001F032F8CAE1601C05F078FF54
:1005A00002281BD1A1796FA001F028F80622E11DD5
:1005B00071A001F060F82D20015D72A001F01EF81D
:1005C0000D21615673A001F019F80D2161568AB210
:1005D00021460E3174A001F04EF8A9E1601C05F02F
:1005E00057FF042817D100202F49087001207149B6
:1005F0000870002036490870544908706E49087028
:10060000524908700622A11D6CA001F034F80120A7
:10061000FFF78FFE8CE1601C05F03AFF08280DD132
:10062000002064490870644908701F4908706179A6
:1006300068A000F0E3FF01F0FBFA79E1601C05F02F
:1006400027FF0121C90388421FD1A17962790802DD
:10065000104301281AD1217AE27908021043202898
:100660009AD1A17A627A08021043012806D161A0CA
:1006700000F0C4FF01200C49087059E162A000F0AD
:10068000BDFF00200849087052E1E1E0C6E000002B
:10069000FF3F000034000020120000203200002044
:1006A0002E000020300000200C000020FC01000083
:1006B00000000000696E74657276616C3A257820DE
:1006C0006C6174656E63793A25780D0A000000004C
:1006D00010000020536574557064617465206F7458
:1006E00061206C696E6B0D0A000000005365745543
:1006F000706461746520696F73206C696E6B0D0A9C
:10070000000000005541525446000000012A00003C
:10071000FFFF000053594420496E632E424C452090
:10072000312E3000312E302E30000000322E30308D
:10073000332E3030342E3030023A09050A020000E0
:10074000C9FE000000010304140100200F00002076
:100750004741505F4556545F4144565F454E440DF6
:100760000A0000006164765F616464725F7479708E
:10077000653A2578000000006164765F6164647208
:100780003A0000006164765F727373693A25780DF0
:100790000A0000006164765F646174615F6C656E7D
:1007A0003A25780D0A0000006164765F6461746127
:1007B0003A0D0A000E000020740000204741505FEF
:1007C0004556545F434F4E4E454354454420616463
:1007D00064723A004741505F4556545F4449534361
:1007E0004F4E4E45435445442825303278290D0A52
:1007F0000000000073746172745F747820656E612C
:10080000626C650D0A00000073746172745F747825
:100810002064697361626C650D0A0000A1796279D8
:1008200008021043FE4988420DD1217AE27908027C
:1008300010432D287CD1A17A627A08021043012846
:1008400002D1F849087073E00020F64908706FE0A3
:10085000601C05F01DFE0121C902884210D1FF2253
:10086000F83221461531684605F0B1FDEE4A611DAA
:100870007EA805F0ACFD7EA80FC8FFF75EFE57E02E
:10088000601C05F005FE01218902884209D1082279
:10089000611DFEA805F09BFDFF99FE98FFF79DFDE9
:1008A00046E0601C05F0F4FD0121890388423FD039
:1008B000601C05F0EDFD102806D10120DB49087011
:1008C000DBA000F09BFE33E0601C05F0E1FD80281A
:1008D00003D1DCA000F092FE2AE0601C05F0D8FDF8
:1008E00001214902884223D1A1796279080210438B
:1008F000030007F076FD0604080C1014181CD6A09F
:1009000000F07CFE13E0DAA000F078FE0FE0DEA03D
:1009100000F074FE0BE0E2A000F070FE07E0E6A03D
:1009200000F06CFE03E0E9A000F068FE00BF00BF2D
:100930007FB07FB002B010BD00B591B001F046F9B4
:10094000E7480990E7480A90E7480B90E7480C9081
:10095000E7480D9009A801F0C6FA0321684601771F
:1009600000214177807F81088900491C6846817792
:10097000807F042188430146684681771021C17732
:10098000002108A801700321417007A801F0AEFA08
:100990000621684681800921C1806421018141814D
:1009A000062101733221417300218173C1730174E7
:1009B000012101A84173002181730221C17300212B
:1009C000017403214174002181740421C174002148
:1009D0000175052141750021817501F094FAC54921
:1009E000FF20013005F065FDC249091DC24805F030
:1009F00060FDC04801F0F1FBC04801F001FC00209F
:100A000001F045FDFFF74CFC012108A8017600210B
:100A100041760EA90231002005F04BFD0FA90231ED
:100A2000002005F046FD0EA801F07FFD11B000BDCD
:100A300070B5B3480078012847D1B2480068B14981
:100A40004968884241D00024AE494968AD4A1268DD
:100A5000881A142105F03FFD401CC5B2A949496818
:100A6000A84A1268881A142105F035FDCEB200BFDD
:100A700027E0681EA04211DCA249C968A14A126899
:100A800088183146FFF73CFC002806D000259D4819
:100A9000006880199B49086011E014E09949C96811
:100AA000984A126888181421FFF72AFC002805D0FC
:100AB0009448006814309349086000E003E0601C2B
:100AC000C4B2AC42D5DB00BF00BF70BD08B500208A
:100AD000009004E001226946002000F08EFC694687
:100AE0008848103000F056FE0028F3D108BD10B53C
:100AF00085480078401C8449087008460078022820
:100B00000BDB00200870012000F02DFF7D4800F075
:100B100056FE002801D1FFF78BFF10BD10B5002451
:100B200042E0182C32D008DC002C0DD0022C22D050
:100B3000042C21D00A2C2BD113E01E2C27D01F2CE3
:100B40001BD0222C24D10DE00021204600F05DFBBB
:100B50000121204600F08DF90021204600F0F1F936
:100B60001FE000BF0021204600F04FFB012120467E
:100B700000F0E7F915E000BF00BF0021204600F0BB
:100B800044FB0021204600F0DCF90AE000BF08E049
:100B90000021204600F039FB0021204600F069F9D1
:100BA00000BF00BF601CC4B2272CBADB10BD70B5FB
:100BB00004460D460721142000F027FB07211520CD
:100BC00000F023FB002C07D00721122000F01DFBB2
:100BD0000721132000F019FB0620002815DBC206B0
:100BE000D20E01219140494A116000BF00BF00BFF1
:100BF000BFF34F8F00BF00BF00BF00BF00BF00BFEB
:100C0000BFF36F8F00BF00BF00BF00BF4048006848
:100C10000078000900012907090F08433C4979E0E1
:100C2000E7FE00000D000020070200000F0000207A
:100C30004741505F4556545F454E435F4B45590D04
:100C40000A0000004741505F4556545F454E435FE0
:100C500053544152540D0A007570646174652072DA
:100C600073702041434345505445440D0A00000031
:100C7000757064617465207273702052454A4543F3
:100C80005445440D0A00000075706461746520725B
:100C900073702054494D45524F55540D0A000000C1
:100CA00075706461746520727370205355434345B9
:100CB00045440D0A00000000456E61626C65206CC1
:100CC0006174656E63790D0A000000004469736108
:100CD000626C65206C6174656E63790D0A000000BA
:100CE000FC850010268600101B860010658600100B
:100CF00023870010000000207B0500100800002062
:100D00000C000020040100201100002080E100E020
:100D10005000002009680870384800680078802179
:100D20008843E10180221140084334490968087072
:100D300032480068007840218843304909680870CB
:100D40002E48006880780821884308302B490968BC
:100D5000887092002A492B4800F0D6FC2A48406A45
:100D600040210843284948620846006A4021084358
:100D7000254908620620002805DBC206D20E0121A3
:100D80009140224A116000BF70BD72B6FFF7D4FDDA
:100D9000032001F092FB01F0C4FB022001F09AFB5A
:100DA000FFF7BCFE0721142000F02FFA07211520C1
:100DB00000F02BFA00F01CFC15A218A11AA000F0FC
:100DC0001DFC1FA000F01AFC62B601F06AF820A01A
:100DD00000F014FC10E001F08AFC0A2000F0DEF8BC
:100DE0002048807E402188431E49887616231E4A6B
:100DF0000421012001F09CFDEDE7000050000020DF
:100E000024010020040100200080022000E100E015
:100E100031353A34383A34380000000041707220DD
:100E200020322032303139005359443838323120A1
:100E3000424C457363616E2025733A25730D0A0099
:100E40005359442D54454B2E496E630D0A00000042
:100E50006761705F735F7363616E5F7374617274F7
:100E60000D0A000060100050F82A0000D349086005
:100E7000704770B5024620241440630920251446AB
:100E8000AC430125A54028469C00CD4D2C5920752A
:100E9000050A6575050CA575050EE575002B13D0C3
:100EA000002908D1C74D6D7D0543ECB2C54D6D7D60
:100EB000C44E747515E0C34D6D7D85432C46C14D00
:100EC0006D7DC04E74750CE0002905D1BD4C646881
:100ED0000443BC4D6C6004E0BA4C64688443B94D73
:100EE0006C6070BD70B50246202414406309202553
:100EF0001446AC430125A5402846002B13D00029F9
:100F000008D0B04DED7D0543ECB2AE4DED7DAD4E5C
:100F1000F47515E0AB4DED7D85432C46A94DED7D77
:100F2000A84EF4750CE0002905D0A64CE4680443F3
:100F3000A44DEC6004E0A34CE4688443A14DEC6054
:100F400070BD30B50B4620240440610920250446BD
:100F5000AC430125A5402A468C00994D2C59227698
:100F6000150A6576150CA576150EE576002B0AD0C8
:100F70008C00934D2C592271150A6571150CA571C1
:100F8000150EE57109E08C008D4D2C592272150A61
:100F90006572150CA572150EE57230BD10B52023D3
:100FA0000340590920240346A34301249C402246C0
:100FB0008B00834CE3581A73140A5C73140C9C73F3
:100FC000140EDC7310BD10B52023034059092024F2
:100FD0000346A34301249C4022468B00784CE358EF
:100FE0001A71140A5C71140C9C71140EDC7110BD22
:100FF00010B520230340590920240346A3430124AC
:101000009C4022468B006E4CE3581A72140A5C72A4
:10101000140C9C72140EDC7210BD30B501462020F9
:101020000840420920240846A04301248440234666
:101030009000634C2058403010240419257828462D
:1010400065782D022843A5782D042843E4782406EA
:1010500020431840002801D0012030BD0020FCE7CB
:10106000F0B503460C46154620221A4050092026AA
:101070001A46B243012696403146002C0BD182001D
:101080004F4EB258403211720E0A56720E0C9672C2
:101090000E0ED6720AE08200494EB25840321171EB
:1010A0000E0A56710E0C96710E0ED671002D0BD1D4
:1010B0008200434EB258203211760E0A56760E0C3C
:1010C00096760E0ED6760AE082003D4EB258203259
:1010D00011750E0A56750E0C96750E0ED675820099
:1010E000374EB258203211710E0A56710E0C96719D
:1010F0000E0ED6710022002A05DBD706FF0E012650
:10110000BE40314F3E6000BFF0BD10B5202303400C
:10111000590920240346A34301249C4022468B0006
:10112000274CE35820331A72140A5C72140C9C7218
:10113000140EDC7210BD70B500243CE0A000204904
:1011400008584030142141180A7810464A78120293
:1011500010438A7812041043C97809060843A10095
:10116000174A515820310A461378194653781B0202
:10117000194393781B041943D2781206114308408F
:101180000546002D00D114E00C480068002804D06A
:1011900029462046094A12689047A0000849085885
:1011A00040300575290A4175290C8175290EC175D4
:1011B00000BF601CC4B2022CC0DB70BD4400002024
:1011C0003C0000204010005000E100E010B5014656
:1011D000272901DA002902DA0020C04310BDCC071C
:1011E000E40F202904DA4A101B480068835C05E0FC
:1011F00008462038421018484068835C002C01D013
:101200001811EBE71807000FE8E770B5272801DA97
:10121000002800DA70BD0907090FC407E40F202871
:1012200004DA43100C4E3668F21805E00646203EFC
:101230007310094E7668F2181578002C01D00F262D
:1012400000E0F0263540002C01D00E07310E2E466E
:101250000E43167000BFDDE748000020002815DBB4
:10126000C206D20E01219140944A116000BF00BF16
:1012700000BFBFF34F8F00BF00BF00BF00BF00BF64
:1012800000BFBFF36F8F00BF00BF00BF704770B5D6
:1012900004460D460620FFF7E1FF89480068007804
:1012A000000900012907090F0843854909680870EA
:1012B00083480068007880218843E1018022114042
:1012C00008437F49096808707D480068007840211C
:1012D00088437B490968087079480068807808214C
:1012E00088430830764909688870920075497648C5
:1012F00000F00AFA7548406A402108437349486281
:101300000846006A4021084370490862062000F040
:10131000CBF870BD70B56A48006804783020604032
:1013200005466748006805701020204000280DD051
:1013300000BF634800680179634800F01DFA604807
:101340000068C078C007C00F0028F2D070BD70B52B
:1013500004460D461920FFF781FF59484068007880
:10136000000900012907090F084355494968087019
:1013700053484068007880218843E1018022114071
:1013800008434F49496808704D484068007840213B
:1013900088434B494968087049484068807808216B
:1013A0008843083046494968887092004849464851
:1013B000103000F0A9F9192000F076F870BD70B572
:1013C0003F48406804783020604005463C4840680B
:1013D00005701020204000280ED000BF384840681B
:1013E00001793948103000F0C7F935484068C078B5
:1013F000C007C00F0028F1D070BDF0B50B46012426
:101400002404002112E000BF85002D4E7559ED78AF
:101410002D07ED0F002DF7D1850075596D785E5CB5
:1014200035468600264FBE597570491C9142EADB4D
:1014300000E0641E8500224E7559ED786D07ED0FB2
:10144000002D01D1002CF4D1F0BD70B504460D463D
:1014500021011D4A8818294600F09CF970BD70B51D
:1014600004460D4600BF022C01DB002070BD2101A7
:10147000154A881800F0A3F900280AD12001124962
:101480004018C5682101104A881800F0A1F9C0B2BF
:10149000ECE70020EAE70146012901DD0020704762
:1014A0008800074A1058FAE7002806DBC206D20E69
:1014B00001219140014A803A1160704780E100E0CB
:1014C00050000020240100200401002000800220A0
:1014D0002403002010B502460620002815DBC406B0
:1014E000E40E0123A3407F4C236000BF00BF00BF78
:1014F000BFF34F8F00BF00BF00BF00BF00BF00BFE2
:10150000BFF36F8F00BF00BF00BF00BF7648006809
:101510000078000900010B071B0F1843724B1B6872
:10152000187071480068007880239843D3018024A4
:10153000234018436C4B1B6818706B480068007898
:10154000402398434030684B1B6818706648006819
:10155000C078102398431030634B1B68D8706248E2
:10156000006880780823984308305F4B1B689870A8
:101570005E48406A402318435C4B58621846006A34
:1015800040231843594B18620620002806DBC40686
:10159000E40E0123A340534C803C236000BF10BDE8
:1015A000F0B50B4601242404002112E000BF8500A1
:1015B0004D4E7559ED782D07ED0F002DF7D18500B3
:1015C00075596D785E5C35468600474FBE5975701B
:1015D000491C9142EADB00E0641E8500424E7559C9
:1015E000ED786D07ED0F002D01D1002CF4D1F0BD89
:1015F00010B508210020FFF76DFF10BD0FB438B5FE
:1016000000240498002803D138BC08BC04B0184753
:1016100005A800903648009A049904F099FEC4B2D7
:1016200000200090802C00DD8024224630490020DC
:10163000FFF7B6FF00BFE7E70FB438B50546002453
:101640000598002803D138BC08BC04B0184706A888
:1016500000902748009A059904F07AFEC4B2002051
:101660000090802C00DD8024224621492846FFF787
:1016700097FF00BFE7E7F8B505460E46174600247A
:10168000002D02D02846FFF7B9FF00241BE02046BA
:10169000E117490F0918C910C900611A03D1A1B295
:1016A00014A0FFF7ABFF315D14A0FFF7A7FF601C8C
:1016B000C117490F0918C910C900411A02D111A058
:1016C000FFF79CFF641CBC42E1DB2046E117490F99
:1016D0000918C910C900611A02D00AA0FFF78EFFCD
:1016E000F8BD000080E100E05800002000800220EA
:1016F000240500205B253034785D200025303278C9
:10170000200000000D0A0000002343600360826097
:10171000C1607047416801607047F8B504460F46E4
:10172000154660684019A168884219DBA088281A0C
:1017300086B26268E16888183246394604F047FE8E
:10174000A81B85B22068A84202DC2088401E85B212
:10175000B9192A46E06804F03AFE65607019F8BDD0
:101760006268E16888182A46394604F030FE6068ED
:10177000401960602846F2E702465368581C5060E2
:10178000D068C15493685068984201DB00205060D3
:1017900001207047024653681068984201D100202A
:1017A00070471368581C1060D068C05C087093685C
:1017B0001068984201DB002010600120F0E701462C
:1017C0004A680868904201D1012070470020FCE778
:1017D000014600224B680868984200DD8A68486824
:1017E00080180B68C01A704710B56E480068007EFC
:1017F00040084000401C6B49096808766A48006848
:10180000002802D068490868804710BD10B56548B7
:101810004068007E40084000401C624949680876E4
:1018200061484068002802D05F494868804710BD81
:1018300010B55C488068007E40084000401C594953
:101840008968087658488068002802D05649886818
:10185000804710BD10B55348C068007E4008400066
:10186000401C5049C96808764F48C068002802D01B
:101870004D49C868804710BD10B54A480069007ED0
:1018800040084000401C47490969087646480069FD
:10189000002802D044490869804710BD01468800ED
:1018A000404A10580078C007C00F7047F0B5044692
:1018B0000E4615462046FFF7F1FF002801D1052C02
:1018C00001DB0020F0BDA00037490E50042C13D1DD
:1018D000A00034490A58517917790902394308465A
:1018E000917909040843A1002E4A51580D712A0A22
:1018F0004A71280C88710EE0A0002A4909584879DD
:10190000097900020843A9B20846A100254A5158A6
:101910000871000A4871002B0BD0A000214908581B
:10192000007F40084000401CA1001E4A5158087723
:101930000CE0A0001B490858203000784008400007
:10194000401CA100174A515820310870A0001549C9
:101950000858007840084000401CA100114A515826
:1019600008700120AEE700B503461846FFF796FF62
:10197000002801D0052B00DB00BD9800094908585C
:101980000078400840009900064A5158087000BF8E
:10199000F2E701468800034A10580078C007C00FDC
:1019A0007047000060000020A405002070B50446C8
:1019B0000E4615460E20634909680870681C614987
:1019C000096848705F48006884702A4631465D485F
:1019D0000068C01C04F0FBFC70BD08B55AA0FFF7FE
:1019E0000DFE00F0C8FD002802D00020009001E0AC
:1019F00001200090012269461620FFF7D7FF08BD9D
:101A000038B50446002500BF2CE0E01C415D52487B
:101A100002790079401CC3B24F48037120388154C9
:101A200020300079202819DB4B492039096A480108
:101A3000494A203A202100F04AFE002802D0002026
:101A4000009001E0012000900021434801712038FE
:101A5000006A401C40492039086201E000200090E3
:101A6000681CC5B2A078A842CFDC012269461720C5
:101A7000FFF79CFF38BD38B5044637480079002889
:101A800008D0354A1179203A126A5001324A203A78
:101A900000F01DFE204604F0FBFC0546607921792C
:101AA0000002084303462A460021084600F01AFEB9
:101AB000002802D00020009001E0012000900122C7
:101AC00069461820FFF772FF38BD70B504460E4610
:101AD00025462878162804D017280BD018281ED1A0
:101AE00016E00020FEF725FCFFF777FF01201B49D9
:101AF000087014E0A81CFFF783FF1848007800283E
:101B000002D102201549087000201549087006E02E
:101B1000A81CFFF7B0FF03201049087000BF00BFEA
:101B200070BD70B505460C46064800684078821CBA
:101B30000C49284604F04BFC024800684078801CA1
:101B4000207070BD7C000020436D64467745726153
:101B500073650D0A00000000D80500207400002005
:101B6000750000207600002007488047074800479E
:101B7000FEE7FEE7FEE7FEE7FEE7FEE7044805496D
:101B8000054A064B70470000A91B0010C100001059
:101B9000501B0020506B0020505B0020505B002049
:101BA00003480449086070470148024908607047CB
:101BB00040787D0180000020FE49202208781043F3
:101BC000EF221040042210430870704710B5FA4805
:101BD0008047002802D002F001FE012010BD10B5A0
:101BE00002F05FFE10BDF44928310847F2493C314C
:101BF0000847F1496C310847F0490847EF495C3123
:101C00000847EE496A310847EC4976310847EB4905
:101C100086310847E94994310847E849A231084725
:101C2000E649AE31084730B4E54CA44630BC6047C5
:101C3000E34874300047E3480047F8B5E24DCF224F
:101C40002968E24C08780026104008702068E049B6
:101C500018308847286822680178127F090912071E
:101C60000901120F114301700907090FBF2701294C
:101C700021687DD00A4622314B7809781B020B433C
:101C8000114620310B711B0A4B710378117A3B40CE
:101C900089010B435906490E017022684178403290
:101CA000127A8909921D92068901920E11434170A0
:101CB00021680622801C093104F089FB2168482034
:101CC000425C002A04D028684931083004F07FFBC8
:101CD0002168BF4A7020405C323A713190472868D1
:101CE000BC4A41788906890E891C9047286801788A
:101CF00009090901091D017022683940127AD207C9
:101D0000520E11430170226841782032127A8909FB
:101D1000921D92068901920E11434170216806229C
:101D2000801C093104F053FB21682820425C28689C
:101D30002931083004F04BFB2868A74A417889060E
:101D4000890E891C9047256800206F7F0121814002
:101D50000F4204D0E97F0B2251438E19761C401CA0
:101D60000328F3D32C46203460782178000200E069
:101D70001AE0084313214843401CB04206D2701EAB
:101D800004F09FFB401C2070000A6070607821788E
:101D900000020843022803D2022020700020607055
:101DA000287F012824D03AE00B4620318A79CA7175
:101DB000197A0278C9073A40490E0A43027051065F
:101DC0002268490E6032127CD201114301704178C1
:101DD0000622890989010C3141702168801C093172
:101DE00004F0F5FA286821680622083071316DE7A1
:101DF000E079002813D06078227801021143132083
:101E00004143A079491CC00304F05BFB401C06461B
:101E10007F2104F056FB401CC1B2E1711EE06079E5
:101E200021790002084331D0607822780102114301
:101E30001320414328462230427803781002184389
:101E4000C003491C04F03DFB401C06467F2104F002
:101E500038FB401C81B22171080A6071304604F0E1
:101E600030FB401C7F2800D97F200121E975A97F24
:101E700000916178237809021943584CEA7FC0B277
:101E80003B46A047554834308047F8BD0020544CAD
:101E9000E875034602460121A047F8BD49491A31B9
:101EA00008474848F43000474E48004738B5049C7E
:101EB00000944C4C0E34A04738BD30B4494CE83443
:101EC000A44630BC604710B502F0E0FD10BD10B56F
:101ED00002F0F8FD10BD4349A431084742480047CD
:101EE0004148323000474049463108473E49B23107
:101EF00008473D49C23108473B4AD032104710B528
:101F000001F0D6F810BD3849FC3108473749084779
:101F100036490E31084735493631084710B501F0CA
:101F2000A6FB10BD10B503F0F8F910BD2F48DC304A
:101F300000472F480068C0788007C00F704770B511
:101F400022480068817C427C0802104312D0FFF7CF
:101F5000F0FF184C022501280DD12448DC308047C1
:101F60002449884207D12178012029430143217067
:101F700003F0D3F970BD20788021084328432070F6
:101F800070BDF8B50B48C079000679D50F480668D2
:101F9000B17C707C0F0207430648057801D0A80782
:101FA00001D468076CD5034C207BE17A0002E41C65
:101FB000084321E0AA160020DF5600001558000053
:101FC00027590000CD5B0000B0000020AC000020CD
:101FD000451D00002B26000047270000971B00002E
:101FE00031540000F55C00005B5E0000675F00009C
:101FF000A40000200604000042D0002F40D06078EA
:102000002178000208432AD1307CF17B000208438A
:1020100004F025FF0022F74B04F024FF04F0D2FE69
:1020200080B278430A2104F056FA4004010C217072
:10203000080A6070307DF27C000210430A2242439D
:10204000914203D3401E2070000A607060782178AE
:102050000002084303D10120207000206070FD21A0
:102060000D40E54801210D430570002003F055F9AE
:102070006078227801021143E14BE04A0920984739
:10208000F8BD10B50F21DC4804F0FEF910BDF0B525
:1020900004468DB0401C04F0FBF9D74E00253E3EAF
:1020A000024604282AD0D448D31F0178FF3BFA3BCC
:1020B00018D001239B039A4279D1D1490A202431B7
:1020C000884770780621484381190A22601D891CBF
:1020D00004F07DF97078401CC0B270700A2876D385
:1020E000757074E0C279002A71D0CA066FD4A379E2
:1020F00066791A023243012A05D068E0757035709E
:10210000FFF7BFFF63E08278521E1206120E827044
:102110004ED0B949437888794E7902023243887AA1
:102120004E7A00023043491C012B47D0801A0872B6
:10213000000A487200060B7A000C1843831A6A469C
:1021400013835083AC4A167BD27A360216436A4612
:1021500096834A7B0F7B110239436A46D1831380F1
:1021600050809680D180137232205072002090727D
:10217000D572280A1073012050730020907302203A
:10218000D073002010740320507400209074042039
:10219000D074002010750520507500209075994965
:1021A00010468847974906A81E3188470FE007E088
:1021B000027A827040221143017008E08018B6E76D
:1021C000880604D59004000F01D0FFF7DAFE8E498F
:1021D0002046096988470DB0F0BD10B50446001DC2
:1021E00004F056F988490861211D884804F061F916
:1021F000844920465C31884710BD82497E310847BA
:102200008049D43108477F4ADC3210477D4AE432A6
:102210001047794900203E390A7849788A4200D926
:102220000A200818801A401EC0B2704700B5FFF798
:10223000F0FF002804D1704800213E384170017041
:1022400000BDF8B50E46074671491C4615460120EB
:102250008847002807D0FFF794FE23462A463146D8
:10226000384602F0EFFBF8BDF8B50E460446684963
:102270001F46154601208847002814D0022C03D1A0
:10228000FFF7C7FF002809D0EAB25E4D3B46314652
:102290002046F435A847012807D004E00A21584B0E
:1022A0005C4A084698470020F8BD022C12D1524CD7
:1022B00006213E3C20780A46484300193146801CDE
:1022C00004F085F82078401CC0B220700A2801D3A1
:1022D000002020700120F8BD70B50D460446112184
:1022E000401989031646884201D3002070BD4A4830
:1022F0000068213004F0CCF8484B001932462946DA
:10230000984770BDF8B50646EFF3108472B6424D9B
:102310002868213004F0BCF88019414A0121904717
:1023200084F310883E4F0024F63FEFF3108572B619
:1023300039480068213004F0ABF8311940183949A8
:1023400000230A192021B84785F3108801200003D3
:1023500020348442E9DBF8BDF7B5070501993F0D4C
:10236000002912D0029900290FD027498978002925
:102370000BD101997A18012109038A4205D8019AE3
:10238000112382181B039A4201D90020FEBD0025AB
:10239000C41BEFF3108672B61F480068213004F0AA
:1023A00077F8611940181F491C4B4A19202198479A
:1023B00086F310880120000320358542E9DB1948A7
:1023C000019AC019029904F002F8114901208847C6
:1023D00000280AD0EFF3108072B60B4901228C80DE
:1023E0008A7080F310880120FEBD2046FFF78AFF27
:1023F000F9E700000000F43FAA1600203F1F00107C
:10240000D3330000575F0000840000208F200010AD
:10241000458500002D220010A80000208F16000026
:102420009F1800006C060020FA490847F94A083254
:10243000104738B5049C0094F64C1034A04738BDC2
:1024400030B4F44C1C34A44630BC6047F14924310C
:102450000847F04A2C321047EE4A3432104730B465
:10246000EC4C3C34A44630BC6047EA4B443318473C
:10247000E84B4C33184730B4E64C5434A44630BCD7
:102480006047E4495C310847E24864300047E1496D
:102490006C310847E0490847DF4908310847DE4901
:1024A0008C310847DC48BE300047DB48E23000474B
:1024B000DA4A1047D9495231084710B502F0C8FE30
:1024C00010BDD64964310847D4496C310847D34917
:1024D0007631084710B502F057FA10BDD0480047D2
:1024E00070B5D048002480682546807A4006C60F23
:1024F00072B6CB488047022002F046FA641CA4B2B0
:10250000FA2CFBD30024304602F01DFA002801D03B
:10251000012503E0641CE4B2032CF4D362B6284620
:1025200070BD10B502F030FE10BDBC49A4310847A3
:1025300030B4BD4CA44630BC6047B848F6300047C4
:10254000B74814380047B6491C310847B4484230F0
:102550000047B3484C300047B1480E30004710B533
:10256000AF488047B14C0120A0470020A04710BDD4
:10257000AF4908707047F8B5002472B6AD4A012122
:10258000AD4B09032046984762B6AC4E306805460D
:10259000093003F07DFFA7494718E878002811D0DB
:1025A0002846313003F074FF064628462D3003F0EC
:1025B0006FFF301A4002060E3878A14F9F4D002859
:1025C00057D073E02846293003F062FF06462846BC
:1025D000253003F05DFF301A4002060E3878984F20
:1025E000964D00280CD026E072B62868293003F0FA
:1025F0004FFFE10340180821B84762B6641CE4B2FB
:10260000B442F1D32D682846293003F041FF064635
:102610002846253037E072B6E203B01819E072B6EA
:102620002868253003F034FFE10340180821B8473B
:1026300062B6641CE4B2B442F1D32868064629307D
:1026400003F026FF05463046253039E072B6E20336
:102650008018B84762B60120F8BD72B628683130DC
:1026600003F016FFE10340180821B84762B6641C66
:10267000E4B2B442F1D32D682846313003F008FFAC
:10268000064628462D3003F003FF301A4004410F60
:10269000C1D1E0E772B628682D3003F0F9FEE103FE
:1026A00040180821B84762B6641CE4B2B442F1D3C2
:1026B00028680646313003F0EBFE054630462D30E3
:1026C00003F0E6FE291A4904490FBFD1C3E7544B72
:1026D000C23318475B4B184730B45A4C6634A44693
:1026E00030BC604730B4584CA44630BC6047F8B5A5
:1026F000564880474B4DA878002809D0A888FFF796
:1027000001FEEFF3108072B60021A97080F31088EB
:102710004F4CE079002834D0000610D520784107CE
:1027200005D5FFF72EFC2078FB21084006E00006C7
:1027300005D5FFF726FC20784006400E2070207853
:10274000444F454E41060AD5BF2108402070022063
:102750006946088002466B4639460020B04720781B
:10276000C1070ED0400840002070800701D504202A
:1027700000E005206946088002226B4639460020A9
:10278000B0476878C10704D0400840006870E86826
:102790008047F8BD3148004730483A3000472F485D
:1027A000523000472D486A3000472C486E300047B1
:1027B0002B498A69120A120202434A61087C0122EB
:1027C000104308747047F8B504462648017DE206B8
:1027D00049094901D20E114301750221224D7F2082
:1027E000A847214E25206946223EB0476846017819
:1027F000214301702520A84769462520B047F8BD30
:102800001A481B4900684118487C097C00020843AB
:10281000704700005D6100008B6200009163000062
:102820006B66000084000020E9310000692D000083
:102830009A0000206C0600208F160000A8000020DF
:102840009F1800001B68000061690000D16400004F
:10285000AA1600200002000031540000713C000064
:102860000010005040600250A7290000AC0000207A
:1028700063050000F8B50546EFF3108472B6002139
:10288000F84E7F20B047F74A17206946223A904712
:10289000684601789F200140A807400E0143684622
:1028A00001701720B04784F31088F8BD38B5EFF3F6
:1028B000108472B60021EB4A7F209047E94A172026
:1028C0006946223A904784F31088684600784006AB
:1028D000800F38BDE4490840E4494A6882434A60B1
:1028E00096E7E1490840E1494A6802434A608FE7B8
:1028F0001CB56A4690801180DD485080D0806946C2
:10290000012001F0C1FB1CBDDA48004770B5054647
:10291000D9480C468268107AFB2108401072D749CA
:1029200028468847D54A214628465E3A904770BDDA
:1029300010B572B6D14C3E34A047D1480068012191
:102940004A02104206D1CF48027ED20702D0027E50
:102950000A43027662B6012010BD70B5044603201A
:102960000003844221D9C8480568E878002802D0CD
:1029700001280AD01BE02846253003F089FD0646D1
:10298000A04214D82846293008E028462D3003F00C
:102990007FFD0646A0420AD82846313003F078FD74
:1029A0000146801B0818A04201D3002070BD012001
:1029B00070BD10B572B6B54A904762B610BD70B51D
:1029C00014460D460646FFF7C8FF002806D072B62B
:1029D0002246AF4B29463046984762B670BD10B5C7
:1029E00072B6AB4BAE33984762B610BD10B572B637
:1029F000A64CF63CA04762B610BDF7B50025C8024C
:102A000088B00E462C46070C11E0089861010818A2
:102A10009F4B6A4620219847002069460A5C401C6B
:102A20005219C0B295B22028F8D3641CA4B2BC429B
:102A3000EBD3F6060898F60E61010818944B6A4627
:102A4000314698470020694604E00A5C5219401C50
:102A500095B2C0B2B042F8D30A98854202D10120A3
:102A60000BB0F0BD0020FBE7FFB50E460121074685
:102A70000903874B81B0874A002098478549352252
:102A800008468C3803F0A3FC8248833803F000FD2D
:102A90008049572244187F482146573803F097FC55
:102AA0002021601C03F0F0FC0025002F10D0002036
:102AB000395C00290AD02218401CC0B2517020286D
:102AC000F6D305E02118401C4D70C0B22028F9D380
:102AD00020460521213003F0D7FC002E12D0002023
:102AE000315C00290CD022182032401CC0B2517039
:102AF0000528F5D306E021182031401C4D70C0B2E6
:102B00000528F8D321462631039803F0D2FC21464C
:102B1000223104980872000A487201215B4A25702C
:102B20000020904701215A4B09030020594AAE3337
:102B30009847012005B0F0BD4A4A1047494A223A59
:102B40001047F0B5027889B0002A7DD05249CA7189
:102B500042780A72002A01D0042A01D904220A729A
:102B6000C2788478130223434B4A1C0A537294722E
:102B70004479057924022C431546EC72260A2E73FB
:102B8000A646C4798579200228435073040A8446F6
:102B900042489473046808252746207CE47B0002A1
:102BA00020430124521C83424C7008D9181A07E0B4
:102BB0001471200A01E01571280A507107E0C01A4B
:102BC0000E7AB0426FDA1471260A56710872087ACA
:102BD00088700D70002B42D05079117900020843A3
:102BE000191A6846018343836146C1837146818314
:102BF000B87C797C0002084302D0002002F08DFBF3
:102C00006846018B0180428B4280828B8280C28B1E
:102C1000C28001723221417200218172C17201733E
:102C20004473210A81730221C173002101740321BD
:102C30004174002181740421C174002101750521B2
:102C400041750021817500E031E01549884714493C
:102C500006A81E31884707490920EA318847012024
:102C600009B0F0BDA7290000FCFF0FFD00100050C7
:102C7000480800000D33000084000020AB31000044
:102C800000E100E000A00050A80000209F18000014
:102C90008F1600006C060020AA160020AC00002051
:102CA000575F0000FFE7F600B04284DA80E70020BB
:102CB000D6E7FEB50746F24801780A077DD5F72228
:102CC00011400170BA797C1C7B7912021A437AD0C8
:102CD000C279120677D5102211430170880672D48A
:102CE000E848804705466079217900020843FF1CC7
:102CF000002832D004F0B3F806460091787839788D
:102D00000002084304F0ABF8DF4F00223B4604F01A
:102D1000A9F83246009B04F0A5F80090DB48019129
:102D20000068017CC27B0802104304F098F800227E
:102D30003B4604F097F807460E46607A217A000277
:102D40000843401B04F083F83A46334604F08AF8FF
:102D5000019B009A03F0E2FD24E0787839780002C4
:102D6000084304F0F9F90646C8480068017CC27BB4
:102D70000802104304F0F0F9314605F089FB04F035
:102D800095F90022C04B04F06DF807460E46607AB4
:102D9000217A00020843401B04F059F83A463346B2
:102DA00004F060F80022BA4B03F0E8FD04F00AF8E2
:102DB0000104090C00D1012101E00DE003E0B64B54
:102DC000B44A09209847032069460881022211026B
:102DD000B24C02AB0020A047FEBD38B5B04C207805
:102DE000002804D1AF49684688470120207001209F
:102DF00038BD10B50B30102801D9FF2010BDC4B26A
:102E0000A54B20469847204610BD10B50B30102822
:102E100001D9FF2010BDA049C4B220462431884703
:102E2000204610BD072801D90020F1E4012282408C
:102E30009B4843781A434270C1600120E8E49348FC
:102E40000068C07DE4E49148974900684118487CD7
:102E5000097C00020843DBE410B5030005F0C1FA69
:102E600009061C36506A849EB0CAE60000217F2005
:102E7000FFF762FE00213020FFF75EFE01217F2078
:102E8000FFF75AFE1E216320FFF756FE1F216D201B
:102E9000FFF752FE882114E000217F20FFF74CFE4F
:102EA00000213020FFF748FE01217F20FFF744FE7C
:102EB0001E216320FFF740FE1F216D20FFF73CFE1F
:102EC0008A216120FFF738FE8121ACE000217F20BC
:102ED000FFF732FE00213020FFF72EFE01217F2078
:102EE000FFF72AFE1E216320FFF726FE1F216D201B
:102EF000FFF722FE8A216120FFF71EFE832192E068
:102F000000217F20FFF718FE00213020FFF714FE7C
:102F100001217F20FFF710FE1E216320FFF70CFE2A
:102F20001F216D20FFF708FE8A216120FFF704FEB4
:102F3000872178E000217F20FFF7FEFD002130206F
:102F4000FFF7FAFD01217F20FFF7F6FD1E21632028
:102F5000FFF7F2FD1F216D20FFF7EEFD8A216120B2
:102F6000FFF7EAFD8F215EE000217F20FFF7E4FDFF
:102F700000213020FFF7E0FD01217F20FFF7DCFD7D
:102F80001E216320FFF7D8FD1F216D20FFF7D4FD20
:102F90008A216120FFF7D0FD9F2144E000217F209E
:102FA000FFF7CAFD00213020FFF7C6FD01217F2079
:102FB000FFF7C2FD1E216320FFF7BEFD1F212AE09F
:102FC00000217F20FFF7B8FD02213020FFF7B4FD7C
:102FD00001217F20FFF7B0FD1F216320FFF7ACFD2B
:102FE00003216D20FFF7A8FD8A216120FFF7A4FDD2
:102FF000B02118E000217F20FFF79EFD0221302044
:10300000FFF79AFD01217F20FFF796FD1F21632026
:10301000FFF792FD07216D20FFF78EFD8A216120C9
:10302000FFF78AFDBF216520FFF786FD10BD1F4910
:1030300009686031087453E410B500280ED00128E7
:1030400012D0022816D0032807D102217F20FFF7D3
:1030500073FD40212920FFF76FFD10BD02217F2065
:10306000FFF76AFD4621F5E702217F20FFF764FDA7
:103070004421EFE702217F20FFF75EFD4221E9E7CF
:10308000AA160020051B00000000F43FAC00002041
:1030900000002440B91B0010D3330000315400005D
:1030A000840000209D2C000063050000A400002087
:1030B000FE490A79002A00D008707047F8B5FB4C29
:1030C00063695979002915D0B121C95CC91F092943
:1030D00056D8014618461022D93003F078F9E07826
:1030E000002502210128606905D04279D2060FD55A
:1030F000EF488047F8BDCA22125C012AFAD1C27992
:10310000012A01D1C57137E0002AF3D1C171F8BDA0
:10311000C279012AF8D1CA21095C01292AD1E069C2
:103120008026017801208840216A0968884300D1FF
:1031300081260027DF4880476169C919E0317F1C7B
:10314000FFB24876102FF5D3606933460146E93166
:1031500002460091FF31F9321131D74EFF305A301B
:10316000B047E0690078142803D261690120C87172
:1031700001E06069C5716069D049E9308847F8BDF0
:10318000CB4B0622002101208C3B9847F8BDF1B5BE
:10319000C64CA4B06069417900292BD0CA210A5CD1
:1031A0002146C64F49691C370025E931012A23D041
:1031B00006460246713609320491711E531E01966D
:1031C000BE4E02930392CA33C23200917A36FF3068
:1031D0000A302499B047616910220846D930E93194
:1031E00003F0C8F800287CD0B14B04220021012054
:1031F0008C3B984725B0F0BD0C950D950E950F951D
:10320000119512951395149542790126D206002A3C
:1032100003DBA64A1379002B7ED0F930B847A34CC4
:103220002079002822D01DA8019500906369A44F41
:1032300018460146FF30FF31FA305A31F933249AEB
:10324000B8471DA8013003F023F918A9097D000231
:1032500008439C4903F035F90422019111049A4F67
:1032600001AB0020B847207800287DD0676907228D
:103270003946093115A803F0AAF8394607227131F9
:1032800017A803F0A4F8387A002810A86DD0867625
:103290007020C05D002818A868D0867004A83A463F
:1032A0000190F9321046844E15ADC03017AB009531
:1032B00046362499B0476069102204A9813003F092
:1032C00086F808AE0FCE19AE0FC6616903220E460E
:1032D00021A8D33103F07BF803223146CC3122A858
:1032E00000E073E003F073F83046FF30EA300390FB
:1032F00017AF21A96846A2C03146714EF93111AB12
:1033000019A86A3E249AB047626922A91046FF3084
:10331000DA300CAB019700E00AE0009103900295CF
:1033200019A8F9322499B04768490020884761E715
:103330005E4A3446D2698023127894405B4A126A0E
:103340001268944300D1812300910146FF315A3124
:10335000594CFF30FA30249AA04754481022406953
:103360000146E931D93002E025E02BE02CE003F002
:1033700001F8002801D004221EE04C4C6069F930AD
:10338000B847E0690178491CC9B201701429CED34D
:10339000216A0868020C08A8827410A88271088843
:1033A000020A08A8427410A84271097808A801749A
:1033B00010A8017133E70C223D4B002101208C3B0A
:1033C000984717E7857663E7857067E760690026A9
:1033D000F930B8476369384F1946FF330A33363F2F
:1033E0001846F931249AB847606910230146A03184
:1033F00006E017183246FF320A32761CBD54F6B288
:103400004A7C9F1AB742F4DC304900208847606943
:103410004179490849004171ECE6F0B50446C078AD
:1034200085B0072807D2224B0622002101208C3BC1
:10343000984705B0F0BD1D4E01217069CB22115493
:10344000002506222146CC3002F0C1FF112071690F
:1034500040010818A0314E7CC17E827F437F0492D8
:103460000A07D20F009203934A07CF06D30FFF0F2C
:1034700002968A0701970E4E920F817E407E643E2F
:10348000B047A07810260007002843DA074A112128
:10349000506949014718FB7E19073BD50121CA2213
:1034A00011545A0715D4A278520711E09800002051
:1034B0005DA100004D250000B3AA000055A9000041
:1034C000FFAB000040420F0031540000F733000012
:1034D0000ED57B7E22789D005B19FE4D5B19D55C75
:1034E000882D02D0102D03D005E0FB4A117102E0B7
:1034F0004179314341714179C90634D50B21C90164
:103500004018C07D01282ED16421F54BF34A0520D7
:10351000984728E0F04F00217869CA221154112100
:1035200049014118CA7E520702D4A278520709D530
:10353000497E22788B00C918E64B193BC918555CA7
:10354000102D02D1417931434171E44AE44B943A60
:10355000E449002098476079C00704D078690322C5
:10356000817911438171607980070BD5DA48112187
:10357000406949014118897F890703D581790C2267
:1035800011438171207980070BD5D34811214069FF
:1035900049014118497F890703D5417980221143A8
:1035A0004171CD4841690846A0304674E278102A3E
:1035B00000D24274487901221043CB4C4871202D2F
:1035C00008D0402D00D034E700231A4640210020C7
:1035D000A0472EE700231A462021F8E770B5BE4C1D
:1035E0000D466369002825D0A0690C218171194618
:1035F000FF3120225A31C01D02F0E9FE6169A06945
:10360000FF31202227307A3102F0E1FE0621B74A4D
:10361000412090470B216069C9014118C97D0029EB
:1036200007D14079C00602D42079012801D1AB48E6
:10363000804770BD1846FF302022FA3002F0C7FEE6
:103640002022AB4B6069A9180E46C01802F0BFFEDD
:103650006369A84C1846FF309A30FF33324629463A
:10366000BA33A04729460120FFF7B8FF70BDF0B577
:10367000994C0646606985B04179C9072AD0FF3068
:1036800010210A3002F000FF6069320AC11DF931D1
:103690004E728A72320CCA72320E0A73CA21095CE7
:1036A0000125012918D00346064601460933E936AB
:1036B0005A1E713101AF4EC7491E0091C933C33242
:1036C00089318D4EFF300A30B0476069C1790229D7
:1036D0002FD00BE00020ACE6206A00210660E269F2
:1036E000802311706269D179022904D06069C1799F
:1036F00000292AD02AE000682946814300D181238D
:10370000E168002040314E7D1718E037401CC0B200
:103710007E761028F7D36069774E0146E93102467C
:103720000091FF31F9321131E436FF305A30B047A1
:10373000CBE771497A39E93088476069CA21095C69
:10374000012902D00021C17100E0C571012070E69D
:10375000F8B5614C694F6169CA19517B127B090246
:103760001143009102F0ADFE0646A0780D460028F8
:1037700026D0634908208847002804D060490220E9
:10378000884700280CD06069C119487B097B00027A
:103790000843C01C704384B2002D1AD0601916E093
:1037A0006069C119487B0A7B0102A06C1143C21CED
:1037B000891871438CB2002D0BD02818001906E02F
:1037C0000098C01C704384B2002D02D06018C01C49
:1037D00084B24C488047A04201D20020F8BD0120AD
:1037E000F8BD70B50546D01D14460E4680B2FFF7F1
:1037F000AFFF002810D038481B2180692A0A817148
:10380000C571027222463146093002F0E0FDE41C27
:10381000364AA0B20421904770BD70B50546D01D50
:1038200014460E4680B2FFF793FF002810D02A48B6
:103830001D2180692A0A8171C571027222463146B2
:10384000093002F0C4FDE41C284AA0B204219047CC
:1038500070BDF7B5204E294970690024091F25461F
:10386000401802F015FEB2691121917183784678F3
:103870001B023343009E421C0146B34258D3019EB3
:10388000B34255D80E79CF783302029E3B43B34200
:103890004ED10B78172B55D00F4E0623B669F37116
:1038A000577813783F021F43062363439E193772EC
:1038B0003F0A77725679177936023E43064FBF6941
:1038C000DF19BE72360AFE72034ECF79B6699E19B1
:1038D000377319E0A3880010980000205DA1000054
:1038E000D3330000B80B000031540000ED7F00001E
:1038F00019020000EF2A0000CFA9000061030000B8
:103900006994000043600000F74F0E7ABF69AD1D57
:10391000DB195E73F44BF54E5B69ADB29E19737C97
:10392000367C1B02641C3343AE1DE4B2B34225D384
:10393000537916791A02EE4B32439A421ED001781F
:10394000081893E7002C1BD1E74814238069C91D90
:10395000C371547816782302334303721B0A4372EF
:10396000537914791A0222438272120AC272102207
:103970000C3002F02CFD1435ADB201E0002C05D066
:10398000AD1CDC4AA8B204219047FEBD0A22DA4BE6
:10399000102000999847FEBDF7B5D34ED7497069FE
:1039A00000252C46401802F073FDB16909228A7186
:1039B000837846781B023343009E421C0146B34283
:1039C00032D3019EB3422FD80E79CF783302029EB4
:1039D0003B43B34228D10B78172B2FD0C24E042380
:1039E000B669241DF371577813783F021F43AB006B
:1039F0009E1937723F0A7772BB4ECF79B669A4B26F
:103A00009E19B772B84F0E7ABF696D1CDB19DE7252
:103A1000B54BB64E5B69EDB29E19737C367C1B02CA
:103A20003343261DB3421ED3537916791A02B04B85
:103A300032439A4217D001780818B9E7002D14D103
:103A4000A94812228069C2718B784D781A022A43E4
:103A50000272120A427210220A30C91D02F0B7FC2B
:103A60001234A4B201E0002D05D0A41CA14AA0B2DA
:103A700004219047FEBD0A229F4B082000999847D9
:103A8000FEBDF7B5984E9D497069002508312C465A
:103A9000401802F0FDFCB2690921917183784678E3
:103AA0001B023343009E421C0146B34242D3019E97
:103AB000B3423FD80E79CF783302029E3B43B342E4
:103AC00038D10B78182B3FD0874E0723B669E41DF9
:103AD000F371577813783F021F43EB005B1B9E196D
:103AE00037723F0A7772804E4F79B669A4B29E1939
:103AF000B772CE798F7936023E437B4F6D1CBF691A
:103B0000EDB2DF19FE72360A3E73774E0F7AB66950
:103B10009E197773744F4E7ABF69DB199E73724B8F
:103B2000724E5B699E19737C367C1B023343E61D23
:103B3000B34227D3537816781A026D4B32439A4218
:103B400020D001780818A9E7002D1DD1664815225C
:103B50008069C2718A784B7812021A430272120A83
:103B600042724A798272CA798B7912021A43C272FE
:103B7000120A027310220D30083102F028FC1534AD
:103B8000A4B201E0002D05D0A41C5A4AA0B2042121
:103B90009047FEBD0A22584B082000999847FEBD69
:103BA000F7B5514E55498AB0706908310990002522
:103BB000401802F06DFC0446B6690920B071072078
:103BC000F07127782046182F77D0417A207A0902A1
:103BD0000143A37860781B0203430A9883426BD3A6
:103BE0000B98834268D80C98814265D14349099863
:103BF0000C31401802F04CFC0190E079A1790002F0
:103C000008430C212F464F43B9190872000A487225
:103C100035480021806A3A4B0170E079A2790002B0
:103C200010436A469081D1810A3202A9984708223E
:103C3000314ED101002002ABA436B0472A48806A39
:103C4000007801283CD0E079A379294A0102194380
:103C5000019EF078B3780002184388426DD1307924
:103C6000400604D5244820388047002836D03079D3
:103C7000810606D5C0062049C00E103988470028A5
:103C80002ED0E079A179000208431D4A0221343A7E
:103C90009047002836D030793178C00970783BD011
:103CA000000208431538C4B20F48314680692246E5
:103CB0003818153139E000E052E0417D207D86E77B
:103CC000094CE06A216B0678A069324638180A3040
:103CD00002F07DFBA069B61CC67137E0052200E04A
:103CE0000C220A9913E000009800002063050000F0
:103CF000FFFF0000ED7F00008D5300005D0300001A
:103D0000F93E0000A0786278010211430222F94BCB
:103D1000082098470DB0F0BD00020843C01FC4B290
:103D2000F548224680693818F11D0A3002F04FFB31
:103D3000F148A41C8069C47108E0904206D07078F4
:103D40003378000218438019019081E76D1C0CD074
:103D5000E94804218069E94AC079801C9047D9E785
:103D6000E748834201D03C192BE70A22B9E710B596
:103D7000062912D0417C037C0A0241781A430B02C7
:103D80000478C17880780902234301438B4207D924
:103D9000012219460820D74B24E041790379EBE74B
:103DA0000520C002824202D0401C824203D1184644
:103DB000FFF7F2FD10BDD348824203D11846CD4B28
:103DC00018330FE0CF48401C824203D11846FFF75A
:103DD00058FE10BD100A2928184602D0FFF7E0FE51
:103DE00010BDC94B984710BDF0B5C34C0746A0782D
:103DF00085B00D4600287DD0C44E0820B04700286D
:103E000079D00220B047002875D1EFF310800490DC
:103E100072B6A06C2818801C86B2BD48804701008D
:103E2000BC4803D0E168C978C90708D0804700289A
:103E300075D1B74810308047761CB0426FD3AE487A
:103E4000AD49801D0770B44800900822623101A876
:103E500002F0BDFA63690022B2330299019801F0C1
:103E6000C1FD022F02D0012F0BD016E00120E0711E
:103E7000206D04224119A048891C4C3002F0A7FA99
:103E80000BE0E079012806D19B49206D04224C31DA
:103E9000801C02F09CFA0020E071206DA16C9F4E06
:103EA000801C0291039601950090934A60692389D2
:103EB000921D9949BA3001F0E0FCA06C711C2A18DF
:103EC000206D801C02F083FA8B4C6234201D02F0BE
:103ED000DFFA2378E2781946637812061B02194349
:103EE000A378C0091B04194311432279C00152066B
:103EF000520E01E012E012E0491C00235A41520622
:103F0000520E104321700A0A62700A0CA270090E48
:103F1000E1702071049880F31088012017E40020DC
:103F200015E47548C1680A466032907E927EC007EB
:103F3000C00FD207D20F603105E0887E8A7EC007AD
:103F4000C00FD207D20F9042F7D1704710B56A4820
:103F50004069017CC27B08021043072807D8FFF79D
:103F6000E0FF002804D0FFF7DCFF0128FBD010BDE4
:103F7000FFF7D7FF0028FBD0FFF7D3FF0128FBD0C6
:103F800010BD10B55C48C1680846223042790379FB
:103F900012021A43624B9A4214D9DC43121903717C
:103FA0001B0A4371FF2320310B72FA2A0AD95101EF
:103FB0005C4BD200C91889187D221201891A01753B
:103FC000090A417510BDF0B400285BD048780A7822
:103FD00007021743484A15269469534DE01C631C99
:103FE0001B2FA67041D9CC788E78240234431C71E3
:103FF000240A5C71CC798E79240234431C72240A21
:104000005C7293780C78002B4B7805D01B0223430D
:10401000F92B12D9F92104E01B022343302B0CD9D0
:10402000302101700B0A437001710B0A4371506912
:1040300040190173090A417312E05269521913734E
:104040001B0A53734A780B7812021A430270120A41
:1040500042704A790B79110219430171090A4171C1
:10406000F0BC0921314A032010471B2101700024B4
:104070004470F3241C7100265E71017146711C723C
:104080005E72D4E7F0BC7047F0B4002850D01A4AF2
:1040900014209369987048780D7804022C43DC70E2
:1040A000240A1C71CC788D7824022C435C71240A7C
:1040B0009C714C790D7924022C43DC71D81C240AA4
:1040C0004471CC798D7924022C435C72240A9C7251
:1040D0009578154C5B1C002D42D04D790E792D0240
:1040E0003543F92D28D9F92101710023437101705D
:1040F000437041E08D53000098000020ED7F0000E8
:10410000FFFF0000022800008742000069940000C1
:10411000ED340000DD340000BC160020D017002074
:104120003E060000C0E0FFFF61030000958C000028
:10413000F0BC0022012046E705712D0A4571C878C0
:104140008D78000228431871000A5871487909795E
:1041500000020843516909190873000A487324E0F2
:104160004B780D781B022B43302B0BD9302101707B
:104170000023437001714371506900190173090AEA
:10418000417312E05269121913731B0A53734A7870
:104190000B7812021A430270120A42704A790B79A4
:1041A000110219430171090A4171F0BC0921FE4A4B
:1041B0000320104710B507E0435C845C4454491C5D
:1041C0008354521EC9B2D2B29142F5D310BDF8B594
:1041D000F64D0520A969F44A887001210320904713
:1041E000A87800282DD068690F220021BA30FFF787
:1041F000E1FF686907220021B230FFF7DBFF2E469E
:104200006236301D02F044F9002434707470C00925
:10421000B470C001F470307146062F465A37760EDE
:10422000381D02F035F93C70210A7970210CC00963
:10423000B970C001210E3043F9703871A878002898
:1042400006D1696902220846D94BBA30B231984783
:104250007D214901D84BD74A03209847D5490820EA
:1042600048398847F8BDF8B50546D449082088473D
:10427000CE4C0B206169C0010818807E01282FD127
:104280000026374601E0042E04D260698019A03070
:10429000877406E0C6480A38804761698919A031E9
:1042A0008874761CF6B2082EEDD3C14F00260A3F63
:1042B00001E0082E01D2002000E0B84761698919A9
:1042C000A031761CF6B28876102EF2D30026B847BD
:1042D00061698919E031761CF6B24876102EF6D362
:1042E0000B206169C0010918487E042802D0052806
:1042F0001DD01EE0AE4F00260A3FB84761698919FC
:10430000FF318131761CF6B24876202EF5D36069F4
:10431000AB4B0146FF31A1310A7EFF305206520EEF
:104320000A760A46273A47399A30984701E008202A
:1043300048766169A0690E46042787700822C01C70
:10434000C231B63602F043F8A069042231460B3080
:1043500002F03DF80D21944A0320904760692946F8
:1043600008220A31BA3002F032F860692946042284
:104370001231B23002F02BF82069C078032860694E
:1043800004D0CA21095C012909D018E0817D427D51
:10439000080210432A46083229468A4B2CE041790C
:1043A000CA070CD08279520709D4C90907D109215B
:1043B000890140180078012801D1616A08702A7AC1
:1043C000814E002A02D1687A002817D06069014620
:1043D0006030C37D9A420AD16A7A007E824206D159
:1043E00008222846793101F0C5FF002825D0714BFD
:1043F0000622002101200A339847F8BD6069CA21CE
:10440000095C01290BD00246BA32FF3011460A304E
:10441000B0476069022241791143417112E041794C
:10442000024639434171BA3211468130B047606962
:104430006030C07B012802D004E06069EFE75F498B
:1044400002208847FFF7C3FEF8BDF8B5574CA078A7
:10445000002804D101220021554B08469847A16944
:10446000062088700121504A03209047A078002838
:104470000CD0564861690818417B027B0902114340
:10448000F92903D9F9210173002141736069484D6D
:10449000417908228B070A3D0027002B25DA1143BA
:1044A00041710026A8476169891980314870A84781
:1044B00061698A1991218854A032761CF6B257702E
:1044C000102EEFD30026A847616989196031761C48
:1044D000F6B24876082EF6D3A84761696031C875F0
:1044E000A84761696031087614E0CA231B5C012B80
:1044F00010D183795B070DD5114341710026A84780
:1045000061698A1991218854A032761CF6B25770DD
:10451000102EF4D32849032024318847274D082042
:10452000103DA847002803D0244908200A318847B5
:104530000220A847012815D10B216069C901411843
:10454000497D01290ED12D2252018018417900297F
:1045500009D0012962D0022904D18179164B1C4A65
:1045600007209847F8BD00254AE00A226A435118FF
:104570000A18507C167C0302164833430380104B04
:10458000C33B4380114BDF3BCB18597D1B7D090298
:1045900019438180022181710321C1710772117653
:1045A00000235376038817E0958C000098000020C4
:1045B00057250000C1940000D3330000558500004A
:1045C000C5290000996F0000ABAA0000610300003C
:1045D000FB980000D4180020F94AFA4E1380808816
:1045E00050809180134601210622C9030020B04764
:1045F0000121C902F44BF54A0020B0476D1CEDB211
:1046000005206169C0010A18D27BAA42ADD80B20EF
:1046100062690121C00110180175F8BDE1688B784D
:104620009B06DB0FC3718878DF23184088706069B0
:10463000801881790172F8BD07E7F8B50446017862
:10464000401C002910D0022976D003290BD14178D3
:1046500002780802104310286DD0082803D1201DCD
:10466000E178FFF784FBF8BD417802780802104337
:10467000062838D0032839D014283BD015283ED03E
:10468000012842D00028EED1CD48251D5438C168FC
:1046900022314A7E0B7E1102194300914069E37A70
:1046A000017DC27C0E021643227B002711021943B2
:1046B000027CC37B1002C9001843814200D8012745
:1046C000FFF744FCC24928468847002820D0FFF75E
:1046D00058FCBB485438C06822304179027909023D
:1046E000114319D01DE0FFF7B0FEF8BD201DFFF704
:1046F000BAFDF8BD211D0020FFF7C6FCF8BD002162
:10470000221D0846FFF75FFCF8BDFFF71FFCF8BD50
:10471000B0492820884709E0009989000175090AF5
:104720004175002F02D00673310A4173201DFEF738
:10473000C0FAF8BD00E01CE041780278080210439E
:1047400001280AD003280CD004280ED00C28F0D160
:10475000211D0020FEF742FFEBE7201DFEF75DFE66
:10476000E7E7201DFEF7AAFCE3E7201DFEF70FFD9B
:10477000DFE7E078231D062814D0587C197C02025C
:104780000A435878197800020843D9789B780902BF
:104790001943884209D901468A4B01221020A43BC3
:1047A0009847C6E758791979E9E7FFF752F8C0E763
:1047B00010B50178042905D1827843781102194394
:1047C000022902D0FFF739FF10BD41790079FFF7C8
:1047D0000BFB0028F8D0FBF743FD10BD30B587B0C8
:1047E0007D480090801E0190002468460481448129
:1047F00006210182418227218181C1810225858292
:10480000C482764806907649684688476C48543892
:10481000416B0A682A430A60816B0A682A430A606E
:10482000C4700471047007B030BD70B5644C0D469F
:10483000543C002828D06B4DA8470028FCD06A487B
:1048400080476A4880476749012008398847A0693E
:10485000022181701321C1700221654A0320904713
:104860006449042088476069017DC27C08021043C6
:104870000A2101F026FE0A21401E41435A4B012025
:104880005D4AEE3B984770BDE06820214170417859
:104890008906FCD555480C3880474E49287888470A
:1048A00070BD544910B5012010398847002804D044
:1048B00000210120FFF7B9FF10BD464913208847AA
:1048C00010BDFEB500216846017001710D46012141
:1048D0004A4E7F20B047494C0A206946223CA047F7
:1048E0006846007801090901684601700220014309
:1048F0000A20B04701A90A20A0476846007940076E
:1049000004D56D1CEDB2FA2DF4D108E0FA2D06D0D5
:1049100001A90A20A047684600794007F8D56846F3
:1049200001780A20B0470020401C80B2FA28FBD34F
:1049300001A90A20A04768460079000701D4012098
:10494000FEBD0020FEBD70B505460024FFF7B9FF8F
:10495000012817D10020FDF7BDFD29480169C908CC
:10496000C9000161072141610021816101690122C2
:10497000114301610169C903FCD5002D01D1FDF787
:10498000EBFD0124204670BD0D4910B5543949692D
:104990001A4C8870002835D0012841D002280ED149
:1049A00000217F20A04700210320A04720210420D0
:1049B000A04702217F20A04703210020A04710BD6F
:1049C000EC00002031540000D41800200702000041
:1049D000E52000006F9000001B800100B14700102F
:1049E000936000002B1B0000C1340000FF25000075
:1049F000958C0000558500008D940000A7290000CB
:104A000000E000E000217F20A04700210320A04714
:104A100020210420A04702217F20A0470021CCE7CD
:104A200000217F20A0471F210320A04702217F20D3
:104A3000A04701210020A04700217F20A0473F215F
:104A40000420BBE710B5012802D002280ED01BE0DD
:104A5000487A0C7A00022043C00715D048790979BA
:104A6000000208431946FEF7BCFEA8E7487A0C7A14
:104A700000022043800707D54879097900020843DE
:104A80001946FEF7CAFE9AE7002098E770B5F84C81
:104A9000E068817EFD22114081766069F54D837F5B
:104AA000427F203041780078090201430120A84765
:104AB000E06881784906C90F61718178BF22114091
:104AC000817070BD10B5EA4CE068817E022211430E
:104AD0008176E84834308047E0688178BF22114011
:104AE0006279D207520E1143817068E7F0B517461C
:104AF000DF4A0446D0681E460D46C37885B00021C3
:104B00001B0702D5002005B0F0BD00BF491C89B2CB
:104B10006429FAD34030417C8907FCD4D4484169E8
:104B20002D2040010818C07A012804D1FF21053149
:104B3000204601F0A9FCA00707D1CD482D214269EC
:104B400049015118897A01291DD0C94B0020D96823
:104B5000C0310A792254401C80B20228F9D3C448DB
:104B60008078002808D0C44908208847002803D04E
:104B7000BF482178801D01702078800660782880E9
:104B800034D5012033E0C1680846E030427B037B26
:104B900012021A43837B1B041A43920C9204A30350
:104BA0009B0B1A430273130A4373120C827348223D
:104BB000525CC37B5206520EDB09DB011343C37305
:104BC000027A520852000272027A02231A430272D7
:104BD000E031087A8007FCD420788006607828804D
:104BE00001D5012000E00020387012E00020A0492B
:104BF0003870CA680020C032A41C03E01379235423
:104C0000401C80B22B888342F8D8C8680122C0308B
:104C100042722888964F801C2880B87800280AD0D5
:104C2000954908208847002853D093490220884797
:104C3000002809D04DE0F8684030417C890748D40D
:104C4000407CC007C00F45E02A8821468B48921E51
:104C500001F0BDFB8A488649009008225A3101A81C
:104C600001F0B5FB7B690122B2330299019800F093
:104C7000B9FE7F48801D01788907890F0170288857
:104C8000BA6C7E490292801E00910190784A786940
:104C90003B89921D7A49BA3000F074FEC0B2307080
:104CA00001280ED128887549BA6C009101AB801E8D
:104CB00015C36F4A78693B89921D7149BA3000F07B
:104CC00015FE2888B96C401A2880801EA41E6070CA
:104CD00001E001203070012015E7F0B5684800269A
:104CE00087B0183005906846068206720673002762
:104CF0006449012088470028634803AB02AA04A93D
:104D00000FD0FFF7F3FE00280FD15948C068C078D4
:104D1000C0065FD502AA04A95B4800F052FB012738
:104D200003E05A4CA047002854D0514D2869C2785E
:104D3000032A03D1E86B00780128D4D06846007AB2
:104D4000012801D1002F07D04F4C2078864600075C
:104D5000000F052840D041E0474C0820A04700281C
:104D60002DD00220A047002829D16846007B0028CA
:104D70002DD0A878002822D03D4C5A34201D01F0B7
:104D800087FB2378C1091A466378E0781B021A432F
:104D9000A37800061B041A4302432079C901400688
:104DA000400E521C002358414006400E0143227021
:104DB000100A6070100CA070100EE070217168462F
:104DC000008A334A801EC1B22F4890478BE7314991
:104DD0003D20884707B0F0BD002F03D0714609077A
:104DE00019D06AE02C49A01C8847FFF7CAF82B4964
:104DF0000222087F104308771E487A3880472078BF
:104E000070214006C20F68690A540622A11C713045
:104E100001F0DDFA67E76969CB7D022B10D0002332
:104E200060314F7B8C463946012F00D000273B4331
:104E300043D0032A06D06046007A012834D05DE0D2
:104E40000123EDE7059900916946098A144F083955
:104E5000CBB271464906C90FA21CB84768696030D9
:104E6000007A0128B2D10F49A01C88473BE7000017
:104E700098000020D91B000069940000D017002082
:104E8000BC16002045850000CC160020B12700008C
:104E90003F9C00006F900000CB1D000020000150DF
:104EA000CB6F0000155C0000012903D0FE49A01C57
:104EB000884723E0A01CFD49FAE7032886D0042890
:104EC00084D16969CB7D022B0AD000236031497BF4
:104ED000012900D000210B439CD0032A02D00DE011
:104EE0000123F3E7059900916946098AF04D891F6E
:104EF000CBB271464906C90FA21CA847059800907D
:104F000001966846008AA21C0838C3B22078E64C95
:104F100041060007C90F000F6834A047E3E670B5EB
:104F2000FFB0E44985B00420884700280BD0E14950
:104F300004201A318847E0488047E0491620884716
:104F40007FB005B070BDDE488047002500280FD037
:104F5000DC4C606941790A075ED58279D3071DD0A0
:104F6000D9498130884760698179490849003AE028
:104F700068460580D24DD04E86359236D34C09E036
:104F8000694601A8A8470028DAD068460088C1B25F
:104F900001A8B047A0470028F2D0D1E7930709D570
:104FA000C94A014679311C32773090476069FD2249
:104FB000817908E0530708D5C349603191308847AB
:104FC0006069FB22817911400DE01207F725002A64
:104FD0000BDA027A01461046BB4A09314232904749
:104FE0006069817929408171AAE7294041710346AE
:104FF00077333A221021B64D0020A8470921606975
:1050000089014118097801299AD14079C00997D1BD
:10501000616A0120087093E7E16B097800298FD15C
:10502000216C097801298BD1817D427D08021043D2
:10503000A84A01219047206C057081E7F0B585B042
:105040000026A04C00960196029603966069017AAC
:1050500001292ED1817B890901292AD11022694693
:10506000913001F087F9002823D0002504AF924841
:10507000C238804778556D1CEDB2032DF7D36946D1
:10508000887C40214006400E084369468874606968
:105090000621093001F0F8F96069032204A90C30F7
:1050A00001F095F962698C4B1046913004A90932E0
:1050B0009847267127E570B5824EF06844784470B1
:1050C000834DE00706D0FFF72AFF002301211A468F
:1050D0000846A847A00706D5FFF7FFFD00230221D9
:1050E0001A460120A847600706D57C488047002360
:1050F00004211A460120A847200707D57748BC306D
:105100008047002308211A460120A847E00610D551
:10511000F0682030407D6949400701D53E2000E01D
:1051200008208847002310211A460120A847FFF7CE
:1051300085FFA0060CD500F072F9002320211A4645
:105140000120A8470023FF211A4601311846A8472D
:10515000600611D5574901208847002807D070699B
:105160006030807B012802D1F16807204875002358
:1051700040211A460120A847E00904D000238021DD
:105180001A460120A84770BD38B5554C0120A047EC
:105190000021544D7F20A847524A3B206946223ABD
:1051A000904768460178FB200140684601703B202B
:1051B000A8474048943080470020A04738BD4A495E
:1051C00009788906890F017070473E494978017056
:1051D0007047F8B5444E434C054603280DD30021D3
:1051E0007F20A047D8211120A0471D213A20A047A9
:1051F0007078FB21084070700CE07078042108433F
:10520000707000217F20A047D8211120A0471921CC
:105210003A20A047334A3F206946223A90476946E0
:1052200008782B008006800E087003F0DAF8060A72
:1052300006040A06040A802100E04021084369466A
:10524000087009783F20A0471E4840694570F8BDA6
:1052500010B50446FFF7BDFF1A48447005E470B569
:10526000184D01210903214B00206A6C98472869D9
:105270000446093001F00CF9696C40180578012DDD
:1052800001D9002070BDE078002831D020462D30B3
:1052900001F0FEF806462046313001F0F9F80246EA
:1052A000964236D2911B2BE0155C0000995D000000
:1052B000CB6F0000458500000F2600006F900000B6
:1052C000ED340000980000207BA60000371B000092
:1052D000315400004F6E000095A90000C18D000000
:1052E000692D0000A7290000001000508F16000053
:1052F0002046253001F0CCF8064620462930CCE780
:10530000002D08D0304609036F4A090E904701204E
:1053100070BDB11AF4E71046F5E7F8B56B4C2D21D6
:10532000E268656949016E18134611462033603101
:1053300001281FD16F1CBC46A87C6F7C000238433B
:1053400018D063482C18607E247E0002204322324D
:105350001075000A50756046427C047C10022043A0
:105360001873000A5873C87D10221043C8750120B5
:105370007072F8BD2D27707A7F010128F9D1307B3A
:10538000002500280CD01D73280A5873C87D1023EF
:105390001843C87575729079022108439071F8BD61
:1053A00000F05FF8E068014620310D732A0A4A7365
:1053B0006030C17D10221143C1756069C01945720A
:1053C000F8BD70B5414C0023E568C0352E7DC6544C
:1053D0005B1CDBB2022BF9D3037801259B06002B63
:1053E00043780B8001DA157001E000231370E36845
:1053F0000022801CC03303E01E7D8654521CD2B2B2
:105400000E889642F8D8B0B2801C0880E068D92196
:105410000D540179022211430171012070BD10B5B4
:105420002C4901208847002815D02848416960315F
:105430004A7B012A05D1C2686032137808242343CD
:105440001370897B012906D1C068017C4022114379
:10545000017400214175204880471F48C4308047AF
:10546000FCE670B5194CE0682030417802780D02F6
:10547000417E1543027E0E021643AE4208D8616992
:105480008A7C4B7C1102194349190176090A41763D
:10549000FEF747FD00280DD0FEF743FD0128FBD0A5
:1054A000AE4205D8E0682030817802221143817035
:1054B000012070BDFEF735FD0028FBD0FEF731FD61
:1054C0000128FBD0ECE700009F18000098000020A6
:1054D0008305000045850000498F0000F8B50F46A0
:1054E000064615461C461021184600F0CDFF012146
:1054F0006846017021700D223946601C00F067FF7C
:105500002902280A0143684601800078A073684692
:105510004078E0733146204600F0F7FEF8BDFFB555
:1055200089B01D460F46139E00F07BFA00240294BA
:1055300003940494684605940470002D01D0012062
:1055400000E0002081011498801EC20F1018401046
:10555000C00040186946401C08700872394602AF06
:105560000D22781C00F033FFB0B20202000A0243A1
:1055700069460A80CA8202A9099800F058FA002DEB
:105580003DD0A9B20802090A084302940394049486
:1055900069460594088008810E2D01D90E2200E08D
:1055A0002A46B81C0B9900F012FF0E2D01D90E27C8
:1055B00000E02F460E2D1ED90E202D1A099802A9A3
:1055C0001BD000F034FA0294039404940594102D37
:1055D00001D9102200E02A460B98C11902A800F058
:1055E000F6FE102D01D9102000E02846C719102D15
:1055F00001D91020E1E72846DFE700F018FA002E75
:1056000024D00294039404940025059402940394F6
:1056100004940594102E01D9102200E0324612980D
:10562000411902A800F0D3FE102E01D9102000E08D
:1056300030464519102E01D9102000E03046361AA8
:1056400002A9099800F0F3F9002EDFD102A9149AFB
:10565000159800F0BCFE14980DB0F0BDFFB589B0F0
:105660001C46139D00F0DDF9002602960396049671
:10567000684605960670002C01D0012000E000204D
:1056800081011498801EC20F10184010C0004018ED
:105690006A46401C1070107202A80D2201300A994F
:1056A00000F095FEA8B20102000A01436A4611808B
:1056B000D18202A9099800F0BAF9002C3ED0A0B21C
:1056C0000102000A01430296039604966846059675
:1056D000018001810E2C01D90E2200E0224602A891
:1056E00002300B9900F073FE0E2C01D90E2700E05A
:1056F00027460E2C1ED90E20241A099802A91BD069
:1057000000F095F90296039604960596102C01D99F
:10571000102200E022460B98C11902A800F057FEA3
:10572000102C01D9102000E02046C719102C01D9F7
:105730001020E1E72046DFE700F079F9002D32D0B4
:1057400000200290039004902C4606460127059005
:10575000BAB202AB0A990998FFF7C0FE00203118CF
:10576000A94203D3002102AA115406E002AA135C45
:10577000129A515C4B4002A90B54401C1028EED3E6
:105780007F1C102C01D9102000E020468619102C17
:1057900001D9102000E02046241A02A9099800F03F
:1057A00046F9002CD4D102A9149A159800F00FFEE6
:1057B000149851E7FFB5002585B01F461C46012609
:1057C0002BE06B46324606990598FFF787FE0020CE
:1057D0002918B94209D2079B6A46125C595C4A40B3
:1057E00069460A54401C1028F2DB102C01D9102203
:1057F00000E022460E986946401900F0E8FD102CA2
:1058000001D9102000E020464519102C01D91020A4
:1058100000E02046241A761CB6B2002CD1D12846CE
:1058200009B0F0BDFFB585B000261C460B46074603
:105830000096019602960121684603960174017054
:105840000D2219466D46401C00F0C1FD68460682D7
:10585000C681394600F059FD002005E0079A295C11
:10586000125C51402954401CA042F7DB2246694695
:105870000E9800F0ACFD2046D2E7FFB589B0159D2B
:105880001C461A462846149F139E0B9900F09FFD54
:1058900004A912986A460391C1C209A807C8234601
:1058A000FFF73DFE002801DBB84202D00020C043D4
:1058B000D2E6281900903346129A0A990998FFF700
:1058C00079FF002802DA0120C043C5E6A419601957
:1058D00000903B4604AA0A990998FFF7A3FF002805
:1058E00002DA0220C043B7E62018B5E6FFB58DB056
:1058F00017ACA1CCA84203D20520C04311B0F0BD23
:10590000461B169804A9009132182B460E990D9843
:10591000FFF788FF040001D4AC4202D00020C0434E
:10592000ECE733460097169A0E990D98FFF742FF61
:1059300006000FD008A803900097019602950DA8C5
:105940000FC8FFF7ECFD002801DBA84205D00220BC
:10595000C043D3E70120C043D0E7844202D00320F4
:10596000C043CBE7002004A908AA07E00B5C155C44
:10597000AB4202D00420C043C0E7401CA042F5D394
:105980003046BBE7FFB58DB0189D179804A9169F48
:10599000461B0091F2192B460E990D98FFF742FF16
:1059A000040018D4AC4216D108A8039000970196C1
:1059B00002950DA80FC8FFF751FE00280BDBA84287
:1059C00009D1844207D1002004A908AA06E00B5C93
:1059D000155CAB4201D0002090E7401CA042F6DBF2
:1059E00001208BE770B54906490E049C0E06050A96
:1059F000354320706570050C0E043543A5700D020B
:105A0000000E2843E070D0010143217100200721DE
:105A10000A1A2518401C9A5CC0B26A710828F7D38C
:105A200070BD10B510210C4800F02EFD10BD70B5F2
:105A30000C460146084A0020235C155C6B40235449
:105A4000401C1028F8DB204600F05FFC10222146A5
:105A5000014800F0BCFC70BDDB1A0020FCB5002240
:105A60008B5C8354521C92B2102AF9D301231D017E
:105A70002A18114620390E7FFF4CB6464E7F0F7C08
:105A8000A65D7E40FD4FFF5C7E4046558F7F0197AF
:105A9000E65D4F7C7E405670B446CE7F0096A75D93
:105AA0008E7C774097707646A45DCE7C7440D4702F
:105AB0000E7D455D6E401671B6464D7D664675405D
:105AC0005571AC468D7D76467D409571CF7D6740A2
:105AD000D7710C7E74401472A6464C7E66467440A4
:105AE00054728E7EA4466E409672CD7E74467D4082
:105AF000D5720F7F67401773497F644661405173C9
:105B0000019F77409773009E5B1C6E409BB2D673DB
:105B10000B2BACD3FCBDF0B591B00D46044600276D
:105B200039012278685C49194240D348825C22706E
:105B300023790E797340C35C2371237A0E7A734004
:105B4000C35C2372237B0E7B7340C35C2373637837
:105B50004E7873409C4663794E797340C35C6370A2
:105B60000593637A4E7A7340C35C6371637B4E7BAB
:105B70007340C35C63726346C35C6373A3788E78BF
:105B800073409E46A6798B795E40B446A37A8E7A9E
:105B90005E40835DA3700493A37B8E7B5E40865D35
:105BA000A6717346C35CA3726646835DA373E37BF1
:105BB000CE7B73409C46E37ACE7A7340C35CE3733A
:105BC000E379CE797340C35CE372E378C9784B40E4
:105BD000C15CE1716346C15CE170059B10465840B1
:105BE000049B06464B405E40029200F0A7FB2178E2
:105BF0007040414021706078A178484000F09EFBE1
:105C00006178704041406170A078E178484000F0D0
:105C100095FBA17870404140A170E078029A504015
:105C200000F08CFBE17870404140E17020796279AE
:105C30000146A379E6795040024673405840064633
:105C40001046029100F07AFB2279014671404A40E9
:105C500022716079A179484000F070FB62790146B9
:105C600071404A406271A079E179484000F066FBDA
:105C7000A279014671404A40A271E07902994840F8
:105C800000F05CFBE279014671404A40E271207A03
:105C9000617A0246A37AE67A48400146734058404A
:105CA00006460846029200F049FB227A01467140FE
:105CB0004A402272607AA17A484000F03FFB627A43
:105CC000014671404A406272A07AE17A484000F091
:105CD00035FBA27A014671404A40A272E07A029AEC
:105CE000504000F02BFBE27A014671404A40E272DC
:105CF000207B627B0146A37BE67B504002467340DB
:105D0000584006461046029100F018FB227B0146DF
:105D100071404A402273607BA17B484000F00EFB3B
:105D2000627B014671404A406273A07BE17B484040
:105D300000F004FBA27B014671404A40A273E17B64
:105D40000298484000F0FAFAE27B014671404A406E
:105D50007F1CFFB2E273092F00D2E1E63A012178FD
:105D6000A85C41404448415C21701091511923794D
:105D70000A795340C75C27710D97227A0B7A5A40F3
:105D8000875C27720997227B0B7B5A40825C2273C7
:105D9000059262784B784E795A4063797340C75CBC
:105DA0006770637A4E7ABC467340C75C67710C9724
:105DB000637B4E7B7340C75C67720897825C62733B
:105DC0000492A3788A788E795340A2798F7A7240B0
:105DD000A67A7E40875DA7700E97A67B8F7B7E405C
:105DE000875DA7710B97C65CA672825CA273E77B86
:105DF0009646CA7BA03557400097E27ACB7A5A4044
:105E0000835CE373E279CF797A40825CE272E7786F
:105E1000C9784F40C15DE1710A91009FC05DE0709B
:105E20002F78109979402170697867464F406770E4
:105E3000A9780E9F4F40A770E9784840E070287914
:105E40000D9F4740277168790C9F47406771A8797B
:105E50000B9F4740A771E8790A994140E171287A80
:105E6000099F47402772687A089F47406772A87A5F
:105E70004640A672E87A03E0BC880010BC8A001095
:105E80004240E272287B059A42402273687B049A62
:105E900042406273A87B72464240A273E87B434053
:105EA000E37311B0F0BDF0B50446027808460D4624
:105EB000A030017891B04A402270637841784B401D
:105EC00063709E46A37881784B40A3700B93E37870
:105ED000C1784B40E37007932179037959402171D0
:105EE000677943795F406771A37986797340A371BD
:105EF0000993E379C6797340E3710693237A067AAE
:105F0000734023720E93637A467A734063720293EE
:105F1000A67A837A5E40A6720596E37AC67A7340C3
:105F2000E3720493237B067B734023730D93637B9F
:105F3000467B734063730193A67B837B5E40A673AD
:105F40000396E37BC07B4340E3739C46FA4890236F
:105F5000825CEB5C5A402270425C294690310B799E
:105F60005A4022710E9BC25C0B7A5A4022720D9BE2
:105F7000C25C0B7B5A402273019B4E7BC25C4B7808
:105F80005A40029BC35C73406373C35D4E7A734097
:105F900063727346C35C4E797340637162700B9B8E
:105FA0008E7BC25C8B7A8F785A40099BC35C7340AE
:105FB000059E865D7E40A670039E8F79865D7E403D
:105FC000A671A272A373079BC25CCB7B5A40069B4F
:105FD000C35CCE787340E370049BCE79C35C73409E
:105FE000E3716346C35CC97A4B40E372E2730826EF
:105FF0002078A178484000F0A1F900F09FF9074609
:106000006078E178484000F099F900F097F921783C
:1060100079402170617841406170A1787940A17028
:10602000E1784140E1702079A179484000F086F99B
:1060300000F084F907466079E179484000F07EF984
:1060400000F07CF901462079784020716079484061
:106050006071A0797840A071E0794840E071207AC1
:10606000A17A484000F06AF900F068F90746607AC2
:10607000E17A484000F062F900F060F9217A794055
:106080002172617A41406172A17A7940A172E17A0C
:106090004140E172207BA17B484000F04FF900F0C5
:1060A0004DF90746607BE17B484000F047F900F07E
:1060B00045F9217B79402173617B41406173A17B6C
:1060C0007940A173E17B4140E17320786278014619
:1060D000A378E778504002467B4058400746104678
:1060E000029100F02BF92278014679404A40227053
:1060F0006078A178484000F021F962780146794043
:106100004A406270A078E178484000F017F9A27820
:10611000014679404A40A270E0780299484000F078
:106120000DF9E278014679404A40E27020796279BF
:106130000146A379E779504002467B405840074624
:106140001046029100F0FAF82279014679404A405F
:1061500022716079A179484000F0F0F86279014637
:1061600079404A406271A079E179484000F0E6F850
:10617000A279014679404A40A271E07902994840EB
:1061800000F0DCF8E279014679404A40E271207A79
:10619000627A0146A37AE77A504002467B40584033
:1061A00007461046029100F0C9F8227A014679406C
:1061B0004A402272607AA17A484000F0BFF8627AC1
:1061C000014679404A406272A07AE17A484000F084
:1061D000B5F8A27A014679404A40A272E07A029963
:1061E000484000F0ABF8E27A014679404A40E2725A
:1061F000207B627B0146A37BE77B504002467B40CD
:10620000584007461046029100F098F8227B01465C
:1062100079404A402273607BA17B484000F08EF8B1
:10622000627B014679404A406273A07BE17B484033
:1062300000F084F8A27B014679404A40A273E17BDA
:106240000298484000F07AF80146E37B79404B40E1
:10625000E373217838489E46425C31016B5C4919F2
:106260005A40227022790B79825C5A402271227A3C
:106270000B7A825C5A402272227B0B7B825C5A40F2
:106280002273627B4B78825C4F7B5A40637AC35C9B
:106290007B40637363794F7AC35C7B40637263783E
:1062A0004F79C35C7B4063716270A2788F78835CA6
:1062B0008A7A5340A2799C46825C8B7B5A40A37AAF
:1062C000C35C7B40A370A37B8F79C35C7B40A371CD
:1062D0006346A372A273E278CB7B825C5A40E37977
:1062E000CF78C35C761E7B40E370E37ACF79C35CE2
:1062F00076B27B40E3717346C05CC97A4840E07275
:10630000E273002E00DB73E6CBE510B5ACB00446BB
:106310006846FFF7A3FB69462046FFF7FCFB2CB05D
:1063200010BD10B5ACB004466846FFF797FB694650
:106330002046FFF7B8FDF2E7BC890010C109400014
:10634000002903D0C0B21B2148407047C0B270473B
:106350001CB50C46064B7B4469460090204600F075
:10636000B0FF04460020694600F0BEFF20461CBD79
:106370008F0F0000034610B50B439B070FD1042A73
:106380000DD308C810C9121FA342F8D018BA21BAF9
:10639000884201D9012010BD0020C04310BD002A51
:1063A00003D0D30703D0521C07E0002010BD0378B0
:1063B0000C78401C491C1B1B07D103780C78401C2F
:1063C000491C1B1B01D1921EF1D1184610BDF8B516
:1063D000042A2CD3830712D00B78491C0370401C6D
:1063E000521E83070BD00B78491C0370401C521EB1
:1063F000830704D00B78491C0370401C521E8B0786
:106400009B0F05D0C91ADF002023DE1B08C90AE054
:10641000F9F72AFFF8BD1D4608C9FD401C46B440E7
:106420002C4310C0121F042AF5D2F308C91A521EB9
:10643000F0D40B78491C0370401C521EEAD40B7830
:10644000491C0370401C012AE4D409780170F8BD8E
:1064500001E004C0091F0429FBD28B0701D502808B
:10646000801CC90700D00270704700290BD0C307F9
:1064700002D00270401C491E022904D3830702D5B2
:106480000280801C891EE3E70022EEE70022DFE79E
:106490000378C2781946437812061B0219438378A1
:1064A000C0781B04194311430902090A0006084376
:1064B0007047020A08704A70020C8A70020ECA7095
:1064C0007047002203098B422CD3030A8B4211D35D
:1064D00000239C464EE003460B433CD40022430875
:1064E0008B4231D303098B421CD3030A8B4201D365
:1064F00094463FE0C3098B4201D3CB01C01A5241FD
:1065000083098B4201D38B01C01A524143098B424C
:1065100001D34B01C01A524103098B4201D30B0135
:10652000C01A5241C3088B4201D3CB00C01A52415A
:1065300083088B4201D38B00C01A524143088B421F
:1065400001D34B00C01A5241411A00D201465241B8
:10655000104670475DE0CA0F00D04942031000D3D7
:106560004042534000229C4603098B422DD3030A2C
:106570008B4212D3FC22890112BA030A8B420CD33C
:10658000890192118B4208D3890192118B4204D365
:1065900089013AD0921100E08909C3098B4201D3E5
:1065A000CB01C01A524183098B4201D38B01C01A1F
:1065B000524143098B4201D34B01C01A5241030996
:1065C0008B4201D30B01C01A5241C3088B4201D345
:1065D000CB00C01A524183088B4201D38B00C01AF2
:1065E0005241D9D243088B4201D34B00C01A5241C9
:1065F000411A00D20146634652415B10104601D356
:106600004042002B00D54942704763465B1000D3DF
:10661000404201B50020C046C04602BD70477047E9
:1066200070470000F0B50C46871A9C410D46861A4B
:106630009D4103D2C01BA141D21963410D0D1F0D15
:10664000C94EEC1BAE435CD07F057F0D0026002FAA
:1066500051D02D05AC46A943DD020123ED0A1B05EF
:106660001D4320231B1B24D41746E74038187141D3
:106670002F46E740CC199D402818314661410C0D4A
:1066800027D161449A4013D50023401C5941520040
:106690000ED14008400001224B005205D34207D3DF
:1066A00005204007C14201D5B04900E0B04930465D
:1066B000F0BD6B00002A00D001229A181F23203C55
:1066C0001B1B01D5002302E0E540281871410C0D89
:1066D000D7D0012424050919C407CD07400849086B
:1066E000E40F28436144002CD5D00024401C6141B4
:1066F0009A40D0D1CDE76A05520DD9D1C90FC9074B
:10670000D5E79C4D4E00002801D0012400E0002474
:1067100034195F00002A01D0012600E00026BE19CE
:10672000954FAC420CD8AE420AD8B44206D00125EF
:106730006D05EC42BCD010461946F0BD9942FCD024
:1067400000203946F0BDF0B51FB40C460F46811A43
:106750009F412546861A9D4106D20125ED076F40CF
:10676000401ABC4152187B41210D1E0D8D1BAC46B9
:106770007D4D8D437ED075056D0D7CD00D05AE46EB
:10678000AC431B031B0B794D52429D4120236646AF
:106790009B1B14D31746F74038180026009074410D
:1067A00060462F460741E41900989D40281866412D
:1067B00016D4714671189A4025D5012320E093180C
:1067C0002A466A415200002B00D0521C1E23203E54
:1067D0009B1B002B61DD3541EE1728186641E8D57B
:1067E000001876415B1C9A4000D3401C4B05F318FF
:1067F0001524E34010D3002B52D071467118D30FEB
:10680000C01802D3491C05B0F0BD0123DB079A4232
:10681000F9D140084000F6E701225205B21801D133
:10682000002853D00123CC0ADB029943891E002A99
:1068300008D1020C03D0020C0004103902E0024619
:10684000002020390023550B05D112020823550BD7
:1068500001D152010D23550C01D112011B1DD50C84
:1068600001D192009B1C150D01D152005B1C20250B
:10687000EE1A01E02CE022E00546F5401543984071
:10688000CA1AE10769181305C918002ABBDA0320E0
:1068900040070818C10FC9070FE071466118B2E739
:1068A000F10740080843711071444A000CD00123DD
:1068B0005B059A42A7D2C90FC9070020A3E7490583
:1068C000490D26D1002001E00028F4D100219AE7EB
:1068D000284D6600002801D0012100E00021711838
:1068E0005F00002A01D0012600E00026BE19224FD9
:1068F000A94210D8AE420ED8B14208D001256D058C
:10690000E94206D01946A802414010467BE79C4266
:1069100001D0214677E70020394674E710B50C46D0
:106920005C4005D50124E4076340FFF70CFF10BD70
:10693000FFF778FE10BD30B40C465C4004D501244E
:10694000E407634030BC6DE630BCFCE670B5012462
:10695000E40761400D465D4002D4FFF763FE70BD61
:106960006340FFF7F0FE70BDFF0700000000F0FF7E
:106970000000F07F0000E0FF0000F87FF0B5F94D67
:106980000C091E092C402E402F468BB0A7437DD00A
:10699000B543FCD0002E7AD0002CFCD00D465D40D3
:1069A000ED0F2543AC1BFF25AD0464190894C50207
:1069B000440DC9022143500DDC0204430120C007ED
:1069C00001430443D2020191200C110C00958C4626
:1069D000010423468B430A9161460904E24D8A4330
:1069E0000991010A7D4449198039097805464D43CA
:1069F00001266D18F605751B6943C90C640B891CCB
:106A00004C436418B5012C1B250C2E04B4434C4395
:106A10004D43210C691889090591009DE90701D0B2
:106A20000121C90704912C4601996708CD072F431E
:106A30004C08059DE10B4D432D0C294666467543D8
:106A400002950D4645432E46029D7D1BB44100959F
:106A50000D465D4301942C0C2F040D465543AE4664
:106A60002D0C3D43029503947546049C2D04641B34
:106A7000049406D2029C039D641C00267541039574
:106A8000029401AC70CC009F7D1B01E03EE162E10D
:106A9000B44109040095079101940599A408614344
:106AA000090C0C464443650BE7040C4666467443E8
:106AB000A646640B3C43039502947446049DE4048B
:106AC0002C1B049406D2029C039D641C0026754175
:106AD0000395029401AC70CC009F7D1BB4410194DE
:106AE0000C465C430095650FE7000C465443A646F0
:106AF000640F3C43039502947446049DE4002C1BF0
:106B0000049406D2029C039D641C002675410395E3
:106B1000029401AC70CC009F7D1BB441AE09AF065E
:106B2000049DC900AD092F43049DA406AD0604953C
:106B3000079D344369180791059DE10B4D432D0CCA
:106B400029466646754302950D4645432E46029DED
:106B50007D1BB44100950D465D4301942C0C2F0420
:106B60000D465543AE462D0C3D43029503947546A4
:106B7000049C2D04641B049406D2029C039D641C97
:106B8000002675410395029401AC70CC009F7D1BDB
:106B9000B44101948C050694079C890A61180095FC
:106BA0000791019C0599A4086143090C0D464543D2
:106BB000680BEF040D46644665436C0B3C43049F31
:106BC000ED047D1BAC4602D20025641C6841009E8A
:106BD000019D371B85410846584301950C46460FD9
:106BE000C5005443600F28436546E4002C1B02D2C5
:106BF0000025401C6E41019D3F1AB5412846BD0944
:106C0000800628438446A009BF064E020699A406C2
:106C100076180743079D002068410A990790194399
:106C20000020099B00906046FF1913434041E20F8A
:106C300064003A43A4460446D71A8C41A04203D9C3
:106C40000120009020463A46C70F94184041624602
:106C5000D20F2243644664000494009CBE46640044
:106C6000D71AA446044602978C417746002F01D1DB
:106C7000A04204D96046401C8446029A2046C40FB4
:106C8000A64694184041049A0546D20F2243644612
:106C90006400D31A8D417146002901D1A84202D95E
:106CA00028461A46641C10430122002800D01643CF
:106CB00061020020079B891904465C410223002CD5
:106CC00002DB491813466441089DCE0A2D145D1954
:106CD0004B056705E10A2C050D1908993E43C907C4
:106CE0006940002B08D0934006D30022761C514106
:106CF000002B01D1760876001C4A002D43DB15429B
:106D000041D0AA433FD030460BB0F0BD06180D4627
:106D10004D41174C7642AC411AD395181C465C4144
:106D2000134A6D42A24113D3012252054C00D442B2
:106D30000AD15C00D4420BD04B4002D592021143E1
:106D4000E2E749004908DFE75940C90FC90718E0E1
:106D500000200849D8E7054801420DD10342F7D089
:106D6000F2E700000000FF07DF2000000000F07FD6
:106D70000000E0FF0000F87F114859400143C012B5
:106D800041400020C0E70123089A9B069A4205DC97
:106D9000032252078918C90FC907B5E70522520710
:106DA0008918074A1143D2125140ADE770B5154614
:106DB0001C4602460B4628462146FFF7DFFD70BD04
:106DC000FFFFFF7F0346CA02400D10B510430A15AE
:106DD00004D00124E4072043002A05DB0A4CA21A50
:106DE00004D4D040FF2A00DD002010BD4A00002B53
:106DF00001D0012000E00020101801225205D042ED
:106E0000F2D8C817C04310BD1E0400001F22030C97
:106E100002D10F22000402D0030E03D004E00020B0
:106E2000014670470002083A030F01D10001121F0A
:106E3000830F01D18000921E002801DB4000521E0A
:106E4000120551184205C012411810467047C10F73
:106E5000C90700D04042012292071143D6E7012121
:106E60008907D3E7F0B58B4C0F09254689B0BD43A0
:106E70007BD01D092646AE43FAD00E465E40274021
:106E8000F60F3E43254071D024012142FBD0FF2460
:106E9000AD19A4042D1B039501252D05DB02DB0A8A
:106EA000C9022B43C90A29431E010901040F130F0C
:106EB000050121431701880B820391432D098C465C
:106EC000A90B1E438A039543B30B9A0396433F09CC
:106ED000BA0B9403A74302962E467E430497B64608
:106EE0004E19D7190C460196544305977E43371B1C
:106EF0007646BF1B3601B646BE0B3619009676465F
:106F0000BC043719009C01D3641C00946400002F5A
:106F100001D001263443029E049F754366467E439A
:106F20000496760034196E0034190094029C019E78
:106F30001C196643751BAE46069465464519059CAB
:106F400005956C43594375460891691A0191049E51
:106F500001465143A41B0491611A009C0791E1066C
:106F600005D061090122114302E072E06EE061097F
:106F7000089D00272C0A2D066918049D7C412A0AC9
:106F80002D066918019D6241AC0DAD026D1854418A
:106F9000079A910D920255196141029A644658432D
:106FA0005443069B059A5A43121A131B9A0E9B01CF
:106FB0005B187A41010B0005C3185141220A2006D3
:106FC00044195A419A4200D2491C01204002814290
:106FD00003D315230226F64302E014230326F643C7
:106FE0002020C51AA9401746AF40DA400A43204680
:106FF0000399D8400914731819055118039A384396
:10700000D2075140AC4009D00122944006D300225F
:10701000401C5141002C01D1400840001E4A9342BF
:1070200012D3012203989206904207DB0520400705
:1070300009181A480143C012414004E003204007E8
:107040000818C10FC907002009B0F0BD0020F107E2
:10705000FAE705180C464C4111486D42A04115D382
:1070600094181A465A410E48644290410ED30120AA
:107070004A004005824209D35A00824206D3594051
:10708000C90F084AC90700201143DDE7002006495F
:10709000DAE700000000FF07FE070000FFFFFF7FA8
:1070A0000000E0FF0000F07F0000F87F0121C9052B
:1070B0000123411842001B06D3185B0E0AD0C110F1
:1070C0000722D206891840075242D14201D5520008
:1070D00089187047090208D50146002A03D0C10F5C
:1070E000C9070020704710467047420202D00020B6
:1070F00002497047072109050143F4E70000F87FC2
:107100001F22030C02D10F2200041CD0030E01D158
:107110000002083A030F01D10001121F830F01D1B1
:107120008000921E002801DB4000521ED20551183B
:10713000021251181922904004D3491C002801D191
:107140004908490008467047C10FC90700D04042AE
:10715000012292071143D3E701218907D0E770B5D7
:10716000044685690068C10601D5302600E0202666
:10717000C00707D070BD62683046A1689047206A9A
:10718000401C20626D1EF6D570BD70B50446856941
:107190000078C00707D170BD6268A16820209047C1
:1071A000206A401C20626D1EF6D570BD09684A0534
:1071B00001D540B27047C905FCD500B270470968D7
:1071C0004A0501D5C0B27047C905FCD580B27047E9
:1071D00070B50C460546012A05D02878800600D5F2
:1071E000EA69002302E0012305E05B1C934202D21E
:1071F000E05C0028F9D1A869E618C01AA861286ADD
:10720000C01828622846FFF7AAFF04E06A682078C1
:10721000A968641C9047B442F8D32846FFF7B5FF2D
:1072200070BD0000F7B5002575291068009914A6F7
:1072300011D0FFF7BBFF002802DA404211A608E098
:10724000009909688A0701D50FA602E0490704D50D
:107250000EA6012501E0FFF7B2FF009F00242437AE
:1072600004E000F013FD30313955641C0028F8D1DA
:107270002B4632462146009800F057FAFEBD00002A
:10728000000000002D0000002B0000002000000086
:1072900011680268006A530501D5087009E0D3053A
:1072A00001D5088005E0130602D5C21705C100E02C
:1072B000086001207047000001694A1C02610878DB
:1072C000704700B58FB002910021059105490193E7
:1072D0007944039111460490684600F025F90FB0F7
:1072E00000BD0000E5FFFFFF0A681070521C0A6035
:1072F00070470000F7B50446154686B02B48784421
:10730000002703C83E460090019111E007986A46A5
:107310007100415A02A800F099FC411C07D0217865
:10732000890603D5E269391891420ED83F18761CB8
:107330002078800602D5E069B84206DDAE42E5DB82
:1073400007987100405A0028E0D1A069C01BA061D5
:107350002046FFF704FF154878445A3803C80090C8
:107360000020019116E041006A460798415A02A8A0
:1073700000F06CFC0590401C0AD0002505E0626816
:1073800002A8A168405D90476D1C05988542F6D320
:107390000498401CB0420490E5DB206AC0192062CA
:1073A0002046FFF7F2FE09B0F0BD000046180000CD
:1073B000F7B5D21D0025D20815A6D200F52905CAB9
:1073C00011D0002A05DA00214042914111A60A4657
:1073D00008E0009909688B0701D50FA602E049076C
:1073E00001D50EA601251146009F0024243704E094
:1073F00000F05EF930323A55641C02460A43F7D178
:107400002B4632462146009800F08FF9FEBD000061
:10741000000000002D0000002B00000020000000F4
:1074200070B504460021243408E05507D2086D0FDA
:10743000303565545D072A43DB08491C15461D435A
:10744000F3D10468002310A2250708D520252C407D
:107450000C4304D0C46901230CA2641EC46100F073
:1074600064F970BD10B5044621461068FFF7A7FE09
:10747000002302462046FFF7D3FF10BDD21DD108DE
:10748000C9000CC9CCE7000000000000300000007B
:10749000F8B50F460188090502D5224C7C4402E06C
:1074A000204C7C440E3405460021243508E01607A4
:1074B0001209360FA65D6E541E0732431B09491C84
:1074C00016461E43F3D1224604780023240705D52F
:1074D000702F06D0002901D00223113200F025F9C7
:1074E000F8BD01231032F9E770B504460D46214678
:1074F0001068FFF764FE0023024629462046FFF786
:10750000C7FF70BDD21DD308DB000CCBC0E730B481
:10751000036820241268234303600823C36130BC3E
:107520000023B5E7B0160000F3B50446002081B093
:1075300020622046E1688847002872D0252802D0C2
:107540006268A168ABE0594F00267F442046E1689D
:1075500088472028054608DB312D06D278192038C7
:107560000078002801D00643F0E7B00701D50420D9
:1075700086430020E0610746A0612A2D0AD02846F4
:1075800000F052FF002827D0B8000019303D0090CD
:10759000856119E00298BA00121902C8916102903F
:1075A0002046E1688847012F054617D1E069002889
:1075B0001FDA202086431CE000980A218069484396
:1075C00000994019303888612046E16888470546AF
:1075D00000F02AFF0028EFD1012F0AD02E2D08D16C
:1075E0002046E16888470546202006437F1C022F7D
:1075F000C3DBA069002803DA4042A06101200643F2
:10760000F00701D0102086436C2D0BD0682D09D0D7
:107610004C2D3CD06A2D38D0742D38D07A2D36D0F0
:1076200016E040E0E1682F4620468847B84205460C
:1076300009D16C2F29D001208002E1680643204641
:107640008847054604E06C2F1DD0FF20013006431B
:10765000002D28D028464138192803D80120C0021F
:1076600006432035204626602946029A1646F8F73A
:1076700065FD002810D001280BD0F61DF008C000D1
:107680000830029055E74020E1E78020D5E7002050
:10769000D3E7361D02964CE762682846A1689047FA
:1076A000206A401C44E7206AFEBD00002A16000044
:1076B0000B4670B5024689078008084319469D08A5
:1076C000141AA94125090807054308092C1948413E
:1076D000250A01060D43010A2C194141200C0D0415
:1076E00028430D0C00194D41002140194D41C0089F
:1076F00069070843E908840F8D0025438400241896
:107700004D4124196D41121BAB4107E00925ED43A2
:107710002C11521963410024401C61411C460A256A
:107720000026551BB441F1D270BDFFB504460D468D
:1077300081B0243000902168880604D51022E069C9
:107740009143216000E00120A84201DD471B00E0D9
:1077500000270498A1697A191018081AA0612078E6
:10776000C00602D42046FFF7FAFC002608E0039882
:107770006268A168805D9047206A401C761C206288
:1077800004988642F3DB2078C0060AD52046FFF72E
:10779000E6FC06E06268A16830209047206A401C41
:1077A000206238467F1E0028F4DC07E000986268FB
:1077B000A168405D9047206A401C206228466D1EEB
:1077C0000028F3DC2046FFF7E0FC2078000602D515
:1077D000022005B0F0BD0120FBE700007047FFB5B7
:1077E0000C461E468FB003CA089009914F007D0DCC
:1077F00000D16D1E002108460020C0460321099AD1
:1078000089050840002A03DA8200801840080840F1
:10781000800D01280A9002DD0020C0430A900898DC
:1078200007430DD0EF48F04928184843071418982B
:1078300000281DD07542291E1DDD0A9842421BE01A
:107840001898012802D00020302104E00020F243E3
:1078500005E02154401CB042FBDB30460022189B5F
:10786000002121540F998B600A60486013B0F0BD6D
:10787000BD1B6D1CDFE70A9A002900DA69420BA8DC
:1078800000F088FA0BAB07CB03AB07C30899099844
:1078900000F0E4FA6B4607C30146D4480918002DEE
:1078A00000910ADDD14903980A9A4942401803A978
:1078B0000390684600F0F7FC07E003990A9A08185D
:1078C00003A90390684600F0C4FC6B4607C300049C
:1078D000000C03D00020C043410800E01046189A75
:1078E000002A03D00022009215461EE0751E05D422
:1078F000FFF7DEFE303262556D1EF9D501220843D6
:10790000079602D000227F1C04E02078302801D1A5
:1079100000227F1E002A069789D01EE0112D07DA6B
:10792000FFF7C6FE303262556D1C02460A43F5D1A0
:10793000084303D00098002819D00EE00021681EEB
:1079400005E0235C625C63542254401E491C814262
:10795000F7DBA81B401E07950690079A1899002090
:10796000A0540F98079B069A81600CC07EE71126F1
:10797000002018905BE7D21DF0B50D460446D108F3
:1079800093B0C90003C90C900D9100F037FD024679
:107990000D98C00F01D02D2007E02068810701D588
:1079A0002B2002E04007C00F4001032A0F9001D0B6
:1079B000072A05DB03462946204600F0A7F90EE119
:1079C0002078800601D5E76900E006272846652D66
:1079D00004D0662814D0672D69D12DE00020112F26
:1079E000009001DB112300E07B1C0CAA03A910A866
:1079F000FFF7F5FE1199002610987D1C0E9142E0CC
:107A000001203B460CAAC0070B900120009003A95F
:107A100010A8FFF7E4FE119D129810990026002887
:107A20000E9501D1781C0D18781B02D446427D1C9E
:107A3000761EE81B00903AE0012F00DA01270020B3
:107A4000112F009001DD112300E03B460CAA03A991
:107A500010A8FFF7C4FE11993D46109800260E911C
:107A6000217809070BD40E99A94200DA0D4603A923
:107A7000012D04DD4A19203AD27F302A06D0B842BF
:107A800001DA011D04DA012100910FE06D1EEFE71C
:107A9000002802DC86192D1A03E0411CA94200DDF2
:107AA0000D46801B401C00900120C0070B902078E1
:107AB000000705D40098A84202DB0020C0430090D4
:107AC00069460020C8720B98012102AF0337C9072D
:107AD000884225D0022010902B2011900B9800286E
:107AE0000BDA40420B902D20119006E00B9800F02D
:107AF000CDF830317F1E0B9039701099481E002947
:107B00001090F3DC0B980028F0D111987F1E38708C
:107B10002088000501D5452000E065207F1E3870D3
:107B200001A8C01BC01D0B900F98002800D0012099
:107B300041190098C01709180B980818A169081A6C
:107B4000401EA0612078C00602D42046FFF707FB44
:107B50000F98002805D06268A1689047206A401CF1
:107B600020622078C00625D52046FFF7F8FA21E0EC
:107B7000002E07DB0E98B04204DD03A86268805D2A
:107B8000A16802E06268A16830209047206A761CF4
:107B9000401C20620098401E002800900AD100F08E
:107BA000B1F8C06862680168405CA1689047206ACB
:107BB000401C206228466D1E0028D9DC07E0626860
:107BC0003878A1687F1C9047206A401C20620B997E
:107BD000481E00290B90F2DC2046FFF7D6FA03205E
:107BE00044E6000001FCFFFF104D0000E1DFFFFF55
:107BF00010B54369002B02D0C046C04601E0FFF734
:107C0000E7FA012010BD1278014624310A700022E3
:107C10004A700122ECE711680022D243E8E710B570
:107C20004369002B02D0C046C04601E0FFF762FB6B
:107C3000012010BD12880146243182840022C284B2
:107C40000122ECE711680022D243E8E770B516463E
:107C50000C46054600F04EF80368FF200230C05C79
:107C6000012807D0FF2C0ED8185D00280BD001206A
:107C70002C7070BDFF333246214608331868C31894
:107C80002846984770BD0020C04370BD014680085B
:107C9000081A02091018020A1018020C1018C0085D
:107CA000820012185200891A01E0401C0A390A2980
:107CB000FBD27047754600F02DFBAE4605006946C5
:107CC0005346C008C000854618B020B5F9F756FFE6
:107CD00060BC00274908B6460026C0C5C0C5C0C55F
:107CE000C0C5C0C5C0C5C0C5C0C5403D49008D4662
:107CF0007047000010B500F005F8001D10BD00BF72
:107D000065070000004870470C1B0020F8B51F46AF
:107D1000044601230068DB02032601461840072AB7
:107D200005DB002801D017A506E017A504E0002810
:107D300001D016A500E016A5102081432160A0699E
:107D4000C01E002FA06101D0401EA0612046FFF799
:107D500006FA002F09D038466268A1689047206A69
:107D6000401C2062C01C206206E0206AFAE76268BC
:107D70002878A1686D1C9047761EF8D22046FFF740
:107D800004FAF8BD4E414E006E616E00494E460049
:107D9000696E6600F7B516468AB02F4878446C467F
:107DA00003467C33C06F5A689B680DC42A487844E8
:107DB000763003AC0DC80DC43720C0010818372138
:107DC0001B30FEF788FB05460C46803D1B3C02D568
:107DD0006442012000E00020002709900FE0E00746
:107DE0000BD00C201C497843794432464C39411859
:107DF000684600F02EFA6B4607C364107F1C002C07
:107E0000EDD1154F7F442C3F15E0E80711D020013C
:107E1000C0190EC80691089307920068F04201D17C
:107E200098190890324606A903A800F012FA03AB8D
:107E300007C36D10641C002DE7D1324669460998CE
:107E4000002803A802D000F02EFA01E000F001FAA9
:107E50000A9B07C30DB0F0BDEC0D000003464000C7
:107E60000A4610B5400D0BD00121C9070F24A4020A
:107E700000191C0364082143540D2143D20207E07A
:107E800000210120F2E7D40F490021435200401E97
:107E90000029F8DADB0FDB07184310BDFFB50D46EC
:107EA000144685B04868516800F083FA009101904B
:107EB000A868A16800F07DFA02910390A868616843
:107EC00000F077FA029A12188242029201D201203F
:107ED00000E00020019A0B18D2180028019202D06D
:107EE0008A4202D903E08A4201D2012000E0002048
:107EF0000099081800906868A16800F05AFA029A80
:107F000012188242029201D2012000E00020019A60
:107F10000B18D2180028019202D08A4202D903E03D
:107F20008A4201D2012000E0002000990818009048
:107F30002868216840004900400849084018EE4977
:107F4000471814E001994000C90F084300900198B8
:107F500002994000C90F084301900298039940001C
:107F6000C90F08430290039840007F1E03900098B9
:107F70000028E7DA0898002801D0E04E00E000264B
:107F8000B74228DAF71BF806C00E15D0029B202155
:107F9000091A039A8B401A430392029A019BC2402A
:107FA0008B401A430292019A009BC2408B40009979
:107FB0001A430192C14000917A110BD06B46032005
:107FC000811A01D5002101E0890059588700401E1F
:107FD000D951F5D5374603980299002800D00120E1
:107FE000014308980291002808460CD0002800D0D0
:107FF00001200199019A490508430121D20AC902C9
:10800000D202019200E001210E9B0122D207012B36
:1080100002D0002B03D013E0002807D116E09042D5
:1080200004D890420CD1019B0B4209D0019B5918F6
:10803000019105D10099491C009101D17F1C00924A
:10804000002803D0102108460020C0462868216877
:10805000019B009A4840C10F0598C90739430EC0DB
:1080600009B0F0BDFFB587B0099A08980899536820
:1080700092684068896896460022039317469446A2
:10808000089A12685300099A5B0812685200520855
:108090009A1A9B4BD4180A9A002A01D0352200E084
:1080A000402206920022012315460492DB07059325
:1080B00024E0002D05D175460346039E4D1BB341B8
:1080C00009D375466646039B491B049D9841059B51
:1080D0007519AC465F4163463B4308D0059B049E3F
:1080E000DD0776082E435B080496059301E0521ED7
:1080F000641EC50FED0749184041521C069B9A4269
:10810000D7DB002D04D17546039A6B1A824101D248
:1081100003200CE0039A0B466B404240134303D00C
:10812000014303D0012002E0022000E0002061466C
:1081300001910021009702910A99002905D061461A
:10814000400201436D4B019102E080070023029041
:108150009C423ADA1A1BD006C00E15D0029D20218F
:10816000019C091AC5408C402543029C8C4000D0DC
:1081700001242543019C02953D46C4408D4039466B
:108180002C43C1400194009154111DD06D46022131
:10819000002202290CD10320001B07E0002804DB89
:1081A0008600AE59002E00D00122401C0328F5DBCA
:1081B000081B02D588002A5004E08000285810438C
:1081C0008A00A850491EE3D51C460A980028029848
:1081D0000CD0002800D001200199019A49050843DC
:1081E0000121D20AC902D202019200E00121109BB2
:1081F0000122D207012B02D0002B03D013E000286C
:1082000007D116E0904204D890420CD1019B0B425A
:1082100009D0019B5918019105D10099491C009181
:1082200001D1641C0092002803D0102108460020D0
:10823000C04608980999019A006809684840009961
:10824000C30F0798DB0723430360826041600BB0D4
:10825000F0BD1FB5002300920A46014601A8FFF7B2
:108260001DFE01AB07CB04B010BD1FB5012300926A
:108270000A46014601A8FFF711FE01AB0F2407CB08
:10828000A402C30F4000DB074008001B002900DBED
:108290000020490000054908CC0A2043490518433D
:1082A000D20A1143DFE71FB5002300920A460146B8
:1082B00001A8FFF7D7FE01AB07CBD4E71FB5012319
:1082C00000920A46014601A8FFF7CCFE01AB0F243D
:1082D00007CBA402C30F4000DB074008001B0029A6
:1082E00000DB0020490000054908CC0A204349056D
:1082F0001843D20A1143B6E702C0FFFF013C000059
:10830000FF3F000010B50446C046C0462046F7F7C0
:10831000A1FF10BD00487047EC1A0020024670B55E
:108320000A4392072AD11E4DEE0104C808C9541B06
:108330009443344017D0D0B2D9B2401A2106014339
:1083400010D190B299B2401A210401430AD110020F
:108350001902000A090A401A2102014302D1100E33
:10836000190E401A70BD9A42DFD010BA19BA88426D
:1083700001D9012070BD0020C04370BD02780B7888
:10838000401C491C002A09D09A4207D102780B7878
:10839000401C491C002A01D09A42EFD0D01A70BD6F
:1083A0000101010101491820ABBEFEE726000200D1
:1083B0007047F8B5040C8BB2264682B25E43104675
:1083C00058430D0C370C36040021801916467941AC
:1083D0006E43370C36048019264679416E4389195D
:1083E000F8BD30B47446641E2578641CAB4200D2DC
:1083F0001D46635D5B00E31830BC18474900CA02A4
:108400000243100000D004204A0D01D00122104385
:10841000044A490D914201D102210843012800D1AB
:1084200005207047FF07000030380A2801D20120DC
:10843000704700207047000010B500290AD0087866
:10844000002807D005487844FFF768FF002801D0CE
:10845000002010BD0248784410BD0000FA0700005B
:10846000F207000010B500290AD00878002807D0CC
:1084700005487844FFF752FF002801D0002010BDC6
:108480000248784410BD0000EA070000E20700003F
:1084900070B501250400ED074C4020D4441A01D2E8
:1084A000001B0919C60D4B00F2B2FF2A29D01B0E82
:1084B0002CD000020C02D31A2C43DC4028430519AF
:1084C00010D2280A02D3401C6D0611D0761EF60584
:1084D0008019FF2A00DA70BDC00DC00570BD69406B
:1084E00000F022F801200543C541521C761CE8E744
:1084F00064089C40C90161408900E7D10124A04380
:10850000E4E71B0E440200D0034870BD002AFCD1F2
:10851000C00FC00770BD00BF0000C07F70B501254F
:108520000400ED074C4022D4441A02D26C40001BD8
:108530000919C60D4B00F2B2FF2A4BD01B0E50D0CA
:1085400000020C02D31A2C43DC40A843051B05D5BE
:10855000AD0019D36D08761E521E37D0F605280AD5
:1085600001D2801970BD70416D0603D070BD6940A5
:10857000FFF794FF9C4009026140490001D0401E72
:1085800070BD0124A04370BD6D081DD001202B0CCF
:1085900001D12D0410302B0E01D12D0208302B0FEC
:1085A00001D12D01001DAB0F01D1AD00801CEB0FDF
:1085B00001D16D00401C6D00361A121A680AF505CB
:1085C0004019012A02DB70BD002070BDC036300AA0
:1085D000C00770BD1B0E440201D1FF2B00D1024821
:1085E00070BD002AF0D070BD0000C07F03B4024807
:1085F0007844844603BC604783F3FFFF0301000314
:10860000001F00200000000F18192A260027000074
:1086100000E7FEC8FE2C002D0000000AFFFF00004E
:10862000FFFFFFFF000009010000280700001809F4
:10863000080000280B000118090C0000281A000A85
:1086400018091B0000282000010009210000282330
:108650000000FF092400002827000F180928000047
:1086600028FFFFE7FE0A020003280A0300002A0A87
:1086700004000328020500012A0A06000328020755
:1086800000042A0A09000328020A00052A0A0D002C
:108690000328020E00292A0A0F00032802100024D2
:1086A0002A0A11000328021200252A0A13000328AF
:1086B000021400272A0A15000328021600262A0A97
:1086C00017000328021800282A0A19000328021A92
:1086D00000502A0A1C000328081D0002000A1E0080
:1086E0000328101F0003000A220003280A230001A8
:1086F000FF0A25000328122600192A0A2900032848
:10870000082A00C7FE0A2B000328222C00C8FE0AF4
:108710002E000328022F00C9FE0AFFFF000000FF01
:10872000FF00001400030010002A53594420424C5B
:1087300045204D6F7573650900050010012AC203BD
:108740000F00070010042A06000600300064000B2A
:10875000000A0010052A0000000009000B001002AA
:108760002900000A000E0010292A53594414001051
:108770000010242A424C452D4D4F44454C2D30309D
:10878000310E00120010252A424C452D3030310A9E
:1087900000140010272A312E300A00160010262A55
:1087A000312E300A00180010282A312E300E001AFF
:1087B0000010502A023A09544201001C001D00100A
:1087C00002000000000000000000000000000000A7
:1087D000000000000000001C001F0010030000004B
:1087E0000000000000000000000000000000000089
:1087F0000000000900200010022900001C002300D6
:108800001001FF0000000000000000000000000058
:1088100000000000000000000800260010192A6473
:108820000900270010022900001C002A0010C7FEC2
:108830000000000000000000000000000000000038
:1088400000000000001C002C0010C8FE000000000A
:108850000000000000000000000000000000000018
:108860000009002D0010022900001C002F0010C973
:10887000FE000000000000000000000000000000FA
:10888000000000000000FFFFFFFF1010401040102C
:108890001040104020202010201010101010202018
:1088A00040102010104010401088401088202020D8
:1088B000102010101010102088401088637C777BE7
:1088C000F26B6FC53001672BFED7AB76CA82C97DCC
:1088D000FA5947F0ADD4A2AF9CA472C0B7FD93265D
:1088E000363FF7CC34A5E5F171D8311504C723C361
:1088F0001896059A071280E2EB27B27509832C1AA5
:108900001B6E5AA0523BD6B329E32F8453D100EDFE
:1089100020FCB15B6ACBBE394A4C58CFD0EFAAFBE2
:10892000434D338545F9027F503C9FA851A3408FAA
:10893000929D38F5BCB6DA2110FFF3D2CD0C13ECC2
:108940005F974417C4A77E3D645D197360814FDC57
:10895000222A908846EEB814DE5E0BDBE0323A0A3B
:108960004906245CC2D3AC629195E479E7C8376DBF
:108970008DD54EA96C56F4EA657AAE08BA78252EE4
:108980001CA6B4C6E8DD741F4BBD8B8A703EB5666D
:108990004803F60E613557B986C11D9EE1F898115E
:1089A00069D98E949B1E87E9CE5528DF8CA1890D4D
:1089B000BFE6426841992D0FB054BB1652096AD5E3
:1089C0003036A538BF40A39E81F3D7FB7CE33982C4
:1089D0009B2FFF87348E4344C4DEE9CB547B943213
:1089E000A6C2233DEE4C950B42FAC34E082EA1665B
:1089F00028D924B2765BA2496D8BD12572F8F66432
:108A000086689816D4A45CCC5D65B6926C704850AC
:108A1000FDEDB9DA5E154657A78D9D8490D8AB0061
:108A20008CBCD30AF7E45805B8B34506D02C1E8F8A
:108A3000CA3F0F02C1AFBD0301138A6B3A911141C6
:108A40004F67DCEA97F2CFCEF0B4E67396AC7422AF
:108A5000E7AD3585E2F937E81C75DF6E47F11A712D
:108A60001D29C5896FB7620EAA18BE1BFC563E4B66
:108A7000C6D279209ADBC0FE78CD5AF41FDDA83328
:108A80008807C731B11210592780EC5F60517FA968
:108A900019B54A0D2DE57A9F93C99CEFA0E03B4D97
:108AA000AE2AF5B0C8EBBB3C83539961172B047E0B
:108AB000BA77D626E169146355210C7D8D01020435
:108AC00008102040801B3680807F7E7D7C7B7A79F9
:108AD00078777676757473727171706F6E6E6D6C77
:108AE0006C6B6A6A6968686766666564646363621A
:108AF000616160605F5F5E5E5D5D5C5C5B5B5A5A9E
:108B0000595958585757565655555554545353520A
:108B1000525251515050504F4F4F4E4E4D4D4D4C63
:108B20004C4C4B4B4B4A4A4A4949494848484747AD
:108B300047474646464545454444444443434343EA
:108B4000424242424141410000000000000000005A
:108B50003031323334353637383941424344454673
:108B6000403058003031323334353637383961626D
:108B7000636465664030780004000008000000006F
:108B80000000000200010000100000000240000090
:108B9000000000A00000000005400000000000C828
:108BA000000000000C4000000000409C000000009D
:108BB000194000000020BCBE00000000344000004E
:108BC000BFC91B8E00000004B5400000504BCFD041
:108BD0006607E2CF010000006C4100003E8251AA0E
:108BE000DFEEA73401000000D9420000DCB5A0E2AE
:108BF0003A301F97FFFFFFFFB4450000FD25A0C8D6
:108C0000E9A3C14FFFFFFFFFFF3F0000000000800E
:108C100000000000FF3F0000000000800000000096
:108C20006C8D001000000020040100000401001001
:108C3000708E0010040100204C6A0000200100101A
:108C40001C00000043000000F8FFFFFF0C000000C4
:108C50000E0000000F0000002E00000010010000B8
:108C600043000000F8FFFFFF00404040404040400C
:108C700040404141414141404040404040404040EF
:108C80004040404040404040400502020202020293
:108C900002020202020202020220202020202020E2
:108CA00020202002020202020202909090909090F6
:108CB00010101010101010101010101010101010B4
:108CC0001010101002020202020288888888888828
:108CD0000808080808080808080808080808080814
:108CE000080808080202020240000000000000001C
:108CF0000000000000000000000000000000000074
:108D00000000000000000000000000000000000063
:108D10000000000000000000000000000000000053
:108D20000000000000000000000000000000000043
:108D30000000000000000000000000000000000033
:108D40000000000000000000000000000000000023
:108D50000000000000000000000000000000000013
:108D60000000000000000000000000000000000003
:108D700000000000000000000000000000000319D7
:108D800000000201050303010009FF0000000000CC
:108D9000000000060955415254461C000000000026
:108DA00000000000000000000000005080000050A3
:108DB00000000000601000508C10005070B0025095
:108DC00078B0025070B0025078B0025000A000504D
:108DD00000B0005000C0005000D0005000E0005033
:108DE00000000000000000007600002040787D01B7
:108DF00000000000000000007010005000000000A3
:108E0000000000000003000000000000010000005E
:108E10000000015008AA0220309F0220F8A602207C
:108E2000C8810220CC810220D580022074800220DB
:108E3000768002209A87022024800220208002204F
:108E40008F80022090800220998902200400000077
:108E500000000000F8A60220000000000000000052
:108E60000000000000000000000000000000000002
:04000005100000C126
:00000001FF
