:020000041000EA
:10000000506B0020691B0010711B0010731B001047
:1000100000000000000000000000000000000000E0
:10002000000000000000000000000000751B001030
:100030000000000000000000771B0010791B00107A
:1000400037110010B75000107B1B00107B1B0010F5
:100050007B1B00107B1B0010151300107B1B001076
:100060007B1B0010E91700100D180010311800104C
:1000700055180010791800107B1B00107B1B001016
:100080007B1B00107B1B00107B1B00107B1B0010D8
:100090007B1B00107B1B00107B1B00107B1B0010C8
:1000A0007B1B0010BF1300107B1B00107B1B00107C
:1000B0007B1B00107B1B00107B1B00107B1B0010A8
:1000C00000F002F800F0BDF80CA030C80838241881
:1000D0002D18A246671EAB4654465D46AC4201D180
:1000E00000F0AFF87E460F3E0FCCB64601263342F5
:1000F00000D0FB1AA246AB4633431847248B0000BE
:10010000448B0000103A02D378C878C1FAD852075D
:1001100001D330C830C101D504680C6070470000BD
:100120000023002400250026103A01D378C1FBD813
:10013000520700D330C100D50B60704710B56E294F
:1001400002D107F0A5F810BD702902D107F0DFF940
:1001500010BD662902D108F049FA10BD652902D107
:1001600008F044FA10BD672902D108F03FFA10BD2B
:10017000612902D1C046C04610BD03681B0A01D3E5
:1001800080231943692902D107F04CF810BD642976
:1001900002D107F047F810BD752902D107F042F8E7
:1001A00010BD6F2902D107F05DF910BD782902D189
:1001B00007F09AF910BDE92902D107F0F9F810BD4E
:1001C000E42902D107F0F4F810BDF52902D107F0B7
:1001D000EFF810BDEF2902D107F050F910BDF82952
:1001E00002D107F08FF910BD0368DB0901D380232A
:1001F0001943632902D107F006FD10BD732902D10E
:1002000007F009FD10BDE32902D107F013FD10BD71
:10021000F32902D107F016FD10BD002010BD1FB557
:1002200007F070FD04000020002108F01BF9401CBD
:1002300060600020002108F0FFF8E0601FBD10B5ED
:1002400010BD07F037FD1146FFF7E9FF00F09DFDF7
:1002500008F058F803B4FFF7F2FF03BC08F0A2F867
:1002600000B52D1D00BD000070B505460C461646B4
:1002700002E00FCC0FC5103E102EFAD2082E02D38A
:1002800003CC03C5083E042E07D301CC01C5361F9D
:1002900003E021782970641C6D1C761EF9D270BDB4
:1002A0001FB500216846017007214172192189019B
:1002B0004181F7498181032181730021017201F09D
:1002C000AFFCF44801F098FCF2484078F249C8735A
:1002D000F04880780874EF48C0784874ED48007999
:1002E0008874EC484079C874EA4880790875EB480E
:1002F0000378EB480178EB4AE74801F094FC1FBD16
:100300003EB504460D46E848007801280FD101218A
:1003100068460180032141801F21818001210181E4
:1003200023462A466946012001F08BFF3EBD00208E
:10033000FCE710B586B00446DCA103C9019100902A
:1003400004A801F0E8FD6846428A018AD9A001F0BC
:1003500055F9002C02D0012C3CD120E06846408A9F
:10036000002814D06846008A102810DD0020D849E3
:100370000870102168464181C821C1810021818116
:10038000C02101720421417202A802F0DAFBD1A05F
:1003900001F034F905216846FFF7B2FF1AE068461C
:1003A000408A0A2815DA6846008A502811DA502156
:1003B000684641810A2181814B21C900C181C02148
:1003C00001720421417202A802F0BBFBC7A001F038
:1003D00015F900BF00BF06B010BD13B582B0684666
:1003E000408915214902884209D1C6A003C801915C
:1003F000009005246946204601F005FF9CE0684610
:100400004089C249884208D1C1A0006801900224F5
:1004100001A9204601F0F7FE8EE068464089BB49FD
:100420002831884209D1BBA103C901910090082459
:100430006946204601F0E7FE7EE068464089B34900
:100440002331884209D1B5A103C901910090072445
:100450006946204601F0D7FE6EE068464089AB4908
:100460002431884209D1AFA103C90191009005242C
:100470006946204601F0C7FE5EE068464089A34910
:100480002631884208D1A9A000680190042401A95E
:10049000204601F0B8FE4FE0684640899B4925316F
:1004A000884208D1A2A000680190042401A9204636
:1004B00001F0A9FE40E0684640899449273188420E
:1004C00008D19CA000680190042401A9204601F0F5
:1004D0009AFE31E0684640898C494F31884209D103
:1004E00095A103C90191009007246946204601F0B7
:1004F0008AFE21E0684640899149884207D191A04F
:1005000000680190042101A8FFF7FAFE14E0684694
:1005100040898B49383188420DD10021019100205A
:10052000009001A9684601F0FCFA69466846007926
:1005300001F069FE00E000BF1FBD0FB410B56846B2
:100540004089022807D16846827B03A903317E488F
:1005500001F0E3F80DE06846408979493831884276
:1005600007D10020794908706846817B0F3001F07F
:10057000ACFA10BC08BC04B0184710B5FFB0FFB00F
:1005800082B00446601C05F083FF012805D101F00C
:100590004FFB6FA001F032F8CAE1601C05F078FF54
:1005A00002281BD1A1796FA001F028F80622E11DD5
:1005B00071A001F060F82D20015D72A001F01EF81D
:1005C0000D21615673A001F019F80D2161568AB210
:1005D00021460E3174A001F04EF8A9E1601C05F02F
:1005E00057FF042817D100202F49087001207149B6
:1005F0000870002036490870544908706E49087028
:10060000524908700622A11D6CA001F034F80120A7
:10061000FFF78FFE8CE1601C05F03AFF08280DD132
:10062000002064490870644908701F4908706179A6
:1006300068A000F0E3FF01F0FBFA79E1601C05F02F
:1006400027FF0121C90388421FD1A17962790802DD
:10065000104301281AD1217AE27908021043202898
:100660009AD1A17A627A08021043012806D161A0CA
:1006700000F0C4FF01200C49087059E162A000F0AD
:10068000BDFF00200849087052E1E1E0C6E000002B
:10069000FF3F000034000020120000203200002044
:1006A0002E000020300000200C000020FC01000083
:1006B00000000000696E74657276616C3A257820DE
:1006C0006C6174656E63793A25780D0A000000004C
:1006D00010000020536574557064617465206F7458
:1006E00061206C696E6B0D0A000000005365745543
:1006F000706461746520696F73206C696E6B0D0A9C
:10070000000000005541525446000000012A00003C
:10071000FFFF000053594420496E632E424C452090
:10072000312E3000312E302E30000000322E30308D
:10073000332E3030342E3030023A09050A020000E0
:10074000C9FE000000010304140100200F00002076
:100750004741505F4556545F4144565F454E440DF6
:100760000A0000006164765F616464725F7479708E
:10077000653A2578000000006164765F6164647208
:100780003A0000006164765F727373693A25780DF0
:100790000A0000006164765F646174615F6C656E7D
:1007A0003A25780D0A0000006164765F6461746127
:1007B0003A0D0A000E000020740000204741505FEF
:1007C0004556545F434F4E4E454354454420616463
:1007D00064723A004741505F4556545F4449534361
:1007E0004F4E4E45435445442825303278290D0A52
:1007F0000000000073746172745F747820656E612C
:10080000626C650D0A00000073746172745F747825
:100810002064697361626C650D0A0000A1796279D8
:1008200008021043FE4988420DD1217AE27908027C
:1008300010432D287CD1A17A627A08021043012846
:1008400002D1F849087073E00020F64908706FE0A3
:10085000601C05F01DFE0121C902884210D1FF2253
:10086000F83221461531684605F0B1FDEE4A611DAA
:100870007EA805F0ACFD7EA80FC8FFF75EFE57E02E
:10088000601C05F005FE01218902884209D1082279
:10089000611DFEA805F09BFDFF99FE98FFF79DFDE9
:1008A00046E0601C05F0F4FD0121890388423FD039
:1008B000601C05F0EDFD102806D10120DB49087011
:1008C000DBA000F09BFE33E0601C05F0E1FD80281A
:1008D00003D1DCA000F092FE2AE0601C05F0D8FDF8
:1008E00001214902884223D1A1796279080210438B
:1008F000030007F076FD0604080C1014181CD6A09F
:1009000000F07CFE13E0DAA000F078FE0FE0DEA03D
:1009100000F074FE0BE0E2A000F070FE07E0E6A03D
:1009200000F06CFE03E0E9A000F068FE00BF00BF2D
:100930007FB07FB002B010BD00B591B001F046F9B4
:10094000E7480990E7480A90E7480B90E7480C9081
:10095000E7480D9009A801F0C6FA0321684601771F
:1009600000214177807F81088900491C6846817792
:10097000807F042188430146684681771021C17732
:10098000002108A801700321417007A801F0AEFA08
:100990000621684681800921C1806421018141814D
:1009A000062101733221417300218173C1730174E7
:1009B000012101A84173002181730221C17300212B
:1009C000017403214174002181740421C174002148
:1009D0000175052141750021817501F094FAC54921
:1009E000FF20013005F065FDC249091DC24805F030
:1009F00060FDC04801F0F1FBC04801F001FC00209F
:100A000001F045FDFFF74CFC012108A8017600210B
:100A100041760EA90231002005F04BFD0FA90231ED
:100A2000002005F046FD0EA801F07FFD11B000BDCD
:100A300070B5B3480078012847D1B2480068B14981
:100A40004968884241D00024AE494968AD4A1268DD
:100A5000881A142105F03FFD401CC5B2A949496818
:100A6000A84A1268881A142105F035FDCEB200BFDD
:100A700027E0681EA04211DCA249C968A14A126899
:100A800088183146FFF73CFC002806D000259D4819
:100A9000006880199B49086011E014E09949C96811
:100AA000984A126888181421FFF72AFC002805D0FC
:100AB0009448006814309349086000E003E0601C2B
:100AC000C4B2AC42D5DB00BF00BF70BD08B500208A
:100AD000009004E001226946002000F08EFC694687
:100AE0008848103000F056FE0028F3D108BD10B53C
:100AF00085480078401C8449087008460078022820
:100B00000BDB00200870012000F02DFF7D4800F075
:100B100056FE002801D1FFF78BFF10BD10B5002451
:100B200042E0182C32D008DC002C0DD0022C22D050
:100B3000042C21D00A2C2BD113E01E2C27D01F2CE3
:100B40001BD0222C24D10DE00021204600F05DFBBB
:100B50000121204600F08DF90021204600F0F1F936
:100B60001FE000BF0021204600F04FFB012120467E
:100B700000F0E7F915E000BF00BF0021204600F0BB
:100B800044FB0021204600F0DCF90AE000BF08E049
:100B90000021204600F039FB0021204600F069F9D1
:100BA00000BF00BF601CC4B2272CBADB10BD70B5FB
:100BB00004460D460721142000F027FB07211520CD
:100BC00000F023FB002C07D00721122000F01DFBB2
:100BD0000721132000F019FB0620002815DBC206B0
:100BE000D20E01219140494A116000BF00BF00BFF1
:100BF000BFF34F8F00BF00BF00BF00BF00BF00BFEB
:100C0000BFF36F8F00BF00BF00BF00BF4048006848
:100C10000078000900012907090F08433C4979E0E1
:100C2000E7FE00000D000020070200000F0000207A
:100C30004741505F4556545F454E435F4B45590D04
:100C40000A0000004741505F4556545F454E435FE0
:100C500053544152540D0A007570646174652072DA
:100C600073702041434345505445440D0A00000031
:100C7000757064617465207273702052454A4543F3
:100C80005445440D0A00000075706461746520725B
:100C900073702054494D45524F55540D0A000000C1
:100CA00075706461746520727370205355434345B9
:100CB00045440D0A00000000456E61626C65206CC1
:100CC0006174656E63790D0A000000004469736108
:100CD000626C65206C6174656E63790D0A000000BA
:100CE000FC850010268600101B860010658600100B
:100CF00023870010000000207B0500100800002062
:100D00000C000020040100201100002080E100E020
:100D10005000002009680870384800680078802179
:100D20008843E10180221140084334490968087072
:100D300032480068007840218843304909680870CB
:100D40002E48006880780821884308302B490968BC
:100D5000887092002A492B4800F0D6FC2A48406A45
:100D600040210843284948620846006A4021084358
:100D7000254908620620002805DBC206D20E0121A3
:100D80009140224A116000BF70BD72B6FFF7D4FDDA
:100D9000032001F092FB01F0C4FB022001F09AFB5A
:100DA000FFF7BCFE0721142000F02FFA07211520C1
:100DB00000F02BFA00F01CFC15A218A11AA000F0FC
:100DC0001DFC1FA000F01AFC62B601F06AF820A01A
:100DD00000F014FC10E001F08AFC0A2000F0DEF8BC
:100DE0002048807E402188431E49887616231E4A6B
:100DF0000421012001F09CFDEDE7000050000020DF
:100E000024010020040100200080022000E100E015
:100E100031353A34383A34380000000041707220DD
:100E200020322032303139005359443838323120A1
:100E3000424C457363616E2025733A25730D0A0099
:100E40005359442D54454B2E496E630D0A00000042
:100E50006761705F735F7363616E5F7374617274F7
:100E60000D0A000060100050F82A0000D349086005
:100E7000704770B5024620241440630920251446AB
:100E8000AC430125A54028469C00CD4D2C5920752A
:100E9000050A6575050CA575050EE575002B13D0C3
:100EA000002908D1C74D6D7D0543ECB2C54D6D7D60
:100EB000C44E747515E0C34D6D7D85432C46C14D00
:100EC0006D7DC04E74750CE0002905D1BD4C646881
:100ED0000443BC4D6C6004E0BA4C64688443B94D73
:100EE0006C6070BD70B50246202414406309202553
:100EF0001446AC430125A5402846002B13D00029F9
:100F000008D0B04DED7D0543ECB2AE4DED7DAD4E5C
:100F1000F47515E0AB4DED7D85432C46A94DED7D77
:100F2000A84EF4750CE0002905D0A64CE4680443F3
:100F3000A44DEC6004E0A34CE4688443A14DEC6054
:100F400070BD30B50B4620240440610920250446BD
:100F5000AC430125A5402A468C00994D2C59227698
:100F6000150A6576150CA576150EE576002B0AD0C8
:100F70008C00934D2C592271150A6571150CA571C1
:100F8000150EE57109E08C008D4D2C592272150A61
:100F90006572150CA572150EE57230BD10B52023D3
:100FA0000340590920240346A34301249C402246C0
:100FB0008B00834CE3581A73140A5C73140C9C73F3
:100FC000140EDC7310BD10B52023034059092024F2
:100FD0000346A34301249C4022468B00784CE358EF
:100FE0001A71140A5C71140C9C71140EDC7110BD22
:100FF00010B520230340590920240346A3430124AC
:101000009C4022468B006E4CE3581A72140A5C72A4
:10101000140C9C72140EDC7210BD30B501462020F9
:101020000840420920240846A04301248440234666
:101030009000634C2058403010240419257828462D
:1010400065782D022843A5782D042843E4782406EA
:1010500020431840002801D0012030BD0020FCE7CB
:10106000F0B503460C46154620221A4050092026AA
:101070001A46B243012696403146002C0BD182001D
:101080004F4EB258403211720E0A56720E0C9672C2
:101090000E0ED6720AE08200494EB25840321171EB
:1010A0000E0A56710E0C96710E0ED671002D0BD1D4
:1010B0008200434EB258203211760E0A56760E0C3C
:1010C00096760E0ED6760AE082003D4EB258203259
:1010D00011750E0A56750E0C96750E0ED675820099
:1010E000374EB258203211710E0A56710E0C96719D
:1010F0000E0ED6710022002A05DBD706FF0E012650
:10110000BE40314F3E6000BFF0BD10B5202303400C
:10111000590920240346A34301249C4022468B0006
:10112000274CE35820331A72140A5C72140C9C7218
:10113000140EDC7210BD70B500243CE0A000204904
:1011400008584030142141180A7810464A78120293
:1011500010438A7812041043C97809060843A10095
:10116000174A515820310A461378194653781B0202
:10117000194393781B041943D2781206114308408F
:101180000546002D00D114E00C480068002804D06A
:1011900029462046094A12689047A0000849085885
:1011A00040300575290A4175290C8175290EC175D4
:1011B00000BF601CC4B2022CC0DB70BD4400002024
:1011C0003C0000204010005000E100E010B5014656
:1011D000272901DA002902DA0020C04310BDCC071C
:1011E000E40F202904DA4A101B480068835C05E0FC
:1011F00008462038421018484068835C002C01D013
:101200001811EBE71807000FE8E770B5272801DA97
:10121000002800DA70BD0907090FC407E40F202871
:1012200004DA43100C4E3668F21805E00646203EFC
:101230007310094E7668F2181578002C01D00F262D
:1012400000E0F0263540002C01D00E07310E2E466E
:101250000E43167000BFDDE748000020002815DBB4
:10126000C206D20E01219140944A116000BF00BF16
:1012700000BFBFF34F8F00BF00BF00BF00BF00BF64
:1012800000BFBFF36F8F00BF00BF00BF704770B5D6
:1012900004460D460620FFF7E1FF89480068007804
:1012A000000900012907090F0843854909680870EA
:1012B00083480068007880218843E1018022114042
:1012C00008437F49096808707D480068007840211C
:1012D00088437B490968087079480068807808214C
:1012E00088430830764909688870920075497648C5
:1012F00000F00AFA7548406A402108437349486281
:101300000846006A4021084370490862062000F040
:10131000CBF870BD70B56A48006804783020604032
:1013200005466748006805701020204000280DD051
:1013300000BF634800680179634800F01DFA604807
:101340000068C078C007C00F0028F2D070BD70B52B
:1013500004460D461920FFF781FF59484068007880
:10136000000900012907090F084355494968087019
:1013700053484068007880218843E1018022114071
:1013800008434F49496808704D484068007840213B
:1013900088434B494968087049484068807808216B
:1013A0008843083046494968887092004849464851
:1013B000103000F0A9F9192000F076F870BD70B572
:1013C0003F48406804783020604005463C4840680B
:1013D00005701020204000280ED000BF384840681B
:1013E00001793948103000F0C7F935484068C078B5
:1013F000C007C00F0028F1D070BDF0B50B46012426
:101400002404002112E000BF85002D4E7559ED78AF
:101410002D07ED0F002DF7D1850075596D785E5CB5
:1014200035468600264FBE597570491C9142EADB4D
:1014300000E0641E8500224E7559ED786D07ED0FB2
:10144000002D01D1002CF4D1F0BD70B504460D463D
:1014500021011D4A8818294600F09CF970BD70B51D
:1014600004460D4600BF022C01DB002070BD2101A7
:10147000154A881800F0A3F900280AD12001124962
:101480004018C5682101104A881800F0A1F9C0B2BF
:10149000ECE70020EAE70146012901DD0020704762
:1014A0008800074A1058FAE7002806DBC206D20E69
:1014B00001219140014A803A1160704780E100E0CB
:1014C00050000020240100200401002000800220A0
:1014D0002403002010B502460620002815DBC406B0
:1014E000E40E0123A3407F4C236000BF00BF00BF78
:1014F000BFF34F8F00BF00BF00BF00BF00BF00BFE2
:10150000BFF36F8F00BF00BF00BF00BF7648006809
:101510000078000900010B071B0F1843724B1B6872
:10152000187071480068007880239843D3018024A4
:10153000234018436C4B1B6818706B480068007898
:10154000402398434030684B1B6818706648006819
:10155000C078102398431030634B1B68D8706248E2
:10156000006880780823984308305F4B1B689870A8
:101570005E48406A402318435C4B58621846006A34
:1015800040231843594B18620620002806DBC40686
:10159000E40E0123A340534C803C236000BF10BDE8
:1015A000F0B50B4601242404002112E000BF8500A1
:1015B0004D4E7559ED782D07ED0F002DF7D18500B3
:1015C00075596D785E5C35468600474FBE5975701B
:1015D000491C9142EADB00E0641E8500424E7559C9
:1015E000ED786D07ED0F002D01D1002CF4D1F0BD89
:1015F00010B508210020FFF76DFF10BD0FB438B5FE
:1016000000240498002803D138BC08BC04B0184753
:1016100005A800903648009A049904F099FEC4B2D7
:1016200000200090802C00DD8024224630490020DC
:10163000FFF7B6FF00BFE7E70FB438B50546002453
:101640000598002803D138BC08BC04B0184706A888
:1016500000902748009A059904F07AFEC4B2002051
:101660000090802C00DD8024224621492846FFF787
:1016700097FF00BFE7E7F8B505460E46174600247A
:10168000002D02D02846FFF7B9FF00241BE02046BA
:10169000E117490F0918C910C900611A03D1A1B295
:1016A00014A0FFF7ABFF315D14A0FFF7A7FF601C8C
:1016B000C117490F0918C910C900411A02D111A058
:1016C000FFF79CFF641CBC42E1DB2046E117490F99
:1016D0000918C910C900611A02D00AA0FFF78EFFCD
:1016E000F8BD000080E100E05800002000800220EA
:1016F000240500205B253034785D200025303278C9
:10170000200000000D0A0000002343600360826097
:10171000C1607047416801607047F8B504460F46E4
:10172000154660684019A168884219DBA088281A0C
:1017300086B26268E16888183246394604F047FE8E
:10174000A81B85B22068A84202DC2088401E85B212
:10175000B9192A46E06804F03AFE65607019F8BDD0
:101760006268E16888182A46394604F030FE6068ED
:10177000401960602846F2E702465368581C5060E2
:10178000D068C15493685068984201DB00205060D3
:1017900001207047024653681068984201D100202A
:1017A00070471368581C1060D068C05C087093685C
:1017B0001068984201DB002010600120F0E701462C
:1017C0004A680868904201D1012070470020FCE778
:1017D000014600224B680868984200DD8A68486824
:1017E00080180B68C01A704710B56E480068007EFC
:1017F00040084000401C6B49096808766A48006848
:10180000002802D068490868804710BD10B56548B7
:101810004068007E40084000401C624949680876E4
:1018200061484068002802D05F494868804710BD81
:1018300010B55C488068007E40084000401C594953
:101840008968087658488068002802D05649886818
:10185000804710BD10B55348C068007E4008400066
:10186000401C5049C96808764F48C068002802D01B
:101870004D49C868804710BD10B54A480069007ED0
:1018800040084000401C47490969087646480069FD
:10189000002802D044490869804710BD01468800ED
:1018A000404A10580078C007C00F7047F0B5044692
:1018B0000E4615462046FFF7F1FF002801D1052C02
:1018C00001DB0020F0BDA00037490E50042C13D1DD
:1018D000A00034490A58517917790902394308465A
:1018E000917909040843A1002E4A51580D712A0A22
:1018F0004A71280C88710EE0A0002A4909584879DD
:10190000097900020843A9B20846A100254A5158A6
:101910000871000A4871002B0BD0A000214908581B
:10192000007F40084000401CA1001E4A5158087723
:101930000CE0A0001B490858203000784008400007
:10194000401CA100174A515820310870A0001549C9
:101950000858007840084000401CA100114A515826
:1019600008700120AEE700B503461846FFF796FF62
:10197000002801D0052B00DB00BD9800094908585C
:101980000078400840009900064A5158087000BF8E
:10199000F2E701468800034A10580078C007C00FDC
:1019A0007047000060000020A405002070B50446C8
:1019B0000E4615460E20634909680870681C614987
:1019C000096848705F48006884702A4631465D485F
:1019D0000068C01C04F0FBFC70BD08B55AA0FFF7FE
:1019E0000DFE00F0C8FD002802D00020009001E0AC
:1019F00001200090012269461620FFF7D7FF08BD9D
:101A000038B50446002500BF2CE0E01C415D52487B
:101A100002790079401CC3B24F48037120388154C9
:101A200020300079202819DB4B492039096A480108
:101A3000494A203A202100F04AFE002802D0002026
:101A4000009001E0012000900021434801712038FE
:101A5000006A401C40492039086201E000200090E3
:101A6000681CC5B2A078A842CFDC012269461720C5
:101A7000FFF79CFF38BD38B5044637480079002889
:101A800008D0354A1179203A126A5001324A203A78
:101A900000F01DFE204604F0FBFC0546607921792C
:101AA0000002084303462A460021084600F01AFEB9
:101AB000002802D00020009001E0012000900122C7
:101AC00069461820FFF772FF38BD70B504460E4610
:101AD00025462878162804D017280BD018281ED1A0
:101AE00016E00020FEF725FCFFF777FF01201B49D9
:101AF000087014E0A81CFFF783FF1848007800283E
:101B000002D102201549087000201549087006E02E
:101B1000A81CFFF7B0FF03201049087000BF00BFEA
:101B200070BD70B505460C46064800684078821CBA
:101B30000C49284604F04BFC024800684078801CA1
:101B4000207070BD7C000020436D64467745726153
:101B500073650D0A00000000D80500207400002005
:101B6000750000207600002007488047074800479E
:101B7000FEE7FEE7FEE7FEE7FEE7FEE7044805496D
:101B8000054A064B70470000A91B0010C100001059
:101B9000501B0020506B0020505B0020505B002049
:101BA00003480449086070470148024908607047CB
:101BB00040787D0180000020FE49202208781043F3
:101BC000EF221040042210430870704710B5FA4805
:101BD0008047002802D002F001FE012010BD10B5A0
:101BE00002F05FFE10BDF44928310847F2493C314C
:101BF0000847F1496C310847F0490847EF495C3123
:101C00000847EE496A310847EC4976310847EB4905
:101C100086310847E94994310847E849A231084725
:101C2000E649AE31084730B4E54CA44630BC6047C5
:101C3000E34874300047E3480047F8B5E24DCF224F
:101C40002968E24C08780026104008702068E049B6
:101C500018308847286822680178127F090912071E
:101C60000901120F114301700907090FBF2701294C
:101C700021687DD00A4622314B7809781B020B433C
:101C8000114620310B711B0A4B710378117A3B40CE
:101C900089010B435906490E017022684178403290
:101CA000127A8909921D92068901920E11434170A0
:101CB00021680622801C093104F089FB2168482034
:101CC000425C002A04D028684931083004F07FFBC8
:101CD0002168BF4A7020405C323A713190472868D1
:101CE000BC4A41788906890E891C9047286801788A
:101CF00009090901091D017022683940127AD207C9
:101D0000520E11430170226841782032127A8909FB
:101D1000921D92068901920E11434170216806229C
:101D2000801C093104F053FB21682820425C28689C
:101D30002931083004F04BFB2868A74A417889060E
:101D4000890E891C9047256800206F7F0121814002
:101D50000F4204D0E97F0B2251438E19761C401CA0
:101D60000328F3D32C46203460782178000200E069
:101D70001AE0084313214843401CB04206D2701EAB
:101D800004F09FFB401C2070000A6070607821788E
:101D900000020843022803D2022020700020607055
:101DA000287F012824D03AE00B4620318A79CA7175
:101DB000197A0278C9073A40490E0A43027051065F
:101DC0002268490E6032127CD201114301704178C1
:101DD0000622890989010C3141702168801C093172
:101DE00004F0F5FA286821680622083071316DE7A1
:101DF000E079002813D06078227801021143132083
:101E00004143A079491CC00304F05BFB401C06461B
:101E10007F2104F056FB401CC1B2E1711EE06079E5
:101E200021790002084331D0607822780102114301
:101E30001320414328462230427803781002184389
:101E4000C003491C04F03DFB401C06467F2104F002
:101E500038FB401C81B22171080A6071304604F0E1
:101E600030FB401C7F2800D97F200121E975A97F24
:101E700000916178237809021943584CEA7FC0B277
:101E80003B46A047554834308047F8BD0020544CAD
:101E9000E875034602460121A047F8BD49491A31B9
:101EA00008474848F43000474E48004738B5049C7E
:101EB00000944C4C0E34A04738BD30B4494CE83443
:101EC000A44630BC604710B502F0E0FD10BD10B56F
:101ED00002F0F8FD10BD4349A431084742480047CD
:101EE0004148323000474049463108473E49B23107
:101EF00008473D49C23108473B4AD032104710B528
:101F000001F0D6F810BD3849FC3108473749084779
:101F100036490E31084735493631084710B501F0CA
:101F2000A6FB10BD10B503F0F8F910BD2F48DC304A
:101F300000472F480068C0788007C00F704770B511
:101F400022480068817C427C0802104312D0FFF7CF
:101F5000F0FF184C022501280DD12448DC308047C1
:101F60002449884207D12178012029430143217067
:101F700003F0D3F970BD20788021084328432070F6
:101F800070BDF8B50B48C079000679D50F480668D2
:101F9000B17C707C0F0207430648057801D0A80782
:101FA00001D468076CD5034C207BE17A0002E41C65
:101FB000084321E0AA160020DF5600001558000053
:101FC00027590000CD5B0000B0000020AC000020CD
:101FD000451D00002B26000047270000971B00002E
:101FE00031540000F55C00005B5E0000675F00009C
:101FF000A40000200604000042D0002F40D06078EA
:102000002178000208432AD1307CF17B000208438A
:1020100004F025FF0022F74B04F024FF04F0D2FE69
:1020200080B278430A2104F056FA4004010C217072
:10203000080A6070307DF27C000210430A2242439D
:10204000914203D3401E2070000A607060782178AE
:102050000002084303D10120207000206070FD21A0
:102060000D40E54801210D430570002003F055F9AE
:102070006078227801021143E14BE04A0920984739
:10208000F8BD10B50F21DC4804F0FEF910BDF0B525
:1020900004468DB0401C04F0FBF9D74E00253E3EAF
:1020A000024604282AD0D448D31F0178FF3BFA3BCC
:1020B00018D001239B039A4279D1D1490A202431B7
:1020C000884770780621484381190A22601D891CBF
:1020D00004F07DF97078401CC0B270700A2876D385
:1020E000757074E0C279002A71D0CA066FD4A379E2
:1020F00066791A023243012A05D068E0757035709E
:10210000FFF7BFFF63E08278521E1206120E827044
:102110004ED0B949437888794E7902023243887AA1
:102120004E7A00023043491C012B47D0801A0872B6
:10213000000A487200060B7A000C1843831A6A469C
:1021400013835083AC4A167BD27A360216436A4612
:1021500096834A7B0F7B110239436A46D1831380F1
:1021600050809680D180137232205072002090727D
:10217000D572280A1073012050730020907302203A
:10218000D073002010740320507400209074042039
:10219000D074002010750520507500209075994965
:1021A00010468847974906A81E3188470FE007E088
:1021B000027A827040221143017008E08018B6E76D
:1021C000880604D59004000F01D0FFF7DAFE8E498F
:1021D0002046096988470DB0F0BD10B50446001DC2
:1021E00004F056F988490861211D884804F061F916
:1021F000844920465C31884710BD82497E310847BA
:102200008049D43108477F4ADC3210477D4AE432A6
:102210001047794900203E390A7849788A4200D926
:102220000A200818801A401EC0B2704700B5FFF798
:10223000F0FF002804D1704800213E384170017041
:1022400000BDF8B50E46074671491C4615460120EB
:102250008847002807D0FFF794FE23462A463146D8
:10226000384602F0EFFBF8BDF8B50E460446684963
:102270001F46154601208847002814D0022C03D1A0
:10228000FFF7C7FF002809D0EAB25E4D3B46314652
:102290002046F435A847012807D004E00A21584B0E
:1022A0005C4A084698470020F8BD022C12D1524CD7
:1022B00006213E3C20780A46484300193146801CDE
:1022C00004F085F82078401CC0B220700A2801D3A1
:1022D000002020700120F8BD70B50D460446112184
:1022E000401989031646884201D3002070BD4A4830
:1022F0000068213004F0CCF8484B001932462946DA
:10230000984770BDF8B50646EFF3108472B6424D9B
:102310002868213004F0BCF88019414A0121904717
:1023200084F310883E4F0024F63FEFF3108572B619
:1023300039480068213004F0ABF8311940183949A8
:1023400000230A192021B84785F3108801200003D3
:1023500020348442E9DBF8BDF7B5070501993F0D4C
:10236000002912D0029900290FD027498978002925
:102370000BD101997A18012109038A4205D8019AE3
:10238000112382181B039A4201D90020FEBD0025AB
:10239000C41BEFF3108672B61F480068213004F0AA
:1023A00077F8611940181F491C4B4A19202198479A
:1023B00086F310880120000320358542E9DB1948A7
:1023C000019AC019029904F002F8114901208847C6
:1023D00000280AD0EFF3108072B60B4901228C80DE
:1023E0008A7080F310880120FEBD2046FFF78AFF27
:1023F000F9E700000000F43FAA1600203F1F00107C
:10240000D3330000575F0000840000208F200010AD
:10241000458500002D220010A80000208F16000026
:102420009F1800006C060020FA490847F94A083254
:10243000104738B5049C0094F64C1034A04738BDC2
:1024400030B4F44C1C34A44630BC6047F14924310C
:102450000847F04A2C321047EE4A3432104730B465
:10246000EC4C3C34A44630BC6047EA4B443318473C
:10247000E84B4C33184730B4E64C5434A44630BCD7
:102480006047E4495C310847E24864300047E1496D
:102490006C310847E0490847DF4908310847DE4901
:1024A0008C310847DC48BE300047DB48E23000474B
:1024B000DA4A1047D9495231084710B502F0C8FE30
:1024C00010BDD64964310847D4496C310847D34917
:1024D0007631084710B502F057FA10BDD0480047D2
:1024E00070B5D048002480682546807A4006C60F23
:1024F00072B6CB488047022002F046FA641CA4B2B0
:10250000FA2CFBD30024304602F01DFA002801D03B
:10251000012503E0641CE4B2032CF4D362B6284620
:1025200070BD10B502F030FE10BDBC49A4310847A3
:1025300030B4BD4CA44630BC6047B848F6300047C4
:10254000B74814380047B6491C310847B4484230F0
:102550000047B3484C300047B1480E30004710B533
:10256000AF488047B14C0120A0470020A04710BDD4
:10257000AF4908707047F8B5002472B6AD4A012122
:10258000AD4B09032046984762B6AC4E306805460D
:10259000093003F07DFFA7494718E878002811D0DB
:1025A0002846313003F074FF064628462D3003F0EC
:1025B0006FFF301A4002060E3878A14F9F4D002859
:1025C00057D073E02846293003F062FF06462846BC
:1025D000253003F05DFF301A4002060E3878984F20
:1025E000964D00280CD026E072B62868293003F0FA
:1025F0004FFFE10340180821B84762B6641CE4B2FB
:10260000B442F1D32D682846293003F041FF064635
:102610002846253037E072B6E203B01819E072B6EA
:102620002868253003F034FFE10340180821B8473B
:1026300062B6641CE4B2B442F1D32868064629307D
:1026400003F026FF05463046253039E072B6E20336
:102650008018B84762B60120F8BD72B628683130DC
:1026600003F016FFE10340180821B84762B6641C66
:10267000E4B2B442F1D32D682846313003F008FFAC
:10268000064628462D3003F003FF301A4004410F60
:10269000C1D1E0E772B628682D3003F0F9FEE103FE
:1026A00040180821B84762B6641CE4B2B442F1D3C2
:1026B00028680646313003F0EBFE054630462D30E3
:1026C00003F0E6FE291A4904490FBFD1C3E7544B72
:1026D000C23318475B4B184730B45A4C6634A44693
:1026E00030BC604730B4584CA44630BC6047F8B5A5
:1026F000564880474B4DA878002809D0A888FFF796
:1027000001FEEFF3108072B60021A97080F31088EB
:102710004F4CE079002834D0000610D520784107CE
:1027200005D5FFF72EFC2078FB21084006E00006C7
:1027300005D5FFF726FC20784006400E2070207853
:10274000444F454E41060AD5BF2108402070022063
:102750006946088002466B4639460020B04720781B
:10276000C1070ED0400840002070800701D504202A
:1027700000E005206946088002226B4639460020A9
:10278000B0476878C10704D0400840006870E86826
:102790008047F8BD3148004730483A3000472F485D
:1027A000523000472D486A3000472C486E300047B1
:1027B0002B498A69120A120202434A61087C0122EB
:1027C000104308747047F8B504462648017DE206B8
:1027D00049094901D20E114301750221224D7F2082
:1027E000A847214E25206946223EB0476846017819
:1027F000214301702520A84769462520B047F8BD30
:102800001A481B4900684118487C097C00020843AB
:10281000704700005D6100008B6200009163000062
:102820006B66000084000020E9310000692D000083
:102830009A0000206C0600208F160000A8000020DF
:102840009F1800001B68000061690000D16400004F
:10285000AA1600200002000031540000713C000064
:102860000010005040600250A7290000AC0000207A
:1028700063050000F8B50546EFF3108472B6002139
:10288000F84E7F20B047F74A17206946223A904712
:10289000684601789F200140A807400E0143684622
:1028A00001701720B04784F31088F8BD38B5EFF3F6
:1028B000108472B60021EB4A7F209047E94A172026
:1028C0006946223A904784F31088684600784006AB
:1028D000800F38BDE4490840E4494A6882434A60B1
:1028E00096E7E1490840E1494A6802434A608FE7B8
:1028F0001CB56A4690801180DD485080D0806946C2
:10290000012001F0C1FB1CBDDA48004770B5054647
:10291000D9480C468268107AFB2108401072D749CA
:1029200028468847D54A214628465E3A904770BDDA
:1029300010B572B6D14C3E34A047D1480068012191
:102940004A02104206D1CF48027ED20702D0027E50
:102950000A43027662B6012010BD70B5044603201A
:102960000003844221D9C8480568E878002802D0CD
:1029700001280AD01BE02846253003F089FD0646D1
:10298000A04214D82846293008E028462D3003F00C
:102990007FFD0646A0420AD82846313003F078FD74
:1029A0000146801B0818A04201D3002070BD012001
:1029B00070BD10B572B6B54A904762B610BD70B51D
:1029C00014460D460646FFF7C8FF002806D072B62B
:1029D0002246AF4B29463046984762B670BD10B5C7
:1029E00072B6AB4BAE33984762B610BD10B572B637
:1029F000A64CF63CA04762B610BDF7B50025C8024C
:102A000088B00E462C46070C11E0089861010818A2
:102A10009F4B6A4620219847002069460A5C401C6B
:102A20005219C0B295B22028F8D3641CA4B2BC429B
:102A3000EBD3F6060898F60E61010818944B6A4627
:102A4000314698470020694604E00A5C5219401C50
:102A500095B2C0B2B042F8D30A98854202D10120A3
:102A60000BB0F0BD0020FBE7FFB50E460121074685
:102A70000903874B81B0874A002098478549352252
:102A800008468C3803F0A3FC8248833803F000FD2D
:102A90008049572244187F482146573803F097FC55
:102AA0002021601C03F0F0FC0025002F10D0002036
:102AB000395C00290AD02218401CC0B2517020286D
:102AC000F6D305E02118401C4D70C0B22028F9D380
:102AD00020460521213003F0D7FC002E12D0002023
:102AE000315C00290CD022182032401CC0B2517039
:102AF0000528F5D306E021182031401C4D70C0B2E6
:102B00000528F8D321462631039803F0D2FC21464C
:102B1000223104980872000A487201215B4A25702C
:102B20000020904701215A4B09030020594AAE3337
:102B30009847012005B0F0BD4A4A1047494A223A59
:102B40001047F0B5027889B0002A7DD05249CA7189
:102B500042780A72002A01D0042A01D904220A729A
:102B6000C2788478130223434B4A1C0A537294722E
:102B70004479057924022C431546EC72260A2E73FB
:102B8000A646C4798579200228435073040A8446F6
:102B900042489473046808252746207CE47B0002A1
:102BA00020430124521C83424C7008D9181A07E0B4
:102BB0001471200A01E01571280A507107E0C01A4B
:102BC0000E7AB0426FDA1471260A56710872087ACA
:102BD00088700D70002B42D05079117900020843A3
:102BE000191A6846018343836146C1837146818314
:102BF000B87C797C0002084302D0002002F08DFBF3
:102C00006846018B0180428B4280828B8280C28B1E
:102C1000C28001723221417200218172C17201733E
:102C20004473210A81730221C173002101740321BD
:102C30004174002181740421C174002101750521B2
:102C400041750021817500E031E01549884714493C
:102C500006A81E31884707490920EA318847012024
:102C600009B0F0BDA7290000FCFF0FFD00100050C7
:102C7000480800000D33000084000020AB31000044
:102C800000E100E000A00050A80000209F18000014
:102C90008F1600006C060020AA160020AC00002051
:102CA000575F0000FFE7F600B04284DA80E70020BB
:102CB000D6E7FEB50746F24801780A077DD5F72228
:102CC00011400170BA797C1C7B7912021A437AD0C8
:102CD000C279120677D5102211430170880672D48A
:102CE000E848804705466079217900020843FF1CC7
:102CF000002832D004F0B3F806460091787839788D
:102D00000002084304F0ABF8DF4F00223B4604F01A
:102D1000A9F83246009B04F0A5F80090DB48019129
:102D20000068017CC27B0802104304F098F800227E
:102D30003B4604F097F807460E46607A217A000277
:102D40000843401B04F083F83A46334604F08AF8FF
:102D5000019B009A03F0E2FD24E0787839780002C4
:102D6000084304F0F9F90646C8480068017CC27BB4
:102D70000802104304F0F0F9314605F089FB04F035
:102D800095F90022C04B04F06DF807460E46607AB4
:102D9000217A00020843401B04F059F83A463346B2
:102DA00004F060F80022BA4B03F0E8FD04F00AF8E2
:102DB0000104090C00D1012101E00DE003E0B64B54
:102DC000B44A09209847032069460881022211026B
:102DD000B24C02AB0020A047FEBD38B5B04C207805
:102DE000002804D1AF49684688470120207001209F
:102DF00038BD10B50B30102801D9FF2010BDC4B26A
:102E0000A54B20469847204610BD10B50B30102822
:102E100001D9FF2010BDA049C4B220462431884703
:102E2000204610BD072801D90020F1E4012282408C
:102E30009B4843781A434270C1600120E8E49348FC
:102E40000068C07DE4E49148974900684118487CD7
:102E5000097C00020843DBE410B5030005F0C1FA69
:102E600009061C36506A849EB0CAE60000217F2005
:102E7000FFF762FE00213020FFF75EFE01217F2078
:102E8000FFF75AFE1E216320FFF756FE1F216D201B
:102E9000FFF752FE882114E000217F20FFF74CFE4F
:102EA00000213020FFF748FE01217F20FFF744FE7C
:102EB0001E216320FFF740FE1F216D20FFF73CFE1F
:102EC0008A216120FFF738FE8121ACE000217F20BC
:102ED000FFF732FE00213020FFF72EFE01217F2078
:102EE000FFF72AFE1E216320FFF726FE1F216D201B
:102EF000FFF722FE8A216120FFF71EFE832192E068
:102F000000217F20FFF718FE00213020FFF714FE7C
:102F100001217F20FFF710FE1E216320FFF70CFE2A
:102F20001F216D20FFF708FE8A216120FFF704FEB4
:102F3000872178E000217F20FFF7FEFD002130206F
:102F4000FFF7FAFD01217F20FFF7F6FD1E21632028
:102F5000FFF7F2FD1F216D20FFF7EEFD8A216120B2
:102F6000FFF7EAFD8F215EE000217F20FFF7E4FDFF
:102F700000213020FFF7E0FD01217F20FFF7DCFD7D
:102F80001E216320FFF7D8FD1F216D20FFF7D4FD20
:102F90008A216120FFF7D0FD9F2144E000217F209E
:102FA000FFF7CAFD00213020FFF7C6FD01217F2079
:102FB000FFF7C2FD1E216320FFF7BEFD1F212AE09F
:102FC00000217F20FFF7B8FD02213020FFF7B4FD7C
:102FD00001217F20FFF7B0FD1F216320FFF7ACFD2B
:102FE00003216D20FFF7A8FD8A216120FFF7A4FDD2
:102FF000B02118E000217F20FFF79EFD0221302044
:10300000FFF79AFD01217F20FFF796FD1F21632026
:10301000FFF792FD07216D20FFF78EFD8A216120C9
:10302000FFF78AFDBF216520FFF786FD10BD1F4910
:1030300009686031087453E410B500280ED00128E7
:1030400012D0022816D0032807D102217F20FFF7D3
:1030500073FD40212920FFF76FFD10BD02217F2065
:10306000FFF76AFD4621F5E702217F20FFF764FDA7
:103070004421EFE702217F20FFF75EFD4221E9E7CF
:10308000AA160020051B00000000F43FAC00002041
:1030900000002440B91B0010D3330000315400005D
:1030A000840000209D2C000063050000A400002087
:1030B000FE490A79002A00D008707047F8B5FB4C29
:1030C00063695979002915D0B121C95CC91F092943
:1030D00056D8014618461022D93003F078F9E07826
:1030E000002502210128606905D04279D2060FD55A
:1030F000EF488047F8BDCA22125C012AFAD1C27992
:10310000012A01D1C57137E0002AF3D1C171F8BDA0
:10311000C279012AF8D1CA21095C01292AD1E069C2
:103120008026017801208840216A0968884300D1FF
:1031300081260027DF4880476169C919E0317F1C7B
:10314000FFB24876102FF5D3606933460146E93166
:1031500002460091FF31F9321131D74EFF305A301B
:10316000B047E0690078142803D261690120C87172
:1031700001E06069C5716069D049E9308847F8BDF0
:10318000CB4B0622002101208C3B9847F8BDF1B5BE
:10319000C64CA4B06069417900292BD0CA210A5CD1
:1031A0002146C64F49691C370025E931012A23D041
:1031B00006460246713609320491711E531E01966D
:1031C000BE4E02930392CA33C23200917A36FF3068
:1031D0000A302499B047616910220846D930E93194
:1031E00003F0C8F800287CD0B14B04220021012054
:1031F0008C3B984725B0F0BD0C950D950E950F951D
:10320000119512951395149542790126D206002A3C
:1032100003DBA64A1379002B7ED0F930B847A34CC4
:103220002079002822D01DA8019500906369A44F41
:1032300018460146FF30FF31FA305A31F933249AEB
:10324000B8471DA8013003F023F918A9097D000231
:1032500008439C4903F035F90422019111049A4F67
:1032600001AB0020B847207800287DD0676907228D
:103270003946093115A803F0AAF8394607227131F9
:1032800017A803F0A4F8387A002810A86DD0867625
:103290007020C05D002818A868D0867004A83A463F
:1032A0000190F9321046844E15ADC03017AB009531
:1032B00046362499B0476069102204A9813003F092
:1032C00086F808AE0FCE19AE0FC6616903220E460E
:1032D00021A8D33103F07BF803223146CC3122A858
:1032E00000E073E003F073F83046FF30EA300390FB
:1032F00017AF21A96846A2C03146714EF93111AB12
:1033000019A86A3E249AB047626922A91046FF3084
:10331000DA300CAB019700E00AE0009103900295CF
:1033200019A8F9322499B04768490020884761E715
:103330005E4A3446D2698023127894405B4A126A0E
:103340001268944300D1812300910146FF315A3124
:10335000594CFF30FA30249AA04754481022406953
:103360000146E931D93002E025E02BE02CE003F002
:1033700001F8002801D004221EE04C4C6069F930AD
:10338000B847E0690178491CC9B201701429CED34D
:10339000216A0868020C08A8827410A88271088843
:1033A000020A08A8427410A84271097808A801749A
:1033B00010A8017133E70C223D4B002101208C3B0A
:1033C000984717E7857663E7857067E760690026A9
:1033D000F930B8476369384F1946FF330A33363F2F
:1033E0001846F931249AB847606910230146A03184
:1033F00006E017183246FF320A32761CBD54F6B288
:103400004A7C9F1AB742F4DC304900208847606943
:103410004179490849004171ECE6F0B50446C078AD
:1034200085B0072807D2224B0622002101208C3BC1
:10343000984705B0F0BD1D4E01217069CB22115493
:10344000002506222146CC3002F0C1FF112071690F
:1034500040010818A0314E7CC17E827F437F0492D8
:103460000A07D20F009203934A07CF06D30FFF0F2C
:1034700002968A0701970E4E920F817E407E643E2F
:10348000B047A07810260007002843DA074A112128
:10349000506949014718FB7E19073BD50121CA2213
:1034A00011545A0715D4A278520711E09800002051
:1034B0005DA100004D250000B3AA000055A9000041
:1034C000FFAB000040420F0031540000F733000012
:1034D0000ED57B7E22789D005B19FE4D5B19D55C75
:1034E000882D02D0102D03D005E0FB4A117102E0B7
:1034F0004179314341714179C90634D50B21C90164
:103500004018C07D01282ED16421F54BF34A0520D7
:10351000984728E0F04F00217869CA221154112100
:1035200049014118CA7E520702D4A278520709D530
:10353000497E22788B00C918E64B193BC918555CA7
:10354000102D02D1417931434171E44AE44B943A60
:10355000E449002098476079C00704D078690322C5
:10356000817911438171607980070BD5DA48112187
:10357000406949014118897F890703D581790C2267
:1035800011438171207980070BD5D34811214069FF
:1035900049014118497F890703D5417980221143A8
:1035A0004171CD4841690846A0304674E278102A3E
:1035B00000D24274487901221043CB4C4871202D2F
:1035C00008D0402D00D034E700231A4640210020C7
:1035D000A0472EE700231A462021F8E770B5BE4C1D
:1035E0000D466369002825D0A0690C218171194618
:1035F000FF3120225A31C01D02F0E9FE6169A06945
:10360000FF31202227307A3102F0E1FE0621B74A4D
:10361000412090470B216069C9014118C97D0029EB
:1036200007D14079C00602D42079012801D1AB48E6
:10363000804770BD1846FF302022FA3002F0C7FEE6
:103640002022AB4B6069A9180E46C01802F0BFFEDD
:103650006369A84C1846FF309A30FF33324629463A
:10366000BA33A04729460120FFF7B8FF70BDF0B577
:10367000994C0646606985B04179C9072AD0FF3068
:1036800010210A3002F000FF6069320AC11DF931D1
:103690004E728A72320CCA72320E0A73CA21095CE7
:1036A0000125012918D00346064601460933E936AB
:1036B0005A1E713101AF4EC7491E0091C933C33242
:1036C00089318D4EFF300A30B0476069C1790229D7
:1036D0002FD00BE00020ACE6206A00210660E269F2
:1036E000802311706269D179022904D06069C1799F
:1036F00000292AD02AE000682946814300D181238D
:10370000E168002040314E7D1718E037401CC0B200
:103710007E761028F7D36069774E0146E93102467C
:103720000091FF31F9321131E436FF305A30B047A1
:10373000CBE771497A39E93088476069CA21095C69
:10374000012902D00021C17100E0C571012070E69D
:10375000F8B5614C694F6169CA19517B127B090246
:103760001143009102F0ADFE0646A0780D460028F8
:1037700026D0634908208847002804D060490220E9
:10378000884700280CD06069C119487B097B00027A
:103790000843C01C704384B2002D1AD0601916E093
:1037A0006069C119487B0A7B0102A06C1143C21CED
:1037B000891871438CB2002D0BD02818001906E02F
:1037C0000098C01C704384B2002D02D06018C01C49
:1037D00084B24C488047A04201D20020F8BD0120AD
:1037E000F8BD70B50546D01D14460E4680B2FFF7F1
:1037F000AFFF002810D038481B2180692A0A817148
:10380000C571027222463146093002F0E0FDE41C27
:10381000364AA0B20421904770BD70B50546D01D50
:1038200014460E4680B2FFF793FF002810D02A48B6
:103830001D2180692A0A8171C571027222463146B2
:10384000093002F0C4FDE41C284AA0B204219047CC
:1038500070BDF7B5204E294970690024091F25461F
:10386000401802F015FEB2691121917183784678F3
:103870001B023343009E421C0146B34258D3019EB3
:10388000B34255D80E79CF783302029E3B43B34200
:103890004ED10B78172B55D00F4E0623B669F37116
:1038A000577813783F021F43062363439E193772EC
:1038B0003F0A77725679177936023E43064FBF6941
:1038C000DF19BE72360AFE72034ECF79B6699E19B1
:1038D000377319E0A3880010980000205DA1000054
:1038E000D3330000B80B000031540000ED7F00001E
:1038F00019020000EF2A0000CFA9000061030000B8
:103900006994000043600000F74F0E7ABF69AD1D57
:10391000DB195E73F44BF54E5B69ADB29E19737C97
:10392000367C1B02641C3343AE1DE4B2B34225D384
:10393000537916791A02EE4B32439A421ED001781F
:10394000081893E7002C1BD1E74814238069C91D90
:10395000C371547816782302334303721B0A4372EF
:10396000537914791A0222438272120AC272102207
:103970000C3002F02CFD1435ADB201E0002C05D066
:10398000AD1CDC4AA8B204219047FEBD0A22DA4BE6
:10399000102000999847FEBDF7B5D34ED7497069FE
:1039A00000252C46401802F073FDB16909228A7186
:1039B000837846781B023343009E421C0146B34283
:1039C00032D3019EB3422FD80E79CF783302029EB4
:1039D0003B43B34228D10B78172B2FD0C24E042380
:1039E000B669241DF371577813783F021F43AB006B
:1039F0009E1937723F0A7772BB4ECF79B669A4B26F
:103A00009E19B772B84F0E7ABF696D1CDB19DE7252
:103A1000B54BB64E5B69EDB29E19737C367C1B02CA
:103A20003343261DB3421ED3537916791A02B04B85
:103A300032439A4217D001780818B9E7002D14D103
:103A4000A94812228069C2718B784D781A022A43E4
:103A50000272120A427210220A30C91D02F0B7FC2B
:103A60001234A4B201E0002D05D0A41CA14AA0B2DA
:103A700004219047FEBD0A229F4B082000999847D9
:103A8000FEBDF7B5984E9D497069002508312C465A
:103A9000401802F0FDFCB2690921917183784678E3
:103AA0001B023343009E421C0146B34242D3019E97
:103AB000B3423FD80E79CF783302029E3B43B342E4
:103AC00038D10B78182B3FD0874E0723B669E41DF9
:103AD000F371577813783F021F43EB005B1B9E196D
:103AE00037723F0A7772804E4F79B669A4B29E1939
:103AF000B772CE798F7936023E437B4F6D1CBF691A
:103B0000EDB2DF19FE72360A3E73774E0F7AB66950
:103B10009E197773744F4E7ABF69DB199E73724B8F
:103B2000724E5B699E19737C367C1B023343E61D23
:103B3000B34227D3537816781A026D4B32439A4218
:103B400020D001780818A9E7002D1DD1664815225C
:103B50008069C2718A784B7812021A430272120A83
:103B600042724A798272CA798B7912021A43C272FE
:103B7000120A027310220D30083102F028FC1534AD
:103B8000A4B201E0002D05D0A41C5A4AA0B2042121
:103B90009047FEBD0A22584B082000999847FEBD69
:103BA000F7B5514E55498AB0706908310990002522
:103BB000401802F06DFC0446B6690920B071072078
:103BC000F07127782046182F77D0417A207A0902A1
:103BD0000143A37860781B0203430A9883426BD3A6
:103BE0000B98834268D80C98814265D14349099863
:103BF0000C31401802F04CFC0190E079A1790002F0
:103C000008430C212F464F43B9190872000A487225
:103C100035480021806A3A4B0170E079A2790002B0
:103C200010436A469081D1810A3202A9984708223E
:103C3000314ED101002002ABA436B0472A48806A39
:103C4000007801283CD0E079A379294A0102194380
:103C5000019EF078B3780002184388426DD1307924
:103C6000400604D5244820388047002836D03079D3
:103C7000810606D5C0062049C00E103988470028A5
:103C80002ED0E079A179000208431D4A0221343A7E
:103C90009047002836D030793178C00970783BD011
:103CA000000208431538C4B20F48314680692246E5
:103CB0003818153139E000E052E0417D207D86E77B
:103CC000094CE06A216B0678A069324638180A3040
:103CD00002F07DFBA069B61CC67137E0052200E04A
:103CE0000C220A9913E000009800002063050000F0
:103CF000FFFF0000ED7F00008D5300005D0300001A
:103D0000F93E0000A0786278010211430222F94BCB
:103D1000082098470DB0F0BD00020843C01FC4B290
:103D2000F548224680693818F11D0A3002F04FFB31
:103D3000F148A41C8069C47108E0904206D07078F4
:103D40003378000218438019019081E76D1C0CD074
:103D5000E94804218069E94AC079801C9047D9E785
:103D6000E748834201D03C192BE70A22B9E710B596
:103D7000062912D0417C037C0A0241781A430B02C7
:103D80000478C17880780902234301438B4207D924
:103D9000012219460820D74B24E041790379EBE74B
:103DA0000520C002824202D0401C824203D1184644
:103DB000FFF7F2FD10BDD348824203D11846CD4B28
:103DC00018330FE0CF48401C824203D11846FFF75A
:103DD00058FE10BD100A2928184602D0FFF7E0FE51
:103DE00010BDC94B984710BDF0B5C34C0746A0782D
:103DF00085B00D4600287DD0C44E0820B04700286D
:103E000079D00220B047002875D1EFF310800490DC
:103E100072B6A06C2818801C86B2BD48804701008D
:103E2000BC4803D0E168C978C90708D0804700289A
:103E300075D1B74810308047761CB0426FD3AE487A
:103E4000AD49801D0770B44800900822623101A876
:103E500002F0BDFA63690022B2330299019801F0C1
:103E6000C1FD022F02D0012F0BD016E00120E0711E
:103E7000206D04224119A048891C4C3002F0A7FA99
:103E80000BE0E079012806D19B49206D04224C31DA
:103E9000801C02F09CFA0020E071206DA16C9F4E06
:103EA000801C0291039601950090934A60692389D2
:103EB000921D9949BA3001F0E0FCA06C711C2A18DF
:103EC000206D801C02F083FA8B4C6234201D02F0BE
:103ED000DFFA2378E2781946637812061B02194349
:103EE000A378C0091B04194311432279C00152066B
:103EF000520E01E012E012E0491C00235A41520622
:103F0000520E104321700A0A62700A0CA270090E48
:103F1000E1702071049880F31088012017E40020DC
:103F200015E47548C1680A466032907E927EC007EB
:103F3000C00FD207D20F603105E0887E8A7EC007AD
:103F4000C00FD207D20F9042F7D1704710B56A4820
:103F50004069017CC27B08021043072807D8FFF79D
:103F6000E0FF002804D0FFF7DCFF0128FBD010BDE4
:103F7000FFF7D7FF0028FBD0FFF7D3FF0128FBD0C6
:103F800010BD10B55C48C1680846223042790379FB
:103F900012021A43624B9A4214D9DC43121903717C
:103FA0001B0A4371FF2320310B72FA2A0AD95101EF
:103FB0005C4BD200C91889187D221201891A01753B
:103FC000090A417510BDF0B400285BD048780A7822
:103FD00007021743484A15269469534DE01C631C99
:103FE0001B2FA67041D9CC788E78240234431C71E3
:103FF000240A5C71CC798E79240234431C72240A21
:104000005C7293780C78002B4B7805D01B0223430D
:10401000F92B12D9F92104E01B022343302B0CD9D0
:10402000302101700B0A437001710B0A4371506912
:1040300040190173090A417312E05269521913734E
:104040001B0A53734A780B7812021A430270120A41
:1040500042704A790B79110219430171090A4171C1
:10406000F0BC0921314A032010471B2101700024B4
:104070004470F3241C7100265E71017146711C723C
:104080005E72D4E7F0BC7047F0B4002850D01A4AF2
:1040900014209369987048780D7804022C43DC70E2
:1040A000240A1C71CC788D7824022C435C71240A7C
:1040B0009C714C790D7924022C43DC71D81C240AA4
:1040C0004471CC798D7924022C435C72240A9C7251
:1040D0009578154C5B1C002D42D04D790E792D0240
:1040E0003543F92D28D9F92101710023437101705D
:1040F000437041E08D53000098000020ED7F0000E8
:10410000FFFF0000022800008742000069940000C1
:10411000ED340000DD340000BC160020D017002074
:104120003E060000C0E0FFFF61030000958C000028
:10413000F0BC0022012046E705712D0A4571C878C0
:104140008D78000228431871000A5871487909795E
:1041500000020843516909190873000A487324E0F2
:104160004B780D781B022B43302B0BD9302101707B
:104170000023437001714371506900190173090AEA
:10418000417312E05269121913731B0A53734A7870
:104190000B7812021A430270120A42704A790B79A4
:1041A000110219430171090A4171F0BC0921FE4A4B
:1041B0000320104710B507E0435C845C4454491C5D
:1041C0008354521EC9B2D2B29142F5D310BDF8B594
:1041D000F64D0520A969F44A887001210320904713
:1041E000A87800282DD068690F220021BA30FFF787
:1041F000E1FF686907220021B230FFF7DBFF2E469E
:104200006236301D02F044F9002434707470C00925
:10421000B470C001F470307146062F465A37760EDE
:10422000381D02F035F93C70210A7970210CC00963
:10423000B970C001210E3043F9703871A878002898
:1042400006D1696902220846D94BBA30B231984783
:104250007D214901D84BD74A03209847D5490820EA
:1042600048398847F8BDF8B50546D449082088473D
:10427000CE4C0B206169C0010818807E01282FD127
:104280000026374601E0042E04D260698019A03070
:10429000877406E0C6480A38804761698919A031E9
:1042A0008874761CF6B2082EEDD3C14F00260A3F63
:1042B00001E0082E01D2002000E0B84761698919A9
:1042C000A031761CF6B28876102EF2D30026B847BD
:1042D00061698919E031761CF6B24876102EF6D362
:1042E0000B206169C0010918487E042802D0052806
:1042F0001DD01EE0AE4F00260A3FB84761698919FC
:10430000FF318131761CF6B24876202EF5D36069F4
:10431000AB4B0146FF31A1310A7EFF305206520EEF
:104320000A760A46273A47399A30984701E008202A
:1043300048766169A0690E46042787700822C01C70
:10434000C231B63602F043F8A069042231460B3080
:1043500002F03DF80D21944A0320904760692946F8
:1043600008220A31BA3002F032F860692946042284
:104370001231B23002F02BF82069C078032860694E
:1043800004D0CA21095C012909D018E0817D427D51
:10439000080210432A46083229468A4B2CE041790C
:1043A000CA070CD08279520709D4C90907D109215B
:1043B000890140180078012801D1616A08702A7AC1
:1043C000814E002A02D1687A002817D06069014620
:1043D0006030C37D9A420AD16A7A007E824206D159
:1043E00008222846793101F0C5FF002825D0714BFD
:1043F0000622002101200A339847F8BD6069CA21CE
:10440000095C01290BD00246BA32FF3011460A304E
:10441000B0476069022241791143417112E041794C
:10442000024639434171BA3211468130B047606962
:104430006030C07B012802D004E06069EFE75F498B
:1044400002208847FFF7C3FEF8BDF8B5574CA078A7
:10445000002804D101220021554B08469847A16944
:10446000062088700121504A03209047A078002838
:104470000CD0564861690818417B027B0902114340
:10448000F92903D9F9210173002141736069484D6D
:10449000417908228B070A3D0027002B25DA1143BA
:1044A00041710026A8476169891980314870A84781
:1044B00061698A1991218854A032761CF6B257702E
:1044C000102EEFD30026A847616989196031761C48
:1044D000F6B24876082EF6D3A84761696031C875F0
:1044E000A84761696031087614E0CA231B5C012B80
:1044F00010D183795B070DD5114341710026A84780
:1045000061698A1991218854A032761CF6B25770DD
:10451000102EF4D32849032024318847274D082042
:10452000103DA847002803D0244908200A318847B5
:104530000220A847012815D10B216069C901411843
:10454000497D01290ED12D2252018018417900297F
:1045500009D0012962D0022904D18179164B1C4A65
:1045600007209847F8BD00254AE00A226A435118FF
:104570000A18507C167C0302164833430380104B04
:10458000C33B4380114BDF3BCB18597D1B7D090298
:1045900019438180022181710321C1710772117653
:1045A00000235376038817E0958C000098000020C4
:1045B00057250000C1940000D3330000558500004A
:1045C000C5290000996F0000ABAA0000610300003C
:1045D000FB980000D4180020F94AFA4E1380808816
:1045E00050809180134601210622C9030020B04764
:1045F0000121C902F44BF54A0020B0476D1CEDB211
:1046000005206169C0010A18D27BAA42ADD80B20EF
:1046100062690121C00110180175F8BDE1688B784D
:104620009B06DB0FC3718878DF23184088706069B0
:10463000801881790172F8BD07E7F8B50446017862
:10464000401C002910D0022976D003290BD14178D3
:1046500002780802104310286DD0082803D1201DCD
:10466000E178FFF784FBF8BD417802780802104337
:10467000062838D0032839D014283BD015283ED03E
:10468000012842D00028EED1CD48251D5438C168FC
:1046900022314A7E0B7E1102194300914069E37A70
:1046A000017DC27C0E021643227B002711021943B2
:1046B000027CC37B1002C9001843814200D8012745
:1046C000FFF744FCC24928468847002820D0FFF75E
:1046D00058FCBB485438C06822304179027909023D
:1046E000114319D01DE0FFF7B0FEF8BD201DFFF704
:1046F000BAFDF8BD211D0020FFF7C6FCF8BD002162
:10470000221D0846FFF75FFCF8BDFFF71FFCF8BD50
:10471000B0492820884709E0009989000175090AF5
:104720004175002F02D00673310A4173201DFEF738
:10473000C0FAF8BD00E01CE041780278080210439E
:1047400001280AD003280CD004280ED00C28F0D160
:10475000211D0020FEF742FFEBE7201DFEF75DFE66
:10476000E7E7201DFEF7AAFCE3E7201DFEF70FFD9B
:10477000DFE7E078231D062814D0587C197C02025C
:104780000A435878197800020843D9789B780902BF
:104790001943884209D901468A4B01221020A43BC3
:1047A0009847C6E758791979E9E7FFF752F8C0E763
:1047B00010B50178042905D1827843781102194394
:1047C000022902D0FFF739FF10BD41790079FFF7C8
:1047D0000BFB0028F8D0FBF743FD10BD30B587B0C8
:1047E0007D480090801E0190002468460481448129
:1047F00006210182418227218181C1810225858292
:10480000C482764806907649684688476C48543892
:10481000416B0A682A430A60816B0A682A430A606E
:10482000C4700471047007B030BD70B5644C0D469F
:10483000543C002828D06B4DA8470028FCD06A487B
:1048400080476A4880476749012008398847A0693E
:10485000022181701321C1700221654A0320904713
:104860006449042088476069017DC27C08021043C6
:104870000A2101F026FE0A21401E41435A4B012025
:104880005D4AEE3B984770BDE06820214170417859
:104890008906FCD555480C3880474E49287888470A
:1048A00070BD544910B5012010398847002804D044
:1048B00000210120FFF7B9FF10BD464913208847AA
:1048C00010BDFEB500216846017001710D46012141
:1048D0004A4E7F20B047494C0A206946223CA047F7
:1048E0006846007801090901684601700220014309
:1048F0000A20B04701A90A20A0476846007940076E
:1049000004D56D1CEDB2FA2DF4D108E0FA2D06D0D5
:1049100001A90A20A047684600794007F8D56846F3
:1049200001780A20B0470020401C80B2FA28FBD34F
:1049300001A90A20A04768460079000701D4012098
:10494000FEBD0020FEBD70B505460024FFF7B9FF8F
:10495000012817D10020FDF7BDFD29480169C908CC
:10496000C9000161072141610021816101690122C2
:10497000114301610169C903FCD5002D01D1FDF787
:10498000EBFD0124204670BD0D4910B5543949692D
:104990001A4C8870002835D0012841D002280ED149
:1049A00000217F20A04700210320A04720210420D0
:1049B000A04702217F20A04703210020A04710BD6F
:1049C000EC00002031540000D41800200702000041
:1049D000E52000006F9000001B800100B14700102F
:1049E000936000002B1B0000C1340000FF25000075
:1049F000958C0000558500008D940000A7290000CB
:104A000000E000E000217F20A04700210320A04714
:104A100020210420A04702217F20A0470021CCE7CD
:104A200000217F20A0471F210320A04702217F20D3
:104A3000A04701210020A04700217F20A0473F215F
:104A40000420BBE710B5012802D002280ED01BE0DD
:104A5000487A0C7A00022043C00715D048790979BA
:104A6000000208431946FEF7BCFEA8E7487A0C7A14
:104A700000022043800707D54879097900020843DE
:104A80001946FEF7CAFE9AE7002098E770B5F84C81
:104A9000E068817EFD22114081766069F54D837F5B
:104AA000427F203041780078090201430120A84765
:104AB000E06881784906C90F61718178BF22114091
:104AC000817070BD10B5EA4CE068817E022211430E
:104AD0008176E84834308047E0688178BF22114011
:104AE0006279D207520E1143817068E7F0B517461C
:104AF000DF4A0446D0681E460D46C37885B00021C3
:104B00001B0702D5002005B0F0BD00BF491C89B2CB
:104B10006429FAD34030417C8907FCD4D4484169E8
:104B20002D2040010818C07A012804D1FF21053149
:104B3000204601F0A9FCA00707D1CD482D214269EC
:104B400049015118897A01291DD0C94B0020D96823
:104B5000C0310A792254401C80B20228F9D3C448DB
:104B60008078002808D0C44908208847002803D04E
:104B7000BF482178801D01702078800660782880E9
:104B800034D5012033E0C1680846E030427B037B26
:104B900012021A43837B1B041A43920C9204A30350
:104BA0009B0B1A430273130A4373120C827348223D
:104BB000525CC37B5206520EDB09DB011343C37305
:104BC000027A520852000272027A02231A430272D7
:104BD000E031087A8007FCD420788006607828804D
:104BE00001D5012000E00020387012E00020A0492B
:104BF0003870CA680020C032A41C03E01379235423
:104C0000401C80B22B888342F8D8C8680122C0308B
:104C100042722888964F801C2880B87800280AD0D5
:104C2000954908208847002853D093490220884797
:104C3000002809D04DE0F8684030417C890748D40D
:104C4000407CC007C00F45E02A8821468B48921E51
:104C500001F0BDFB8A488649009008225A3101A81C
:104C600001F0B5FB7B690122B2330299019800F093
:104C7000B9FE7F48801D01788907890F0170288857
:104C8000BA6C7E490292801E00910190784A786940
:104C90003B89921D7A49BA3000F074FEC0B2307080
:104CA00001280ED128887549BA6C009101AB801E8D
:104CB00015C36F4A78693B89921D7149BA3000F07B
:104CC00015FE2888B96C401A2880801EA41E6070CA
:104CD00001E001203070012015E7F0B5684800269A
:104CE00087B0183005906846068206720673002762
:104CF0006449012088470028634803AB02AA04A93D
:104D00000FD0FFF7F3FE00280FD15948C068C078D4
:104D1000C0065FD502AA04A95B4800F052FB012738
:104D200003E05A4CA047002854D0514D2869C2785E
:104D3000032A03D1E86B00780128D4D06846007AB2
:104D4000012801D1002F07D04F4C2078864600075C
:104D5000000F052840D041E0474C0820A04700281C
:104D60002DD00220A047002829D16846007B0028CA
:104D70002DD0A878002822D03D4C5A34201D01F0B7
:104D800087FB2378C1091A466378E0781B021A432F
:104D9000A37800061B041A4302432079C901400688
:104DA000400E521C002358414006400E0143227021
:104DB000100A6070100CA070100EE070217168462F
:104DC000008A334A801EC1B22F4890478BE7314991
:104DD0003D20884707B0F0BD002F03D0714609077A
:104DE00019D06AE02C49A01C8847FFF7CAF82B4964
:104DF0000222087F104308771E487A3880472078BF
:104E000070214006C20F68690A540622A11C713045
:104E100001F0DDFA67E76969CB7D022B10D0002332
:104E200060314F7B8C463946012F00D000273B4331
:104E300043D0032A06D06046007A012834D05DE0D2
:104E40000123EDE7059900916946098A144F083955
:104E5000CBB271464906C90FA21CB84768696030D9
:104E6000007A0128B2D10F49A01C88473BE7000017
:104E700098000020D91B000069940000D017002082
:104E8000BC16002045850000CC160020B12700008C
:104E90003F9C00006F900000CB1D000020000150DF
:104EA000CB6F0000155C0000012903D0FE49A01C57
:104EB000884723E0A01CFD49FAE7032886D0042890
:104EC00084D16969CB7D022B0AD000236031497BF4
:104ED000012900D000210B439CD0032A02D00DE011
:104EE0000123F3E7059900916946098AF04D891F6E
:104EF000CBB271464906C90FA21CA847059800907D
:104F000001966846008AA21C0838C3B22078E64C95
:104F100041060007C90F000F6834A047E3E670B5EB
:104F2000FFB0E44985B00420884700280BD0E14950
:104F300004201A318847E0488047E0491620884716
:104F40007FB005B070BDDE488047002500280FD037
:104F5000DC4C606941790A075ED58279D3071DD0A0
:104F6000D9498130884760698179490849003AE028
:104F700068460580D24DD04E86359236D34C09E036
:104F8000694601A8A8470028DAD068460088C1B25F
:104F900001A8B047A0470028F2D0D1E7930709D570
:104FA000C94A014679311C32773090476069FD2249
:104FB000817908E0530708D5C349603191308847AB
:104FC0006069FB22817911400DE01207F725002A64
:104FD0000BDA027A01461046BB4A09314232904749
:104FE0006069817929408171AAE7294041710346AE
:104FF00077333A221021B64D0020A8470921606975
:1050000089014118097801299AD14079C00997D1BD
:10501000616A0120087093E7E16B097800298FD15C
:10502000216C097801298BD1817D427D08021043D2
:10503000A84A01219047206C057081E7F0B585B042
:105040000026A04C00960196029603966069017AAC
:1050500001292ED1817B890901292AD11022694693
:10506000913001F087F9002823D0002504AF924841
:10507000C238804778556D1CEDB2032DF7D36946D1
:10508000887C40214006400E084369468874606968
:105090000621093001F0F8F96069032204A90C30F7
:1050A00001F095F962698C4B1046913004A90932E0
:1050B0009847267127E570B5824EF06844784470B1
:1050C000834DE00706D0FFF72AFF002301211A468F
:1050D0000846A847A00706D5FFF7FFFD00230221D9
:1050E0001A460120A847600706D57C488047002360
:1050F00004211A460120A847200707D57748BC306D
:105100008047002308211A460120A847E00610D551
:10511000F0682030407D6949400701D53E2000E01D
:1051200008208847002310211A460120A847FFF7CE
:1051300085FFA0060CD500F072F9002320211A4645
:105140000120A8470023FF211A4601311846A8472D
:10515000600611D5574901208847002807D070699B
:105160006030807B012802D1F16807204875002358
:1051700040211A460120A847E00904D000238021DD
:105180001A460120A84770BD38B5554C0120A047EC
:105190000021544D7F20A847524A3B206946223ABD
:1051A000904768460178FB200140684601703B202B
:1051B000A8474048943080470020A04738BD4A495E
:1051C00009788906890F017070473E494978017056
:1051D0007047F8B5444E434C054603280DD30021D3
:1051E0007F20A047D8211120A0471D213A20A047A9
:1051F0007078FB21084070700CE07078042108433F
:10520000707000217F20A047D8211120A0471921CC
:105210003A20A047334A3F206946223A90476946E0
:1052200008782B008006800E087003F0DAF8060A72
:1052300006040A06040A802100E04021084369466A
:10524000087009783F20A0471E4840694570F8BDA6
:1052500010B50446FFF7BDFF1A48447005E470B569
:10526000184D01210903214B00206A6C98472869D9
:105270000446093001F00CF9696C40180578012DDD
:1052800001D9002070BDE078002831D020462D30B3
:1052900001F0FEF806462046313001F0F9F80246EA
:1052A000964236D2911B2BE0155C0000995D000000
:1052B000CB6F0000458500000F2600006F900000B6
:1052C000ED340000980000207BA60000371B000092
:1052D000315400004F6E000095A90000C18D000000
:1052E000692D0000A7290000001000508F16000053
:1052F0002046253001F0CCF8064620462930CCE780
:10530000002D08D0304609036F4A090E904701204E
:1053100070BDB11AF4E71046F5E7F8B56B4C2D21D6
:10532000E268656949016E18134611462033603101
:1053300001281FD16F1CBC46A87C6F7C000238433B
:1053400018D063482C18607E247E0002204322324D
:105350001075000A50756046427C047C10022043A0
:105360001873000A5873C87D10221043C8750120B5
:105370007072F8BD2D27707A7F010128F9D1307B3A
:10538000002500280CD01D73280A5873C87D1023EF
:105390001843C87575729079022108439071F8BD61
:1053A00000F05FF8E068014620310D732A0A4A7365
:1053B0006030C17D10221143C1756069C01945720A
:1053C000F8BD70B5414C0023E568C0352E7DC6544C
:1053D0005B1CDBB2022BF9D3037801259B06002B63
:1053E00043780B8001DA157001E000231370E36845
:1053F0000022801CC03303E01E7D8654521CD2B2B2
:105400000E889642F8D8B0B2801C0880E068D92196
:105410000D540179022211430171012070BD10B5B4
:105420002C4901208847002815D02848416960315F
:105430004A7B012A05D1C2686032137808242343CD
:105440001370897B012906D1C068017C4022114379
:10545000017400214175204880471F48C4308047AF
:10546000FCE670B5194CE0682030417802780D02F6
:10547000417E1543027E0E021643AE4208D8616992
:105480008A7C4B7C1102194349190176090A41763D
:10549000FEF747FD00280DD0FEF743FD0128FBD0A5
:1054A000AE4205D8E0682030817802221143817035
:1054B000012070BDFEF735FD0028FBD0FEF731FD61
:1054C0000128FBD0ECE700009F18000098000020A6
:1054D0008305000045850000498F0000F8B50F46A0
:1054E000064615461C461021184600F0CDFF012146
:1054F0006846017021700D223946601C00F067FF7C
:105500002902280A0143684601800078A073684692
:105510004078E0733146204600F0F7FEF8BDFFB555
:1055200089B01D460F46139E00F07BFA00240294BA
:1055300003940494684605940470002D01D0012062
:1055400000E0002081011498801EC20F1018401046
:10555000C00040186946401C08700872394602AF06
:105560000D22781C00F033FFB0B20202000A0243A1
:1055700069460A80CA8202A9099800F058FA002DEB
:105580003DD0A9B20802090A084302940394049486
:1055900069460594088008810E2D01D90E2200E08D
:1055A0002A46B81C0B9900F012FF0E2D01D90E27C8
:1055B00000E02F460E2D1ED90E202D1A099802A9A3
:1055C0001BD000F034FA0294039404940594102D37
:1055D00001D9102200E02A460B98C11902A800F058
:1055E000F6FE102D01D9102000E02846C719102D15
:1055F00001D91020E1E72846DFE700F018FA002E75
:1056000024D00294039404940025059402940394F6
:1056100004940594102E01D9102200E0324612980D
:10562000411902A800F0D3FE102E01D9102000E08D
:1056300030464519102E01D9102000E03046361AA8
:1056400002A9099800F0F3F9002EDFD102A9149AFB
:10565000159800F0BCFE14980DB0F0BDFFB589B0F0
:105660001C46139D00F0DDF9002602960396049671
:10567000684605960670002C01D0012000E000204D
:1056800081011498801EC20F10184010C0004018ED
:105690006A46401C1070107202A80D2201300A994F
:1056A00000F095FEA8B20102000A01436A4611808B
:1056B000D18202A9099800F0BAF9002C3ED0A0B21C
:1056C0000102000A01430296039604966846059675
:1056D000018001810E2C01D90E2200E0224602A891
:1056E00002300B9900F073FE0E2C01D90E2700E05A
:1056F00027460E2C1ED90E20241A099802A91BD069
:1057000000F095F90296039604960596102C01D99F
:10571000102200E022460B98C11902A800F057FEA3
:10572000102C01D9102000E02046C719102C01D9F7
:105730001020E1E72046DFE700F079F9002D32D0B4
:1057400000200290039004902C4606460127059005
:10575000BAB202AB0A990998FFF7C0FE00203118CF
:10576000A94203D3002102AA115406E002AA135C45
:10577000129A515C4B4002A90B54401C1028EED3E6
:105780007F1C102C01D9102000E020468619102C17
:1057900001D9102000E02046241A02A9099800F03F
:1057A00046F9002CD4D102A9149A159800F00FFEE6
:1057B000149851E7FFB5002585B01F461C46012609
:1057C0002BE06B46324606990598FFF787FE0020CE
:1057D0002918B94209D2079B6A46125C595C4A40B3
:1057E00069460A54401C1028F2DB102C01D9102203
:1057F00000E022460E986946401900F0E8FD102CA2
:1058000001D9102000E020464519102C01D91020A4
:1058100000E02046241A761CB6B2002CD1D12846CE
:1058200009B0F0BDFFB585B000261C460B46074603
:105830000096019602960121684603960174017054
:105840000D2219466D46401C00F0C1FD68460682D7
:10585000C681394600F059FD002005E0079A295C11
:10586000125C51402954401CA042F7DB2246694695
:105870000E9800F0ACFD2046D2E7FFB589B0159D2B
:105880001C461A462846149F139E0B9900F09FFD54
:1058900004A912986A460391C1C209A807C8234601
:1058A000FFF73DFE002801DBB84202D00020C043D4
:1058B000D2E6281900903346129A0A990998FFF700
:1058C00079FF002802DA0120C043C5E6A419601957
:1058D00000903B4604AA0A990998FFF7A3FF002805
:1058E00002DA0220C043B7E62018B5E6FFB58DB056
:1058F00017ACA1CCA84203D20520C04311B0F0BD23
:10590000461B169804A9009132182B460E990D9843
:10591000FFF788FF040001D4AC4202D00020C0434E
:10592000ECE733460097169A0E990D98FFF742FF61
:1059300006000FD008A803900097019602950DA8C5
:105940000FC8FFF7ECFD002801DBA84205D00220BC
:10595000C043D3E70120C043D0E7844202D00320F4
:10596000C043CBE7002004A908AA07E00B5C155C44
:10597000AB4202D00420C043C0E7401CA042F5D394
:105980003046BBE7FFB58DB0189D179804A9169F48
:10599000461B0091F2192B460E990D98FFF742FF16
:1059A000040018D4AC4216D108A8039000970196C1
:1059B00002950DA80FC8FFF751FE00280BDBA84287
:1059C00009D1844207D1002004A908AA06E00B5C93
:1059D000155CAB4201D0002090E7401CA042F6DBF2
:1059E00001208BE770B54906490E049C0E06050A96
:1059F000354320706570050C0E043543A5700D020B
:105A0000000E2843E070D0010143217100200721DE
:105A10000A1A2518401C9A5CC0B26A710828F7D38C
:105A200070BD10B510210C4800F02EFD10BD70B5F2
:105A30000C460146084A0020235C155C6B40235449
:105A4000401C1028F8DB204600F05FFC10222146A5
:105A5000014800F0BCFC70BDDB1A0020FCB5002240
:105A60008B5C8354521C92B2102AF9D301231D017E
:105A70002A18114620390E7FFF4CB6464E7F0F7C08
:105A8000A65D7E40FD4FFF5C7E4046558F7F0197AF
:105A9000E65D4F7C7E405670B446CE7F0096A75D93
:105AA0008E7C774097707646A45DCE7C7440D4702F
:105AB0000E7D455D6E401671B6464D7D664675405D
:105AC0005571AC468D7D76467D409571CF7D6740A2
:105AD000D7710C7E74401472A6464C7E66467440A4
