:020000041000EA
:10000000606A0020DD150010E5150010E7150010EE
:1000100000000000000000000000000000000000E0
:10002000000000000000000000000000E9150010C2
:100030000000000000000000EB150010ED1500109E
:100040001B0E0010BB4D0010EF150010EF15001037
:10005000EF150010EF150010C70F0010EF1500107E
:10006000EF1500107112001095120010B912001057
:10007000DD12001001130010EF150010EF15001035
:10008000EF150010EF150010EF150010EF15001020
:10009000EF150010EF150010EF150010EF15001010
:1000A000EF15001071100010EF150010EF15001083
:1000B000EF150010EF150010EF150010EF150010F0
:1000C00000F002F800F03EF80CA030C80838241800
:1000D0002D18A246671EAB4654465D46AC4201D180
:1000E00000F030F87E460F3E0FCCB6460126334274
:1000F00000D0FB1AA246AB46334318479476000063
:10010000B4760000103A02D378C878C1FAD8520702
:1001100001D330C830C101D504680C6070470000BD
:100120000023002400250026103A01D378C1FBD813
:10013000520700D330C100D50B6070471FB51FBDFB
:1001400010B510BD06F059FF1146FFF7F7FF00F09C
:100150005EFC06F071FF03B4FFF7F2FF03BC06F08C
:1001600077FF000000B52D1D00BD000070B50546ED
:100170000C46164602E00FCC0FC5103E102EFAD2E8
:10018000082E02D303CC03C5083E042E07D301CCAE
:1001900001C5361F03E021782970641C6D1C761E92
:1001A000F9D270BD1FB50021684601700721417268
:1001B000192189014181FD49818103218173002138
:1001C000017201F067FAFA4801F050FAF8484078F5
:1001D000F849C873F64880780874F548C0784874C0
:1001E000F34800798874F2484079C874F0488079FF
:1001F0000875F1480378F1480178F14AED4801F0BB
:100200004CFA1FBD3EB504460D46EE480078012865
:100210000FD1012168460180032141801F21818087
:100220000121018123462A466946012001F053FD40
:100230003EBD0020FCE710B586B00446E2A103C92C
:100240000191009004A801F0B0FB002C02D0012C19
:1002500036D11DE06846408A002814D06846008ADE
:10026000102810DD0020DA4908701021684641810D
:10027000C821C18100218181C02101720421417204
:1002800002A802F0CEF905216846FFF7BBFF17E090
:100290006846408A0A2812DA6846008A50280EDA30
:1002A0005021684641810A2181814B21C900C181C9
:1002B000C02101720421417202A802F0B2F900BF0C
:1002C00000BF06B010BD13B582B068464089152145
:1002D0004902884209D1BFA003C8019100900524BA
:1002E0006946204601F0D9FC9CE068464089BB493C
:1002F000884208D1BAA000680190022401A92046D2
:1003000001F0CBFC8EE068464089B4492831884230
:1003100009D1B4A103C9019100900824694620467F
:1003200001F0BBFC7EE068464089AC49233188423D
:1003300009D1AEA103C90191009007246946204666
:1003400001F0ABFC6EE068464089A4492431884244
:1003500009D1A8A103C9019100900524694620464E
:1003600001F09BFC5EE0684640899C49263188424A
:1003700008D1A2A000680190042401A9204601F040
:100380008CFC4FE06846408994492531884208D169
:100390009BA000680190042401A9204601F07DFC87
:1003A00040E0684640898D492731884208D195A0B0
:1003B00000680190042401A9204601F06EFC31E0A0
:1003C0006846408985494F31884209D18EA103C9C9
:1003D0000191009007246946204601F05EFC21E06F
:1003E000684640898A49884207D18AA000680190FE
:1003F000042101A8FFF706FF14E0684640898449FC
:10040000383188420DD1002101910020009001A9CE
:10041000684601F0C7F869466846007901F03DFC7E
:1004200000E000BF1FBD0FB410B568464089022828
:1004300007D16846827B03A90331774800F0B1FEFB
:100440000DE06846408972493831884207D1002062
:10045000724908706846817B0F3001F077F810BC54
:1004600008BC04B0184710B5FFB0FFB082B0044616
:10047000601C05F05BFF012802D101F018F907E1CB
:10048000601C05F053FF04280FD100204D4908706F
:1004900001206349087000204D4908705F490870C9
:1004A000604908705D490870F2E0601C05F03EFF8D
:1004B000082809D100205A4908705A490870414952
:1004C000087001F0F4F8E3E0601C05F02FFF012153
:1004D000C903884240D1A1796279080210430128FA
:1004E0001FD1217AE279080210432028C7D1A17ACE
:1004F000627A08021043012809D1324908704A483B
:10050000807E40218843403047498876C0E0002003
:100510002C4908704448807E4021884342498876AF
:10052000B6E0A17962790802104339491E31884248
:100530000DD1217AE279080210432D2807D1A17A42
:10054000627A08021043012802D1384908709FE0FE
:100550000020364908709BE0601C05F0E7FE012191
:10056000C902884210D1FF22F8322146153168466F
:1005700005F07BFE2E4A611D7EA805F076FE7EA862
:100580000FC8FFF750FF83E0601C05F0CFFE01218C
:10059000890288424ED10822611DFEA805F065FE41
:1005A000FF99FE98FFF78FFE72E00000FF3F00000A
:1005B0003A00002014000020380000203400002001
:1005C000360000200C000020FC01000000000000AC
:1005D000100000205541525446000000012A00003E
:1005E000FFFF000053594420496E632E424C4520C2
:1005F000312E3000312E302E30000000322E3030BF
:10060000332E3030342E3030023A09050A02000011
:10061000C9FE000000010304300100200F0000208B
:100620000E00002074000020601000500D0000201B
:1006300007020000601C05F079FE01218903884251
:1006400026D0601C05F072FE102803D10120FE495F
:1006500008701DE0601C05F069FE802818D0601C41
:1006600005F064FE01214902884211D1A179627925
:1006700008021043030006F019FD060405060708EA
:10068000090A04E003E002E001E000E000BF00BF6F
:100690007FB07FB002B010BD00B591B000F0D0FFC8
:1006A000EA480990EA480A90EA480B90EA480C9018
:1006B000EA480D9009A801F060F903216846017726
:1006C00000214177807F81088900491C6846817735
:1006D000807F042188430146684681771021C177D5
:1006E000002108A801700321417007A801F048F912
:1006F0000621684681800921C180642101814181F0
:10070000062101733221417300218173C173017489
:10071000012101A84173002181730221C1730021CD
:10072000017403214174002181740421C1740021EA
:100730000175052141750021817501F02EF9C84927
:10074000FF20013005F003FEC549091DC54805F02D
:10075000FEFDC34801F08BFAC34801F09BFA00206C
:1007600001F0E1FBFFF71EFD012108A80176002141
:1007700041760EA90231002005F0E9FD0FA90231F2
:10078000002005F0E4FD0EA801F04CFC11B000BD06
:10079000F8B5B648007801285CD1B54800F053FDA3
:1007A000002857D100240025B14800F055FD142140
:1007B000009005F0DEFD401CC6B2AD4800F04CFDD7
:1007C0001421009005F0D5FDCFB200BF3EE0A9484E
:1007D00000788021084000280AD1002506E0A648BC
:1007E0004119A34800F01AFD681CC5B2142DF6DBB0
:1007F000701EA04214DC9F480078802108439D4968
:10080000087039469C48FFF7FDFC002807D00026F9
:1008100098480078802188439649087014E017E0D2
:100820009448007880210843924908701421924826
:10083000FFF7E8FC002806D08E4800788021884326
:100840008C49087000E003E0601CC4B2B442BEDB17
:1008500000BF00BFF8BD08B50020009004E00122F1
:100860006946002000F022FC69468148103000F003
:10087000D5FC0028F3D108BD10B580480078401C95
:100880007E4908700846007802280BDB00200870BB
:10089000012000F0ACFD764800F0D5FC002801D125
:1008A000FFF776FF10BD10B5012000F0A0FD012379
:1008B000FF2248327249184600F03CFD0A2000F041
:1008C00033F910BD10B5002442E0182C32D008DCFA
:1008D000002C0DD0022C22D0042C21D00A2C2BD19C
:1008E00013E01E2C27D01F2C1BD0222C24D10DE06E
:1008F0000021204600F0FBFA0121204600F02FF9EC
:100900000021204600F093F91FE000BF002120469F
:1009100000F0EDFA0121204600F089F915E000BF52
:1009200000BF0021204600F0E2FA0021204600F03E
:100930007EF90AE000BF08E00021204600F0D7FA67
:100940000021204600F00BF900BF00BF601CC4B2BC
:10095000272CBADB10BD70B504460D4607211420C4
:1009600000F0C5FA0721152000F0C1FA002C07D0CD
:100970000721122000F0BBFA0721132000F0B7FA7C
:100980000620012181403F4A116000BF3E480068B7
:100990000078000900012907090F08433A4909684E
:1009A000087039480068007880218843E10180227E
:1009B00011400843344909680870334800680078DA
:1009C000402188433049096808702F4800688078C2
:1009D0000821884308302C490968887092002B4907
:1009E000234800F0D5FB2A48406A402108432849A3
:1009F00048620846006A40210843254908620620EB
:100A000000F092F870BD012022490870704772B65C
:100A1000FFF742FE032001F09CFA01F0CEFA01201C
:100A200001F0A4FAFFF74EFF08210020FFF793FF23
:100A30000122520218490E48103000F0A9FB012390
:100A40002D2252042AE000000F0000202472001022
:100A50004E720010437200108D7200104B73001024
:100A60000000002067040010080000200C00002097
:100A700020010020130000200C01002011000020A4
:100A80007908001080E100E05800002040010020BB
:100A9000008002201200002040030020264904208C
:100AA00000F048FC62B600F002FE3CE001F099FB69
:100AB00022480078012804D100202049087001F064
:100AC0005BFA1F480078012815D11E4800F0BBFBD7
:100AD000002810D1012000F0A0FC002801D1FFF770
:100AE000E2FE184800F0B8FB142804DB0020164989
:100AF0000870FFF74DFE1348103000F0A4FB0028EB
:100B000001D1FFF7A8FE0E48007800280BD10F484E
:100B1000807E402188430D49887616230C4A0421A3
:100B2000012001F078FCC1E7C206D20E01219140FC
:100B3000084A116070470000070A001012000020E8
:100B40000C00002020010020110000206010005047
:100B5000F82A000000E100E0D1490860704770B554
:100B6000024620241440630920251446AC43012585
:100B7000A54028469C00CB4D2C592075050A65756B
:100B8000050CA575050EE575002B13D0002908D1BD
:100B9000C54D6D7D0543ECB2C34D6D7DC24E747580
:100BA00015E0C14D6D7D85432C46BF4D6D7DBE4E1C
:100BB00074750CE0002905D1BB4C64680443BA4D40
:100BC0006C6004E0B84C64688443B74D6C6070BDE1
:100BD00070B5024620241440630920251446AC4316
:100BE0000125A5402846002B13D0002908D0AE4D82
:100BF000ED7D0543ECB2AC4DED7DAB4EF47515E0EB
:100C0000A94DED7D85432C46A74DED7DA64EF4758F
:100C10000CE0002905D0A44CE4680443A24DEC602C
:100C200004E0A14CE46884439F4DEC6070BD30B596
:100C30000B4620240440610920250446AC430125CD
:100C4000A5402A468C00974D2C592276150A6576C8
:100C5000150CA576150EE576002B0AD08C00914D6B
:100C60002C592271150A6571150CA571150EE571C7
:100C700009E08C008B4D2C592272150A6572150CF7
:100C8000A572150EE57230BD10B520230340590939
:100C900020240346A34301249C4022468B00814C20
:100CA000E3581A73140A5C73140C9C73140EDC73EF
:100CB00010BD10B520230340590920240346A34347
:100CC00001249C4022468B00764CE3581A71140A8A
:100CD0005C71140C9C71140EDC7110BD10B52023D6
:100CE0000340590920240346A34301249C40224683
:100CF0008B006C4CE3581A72140A5C72140C9C72D0
:100D0000140EDC7210BD30B50146202008404209A7
:100D100020240846A0430124844023469000614CCF
:100D200020584030102404192578284665782D0273
:100D30002843A5782D042843E4782406204318404E
:100D4000002801D0012030BD0020FCE7F0B50346AB
:100D50000C46154620221A40500920261A46B24356
:100D6000012696403146002C0BD182004D4EB258E0
:100D7000403211720E0A56720E0C96720E0ED67218
:100D80000AE08200474EB258403211710E0A567185
:100D90000E0C96710E0ED671002D0BD18200414EB5
:100DA000B258203211760E0A56760E0C96760E0E3A
:100DB000D6760AE082003B4EB258203211750E0AF8
:100DC00056750E0C96750E0ED6758200354EB258BD
:100DD000203211710E0A56710E0C96710E0ED671DC
:100DE000002201269640314F3E6000BFF0BD10B595
:100DF00020230340590920240346A34301249C4097
:100E000022468B00274CE35820331A72140A5C7276
:100E1000140C9C72140EDC7210BD70B500243CE002
:100E2000A000204908584030142141180A78104683
:100E30004A78120210438A7812041043C9780906CE
:100E40000843A100174A515820310A461378194621
:100E500053781B02194393781B041943D278120666
:100E6000114308400546002D00D114E00C480068ED
:100E7000002804D029462046094A12689047A0005D
:100E80000849085840300575290A4175290C8175B3
:100E9000290EC17500BF601CC4B2022CC0DB70BD3E
:100EA0004C000020440000204010005000E100E011
:100EB00010B50146272901DA002902DA0020C043D3
:100EC00010BDCC07E40F202904DA4A101B48006843
:100ED000835C05E008462038421018484068835C6F
:100EE000002C01D01811EBE71807000FE8E770B5E8
:100EF000272801DA002800DA70BD0907090FC407A6
:100F0000E40F202804DA43100C4E3668F21805E08E
:100F10000646203E7310094E7668F2181578002CAC
:100F200001D00F2600E0F0263540002C01D00E073E
:100F3000310E2E460E43167000BFDDE75000002034
:100F400070B504460D46062000F00EF98A48006888
:100F50000078000900012907090F0843864909683C
:100F6000087085480068007880218843E10180226C
:100F7000114008438049096808707F48006800787C
:100F8000402188437C49096808707B480068807864
:100F900008218843083078490968887092007749A9
:100FA000774800F0F5F87748406A402108437549D2
:100FB00048620846006A40210843724908620620D8
:100FC00000F0CBF870BD70B56B4800680478302035
:100FD00060400546684800680570102020400028E1
:100FE0000DD000BF644800680179654800F008F939
:100FF00061480068C078C007C00F0028F2D070BDFB
:1010000070B504460D46192000F0AEF85A48406805
:101010000078000900012907090F0843564949686B
:10102000087055484068007880218843E10180229B
:10103000114008435049496808704F48406800789B
:10104000402188434C49496808704B484068807883
:1010500008218843083048494968887092004A4905
:101060004748103000F094F8192000F076F870BD71
:1010700070B54148406804783020604005463E48DD
:10108000406805701020204000280ED000BF3A486C
:10109000406801793A48103000F0B2F836484068AC
:1010A000C078C007C00F0028F1D070BDF0B50B4666
:1010B00001242404002112E000BF85002E4E755942
:1010C000ED782D07ED0F002DF7D1850075596D785E
:1010D0005E5C35468600284FBE597570491C9142AA
:1010E000EADB00E0641E8500234E7559ED786D073C
:1010F000ED0F002D01D1002CF4D1F0BD70B50446E8
:101100000D4621011E4A8818294600F087F870BD57
:1011100070B504460D4600BF022C01DB002070BDF7
:101120002101174A881800F08EF800280AD1200102
:1011300013494018C5682101114A881800F08CF83D
:10114000C0B2ECE70020EAE70146012901DD0020FA
:1011500070478800084A1058FAE7C206D20E0121EB
:1011600091400A4A11607047C206D20E0121914097
:10117000064A80321160704758000020400100206C
:1011800020010020008002204003002000E100E058
:101190000023436003608260C16070474168016062
:1011A0007047F8B504460F46154660684019A168B7
:1011B000884219DBA088281A86B26268E16888181C
:1011C0003246394605F051F8A81B85B22068A8427E
:1011D00002DC2088401E85B2B9192A46E06805F075
:1011E00044F865607019F8BD6268E16888182A469D
:1011F000394605F03AF86068401960602846F2E721
:1012000002465368581C5060D068C15493685068B7
:10121000984201DB0020506001207047024653686D
:101220001068984201D1002070471368581C106064
:10123000D068C05C087093681068984201DB002099
:1012400010600120F0E701464A680868904201D129
:10125000012070470020FCE7014600224B68086827
:10126000984200DD8A68486880180B68C01A704789
:1012700010B56E480068007E40084000401C6B4975
:10128000096808766A480068002802D0684908683A
:10129000804710BD10B565484068007E400840009A
:1012A000401C62494968087661484068002802D0BD
:1012B0005F494868804710BD10B55C488068007E73
:1012C00040084000401C59498968087658488068A1
:1012D000002802D056498868804710BD10B5534891
:1012E000C068007E40084000401C5049C96808762C
:1012F0004F48C068002802D04D49C868804710BDDB
:1013000010B54A480069007E40084000401C47492B
:101310000969087646480069002802D044490869EE
:10132000804710BD01468800404A10580078C00729
:10133000C00F7047F0B504460E4615462046FFF72D
:10134000F1FF002801D1052C01DB0020F0BDA00039
:1013500037490E50042C13D1A00034490A58517952
:101360001779090239430846917909040843A10015
:101370002E4A51580D712A0A4A71280C88710EE0C4
:10138000A0002A4909584879097900020843A9B2FE
:101390000846A100254A51580871000A4871002BDF
:1013A0000BD0A00021490858007F40084000401C95
:1013B000A1001E4A515808770CE0A0001B490858AC
:1013C0002030007840084000401CA100174A5158C6
:1013D00020310870A00015490858007840084000E6
:1013E000401CA100114A515808700120AEE700B519
:1013F00003461846FFF796FF002801D0052B00DBB7
:1014000000BD98000949085800784008400099003C
:10141000064A5158087000BFF2E701468800034AA7
:1014200010580078C007C00F70470000600000200F
:101430004005002070B504460E4615460E20624950
:1014400009680870681C6049096848705E4800684F
:1014500084702A4631465C480068C01C04F005FFD1
:1014600070BD08B500F001FE002802D000200090F9
:1014700001E001200090012269461620FFF7DAFF03
:1014800008BD38B50446002500BF2CE0E01C415DD6
:101490004E4802790079401CC3B24C480371203891
:1014A000815420300079202819DB48492039096A05
:1014B0004801464A203A202100F083FE002802D04D
:1014C0000020009001E00120009000213F480171C0
:1014D0002038006A401C3D492039086201E00020A4
:1014E0000090681CC5B2A078A842CFDC01226946F2
:1014F0001720FFF79FFF38BD38B504463348007901
:10150000002808D0314A1179203A126A50012F4A36
:10151000203A00F056FE204604F008FF05466079A8
:1015200021790002084303462A460021084600F0BC
:1015300053FE002802D00020009001E0012000901E
:10154000012269461820FFF775FF38BD70B50446C3
:101550000E4625462878162804D017280BD01828C0
:101560001ED116E00020FEF766FEFFF77AFF01208D
:101570001749087014E0A81CFFF783FF144800788F
:10158000002802D102201249087000201149087079
:1015900006E0A81CFFF7B0FF03200D49087000BF4C
:1015A00000BF70BD70B505460C460748006840781E
:1015B000821C0949284604F058FE03480068407818
:1015C000801C207070BD00007C000020740500208D
:1015D0007400002075000020760000200748804736
:1015E00007480047FEE7FEE7FEE7FEE7FEE7FEE707
:1015F00004480549054A064B704700001D160010B7
:10160000C1000010601A0020606A0020605A0020AB
:10161000605A0020034804490860704701480249A5
:101620000860704740787D0180000020F749202243
:1016300008781043EF2210400422104308707047CE
:1016400010B5F3488047002802D002F051FF012076
:1016500010BD10B502F0AFFF10BDED4928310847AD
:10166000EB493C310847EA496C310847E9490847EA
:10167000E8495C310847E7496A310847E54976316E
:101680000847E44986310847E24994310847E1496F
:10169000A2310847DF49AE31084730B4DE4CA446DA
:1016A00030BC6047DC4874300047DC480047F8B580
:1016B000DB4DCF222968DB4C0878002610400870EB
:1016C0002068D94918308847286822680178127F35
:1016D000090912070901120F114301700907090FC7
:1016E000BF27012921687DD00A4622314B7809782D
:1016F0001B020B43114620310B711B0A4B710378FF
:10170000117A3B4089010B435906490E017022684A
:1017100041784032127A8909921D92068901920E0F
:101720001143417021680622801C093104F09DFD9F
:1017300021684820425C002A04D0286849310830DA
:1017400004F093FD2168B84A7020405C323A713150
:1017500090472868B54A41788906890E891C9047C8
:101760002868017809090901091D017022683940BA
:10177000127AD207520E114301702268417820324A
:10178000127A8909921D92068901920E11434170C5
:1017900021680622801C093104F067FD2168282099
:1017A000425C28682931083004F05FFD2868A04AAF
:1017B00041788906890E891C9047256800206F7F33
:1017C000012181400F4204D0E97F0B2251438E1941
:1017D000761C401C0328F3D32C46203460782178F3
:1017E000000200E01AE0084313214843401CB042C5
:1017F00006D2701E04F0B3FD401C2070000A607019
:101800006078217800020843022803D20220207069
:1018100000206070287F012824D03AE00B46203158
:101820008A79CA71197A0278C9073A40490E0A437F
:10183000027051062268490E6032127CD2011143B7
:10184000017041780622890989010C3141702168B3
:10185000801C093104F009FD28682168062208303F
:1018600071316DE7E079002813D0607822780102A9
:10187000114313204143A079491CC00304F06FFDBC
:10188000401C06467F2104F06AFD401CC1B2E17194
:101890001EE0607921790002084331D06078227817
:1018A0000102114313204143284622304278037835
:1018B00010021843C003491C04F051FD401C0646A9
:1018C0007F2104F04CFD401C81B22171080A607137
:1018D000304604F044FD401C7F2800D97F200121C0
:1018E000E975A97F00916178237809021943514C69
:1018F000EA7FC0B23B46A0474E4834308047F8BD2F
:1019000000204D4CE875034602460121A047F8BD72
:101910004A48002201684A750A7C012002430A7481
:10192000404909682031C87108710020487170472A
:101930003A491A3108473948F430004740480047CF
:1019400038B5049C00943E4C0E34A04738BD30B4EA
:101950003B4CE834A44630BC604710B502F021FF90
:1019600010BD10B502F039FF10BD3549A43108474C
:10197000344800473348323000473249463108473F
:101980003049B23108472F49C23108472D4AD03279
:10199000104710B501F0FEF910BD2A49FC31084787
:1019A0002949084728490E31084727493631084751
:1019B00010B501F0CEFC10BD10B503F034FB10BD26
:1019C0002148DC3000471D480068C0788007C00F00
:1019D000704770B513480068817C427C0802104350
:1019E00012D0FFF7F0FF094C0225012830D116482C
:1019F000DC308047154988422AD1217801202943CB
:101A00000143217003F00FFB70BD0000BA150020E8
:101A1000DF5600001558000027590000CD5B00007C
:101A2000B0000020AC000020451D00002B26000067
:101A300047270000971B000031540000A40000203D
:101A4000F55C00005B5E0000675F000006040000BC
:101A500020788021084328432070D5E7F8B5FE4858
:101A6000C079000656D5FD480668B17C707C0F022F
:101A70000743F948057801D0A80701D4680749D57C
:101A8000F54C207BE17A0002E41C084342D0002F91
:101A900040D060782178000208432AD1307CF17B65
:101AA0000002084305F029F90022ED4B05F028F962
:101AB00005F0D6F880B278430A2104F05AFC4004BD
:101AC000010C2170080A6070307DF27C0002104326
:101AD0000A224243914203D3401E2070000A6070E4
:101AE000607821780002084303D101202070002093
:101AF0006070FD210D40D84801210D430570002084
:101B000003F091FA6078227801021143D64BD54A4E
:101B100009209847F8BD10B50F21CF4804F002FC0A
:101B200010BDF0B504468DB0401C04F0FFFBCA4E5A
:101B300000253E3E024604282AD0C748D31F01781C
:101B4000FF3BFA3B18D001239B039A4279D1C64947
:101B50000A202431884770780621484381190A22D7
:101B6000601D891C04F081FB7078401CC0B270704D
:101B70000A2876D3757074E0C279002A71D0CA063B
:101B80006FD4A37966791A023243012A05D068E03E
:101B900075703570FFF7BFFF63E08278521E120642
:101BA000120E82704ED0AC49437888794E79020289
:101BB0003243887A4E7A00023043491C012B47D0C9
:101BC000801A0872000A487200060B7A000C18434B
:101BD000831A6A46138350839F4A167BD27A360251
:101BE00016436A4696834A7B0F7B110239436A4645
:101BF000D183138050809680D1801372322050722E
:101C000000209072D572280A1073012050730020B2
:101C100090730220D07300201074032050740020B1
:101C200090740420D0740020107505205075002099
:101C300090758E49104688478C4906A81E31884702
:101C40000FE007E0027A827040221143017008E041
:101C50008018B6E7880604D59004000F01D0FFF77E
:101C6000FDFE83492046096988470DB0F0BD10B5D7
:101C70000446001D04F05AFB7D490861211D7D4882
:101C800004F065FB794920465C31884710BD7749EF
:101C90007E3108477549D4310847744ADC32104711
:101CA000724AE43210476C4900203E390A7849787C
:101CB0008A4200D90A200818801A401EC0B2704714
:101CC00000B5FFF7F0FF002804D1634800213E383B
:101CD0004170017000BDF8B50E46074666491C46C6
:101CE000154601208847002807D0FFF7B7FE234696
:101CF0002A463146384602F030FDF8BDF8B50E46AA
:101D000004465D491F46154601208847002814D027
:101D1000022C03D1FFF7C7FF002809D0EAB2534DC8
:101D20003B4631462046F435A847012807D004E059
:101D30000A214D4B514A084698470020F8BD022C15
:101D400012D1454C06213E3C20780A4648430019F2
:101D50003146801C04F089FA2078401CC0B2207003
:101D60000A2801D3002020700120F8BD70B50D466F
:101D700004461121401989031646884201D30020E8
:101D800042E63F480068213004F0D0FA3D4B00198C
:101D900032462946984737E6F8B50646EFF31084F1
:101DA00072B6374D2868213004F0C0FA8019364ADF
:101DB0000121904784F31088334F0024F63FEFF35E
:101DC000108572B62E480068213004F0AFFA311940
:101DD00040182E4900230A192021B84785F310889E
:101DE0000120000320348442E9DBF8BDF7B5070584
:101DF00001993F0D002912D0029900290FD01C49EA
:101E0000897800290BD101997A18012109038A42A6
:101E100005D8019A112382181B039A4201D9002088
:101E2000FEBD0025C41BEFF3108672B6144800688F
:101E3000213004F07BFA611940181449114B4A19FA
:101E40002021984786F31088012000032035854221
:101E5000E9DB0E48C0191BE0BA150020AC000020D9
:101E60000000F43FD3190010D3330000575F000087
:101E700084000020231B001045850000C11C0010B9
:101E8000A80000208F1600009F1800007C0500208D
:101E9000019A029904F0E9F9FB49012088470028DA
:101EA0000AD0EFF3108072B6F84901228C808A7054
:101EB00080F310880120FEBD2046FFF76DFFF9E793
:101EC000F3490847F24A0832104738B5049C009499
:101ED000EF4C1034A04738BD30B4ED4C1C34A44650
:101EE00030BC6047EA4924310847E94A2C321047A0
:101EF000E74A3432104730B4E54C3C34A44630BC99
:101F00006047E34B44331847E14B4C33184730B438
:101F1000DF4C5434A44630BC6047DD495C3108478F
:101F2000DB4864300047DA496C310847D949084733
:101F3000D84908310847D7498C310847D548BE30C1
:101F40000047D448E2300047D34A1047D2495231C3
:101F5000084710B503F026F810BDCF496431084793
:101F6000CD496C310847CC497631084710B502F0AD
:101F7000B9FB10BDC948004770B5C448002480684B
:101F80002546807A4006C60F72B6C44880470220B4
:101F900002F0A8FB641CA4B2FA2CFBD30024304648
:101FA00002F05CFB002801D0012503E0641CE4B2D0
:101FB000032CF4D362B6284626E510B502F066FF7E
:101FC00010BDB6480E300047B54A1047B44A223A11
:101FD000104738B502F05AFFB2480068407805282B
:101FE0001FD1AA488068807A4006C40FAB4880475A
:101FF00000217F20FFF7E8FF69463F20FFF7E6FF5B
:10200000684600788109022906D14106490E6846D2
:1020100001703F20FFF7D8FF002C02D19F480E30FF
:10202000804738BD9C49A431084730B49E4CA44633
:1020300030BC60479848F63000479848143800474D
:1020400096491C31084795484230004793484C3028
:10205000004710B591488047944C0120A0470020CC
:10206000A04710BD924908707047F8B5002472B6B9
:10207000904A0121904B09032046984762B68F4E43
:1020800030680546093004F051F98A494718E87864
:10209000002811D02846313004F048F90646284679
:1020A0002D3004F043F9301A4002060E3878844F80
:1020B000824D002857D073E02846293004F036F9C5
:1020C00006462846253004F031F9301A4002060E43
:1020D00038787B4F794D00280CD026E072B62868FE
:1020E000293004F023F9E10340180821B84762B60B
:1020F000641CE4B2B442F1D32D682846293004F0C0
:1021000015F906462846253037E072B6E203B018C6
:1021100019E072B62868253004F008F9E103401888
:102120000821B84762B6641CE4B2B442F1D328680F
:102130000646293004F0FAF805463046253039E0E5
:1021400072B6E2038018B84762B60120F8BD72B6D5
:102150002868313004F0EAF8E10340180821B84754
:1021600062B6641CE4B2B442F1D32D682846313023
:1021700004F0DCF8064628462D3004F0D7F8301A73
:102180004004410FC1D1E0E772B628682D3004F059
:10219000CDF8E10340180821B84762B6641CE4B2E8
:1021A000B442F1D328680646313004F0BFF8054642
:1021B00030462D3004F0BAF8291A4904490FBFD12E
:1021C000C3E7364BC23318473E4B184730B43D4C3B
:1021D0006634A44630BC604730B43B4CA44630BCA7
:1021E0006047F8B539488047284DA878002809D0BD
:1021F000A888FFF7D1FDEFF3108072B60021A97017
:1022000080F31088324CE079002834D0000610D5D5
:102210002078410705D5FFF721FC2078FB210840F5
:1022200006E0000605D5FFF719FC20784006400EB1
:1022300020702078274F284E41060AD5BF2108403C
:10224000207002206946088002466B46394600200D
:10225000B0472078C1070ED04008400020708007AA
:1022600001D5042000E005206946088002226B4663
:1022700039460020B0476878C10704D040084000C4
:102280006870E8688047F8BD45850000840000203C
:102290005D6100008B620000916300006B660000CE
:1022A000A7290000AC000020E9310000692D0000E2
:1022B0009A0000207C0500208F160000A800002056
:1022C0009F1800001B68000061690000D1640000D5
:1022D000BA1500200002000031540000FE480047FB
:1022E000FD483A300047FC4852300047FA486A300F
:1022F0000047F9486E300047F8498A69120A12020D
:1023000002434A61087C0122104308747047F8B503
:102310000446F348017DE20649094901D20E114302
:1023200001750221EF4D7F20A847EE4E252069461A
:10233000223EB04768460178214301702520A84716
:1023400069462520B0479EE7E748E84900684118FC
:10235000487C097C000208437047F8B50546EFF356
:10236000108472B60021DF4E7F20B047DD4A17206F
:102370006946223A9047684601789F200140A807A5
:10238000400E0143684601701720B04784F310885F
:1023900079E738B5EFF3108472B60021D14A7F2077
:1023A0009047D04A17206946223A904784F3108814
:1023B000684600784006800F38BDCD490840C749BF
:1023C0004A6882434A607047C9490840C3494A681D
:1023D00002434A6070471CB56A4690801180C54828
:1023E0005080D0806946012001F0C0FC1CBDC2486D
:1023F000004770B50546C1480C468268107AFB213B
:1024000008401072BE4928468847BD4A21462846E2
:102410005E3A9047B4E470B5BA4C2468E47BA406F5
:10242000A40E00280AD0B04D2D68ED7D002D05D0FA
:10243000052C07D0062C05D00F2C03D002F0E1FEAE
:1024400001209DE400209BE470B5044603200003B6
:10245000844221D9AC480568E878002802D00128D8
:102460000AD01BE02846253003F060FF0646A04254
:1024700014D82846293008E028462D3003F056FFAE
:102480000646A0420AD82846313003F04FFF0146E5
:10249000801B0818A04201D9002071E401206FE4DC
:1024A00010B572B6994A904762B610BD70B5144621
:1024B0000D460646FFF7C8FF002806D072B6224632
:1024C000934B29463046984762B659E410B572B628
:1024D0008F4BAE33984762B610BD10B572B68B4CB9
:1024E000F63CA04762B610BDF7B50025C80288B01B
:1024F0000E462C46070C11E0089861010818844B21
:102500006A4620219847002069460A5C401C5219FF
:10251000C0B295B22028F8D3641CA4B2BC42EBD35D
:10252000F6060898F60E61010818794B6A4631469E
:1025300098470020694604E00A5C5219401C95B295
:10254000C0B2B042F8D30A98854202D101200BB044
:10255000F0BD0020FBE7FFB50E4601210746090349
:102560006B4BA5B06B4A00209847352269496846F5
:1025700003F07BFE02A8013003F0D8FE6549572224
:10258000441821460EA803F070FE2021601C03F0C1
:10259000C9FE0025002F10D00020395C00290AD088
:1025A0002218401CC0B251702028F6D305E0211833
:1025B000401C4D70C0B22028F9D32046052121309F
:1025C00003F0B0FE002E12D00020315C00290CD0A8
:1025D00022182032401CC0B251700528F5D306E005
:1025E00021182031401C4D70C0B20528F8D3214677
:1025F0002631279803F0ABFE214622312898087235
:10260000000A48720121414A2570002090470121AB
:102610003F4B090300203F4AAE339847012029B0C1
:10262000F0BDF0B5027889B0002A77D03A49CA7176
:1026300042780A72002A01D0042A01D904220A72BF
:10264000C278847813022343334A1C0A537294726B
:102650004479057924022C431546EC72260A2E7320
:10266000A646C4798579200228435073040A84461B
:102670001D489473046808252746207CE47B0002EB
:1026800020430124521C83424C7008D9181A07E0D9
:102690001471200A01E01571280A507107E0C01A70
:1026A0000E7AB04270DA1471260A56710872087AEE
:1026B00088700D70002B63D05079117900020843A7
:1026C000191A6846018343836146C1837146818339
:1026D000B87C797C000222E0713C000000100050C0
:1026E00040600250A7290000AC00002063050000F4
:1026F000FCFF0FFD480800000D330000840000209F
:10270000AB310000A4000020A80000209F180000AA
:102710008F1600007C050020BA15002038E0084321
:1027200002D0002002F07FFC6846018B0180428BC2
:102730004280828B8280C28BC280017232214172C0
:1027400000218172C17201734473210A81730221D5
:10275000C17300210174032141740021817404219B
:10276000C174002101750521417500218175F7496A
:102770008847F64906A81E318847F5490920884749
:10278000012009B0F0BDFFE7F600B04283DA7FE731
:102790000020F6E7FEB50746EE4801780A077DD52A
:1027A000F72211400170BA797C1C7B7912021A431E
:1027B0007BD0C279120678D51022114301708806A9
:1027C00073D4E548804705466079217900020843C3
:1027D000FF1C002832D004F090FA06460091787869
:1027E00039780002084304F088FADC4F00223B46A7
:1027F00004F086FA3246009B04F082FA0090D84832
:1028000001910068017CC27B0802104304F075FA54
:1028100000223B4604F074FA07460E46607A217A9D
:1028200000020843401B04F060FA3A46334604F0C5
:1028300067FA019B009A03F0BFFF24E078783978AB
:102840000002084304F0D6FB0646C5480068017C38
:10285000C27B0802104304F0CDFB314604F034FC87
:1028600004F072FB0022BD4B04F04AFA07460E4604
:10287000607A217A00020843401B04F036FA3A4697
:10288000334604F03DFA0022B64B03F0C5FF04F0D6
:10289000E7F90104090C00D1012101E00EE004E098
:1028A000AB4B0920B04A243B984703206946088176
:1028B00002221102AD4C02AB0020A047FEBD38B58C
:1028C000AB4C2078002804D1AA49684688470120EB
:1028D0002070012038BD10B50B30102801D9FF2021
:1028E00010BD9B4BC4B22046243B9847204610BDE8
:1028F00010B50B30102801D9FF2010BDC4B2944987
:1029000020468847204610BD072801D9002070477F
:1029100001228240964843781A434270C1600120E8
:1029200070478F480068C07D70478D4892490068A5
:102930004118487C097C00020843704710B5030029
:1029400004F0B4FB09061C36506A849EB0CAE60047
:1029500000217F20FFF738FB00213020FFF734FBF8
:1029600001217F20FFF730FB1E216320FFF72CFBA6
:102970001F216D20FFF728FB882114E000217F2014
:10298000FFF722FB00213020FFF71EFB01217F20F3
:10299000FFF71AFB1E216320FFF716FB1F216D2096
:1029A000FFF712FB8A216120FFF70EFB8121ACE0CB
:1029B00000217F20FFF708FB00213020FFF704FBF8
:1029C00001217F20FFF700FB1E216320FFF7FCFAA7
:1029D0001F216D20FFF7F8FA8A216120FFF7F4FA32
:1029E000832192E000217F20FFF7EEFA00213020C2
:1029F000FFF7EAFA01217F20FFF7E6FA1E216320A4
:102A0000FFF7E2FA1F216D20FFF7DEFA8A2161202D
:102A1000FFF7DAFA872178E000217F20FFF7D4FA68
:102A200000213020FFF7D0FA01217F20FFF7CCFAF8
:102A30001E216320FFF7C8FA1F216D20FFF7C4FA9B
:102A40008A216120FFF7C0FA8F215EE000217F20FC
:102A5000FFF7BAFA00213020FFF7B6FA01217F20F4
:102A6000FFF7B2FA1E216320FFF7AEFA1F216D2097
:102A7000FFF7AAFA8A216120FFF7A6FA9F2144E016
:102A800000217F20FFF7A0FA00213020FFF79CFAF9
:102A900001217F20FFF798FA1E216320FFF794FAA7
:102AA0001F212AE000217F20FFF78EFA022130202B
:102AB000FFF78AFA01217F20FFF786FA1F216320A2
:102AC000FFF782FA03216D20FFF77EFA8A21612049
:102AD000FFF77AFAB02118E000217F20FFF774FA9F
:102AE00002213020FFF770FA01217F20FFF76CFAF6
:102AF0001F216320FFF768FA07216D20FFF764FAB2
:102B00008A216120FFF760FABF216520FFF75CFA98
:102B100010BD1A49096860310874704710B5002863
:102B20000ED001282CD0022830D0032807D1022152
:102B30007F20FFF749FA40212920FFF745FA10BD11
:102B400002217F20FFF740FA4621F5E7575F00009A
:102B5000F7330000BA150020051B00000000F43F09
:102B6000AC000020000024402D160010315400005D
:102B7000840000209D2C000063050000A4000020BC
:102B800002217F20FFF720FA4421D5E702217F2090
:102B9000FFF71AFA4221CFE710B5044674480068DF
:102BA000093003F0C3FB1021724B2246573098477F
:102BB00010BDF8B50546EFF3108472B66E4E0127CE
:102BC0003F036C4B394600203268984701216B4A1D
:102BD0000020904766480068093003F0A7FB316881
:102BE000102257314018294603F03FFB0023634D64
:102BF00039461846F63D3268A84784F31088F8BD78
:102C00005F490A69D208D2000A61401E486100206B
:102C1000886108690122104308610869C003FCD576
:102C20007047F0B500260B460446012597B03046A4
:102C300031462D03675C491CBE19A942FAD3002115
:102C4000675C491C7840A942FAD39E422BD190423E
:102C500029D1474E3068093003F068FB454B6A467E
:102C6000572198473068093003F060FB001957225C
:102C7000694603F0FAFA30680D3003F057FB41491A
:102C8000001909680722083103F0EFFA01213B4AD5
:102C900000209047374B002022462946AE33984704
:102CA000012017B06EE50020FBE770B501252D036C
:102CB0000446304B344A2946002098473349204681
:102CC00088472B4800680D3003F030FB2E4907225F
:102CD00040182C490968083103F0C7FA0121274A36
:102CE00000209047234B0020274A2946AE339847BF
:102CF00070BDF8B504001AD0254968468847009889
:102D0000002816D01C4D012109031A4B00202A6807
:102D10009847174F3868093003F008FB2968673176
:102D2000405C401CC6B2052E05D90220F8BD01202A
:102D3000F8BD0420F8BD0320800384430098A0421E
:102D400001D10020F8BD01210C4A002090473868CD
:102D5000093003F0EBFA296800236731465401215A
:102D6000064C09031846F63C2A68A0470320F8BD24
:102D7000A80000208F160000DC0000209F18000033
:102D800000E000E0AC0000207C0500204B57000074
:102D9000C12C0000FE490A79002A00D00870704753
:102DA000F8B5FB4C63695979002915D0B121C95C8C
:102DB000C91F092956D8014618461022D93003F0F8
:102DC00054FAE078002502210128606905D0427993
:102DD000D2060FD5EF488047F8BDCA22125C012AFF
:102DE000FAD1C279012A01D1C57137E0002AF3D1A5
:102DF000C171F8BDC279012AF8D1CA21095C012943
:102E00002AD1E0698026017801208840216A09687A
:102E1000884300D181260027DF4880476169C919AE
:102E2000E0317F1CFFB24876102FF5D3606933463E
:102E30000146E93102460091FF31F9321131D74E96
:102E4000FF305A30B047E0690078142803D2616936
:102E50000120C87101E06069C5716069D049E9303D
:102E60008847F8BDCB4B0622002101208C3B9847B8
:102E7000F8BDF1B5C64CA4B06069417900292BD0EA
:102E8000CA210A5C2146C64F49691C370025E93131
:102E9000012A23D006460246713609320491711E7A
:102EA000531E0196BE4E02930392CA33C232009162
:102EB0007A36FF300A302499B047616910220846FB
:102EC000D930E93103F0A4F900287CD0B14B0422B9
:102ED000002101208C3B984725B0F0BD0C950D9545
:102EE0000E950F951195129513951495427901261B
:102EF000D206002A03DBA64A1379002B7ED0F930D4
:102F0000B847A34C2079002822D01DA80195009035
:102F10006369A44F18460146FF30FF31FA305A3139
:102F2000F933249AB8471DA8013003F0FFF918A916
:102F3000097D000208439C4903F011FA0422019123
:102F400011049A4F01AB0020B847207800287DD0AB
:102F5000676907223946093115A803F086F9394611
:102F60000722713117A803F080F9387A002810A8D9
:102F70006DD086767020C05D002818A868D0867055
:102F800004A83A460190F9321046844E15ADC0307F
:102F900017AB009546362499B0476069102204A902
:102FA000813003F062F908AE0FCE19AE0FC6616929
:102FB00003220E4621A8D33103F057F903223146EC
:102FC000CC3122A800E073E003F04FF93046FF3027
:102FD000EA30039017AF21A96846A2C03146714E6E
:102FE000F93111AB19A86A3E249AB047626922A947
:102FF0001046FF30DA300CAB019700E00AE0009198
:103000000390029519A8F9322499B0476849002025
:10301000884761E75E4A3446D2698023127894403B
:103020005B4A126A1268944300D1812300910146E1
:10303000FF315A31594CFF30FA30249AA047544896
:10304000102240690146E931D93002E025E02BE049
:103050002CE003F0DDF8002801D004221EE04C4CE7
:103060006069F930B847E0690178491CC9B201705C
:103070001429CED3216A0868020C08A8827410A80B
:1030800082710888020A08A8427410A8427109785F
:1030900008A8017410A8017133E70C223D4B0021F0
:1030A00001208C3B984717E7857663E7857067E7D3
:1030B00060690026F930B8476369384F1946FF3315
:1030C0000A33363F1846F931249AB847606910230D
:1030D0000146A03106E017183246FF320A32761C4C
:1030E000BD54F6B24A7C9F1AB742F4DC3049002046
:1030F000884760694179490849004171ECE6F0B5BB
:103100000446C07885B0072807D2224B062200214A
:1031100001208C3B984705B0F0BD1D4E0121706920
:10312000CB221154002506222146CC3003F09DF815
:103130001120716940010818A0314E7CC17E827F48
:10314000437F04920A07D20F009203934A07CF06E7
:10315000D30FFF0F02968A0701970E4E920F817EC2
:10316000407E643EB047A07810260007002843DA6E
:10317000074A1121506949014718FB7E19073BD5C1
:103180000121CA2211545A0715D4A278520711E01E
:10319000980000205DA100004D250000B3AA0000AA
:1031A00055A90000FFAB000040420F003154000061
:1031B000F73300000ED57B7E22789D005B19FE4D13
:1031C0005B19D55C882D02D0102D03D005E0FB4A99
:1031D000117102E04179314341714179C90634D519
:1031E0000B21C9014018C07D01282ED16421F54B67
:1031F000F34A0520984728E0F04F00217869CA2259
:103200001154112149014118CA7E520702D4A278F3
:10321000520709D5497E22788B00C918E64B193B25
:10322000C918555C102D02D1417931434171E44AEE
:10323000E44B943AE449002098476079C00704D0F1
:1032400078690322817911438171607980070BD5F8
:10325000DA481121406949014118897F890703D55E
:1032600081790C2211438171207980070BD5D348D5
:103270001121406949014118497F890703D54179E6
:10328000802211434171CD4841690846A0304674FF
:10329000E278102A00D24274487901221043CB4CC4
:1032A0004871202D08D0402D00D034E700231A4665
:1032B00040210020A0472EE700231A462021F8E7EE
:1032C00070B5BE4C0D466369002825D0A0690C215D
:1032D00081711946FF3120225A31C01D02F0C5FF0D
:1032E0006169A069FF31202227307A3102F0BDFFE9
:1032F0000621B74A412090470B216069C901411856
:10330000C97D002907D14079C00602D4207901285F
:1033100001D1AB48804770BD1846FF302022FA30FB
:1033200002F0A3FF2022AB4B6069A9180E46C0181B
:1033300002F09BFF6369A84C1846FF309A30FF33B8
:1033400032462946BA33A04729460120FFF7B8FF85
:1033500070BDF0B5994C0646606985B04179C907E2
:103360002AD0FF3010210A3002F0DCFF6069320AF7
:10337000C11DF9314E728A72320CCA72320E0A7352
:10338000CA21095C0125012918D0034606460146D9
:103390000933E9365A1E713101AF4EC7491E0091FB
:1033A000C933C33289318D4EFF300A30B04760696E
:1033B000C17902292FD00BE00020ACE6206A002161
:1033C0000660E269802311706269D179022904D014
:1033D0006069C17900292AD02AE000682946814322
:1033E00000D18123E168002040314E7D1718E0377D
:1033F000401CC0B27E761028F7D36069774E014634
:10340000E93102460091FF31F9321131E436FF30E3
:103410005A30B047CBE771497A39E930884760695B
:10342000CA21095C012902D00021C17100E0C571E7
:10343000012070E6F8B5614C694F6169CA19517B8A
:10344000127B09021143009102F089FF0646A07821
:103450000D46002826D0634908208847002804D05C
:1034600060490220884700280CD06069C119487B58
:10347000097B00020843C01C704384B2002D1AD09F
:10348000601916E06069C119487B0A7B0102A06CD3
:103490001143C21C891871438CB2002D0BD028181F
:1034A000001906E00098C01C704384B2002D02D0C1
:1034B0006018C01C84B24C488047A04201D2002052
:1034C000F8BD0120F8BD70B50546D01D14460E4666
:1034D00080B2FFF7AFFF002810D038481B21806969
:1034E0002A0A8171C571027222463146093002F002
:1034F000BCFEE41C364AA0B20421904770BD70B5F2
:103500000546D01D14460E4680B2FFF793FF0028F3
:1035100010D02A481D2180692A0A8171C571027262
:1035200022463146093002F0A0FEE41C284AA0B22F
:103530000421904770BDF7B5204E294970690024D9
:10354000091F2546401802F0F1FEB2691121917160
:10355000837846781B023343009E421C0146B342E7
:1035600058D3019EB34255D80E79CF783302029ECC
:103570003B43B3424ED10B78172B55D00F4E062349
:10358000B669F371577813783F021F4306236343EC
:103590009E1937723F0A77725679177936023E4381
:1035A000064FBF69DF19BE72360AFE72034ECF792D
:1035B000B6699E19377319E0CB740010980000208B
:1035C0005DA10000D3330000B80B000031540000AF
:1035D000ED7F000019020000EF2A0000CFA90000D3
:1035E000610300006994000043600000F74F0E7A09
:1035F000BF69AD1DDB195E73F44BF54E5B69ADB26F
:103600009E19737C367C1B02641C3343AE1DE4B2EE
:10361000B34225D3537916791A02EE4B32439A42BC
:103620001ED00178081893E7002C1BD1E74814231B
:103630008069C91DC371547816782302334303721D
:103640001B0A4372537914791A0222438272120AB6
:10365000C27210220C3002F008FE1435ADB201E047
:10366000002C05D0AD1CDC4AA8B204219047FEBD59
:103670000A22DA4B102000999847FEBDF7B5D34EC9
:10368000D749706900252C46401802F04FFEB169F9
:1036900009228A71837846781B023343009E421CBC
:1036A0000146B34232D3019EB3422FD80E79CF7870
:1036B0003302029E3B43B34228D10B78172B2FD005
:1036C000C24E0423B669241DF371577813783F0264
:1036D0001F43AB009E1937723F0A7772BB4ECF79FA
:1036E000B669A4B29E19B772B84F0E7ABF696D1C45
:1036F000DB19DE72B54BB64E5B69EDB29E19737C79
:10370000367C1B023343261DB3421ED353791679F0
:103710001A02B04B32439A4217D001780818B9E721
:10372000002D14D1A94812228069C2718B784D787E
:103730001A022A430272120A427210220A30C91D6A
:1037400002F093FD1234A4B201E0002D05D0A41CB8
:10375000A14AA0B204219047FEBD0A229F4B082037
:1037600000999847FEBDF7B5984E9D4970690025B0
:1037700008312C46401802F0D9FDB2690921917137
:10378000837846781B023343009E421C0146B342B5
:1037900042D3019EB3423FD80E79CF783302029EC6
:1037A0003B43B34238D10B78182B3FD0874E0723C9
:1037B000B669E41DF371577813783F021F43EB009D
:1037C0005B1B9E1937723F0A7772804E4F79B6693C
:1037D000A4B29E19B772CE798F7936023E437B4FE1
:1037E0006D1CBF69EDB2DF19FE72360A3E73774E6B
:1037F0000F7AB6699E197773744F4E7ABF69DB19D9
:103800009E73724B724E5B699E19737C367C1B02F1
:103810003343E61DB34227D3537816781A026D4B13
:1038200032439A4220D001780818A9E7002D1DD113
:10383000664815228069C2718A784B7812021A4351
:103840000272120A42724A798272CA798B79120222
:103850001A43C272120A027310220D30083102F0AC
:1038600004FD1534A4B201E0002D05D0A41C5A4A71
:10387000A0B204219047FEBD0A22584B08200099AF
:103880009847FEBDF7B5514E55498AB07069083169
:1038900009900025401802F049FD0446B669092048
:1038A000B0710720F07127782046182F77D0417A21
:1038B000207A09020143A37860781B0203430A9827
:1038C00083426BD30B98834268D80C98814265D1B0
:1038D000434909980C31401802F028FD0190E07925
:1038E000A179000208430C212F464F43B9190872F1
:1038F000000A487235480021806A3A4B0170E0792D
:10390000A279000210436A469081D1810A3202A94D
:1039100098470822314ED101002002ABA436B047AF
:103920002A48806A007801283CD0E079A379294AA6
:1039300001021943019EF078B378000218438842CF
:103940006DD13079400604D52448203880470028BE
:1039500036D03079810606D5C0062049C00E103910
:10396000884700282ED0E079A179000208431D4A3B
:103970000221343A9047002836D030793178C00996
:1039800070783BD0000208431538C4B20F48314666
:10399000806922463818153139E000E052E0417D57
:1039A000207D86E7094CE06A216B0678A0693246E3
:1039B00038180A3002F059FCA069B61CC67137E00D
:1039C000052200E00C220A9913E000009800002074
:1039D00063050000FFFF0000ED7F00008D53000035
:1039E0005D030000F93E0000A078627801021143F7
:1039F0000222F94B082098470DB0F0BD00020843A1
:103A0000C01FC4B2F548224680693818F11D0A303B
:103A100002F02BFCF148A41C8069C47108E09042BC
:103A200006D070783378000218438019019081E73E
:103A30006D1C0CD0E94804218069E94AC079801CDA
:103A40009047D9E7E748834201D03C192BE70A2287
:103A5000B9E710B5062912D0417C037C0A024178EF
:103A60001A430B020478C17880780902234301438A
:103A70008B4207D9012219460820D74B24E041790F
:103A80000379EBE70520C002824202D0401C82424B
:103A900003D11846FFF7F2FD10BDD348824203D18F
:103AA0001846CD4B18330FE0CF48401C824203D15B
:103AB0001846FFF758FE10BD100A2928184602D0F4
:103AC000FFF7E0FE10BDC94B984710BDF0B5C34CE1
:103AD0000746A07885B00D4600287DD0C44E08204A
:103AE000B047002879D00220B047002875D1EFF305
:103AF0001080049072B6A06C2818801C86B2BD4855
:103B000080470100BC4803D0E168C978C90708D0E4
:103B10008047002875D1B74810308047761CB042E6
:103B20006FD3AE48AD49801D0770B448009008229D
:103B3000673101A802F099FB63690022B233029950
:103B4000019801F0AFFE022F02D0012F0BD016E03A
:103B50000120E071206D04224119A048891C4C30DD
:103B600002F083FB0BE0E079012806D19B49206D30
:103B700004224C31801C02F078FB0020E071206DA3
:103B8000A16C9F4E801C0291039601950090934A70
:103B900060692389921D9949BA3001F0CEFDA06C6D
:103BA000711C2A18206D801C02F05FFB8B4C67345F
:103BB000201D02F0BBFB2378E278194663781206D9
:103BC0001B021943A378C0091B041943114322792E
:103BD000C0015206520E01E012E012E0491C00231F
:103BE0005A415206520E104321700A0A62700A0CA2
:103BF000A270090EE1702071049880F310880120F2
:103C000017E4002015E47548C1680A466032907ECA
:103C1000927EC007C00FD207D20F603105E0887EC8
:103C20008A7EC007C00FD207D20F9042F7D17047EB
:103C300010B56A484069017CC27B0802104307281E
:103C400007D8FFF7E0FF002804D0FFF7DCFF0128CA
:103C5000FBD010BDFFF7D7FF0028FBD0FFF7D3FF45
:103C60000128FBD010BD10B55C48C1680846223061
:103C70004279037912021A43624B9A4214D9DC4307
:103C8000121903711B0A4371FF2320310B72FA2AA8
:103C90000AD951015C4BD200C91889187D22120142
:103CA000891A0175090A417510BDF0B400285BD06E
:103CB00048780A7807021743484A15269469534DF5
:103CC000E01C631C1B2FA67041D9CC788E7824028F
:103CD00034431C71240A5C71CC798E7924023443FC
:103CE0001C72240A5C7293780C78002B4B7805D0F8
:103CF0001B022343F92B12D9F92104E01B022343B1
:103D0000302B0CD9302101700B0A437001710B0A62
:103D10004371506940190173090A417312E05269F5
:103D2000521913731B0A53734A780B7812021A4301
:103D30000270120A42704A790B791102194301711B
:103D4000090A4171F0BC0921314A032010471B21A7
:103D5000017000244470F3241C7100265E7101710F
:103D600046711C725E72D4E7F0BC7047F0B4002854
:103D700050D01A4A14209369987048780D7804023C
:103D80002C43DC70240A1C71CC788D7824022C43DF
:103D90005C71240A9C714C790D7924022C43DC71EE
:103DA000D81C240A4471CC798D7924022C435C728E
:103DB000240A9C729578154C5B1C002D42D04D79DD
:103DC0000E792D023543F92D28D9F92101710023EF
:103DD00043710170437041E08D5300009800002052
:103DE000ED7F0000FFFF0000022800008742000076
:103DF00069940000ED340000DD340000CC15002093
:103E0000E01600203E060000C0E0FFFF6103000056
:103E1000958C0000F0BC0022012046E705712D0AB8
:103E20004571C8788D78000228431871000A5871CE
:103E30004879097900020843516909190873000A91
:103E4000487324E04B780D781B022B43302B0BD9A1
:103E500030210170002343700171437150690019D2
:103E60000173090A417312E05269121913731B0A94
:103E700053734A780B7812021A430270120A427086
:103E80004A790B79110219430171090A4171F0BC99
:103E90000921F84A0320104710B507E0435C845C11
:103EA0004454491C8354521EC9B2D2B29142F5D334
:103EB00010BDF8B5F04D0520A969EE4A88700121C2
:103EC00003209047A87800282DD068690F22002190
:103ED000BA30FFF7E1FF686907220021B230FFF72F
:103EE000DBFF2E466736301D02F020FA00243470C6
:103EF0007470C009B470C001F470307146062F466A
:103F00005F37760E381D02F011FA3C70210A797085
:103F1000210CC009B970C001210E3043F97038710D
:103F2000A878002806D1696902220846D34BBA3026
:103F3000B23198477D214901D24BD14A032098479D
:103F4000CF49082048398847F8BDF8B50546CE491D
:103F500008208847C84C0B206169C0010818807E82
:103F600001282FD10026374601E0042E04D26069D3
:103F70008019A030877406E0C0480A38804761691C
:103F80008919A0318874761CF6B2082EEDD3BB4F88
:103F900000260A3F01E0082E01D2002000E0B847C9
:103FA00061698919A031761CF6B28876102EF2D399
:103FB0000026B84761698919E031761CF6B2487667
:103FC000102EF6D30B206169C0010918487E042821
:103FD00002D005281DD01EE0A84F00260A3FB84792
:103FE00061698919FF318131761CF6B24876202E3D
:103FF000F5D36069A54B0146FF31A1310A7EFF3040
:104000005206520E0A760A46273A47399A3098479E
:1040100001E0082048766169A0690E460427877090
:104020000822C01CC231B63602F01FF9A069042272
:1040300031460B3002F019F90D218E4A03209047CA
:104040006069294608220A31BA3002F00EF9606927
:10405000294604221231B23002F007F92069C078F3
:104060000328606904D0CA21095C01290AD019E03B
:10407000817D427D080210432A46854B083229463D
:104080009847F8BD4179CA070CD08279520709D404
:10409000C90907D10921890140180078012801D1F7
:1040A000616A08702A7A7B4E002A02D1687A002859
:1040B0002BD0606901466030C37D9A420AD16A7A8A
:1040C000007E824206D108222846793102F0A0F80B
:1040D000002839D06A4B0622002101200A33984774
:1040E000694908200A31884763490120543102F0A8
:1040F0002EF961490620543108710B460121052231
:10410000C904654C0020A047F8BD6069CA21095C5C
:1041100001290BD00246BA32FF3011460A30B047AF
:104120006069022241791143417112E041790246EE
:1041300039434171BA3211468130B047606960300D
:10414000C07B012802D004E06069EFE74E490220FD
:104150008847FFF7AEFEF8BDF8B5474CA0780028B9
:1041600004D101220021454B08469847A169062049
:10417000887001213F4A03209047A07800280CD086
:10418000464861690818417B027B09021143F929FD
:1041900003D9F9210173002141736069374D4179D9
:1041A00008228B070A3D0027002B25DA11434171B5
:1041B0000026A8476169891980314870A84761695C
:1041C0008A1991218854A032761CF6B25770102EAD
:1041D000EFD30026A847616989196031761CF6B2D1
:1041E0004876082EF6D3A84761696031C875A8479C
:1041F00061696031087614E0CA231B5C012B10D181
:1042000083795B070DD5114341710026A847616989
:104210008A1991218854A032761CF6B25770102E5C
:10422000F4D31849032024318847174D0820103D46
:10423000A847002803D0144908200A3188470220E3
:10424000A847012815D10B206169C0010818407DDD
:1042500001280ED12D20400109184A79002A21D0C9
:10426000012A65D0022A04D1064B89790C4A07201D
:104270009847F8BD958C0000980000205725000055
:10428000C1940000D333000055850000C52900000B
:10429000996F0000ABAA00003154000061030000D8
:1042A000FB980000002535E00A226A4351180A18DD
:1042B000507C167C0302FA4833430380F94B438059
:1042C000F94BFB4ECB18597D1B7D090219438180A8
:1042D000022181710321C171077211760023537687
:1042E000F24A038813701B0A537080889070000A8A
:1042F000D070117100205071134606220121C903AC
:10430000B047E94A01217B3AC902E54B0020B0479A
:104310006D1CEDB205206169C0010A18D27BAA426A
:10432000C2D80B2062690121C00110180175A0E7F5
:10433000E26893789B06DB0FCB719178DF231940FD
:104340009170616908188179017292E704E7F8B504
:1043500004460178401C002910D0022976D0032998
:1043600087D1417802780802104310286DD00828C0
:1043700003D1201DE178FFF76CFB7AE741780278E2
:1043800008021043062838D0032839D014283BD01F
:1043900015283ED0012842D00028EED1C348251D63
:1043A0005938C16822314A7E0B7E110219430091AF
:1043B0004069E37A017DC27C0E021643227B00270E
:1043C00011021943027CC37B1002C90018438142C9
:1043D00000D80127FFF72CFCB6492846884700285B
:1043E00020D0FFF740FCB1485938C06822304179ED
:1043F00002790902114319D01DE0FFF7ADFE38E73D
:10440000201DFFF7A2FD34E7211D0020FFF7AEFCC1
:104410002FE70021221D0846FFF747FC29E7FFF799
:1044200007FC26E7A4492820884709E0009989006D
:104430000175090A4175002F02D00673310A4173D4
:10444000201DFEF7A7F914E700E01CE04178027890
:104450000802104301280AD003280CD004280ED0EB
:104460000C288AD1211D0020FEF72AFF01E7201D1C
:10447000FEF745FEFDE6201DFEF792FCF9E6201D45
:10448000FEF7F7FCF5E6E078231D062814D0587CEB
:10449000197C02020A435878197800020843D97837
:1044A0009B7809021943884209D90146804B0122B1
:1044B0001020A43B9847DCE658791979E9E7FFF723
:1044C0003AF8D6E610B50178042905D18278437808
:1044D00011021943022902D0FFF739FF10BD4179BB
:1044E0000079FFF7F3FA0028F8D0FBF73BFE10BD88
:1044F00030B587B071480090801E01900024684656
:104500000481448106210182418227218181C18168
:1045100002258582C4826A4806906A4968468847AF
:1045200062485938416B0A682A430A60816B0A68FD
:104530002A430A60C4700471047007B030BD70B5BE
:104540005A4C0D46593C002828D05F4DA8470028FA
:10455000FCD05E4880475E4880475B4901200839AF
:104560008847A069022181701321C1700221594A34
:10457000032090475849042088476069017DC27C28
:10458000080210430A2101F0EAFE0A21401E4143BD
:104590004E4B0120514AEE3B984770BDE068202108
:1045A000417041788906FCD549480C38804742491A
:1045B0002878884770BD484910B5012010398847D0
:1045C000002804D000210120FFF7B9FF10BD3A49AF
:1045D0001320884710BDFEB50021684601700171A7
:1045E0000D46304E01217F20A536B0472D4C0A20C4
:1045F00069468334A0476846007801090901684686
:104600000170022001430A20B04701A90A20A047F7
:1046100068460079400704D56D1CEDB2FA2DF4D13F
:1046200008E0FA2D06D001A90A20A04768460079C3
:104630004007F8D5684601780A20B0470020401CA2
:1046400080B2FA28FBD301A90A20A0476846007966
:10465000000701D40120FEBD0020FEBD70B5054657
:104660000024FFF7B8FF012817D10020FDF77EFCDA
:104670001B480169C908C900016107214161002186
:10468000816101690122114301610169C903FCD5FE
:10469000002D01D1FDF795FC0124204670BD0000DE
:1046A000E41700200229000082020000F10000202F
:1046B00031540000E52000006F9000001B800100D5
:1046C000C5440010936000002B1B0000C1340000A3
:1046D000FF250000958C0000558500008D9400009A
:1046E00000E000E010B5FE49FE4C496900288870E2
:1046F00013D001281FD002280ED100217F20A0470F
:1047000000210320A04720210420A04702217F2070
:10471000A04703210020A04710BD00217F20A04713
:1047200000210320A04720210420A04702217F2050
:10473000A0470021EEE700217F20A0471F21032092
:10474000A04702217F20A04701210020A04700218F
:104750007F20A0473F210420DDE710B5012802D0CB
:1047600002280ED01BE0487A0C7A00022043C007D2
:1047700015D048790979000208431946FEF7A3FECF
:1047800010BD487A0C7A00022043800707D548798B
:104790000979000208431946FEF7B1FE10BD00205A
:1047A00010BD70B5CE4CE068817EFD22114081764F
:1047B0006069CD4D837F427F2030417800780902C7
:1047C00001430120A847E06881784906C90F61715B
:1047D0008178BF221140817060E710B5C04CE0685D
:1047E000817E022211438176BF4834308047E068E1
:1047F0008178BF2211406279D207520E1143817035
:1048000010BDF0B51746B64A0446D0681E460D46A0
:10481000C37885B000211B0702D5002005B0F0BD8C
:1048200000BF491C89B26429FAD34030417C890712
:10483000FCD4AB4841692D2040010818C07A0128FA
:1048400004D1FF210531204601F06CFDA00707D1FE
:10485000A3482D21426949015118897A01291DD0A7
:104860009F4B0020D968C0310A792254401C80B285
:104870000228F9D39A488078002808D09B4908205C
:104880008847002803D096482178801D0170207841
:1048900080066078288034D5012033E0C16808465E
:1048A000E030427B037B12021A43837B1B041A43D2
:1048B000920C9204A3039B0B1A430273130A4373D3
:1048C000120C82734822525CC37B5206520EDB09E3
:1048D000DB011343C373027A520852000272027A58
:1048E00002231A430272E031087A8007FCD4207850
:1048F00080066078288001D5012000E00020387013
:1049000012E0002076493870CA680020C032A41C2A
:1049100003E013792354401C80B22B888342F8D8DB
:10492000C8680122C030427228886D4F801C2880E0
:10493000B87800280AD06D4908208847002853D04D
:104940006A4902208847002809D04DE0F8684030C5
:10495000417C890748D4407CC007C00F45E02A88C5
:1049600021466348921E01F080FC62485C49009039
:1049700008225F3101A801F078FC7B690122B23383
:104980000299019800F08EFF5548801D0178890733
:10499000890F01702888BA6C55490292801E0091D7
:1049A00001904F4A78693B89921D5249BA3000F014
:1049B00049FFC0B2307001280ED128884C49BA6C2A
:1049C000009101AB801E15C3454A78693B89921D51
:1049D0004849BA3000F0EAFE2888B96C401A2880AD
:1049E000801EA41E607001E001203070012015E7D8
:1049F000F0B54048002687B018300590684606821A
:104A00000672067300273C490120884700283B486E
:104A100003AB02AA04A90FD0FFF7F3FE00280FD1C1
:104A20002F48C068C078C00673D502AA04A93348CD
:104A300000F04DFB012703E0314CA047002868D06F
:104A4000274D2869C278032A03D1E86B0078012832
:104A5000D4D06846007A012801D1002F07D0274C16
:104A6000207886460007000F052854D055E01F4CDB
:104A70000820A04700282DD00220A047002829D1D7
:104A80006846007B002841D0A878002822D0144C2A
:104A90005F34201D01F04AFC2378C1091A4663786F
:104AA000E0781B021A43A37800061B041A43024352
:104AB0002079C9014006400E521C0023584140068F
:104AC000400E01432270100A6070100CA070100E8E
:104AD000E07021716846008A801EC1B2074812E06A
:104AE00098000020A7290000D91B0000699400004D
:104AF000E0160020CC15002045850000DC150020C4
:104B0000B127000005E0FE4A904777E7FD493D20C8
:104B1000884707B0F0BD002F03D07146090718D0B1
:104B20004CE0F949A01C8847FFF79DF8F74902229D
:104B3000087F10430877F6488047207870214006A8
:104B4000C20F68690A540622A11C713001F08DFB66
:104B500054E76969CB7D022B10D0002360314F7B75
:104B60008C463946012F00D000273B4326D0032A2C
:104B700006D06046007A012817D040E00123EDE717
:104B8000059900916946098AE24F0839CBB271460E
:104B90004906C90FA21CB84768696030007A01282D
:104BA000B3D1DD49A01C884728E7012903D0DA49A1
:104BB000A01C884723E0A01CD849FAE70328A4D00A
:104BC0000428A2D16969CB7D022B0AD00023603171
:104BD000497B012900D000210B4396D0032A02D043
:104BE0000DE00123F3E7059900916946098AC94D53
:104BF000891FCBB271464906C90FA21CA847059868
:104C0000009001966846008AA21C0838C3B220783A
:104C1000C14C41060007C90F000F6834A047EDE6FC
:104C200070B5FFB0BE4985B00420884700280BD07E
:104C3000BB4904201A318847BA488047B149162039
:104C400088477FB005B029E5B74880470025002890
:104C50000FD0B64C606941790A075FD58279D307D6
:104C60001ED0B3498130884760698179490849007D
:104C70003BE068460580AC4DAA4EA54C8635923681
:104C8000283C09E0694601A8A8470028D9D0684611
:104C90000088C1B201A8B047A0470028F2D0D0E7F1
:104CA000930709D5A24A014679311C3277309047E3
:104CB0006069FD22817908E0530708D59C4960317D
:104CC000913088476069FB22817911400DE012071D
:104CD000F725002A0BDA027A01461046944A093178
:104CE000423290476069817929408171A9E7294062
:104CF0004171034677333A2210218E4D0020A84798
:104D000009216069890141180978012999D14079FF
:104D1000C00996D1616A0120087092E7E16B0978B9
:104D200000298ED1216C097801298AD1817D427DAB
:104D300008021043804A01219047206C057080E7EB
:104D4000F0B585B00026794C009601960296039640
:104D50006069017A01292ED1817B890901292AD133
:104D600010226946913001F053FA002823D0002523
:104D700004AF6C48C238804778556D1CEDB2032DE6
:104D8000F7D36946887C40214006400E08436946B7
:104D9000887460690621093001F0C4FA6069032251
:104DA00004A90C3001F061FA6269644B104691303D
:104DB00004A909329847267130E570B55B4EF0685A
:104DC000447844705B4DE00706D0FFF729FF0023CD
:104DD00001211A460846A847A00706D5FFF708FE96
:104DE000002302211A460120A847600706D554482F
:104DF0008047002304211A460120A847200707D531
:104E00004F48BC308047002308211A460120A8479C
:104E1000E00610D5F0682030407D3A49400701D5C2
:104E20003E2000E008208847002310211A46012078
:104E3000A847FFF785FFA0060CD500F076F9002300
:104E400020211A460120A8470023FF211A460131DC
:104E50001846A847600611D5314901208847002827
:104E600007D070696030807B012802D1F16807208B
:104E70004875002340211A460120A847E00904D0C4
:104E8000002380211A460120A84707E438B52D4C9D
:104E90000120A04700212C4D7F20A8472A4A3B2013
:104EA0006946223A904768460178FB2001406846EF
:104EB00001703B20A8471A48943080470020A04743
:104EC00038BD224909788906890F01707047174952
:104ED000497801707047F8B51C4E1B4C05460328F5
:104EE00036D300217F20A047D8211120A0471D21C3
:104EF0003A20A0477078FB210840707035E0000030
:104F00003F9C00006F900000CB1D0000200001506E
:104F10005F1B0000CB6F0000155C0000995D000076
:104F2000458500000F260000ED34000098000020A9
:104F30007BA60000315400004F6E000095A90000D0
:104F4000C18D0000692D0000A7290000001000504D
:104F5000707804210843707000217F20A047D82179
:104F60001120A04719213A20A0479A4A69463F20BC
:104F70009047694608782B008006800E087002F082
:104F800095F8060A06040A06040A802100E040217A
:104F900008436946087009783F20A0478E48406959
:104FA0004570F8BD10B50446FFF795FF8A48447078
:104FB00010BD70B5884D01210903884B00206A6C33
:104FC000984728690446093001F0B0F9696C401827
:104FD0000578012D01D9002057E7E07800280DD091
:104FE00020462D3001F0A2F906462046313001F06E
:104FF0009DF90246964212D2911B07E020462530C9
:1050000001F094F9064620462930F0E7002D08D03B
:1050100030460903724A090E9047012035E7B11A5C
:10502000F4E71046F5E7F8B56B4C2D21E2686569A9
:1050300049016E18134611462033603101281FD1F3
:105040006F1CBC46A87C6F7C0002384318D06548B2
:105050002C18607E247E0002204322321075000A44
:1050600050756046427C047C100220431873000A8D
:105070005873C87D10221043C87501207072F8BDA6
:105080002D27707A7F010128F9D1307B0025002877
:105090000CD01D73280A5873C87D10231843C87597
:1050A00075729079022108439071F8BD00F05FF8A5
:1050B000E068014620310D732A0A4A736030C17DD1
:1050C00010221143C1756069C0194572F8BD70B5F1
:1050D000414C0023E568C0352E7DC6545B1CDBB215
:1050E000022BF9D3037801259B06002B43780B8014
:1050F00001DA157001E000231370E3680022801CC0
:10510000C03303E01E7D8654521CD2B20E889642F4
:10511000F8D8B0B2801C0880E068D9210D5401791C
:105120000222114301710120AFE610B52E49012082
:105130008847002815D02848416960314A7B012AF8
:1051400005D1C26860321378082423431370897B29
:10515000012906D1C068017C40221143017400215D
:105160004175224880472148C430804710BD70B542
:10517000194CE0682030417802780D02417E1543D9
:10518000027E0E021643AE4208D861698A7C4B7CCF
:105190001102194349190176090A4176FEF733FDD8
:1051A00000280DD0FEF72FFD0128FBD0AE4205D818
:1051B000E06820308178022211438170012064E68A
:1051C000FEF721FD0028FBD0FEF71DFD0128FBD0D6
:1051D000ECE7000085290000980000208F160000F1
:1051E0009F1800008305000045850000498F0000DE
:1051F000644800684078032801D8012070470020E7
:105200007047FFB50E4600218C465E4981B00968A3
:105210001D464978032900D9FEE7062871D25A496C
:105220004A785A4B5207D20F12010978D2188906D0
:10523000890F890051588E46EFF31081009172B6A4
:105240002A06514C04216034002A07DB277E2A46B7
:10525000FB233D461A400D4015432576F20703D047
:10526000A27E02231A43A276B20703D5A27E0123AF
:105270001A43A276444A8032F30702D09378DB09BE
:10528000FAD0B20704D5404A803292789206F8D517
:10529000002814D0012812D0022821D003281FD0C2
:1052A000E27E01231A43E276E27EFD231A40E27693
:1052B000374A13690B43136104281FD01AE0344A9C
:1052C00013698B431361A27E002801D0F72313E0FA
:1052D00008231A43A276039A0023002A18D111E06A
:1052E000E27E52085200E276294A13690B431361A9
:1052F000022803D0A27EFB231A40EBE7A27E0A43DA
:10530000E8E73DE0234AD27A002A12D0002810D0E4
:10531000012084462048720705D50169C908C900E3
:105320000161092103E00269D208D20002614161F2
:1053300083617007C20F6146704601F091FEB007AD
:1053400003D5A07E40084000A076F0070BD0A07ED9
:10535000FD210840A0760C48803001E0F10702D022
:105360008178C909FAD108488030B10702D581781F
:105370008906FAD4280600D42776009880F310888E
:1053800005B0F0BD0801002000100050E4740010CA
:1053900000ED00E000AA022000E000E0F8B50F46B2
:1053A000064615461C461021184600F0BBFF012199
:1053B0006846017021700D223946601C00F055FFCF
:1053C0002902280A0143684601800078A0736846D4
:1053D0004078E0733146204600F0F7FEF8BDFFB597
:1053E00089B01D460F46139E00F07BFA00240294FC
:1053F00003940494684605940470002D01D00120A4
:1054000000E0002081011498801EC20F1018401087
:10541000C00040186946401C08700872394602AF47
:105420000D22781C00F021FFB0B20202000A0243F4
:1054300069460A80CA8202A9099800F058FA002D2C
:105440003DD0A9B20802090A0843029403940494C7
:1054500069460594088008810E2D01D90E2200E0CE
:105460002A46B81C0B9900F000FF0E2D01D90E271B
:1054700000E02F460E2D1ED90E202D1A099802A9E4
:105480001BD000F034FA0294039404940594102D78
:1054900001D9102200E02A460B98C11902A800F099
:1054A000E4FE102D01D9102000E02846C719102D68
:1054B00001D91020E1E72846DFE700F018FA002EB6
:1054C00024D0029403940494002505940294039438
:1054D00004940594102E01D9102200E0324612984F
:1054E000411902A800F0C1FE102E01D9102000E0E1
:1054F00030464519102E01D9102000E03046361AEA
:1055000002A9099800F0F3F9002EDFD102A9149A3C
:10551000159800F0AAFE14980DB0F0BDFFB589B043
:105520001C46139D00F0DDF90026029603960496B2
:10553000684605960670002C01D0012000E000208E
:1055400081011498801EC20F10184010C00040182E
:105550006A46401C1070107202A80D2201300A9990
:1055600000F083FEA8B20102000A01436A461180DE
:10557000D18202A9099800F0BAF9002C3ED0A0B25D
:105580000102000A014302960396049668460596B6
:10559000018001810E2C01D90E2200E0224602A8D2
:1055A00002300B9900F061FE0E2C01D90E2700E0AD
:1055B00027460E2C1ED90E20241A099802A91BD0AA
:1055C00000F095F90296039604960596102C01D9E1
:1055D000102200E022460B98C11902A800F045FEF7
:1055E000102C01D9102000E02046C719102C01D939
:1055F0001020E1E72046DFE700F079F9002D32D0F6
:1056000000200290039004902C4606460127059046
:10561000BAB202AB0A990998FFF7C0FE0020311810
:10562000A94203D3002102AA115406E002AA135C86
:10563000129A515C4B4002A90B54401C1028EED327
:105640007F1C102C01D9102000E020468619102C58
:1056500001D9102000E02046241A02A9099800F080
:1056600046F9002CD4D102A9149A159800F0FDFD3A
:10567000149851E7FFB5002585B01F461C4601264A
:105680002BE06B46324606990598FFF787FE00200F
:105690002918B94209D2079B6A46125C595C4A40F4
:1056A00069460A54401C1028F2DB102C01D9102244
:1056B00000E022460E986946401900F0D6FD102CF5
:1056C00001D9102000E020464519102C01D91020E6
:1056D00000E02046241A761CB6B2002CD1D1284610
:1056E00009B0F0BDFFB585B000261C460B46074645
:1056F0000096019602960121684603960174017096
:105700000D2219466D46401C00F0AFFD684606822A
:10571000C681394600F059FD002005E0079A295C52
:10572000125C51402954401CA042F7DB22466946D6
:105730000E9800F09AFD2046D2E7FFB589B0159D7E
:105740001C461A462846149F139E0B9900F08DFDA7
:1057500004A912986A460391C1C209A807C8234642
:10576000FFF73DFE002801DBB84202D00020C04315
:10577000D2E6281900903346129A0A990998FFF741
:1057800079FF002802DA0120C043C5E6A419601998
:1057900000903B4604AA0A990998FFF7A3FF002846
:1057A00002DA0220C043B7E62018B5E6FFB58DB097
:1057B00017ACA1CCA84203D20520C04311B0F0BD64
:1057C000461B169804A9009132182B460E990D9885
:1057D000FFF788FF040001D4AC4202D00020C04390
:1057E000ECE733460097169A0E990D98FFF742FFA3
:1057F00006000FD008A803900097019602950DA807
:105800000FC8FFF7ECFD002801DBA84205D00220FD
:10581000C043D3E70120C043D0E7844202D0032035
:10582000C043CBE7002004A908AA07E00B5C155C85
:10583000AB4202D00420C043C0E7401CA042F5D3D5
:105840003046BBE7FFB58DB0189D179804A9169F89
:10585000461B0091F2192B460E990D98FFF742FF57
:10586000040018D4AC4216D108A803900097019602
:1058700002950DA80FC8FFF751FE00280BDBA842C8
:1058800009D1844207D1002004A908AA06E00B5CD4
:10589000155CAB4201D0002090E7401CA042F6DB33
:1058A00001208BE770B54906490E049C0E06050AD7
:1058B000354320706570050C0E043543A5700D024C
:1058C000000E2843E070D001014321710020072120
:1058D0000A1A2518401C9A5CC0B26A710828F7D3CE
:1058E00070BD10B510210C4800F01CFD10BD70B546
:1058F0000C460146084A0020235C155C6B4023548B
:10590000401C1028F8DB204600F05FFC10222146E6
:10591000014800F0AAFC70BDEB190020FCB5002284
:105920008B5C8354521C92B2102AF9D301231D01BF
:105930002A18114620390E7FFF4CB6464E7F0F7C49
:10594000A65D7E40FD4FFF5C7E4046558F7F0197F0
:10595000E65D4F7C7E405670B446CE7F0096A75DD4
:105960008E7C774097707646A45DCE7C7440D47070
:105970000E7D455D6E401671B6464D7D664675409E
:105980005571AC468D7D76467D409571CF7D6740E3
:10599000D7710C7E74401472A6464C7E66467440E5
:1059A00054728E7EA4466E409672CD7E74467D40C3
:1059B000D5720F7F67401773497F6446614051730A
:1059C000019F77409773009E5B1C6E409BB2D6731D
:1059D0000B2BACD3FCBDF0B591B00D4604460027AF
:1059E00039012278685C49194240D348825C2270B0
:1059F00023790E797340C35C2371237A0E7A734046
:105A0000C35C2372237B0E7B7340C35C2373637878
:105A10004E7873409C4663794E797340C35C6370E3
:105A20000593637A4E7A7340C35C6371637B4E7BEC
:105A30007340C35C63726346C35C6373A3788E7800
:105A400073409E46A6798B795E40B446A37A8E7ADF
:105A50005E40835DA3700493A37B8E7B5E40865D76
:105A6000A6717346C35CA3726646835DA373E37B32
:105A7000CE7B73409C46E37ACE7A7340C35CE3737B
:105A8000E379CE797340C35CE372E378C9784B4025
:105A9000C15CE1716346C15CE170059B10465840F2
:105AA000049B06464B405E40029200F0A7FB217823
:105AB0007040414021706078A178484000F09EFB22
:105AC0006178704041406170A078E178484000F012
:105AD00095FBA17870404140A170E078029A504057
