:020000041000EA
:10000000A825002041050010490500104B050010EF
:1000100000000000000000000000000000000000E0
:100020000000000000000000000000004D0500106E
:1000300000000000000000004F05001051050010F6
:10004000E30300102F3C001053050010530500106F
:100050005305001053050010530500105305001000
:1000600053050010530500105305001053050010F0
:1000700053050010530500105305001053050010E0
:1000800053050010530500105305001053050010D0
:1000900053050010530500105305001053050010C0
:1000A00053050010530500105305001053050010B0
:1000B00053050010530500105305001053050010A0
:1000C0000348854605F060FB00480047DD0000104E
:1000D000A825002000B52D1D00BD000000BF00F0C8
:1000E00053FA00F00EFF642000F0C6F9032000F080
:1000F000D4FE012000F0DEFE72B60648007F3020FC
:100100000449087762B60E21172000F0F0F900BF0D
:10011000FEE7000040100050D3490860704770B5FA
:10012000024620241440630920251446AC430125CF
:10013000A54028469C00CD4D2C592075050A6575B3
:10014000050CA575050EE575002B13D0002908D107
:10015000C74D6D7D0543ECB2C54D6D7DC44E7475C4
:1001600015E0C34D6D7D85432C46C14D6D7DC04E60
:1001700074750CE0002905D1BD4C64680443BC4D86
:100180006C6004E0BA4C64688443B94D6C6070BD27
:1001900070B5024620241440630920251446AC4360
:1001A0000125A5402846002B13D0002908D0B04DCA
:1001B000ED7D0543ECB2AE4DED7DAD4EF47515E031
:1001C000AB4DED7D85432C46A94DED7DA84EF475D4
:1001D0000CE0002905D0A64CE4680443A44DEC6073
:1001E00004E0A34CE4688443A14DEC6070BD30B5DD
:1001F0000B4620240440610920250446AC43012518
:10020000A5402A468C00994D2C592276150A657610
:10021000150CA576150EE576002B0AD08C00934DB3
:100220002C592271150A6571150CA571150EE57111
:1002300009E08C008D4D2C592272150A6572150C3F
:10024000A572150EE57230BD10B520230340590983
:1002500020240346A34301249C4022468B00834C68
:10026000E3581A73140A5C73140C9C73140EDC7339
:1002700010BD10B520230340590920240346A34391
:1002800001249C4022468B00784CE3581A71140AD2
:100290005C71140C9C71140EDC7110BD10B5202320
:1002A0000340590920240346A34301249C402246CD
:1002B0008B006E4CE3581A72140A5C72140C9C7218
:1002C000140EDC7210BD30B50146202008404209F2
:1002D00020240846A0430124844023469000634C18
:1002E00020584030102404192578284665782D02BE
:1002F0002843A5782D042843E47824062043184099
:10030000002801D0012030BD0020FCE7F0B50346F5
:100310000C46154620221A40500920261A46B243A0
:10032000012696403146002C0BD182004F4EB25828
:10033000403211720E0A56720E0C96720E0ED67262
:100340000AE08200494EB258403211710E0A5671CD
:100350000E0C96710E0ED671002D0BD18200434EFD
:10036000B258203211760E0A56760E0C96760E0E84
:10037000D6760AE082003D4EB258203211750E0A40
:1003800056750E0C96750E0ED6758200374EB25805
:10039000203211710E0A56710E0C96710E0ED67126
:1003A0000022002A05DBD706FF0E0126BE40314F92
:1003B0003E6000BFF0BD10B5202303405909202442
:1003C0000346A34301249C4022468B00274CE3585C
:1003D00020331A72140A5C72140C9C72140EDC72B4
:1003E00010BD70B500243CE0A00020490858403002
:1003F000142141180A7810464A78120210438A786C
:1004000012041043C97809060843A100174A51583D
:1004100020310A461378194653781B021943937802
:100420001B041943D2781206114308400546002DDB
:1004300000D114E00C480068002804D0294620466A
:10044000094A12689047A0000849085840300575CD
:10045000290A4175290C8175290EC17500BF601CE0
:10046000C4B2022CC0DB70BD0800002000000020D8
:100470004010005000E100E0002109E0002201E00E
:10048000531C9AB27D239B019A42F9DB4B1C99B213
:100490008142F3DB7047002107E0002201E0531C9A
:1004A0009AB2092AFBDB4B1C99B28142F5DB7047FB
:1004B00010B50146272901DA002902DA0020C043DD
:1004C00010BDCC07E40F202904DA4A101B4800684D
:1004D000835C05E008462038421018484068835C79
:1004E000002C01D01811EBE71807000FE8E770B5F2
:1004F000272801DA002800DA70BD0907090FC407B0
:10050000E40F202804DA43100C4E3668F21805E098
:100510000646203E7310094E7668F2181578002CB6
:1005200001D00F2600E0F0263540002C01D00E0748
:10053000310E2E460E43167000BFDDE70C00002082
:100540000448804704480047FEE7FEE7FEE7FEE771
:10055000FEE7FEE765050010C100001003480449EE
:1005600008607047014802490860704740787D0183
:1005700014000020F749202208781043EF22104091
:10058000042210430870704710B5F34880470028D4
:1005900002D002F0DFFE012010BD10B502F03DFFD9
:1005A00010BDED4928310847EB493C310847EA497D
:1005B0006C310847E9490847E8495C310847E74991
:1005C0006A310847E54976310847E44986310847EA
:1005D000E24994310847E149A2310847DF49AE3189
:1005E000084730B4DE4CA44630BC6047DC48743069
:1005F0000047DC480047F8B5DB4DCF222968DB4CCB
:1006000008780026104008702068D94918308847BB
:10061000286822680178127F090912070901120F60
:10062000114301700907090FBF27012921687DD0F7
:100630000A4622314B7809781B020B4311462031C0
:100640000B711B0A4B710378117A3B4089010B43F4
:100650005906490E0170226841784032127A8909A0
:10066000921D92068901920E114341702168062263
:10067000801C093104F028FD21684820425C002AD2
:1006800004D028684931083004F01EFD2168B84ABA
:100690007020405C323A713190472868B54A417801
:1006A0008906890E891C9047286801780909090183
:1006B000091D017022683940127AD207520E114387
:1006C0000170226841782032127A8909921D9206BF
:1006D0008901920E1143417021680622801C093164
:1006E00004F0F2FC21682820425C28682931083097
:1006F00004F0EAFC2868A04A41788906890E891C22
:100700009047256800206F7F012181400F4204D06F
:10071000E97F0B2251438E19761C401C0328F3D32A
:100720002C46203460782178000200E01AE008436B
:1007300013214843401CB04206D2701E04F09AFCBC
:10074000401C2070000A6070607821780002084325
:10075000022803D20220207000206070287F012828
:1007600024D03AE00B4620318A79CA71197A02788E
:10077000C9073A40490E0A43027051062268490EE1
:100780006032127CD201114301704178062289093E
:1007900089010C3141702168801C093104F094FCFE
:1007A000286821680622083071316DE7E079002859
:1007B00013D0607822780102114313204143A079BD
:1007C000491CC00304F056FC401C06467F2104F07F
:1007D00051FC401CC1B2E1711EE060792179000238
:1007E000084331D06078227801021143132041433D
:1007F000284622304278037810021843C003491C6F
:1008000004F038FC401C06467F2104F033FC401CF9
:1008100081B22171080A6071304604F02BFC401C43
:100820007F2800D97F200121E975A97F0091617897
:10083000237809021943514CEA7FC0B23B46A047D6
:100840004E4834308047F8BD00204D4CE8750346D3
:1008500002460121A047F8BD4A48002201684A75B6
:100860000A7C012002430A74404909682031C8719A
:1008700008710020487170473A491A3108473948D1
:10088000F43000474048004738B5049C00943E4C83
:100890000E34A04738BD30B43B4CE834A44630BCDD
:1008A000604710B502F0AEFE10BD10B502F0C6FEF6
:1008B00010BD3549A4310847344800473348323029
:1008C00000473249463108473049B23108472F497D
:1008D000C23108472D4AD032104710B501F0A4F9B3
:1008E00010BD2A49FC3108472949084728490E31DB
:1008F000084727493631084710B501F074FC10BD90
:1009000010B503F0C6FA10BD2148DC3000471D4881
:100910000068C0788007C00F704770B51348006842
:10092000817C427C0802104312D0FFF7F0FF094C93
:100930000225012830D11648DC308047154988420D
:100940002AD12178012029430143217003F0A1FA23
:1009500070BD000066110020DF5600001558000031
:1009600027590000CD5B000044000020400000201B
:10097000451D00002B26000047270000971B0000A4
:100980003154000038000020F55C00005B5E000080
:10099000675F000006040000207880210843284398
:1009A0002070D5E7F8B5FE48C079000656D5FD4859
:1009B0000668B17C707C0F020743F948057801D0C6
:1009C000A80701D4680749D5F54C207BE17A0002DD
:1009D000E41C084342D0002F40D060782178000208
:1009E00008432AD1307CF17B0002084304F0B8FDB3
:1009F0000022ED4B04F0B8FC04F0C0FD80B2784357
:100A00000A2104F04DFB4004010C2170080A6070BB
:100A1000307DF27C000210430A224243914203D30C
:100A2000401E2070000A6070607821780002084340
:100A300003D10120207000206070FD210D40D848B6
:100A400001210D430570002003F023FA607822781D
:100A500001021143D64BD54A09209847F8BD10B57D
:100A60000F21CF4804F049FB10BDF0B504468DB00E
:100A7000401C04F05AFBCA4E00253E3E02460428A4
:100A80002AD0C748D31F0178FF3BFA3B18D0012377
:100A90009B039A4279D1C6490A202431884770784D
:100AA0000621484381190A22601D891C04F00CFBB1
:100AB0007078401CC0B270700A2876D3757074E0EC
:100AC000C279002A71D0CA066FD4A37966791A0256
:100AD0003243012A05D068E075703570FFF7BFFF1B
:100AE00063E08278521E1206120E82704ED0AC491C
:100AF000437888794E7902023243887A4E7A00022E
:100B00003043491C012B47D0801A0872000A4872F2
:100B100000060B7A000C1843831A6A46138350832D
:100B20009F4A167BD27A360216436A4696834A7BE0
:100B30000F7B110239436A46D1831380508096801F
:100B4000D18013723220507200209072D572280A20
:100B5000107301205073002090730220D073002086
:100B6000107403205074002090740420D07400206E
:100B7000107505205075002090758E4910468847E5
:100B80008C4906A81E3188470FE007E0027A827080
:100B900040221143017008E08018B6E7880604D5AA
:100BA0009004000F01D0FFF7FDFE8349204609693C
:100BB00088470DB0F0BD10B50446001D04F0B5FA2D
:100BC0007D490861211D7D4804F0B9FA7949204624
:100BD0005C31884710BD77497E3108477549D4316B
:100BE0000847744ADC321047724AE43210476C49B5
:100BF00000203E390A7849788A4200D90A2008182C
:100C0000801A401EC0B2704700B5FFF7F0FF002801
:100C100004D1634800213E384170017000BDF8B531
:100C20000E46074666491C4615460120884700289F
:100C300007D0FFF7B7FE23462A463146384602F072
:100C4000BDFCF8BDF8B50E4604465D491F46154685
:100C500001208847002814D0022C03D1FFF7C7FFDA
:100C6000002809D0EAB2534D3B4631462046F435C0
:100C7000A847012807D004E00A214D4B514A0846F5
:100C800098470020F8BD022C12D1454C06213E3C6D
:100C900020780A46484300193146801C04F014FAB3
:100CA0002078401CC0B220700A2801D30020207098
:100CB0000120F8BD70B50D46044611214019890385
:100CC0001646884201D3002042E63F4800682130A2
:100CD00004F02BFA3D4B001932462946984737E677
:100CE000F8B50646EFF3108472B6374D2868213008
:100CF00004F01BFA8019364A0121904784F31088CA
:100D0000334F0024F63FEFF3108572B62E4800688B
:100D1000213004F00AFA311940182E4900230A192B
:100D20002021B84785F31088012000032034844235
:100D3000E9DBF8BDF7B5070501993F0D002912D091
:100D4000029900290FD01C49897800290BD10199FB
:100D50007A18012109038A4205D8019A11238218C1
:100D60001B039A4201D90020FEBD0025C41BEFF3EE
:100D7000108672B614480068213004F0D6F9611963
:100D800040181449114B4A192021984786F31088BE
:100D90000120000320358542E9DB0E48C0191BE025
:100DA00066110020400000200000F43F1B090010E5
:100DB000D3330000575F0000180000206B0A0010BA
:100DC00045850000090C00103C0000208F16000033
:100DD0009F18000028010020019A029904F074F97C
:100DE000FB490120884700280AD0EFF3108072B633
:100DF000F84901228C808A7080F310880120FEBDA2
:100E00002046FFF76DFFF9E7F3490847F24A083239
:100E1000104738B5049C0094EF4C1034A04738BDFF
:100E200030B4ED4C1C34A44630BC6047EA49243150
:100E30000847E94A2C321047E74A3432104730B4A9
:100E4000E54C3C34A44630BC6047E34B4433184780
:100E5000E14B4C33184730B4DF4C5434A44630BC1B
:100E60006047DD495C310847DB4864300047DA49B8
:100E70006C310847D9490847D84908310847D7494C
:100E80008C310847D548BE300047D448E23000478F
:100E9000D34A1047D2495231084710B502F094FFA7
:100EA00010BDCF4964310847CD496C310847CC4962
:100EB0007631084710B502F023FB10BDC948004742
:100EC00070B5C448002480682546807A4006C60F65
:100ED00072B6C4488047022002F012FB641CA4B220
:100EE000FA2CFBD30024304602F0E9FA002801D0A6
:100EF000012503E0641CE4B2032CF4D362B6284657
:100F000026E510B502F0FCFE10BDB6480E300047D5
:100F1000B54A1047B44A223A104738B502F0F0FEFD
:100F2000B2480068407805281FD1AA488068807AB6
:100F30004006C40FAB48804700217F20FFF7E8FF41
:100F400069463F20FFF7E6FF6846007881090229DD
:100F500006D14106490E684601703F20FFF7D8FFD1
:100F6000002C02D19F480E30804738BD9C49A431E7
:100F7000084730B49E4CA44630BC60479848F630D1
:100F8000004798481438004796491C31084795484F
:100F90004230004793484C30004710B59148804795
:100FA000944C0120A0470020A04710BD9249087032
:100FB0007047F8B5002472B6904A0121904B09039E
:100FC0002046984762B68F4E30680546093004F0D7
:100FD000ACF88A494718E878002811D02846313003
:100FE00004F0A3F8064628462D3004F09EF8301A87
:100FF0004002060E3878844F824D002857D073E0A7
:101000002846293004F091F806462846253004F099
:101010008CF8301A4002060E38787B4F794D002844
:101020000CD026E072B62868293004F07EF8E1037F
:1010300040180821B84762B6641CE4B2B442F1D348
:101040002D682846293004F070F8064628462530D9
:1010500037E072B6E203B01819E072B6286825309E
:1010600004F063F8E10340180821B84762B6641C35
:10107000E4B2B442F1D328680646293004F055F8AA
:1010800005463046253039E072B6E2038018B8478D
:1010900062B60120F8BD72B62868313004F045F818
:1010A000E10340180821B84762B6641CE4B2B442B8
:1010B000F1D32D682846313004F037F8064628462B
:1010C0002D3004F032F8301A4004410FC1D1E0E76E
:1010D00072B628682D3004F028F8E1034018082182
:1010E000B84762B6641CE4B2B442F1D3286806463D
:1010F000313004F01AF8054630462D3004F015F86A
:10110000291A4904490FBFD1C3E7364BC2331847E8
:101110003E4B184730B43D4C6634A44630BC604763
:1011200030B43B4CA44630BC6047F8B539488047E2
:10113000284DA878002809D0A888FFF7D1FDEFF343
:10114000108072B60021A97080F31088324CE079CB
:10115000002834D0000610D52078410705D5FFF7C8
:1011600021FC2078FB21084006E0000605D5FFF7AA
:1011700019FC20784006400E20702078274F284E1A
:1011800041060AD5BF210840207002206946088028
:1011900002466B4639460020B0472078C1070ED082
:1011A000400840002070800701D5042000E00520A1
:1011B0006946088002226B4639460020B0476878AD
:1011C000C10704D0400840006870E8688047F8BD57
:1011D00045850000180000205D6100008B62000062
:1011E000916300006B660000A7290000400000200A
:1011F000E9310000692D00002E00002028010020A8
:101200008F1600003C0000209F1800001B680000A3
:1012100061690000D1640000661100200002000036
:1012200031540000F9480047F8483A300047F74881
:1012300052300047F5486A300047F4486E300047A6
:10124000F3498A69120A120202434A61087C0122A8
:10125000104308747047F8B50446EE48017DE20675
:1012600049094901D20E114301750221EA4D7F203F
:10127000A847E94E25206946223EB04768460178D6
:10128000214301702520A84769462520B0479EE7E5
:10129000E248E34900684118487C097C00020843A1
:1012A0007047F8B50546EFF3108472B60021DA4EA8
:1012B0007F20B047D84A17206946223A90476846AF
:1012C00001789F200140A807400E01436846017045
:1012D0001720B04784F3108879E738B5EFF310840E
:1012E00072B60021CC4A7F209047CB4A172069462E
:1012F000223A904784F31088684600784006800FB1
:1013000038BDC8490840C2494A6882434A607047AC
:10131000C4490840BE494A6802434A6070471CB548
:101320006A4690801180C0485080D0806946012074
:1013300001F066FC1CBDBD48004770B50546BC48C1
:101340000C468268107AFB2108401072B949284681
:101350008847B84A214628465E3A9047B4E470B5BB
:10136000B54C2468E47BA406A40E00280AD0AB4D3B
:101370002D68ED7D002D05D0052C07D0062C05D05D
:101380000F2C03D002F06FFE01209DE400209BE4AF
:10139000FFB5A24DA64E2868A84F407881B0052819
:1013A0001DD1B068807A4006C40FB84700217F2065
:1013B000FFF7AEFD69463F20FFF7ACFD68460078B9
:1013C0008109032906D18106890E684601703F20F4
:1013D000FFF79EFD002C02D198480E30804701ACEB
:1013E0000FCC02F040FE2868407805281DD1B06877
:1013F000807A4006C40FB84700217F20FFF788FDA0
:1014000069463F20FFF786FD684601788809032872
:1014100006D1C0200143684601703F20FFF778FDE8
:10142000002C02D185480E308047012005B0F0BD68
:1014300070B5044603200003844221D98048056822
:10144000E878002802D001280AD01BE02846253081
:1014500003F06BFE0646A04214D82846293008E067
:1014600028462D3003F061FE0646A0420AD82846E1
:10147000313003F05AFE0146801B0818A04201D902
:10148000002021E401201FE410B572B66D4A904798
:1014900062B610BD70B514460D460646FFF7C8FF8C
:1014A000002806D072B62246674B29463046984738
:1014B00062B609E410B572B6634BAE33984762B6B4
:1014C00010BD10B572B65F4CF63CA04762B610BDB9
:1014D000F7B50025C80288B00E462C46070C11E06F
:1014E000089861010818584B6A4620219847002047
:1014F00069460A5C401C5219C0B295B22028F8D344
:10150000641CA4B2BC42EBD3F6060898F60E610147
:1015100008184D4B6A46314698470020694604E05A
:101520000A5C5219401C95B2C0B2B042F8D30A9876
:10153000854202D101200BB0F0BD0020FBE7FFB5D2
:101540000E460121074609033F4B81B03F4A002068
:1015500098473E49352208468C3803F0B5FD3B4894
:10156000833803F0E2FD39495722441837482146B1
:10157000573803F0A9FD2021601C03F0BEFD0025B3
:10158000002F10D00020395C00290AD02218401CFE
:10159000C0B251702028F6D305E02118401C4D70D0
:1015A000C0B22028F9D320460521213003F0A5FD43
:1015B000002E12D00020315C00290CD022182032DD
:1015C000401CC0B251700528F5D306E02118203127
:1015D000401C4D70C0B20528F8D32146263103982F
:1015E00003F0ADFD2146223104980872000A4872CA
:1015F0000121144A2570002090470121124B090354
:101600000020124AAE33984701200FE7713C0000DA
:101610000010005040600250A72900004000002048
:1016200063050000FCFF0FFD480800000D330000BB
:1016300018000020AB310000380000206B6600006D
:101640003C0000209F1800008F1600002801002099
:10165000F0B5027889B0002A7ED0FE49CA7142787E
:101660000A72002A01D0042A01D904220A72C2781F
:10167000847813022343F74A1C0A53729472447904
:10168000057924022C431546EC72260A2E73A646D1
:10169000C4798579200228435073040A8446EE48B1
:1016A0009473046808252746207CE47B00022043CD
:1016B0000124521C83424C7008D9181A07E0147197
:1016C000200A01E01571280A507107E0C01A0E7A4D
:1016D000B0424DDA1471260A56710872087A887081
:1016E0000D70002B41D05079117900020843191A6E
:1016F0006846018343836146C18371468183B87C18
:10170000797C0002084302D0002002F0C2FB684648
:10171000018B0180428B4280828B8280C28BC2808F
:1017200001723221417200218172C17201734473CE
:10173000210A81730221C1730021017403214174C4
:10174000002181740421C1740021017505214175B6
:1017500000218175C14900E00EE08847BF4906A815
:101760001E318847BE4909208847012009B0F0BDD5
:10177000F600B042A6DAA2E70020F7E7FEB507467A
:10178000B44801780A077DD5F72211400170BA7973
:101790007C1C7B7912021A437BD0C279120678D561
:1017A000102211430170880673D4AE488047054665
:1017B0006079217900020843FF1C002832D003F031
:1017C000CFFE06460091787839780002084303F08E
:1017D000C7FEA54F00223B4603F0C6FD3246009BE4
:1017E00003F0C2FD00909C4801910068017CC27B1F
:1017F0000802104303F0B4FE00223B4603F0B4FDA0
:1018000007460E46607A217A00020843401B03F027
:1018100093FE3A46334603F0A7FD019B009A03F07E
:10182000F1FC24E0787839780002084303F07CFE6C
:10183000064689480068017CC27B0802104303F019
:1018400073FE314603F084FC03F0B6FE0022864BA3
:1018500003F08AFD07460E46607A217A00020843AB
:10186000401B03F069FE3A46334603F07DFD00223B
:101870007E4B03F0E1FD03F081FE0104090C00D171
:10188000012101E00EE004E0754B0920784A243B79
:10189000984703206946088102221102754C02AB69
:1018A0000020A047FEBD38B5734C2078002804D135
:1018B00072496846884701202070012038BD10B564
:1018C0000B30102801D9FF2010BD654BC4B2204653
:1018D000243B9847204610BD10B50B30102801D985
:1018E000FF2010BDC4B25E4920468847204610BD87
:1018F000072801D900207047012282405E484378C2
:101900001A434270C1600120704753480068C07D8F
:10191000704751485A4900684118487C097C0002C8
:101920000843704710B5030003F07DFF09061C361D
:10193000506A84B8CAE4FE0000217F20FFF7E8FA6D
:1019400000213020FFF7E4FA01217F20FFF7E0FAC1
:101950001E216320FFF7DCFA1F216D20FFF7D8FA64
:10196000882114E000217F20FFF7D2FA00213020E7
:10197000FFF7CEFA01217F20FFF7CAFA1E2163206C
:10198000FFF7C6FA1F216D20FFF7C2FA8A216120F6
:10199000FFF7BEFA8121C6E000217F20FFF7B8FAE9
:1019A00000213020FFF7B4FA01217F20FFF7B0FAC1
:1019B0001E216320FFF7ACFA1F216D20FFF7A8FA64
:1019C0008A216120FFF7A4FA8321ACE000217F2067
:1019D000FFF79EFA00213020FFF79AFA01217F20BD
:1019E000FFF796FA1E216320FFF792FA1F216D2060
:1019F000FFF78EFA8A216120FFF78AFA872192E0A9
:101A000000217F20FFF784FA00213020FFF780FAC1
:101A100001217F20FFF77CFA1E216320FFF778FA6F
:101A20001F216D20FFF774FA8A216120FFF770FAF9
:101A30008F2178E000217F20FFF76AFA0021302013
:101A4000FFF766FA01217F20FFF762FA1E2163206B
:101A500018E000006611002040000020575F0000E1
:101A6000F7330000051B00000000F43F0000244095
:101A70007505001031540000180000209D2C000056
:101A800063050000FFF744FA1F216D20FFF740FABD
:101A90008A216120FFF73CFA9F2144E000217F204A
:101AA000FFF736FA00213020FFF732FA01217F20BC
:101AB000FFF72EFA1E216320FFF72AFA1F212AE0E2
:101AC00000217F20FFF724FA02213020FFF720FABF
:101AD00001217F20FFF71CFA1F216320FFF718FA6E
:101AE00003216D20FFF714FA8A216120FFF710FA15
:101AF000B02118E000217F20FFF70AFA02213020F0
:101B0000FFF706FA01217F20FFF702FA1F21632069
:101B1000FFF7FEF907216D20FFF7FAF98A2161200E
:101B2000FFF7F6F9BF2100E002E06520FFF7F0F9CA
:101B300010BD3749096860310874704710B5002836
:101B40000ED0012812D0022816D0032807D1022176
:101B50007F20FFF7DDF940212920FFF7D9F910BDDB
:101B600002217F20FFF7D4F94621F5E702217F20EB
:101B7000FFF7CEF94421EFE702217F20FFF7C8F9F4
:101B80004221E9E710B5044622480068093003F015
:101B9000CCFA1021204B22465730984710BDF8B59B
:101BA0000546EFF3108472B61C4E01273F031A4B13
:101BB00039460020326898470121194A0020904791
:101BC00014480068093003F0B0FA31681022573128
:101BD0004018294603F078FA0023114D394618467B
:101BE000F63D3268A84784F31088F8BD0D490A69AC
:101BF000D208D2000A61401E48610020886108694D
:101C00000122104308610869C003FCD57047000039
:101C1000380000203C0000208F16000070000020DB
:101C20009F18000000E000E0FE490A79002A00D079
:101C300008707047F8B5FB4C63695979002915D0D5
:101C4000B121C95CC91F092956D80146184610227E
:101C5000D93003F039FAE0780025022101286069C3
:101C600005D04279D2060FD5EF488047F8BDCA2289
:101C7000125C012AFAD1C279012A01D1C57137E07B
:101C8000002AF3D1C171F8BDC279012AF8D1CA2165
:101C9000095C01292AD1E069802601780120884069
:101CA000216A0968884300D181260027DF488047E0
:101CB0006169C919E0317F1CFFB24876102FF5D356
:101CC000606933460146E93102460091FF31F9323D
:101CD0001131D74EFF305A30B047E06900781428F0
:101CE00003D261690120C87101E06069C571606952
:101CF000D049E9308847F8BDCB4B062200210120AE
:101D00008C3B9847F8BDF1B5C64CA4B060694179E9
:101D100000292BD0CA210A5C2146C64F49691C37CD
:101D20000025E931012A23D00646024671360932E0
:101D30000491711E531E0196BE4E02930392CA3344
:101D4000C23200917A36FF300A302499B047616977
:101D500010220846D930E93103F0DAF900287CD0A6
:101D6000B14B0422002101208C3B984725B0F0BDE7
:101D70000C950D950E950F9511951295139514953B
:101D800042790126D206002A03DBA64A1379002BEA
:101D90007ED0F930B847A34C2079002822D01DA866
:101DA000019500906369A44F18460146FF30FF314A
:101DB000FA305A31F933249AB8471DA8013003F09C
:101DC000B4F918A9097D000208439C4903F052F9AF
:101DD0000422019111049A4F01AB0020B8472078EA
:101DE00000287DD0676907223946093115A803F01C
:101DF0006BF939460722713117A803F065F9387A73
:101E0000002810A86DD086767020C05D002818A824
:101E100068D0867004A83A460190F9321046844E84
:101E200015ADC03017AB009546362499B0476069B0
:101E3000102204A9813003F047F908AE0FCE19AE85
:101E40000FC6616903220E4621A8D33103F03CF985
:101E500003223146CC3122A800E073E003F034F9CC
:101E60003046FF30EA30039017AF21A96846A2C080
:101E70003146714EF93111AB19A86A3E249AB04728
:101E8000626922A91046FF30DA300CAB019700E0FE
:101E90000AE000910390029519A8F9322499B047FD
:101EA00068490020884761E75E4A3446D26980234A
:101EB000127894405B4A126A1268944300D18123DD
:101EC00000910146FF315A31594CFF30FA30249AC3
:101ED000A0475448102240690146E931D93002E058
:101EE00025E02BE02CE003F013F9002801D00422B8
:101EF0001EE04C4C6069F930B847E0690178491C34
:101F0000C9B201701429CED3216A0868020C08A84E
:101F1000827410A882710888020A08A8427410A866
:101F20004271097808A8017410A8017133E70C22E6
:101F30003D4B002101208C3B984717E7857663E7EE
:101F4000857067E760690026F930B8476369384FE4
:101F50001946FF330A33363F1846F931249AB847F9
:101F6000606910230146A03106E017183246FF329F
:101F70000A32761CBD54F6B24A7C9F1AB742F4DC92
:101F8000304900208847606941794908490041711A
:101F9000ECE6F0B50446C07885B0072807D2224B9E
:101FA0000622002101208C3B984705B0F0BD1D4E54
:101FB00001217069CB221154002506222146CC3024
:101FC00003F082F81120716940010818A0314E7C9D
:101FD000C17E827F437F04920A07D20F009203934F
:101FE0004A07CF06D30FFF0F02968A0701970E4EBE
:101FF000920F817E407E643EB047A0781026000795
:10200000002843DA074A1121506949014718FB7E2D
:1020100019073BD50121CA2211545A0715D4A278B9
:10202000520711E02C0000205DA100004D250000AA
:10203000B3AA000055A90000FFAB000040420F000A
:1020400031540000F73300000ED57B7E22789D00CE
:102050005B19FE4D5B19D55C882D02D0102D03D085
:1020600005E0FB4A117102E0417931434171417948
:10207000C90634D50B21C9014018C07D01282ED1D5
:102080006421F54BF34A0520984728E0F04F0021E2
:102090007869CA221154112149014118CA7E520798
:1020A00002D4A278520709D5497E22788B00C9183C
:1020B000E64B193BC918555C102D02D141793143CB
:1020C0004171E44AE44B943AE4490020984760792E
:1020D000C00704D078690322817911438171607946
:1020E00080070BD5DA481121406949014118897FE1
:1020F000890703D581790C221143817120798007EA
:102100000BD5D3481121406949014118497F8907FE
:1021100003D54179802211434171CD484169084678
:10212000A0304674E278102A00D242744879012225
:102130001043CB4C4871202D08D0402D00D034E7FF
:1021400000231A4640210020A0472EE700231A460C
:102150002021F8E770B5BE4C0D466369002825D0F4
:10216000A0690C2181711946FF3120225A31C01D0E
:1021700002F0AAFF6169A069FF31202227307A317D
:1021800002F0A2FF0621B74A412090470B21606967
:10219000C9014118C97D002907D14079C00602D480
:1021A0002079012801D1AB48804770BD1846FF3027
:1021B0002022FA3002F088FF2022AB4B6069A91878
:1021C0000E46C01802F080FF6369A84C1846FF3025
:1021D0009A30FF3332462946BA33A04729460120B8
:1021E000FFF7B8FF70BDF0B5994C0646606985B041
:1021F0004179C9072AD0FF3010210A3002F07DFF53
:102200006069320AC11DF9314E728A72320CCA728B
:10221000320E0A73CA21095C0125012918D0034630
:10222000064601460933E9365A1E713101AF4EC7E1
:10223000491E0091C933C33289318D4EFF300A30B7
:10224000B0476069C17902292FD00BE00020ACE6CD
:10225000206A00210660E269802311706269D179E9
:10226000022904D06069C17900292AD02AE00068D7
:102270002946814300D18123E168002040314E7D11
:102280001718E037401CC0B27E761028F7D360697B
:10229000774E0146E93102460091FF31F9321131A2
:1022A000E436FF305A30B047CBE771497A39E9302C
:1022B00088476069CA21095C012902D00021C171E7
:1022C00000E0C571012070E6F8B5614C694F6169A5
:1022D000CA19517B127B09021143009102F0CAFE18
:1022E0000646A0780D46002826D063490820884776
:1022F000002804D060490220884700280CD060697B
:10230000C119487B097B00020843C01C704384B29A
:10231000002D1AD0601916E06069C119487B0A7B4C
:102320000102A06C1143C21C891871438CB2002DAC
:102330000BD02818001906E00098C01C704384B226
:10234000002D02D06018C01C84B24C488047A042C7
:1023500001D20020F8BD0120F8BD70B50546D01DA2
:1023600014460E4680B2FFF7AFFF002810D0384861
:102370001B2180692A0A8171C57102722246314689
:10238000093002F0A1FEE41C364AA0B204219047B5
:1023900070BD70B50546D01D14460E4680B2FFF7DD
:1023A00093FF002810D02A481D2180692A0A8171D4
:1023B000C571027222463146093002F085FEE41CE6
:1023C000284AA0B20421904770BDF7B5204E294994
:1023D00070690024091F2546401802F0A6FEB26964
:1023E00011219171837846781B023343009E421C71
:1023F0000146B34258D3019EB34255D80E79CF78E7
:102400003302029E3B43B3424ED10B78172B55D07B
:102410000F4E0623B669F371577813783F021F43B6
:10242000062363439E1937723F0A777256791779EC
:1024300036023E43064FBF69DF19BE72360AFE728E
:10244000034ECF79B6699E19377319E0775800109B
:102450002C0000205DA10000D3330000B80B000069
:1024600031540000ED7F000019020000EF2A000047
:10247000CFA90000610300006994000043600000E0
:10248000F74F0E7ABF69AD1DDB195E73F44BF54E45
:102490005B69ADB29E19737C367C1B02641C3343AE
:1024A000AE1DE4B2B34225D3537916791A02EE4B2E
:1024B00032439A421ED00178081893E7002C1BD1B2
:1024C000E74814238069C91DC37154781678230224
:1024D000334303721B0A4372537914791A0222435D
:1024E0008272120AC27210220C3002F0EDFD143515
:1024F000ADB201E0002C05D0AD1CDC4AA8B204212D
:102500009047FEBD0A22DA4B102000999847FEBD85
:10251000F7B5D34ED749706900252C46401802F014
:1025200004FEB16909228A71837846781B0233431D
:10253000009E421C0146B34232D3019EB3422FD8C3
:102540000E79CF783302029E3B43B34228D10B78F9
:10255000172B2FD0C24E0423B669241DF371577870
:1025600013783F021F43AB009E1937723F0A777200
:10257000BB4ECF79B669A4B29E19B772B84F0E7A26
:10258000BF696D1CDB19DE72B54BB64E5B69EDB2EF
:102590009E19737C367C1B023343261DB3421ED327
:1025A000537916791A02B04B32439A4217D0017808
:1025B0000818B9E7002D14D1A94812228069C27108
:1025C0008B784D781A022A430272120A4272102244
:1025D0000A30C91D02F078FD1234A4B201E0002DCA
:1025E00005D0A41CA14AA0B204219047FEBD0A2236
:1025F0009F4B082000999847FEBDF7B5984E9D491E
:102600007069002508312C46401802F08EFDB26931
:1026100009219171837846781B023343009E421C46
:102620000146B34242D3019EB3423FD80E79CF78E0
:102630003302029E3B43B34238D10B78182B3FD074
:10264000874E0723B669E41DF371577813783F026C
:102650001F43EB005B1B9E1937723F0A7772804E57
:102660004F79B669A4B29E19B772CE798F793602C6
:102670003E437B4F6D1CBF69EDB2DF19FE72360A17
:102680003E73774E0F7AB6699E197773744F4E7A00
:10269000BF69DB199E73724B724E5B699E19737C26
:1026A000367C1B023343E61DB34227D3537816789A
:1026B0001A026D4B32439A4220D001780818A9E7DC
:1026C000002D1DD1664815228069C2718A784B7829
:1026D00012021A430272120A42724A798272CA794B
:1026E0008B7912021A43C272120A027310220D3041
:1026F000083102F0E9FC1534A4B201E0002D05D048
:10270000A41C5A4AA0B204219047FEBD0A22584B8D
:10271000082000999847FEBDF7B5514E55498AB03B
:102720007069083109900025401802F0FEFC04464B
:10273000B6690920B0710720F07127782046182F5C
:1027400077D0417A207A09020143A37860781B028E
:1027500003430A9883426BD30B98834268D80C9842
:10276000814265D1434909980C31401802F0DDFCE3
:102770000190E079A179000208430C212F464F43D4
:10278000B9190872000A487235480021806A3A4B2C
:102790000170E079A279000210436A469081D181EC
:1027A0000A3202A998470822314ED101002002AB1B
:1027B000A436B0472A48806A007801283CD0E079E6
:1027C000A379294A01021943019EF078B3780002E7
:1027D000184388426DD13079400604D5244820380A
:1027E0008047002836D03079810606D5C0062049BA
:1027F000C00E1039884700282ED0E079A179000258
:1028000008431D4A0221343A9047002836D03079D7
:102810003178C00970783BD0000208431538C4B243
:102820000F483146806922463818153139E000E0FA
:1028300052E0417D207D86E7094CE06A216B0678F5
:10284000A069324638180A3002F03EFCA069B61C76
:10285000C67137E0052200E00C220A9913E000005F
:102860002C00002063050000FFFF0000ED7F00004A
:102870008D5300005D030000F93E0000A0786278EF
:10288000010211430222F94B082098470DB0F0BD18
:1028900000020843C01FC4B2F548224680693818B8
:1028A000F11D0A3002F010FCF148A41C8069C471CB
:1028B00008E0904206D070783378000218438019FF
:1028C000019081E76D1C0CD0E94804218069E94A38
:1028D000C079801C9047D9E7E748834201D03C1972
:1028E0002BE70A22B9E710B5062912D0417C037CF8
:1028F0000A0241781A430B020478C17880780902F1
:10290000234301438B4207D9012219460820D74BA4
:1029100024E041790379EBE70520C002824202D02E
:10292000401C824203D11846FFF7F2FD10BDD34888
:10293000824203D11846CD4B18330FE0CF48401CDC
:10294000824203D11846FFF758FE10BD100A29280D
:10295000184602D0FFF7E0FE10BDC94B984710BDE6
:10296000F0B5C34C0746A07885B00D4600287DD051
:10297000C44E0820B047002879D00220B047002874
:1029800075D1EFF31080049072B6A06C2818801CEB
:1029900086B2BD4880470100BC4803D0E168C978D1
:1029A000C90708D08047002875D1B7481030804744
:1029B000761CB0426FD3AE48AD49801D0770B44855
:1029C00000900822623101A802F07EFB63690022B8
:1029D000B2330299019801F097FE022F02D0012F25
:1029E0000BD016E00120E071206D04224119A048AF
:1029F000891C4C3002F068FB0BE0E079012806D11D
:102A00009B49206D04224C31801C02F05DFB0020AC
:102A1000E071206DA16C9F4E801C02910396019580
:102A20000090934A60692389921D9949BA3001F058
:102A3000B6FDA06C711C2A18206D801C02F044FBAE
:102A40008B4C6234201D02F070FB2378E27819462B
:102A5000637812061B021943A378C0091B041943AB
:102A600011432279C0015206520E01E012E012E039
:102A7000491C00235A415206520E104321700A0A83
:102A800062700A0CA270090EE1702071049880F344
:102A90001088012017E4002015E47548C1680A4633
:102AA0006032907E927EC007C00FD207D20F603195
:102AB00005E0887E8A7EC007C00FD207D20F904201
:102AC000F7D1704710B56A484069017CC27B0802A3
:102AD0001043072807D8FFF7E0FF002804D0FFF7CE
:102AE000DCFF0128FBD010BDFFF7D7FF0028FBD08B
:102AF000FFF7D3FF0128FBD010BD10B55C48C168BB
:102B0000084622304279037912021A43624B9A42F4
:102B100014D9DC43121903711B0A4371FF232031BE
:102B20000B72FA2A0AD951015C4BD200C9188918D4
:102B30007D221201891A0175090A417510BDF0B490
:102B400000285BD048780A7807021743484A1526C0
:102B50009469534DE01C631C1B2FA67041D9CC789F
:102B60008E78240234431C71240A5C71CC798E79EE
:102B7000240234431C72240A5C7293780C78002B74
:102B80004B7805D01B022343F92B12D9F92104E01D
:102B90001B022343302B0CD9302101700B0A4370E8
:102BA00001710B0A4371506940190173090A41739D
:102BB00012E05269521913731B0A53734A780B7847
:102BC00012021A430270120A42704A790B791102FA
:102BD00019430171090A4171F0BC0921314A0320EE
:102BE00010471B21017000244470F3241C7100263F
:102BF0005E71017146711C725E72D4E7F0BC704761
:102C0000F0B4002850D01A4A14209369987048787C
:102C10000D7804022C43DC70240A1C71CC788D786A
:102C200024022C435C71240A9C714C790D79240296
:102C30002C43DC71D81C240A4471CC798D79240290
:102C40002C435C72240A9C729578154C5B1C002DF9
:102C500042D04D790E792D023543F92D28D9F9212D
:102C60000171002343710170437041E08D530000F6
:102C70002C000020ED7F0000FFFF00000228000074
:102C80008742000069940000ED340000DD3400004C
:102C9000781100208C1200203E060000C0E0FFFFEB
:102CA00061030000958C0000F0BC0022012046E783
:102CB00005712D0A4571C8788D7800022843187176
:102CC000000A5871487909790002084351690919C5
:102CD0000873000A487324E04B780D781B022B43DD
:102CE000302B0BD9302101700023437001714371E7
:102CF000506900190173090A417312E052691219EF
:102D000013731B0A53734A780B7812021A4302702A
:102D1000120A42704A790B79110219430171090AAA
:102D20004171F0BC0921FE4A0320104710B507E0AD
:102D3000435C845C4454491C8354521EC9B2D2B2D1
:102D40009142F5D310BDF8B5F64D0520A969F44AB6
:102D50008870012103209047A87800282DD0686949
:102D60000F220021BA30FFF7E1FF68690722002136
:102D7000B230FFF7DBFF2E466236301D02F0D5F988
:102D8000002434707470C009B470C001F4703071E4
:102D900046062F465A37760E381D02F0C6F93C70AB
:102DA000210A7970210CC009B970C001210E30438D
:102DB000F9703871A878002806D16969022208469E
:102DC000D94BBA30B23198477D214901D84BD74A07
:102DD00003209847D549082048398847F8BDF8B5F9
:102DE0000546D44908208847CE4C0B206169C001B4
:102DF0000818807E01282FD10026374601E0042ED6
:102E000004D260698019A030877406E0C6480A3889
:102E1000804761698919A0318874761CF6B2082E42
:102E2000EDD3C14F00260A3F01E0082E01D2002059
:102E300000E0B84761698919A031761CF6B288763E
:102E4000102EF2D30026B84761698919E031761C4B
:102E5000F6B24876102EF6D30B206169C00109182E
:102E6000487E042802D005281DD01EE0AE4F002663
:102E70000A3FB84761698919FF318131761CF6B282
:102E80004876202EF5D36069AB4B0146FF31A13166
:102E90000A7EFF305206520E0A760A46273A473912
:102EA0009A30984701E0082048766169A0690E468B
:102EB000042787700822C01CC231B63602F004F91C
:102EC000A069042231460B3002F0FEF80D21944A2D
:102ED000032090476069294608220A31BA3002F07F
:102EE000F3F86069294604221231B23002F0ECF89E
:102EF0002069C0780328606904D0CA21095C0129CF
:102F000009D018E0817D427D080210432A4608322C
:102F100029468A4B2CE04179CA070CD082795207A6
:102F200009D4C90907D1092189014018007801286D
:102F300001D1616A08702A7A814E002A02D1687A2A
:102F4000002817D0606901466030C37D9A420AD1DB
:102F50006A7A007E824206D108222846793102F040
:102F6000D7F8002825D0714B0622002101200A3312
:102F70009847F8BD6069CA21095C01290BD0024657
:102F8000BA32FF3011460A30B047606902224179F7
:102F90001143417112E04179024639434171BA321D
:102FA00011468130B04760696030C07B012802D093
:102FB00004E06069EFE75F4902208847FFF7C3FE3E
:102FC000F8BDF8B5574CA078002804D101220021A3
:102FD000554B08469847A169062088700121504A40
:102FE00003209047A07800280CD056486169081843
:102FF000417B027B09021143F92903D9F9210173AD
:10300000002141736069484D417908228B070A3DD0
:103010000027002B25DA114341710026A84761697A
:10302000891980314870A84761698A1991218854AB
:10303000A032761CF6B25770102EEFD30026A847A8
:10304000616989196031761CF6B24876082EF6D38C
:10305000A84761696031C875A84761696031087621
:1030600014E0CA231B5C012B10D183795B070DD5BB
:10307000114341710026A84761698A19912188543A
:10308000A032761CF6B25770102EF4D328490320D4
:1030900024318847274D0820103DA847002803D039
:1030A000244908200A3188470220A847012815D161
:1030B0000B216069C9014118497D01290ED12D22DA
:1030C000520180184179002909D0012962D00229D2
:1030D00004D18179164B1C4A07209847F8BD00257A
:1030E0004AE00A226A4351180A18507C167C0302EF
:1030F000164833430380104BC33B4380114BDF3BE7
:10310000CB18597D1B7D09021943818002218171F1
:103110000321C1710772117600235376038817E0EB
:10312000958C00002C00002057250000C194000061
:10313000D333000055850000C5290000996F0000B9
:10314000ABAA000061030000FB9800009013002070
:10315000F94AFA4E138080885080918013460121ED
:103160000622C9030020B0470121C902F44BF54AE9
:103170000020B0476D1CEDB205206169C0010A183E
:10318000D27BAA42ADD80B2062690121C001101880
:103190000175F8BDE1688B789B06DB0FC3718878F9
:1031A000DF23184088706069801881790172F8BD4A
:1031B00007E7F8B504460178401C002910D0022921
:1031C00076D003290BD141780278080210431028E9
:1031D0006DD0082803D1201DE178FFF784FBF8BDEE
:1031E0004178027808021043062838D0032839D0E5
:1031F00014283BD015283ED0012842D00028EED11B
:10320000CD48251D5438C16822314A7E0B7E1102FB
:10321000194300914069E37A017DC27C0E02164396
:10322000227B002711021943027CC37B1002C900D4
:103230001843814200D80127FFF744FCC2492846C1
:103240008847002820D0FFF758FCBB485438C06896
:103250002230417902790902114319D01DE0FFF7AC
:10326000B0FEF8BD201DFFF7BAFDF8BD211D0020FE
:10327000FFF7C6FCF8BD0021221D0846FFF75FFCE2
:10328000F8BDFFF71FFCF8BDB0492820884709E0CA
:10329000009989000175090A4175002F02D0067353
:1032A000310A4173201DFEF769FAF8BD00E01CE009
:1032B000417802780802104301280AD003280CD074
:1032C00004280ED00C28F0D1211D0020FEF742FF6B
:1032D000EBE7201DFEF75DFEE7E7201DFEF7AAFCE9
:1032E000E3E7201DFEF70FFDDFE7E078231D06284A
:1032F00014D0587C197C02020A43587819780002CD
:103300000843D9789B7809021943884209D90146B4
:103310008A4B01221020A43B9847C6E758791979B7
:10332000E9E7FFF752F8C0E710B50178042905D1A5
:103330008278437811021943022902D0FFF739FF3E
:1033400010BD41790079FFF70BFB0028F8D0FCF79E
:10335000C1FE10BD30B587B07D480090801E019041
:10336000002468460481448106210182418227218C
:103370008181C18102258582C48276480690764982
:10338000684688476C485438416B0A682A430A608B
:10339000816B0A682A430A60C4700471047007B024
:1033A00030BD70B5644C0D46543C002828D06B4DA0
:1033B000A8470028FCD06A4880476A488047674988
:1033C000012008398847A069022181701321C1704A
:1033D0000221654A032090476449042088476069B8
:1033E000017DC27C080210430A2101F043FE0A213C
:1033F000401E41435A4B01205D4AEE3B984770BD49
:10340000E0682021417041788906FCD555480C3888
:1034100080474E492878884770BD544910B501202F
:1034200010398847002804D000210120FFF7B9FF98
:1034300010BD46491320884710BDFEB500216846DF
:10344000017001710D4601214A4E7F20B047494C61
:103450000A206946223CA047684600780109090114
:1034600068460170022001430A20B04701A90A20E2
:10347000A04768460079400704D56D1CEDB2FA2DCF
:10348000F4D108E0FA2D06D001A90A20A047684629
:1034900000794007F8D5684601780A20B047002037
:1034A000401C80B2FA28FBD301A90A20A047684635
:1034B0000079000701D40120FEBD0020FEBD70B5DB
:1034C00005460024FFF7B9FF012817D10020FDF7BA
:1034D000F1FC29480169C908C9000161072141615E
:1034E0000021816101690122114301610169C90360
:1034F000FCD5002D01D1FDF708FD0124204670BD4B
:103500000D4910B5543949691A4C8870002835D0D6
:10351000012841D002280ED100217F20A0470021A0
:103520000320A04720210420A04702217F20A0479C
:1035300003210020A04710BD80000020315400006E
:103540009013002007020000E52000006F900000AB
:103550001B80010029330010936000002B1B00002A
:10356000C1340000FF250000958C00005585000047
:103570008D940000A729000000E000E000217F20DA
:10358000A04700210320A04720210420A0470221BA
:103590007F20A0470021CCE700217F20A0471F21EA
:1035A0000320A04702217F20A04701210020A0473F
:1035B00000217F20A0473F210420BBE710B5012850
:1035C00002D002280ED01BE0487A0C7A0002204379
:1035D000C00715D048790979000208431946FEF75B
:1035E000BCFEA8E7487A0C7A00022043800707D582
:1035F00048790979000208431946FEF7CAFE9AE79E
:10360000002098E770B5F84CE068817EFD221140FB
:1036100081766069F54D837F427F20304178007864
:10362000090201430120A847E06881784906C90FD3
:1036300061718178BF221140817070BD10B5EA4C74
:10364000E068817E022211438176E8483430804769
:10365000E0688178BF2211406279D207520E11438F
:10366000817068E7F0B51746DF4A0446D0681E4609
:103670000D46C37885B000211B0702D5002005B098
:10368000F0BD00BF491C89B26429FAD34030417CA7
:103690008907FCD4D44841692D2040010818C07A1C
:1036A000012804D1FF210531204601F026FDA007A5
:1036B00007D1CD482D21426949015118897A012944
:1036C0001DD0C94B0020D968C0310A792254401C52
:1036D00080B20228F9D3C4488078002808D0C449B1
:1036E00008208847002803D0BF482178801D01703A
:1036F000207880066078288034D5012033E0C168C6
:103700000846E030427B037B12021A43837B1B0492
:103710001A43920C9204A3039B0B1A430273130ADD
:103720004373120C82734822525CC37B5206520EC2
:10373000DB09DB011343C373027A520852000272A1
:10374000027A02231A430272E031087A8007FCD41D
:10375000207880066078288001D5012000E00020D4
:10376000387012E00020A0493870CA680020C032CA
:10377000A41C03E013792354401C80B22B8883429D
:10378000F8D8C8680122C03042722888964F801C41
:103790002880B87800280AD0954908208847002852
:1037A00053D0934902208847002809D04DE0F8689B
:1037B0004030417C890748D4407CC007C00F45E0B9
:1037C0002A8821468B48921E01F07EFC8A48864951
:1037D000009008225A3101A801F076FC7B69012291
:1037E000B2330299019800F08FFF7F48801D017865
:1037F0008907890F01702888BA6C7E490292801E61
:1038000000910190784A78693B89921D7A49BA30D3
:1038100000F04AFFC0B2307001280ED128887549E7
:10382000BA6C009101AB801E15C36F4A78693B8961
:10383000921D7149BA3000F0EBFE2888B96C401A2D
:103840002880801EA41E607001E0012030700120DD
:1038500015E7F0B56848002687B01830059068462F
:1038600006820672067300276449012088470028F3
:10387000634803AB02AA04A90FD0FFF7F3FE0028A8
:103880000FD15948C068C078C0065FD502AA04A904
:103890005B4800F052FB012703E05A4CA047002888
:1038A00054D0514D2869C278032A03D1E86B0078BF
:1038B0000128D4D06846007A012801D1002F07D012
:1038C0004F4C207886460007000F052840D041E085
:1038D000474C0820A04700282DD00220A0470028F0
:1038E00029D16846007B00282DD0A878002822D056
:1038F0003D4C5A34201D01F018FC2378C1091A46AA
:103900006378E0781B021A43A37800061B041A436D
:1039100002432079C9014006400E521C0023584141
:103920004006400E01432270100A6070100CA07017
:10393000100EE07021716846008A334A801EC1B2C1
:103940002F4890478BE731493D20884707B0F0BDAD
:10395000002F03D07146090719D06AE02C49A01C3A
:103960008847FFF7CAF82B490222087F10430877DF
:103970001E487A388047207870214006C20F686957
:103980000A540622A11C713001F09EFB67E76969A9
:10399000CB7D022B10D0002360314F7B8C46394603
:1039A000012F00D000273B4343D0032A06D06046B6
:1039B000007A012834D05DE00123EDE705990091FC
:1039C0006946098A144F0839CBB271464906C90FB6
:1039D000A21CB84768696030007A0128B2D10F494B
:1039E000A01C88473BE700002C000020D91B0000EA
:1039F000699400008C120020781100204585000099
:103A000088110020B12700003F9C00006F9000004B
:103A1000CB1D000020000150CB6F0000155C0000A2
:103A2000012903D0FE49A01C884723E0A01CFD49C2
:103A3000FAE7032886D0042884D16969CB7D022B5C
:103A40000AD000236031497B012900D000210B43BB
:103A50009CD0032A02D00DE00123F3E705990091E1
:103A60006946098AF04D891FCBB271464906C90FD4
:103A7000A21CA8470598009001966846008AA21CDF
:103A80000838C3B22078E64C41060007C90F000F82
:103A90006834A047E3E670B5FFB0E44985B0042080
:103AA000884700280BD0E14904201A318847E048B4
:103AB0008047E049162088477FB005B070BDDE48DA
:103AC0008047002500280FD0DC4C606941790A0747
:103AD0005ED58279D3071DD0D94981308847606986
:103AE0008179490849003AE068460580D24DD04EB8
:103AF00086359236D34C09E0694601A8A8470028CC
:103B0000DAD068460088C1B201A8B047A0470028B3
:103B1000F2D0D1E7930709D5C94A014679311C3261
:103B2000773090476069FD22817908E0530708D516
:103B3000C3496031913088476069FB228179114027
:103B40000DE01207F725002A0BDA027A014610462B
:103B5000BB4A0931423290476069817929408171BD
:103B6000AAE729404171034677333A221021B64D26
:103B70000020A847092160698901411809780129B5
:103B80009AD14079C00997D1616A0120087093E702
:103B9000E16B097800298FD1216C097801298BD13B
:103BA000817D427D08021043A84A01219047206C84
:103BB000057081E7F0B585B00026A04C009601960F
:103BC000029603966069017A01292ED1817B8909C9
:103BD00001292AD110226946913001F099FA002872
:103BE00023D0002504AF9248C238804778556D1C19
:103BF000EDB2032DF7D36946887C40214006400E84
:103C000008436946887460690621093001F075FA35
:103C10006069032204A90C3001F056FA62698C4BEA
:103C20001046913004A909329847267127E570B5EE
:103C3000824EF06844784470834DE00706D0FFF769
:103C40002AFF002301211A460846A847A00706D5E7
:103C5000FFF7FFFD002302211A460120A847600755
:103C600006D57C488047002304211A460120A84736
:103C7000200707D57748BC308047002308211A4623
:103C80000120A847E00610D5F0682030407D694942
:103C9000400701D53E2000E008208847002310217E
:103CA0001A460120A847FFF785FFA0060CD500F0B3
:103CB00072F9002320211A460120A8470023FF2182
:103CC0001A4601311846A847600611D55749012008
:103CD0008847002807D070696030807B012802D1B6
:103CE000F16807204875002340211A460120A847A3
:103CF000E00904D0002380211A460120A84770BDA6
:103D000038B5554C0120A0470021544D7F20A847CD
:103D1000524A3B206946223A904768460178FB2088
:103D20000140684601703B20A847404894308047D6
:103D30000020A04738BD4A4909788906890F0170DB
:103D400070473E49497801707047F8B5444E434C7E
:103D5000054603280DD300217F20A047D82111203C
:103D6000A0471D213A20A0477078FB2108407070C1
:103D70000CE0707804210843707000217F20A04778
:103D8000D8211120A04719213A20A047334A3F20CB
:103D90006946223A9047694608782B008006800ED3
:103DA000087001F040FD060A06040A06040A802194
:103DB00000E0402108436946087009783F20A04789
:103DC0001E4840694570F8BD10B50446FFF7BDFFB9
:103DD0001A48447005E470B5184D01210903214BC0
:103DE00000206A6C984728690446093001F09DF963
:103DF000696C40180578012D01D9002070BDE0786C
:103E0000002831D020462D3001F08FF9064620469B
:103E1000313001F08AF90246964236D2911B2BE0EE
:103E2000155C0000995D0000CB6F00004585000027
:103E30000F2600006F900000ED3400002C000020E1
:103E40007BA60000371B0000315400004F6E0000BD
:103E500095A90000C18D0000692D0000A729000070
:103E6000001000508F1600002046253001F05DF94B
:103E7000064620462930CCE7002D08D030460903FD
:103E80006F4A090E9047012070BDB11AF4E7104641
:103E9000F5E7F8B56B4C2D21E268656949016E18AC
:103EA000134611462033603101281FD16F1CBC46D8
:103EB000A87C6F7C0002384318D063482C18607EC1
:103EC000247E0002204322321075000A507560469D
:103ED000427C047C100220431873000A5873C87D8A
:103EE00010221043C87501207072F8BD2D27707A1A
:103EF0007F010128F9D1307B002500280CD01D73EB
:103F0000280A5873C87D10231843C87575729079B4
:103F1000022108439071F8BD00F05FF8E0680146A7
:103F200020310D732A0A4A736030C17D102211437B
:103F3000C1756069C0194572F8BD70B5414C002368
:103F4000E568C0352E7DC6545B1CDBB2022BF9D36D
:103F5000037801259B06002B43780B8001DA15704E
:103F600001E000231370E3680022801CC03303E0EB
:103F70001E7D8654521CD2B20E889642F8D8B0B23A
:103F8000801C0880E068D9210D5401790222114378
:103F90000171012070BD10B52C490120884700280F
:103FA00015D02848416960314A7B012A05D1C26891
:103FB00060321378082423431370897B012906D1CA
:103FC000C068017C402211430174002141752048E2
:103FD00080471F48C4308047FCE670B5194CE06844
:103FE0002030417802780D02417E1543027E0E0298
:103FF0001643AE4208D861698A7C4B7C1102194392
:1040000049190176090A4176FEF747FD00280DD0CF
:10401000FEF743FD0128FBD0AE4205D8E068203012
:104020008178022211438170012070BDFEF735FDB9
:104030000028FBD0FEF731FD0128FBD0ECE70000A3
:104040009F1800002C00002083050000458500001B
:10405000498F0000644800684078032801D8012097
:10406000704700207047FFB50E4600218C465E4920
:1040700081B009681D464978032900D9FEE7062862
:1040800071D25A494A785A4B5207D20F1201097815
:10409000D2188906890F890051588E46EFF3108196
:1040A000009172B62A06514C04216034002A07DBC5
:1040B000277E2A46FB233D461A400D4015432576B0
:1040C000F20703D0A27E02231A43A276B20703D5D9
:1040D000A27E01231A43A276444A8032F30702D01B
:1040E0009378DB09FAD0B20704D5404A803292783F
:1040F0009206F8D5002814D0012812D0022821D029
:1041000003281FD0E27E01231A43E276E27EFD23DC
:104110001A40E276374A13690B43136104281FD013
:104120001AE0344A13698B431361A27E002801D040
:10413000F72313E008231A43A276039A0023002AE8
:1041400018D111E0E27E52085200E276294A136942
:104150000B431361022803D0A27EFB231A40EBE736
:10416000A27E0A43E8E73DE0234AD27A002A12D031
:10417000002810D0012084462048720705D5016927
:10418000C908C9000161092103E00269D208D2000F
:104190000261416183617007C20F6146704601F0A0
:1041A00005FBB00703D5A07E40084000A076F007CD
:1041B0000BD0A07EFD210840A0760C48803001E0A5
:1041C000F10702D08178C909FAD108488030B107D7
:1041D00002D581788906FAD4280600D4277600987B
:1041E00080F3108805B0F0BD98000020001000504A
:1041F0009058001000ED00E000AA022000E000E06E
:10420000F8B50F46064615461C461021184600F024
:1042100074FF01216846017021700D223946601C2F
:1042200000F052FF2902280A014368460180007805
:10423000A07368464078E0733146204600F0F7FEF0
:10424000F8BDFFB589B01D460F46139E00F07BFAFE
:104250000024029403940494684605940470002D8D
:1042600001D0012000E0002081011498801EC20FBF
:1042700010184010C00040186946401C08700872B1
:10428000394602AF0D22781C00F01EFFB0B20202C8
:10429000000A024369460A80CA8202A9099800F00E
:1042A00058FA002D3DD0A9B20802090A0843029429
:1042B0000394049469460594088008810E2D01D961
:1042C0000E2200E02A46B81C0B9900F0FDFE0E2DD0
:1042D00001D90E2700E02F460E2D1ED90E202D1AD3
:1042E000099802A91BD000F034FA029403940494B4
:1042F0000594102D01D9102200E02A460B98C1190F
:1043000002A800F0E1FE102D01D9102000E028469F
:10431000C719102D01D91020E1E72846DFE700F08A
:1043200018FA002E24D002940394049400250594D6
:104330000294039404940594102E01D9102200E0F5
:1043400032461298411902A800F0BEFE102E01D983
:10435000102000E030464519102E01D9102000E051
:104360003046361A02A9099800F0F3F9002EDFD181
:1043700002A9149A159800F0A7FE14980DB0F0BD8C
:10438000FFB589B01C46139D00F0DDF900260296AA
:1043900003960496684605960670002C01D001200D
:1043A00000E0002081011498801EC20F10184010F8
:1043B000C00040186A46401C1070107202A80D22FE
:1043C00001300A9900F080FEA8B20102000A014300
:1043D0006A461180D18202A9099800F0BAF9002C2E
:1043E0003ED0A0B20102000A014302960396049651
:1043F00068460596018001810E2C01D90E2200E04D
:10440000224602A802300B9900F05EFE0E2C01D964
:104410000E2700E027460E2C1ED90E20241A0998DC
:1044200002A91BD000F095F9029603960496059612
:10443000102C01D9102200E022460B98C11902A8C5
:1044400000F042FE102C01D9102000E02046C719D0
:10445000102C01D91020E1E72046DFE700F079F9C0
:10446000002D32D000200290039004902C46064686
:1044700001270590BAB202AB0A990998FFF7C0FE6E
:1044800000203118A94203D3002102AA115406E0EA
:1044900002AA135C129A515C4B4002A90B54401CB7
:1044A0001028EED37F1C102C01D9102000E02046EC
:1044B0008619102C01D9102000E02046241A02A9E8
:1044C000099800F046F9002CD4D102A9149A159845
:1044D00000F0FAFD149851E7FFB5002585B01F469E
:1044E0001C4601262BE06B46324606990598FFF7DD
:1044F00087FE00202918B94209D2079B6A46125C40
:10450000595C4A4069460A54401C1028F2DB102CC2
:1045100001D9102200E022460E986946401900F0A9
:10452000D3FD102C01D9102000E020464519102C95
:1045300001D9102000E02046241A761CB6B2002CC7
:10454000D1D1284609B0F0BDFFB585B000261C4684
:104550000B4607460096019602960121684603968F
:10456000017401700D2219466D46401C00F0ACFD2F
:1045700068460682C681394600F059FD002005E0F4
:10458000079A295C125C51402954401CA042F7DB79
:10459000224669460E9800F097FD2046D2E7FFB507
:1045A00089B0159D1C461A462846149F139E0B99E8
:1045B00000F08AFD04A912986A460391C1C209A8B5
:1045C00007C82346FFF73DFE002801DBB84202D0B2
:1045D0000020C043D2E6281900903346129A0A9967
:1045E0000998FFF779FF002802DA0120C043C5E6E9
:1045F000A419601900903B4604AA0A990998FFF78C
:10460000A3FF002802DA0220C043B7E62018B5E66F
:10461000FFB58DB017ACA1CCA84203D20520C04392
:1046200011B0F0BD461B169804A9009132182B4614
:104630000E990D98FFF788FF040001D4AC4202D018
:104640000020C043ECE733460097169A0E990D9868
:10465000FFF742FF06000FD008A8039000970196CD
:1046600002950DA80FC8FFF7ECFD002801DBA8425A
:1046700005D00220C043D3E70120C043D0E78442E5
:1046800002D00320C043CBE7002004A908AA07E01A
:104690000B5C155CAB4202D00420C043C0E7401C59
:1046A000A042F5D33046BBE7FFB58DB0189D1798F3
:1046B00004A9169F461B0091F2192B460E990D98DE
:1046C000FFF742FF040018D4AC4216D108A80390AB
:1046D0000097019602950DA80FC8FFF751FE00281C
:1046E0000BDBA84209D1844207D1002004A908AA03
:1046F00006E00B5C155CAB4201D0002090E7401C4B
:10470000A042F6DB01208BE770B54906490E049CF8
:104710000E06050A354320706570050C0E043543FE
:10472000A5700D02000E2843E070D00101432171F5
:10473000002007210A1A2518401C9A5CC0B26A7131
:104740000828F7D370BD10B510210C4800F0D5FC37
:1047500010BD70B50C460146084A0020235C155C6C
:104760006B402354401C1028F8DB204600F05FFC0F
:1047700010222146014800F0A7FC70BD97150020CB
:10478000FCB500228B5C8354521C92B2102AF9D3E0
:1047900001231D012A18114620390E7FFF4CB64611
:1047A0004E7F0F7CA65D7E40FD4FFF5C7E404655F0
:1047B0008F7F0197E65D4F7C7E405670B446CE7F7A
:1047C0000096A75D8E7C774097707646A45DCE7C80
:1047D0007440D4700E7D455D6E401671B6464D7DB9
:1047E000664675405571AC468D7D76467D40957127
:1047F000CF7D6740D7710C7E74401472A6464C7E04
:104800006646744054728E7EA4466E409672CD7E8B
:1048100074467D40D5720F7F67401773497F6446A9
:1048200061405173019F77409773009E5B1C6E40FF
:104830009BB2D6730B2BACD3FCBDF0B591B00D463B
:104840000446002739012278685C49194240D34860
:10485000825C227023790E797340C35C2371237AC2
:104860000E7A7340C35C2372237B0E7B7340C35C60
:10487000237363784E7873409C4663794E79734016
:10488000C35C63700593637A4E7A7340C35C637153
:10489000637B4E7B7340C35C63726346C35C63732C
:1048A000A3788E7873409E46A6798B795E40B44695
:1048B000A37A8E7A5E40835DA3700493A37B8E7B84
:1048C0005E40865DA6717346C35CA3726646835DD7
:1048D000A373E37BCE7B73409C46E37ACE7A73402E
:1048E000C35CE373E379CE797340C35CE372E3782E
:1048F000C9784B40C15CE1716346C15CE170059BC6
:1049000010465840049B06464B405E40029200F021
:10491000A7FB21787040414021706078A178484021
:1049200000F09EFB6178704041406170A078E178B2
:10493000484000F095FBA17870404140A170E078BC
:10494000029A504000F08CFBE17870404140E170E9
:10495000207962790146A379E67950400246734096
:10496000584006461046029100F07AFB2279014633
:1049700071404A4022716079A179484000F070FB93
:104980006279014671404A406271A079E1794840FC
:1049900000F066FBA279014671404A40A271E079BD
:1049A0000299484000F05CFBE279014671404A40C0
:1049B000E271207A617A0246A37AE67A484001469B
:1049C0007340584006460846029200F049FB227A9E
:1049D000014671404A402272607AA17A484000F054
:1049E0003FFB627A014671404A406272A07AE17AE6
:1049F000484000F035FBA27A014671404A40A2725D
:104A0000E07A029A504000F02BFBE27A01467140B6
:104A10004A40E272207B627B0146A37BE67B5040EA
:104A200002467340584006461046029100F018FBBB
:104A3000227B014671404A402273607BA17B484043
:104A400000F00EFB627B014671404A406273A07B1E
:104A5000E17B484000F004FBA27B014671404A40E4
:104A6000A273E17B0298484000F0FAFAE27B01462B
:104A700071404A407F1CFFB2E273092F00D2E1E689
:104A80003A012178A85C41404448415C2170109172
:104A9000511923790A795340C75C27710D97227AFF
:104AA0000B7A5A40875C27720997227B0B7B5A400E
:104AB000825C2273059262784B784E795A40637912
:104AC0007340C75C6770637A4E7ABC467340C75CBC
:104AD00067710C97637B4E7B7340C75C6772089766
:104AE000825C62730492A3788A788E795340A279AB
:104AF0008F7A7240A67A7E40875DA7700E97A67B5C
:104B00008F7B7E40875DA7710B97C65CA672825C27
:104B1000A273E77B9646CA7BA03557400097E27A9E
:104B2000CB7A5A40835CE373E279CF797A40825C36
:104B3000E272E778C9784F40C15DE1710A91009F48
:104B4000C05DE0702F7810997940217069786746D0
:104B50004F406770A9780E9F4F40A770E978484092
:104B6000E07028790D9F4740277168790C9F474076
:104B70006771A8790B9F4740A771E8790A9941406E
:104B8000E171287A099F47402772687A089F474059
:104B90006772A87A4640A672E87A03E0B05800101F
:104BA000B05A00104240E272287B059A42402273BC
:104BB000687B049A42406273A87B72464240A273AB
:104BC000E87B4340E37311B0F0BDF0B504460278D2
:104BD00008460D46A030017891B04A4022706378B3
:104BE00041784B4063709E46A37881784B40A37018
:104BF0000B93E378C1784B40E370079321790379F5
:104C000059402171677943795F406771A37986794B
:104C10007340A3710993E379C6797340E3710693F6
:104C2000237A067A734023720E93637A467A73402E
:104C300063720293A67A837A5E40A6720596E37A3F
:104C4000C67A7340E3720493237B067B734023731D
:104C50000D93637B467B734063730193A67B837BD9
:104C60005E40A6730396E37BC07B4340E3739C46A0
:104C7000FA489023825CEB5C5A402270425C2946E1
:104C800090310B795A4022710E9BC25C0B7A5A40CC
:104C900022720D9BC25C0B7B5A402273019B4E7BA0
:104CA000C25C4B785A40029BC35C73406373C35D24
:104CB0004E7A734063727346C35C4E79734063717E
:104CC00062700B9B8E7BC25C8B7A8F785A40099BFB
:104CD000C35C7340059E865D7E40A670039E8F79FF
:104CE000865D7E40A671A272A373079BC25CCB7BDC
:104CF0005A40069BC35CCE787340E370049BCE7928
:104D0000C35C7340E3716346C35CC97A4B40E37292
:104D1000E27308262078A178484000F0A1F900F05D
:104D20009FF907466078E178484000F099F900F073
:104D300097F9217879402170617841406170A178BC
:104D40007940A170E1784140E1702079A179484033
:104D500000F086F900F084F907466079E17948406F
:104D600000F07EF900F07CF901462079784020714E
:104D7000607948406071A0797840A071E07948403E
:104D8000E071207AA17A484000F06AF900F068F9F1
:104D90000746607AE17A484000F062F900F060F975
:104DA000217A79402172617A41406172A17A794019
:104DB000A172E17A4140E172207BA17B484000F082
:104DC0004FF900F04DF90746607BE17B484000F069
:104DD00047F900F045F9217B79402173617B41401F
:104DE0006173A17B7940A173E17B4140E17320783D
:104DF00062780146A378E778504002467B405840ED
:104E000007461046029100F02BF9227801467940BE
:104E10004A4022706078A178484000F021F9627819
:104E2000014679404A406270A078E178484000F03D
:104E300017F9A278014679404A40A270E0780299B9
:104E4000484000F00DF9E278014679404A40E270AE
:104E5000207962790146A379E779504002467B4088
:104E6000584007461046029100F0FAF822790146B0
:104E700079404A4022716079A179484000F0F0F809
:104E80006279014679404A406271A079E1794840EF
:104E900000F0E6F8A279014679404A40A271E07933
:104EA0000299484000F0DCF8E279014679404A4036
:104EB000E271207A627A0146A37AE77A504002468C
:104EC0007B40584007461046029100F0C9F8227A0C
:104ED000014679404A402272607AA17A484000F047
:104EE000BFF8627A014679404A406272A07AE17A5C
:104EF000484000F0B5F8A27A014679404A40A272D3
:104F0000E07A0299484000F0ABF8E27A0146794035
:104F10004A40E272207B627B0146A37BE77B5040E4
:104F200002467B40584007461046029100F098F830
:104F3000227B014679404A402273607BA17B484036
:104F400000F08EF8627B014679404A406273A07B94
:104F5000E17B484000F084F8A27B014679404A405A
:104F6000A273E17B0298484000F07AF80146E37BA7
:104F700079404B40E373217838489E46425C3101CA
:104F80006B5C49195A40227022790B79825C5A4035
:104F90002271227A0B7A825C5A402272227B0B7B2E
:104FA000825C5A402273627B4B78825C4F7B5A4012
:104FB000637AC35C7B40637363794F7AC35C7B40E5
:104FC000637263784F79C35C7B4063716270A278CF
:104FD0008F78835C8A7A5340A2799C46825C8B7B73
:104FE0005A40A37AC35C7B40A370A37B8F79C35CD8
:104FF0007B40A3716346A372A273E278CB7B825C91
:105000005A40E379CF78C35C761E7B40E370E37A45
:10501000CF79C35C76B27B40E3717346C05CC97ADA
:105020004840E072E273002E00DB73E6CBE510B57A
:10503000ACB004466846FFF7A3FB69462046FFF77D
:10504000FCFB2CB010BD10B5ACB004466846FFF7B1
:1050500097FB69462046FFF7B8FDF2E7B05900100C
:10506000C1094000002903D0C0B21B21484070474D
:10507000C0B2704730B50B46014600202022012403
:1050800009E00D46D5409D4205D31D469540491B7C
:105090002546954040191546521E002DF1DC30BDC5
:1050A00070B500242546002801DA01244042002979
:1050B00001DA01254942FFF7DDFFAC4200D0404252
:1050C000002C00D0494270BD03460B439B0703D020
:1050D00009E008C9121F08C0042AFAD203E00B78BD
:1050E0000370401C491C521EF9D27047D2B201E035
:1050F0000270401C491EFBD270470022F6E710B533
:1051000013460A4604461946FFF7F0FF204610BD35
:1051100030B504460020034600E05B1C934203D2F6
:10512000E05CCD5C401BF8D030BD0321001D401E6B
:10513000037812021A43491EF9D5104670470346F8
:1051400003220870000A491C521EFAD518467047FF
:10515000F8B502464A40D40F42004B0052085B08A3
:105160009A4202D20246084611464A0023D0C30D95
:105170004A00DDB2120EAD1A202D35DA49020126A1
:10518000490AF6058A19002C00D0524220214F1BF3
:105190001146B9402A411018C20D9A4221D0002C64
:1051A00017D0012D08DCDA05801AD20F8019D2073A
:1051B000DBB200F051FAF8BDDA05801A0123400095
:1051C0001B06C01880185A428018CA0F10434900A5
:1051D00007E04908C2071143DA05801A8019400820
:1051E000801800F031FAF8BD61000122511A001B4D
:1051F000F7E70122D2075140AAE70122D207504027
:10520000A6E70000F0B507460846584087B0C00F33
:10521000049048000E46590040084908BC1A8841CD
:1052200005D2384631461E4617460B460246580000
:10523000400810434CD0300D039040055900400DFC
:10524000490D0590401A0290402872DA1803012196
:10525000000B09050843019004980092002805D02E
:105260000199524200208841009201900298402109
:105270000A1A0199009800F0B3F905460C466B46EE
:1052800007CB00F0CEF9C0197141039A0E0D00232F
:10529000D71756401A467A40164344D0049A002A3B
:1052A0002DD0029A012A039A15DC1205C01A9141E9
:1052B00001263605001C7141D20F059ED2070093CE
:1052C000019202962A46234600F00CFA07B0F0BD80
:1052D00038463146FAE71605224A0F46B218C01A78
:1052E000B74101210905001C4F4100187F411146BB
:1052F00018187941E20F10436D19644113E0E20779
:105300006D0815436408C2071443039A0126120569
:10531000C01A91413605001C7141CE074008304348
:105320004908C01851412A46234600F0CEF9CDE77E
:10533000FFE7049801224000C117121A00238B4195
:1053400004983146C417381AA141EEE730B401245D
:10535000E407634030BC55E730B40124E407614002
:1053600030BC4FE70000E0FFF0B51FB488B00B99E8
:105370000998002448400999C00F4900490809913B
:10538000C0070B990090490049080B9109990898AA
:10539000A64608431CD00B990A98084318D00998D0
:1053A00001244000420D4800410D099824050003E6
:1053B000000B204309900B980003000B20430B9037
:1053C00050181C494018002201901446104605E070
:1053D000002001460DB0F0BD032801DA034600E0CD
:1053E00003239C46C11A0AAE0AE05F0008ADED5BDC
:1053F0004F00F75B7D430027AA187C41491C5B1EC8
:105400006145F2DD410004AB5A522104120C0A43FB
:10541000240C401C0828DFDB01980290009970469C
:1054200001910090059B049A0799069800F05AF99B
:10543000D0E700000DFCFFFFF0B50C465C4085B0E6
:10544000E40FE40703944C000026640859009446D6
:10545000490802460296224321D062460A431ED0E2
:105460006200570D4A000E032303550D0124024626
:105470002C492405781B1B0B360B4018234326436D
:10548000614600901C46501AB44103D30098401C5A
:10549000009002E0921800985B41002803DA002097
:1054A000014605B0F0BD00200121090507468646EA
:1054B00011E064461D46141BB54106D36546521BD8
:1054C000B341744607430C43A646CD07400849083C
:1054D000284392185B4105460D43EAD11046184314
:1054E00013D06046194650407140084306D06046CC
:1054F000101AB34106D20122002306E00022012344
:10550000DB0702E00122D2435310009874460105E4
:10551000381C6141029C039D0019694100F0D5F8D7
:10552000BFE70000FD03000010B5002296231146DE
:1055300000F092F810BD00000EB5C217C10F504028
:10554000CA0740180021054B0293019200910A46B8
:105550000B4600F0C7F803B000BD000033040000A4
:105560000EB505490291002100910A460B460191B2
:1055700000F0B8F803B000BD330400004A0009038E
:105580000123090B1B051943094B10B5520D9A4213
:1055900001DA002010BD064B34339A4203DC9A1A1C
:1055A00000F02EF810BD03495118884010BD0000CE
:1055B000FF030000CDFBFFFFC20FD20740004008F1
:1055C0000BD0C10D0723DB01C91840020905400AB1
:1055D0001143C2084007114370470020014670473D
:1055E00010B5202A04DB0146203A9140002010BD6E
:1055F000914020239C1A0346E3401943904010BD7C
:1056000010B5202A04DB0846203AD040002110BD06
:105610000B46D340D0402024A21A9140084319469B
:1056200010BD10B5202A06DBCB170846203A1041E2
:10563000C1170B4306E00B461341D0402024A21AA9
:1056400091400843194610BD002904DA401C490066
:1056500001D140084000704770B40024050C05D10A
:105660001024000402D1002921D01124050E01D1FB
:1056700000020834050F01D10001241D850F01D15E
:105680008000A41C002801DB4000641C002908D015
:1056900020252E1B0D46F540A14000D001212943B5
:1056A000084301061B1B000ADB1D02D5002070BC4D
:1056B0007047DB05181880180029F8DA401C4900EB
:1056C000F5D170BC40084000704710B5002B08DAD7
:1056D0000024401C614192185B411A4301D14008EB
:1056E000400010BDF0B51FB482B005460C0003D0D9
:1056F000084600F081F802E000F07EF82030024613
:10570000009021462846FFF76BFF049B059A04464C
:105710000F4618431143084314D0184610431BD0BA
:10572000009840210A1A18460599FFF769FF0546B7
:105730000E46009A05990498FFF752FF084305D0DA
:10574000012004E02046394607B0F0BD0020C11713
:1057500005430E432C43374300990E986305401AC6
:105760007905E40A00220C43FD0A0A3002D5002024
:105770000146E9E70105101969410C9C0D9D0019CE
:105780006941FFF7A2FFDFE7064C0125064E05E061
:10579000E36807CC2B430C3C98471034B442F7D352
:1057A000FAF792FCBC5A0010DC5A001010B5104BEE
:1057B000002A03D0DC7E6406640EDC7600BF30BFB6
:1057C000401EFDD20028FBDC0028F9DC002A03D0B3
:1057D000D87E80221043D876002907D00548016979
:1057E0000122114301610169C903FCD510BD00000C
:1057F0006010005000E000E02021020C01D01021D8
:105800001046020A01D010460839020901D010469C
:10581000091F820801D01046891E420801D0881E47
:105820007047081A704730B47446641E2578641CAB
:10583000AB4200D21D46635D5B00E31830BC1847E5
:1058400002E008C8121F08C1002AFAD17047704749
:10585000002001E001C1121F002AFBD17047101087
:105860004010401010401040202020102010101038
:1058700010102020401020101040104010884010C0
:105880008820202010201010101010208840108830
:10589000C9090000E5040000730200003A0100009D
:1058A0009002000048010000A40000005200000027
:1058B000637C777BF26B6FC53001672BFED7AB76CD
:1058C000CA82C97DFA5947F0ADD4A2AF9CA472C078
:1058D000B7FD9326363FF7CC34A5E5F171D83115E5
:1058E00004C723C31896059A071280E2EB27B27506
:1058F00009832C1A1B6E5AA0523BD6B329E32F847E
:1059000053D100ED20FCB15B6ACBBE394A4C58CF75
:10591000D0EFAAFB434D338545F9027F503C9FA849
:1059200051A3408F929D38F5BCB6DA2110FFF3D217
:10593000CD0C13EC5F974417C4A77E3D645D1973CB
:1059400060814FDC222A908846EEB814DE5E0BDBC5
:10595000E0323A0A4906245CC2D3AC629195E479FC
:10596000E7C8376D8DD54EA96C56F4EA657AAE0856
:10597000BA78252E1CA6B4C6E8DD741F4BBD8B8AF1
:10598000703EB5664803F60E613557B986C11D9E57
:10599000E1F8981169D98E949B1E87E9CE5528DFCE
:1059A0008CA1890DBFE6426841992D0FB054BB16FA
:1059B00052096AD53036A538BF40A39E81F3D7FB84
:1059C0007CE339829B2FFF87348E4344C4DEE9CBCE
:1059D000547B9432A6C2233DEE4C950B42FAC34E43
:1059E000082EA16628D924B2765BA2496D8BD125F9
:1059F00072F8F66486689816D4A45CCC5D65B6929D
:105A00006C704850FDEDB9DA5E154657A78D9D8440
:105A100090D8AB008CBCD30AF7E45805B8B3450660
:105A2000D02C1E8FCA3F0F02C1AFBD0301138A6B7A
:105A30003A9111414F67DCEA97F2CFCEF0B4E673AA
:105A400096AC7422E7AD3585E2F937E81C75DF6E58
:105A500047F11A711D29C5896FB7620EAA18BE1BBE
:105A6000FC563E4BC6D279209ADBC0FE78CD5AF464
:105A70001FDDA8338807C731B11210592780EC5FAA
:105A800060517FA919B54A0D2DE57A9F93C99CEF06
:105A9000A0E03B4DAE2AF5B0C8EBBB3C8353996107
:105AA000172B047EBA77D626E169146355210C7D45
:105AB0008D01020408102040801B3600DC5A0010C3
:105AC000000000209C00000040580010785B00108F
:105AD0009C0000200C2500005058001000000050D1
:105AE0008000005000000000601000508C1000503A
:105AF00040787D01000000000000000070100050A0
:105B00000000000000000000000300000000000092
:105B1000010000000000015008AA0220309F02206E
:105B2000F8A60220C8810220CC810220D580022064
:105B300074800220768002209A870220248002202E
:105B4000208002208F8002209080022099890220EC
:105B50000400000000000000F8A602200000000081
:105B60000000000000000000000000000000000035
:085B700000000000309F02203C
:04000005100000C126
:00000001FF
