:020000041000EA
:10000000C0B80020ED470010F5470010F74700107A
:1000100000000000000000000000000000000000E0
:100020000000000000000000000000000F4700106A
:10003000000000000000000003010010B74700109E
:10004000531D0010FF760010FF470010FF470010FF
:10005000FF470010FF470010FF470010FF47001048
:10006000FF470010FF470010FF470010FF47001038
:10007000FF470010FF470010FF470010FF47001028
:10008000FF470010FF470010FF470010FF47001018
:10009000271E0010FF470010FF470010FF47001009
:1000A000FF470010FF470010FF470010FF470010F8
:1000B000FF470010FF470010FF470010FF470010E8
:1000C0000348854607F0C2FF004800478D0C00102A
:1000D000C0B80020064B19680868203080F30988F2
:1000E000022080F314883FBCAE4662B600BD00001B
:1000F00088000020EFF3108072B6704780F31088FC
:100100007047EFF309800E4B1A6820381060F0C07A
:1001100044464D4656465F46F0C008B572B603F0F9
:1001200023F962B60CBC116808681030F0C8A0460C
:10013000A946B246BB4680F309882038F0C8184764
:10014000880000207CB5012400200090FFF7D2FF3A
:10015000054601200090002301AA6946F94800687D
:1001600002F020FB04460198002803D0012000077C
:10017000F5494860012C04D1F4A0009901F0B6FBC8
:1001800002E0FDA001F0B2FB2846FFF7B7FF7CBDFF
:100190007CB5012400200090FFF7ACFF054602204B
:1001A0000090002301AA6946E648006802F0FAFAC6
:1001B00004460198002803D001200007E249486066
:1001C000012C04D1F4A0009901F090FB02E0FDA005
:1001D00001F08CFB2846FFF791FF7CBD70B505460A
:1001E0000C46002D02D0012D21D11FE001208003FB
:1001F000201A0AD001218903401A09D04900401A67
:1002000009D04900401A0ED109E0FFF79BFF0BE02F
:10021000FFF7BEFF08E00A2001F0CEFC04E00A2050
:1002200001F0CAFC00E000BF00BF01E000E000BF39
:1002300000BF70BD10B50721142001F0FCFB0721A1
:10024000152001F0F8FB01F04BFBE6A2E8A1EBA0C2
:1002500001F04CFB0021192001F0EDFB00211720DB
:1002600001F0E9FB0021222001F0E5FB00210A203A
:1002700001F0E1FB0121192001F071FC012117209F
:1002800001F06DFC0121222001F069FC01210A200E
:1002900001F065FC00210E2001F0CDFB00210F20B4
:1002A00001F0C9FB0021102001F0C5FB0021112045
:1002B00001F0C1FB00210E2001F0E9FB00210F201D
:1002C00001F0E5FB0021102001F0E1FB00211120ED
:1002D00001F0DDFBD04801F0D7FB012211460E20D2
:1002E00001F0CCFC012211460F2001F0C7FC0021D7
:1002F000084601F0A0FB0021012001F09CFB002139
:10030000022001F098FB10BD1CB5044604202040DB
:10031000002812D001F039FE0190C0A001F0E6FAE9
:10032000684600790090684643798279C179BFA018
:1003300001F0DCFA192001F03FFCE007C00F0028B3
:1003400002D0BEA001F0D2FA02202040002802D044
:10035000BEA001F0CBFA1CBD08B501F093FD01F081
:100360009CFD072001F05CFD072001F077FD0721CF
:100370006846C170172181703B21417000210170D6
:1003800001F01CFE00210120C00301F08FFD0420BC
:1003900001F05CFDB14801F056FD01F034FE00288B
:1003A00004D1AFA101F0C0FA01F060FD14200028D3
:1003B00005DBC206D20E01219140AD4A116000BF9B
:1003C00008BD10B50446172001F0F6FB10BD10B5AE
:1003D00086B01821684607F07AFA012400231A46ED
:1003E0006946A448006802F0DDF80446012C1CD1DF
:1003F000A1A001F07BFA68460188A4A001F076FA7A
:1004000068468278C11CA4A001F0ADFA61A001F099
:100410006DFA68460088022807D16846C078A1288E
:1004200003D10021012004F09AFB06B010BD10B5E5
:100430009B480078012810D09948007803280CD1F7
:10044000002097490870FF20F53001F0CDFC04F042
:100450009EFE7D20C00001F0C7FC10BD38B591485C
:10046000007801286AD18F4C36348E4841788EA0AE
:1004700001F03CFA214634398FA001F037FA2046CA
:10048000163801788FA001F031FA2146153991A074
:1004900001F02CFA8348818E91A001F027FA81485F
:1004A000828E214692A001F05EFA0422924993A026
:1004B00001F059FA95A12046343807F013FA0028C4
:1004C00008D001209449087004228B49934807F012
:1004D000E5F98CE292A17348801C07F003FA00282A
:1004E000F7D192A16F48801C07F0FCF9002826D0B4
:1004F00090A16C48363007F0F5F90446002C1FD067
:1005000068483630201A122803DA66483630201A36
:1005100000E01220C1B26348203001700278014629
:100520001631401C07F0BAF95E48818E3630201A29
:10053000401C081A5B498886641C58E25AE2FDE0B8
:10054000FAE000000800002000ED00E00D0A6B65F5
:100550007931206972712073656E642071756575DB
:100560006520737563636573732120646174613AF8
:1005700025640D0A000000000D0A6B6579312069C1
:1005800072712073656E6420717565756520657282
:10059000726F72210D0A00000D0A6B6579322069B5
:1005A00072712073656E6420717565756520737551
:1005B00063636573732120646174613A25640D0A75
:1005C000000000000D0A6B6579322069727120739A
:1005D000656E64207175657565206572726F722134
:1005E0000D0A000031373A31313A31350000000050
:1005F00046656220313220323031390046726565FD
:1006000052544F5320424C452025733A2573202ED7
:100610002E2E0D0A00000000DD0100105254435F31
:10062000494E545F5449434B0D0A00002564202570
:10063000643A25643A25640D0A0000005254435F71
:10064000494E545F434D50300D0A00005254435FF1
:10065000494E545F434D50310D0A0000090300100C
:100660007274635F7374617274200D0A000000007D
:1006700000E100E000000020424C45205175657506
:100680006520526563657669650D0A0055554944D4
:100690003A253034780D0A00646174610D0A000057
:1006A000540000205036002061707069645F6C65F2
:1006B0006E3A25640D0A000061707069643A257312
:1006C0000D0A00007469746C655F6C656E3A256490
:1006D0000D0A00007469746C653A25730D0A0000F8
:1006E0006D7367206C656E3A256420200000000061
:1006F0006D73673A200D0A00B2370020616E637394
:100700005F7569643A200D0A000000006D6F626930
:100710006C6570686F6E65000C0000200D00002095
:100720004D6F62696C65534D5300000054776565E9
:10073000746965003A000000F94C58E1F9A1F848E5
:10074000343807F0CFF8002834D0F5483638007830
:10075000012805D1F5A1F24807F0C4F8044608E0E5
:10076000F3A0006800906946ED4807F0BBF8044626
:1007700000BF002C1CD0EA48201A122802DAE848F0
:10078000201A00E01220C1B2E54816380170027844
:10079000E349401C07F082F8E1483638818E363054
:1007A000201A401C081ADE4936398886641C1EE16E
:1007B000DB4C1CE1DFA1DA48343807F093F800285D
:1007C00025D0DAA1D64807F08DF80446002C1CD0BD
:1007D000D348201A122802DAD148201A00E0122049
:1007E000C1B2CF48163801700278CD49401C07F0DD
:1007F00055F8CB483638818E3630201A401C081AFE
:10080000C74936398886641CF1E0C54CEFE0CBA1BE
:10081000C348343807F066F800285BD0C048363843
:100820000078012811D1C1A1BD4807F05BF804464A
:10083000002C08D1C4A0006800906946B84807F0B1
:1008400051F8044606E0B64C04E0C0A1B44807F0F5
:1008500049F80446002C3BD0B148201A122802DA8D
:10086000AF48201A00E01220C1B2AD48163801701E
:100870000278AB49401C07F011F8A94836380078D7
:1008800002280BD1A6483638818E3630201A401CFB
:10089000081AA34936398886641CA8E0A04816388F
:1008A0000078C01EC1B29E48163801700278014619
:1008B0001931401C06F0F2FF99483638818E3630E7
:1008C000201AC01C081A964936398886E41C8EE026
:1008D000934C8CE09EA19248343807F003F800282E
:1008E00025D09AA18E4806F0FDFF0446002C1CD0AE
:1008F0008B48201A122802DA8948201A00E01220B8
:10090000C1B287481638017002788549401C06F04C
:10091000C5FF83483638818E3630201A401C081AAD
:100920007F4936398886641C61E07D4C5FE08BA18D
:100930007B48343806F0D6FF002825D07BA17848C4
:1009400006F0D0FF0446002C1CD07548201A12284F
:1009500002DA7348201A00E01220C1B2704816383B
:10096000017002786E49401C06F098FF6C483638DA
:10097000818E3630201A401C081A6949363988861B
:10098000641C34E0664C32E075A16548343806F0EA
:10099000A9FF002825D065A1614806F0A3FF044601
:1009A000002C1CD05E48201A122802DA5C48201A5B
:1009B00000E01220C1B25A48163801700278584936
:1009C000401C06F06BFF56483638818E3630201AB0
:1009D000401C081A524936398886641C07E0504C7E
:1009E00005E000204E493639087005F02FF805F073
:1009F0002DF800BF38BD00BF04F0E5FBFFF7E7FCB2
:100A0000FFF72CFDFFF713FD0A2002F0CBFBF3E705
:100A100008B501240020009000BF00231A46694653
:100A20005048006801F0BEFD0446012C2ED14EA0B6
:100A3000009900F05BFF0098012812D1514800781E
:100A4000012823D15048007801281FD100204E49A9
:100A500008704EA000F04AFF0121514805F034FA19
:100A600014E00098022811D14648007801280DD1E1
:100A700045480078012809D100204349087049A061
:100A800000F034FF0021464805F01EFA0A2002F06B
:100A900089FBC2E77FB5012447A000F027FF4C483F
:100AA000002301227D21C90000904AA003F021FC0F
:100AB0004A49086002F0FAFD0546002003462A462E
:100AC000012100904548006803F052FA0446012CC9
:100AD00002D143A000F00AFF0020032301900290FE
:100AE000009303900346802247A1484802F0F3F8A0
:100AF0000446012C02D146A000F0F8FE002002239B
:100B000001900290009303900346802249A14B4834
:100B100002F0E1F80446012C00D191E093E00000DE
:100B200086360020736B7970650000003A00000083
:100B30000A0000004C696E6500000000576861748F
:100B40007341707000000000EFBC9A0020000000AC
:100B500066616365626F6F6B0000000078696E000C
:100B60006D717100080000206B6579202564206993
:100B7000727120717565756520726563656976654A
:100B80000D0A0000260000200C00002072656A6536
:100B90006374207468652070686F6E650D0A0000CC
:100BA0000D000020616E7377657220746865207097
:100BB000686F6E650D0A0000496E69742074617378
:100BC0006B20616E642071756575650D0A0000000B
:100BD000C30300104C454432000000000400002014
:100BE000437265617465204C45443220536F6674CE
:100BF00074696D6572205461736B2053756363650E
:100C00007373210D0A000000424C4500F7090010E3
:100C100043726561746520626C655F737461636BB8
:100C20005F746872656164205375636365737321D3
:100C30000D0A00004B45595F52000000110A0010D8
:100C400022A000F053FE002218210A2001F075FABC
:100C50002A49086008460068002802D028A000F051
:100C600045FE002204210A2001F067FA2C490860A1
:100C700008460068002802D02AA000F037FE31A004
:100C800000F034FE25A000F031FE7FBD10B572B635
:100C900000F085FB04F065FA012004F05AFA032005
:100CA00004F04BFAFFF758FBFFF7C4FA2CA000F052
:100CB0001DFE62B603F0EFFD30A000F017FEFFF757
:100CC000E9FE02F0C6FC002010BD00004372656121
:100CD0007465204B65795F4952515F517565756543
:100CE0005F526563656976655F5461736B20537508
:100CF0006363657373210D0A00000000000000208B
:100D000043726561746520426C655F52585F51752E
:100D10006575652053756363657373210D0A000063
:100D200008000020437265617465204B65794D733E
:100D30006751756575652053756363657373210D20
:100D40000A0000000D0A53594438383231206672C7
:100D5000656552544F532053746172740D0A00003C
:100D6000626F617264206861726477617265206984
:100D70006E697420656E640D0A0000007374617200
:100D80007420626C65206164760D0A0D0A00000013
:100D90001FB5002168460170072141722021418161
:100DA000F7498181032181730021017203F06BFDFA
:100DB000F44803F054FDF3484078F349C873F14810
:100DC00080780874EF48C0784874EE4800798874D9
:100DD000EC484079C874EB4880790875EB48037893
:100DE000EB480178EB4AE84803F050FD1FBD3EB5E3
:100DF00004460D46E848007801280FD101216846D5
:100E00000180032141801F2181800121018123462E
:100E10002A466946012004F051F83EBD0020FCE757
:100E200010B586B00446DDA103C90191009004A865
:100E300003F0A4FE6846428A018ADAA000F056FD5B
:100E4000002C02D0012C39D11DE06846408A0028D0
:100E500011D06846008A10280DDD102168464181B6
:100E6000C821C18100218181C02101720421417208
:100E700002A804F04BFBD2A000F038FD0521684623
:100E8000FFF7B5FF1AE06846408A0A2815DA684677
:100E9000008A502811DA5021684641810A21818157
:100EA0004B21C900C181C02101720421417202A8F5
:100EB00004F02CFBC8A000F019FD00BF00BF06B075
:100EC00010BD13B582B06846408915214902884299
:100ED00009D1C7A003C801910090052469462046A6
:100EE00003F0CEFF9CE068464089C349884208D1A0
:100EF000C2A000680190022401A9204603F0C0FFAF
:100F00008EE068464089BC492831884209D1BCA19D
:100F100003C90191009008246946204603F0B0FF00
:100F20007EE068464089B4492331884209D1B6A1A0
:100F300003C90191009007246946204603F0A0FFF1
:100F40006EE068464089AC492431884209D1B0A19D
:100F500003C90191009005246946204603F090FFE3
:100F60005EE068464089A4492631884208D1AAA09B
:100F700000680190042401A9204603F081FF4FE09E
:100F8000684640899C492531884208D1A3A0006861
:100F90000190042401A9204603F072FF40E0684656
:100FA000408995492731884208D19DA00068019069
:100FB000042401A9204603F063FF31E0684640891C
:100FC0008D494F31884209D196A103C90191009002
:100FD00007246946204603F053FF21E06846408914
:100FE0009249884207D192A000680190042101A88B
:100FF000FFF7FDFE14E0684640898C49383188428D
:101000000DD1002101910020009001A9684600F057
:10101000B6FB69466846007903F032FF00E000BF86
:101020001FBD0FB410B588B0182102A806F04FFC00
:101030006846408D022821D16846418D018108A86B
:10104000817B6846817214220BA903310B3006F0B4
:1010500025FCFFF74FF80446002301AA02A97548B2
:10106000006801F09FFB0198002803D001200007D1
:10107000714948602046FFF741F80AE06846408D14
:101080006A493831884204D108A8817B0F3000F0CA
:101090004AFB08B010BC08BC04B0184710B5FFB03C
:1010A000FFB082B00446601C06F03DFC012805D16B
:1010B00003F0F1FB61A000F019FC66E1601C06F092
:1010C00032FC04280BD1002033490870012060490C
:1010D00008700622A11D5FA000F045FC55E1601CD0
:1010E00006F021FC08280BD10020594908702A4934
:1010F000087061795DA000F0F9FB03F0CCFB44E1DE
:10110000601C06F010FC0121C903884236D1A17988
:10111000627908021043012819D1217AE279080284
:1011200010432028C9D1A17A627A0802104301280D
:1011300006D156A000F0DAFB01201749087024E11F
:1011400052A000F0D3FB0020134908701DE1A179E3
:1011500062790802104335491E318842ADD1217AA7
:10116000E279080210432D28A7D1A17A627A0802F9
:101170001043012803D14A49087006E196E091E046
:10118000FF3F00004A000020280000204800002007
:10119000440000204600002024000020FC01000044
:1011A00000000000696E74657276616C3A257820E3
:1011B0006C6174656E63793A25780D0A0000000051
:1011C000536574557064617465206F7461206C6937
:1011D0006E6B0D0A000000005365745570646174F5
:1011E0006520696F73206C696E6B0D0A000000004A
:1011F0005541525446000000012A0000FFFF000044
:1012000053594420496E632E424C4520312E300004
:10121000312E302E30000000322E3030332E303060
:10122000342E3030023A09050A020000C9FE0000DF
:10123000000103040000002000ED00E04741505F82
:101240004556545F4144565F454E440D0A00000028
:10125000260000204741505F4556545F434F4E4E95
:10126000454354454420616464723A004741505FED
:101270004556545F444953434F4E4E4543544544AD
:101280002825303278290D0A00000000737461723D
:10129000745F747820656E61626C650D0A000000F1
:1012A000250000200020924908706EE0601C06F0C6
:1012B0003AFB0121C902884210D1FF22F8322146AF
:1012C0001531684606F0EAFA8A4A611D7EA806F0E2
:1012D000E5FA7EA80FC8FFF7A4FE56E0601C06F0F2
:1012E00022FB01218902884209D10822611DFEA842
:1012F00006F0D4FAFF99FE98FFF7E3FD45E0601C85
:1013000006F011FB0121890388423ED0601C06F0E3
:101310000AFB102803D178A000F0E8FA35E0601C41
:1013200006F001FB802805D104F097FB77A000F0C0
:10133000DDFA2AE0601C06F0F6FA01214902884233
:1013400023D1A179627908021043030006F0E5FE7B
:101350000604080C1014181C71A000F0C7FA13E062
:1013600075A000F0C3FA0FE079A000F0BFFA0BE01F
:101370007DA000F0BBFA07E081A000F0B7FA03E01F
:1013800084A000F0B3FA00BF00BF7FB07FB002B00E
:1013900010BD10B50446204604F042FC10BD00B557
:1013A00091B003F047FA8048099080480A9080483D
:1013B0000B9080480C9080480D9009A803F0C6FB64
:1013C00003216846017700214177807F81088900E9
:1013D000491C68468177807F04218843014668461E
:1013E00081771021C177002108A801700321417085
:1013F00007A803F0AEFB0621684681800921C18061
:101400006421018141810621017332214173002150
:101410008173C1730174012101A84173002181739B
:101420000221C173002101740321417400218174E0
:101430000421C174002101750521417500218175C8
:1014400003F094FB5D49FF20013006F076FA5B491A
:10145000091D5B4806F071FA584803F0FCFC594836
:1014600003F008FD584803F008FD002003F04FFE8C
:10147000FFF78EFC012108A80176002141760EA914
:101480000231002006F059FA0FA90231002006F0BF
:1014900054FA0EA803F068FE11B000BD10B5044662
:1014A000012C06D0022C0BD0032C10D0042C1CD104
:1014B00014E001204549087045A000F017FA15E036
:1014C00002204249087045A000F010FA0EE0012009
:1014D0003E49087044A000F009FA07E001203B49AA
:1014E000087044A000F002FA00E000BF00BF10BD89
:1014F00025000020070200004741505F4556545F19
:10150000454E435F4B45590D0A0000004741505F6F
:101510004556545F454E435F53544152540D0A00A3
:101520007570646174652072737020414343455047
:101530005445440D0A0000007570646174652072A2
:1015400073702052454A45435445440D0A0000003B
:10155000757064617465207273702054494D4552F2
:101560004F55540D0A000000757064617465207257
:10157000737020535543434545440D0A0000000055
:10158000456E61626C65206C6174656E63790D0AED
:101590000000000044697361626C65206C617465D1
:1015A0006E63790D0A000000EE8900102C8A00108D
:1015B000218A00106B8A00103D8B0010180000205B
:1015C0009D10001093130010200000201100002037
:1015D000616E637320656E640D0A00006E6F742087
:1015E000616E63730D0A00006E6F742062616E6439
:1015F0000D0A00006E6F7420656E637279707469F5
:101600006F6E0D0A0000000070B504460E461546C8
:101610000E20634909680870681C614909684870B0
:101620005F48006884702A4631465D480068C01CE7
:1016300006F034F970BD08B55AA000F057F903F070
:10164000AFFD002802D00020009001E001200090B2
:10165000012269461620FFF7D7FF08BD38B50446BA
:10166000002500BF2CE0E01C415D52480279007962
:10167000401CC3B24F480371203881542030007998
:10168000202819DB4B492039096A4801494A203A88
:10169000202103F088FD002802D00020009001E006
:1016A000012000900021434801712038006A401C4D
:1016B00040492039086201E000200090681CC5B252
:1016C000A078A842CFDC012269461720FFF79CFFD3
:1016D00038BD38B5044637480079002808D0354A67
:1016E0001179203A126A5001324A203A03F05BFD28
:1016F000204606F018F90546607921790002084372
:1017000003462A460021084603F058FD002802D06F
:101710000020009001E0012000900122694618207D
:10172000FFF772FF38BD70B504460E46254628788F
:10173000162804D017280BD018281ED116E0002038
:10174000FFF76EFBFFF777FF01201B49087014E0DD
:10175000A81CFFF783FF18480078002802D1022058
:101760001549087000201549087006E0A81CFFF70D
:10177000B0FF03201049087000BF00BF70BD70B5F6
:1017800005460C46064800684078821C0C492846ED
:1017900006F084F8024800684078801C207070BD14
:1017A0005C000020436D64467745726173650D0AE5
:1017B00000000000AC010020540000205500002073
:1017C0005600002010B502460620002815DBC4068E
:1017D000E40E0123A3407F4C236000BF00BF00BF85
:1017E000BFF34F8F00BF00BF00BF00BF00BF00BFEF
:1017F000BFF36F8F00BF00BF00BF00BF7648006817
:101800000078000900010B071B0F1843724B1B687F
:10181000187071480068007880239843D3018024B1
:10182000234018436C4B1B6818706B4800680078A5
:10183000402398434030684B1B6818706648006826
:10184000C078102398431030634B1B68D8706248EF
:10185000006880780823984308305F4B1B689870B5
:101860005E48406A402318435C4B58621846006A41
:1018700040231843594B18620620002806DBC40693
:10188000E40E0123A340534C803C236000BF10BDF5
:10189000F0B50B4601242404002112E000BF8500AE
:1018A0004D4E7559ED782D07ED0F002DF7D18500C0
:1018B00075596D785E5C35468600474FBE59757028
:1018C000491C9142EADB00E0641E8500424E7559D6
:1018D000ED786D07ED0F002D01D1002CF4D1F0BD96
:1018E00010B508210020FFF76DFF10BD0FB438B50B
:1018F00000240498002803D138BC08BC04B0184761
:1019000005A800903648009A049906F0DDFBC4B2A1
:1019100000200090802C00DD8024224630490020E9
:10192000FFF7B6FF00BFE7E70FB438B50546002460
:101930000598002803D138BC08BC04B0184706A895
:1019400000902748009A059906F0BEFBC4B200201B
:101950000090802C00DD8024224621492846FFF794
:1019600097FF00BFE7E7F8B505460E461746002487
:10197000002D02D02846FFF7B9FF00241BE02046C7
:10198000E117490F0918C910C900611A03D1A1B2A2
:1019900014A0FFF7ABFF315D14A0FFF7A7FF601C99
:1019A000C117490F0918C910C900411A02D111A065
:1019B000FFF79CFF641CBC42E1DB2046E117490FA6
:1019C0000918C910C900611A02D00AA0FFF78EFFDA
:1019D000F8BD000080E100E06000002000800220EF
:1019E000B40100205B253034785D2000253032784A
:1019F000200000000D0A000010B50146272901DA79
:101A0000002902DA0020C04310BDCC07E40F2029D2
:101A100004DA4A101B480068835C05E00846203859
:101A2000421018484068835C002C01D01811EBE785
:101A30001807000FE8E770B5272801DA002800DA58
:101A400070BD0907090FC407E40F202804DA43100A
:101A50000C4E3668F21805E00646203E7310094E1B
:101A60007668F2181578002C01D00F2600E0F026D9
:101A70003540002C01D00E07310E2E460E43167055
:101A800000BFDDE768000020D3490860704770B5EB
:101A9000024620241440630920251446AC43012546
:101AA000A54028469C00CD4D2C592075050A65752A
:101AB000050CA575050EE575002B13D0002908D17E
:101AC000C74D6D7D0543ECB2C54D6D7DC44E74753B
:101AD00015E0C34D6D7D85432C46C14D6D7DC04ED7
:101AE00074750CE0002905D1BD4C64680443BC4DFD
:101AF0006C6004E0BA4C64688443B94D6C6070BD9E
:101B000070B5024620241440630920251446AC43D6
:101B10000125A5402846002B13D0002908D0B04D40
:101B2000ED7D0543ECB2AE4DED7DAD4EF47515E0A7
:101B3000AB4DED7D85432C46A94DED7DA84EF4754A
:101B40000CE0002905D0A64CE4680443A44DEC60E9
:101B500004E0A34CE4688443A14DEC6070BD30B553
:101B60000B4620240440610920250446AC4301258E
:101B7000A5402A468C00994D2C592276150A657687
:101B8000150CA576150EE576002B0AD08C00934D2A
:101B90002C592271150A6571150CA571150EE57188
:101BA00009E08C008D4D2C592272150A6572150CB6
:101BB000A572150EE57230BD10B5202303405909FA
:101BC00020240346A34301249C4022468B00834CDF
:101BD000E3581A73140A5C73140C9C73140EDC73B0
:101BE00010BD10B520230340590920240346A34308
:101BF00001249C4022468B00784CE3581A71140A49
:101C00005C71140C9C71140EDC7110BD10B5202396
:101C10000340590920240346A34301249C40224643
:101C20008B006E4CE3581A72140A5C72140C9C728E
:101C3000140EDC7210BD30B5014620200840420968
:101C400020240846A0430124844023469000634C8E
:101C500020584030102404192578284665782D0234
:101C60002843A5782D042843E4782406204318400F
:101C7000002801D0012030BD0020FCE7F0B503466C
:101C80000C46154620221A40500920261A46B24317
:101C9000012696403146002C0BD182004F4EB2589F
:101CA000403211720E0A56720E0C96720E0ED672D9
:101CB0000AE08200494EB258403211710E0A567144
:101CC0000E0C96710E0ED671002D0BD18200434E74
:101CD000B258203211760E0A56760E0C96760E0EFB
:101CE000D6760AE082003D4EB258203211750E0AB7
:101CF00056750E0C96750E0ED6758200374EB2587C
:101D0000203211710E0A56710E0C96710E0ED6719C
:101D10000022002A05DBD706FF0E0126BE40314F08
:101D20003E6000BFF0BD10B52023034059092024B8
:101D30000346A34301249C4022468B00274CE358D2
:101D400020331A72140A5C72140C9C72140EDC722A
:101D500010BD70B500243CE0A00020490858403078
:101D6000142141180A7810464A78120210438A78E2
:101D700012041043C97809060843A100174A5158B4
:101D800020310A461378194653781B021943937879
:101D90001B041943D2781206114308400546002D52
:101DA00000D114E00C480068002804D029462046E1
:101DB000094A12689047A000084908584030057544
:101DC000290A4175290C8175290EC17500BF601C57
:101DD000C4B2022CC0DB70BD78000020700000206F
:101DE0004010005000E100E0002109E0002201E085
:101DF000531C9AB27D239B019A42F9DB4B1C99B28A
:101E00008142F3DB7047002107E0002201E0531C10
:101E10009AB2092AFBDB4B1C99B28142F5DB704771
:101E20007C49C860704710B57A48C068C4B27A4827
:101E30000068002803D02046774909688847204673
:101E4000FFF7EEFF10BD74490860704771490861E3
:101E5000724909680143714A116070476D494861D0
:101E60006E49096881436D4A1160704701206949D4
:101E7000086000BF674800680028FBD1012068495E
:101E80000870704701206349486000BF614840689E
:101E90000028FBD162490870704701205D498860C5
:101EA00000BF5C4880680028FBD1704730B50A4607
:101EB000411E584CE1614B045B0C002A0ED00021FE
:101EC00004E0002B00D103E05B08491C2029F8D373
:101ED00000BF0F24641A4F4DAC6200BF30BD4D49A6
:101EE0008862704738B50246002A02D0494824303B
:101EF00001E04848203003461868009000210EE0B9
:101F00006C46605C04110A256C436D466C546C464B
:101F1000645C05072D0F64196D466C54491C032938
:101F2000EEDB009838BDF8B506460D46002E02D00F
:101F30003848243001E037482030009000240FE07A
:101F40002F5D0A21384605F095FC0007000E285544
:101F50000A21384605F08EFC285D01432955641C92
:101F6000032CEDDB284605F0DEFC009908602C48C8
:101F70000078002808D02748C06A2649C862084669
:101F80008069886101200860F8BD08B52148C06AF1
:101F9000009000210EE06A46505C02110A235A4369
:101FA0006B465A546A46525C03071B0FD2186B46A5
:101FB0005A54491C0329EEDB009808BD70B505464C
:101FC00000240FE02E5D0A21304605F053FC000787
:101FD000000E28550A21304605F04CFC285D0143CF
:101FE0002955641C032CEDDB284605F09CFC0949AF
:101FF000C8620B480078002804D0084680698861D0
:102000000120086070BD06480078704703480068EA
:1020100070470000007000507C0000208400002009
:10202000800000200146083141600021C9438160E1
:1020300001460831C1600161002101607047002143
:102040000161704742684A6093688B609368596089
:102050009160086103685B1C0360704710B502461D
:102060000B685C1C002C01D1106907E01046083099
:1020700000E04068446824689C42FAD944684C6097
:102080004C68A160886041600A611468641C146037
:1020900010BD01460A694B68886898608B6848687B
:1020A00058605068884201D18868506000200861FB
:1020B0001068401E106010687047000070B505463B
:1020C0000E462C46002C02D172B600BFFEE702F08D
:1020D00055FB216CE06B484321684018606000208C
:1020E000A0632068A060E06B401E216C484321681B
:1020F0004018E0600020C0436064A064002E10D14E
:102100002069002801D1012000E00020002810D122
:102110002046103001F08AFB01280AD102F025FB8D
:1021200007E020461030FFF77DFF20462430FFF700
:1021300079FF02F02EFB012070BDFEB507460D466B
:1021400000200090002F01D0012000E00020002896
:1021500002D172B600BFFEE7002D02D1002001902F
:1021600003E038466843401C01900199084650300E
:1021700002F0DCF90646002E10D03446002D01D1C5
:10218000246002E0304650302060E763256401217E
:102190002046FFF793FF0020E06400940098002899
:1021A00002D172B600BFFEE70098FEBDF8B5044646
:1021B0000E4615460027206C002809D1206800280B
:1021C00031D1606801F079FC0746002060602AE0A8
:1021D000002D0FD13146226CA06805F05FFB216C09
:1021E000A0684018A0606168A06888421BD320687E
:1021F000A06018E03146226CE06805F04FFB216CCE
:10220000E068401AE0602168E068884203D2216CEF
:102210006068401AE060022D05D1A06B002802D052
:10222000A06B401EA063A06B401CA0633846F8BDA5
:1022300073B50D460098C46C0026002C02D172B60E
:1022400000BFFEE7A06BE16B884201D2012000E0F5
:102250000020002802D172B600BFFEE7A06BE16B40
:1022600088421CD22A4669462046FFF79FFF064651
:10227000A06C401C00280FD1606A002801D1012009
:1022800000E0002000280AD12046243001F0CEFAD8
:10229000002804D0012602E0A06C401CA064304657
:1022A0007CBD10B5044602F069FA20E0E06C00281D
:1022B00008D000212046FFF7BBFF012814D101F010
:1022C0008CFB11E0606A002801D1012000E00020B1
:1022D000002808D12046243001F0A8FA002803D0B5
:1022E00001F07BFB00E005E0A06C401EA064A06C48
:1022F0000028DBDC00BF0020C043A06402F049FAE4
:1023000002F03CFA14E02069002801D1012000E02D
:10231000002000280BD12046103001F087FA002859
:1023200001D001F05AFB606C401E606400E002E0E6
:10233000606C0028E7DC00BF0020C043606402F04E
:1023400028FA10BD70B5054602F018FAA86BE96BC3
:10235000884201D1012400E0002402F01AFA20464C
:1023600070BDFFB583B006461D460020029034467E
:10237000002C02D172B600BFFEE70498002802D1FB
:10238000206C002801D1012000E00020002802D1AB
:1023900072B600BFFEE7022D02D1E06B012801D129
:1023A000012000E00020002802D172B600BFFEE745
:1023B00001F035FB002802D10598002801D1012049
:1023C00000E00020002802D172B600BFFEE700BF87
:1023D00002F0D4F9A06BE16B884201D3022D2BD11E
:1023E0002A4620460499FFF7E1FE0746E06C0028E4
:1023F00008D029462046FFF71BFF012817D102F01D
:10240000B4F914E0606A002801D1012000E0002046
:10241000002808D12046243001F008FA012806D10E
:1024200002F0A3F903E0002F01D002F09EF902F0C0
:10243000B0F9012007B0F0BD0598002803D102F0E3
:10244000A8F90020F6E70298002804D1684601F0B8
:1024500083FA0120029002F09CF900F04DFE02F098
:102460008DF9606C401C002800D16064A06C401C99
:10247000002800D1A06402F08CF905A9684601F09B
:1024800077FA002819D12046FFF75CFF00280ED00C
:1024900020461030059901F054F92046FFF701FF5E
:1024A00000F07DFD002893D102F05FF990E720460F
:1024B000FFF7F7FE00F073FD8AE72046FFF7F1FE15
:1024C00000F06DFD0020B5E770B50546502002F024
:1024D0002DF80446002C1CD0002060602060A06015
:1024E000E060A0630120E06300202064401E60647F
:1024F000A0640020E06420461030FFF793FD2046E2
:102500002430FFF78FFD00231A4619462046FFF7B7
:1025100028FF002C02D172B600BFFEE7204670BD36
:1025200070B506463446002C02D172B600BFFEE7F5
:1025300001F072FA616888420DD1E068401EE060E7
:10254000E068002805D100231A4619462046FFF707
:1025500008FF012500E00025284670BD70B505463E
:1025600002F00CF9A86B002801D1012400E000243E
:1025700002F00FF9204670BD70B504460D46206C80
:1025800000280ED0216CE0684018E0606168E068C7
:10259000884201D32068E0602846226CE16805F09B
:1025A0007DF970BDFFB583B005460E460020029050
:1025B0002C46002C02D172B600BFFEE7002E02D1DD
:1025C000206C002801D1012000E00020002802D169
:1025D00072B600BFFEE701F022FA002802D105988A
:1025E000002801D1012000E00020002802D172B6AD
:1025F00000BFFEE700BF02F0C1F8A06B002837D093
:10260000E76831462046FFF7B7FF0698002819D142
:10261000A06B401EA0632068002802D101F097FA49
:1026200060602069002801D1012000E0002000281E
:1026300019D12046103001F0F9F8012813D102F029
:1026400094F810E0E760606A002801D1012000E002
:102650000020002807D12046243001F0E7F80028A8
:1026600001D002F082F802F094F8012007B0F0BD2A
:102670000598002803D102F08CF80020F6E70298B4
:10268000002804D1684601F067F90120029002F0A9
:1026900080F800F031FD02F071F8606C401C0028F9
:1026A00000D16064A06C401C002800D1A06402F03E
:1026B00070F805A9684601F05BF9002823D120468F
:1026C000FFF74CFF002818D02068002806D102F040
:1026D00055F8606801F0B1F902F05BF8204624304B
:1026E000059901F02EF82046FFF7DBFD00F057FCBE
:1026F000002880D102F039F87DE72046FFF7D1FDB0
:1027000000F04DFC77E72046FFF7CBFD00F047FCDB
:102710000020ABE7F8B506460F463446002C02D140
:1027200072B600BFFEE701F077F96168884204D114
:10273000E068401CE06001250BE000233A461946A2
:102740002046FFF72FFF0546012D02D1E068401C0F
:10275000E0602846F8BD70B505460E46002D01D054
:10276000012000E00020002802D172B600BFFEE781
:10277000AE4201D8012000E00020002802D172B64C
:1027800000BFFEE7022200212846FFF7D6FC0446E0
:10279000002C00D0A663002C02D172B600BFFEE769
:1027A000204670BDFFB583B0074615461E463C4621
:1027B000002C02D172B600BFFEE70498002802D1B7
:1027C000206C002801D1012000E00020002802D167
:1027D00072B600BFFEE7022E02D1E06B012801D1E4
:1027E000012000E00020002802D172B600BFFEE701
:1027F000FDF780FC0190A06BE16B884201D3022EB3
:102800002ED1324620460499FFF7D0FCA06C401C24
:1028100000281FD1E06C002809D031462046FFF780
:1028200007FD012819D1002D17D0286015E0606A36
:10283000002801D1012000E0002000280DD1204611
:10284000243000F0F3FF002807D0002D05D0012030
:10285000286002E0A06C401CA0640120029001E00E
:10286000002002900198FDF749FC029807B0F0BDE6
:10287000F8B506460D463446002C02D172B600BFAC
:10288000FEE7206C002801D1012000E00020002894
:1028900002D172B600BFFEE72068002802D160684E
:1028A000002801D1012000E00020002802D172B6EA
:1028B00000BFFEE7FDF71EFC0090A06BE16B8842B5
:1028C0002BD2A06B401CA063A06C401C00281FD121
:1028D000E06C002809D000212046FFF7A9FC012860
:1028E00019D1002D17D0286015E0606A002801D1A9
:1028F000012000E0002000280DD12046243000F007
:1029000095FF002807D0002D05D00120286002E0A7
:10291000A06C401CA064012700E000270098FDF790
:10292000EDFB3846F8BDF7B582B0054616462C4695
:10293000002C02D172B600BFFEE70398002802D136
:10294000206C002801D1012000E00020002802D1E5
:1029500072B600BFFEE7FDF7CDFB0190A06B00282B
:1029600022D020460399FFF707FEA06B401EA0630C
:10297000606C401C002812D12069002801D1012080
:1029800000E0002000280DD12046103000F04EFF5E
:10299000002807D0002E05D00120306002E0606CD6
:1029A000401C6064012700E000270198FDF7A6FBAA
:1029B000384605B0F0BDF3B581B005462C46002C75
:1029C00002D172B600BFFEE70298002802D1206C47
:1029D000002801D1012000E00020002802D172B6B9
:1029E00000BFFEE7206C002801D0012000E000209D
:1029F000002802D172B600BFFEE7FDF77BFB009016
:102A0000A06B002807D0E76820460299FFF7B4FDC5
:102A1000E760012600E000260098FDF76FFB3046D6
:102A2000FEBD70B50446002C02D172B600BFFEE7B1
:102A300001F0A4FEA56B01F0ACFE284670BD70B598
:102A400004462546002D02D172B600BFFEE701F014
:102A500095FEA96BE86B461A01F09BFE304670BDEF
:102A60000146002902D172B600BFFEE7886B7047AD
:102A700010B5014600200BE0C2005C4BD218526832
:102A80008A4204D10022C300584CE25002E0401CAC
:102A90000A28F1D300BF10BD70B504462546002DAD
:102AA00002D172B600BFFEE72846FFF7E1FF2846D5
:102AB00001F0C0FD70BD0146002902D172B600BF11
:102AC000FEE78A6B002A01D1012000E00020704758
:102AD0000146002902D172B600BFFEE78A6BCB6BBC
:102AE0009A4201D1012000E00020704710B5024653
:102AF00000200BE0C3003D4CE358002B05D1C30080
:102B0000E150C3001B195A6002E0401C0A28F1D3AF
:102B100000BF10BD70B505460E462C4601F02EFED6
:102B2000606C401C002800D16064A06C401C002830
:102B300000D1A06401F02DFEA06B002804D1314625
:102B40002046243000F058FE2046FFF7AAFB70BD57
:102B500070B50446002204212046FFF7EEFA054630
:102B6000284670BD70B504460E4601F007FEE06CC5
:102B7000002801D0002506E0A06B002801D0002528
:102B800001E0E664012501F004FE284670BDF8B5B9
:102B900005460F462E46F06CB84201D000240BE0EB
:102BA000B06B002801D0002406E001F0E7FD002012
:102BB000F06401F0EEFD01242046F8BD38B505466D
:102BC0000C46002000900023224669462846FFF765
:102BD000E9FC009838BD38B504460020009000227A
:102BE00069462046FFF79FFE009838BD340200205A
:102BF00010B5002406E014216143FE4A8818FFF74F
:102C000011FA641C0A2CF6D3FB48FFF70BFAFB48B9
:102C1000FFF708FAFA48FFF705FAFA48FFF702FA51
:102C2000F948FFF7FFF9F448F8490860F348F84914
:102C3000086010BDF8B504460F461546002608E0AA
:102C4000B95D204634308155B85D002800D102E0DE
:102C5000761C052EF4D300BF0021382001550A2D23
:102C600000D30925E562E56300202064201DFFF7FD
:102C7000E6F920461830FFF7E2F924610A20401BEC
:102C8000A061646200206064002148200155F8BD05
:102C9000F8B505460F46002F03D1A80001F046FC09
:102CA00000E038460646002E0BD04C2001F03EFCDA
:102CB0000446002C01D0266304E0304601F0BAFC43
:102CC00000E00024002C04D0A900A522206B04F011
:102CD000F7FD2046F8BDFFB583B016460C9D03985E
:102CE000002802D172B600BFFEE70A2D01D20120F2
:102CF00000E00020002802D172B600BFFEE7304697
:102D00000E99FFF7C5FF0446002C5FD0701E8000AF
:102D1000216B0818029002988008800002900298A7
:102D20008007800F002801D1012000E0002000284A
:102D300002D172B600BFFEE700962A4620460F9BDE
:102D40000499FFF777FF069A0399029801F0D2FCE5
:102D500020600D98002801D00D98046001F00EFD50
:102D6000AC480068401CAB490860AB4800680028CC
:102D700008D1A94804600846006801280DD1FFF772
:102D800037FF0AE0A5480068002806D1A24800687D
:102D9000C06AA84201D8A0480460A1480068401C4D
:102DA0009F4908609F49E06A0968884202D99D49A5
:102DB000E06A08601422E16A51438E4A8818211D96
:102DC000FFF740F9012701F0E4FC01E00027FF4391
:102DD000012F0AD191480068002806D08E4800686B
:102DE000C06AA84201D201F0C0FC384607B0F0BD6D
:102DF000864909680968002901D1012100E0002104
:102E0000002904D00021C943874A116006E07F49A8
:102E10000968C968C868844A41681160704770B51C
:102E2000054601F0ABFC002D02D17B48006800E0B4
:102E300028460446201DFFF72CF9A06A002803D07D
:102E400020461830FFF725F9211D6E48FFF7FAF8E4
:102E500076480068401C7549086071480068401C4D
:102E60006F49086001F095FC6C480068002818D094
:102E70006948006884420ED16D480068002801D17D
:102E8000012000E00020002802D172B600BFFEE75A
:102E900001F06BFC05E001F071FCFFF7A9FF01F008
:102EA00078FC70BDF8B500200090614800680028EB
:102EB00068D160480068401C5E49086008460668A2
:102EC000002E1CD1514800680068002801D1012063
:102ED00000E00020002802D172B600BFFEE74B4898
:102EE00007684B48006849490860494807605248EC
:102EF0000068401C50490860FFF77AFF00BF4A484D
:102F0000006886423DD300BF404800680068002842
:102F100001D1012000E00020002804D00020C0439F
:102F2000414908602CE039480068C068C468656899
:102F3000AE4202D23C48056022E0201DFFF7A9F80E
:102F4000A06A002803D020461830FFF7A2F83549C0
:102F5000E06A0968884202D93249E06A08601422AE
:102F6000E16A5143234A8818211DFFF76BF82A496B
:102F7000E06A0968C96A8842C6D301200090C3E7A5
:102F800000BF04E02D480068401C2C4908602C4814
:102F90000068002801D0012000900098F8BD70B5AD
:102FA000002523480068002802D172B600BFFEE762
:102FB00001F0E4FB1E480068401E1D4908600846F9
:102FC0000068002875D113480068002871D04BE0D4
:102FD0000B48C068C46820461830FFF75AF8201D17
:102FE000FFF757F80F49E06A096888422BD90D4965
:102FF000E06A27E0840200204C03002060030020E8
:1030000074030020880300209C0300208C00002013
:10301000900000209C00002088000020A8000020D4
:10302000B8000020A4000020BC0000209400002074
:10303000C0000020A0000020B4000020AC00002050
:10304000B000002008601422E16A5143F94A881850
:10305000211DFEF7F7FFF849E06A0968C96A88424E
:1030600002D30120F5490860F5480068002801D125
:10307000012000E000200028AAD0F24800680028C3
:1030800010D00BE0FFF70EFF002802D00120EB4923
:103090000860EC480068401EEA490860E94800689A
:1030A0000028EFD1E5480068012802D1012501F090
:1030B0005CFB01F06EFB284670BD10B50446DE488F
:1030C00000684460E0480068844207D2DA4801683A
:1030D000091DDE480068FEF7C1FF0CE0D648016814
:1030E000091DDB480068FEF7B9FFDA480068844232
:1030F00001D2D848046010BDD7480068401CD649AA
:1031000008607047FEB504460E4600200190002C72
:1031100002D172B600BFFEE7002E01D0012000E010
:103120000020002802D172B600BFFEE7CA4800683E
:10313000002801D1012000E00020002802D172B651
:1031400000BFFEE7FFF7D8FFBF4800680090206887
:10315000851921680098814208D92068A8420DD9B4
:10316000009885420AD90120019007E02068A84212
:1031700002D80098854201D901200190256001986C
:10318000002807D0AC480068001DFEF782FF2846E3
:10319000FFF793FFFFF703FF0746002F01D101F070
:1031A000E4FAFEBD70B504460026002C1BD0AA48E8
:1031B0000068002801D1012000E00020002802D191
:1031C00072B600BFFEE7FFF797FF9F48006805193A
:1031D00099480068001DFEF75CFF2846FFF76DFF69
:1031E000FFF7DDFE0646002E01D101F0BEFA70BDEC
:1031F000F8B507463E46002E02D172B600BFFEE784
:103200008D480068864201D100241EE001F0B6FA24
:10321000756901F0BEFA8E480068854203D08B487C
:103220000068854201D102240FE08C48854206D116
:10323000B06A002801D1032407E0022405E0884891
:10324000854201D1042400E001242046F8BD70B578
:10325000044601F093FA002C02D17748006800E0A0
:1032600020460646F56A01F094FA284670BDF8B586
:103270000446FCF73FFF0746002C02D16E48006869
:1032800000E020460646F56A3846FCF737FF284638
:10329000F8BDFEB507460D46002000900A2D01D26C
:1032A000012000E00020002802D172B600BFFEE736
:1032B0000A2D00D3092501F061FA002F02D15E48E2
:1032C000006800E038460446E66BAE4249D0B5429D
:1032D0000BD95948006884420DD057480068C06A2D
:1032E000A84208D80120009005E0534800688442B5
:1032F00001D101200090E06A0190E16AE06B884210
:1033000000D1E562E563A069C00FC007002802D1C3
:103310000A20401BA0616169142201985043454A6C
:103320008018814201D1012000E00020002812D045
:10333000201DFEF7AEFE4B49E06A0968884202D9BB
:103340004849E06A08601422E16A5143394A881802
:10335000211DFEF777FE0098012801D101F005FA42
:1033600000BF01F016FAFEBD3B480068002803D0FC
:1033700001203249086032E00020304908600BE04B
:1033800038480068002802D172B600BFFEE7354811
:103390000068401E334908603248006814214843E1
:1033A00024490858002801D1012000E0002000280D
:1033B000E6D12C490968142251431E4A88184168F5
:1033C000496841600146083142688A4202D1416839
:1033D000496841604168C968174A116000BF704779
:1033E00070B5054601F0CAF9002D02D112480068F7
:1033F00000E028460446201DFEF74BFEA06A002888
:1034000003D020461830FEF744FE211D1348FEF776
:1034100019FE01F0BEF90848006884423CD1124808
:10342000006800282BD00C48006800281ED101201D
:103430001DE000008402002088000020B000002071
:1034400074030020AC000020A000002090000020A9
:103450008C000020BC000020C00000209C03002045
:1034600088030020A4000020A800002000200028DD
:1034700002D172B600BFFEE701F077F916E0FE4810
:103480000068FE490968884203D10020FC490860B1
:103490000CE0FFF769FF09E0FA480068002805D052
:1034A00001F06CF9FFF7A4FC01F073F970BD10B5E1
:1034B000024600201146002A02D172B600BFFEE784
:1034C000ED4C4B69A34201D1012300E00023002B06
:1034D00011D0ED4C8B6AA34201D1012300E00023FF
:1034E000002B08D18B6A002B01D1012300E00023BF
:1034F000002B00D0012010BD70B505462C46002DD4
:1035000002D172B600BFFEE7002C27D0DC4800686D
:10351000844223D001F032F92046FFF7C8FF01288A
:103520001AD1201DFEF7B5FDD849E06A0968884226
:1035300002D9D649E06A08601422E16A5143D44AAC
:103540008818211DFEF77EFDCD49E06A0968C96A29
:10355000884201D301F009F901F01BF970BDF8B5FB
:10356000054600262C46002D02D172B600BFFEE7AC
:10357000FCF7C0FD07462046FFF799FF012823D13D
:10358000C448006800281AD1BD49E06A0968C96AC0
:10359000884200D30126201DFEF77BFDBB49E06A6F
:1035A0000968884202D9B949E06A08601422E16AD0
:1035B0005143B74A8818211DFEF744FD04E0214617
:1035C0001831B148FEF73EFD3846FCF797FD30460E
:1035D000F8BD10B50446206B01F02CF8204601F030
:1035E00029F810BD70B525E0FFF786FDAA480068F0
:1035F000002801D1012000E000200546FFF7CFFCA4
:10360000002D17D101F0BAF8A348C068C468201D86
:10361000FEF73FFD99480068401E984908609F48A2
:103620000068401E9D49086001F0B3F82046FFF78E
:10363000D0FF00BF994800680028D5D170BD00BFF9
:10364000FFF7D0FF924800680128F9D901F08DF802
:10365000F6E71FB50020924A0090029003460192BF
:10366000039080228FA19148FFF735FB0446012C7F
:1036700002D100F020FE0446012C09D172B60120CF
:103680008049086000208A49086001F047F804E09A
:10369000002C02D172B600BFFEE71FBD10B572B696
:1036A00000207849086001F051F810BD10B501F014
:1036B00065F87F48046801F06CF8204610BD70B5CD
:1036C000FCF718FD05467A4804682846FCF716FD05
:1036D000204670BD6948006870470146002902D144
:1036E0006748006800E008460246002A02D172B628
:1036F00000BFFEE710463430704769480068002874
:1037000001D0012000E00020002802D172B600BFE5
:10371000FEE7634800687047654909680918654A0B
:103720001268914201D8012100E00021002902D154
:1037300072B600BFFEE75E49096809185C4A11606D
:10374000704770B505460C46002D02D172B600BF19
:10375000FEE74B48016818312846FEF77FFC4848D1
:103760000068001DFEF795FC601C002806D1444847
:103770000168091D4048FEF765FC05E04C480068FB
:1037800006193046FFF799FC70BDF8B505460E46A0
:103790001446002D02D172B600BFFEE73D48006816
:1037A000002801D0012000E00020002802D172B6DC
:1037B00000BFFEE70120C007304331490968886136
:1037C0002F48016818312846FEF73CFC2C48006859
:1037D000001DFEF75EFC601C002806D12848016829
:1037E000091D2548FEF72EFC05E031480068071941
:1037F0003846FFF762FCF8BD70B504460D46002C54
:1038000002D172B600BFFEE71D480168183120469C
:10381000FEF718FC1A480068001DFEF73AFC244821
:10382000006846193046FFF748FC70BD70B5064683
:10383000F068C468002C02D172B600BFFEE72046D3
:103840001830FEF726FC13480068002834D1201DEC
:10385000FEF71FFC0D49E06A0968884202D90B494E
:10386000E06A08601422E16A5143094A8818211D60
:10387000FEF7E8FB25E000009C0300209C000020F0
:1038800088000020A800002074030020A40000206D
:1038900084020020C0000020880300209400002043
:1038A0009800002049444C45000000003F360010BD
:1038B000A0000020BC00002021461831FB48FEF784
:1038C000C1FBFB49E06A0968C96A884204D901253D
:1038D0000120F849086000E00025284670BDF8B5D1
:1038E00005460F46F4480068002801D0012000E09A
:1038F0000020002802D172B600BFFEE70120C007F9
:1039000038432860EC68002C02D172B600BFFEE795
:103910002846FEF7BEFB201DFEF7BBFBE749E06A29
:103920000968884202D9E549E06A08601422E16A20
:103930005143E34A8818211DFEF784FBDC49E06A05
:103940000968C96A884204D901260120D94908605A
:1039500000E000263046F8BD002802D172B600BF54
:10396000FEE7D84909680160D74909684160704796
:1039700070B504460D46002C02D172B600BFFEE7BA
:10398000002D02D172B600BFFEE700F0F7FECE4870
:1039900002682868401C002801D1002619E0C949A6
:1039A00020680968884204D06068904201D80126E6
:1039B0000FE06068101A2968884209D22868616897
:1039C000511A401A28602046FFF7C6FF002600E083
:1039D000012600F0DEFE304670BD0120B5490860CA
:1039E00070470246002101E0521C491C1078A528AE
:1039F000FAD0890888B27047F8B50446002C02D185
:103A0000AB48006800E0204607463D6B2846FFF7BC
:103A1000E8FF06463046F8BDA54908687047AB493F
:103A20000968002901D1012006E0A349096800299D
:103A300001D1022000E00020704770B505462C46F9
:103A4000002D39D09A49E06A0968C96A884233D2A0
:103A5000A069C00FC007002805D195480068C06A5A
:103A60000A21081AA0611422E06A5043944A80187F
:103A70006169814201D1012000E00020002817D0B7
:103A8000201DFEF706FB8A480068C06AE0628B4989
:103A9000E06A0968884202D98849E06A086014220D
:103AA000E16A5143864A8818211DFEF7CBFA03E0EC
:103AB0007F480068C06AE06270BD70B505462C465C
:103AC0000026002D35D07A480068844201D10120BB
:103AD00000E00020002802D172B600BFFEE7206C93
:103AE000002802D172B600BFFEE7206C401E2064A1
:103AF000E16BE06A88421CD0206C002819D1201D9F
:103B0000FEF7C7FAE06BE0620A21E06A081AA061DA
:103B10006A49E06A0968884202D96849E06A08602F
:103B20001422E16A5143664A8818211DFEF78AFA79
:103B30000126304670BD5E49096888695C4909689C
:103B4000C96A0A22511A5A4A126891617047584844
:103B50000068002806D05649096808464030096CBC
:103B6000491C0160524800687047F8B506460C468B
:103B700000F004FE4E480068406C00281DD1012171
:103B80004B48006840300172002C16D0484800684D
:103B9000001DFEF77EFA601C002806D1444801682B
:103BA000091D4B48FEF74EFA05E047480068071923
:103BB0003846FFF782FA00F0D8FD00F0EAFD00F089
:103BC000DDFD3B480068456C002D0DD0002E04D073
:103BD000002037490968486406E035490968084605
:103BE0004430496C491E0160002131480068403072
:103BF000017200F0CEFD2846F8BDFFB581B0074642
:103C000015461C4600F0BAFD294800684030007A8D
:103C1000022825D02649096808464430496CB94332
:103C2000016001212248006840300172002C17D049
:103C30001F480068001DFEF72CFA601C002806D102
:103C40001B480168091D2248FEF7FCF906E01E48E2
:103C50000068001900900098FFF72FFA00F085FD2A
:103C600000F097FD00F08AFD002D03D01048006899
:103C7000406C28600E4800684030007A012801D16D
:103C8000002608E00A490968084644304A6C02994F
:103C90008A43026001260021054800684030017215
:103CA00000F077FD304605B0F0BD00007403002041
:103CB00088000020B0000020C0000020A4000020E8
:103CC00084020020B4000020A0000020A8000020F2
:103CD0009C030020FFB583B007460D461646012021
:103CE0000190002F02D172B600BFFEE73C4600F003
:103CF00045FD0698002802D0616C069801604820B6
:103D0000005D0290022148200155330004F005FABD
:103D1000051604080C0E1700606C284360640EE062
:103D2000606C401C60640AE0656408E00298022848
:103D300001D0656401E00020019000E000BF00BFF9
:103D40000298012825D1201DFEF7A3F97049E06AE9
:103D50000968884202D96E49E06A08601422E16A63
:103D600051436C4A8818211DFEF76CF9A06A00289F
:103D700001D1012000E00020002802D172B600BF6E
:103D8000FEE76549E06A0968C96A884201D900F01E
:103D9000ECFC00F0FEFC019807B0F0BDFFB583B06D
:103DA00005460E46174601200190002D02D172B63D
:103DB00000BFFEE72C46FCF79DF900904820005D0F
:103DC00002900221482001553B0004F0A6F9051697
:103DD00004080C0E1700606C304360640EE0606CE9
:103DE000401C60640AE0666408E00298022801D082
:103DF000666401E00020019000E000BF00BF02986F
:103E0000012833D1A06A002801D1012000E0002060
:103E1000002802D172B600BFFEE7404800680028C3
:103E200013D1201DFEF735F93949E06A0968884247
:103E300002D93749E06A08601422E16A5143354AE1
:103E40008818211DFEF7FEF804E021461831344899
:103E5000FEF7F8F83049E06A0968C96A884205D96E
:103E60000698002802D00121069801600098FCF70E
:103E700045F9019807B0F0BDF8B505460E46002D8E
:103E800002D172B600BFFEE72C46FCF733F9009072
:103E90004820075D02210155606C401C6064012FC1
:103EA00031D1A06A002801D1012000E000200028C3
:103EB00002D172B600BFFEE718480068002813D18F
:103EC000201DFEF7E6F81249E06A0968884202D927
:103ED0000F49E06A08601422E16A51430D4A8818CC
:103EE000211DFEF7AFF804E0214618310C48FEF71B
:103EF000A9F80949E06A0968C96A884203D9002E0D
:103F000001D0012030600098FCF7F8F8F8BD0000FF
:103F1000A40000208402002088000020C0000020AF
:103F200074030020F8B504460D4616461F460020CF
:103F3000009065602461B5420CD8F01BA1698842ED
:103F400002D30120009011E0211DF9480068FEF71E
:103F500085F80BE0BE4204D2BD4202D3012000909E
:103F600004E0211DF3480068FEF778F80098F8BDDA
:103F7000F0B585B005460C4616461F460020049055
:103F8000ED480068002822D0009401960295062C86
:103F900015DAFFF744FD022808D100236946E648F8
:103FA0000A9A0068FEF7DDF9049010E000231A4633
:103FB0006946E1480068FEF7D4F9049007E0002361
:103FC0003A466946DC480068FEF7ECFB049004982A
:103FD00005B0F0BDFEB52BE0D6480068C0680568A6
:103FE000D4480068C068C468201DFEF752F8204617
:103FF000616A8847E06901281AD1A0694619AE4272
:1040000007D966602461211DCA480068FEF726F8BA
:104010000EE0002003462A46014600902046FFF7A6
:10402000A7FF0746002F02D172B600BFFEE700BF10
:10403000C04800680068002801D1012000E000208D
:104040000028C9D0BB4800680190B9480068B94948
:104050000860B74901980860FEBD70B50446FFF7D7
:1040600025FB0546B5480068854204D2FFF7B2FF3C
:104070000120206001E000202060B0480560284653
:1040800070BDF0B587B06EE0039800280ADA04AF7F
:10409000002F02D172B600BFFEE73A68B9687868AF
:1040A000904700BF039800285DDB059C60690028ED
:1040B00001D1012000E00020002802D1201DFDF7E1
:1040C000E8FF02A8FFF7C9FF05460398030004F0C4
:1040D00024F80A0A06082C2E4407092D2F4800BF91
:1040E00000BF00BF00BF0498A269811803462A469A
:1040F0002046FFF717FF012816D12046616A88473E
:10410000E069012810D1002000900498A1694218AC
:10411000002319462046FFF72BFF0646002E02D14A
:1041200072B600BFFEE700BF1CE000BF1AE000BF90
:104130000498A061A069002801D0012000E00020BF
:10414000002802D172B600BFFEE7A06941192B46D4
:104150002A462046FFF7E6FE04E0204600F06AFA11
:1041600000E000BF00BF00231A4603A972480068A0
:10417000FEF718FA002887D107B0F0BDF8B505465C
:104180000F466C480068C068C468201DFDF781FFB9
:10419000E069012817D1A06941192B463A4620460B
:1041A000FFF7C0FE01280ED1002003462A46014633
:1041B00000902046FFF7DCFE0646002E02D172B6C4
:1041C00000BFFEE700BF2046616A8847F8BDF8B52A
:1041D00004460E46FEF790FF6846FFF73EFF054691
:1041E0000098002816D1002E08D1AC4206D8FEF760
:1041F000D6FE29462046FFF7C1FF0DE0611B4E4861
:104200000068FEF787FCFEF7CAFE002804D100F024
:10421000ACFA01E0FEF7C3FEF8BD0146454A12685C
:104220001268002A01D1012200E000220A600A6817
:10423000002A04D13F4A1268D268106800E00020CA
:10424000704708B500BF6846FFF7E7FF0446204601
:104250000099FFF7BCFFFFF714FFF4E710B500F07B
:104260008DFA35480068002822D13548FDF7DAFE7E
:104270003448FDF7D7FE32482E49086031482C49B2
:104280000860002210212020FDF757FF2A4908600E
:1042900008460068002802D172B600BFFEE7264833
:1042A0000068002804D028A123480068FEF71EFCFF
:1042B00000F06FFA10BD1FB50024FFF7CFFF1E48B6
:1042C000006800280DD00020214A052302900093A9
:1042D00001920390034650221EA12048FEF7FBFCEA
:1042E0000446002C02D172B600BFFEE7204604B09F
:1042F00010BDFFB581B006460D461746002D01D111
:10430000002411E0282000F011F90446002C0BD005
:10431000FFF7A4FF2660A561E761049820620A9870
:104320006062201DFDF78BFE002D19D0012018E0E2
:10433000C8000020C4000020CC000020D4000020D1
:10434000B0030020C4030020546D7251000000002F
:10435000D0000020546D7220537663004342001059
:104360000020002802D172B600BFFEE7204605B04B
:10437000F0BD3B480068002801D0012000E000208B
:10438000002802D172B600BFFEE7354800687047CA
:1043900001460A461068704770B50446264600F08C
:1043A000EDF97069002801D1012000E00020012111
:1043B00005464D4000F0EDF9284670BD70B5044645
:1043C0002646002C02D172B600BFFEE700F0D6F9F7
:1043D000356A00F0DEF9284670BD70B504460D461A
:1043E0002646002C02D172B600BFFEE700F0C6F9E7
:1043F000356200F0CEF970BDF0B585B004460D46CB
:1044000016461F460120C04301900294039504966E
:1044100000233A4601A913480068FEF7C3F900904B
:10442000009805B0F0BDFFB585B004460D461646B0
:104430000C480068002802D172B600BFFEE70020D9
:10444000C0430190029403950496002301A90548F6
:10445000089A0068FDF785FF0746384609B0F0BDA9
:10446000D0000020CC00002010B50146934800E0A9
:10447000006803688B42FBD3024643689B188B425B
:1044800004D143684C681B19436001460A464B68D7
:104490009B180468A34211D1894C03682468A34285
:1044A00008D04B68046864681B194B6003681B687C
:1044B0000B6005E0824B1B680B6001E003680B603A
:1044C000884200D0016010BD30B501235B037D48F8
:1044D0008407A40F002C05D0C01C80088000794CF4
:1044E000041B1B1B0246754C22600024734D6C603C
:1044F000D018083880088000714C20600024704D6E
:104500002D686C606E4D2D682C601146441A4C600D
:104510006B4C24680C606C4D4C682C606B4D4C6887
:104520002C600124E4076A4D2C6030BDF8B50446C8
:1045300000200090FEF7E0FD61480068002801D1EE
:10454000FFF7C2FF624800682040002861D1002CBC
:1045500015D00834A007800F002810D0A007800FC6
:104560000421081A0419A007800F002801D1012096
:1045700000E00020002802D172B600BFFEE7002C48
:1045800047D052480068844243D84C4E30460568B4
:1045900001E02E462D686868A04202D228680028F3
:1045A000F7D147480068854233D030680830009022
:1045B000286830606868001B102813D92F19B807C5
:1045C000800F002801D1012000E00020002802D146
:1045D00072B600BFFEE76868001B78606C60384602
:1045E000FFF742FF394968680968081A37490860C7
:1045F0000846006834490968884203D23348006895
:1046000031490860324968680968084368600020D9
:104610002860FEF7C4FC00988007800F002801D1B5
:10462000012000E00020002802D172B600BFFEE7A2
:104630000098F8BD70B506463546002E35D0083DC9
:104640002C462349606809680840002801D00120F1
:1046500000E00020002802D172B600BFFEE720680B
:10466000002801D1012000E00020002802D172B60C
:1046700000BFFEE71649606809680840002814D0AA
:104680002068002811D11249606809688843606079
:10469000FEF732FD0D496068096840180B49086053
:1046A0002046FFF7E1FEFEF77AFC70BD0748006880
:1046B000704705480068704770470000D800002028
:1046C000E0000020D8030020E8000020E4000020E3
:1046D000EC00002040480068401C002801D1012067
:1046E00000E00020002802D172B600BFFEE772B6DB
:1046F00000BFFEE7001F01231B060360001F0160CF
:10470000001F364B03601438026020387047704732
:1047100033483449486107200861704710B5324872
:10472000006AFF21090408432F4908620846006A0D
:10473000FF21090608432C490862FFF7E9FF002022
:1047400025490860FBF7C6FC002010BD2248006820
:104750007D21C900884201D1012000E0002000280D
:1047600002D172B600BFFEE77047012000071E4964
:104770004860BFF34F8FBFF36F8F704772B6164814
:104780000068401C14490860BFF34F8FBFF36F8F60
:10479000704711480068002802D172B600BFFEE7DA
:1047A0000D480068401E0C49086008460068002853
:1047B00000D162B6704710B5FBF79CFC0446FEF7CB
:1047C00071FB002803D001200007074948602046FC
:1047D000FBF794FC10BD0000F0000020D54600104F
:1047E000FFF9000000E000E000ED00E00448804731
:1047F00004480047FEE7FEE7FEE7FEE7FEE7FEE7C8
:1048000011480010C10000100348044908607047B7
:1048100001480249086070470090D003F40000206E
:10482000FE49202208781043EF2210400422104352
:104830000870704710B5FA488047002802D002F08F
:1048400010FC012010BDF6480A300047F449283119
:104850000847F3493C310847F1496C310847F149B1
:104860000847F0495C310847EE496A310847ED498D
:1048700076310847EB4986310847EA4994310847C1
:10488000E849A2310847E749AE31084730B4E64C61
:10489000A44630BC6047E44874300047E348004712
:1048A000F8B5E34DCF222968E24C08780026104085
:1048B00008702068E0491830884728682268017825
:1048C000127F090912070901120F1143017009072C
:1048D000090FBF27012921687ED00A4622314B7873
:1048E00009781B020B43114620310B711B0A4B71D7
:1048F0000378117A3B4089010B435906490E017038
:10490000226841784032127A8909921D9206890103
:10491000920E1143417021680622801C093102F079
:10492000BDFF21684820425C002A04D02868493134
:10493000083002F0B3FF2168BF4A7020405C323A71
:10494000713190472868BD4A41788906890E891CD3
:1049500090472868017809090901091D017022683A
:104960003940127AD207520E114301702268417801
:104970002032127A8909921D92068901920E114302
:10498000417021680622801C093102F087FF2168EE
:104990002820425C28682931083002F07FFF28680F
:1049A000A74A41788906890E891C9047256800200E
:1049B0006F7F012181400F4204D0E97F0B225143D8
:1049C0008E19761C401C0328F3D32C4620346078C3
:1049D00021780002084300E019E013214843401CFD
:1049E000B04206D2701E02F02FFF401C2070000A59
:1049F00060706078217800020843022803D2022008
:104A0000207000206070287F012824D03AE00B46F7
:104A100020318A79CA71197A0278C9073A40490E59
:104A20000A43027051062268490E6032127CD2019C
:104A30001143017041780622890989010C314170C6
:104A40002168801C093102F029FF286821680622AC
:104A5000083071316DE7E079002813D06078227852
:104A60000102114313204143A079491CC00302F005
:104A7000EBFE401C06467F2102F0E6FE401CC1B260
:104A8000E1711EE0607921790002084331D060783D
:104A900022780102114313204143284622304278F4
:104AA000037810021843C003491C02F0CDFE401CDD
:104AB00006467F2102F0C8FE401C81B22171080A1F
:104AC0006071304602F0C0FE401C7F2800D97F2074
:104AD0000121E975A97F00916178237809021943C2
:104AE000584CEA7FC0B23B46A04756483430804716
:104AF000F8BD0020544CE875034602460121A0474A
:104B0000F8BD4A491A3108474848F43000474F4831
:104B1000004738B5049C00944C4C0E34A04738BD77
:104B200030B44A4CE834A44630BC604710B502F0BB
:104B300083FB10BD10B502F09BFB10BD4349A431AF
:104B40000847434800474248323000474049463111
:104B500008473F49B23108473D49C23108473C4AFE
:104B6000D032104710B501F06DFA10BD3849FC3154
:104B700008473849084737490E3108473549363123
:104B8000084710B501F03EFD10BD334908473248D3
:104B90007238004731480068C0788007C00F7047FE
:104BA00070B524480068817C427C0802104312D012
:104BB000FFF7F0FF194C022501280DD12648723865
:104BC00080472749884207D12178012029430143A2
:104BD00021702149884770BD2078802108432843EF
:104BE000207070BDF8B50D48C07900067BD511481E
:104BF0000668B17C707C0F0207430848057801D035
:104C0000A80701D468076ED5044C207BE17A000226
:104C1000E41C084367D0002F65D023E0A2340020B5
:104C2000DF5600001558000027590000CD5B00003A
:104C30006C01002068010020451D00002B260000AB
:104C400047270000971B000031540000F55C00006E
:104C50005B5E0000675F0000B5600000600100203F
:104C60000604000060782178000208432AD1307CD5
:104C7000F17B0002084303F071F80022F94B02F0C7
:104C800071FF03F079F880B278430A2102F0F2FD57
:104C90004004010C2170080A6070307DF27C000233
:104CA00010430A224243914203D3401E2070000A5F
:104CB0006070607821780002084303D101202070E1
:104CC00000206070FD210D400121E7480D43057073
:104CD000E649002088476078227801021143E54BBD
:104CE000E34A09209847F8BD10B50F21DE4802F0CD
:104CF000EEFD10BDF0B504468DB0401C02F013FE71
:104D00000146082831D0D84E00253E3E042931D036
:104D100080291DD0D448CB1F0278FF3BFA3B18D026
:104D200001239B0399427DD1D2490A20243188472F
:104D300070780621484381190A22601D891C02F0FF
:104D4000ADFD7078401CC0B270700A287DD37570BC
:104D50007BE0C179002978D0D10676D4A379667931
:104D60001902314301290AD06FE002F081FAC248EA
:104D700080476AE075703570FFF7B6FF65E08178AF
:104D8000491E0906090E817050D0B74943788879C9
:104D90004E7902023243887A4E7A00023043491C2F
:104DA000012B49D0801A0872000A487200060B7A5B
:104DB000000C1843831A6A4613835083AA4A167B51
:104DC000D27A360216436A4696834A7B0F7B1102DB
:104DD00039436A46D183138050809680D180137204
:104DE0003220507200209072D572280A1073012070
:104DF0005073002090730220D073002010740320A1
:104E00005074002090740420D07400201075052088
:104E100050750020984990751046CA31884706A8F9
:104E2000954900E00AE0E83188470EE0017A817098
:104E300040210A43027008E08018B4E7900604D5C8
:104E40008804000F01D0FFF7CDFE8C492046C968C9
:104E500088470DB0F0BD10B50446001D02F063FD9B
:104E60008649C860211D864802F067FD85492046B5
:104E7000884710BD83492231084782497831084765
:104E8000804A80321047794A7A3A104776490020A2
:104E90003E390A7849788A4200D90A200818801ACF
:104EA000401EC0B2704700B5FFF7F0FF002804D1E4
:104EB0006D4800213E384170017000BDF8B50E46C6
:104EC000074671491C46154601208847002807D02F
:104ED000FFF788FE23462A463146384602F088F915
:104EE000F8BDF8B50E46044667491F461546012031
:104EF0008847002814D0022C03D1FFF7C7FF0028F1
:104F000009D0EAB2594D3B46314620466A3DA84792
:104F1000012807D004E00A21564B5C4A084698470E
:104F20000020F8BD022C12D14F4C06213E3C2078C7
:104F30000A46484300193146801C02F0AFFC207835
:104F4000401CC0B220700A2801D30020207001202C
:104F5000F8BD70B50D460446112140198903164667
:104F6000884201D3002070BD49480068213002F01A
:104F7000DAFC484B001932462946984770BDF8B50F
:104F80000646EFF3108472B6414D2868213002F0D6
:104F9000CAFC8019404A0121904784F310883E4F93
:104FA0000024F63FEFF3108572B6394800682130CF
:104FB00002F0B9FC31194018384900230A192021A0
:104FC000B84785F310880120000320348442E9DBD0
:104FD000F8BDF7B5070501993F0D002912D00299D8
:104FE00000290FD02549897800290BD101997A1819
:104FF000012109038A4205D8019A112382181B0353
:105000009A4201D90020FEBD0025C41BEFF3108693
:1050100072B61F480068213002F085FC6119401803
:105020001E491C4B4A192021984786F310880120FD
:10503000000320358542E9DB1848019AC01902991E
:1050400002F02CFC104901208847002828D0EFF3FB
:10505000108072B6094901228C808A7080F3108812
:105060000120FEBD0000F43FA2340020B560000026
:10507000A14B0010D33300008D5E0000F80000202B
:10508000F54C0010B35F000045850000A74E0010EE
:10509000640100208F1600009F1800006424002087
:1050A0002046FFF76CFFDBE7FE490847FD4A083260
:1050B000104738B5049C0094FA4C1034A04738BD12
:1050C00030B4F84C1C34A44630BC6047F549243158
:1050D0000847F44A2C321047F24A3432104730B4B1
:1050E000F04C3C34A44630BC6047EE4B4433184788
:1050F000EC4B4C33184730B4EA4C5434A44630BC23
:105100006047E8495C310847E64864300047E549B4
:105110006C310847E4490847E34908310847E24948
:105120008C310847E048BE300047DF48E230004796
:10513000DE4A1047DD4952310847DC495C310847F7
:10514000DA4964310847D9496C310847D749763183
:10515000084710B502F011F810BD10B501F0A8FF16
:1051600010BDD24890300047D049A431084730B430
:10517000CF4CA44630BC6047CC48F6300047CD4801
:105180000047CC4930310847CA4856300047C94823
:1051900060300047C74814300047C64822300047F7
:1051A000C44872300047C34BD6331847C24B184728
:1051B00030B4C14C6634A44630BC604730B4BF4CF8
:1051C000A44630BC6047F8B5BD488047BD4DA878BF
:1051D000002809D0A888FFF7D2FEEFF3108072B63E
:1051E0000021A97080F31088B74CE079002834D0F2
:1051F000000610D52078410705D5FFF7F3FC20788D
:10520000FB21084006E0000605D5FFF7EBFC2078FF
:105210004006400E20702078AC4FAD4E41060AD5B6
:10522000BF210840207002206946088002466B4674
:1052300039460020B0472078C1070ED04008400012
:105240002070800701D5042000E005206946088011
:1052500002226B4639460020B0476878C10704D067
:10526000400840006870A8688047F8BD994800472A
:1052700098483A30004797485230004795486A307E
:10528000004794486E30004793498A69120A120217
:1052900002434A61087C012210430874704710B52C
:1052A00072B6834CA0478D48006801214A02104223
:1052B00006D18B48027ED20702D0027E0A430276D4
:1052C00062B6012010BD70B504460320000384427D
:1052D0002AD9844803260568B603E878002802D056
:1052E000012810D01EE02846253002F01CFBA04209
:1052F00002D88019A04217D2284629300EE0801922
:10530000A04211D20EE028462D3002F00CFBA04244
:1053100002D88019A04207D22846313002F003FBA0
:10532000A042ECD9012070BD002070BD10B572B64E
:105330006D4A904762B610BD70B514460D460646DC
:10534000FFF7C1FF002806D072B62246674B2946F8
:105350003046984762B670BD10B572B6634BAE3337
:10536000984762B610BD10B572B65F4CF63CA047C8
:1053700062B610BDF7B50025C80288B00E462C46AF
:10538000070C11E0089861010818584B6A46202163
:105390009847002069460A5C401C5219C0B295B279
:1053A0002028F8D3641CA4B2BC42EBD3F6060898BC
:1053B000F60E610108184D4B6A46314698470020A9
:1053C000694604E00A5C5219401C95B2C0B2B04272
:1053D000F8D30A98854202D101200BB0F0BD00201D
:1053E000FBE7FFB50E460121074609033F4B81B09D
:1053F0003F4A002098473E49352208468C3802F043
:105400004DFA3B48833802F08EFA39495722441846
:1054100037482146573802F041FA2021601C02F03B
:1054200056FA0025002F10D00020395C00290AD040
:105430002218401CC0B251702028F6D305E0211874
:10544000401C4D70C0B22028F9D3204605212130E0
:1054500002F03DFA002E12D00020315C00290CD061
:1054600022182032401CC0B251700528F5D306E046
:1054700021182031401C4D70C0B20528F8D32146B8
:105480002631039802F059FA214622310498087215
:10549000000A48720121144A257000209047144ADE
:1054A000012127E05D6100008B6200009163000034
:1054B000E9310000576600001B68000061690000C8
:1054C000D1640000F8000020A23400200002000097
:1054D00031540000713C00000010005000E100E079
:1054E00000A00050640100209F1800008F160000EB
:1054F000642400200903FE4B00209847012005B0DA
:10550000F0BDFC4A1047FB4A223A1047F0B502783A
:1055100089B0002A7ED0F849CA7142780A72002AFE
:1055200001D0042A01D904220A72C27884781302B5
:105530002343F14A1C0A5372947244790579240278
:105540002C431546EC72260A2E73A646C47985793B
:10555000200228435073040A8446E8489473046880
:1055600008252746207CE47B000220430124521CAE
:1055700083424C7008D9181A07E01471200A01E020
:105580001571280A507107E0C01A0E7AB0424DDA40
:105590001471260A56710872087A88700D70002BF3
:1055A00041D05079117900020843191A68460183E5
:1055B00043836146C18371468183B87C797C000254
:1055C000084302D0CE49002088476846018B0180FD
:1055D000428B4280828B8280C28BC28001723221D8
:1055E000417200218172C17201734473210A817377
:1055F0000221C173002101740321417400218174CF
:105600000421C174002101750521417500218175B6
:10561000BC4900E00EE08847BA4906A81E31884719
:10562000B94909208847012009B0F0BDF600B04211
:10563000A6DAA2E70020F7E7FEB50746AE480178F4
:105640000A077DD5F72211400170BA797C1C7B795D
:1056500012021A437BD0C279120678D51022114368
:105660000170880673D4A94880470546607921797E
:1056700000020843FF1C002832D002F06FFB0646F0
:105680000091787839780002084302F067FBA04F58
:1056900000223B4602F066FA3246009B02F062FAB4
:1056A0000090964801910068017CC27B080210437B
:1056B00002F054FB00223B4602F054FA07460E4625
:1056C000607A217A00020843401B02F033FB3A461D
:1056D000334602F047FA019B009A02F091F924E068
:1056E000787839780002084302F01CFB06468348AC
:1056F0000068017CC27B0802104302F013FB3146B4
:1057000002F024F902F056FB0022814B02F02AFA43
:1057100007460E46607A217A00020843401B02F0D9
:1057200009FB3A46334602F01DFA0022794B02F09B
:1057300081FA02F021FB0104090C00D1012101E0F2
:105740000EE004E0704B0920734A243B9847032085
:105750006946088102221102704C02AB0020A0476A
:10576000FEBD38B56E4C2078002804D16D496846DE
:10577000884701202070012038BD10B50B3010285B
:1057800001D9FF2010BD604BC4B22046243B98478E
:10579000204610BD10B50B30102801D9FF2010BDD8
:1057A000C4B2594920468847204610BD072801D970
:1057B0000020704701228240594843781A434270C2
:1057C0008160012070474D480068C07D70474B489C
:1057D000554900684118487C097C0002084370471D
:1057E00010B5030002F099FC09061C36506AA2BCF1
:1057F000CEE8FE0000217F20FFF783FE002130204D
:10580000FFF77FFE01217F20FFF77BFE1E21632033
:10581000FFF777FE1F216D20FFF773FE882114E04C
:1058200000217F20FFF76DFE00213020FFF769FE89
:1058300001217F20FFF765FE1E216320FFF761FE37
:105840001F216D20FFF75DFE8A216120FFF759FEC1
:105850008121CCE000217F20FFF753FE0021302082
:10586000FFF74FFE01217F20FFF74BFE1E21632033
:10587000FFF747FE1F216D20FFF743FE8A216120BD
:10588000FFF73FFE8321B2E000217F20FFF739FEC2
:1058900000213020FFF735FE01217F20FFF731FE88
:1058A0001E216320FFF72DFE1F216D20FFF729FE2B
:1058B0008A216120FFF725FE872198E000217F20C3
:1058C000FFF71FFE00213020FFF71BFE01217F2084
:1058D000FFF717FE1E216320FFF713FE1F216D2027
:1058E000FFF70FFE8A216120FFF70BFE8F217EE07C
:1058F0003D170000A7290000A23400206801002005
:10590000B5600000575F0000F7330000051B000082
:105910000000F43F000024402148001031540000F2
:10592000F80000209D2C00006305000000217F206E
:10593000FFF7E7FD00213020FFF7E3FD01217F2085
:10594000FFF7DFFD1E216320FFF7DBFD1F216D2028
:10595000FFF7D7FD8A216120FFF7D3FD9F2146E0A5
:1059600000217F20FFF7CDFD00213020FFF7C9FD8A
:1059700001217F20FFF7C5FD1E216320FFF7C1FD38
:105980001F212AE000217F20FFF7BBFD02213020EC
:10599000FFF7B7FD01217F20FFF7B3FD1F21632033
:1059A000FFF7AFFD03216D20FFF7ABFD8A216120DA
:1059B000FFF7A7FDB0211AE000217F20FFF7A1FD2E
:1059C00002213020FFF79DFD01217F20FFF799FD87
:1059D0001F216320FFF795FD07216D20FFF791FD43
:1059E0008A2100E006E06120FFF78BFDBF216520E2
:1059F000FFF787FD10BD14490968603108747047CE
:105A000010B500280ED0012812D0022816D0032885
:105A100007D102217F20FFF774FD40212920FFF7E5
:105A200070FD10BD02217F20FFF76BFD4621F5E7D9
:105A300002217F20FFF765FD4421EFE702217F204F
:105A4000FFF75FFD4221E9E76001002010B5FF216B
:105A50006731F84801F03BFF10BD08B5FFF781FE44
:105A6000002818D0AA220421F34801F029FFF248A7
:105A700055220421001D01F023FFEF4800210C38BE
:105A80008170C1701430052200901023D202EB49BE
:105A90000120FFF70EFB08BDF8B505460E460020B5
:105AA000E54C6946642708700C3C68460078A842BB
:105AB00039D2217800290DD0012911D002291CD01A
:105AC000032923D0042927D00529EED16946401C9B
:105AD0000870EAE72A466946304600F059FA20E0A5
