:020000041000EA
:10000000D0290020290C0010310C0010330C0010F6
:1000100000000000000000000000000000000000E0
:10002000000000000000000000000000350C00107F
:100030000000000000000000370C0010390C001018
:100040005B0500107B4400103B0C00103B0C0010C3
:100050003B0C00103B0C00103F0700103B0C001045
:100060003B0C00103B0C00103B0C00103B0C001034
:100070003B0C00103B0C00103B0C00103B0C001024
:100080003B0C00103B0C00103B0C00103B0C001014
:100090003B0C00103B0C00103B0C00103B0C001004
:1000A0003B0C0010E90700103B0C00103B0C00104B
:1000B0003B0C00103B0C00103B0C00103B0C0010E4
:1000C0000348854606F050F800480047DD00001060
:1000D000D029002000B52D1D00BD0000C0B00025B6
:1000E000002472B600F0C4FD01F091FA032001F083
:1000F0005AFA0021192000F0B6FA0021172000F06A
:10010000B2FA0021222000F0AEFA00210A2000F00D
:10011000AAFA0121192000F022F90121172000F08C
:100120001EF90121222000F01AF901210A2000F015
:1001300016F900210E2000F096FA00210F2000F0A1
:1001400092FA0021102000F08EFA0021112000F018
:100150008AFA00210E2000F09AF800210F2000F00A
:1001600096F80021102000F092F80021112000F0F4
:100170008EF80721142000F076FA0721152000F0F0
:1001800072FA00F053FC00F073FD62B62CA100205F
:1001900000F070FC53E00A2000F00EF9002547E063
:1001A000002403E069460C55601C84B2FF2CF9DD85
:1001B00029025122D2028818012101F09EFC290255
:1001C0005122D202881800236A46FF21013101F032
:1001D000B2FCFF210131684605F01BFC29025122C7
:1001E000D20288186A46FF21013101F08CFC0024FC
:1001F00006E06846005DA04200D003E0601C84B2C7
:10020000FF2CF6DD00BFFF2C08DD28025121C902BA
:10021000421813A1002000F02DFC07E02802512114
:10022000C902421812A1002000F024FC681C85B20B
:10023000AF20C0008542B3DB124800F0D9F9AAE72D
:100240005359443838323120666C61736820696EC6
:100250007465726E616C20544553540D0A000000A1
:10026000666C617368206F6B3A253034780D0A0034
:10027000666C617368206661696C653A2530347814
:100280000D0A000010270000D5490860704770B5BE
:10029000024620241440630920251446AC4301255E
:1002A000A54028469C00CF4D2C592075050A657540
:1002B000050CA575050EE575002B13D0002908D196
:1002C000C94D6D7D0543ECB2C74D6D7DC64E74754D
:1002D00015E0C54D6D7D85432C46C34D6D7DC24EE9
:1002E00074750CE0002905D1BF4C64680443BE4D11
:1002F0006C6004E0BC4C64688443BB4D6C6070BDB2
:1003000070B5024620241440630920251446AC43EE
:100310000125A5402846002B13D0002908D0B24D56
:10032000ED7D0543ECB2B04DED7DAF4EF47515E0BB
:10033000AD4DED7D85432C46AB4DED7DAA4EF4755C
:100340000CE0002905D0A84CE4680443A64DEC60FD
:1003500004E0A54CE4688443A34DEC6070BD30B567
:100360000B4620240440610920250446AC430125A6
:10037000A5402A468C009B4D2C592276150A65769D
:10038000150CA576150EE576002B0AD08C00954D40
:100390002C592271150A6571150CA571150EE571A0
:1003A00009E08C008F4D2C592272150A6572150CCC
:1003B000A572150EE57230BD10B520230340590912
:1003C00020240346A34301249C4022468B00854CF5
:1003D000E3581A73140A5C73140C9C73140EDC73C8
:1003E00010BD10B520230340590920240346A34320
:1003F00001249C4022468B007A4CE3581A71140A5F
:100400005C71140C9C71140EDC7110BD10B52023AE
:100410000340590920240346A34301249C4022465B
:100420008B00704CE3581A72140A5C72140C9C72A4
:10043000140EDC7210BD30B5014620200840420980
:1004400020240846A0430124844023469000654CA4
:1004500020584030102404192578284665782D024C
:100460002843A5782D042843E47824062043184027
:10047000002801D0012030BD0020FCE7F0B5034684
:100480000C46154620221A40500920261A46B2432F
:10049000012696403146002C0BD18200514EB258B5
:1004A000403211720E0A56720E0C96720E0ED672F1
:1004B0000AE082004B4EB258403211710E0A56715A
:1004C0000E0C96710E0ED671002D0BD18200454E8A
:1004D000B258203211760E0A56760E0C96760E0E13
:1004E000D6760AE082003F4EB258203211750E0ACD
:1004F00056750E0C96750E0ED6758200394EB25892
:10050000203211710E0A56710E0C96710E0ED671B4
:100510000022002A09DB00BF00BFD706FF0E01261C
:10052000BE40324F3E6000BF00BF00BFF0BD10B5FF
:1005300020230340590920240346A34301249C405F
:1005400022468B00274CE35820331A72140A5C723F
:10055000140C9C72140EDC7210BD70B500243CE0CB
:10056000A000204908584030142141180A7810464C
:100570004A78120210438A7812041043C978090697
:100580000843A100174A515820310A4613781946EA
:1005900053781B02194393781B041943D27812062F
:1005A000114308400546002D00D114E00C480068B6
:1005B000002804D029462046094A12689047A00026
:1005C0000849085840300575290A4175290C81757C
:1005D000290EC17500BF601CC4B2022CC0DB70BD07
:1005E00008000020000000204010005000E100E062
:1005F000002109E0002201E0531C9AB27D239B01F7
:100600009A42F9DB4B1C99B28142F3DB704700211F
:1006100007E0002201E0531C9AB2092AFBDB4B1CC5
:1006200099B28142F5DB704710B50146272901DAFE
:10063000002902DA0020C04310BDCC07E40F2029B6
:1006400004DA4A101B480068835C05E0084620383D
:10065000421018484068835C002C01D01811EBE769
:100660001807000FE8E770B5272801DA002800DA3C
:1006700070BD0907090FC407E40F202804DA4310EE
:100680000C4E3668F21805E00646203E7310094EFF
:100690007668F2181578002C01D00F2600E0F026BD
:1006A0003540002C01D00E07310E2E460E43167039
:1006B00000BFDDE70C00002070B504460D460620A3
:1006C00000F014F99048006800780009000129073B
:1006D000090F08438C49096808708B480068007846
:1006E00080218843E101802211400843864909683E
:1006F000087085480068007840218843824909686D
:1007000008708148006880780821884308307E4955
:100710000968887092007D497D4800F013FA7D4891
:10072000406A402108437B4948620846006A4021EC
:10073000084378490862062000F0CBF870BD70B518
:100740007148006804783020604005466E480068B3
:1007500005701020204000280DD000BF6A480068B6
:1007600001796B4800F027FA67480068C078C00735
:10077000C00F0028F2D070BD70B504460D46192098
:1007800000F0B4F8604840680078000900012907CB
:10079000090F08435C49496808705B484068007865
:1007A00080218843E101802211400843564949686D
:1007B000087055484068007840218843524949688C
:1007C00008705148406880780821884308304E49B5
:1007D00049688870920050494D48103000F0B2F9D5
:1007E000192000F076F870BD70B54748406804786D
:1007F0003020604005464448406805701020204085
:1008000000280ED000BF40484068017940481030B1
:1008100000F0D1F93C484068C078C007C00F0028FC
:10082000F1D070BDF0B50B4601242404002112E084
:1008300000BF8500344E7559ED782D07ED0F002D62
:10084000F7D1850075596D785E5C354686002E4F70
:10085000BE597570491C9142EADB00E0641E8500B8
:10086000294E7559ED786D07ED0F002D01D1002C43
:10087000F4D1F0BD70B504460D462101244A881814
:10088000294600F0A6F970BD70B504460D4600BFBC
:10089000022C01DB002070BD21011D4A881800F0E8
:1008A000ADF900280AD1200119494018C568210175
:1008B000174A881800F0ABF9C0B2ECE70020EAE76D
:1008C0000146012901DD0020704788000E4A1058BA
:1008D000FAE7002809DB00BF00BFC206D20E0121E3
:1008E00091400E4A116000BF00BF704700280ADB2C
:1008F000C206D20E01219140084A80321160BFF336
:100900004F8FBFF36F8F704714000020D00000207E
:10091000B000002000800220D002002000E100E0B2
:1009200010B502460620002809DBC406E40E0123A8
:10093000A3407B4C2360BFF34F8FBFF36F8F00BF8B
:10094000784800680078000900010B071B0F184366
:10095000744B1B68187073480068007880239843B4
:10096000D3018024234018436E4B1B6818706D48D8
:10097000006800784023984340306A4B1B68187029
:1009800068480068C078102398431030654B1B6896
:10099000D870644800688078082398430830614B19
:1009A0001B6898706048406A402318435E4B586249
:1009B0001846006A402318435B4B18620620002843
:1009C0000ADB00BF00BFC406E40E0123A340544C61
:1009D000803C236000BF00BF00BF10BDF0B50B46D8
:1009E00001242404002112E000BF85004D4E7559FA
:1009F000ED782D07ED0F002DF7D1850075596D7835
:100A00005E5C35468600474FBE597570491C914261
:100A1000EADB00E0641E8500424E7559ED786D07F3
:100A2000ED0F002D01D1002CF4D1F0BD10B508213F
:100A30000020FFF775FF10BD0FB438B500240498EF
:100A4000002803D138BC08BC04B0184705A80090A2
:100A50003648009A049905F0BFFBC4B2002000900C
:100A6000802C00DD8024224630490020FFF7B6FFAD
:100A700000BFE7E70FB438B5054600240598002805
:100A800003D138BC08BC04B0184706A8009027481A
:100A9000009A059905F0A0FBC4B200200090802CBC
:100AA00000DD8024224621492846FFF797FF00BF3A
:100AB000E7E7F8B505460E4617460024002D02D09C
:100AC0002846FFF7B9FF00241BE02046E117490F35
:100AD0000918C910C900611A03D1A1B214A0FFF707
:100AE000ABFF315D14A0FFF7A7FF601CC117490FD2
:100AF0000918C910C900411A02D111A0FFF79CFFC3
:100B0000641CBC42E1DB2046E117490F0918C910FB
:100B1000C900611A02D00AA0FFF78EFFF8BD0000DD
:100B200080E100E01C00002000800220D0040020B2
:100B30005B253034785D20002530327820000000BD
:100B40000D0A00000023436003608260C1607047AB
:100B5000416801607047F8B504460F461546606865
:100B60004019A16888421ADB2089A188401A86B200
:100B70006268E16888183246394604F031FFA81BE4
:100B800085B22068A84202DC2088401E85B2B919CF
:100B90002A46E06804F024FF65607019F8BD6268B9
:100BA000E16888182A46394604F01AFF606840193F
:100BB00060602846F2E702465368581C5060D068CF
:100BC000C15493685068984201DB002050600120B6
:100BD0007047024653681068984201D10020704760
:100BE0001368581C1060D068C05C08709368106867
:100BF000984201DB002010600120F0E701464A68BE
:100C00000868904201D1012070470020FCE70146AE
:100C100000224B680868984200DD8A68486880189E
:100C20000B68C01A7047000004488047044800471A
:100C3000FEE7FEE7FEE7FEE7FEE7FEE74D0C0010ED
:100C4000C100001003480449086070470148024988
:100C50000860704740787D0124000020F749202279
:100C600008781043EF2210400422104308707047A8
:100C700010B5F3488047002802D002F088FF012019
:100C800010BD10B502F0E7FF10BDED49283108474F
:100C9000EB493C310847EA496C310847E9490847C4
:100CA000E8495C310847E7496A310847E549763148
:100CB0000847E44986310847E24994310847E14949
:100CC000A2310847DF49AE31084730B4DE4CA446B4
:100CD00030BC6047DC4874300047DC480047F8B55A
:100CE000DB4DCF222968DB4C0878002610400870C5
:100CF0002068D94918308847286822680178127F0F
:100D0000090912070901120F114301700907090FA0
:100D1000BF27012921687DD00A4622314B78097806
:100D20001B020B43114620310B711B0A4B710378D8
:100D3000117A3B4089010B435906490E0170226824
:100D400041784032127A8909921D92068901920EE9
:100D50001143417021680622801C093104F040FED5
:100D600021684820425C002A04D0286849310830B4
:100D700004F036FE2168B84A7020405C323A713186
:100D800090472868B54A41788906890E891C9047A2
:100D90002868017809090901091D01702268394094
:100DA000127AD207520E1143017022684178203224
:100DB000127A8909921D92068901920E114341709F
:100DC00021680622801C093104F00AFE21682820CF
:100DD000425C28682931083004F002FE2868A04AE5
:100DE00041788906890E891C9047256800206F7F0D
:100DF000012181400F4204D0E97F0B2251438E191B
:100E0000761C401C0328F3D32C46203460782178CC
:100E1000000200E01AE0084313214843401CB0429E
:100E200006D2701E04F0B2FD401C2070000A6070F3
:100E30006078217800020843022803D20220207043
:100E400000206070287F012824D03AE00B46203132
:100E50008A79CA71197A0278C9073A40490E0A4359
:100E6000027051062268490E6032127CD201114391
:100E7000017041780622890989010C31417021688D
:100E8000801C093104F0ACFD286821680622083076
:100E900071316DE7E079002813D060782278010283
:100EA000114313204143A079491CC00304F06EFD97
:100EB000401C06467F2104F069FD401CC1B2E1716F
:100EC0001EE0607921790002084331D060782278F1
:100ED000010211431320414328462230427803780F
:100EE00010021843C003491C04F050FD401C064684
:100EF0007F2104F04BFD401C81B22171080A607112
:100F0000304604F043FD401C7F2800D97F2001219A
:100F1000E975A97F00916178237809021943514C42
:100F2000EA7FC0B23B46A0474E4834308047F8BD08
:100F300000204D4CE875034602460121A047F8BD4C
:100F40004A48002201684A750A7C012002430A745B
:100F5000404909682031C871087100204871704704
:100F60003A491A3108473948F430004740480047A9
:100F700038B5049C00943E4C0E34A04738BD30B4C4
:100F80003B4CE834A44630BC604710B502F059FF32
:100F900010BD10B502F071FF10BD3549A4310847EE
:100FA0003448004733483230004732494631084719
:100FB0003049B23108472F49C23108472D4AD03253
:100FC000104710B501F022FA10BD2A49FC3108473C
:100FD0002949084728490E3108472749363108472B
:100FE00010B501F0F2FC10BD10B503F07FFB10BD91
:100FF0002148DC3000471D480068C0788007C00FDA
:10100000704770B513480068817C427C0802104329
:1010100012D0FFF7F0FF094C0225012830D1164805
:10102000DC308047154988422AD1217801202943A4
:101030000143217003F05AFB70BD00008E150020A3
:10104000DF5600001558000027590000CD5B000056
:101050005400002050000020451D00002B260000F9
:1010600047270000971B0000315400004800002073
:10107000F55C00005B5E0000675F00000604000096
:1010800020788021084328432070D5E7F8B5FE4832
:10109000C079000656D5FD480668B17C707C0F0209
:1010A0000743F948057801D0A80701D4680749D556
:1010B000F54C207BE17A0002E41C084342D0002F6B
:1010C00040D060782178000208432AD1307CF17B3F
:1010D0000002084304F0D0FE0022ED4B04F0D0FDE6
:1010E00004F0D8FE80B278430A2104F065FC400485
:1010F000010C2170080A6070307DF27C0002104300
:101100000A224243914203D3401E2070000A6070BD
:10111000607821780002084303D10120207000206C
:101120006070FD210D40D84801210D43057000205D
:1011300003F0DCFA6078227801021143D64BD54ADD
:1011400009209847F8BD10B50F21CF4804F061FC85
:1011500010BDF0B504468DB0401C04F072FCCA4EC0
:1011600000253E3E024604282AD0C748D31F0178F6
:10117000FF3BFA3B18D001239B039A4279D1C64921
:101180000A202431884770780621484381190A22B1
:10119000601D891C04F024FC7078401CC0B2707083
:1011A0000A2876D3757074E0C279002A71D0CA0615
:1011B0006FD4A37966791A023243012A05D068E018
:1011C00075703570FFF7BFFF63E08278521E12061C
:1011D000120E82704ED0AC49437888794E79020263
:1011E0003243887A4E7A00023043491C012B47D0A3
:1011F000801A0872000A487200060B7A000C184325
:10120000831A6A46138350839F4A167BD27A36022A
:1012100016436A4696834A7B0F7B110239436A461E
:10122000D183138050809680D18013723220507207
:1012300000209072D572280A10730120507300208C
:1012400090730220D073002010740320507400208B
:1012500090740420D0740020107505205075002073
:1012600090758E49104688478C4906A81E318847DC
:101270000FE007E0027A827040221143017008E01B
:101280008018B6E7880604D59004000F01D0FFF758
:10129000FDFE83492046096988470DB0F0BD10B5B1
:1012A0000446001D04F0CDFB7D490861211D7D48E9
:1012B00004F0D1FB794920465C31884710BD77495D
:1012C0007E3108477549D4310847744ADC321047EB
:1012D000724AE43210476C4900203E390A78497856
:1012E0008A4200D90A200818801A401EC0B27047EE
:1012F00000B5FFF7F0FF002804D1634800213E3815
:101300004170017000BDF8B50E46074666491C469F
:10131000154601208847002807D0FFF7B7FE23466F
:101320002A463146384602F068FDF8BDF8B50E464B
:1013300004465D491F46154601208847002814D001
:10134000022C03D1FFF7C7FF002809D0EAB2534DA2
:101350003B4631462046F435A847012807D004E033
:101360000A214D4B514A084698470020F8BD022CEF
:1013700012D1454C06213E3C20780A4648430019CC
:101380003146801C04F02CFB2078401CC0B2207039
:101390000A2801D3002020700120F8BD70B50D4649
:1013A00004461121401989031646884201D30020C2
:1013B00042E63F480068213004F043FB3D4B0019F2
:1013C00032462946984737E6F8B50646EFF31084CB
:1013D00072B6374D2868213004F033FB8019364A45
:1013E0000121904784F31088334F0024F63FEFF338
:1013F000108572B62E480068213004F022FB3119A6
:1014000040182E4900230A192021B84785F3108877
:101410000120000320348442E9DBF8BDF7B507055D
:1014200001993F0D002912D0029900290FD01C49C3
:10143000897800290BD101997A18012109038A4280
:1014400005D8019A112382181B039A4201D9002062
:10145000FEBD0025C41BEFF3108672B61448006869
:10146000213004F0EEFA611940181449114B4A1961
:101470002021984786F310880120000320358542FB
:10148000E9DB0E48C0191BE08E150020500000203B
:101490000000F43F03100010D3330000575F00003A
:1014A000280000205311001045850000F1120010A3
:1014B0004C0000208F1600009F18000050050020EF
:1014C000019A029904F08CFAFE490120884700280D
:1014D0000AD0EFF3108072B6FB4901228C808A702B
:1014E00080F310880120FEBD2046FFF76DFFF9E76D
:1014F000F6490847F54A0832104738B5049C00946D
:10150000F24C1034A04738BD30B4F04C1C34A44623
:1015100030BC6047ED4924310847EC4A2C32104773
:10152000EA4A3432104730B4E84C3C34A44630BC6C
:101530006047E64B44331847E44B4C33184730B40C
:10154000E24C5434A44630BC6047E0495C31084763
:10155000DE4864300047DD496C310847DC49084704
:10156000DB4908310847DA498C310847D848BE3092
:101570000047D748E230004708B5002168460170AF
:1015800072B6D44800681D3004F05BFAD24B6A464C
:101590000121984762B66846007808BDCF4A1047D7
:1015A000CE495231084710B503F05FF810BDCB4962
:1015B00064310847C9496C310847C8497631084742
:1015C00010B502F0DFFB10BDC548004770B5BE483E
:1015D000002480682546807A4006C60F72B6C0484F
:1015E0008047022002F0CEFB641CA4B2FA2CFBD38D
:1015F0000024304602F082FB002801D0012503E0E0
:10160000641CE4B2032CF4D362B6284614E510B58A
:1016100002F09CFF10BDB2480E300047B14A10479F
:10162000B04A223A104738B502F090FFAE48006841
:10163000407805281FD1A4488068807A4006C40FEE
:10164000A748804700217F20FFF7E8FF69463F2039
:10165000FFF7E6FF684600788109022906D14106B6
:10166000490E684601703F20FFF7D8FF002C02D1D9
:101670009B480E30804738BD9849A431084730B4A4
:101680009A4CA44630BC60479448F63000479448D2
:101690001438004792491C310847914842300047AE
:1016A0008F484C30004710B58D488047904C012042
:1016B000A0470020A04710BD8E4908707047F8B5BC
:1016C000002472B68C4A0121834B090320469847B7
:1016D00062B6804E30680546093004F0B2F986499A
:1016E0004718E878002811D02846313004F0A9F9CD
:1016F000064628462D3004F0A4F9301A4002060EA2
:1017000038787E4F734D002857D073E02846293033
:1017100004F097F906462846253004F092F9301A6D
:101720004002060E3878754F6A4D00280CD026E02E
:1017300072B62868293004F084F9E10340180821C2
:10174000B84762B6641CE4B2B442F1D32D682846AF
:10175000293004F076F906462846253037E072B67F
:10176000E203B01819E072B62868253004F069F970
:10177000E10340180821B84762B6641CE4B2B442E1
:10178000F1D328680646293004F05BF90546304657
:10179000253039E072B6E2038018B84762B60120FE
:1017A000F8BD72B62868313004F04BF9E1034018F7
:1017B0000821B84762B6641CE4B2B442F1D32D6884
:1017C0002846313004F03DF9064628462D3004F015
:1017D00038F9301A4004410FC1D1E0E772B62868E9
:1017E0002D3004F02EF9E10340180821B84762B605
:1017F000641CE4B2B442F1D328680646313004F0E8
:1018000020F9054630462D3004F01BF9291A490409
:10181000490FBFD1C3E7324BC2331847384B184783
:1018200030B4374C6634A44630BC604730B4354CD5
:10183000A44630BC6047F8B5334C354E206801787B
:101840003248012901D080470EE0804720680078A7
:10185000002809D12F49032004F0FDF801210522B9
:10186000C9042C4B0020B047174DA878002809D098
:10187000A888FFF7A9FDEFF3108072B60021A970C8
:1018800080F31088244CE079002862D0000610D53F
:101890002078410705D5FFF7F9FB2078FB210840A8
:1018A00006E0000605D5FFF7F1FB20784006400E64
:1018B00020702078194F410639D5BF21084020708B
:1018C00002202DE045850000280000205D61000019
:1018D0008B6200004C0000208F1600009163000016
:1018E0006B660000A729000050000020E9310000CD
:1018F000692D00003E000020500500209F180000C8
:101900001B6800006169000060000020D1640000D5
:1019100031540000900000208E15002000020000CD
:101920006946088002466B4639460020B047207859
:10193000C1070ED0400840002070800701D5042068
:1019400000E005206946088002226B4639460020E7
:10195000B0476878C10704D0400840006870E86864
:101960008047F8BDFE480047FD483A300047FC4834
:1019700052300047FA486A300047F9486E30004755
:10198000F8498A69120A120202434A61087C01225C
:10199000104308747047F8B50446F348017DE20629
:1019A00049094901D20E114301750221EF4D7F20F3
:1019B000A847EE4E25206946223EB047684601788A
:1019C000214301702520A84769462520B047F8BD6E
:1019D000E748E84900684118487C097C0002084350
:1019E0007047F8B50546EFF3108472B60021DF4E5C
:1019F0007F20B047DD4A17206946223A9047684663
:101A000001789F200140A807400E014368460170FD
:101A10001720B04784F31088F8BD38B5EFF3108471
:101A200072B60021D14A7F209047D04A17206946DC
:101A3000223A904784F31088684600784006800F69
:101A400038BDCD490840C7494A6882434A6070475B
:101A5000C9490840C3494A6802434A6070471CB5F7
:101A60006A4690801180C5485080D0806946012028
:101A700001F0B8FC1CBDC248004770B50546C1481E
:101A80000C468268107AFB2108401072BE49284635
:101A90008847BD4A214628465E3A904788E470B59B
:101AA000BA4C2468E47BA406A40E00280AD0B04DEA
:101AB0002D68ED7D002D05D0052C07D0062C05D016
:101AC0000F2C03D002F05BFF012071E400206FE4D3
:101AD00010B50446AE480068C178002902D001293B
:101AE00002D008E0293000E0313003F0AAFFA04224
:101AF00001D9002010BD012010BD10B572B6A54A55
:101B0000904762B610BD70B514460D460646FFF705
:101B1000DFFF002806D072B622469F4B294630468A
:101B2000984762B644E410B572B60023994CF63C6F
:101B3000A04762B610BD10B572B6964CF63CA047F1
:101B400062B610BDF7B50025C80288B00E462C4617
:101B5000070C11E00898610108188F4B6A46202194
:101B60009847002069460A5C401C5219C0B295B2E1
:101B70002028F8D3641CA4B2BC42EBD3F606089824
:101B8000F60E61010818844B6A46314698470020DA
:101B9000694604E00A5C5219401C95B2C0B2B042DA
:101BA000F8D30A98854202D101200BB0F0BD002085
:101BB000FBE7FFB50E46012107460903764BA5B0AA
:101BC000764A0020984735227449684603F008FF9A
:101BD00002A8013003F035FF70495722441821460E
:101BE0000EA803F0FDFE2021601C03F012FF00256B
:101BF000002F10D00020395C00290AD02218401C88
:101C0000C0B251702028F6D305E02118401C4D7059
:101C1000C0B22028F9D320460521213003F0F9FE77
:101C2000002E12D00020315C00290CD02218203266
:101C3000401CC0B251700528F5D306E021182031B0
:101C4000401C4D70C0B20528F8D321462631279894
:101C500003F001FF2146223128980872000A4872D9
:101C600001214C4A25700020904700230121494C56
:101C700009034A4A1846F63CA047012029B0F0BDA6
:101C8000F0B5027889B0002A68D04549CA71427817
:101C90000A72002A01D0042A01D904220A72C278E9
:101CA0008478130223433E4A1C0A53729472447987
:101CB000057924022C431546EC72260A2E73A6469B
:101CC000C4798579200228435073040A8446284841
:101CD0009473046808252746207CE47B0002204397
:101CE0000124521C83424C7008D9181A07E0147161
:101CF000200A01E01571280A507107E0C01A0E7A17
:101D0000B04271DA1471260A56710872087A887026
:101D10000D70002B64D05079117900020843191A14
:101D20006846018343836146C18371468183B87CE1
:101D3000797C0002084302D0002002F0D7FC6846FC
:101D4000018B0180428B4280828B8280C28BC28059
:101D50000172322141720021817223E048E00000CB
:101D6000713C00000010005040600250A7290000A4
:101D70005000002063050000FCFF0FFD4808000034
:101D80000D33000028000020AB3100004800002087
:101D90004C0000209F1800008F1600005005002006
:101DA0008E150020C17201734473210A81730221D0
:101DB000C173002101740321417400218174042145
:101DC000C174002101750521417500218175F74914
:101DD0008847F64906A81E318847F54909208847F3
:101DE000012009B0F0BDFFE7F600B04282DA7EE7DD
:101DF0000020F6E7FEB50746EE4801780A077DD5D4
:101E0000F72211400170BA797C1C7B7912021A43C7
:101E10007BD0C279120678D5102211430170880652
:101E200073D4E5488047054660792179000208436C
:101E3000FF1C002832D004F01FF806460091787885
:101E400039780002084304F017F8DC4F00223B46C3
:101E500003F016FF3246009B03F012FF0090D848B3
:101E600001910068017CC27B0802104304F004F871
:101E700000223B4603F004FF07460E46607A217AB3
:101E800000020843401B03F0E3FF3A46334603F0E9
:101E9000F7FE019B009A03F041FE24E07878397840
:101EA0000002084303F0CCFF0646C5480068017CE9
:101EB000C27B0802104303F0C3FF314603F0D4FD98
:101EC00004F006F80022BD4B03F0DAFE07460E468A
:101ED000607A217A00020843401B03F0B9FF3A46BA
:101EE000334603F0CDFE0022B64B03F031FF03F082
:101EF000D1FF0104090C00D1012101E00EE004E052
:101F0000AB4B0920B04A243B98470320694608811F
:101F100002221102AD4C02AB0020A047FEBD38B535
:101F2000AB4C2078002804D1AA4968468847012094
:101F30002070012038BD10B50B30102801D9FF20CA
:101F400010BD9B4BC4B22046243B9847204610BD91
:101F500010B50B30102801D9FF2010BDC4B2944930
:101F600020468847204610BD072801D90020704729
:101F700001228240964843781A434270C160012092
:101F800070478F480068C07D70478D48924900684F
:101F90004118487C097C00020843704710B50300D3
:101FA00004F043F909061C36506A849EB0CAE60064
:101FB00000217F20FFF732FB00213020FFF72EFBAE
:101FC00001217F20FFF72AFB1E216320FFF726FB5C
:101FD0001F216D20FFF722FB882114E000217F20C4
:101FE000FFF71CFB00213020FFF718FB01217F20A9
:101FF000FFF714FB1E216320FFF710FB1F216D204C
:10200000FFF70CFB8A216120FFF708FB8121ACE080
:1020100000217F20FFF702FB00213020FFF7FEFAAE
:1020200001217F20FFF7FAFA1E216320FFF7F6FA5D
:102030001F216D20FFF7F2FA8A216120FFF7EEFAE7
:10204000832192E000217F20FFF7E8FA0021302071
:10205000FFF7E4FA01217F20FFF7E0FA1E21632059
:10206000FFF7DCFA1F216D20FFF7D8FA8A216120E3
:10207000FFF7D4FA872178E000217F20FFF7CEFA1E
:1020800000213020FFF7CAFA01217F20FFF7C6FAAE
:102090001E216320FFF7C2FA1F216D20FFF7BEFA51
:1020A0008A216120FFF7BAFA8F215EE000217F20AC
:1020B000FFF7B4FA00213020FFF7B0FA01217F20AA
:1020C000FFF7ACFA1E216320FFF7A8FA1F216D204D
:1020D000FFF7A4FA8A216120FFF7A0FA9F2144E0CC
:1020E00000217F20FFF79AFA00213020FFF796FAAF
:1020F00001217F20FFF792FA1E216320FFF78EFA5D
:102100001F212AE000217F20FFF788FA02213020DA
:10211000FFF784FA01217F20FFF780FA1F21632057
:10212000FFF77CFA03216D20FFF778FA8A216120FE
:10213000FFF774FAB02118E000217F20FFF76EFA54
:1021400002213020FFF76AFA01217F20FFF766FAAB
:102150001F216320FFF762FA07216D20FFF75EFA67
:102160008A216120FFF75AFABF216520FFF756FA4E
:1021700010BD1A49096860310874704710B500280D
:102180000ED001282CD0022830D0032807D10221FC
:102190007F20FFF743FA40212920FFF73FFA10BDC7
:1021A00002217F20FFF73AFA4621F5E7575F00004A
:1021B000F73300008E150020051B00000000F43FDF
:1021C00050000020000024405D0C0010315400003D
:1021D000280000209D2C000063050000480000201E
:1021E00002217F20FFF71AFA4421D5E702217F2040
:1021F000FFF714FA4221CFE710B504467A48006889
:10220000093003F01EFC1021784B224657309847C6
:1022100010BDF8B50546EFF3108472B6744E012771
:102220003F03724B39460020326898470121714ABA
:10223000002090476C480068093003F002FC3168C8
:10224000102257314018294603F0CAFB0023694D7C
:1022500039461846F63D3268A84784F31088F8BD21
:1022600065490A69D208D2000A61401E486100200F
:10227000886108690122104308610869C003FCD520
:102280007047F0B500260B460446012597B030464E
:1022900031462D03675C491CBE19A942FAD30021BF
:1022A000675C491C7840A942FAD39E422CD19042E7
:1022B0002AD14D4E3068093003F0C3FB4B4B6A46C0
:1022C000572198473068093003F0BBFB00195722AB
:1022D000694603F085FB30680D3003F0B2FB4749D7
:1022E000001909680722083103F07AFB0121414AED
:1022F00000209047224600233E4C29461846F63CD3
:10230000A047012017B06DE50020FBE770B501255F
:102310002D030446354B3A4A29460020984739494F
:1023200020468847304800680D3003F08AFB344966
:102330000722401831490968083103F051FBEFF3D7
:10234000108472B601212B4A0020904729460023B1
:10235000284D2B4A1846F63DA84784F3108870BDD7
:10236000F8B504001AD02849684688470098002824
:1023700016D01F4D012109031C4B00202A689847E5
:10238000194F3868093003F05CFB29686731405CFD
:10239000401CC6B2032E05D90220F8BD0120F8BDAD
:1023A0000420F8BD0320800384430098A04201D19B
:1023B0000020F8BDEFF3108472B601210D4A002011
:1023C00090473868093003F03CFB296800236731E7
:1023D00046542A680121074D09031846F63DA847CF
:1023E00084F310880320F8BD4C0000208F160000F5
:1023F000800000209F18000000E000E05000002056
:10240000500500204B570000C12C0000FE490A79FE
:10241000002A00D008707047F8B5FB4C6369597901
:10242000002915D0B121C95CC91F092956D8014618
:1024300018461022D93003F0D3FAE07800250221A3
:102440000128606905D04279D2060FD5EF48804750
:10245000F8BDCA22125C012AFAD1C279012A01D13F
:10246000C57137E0002AF3D1C171F8BDC279012AE4
:10247000F8D1CA21095C01292AD1E06980260178B6
:1024800001208840216A0968884300D181260027FD
:10249000DF4880476169C919E0317F1CFFB2487687
:1024A000102FF5D3606933460146E93102460091A9
:1024B000FF31F9321131D74EFF305A30B047E06961
:1024C0000078142803D261690120C87101E06069B5
:1024D000C5716069D049E9308847F8BDCB4B062209
:1024E000002101208C3B9847F8BDF1B5C64CA4B043
:1024F0006069417900292BD0CA210A5C2146C64F68
:1025000049691C370025E931012A23D006460246D5
:10251000713609320491711E531E0196BE4E02930C
:102520000392CA33C23200917A36FF300A302499BE
:10253000B047616910220846D930E93103F074FAD6
:1025400000287CD0B14B0422002101208C3B98470D
:1025500025B0F0BD0C950D950E950F951195129522
:102560001395149542790126D206002A03DBA64A68
:102570001379002B7ED0F930B847A34C207900287E
:1025800022D01DA8019500906369A44F184601460A
:10259000FF30FF31FA305A31F933249AB8471DA879
:1025A000013003F04EFA18A9097D000208439C4946
:1025B00003F0ECF90422019111049A4F01AB0020C1
:1025C000B847207800287DD067690722394609314D
:1025D00015A803F005FA39460722713117A803F050
:1025E000FFF9387A002810A86DD086767020C05D7B
:1025F000002818A868D0867004A83A460190F932DD
:102600001046844E15ADC03017AB00954636249960
:10261000B0476069102204A9813003F0E1F908AEE7
:102620000FCE19AE0FC6616903220E4621A8D33121
:1026300003F0D6F903223146CC3122A800E073E042
:1026400003F0CEF93046FF30EA30039017AF21A9EE
:102650006846A2C03146714EF93111AB19A86A3EE5
:10266000249AB047626922A91046FF30DA300CABD9
:10267000019700E00AE000910390029519A8F93251
:102680002499B04768490020884761E75E4A34468C
:10269000D2698023127894405B4A126A126894438C
:1026A00000D1812300910146FF315A31594CFF304E
:1026B000FA30249AA0475448102240690146E93173
:1026C000D93002E025E02BE02CE003F0ADF9002842
:1026D00001D004221EE04C4C6069F930B847E06933
:1026E0000178491CC9B201701429CED3216A086847
:1026F000020C08A8827410A882710888020A08A82F
:10270000427410A84271097808A8017410A80171D8
:1027100033E70C223D4B002101208C3B984717E703
:10272000857663E7857067E760690026F930B8470A
:102730006369384F1946FF330A33363F1846F9317B
:10274000249AB847606910230146A03106E01718A3
:102750003246FF320A32761CBD54F6B24A7C9F1ACA
:10276000B742F4DC30490020884760694179490864
:1027700049004171ECE6F0B50446C07885B0072801
:1027800007D2224B0622002101208C3B984705B03E
:10279000F0BD1D4E01217069CB2211540025062287
:1027A0002146CC3003F01CF9112071694001081852
:1027B000A0314E7CC17E827F437F04920A07D20FF4
:1027C000009203934A07CF06D30FFF0F02968A07A2
:1027D00001970E4E920F817E407E643EB047A078F6
:1027E00010260007002843DA074A112150694901E1
:1027F0004718FB7E19073BD50121CA2211545A07FD
:1028000015D4A278520711E03C0000205DA1000021
:102810004D250000B3AA000055A90000FFAB000041
:1028200040420F0031540000F73300000ED57B7E8C
:1028300022789D005B19FE4D5B19D55C882D02D076
:10284000102D03D005E0FB4A117102E041793143BC
:1028500041714179C90634D50B21C9014018C07DA9
:1028600001282ED16421F54BF34A0520984728E032
:10287000F04F00217869CA221154112149014118F1
:10288000CA7E520702D4A278520709D5497E22781F
:102890008B00C918E64B193BC918555C102D02D1A5
:1028A000417931434171E44AE44B943AE4490020D0
:1028B00098476079C00704D0786903228179114371
:1028C0008171607980070BD5DA481121406949018F
:1028D0004118897F890703D581790C2211438171C1
:1028E000207980070BD5D34811214069490141184F
:1028F000497F890703D54179802211434171CD4831
:1029000041690846A0304674E278102A00D2427429
:10291000487901221043CB4C4871202D08D0402D1E
:1029200000D034E700231A4640210020A0472EE7BC
:1029300000231A462021F8E770B5BE4C0D466369A6
:10294000002825D0A0690C2181711946FF31202271
:102950005A31C01D03F044F86169A069FF3120229B
:1029600027307A3103F03CF80621B74A41209047DE
:102970000B216069C9014118C97D002907D140793F
:10298000C00602D42079012801D1AB48804770BD30
:102990001846FF302022FA3003F022F82022AB4BF9
:1029A0006069A9180E46C01803F01AF86369A84CAC
:1029B0001846FF309A30FF3332462946BA33A047D3
:1029C00029460120FFF7B8FF70BDF0B5994C0646C7
:1029D000606985B04179C9072AD0FF3010210A30DB
:1029E00003F017F86069320AC11DF9314E728A721C
:1029F000320CCA72320E0A73CA21095C0125012900
:102A000018D00346064601460933E9365A1E71318D
:102A100001AF4EC7491E0091C933C33289318D4E73
:102A2000FF300A30B0476069C17902292FD00BE02E
:102A30000020ACE6206A00210660E2698023117064
:102A40006269D179022904D06069C17900292AD04C
:102A50002AE000682946814300D18123E1680020F3
:102A600040314E7D1718E037401CC0B27E761028EA
:102A7000F7D36069774E0146E93102460091FF3194
:102A8000F9321131E436FF305A30B047CBE77149A3
:102A90007A39E93088476069CA21095C012902D086
:102AA0000021C17100E0C571012070E6F8B5614CEC
:102AB000694F6169CA19517B127B09021143009168
:102AC00002F064FF0646A0780D46002826D0634930
:102AD00008208847002804D0604902208847002841
:102AE0000CD06069C119487B097B00020843C01CF7
:102AF000704384B2002D1AD0601916E06069C119C4
:102B0000487B0A7B0102A06C1143C21C89187143E7
:102B10008CB2002D0BD02818001906E00098C01CBC
:102B2000704384B2002D02D06018C01C84B24C489F
:102B30008047A04201D20020F8BD0120F8BD70B549
:102B40000546D01D14460E4680B2FFF7AFFF0028A1
:102B500010D038481B2180692A0A8171C571027220
:102B600022463146093002F03BFFE41C364AA0B24F
:102B70000421904770BD70B50546D01D14460E4621
:102B800080B2FFF793FF002810D02A481D218069EA
:102B90002A0A8171C571027222463146093002F05B
:102BA0001FFFE41C284AA0B20421904770BDF7B56E
:102BB000204E294970690024091F2546401802F05B
:102BC00040FFB26911219171837846781B0233432B
:102BD000009E421C0146B34258D3019EB34255D8D1
:102BE0000E79CF783302029E3B43B3424ED10B782D
:102BF000172B55D00F4E0623B669F371577813780B
:102C00003F021F43062363439E1937723F0A7772C0
:102C10005679177936023E43064FBF69DF19BE72F7
:102C2000360AFE72034ECF79B6699E19377319E0E2
:102C3000176B00103C0000205DA10000D3330000A2
:102C4000B80B000031540000ED7F000019020000B5
:102C5000EF2A0000CFA90000610300006994000082
:102C600043600000F74F0E7ABF69AD1DDB195E733C
:102C7000F44BF54E5B69ADB29E19737C367C1B023A
:102C8000641C3343AE1DE4B2B34225D353791679A5
:102C90001A02EE4B32439A421ED00178081893E78D
:102CA000002C1BD1E74814238069C91DC3715478D7
:102CB00016782302334303721B0A43725379147943
:102CC0001A0222438272120AC27210220C3002F0DF
:102CD00087FE1435ADB201E0002C05D0AD1CDC4AF6
:102CE000A8B204219047FEBD0A22DA4B10200099B9
:102CF0009847FEBDF7B5D34ED749706900252C46DD
:102D0000401802F09EFEB16909228A7183784678E4
:102D10001B023343009E421C0146B34232D3019E44
:102D2000B3422FD80E79CF783302029E3B43B34291
:102D300028D10B78172B2FD0C24E0423B669241D3F
:102D4000F371577813783F021F43AB009E19377217
:102D50003F0A7772BB4ECF79B669A4B29E19B7729B
:102D6000B84F0E7ABF696D1CDB19DE72B54BB64EDB
:102D70005B69EDB29E19737C367C1B023343261DC2
:102D8000B3421ED3537916791A02B04B32439A429A
:102D900017D001780818B9E7002D14D1A9481222DC
:102DA0008069C2718B784D781A022A430272120A26
:102DB000427210220A30C91D02F012FE1234A4B26F
:102DC00001E0002D05D0A41CA14AA0B20421904727
:102DD000FEBD0A229F4B082000999847FEBDF7B51B
:102DE000984E9D497069002508312C46401802F024
:102DF00028FEB26909219171837846781B0233431A
:102E0000009E421C0146B34242D3019EB3423FD8CA
:102E10000E79CF783302029E3B43B34238D10B7810
:102E2000182B3FD0874E0723B669E41DF3715778FE
:102E300013783F021F43EB005B1B9E1937723F0A5A
:102E40007772804E4F79B669A4B29E19B772CE7967
:102E50008F7936023E437B4F6D1CBF69EDB2DF199F
:102E6000FE72360A3E73774E0F7AB6699E197773F3
:102E7000744F4E7ABF69DB199E73724B724E5B6959
:102E80009E19737C367C1B023343E61DB34227D365
:102E9000537816781A026D4B32439A4220D001784B
:102EA0000818A9E7002D1DD1664815228069C27156
:102EB0008A784B7812021A430272120A42724A79D5
:102EC0008272CA798B7912021A43C272120A027391
:102ED00010220D30083102F083FD1534A4B201E058
:102EE000002D05D0A41C5A4AA0B204219047FEBD73
:102EF0000A22584B082000999847FEBDF7B5514E5D
:102F000055498AB07069083109900025401802F0CF
:102F100098FD0446B6690920B0710720F071277842
:102F20002046182F77D0417A207A09020143A378EE
:102F300060781B0203430A9883426BD30B98834249
:102F400068D80C98814265D1434909980C314018E2
:102F500002F077FD0190E079A179000208430C218D
:102F60002F464F43B9190872000A487235480021AC
:102F7000806A3A4B0170E079A279000210436A46F8
:102F80009081D1810A3202A998470822314ED1019D
:102F9000002002ABA436B0472A48806A0078012896
:102FA0003CD0E079A379294A01021943019EF078C7
:102FB000B3780002184388426DD13079400604D5B9
:102FC000244820388047002836D03079810606D53D
:102FD000C0062049C00E1039884700282ED0E0795D
:102FE000A179000208431D4A0221343A9047002883
:102FF00036D030793178C00970783BD00002084370
:103000001538C4B20F483146806922463818153148
:1030100039E000E052E0417D207D86E7094CE06A1E
:10302000216B0678A069324638180A3002F0D8FCC5
:10303000A069B61CC67137E0052200E00C220A998F
:1030400013E000003C00002063050000FFFF0000CB
:10305000ED7F00008D5300005D030000F93E00008D
:10306000A0786278010211430222F94B08209847A8
:103070000DB0F0BD00020843C01FC4B2F54822469F
:1030800080693818F11D0A3002F0AAFCF148A41C2E
:103090008069C47108E0904206D0707833780002ED
:1030A00018438019019081E76D1C0CD0E948042178
:1030B0008069E94AC079801C9047D9E7E748834294
:1030C00001D03C192BE70A22B9E710B5062912D026
:1030D000417C037C0A0241781A430B020478C178D0
:1030E00080780902234301438B4207D90122194604
:1030F0000820D74B24E041790379EBE70520C00293
:10310000824202D0401C824203D11846FFF7F2FDF2
:1031100010BDD348824203D11846CD4B18330FE07F
:10312000CF48401C824203D11846FFF758FE10BD1D
:10313000100A2928184602D0FFF7E0FE10BDC94B3F
:10314000984710BDF0B5C34C0746A07885B00D4632
:1031500000287DD0C44E0820B047002879D0022036
:10316000B047002875D1EFF31080049072B6A06CC0
:103170002818801C86B2BD4880470100BC4803D097
:10318000E168C978C90708D08047002875D1B748D9
:1031900010308047761CB0426FD3AE48AD49801DD9
:1031A0000770B44800900822673101A802F018FCAB
:1031B00063690022B2330299019801F031FF022FB6
:1031C00002D0012F0BD016E00120E071206D042207
:1031D0004119A048891C4C3002F002FC0BE0E07958
:1031E000012806D19B49206D04224C31801C02F03D
:1031F000F7FB0020E071206DA16C9F4E801C0291B6
:10320000039601950090934A60696389921D9949DC
:10321000BA3001F050FEA06C711C2A18206D801C81
:1032200002F0DEFB8B4C6734201D02F00AFC237891
:10323000E2781946637812061B021943A378C00985
:103240001B04194311432279C0015206520E01E0BA
:1032500012E012E0491C00235A415206520E10435C
:1032600021700A0A62700A0CA270090EE1702071C6
:10327000049880F31088012017E4002015E47548B5
:10328000C1680A466032907E927EC007C00FD207A6
:10329000D20F603105E0887E8A7EC007C00FD2075A
:1032A000D20F9042F7D1704710B56A484069017C4F
:1032B000C27B08021043072807D8FFF7E0FF002869
:1032C00004D0FFF7DCFF0128FBD010BDFFF7D7FFCC
:1032D0000028FBD0FFF7D3FF0128FBD010BD10B5AD
:1032E0005C48C168084622304279037912021A43C9
:1032F000624B9A4214D9DC43121903711B0A4371C1
:10330000FF2320310B72FA2A0AD951015C4BD200FB
:10331000C91889187D221201891A0175090A417597
:1033200010BDF0B400285BD048780A780702174334
:10333000484A15269469534DE01C631C1B2FA67048
:1033400041D9CC788E78240234431C71240A5C71F4
:10335000CC798E79240234431C72240A5C729378EF
:103360000C78002B4B7805D01B022343F92B12D984
:10337000F92104E01B022343302B0CD930210170CA
:103380000B0A437001710B0A4371506940190173B4
:10339000090A417312E05269521913731B0A5373DD
:1033A0004A780B7812021A430270120A42704A7964
:1033B0000B79110219430171090A4171F0BC09210D
:1033C000314A032010471B21017000244470F3246C
:1033D0001C7100265E71017146711C725E72D4E729
:1033E000F0BC7047F0B4002850D01A4A14209369FA
:1033F000987048780D7804022C43DC70240A1C7104
:10340000CC788D7824022C435C71240A9C714C7911
:103410000D7924022C43DC71D81C240A4471CC7928
:103420008D7924022C435C72240A9C729578154C89
:103430005B1C002D42D04D790E792D023543F92DBC
:1034400028D9F9210171002343710170437041E0D3
:103450008D5300003C000020ED7F0000FFFF0000C6
:10346000022800008742000069940000ED3400004B
:10347000DD340000A0150020B41600203E06000038
:10348000C0E0FFFF61030000958C0000F0BC00224B
:10349000012046E705712D0A4571C8788D78000234
:1034A00028431871000A58714879097900020843C5
:1034B000516909190873000A487324E04B780D78A4
:1034C0001B022B43302B0BD930210170002343709A
:1034D00001714371506900190173090A417312E0C7
:1034E0005269121913731B0A53734A780B7812022C
:1034F0001A430270120A42704A790B791102194379
:103500000171090A4171F0BC0921F84A03201047F2
:1035100010B507E0435C845C4454491C8354521E3C
:10352000C9B2D2B29142F5D310BDF8B5F04D052025
:10353000A969EE4A8870012103209047A8780028E5
:103540002DD068690F220021BA30FFF7E1FF6869CA
:1035500007220021B230FFF7DBFF2E466736301D11
:1035600002F06FFA002434707470C009B470C001A6
:10357000F470307146062F465F37760E381D02F024
:1035800060FA3C70210A7970210CC009B970C00141
:10359000210E3043F9703871A878002806D1696986
:1035A00002220846D34BBA30B23198477D214901F7
:1035B000D24BD14A03209847CF4908204839884741
:1035C000F8BDF8B50546CE4908208847C84C0B2001
:1035D0006169C0010818807E01282FD10026374676
:1035E00001E0042E04D260698019A030877406E0DF
:1035F000C0480A38804761698919A0318874761CEF
:10360000F6B2082EEDD3BB4F00260A3F01E0082E8C
:1036100001D2002000E0B84761698919A031761C09
:10362000F6B28876102EF2D30026B8476169891960
:10363000E031761CF6B24876102EF6D30B20616985
:10364000C0010918487E042802D005281DD01EE0BC
:10365000A84F00260A3FB84761698919FF318131B7
:10366000761CF6B24876202EF5D36069A54B01464C
:10367000FF31A1310A7EFF305206520E0A760A4609
:10368000273A47399A30984701E00820487661691F
:10369000A0690E46042787700822C01CC231B636C6
:1036A00002F09EF9A069042231460B3002F098F92D
:1036B0000D218E4A032090476069294608220A316D
:1036C000BA3002F08DF96069294604221231B23015
:1036D00002F086F92069C0780328606904D0CA2105
:1036E000095C01290AD019E0817D427D080210435E
:1036F0002A46854B083229469847F8BD4179CA07C2
:103700000CD08279520709D4C90907D1092189014E
:1037100040180078012801D1616A08702A7A7B4E2E
:10372000002A02D1687A00282BD0606901466030F7
:10373000C37D9A420AD16A7A007E824206D108226B
:103740002846793102F070F9002839D06A4B0622F8
:10375000002101200A339847694908200A31884727
:1037600063490120543102F076F961490620543151
:1037700008710B4601210522C904654C0020A047B1
:10378000F8BD6069CA21095C01290BD00246BA3232
:10379000FF3011460A30B047606902224179114377
:1037A000417112E04179024639434171BA32114602
:1037B0008130B04760696030C07B012802D004E0EE
:1037C0006069EFE74E4902208847FFF7AEFEF8BD7B
:1037D000F8B5474CA078002804D101220021454BC0
:1037E00008469847A1690620887001213F4A0320B6
:1037F0009047A07800280CD0464861690818417BA2
:10380000027B09021143F92903D9F921017300212F
:1038100041736069374D417908228B070A3D0027C3
:10382000002B25DA114341710026A84761698919E7
:1038300080314870A84761698A1991218854A03263
:10384000761CF6B25770102EEFD30026A847616998
:1038500089196031761CF6B24876082EF6D3A8474F
:1038600061696031C875A84761696031087614E004
:10387000CA231B5C012B10D183795B070DD5114343
:1038800041710026A84761698A1991218854A032A4
:10389000761CF6B25770102EF4D318490320243149
:1038A0008847174D0820103DA847002803D0144929
:1038B00008200A3188470220A847012815D10B208B
:1038C0006169C0010818407D01280ED12D204001FA
:1038D00009184A79002A21D0012A65D0022A04D188
:1038E000064B89790C4A07209847F8BD958C000053
:1038F0003C00002057250000C1940000D333000095
:1039000055850000C5290000996F0000ABAA000092
:103910003154000061030000FB980000002535E0F1
:103920000A226A4351180A18507C167C0302FF4889
:1039300033430380FE4B4380FE4BCB18597D1B7DE8
:10394000090219438180022181710321C17107722B
:10395000117600235376F84A038813701B0A5370BC
:1039600080889070000AD070117100205071134649
:1039700006220121C903F14EB047EE4A01217B3AEC
:10398000C902EA4B0020B0476D1CEDB20520616909
:10399000C0010A18D27BAA42C2D80B206269012159
:1039A000C00110180175A0E7E26893789B06DB0F51
:1039B000CB719178DF231940917061690818817982
:1039C000017292E704E7F8B504460178401C00292B
:1039D00010D0022976D0032987D1417802780802D5
:1039E000104310286DD0082803D1201DE178FFF77F
:1039F0006CFB7AE74178027808021043062838D039
:103A0000032839D014283BD015283ED0012842D0B5
:103A10000028EED1C848251D5938C16822314A7E98
:103A20000B7E1102194300914069E37A017DC27C4B
:103A30000E021643227B002711021943027CC37B2E
:103A40001002C9001843814200D80127FFF72CFC5F
:103A5000BB4928468847002820D0FFF740FCB648DD
:103A60005938C0682230417902790902114319D0CE
:103A70001DE0FFF7ADFE38E7201DFFF7A2FD34E79C
:103A8000211D0020FFF7AEFC2FE70021221D084674
:103A9000FFF747FC29E7FFF707FC26E7A94928209D
:103AA000884709E0009989000175090A4175002FCE
:103AB00002D00673310A4173201DFEF79BF914E70B
:103AC00000E02FE04178027808021043012818D066
:103AD00003281AD004281CD00C281ED0052888D111
:103AE00095490220491F01F0B6FF93492079491FEB
:103AF00008710B4601210522C904904C0020A04703
:103B0000F3E6201DFEF737FEEFE6201DFEF784FCEE
:103B1000EBE6201DFEF7E9FCE7E6211D0020FEF79D
:103B20000BFFE2E6E078231D062814D0587C197CB0
:103B300002020A435878197800020843D9789B7822
:103B400009021943884209D901467C4B0122102001
:103B5000A43B9847C9E658791979E9E7FFF727F8B0
:103B6000C3E610B50178042905D1827843781102A3
:103B70001943022902D0FFF726FF10BD41790079D1
:103B8000FFF7E0FA0028F8D0FCF7A4FA10BD30B532
:103B900087B06D480090801E019000246846048123
:103BA00044810621018241822F2181812721C18107
:103BB00002258582C4826548069065496846884723
:103BC0005D485938416B0A682A430A60816B0A686C
:103BD0002A430A60C4700471047007B030BD70B528
:103BE000554C0D46593C002828D05A4DA84700286E
:103BF000FCD0594880475948804756490120083928
:103C00008847A069022181701321C1700221544AA2
:103C1000032090475349042088476069017DC27C96
:103C2000080210430A2101F0B1FE0A21401E41435F
:103C3000494B01204C4AEE3B984770BDE06820217B
:103C4000417041788906FCD544480C3880473D498D
:103C50002878884770BD434910B50120103988473E
:103C6000002804D000210120FFF7B9FF10BD35491D
:103C70001320884710BDFEB5002168460170017110
:103C80000D462B4E01217F20A536B047284C0A2037
:103C900069468334A04768460078010909016846EF
:103CA0000170022001430A20B04701A90A20A04761
:103CB00068460079400704D56D1CEDB2FA2DF4D1A9
:103CC00008E0FA2D06D001A90A20A047684600792D
:103CD0004007F8D5684601780A20B0470020401C0C
:103CE00080B2FA28FBD301A90A20A04768460079D0
:103CF000000701D40120FEBD0020FEBD70B50546C1
:103D00000024FFF7B8FF01283AD10020FDF758FC46
:103D100016480169C908C9000161072141610021F4
:103D20008161016901221143016121E0B81700207E
:103D3000022900008202000095000020315400009A
:103D4000E52000006F9000001B800100633B001025
:103D5000936000002B1B0000C1340000FF25000011
:103D6000958C0000558500008D94000000E000E077
:103D70000169C903D9D5002D01D1FDF74CFC0124FF
:103D8000204670BD10B5FE49FE4C49690028887078
:103D900013D001281FD002280ED100217F20A04778
:103DA00000210320A04720210420A04702217F20DA
:103DB000A04703210020A04710BD00217F20A0477D
:103DC00000210320A04720210420A04702217F20BA
:103DD000A0470021EEE700217F20A0471F210320FC
:103DE000A04702217F20A04701210020A0470021F9
:103DF0007F20A0473F210420DDE710B5012802D035
:103E000002280ED01BE0487A0C7A00022043C0073B
:103E100015D048790979000208431946FEF78FFE4C
:103E200010BD487A0C7A00022043800707D54879F4
:103E30000979000208431946FEF79DFE10BD0020D7
:103E400010BD70B5CE4CE068817EFD2211408176B8
:103E50006069CD4D837F427F203041780078090230
:103E600001430120A847E06881784906C90F6171C4
:103E70008178BF221140817070BD10B5C04CE068E0
:103E8000817E022211438176BF4834308047E0684A
:103E90008178BF2211406279D207520E114381709E
:103EA00010BDF0B51746B64A0446D0681E460D460A
:103EB000C37885B000211B0702D5002005B0F0BDF6
:103EC00000BF491C89B26429FAD34030417C89077C
:103ED000FCD4AB4841692D2040010818C07A012864
:103EE00004D1FF210531204601F093FDA00707D141
:103EF000A3482D21426949015118897A01291DD011
:103F00009F4B0020D968C0310A792254401C80B2EE
:103F10000228F9D39A488078002808D09B490820C5
:103F20008847002803D096482178801D01702078AA
:103F300080066078288034D5012033E0C1680846C7
:103F4000E030427B037B12021A43837B1B041A433B
:103F5000920C9204A3039B0B1A430273130A43733C
:103F6000120C82734822525CC37B5206520EDB094C
:103F7000DB011343C373027A520852000272027AC1
:103F800002231A430272E031087A8007FCD42078B9
:103F900080066078288001D5012000E0002038707C
:103FA00012E0002076493870CA680020C032A41C94
:103FB00003E013792354401C80B22B888342F8D845
:103FC000C8680122C030427228886D4F801C28804A
:103FD000B87800280AD06D4908208847002853D0B7
:103FE0006A4902208847002809D04DE0F86840302F
:103FF000417C890748D4407CC007C00F45E02A882F
:1040000021466348921E01F0EBFC62485C49009037
:1040100008225F3101A801F0E3FC7B690122B23381
:104020000299019800F0FCFF5548801D017889072E
:10403000890F01702888BA6C55490292801E009140
:1040400001904F4A78697B89921D5249BA3000F03D
:10405000B7FFC0B2307001280ED128884C49BA6C25
:10406000009101AB801E15C3454A78697B89921D7A
:104070004849BA3000F058FF2888B96C401A2880A7
:10408000801EA41E607001E001203070012015E741
:10409000F0B54048002687B0183005906846068283
:1040A0000672067300273C490120884700283B48D8
:1040B00003AB02AA04A90FD0FFF7F3FE00280FD12B
:1040C0002F48C068C078C0067AD502AA04A9334830
:1040D00000F060FB012703E0314CA04700286FD0BF
:1040E000274D2869C278032A03D1E86B007801289C
:1040F000D4D06846007A012801D1002F07D0274C80
:10410000207886460007000F05285BD05CE01F4F33
:10411000224C0820B84700282DD00220B84700289C
:1041200029D16846007B002847D0A878002822D0F3
:10413000134D5F35281D01F084FC2B78C10918460A
:104140006B78EA781B021843AB7812061B041843FD
:1041500010432A79C9015206520E401C00235A41CD
:104160005206520E11432870020A6A70020CAA709D
:10417000000EE8702971204600F03AFB002812E09A
:104180003C000020A7290000D91B00006994000012
:10419000B4160020A015002045850000B0150020B1
:1041A000B12700000CE000D178E76846008AF94AA0
:1041B000801EC1B2F648904770E7F7493D20884716
:1041C00007B0F0BD002F03D07146090721D055E09C
:1041D000208B062802D3A08B0A2802D21220EE4997
:1041E00041E0EE49A01C8847FFF779F8EC4802222D
:1041F000017F11430177EB4880472078702140060A
:10420000C20F68690A540622A11C713001F0E8FB54
:1042100044E76969CB7D022B10D0002360314F7BCE
:104220008C463946012F00D000273B4326D0032A75
:1042300006D06046007A012817D040E00123EDE760
:10424000059900916946098AD74F0839CBB2714662
:104250004906C90FA21CB84768696030007A012876
:10426000A2D1D249A01C884718E7012903D0CF4921
:10427000A01C884723E0A01CCD49FAE7032893D06F
:10428000042891D16969CB7D022B0AD000236031CB
:10429000497B012900D000210B4385D0032A02D09D
:1042A0000DE00123F3E7059900916946098ABE4DA7
:1042B000891FCBB271464906C90FA21CA8470598B1
:1042C000009001966846008AA21C0838C3B2207884
:1042D000B64C41060007C90F000F6834A047DDE661
:1042E00070B5FFB0B34985B00420884700280BD0D3
:1042F000B04904201A318847AF488047A6491620A4
:1043000088477FB005B070BDAC48804700250028C5
:104310000FD0AB4C606941790A075FD58279D3072A
:104320001ED0A849813088476069817949084900D1
:104330003BE068460580A14D9F4E9A4C86359236EB
:10434000283C09E0694601A8A8470028D9D068465A
:104350000088C1B201A8B047A0470028F2D0D0E73A
:10436000930709D5974A014679311C327730904737
:104370006069FD22817908E0530708D591496031D1
:10438000913088476069FB22817911400DE0120766
:10439000F725002A0BDA027A01461046894A0931CC
:1043A000423290476069817929408171A9E72940AB
:1043B0004171034677333A221021834D0020A847EC
:1043C00009216069890141180978012999D1407949
:1043D000C00996D1616A0120087092E7E16B097803
:1043E00000298ED1216C097801298AD1817D427DF5
:1043F00008021043754A01219047206C057080E740
:10440000F0B585B000266E4C009601960296039694
:104410006069017A01292ED1817B890901292AD17C
:1044200010226946913001F0FFFA002823D00025C0
:1044300004AF6148C238804778556D1CEDB2032D3A
:10444000F7D36946887C40214006400E0843694600
:10445000887460690621093001F0DBFA6069032283
:1044600004A90C3001F0BCFA6269594B1046913036
:1044700004A909329847267120E570B5504EF068BE
:1044800044784470504DE00706D0FFF729FF002321
:1044900001211A460846A847A00706D5FFF7F8FDF0
:1044A000002302211A460120A847600706D5494883
:1044B0008047002304211A460120A847200707D57A
:1044C0004448BC308047002308211A460120A847F1
:1044D000E00610D5F0682030407D2F49400701D517
:1044E0003E2000E008208847002310211A460120C2
:1044F000A847FFF785FFA0060CD500F0CFF90023F1
:1045000020211A460120A8470023FF211A46013125
:104510001846A847600611D526490120884700287B
:1045200007D070696030807B012802D1F1680720D4
:104530004875002340211A460120A847E00904D00D
:10454000002380211A460120A84770BD38B5224CAF
:104550000120A0470021214D7F20A8471F4A3B2072
:104560006946223A904768460178FB200140684638
:1045700001703B20A8470F48943080470020A04797
:1045800038BD174909788906890F01707047000006
:10459000B01500203F9C00006F900000CB1D000074
:1045A000200001505F1B0000CB6F0000155C000075
:1045B000995D0000458500000F260000ED340000E5
:1045C0003C0000207BA60000315400004F6E00002C
:1045D00095A90000C18D0000692D0000A7290000E9
:1045E00000100050D74949780170CFE7F8B5D64E92
:1045F000D64C054603280DD300217F20A047D821A3
:104600001120A0471D213A20A0477078FB210840C7
:1046100070700CE0707804210843707000217F20D6
:10462000A047D8211120A04719213A20A047C74A06
:104630003F206946223A9047694608782B00800659
:10464000800E087001F0F1FD060A06040A06040A4D
:10465000802100E0402108436946087009783F2026
:10466000A047B84840694570F8BD10B50446FFF74B
:10467000BDFFB448447010BD70B5B24D01210903AF
:10468000B34B00206A6C984728690446093001F052
:10469000D8F9696C40180578012D01D9002070BD4A
:1046A000E07800280DD020462D3001F0CAF90646EA
:1046B0002046313001F0C5F90246964212D2911BD4
:1046C00007E02046253001F0BCF906462046293097
:1046D000F0E7002D08D0304609039E4A090E9047A6
:1046E000012070BDB11AF4E71046F5E7F8B5954C16
:1046F0002D21E268656949016E1813461146203381
:10470000603101281FD16F1CBC46A87C6F7C000261
:10471000384318D090482C18607E247E0002204335
:1047200022321075000A50756046427C047C1002EB
:1047300020431873000A5873C87D10221043C875AF
:1047400001207072F8BD2D27707A7F010128F9D100
:10475000307B002500280CD01D73280A5873C87DB3
:1047600010231843C875757290790221084390711F
:10477000F8BD00F0B5F8E068014620310D732A0A53
:104780004A736030C17D10221143C1756069C01940
:104790004572F8BD70B56B4C0023E568C0352E7DC1
:1047A000C6545B1CDBB2022BF9D3037801259B06B0
:1047B000002B43780B8001DA157001E000231370A1
:1047C000E3680022801CC03303E01E7D8654521C27
:1047D000D2B20E889642F8D8B0B2801C0880E06849
:1047E000D9210D540179022211430171012070BDBC
:1047F00010B5017800228B079B0F5249012B37D04F
:10480000022B0AD0032B31D1817818292DD8534B94
:104810004078595C884228D028E04378042B09D995
:10482000C37884781B02234301246402A34201D885
:10483000012300E000230B72002B17D0417902798D
:1048400009021143052910D006290ED1C1788278BA
:10485000090211438079414A40001A3280184038D9
:10486000C08F814201D0002200E00122104610BD1D
:104870000A7A002AF7D04969394A40788B185A7B5E
:104880001B7B12021A43364B9B1ECB18597C1B7C98
:1048900009021943511A8142E7DAE4E710B53149B8
:1048A00001208847002815D02648416960314A7B9D
:1048B000012A05D1C268603213780824234313709B
:1048C000897B012906D1C068017C40221143017413
:1048D00000214175244880472348C430804710BDDB
:1048E00070B5184CE0682030417802780D02417EA6
:1048F0001543027E0E021643AE4208D861698A7CD7
:104900004B7C1102194349190176090A4176FEF7D9
:10491000B6FC00280DD0FEF7B2FC0128FBD0AE4259
:1049200005D8E0682030817802221143817001208F
:1049300070BDFEF7A4FC0028FBD0FEF7A0FC012808
:10494000FBD0ECE73C00002000100050A72900003D
:104950008F1600009F18000083050000306B0010C8
:104960006303000045850000498F0000644800682B
:104970004078032801D80120704700207047FFB518
:104980000E4600218C465E4981B009681D46497873
:10499000032900D9FEE7062871D25A494A785A4BB2
:1049A0005207D20F12010978D2188906890F89009F
:1049B00051588E46EFF31081009172B62A06514C81
:1049C00004216034002A07DB277E2A46FB233D466C
:1049D0001A400D4015432576F20703D0A27E02232C
:1049E0001A43A276B20703D5A27E01231A43A27608
:1049F000444A8032F30702D09378DB09FAD0B20739
:104A000004D5404A803292789206F8D5002814D016
:104A1000012812D0022821D003281FD0E27E0123D2
:104A20001A43E276E27EFD231A40E276374A1369A2
:104A30000B43136104281FD01AE0344A13698B43D7
:104A40001361A27E002801D0F72313E008231A4344
:104A5000A276039A0023002A18D111E0E27E5208C0
:104A60005200E276294A13690B431361022803D0EE
:104A7000A27EFB231A40EBE7A27E0A43E8E73DE073
:104A8000234AD27A002A12D0002810D0012084466E
:104A90002048720705D50169C908C90001610921CB
:104AA00003E00269D208D2000261416183617007AC
:104AB000C20F6146704601F069FBB00703D5A07EC6
:104AC00040084000A076F0070BD0A07EFD210840F2
:104AD000A0760C48803001E0F10702D08178C90946
:104AE000FAD108488030B10702D581788906FAD416
:104AF000280600D42776009880F3108805B0F0BD12
:104B0000AC00002000100050686B001000ED00E0C9
:104B100000AA022000E000E0F8B50F460646154660
:104B20001C461021184600F074FF012168460170F0
:104B300021700D223946601C00F052FF2902280A1C
:104B40000143684601800078A07368464078E073AE
:104B50003146204600F0F7FEF8BDFFB589B01D468E
:104B60000F46139E00F07BFA0024029403940494F1
:104B7000684605940470002D01D0012000E000205B
:104B800081011498801EC20F10184010C0004018F8
:104B90006946401C08700872394602AF0D22781C25
:104BA00000F01EFFB0B20202000A024369460A800A
:104BB000CA8202A9099800F058FA002D3DD0A9B286
:104BC0000802090A08430294039404946946059470
:104BD000088008810E2D01D90E2200E02A46B81C5B
:104BE0000B9900F0FDFE0E2D01D90E2700E02F4697
:104BF0000E2D1ED90E202D1A099802A91BD000F0E7
:104C000034FA0294039404940594102D01D91022CF
:104C100000E02A460B98C11902A800F0E1FE102D11
:104C200001D9102000E02846C719102D01D9102005
:104C3000E1E72846DFE700F018FA002E24D00294BE
:104C40000394049400250594029403940494059419
:104C5000102E01D9102200E032461298411902A804
:104C600000F0BEFE102E01D9102000E0304645199C
:104C7000102E01D9102000E03046361A02A90998FA
:104C800000F0F3F9002EDFD102A9149A159800F074
:104C9000A7FE14980DB0F0BDFFB589B01C46139D5A
:104CA00000F0DDF900260296039604966846059604
:104CB0000670002C01D0012000E000208101149832
:104CC000801EC20F10184010C00040186A46401CD9
:104CD0001070107202A80D2201300A9900F080FEB7
:104CE000A8B20102000A01436A461180D18202A9DA
:104CF000099800F0BAF9002C3ED0A0B20102000AD7
:104D00000143029603960496684605960180018148
:104D10000E2C01D90E2200E0224602A802300B9987
:104D200000F05EFE0E2C01D90E2700E027460E2C67
:104D30001ED90E20241A099802A91BD000F095F95B
:104D40000296039604960596102C01D9102200E0D5
:104D500022460B98C11902A800F042FE102C01D97E
:104D6000102000E02046C719102C01D91020E1E7DF
:104D70002046DFE700F079F9002D32D000200290C4
:104D8000039004902C46064601270590BAB202AB68
:104D90000A990998FFF7C0FE00203118A94203D3F1
:104DA000002102AA115406E002AA135C129A515C77
:104DB0004B4002A90B54401C1028EED37F1C102C32
:104DC00001D9102000E020468619102C01D91020AE
:104DD00000E02046241A02A9099800F046F9002CA8
:104DE000D4D102A9149A159800F0FAFD149851E74D
:104DF000FFB5002585B01F461C4601262BE06B46FB
:104E0000324606990598FFF787FE00202918B94217
:104E100009D2079B6A46125C595C4A4069460A54AB
:104E2000401C1028F2DB102C01D9102200E0224691
:104E30000E986946401900F0D3FD102C01D91020BE
:104E400000E020464519102C01D9102000E0204632
:104E5000241A761CB6B2002CD1D1284609B0F0BD78
:104E6000FFB585B000261C460B4607460096019606
:104E70000296012168460396017401700D221946BD
:104E80006D46401C00F0ACFD68460682C68139467E
:104E900000F059FD002005E0079A295C125C5140A2
:104EA0002954401CA042F7DB224669460E9800F0C8
:104EB00097FD2046D2E7FFB589B0159D1C461A46DE
:104EC0002846149F139E0B9900F08AFD04A912989E
:104ED0006A460391C1C209A807C82346FFF73DFEF1
:104EE000002801DBB84202D00020C043D2E62819D6
:104EF00000903346129A0A990998FFF779FF002823
:104F000002DA0120C043C5E6A419601900903B46AF
:104F100004AA0A990998FFF7A3FF002802DA0220E1
:104F2000C043B7E62018B5E6FFB58DB017ACA1CCED
:104F3000A84203D20520C04311B0F0BD461B16980D
:104F400004A9009132182B460E990D98FFF788FF9F
:104F5000040001D4AC4202D00020C043ECE7334649
:104F60000097169A0E990D98FFF742FF06000FD092
:104F700008A803900097019602950DA80FC8FFF7A7
:104F8000ECFD002801DBA84205D00220C043D3E796
:104F90000120C043D0E7844202D00320C043CBE7C6
:104FA000002004A908AA07E00B5C155CAB4202D004
:104FB0000420C043C0E7401CA042F5D33046BBE705
:104FC000FFB58DB0189D179804A9169F461B009138
:104FD000F2192B460E990D98FFF742FF040018D4E2
:104FE000AC4216D108A803900097019602950DA82F
:104FF0000FC8FFF751FE00280BDBA84209D18442FD
:1050000007D1002004A908AA06E00B5C155CAB429E
:1050100001D0002090E7401CA042F6DB01208BE786
:1050200070B54906490E049C0E06050A35432070EA
:105030006570050C0E043543A5700D02000E284363
:10504000E070D00101432171002007210A1A2518C0
:10505000401C9A5CC0B26A710828F7D370BD10B5C5
:1050600010210C4800F0D5FC10BD70B50C4601466F
:10507000084A0020235C155C6B402354401C102818
:10508000F8DB204600F05FFC10222146014800F0CA
:10509000A7FC70BDBF190020FCB500228B5C8354B7
:1050A000521C92B2102AF9D301231D012A1811466D
:1050B00020390E7FFF4CB6464E7F0F7CA65D7E40AA
:1050C000FD4FFF5C7E4046558F7F0197E65D4F7C2C
:1050D0007E405670B446CE7F0096A75D8E7C7740AA
:1050E00097707646A45DCE7C7440D4700E7D455D8D
:1050F0006E401671B6464D7D664675405571AC469C
:105100008D7D76467D409571CF7D6740D7710C7E51
:1051100074401472A6464C7E6646744054728E7E6D
:10512000A4466E409672CD7E74467D40D5720F7F48
:1051300067401773497F644661405173019F774010
:105140009773009E5B1C6E409BB2D6730B2BACD347
:10515000FCBDF0B591B00D46044600273901227818
:10516000685C49194240D348825C227023790E79E9
:105170007340C35C2371237A0E7A7340C35C23723D
:10518000237B0E7B7340C35C237363784E7873403C
:105190009C4663794E797340C35C63700593637A70
:1051A0004E7A7340C35C6371637B4E7B7340C35C18
:1051B00063726346C35C6373A3788E7873409E46C4
:1051C000A6798B795E40B446A37A8E7A5E40835D81
:1051D000A3700493A37B8E7B5E40865DA6717346AD
:1051E000C35CA3726646835DA373E37BCE7B73408F
:1051F0009C46E37ACE7A7340C35CE373E379CE795D
:105200007340C35CE372E378C9784B40C15CE171E1
:105210006346C15CE170059B10465840049B0646FE
:105220004B405E40029200F0A7FB21787040414065
:1052300021706078A178484000F09EFB6178704052
:1052400041406170A078E178484000F095FBA1787A
:1052500070404140A170E078029A504000F08CFB11
:10526000E17870404140E170207962790146A3798C
:10527000E679504002467340584006461046029177
:1052800000F07AFB2279014671404A402271607930
:10529000A179484000F070FB6279014671404A40B4
:1052A0006271A079E179484000F066FBA27901467D
:1052B00071404A40A271E0790299484000F05CFBDD
:1052C000E279014671404A40E271207A617A0246F1
:1052D000A37AE67A4840014673405840064608469D
:1052E000029200F049FB227A014671404A40227244
:1052F000607AA17A484000F03FFB627A0146714033
:105300004A406272A07AE17A484000F035FBA27A06
:10531000014671404A40A272E07A029A504000F081
:105320002BFBE27A014671404A40E272207B627BAD
:105330000146A37BE67B5040024673405840064638
:105340001046029100F018FB227B014671404A4052
:105350002273607BA17B484000F00EFB627B01461C
:1053600071404A406273A07BE17B484000F004FB3F
:10537000A27B014671404A40A273E17B02984840FB
:1053800000F0FAFAE27B014671404A407F1CFFB20E
:10539000E273092F00D2E1E63A012178A85C41408E
:1053A0004448415C21701091511923790A79534086
:1053B000C75C27710D97227A0B7A5A40875C277257
:1053C0000997227B0B7B5A40825C2273059262789C
:1053D0004B784E795A4063797340C75C6770637A43
:1053E0004E7ABC467340C75C67710C97637B4E7BFB
:1053F0007340C75C67720897825C62730492A378FB
:105400008A788E795340A2798F7A7240A67A7E404C
:10541000875DA7700E97A67B8F7B7E40875DA77107
:105420000B97C65CA672825CA273E77B9646CA7B2A
:10543000A03557400097E27ACB7A5A40835CE373F9
:10544000E279CF797A40825CE272E778C9784F409E
:10545000C15DE1710A91009FC05DE0702F781099E5
:1054600079402170697867464F406770A9780E9F30
:105470004F40A770E9784840E07028790D9F474079
:10548000277168790C9F47406771A8790B9F474047
:10549000A771E8790A994140E171287A099F47404C
:1054A0002772687A089F47406772A87A4640A672BA
:1054B000E87A03E0886B0010886D00104240E272C9
:1054C000287B059A42402273687B049A42406273AB
:1054D000A87B72464240A273E87B4340E37311B05D
:1054E000F0BDF0B50446027808460D46A0300178BC
:1054F00091B04A402270637841784B4063709E4679
:10550000A37881784B40A3700B93E378C1784B402C
:10551000E3700793217903795940217167794379C1
:105520005F406771A37986797340A3710993E3792A
:10553000C6797340E3710693237A067A7340237227
:105540000E93637A467A734063720293A67A837AE3
:105550005E40A6720596E37AC67A7340E3720493BE
:10556000237B067B734023730D93637B467B7340E1
:1055700063730193A67B837B5E40A6730396E37BF4
:10558000C07B4340E3739C46FA489023825CEB5C0B
:105590005A402270425C294690310B795A40227160
:1055A0000E9BC25C0B7A5A4022720D9BC25C0B7B35
:1055B0005A402273019B4E7BC25C4B785A40029B3F
:1055C000C35C73406373C35D4E7A7340637273460A
:1055D000C35C4E797340637162700B9B8E7BC25CBF
:1055E0008B7A8F785A40099BC35C7340059E865D19
:1055F0007E40A670039E8F79865D7E40A671A27262
:10560000A373079BC25CCB7B5A40069BC35CCE78DE
:105610007340E370049BCE79C35C7340E3716346CF
:10562000C35CC97A4B40E372E27308262078A17804
:10563000484000F0A1F900F09FF907466078E17852
:10564000484000F099F900F097F9217879402170ED
:10565000617841406170A1787940A170E178414062
:10566000E1702079A179484000F086F900F084F9D2
:1056700007466079E179484000F07EF900F07CF956
:105680000146207978402071607948406071A079A6
:105690007840A071E0794840E071207AA17A4840D2
:1056A00000F06AF900F068F90746607AE17A48404C
:1056B00000F062F900F060F9217A79402172617A94
:1056C00041406172A17A7940A172E17A4140E17270
:1056D000207BA17B484000F04FF900F04DF90746D0
:1056E000607BE17B484000F047F900F045F9217B01
:1056F00079402173617B41406173A17B7940A17343
:10570000E17B4140E173207862780146A378E77835
:10571000504002467B40584007461046029100F038
:105720002BF92278014679404A4022706078A178AE
:10573000484000F021F96278014679404A406270A1
:10574000A078E178484000F017F9A2780146794046
:105750004A40A270E0780299484000F00DF9E278E2
:10576000014679404A40E270207962790146A37986
:10577000E779504002467B40584007461046029168
:1057800000F0FAF82279014679404A4022716079A6
:10579000A179484000F0F0F86279014679404A402A
:1057A0006271A079E179484000F0E6F8A2790146FB
:1057B00079404A40A271E0790299484000F0DCF853
:1057C000E279014679404A40E271207A627A0146E4
:1057D000A37AE77A504002467B405840074610467D
:1057E000029100F0C9F8227A014679404A402272BB
:1057F000607AA17A484000F0BFF8627A01467940A9
:105800004A406272A07AE17A484000F0B5F8A27A84
:10581000014679404A40A272E07A0299484000F07D
:10582000ABF8E27A014679404A40E272207B627B23
:105830000146A37BE77B504002467B405840074629
:105840001046029100F098F8227B014679404A40C8
:105850002273607BA17B484000F08EF8627B01469A
:1058600079404A406273A07BE17B484000F084F8B5
:10587000A27B014679404A40A273E17B02984840EE
:1058800000F07AF80146E37B79404B40E3732178DE
:1058900038489E46425C31016B5C49195A4022707F
:1058A00022790B79825C5A402271227A0B7A825CCF
:1058B0005A402272227B0B7B825C5A402273627BAD
:1058C0004B78825C4F7B5A40637AC35C7B40637346
:1058D00063794F7AC35C7B40637263784F79C35CB2
:1058E0007B4063716270A2788F78835C8A7A5340C0
:1058F000A2799C46825C8B7B5A40A37AC35C7B4036
:10590000A370A37B8F79C35C7B40A3716346A372B2
:10591000A273E278CB7B825C5A40E379CF78C35C98
:10592000761E7B40E370E37ACF79C35C76B27B402E
:10593000E3717346C05CC97A4840E072E273002E9E
:1059400000DB73E6CBE510B5ACB004466846FFF764
:10595000A3FB69462046FFF7FCFB2CB010BD10B539
:10596000ACB004466846FFF797FB69462046FFF750
:10597000B8FDF2E7886C0010C1094000002903D08F
:10598000C0B21B2148407047C0B2704730B50B46CB
:10599000014600202022012409E00D46D5409D4209
:1059A00005D31D469540491B25469540401915468F
:1059B000521E002DF1DC30BD70B5002425460028B4
:1059C00001DA01244042002901DA01254942FFF7AA
:1059D000DDFFAC4200D04042002C00D0494270BDF7
:1059E00003460B439B0703D009E008C9121F08C0F8
:1059F000042AFAD203E00B780370401C491C521EA3
:105A0000F9D27047D2B201E00270401C491EFBD2AD
:105A100070470022F6E710B513460A4604461946B9
:105A2000FFF7F0FF204610BD30B5044600200346C6
:105A300000E05B1C934203D2E05CCD5C401BF8D0DD
:105A400030BD0321001D401E037812021A43491E77
:105A5000F9D510467047034603220870000A491C16
:105A6000521EFAD518467047F8B502464A40D40F80
:105A700042004B0052085B089A4202D20246084696
:105A800011464A0023D0C30D4A00DDB2120EAD1AF2
:105A9000202D35DA49020126490AF6058A19002C1B
:105AA00000D0524220214F1B1146B9402A41101804
:105AB000C20D9A4221D0002C17D0012D08DCDA0546
:105AC000801AD20F8019D207DBB200F081FAF8BD3C
:105AD000DA05801A012340001B06C01880185A42BC
:105AE0008018CA0F1043490007E04908C207114354
:105AF000DA05801A80194008801800F061FAF8BDB4
:105B000061000122511A001BF7E70122D207514020
:105B1000AAE70122D2075040A6E70000F0B50746E9
:105B20000846584087B0C00F049048000E46590000
:105B300040084908BC1A884105D2384631461E46FD
:105B400017460B4602465800400810434CD0300D13
:105B5000039040055900400D490D0590401A0290F0
:105B6000402872DA18030121000B0905084301904F
:105B700004980092002805D00199524200208841E3
:105B800000920190029840210A1A0199009800F0B1
:105B9000E3F905460C466B4607CB00F0FEF9C01949
:105BA0007141039A0E0D0023D71756401A467A40CA
:105BB000164344D0049A002A2DD0029A012A039A4F
:105BC00015DC1205C01A914101263605001C7141F1
:105BD000D20F059ED2070093019202962A462346D1
:105BE00000F03CFA07B0F0BD38463146FAE716053A
:105BF000224A0F46B218C01AB74101210905001CFC
:105C00004F4100187F41114618187941E20F1043A7
:105C10006D19644113E0E2076D0815436408C2077B
:105C20001443039A01261205C01A91413605001C3F
:105C30007141CE07400830434908C01851412A46F7
:105C4000234600F0FEF9CDE7FFE70498012240006B
:105C5000C117121A00238B4104983146C417381A11
:105C6000A141EEE730B40124E407634030BC55E7BE
:105C700030B40124E407614030BC4FE70000E0FF8E
:105C8000F0B51FB488B00B990998002448400999D1
:105C9000C00F490049080991C0070B9900904900BD
:105CA00049080B9109990898A64608431CD00B99FE
:105CB0000A98084318D0099801244000420D480072
:105CC000410D099824050003000B204309900B980F
:105CD0000003000B20430B9050181C494018002271
:105CE00001901446104605E0002001460DB0F0BDBD
:105CF000032801DA034600E003239C46C11A0AAEDA
:105D00000AE05F0008ADED5B4F00F75B7D430027C5
:105D1000AA187C41491C5B1E6145F2DD410004ABC1
:105D20005A522104120C0A43240C401C0828DFDBC1
:105D3000019802900099704601910090059B049A89
:105D40000799069800F08AF9D0E700000DFCFFFFE4
:105D5000F0B50C465C4085B0E40FE40703944C00BA
:105D600000266408590094464908024602962243D8
:105D700021D062460A431ED06200570D4A000E032E
:105D80002303550D012402462C492405781B1B0BC7
:105D9000360B401823432643614600901C46501A98
:105DA000B44103D30098401C009002E09218009880
:105DB0005B41002803DA0020014605B0F0BD002059
:105DC000012109050746864611E064461D46141B5D
:105DD000B54106D36546521BB341744607430C4395
:105DE000A646CD0740084908284392185B4105465E
:105DF0000D43EAD11046184313D06046194650406F
:105E00007140084306D06046101AB34106D2012201
:105E1000002306E000220123DB0702E00122D24337
:105E20005310009874460105381C6141029C039D83
:105E30000019694100F005F9BFE70000FD0300000B
:105E400010B500229623114600F0C2F810BD0000E4
:105E50000EB5C217C10F5040CA0740180021054BAC
:105E60000293019200910A460B4600F0F7F803B046
:105E700000BD0000330400000EB505490291002169
:105E800000910A460B46019100F0E8F803B000BD0E
:105E9000330400004A0009030123090B1B051943C1
:105EA000094B10B5520D9A4201DA002010BD064B85
:105EB00034339A4203DC9A1A00F05EF810BD0349AD
:105EC0005118884010BD0000FF030000CDFBFFFF0C
:105ED000C20FD207400040080BD0C10D0723DB01E1
:105EE000C91840020905400A1143C208400711437E
:105EF0007047002001467047F0B51FB406460020E9
:105F000082B005464024019100901BE00199224691
:105F10000F46304600F030F8049A059B801A9941EC
:105F200010D310461946224600F016F8361A8F4153
:105F30000197224601200021009F00F00DF838183B
:105F40004D4100902046641E0028DFDC019B009834
:105F50002946324607B0F0BD10B5202A04DB0146C1
:105F6000203A9140002010BD914020239C1A034606
:105F7000E3401943904010BD10B5202A04DB0846C9
:105F8000203AD040002110BD0B46D340D040202401
:105F9000A21A91400843194610BD10B5202A06DB0D
:105FA000CB170846203A1041C1170B4306E00B46B9
:105FB0001341D0402024A21A91400843194610BD35
:105FC000002904DA401C490001D140084000704714
:105FD00070B40024050C05D11024000402D100295E
:105FE00021D01124050E01D100020834050F01D182
:105FF0000001241D850F01D18000A41C002801DBB5
:106000004000641C002908D020252E1B0D46F540B9
:10601000A14000D001212943084301061B1B000AAF
:10602000DB1D02D5002070BC7047DB0518188018F6
:106030000029F8DA401C4900F5D170BC4008400046
:10604000704710B5002B08DA0024401C61419218FB
:106050005B411A4301D14008400010BDF0B51FB4A8
:1060600082B005460C0003D0084600F0C7F802E0F5
:1060700000F0C4F820300246009021462846FFF781
:106080006BFF049B059A04460F46184311430843CF
:1060900014D0184610431BD0009840210A1A184605
:1060A0000599FFF769FF05460E46009A0599049881
:1060B000FFF752FF084305D0012004E0204639468F
:1060C00007B0F0BD0020C11705430E432C433743F2
:1060D00000990E986305401A7905E40A00220C43E2
:1060E000FD0A0A3002D500200146E9E70105101932
:1060F00069410C9C0D9D00196941FFF7A2FFDFE784
:106100004A0009030123090B1B0519430A4B10B56B
:10611000520D9A4202DA0020014610BD064B34337C
:106120009A4203DC9A1AFFF727FF10BD034BD218DF
:10613000FFF712FF10BD0000FF030000CDFBFFFFC3
:1061400010B5002904DB0124E40740428C412146BC
:10615000002B04DB1C460123DB075242A34199427A
:1061600000D1904210BD0000064C0125064E05E00E
:10617000E36807CC2B430C3C98471034B442F7D368
:10618000F9F7A2FF946D0010B46D001010B5104B1C
:10619000002A03D0DC7E6406640EDC7600BF30BFCC
:1061A000401EFDD20028FBDC0028F9DC002A03D0C9
:1061B000D87E80221043D876002907D0054801698F
:1061C0000122114301610169C903FCD510BD000022
:1061D0006010005000E000E037B514460846064B5A
:1061E0006A46214600F0EAF804466946002000F0BD
:1061F00081FC20463EBD0000F56A00102021020C03
:1062000001D010211046020A01D0104608390209B7
:1062100001D01046091F820801D01046891E42088D
:1062200001D0881E7047081A704730B47446641E47
:106230002578641CAB4200D21D46635D5B00E31809
:1062400030BC184702E008C8121F08C1002AFAD162
:1062500070477047002001E001C1121F002AFBD1E6
:1062600070470000F0B51FB484B007980699020D7E
:10627000014314D04A484B491018484305140F985D
:1062800001280E981CD0281A401C0024464E47496D
:10629000009401910290002814DA474227E00F98F9
:1062A000012443A3012808D0002104980F9A846098
:1062B0000360C260416009B0F0BD0E98C143F4E7CD
:1062C0004042E2E7074612E0F80707D0224633468D
:1062D00001990098FFF7D4FC0191009022463346C3
:1062E00010461946FFF7CCFC04460E467F10002FDF
:1062F000EAD10298019B0028009A0799069802DAD1
:10630000FFF7BEFC01E0FFF723FD04460E46002226
:10631000284BFFF715FF03D80020C043014607E0D4
:106320000022254B20463146FFF7F8FBFFF7E8FE39
:10633000102409E0002C0ADB0A220023FFF7DCFD11
:10634000059B30321A55641E02460A43F2D11122CF
:10635000641C059B121B1C190F9B012B03D00123EE
:1063600008430ED10AE0084304D011200E9000200B
:106370000F9084E70E98151A6D1E0BE00E9882425E
:1063800002DD00236D1C03E0824201DA00236D1E52
:10639000002BEED004980F998260C16030C08AE76C
:1063A00001FCFFFF104D0000000024400000F03F02
:1063B000300000000000F0430000E03FFFB597B060
:1063C0000646002518E2252877D100242746FD49F6
:1063D000049400E00443761C32780120203A904077
:1063E0000842F7D130782A280ED0022230780146B0
:1063F0003039092916D804990A23594330394018ED
:106400001443761C0490F1E7189802C80491189080
:10641000002904DA0120400304434842049002208A
:106420000443761C30782E2814D10420044370785D
:10643000761C2A2809D11898761C80C8189009E083
:106440000A214F43303FC719761C30780146303956
:106450000929F5D930786C2810D006DC4C281AD0E0
:1064600068280ED06A2817D104E0742813D07A283F
:1064700012D110E00120400504430CE00121090580
:1064800001E0032109050C437178814203D1012009
:1064900000052418761C761C3078119066280BD0E5
:1064A00013DC58287DD009DC00287BD04528F6D0A5
:1064B0004628F4D047281AD1A5E118E0632835D042
:1064C000642870D0652812D19DE170286CD008DC5A
:1064D0006728F1D069287BD06E280DD06F2806D1AF
:1064E000BAE073282ED0752871D0782859D01A9A1E
:1064F000199990476D1C7EE16002400F022809D077
:1065000003280DD00428189801680DD00D60001DD7
:10651000189070E11898EA1701680D604A60F6E774
:10652000189801680D80F2E70D70F0E718986A4638
:1065300001781172001D18900020507202A800907E
:10654000012005E0189802C8189000200091C0436F
:1065500061070DD5002101E00199491C0191B94263
:1065600012DA8142F8DB009A515C0029F4D10BE089
:10657000002101E00199491C01918142FADB019A55
:106580000099895C0029F5D1019904981A9B471A52
:1065900021463846199A00F097FA01994019451892
:1065A0000BE04FE02CE113E04EE0009800990078FA
:1065B000491C00911A9A199990470198401E019020
:1065C000401CF2D1214638461A9B199A10E137E057
:1065D0000A200021009001916002410F022907D09A
:1065E000189A01CA1892C2179446032908D00AE0E3
:1065F0001898C01DC108C90005C91891944607E044
:1066000000B2C2179446042902D140B2C1178C4689
:1066100000226146944506DA0A4600214042914133
:106620008C462D2102E0210504D52B216A461173E9
:10663000012103E0E10701D02021F7E7029155E0B5
:106640000A200AE0102008E0102000900021042019
:1066500004430191082703E00820002101910090E4
:106660006002410F022907D0189A01CA189200222D
:106670009446032908D008E01898C01DC108C90035
:1066800005C91891944603E080B2042900D1C0B234
:1066900000210291210729D51199702906D0009A6D
:1066A0001021019B4A401A4305D00EE040216A4662
:1066B0001173012108E06146014306D030216A468A
:1066C00011731199517302210291009A0821019BC3
:1066D0004A401A430AD16146014301D1610705D5F9
:1066E00030216A46117301217F1E029111995829A8
:1066F00004D035A10E910DA90D910DE037A1F9E758
:106700006146019B009AFFF7F7FB0E9B8C469B5C52
:106710000D9A521E0D92137061460143F0D10D98EF
:1067200005A9081A20300190600703D50120000454
:10673000844300E001270198874201DD381A00E018
:106740000020019900904118029809180498401AF5
:106750000490E00306D421461A9B199A049800F08D
:10676000B3F94519002706E003A81A9AC05D1999E4
:1067700090476D1C7F1C02988742F5DBE0030CD527
:1067800021461A9B199A049800F09EF9451904E0D5
:106790001A9A3020199990476D1C0099481E009054
:1067A0000029F5DC08E00D980D990078491C0D9141
:1067B0001A9A199990476D1C0199481E0190002959
:1067C000F1DC63E1092801003031323334353637EA
:1067D000383961626364656600000000303132332D
:1067E00034353637383941424344454600000000CD
:1067F00000F05AF94519761C3078002800D0E2E5FF
:1068000028461BB0F0BD600700D406271898C01DAD
:10681000C108C90048680A680831C30FDB0718912E
:10682000190001D09CA108E0210501D59BA104E03D
:10683000E10701D09AA100E09AA1430011985B08FA
:10684000109165280CD006DC452809D046281DD0BB
:10685000472841D141E0662818D067283CD13CE068
:106860000021112F01DB112000E0781C0191009024
:1068700008A911A8FFF7F6FC139905910021119AB8
:1068800015927F1C12980197009150E00120C007DB
:1068900003900120019008A9009711A8FFF7E2FCDE
:1068A000139A149905920022119B00921298159345
:1068B000059A0192002901D0104602E0791C401887
:1068C0000190381A01D5019804E04042401E009022
:1068D000781C0190C01B029043E0012F00DA0127D1
:1068E0000021112F01DD112000E0384601910090B8
:1068F00008A911A8FFF7B6FC13990591119A002178
:10690000129815920091019721070CD40599B9426C
:1069100001DB019900E00191012904DD159A491E6E
:10692000515C302906D0B84201DA011D05DA012197
:10693000029115E00199491EEDE7002805DC009958
:10694000411800910199091A03E0019A411C9142F2
:1069500000DD01910099401A401C02900120C007FF
:106960000390200706D402990198814202DB00209F
:10697000C043029000206946C87707AF0121039801
:106980000337C907884224D0022011902B2012908F
:10699000039800280CDA404203902D20129007E063
:1069A0000A210398FEF7F2FF30317F1E0390397001
:1069B0001199481E11900029F2DC03980028EFD1AC
:1069C000791E129808703078202108404530BF1E8B
:1069D000387006A8C01BC01D0390109800780028CE
:1069E00000D00120019941180298C0170918039896
:1069F00009180498401A401E0490E00306D421466A
:106A00001A9B199A049800F05FF8451910980078BD
:106A1000002803D01A9A199990476D1CE00324D5D9
:106A200021461A9B199A049800F04EF845191CE06B
:106A30000098002807DB00990598884203DD159827
:106A4000405C199901E0199930201A9A90470098F2
:106A50006D1C401C00900298401E0290002804D13A
:106A60001A9A2E20199990476D1C0199481E019081
:106A70000029DDDC05E038781A9A7F1C19999047C7
:106A80006D1C0399481E03900029F4DC21461A9BD3
:106A9000199A0498ACE600002D0000002B000000BD
:106AA0002000000000000000F8B5044600251E4646
:106AB0001746880404D405E039462020B0476D1CF1
:106AC000641EF9D52846F8BDFFB50446002581B0FF
:106AD0001E46C80301D5302700E02027880404D5CE
:106AE00005E038460399B0476D1C641EF9D5284669
:106AF00005B0F0BD0A68531C0B6010707047101091
:106B00004010401010401040202020102010101085
:106B1000101020204010201010401040108840100D
:106B2000882020201020101010101020884010887D
:106B30000C0802170D0101FB0909010106020918E1
:106B400018030101090903030500070007001100EC
:106B50001100020011000B001100080011000200DA
:106B60004100110002000000C9090000E504000016
:106B7000730200003A01000090020000480100008A
:106B8000A400000052000000637C777BF26B6FC5AD
:106B90003001672BFED7AB76CA82C97DFA5947F020
:106BA000ADD4A2AF9CA472C0B7FD9326363FF7CCFC
:106BB00034A5E5F171D8311504C723C31896059A99
:106BC000071280E2EB27B27509832C1A1B6E5AA0BC
:106BD000523BD6B329E32F8453D100ED20FCB15BA7
:106BE0006ACBBE394A4C58CFD0EFAAFB434D338510
:106BF00045F9027F503C9FA851A3408F929D38F5E4
:106C0000BCB6DA2110FFF3D2CD0C13EC5F9744171A
:106C1000C4A77E3D645D197360814FDC222A908891
:106C200046EEB814DE5E0BDBE0323A0A4906245C1D
:106C3000C2D3AC629195E479E7C8376D8DD54EA982
:106C40006C56F4EA657AAE08BA78252E1CA6B4C64E
:106C5000E8DD741F4BBD8B8A703EB5664803F60EA7
:106C6000613557B986C11D9EE1F8981169D98E9496
:106C70009B1E87E9CE5528DF8CA1890DBFE64268AF
:106C800041992D0FB054BB1652096AD53036A5383C
:106C9000BF40A39E81F3D7FB7CE339829B2FFF8704
:106CA000348E4344C4DEE9CB547B9432A6C2233DE8
:106CB000EE4C950B42FAC34E082EA16628D924B299
:106CC000765BA2496D8BD12572F8F66486689816BA
:106CD000D4A45CCC5D65B6926C704850FDEDB9DA19
:106CE0005E154657A78D9D8490D8AB008CBCD30A07
:106CF000F7E45805B8B34506D02C1E8FCA3F0F02E3
:106D0000C1AFBD0301138A6B3A9111414F67DCEAB1
:106D100097F2CFCEF0B4E67396AC7422E7AD35852A
:106D2000E2F937E81C75DF6E47F11A711D29C58934
:106D30006FB7620EAA18BE1BFC563E4BC6D2792016
:106D40009ADBC0FE78CD5AF41FDDA8338807C7311F
:106D5000B11210592780EC5F60517FA919B54A0D17
:106D60002DE57A9F93C99CEFA0E03B4DAE2AF5B08C
:106D7000C8EBBB3C83539961172B047EBA77D626A8
:106D8000E169146355210C7D8D0102040810204037
:106D9000801B3600B46D001000000020B000000021
:106DA00044620010646E0010B00000202029000032
:106DB00054620010000000508000005000000000ED
:106DC000601000508C10005070B0025078B002502B
:106DD00070B0025078B0025040787D010000000091
:106DE00000000000701000500000000000000000D3
:106DF000000300000000000000000100000001503E
:106E000008AA0220309F0220F8A60220C881022092
:106E1000CC810220D580022074800220768002205E
:106E20009A87022024800220208002208F80022066
:106E300090800220998902200400000000000000D8
:106E4000F8A6022000000000000000000000000082
:106E50000000000000000000000000000000000032
:046E6000309F02203D
:04000005100000C126
:00000001FF
