:020000041000EA
:10000000E05400206D0F0010750F0010770F0010E6
:1000100000000000000000000000000000000000E0
:10002000000000000000000000000000790F001038
:1000300000000000000000007B0F00107D0F00108A
:10004000CB0600107F0F00107F0F00107F0F0010F5
:100050007F0F00107F0F0010A90800107F0F001005
:100060007F0F00107F0F00107F0F00107F0F001018
:100070007F0F00107F0F00107F0F00107F0F001008
:100080007F0F00107F0F00107F0F00107F0F0010F8
:100090007F0F00107F0F00107F0F00107F0F0010E8
:1000A0007F0F0010530900107F0F00107F0F00100A
:1000B0007F0F00107F0F00107D0D00107F0F0010CC
:1000C0000348854601F09CF90048004725020010CE
:1000D000E054002010B5072404E00921204600F078
:1000E0005EFB641C0C2CF8DB0C2000F023FF0220CC
:1000F00000F02AFF012000F008FF002000F0FAFEC7
:100100000021012000F0D2FE002000F0E8FE0020D7
:1001100000F006FF934800F041FE1E20002805DB9A
:10012000C206D20E012191408F4A116000BF10BD5E
:1001300070B504468D480078401C8C4908708C4886
:100140000078002859D08A480078012848D1A007B3
:10015000800F00281ED087490868C10F0918491070
:10016000854A8918854A116082480568E80F401958
:100170004210834801688148006800F011FF7D4902
:100180000868C10F091849107D4A126889187C4A0D
:1001900011601CE0032000022040002817D07648A0
:1001A0007649086073480568E80F401942107448A2
:1001B00001687248006800F0F3FE6E490868C10FDC
:1001C000091849106E4A126889186D4A11606C4806
:1001D00000686C49884210D30220654908700CE021
:1001E00063480078022808D1FF226248016862480B
:1001F00000F0E8FE00205E49087070BD10B50120D7
:1002000080035C490860FF22084601685A4800F0F4
:10021000D9FE5D4800F0BFFD56480168564800F021
:100220000CFE10BD08B572B60021192000F0B7FA17
:100230000021172000F0B3FA0021222000F0AFFACD
:1002400000210A2000F0ABFA0121192000F043F947
:100250000121172000F03FF90121222000F03BF995
:1002600001210A2000F037F900210E2000F097FA52
:1002700000210F2000F093FA0021102000F08FFAE7
:100280000021112000F08BFA00210E2000F0BBF8B5
:1002900000210F2000F0B7F80021102000F0B3F883
:1002A0000021112000F0AFF80721142000F077FAA8
:1002B0000721152000F073FA00F064FC33A000F071
:1002C00067FCFFF707FF62B600202849087028493D
:1002D0000870FFF793FF43E00A2000F029F9234854
:1002E00000782F490978884228D0204800782C4986
:1002F00008701F480078002806D11C48027829A100
:10030000002000F063FC19E01948007801280BD1A7
:100310001B4800680090194803681448027826A119
:10032000002000F053FC09E011480078022805D1B4
:100330000E4802782AA1002000F048FC0E2000F0B0
:1003400036F900280CD1192000F0F2F8084800789E
:10035000002805D129480A4908600120044908708D
:10036000BAE700003030000000E100E004000020A7
:100370001000002000000020400000200C000020A1
:1003800008000020563E0310310100105359443834
:10039000383231204949532044454D4F0D0A000061
:1003A0000500002069646C6520646D615F636E7494
:1003B0003A25780D0A000000706C617920646D6147
:1003C0005F636E743A2578206275665F52616D5F77
:1003D00070323A257820646174615F703A25780044
:1003E000706C61792066696E69736820646D615F05
:1003F000636E743A25780D0A00000000821E00101A
:10040000D3490860704770B5024620241440630940
:1004100020251446AC430125A54028469C00CD4D1F
:100420002C592075050A6575050CA575050EE57531
:10043000002B13D0002908D1C74D6D7D0543ECB2C8
:10044000C54D6D7DC44E747515E0C34D6D7D8543FE
:100450002C46C14D6D7DC04E74750CE0002905D150
:10046000BD4C64680443BC4D6C6004E0BA4C6468E5
:100470008443B94D6C6070BD70B5024620241440B1
:10048000630920251446AC430125A5402846002BCE
:1004900013D0002908D0B04DED7D0543ECB2AE4D30
:1004A000ED7DAD4EF47515E0AB4DED7D85432C46ED
:1004B000A94DED7DA84EF4750CE0002905D0A64CA1
:1004C000E4680443A44DEC6004E0A34CE468844376
:1004D000A14DEC6070BD30B50B462024044061098D
:1004E00020250446AC430125A5402A468C00994DA1
:1004F0002C592276150A6576150CA576150EE5762B
:10050000002B0AD08C00934D2C592271150A65716D
:10051000150CA571150EE57109E08C008D4D2C5957
:100520002272150A6572150CA572150EE57230BDA2
:1005300010B520230340590920240346A343012476
:100540009C4022468B00834CE3581A73140A5C7358
:10055000140C9C73140EDC7310BD10B520230340E3
:10056000590920240346A34301249C4022468B00C2
:10057000784CE3581A71140A5C71140C9C71140EB7
:10058000DC7110BD10B52023034059092024034617
:10059000A34301249C4022468B006E4CE3581A7200
:1005A000140A5C72140C9C72140EDC7210BD30B50F
:1005B000014620200840420920240846A043012487
:1005C000844023469000634C205840301024041986
:1005D0002578284665782D022843A5782D042843E0
:1005E000E478240620431840002801D0012030BDC3
:1005F0000020FCE7F0B503460C46154620221A40C1
:10060000500920261A46B243012696403146002C56
:100610000BD182004F4EB258403211720E0A567200
:100620000E0C96720E0ED6720AE08200494EB25837
:10063000403211710E0A56710E0C96710E0ED67163
:10064000002D0BD18200434EB258203211760E0A93
:1006500056760E0C96760E0ED6760AE082003D4E49
:10066000B258203211750E0A56750E0C96750E0E84
:10067000D6758200374EB258203211710E0A56716B
:100680000E0C96710E0ED6710022002A05DBD706DD
:10069000FF0E0126BE40314F3E6000BFF0BD10B5D9
:1006A00020230340590920240346A34301249C40EE
:1006B00022468B00274CE35820331A72140A5C72CE
:1006C000140C9C72140EDC7210BD70B500243CE05A
:1006D000A000204908584030142141180A781046DB
:1006E0004A78120210438A7812041043C978090626
:1006F0000843A100174A515820310A461378194679
:1007000053781B02194393781B041943D2781206BD
:10071000114308400546002D00D114E00C48006844
:10072000002804D029462046094A12689047A000B4
:100730000849085840300575290A4175290C81750A
:10074000290EC17500BF601CC4B2022CC0DB70BD95
:100750001C000020140000204010005000E100E0C8
:1007600010B50146272901DA002902DA0020C0432A
:1007700010BDCC07E40F202904DA4A101B4800689A
:10078000835C05E008462038421018484068835CC6
:10079000002C01D01811EBE71807000FE8E770B53F
:1007A000272801DA002800DA70BD0907090FC407FD
:1007B000E40F202804DA43100C4E3668F21805E0E6
:1007C0000646203E7310094E7668F2181578002C04
:1007D00001D00F2600E0F0263540002C01D00E0796
:1007E000310E2E460E43167000BFDDE720000020BC
:1007F000002815DBC206D20E01219140944A1160F7
:1008000000BF00BF00BFBFF34F8F00BF00BF00BFDE
:1008100000BF00BF00BFBFF36F8F00BF00BF00BFAE
:10082000704770B504460D460620FFF7E1FF894882
:1008300000680078000900012907090F084385496D
:100840000968087083480068007880218843E101C6
:100850008022114008437F49096808707D4800687C
:100860000078402188437B4909680870794800680E
:10087000807808218843083076490968887092009A
:100880007549764800F00AFA7548406A40210843E5
:10089000734948620846006A40210843704908626B
:1008A000062000F0CBF870BD70B56A480068047887
:1008B00030206040054667480068057010202040E1
:1008C00000280DD000BF634800680179634800F03C
:1008D0001DFA60480068C078C007C00F0028F2D039
:1008E00070BD70B504460D461920FFF781FF5948C9
:1008F00040680078000900012907090F084355499D
:100900004968087053484068007880218843E101B5
:100910008022114008434F49496808704D4840689B
:100920000078402188434B4949680870494840682D
:1009300080780821884308304649496888709200C9
:1009400048494648103000F0A9F9192000F076F81F
:1009500070BD70B53F48406804783020604005465F
:100960003C48406805701020204000280ED000BF91
:100970003848406801793948103000F0C7F93548E7
:100980004068C078C007C00F0028F1D070BDF0B536
:100990000B4601242404002112E000BF85002D4EE7
:1009A0007559ED782D07ED0F002DF7D1850075599C
:1009B0006D785E5C35468600264FBE597570491CC1
:1009C0009142EADB00E0641E8500224E7559ED7805
:1009D0006D07ED0F002D01D1002CF4D1F0BD70B5E5
:1009E00004460D4621011D4A8818294600F09CF94D
:1009F00070BD70B504460D4600BF022C01DB00201F
:100A000070BD2101154A881800F0A3F900280AD109
:100A1000200112494018C5682101104A881800F0C9
:100A2000A1F9C0B2ECE70020EAE70146012901DDA7
:100A3000002070478800074A1058FAE7002806DBB4
:100A4000C206D20E01219140014A803A11607047DE
:100A500080E100E0280000206040002040400020AD
:100A6000008002206042002010B5024606200028C7
:100A700015DBC406E40E0123A3407F4C236000BFB6
:100A800000BF00BFBFF34F8F00BF00BF00BF00BF5C
:100A900000BF00BFBFF36F8F00BF00BF00BF00BF2C
:100AA000764800680078000900010B071B0F184307
:100AB000724B1B6818707148006800788023984357
:100AC000D3018024234018436C4B1B6818706B487B
:100AD00000680078402398434030684B1B681870CA
:100AE00066480068C078102398431030634B1B6839
:100AF000D8706248006880780823984308305F4BBC
:100B00001B6898705E48406A402318435C4B5862EB
:100B10001846006A40231843594B186206200028E3
:100B200006DBC406E40E0123A340534C803C236043
:100B300000BF10BDF0B50B4601242404002112E0D3
:100B400000BF85004D4E7559ED782D07ED0F002D36
:100B5000F7D1850075596D785E5C35468600474F44
:100B6000BE597570491C9142EADB00E0641E8500A5
:100B7000424E7559ED786D07ED0F002D01D1002C17
:100B8000F4D1F0BD10B508210020FFF76DFF10BDB6
:100B90000FB438B500240498002803D138BC08BC31
:100BA00004B0184705A800903648009A049900F050
:100BB000CDFCC4B200200090802C00DD80242246B1
:100BC00030490020FFF7B6FF00BFE7E70FB438B5A4
:100BD000054600240598002803D138BC08BC04B0A1
:100BE000184706A800902748009A059900F0AEFC27
:100BF000C4B200200090802C00DD802422462149D0
:100C00002846FFF797FF00BFE7E7F8B505460E4611
:100C100017460024002D02D02846FFF7B9FF002414
:100C20001BE02046E117490F0918C910C900611AD5
:100C300003D1A1B214A0FFF7ABFF315D14A0FFF701
:100C4000A7FF601CC117490F0918C910C900411A34
:100C500002D111A0FFF79CFF641CBC42E1DB2046DF
:100C6000E117490F0918C910C900611A02D00AA07A
:100C7000FFF78EFFF8BD000080E100E030000020AB
:100C800000800220604400205B253034785D200025
:100C900025303278200000000D0A00000023436058
:100CA00003608260C1607047416801607047F8B5B9
:100CB00004460F46154660684019A168884219DB52
:100CC000A088281A86B26268E168881832463946D8
:100CD00000F066F9A81B85B22068A84202DC2088D3
:100CE000401E85B2B9192A46E06800F059F96560DE
:100CF0007019F8BD6268E16888182A46394600F024
:100D00004FF96068401960602846F2E70246536870
:100D1000581C5060D068C15493685068984201DBF9
:100D200000205060012070470246536810689842C6
:100D300001D1002070471368581C1060D068C05C57
:100D4000087093681068984201DB00201060012051
:100D5000F0E701464A680868904201D101207047D7
:100D60000020FCE7014600224B680868984200DD3D
:100D70008A68486880180B68C01A704710B57848B0
:100D80004469446177480068002803D020467549CB
:100D90000968884710BD734908607047724941402F
:100DA0006F4A5161704730B504460B4619468807B3
:100DB000800F002801D0002030BD89089210002C3F
:100DC00010D1002905D06648C0898DB22846644DEF
:100DD000E881002A16D06248408A95B22846604DC4
:100DE00068820FE0002905D05D4880898DB22846D1
:100DF0005B4DA881002A05D05948008A95B2284643
:100E0000574D28820120D7E730B504460D46544897
:100E1000007D4007C00F002801D0002030BD2A46C9
:100E200021460020FFF7BFFF4D48007A40084000F0
:100E3000401C4B4908720120F0E730B504460D46CE
:100E40004748007D4007C00F002801D0002030BD7A
:100E50002A4621460120FFF7A6FF414800794008B5
:100E60004000401C3E4908710120F0E73C48007AF0
:100E7000C007C00F002805D03948007A400840005C
:100E80003749087236480079C007C00F002805D0DE
:100E900033480079400840003149087100BF3048AC
:100EA000007D4007C00F0028F9D1704710B5002819
:100EB0000AD12B4A527880239A43CB0180242340C5
:100EC0001A43274B5A7009E0254A527840239A4327
:100ED0008B01402423401A43214B5A7010BD2049F6
:100EE000497820229143420120231A4011431C4A91
:100EF000517070471A4949780C22914382000C23A3
:100F00001A401143164A517070471549497810220A
:100F10009143020110231A401143114A5170704746
:100F20000F494978890889008207920F11430C4ABA
:100F3000517070470A490978090909010207120F1F
:100F40001143074A1170704705490978F02291430F
:100F50000201F0231A401143014A1170704700004A
:100F600000700250380000203030000004488047F4
:100F700004480047FEE7FEE7FEE7FEE7FEE7FEE780
:100F8000910F0010C1000010034804490860704729
:100F9000014802490860704740787D013C0000200C
:100FA00003460B439B0703D009E008C9121F08C082
:100FB000042AFAD203E00B780370401C491C521E2D
:100FC000F9D27047D2B201E00270401C491EFBD238
:100FD00070470022F6E710B513460A460446194644
:100FE000FFF7F0FF204610BD30B50B46014600204C
:100FF0002022012409E00D46D5409D4205D31D461F
:101000009540491B2546954040191546521E002D16
:10101000F1DC30BDF0B51FB40646002082B00546B5
:101020004024019100901BE0019922460F46304672
:1010300000F008FA049A059B801A994110D31046D3
:101040001946224600F0EEF9361A8F4101972246E2
:1010500001200021009F00F0E5F938184D41009073
:101060002046641E0028DFDC019B0098294632469A
:1010700007B0F0BDF0B507460846584087B0C00F2E
:10108000049048000E46590040084908BC1A88419F
:1010900005D2384631461E4617460B4602465800D2
:1010A000400810434CD0300D039040055900400DCE
:1010B000490D0590401A0290402872DA1803012168
:1010C000000B09050843019004980092002805D000
:1010D00001995242002088410092019002984021DB
:1010E0000A1A0199009800F09DF905460C466B46D6
:1010F00007CB00F0B8F9C0197141039A0E0D002317
:10110000D71756401A467A40164344D0049A002A0C
:101110002DD0029A012A039A15DC1205C01A9141BA
:1011200001263605001C7141D20F059ED20700939F
:10113000019202962A46234600F0B5F907B0F0BDA9
:1011400038463146FAE71605224A0F46B218C01A49
:10115000B74101210905001C4F4100187F4111468C
:1011600018187941E20F10436D19644113E0E2074A
:101170006D0815436408C2071443039A012612053B
:10118000C01A91413605001C7141CE07400830431A
:101190004908C01851412A46234600F077F9CDE7A7
:1011A000FFE7049801224000C117121A00238B4167
:1011B00004983146C417381AA141EEE730B401242F
:1011C000E407634030BC55E730B40124E4076140D4
:1011D00030BC4FE70000E0FFF0B51FB488B00B99BA
:1011E0000998002448400999C00F4900490809910D
:1011F000C0070B990090490049080B91099908987C
:10120000A64608431CD00B990A98084318D00998A1
:1012100001244000420D4800410D099824050003B7
:10122000000B204309900B980003000B20430B9008
:1012300050181C494018002201901446104605E041
:10124000002001460DB0F0BD032801DA034600E09E
:1012500003239C46C11A0AAE0AE05F0008ADED5BAD
:101260004F00F75B7D430027AA187C41491C5B1E99
:101270006145F2DD410004AB5A522104120C0A43CD
:10128000240C401C0828DFDB01980290009970466E
:1012900001910090059B049A0799069800F003F9C4
:1012A000D0E700000DFCFFFFF0B50C465C4085B0B8
:1012B000E40FE40703944C000026640859009446A8
:1012C000490802460296224321D062460A431ED0B4
:1012D0006200570D4A000E032303550D01240246F8
:1012E0002C492405781B1B0B360B4018234326433F
:1012F000614600901C46501AB44103D30098401C2C
:10130000009002E0921800985B41002803DA002068
:10131000014605B0F0BD00200121090507468646BB
:1013200011E064461D46141BB54106D36546521BA9
:10133000B341744607430C43A646CD07400849080D
:10134000284392185B4105460D43EAD110461843E5
:1013500013D06046194650407140084306D060469D
:10136000101AB34106D20122002306E00022012315
:10137000DB0702E00122D2435310009874460105B6
:10138000381C6141029C039D0019694100F07EF800
:10139000BFE70000FD0300004A0009030123090B19
:1013A0001B0519430A4B10B5520D9A4202DA002070
:1013B000014610BD064B34339A4203DC9A1A00F002
:1013C00041F810BD034BD21800F02CF810BD0000FE
:1013D000FF030000CDFBFFFF10B5002904DB012453
:1013E000E40740428C412146002B04DB1C460123CC
:1013F000DB075242A341994200D1904210BD000048
:10140000064C0125064E05E0E36807CC2B430C3C57
:1014100098471034B442F7D3FEF756FE583E0310F7
:10142000783E031010B5202A04DB0146203A914093
:10143000002010BD914020239C1A0346E34019432D
:10144000904010BD10B5202A04DB0846203AD04059
:10145000002110BD0B46D340D0402024A21A914059
:101460000843194610BD10B5202A06DBCB170846E5
:10147000203A1041C1170B4306E00B461341D04000
:101480002024A21A91400843194610BD10B5002B24
:1014900008DA0024401C614192185B411A4301D1D3
:1014A0004008400010BDF0B51FB482B005460C00E6
:1014B00003D0084600F05CF802E000F059F8203054
:1014C0000246009021462846FFF7ACFF049B059A90
:1014D00004460F4618431143084314D018461043DE
:1014E0001BD0009840210A1A18460599FFF7AAFF59
:1014F00005460E46009A05990498FFF793FF0843A6
:1015000005D0012004E02046394607B0F0BD002098
:10151000C11705430E432C43374300990E986305CA
:10152000401A7905E40A00220C43FD0A0A3002D56C
:1015300000200146E9E70105101969410C9C0D9D49
:1015400000196941FFF7A2FFDFE7000037B5144635
:101550000846064B6A46214600F0DCF80446694618
:10156000002000F073FC20463EBD00004D1E001020
:101570002021020C01D010211046020A01D0104691
:101580000839020901D01046091F820801D010460F
:10159000891E420801D0881E7047081A704702E071
:1015A00008C8121F08C1002AFAD1704770470020EE
:1015B00001E001C1121F002AFBD17047F0B51FB432
:1015C00084B007980699020D014314D04A484B494C
:1015D0001018484305140F9801280E981CD0281A9B
:1015E000401C0024464E4749009401910290002877
:1015F00014DA474227E00F98012443A3012808D0BA
:10160000002104980F9A84600360C260416009B0B1
:10161000F0BD0E98C143F4E74042E2E7074612E00E
:10162000F80707D02246334601990098FFF7D4FD0A
:10163000019100902246334610461946FFF7CCFD33
:1016400004460E467F10002FEAD10298019B002825
:10165000009A0799069802DAFFF7BEFD01E0FFF74E
:1016600023FE04460E460022284BFFF7B5FE03D8A2
:101670000020C043014607E00022254B20463146AA
:10168000FFF7F8FCFFF788FE102409E0002C0ADBC6
:101690000A220023FFF7BEFC059B30321A55641E58
:1016A00002460A43F2D11122641C059B121B1C192D
:1016B0000F9B012B03D0012308430ED10AE00843FE
:1016C00004D011200E9000200F9084E70E98151A78
:1016D0006D1E0BE00E98824202DD00236D1C03E0BC
:1016E000824201DA00236D1E002BEED004980F9980
:1016F0008260C16030C08AE701FCFFFF104D00002E
:10170000000024400000F03F300000000000F043E3
:101710000000E03FFFB597B00646002518E22528F7
:1017200077D100242746FD49049400E00443761C49
:1017300032780120203A90400842F7D130782A28A8
:101740000ED00222307801463039092916D8049982
:101750000A235943303940181443761C0490F1E7AA
:10176000189802C804911890002904DA0120400357
:1017700004434842049002200443761C30782E280B
:1017800014D1042004437078761C2A2809D11898B3
:10179000761C80C8189009E00A214F43303FC719D2
:1017A000761C3078014630390929F5D930786C2813
:1017B00010D006DC4C281AD068280ED06A2817D121
:1017C00004E0742813D07A2812D110E001204005DB
:1017D00004430CE00121090501E0032109050C4344
:1017E0007178814203D1012000052418761C761CF3
:1017F0003078119066280BD013DC58287DD009DC96
:1018000000287BD04528F6D04628F4D047281AD1A6
:10181000A5E118E0632835D0642870D0652812D17E
:101820009DE170286CD008DC6728F1D069287BD056
:101830006E280DD06F2806D1BAE073282ED07528F7
:1018400071D0782859D01A9A199990476D1C7EE169
:101850006002400F022809D003280DD004281898F0
:1018600001680DD00D60001D189070E11898EA17FE
:1018700001680D604A60F6E7189801680D80F2E78C
:101880000D70F0E718986A4601781172001D1890E3
:101890000020507202A80090012005E0189802C8AC
:1018A000189000200091C04361070DD5002101E090
:1018B0000199491C0191B94212DA8142F8DB009A80
:1018C000515C0029F4D10BE0002101E00199491C91
:1018D00001918142FADB019A0099895C0029F5D1D6
:1018E000019904981A9B471A21463846199A00F024
:1018F00097FA0199401945180BE04FE02CE113E0ED
:101900004EE0009800990078491C00911A9A1999A4
:1019100090470198401E0190401CF2D12146384664
:101920001A9B199A10E137E00A20002100900191DA
:101930006002410F022907D0189A01CA1892C217F3
:101940009446032908D00AE01898C01DC108C900B0
:1019500005C91891944607E000B2C21794460429BD
:1019600002D140B2C1178C4600226146944506DA86
:101970000A460021404291418C462D2102E021057A
:1019800004D52B216A461173012103E0E10701D040
:101990002021F7E7029155E00A200AE0102008E034
:1019A000102000900021042004430191082703E047
:1019B00008200021019100906002410F022907D008
:1019C000189A01CA189200229446032908D008E008
:1019D0001898C01DC108C90005C91891944603E0B4
:1019E00080B2042900D1C0B200210291210729D57B
:1019F0001199702906D0009A1021019B4A401A4380
:101A000005D00EE040216A461173012108E06146CD
:101A1000014306D030216A46117311995173022196
:101A20000291009A0821019B4A401A430AD161465B
:101A3000014301D1610705D530216A4611730121A7
:101A40007F1E02911199582904D035A10E910DA93C
:101A50000D910DE037A1F9E76146019B009AFFF770
:101A6000D9FA0E9B8C469B5C0D9A521E0D921370F8
:101A700061460143F0D10D9805A9081A2030019064
:101A8000600703D501200004844300E0012701988A
:101A9000874201DD381A00E00020019900904118CA
:101AA000029809180498401A0490E00306D42146CD
:101AB0001A9B199A049800F0B3F94519002706E01B
:101AC00003A81A9AC05D199990476D1C7F1C029853
:101AD0008742F5DBE0030CD521461A9B199A04983E
:101AE00000F09EF9451904E01A9A302019999047A0
:101AF0006D1C0099481E00900029F5DC08E00D9847
:101B00000D990078491C0D911A9A199990476D1CEE
:101B10000199481E01900029F1DC63E109280100C8
:101B20003031323334353637383961626364656653
:101B30000000000030313233343536373839414215
:101B4000434445460000000000F05AF94519761C50
:101B50003078002800D0E2E528461BB0F0BD6007D1
:101B600000D406271898C01DC108C90048680A6833
:101B70000831C30FDB071891190001D09CA108E0C0
:101B8000210501D59BA104E0E10701D09AA100E065
:101B90009AA1430011985B08109165280CD006DCCF
:101BA000452809D046281DD0472841D141E0662864
:101BB00018D067283CD13CE00021112F01DB112017
:101BC00000E0781C0191009008A911A8FFF7F6FC2D
:101BD000139905910021119A15927F1C1298019773
:101BE000009150E00120C00703900120019008A956
:101BF000009711A8FFF7E2FC139A149905920022AE
:101C0000119B009212981593059A0192002901D018
:101C1000104602E0791C40180190381A01D501984D
:101C200004E04042401E0090781C0190C01B0290CE
:101C300043E0012F00DA01270021112F01DD1120DF
:101C400000E038460191009008A911A8FFF7B6FC02
:101C500013990591119A00211298159200910197FC
:101C600021070CD40599B94201DB019900E00191EB
:101C7000012904DD159A491E515C302906D0B8426D
:101C800001DA011D05DA0121029115E00199491ED1
:101C9000EDE7002805DC0099411800910199091A27
:101CA00003E0019A411C914200DD01910099401A24
:101CB000401C02900120C0070390200706D402991F
:101CC0000198814202DB0020C04302900020694657
:101CD000C87707AF012103980337C907884224D08A
:101CE000022011902B201290039800280CDA404219
:101CF00003902D20129007E00A210398FFF774F952
:101D000030317F1E039039701199481E11900029BF
:101D1000F2DC03980028EFD1791E12980870307811
:101D2000202108404530BF1E387006A8C01BC01DCA
:101D3000039010980078002800D0012001994118E4
:101D40000298C0170918039809180498401A401EF1
:101D50000490E00306D421461A9B199A049800F0D7
:101D60005FF8451910980078002803D01A9A19993D
:101D700090476D1CE00324D521461A9B199A0498BC
:101D800000F04EF845191CE00098002807DB009988
:101D90000598884203DD1598405C199901E019996E
:101DA00030201A9A904700986D1C401C00900298B1
:101DB000401E0290002804D11A9A2E2019999047AB
:101DC0006D1C0199481E01900029DDDC05E0387882
:101DD0001A9A7F1C199990476D1C0399481E03900D
:101DE0000029F4DC21461A9B199A0498ACE60000FD
:101DF0002D0000002B00000020000000000000006B
:101E0000F8B5044600251E461746880404D405E0AC
:101E100039462020B0476D1C641EF9D52846F8BD10
:101E2000FFB50446002581B01E46C80301D5302702
:101E300000E02027880404D505E038460399B04720
:101E40006D1C641EF9D5284605B0F0BD0A68531C08
:101E50000B601070704752494646D0983A0057417F
:101E60005645666D74201000000001000200401FFE
:101E70000000007D00000400100064617461AC98F3
:101E80003A00000000000000000000000000000018
:101E90000000000000000000000000000000000042
:101EA0000000000000000000000000000000000032
:101EB0000000000000000000000000000000000022
:101EC0000000000000000000000000000000000012
:102750000000000000000000000000000000FFFF7B
:10276000FFFF00000000000000000000010000006A
:1027700000000000FFFF0000FFFF0000FFFFFFFF61
:102780000000FFFFFFFFFFFFFFFFFFFFFFFFFFFF57
:10279000FFFF0000000000000000FFFF000000003D
:1027A000FFFF0000FFFF0000000000000000FFFF2F
:1027B0000000FFFF000000000000FFFFFFFFFFFF21
:1027C000FFFF0000000000000000FFFFFFFFFFFF11
:1027D0000000FFFFFFFF00000000010001000000FB
:1027E0000000FFFFFFFF00000000010001000000EB
:1027F0000000FFFF000000000000000000000000DB
:10280000FFFF0000FFFF01000100000001000100C8
:102810000200010000000000FFFF010000000000B6
:102820000000FFFF000000000000010001000100A7
:102830000200000000000000000002000100020091
:1028400001000100000000000000FFFF0000000088
:10285000010002000300010001000000FFFF020070
:10286000010001000100FFFFFFFF01000100010066
:10287000020001000100020000000000FFFF010053
:10288000020001000300000002000200020001003B
:1028900000000000FFFFFFFFFFFF00000100FFFF3F
:1028A0000000FEFFFEFFFEFFFEFF01000100020030
:1028B0000300020001000100000000000000FEFF14
:1028C000FFFFFEFFFFFF000001000000000000000E
:1028D000FFFF0000000001000100FFFFFFFFFEFFFF
:1028E000FEFF0100010001000100010001000100E4
:1028F0000000FFFFFEFFFFFFFEFFFDFFFFFF0000E8
:102900000100040004000400030000000000FEFFBA
:10291000FFFF020002000800080006000500070093
:1029200007000E000F0002000300FDFFFDFF030083
:102930000100FDFFFCFF0400050006000700F8FF92
:10294000F9FFF2FFF2FFEDFFECFFF2FFF2FFFDFFF8
:10295000FDFFF5FFF5FFF6FFF6FFF7FFF7FFEEFFD0
:10296000EFFFFDFFFDFF060005000A000A000C0056
:102970000D00FAFFFAFFFAFFFBFF07000800100046
:10298000100008000800F3FFF3FF0C000C00250006
:10299000250005000500F6FFF7FF0A000A00DFFF2B
:1029A000DFFFD3FFD3FF1B001A0015001500110035
:1029B000110029002A000100020009000900FFFFA0
:1029C000FEFFB0FFB0FFEEFFEEFF14001400760034
:1029D0007600EAFFEAFF66006600E209E309B91340
:1029E000BA1394169416FB17FB17161816187719B6
:1029F0007719121A111AC119C119B221B2215C2B0F
:102A00005C2BBE2CBE2C8D298D29322632268E239E
:102A10008E23F621F6214A1F4A1FB41AB51A8017D1
:102A20008017CA13C913FC0FFC0F380E380E230988
:102A30002309610261024BFC4BFCEBF2EBF2E4EB8D
:102A4000E4EBF8E8F7E82BE32BE34EE14EE1CDDFD2
:102A5000CDDF64DF64DFD7DBD6DBC0CAC0CA95BA7E
:102A600096BAC1B4C1B42EB82FB874C673C663C4C5
:102A700063C4C9A9CAA935963596A990A99046916B
:102A800046913E8C3E8CCB95CB9576AA76AA42A5F4
:102A900042A5F492F492B28FB28F459C459CB9A1A5
:102AA000BAA1BDA4BDA4D5AFD6AF30B630B681BBF8
:102AB00081BB3CC23CC2E2CAE2CA3BD33BD3E4DCAA
:102AC000E3DC6AE76AE78DF58DF594099509191934
:102AD0001819AA22AA22752E752E6A3B6A3B544306
:102AE0005443524F524F1C5D1D5DA767A76720706E
:102AF00020704F704E70826E826E75717471487363
:102B00004773C872C772C471C47118711871F371B8
:102B1000F471D571D571BE71BE71B270B370946D20
:102B2000956DCE69CD69576956693D683D684062CB
:102B30004062A15FA15FE15CE15CCC56CC56FD51E7
:102B4000FD51224C214C214621466B436B438E3D67
:102B50008E3DC232C232E72AE72A3B213B210115D2
:102B6000021562116211950E950EB204B10497FB25
:102B700097FBA7F5A8F506ED06EDE5E2E5E280DCBA
:102B800080DC52D552D5F7CFF7CFD9CCD9CCAEC552
:102B9000AEC543BE42BEA0BBA0BB34BC34BC21B852
:102BA00021B8A6AFA6AF0DA90DA9D2A4D2A4B8A2F0
:102BB000B7A291A191A1D29ED29ED39CD39C7E9A82
:102BC0007E9A169716976794679453945394D99363
:102BD000D993F78FF78F998E9A8E338E338E4D8DD2
:102BE0004D8D8B8E8C8E1A8F1A8FE48FE38FF7901A
:102BF000F790B88EB88E3E8C3E8C918D918DCF9093
:102C0000CF90469346931C951C9554965496E19705
:102C1000E197089A089AD19BD19BE09CE19C80A007
:102C200080A0AEA6AEA6D6A9D6A9F5ADF5ADC2B523
:102C3000C3B5AEBCAEBC48C348C3B3CAB4CA0CD259
:102C40000DD2D3D8D3D8A6E1A6E15EEB5EEB08F2B5
:102C500008F222FA22FA0E050E05AE0BAE0B611138
:102C60006111E41AE41A02230123FA28FA280B302E
:102C70000B3058395939AC40AD40144614466A4CB3
:102C80006A4CF450F4502F562E56AE5CAE5CCC60BD
:102C9000CC6007630763FA65FA65CB68CB68A16B04
:102CA000A16B776F776F1E721F72D071D071027136
:102CB0000371C971C9718B728B724B734B736073E3
:102CC0005F736F736F73FB73FB73D672D67264712D
:102CD000647105710571077107710B720B721172C6
:102CE000117208710871686F686F496D496DDB6A10
:102CF000DB6A31683168E266E266C164C064F4622E
:102D0000F462CE62CF625B5F5C5F5A5B5B5B5A587A
:102D10005A587E517E51364B364B6E476E47734242
:102D200073425C3D5C3D0038003824312431B22AC6
:102D3000B22A6C246C24731D731D6B176B177111F1
:102D40007111A20AA10ABD02BD02F9FAF9FABBF497
:102D5000BBF44EEE4EEEE7E7E7E795E295E29BDC4B
:102D60009CDC8DD68DD6D1D0D1D04FCA4FCA9AC552
:102D70009AC5DDC1DDC17BBD7CBD26B926B947B58D
:102D800047B546B346B3A1B0A1B049AD49ADC4AA59
:102D9000C4AA9BA89BA8C0A6C0A648A448A4C3A236
:102DA000C4A2EEA1EEA167A166A1BDA0BDA06F9FC8
:102DB0006F9F0FA00FA068A068A0649F649F1AA0D7
:102DC0001AA06FA16FA1B7A1B7A131A331A3D2A45B
:102DD000D2A463A563A5CEA6CEA642A842A806AA01
:102DE00006AA07AC07AC29AF28AFD5B1D5B169B2F7
:102DF00069B2F2B4F1B4EFB8EEB83ABB3ABB63BD16
:102E000064BDFDBFFEBF58C158C144C444C492C88C
:102E100092C857CC56CC15D115D162D462D47DD688
:102E20007DD69BD89BD8B4D9B5D978DB78DBBFDF0A
:102E3000BFDF35E435E427E727E7BAEABAEACDECA5
:102E4000CDECC9EEC9EE4AF34AF356F656F642F90E
:102E500042F9FEFCFEFC5EFF5DFFA701A7018404B2
:102E6000840408070807A90AA90A4F0E4F0ECF10BD
:102E7000CF10D813D8136316631663196319991CFE
:102E8000981C111E111E2F202F2081238223B4266F
:102E9000B426FC29FC29162C162C052E052E0231F1
:102EA000023157325732D732D73259345934293652
:102EB00029362A382B387D397D3987398739313998
:102EC000313973397339FC39FB3963396339E73880
:102ED000E738523851385536553689358A352C35CC
:102EE0002D3554335533A630A730322F332F662E6D
:102EF000662E502C4F2CC22AC12AEE28EE285126CD
:102F0000512669246924C821C821EE1EED1E831DA7
:102F1000831D591B591BDF18DF188C178C17981449
:102F200098140D110D11020E030E9E0B9E0BA70A95
:102F3000A60A50084F08740574058C038B0305011D
:102F4000050115FF15FF30FE30FE4DFC4DFC58FA13
:102F500059FAEBF8EDF8B6F7B7F7DEF5DEF551F311
:102F600051F36FF16FF16BF06AF0ABEFA9EF51EF36
:102F700050EF53EF52EF4DEE4DEE13ED14EDD9EC53
:102F8000DAEC76ED77ED9FED9FED37ED36EDADEDBB
:102F9000ACED5CEE5CEE1AED19EDB4ECB4EC7EEE4B
:102FA0007EEE57EF58EFFFEF00F03EF13FF1C9F131
:102FB000CAF1EFF1F0F12DF32DF3FDF3FDF3A2F4DF
:102FC000A2F494F692F69FF79DF737F835F8B8F922
:102FD000B6F988FA86FAD8FAD8FA5BFB5CFB34FCBF
:102FE00035FC3AFD3CFDA0FDA3FDDAFDDCFD43FE12
:102FF00044FED6FED8FEDAFFD9FFE500E300470124
:103000004401090105013A013701870184010602E3
:1030100004028C038C0370047304CD04D004F80400
:10302000FB043B043E04860389037C037D03FB030E
:10303000FA03B703B403B503B20352044E04A70363
:10304000A3030D030A034F034D033B033B03380265
:103050003A02CB01CF0114021702FA01FD0102026C
:1030600005023D023F027202720215021302EB01D9
:10307000E8019C029702C102BD023B023602FC013C
:10308000FA011F021F027802790209020C02B9013B
:10309000BF01DE01E3010E011301DA00DD009B0038
:1030A0009C0053FF52FFBAFEB6FE8CFE88FE23FE44
:1030B0001FFE26FE22FED6FDD2FD95FB94FB19FADB
:1030C00019FA72FA76FA04FA08FAB2F9B8F9EFF9CD
:1030D000F4F9DFF8E2F892F793F71EF71DF742F7DD
:1030E0003FF77FF77AF708F803F82BF826F883F70D
:1030F0007FF796F794F70FF80FF808F80AF82AF810
:103100002EF8B6F8BBF876F97BF98EFA92FA56FBF0
:1031100058FB5AFB5CFBD2FBD0FBF8FCF4FC99FD9E
:1031200093FDDBFED6FE3B0036003F013D0132033E
:103130003203C404C5043B053F05EA05EF051A0741
:103140001F0707080C0829092D09B009B009AB09A8
:10315000AB09A50AA10A8F0B8B0BB40BAE0BBD0BF1
:10316000B90B350C310C4A0C4A0C4C0C4D0CA50C0F
:10317000A60C610C670CD40BD80B620B660B1F0BF3
:10318000230B990A9B0AE909E809FF09FE09CE0900
:10319000C90971086C083707320781067D063805B2
:1031A00035052B042B042C042E04700373031A0220
:1031B0002002F200F400A6FFACFF22FF24FF23FF51
:1031C00023FFBEFEBEFE23FE20FE5CFD57FDB8FCC5
:1031D000B5FCAAFCA6FC65FC63FCC4FBC3FB67FB57
:1031E00067FB99FB9DFB5BFC5DFCA4FCA9FC53FC0D
:1031F00053FC19FC1BFC19FC1BFC38FC37FC61FC64
:1032000060FCF6FCF3FC95FD90FD98FD97FD2BFD11
:103210002AFD2CFD2AFDCEFDCFFD05FE05FEE8FDB5
:10322000EAFD6BFE6FFE6FFE72FE9AFD99FDD6FD04
:10323000D9FD34FE34FE08FE06FE66FE65FE4DFE38
:103240004AFEEFFDEDFD88FD87FDA6FCA6FCF9FB1F
:10325000F9FB97FB97FB2FFB31FBACFAADFA96F924
:1032600097F9AFF8B2F84BF848F846F747F788F601
:1032700088F6B4F6B0F60EF610F6D9F4D8F478F471
:1032800075F433F435F4B6F3B4F371F371F35EF31C
:1032900061F30BF30AF3DAF2DAF207F30AF33FF31E
:1032A0003EF35CF35CF3B1F3B2F325F425F408F4D8
:1032B00008F48AF48BF49CF59AF5FBF5FAF58BF695
:1032C0008CF6AFF7B0F75BF85AF8B1F8B0F873F9CD
:1032D00073F965FA64FA33FB35FBE6FBE6FBEFFCBA
:1032E000EEFCE1FDE3FD61FE61FEB2FEB0FE07FF14
:1032F0000AFF88FF86FF35003400BB00BB008E004C
:103300008A00BC00BD0058015B0121012001EF00D3
:10331000F000170117018200830008000C0016005E
:103320001600F4FFF1FF20001E001B001B00ABFF86
:10333000ACFF6CFF6CFF42FF40FFF5FEF2FEC8FEE3
:10334000C8FE0AFF0DFF61FF61FF93FF92FFABFF15
:10335000ABFF90FF90FFCCFFCFFF3E004000490045
:1033600046004D004D00A200A3000F010D01F50025
:10337000F600F400F400C001BD016D026E02C80247
:10338000C8022C032C036E037103FC03FD03A0048D
:103390009E0422052105120611062107230797071F
:1033A0009A07FC07FB07B208AF0885098509800A60
:1033B000820AF80AFA0A0E0B0C0BB50BB10B8D0C36
:1033C0008B0C250D280DB50DB70DFA0DF70D090E57
:1033D000060E0D0E0F0EE70DEB0DE20DE50D490E7D
:1033E000470ED20ECE0EC00EC10E9C0E9F0ED30EF7
:1033F000D50EA70EA60E170E140EC80DC80DB00DD3
:10340000B30DAF0DAE0DA20DA00DCF0CCE0CEE0B7B
:10341000EE0B7A0B7B0BD00ACF0A280A250A9C09EF
:103420009C090509060916081508D006CF06DA0515
:10343000DA0539053B0598049904ED03EB035003C5
:103440004E03A302A602D201DA011A011C0189006F
:103450008400C8FFC5FF15FF16FF77FE7CFED7FD71
:10346000D8FD36FD2EFDABFCA6FC5AFC5FFCEDFB47
:10347000F2FB8CFB88FB3AFB33FBD0FACEFA63FA03
:1034800067FA46FA4BFA8CFA8BFA53FA4FFAEFF9CD
:10349000EEF9F4F9F9F93AFA3DFA6BFA69FA58FAE1
:1034A00056FA44FA46FA3FFA42FA27FA28FA07FA95
:1034B00003FA8EF98AF930F932F933F933F95EF902
:1034C0005BF996F995F92EF932F900F903F9F8F854
:1034D000F5F8A0F89EF8A0F8A3F819F81CF8A2F7E0
:1034E000A5F74FF84EF8B0F8AAF86CF86BF881F829
:1034F00089F895F897F8A3F89CF8E0F8DAF8B0F8AE
:10350000B4F8A2F8AAF8F2F8F2F815F90CF95EF995
:1035100058F989F98DF979F97EF9ADF9ADF919FA0A
:1035200015FA6EFA6EFA76FA7CFAB0FAB2FA56FB2F
:1035300055FBFAFBF6FB07FC06FCEAFBF1FB30FC53
:1035400031FC70FC69FC7BFC7BFCCCFCCCFC1CFDE6
:103550001BFD5BFD5DFDE1FDE1FD30FE33FE5EFE2A
:1035600063FEC3FEC3FE06FF02FF02FF00FF09FF6A
:103570000CFF04FF09FFDDFEDEFE3BFF38FFE7FF27
:10358000E5FF03000300B8FFB8FFB3FFB1FFD6FFAC
:10359000D1FF93FF93FF62FF66FFB1FFACFF1C00FA
:1035A0001200810081007A007D004D005200C400AD
:1035B000C7002D012C013C01400133013A01FB0001
:1035C000FC00EC00E600F800F400010107015601E0
:1035D0005A019A019601C301BF01E301E301F80119
:1035E000FC011F021D02E701DE01BA01B801DF0183
:1035F000E3010502050260025A0293028F02930260
:103600009802930299026202610262025E029B02C8
:103610009A02C302C902E602EC020003FD02FA02AA
:10362000F302C202C102A302A502BD02BA0206034E
:1036300004035103520365036A03A303AB03F903B5
:10364000F703FB03F303DE03E0031404190455043A
:10365000560452044E04C304BE0480058005DF05F1
:10366000E10549064C069206920681067C064F0645
:103670004E0647064A06CF06CC062B072807C90682
:10368000CC068E069306C506CB06EC06ED06FC06B8
:10369000F506CD06D106860695063C063A06E105F6
:1036A000D20592058D0561056C051B052F05D40417
:1036B000CE0494047904160416049603A8030703A1
:1036C00006036802600223021D02F601F2019E0158
:1036D000A5011F012C0157005700B5FFAAFFDEFE10
:1036E000DFFEFCFD07FEC1FDC6FD87FD8CFD17FD5D
:1036F00019FDD1FCCBFC64FC5FFCC8FBC1FB59FB92
:1037000054FBECFAEEFA7AFA72FA09FAF5F9C6F90C
:10371000BEF9E6F9EAF9EEF9F3F9BAF9BEF9B5F945
:10372000ACF9C1F9BAF997F9A7F95DF96BF92AF97A
:1037300028F913F90FF9FDF8FBF8F2F8EEF835F96E
:1037400035F97EF996F995F9B1F968F963F903F954
:10375000EEF8F7F8EDF835F936F98AF986F9C1F996
:10376000B0F976F975F944F94DF950F94FF956F970
:1037700057F98FF984F9CBF9AFF9AFF9AEF965F9DB
:1037800082F923F931F948F949F9B4F9BDF912FA86
:1037900018FA75FA7FFAAEFABAFAD6FAD0FAF3FA4C
:1037A000EEFA28FB36FB92FBA6FB2EFC2EFCB6FCA9
:1037B0009DFCD6FCB9FCFCFCE0FC3CFD34FD9FFD0F
:1037C000B4FD24FE3CFE65FE78FE9AFE9AFEDCFE09
:1037D000CAFE00FFF9FE3EFF37FFA9FFA5FF1A0052
:1037E0002700BD00CB0058015E01EB01E6017F021E
:1037F0007402CA02C4021B031C0365037203D903CB
:10380000E50397049C043A053105C205B2055C0640
:103810005B06CA06DB06B906CB06E006DC068F07A8
:103820007A07EE07E2070108FA07460840089208FF
:103830008808B708AA08CA08CA08C408CC08CC086F
:10384000DF081E0929096709530947094009410989
:103850004C0979097A097309720942094109120967
:103860001809E208E908A408AA088808880859087D
:103870004308E807DB077B078A07FA0605079A066D
:103880009B06A406A9069306A2062C063106B305DC
:10389000A8050205F70447044104EC03F403780388
:1038A0008B03B202BB02370230023C022E024202FC
:1038B00043020002080280017D01D400D1004200D1
:1038C0004200DDFFDBFFA6FF9AFF73FF68FF18FFD2
:1038D0002AFFC8FEE2FE48FE55FEBBFDC2FD94FD78
:1038E0008EFD8CFD7FFD35FD30FD96FC95FC4EFC7C
:1038F00044FC33FC23FCB4FBB4FB39FB3BFB11FB66
:10390000FAFAD7FABDFA7DFA72FA47FA3DFA13FAD3
:1039100005FACEF9C4F978F974F94AF942F93DF992
:103920003EF915F925F9F3F8FEF8EAF8ECF8D5F8C0
:10393000DEF8B2F8C2F8D8F8E5F80EF91DF9E2F8A9
:10394000F9F8BEF8CEF8EFF8F5F803F90AF9E8F857
:10395000F1F8EAF8EBF8D6F8D7F8DAF8E6F81CF957
:103960002FF96CF97CF9B3F9BDF9A0F9A3F972F953
:103970006EF999F994F9CFF9CAF9FFF9EFF942FA1A
:1039800028FA7DFA6BFA86FA82FAA7FAA7FA2FFBD1
:103990002AFB85FB7CFB6DFB66FB8FFB85FBD2FB6B
:1039A000C6FBDEFBD2FB16FC09FC8AFC83FCE1FCB7
:1039B000E1FC27FD2DFD7BFD80FDB7FDB8FDF5FD8C
:1039C000FCFD65FE6BFED9FED7FE13FF0DFF53FF16
:1039D00049FFE0FFD2FF2C001C001A0014005D001C
:1039E0005F00CF00D00035013B01C501CF0144028B
:1039F0005102A302B5020D03200347035D037903BF
:103A00008603D303DB030F04170460046104C804B6
:103A1000CE04F604000525052C0559055D0548056D
:103A200047053505330572056C0596058E058B0532
:103A30008705BF05BA05DD05DB05B505B305AC0592
:103A4000A505B505B105A905AF05AA05BA05CF05B8
:103A5000D705EF05ED05B205AE057B0570059A05A6
:103A60009105A0059905A6059505B2059C055C057F
:103A70004805CA04B9044C043804F703E303BC0343
:103A8000B50348034503D402D202C402CA027C0231
:103A90008202D701DB016C01790113012A01A30025
:103AA000B60043005200E7FFFFFFA2FFBAFF6CFF22
:103AB00079FF28FF2FFF01FF04FFD3FED2FE65FE32
:103AC00065FE36FE3AFE48FE44FE23FE0FFEE6FD8E
:103AD000DAFDA1FD9FFD78FD77FD6DFD74FD48FDCC
:103AE00055FD59FD61FD6CFD6FFD2BFD2DFD13FD99
:103AF00014FD50FD50FD7EFD83FD8CFD8EFD85FD8A
:103B00006CFD87FD5FFDB2FD97FDE6FDDCFD2FFE40
:103B10002CFE8AFE89FE09FFFCFE79FF5FFF92FF03
:103B200083FFB6FFBDFF01000C003B003F006700B4
:103B30006A0095009600A700A4008B0093005D002A
:103B40007500510068005D006E004A005D003100A4
:103B50003A0019001B00F4FF0300E8FFFDFFF7FF28
:103B60000300E4FFE6FFA1FF9EFF89FF83FFBFFF85
:103B7000B8FFDAFFD9FFCBFFC9FFBAFFAAFF94FF56
:103B800080FF99FF8BFFB7FFA8FF9EFF90FF95FF77
:103B900090FFC7FFC1FFC7FFBDFF90FF8EFF7EFFF5
:103BA00080FFA0FF9CFFBCFFB9FFB0FFB1FFC0FFCB
:103BB000BDFFC9FFC6FFD1FFD4FFF7FFF8FFE6FF47
:103BC000E1FFDFFFE0FF14001F003B0040004C005E
:103BD0004C005F0067006B00700059005B004600FE
:103BE000510042005100270032000C001900FDFF77
:103BF0001100C6FFDAFF83FF91FF68FF79FF77FFAF
:103C000088FF87FF8FFF61FF63FF0DFF0CFFDAFE68
:103C1000D4FEEAFED9FECBFEB6FE9BFE82FEA0FEDF
:103C20007FFE97FE79FEA1FE88FEADFE8FFEA0FE10
:103C300080FE87FE71FE53FE49FE35FE32FE49FED0
:103C40004BFE6FFE74FE6AFE71FE31FE43FE20FEE7
:103C500037FE4EFE64FE7AFE96FEB8FED4FE0AFFE4
:103C600023FF3CFF56FF65FF7DFF94FFA6FFB8FFD3
:103C7000C3FFE9FFEBFF23001C0069005C00D500D7
:103C8000C30022010D0146013401570148017301AF
:103C90006601DB01D5012D02280216021402000282
:103CA00005021C021B0223021E02160216022E022D
:103CB0002F0267026602860285026D026B026402B1
:103CC00060027002720289028A02B202AC02B5027C
:103CD000B102A4029F029E02930288028002700237
:103CE0006A026602610236023702EE01F501AD0199
:103CF000B8016C017C0116012A01AD00BF007B00F8
:103D000089004F005B00E8FFEFFF88FF8CFF48FF52
:103D100048FF34FF35FF0AFF0DFFBBFEB5FE8AFEEC
:103D20007FFE61FE5AFE48FE46FE20FE1EFE10FE8D
:103D300007FE20FE10FEF9FDEEFDFCFDF6FD26FE61
:103D40001CFE3BFE36FE3BFE42FE26FE28FE23FE08
:103D500019FE2AFE25FE3AFE37FE36FE32FE2FFE03
:103D600037FE6DFE72FEB7FEB0FED3FED1FEDCFE66
:103D7000E2FEDEFEE0FECAFECDFEBEFEC2FEEBFEB1
:103D8000ECFE34FF38FF5BFF65FF65FF71FF8BFFC3
:103D900099FFCAFFD7FF08000C0030003100440033
:103DA000450089008600DC00D900E900EC00EA004B
:103DB000E9000C0102013D01350165015C0178015A
:103DC0006A0189017F0197018F01B001A201B80149
:103DD000A901A201A001B301BA01E901EF01F601B5
:103DE0000202F7010A021F0229023A023C022D02D6
:103DF0003102300236023E0243023D0241024902D4
:103E00004C024302480256025D02A902A402A30228
:103E100099024D024E022D022D0226021E022A0296
:103E2000240224022002DF01D601A2019A01B4017A
:103E3000AE01B701B301720171010E010E01AE00B6
:103E4000AE008E0088008B00840054004B000F00F1
:103E5000F8FFBEFFACFF5BFF57FF18FF11FFDEFE50
:103E6000D8FE93FE92FE5BFE54FE0AFE0DFEA0FD00
:103E7000ACFD69FD6DFD30FD37FDD3FCDAFC7BFC4C
:103E800077FC24FC2DFCCEFBE8FB8AFB9AFB5BFB5A
:103E90006DFB3AFB58FB10FB27FBE6FAEFFAD0FA72
:103EA000CCFAC3FABAFABAFABFFAC0FAC8FACCFA2C
:103EB000CDFAD6FAE1FAF1FAFBFA17FB1BFB69FB24
:103EC00072FBDCFBDDFB0DFC08FC07FC0BFC29FC9A
:103ED00036FC7CFC8CFCCCFCD2FC19FD11FD6BFD8E
:103EE00063FDB8FDB9FD08FE07FE58FE56FEA3FEB1
:103EF0009BFEE4FECFFE13FFFFFE5AFF44FFC2FF0E
:103F0000A5FF2300050078005700AD009200CA000D
:103F1000B3000401E80057013D01A9018D01FE0134
:103F2000DC013A021F02480233025D0249027F02AD
:103F300074028702880296029902B802BF02C00288
:103F4000CD02CD02D902E702F502EA02FB02EF023E
:103F50000303F3020D030003180324033F03340398
:103F600057032E0349033F03560376038E03A5032D
:103F7000BC03A903C6039A03B9039903B303A103BE
:103F8000B303A803B503B203C603B403CD03B3035D
:103F9000CA03A603BA037103860356036D035703CE
:103FA00071034503610335034D0310032803CF025A
:103FB000ED029402B5025A02810238025502210232
:103FC0003402F8010D02CC01DB019701A201570177
:103FD00062012301290101010701D200D8009500E7
:103FE00094007300720041004400EAFFEDFFB0FF4F
:103FF000B1FF76FF73FF33FF2DFF0FFF0DFFF2FEC2
:10400000F3FEE9FEE9FEDDFEDFFEACFEA6FE8EFE5F
:1040100084FE7BFE75FE62FE57FE64FE55FE5FFE6B
:1040200050FE33FE1FFEF3FDDDFDD6FDBFFDEFFDAF
:10403000D5FD01FEE8FDF2FDD8FDCFFDAFFD9CFDF5
:104040007EFD78FD5EFD68FD51FD79FD64FD9EFD00
:104050008AFDA3FD91FD9FFD94FD8BFD83FD64FD15
:104060005CFD69FD62FD70FD64FD85FD74FDB0FDC4
:104070009CFD97FD79FD6FFD4CFD75FD50FD7EFDAE
:1040800051FD7FFD4AFD8BFD54FDAFFD7DFDBDFD66
:1040900095FDA8FD83FD95FD6FFD80FD5AFD74FD26
:1040A00051FD78FD59FD84FD6FFDB5FDA5FDE3FDD6
:1040B000D2FDF2FDE2FD0CFEFDFD38FE2DFE68FE98
:1040C0005DFE92FE80FEC2FEB5FE04FF01FF44FFCE
:1040D0003EFF7BFF73FFABFFA9FFCFFFD5FFECFFD8
:1040E000F1FF030009001C002100250029003A000F
:1040F0003B0062005D0069005D007D006900A40076
:104100008F00A60099009E009200A7009700CE00A5
:10411000B9000401E6001701FB001801080126019F
:104120001E0139012F014B013F016A015C0185012C
:10413000770181017A0177017201780170016F01C5
:1041400069016701660181017E0195018D0193017D
:104150008F0193019001780176015D015B015D01A2
:1041600064016F0179018D018901900189018C0140
:104170008C01B001AB01E601DE01060203021D0263
:104180001B02310231024702460254025002490228
:10419000500243024E0249024F024E025402620292
:1041A000650265026A0237023E0203020E02DC016A
:1041B000EA01C801D101CA01CE01B301B9017D01F3
:1041C000890152015E0133014101270137011701C5
:1041D0001E01ED00F000D100D200BB00B50092003E
:1041E0008F0077007B0062006B00380042001D00EA
:1041F000230018001E0011001A0001000B00EDFF43
:10420000FEFFF2FF0B0002001A00F3FF0B00EDFFB0
:104210000000FDFF0900F8FF0500F0FFFDFF0A00A8
:10422000100022002700290034004D0052006700D2
:10423000600061005E006D00710077007D0083000A
:104240008D00A000B000A400B500860091007C00A5
:10425000800073007C0051005B00460048004D0068
:104260004D004B004C003D003B002A00220007009F
:10427000FDFFCFFFCAFFB4FFAFFFB5FFAEFFB4FF36
:10428000B2FFAEFFAEFFA8FFA7FF84FF87FF3BFF93
:1042900043FF21FF24FF39FF33FF30FF2BFF0CFFCB
:1042A0000FFF03FF07FFE7FEE6FEB0FEB1FEA8FE2C
:1042B000ABFEB7FEB8FE9AFEA1FE69FE78FE63FE75
:1042C00069FE66FE5DFE42FE3FFE1EFE28FE14FEF7
:1042D00018FE11FE0CFE1BFE0FFE22FE17FE11FE45
:1042E00006FEFEFDF4FDFDFDF4FD01FEFAFD07FEF8
:1042F000FFFD15FE0FFE1AFE1EFE26FE2CFE4FFED3
:1043000052FE5BFE64FE47FE59FE4BFE5BFE69FEFD
:1043100070FE84FE8AFEA4FEAAFEC6FEC9FED5FE7D
:10432000D8FEE4FEE5FEF6FEF5FE0CFF08FF1EFFDC
:104330001AFF36FF36FF68FF62FF89FF7DFF93FF9C
:104340008BFFACFFACFFCBFFC9FFE2FFDAFF03003E
:10435000FDFF230020003A003600540052006400A4
:104360006B006F0077007F00830096009A00A50025
:10437000AA009900A20093009D00A500B000B5001E
:10438000BF00A300A7008C008C008C008B00810074
:1043900083007C007900900087008C0084008200FC
:1043A0007B0096008B00A3009900B700AE00D500FB
:1043B000CD00DB00DA00D900DE00EC00EF000901DF
:1043C0000D012101260126012E0133013C015B0173
:1043D00063017C01830183018C01890193019F01A9
:1043E000A401B201B801CA01D001F001F201060234
:1043F0000A021D022302360239023B02360244023F
:1044000038024F02470248024602350233023302A5
:104410002C0233022A0217021202F001F001C1013C
:10442000C0018B0186015B01550122011E01E400E0
:10443000E500AB00AF007900770032003100DCFF0F
:10444000DFFF92FF95FF48FF4DFFFEFE04FFB4FE25
:10445000B4FE6CFE6BFE3AFE3DFE15FE13FEE5FD5E
:10446000E2FDB1FDB2FD8FFD92FD79FD80FD5FFDA6
:1044700064FD43FD41FD2BFD2BFD20FD26FD0BFDC5
:1044800010FDDEFCE1FCC9FCCFFCDDFCE1FCF8FC2E
:10449000F6FCFFFCFDFCFCFCFBFC02FD08FD19FD2D
:1044A00021FD35FD36FD50FD4CFD79FD75FDB3FD5B
:1044B000B1FDDFFDDEFDF8FDF7FD16FE13FE47FE44
:1044C00042FE81FE7BFEB7FEAEFEE6FEDCFE06FF90
:1044D000FAFE27FF1FFF46FF40FF5BFF56FF85FFE9
:1044E00087FFABFFABFFC0FFBBFFDEFFDDFFF2FFCF
:1044F000F4FFFEFF050014001C001D002200200038
:104500002400400043006E00710088009300A20068
:10451000AF00BB00C500CC00CF00D500D500DE0049
:10452000DE00FA00F700170115011C011D0113013F
:1045300017011D01200132012D0132012B0135012E
:1045400035014601470152015001690167017201BD
:104550006D0173016B018701810197019301A50131
:10456000A101B601B701C501C601D101CC01E40129
:10457000DC01FB01FB01100214021F021F022102D9
:104580001F02220221022F023202330236022902C6
:104590002C02310230022702280205020A02F6012B
:1045A000FD01E801F101C201C80197019A017601FC
:1045B0007A015D0162015401560156015201410127
:1045C0003A011A0116010301FF00EF00E700CC00D9
:1045D000C600A2009E0071006E003D003D000D006F
:1045E0000E00E5FFE7FFC0FFC2FF9DFF9FFF82FFB8
:1045F00088FF68FF6EFF45FF4DFF23FF2AFF02FF84
:1046000007FFF0FEF0FEE8FEE5FEDCFEDBFED1FE7D
:10461000CCFEC1FEBBFEADFEABFEACFEA9FEBBFEFA
:10462000B6FEC9FEC4FED5FED1FEDDFED9FEDDFE1E
:10463000DCFEEBFEECFE01FF01FF13FF11FF31FF7B
:1046400030FF42FF45FF47FF4DFF63FF67FF7AFFE3
:104650007BFF83FF84FF93FF94FFA6FFA9FFB7FFB3
:10466000B8FFC2FFC4FFC3FFC7FFC8FFCBFFDEFF19
:10467000DDFFF1FFEBFFFFFFF7FF11000B001C0058
:10468000180020001D00250025001C001C0018003B
:1046900017002700250019001800F8FFFDFFE1FFB3
:1046A000EAFFC9FFD0FFBBFFC0FFC1FFC7FFC3FFC9
:1046B000C7FFC3FFC2FFBEFFBEFFB9FFBBFFBCFF0A
:1046C000BFFFBDFFBEFFC6FFC5FFE8FFE2FF020060
:1046D000F6FFFCFFF3FF0300FFFF080008001000D7
:1046E0001100330032004F004D0069006600840065
:1046F00084008B00900098009900AE00B300BE00CB
:10470000C600D200D800E500E900EE00F100F50097
:10471000FB00FD000201010104010B010B01180166
:10472000150126011F012D012501280121011B0171
:1047300018011B011B012A0124012A0121011A0170
:104740001201FE00FA00E800E600DB00DC00BF001A
:10475000C1008F0090006A006E004B0052001B00E9
:104760002000E6FFEDFFB7FFBEFF8EFF93FF7AFF4D
:104770007FFF62FF68FF3DFF3FFF1CFF1DFF03FF40
:1047800005FFF4FEF3FEE5FEDEFED8FECDFEC8FE1C
:10479000BEFEB6FEB0FEB4FEA9FEBBFEB2FEBAFE81
:1047A000B6FEB3FEAEFEB7FEB4FEBEFEBCFEC1FE5C
:1047B000C4FED7FEDBFEE9FEE9FEEEFEEEFEFCFEE9
:1047C00002FF02FF0DFF08FF16FF23FF2FFF39FF37
:1047D00042FF3FFF46FF54FF58FF6FFF71FF81FF0D
:1047E00085FF95FF97FFABFFA6FFC3FFBDFFDCFF73
:1047F000D4FFEBFFE4FFF9FFF4FFFBFFF3FFEEFF55
:10480000E6FFEBFFE6FFE8FFE5FFDAFFD3FFB9FFC6
:10481000B3FF8EFF93FF7AFF81FF6EFF74FF56FF99
:104820005EFF3BFF40FF1AFF1DFFFCFEFDFEE7FEA3
:10483000E9FECAFECEFEB4FEB9FEA9FEAEFE98FEAB
:104840009BFE88FE88FE7CFE7BFE70FE70FE70FE86
:104850006EFE71FE6EFE71FE6FFE75FE72FE7EFED6
:104860007CFE89FE85FE8DFE87FE9DFE9AFEB3FED0
:10487000B2FECFFECBFEF1FEECFE04FF01FF1CFFFB
:1048800018FF38FF36FF56FF58FF7DFF81FFA9FF55
:10489000ADFFCFFFD3FFF1FFF4FF18001900420076
:1048A00042007B007A00B300B200DF00DE000A01A4
:1048B0000C0129012E0140014401540156015D0102
:1048C0006001590160015F0163016D016E016501C5
:1048D000690153015901540156014E014F013E0136
:1048E0004001330134012C012A0122011D01040180
:1048F0000001EC00EA00EC00E900EE00E700E10056
:10490000DD00CE00CD00CA00C600C300BB00B4006D
:10491000AB00A700A100A2009E00AA00A900AE0063
:10492000AF00B800B700C700C500BC00C000AD00B4
:10493000B500AE00B400A700AC009F00A100A3002A
:10494000A500AA00AA00B100AD00C000BA00CB00CB
:10495000C800CC00C800D100CE00DB00D800E200C7
:10496000DC00F200ED00FF00FB00FF00FF00FF0095
:10497000070104010B0108010E01FB000401F00016
:10498000F400E600EA00C700CE00A700AC009400E7
:104990009600780079005500570038003E0021004D
:1049A00027000E001100F8FFF9FFDDFFDEFFC2FF58
:1049B000C2FFAAFFAAFF9BFF96FF84FF7FFF70FF45
:1049C0006EFF60FF59FF4CFF43FF38FF33FF21FFAD
:1049D0001FFF18FF19FF14FF16FF00FF03FFF2FE71
:1049E000F7FEE2FEEAFECFFEDAFEC7FED0FEB9FE1B
:1049F000C3FEACFEB6FEA9FEB3FEA7FEB3FE9FFE4D
:104A0000ADFEA4FEAEFEAEFEB7FEC0FEC7FED8FEF3
:104A1000DCFEE3FEE8FEF9FEF9FE10FF0FFF21FFCA
:104A20001DFF3BFF31FF4FFF45FF55FF4DFF5EFF71
:104A300055FF71FF68FF7EFF74FF8AFF7DFFA7FFB0
:104A40009AFFB7FFADFFC0FFB8FFCFFFCDFFE3FF79
:104A5000E8FFFDFF07000C001B00260037004A009E
:104A60005E00650075007F00880093009800940048
:104A7000960097009500A2009C00A0009800970067
:104A80008B00970089009A008900970081008900B7
:104A9000770078006A006600580059004E00530005
:104AA00047004C0042004B0047004D0049004900C0
:104AB00046004E004D00550054004E004D004C0085
:104AC0004D005800550060005C00750072008F00BA
:104AD000880093008B00940092009600930097004A
:104AE00094009D009C00A300A200A700A600AC00BB
:104AF000AE00B200B200B000B000B500B700C30015
:104B0000C600CF00D500E100EB00F9000301110160
:104B10001C011B012C011F01320126013B01230155
:104B20003C011E0138011F01370111012901040157
:104B30001801F4000701D000E700A600BD007B00CB
:104B400092005C0074004200520025002D0000001D
:104B50000600E2FFE1FFCFFFCBFFB4FFAFFFA0FFF6
:104B600093FF94FF85FF85FF76FF76FF63FF6BFF62
:104B700058FF60FF50FF5CFF49FF54FF47FF4FFFA6
:104B800047FF4FFF45FF49FF42FF48FF43FF4DFFEF
:104B900048FF53FF4FFF56FF54FF57FF52FF4EFF92
:104BA0004DFF52FF52FF5BFF59FF62FF66FF73FF2D
:104BB00078FF78FF7AFF81FF82FF8FFF90FFA0FFD1
:104BC000A1FFB9FFBCFFD1FFD5FFE6FFECFFFFFF60
:104BD00008001C002500220029001D0025002400DB
:104BE000300020002D001E002B001D0026000C00B0
:104BF000120000000700FEFF0300FFFF0200EFFFAE
:104C0000F5FFD0FFD9FFB8FFC0FFAAFFAEFF8FFFAF
:104C10008EFF71FF6EFF6CFF69FF57FF57FF33FF79
:104C200033FF28FF23FF21FF1DFF13FF12FF07FFA4
:104C30000BFF0BFF0DFF10FF0DFF06FF04FFF2FE41
:104C4000EEFEF5FEEDFE04FFFCFEF7FEF0FE00FFBB
:104C5000F8FE0EFF06FF06FFFFFE16FF10FF29FFFE
:104C600023FF2FFF2BFF42FF3EFF57FF54FF52FF52
:104C700056FF4EFF55FF64FF6AFF74FF76FF83FF08
:104C800085FFA2FFAAFFBAFFC2FFCCFFCDFFDDFF69
:104C9000DDFFF8FFF9FF12000D0033002A00450088
:104CA00040003A0038004900430051004A004500E6
:104CB0004200440045004200420041003D004400E3
:104CC000450035003D0028002F00220029000F007C
:104CD000180003000B000E0013001C001C00150040
:104CE0001600F6FFFAFFE7FFEDFFF4FFF7FFF5FF11
:104CF000F4FFF0FFF0FFECFFEAFFE1FFDBFFE4FF72
:104D0000E0FFF7FFF5FF02000100F1FFECFFD3FF2A
:104D1000CAFFCAFFC3FFE9FFE5FF06000300080062
:104D20000A0018001F0000000A00E0FFEBFFEEFF82
:104D3000FCFF1800250047004E0057005B007D0077
:104D40007E009900970099009700A400A100A000A0
:104D50009C00AC00A600D700CD00F200EB001A01C9
:104D600012012D01200118010F010D010E01F900A2
:104D7000030114011D0137013A01450146015401A7
:104D8000510122011F01000100010E011401060161
:104D90001201FF000601EE00EC00B500AE008E002F
:104DA0008300BC00B100F200E900BA00B600930035
:104DB0009300B900B900B700BA0095009A009400BA
:104DC000990086008C0030003700820088001001B6
:104DD00010018C00840070006B00A200A30028006A
:104DE0002D002F0034006500640011000C00D7FF77
:104DF000D1FFE6FFE3FFE4FFE5FFBFFFBFFF67FF73
:104E000061FF25FF18FF4AFF38FF44FF38FF53FFBB
:104E100054FF0BFE1AFEE0FAF6FA71F981F9ABF8CD
:104E2000B1F81EF71BF718F511F5C7F2C3F2ACF095
:104E3000ADF0EFEDF2ED8FF191F183FD81FDF90819
:104E4000F708B00FB10F42144A1444165116271A2E
:104E50002E1A8A248624372B252BE128CA288D2256
:104E60007E22101E0D1E2D173317350E3C0E7F0BA4
:104E7000830B060707075CFE5CFE5BFA60FAF1F93C
:104E8000FEF972F881F848EF50EFA7E5A1E57FDF62
:104E90006EDF95D481D463D153D18BD585D58DCF99
:104EA0008DCF62C65FC6A1C29BC245C23DC26DC660
:104EB00069C655CD58CDBCD3C1D341D946D9D0E070
:104EC000CFE0E2E9DAE95BF654F6B709BB097E1BED
:104ED000961B9827BD27562D7C2D572E772E2134D3
:104EE00033347D3C843C504147411B42054278406D
:104EF0005840673E3A3E1C3AE539543B193BA33FC4
:104F0000773FC83BB53B3B3840382A374537AE2A58
:104F1000D72A481877184C117A11170B420B31FA1F
:104F20005DFA92EBB8EB0CDF21DF7FCE85CE5EC45D
:104F30005BC467C35CC30CC0EFBF42B919B9B2B858
:104F400085B890BE5FBE01C0C4BFAAC164C193CB87
:104F500061CB07D1F5D0FDD007D1DAD5F8D526DA67
:104F600060DAEBDE41DF26EE89EE28EF7EEF0CF112
:104F70004CF128075507A112AF1241192919B62D76
:104F8000762DF63EA73E833D323DE33B923B1E45E8
:104F9000D2441041D440DC3AC03AD342D442273CF8
:104FA000423C1F2C532C2E1E711E54189718CD16E0
:104FB00004170E0A350AA80CC70CEFFDFCFD73E5BB
:104FC00075E58BF48AF45EF25FF2FCDAFFDA9DDCC1
:104FD00096DCA8E2A3E219DC0DDC1ED1FFD05FCF86
:104FE00022CFF6CF9DCF68C60AC68ACE30CEE7E084
:104FF0009AE079D954D99FD8AED8CBE41AE5B6E770
:1050000033E875ED16EE9EF55CF647FBFAFBB80942
:10501000490A1D1963191D0E160E8E0F2D0F2A2A0F
:105020006A29752B7C2AC127B026E633EB3261371B
:105030009236FB298229572567257B2B052C881E54
:10504000731F8512A0136F15AD16F2112B135E0995
:10505000340A6EFFBFFFDAF593F53FEDA4ECAFE540
:10506000BBE415EAC1E869E8FFE68EDD6EDC1EDC14
:105070008FDBCFE292E24EEA5CEAB8ED54EE49E80B
:105080006EE9CAE10FE32DEE36EF8FF44DF525F210
:10509000DAF2F8F744F8DEF69CF641F66CF5B5FE68
:1050A000D0FD9108C807C90AC50915125111A710EA
:1050B00012106F0974095417B0178E1BE81BC61F16
:1050C0005420A32064213B140C1524147714E112FE
:1050D0000113F7102A118E168716B7125C12A50C51
:1050E0004F0C250AD6094100090074F719F73FFA59
:1050F000EBF99B05750522082F0868F95BF90EF39B
:10510000B7F2B3F1FDF126E66CE649EB6BEBD8F4B0
:10511000F1F439EA82EA5EE3E8E381EBC9EBEEEE13
:1051200012EF57EB4CEBE2F33DF4DAF902FA66F0DA
:10513000DDEF5AF0D6EF5BFD3CFDF207CB078409AB
:10514000E2084F05B20488038F03A105E00570044F
:105150009C04110636069F09FF09790C8C0D4F043B
:10516000E0048802A902BC14EB14120F6B0F820E2C
:10517000B00EDD194319470D9E0C2E0AD9092B16C6
:1051800018160008A3076103B3023B083908B1F6FB
:105190003AF763F5CCF51EF54FF537E994E9AFE53D
:1051A000A6E6B7E871E9B4EAFEEA51E980E986F0DB
:1051B000B4F0A7FCF4FC32FDF9FCDBFB66FB48FD18
:1051C000DDFC78FB34FB96007100460604064209BC
:1051D0003609D809060AB30117021F01D001A90830
:1051E0000E09A2063C07CF0559061A107210A90C29
:1051F000070DD805E605D907F007370BE30AE109E3
:1052000096095403EC023B03C802A400640079FA37
:1052100041FAAF028E02E603000496F52BF6E2F7A0
:10522000F7F7E4FAFAFABCF744F80FFD51FD7900FC
:105230008B0077FC66FCE5FDA5FDB6FD35FE97FC11
:10524000BBFC8EFE06FE08FAE3F993F8AFF891FB7B
:1052500005FC5AFC5DFC5BF9BBF967F846F9AAFF4F
:105260005300E10585060D01C4016103F9039108AE
:10527000A808800A880ABC107C10B30ED30E2D0F2C
:105280008E0F1E133D12AC0DB40C0C0A330AC5056B
:105290005F05A5FDE6FCD1FE1AFE7EFE38FEDCF8B9
:1052A00088F982FA51FAE5F8C8F782F461F4B9F3A3
:1052B00002F566FA2CFB5AFE99FDD5FB7FFBD7F968
:1052C000C9FBB5F88EFA29FCF0FBABF9A6F951F54C
:1052D00092F558F8DBF8440000008A009AFE3AFD87
:1052E000D7FC1400E100FD0162018F07BE065608DD
:1052F00044089A011302BB00B900770804086F083C
:105300000908ED03FC0330077807B404DF046100EB
:105310002A00E102D102AB06B306F007600785025E
:105320002B021A00AAFF070108006F011100AD024D
:10533000830127042E031D0010FF20F6D8F4FDF68C
:10534000D8F53BFC50FB59FEFBFDBEF85FF885F538
:105350000CF542FA4BFA8FF77AF7B5F735F706FBFB
:1053600012FB10F888F80AF847F910FD5DFEFC0101
:105370001A0348003402DAFF2501400A990B0B0991
:10538000D30A4604EB053E0C5E0DFD062508A7FA80
:10539000A1FC81FCD2FE47FF3F0128FEA1FEE1FDFA
:1053A00041FEDFFE3E003003DA03B4FF1EFF5D0066
:1053B0004400E803BF0413FC5FFC3F00BAFF5B013D
:1053C000BA0009F89EF708FDAAFB94FFA2FDAAF90E
:1053D00040F765FA3AF86BFE8BFD76FD5EFB08FF41
:1053E000A2FC0E06C1042208E1058C05E402970325
:1053F0001F02F301520151FD4DFCFAFE0EFE7D022B
:10540000830325FE220092FD2FFF57FDCCFEBFF83F
:1054100019FAB4F6FFF8D2F9A7FB7EFE3EFF9AFF19
:10542000C000A204EF060A075209BF076608B907C1
:105430004F081705870676073509810A880B670B21
:10544000A80B03053E0574007401A1028A03310311
:105450003003FF0122027A00C000F4FB69FC28F946
:1054600042F9A5FB26FCBBFC75FD22FF3FFF82FD38
:10547000FCFC80FC58FCBEFCDCFC97FA19FAC1FD70
:1054800057FDCEFD7CFD73F9A7F904FB60FA8AFF96
:1054900095FEB9FC17FC12FFA4FD3000E3FD37FBBD
:1054A00048F844FDC7FAC001C0FF77045F02570502
:1054B000C903490517041C01130093FF99FFEA046F
:1054C000AB042003710322FE1500A0013E031F055B
:1054D000A3068E01C8035801DC03D7044707C7029F
:1054E0003C05CB038B06EA02D90412FFC8FFD703A1
:1054F000F2058303E80690FFDD0150FD2EFF0AF957
:10550000CEFA2AF801FA30F871FAC8FAB8FB8BFE25
:10551000A2FEEEF9FEF9CEFA76F9C2007CFEF6FEA6
:10552000CEFC9C0016FED40301019E039200EC0108
:10553000FDFE2F016BFE5A0114FE40FFB5FC55FF26
:10554000B8FDEE01E9FFE9FEADFC9FFB69F9A5FEA0
:1055500048FC35FF43FD63006DFE5804EB01420239
:105560000400BC00B0FEA90149001D034103B403BF
:10557000CD042B028E0383019F033F02F904A10196
:10558000BC04DE00E50472010D0663FBC9FF3EF9B1
:105590009EFD26FED802CFFDB002D2F932FE01F9FF
:1055A00002FD22FCBEFF36FD9DFFE8FD050041FE29
:1055B0007C009AFC70FD77FDEAFDE3FE9FFFB8FFDB
:1055C0009CFE91FF3CFDB7FF01FD870304009F0394
:1055D0003B00C30123FE7603E1FEF605F7001A0740
:1055E000B801C6079D02BF084204080825036005EC
:1055F0008600BA0263FE4DFF3AFC1DFEC3FCD6FDD9
:1056000090FCEBFBDAFA390067003403BA0351FD72
:1056100061FE0FFE7B004302370536FE7101F5FB8C
:105620005EFF4EFF2C03D1FEFA02F9FC290053FC69
:10563000DBFFCDF95FFEB7FBB0FFD3FBDEFFC9F99F
:105640009CFE54FCD7FF06FDD6FF48FED3016F0039
:10565000B3029901920128026801D800590058014B
:105660006800C7025001D00018FF2702D9FFD406F6
:10567000D10389047B01EF035500FA0355FF0502AE
:1056800018FE67029BFFFC00FBFDD40169FE1902B6
:105690002AFF4602B8FF4403BD0051013BFFC7008B
:1056A0009AFF590043FF61FE13FD03FE19FE65FFDB
:1056B000600046FF3B0003FEA4FFCAFC9BFE3CFDCE
:1056C000E5FEC8FAAEFDCFF6F4F91AFB4AFD3FFE3F
:1056D0001801C6FD4F0170FF41025D00A00212FFDC
:1056E00015014300B101BE044B0600033404D3FE90
:1056F0007AFEFA01FD007B031703A8000B003201BC
:1057000030FFA602D3FF100166FEF801F8FF140374
:105710006A013501D8FFD9016500E4003DFF600052
:105720001AFFB901A300CEFF9BFECDFBEAFA16FCDF
:1057300040FC6700E700FBFEA6FEAEFB35FBD0FE9B
:10574000A5FFCAFF150161FC4EFE2DFC43FF58FF6B
:105750001801B1FE86FF69FD07FF88016302C702D9
:105760008C02ECFEA4FF17FFFFFF5C024E02A800B4
:1057700078000000FFFF5B022102410170006B0214
:10578000AD01DC0214026F010900E5020D010A01FE
:10579000D6FEE9005FFE7E0317015F03BC01030430
:1057A00094028E02450193001B002A023D027901FA
:1057B00072014FFF91FFAFFDBFFE11FCC5FD66FCFE
:1057C0009DFE55FBDEFD21F928FCCCF9A9FC7CFAF5
:1057D00070FC6CFB2FFD78FB22FD6AFA9FFCB1FC8C
:1057E000D7FFEBFDBC00AFFD8FFF75FE10FF09FF7B
:1057F000F3FE050036008C00CCFF3801A6FF6801DF
:10580000A500310198FF44003AFEC2FF0AFFED00F7
:105810006EFFA5017FFFAE0298007603A500A003EE
:105820004E016104DF02EC031102060258008802F7
:10583000670101047A02500431029F030E02CC0179
:10584000F1019701E001D602FE0294039C048B0251
:10585000550393FF3801B5FD7E00E3FC8FFE61FC2C
:105860000FFDAAFC5AFDCAFC89FDBCFC85FEF5FBB8
:1058700047FE62FBDAFC2CFBC4FC00FADCFB19FBE4
:10588000A4FC59FDF3FEDEFBB3FD7EFBC1FC75FEFF
:10589000C1FE07002C00760048009800E6FF80015A
:1058A000CDFF94023800AC0222019704F302C20536
:1058B0002603E2049902740409031704A902570598
:1058C0009C0444056C05D40386031204F1033C02D6
:1058D00089035201BC029202A8023E006A0178FECE
:1058E000B1008F0026019A013802B3FF41011DFF6C
:1058F000C3FF69000301E2FE5800E5FD65FF3BFFC1
:10590000C0009DFD9AFF4EFC7FFE4EFCDCFD5CFA64
:105910001BFCCFF958FC7BFB07FD09FC44FCB1FCE8
:105920006FFC22FE7DFDA7FE6CFDBDFEE2FCDCFFF0
:1059300090FC1BFF2EFC4AFE4AFC31012BFEBC01F1
:105940003EFE8D0110FEE402E7FF3703A400A8032A
:105950007C0158021101F2024D00FA03DE00EA0256
:105960005C02DE03EC03C103360238024401AF02DD
:105970000E0323030603DE006D0123FF1501EEFF76
:10598000E00195FF8801CDFDBC003BFDD80073FE12
:105990001C014EFEC00051FDB60055FDB9003DFC96
:1059A000C0FEE3FBDAFD59FC9EFEFFFC8EFEBBFC55
:1059B00045FE4EFBDCFCA9FCC5FCDBFFDCFF5CFF0D
:1059C00077FF4AFD9BFC0FFE1EFDAAFFA8FE6C00A0
:1059D00077FFDB00F3FF7C01BAFFD701ADFF610168
:1059E00090FFB901E4FFD90255007702CBFF9C027A
:1059F0008D009B03D200630234FF2E02DE00FF0104
:105A0000B7017101A400BD02940226027C038B0041
:105A1000570151003C0028006B029AFFF702330047
:105A20003C01ADFF6A01F3FD150188FDE2FEC5FEF4
:105A300026003BFF170248FE7A008DFF1301E8FFA6
:105A40000C0168FE40FF6EFF3100E1FFAC0042FE3A
:105A5000E2FFB0FF2400D800E7FF5300E9FEC300D7
:105A60000BFF7A00AFFF2B016C00EC013B00A400A0
:105A70003DFED400A8FE07022F0077009AFECAFE62
:105A8000CBFD2E017DFF2503FAFF5101E7FF6B01DE
:105A9000BB00FA01C9FF4B00B0FFDA003101A102DF
:105AA000A5017902AD0232026A03FA01CD02BAFF02
:105AB00018018FFE9B00BAFE650197FE5E00F4FDA3
:105AC000CBFF74FD27000FFF4E00B3FE0700A8FDBB
:105AD000C9FF69FF87006AFF19008EFE0500B5FF48
:105AE000E90066FF23003CFF7B001201B201F1FFD9
:105AF000A9FFC6FDADFDBBFD0BFE46FE11FEF5FE8A
:105B0000C2FD97FEC4FD3DFF8EFEFFFF5CFE78FFE9
:105B1000D6FDC8FF7EFE20013EFF10027AFF540131
:105B200023FF7B0154FF21013FFF92FF65FE1C0014
:105B3000E9FD15011DFF7D00780078FF97FFE3FE6A
:105B400039FF4AFF60002300A20085FE83FFDEFDCF
:105B5000FCFFB2FF44021EFF33014CFF4A005C0011
:105B60004E020BFF5F01F5FE6100EAFF1602F3FF34
:105B7000F501FFFEA400F3FC3CFF1DFD3CFED3FE3F
:105B8000D0FE32FE31FF3CFE78FE5DFFF8FDA6FF41
:105B900044FEB0FF2BFE24006AFE49013AFF3C019F
:105BA00085FFA3000800D901A9FF2F020CFF6A009E
:105BB000A8FFE7FFF6FF81005900BE003D01390054
:105BC000E7006BFF56FF0CFF29FF66FF44008400CF
:105BD0000D0164017D017701A5016702C501ED0298
:105BE000D0012F02EF017D02E501F10141014500E5
:105BF000AB00C2FF4A00D6FF46FFD7FF7CFE93FFF3
:105C0000E4FE3AFF94FED1FF91FE68FF14FFD5FE3B
:105C10003AFE680019FFB8013C015C022D01D10277
:105C200041007902D3005A01B100BB00EBFF7B00B9
:105C30006B001700CDFF71FF98FE9AFEB2FE41FF88
:105C40001500ACFF9B01C8FF46022600C801B2FF49
:105C500052012E00D401230136020F019902810066
:105C6000FD010A00650103FF25027EFECE01B2FFA1
:105C7000C601BCFFC80180FD5DFF7AFD0DFF69FE16
:105C8000B5002FFE73007CFF21004800C7FF820093
:105C9000F2FF5B017000B5010EFF7501ADFE6F00F4
:105CA000F7FEE0FF16FEDF0032FFC5004EFFDAFF11
:105CB00053FD0E0067FECBFF68FE5CFECFFB7AFE55
:105CC000FFFC8DFFC5FDE1FEE5FBF0FE4FFC5BFE3A
:105CD0001FFC29FE7AFB9CFFB4FC5FFF76FDD7FE1C
:105CE0003EFDCBFE48FD54FE1AFE29FE62FF1AFE61
:105CF000CAFFF2FD030004FE8F0069FD1D00AFFC2A
:105D0000E0FF79FD9B00C2FE6B010CFFA40264FF63
:105D10009203A6008603EE002104F4007604F70146
:105D20004C04FA028F03DF027E026901CD02DC001F
:105D30004C01E700BCFF8900FDFF9D002EFF040120
:105D400042FEF401D2FE5D02D5FF6402D7FE8C0252
:105D5000EBFDBC019EFE2301EFFE7401A2FEA30138
:105D600094FE680141FFF8FFCCFE56FF31FE27018B
:105D7000D6FF5501D3001A008000270080009DFF48
:105D80003A0072FF8401D9FF0C03AFFF4B022400DD
:105D90003D038DFF1F057BFE38040BFFF902D4FE87
:105DA000BF03D7FDA203EEFDAF01D8FD200265FDC4
:105DB000830230FD8AFFADFE32FF4200EF00EDFFAF
:105DC000EAFFD8FF7FFE480044FE2F01EEFDA1014F
:105DD00058FDFE00ADFCFF00BDFC7901E3FCF900BD
:105DE000C2FB87007DFB59013EFC160279FDF501DF
:105DF0001BFEF0017AFD2C02C2FD3E01CFFD5B00CF
:105E000007FEC10047FF1101C800D900FF001700BD
:105E1000E4FFA5FFE500ADFF160292FFD10161FE90
:105E20009B0107FDA800E7FDAA0086FEE50196FE9E
:105E300095022EFF160379FE8302F3FD2E0259FE12
:105E40007A03B3FE1B0411FF5D04F6FE720454FFD7
:105E500007031C009D02F5FFC10263FF5D002BFFDD
:105E6000EFFD22FFF4FD1AFF98FE6EFFE3FD6800D0
:105E700047FDD0003EFD360004FCF8FFD1FAD3FF09
:105E800092FBA6FF14FC7D00CEFB3C01F2FBDA0086
:105E90006DFC810066FC950045FCF400BAFDEE0047
:105EA0004BFE25005BFD9FFFC3FDE6FE9BFE5BFEF8
:105EB00077FFF6FE0101E6FF8D0123000F02DE00F1
:105EC0007D03DF011A05E9017105AA02E304AA02B4
:105ED0007C050702420432026D0389015E0402015F
:105EE000210344016A02B4005202E6FF6F0097FFEB
:105EF0001000E7FE7C0196FED8007CFEC3FF9DFEED
:105F0000BFFF28FFD9FFFBFE80FFC0FEC8FEC8FE12
:105F1000E1FE3AFEB4FE37FE58FEA2FE01FE07FE89
:105F200015FDD8FD14FDF8FD0CFD52FDBFFCAAFDCA
:105F3000EBFDC1FED4FEF1FEC3FE09FFAEFF67001C
:105F400041017E01A7019D00220156FFF3FF0C00D5
:105F5000C8FF9D00B6FF3600EBFE2D014D00370255
:105F6000DE0099016CFFB10074FFAD00E6FF8F0009
:105F7000FFFF8500DDFF53019EFFDB017500B601C9
:105F80008000EB011E002102D8012702D9016D0219
:105F9000C0FF85023AFF050269FFCC01E3FFB201B1
:105FA00059008500C0FF2BFF1EFFF1FEA2FFD0FEAF
:105FB0005DFF9CFD31FF83FC140076FCE9FF32FDA0
:105FC000D7FFACFDFB00E5FD0301B6FE0C004FFF63
:105FD0003B001C00BD00F100CF00F1004D009CFF14
:105FE00082FFA2FDC8FE51FD48FE95FE20FFDFFEA8
:105FF000030007FF4E001B0009008D00B1FFF200F7
:10600000CA01D0011F03BD020601ED0275004F0257
:106010000001D101B2FF84026FFFA6027D01A5003D
:106020002C0273026D01020425017F020E023E0064
:1060300096000BF42CF5F3E7EAEA48E326E6D1DD17
:10604000DADE7FD404D5D2CB37CD97C55FC6E1BFAA
:10605000B0BF9BDC63DCBD16B4148F3B9139B44AEE
:10606000864A754F5C4D9E4DCE4AD658E75812640D
:10607000EB65F95E8D606D5F81600B5FA160DF5045
:106080000651B93DD73ABB271B25840C590B4FF558
:106090003BF3BBEBCFE8CDE21FE1A4D141D04FBF32
:1060A0003BBE64B0E3B0EAA3F6A42D9E689EAA9C12
:1060B000249CA79B2F9CFF9F85A0F7A005A0409E36
:1060C000399E93A1F8A149A776A746AE2BB090B808
:1060D00094BAD8C259C4FACC40CF67E0DBE1E504FA
:1060E000C906A9361C3C7C5E4264446BFD6F246D7E
:1060F0006073796D4172216E8F6FBA6FAF706F6C84
:10610000DF6E18678B68B6645F625065C661C35DF9
:10611000AD58D24E1348BD3E983A232DFB29CB20D3
:10612000A61B4113FD0C73FCFBF566E2A0DBCAC99C
:10613000E2C2C8B556B002AAF0A4E4A3569F479F96
:10614000C29C359C9099359D9D9AAFA0FE9F70A2F0
:1061500053A252A4FAA27CA755A72EACB2AB13B39C
:106160006BB1C5BA25BC16C286C32ECBECCBC0D250
:106170005ED7CFD838DE99E28DE63DEFEAF4C3FF73
:106180002204CC119712772246231F312F334D4220
:1061900021443257575824651C661A6C0E6C006EE9
:1061A0003D6CD06EFB6B566A7269CA5E1061C15459
:1061B0005C55D5411840C92E562FD11E111EA0077F
:1061C000FA03C0F7C4F608F2AAF0C7E5A2E1A4D426
:1061D00006D06ACB9BC7C1C32FC1B9BFD3BD4CBFCB
:1061E00085BC61BC54B9CDBC73BA0CC26DBE3EC790
:1061F00003C55AC7DCC543C830C59ACA66C83BCA7E
:1062000018C942D00ED099DBA5DB0CDE1BDF79E389
:10621000ECE501F980FB3CFD4DFFA0F98FFBEC1C88
:10622000C121063084370D25A22BBF2B71302034BD
:106230005E3670338733ED375E37364B484BDC4B79
:10624000724CA83AEF3ABA3EC73D6642473F3541E5
:10625000B53E01466D455D3D033CB52F772C021DD3
:10626000BF18950A6607E1FE64FC08EF36ED83DA95
:1062700096D934CCC5CA83C7B3C42ACB41C798C604
:106280005BC4E0BDA2BD9CBED0BD3EC41FC3DCC686
:1062900074C598CAD3C80BD182D02BD734D831E477
:1062A0008AE560F6EAF500021801E5069E07D516B4
:1062B0002D17C223EE2594215526B923772745258E
:1062C000B1262F1FDB20C11ED822591E8E21601B34
:1062D0000E1EF11E3F239C2420296828882BE31DD5
:1062E000AC22A2109E17790E6C144D0E8A11710B00
:1062F0007410D0FAC601A7F1BBF4E7F185F178F08C
:106300005DEF70F01CF0FFF66CF27AFE6CF4D8FED4
:1063100032F56BFB26F33CF0D9E7D9E892DCB0E527
:1063200056D899E02AD655E4C1DB3FE9BEE0DFE567
:106330002BE0A2E214DFFEDEFFDAE3E14CE0B7EA95
:106340006CE9C0EDCAECF6F3C7F577F956FCECFF43
:1063500033023F0303083F0E401428262E2A7A26D4
