:020000041000EA
:1000000088880020BD290010C5290010C7290010CC
:1000100000000000000000000000000000000000E0
:10002000000000000000000000000000C9290010CE
:100030000000000000000000CB290010CD290010B6
:1000400097100010D74F0010CF290010CF290010B3
:10005000CF290010CF29001075120010CF290010F1
:10006000CF29001015150010391500105D1500106E
:1000700081150010A5150010CF290010CF29001000
:10008000CF290010CF290010CF290010CF29001050
:10009000CF290010CF290010CF290010CF29001040
:1000A000CF2900101F130010CF290010CF290010F6
:1000B000CF290010CF290010CF290010CF29001020
:1000C00000F002F800F046F80CA030C808382418F8
:1000D0002D18A246671EAB4654465D46AC4201D180
:1000E00000F038F87E460F3E0FCCB646012633426C
:1000F00000D0FB1AA246AB4633431847286E0000D7
:10010000486E0000103A02D378C878C1FAD8520776
:1001100001D330C830C101D504680C6070470000BD
:100120000023002400250026103A01D378C1FBD813
:10013000520700D330C100D50B6070471FB500983F
:10014000019906F0AEFB06F08FF91FBD10B506F061
:10015000F7F910BD06F064FB1146FFF7EFFF00F062
:100160007CFD06F0D2FB03B4FFF7F0FF03BC02F006
:100170001AFC000070B505460C46164602E00FCC8E
:100180000FC5103E102EFAD2082E02D303CC03C5A1
:10019000083E042E07D301CC01C5361F03E02178A9
:1001A0002970641C6D1C761EF9D270BD1FB500212C
:1001B0006846017007214172192189014181FC497A
:1001C0008181032181730021017202F052FCF94800
:1001D00002F03BFCF7484078F749C873F54880784F
:1001E0000874F448C0784874F24800798874F1487B
:1001F0004079C874EF4880790875F0480378F04872
:100200000178F04AEC4802F037FC1FBD3EB50446C9
:100210000D46ED48007801280FD101216846018084
:10022000032141801F2181800121018123462A462B
:100230006946012002F0F6FE3EBD0020FCE710B545
:1002400086B00446E1A103C90191009004A802F020
:100250008BFD00BF6846438A028ADEA1002002F0BF
:10026000F4FA00BF002C02D0012C42D123E06846F2
:10027000408A002814D06846008A102810DD00202B
:10028000DB490870102168464181C821C1810021E5
:100290008181C02101720421417202A803F0BAF9E0
:1002A00000BFD4A1002002F0D0FA00BF05216846AB
:1002B000FFF7ACFF1DE06846408A0A2818DA684656
:1002C000008A502814DA5021684641810A21818130
:1002D0004B21C900C181C02101720421417202A8D1
:1002E00003F098F900BFC9A1002002F0AEFA00BFE8
:1002F00000BF00BF06B010BD13B582B0684640898C
:1003000015214902884209D1C6A003C80191009075
:1003100005246946204602F064FE9CE06846408958
:10032000C249884208D1C2A000680190022401A9F4
:10033000204602F056FE8EE068464089BB492831CF
:10034000884209D1BBA103C90191009008246946E4
:10035000204602F046FE7EE068464089B3492331DC
:10036000884209D1B5A103C90191009007246946CB
:10037000204602F036FE6EE068464089AB492431E3
:10038000884209D1AFA103C90191009005246946B3
:10039000204602F026FE5EE068464089A3492631E9
:1003A000884208D1A9A000680190042401A9204630
:1003B00002F017FE4FE0684640899C49253188428B
:1003C00008D1A3A000680190042401A9204602F0EE
:1003D00008FE40E06846408994492731884208D1A8
:1003E0009CA000680190042401A9204602F0F9FDB8
:1003F00031E0684640898D494F31884209D196A144
:1004000003C90191009007246946204602F0E9FDE6
:1004100021E0684640899249884207D191A000684E
:100420000190042101A8FFF7F1FE14E0684640891D
:100430008B49383188420DD1002101910020009074
:1004400001A9684601F006FA69466846007902F09B
:10045000C8FD00E000BF1FBD0FB410B5684640895D
:10046000022807D16846827B03A903317E4800F049
:10047000EAFF0DE06846408979493831884207D162
:1004800000207A4908706846817B0F3001F0B6F988
:1004900010BC08BC04B0184710B5FFB0FFB082B064
:1004A0000446601C04F08EFF012807D102F0E9FA2F
:1004B00000BF6FA1002002F0C8F9A3E1601C04F0A6
:1004C00081FF042819D100203F49087001206D499F
:1004D0000870002046490870644908706A4908702D
:1004E0006249087000BF0623A21D68A102F0BFF98F
:1004F00000BF0120FFF7A3FE84E1601C04F062FF4F
:1005000008280FD100205F4908705F4908702E4904
:10051000087000BF627963A102F097F900BF02F092
:10052000B0FA6FE1601C04F04DFF0121C90388425D
:100530003CD1A17962790802104301281FD1217AA8
:10054000E279080210432028B7D1A17A627A080222
:100550001043012809D100BF5AA1002002F075F90B
:1005600000BF0120184908704CE100BF5AA10020CB
:1005700002F06BF900BF00201349087042E1A17935
:1005800062790802104336491E31884295D1217A9A
:10059000E279080210432D288FD1A17A627A0802ED
:1005A0001043012803D1514908702BE1A4E09FE0DA
:1005B000FF3F000034000020120000203200002025
:1005C0002E000020300000200C000020FC01000064
:1005D00000000000696E74657276616C3A257820BF
:1005E0006C6174656E63793A25780D0A000000002D
:1005F00010000020536574557064617465206F7439
:1006000061206C696E6B0D0A000000005365745523
:10061000706461746520696F73206C696E6B0D0A7C
:10062000000000005541525446000000012A00001D
:10063000FFFF000053594420496E632E424C452071
:10064000312E3000312E302E30000000322E30306E
:10065000332E3030342E3030023A09050A020000C1
:10066000C9FE000000010304EC0000200F00002080
:100670004741505F4556545F4144565F454E440DD7
:100680000A0000000E0000206C0000204741505F6F
:100690004556545F434F4E4E454354454420616494
:1006A00064723A004741505F4556545F4449534392
:1006B0004F4E4E45435445442825303278290D0A83
:1006C0000000000073746172745F747820656E615D
:1006D000626C650D0A00000073746172745F747857
:1006E0002064697361626C650D0A00000D000020D2
:1006F0000020FE49087085E0601C04F063FE0121C3
:10070000C902884210D1FF22F832214615316846CD
:1007100004F0B2FDF64A611D7EA804F0ADFD7EA88E
:100720000FC8FFF799FE6DE0601C04F04BFE01213D
:100730008902884209D10822611DFEA804F09CFDAF
:10074000FF99FE98FFF7D8FD5CE0601C04F03AFECC
:1007500001218903884255D0601C04F033FE102823
:1007600008D10120E349087000BFE3A1002002F096
:100770006CF847E0601C04F025FE802805D100BF1E
:10078000E2A1002002F061F83CE0601C04F01AFED7
:1007900001214902884235D1A179627908021043CA
:1007A000030006F041F906040B121920272E00BFA2
:1007B000DBA1002002F049F800BF22E000BFDEA16B
:1007C000002002F042F800BF1BE000BFE0A10020C3
:1007D00002F03BF800BF14E000BFE3A1002002F0EC
:1007E00034F800BF0DE000BFE5A1002002F02DF8B5
:1007F00000BF06E000BFE7A1002002F026F800BF1E
:1008000000BF00BF7FB07FB002B010BD00B591B097
:1008100002F006F9E4480990E4480A90E4480B9095
:10082000E4480C90E4480D9009A802F085FA0321F1
:100830006846017700214177807F81088900491C43
:1008400068468177807F0421884301466846817726
:100850001021C177002108A801700321417007A869
:1008600002F06DFA0621684681800921C180642169
:10087000018141810621017332214173002181737D
:10088000C1730174012101A8417300218173022108
:10089000C17300210174032141740021817404217A
:1008A000C17400210175052141750021817502F097
:1008B00053FAC249FF20013004F095FDBF49091DDC
:1008C000BF4804F090FDBD4802F076FBBD4802F041
:1008D00085FB002002F0AFFCFFF768FC012108A8AF
:1008E0000176002141760EA90231002004F07BFD43
:1008F0000FA90231002004F076FD0EA802F0E8FCFA
:1009000011B000BD70B5B0480078012847D1AF489C
:100910000068AE494968884241D00024AB49496823
:10092000AA4A1268881A142104F06FFD401CC5B24F
:10093000A6494968A54A1268881A142104F065FD81
:10094000CEB200BF27E0681EA04211DC9F49C968F3
:100950009E4A126888183146FFF758FC002806D0D6
:1009600000259A48006880199849086011E014E051
:100970009649C968954A126888181421FFF746FC01
:10098000002805D09148006814309049086000E0C4
:1009900003E0601CC4B2AC42D5DB00BF00BF70BD39
:1009A00008B50020009004E001226946002000F014
:1009B000D4FC69468548103000F082FD0028F3D150
:1009C00008BD10B582480078401C8149087008466F
:1009D000007802280BDB00200870012000F059FE8F
:1009E0007A4800F082FD002801D1FFF78BFF10BD8F
:1009F00010B5002442E0182C32D008DC002C0DD0B9
:100A0000022C22D0042C21D00A2C2BD113E01E2C36
:100A100027D01F2C1BD0222C24D10DE000212046F2
:100A200000F0A3FB0121204600F0D3F9002120466D
:100A300000F037FA1FE000BF0021204600F095FBD0
:100A40000121204600F02DFA15E000BF00BF002173
:100A5000204600F08AFB0021204600F022FA0AE03E
:100A600000BF08E00021204600F07FFB0021204667
:100A700000F0AFF900BF00BF601CC4B2272CBADB86
:100A800010BD70B504460D460721142000F06DFB23
:100A90000721152000F069FB002C07D00721122048
:100AA00000F063FB0721132000F05FFB0620002805
:100AB00015DBC206D20E01219140464A116000BFEB
:100AC00000BF00BFBFF34F8F00BF00BF00BF00BF1C
:100AD00000BF00BFBFF36F8F00BF00BF00BF00BFEC
:100AE0003D48006800780009000177E00D00002013
:100AF000070200000F0000204741505F4556545F39
:100B0000454E435F4B45590D0A0000004741505F79
:100B10004556545F454E435F53544152540D0A00AD
:100B20007570646174652072737020414343455051
:100B30005445440D0A0000007570646174652072AC
:100B400073702052454A45435445440D0A00000045
:100B5000757064617465207273702054494D4552FC
:100B60004F55540D0A000000757064617465207261
:100B7000737020535543434545440D0A000000005F
:100B8000456E61626C65206C6174656E63790D0AF7
:100B90000000000044697361626C65206C617465DB
:100BA0006E63790D0A000000C06B0010EA6B001044
:100BB000DF6B0010296C0010E76C001000000020B3
:100BC00099040010080000200C000020DC00002028
:100BD0001100002080E100E0500000202907090FEB
:100BE0000843564909680870544800680078802115
:100BF0008843E10180221140084350490968087088
:100C00004E4800680078402188434C4909680870C4
:100C10004A480068807808218843083047490968B5
:100C2000887092004649474800F004FC4648406AF4
:100C300040210843444948620846006A402108436D
:100C4000414908620620002805DBC206D20E0121B8
:100C500091403E4A116000BF70BD72B6FFF7D6FDED
:100C6000032002F01EFB02F030FB012002F025FB06
:100C7000FFF7BEFE01F0DCFA00BF35A1002001F055
:100C8000E4FD00BF08210020FFF7FBFE00BF34A3F6
:100C900036A239A1002001F0D8FD00BF00BF3CA161
:100CA000002001F0D2FD00BF012252023C4925483C
:100CB000103000F0BFFB62B601F0E3FE00BF39A1C7
:100CC000002001F0C2FD00BF37E002F030FB0A2037
:100CD00000F014F93848007801281AD1194800F0BA
:100CE00004FC002815D1012000F0E9FC002806D101
:100CF0000123FF2248323149184600F06DFC1148AB
:100D000000F0FCFB402804DB00202D490870FFF7B1
:100D1000F9FD0C48103000F0E8FB002801D1FFF786
:100D20003FFE2848807E4021884326498876162346
:100D3000254A0421012002F05EFBC6E75000002096
:100D4000FC000020DC0000200080022000E100E028
:100D50005359442052545420496E69740D0A0000BE
:100D600032333A31303A31350000000044656320B7
:100D70003133203230313800535944383832312041
:100D8000424C45756172742025733A25730D0A0033
:100D90005359442D54454B2E496E630D0A000000F3
:100DA000FC0200206761705F735F6164765F73743B
:100DB0006172740D0A0000000C000020C3090010CD
:100DC0001100002060100050F82A0000D34908608C
:100DD000704770B50246202414406309202514464C
:100DE000AC430125A54028469C00CD4D2C592075CB
:100DF000050A6575050CA575050EE575002B13D064
:100E0000002908D1C74D6D7D0543ECB2C54D6D7D00
:100E1000C44E747515E0C34D6D7D85432C46C14DA0
:100E20006D7DC04E74750CE0002905D1BD4C646821
:100E30000443BC4D6C6004E0BA4C64688443B94D13
:100E40006C6070BD70B502462024144063092025F3
:100E50001446AC430125A5402846002B13D0002999
:100E600008D0B04DED7D0543ECB2AE4DED7DAD4EFD
:100E7000F47515E0AB4DED7D85432C46A94DED7D18
:100E8000A84EF4750CE0002905D0A64CE468044394
:100E9000A44DEC6004E0A34CE4688443A14DEC60F5
:100EA00070BD30B50B46202404406109202504465E
:100EB000AC430125A5402A468C00994D2C59227639
:100EC000150A6576150CA576150EE576002B0AD069
:100ED0008C00934D2C592271150A6571150CA57162
:100EE000150EE57109E08C008D4D2C592272150A02
:100EF0006572150CA572150EE57230BD10B5202374
:100F00000340590920240346A34301249C40224660
:100F10008B00834CE3581A73140A5C73140C9C7393
:100F2000140EDC7310BD10B5202303405909202492
:100F30000346A34301249C4022468B00784CE3588F
:100F40001A71140A5C71140C9C71140EDC7110BDC2
:100F500010B520230340590920240346A34301244C
:100F60009C4022468B006E4CE3581A72140A5C7245
:100F7000140C9C72140EDC7210BD30B5014620209A
:100F80000840420920240846A04301248440234607
:100F90009000634C205840301024041925782846CE
:100FA00065782D022843A5782D042843E47824068B
:100FB00020431840002801D0012030BD0020FCE76C
:100FC000F0B503460C46154620221A40500920264B
:100FD0001A46B243012696403146002C0BD18200BE
:100FE0004F4EB258403211720E0A56720E0C967263
:100FF0000E0ED6720AE08200494EB258403211718C
:101000000E0A56710E0C96710E0ED671002D0BD174
:101010008200434EB258203211760E0A56760E0CDC
:1010200096760E0ED6760AE082003D4EB2582032F9
:1010300011750E0A56750E0C96750E0ED675820039
:10104000374EB258203211710E0A56710E0C96713D
:101050000E0ED6710022002A05DBD706FF0E0126F0
:10106000BE40314F3E6000BFF0BD10B520230340AD
:10107000590920240346A34301249C4022468B00A7
:10108000274CE35820331A72140A5C72140C9C72B9
:10109000140EDC7210BD70B500243CE0A0002049A5
:1010A00008584030142141180A7810464A78120234
:1010B00010438A7812041043C97809060843A10036
:1010C000174A515820310A461378194653781B02A3
:1010D000194393781B041943D27812061143084030
:1010E0000546002D00D114E00C480068002804D00B
:1010F00029462046094A12689047A0000849085826
:1011000040300575290A4175290C8175290EC17574
:1011100000BF601CC4B2022CC0DB70BD44000020C4
:101120003C0000204010005000E100E010B50146F6
:10113000272901DA002902DA0020C04310BDCC07BC
:10114000E40F202904DA4A101B480068835C05E09C
:1011500008462038421018484068835C002C01D0B3
:101160001811EBE71807000FE8E770B5272801DA38
:10117000002800DA70BD0907090FC407E40F202812
:1011800004DA43100C4E3668F21805E00646203E9D
:101190007310094E7668F2181578002C01D00F26CE
:1011A00000E0F0263540002C01D00E07310E2E460F
:1011B0000E43167000BFDDE748000020002815DB55
:1011C000C206D20E01219140944A116000BF00BFB7
:1011D00000BFBFF34F8F00BF00BF00BF00BF00BF05
:1011E00000BFBFF36F8F00BF00BF00BF704770B577
:1011F00004460D460620FFF7E1FF894800680078A5
:10120000000900012907090F08438549096808708A
:1012100083480068007880218843E10180221140E2
:1012200008437F49096808707D48006800784021BC
:1012300088437B49096808707948006880780821EC
:101240008843083076490968887092007549764865
:1012500000F0F0F87548406A40210843734948623D
:101260000846006A4021084370490862062000F0E1
:10127000CBF870BD70B56A480068047830206040D3
:1012800005466748006805701020204000280DD0F2
:1012900000BF634800680179634800F003F96048C3
:1012A0000068C078C007C00F0028F2D070BD70B5CC
:1012B00004460D461920FFF781FF59484068007821
:1012C000000900012907090F0843554949680870BA
:1012D00053484068007880218843E1018022114012
:1012E00008434F49496808704D48406800784021DC
:1012F00088434B494968087049484068807808210C
:1013000088430830464949688870920048494648F1
:10131000103000F08FF8192000F076F870BD70B52D
:101320003F48406804783020604005463C484068AB
:1013300005701020204000280ED000BF38484068BB
:1013400001793948103000F0ADF835484068C07870
:10135000C007C00F0028F1D070BDF0B50B460124C6
:101360002404002112E000BF85002D4E7559ED7850
:101370002D07ED0F002DF7D1850075596D785E5C56
:1013800035468600264FBE597570491C9142EADBEE
:1013900000E0641E8500224E7559ED786D07ED0F53
:1013A000002D01D1002CF4D1F0BD70B504460D46DE
:1013B00021011D4A8818294600F082F870BD70B5D9
:1013C00004460D4600BF022C01DB002070BD210148
:1013D000154A881800F089F800280AD1200112491E
:1013E0004018C5682101104A881800F087F8C0B27B
:1013F000ECE70020EAE70146012901DD0020704703
:101400008800074A1058FAE7002806DBC206D20E09
:1014100001219140014A803A1160704780E100E06B
:1014200050000020FC000020DC0000200080022092
:10143000FC0200200023436003608260C1607047AB
:10144000416801607047F8B504460F46154660686C
:101450004019A168884219DBA088281A86B2626800
:10146000E16888183246394603F006FFA81B85B2AA
:101470002068A84202DC2088401E85B2B9192A469D
:10148000E06803F0F9FE65607019F8BD6268E16814
:1014900088182A46394603F0EFFE606840196060FC
:1014A0002846F2E702465368581C5060D068C15481
:1014B00093685068984201DB00205060012070471B
:1014C000024653681068984201D1002070471368A3
:1014D000581C1060D068C05C08709368106898420F
:1014E00001DB002010600120F0E701464A6808682F
:1014F000904201D1012070470020FCE70146002204
:101500004B680868984200DD8A68486880180B6854
:10151000C01A704710B56E480068007E4008400051
:10152000401C6B49096808766A480068002802D0A8
:1015300068490868804710BD10B565484068007E5E
:1015400040084000401C624949680876614840688C
:10155000002802D05F494868804710BD10B55C483C
:101560008068007E40084000401C59498968087620
:1015700058488068002802D056498868804710BDC6
:1015800010B55348C068007E40084000401C5049D8
:10159000C96808764F48C068002802D04D49C8681D
:1015A000804710BD10B54A480069007E40084000E1
:1015B000401C47490969087646480069002802D05E
:1015C00044490869804710BD01468800404A1058C8
:1015D0000078C007C00F7047F0B504460E461546A8
:1015E0002046FFF7F1FF002801D1052C01DB002088
:1015F000F0BDA00037490E50042C13D1A00034498F
:101600000A58517917790902394308469179090432
:101610000843A1002E4A51580D712A0A4A71280C1C
:1016200088710EE0A0002A4909584879097900021A
:101630000843A9B20846A100254A51580871000A7A
:101640004871002B0BD0A00021490858007F4008AA
:101650004000401CA1001E4A515808770CE0A00031
:101660001B4908582030007840084000401CA10069
:10167000174A515820310870A000154908580078C1
:1016800040084000401CA100114A51580870012038
:10169000AEE700B503461846FFF796FF002801D0D5
:1016A000052B00DB00BD9800094908580078400868
:1016B00040009900064A5158087000BFF2E7014601
:1016C0008800034A10580078C007C00F7047000018
:1016D00058000020FC04002070B504460E46154654
:1016E0000E20654909680870681C634909684870DC
:1016F0006148006884702A4631465F480068C01C13
:1017000003F0BAFD70BD08B500BF5CA1002001F078
:101710009CF800BF01F0F8FD002802D000200090E6
:1017200001E001200090012269461620FFF7D4FF56
:1017300008BD38B50446002500BF2CE0E01C415D23
:10174000524802790079401CC3B2504803712038D6
:10175000815420300079202819DB4C492039096A4E
:1017600048014A4A203A202101F0D1FD002802D048
:101770000020009001E00120009000214348017109
:101780002038006A401C41492039086201E00020ED
:101790000090681CC5B2A078A842CFDC012269463F
:1017A0001720FFF799FF38BD38B504463748007950
:1017B000002808D0354A1179203A126A5001334A7C
:1017C000203A01F0A4FD204603F0FCFD05466079B7
:1017D00021790002084303462A460021084601F009
:1017E000A1FD002802D00020009001E0012000901F
:1017F000012269461820FFF76FFF38BD70B5044617
:101800000E4625462878162804D017280BD018280D
:101810001ED116E00020FEF712FDFFF774FF012035
:101820001B49087014E0A81CFFF783FF18480078D4
:10183000002802D1022016490870002015490870BE
:1018400006E0A81CFFF7B0FF03201149087000BF95
:1018500000BF70BD70B505460C460748006840786B
:10186000821C0D49284603F007FD034800684078B4
:10187000801C207070BD000074000020436D644621
:101880007745726173650D0A000000003005002085
:101890006C0000206D0000206E00002010B5F94C97
:1018A000032020616061F8A0A061FA49E161012193
:1018B000490321620021A1626162E162F2A0206617
:1018C000F54961661021A16600212167E166616723
:1018D000F2A1E01D03F088FCF1A1204603F084FC96
:1018E0002020A07110BDF7B582B004461746002035
:1018F0000190E56800BF206900900098A84203D9D4
:101900000098401B461E04E0A1680098281A401C5D
:101910000E1AA068401BB04201D9304601E0A06811
:10192000401B0646BE4201D2304600E0384606461D
:10193000616848193246039903F09EFC01988019AA
:101940000190039880190390BF1BAD19A068A842AD
:1019500000D10025E560002FCDD1019805B0F0BD84
:10196000F7B582B004461546E668A068871BAF420B
:1019700008D9616888192A46039903F07DFC70191B
:10198000E06010E0019761688819019A039903F0FB
:1019900073FCE81B0190039AD1196068019A03F067
:1019A0006BFC0198E06005B0F0BD38B505460C460B
:1019B000FF2168460170BC48015D68464170022203
:1019C00069462846FFF78FFF38BD10B501460A6902
:1019D000CB689A4204D88C68641EE41AA01801E00F
:1019E000D41A601E10BDF7B584B0174600BFA548D5
:1019F0000078002801D1FFF751FF00BF182104989B
:101A00004843A04960314618059801903569F0684F
:101A10000290002003900298854219D9B068441BB7
:101A2000BC4201D2204600E03846044670684119A5
:101A30002246019803F020FC0398001903900198B6
:101A4000001901903F1B2D19B068A84200D1002554
:101A50000298441BBC4201D2204600E038460446AE
:101A6000002C0DD0706841192246019803F004FC47
:101A70000398001903900198001901903F1B2D193C
:101A80000398002800D03561039807B0F0BDF8B581
:101A900004460D461646EFF310800746012080F3FA
:101AA000108800BF00BF324629462046FFF79BFF43
:101AB0000090F8B280F3108800BF00BF0098F8BD16
:101AC000F7B582B007461646039801901820784370
:101AD0006C49183144182169E068884202D1A06835
:101AE000451E0EE02169E068884204D22069E16861
:101AF000401A451E05E02069E168401A401EA168B1
:101B00004518AE420CD92069711B4018206103E0D2
:101B10002069A168401A20612069A1688842F7D233
:101B2000E168A068451A00BFB5420AD9E268616859
:101B300088183246019903F09FFBE0688019E06045
:101B400010E0E268616888182A46019903F094FB66
:101B50000198401901900020E060761BA068451EA6
:101B6000002EE1D100BF05B0F0BDF7B584B0164638
:101B700005980390182104984843424918314418A5
:101B800020690290E5680298A84236D8A068401EF5
:101B9000471BB7420AD3616848193246039903F0DC
:101BA0006BFBA819E060012007B0F0BD02983F1858
:101BB000B74231D3A068401B01900198B04208D9C8
:101BC000616848193246039903F056FBA819E06092
:101BD00011E061684819019A039903F04DFB0198DF
:101BE000321A019B0398C1186068009003F044FB0F
:101BF0000198301AE0600120D6E70298401B471E8A
:101C0000B74209D3616848193246039903F034FB9F
:101C1000A819E0600120C7E70020C5E7F7B582B04A
:101C20000746164603980190182078431549183145
:101C30004018009000984069002804D0012811D075
:101C400002283AD132E00098FFF7BFFE0546B542C0
:101C500001D2002405E03446324601990098FFF78E
:101C60007FFE2CE00098FFF7B0FE0546B54201D29A
:101C7000284600E030460446224601990098FFF7C6
:101C80006FFE1CE0007F02205465726D696E616C0E
:101C90000000000038050020382500205254540070
:101CA00053454747455200007800002032460199CD
:101CB0000098FFF718FE044601E0002400BF00BFB3
:101CC000204605B0F0BDF8B504460D46164600BFE7
:101CD000FE480078002801D1FFF7E0FD00BFEFF3D8
:101CE00010800746012080F3108800BF00BF3246F5
:101CF00029462046FFF792FF0090F8B280F3108843
:101D000000BF00BF0098F8BD70B505460C462046E0
:101D100003F090FA0646324621462846FFF7D3FFE5
:101D200070BD70B503460C4618255D43E74E183666
:101D3000A919CD686A1C8D68954200D100220D69F1
:101D4000954205D0CE684D68AC55CA60012000E0D0
:101D5000002070BDF3B581B0074600BFDB480078B6
:101D6000002801D1FFF79AFD00BFEFF31080012199
:101D700081F3108800BF00BF18217943D34A18327D
:101D80008C18E1684D1CA168A94200D10025216989
:101D9000A94206D00299E3686268D154E560012641
:101DA00000E00026C1B281F3108800BF00BF3046BA
:101DB000FEBDF3B581B0074600BFC44800780028D7
:101DC00001D1FFF76BFD00BFEFF31080012181F31C
:101DD000108800BF00BF18217943BC4A18328C1804
:101DE000E1684D1CA168A94200D100256169022962
:101DF00003D100BF2169A942FCD02169A94206D0C4
:101E00000299E3686268D154E560012600E000268B
:101E1000C1B281F3108800BF00BF3046FEBD38B5A7
:101E2000012269460020FFF732FE0446012C02D150
:101E30006846047801E00024E443204638BD10B52C
:101E400000BFFFF7ECFF0028FBDB10BD70B500BF43
:101E50009E480078002801D1FFF720FD00BF9B4875
:101E6000056FC06EA84201D0012400E00024204686
:101E700070BD10B5014618204843944C60340219D7
:101E8000D3681069181A10BDFFB581B005460E461B
:101E9000174600BF8D480078002801D1FFF7FEFCEF
:101EA00000BFEFF310810846012181F3108800BFC5
:101EB00000BF002400BF18216143844A60328918A2
:101EC0004968002900D104E0641C80494969A142A5
:101ED000F1DC00BF7D494969A1421DDD1821614344
:101EE0007A4A603255501821614389184E60182192
:101EF000614389188F60002218216143734B60335E
:101F0000C9180A6118216143C918CA6018226243BE
:101F1000D2180499516101E00024E443C1B281F375
:101F2000108800BF00BF204605B0F0BDFFB581B0EE
:101F300005460E46174600BF64480078002801D1C8
:101F4000FFF7ACFC00BFEFF310810846012181F3DD
:101F5000108800BF00BF002400BF182161435B4A06
:101F6000183289184968002900D104E0641C5749D7
:101F70000969A142F1DC00BF54490969A1421DDD94
:101F800018216143514A183255501821614389186C
:101F90004E601821614389188F6000221821614327
:101FA0004A4B1833C9180A6118216143C918CA601D
:101FB00018226243D2180499516101E00024E443DD
:101FC000C1B281F3108800BF00BF204605B0F0BD4C
:101FD000FFB581B004460E46174600BF3B48007867
:101FE000002801D1FFF75AFC00BF38480069A04221
:101FF00030D9EFF310810846012181F3108800BF2A
:1020000000BF002C18D018216143304A18325650B6
:102010001821614389184F60182262432B4B1833F3
:10202000D21804999160002218216143C9180A61ED
:1020300018216143C918CA6018226243234B183320
:10204000D2180A995161C1B281F3108800BF00BF54
:10205000002501E00025ED43284605B0F0BDFFB5A1
:1020600081B004460E46174600BF18480078002885
:1020700001D1FFF713FC00BF14484069A04232D9D8
:10208000EFF310810846012181F3108800BF00BFE3
:10209000002C18D0182161430C4A60325650182188
:1020A000614389184F6018226243084B6033D2188D
:1020B00004999160002218216143C9180A6118210E
:1020C0006143C918CA601822624301E0007F022000
:1020D000BA4BD2180A995161C1B281F3108800BF7E
:1020E00000BF002501E00025ED43284605B0F0BD06
:1020F00070B504460E4600BFB0486038007800282E
:1021000001D1FFF7CBFB00BFAC4860380069A042AB
:1021100012D9EFF31080012181F3108800BF00BFB6
:1021200018216143A54A483A5650C1B281F310883C
:1021300000BF00BF002501E00025ED43284670BD2B
:1021400070B504460E4600BF9C48603800780028F1
:1021500001D1FFF7A3FB00BF984860384069A04257
:1021600011D9EFF31080012181F3108800BF00BF67
:1021700018216143914A5650C1B281F3108800BFC3
:1021800000BF002501E00025ED43284670BD70B575
:1021900004460E4600BF894860380078002801D107
:1021A000FFF77CFB00BF854860380069A04213D967
:1021B000EFF31080012181F3108800BF00BF1821C8
:1021C00061437E4A483A89184E61C1B281F3108852
:1021D00000BF00BF002501E00025ED43284670BD8B
:1021E00070B504460E4600BF744860380078002879
:1021F00001D1FFF753FB00BF704860384069A0422F
:1022000012D9EFF31080012181F3108800BF00BFC5
:1022100018216143694A89184E61C1B281F310885F
:1022200000BF00BF002501E00025ED43284670BD3A
:1022300010B5FFF733FB10BDFEB5044600BF5F4885
:1022400060380078002801D1FFF728FB00BF002785
:10225000FF2069460871102C30DA5948005D48713A
:10226000564D483DEFF310800090012080F3108818
:1022700000BF00BF287D8007800F022807D151488A
:102280000470022201A92846FFF72DFB0FE0284623
:10229000FFF79BFB0646022E07D34A480470022232
:1022A00001A92846FFF75CFB01E00027FF430098E7
:1022B000C0B280F3108800BF00BF01E00027FF43D9
:1022C0003846FEBDF3B583B0074600BF3B486038D3
:1022D0000078002801D1FFF7E1FA00BF102F68DA7B
:1022E000364848380290049802F0A4FF0646EFF3FF
:1022F00010800190012080F3108800BF00BF029879
:10230000FFF763FB05460298007D8007800F0028D9
:1023100004D0012817D0022840D12FE0301D85427B
:1023200001D200240EE039460298FFF73EFB324608
:1023300004990298FFF7D7FA0446224801780298D8
:10234000FFF733FB2DE0042D02D20024E44314E018
:1023500039460298FFF729FB281FB04201D93046C1
:1023600000E0281F024604990298FFF7BCFA0446D1
:10237000144801780298FFF718FB12E039460298DA
:10238000FFF713FB324604990298FFF7ACFA0446B4
:102390000C4801780298FFF708FB02E00024E443B0
:1023A00000BF00BF0198C0B280F3108800BF00BF1B
:1023B00001E00024E443204605B0F0BD607F022028
:1023C000780000208800002070B504460E46A568FD
:1023D000681C6168814206D320684655681CA0606D
:1023E000E068401CE0606168A06888420DD1A26886
:1023F00021682069FFF767FCA168884203D00020AC
:10240000C043E06001E00020A06070BDFFB585B072
:10241000064617461D460E9C069802900120039022
:10242000019007E03946029802F0E5FF029001981A
:10243000401C01900298B842F4D20198854200D91C
:1024400001950F98C007C00F00281DD1002C1BD08C
:1024500002210F980840022804D1002D02D130201B
:10246000009001E02020009008E0641E30460099B2
:10247000FFF7AAFFF068002800DA04E0002C02D081
:102480000198A042F1D300BFF068002848DB0FE0BC
:10249000012D01D96D1E08E00399069802F0ABFFEB
:1024A00004900498B84200D203E003987843039064
:1024B000EEE700BF00BF0399069802F09CFF04906E
:1024C0000399049848430699081A0690FE4A04980E
:1024D000115C3046FFF778FFF068002800DA07E06B
:1024E0003946039802F087FF039003980028E2D151
:1024F00000BF0F98C007C00F002811D0002C0FD0CC
:1025000008E0641E20213046FFF75EFFF0680028D7
:1025100000DA04E0002C02D00198A042F1D300BF01
:1025200009B0F0BDFFB585B006460F460F9D0E9C65
:10253000002F01DA784200E0384603900120049031
:1025400007E00799039802F060FF03900498401C8D
:102550000490079903988842F3DA0499089888420E
:1025600001D908980490002C06D0002F03DB04202A
:102570002840042800D1641E02202840002802D0F0
:102580000898002815D0E807C00F002811D1002CAA
:102590000FD008E0641E20213046FFF715FFF068D9
:1025A000002800DA04E0002C02D00498A042F1D305
:1025B00000BFF06800283ADB002F05DA7F422D21AA
:1025C0003046FFF701FF07E004202840042803D12C
:1025D0002B213046FFF7F8FEF068002827DB0220A9
:1025E0002840022818D1E807C00F002814D1089805
:1025F000002811D1002C0FD008E0641E3021304695
:10260000FFF7E2FEF068002800DA04E0002C02D0B8
:102610000498A042F1D300BFF068002807DB0195C1
:10262000009439463046089B079AFFF7EFFE09B041
:10263000F0BDF7B59AB00D46144602A8159040209B
:102640001690002017901A9819900020189000BF3B
:102650002E786D1C002E00D1E4E0252E79D10027C4
:102660000120149000BF2E78232E12D02B2E0CD0D8
:102670002D2E02D0302E10D103E0012007436D1C17
:102680000EE0022007436D1C0AE0042007436D1C86
:1026900006E0082007436D1C02E00020149000BFF4
:1026A00000BF14980028DED1129000BF2E78302E83
:1026B00001DB392E00DD08E06D1C0A211298484329
:1026C0003146303940181290F0E700BF00201390D7
:1026D0002E782E2E11D16D1C00BF2E78302E01DBEE
:1026E000392E00DD08E06D1C0A211398484331465D
:1026F000303940181390F0E700BF2E7800BF6C2EE1
:1027000001D0682E02D16D1C2E7800E000E0F6E7C3
:1027100000BF702E63D008DC252E72D0582E38D022
:10272000632E09D0642E71D114E0732E40D0752E23
:102730001FD0782E6AD12BE02168081D2060086820
:1027400014901498C0B2019015A80199FFF73CFEAF
:102750005DE05FE02168081D206008681490129811
:10276000019700900A2215A8139B1499FFF7DAFE2F
:102770004DE02168081D20600868149012980197A8
:1027800000900A2215A8139B1499FFF73FFE3EE024
:1027900000BF2168081D20600868149012980197F6
:1027A0000090102215A8139B1499FFF72FFE2EE01E
:1027B0002168081D20600868019000BF0198067814
:1027C0000198401C0190002E00D106E0314615A86A
:1027D000FFF7FAFD18980028F0DA00BF17E021682B
:1027E000081D206008681490002008210B46102264
:1027F0000091019015A81499FFF708FE07E000E08A
:1028000004E0252115A8FFF7DFFD00E000BF00BFB1
:102810006D1C03E0314615A8FFF7D6FD1898002877
:1028200000DB15E700BF189800280BDD179800287B
:1028300004D002A9179A1A98FFF745FA1799189821
:102840004018189018981DB0F0BD0FB438B5044664
:1028500006A800906A4620460599FFF7EAFE05465D
:1028600000200090284638BC08BC04B01847FFB5CB
:1028700081B00D4616461F460024002D03D0294680
:102880000198FFF7E2FF00242BE02046E117490FF3
:102890000918C910C900611A04D1A2B20BA101988C
:1028A000FFF7D3FF325D0BA10198FFF7CEFF601C4D
:1028B000C117490F0918C910C900411A03D107A14E
:1028C0000198FFF7C2FF0BE04E6E00105B2530341D
:1028D000785D200025303278200000000D0A0000CD
:1028E000641CBC42D1DB2046E117490F0918C9100E
:1028F000C900611A03D003A10198FFF7A6FF05B034
:10290000F0BD00000D0A000010B50446274920461E
:1029100004F098F8254802F020FC10BD70B504467C
:102920000D462349204602F009FD002801D1214827
:1029300070BD2149204602F001FD002802D11D484A
:10294000401CF5E70020F3E7014600207047F8B58A
:1029500004460E46154600271648844206D12A46EC
:1029600031460020FFF7AFF9281AF8BD3846FCE7DA
:1029700010B50446002010BD01460120C00381426D
:1029800001DD012070470020FCE70246002070476F
:1029900001460020C04370470146002070470346AF
:1029A00001207047704700BFFEE700007C37002021
:1029B000646E0010028000006B6E001007488047B4
:1029C00007480047FEE7FEE7FEE7FEE7FEE7FEE713
:1029D00004480549054A064B70470000FD290010D0
:1029E000C1000010883800208888002088780020E6
:1029F000887800200348044908607047014802496C
:102A00000860704740787D018C000020FE4920223C
:102A100008781043EF2210400422104308707047DA
:102A200010B5FA488047002802D001F086FF012047
:102A300010BDF6480A300047F44928310847F349E9
:102A40003C310847F1496C310847F1490847F049E2
:102A50005C310847EE496A310847ED49763108474D
:102A6000EB4986310847EA4994310847E849A231E1
:102A70000847E749AE31084730B4E64CA44630BCBD
:102A80006047E44874300047E3480047F8B5E34D39
:102A9000CF222968E24C0878002610400870206890
:102AA000E04918308847286822680178127F0909B0
:102AB00012070901120F114301700907090FBF27FF
:102AC000012921687ED00A4622314B7809781B0201
:102AD0000B43114620310B711B0A4B710378117A9D
:102AE0003B4089010B435906490E01702268417829
:102AF0004032127A8909921D92068901920E114381
:102B0000417021680622801C093102F0B5FB216862
:102B10004820425C002A04D028684931083002F07D
:102B2000ABFB2168BF4A7020405C323A713190475C
:102B30002868BD4A41788906890E891C9047286813
:102B4000017809090901091D017022683940127ACA
:102B5000D207520E11430170226841782032127A56
:102B60008909921D92068901920E114341702168D4
:102B70000622801C093102F07FFB21682820425C7C
:102B800028682931083002F077FB2868A74A417885
:102B90008906890E891C9047256800206F7F0121D6
:102BA00081400F4204D0E97F0B2251438E19761CDD
:102BB000401C0328F3D32C4620346078217800028F
:102BC000084300E019E013214843401CB04206D2FC
:102BD000701E02F010FC401C2070000A60706078CB
:102BE000217800020843022803D20220207000202E
:102BF0006070287F012824D03AE00B4620318A7982
:102C0000CA71197A0278C9073A40490E0A4302701C
:102C100051062268490E6032127CD20111430170C4
:102C200041780622890989010C3141702168801C94
:102C3000093102F021FB2868216806220830713131
:102C40006DE7E079002813D0607822780102114303
:102C500013204143A079491CC00302F0CCFB401C67
:102C600006467F2102F0C7FB401CC1B2E1711EE0A5
:102C7000607921790002084331D06078227801021E
:102C80001143132041432846223042780378100232
:102C90001843C003491C02F0AEFB401C06467F21CE
:102CA00002F0A9FB401C81B22171080A6071304614
:102CB00002F0A1FB401C7F2800D97F200121E9758B
:102CC000A97F00916178237809021943584CEA7F63
:102CD000C0B23B46A047564834308047F8BD00207C
:102CE000544CE875034602460121A047F8BD4A4905
:102CF0001A3108474848F43000474F48004738B574
:102D0000049C00944C4C0E34A04738BD30B44A4C5F
:102D1000E834A44630BC604710B501F0F9FE10BDA0
:102D200010B501F011FF10BD4349A43108474348D5
:102D300000474248323000474049463108473F4942
:102D4000B23108473D49C23108473C4AD0321047AA
:102D500010B500F0E3FD10BD3849FC310847384993
:102D6000084737490E31084735493631084710B50D
:102D700001F0B4F810BD3349084729480068817C48
:102D8000427C0802104308D01F4A022011780143F8
:102D90000120014311702B4908477047F8B51A48C4
:102DA000C079000679D51E480668B17C707C0F0298
:102DB00007431548057801D0A80701D468076CD5EA
:102DC000114C207BE17A0002E41C084365D0002FFF
:102DD00063D060782178000208434DD1307CF17BCC
:102DE0000002084302F0D5FF0022174B02F0D4FF87
:102DF00002F082FF80B278430A2102F006FB400411
:102E0000010C2170080A21E012360020DF56000074
:102E10001558000027590000CD5B0000B0000020CD
:102E2000AC000020451D00002B26000047270000B5
:102E3000971B000031540000F55C00005B5E000051
:102E4000675F0000B56000000000F43F6070307DF7
:102E5000F27C000210430A224243914203D3401EF7
:102E60002070000A6070607821780002084303D166
:102E70000120207000206070FD210D400121F648E6
:102E80000D430570F54900208847607822780102DB
:102E90001143F44BF24A09209847F8BD10B50F21B1
:102EA000ED4802F046FA10BD7CB50546401C02F024
:102EB00089FA082831D0E84C00263E3C042831D05D
:102EC000802874D0E449C31F0A78FF3BFA3B18D02E
:102ED00001218903884263D1E2490A2024318847CD
:102EE00060780621484301190A22681D891C02F0F6
:102EF000C3F96078401CC0B260700A2857D366706E
:102F000055E0C879002852D0D00650D4AB796C79FE
:102F10001802204301280AD049E001F015FED248EA
:102F2000804744E066702670FFF7B8FF3FE088787E
:102F3000401E0006000E88702AD0C7484B78817961
:102F4000427909021143827A447A12022243401CD8
:102F5000012B23D0521A0272120A42721206037A0D
:102F6000120C1A43531A69460B804A80BA490A7BED
:102F7000C97A12020A4369468A80417B027B0802B1
:102F800010436946C880B8496846E83188470EE072
:102F9000087A8870402002430A7008E05218DAE785
:102FA000910604D58004000F01D0FFF7F7FEAF496A
:102FB0002846C96888477CBD10B50446001D02F04C
:102FC00001FAAA49C860211DA94802F00CFAA949D2
:102FD0002046884710BDA74922310847A5497831C6
:102FE0000847A44A803210479C4A7A3A10479B48C7
:102FF00072380047984900203E390A7849788A4259
:1030000000D90A200818801A401EC0B2704700B5C7
:10301000FFF7F0FF002804D18F4800213E384170AF
:10302000017000BDF8B50E46074693491C4615468B
:1030300001208847002805D023462A4631463846D5
:1030400001F042FDF8BDF8B50E4604468A491F4618
:10305000154601208847002814D0022C03D1FFF721
:10306000C9FF002809D0EAB27C4D3B4631462046D4
:103070006A3DA847012807D004E00A21794B7F4A1E
:10308000084698470020F8BD022C12D1724C062148
:103090003E3C20780A46484300193146801C02F025
:1030A000EBF82078401CC0B220700A2801D3002021
:1030B00020700120F8BD70B50D460446112140195D
:1030C00089031646884201D3002070BD6C48006811
:1030D000213002F077F96B4B0019324629469847A8
:1030E00070BDF8B50646EFF3108472B6644D2868DB
:1030F000213002F067F98019634A0121904784F377
:103100001088614F0024F63FEFF3108572B65C48DB
:103110000068213002F056F9311940185B4900234C
:103120000A192021B84785F31088012000032034B4
:103130008442E9DBF8BDF7B5070501993F0D002989
:1031400012D0029900290FD04849897800290BD163
:1031500001997A18012109038A4205D8019A11239D
:1031600082181B039A4201D90020FEBD0025C41B12
:10317000EFF3108672B642480068213002F022F95F
:103180006119401841493F4B4A192021984786F35D
:1031900010880120000320358542E9DB3B48019A75
:1031A000C019029902F068F83349012088470028C5
:1031B0000AD0EFF3108072B62C4901228C808A70FD
:1031C00080F310880120FEBD2046FFF78AFFF9E753
:1031D0002249A8310847214AB032104738B5049C2B
:1031E00000941E4CB834A04738BD30B41B4CC434D6
:1031F000A44630BC60471949CC310847174AD4323D
:103200001047164ADC32104730B4144CE434A4465C
:1032100030BC6047114BEC331847104BF433184760
:1032200030B40E4CFC34A44630BC60471849084703
:103230001748083000471649103108471449D23161
:1032400008471349DA310847124908471148323014
:10325000004710485630004712360020B560000085
:103260007B2D0010D33300008D5E00009000002005
:10327000A92E0010B35F0000458500000F3000103C
:10328000A80000208F1600009F180000D425002001
:10329000B961000017630000F94A1047F84952313C
:1032A0000847F7495C310847F54964310847F44954
:1032B0006C310847F2497631084710B501F0C9FB77
:1032C00010BD10B501F060FB10BDED489030004717
:1032D000EB49A431084730B4EA4CA44630BC6047FF
:1032E000E748F6300047E8480047E74930310847EB
:1032F000E54856300047E44860300047E248143063
:103300000047E14822300047DF4872300047DE4B7B
:10331000D6331847DD4B184730B4DC4C6634A4462E
:1033200030BC604730B4DA4CA44630BC6047F8B5D6
:10333000D8488047D84CA078002809D0A088FFF74B
:10334000D0FEEFF3108072B60021A17080F31088D8
:10335000D24DE87900282CD0000608D528784007FF
:1033600005D5FFF71BFD2878FB2108402870287839
:10337000CB4FCC4E41060AD5BF2108402870022011
:103380006946088002466B4639460020B0472878D7
:10339000C1070ED0400840002870800701D50420E6
:1033A00000E005206946088002226B46394600206D
:1033B000B0476078C10704D0400840006070A06842
:1033C0008047F8BDB8480047B7483A300047B6488C
:1033D00052300047B4486A300047B3486E30004767
:1033E000B2498A69120A120202434A61087C012228
:1033F00010430874704710B572B6A24CA047AC4891
:10340000006801214A02104206D1AA48027ED20772
:1034100002D0027E0A43027662B6012010BD70B56A
:1034200004460320000384422AD9A34803260568E2
:10343000B603E878002802D0012810D01EE0284604
:10344000253001F0BFFFA04202D88019A04217D258
:10345000284629300EE08019A04211D20EE02846FD
:103460002D3001F0AFFFA04202D88019A04207D250
:103470002846313001F0A6FFA042ECD9012070BDF2
:10348000002070BD10B572B68C4A904762B610BD70
:1034900070B514460D460646FFF7C1FF002806D05A
:1034A00072B62246864B29463046984762B670BDB2
:1034B00010B572B6824BAE33984762B610BD10B5E8
:1034C00072B67E4CF63CA04762B610BDF7B500253B
:1034D000C80288B00E462C46070C11E0089861011E
:1034E0000818774B6A4620219847002069460A5CF5
:1034F000401C5219C0B295B22028F8D3641CA4B263
:10350000BC42EBD3F6060898F60E610108186C4B26
:103510006A46314698470020694604E00A5C521921
:10352000401C95B2C0B2B042F8D30A98854202D18D
:1035300001200BB0F0BD0020FBE7FFB50E460121D6
:10354000074609035E4B81B05E4A002098475D49FB
:10355000352208468C3801F08FFE5A48833801F036
:1035600031FF58495722441856482146573801F030
:1035700083FE2021601C01F0DCFE0025002F10D00E
:103580000020395C00290AD02218401CC0B25170BA
:103590002028F6D305E02118401C4D70C0B2202829
:1035A000F9D320460521213001F0C3FE002E12D0B0
:1035B0000020315C00290CD022182032401CC0B2FF
:1035C00051700528F5D306E021182031401C4D70BC
:1035D000C0B20528F8D321462631039801F003FF35
:1035E0002146223104980872000A48720121334AA8
:1035F0002570002090470121314B09030020314AFA
:10360000AE339847012005B0F0BD2F4A10472E4A2F
:10361000223A1047FEB50278002A7DD01F49CA71B0
:1036200042780A72002A01D0042A01D904220A72BF
:10363000C278847813022343184A1C0A5372947286
:103640004479057924022C431546EC72260A2E7320
:10365000A646C4798579200228435073040A84461B
:103660001A489473056808262C7CE87B24020443DE
:103670000120521CA342487031D91C1B30E00000CD
:1036800091630000E9310000576600001B680000EC
:1036900061690000D1640000900000201236002013
:1036A0000002000031540000713C00000010005086
:1036B00000E100E000A00050A80000209F180000DA
:1036C0008F160000D4250020A7290000AC000020A0
:1036D0001071000A01E01671300A507107E0E41A17
:1036E0000F7ABC4226DA1071000A50710C72087A07
:1036F00088700E70002B1BD050791179000208439E
:10370000191A6846018043806146C18071468180F4
:10371000A87C697C000200E010E0084302D07249F6
:1037200000208847714968468847714909208847C1
:103730000120FEBDFF00BC42CDDAC9E70020FEBD7E
:10374000FEB507466B4801780A077DD5F722114080
:103750000170BA797C1C7B7912021A437BD0C27942
:10376000120678D5102211430170880673D462487E
:10377000804705466079217900020843FF1C002834
:1037800032D002F006FB06460091787839780002C4
:10379000084302F0FEFA594F00223B4602F0FCFAC1
:1037A0003246009B02F0F8FA0090554801910068FB
:1037B000017CC27B0802104302F0EBFA00223B4678
:1037C00002F0EAFA07460E46607A217A00020843C0
:1037D000401B02F0D6FA3A46334602F0DDFA019B6E
:1037E000009A02F035F824E078783978000208432E
:1037F00002F04CFC064642480068017CC27B08028D
:10380000104302F043FC314603F02CF902F0E8FBD0
:1038100000223A4B02F0C0FA07460E46607A217A3F
:1038200000020843401B02F0ACFA3A46334602F06D
:10383000B3FA0022334B02F03BF802F05DFA0104C8
:10384000090C00D1012101E00EE004E0284B092021
:103850002D4A243B98470320694608810222110221
:103860002A4C02AB0020A047FEBD38B5284C20787A
:10387000002804D12749684688470120207001208C
:1038800038BD10B50B30102801D9FF2010BD184BE2
:10389000C4B22046243B9847204610BD10B50B30DB
:1038A000102801D9FF2010BDC4B211492046884715
:1038B000204610BD072801D9002070470122824010
:1038C000134843781A4342708160012070470C48C6
:1038D0000068C07D70470A480F4900684118487C5D
:1038E000097C000208437047B5600000755F000066
:1038F000F733000012360020051B00000000F43FE3
:10390000AC000020000024400D2A001031540000BB
:10391000900000209D2C000063050000FE498A787D
:10392000002A00D008707047F8B5FB4CE36859795D
:10393000002914D0B121C95CC91F092958D80146F2
:1039400018461022D93001F097FC60780221012836
:10395000E06805D04279D20611D5F0488047F8BD1D
:10396000CA22125C012AFAD1C279012A03D1EC4998
:10397000E9308847F8BD002AFCD1C171F8BDC27991
:10398000012AF8D1CA21095C012903D00021C171A3
:10399000E068ECE760690126017830468840A1695B
:1039A00080250968884300D181250027DD488047AC
:1039B000E168C919E0317F1CFFB24876102FF5D3BA
:1039C000E0682B460146E93102460091FF31F932A9
:1039D0001131D54DFF305A30A8476069007814285E
:1039E00002D2E068C671D3E7E1680020C871CFE772
:1039F000CA4B0622002101208C3B9847F8BDF1B547
:103A0000C54CA4B0E068A278417911432BD0CA21FB
:103A10000B5C2146C24FC9681C370025E931012BD8
:103A200023D006460246713609320491711E531E98
:103A30000196BB4E02930392CA33C23200917A368A
:103A4000FF300A302499B047E16810220846D93087
:103A5000E93101F09BFB00287ED0B04B042200210D
:103A600001208C3B984725B0F0BD0C950D950E9527
:103A70000F95119512951395149543790126DB0640
:103A8000002B01DB002A68D0F930B847A24CA0789F
:103A9000002822D01DA801950090E368A34F184686
:103AA0000146FF30FF31FA305A31F933249AB847D2
:103AB0001DA8013001F086FC18A9097D0002084309
:103AC0009B4901F098FC042201911104994F01AB2C
:103AD0000020B847207800287ED0E16807220F46F2
:103AE00015A8093101F0C8FB39460722713117A822
:103AF00001F0C2FB387A002810A86ED086767020BC
:103B0000C05D002818A869D0867004A83A460190C4
:103B1000F9321046844E15ADC03017AB00954636CD
:103B20002499B047E068102204A9813001F0A4FB79
:103B300008AE0FCE19AE0FC6E16803220E4621A8CB
:103B4000D33101F099FB31460322CC3122A801F098
:103B500093FB3046FF3001E06EE01FE0EA30039057
:103B600017AF21A96846A2C03146704EF93111AB9A
:103B700019A86A3E249AB047E26822A91046FF308D
:103B8000DA300197009103900CAB029519A8F93235
:103B90002499B04768490020884764E75E4A80233B
:103BA000526914783246A2405B4CA4692468A2434F
:103BB00000D1812300910146FF315A315A4CFF3028
:103BC000FA30249AA04754481022C0680146E931CF
:103BD000D93001F0DBFA02E023E029E02AE00028F6
:103BE00001D004221EE04C4CE068F930B84761690E
:103BF0000878401CC0B208701428CED3A1690868A8
:103C0000020C08A8827410A882710888020A08A809
:103C1000427410A84271097808A8017410A80171B3
:103C200034E70C223D4B002101208C3B98471AE7DA
:103C3000857664E7857068E7E0680026F930B84764
:103C4000E368394F1946FF330A33363F1846F931D6
:103C5000249AB847E06810230146A03106E01718FF
:103C60003246FF320A32761CBD54F6B24A7C9F1AA5
:103C7000B742F4DC304900208847E06841794908C0
:103C800049004171EFE6F0B50446C07885B00728D9
:103C900007D2224B0622002101208C3B984705B019
:103CA000F0BD1D4E0121F068CB22115400250622E3
:103CB0002146CC3001F0E0FA1120F16840010818EB
:103CC000A0314E7CC17E827F437F04920A07D20FCF
:103CD000009203934A07CF06D30FFF0F02968A077D
:103CE00001970E4E920F817E407E643EB047A078D1
:103CF00010260007002843DA074A1121D06849013D
:103D00004718FB7E19073BD50121CA2211545A07D7
:103D100015D4A278520711E0A00000205DA1000098
:103D200055A900004D250000B3AA0000FFAB00001C
:103D300040420F0031540000F73300000ED57B7E67
:103D400022789D005B19FE4D5B19D55C882D02D051
:103D5000102D03D005E0FB4A917002E04179314318
:103D600041714179C90634D50B21C9014018C07D84
:103D700001282ED16421F54BF34A0520984728E00D
:103D8000F04F0021F868CA2211541121490141184D
:103D9000CA7E520702D4A278520709D5497E2278FA
:103DA0008B00C918E64B193BC918555C102D02D180
:103DB000417931434171E44AE44B943AE4490020AB
:103DC00098476079C00704D0F868032281791143CD
:103DD0008171607980070BD5DA481121C0684901EB
:103DE0004118897F890703D581790C22114381719C
:103DF000207980070BD5D3481121C06849014118AB
:103E0000497F890703D54179802211434171CD480B
:103E1000C1680846A0304674E278102A00D2427485
:103E2000487901221043CB4C4871202D08D0402DF9
:103E300000D034E700231A4640210020A0472EE797
:103E400000231A462021F8E770B5BE4C0D46E36802
:103E500000281DD020690C2181711946FF312022D4
:103E60005A31C01D01F008FAE1682069FF312022B3
:103E700027307A3101F000FA0621B74A41209047F5
:103E80000B21E068C9014118C97D00291DD01FE040
:103E90001846FF302022FA3001F0EEF92022AF4B15
:103EA000E068A9180E46C01801F0E6F9E368AC4CCA
:103EB0001846FF309A30FF3332462946BA33A047BE
:103EC00029460120FFF7C0FF70BD4079C00602D42B
:103ED000A0780128F8D19C48804770BDF0B5994C76
:103EE0000646E06885B04179C9072AD0FF30102125
:103EF0000A3001F01EFAE068320AC11DF9314E7233
:103F00008A72320CCA72320E0A73CA21095C012508
:103F1000012918D00346064601460933E9365A1EE0
:103F2000713101AF4EC7491E0091C933C332893187
:103F30008C4EFF300A30B047E068C17902292FD09B
:103F40000BE00020ABE6A0690021066062698023D7
:103F50001170E268D179022904D0E068C1790029A2
:103F60002AD02AE000682946814300D18123616874
:103F7000002040314E7D1718E037401CC0B27E76DD
:103F80001028F7D3E068774E0146E93102460091E8
:103F9000FF31F9321131E436FF305A30B047CBE708
:103FA00070497A39E9308847E068CA21095C0129FB
:103FB00002D00021C17100E0C57101206FE670B52B
:103FC0001446604A1B25136922469D71D871000A68
:103FD00018721846093001F04FF9E41C5E4AA0B28D
:103FE0000421904770BD70B51446564A1D251369CB
:103FF00022469D71D871000A18721846093001F0E6
:104000003BF9E41C544AA0B20421904770BDF7B5B7
:104010004C4F5549F86800242546401801F0D2F964
:104020003A69112191718278437812021A43009BF8
:10403000411C9A4238D3019B9A4235D80379C27801
:104040001B021343029A93422ED10278172A35D0CD
:104050003B690622DA714E780A7836021643062248
:104060006243D3181E72360A5E724B790E791B02B8
:1040700033433E69AD1D9619B3721B0AF3723E6954
:10408000C379961933733E69037A92195373374B88
:10409000FA68EDB2D3185A7C1B7C1202641C1A43D6
:1040A000AB1DE4B29A4225D34A790B791102304A0A
:1040B000194391421ED001780818B4E7002C1BD197
:1040C0003B691422DA714C780E78220232431A725C
:1040D000120A5A724A790C79110221439972090A1B
:1040E000D972C11D184610220C3001F0C5F81435E4
:1040F000EDB201E0002C04D00421174AA81C90471F
:10410000FEBD144B0A221020A43B00999847FEBD27
:10411000F7B50C4F1449F86800252C46401801F0FB
:1041200051F93A69092191718278437812021A4350
:10413000009B411C9A4249D3019B9A4246D819E000
:104140008B6E0010A00000205DA10000D3330000A2
:10415000B80B000031540000ED7F00001902000090
:10416000EF2A0000CFA900005D03000063050000F6
:10417000FFFF00000379C2781B021343029A9342A7
:1041800024D10278172A2BD03B690422DA714E78A9
:104190000A7836021643AA00D3181E72360A5E72D7
:1041A0003E69C3799619B3723E69241D9219037A48
:1041B0006D1CD372E4B2EDB2FE4BFA68D3185A7C90
:1041C0001B7C12021A43231D9A421ED34A790B7993
:1041D0001102F94A1943914217D001780818A3E750
:1041E000002D14D13B691221D971827845781102D2
:1041F00029431972090A5972C11D184610220A3042
:1042000001F03AF81234E4B201E0002D04D00421A8
:10421000EA4AA01C9047FEBD0A22E94B08200099FB
:104220009847FEBDF7B5E74FE749F86800252C46EB
:10423000401801F0C7F83A690921917182784378F2
:1042400012021A43009B411C9A423CD3019B9A42A2
:1042500039D80379C2781B021343029A934232D1B0
:104260000278182A39D03B690722DA714E780A7829
:1042700036021643EA00521BD3181E72360A5E72CB
:104280003E6943799619B372C37986791B02334329
:104290003E69E41D9619F3721B0A33733E69037A73
:1042A000961973733E69437A92199373C14BFA68F6
:1042B000E4B2D3185A7C1B7C12026D1C1A43E31D16
:1042C000EDB29A4228D34A780B781102BA4A1943C0
:1042D000914221D001780818B0E7002D1ED13B692A
:1042E0001521D97182784578110229431972090A7A
:1042F000597241799972C179827909021143D9724F
:10430000090A197301461846102208310D3000F0D1
:10431000B3FF1534E4B201E0002D04D00421A74A14
:10432000A01C9047FEBD0A22A54B08200099984783
:10433000FEBD30B4062912D0417C037C0A024178CC
:104340001A430B020478C1788078090223430143A1
:104350008B4207D9012219460820994B1FE0417969
:104360000379EBE70520C002824202D0401C824262
:1043700002D130BC1846CBE69448824203D118469D
:104380008F4B18330BE09148401C824202D130BC65
:10439000184647E7100A2928184602D08C4B30BC33
:1043A00018478B4BE43BFAE7F0B4002865D0854C06
:1043B000487823690A780702834D174315262D1F75
:1043C0005A1CD81C1B2F9E7046D94B780E781B02A6
:1043D0003343302B1AD33023037000264670CE7837
:1043E0008F7836023E431671360A567103710026E5
:1043F0004671C8798979000208431072000A507228
:10440000E06840190373190A417320E003701B0A26
:104410004370CB788E781B02334313711B0A5371A0
:104420004B790E791B02334303711B0A4371C87920
:104430008B79000218431072000A5072487809788C
:1044400000020843E16849190873000A4873F0BC88
:104450000921604A032010471B210170002343708B
:10446000F32313710026567101714671137256724F
:10447000E068401901733146C6E7F0BC704730B4BC
:10448000002816D04F4814210069FB228170C270A9
:1044900000230371504B43711C0A8471C2710022C6
:1044A00002724372190A817209214A4A30BC032000
:1044B0001047002230BC012076E7F8B50546474991
:1044C000082088473F4C0B20E168C0010818807E17
:1044D00001282DD10026374601E0042E04D2E068E1
:1044E0008019A030877405E03D488047E16889194C
:1044F000A0318874761CF6B2082EEED30026384F11
:1045000001E0082E01D2002000E0B847E1688919D7
:10451000A031761CF6B28876102EF2D30026B8476A
:10452000E1688919E031761CF6B24876102EF6D390
:104530000B20E168C0010918487E042802D0052834
:104540001CD01DE0264F0026B847E1688919FF31CD
:104550008131761CF6B24876202EF5D3E068214BE7
:104560000146FF31A1310A7EFF305206520E0A7613
:104570000A46273A47399A30984701E0082048769A
:10458000E16820690E46042787700822C01CC231EA
:10459000B63600F071FE2069042231460B3000F07F
:1045A0006BFE0D210B4A03209047082229460A3151
:1045B000E06819E063050000FFFF0000ED7F0000E8
:1045C0008D530000A00000206503000002280000B9
:1045D0006B430000958C00004808000055850000E2
:1045E0004D250000C5290000BA3000F045FEE06806
:1045F000294604221231B23000F03EFEA068C07895
:10460000032804D02A7AFE4E002A0AD00CE0E06883
:10461000FC4B817D427D080210432A460832294620
:1046200017E0687A002816D0E06801466030C37D44
:104630009A420AD16A7A007E824206D1082228462E
:10464000793100F0A3FD002824D006220021EE4B92
:1046500001209847F8BDE068CA21095C01290BD008
:104660000246BA32FF3011460A30B047E0680222F3
:1046700041791143417112E0417902463943417158
:10468000BA3211468130B047E0686030C07B012803
:1046900002D004E0E068EFE7DC4902208847DC480C
:1046A0008047F8BDF8B501220021DA4B084698474B
:1046B000D94C06202169D94A8870012103209047EE
:1046C000E068D44D417908228B0700270A3D002B72
:1046D00025DA114341710026A847E1688919803124
:1046E0004870A847E1688A1991218854A032761C45
:1046F000F6B25770102EEFD30026A847E16889194B
:104700006031761CF6B24876082EF6D3A847E168E9
:104710006031C875A847E1686031087614E0CA23A3
:104720001B5C012B10D183795B070DD511434171BF
:104730000026A847E168912289195054A031761CBF
:10474000F6B24F70102EF4D3B54903208847AF4D11
:104750000820103DA847002803D0AC4908200A31A2
:1047600088470220A84701283CD10B27E168FF01B8
:10477000C819407D012835D12D2040010A185379F0
:10478000002B04D0012B19D0022B25D02AE00522C2
:104790000020D2018B1809E00A264643761803252B
:1047A000B61835760025401C7576C0B2DD7B854293
:1047B000F2D8E1680120C919087513E061688B78A7
:1047C0009B06DB0FD3718A78DF231A408A70E16879
:1047D00008188179017205E0914B91790720914A7F
:1047E000243B9847884D0220623DA8470028E06896
:1047F000817D407D0FD0090201438B4A0020904704
:1048000081490220483988470420A847002801D060
:1048100086488047F8BD09020143834B01220020EE
:10482000643B9847F8BD3DE710B50278411C002A6B
:1048300011D0022A33D0032A0CD14A780B78110206
:10484000194310295BD0082904D1021DC1781046F4
:10485000FFF76FFD10BD4A780B7811021943062946
:104860000BD003290CD014290ED0152911D0002902
:10487000F0D1001DFEF764FF10BDFFF713FF10BD60
:10488000001DFFF71AFE10BD011D0020FFF7F7FD08
:1048900010BD021D00210846FFF786FD10BD4A78B5
:1048A0000B7811021943012918D003291AD00429C1
:1048B0001CD00C291ED00D29F0D15748C1688A7927
:1048C0005207EBD44A79D209E8D10922920189181A
:1048D00009780129E2D1C069017010BD001DFFF700
:1048E000D2F910BD001DFFF71FF810BD001DFFF726
:1048F00086F810BD011D0020FFF7A6FA10BD031DAC
:10490000C078062813D0587C197C02020A435878D4
:10491000197800020843D9789B7809021943884224
:1049200008D901220146424B1020984710BD587902
:104930001979EAE7FFF76BFB10BD10B588B03D4869
:104940000090401E019000246846048144810621A5
:1049500001824182672181812721C1818482C482B1
:10496000354806903549684688472B480221026A37
:1049700013680B431360426A13680B43136044705F
:104980008470047008B010BDFEB500216846017047
:1049900001710D4601212A4E7F20B047284C0A2084
:1049A0006946223CA047684600780109090168462B
:1049B0000170022001430A20B04701A90A20A04744
:1049C00068460079400704D56D1CEDB2FA2DF4D18C
:1049D00008E0FA2D06D001A90A20A0476846007910
:1049E0004007F8D5684601780A20B0470020401CEF
:1049F00080B2FA28FBD301A90A20A047684621E02B
:104A0000ABAA0000996F0000CB9400005585000010
:104A10000197000057250000A0000020958C0000A1
:104A2000F7330000FB9800006D6E0000017A000073
:104A30008D53000019800100294800109360000088
:104A4000A72900000079000701D40120FEBD002045
:104A5000FEBD10B5F949FA4CC9680028887013D01A
:104A600001281FD002280ED100217F20A04700215D
:104A70000320A04720210420A04702217F20A04737
:104A800003210020A04710BD00217F20A047002166
:104A90000320A04720210420A04702217F20A04717
:104AA0000021EEE700217F20A0471F210320A0471F
:104AB00002217F20A04701210020A04700217F2064
:104AC000A0473F210420DDE710B5012802D00228CD
:104AD0000ED01BE0487A0C7A00022043C00715D0A4
:104AE00048790979000208431946FFF768FA10BDB2
:104AF000487A0C7A00022043800707D54879097963
:104B0000000208431946FFF76EFA10BD002010BDE1
:104B100070B5CA4C6068817EFD2211408176E068E4
:104B2000C84D837F427F20304178007809020143DD
:104B30000120A847606881784906C90FE170817833
:104B4000BF221140817070BD10B5BC4C6068817E81
:104B5000022211438176BB483430804760688178F7
:104B6000BF221140E278D207520E1143817010BD6E
:104B7000FFB51646B14A044650680D46C37881B069
:104B800000211B0702D5002005B0F0BD00BF491C65
:104B900089B26429FAD34030417C8907FCD4A74804
:104BA000C1682D2040010818C07A012804D1FF21D6
:104BB0000531204600F0BDFBA0070127002807D1E2
:104BC0009E482D21C26849015118897A012911D0C6
:104BD0009A48002140680246C03213796354491C48
:104BE00089B20229F9D3217889066178298034D5E0
:104BF000377034E041680846E030427B037B1202A4
:104C00001A43837B1B041A43920C9204A3039B0B4D
:104C10001A430273130A4373120C82734822525CC4
:104C2000C37B5206520EDB09DB011343C373027AC6
:104C3000520852000272027A02231A430272E031D1
:104C4000087A8007FCD4207880066078288001D517
:104C5000377010E0002030700DE00021317000212D
:104C6000A41C03E013796354491C89B22B888B423E
:104C7000F8D8C03047722888801C28806F48406868
:104C80004030417C890702D50498077004E0407CDD
:104C9000C1070498C90F0170012075E7F0B587B00E
:104CA000694800260590684606820672067300244D
:104CB0006649012088470028654803AB02AA04A979
:104CC00010D0FFF755FF002810D15C484068C0782D
:104CD000C0063CD55A4B02AA04A95D48803B9847C0
:104CE000012403E05B4DA847002830D0534DA8684D
:104CF000C278032A03D1A86A00780128D3D0684675
:104D0000007A012801D1002C09D0514C21780807E4
:104D1000000F844605281CD0080744D07AE04E4C8A
:104D20000820A047002807D00220A047002803D170
:104D30006846007B002807D06846008A474A801EE4
:104D4000C1B243489047AEE745493D20884707B088
:104D5000F0BD4448E9680818427901791002084317
:104D6000400705D5A31C222204213F4F0846B8471F
:104D70003C48E968801E0918487A097A000208430D
:104D8000400790D42F487A38804720787022400618
:104D9000C10FE86811540622A11C713000F06CFAB2
:104DA000A01C32492BE0E868C37D022B0FD0002302
:104DB0006030477B8646012F0BD00020034329D06B
:104DC000032A08D07046007A01281AD064E0012333
:104DD000EEE70120F2E7059800906846008A244D2E
:104DE0000838C3B24806C10FA21C6046A847134842
:104DF000C0686030007A0128A5D11E49A01C8847F0
:104E000051E7012F03D01B49A01C884744E0A01C98
:104E10001949FAE76046032895D0042893D1E86839
:104E2000C37D022B2AD000236030407B012800D0B4
:104E30000020034387D0032A22D02DE0A0000020C9
:104E4000A7290000D91B00002C3600204585000052
:104E500024360020B1270000699400003F9C000028
:104E60006F90000083020000EF540000CB1D000093
:104E7000CB6F0000155C0000995D00000123D3E7B3
:104E8000059800906846008A984D801FC3B2480676
:104E9000C10FA21C6046A84705980090019668467D
:104EA000008A0838C3B2207841060007C90F000FF6
:104EB000A21C8F4CA047F6E670B5FFB08D4985B0B7
:104EC0000420884700280BD08A4904201A318847DB
:104ED000894880478949162088477FB005B070BD52
:104EE00087488047002500280FD0864CE06841792C
:104EF0000A075ED58279D3071DD083498130884760
:104F0000E0688179490849003AE0684605807C4DAF
:104F1000794E863592367D4C09E0694601A8A8474E
:104F20000028DAD068460088C1B201A8B047A0477F
:104F30000028F2D0D1E7930709D5734A01467931A9
:104F40001C3277309047E068FD22817908E05307F2
:104F500008D56D49603191308847E068FB2281793E
:104F600011400DE01207F725002A0BDA027A0146FC
:104F70001046654A093142329047E06881792940FC
:104F80008171AAE729404171034677333A22102103
:104F90005F4D0020A8470921E06889014118097880
:104FA00001299AD14079C00997D1E169012008709F
:104FB00093E7A16A097800298FD1E16A097801296C
:104FC0008BD1817D427D08021043524A01219047D6
:104FD000E06A057081E770B54A4E706844784470A5
:104FE0004B4DE00706D0FFF767FF002301211A466B
:104FF0000846A847A00706D5FFF750FE0023022168
:105000001A460120A847600706D543488047002379
:1050100004211A460120A847200707D53E48BC3086
:105020008047002308211A460120A847E00610D532
:1050300070682030407D3149400701D53E2000E0B6
:1050400008208847002310211A460120A847002085
:10505000B070A0060CD500F027F8002320211A46D6
:105060000120A8470023FF211A4601311846A8470E
:10507000600611D51F4901208847002807D0F06835
:105080006030807B012802D17168072048750023B9
:1050900040211A460120A847E00904D000238021BE
:1050A0001A460120A84770BD10B512490120884753
:1050B000002815D01348C16860314A7B012A05D108
:1050C000426860321378082423431370897B0129D6
:1050D00006D14068017C40221143017400214175D2
:1050E0000E48804705486238804710BDCB6F0000EE
:1050F0007D5C0000458500000F2600006F900000D9
:10510000ED340000A00000207BA60000371B00004B
:10511000315400004F6E0000C18D0000498F000027
:105120007047000070B50446C068810713D0800640
:1051300001D5A56A04E0A169606840182169451A93
:10514000204601F049F9002206462946204601F092
:1051500099F8304670BD002070BD70B5002802D0AF
:10516000FFF7E0FF70BD0025074C6E1E08E02046EB
:10517000FFF7D8FF002800D03546206D44086400B2
:10518000002CF4D1284670BD28370020034610B506
:105190000B439B070FD1042A0DD308C810C9121F57
:1051A000A342F8D018BA21BA884201D9012010BD13
:1051B0000020C04310BD002A03D0D30703D0521CE7
:1051C00007E0002010BD03780C78401C491C1B1B15
:1051D00007D103780C78401C491C1B1B01D1921E7F
:1051E000F1D1184610BD0000034670B502460B43CE
:1051F0009B070FD10E4CE60100E008C208C91D1B39
:105200009D433542F9D0D9B21170521C00290DD0FE
:105210001B0AF8E70B78491C1370521C002B05D0B1
:105220000B78491C1370521C002BF3D170BD000089
:105230000101010130B5441C03E00178401C002944
:105240000DD08107F9D10B4BDD0104C8D11A914370
:105250002940FAD0001B0A0603D0C01E30BD001B37
:1052600030BD0A0401D0801E30BD0902FCD0401EB2
:1052700030BD000001010101F8B5042A2CD38307D9
:1052800012D00B78491C0370401C521E83070BD0B0
:105290000B78491C0370401C521E830704D00B7806
:1052A000491C0370401C521E8B079B0F05D0C91A66
:1052B000DF002023DE1B08C90AE0FAF75BFFF8BD18
:1052C0001D4608C9FD401C46B4402C4310C0121FA7
:1052D000042AF5D2F308C91A521EF0D40B78491CDF
:1052E0000370401C521EEAD40B78491C0370401C0A
:1052F000012AE4D409780170F8BD01E004C0091F57
:105300000429FBD28B0701D50280801CC90700D07D
:105310000270704700290BD0C30702D00270401CF6
:10532000491E022904D3830702D50280801C891EEE
:10533000E3E70022EEE70022DFE70000024670B557
:105340000A4392072AD11E4DEE0104C808C9541B16
:105350009443344017D0D0B2D9B2401A2106014349
:1053600010D190B299B2401A210401430AD110021F
:105370001902000A090A401A2102014302D1100E43
:10538000190E401A70BD9A42DFD010BA19BA88427D
:1053900001D9012070BD0020C04370BD02780B7898
:1053A000401C491C002A09D09A4207D102780B7888
:1053B000401C491C002A01D09A42EFD0D01A70BD7F
:1053C000010101010378C2781946437812061B02D5
:1053D00019438378C0781B04194311430902090A51
:1053E000000608437047020A08704A70020C8A706F
:1053F000020ECA707047002203098B422CD3030AA5
:105400008B4211D300239C464EE003460B433CD411
:10541000002243088B4231D303098B421CD3030A79
:105420008B4201D394463FE0C3098B4201D3CB01A9
:10543000C01A524183098B4201D38B01C01A5241D9
:1054400043098B4201D34B01C01A524103098B42DD
:1054500001D30B01C01A5241C3088B4201D3CB00C8
:10546000C01A524183088B4201D38B00C01A5241AB
:1054700043088B4201D34B00C01A5241411A00D25B
:1054800001465241104670475DE0CA0F00D04942C4
:10549000031000D34042534000229C4603098B4234
:1054A0002DD3030A8B4212D3FC22890112BA030ABC
:1054B0008B420CD3890192118B4208D3890192113E
:1054C0008B4204D389013AD0921100E08909C309C3
:1054D0008B4201D3CB01C01A524183098B4201D3C5
:1054E0008B01C01A524143098B4201D34B01C01AB0
:1054F000524103098B4201D30B01C01A5241C30828
:105500008B4201D3CB00C01A524183088B4201D396
:105510008B00C01A5241D9D243088B4201D34B00B1
:10552000C01A5241411A00D20146634652415B10F3
:10553000104601D34042002B00D5494270476346D4
:105540005B1000D3404201B50020C046C04602BDFA
:105550007047704770470000F0B50C46871A9C41B1
:105560000D46861A9D4103D2C01BA141D219634149
:105570000D0D1F0DC94EEC1BAE435CD07F057F0D9A
:105580000026002F51D02D05AC46A943DD02012392
:10559000ED0A1B051D4320231B1B24D41746E7409F
:1055A000381871412F46E740CC199D4028183146E4
:1055B00061410C0D27D161449A4013D50023401C52
:1055C000594152000ED14008400001224B005205C3
:1055D000D34207D305204007C14201D5B04900E0BE
:1055E000B0493046F0BD6B00002A00D001229A1865
:1055F0001F23203C1B1B01D5002302E0E540281897
:1056000071410C0DD7D0012424050919C407CD0719
:1056100040084908E40F28436144002CD5D00024F9
:10562000401C61419A40D0D1CDE76A05520DD9D1D5
:10563000C90FC907D5E79C4D4E00002801D00124B1
:1056400000E0002434195F00002A01D0012600E0A8
:105650000026BE19954FAC420CD8AE420AD8B442CF
:1056600006D001256D05EC42BCD010461946F0BDB0
:105670009942FCD000203946F0BDF0B51FB40C466D
:105680000F46811A9F412546861A9D4106D2012563
:10569000ED076F40401ABC4152187B41210D1E0D91
:1056A0008D1BAC467D4D8D437ED075056D0D7CD038
:1056B0000D05AE46AC431B031B0B794D52429D4179
:1056C000202366469B1B14D31746F7403818002644
:1056D0000090744160462F460741E41900989D40B0
:1056E0002818664116D4714671189A4025D50123B1
:1056F00020E093182A466A415200002B00D0521C29
:105700001E23203E9B1B002B61DD3541EE17281820
:105710006641E8D5001876415B1C9A4000D3401CD6
:105720004B05F3181524E34010D3002B52D07146DB
:105730007118D30FC01802D3491C05B0F0BD012366
:10574000DB079A42F9D140084000F6E701225205F2
:10575000B21801D1002853D00123CC0ADB029943AF
:10576000891E002A08D1020C03D0020C0004103953
:1057700002E00246002020390023550B05D1120219
:105780000823550B01D152010D23550C01D11201F3
:105790001B1DD50C01D192009B1C150D01D152008F
:1057A0005B1C2025EE1A01E02CE022E00546F540C6
:1057B00015439840CA1AE10769181305C918002A49
:1057C000BBDA032040070818C10FC9070FE0714674
:1057D0006118B2E7F10740080843711071444A00AC
:1057E0000CD001235B059A42A7D2C90FC90700203C
:1057F000A3E74905490D26D1002001E00028F4D196
:1058000000219AE7284D6600002801D0012100E020
:10581000002171185F00002A01D0012600E0002657
:10582000BE19224FA94210D8AE420ED8B14208D0BC
:1058300001256D05E94206D01946A80241401046EF
:105840007BE79C4201D0214677E70020394674E788
:1058500010B50C465C4005D50124E4076340FFF712
:105860000CFF10BDFFF778FE10BD30B40C465C4055
:1058700004D50124E407634030BC6DE630BCFCE68F
:1058800070B50124E40761400D465D4002D4FFF786
:1058900063FE70BD6340FFF7F0FE70BDFF070000C0
:1058A0000000F0FF0000F07F0000E0FF0000F87F44
:1058B000F0B5F94D0C091E092C402E402F468BB037
:1058C000A7437DD0B543FCD0002E7AD0002CFCD06D
:1058D0000D465D40ED0F2543AC1BFF25AD0464195B
:1058E0000894C502440DC9022143500DDC02044353
:1058F0000120C00701430443D2020191200C110C86
:1059000000958C46010423468B430A9161460904A5
:10591000E24D8A430991010A7D4449198039097889
:1059200005464D4301266D18F605751B6943C90CE4
:10593000640B891C4C436418B5012C1B250C2E04E8
:10594000B4434C434D43210C691889090591009DCE
:10595000E90701D00121C90704912C460199670884
:10596000CD072F434C08059DE10B4D432D0C2946D7
:105970006646754302950D4645432E46029D7D1BA6
:10598000B44100950D465D4301942C0C2F040D4647
:105990005543AE462D0C3D43029503947546049C39
:1059A0002D04641B049406D2029C039D641C0026F3
:1059B00075410395029401AC70CC009F7D1B01E002
:1059C0003EE162E1B4410904009507910194059913
:1059D000A4086143090C0C464443650BE7040C46DC
:1059E00066467443A646640B3C4303950294744692
:1059F000049DE4042C1B049406D2029C039D641CA9
:105A0000002675410395029401AC70CC009F7D1B6C
:105A1000B44101940C465C430095650FE7000C46C9
:105A20005443A646640F3C43039502947446049D78
:105A3000E4002C1B049406D2029C039D641C0026E7
:105A400075410395029401AC70CC009F7D1BB4415D
:105A5000AE09AF06049DC900AD092F43049DA406FD
:105A6000AD060495079D344369180791059DE10B28
:105A70004D432D0C29466646754302950D46454318
:105A80002E46029D7D1BB44100950D465D43019459
:105A90002C0C2F040D465543AE462D0C3D4302956C
:105AA00003947546049C2D04641B049406D2029C46
:105AB000039D641C002675410395029401AC70CCD3
:105AC000009F7D1BB44101948C050694079C890AB4
:105AD000611800950791019C0599A4086143090C80
