:020000041000EA
:1000000010AC0120751400107D1400107F14001036
:1000100000000000000000000000000000000000E0
:10002000000000000000000000000000811400102B
:100030000000000000000000831400108514001070
:100040003709001087140010AB1600109717001026
:1000500021100010451000104D0B001087140010E7
:1000600087140010871400108714001087140010E4
:1000700087140010871400108714001087140010D4
:1000800087140010871400108714001087140010C4
:1000900087140010871400108714001087140010B4
:1000A00087140010F70B001087140010871400103D
:1000B0008714001087140010871400108714001094
:1000C0000348854601F08AFF00480047E900001018
:1000D00010AC0120024800688546024800680047CD
:1000E00000000220040002200025002472B6002136
:1000F000192000F0A6FC0021172000F0A2FC00212E
:10010000222000F09EFC00210A2000F09AFC012130
:10011000192000F016FB0121172000F012FB01212D
:10012000222000F00EFB01210A2000F00AFB002132
:100130000E2000F086FC00210F2000F082FC002140
:10014000102000F07EFC0021112000F07AFC00213C
:100150000E2000F08EFA00210F2000F08AFA002114
:10016000102000F086FA0021112000F082FA072109
:10017000142000F066FC0721152000F062FC00F05E
:1001800053FE40A000F056FE06210C2000F059FC62
:1001900006210D2000F055FC0021084600F0AAFFC2
:1001A0000121002000F069FF0121002000F079FF0B
:1001B0000121002000F0ADFF0420002805DBC2066D
:1001C000D20E01219140364A116000BF00F0F4F8D0
:1001D00034A20021084600F01DFA35A202210020B9
:1001E00000F018FA36A20421002000F013FA38A219
:1001F0000621002000F00EFA2022394939A000F033
:1002000056FE20223A493BA000F051FE3C4800F047
:10021000DDFB62B634E00A2000F0C0FA294639A0BE
:1002200000F008FE3A4E002402E03570761C641C93
:1002300038488442F9D3002409E07D20C00060439F
:10024000334A8118102234A000F031FE641C642C63
:10025000F3D30E2000F0E1FA002803D101F024F9D5
:1002600000BFFEE70F2000F0D8FA002802D11920C5
:1002700000F094FA681CC5B27D20C00000F0A6FB17
:10028000C9E70000535944383832312043414348CC
:1002900045203439364B422044454D4F0D0A00006D
:1002A00000E100E05359442054454B2E000000006B
:1002B0005359443838323120426F61726400000073
:1002C0004361636865203439364B422073616D00A9
:1002D0006D6169643A7069616F72616E000000005F
:1002E000862A0010666C6173685F313A0D0A00005F
:1002F00026B10110666C6173685F323A0D0A000026
:10030000B80B0000766F6C3A25780D0A00000000EB
:1003100000000020A086010052414D5F313A0D0AD5
:100320000000000001B582B0012002AB00223C2198
:100330000090104600F0D6FF0EBD01B582B001203E
:1003400002AB40223C210090002000F0CBFF0EBD0C
:1003500070B50646002415E02146B031C8B2FFF75B
:10036000E1FF0120FFF7DEFF1020FFF7DBFF002594
:1003700004E03046FFF7E1FF681CC5B2802DF8DBD2
:10038000601CC4B2082CE7DB70BD70B504460D4696
:100390002946B031C8B2FFF7C5FFF021214009114D
:1003A00008461030FFF7BEFF2107090F0122114355
:1003B0000846FFF7B7FF70BD10B500210E2000F012
:1003C00040FB00210E2000F0BCF90A2000F0FEFAEC
:1003D0000E2000F0F8F90A2000F0F8FAAE20FFF73E
:1003E000A1FF0020FFF79EFF1020FFF79BFF40209A
:1003F000FFF798FF8120FFF795FFCF20FFF792FFCF
:10040000A120FFF78FFFC820FFF78CFFA620FFF782
:1004100089FFA820FFF786FF3F20FFF783FFD32047
:10042000FFF780FF0020FFF77DFFD520FFF77AFF61
:100430008020FFF777FFD920FFF774FFF120FFF747
:1004400071FFDA20FFF76EFF1220FFF76BFFDB2052
:10045000FFF768FF4020FFF765FF2020FFF762FFEE
:100460000220FFF75FFF8D20FFF75CFF1420FFF7EE
:1004700059FFA420FFF756FFA620FFF753FFAF2038
:10048000FFF750FF0020FFF763FF00210846FFF74A
:100490007CFF10BDF7B582B00446154600200190E0
:1004A0000026002720E0E85D2038C0B201907E2CB5
:1004B00004DD00240398401CC0B203902046039939
:1004C000FFF763FF002609E0062201995143634AC2
:1004D0008918885DFFF731FF701CC6B2062EF3DB6A
:1004E000A01DC4B2781CC7B2E85D0028DBD105B0FE
:1004F000F0BDFEB505460E461746002001900024CB
:10050000009034E00098385C2038C0B20190782D1B
:1005100002DD0025701CC6B231462846FFF735FFC4
:10052000002408E00199090109194D4A505CFFF7C0
:1005300004FF601CC4B2082CF4DB701CC1B2284656
:10054000FFF723FF002409E0019909010919083187
:10055000434A505CFFF7F1FE601CC4B2082CF3DB89
:1005600028460830C5B20098401CC0B200900098E0
:10057000385C0028C6D1FEBDF7B582B007461646E6
:1005800043E000243BE023206043364940182030FC
:1005900000783178884230D12320604331494018B7
:1005A000203040787178884227D1039AD1B2F8B2CE
:1005B000FFF7EBFE00250AE023206043294940189D
:1005C000405D01900198FFF7B8FE681CC5B2102D80
:1005D000F2DB039A521CD1B2F8B2FFF7D6FE0AE062
:1005E000232060431F494018405D01900198FFF7A8
:1005F000A4FE681CC5B2202DF2DB601C84B2402C26
:10060000C1DBB61C3846103087B230780028B8D12C
:1006100005B0F0BD0FB4F8B505460E4600240898A5
:10062000002803D1F8BC08BC04B0184709A8009002
:100630000D48009A089901F0A1FDC4B20020009075
:10064000802C00DD80240020074908550A463146E9
:100650002846FFF74EFF00BFE4E7000047390310CC
:100660006F3B0310C6370310F0860120D3490860A2
:10067000704770B5024620241440630920251446B3
:10068000AC430125A54028469C00CD4D2C59207532
:10069000050A6575050CA575050EE575002B13D0CB
:1006A000002908D1C74D6D7D0543ECB2C54D6D7D68
:1006B000C44E747515E0C34D6D7D85432C46C14D08
:1006C0006D7DC04E74750CE0002905D1BD4C646889
:1006D0000443BC4D6C6004E0BA4C64688443B94D7B
:1006E0006C6070BD70B5024620241440630920255B
:1006F0001446AC430125A5402846002B13D0002901
:1007000008D0B04DED7D0543ECB2AE4DED7DAD4E64
:10071000F47515E0AB4DED7D85432C46A94DED7D7F
:10072000A84EF4750CE0002905D0A64CE4680443FB
:10073000A44DEC6004E0A34CE4688443A14DEC605C
:1007400070BD30B50B4620240440610920250446C5
:10075000AC430125A5402A468C00994D2C592276A0
:10076000150A6576150CA576150EE576002B0AD0D0
:100770008C00934D2C592271150A6571150CA571C9
:10078000150EE57109E08C008D4D2C592272150A69
:100790006572150CA572150EE57230BD10B52023DB
:1007A0000340590920240346A34301249C402246C8
:1007B0008B00834CE3581A73140A5C73140C9C73FB
:1007C000140EDC7310BD10B52023034059092024FA
:1007D0000346A34301249C4022468B00784CE358F7
:1007E0001A71140A5C71140C9C71140EDC7110BD2A
:1007F00010B520230340590920240346A3430124B4
:100800009C4022468B006E4CE3581A72140A5C72AC
:10081000140C9C72140EDC7210BD30B50146202001
:100820000840420920240846A0430124844023466E
:100830009000634C20584030102404192578284635
:1008400065782D022843A5782D042843E4782406F2
:1008500020431840002801D0012030BD0020FCE7D3
:10086000F0B503460C46154620221A4050092026B2
:100870001A46B243012696403146002C0BD1820025
:100880004F4EB258403211720E0A56720E0C9672CA
:100890000E0ED6720AE08200494EB25840321171F3
:1008A0000E0A56710E0C96710E0ED671002D0BD1DC
:1008B0008200434EB258203211760E0A56760E0C44
:1008C00096760E0ED6760AE082003D4EB258203261
:1008D00011750E0A56750E0C96750E0ED6758200A1
:1008E000374EB258203211710E0A56710E0C9671A5
:1008F0000E0ED6710022002A05DBD706FF0E012658
:10090000BE40314F3E6000BFF0BD10B52023034014
:10091000590920240346A34301249C4022468B000E
:10092000274CE35820331A72140A5C72140C9C7220
:10093000140EDC7210BD70B500243CE0A00020490C
:1009400008584030142141180A7810464A7812029B
:1009500010438A7812041043C97809060843A1009D
:10096000174A515820310A461378194653781B020A
:10097000194393781B041943D27812061143084097
:100980000546002D00D114E00C480068002804D072
:1009900029462046094A12689047A000084908588D
:1009A00040300575290A4175290C8175290EC175DC
:1009B00000BF601CC4B2022CC0DB70BDA886012041
:1009C000A08601204010005000E100E0002109E075
:1009D000002201E0531C9AB27D239B019A42F9DB6D
:1009E0004B1C99B28142F3DB7047002107E00022E3
:1009F00001E0531C9AB2092AFBDB4B1C99B28142DD
:100A0000F5DB704710B50146272901DA002902DA23
:100A10000020C04310BDCC07E40F202904DA4A109F
:100A20001B480068835C05E00846203842101848DF
:100A30004068835C002C01D01811EBE71807000F09
:100A4000E8E770B5272801DA002800DA70BD090749
:100A5000090FC407E40F202804DA43100C4E36684F
:100A6000F21805E00646203E7310094E7668F2182B
:100A70001578002C01D00F2600E0F0263540002C20
:100A800001D00E07310E2E460E43167000BFDDE773
:100A9000AC860120002815DBC206D20E0121914050
:100AA000944A116000BF00BF00BFBFF34F8F00BF6B
:100AB00000BF00BF00BF00BF00BFBFF36F8F00BF0C
:100AC00000BF00BF704770B504460D460620FFF713
:100AD000E1FF894800680078000900012907090F33
:100AE00008438549096808708348006800788021B8
:100AF0008843E1018022114008437F49096808705A
:100B00007D4800680078402188437B490968087067
:100B10007948006880780821884308307649096858
:100B2000887092007549764800F00AFA7548406A64
:100B300040210843734948620846006A402108433F
:100B400070490862062000F0CBF870BD70B56A48A5
:100B500000680478302060400546674800680570EA
:100B60001020204000280DD000BF634800680179A4
:100B7000634800F01DFA60480068C078C007C00FE5
:100B80000028F2D070BD70B504460D461920FFF75D
:100B900081FF594840680078000900012907090FC2
:100BA00008435549496808705348406800788021D7
:100BB0008843E1018022114008434F494968087089
:100BC0004D4840680078402188434B494968087087
:100BD0004948406880780821884308304649496878
:100BE0008870920048494648103000F0A9F9192051
:100BF00000F076F870BD70B53F484068047830204A
:100C0000604005463C4840680570102020400028A0
:100C10000ED000BF3848406801793948103000F0E4
:100C2000C7F935484068C078C007C00F0028F1D028
:100C300070BDF0B50B4601242404002112E000BF72
:100C400085002D4E7559ED782D07ED0F002DF7D14C
:100C5000850075596D785E5C35468600264FBE5915
:100C60007570491C9142EADB00E0641E8500224E4B
:100C70007559ED786D07ED0F002D01D1002CF4D1E1
:100C8000F0BD70B504460D4621011D4A881829465D
:100C900000F09CF970BD70B504460D4600BF022CF3
:100CA00001DB002070BD2101154A881800F0A3F96E
:100CB00000280AD1200112494018C5682101104AB4
:100CC000881800F0A1F9C0B2ECE70020EAE701467D
:100CD000012901DD002070478800074A1058FAE713
:100CE000002806DBC206D20E01219140014A803A5B
:100CF0001160704780E100E0B486012090870120F8
:100D000070870120008002209089012010B50246E2
:100D10000620002815DBC406E40E0123A3407F4C07
:100D2000236000BF00BF00BFBFF34F8F00BF00BFF5
:100D300000BF00BF00BF00BFBFF36F8F00BF00BF89
:100D400000BF00BF764800680078000900010B076B
:100D50001B0F1843724B1B681870714800680078AD
:100D600080239843D3018024234018436C4B1B6895
:100D700018706B4800680078402398434030684BF7
:100D80001B68187066480068C078102398431030BC
:100D9000634B1B68D87062480068807808239843CA
:100DA00008305F4B1B6898705E48406A40231843C8
:100DB0005C4B58621846006A40231843594B18622E
:100DC0000620002806DBC406E40E0123A340534C92
:100DD000803C236000BF10BDF0B50B460124240405
:100DE000002112E000BF85004D4E7559ED782D07AA
:100DF000ED0F002DF7D1850075596D785E5C354695
:100E00008600474FBE597570491C9142EADB00E0ED
:100E1000641E8500424E7559ED786D07ED0F002D6B
:100E200001D1002CF4D1F0BD10B508210020FFF74E
:100E30006DFF10BD0FB438B500240498002803D10D
:100E400038BC08BC04B0184705A800903648009A82
:100E5000049901F093F9C4B200200090802C00DDC9
:100E60008024224630490020FFF7B6FF00BFE7E7A5
:100E70000FB438B5054600240598002803D138BCC6
:100E800008BC04B0184706A800902748009A0599A6
:100E900001F074F9C4B200200090802C00DD8024A1
:100EA000224621492846FFF797FF00BFE7E7F8B53C
:100EB00005460E4617460024002D02D02846FFF7AF
:100EC000B9FF00241BE02046E117490F0918C9109B
:100ED000C900611A03D1A1B214A0FFF7ABFF315DC5
:100EE00014A0FFF7A7FF601CC117490F0918C9100C
:100EF000C900411A02D111A0FFF79CFF641CBC423B
:100F0000E1DB2046E117490F0918C910C900611A31
:100F100002D00AA0FFF78EFFF8BD000080E100E0DC
:100F2000BC86012000800220908B01205B2530349C
:100F3000785D200025303278200000000D0A000086
:100F40000023436003608260C160704741680160B4
:100F50007047F8B504460F46154660684019A16809
:100F6000884219DBA088281A86B26268E16888186E
:100F70003246394600F002FEA81B85B22068A8421E
:100F800002DC2088401E85B2B9192A46E06800F0CC
:100F9000F5FD65607019F8BD6268E16888182A4639
:100FA000394600F0EBFD6068401960602846F2E7C2
:100FB00002465368581C5060D068C154936850680A
:100FC000984201DB002050600120704702465368C0
:100FD0001068984201D1002070471368581C1060B7
:100FE000D068C05C087093681068984201DB0020EC
:100FF00010600120F0E701464A680868904201D17C
:10100000012070470020FCE7014600224B68086879
:10101000984200DD8A68486880180B68C01A7047DB
:1010200010B5F8480068002802D0F64908688047E3
:10103000F5480068407940084000401CF2490968C2
:10104000487110BD10B5EF484068002802D0ED4946
:1010500048688047EC484068407940084000401CA0
:10106000E9494968487110BD01468800E64A1058B0
:1010700070478200E34B9950704710B58200E24BF5
:101080009A58127852085200002901D0012300E03A
:101090000023DB07DB0F1A438300DB4CE3581A7095
:1010A00010BD10B58200D84B9A58127952085200E0
:1010B000002901D1012300E00023DB07DB0F1A43E5
:1010C0008300D14CE3581A7110BD10B58200CE4B8D
:1010D0009A58D27C08239A43002901D0012300E0CA
:1010E0000023DB00082423401A438300C64CE35846
:1010F000DA7410BD10B58200C34B9A58D27CD20866
:10110000D2004B075B0F1A438300BF4CE358DA74DD
:1011100010BD10B58200BC4B9A58927C80239A4334
:10112000002901D0012300E00023DB0180242340BB
:101130001A438300B44CE3589A7410BDFFB581B0D4
:1011400004460E461D460A9FB807800F002805D1A9
:10115000002D03DDFF200130854206DDABA100201C
:10116000FFF786FE002005B0F0BDA000A649085894
:101170000078C007C00F002805D12246AAA1FFF7BA
:1011800077FE0020EFE7A0009F490958C8788978CA
:1011900000020843AB490840E901AA4AD243114082
:1011A0000843A100984A51588870000AC870A000EE
:1011B000114608580772390A4172390C8172390E8A
:1011C000C172A00011460858807CC009C001710698
:1011D000490E0843A10051588874A00011460958CF
:1011E000487C097C00020843039989B20846A100A3
:1011F00051580874000A4874A000114608584078F5
:1012000040084000401CA100515848700120AAE746
:10121000FFB581B004460E461D460A9FB807800FF1
:10122000002805D1002D03DDFF200130854206DDB9
:1012300076A10020FFF71CFE002005B0F0BDA00045
:10124000714908580078C007C00F002805D1224610
:1012500075A1FFF70DFE0020EFE7A0006A490858CE
:10126000817842780802104377490840A901764AFC
:10127000D24311400843A100634A51584870000A04
:101280008870A000114608580773390A4173390C59
:101290008173390EC173A00011460858807CC009C3
:1012A000C0017106490E0843A10051588874A0007E
:1012B00011460958487C097C00020843039989B209
:1012C0000846A10051580874000A4874A00011464D
:1012D0000858407802218843801CA100515848706A
:1012E0000120AAE7FEB504460E4617461D46A0009B
:1012F000454908580079C007C00F029000200190AE
:10130000A0000858007940084000401CA1003E4A57
:1013100051580871A0001146085840794008400013
:10132000401CA1005158487100953A46314620466C
:10133000089BFFF76DFF002813D000BFA0003249C3
:1013400008588079C007C00F0028F7D0A0000858BF
:10135000407940084000401CA1002B4A5158487178
:1013600001E001200190A0002749085800794008B9
:1013700040000299C907C90F0843A100224A5158E9
:1013800008710198FEBDFEB504460E4617461D467F
:10139000A0001D4908580079C007C00F0290002026
:1013A0000190A0000858007940084000401CA100AE
:1013B000154A51580871A000114608584079400854
:1013C0004000401CA1005158487100953A463146F2
:1013D0002046089BFFF7B2FE002837D000BFA000D0
:1013E000094908588079C007C00F0028F7D0A0002D
:1013F0000858407940084000401CA100024A51585A
:10140000487125E0CC860120C4860120444D41204E
:10141000706172616D6574657220696E636F72725E
:101420006563740D0A000000493243204D617374F6
:1014300065722025642069732064697361626C653C
:10144000640D0A007F00FFFF3F80FFFF0120019035
:10145000A000074908580079400840000299C907D0
:10146000C90F0843A100024A515808710198FEBDF6
:10147000C48601200448804704480047FEE7FEE791
:10148000FEE7FEE7FEE7FEE799140010C10000103A
:1014900003480449086070470148024908607047E2
:1014A00040787D01D486012070B5002572B63A4C93
:1014B0006068017809090901C91D017001780907EF
:1014C000090F70310170FFF7AFFC34A0FFF7B2FCD9
:1014D0006068C17A09090901C91CC172C17A09078A
:1014E000090F3031C172017B09090901C91C01735F
:1014F000017B0907090F30310173052000F0B0F8B6
:10150000032000F0B9F8002000F0E4F8002000F01B
:10151000D9F800F0CCF9284A0146904204D0274877
:10152000814201D026A000E02BA0FFF783FC314AC6
:1015300043212280C90130A0A160FFF77BFC37481E
:10154000E060374EA36806E071190A7AE1680A7014
:10155000491C6D1CE1609D42F6D32588002421467C
:1015600004E0425C1219491C94B289B29942F8D342
:101570002A4621462BA0FFF75DFCAC4205D12FA0E7
:10158000FFF758FCFEF7A6FD02E030A0FFF752FC83
:1015900062B6002070BD0000D8860120626F6F74B3
:1015A0006C6F616465722072756E20323031382D37
:1015B000332D32380D0A00001440E00014405E0064
:1015C00073706920666C6173682066696C6564205D
:1015D00069643A25780D0A0073706920666C61733E
:1015E0006820737563636565642069643A25780DC6
:1015F0000A000000060D0000626F6F746C6F61647A
:1016000065722073697A653A257820636865636B33
:1016100073756D3A25780D0A000000000000022065
:101620005F410310636B20253032782C2025303247
:101630007820253032780D0A000000006368656369
:101640006B73756D206F6B0D0A0000006368656336
:101650006B73756D206661696C650D0A0000000092
:10166000062800D3052079498A788F2340071A403D
:10167000400E02438A707047032800D90320734943
:10168000CA78FD231A40C3079B0F1A43CA70CA7851
:10169000800752085200C00F0243CA7070470228E8
:1016A00002D26B4A80001150704710B5684800683C
:1016B000002800D08047654820304179012211433D
:1016C000417110BD614920310A785208520002432D
:1016D0000A7070475D4920310A790123520852008F
:1016E00043401A430A710421002801D0594801E0FF
:1016F00058488030016070475448817880221143F7
:10170000817070470B4610B513439B0703D052A05E
:10171000FFF790FB10BD202800D920204B4B203331
:10172000DC788006A409A401800E0443DC709C7858
:10173000A409A40104439C7018899C7A8903240499
:101740002043800C8004890B08431881000C987298
:101750009889997B09040843800C80049103890BC4
:1017600008439881000C98735978012001435970FF
:101770009979C907FCD059790143597110BD1CB53D
:1017800001466A461171012001AA6946FFF7BAFFB6
:101790006A4610781CBD10B52D484068002800D05E
:1017A00080472A48417D01221143417510BD2749D8
:1017B0000A7C5208520002430A74704723490A7D8A
:1017C00001235208520043401A430A750821002899
:1017D00001D0204801E01F488030016070470B466F
:1017E00010B513439B0703D01BA0FFF723FB10BDCD
:1017F000202800D92020154BDC7C8006A409A401F8
:10180000800E0443DC749C7CA409A40104439C74F2
:10181000188B9C7E890324042043800C8004890B50
:1018200008431883000C9876988B997F0904084325
:10183000800C80049103890B08439883000C9877EF
:10184000587C01210843587410BD000000B00250BC
:10185000E886012000E100E053504920444D41203A
:101860006D75737420626520342D62797465206112
:101870006C69676E6D656E740D0A000010B504002A
:101880000BD000211820FFF7DCF800211820FEF70C
:1018900058FF2046FFF716FF10BDFFF713FF182073
:1018A000FEF791FF03211820FFF7CBF810BD1CB500
:1018B00000200090ACA00068019004240120FFF7F4
:1018C00001FF01AA69462046FFF71CFF0020FFF731
:1018D000F9FE694648788978000409020843694698
:1018E000C97808431CBD1CB5002000909FA000686B
:1018F00001900120FFF7E6FE01AA69460220FFF7EA
:1019000001FF0020FFF7DEFE684640781CBD10B5E1
:10191000FFF7E9FFC007FBD110BD1CB50020009008
:1019200093A0006801900120FFF7CCFE01AA694650
:101930000120FFF7E7FE0020FFF7C4FE1CBD1CB529
:101940000446002001908BA000680090FFF7E5FF9F
:10195000FFF7DDFF210C68464170210A8170C470D9
:101960000120FFF7AFFE6A4601A90420FFF7CAFE77
:101970000020FFF7A7FEFFF7CAFF1CBDF7B590B028
:101980000D4616460024202108A800F010F9202159
:10199000684600F00CF97709F606F60E0120FFF70D
:1019A0006DFF032168460170290C4170290A81707E
:1019B000C5706A4608A90420FFF7A4FEFF22202173
:1019C000684600F0EDF80DE06A4608A92020FFF710
:1019D00099FE109861010818202208A900F0CEF89D
:1019E000641CA4B2BC42EFD330466A4608A9FFF794
:1019F00089FE109861010818324608A900F0BEF867
:101A00000020FFF73BFF13B0F0BDF7B590B00D46D7
:101A100016460024202108A800F0C9F820216846B5
:101A200000F0C5F87709F606F60EFFF776FF0120FD
:101A3000FFF724FF022168460170290C4170290A32
:101A40008170C5706A4608A90420FFF75BFE0DE0AF
:101A50001098610109182022684600F08FF86A4644
:101A600008A92020FFF74EFE641CA4B2BC42EFD3AD
:101A70001098610109183246684600F07FF8304638
:101A80006A4608A9FFF73EFE0020FFF7F7FEFFF7C2
:101A90003EFFB8E7F8B507460E46FF20C9B2013051
:101AA000441A1546A24200D814462246314638460A
:101AB000FFF7ABFFA54209D0281B3F193619FF24B9
:101AC00085B20134A542F0D82C46EEE7F8BDF7B553
:101AD00082B0039815460605070B0120360D00035A
:101AE000841BA24200D81446390301221203224863
:101AF0000091FFF743FF002006E01F493218895C80
:101B0000FF2903D1401C80B2A042F6D3A04225D2C7
:101B10003846FFF714FF0020174905E0029A8319A1
:101B2000125C401CCA5480B2A042F7D301221203B7
:101B300011480099FFF7AEFFA54213D00298002686
:101B40000019029003987F1C00190390281B0124A0
:101B500085B22403A542C7D82C46C5E7224603997F
:101B60000298E7E705B0F0BD9FFFFFFF05FFFFFF0D
:101B700006FFFFFF20FFFFFF108C012003460B43F1
:101B80009B0703D009E008C9121F08C0042AFAD233
:101B900003E00B780370401C491C521EF9D27047B9
:101BA000D2B201E00270401C491EFBD270470022F5
:101BB000F6E710B513460A4604461946FFF7F0FF4C
:101BC000204610BD30B50B460146002020220124DE
:101BD00009E00D46D5409D4205D31D469540491B61
:101BE0002546954040191546521E002DF1DC30BDAA
:101BF000F0B51FB40646002082B00546402401918E
:101C000000901BE0019922460F46304600F008FA8A
:101C1000049A059B801A994110D310461946224612
:101C200000F0EEF9361A8F4101972246012000217B
:101C3000009F00F0E5F938184D4100902046641EE1
:101C40000028DFDC019B00982946324607B0F0BD32
:101C5000F0B507460846584087B0C00F04904800CA
:101C60000E46590040084908BC1A884105D238463A
:101C700031461E4617460B460246580040081043A0
:101C80004CD0300D039040055900400D490D059092
:101C9000401A0290402872DA18030121000B09054E
:101CA0000843019004980092002805D001995242FF
:101CB0000020884100920190029840210A1A01995F
:101CC000009800F09DF905460C466B4607CB00F0E6
:101CD000B8F9C0197141039A0E0D0023D717564069
:101CE0001A467A40164344D0049A002A2DD0029A0C
:101CF000012A039A15DC1205C01A91410126360506
:101D0000001C7141D20F059ED207009301920296EA
:101D10002A46234600F0B5F907B0F0BD38463146F3
:101D2000FAE71605224A0F46B218C01AB741012138
:101D30000905001C4F4100187F41114618187941D0
:101D4000E20F10436D19644113E0E2076D0815437B
:101D50006408C2071443039A01261205C01A914170
:101D60003605001C7141CE07400830434908C018B1
:101D700051412A46234600F077F9CDE7FFE7049862
:101D800001224000C117121A00238B4104983146EA
:101D9000C417381AA141EEE730B40124E4076340C8
:101DA00030BC55E730B40124E407614030BC4FE754
:101DB0000000E0FFF0B51FB488B00B99099800242B
:101DC00048400999C00F490049080991C0070B997B
:101DD0000090490049080B9109990898A6460843C4
:101DE0001CD00B990A98084318D009980124400088
:101DF000420D4800410D099824050003000B2043C3
:101E000009900B980003000B20430B9050181C49BD
:101E10004018002201901446104605E000200146BB
:101E20000DB0F0BD032801DA034600E003239C4611
:101E3000C11A0AAE0AE05F0008ADED5B4F00F75B28
:101E40007D430027AA187C41491C5B1E6145F2DDD9
:101E5000410004AB5A522104120C0A43240C401CCA
:101E60000828DFDB019802900099704601910090EC
:101E7000059B049A0799069800F003F9D0E7000043
:101E80000DFCFFFFF0B50C465C4085B0E40FE407A5
:101E900003944C0000266408590094464908024601
:101EA0000296224321D062460A431ED06200570D9B
:101EB0004A000E032303550D012402462C49240534
:101EC000781B1B0B360B40182343264361460090BA
:101ED0001C46501AB44103D30098401C009002E005
:101EE000921800985B41002803DA0020014605B0F3
:101EF000F0BD0020012109050746864611E0644631
:101F00001D46141BB54106D36546521BB3417446AA
:101F100007430C43A646CD074008490828439218BA
:101F20005B4105460D43EAD11046184313D0604685
:101F3000194650407140084306D06046101AB3411C
:101F400006D20122002306E000220123DB0702E083
:101F50000122D2435310009874460105381C614198
:101F6000029C039D0019694100F07EF8BFE7000064
:101F7000FD0300004A0009030123090B1B05194357
:101F80000A4B10B5520D9A4202DA0020014610BDEC
:101F9000064B34339A4203DC9A1A00F041F810BD24
:101FA000034BD21800F02CF810BD0000FF03000016
:101FB000CDFBFFFF10B5002904DB0124E4074042FC
:101FC0008C412146002B04DB1C460123DB075242D7
:101FD000A341994200D1904210BD0000064C01255A
:101FE000064E05E0E36807CC2B430C3C98471034C1
:101FF000B442F7D3FEF768F8E862031008630310F1
:1020000010B5202A04DB0146203A9140002010BD83
:10201000914020239C1A0346E3401943904010BD91
:1020200010B5202A04DB0846203AD040002110BD1C
:102030000B46D340D0402024A21A914008431946B1
:1020400010BD10B5202A06DBCB170846203A1041F8
:10205000C1170B4306E00B461341D0402024A21ABF
:1020600091400843194610BD10B5002B08DA002432
:10207000401C614192185B411A4301D14008400065
:1020800010BDF0B51FB482B005460C0003D0084661
:1020900000F086F802E000F083F82030024600905D
:1020A00021462846FFF7ACFF049B059A04460F46DD
:1020B00018431143084314D0184610431BD000980E
:1020C00040210A1A18460599FFF7AAFF05460E4651
:1020D000009A05990498FFF793FF084305D0012063
:1020E00004E02046394607B0F0BD0020C117054383
:1020F0000E432C43374300990E986305401A790527
:10210000E40A00220C43FD0A0A3002D500200146F1
:10211000E9E70105101969410C9C0D9D0019694101
:10212000FFF7A2FFDFE770B58C180578401C6B073E
:102130005B0F01D10378401C2A1106D10278401CA4
:1021400003E006780E70401C491C5B1EF9D12B077A
:1021500005D40023521E0DD40B70491CFAE70378F6
:10216000401CCB1A921C03E01D780D70491C5B1CAF
:10217000521EF9D5A142D8D3002070BD37B5144600
:102180000846064B6A46214600F0DCF804466946DC
:10219000002000F073FC20463EBD00007D2A0010A8
:1021A0002021020C01D010211046020A01D0104655
:1021B0000839020901D01046091F820801D01046D3
:1021C000891E420801D0881E7047081A704702E035
:1021D00008C8121F08C1002AFAD1704770470020B2
:1021E00001E001C1121F002AFBD17047F0B51FB4F6
:1021F00084B007980699020D014314D04A484B4910
:102200001018484305140F9801280E981CD0281A5E
:10221000401C0024464E474900940191029000283A
:1022200014DA474227E00F98012443A3012808D07D
:10223000002104980F9A84600360C260416009B075
:10224000F0BD0E98C143F4E74042E2E7074612E0D2
:10225000F80707D02246334601990098FFF7AAFDF8
:10226000019100902246334610461946FFF7A2FD21
:1022700004460E467F10002FEAD10298019B0028E9
:10228000009A0799069802DAFFF794FD01E0FFF73C
:10229000F9FD04460E460022284BFFF78BFE03D8BB
:1022A0000020C043014607E00022254B204631466E
:1022B000FFF7CEFCFFF75EFE102409E0002C0ADBDE
:1022C0000A220023FFF794FC059B30321A55641E46
:1022D00002460A43F2D11122641C059B121B1C19F1
:1022E0000F9B012B03D0012308430ED10AE00843C2
:1022F00004D011200E9000200F9084E70E98151A3C
:102300006D1E0BE00E98824202DD00236D1C03E07F
:10231000824201DA00236D1E002BEED004980F9943
:102320008260C16030C08AE701FCFFFF104D0000F1
:10233000000024400000F03F300000000000F043A7
:102340000000E03FFFB597B00646002518E22528BB
:1023500077D100242746FD49049400E00443761C0D
:1023600032780120203A90400842F7D130782A286C
:102370000ED00222307801463039092916D8049946
:102380000A235943303940181443761C0490F1E76E
:10239000189802C804911890002904DA012040031B
:1023A00004434842049002200443761C30782E28CF
:1023B00014D1042004437078761C2A2809D1189877
:1023C000761C80C8189009E00A214F43303FC71996
:1023D000761C3078014630390929F5D930786C28D7
:1023E00010D006DC4C281AD068280ED06A2817D1E5
:1023F00004E0742813D07A2812D110E0012040059F
:1024000004430CE00121090501E0032109050C4307
:102410007178814203D1012000052418761C761CB6
:102420003078119066280BD013DC58287DD009DC59
:1024300000287BD04528F6D04628F4D047281AD16A
:10244000A5E118E0632835D0642870D0652812D142
:102450009DE170286CD008DC6728F1D069287BD01A
:102460006E280DD06F2806D1BAE073282ED07528BB
:1024700071D0782859D01A9A199990476D1C7EE12D
:102480006002400F022809D003280DD004281898B4
:1024900001680DD00D60001D189070E11898EA17C2
:1024A00001680D604A60F6E7189801680D80F2E750
:1024B0000D70F0E718986A4601781172001D1890A7
:1024C0000020507202A80090012005E0189802C870
:1024D000189000200091C04361070DD5002101E054
:1024E0000199491C0191B94212DA8142F8DB009A44
:1024F000515C0029F4D10BE0002101E00199491C55
:1025000001918142FADB019A0099895C0029F5D199
:10251000019904981A9B471A21463846199A00F0E7
:1025200097FA0199401945180BE04FE02CE113E0B0
:102530004EE0009800990078491C00911A9A199968
:1025400090470198401E0190401CF2D12146384628
:102550001A9B199A10E137E00A200021009001919E
:102560006002410F022907D0189A01CA1892C217B7
:102570009446032908D00AE01898C01DC108C90074
:1025800005C91891944607E000B2C2179446042981
:1025900002D140B2C1178C4600226146944506DA4A
:1025A0000A460021404291418C462D2102E021053E
:1025B00004D52B216A461173012103E0E10701D004
:1025C0002021F7E7029155E00A200AE0102008E0F8
:1025D000102000900021042004430191082703E00B
:1025E00008200021019100906002410F022907D0CC
:1025F000189A01CA189200229446032908D008E0CC
:102600001898C01DC108C90005C91891944603E077
:1026100080B2042900D1C0B200210291210729D53E
:102620001199702906D0009A1021019B4A401A4343
:1026300005D00EE040216A461173012108E0614691
:10264000014306D030216A4611731199517302215A
:102650000291009A0821019B4A401A430AD161461F
:10266000014301D1610705D530216A46117301216B
:102670007F1E02911199582904D035A10E910DA900
:102680000D910DE037A1F9E76146019B009AFFF734
:10269000AFFA0E9B8C469B5C0D9A521E0D921370E6
:1026A00061460143F0D10D9805A9081A2030019028
:1026B000600703D501200004844300E0012701984E
:1026C000874201DD381A00E000200199009041188E
:1026D000029809180498401A0490E00306D4214691
:1026E0001A9B199A049800F0B3F94519002706E0DF
:1026F00003A81A9AC05D199990476D1C7F1C029817
:102700008742F5DBE0030CD521461A9B199A049801
:1027100000F09EF9451904E01A9A30201999904763
:102720006D1C0099481E00900029F5DC08E00D980A
:102730000D990078491C0D911A9A199990476D1CB2
:102740000199481E01900029F1DC63E1092801008C
:102750003031323334353637383961626364656617
:1027600000000000303132333435363738394142D9
:10277000434445460000000000F05AF94519761C14
:102780003078002800D0E2E528461BB0F0BD600795
:1027900000D406271898C01DC108C90048680A68F7
:1027A0000831C30FDB071891190001D09CA108E084
:1027B000210501D59BA104E0E10701D09AA100E029
:1027C0009AA1430011985B08109165280CD006DC93
:1027D000452809D046281DD0472841D141E0662828
:1027E00018D067283CD13CE00021112F01DB1120DB
:1027F00000E0781C0191009008A911A8FFF7F6FCF1
:10280000139905910021119A15927F1C1298019736
:10281000009150E00120C00703900120019008A919
:10282000009711A8FFF7E2FC139A14990592002271
:10283000119B009212981593059A0192002901D0DC
:10284000104602E0791C40180190381A01D5019811
:1028500004E04042401E0090781C0190C01B029092
:1028600043E0012F00DA01270021112F01DD1120A3
:1028700000E038460191009008A911A8FFF7B6FCC6
:1028800013990591119A00211298159200910197C0
:1028900021070CD40599B94201DB019900E00191AF
:1028A000012904DD159A491E515C302906D0B84231
:1028B00001DA011D05DA0121029115E00199491E95
:1028C000EDE7002805DC0099411800910199091AEB
:1028D00003E0019A411C914200DD01910099401AE8
:1028E000401C02900120C0070390200706D40299E3
:1028F0000198814202DB0020C0430290002069461B
:10290000C87707AF012103980337C907884224D04D
:10291000022011902B201290039800280CDA4042DC
:1029200003902D20129007E00A210398FFF74AF93F
:1029300030317F1E039039701199481E1190002983
:10294000F2DC03980028EFD1791E129808703078D5
:10295000202108404530BF1E387006A8C01BC01D8E
:10296000039010980078002800D0012001994118A8
:102970000298C0170918039809180498401A401EB5
:102980000490E00306D421461A9B199A049800F09B
:102990005FF8451910980078002803D01A9A199901
:1029A00090476D1CE00324D521461A9B199A049880
:1029B00000F04EF845191CE00098002807DB00994C
:1029C0000598884203DD1598405C199901E0199932
:1029D00030201A9A904700986D1C401C0090029875
:1029E000401E0290002804D11A9A2E20199990476F
:1029F0006D1C0199481E01900029DDDC05E0387846
:102A00001A9A7F1C199990476D1C0399481E0390D0
:102A10000029F4DC21461A9B199A0498ACE60000C0
:102A20002D0000002B00000020000000000000002E
:102A3000F8B5044600251E461746880404D405E070
:102A400039462020B0476D1C641EF9D52846F8BDD4
:102A5000FFB50446002581B01E46C80301D53027C6
:102A600000E02027880404D505E038460399B047E4
:102A70006D1C641EF9D5284605B0F0BD0A68531CCC
:102A80000B6010707047CCCCCCCCCCCCCCCCCCCCAC
:102A9000CCCCCCCCCCCCCCCCCCCCCCCCCCCCCCCC76
:102AA000CCCCCCCCCCCCCCCCCCCCCCCCCCCCCCCC66
:102AB000CCCCCCCCCCCCCCCCCCCCCCCCCCCCCCCC56
:102AC000CCCCCCCCCCCCCCCCCCCCCCCCCCCCCCCC46
:020000041001E9
:10B0C000CCCC0000000000000000000000000000E8
:10B0D0000000000000000000000000000000000070
:10B0E0000000000000000000000000000000000060
:10B0F0000000000000000000000000000000000050
:10B10000000000000000000000000000000000003F
:10B11000000000000000000000000000000000002F
:10B12000000000000000DDDDDDDDDDDDDDDDDDDD7D
:10B13000DDDDDDDDDDDDDDDDDDDDDDDDDDDDDDDD3F
:10B14000DDDDDDDDDDDDDDDDDDDDDDDDDDDDDDDD2F
:10B15000DDDDDDDDDDDDDDDDDDDDDDDDDDDDDDDD1F
:10B16000DDDDDDDDDDDDDDDDDDDDDDDDDDDDDDDD0F
:020000041003E7
:1037C000DDDDDDDDDDDD0020202020FF000000FF4D
:1037D0004020100800002060201010FF0000003F73
:1037E000404040407800B1B100040404E4242425A2
:1037F00026242424E4040404000040201B02428206
:103800007E0202020B10600000BEA9000000FC2432
:103810002424E4041F64844536840000444378482B
:10382000497A494C4A7948497A474000CAA200106F
:1038300060028C00FE02F2525A565252F20200040A
:10384000047E41300F201349817F0109132000D4E9
:10385000B400404042CC00101010907F9010101027
:1038600010000040201F2048444241404041424C4B
:103870004000B4EF002424A4FEA3220022CC0000C8
:10388000FF00000000080601FF0001040404040416
:10389000FF02020200BFC600101010FF109008883F
:1038A0008888FF88888808000444827F01808040DF
:1038B000432C102846818000BCBC0004040484E42E
:1038C0003C2724242424E40404040004020100FF0F
:1038D0000909090949897F00000000D3D00000FED2
:1038E000225A8600FE9292929292FE00000000FF01
:1038F00004080700FF4020030C1422414000CFDEE3
:10390000000080402018068000071820408000003A
:1039100000010020702826212020243860000101A9
:1039200000B9AB000010129292929292921212027F
:10393000FE0000000000003F101010103F0040800B
:103940007F000000CBBE000000000000000000006F
:103950002F000000000700070000147F147F1400F0
:10396000242A7F2A12006264081323003649552254
:103970005000000503000000001C2241000000412F
:10398000221C000014083E08140008083E08080025
:103990000000A0600000080808080800006060003F
:1039A00000002010080402003E5149453E0000423C
:1039B0007F4000004261514946002141454B3100A2
:1039C0001814127F10002745454539003C4A4949E3
:1039D000300001710905030036494949360006499E
:1039E00049291E000036360000000056360000004F
:1039F000081422410000141414141400004122146D
:103A00000800020151090600324959513E007C125A
:103A100011127C007F49494936003E414141220054
:103A20007F4141221C007F49494941007F09090922
:103A300001003E4149497A007F0808087F000041A3
:103A40007F4100002040413F01007F0814224100D7
:103A50007F40404040007F020C027F007F0408103E
:103A60007F003E4141413E007F09090906003E4179
:103A700051215E007F091929460046494949310014
:103A800001017F0101003F4040403F001F204020D6
:103A90001F003F4038403F006314081463000708CC
:103AA00070080700615149454300007F4141000013
:103AB000552A552A55000041417F000004020102A9
:103AC0000400404040404000000102040000205437
:103AD000545478007F48444438003844444420001B
:103AE000384444487F00385454541800087E090173
:103AF000020018A4A4A47C007F08040478000044F9
:103B00007D4000004080847D00007F10284400003C
:103B100000417F4000007C04180478007C08040405
:103B20007800384444443800FC2424241800182425
:103B30002418FC007C080404080048545454200055
:103B4000043F444020003C4040207C001C2040209A
:103B50001C003C4030403C004428102844001CA07D
:103B6000A0A07C004464544C441414141414140095
:103B70000000000000000000000000000000000045
:103B80000000F800000000000000333000000000DA
:103B9000100C06100C0600000000000000000040A1
:103BA000C07840C0784000043F04043F0404000093
:103BB0007088FC08300000001820FF211E0000F073
:103BC00008F000E018000000211C031E211E000068
:103BD000F00888700000001E2123241927211010EE
:103BE000160E0000000000000000000000000000B1
:103BF0000000E01804020000000007182040000048
:103C0000020418E0000000004020180700000040F7
:103C10004080F0804040000202010F0102020000DB
:103C20000000F0000000000101011F01010100007F
:103C30000000000000000080B070000000000000E4
:103C4000000000000000000001010101010101006D
:103C50000000000000000000303000000000000004
:103C600000000080601804006018060100000000D9
:103C7000E010080810E000000F102020100F0000D6
:103C80001010F8000000000020203F20200000005D
:103C900070080808887000003028242221300000B5
:103CA000300888884830000018202020110E0000BD
:103CB00000C02010F8000000070424243F24000066
:103CC000F80888880808000019212020110E00003B
:103CD000E0108888180000000F112020110E00004D
:103CE000380808C83808000000003F000000000045
:103CF00070880808887000001C222121221C000006
:103D0000E010080810E0000000312222110F00002E
:103D10000000C0C0000000000000303000000000C3
:103D20000000800000000000008060000000000033
:103D3000008040201008000001020408102000400C
:103D400040404040404000040404040404040000D7
:103D5000081020408000000020100804020100002C
:103D60007048080808F0000000003036010000C06C
:103D700030C828E810E0000718272423140B00009F
:103D800000C038E0000000203C2302022738200851
:103D9000F8888888700000203F202020110E00C085
:103DA00030080808083800071820202010080008EC
:103DB000F808080810E000203F202020100F00081D
:103DC000F88888E8081000203F20202320180008E9
:103DD000F88888E8081000203F200003000000C099
:103DE0003008080838000007182020221E020008AA
:103DF000F808000008F808203F210101213F2000B9
:103E00000808F8080800000020203F2020000000DB
:103E1000000808F8080800C08080807F00000008C3
:103E2000F888C028180800203F2001263820000804
:103E3000F8080000000000203F202020203000086B
:103E4000F8F800F8F80800203F003F003F20000885
:103E5000F830C00008F808203F200007183F00E0B5
:103E60001008080810E0000F10202020100F000894
:103E7000F808080808F000203F210101010000E0D7
:103E80001008080810E0000F18242438504F0008CC
:103E9000F8888888887000203F2000030C302000BC
:103EA000708808080838000038202121221C0018DA
:103EB0000808F8080818000000203F20000000084B
:103EC000F808000008F808001F202020201F000824
:103ED00078880000C83808000007380E010000F894
:103EE0000800F80008F800033C0700073C0300083E
:103EF0001868808068180820302C03032C302008B4
:103F000038C800C83808000000203F20000000101A
:103F1000080808C83808002038262120201800008A
:103F20000000FE020202000000007F40404000004E
:103F30000C30C000000000000000010638C0000086
:103F4000020202FE000000004040407F000000002E
:103F50000004020202040000000000000000000053
:103F60000000000000000080808080808080800051
:103F70000202040000000000000000000000000039
:103F8000008080808000000019242222223F200827
:103F9000F8008080000000003F112020110E00007A
:103FA00000008080800000000E1120202011000001
:103FB0000000808088F800000E112020103F2000B3
:103FC00000808080800000001F2222222213000037
:103FD0008080F0888888180020203F202000000082
:103FE00000808080808000006B949494936000082F
:103FF000F8008080800000203F210000203F20004A
:10400000809898000000000020203F202000000041
:104010000000809898000000C08080807F00000829
:10402000F8000080808000203F24022D3020000016
:104030000808F8000000000020203F202000008039
:1040400080808080808000203F20003F20003F80D3
:1040500080008080800000203F210000203F200061
:1040600000808080800000001F202020201F008012
:104070008000808000000080FFA12020110E000041
:1040800000008080808000000E112020A0FF808032
:104090008080008080800020203F212000010000DF
:1040A00000808080808000003324242424190000B4
:1040B0008080E0808000000000001F202000008041
:1040C00080000000808000001F202020103F208002
:1040D0008080000080808000010E30080601008092
:1040E000800080008080800F300C030C300F0000B7
:1040F000808000808080000020312E0E31200080E2
:104100008080000080808080818E70180601000011
:10411000808080808080000021302C2221300000AF
:10412000000000807C020200000000003F404000D0
:10413000000000FF00000000000000FF0000000081
:1041400002027C800000000040403F0000000000B0
:1041500006010102020404000000000000000080CB
:10416000210000060D0000605502201D12022025CE
:1041700012022027120220000000000000000000B0
:10418000000000000000000000000000000000002F
:104190000000002912022000000000000000002B97
:1041A0001202202D120220671102202F120220EF8E
:1041B0000E0220B70F02202F1202202F120220AB76
:1041C0000E02202F1202202F1202202F1202202F67
:1041D0001202202F1202202F1202202F1202202F53
:1041E0001202202F1202202F1202202F1202202F43
:1041F0001202202F1202202F1202202F1202202F33
:104200001202202F1202202F1202202F1202202F22
:104210001202202F1202202F1202202F1202202F12
:104220001202202F1202200348854601F004FB00F1
:10423000480047AB01022060550220FFB581B00E57
:10424000460746F8A0049A039900F0C9FA0121F93B
:104250004A0903002000F04CFC3522F649F74801DA
:10426000F0A6F8F548093001F0C6F8F249572244A3
:1042700018F2482146353001F09AF82021601C01DF
:10428000F0AFF80025002F10D00020395C00290A7B
:10429000D02218401CC0B251702028F6D305E0216E
:1042A00018401C4D70C0B22028F9D32046052121AA
:1042B0003001F096F8002E12D00020315C00290C5D
:1042C000D022182032401CC0B251700528F5D30608
:1042D000E021182031401C4D70C0B20528F8D321D0
:1042E000462631039801F091F821462231049808BE
:1042F00072000A487225700121002000F05DFC0167
:1043000023CD4A1903002000F02FFC012005B0F056
:10431000BD8EB000252021684601F062F800260815
:1043200096099672B6C64C606801780907090F7045
:1043300031017000F04EFAC2A000F051FA6068C17D
:104340007A09090901C91CC172C17A0907090F302C
:1043500031C172017B09090901C91C0173017B0983
:1043600007090F30310173052000F055FE032000CE
:10437000F05EFE002000F083FE002000F078FE00DA
:10438000F00BFFB84A0146904204D0B74881420181
:10439000D0B7A000E0BBA000F022FA00F02DFB0196
:1043A0002126800903A44A0804A66000F0A1FBA10D
:1043B0004E30783A2802D1707809283DD0B7A00055
:1043C000F00EFA0122120300219B4800F001FF7059
:1043D00079317907020F432780974801F00CF801E3
:1043E00002F078090A000601433A46B2A0A1600033
:1043F000F0F6F92188A06800F09CF8002851D0B5AB
:10440000A000F0EDF9A068010518D00830000B40BD
:104410001CC6B20127BF033146384600F0CDFB85EC
:104420004A01230832B349384600F06EFB0021B13F
:10443000A000F0D5F9761E18E0B3A0C0E708300060
:104440000BE6E7012000032F03391802467A4800E3
:10445000F0BFFEB44801233818774A190300F0541E
:10446000FB691CA4A000F0BBF96D1CB542E9D32088
:10447000892E0308300205012000033118120D6D4A
:104480004800F0A6FE2089012308300105A648094E
:104490000D3018684A00F038FB691C96A000F09FA8
:1044A000F902E0A1A000F09BF92188A06800F07E4D
:1044B000F800282DD0A5A000F092F96221684601ED
:1044C000706F22427082707422C270632202716126
:1044D00023437182716822C27165220272342242C2
:1044E00072392282723622C2726B22027341733297
:1044F0002108A801702E21417030218170014623CE
:10450000886846A268FFF799FE98A000F068F90E47
:10451000E09CA000F064F901242403464A2146A04F
:104520000000F0E6FA224643499FA000F06CF962D1
:10453000B6FEE7F3B589B0099800240826C0020743
:104540000C254610E0680181192022684600F040E1
:10455000FE002069460A5C401C1219C0B294B220C9
:1045600028F8D36D1CADB2BD42ECD30998C70668DC
:1045700001FF0E81193A46684600F02AFE002069C4
:104580004604E00A5C1219401C94B2C0B2B842F86A
:10459000D3214688A0099B0A9A00F021F90A988441
:1045A0004202D101200BB0F0BD0020FBE7F3B5893A
:1045B000B0099800240126B603C002070C25461056
:1045C000E0680180196A46202100F092FA00206913
:1045D000460A5C401C1219C0B294B22028F8D36D70
:1045E0001CADB2BD42ECD309986A46C706FF0E68FF
:1045F000018019394600F07CFA0020694604E00A7F
:104600005C1219401C94B2C0B2B842F8D32146697A
:10461000A0099B0A9A00F0E3F80A98844201D101AC
:1046200020C0E7D4E00000737A20253032782C20B7
:10463000253032780D0A0038400220385002200020
:10464000400220626F6F746C6F61646572207261EA
:104650006D20323031382D332D33302031372D302D
:10466000320D0A000000001440E00014405E0066B5
:104670006C6173682066696C65642069643A2578AA
:104680000D0A00666C617368207375636365656409
:104690002069643A25780D0A0000005359443838DF
:1046A0003231204348495020666C6173682066614E
:1046B000696C650D0A00007370695F666C617368F0
:1046C0002073697A653A257820636865636B737532
:1046D0006D3A25780D0A00737069666C6173682005
:1046E000636F646520636865636B73756D206F6BC2
:1046F0000D0A00F80F00006261636B5B25645D20AA
:10470000636F70790D0A00535944383832312043B1
:1047100048495020666C61736820737563636565F2
:10472000640D0A00000000F84F0000737069666CA9
:1047300061736820636F646520636865636B73757C
:104740006D206661696C650D0A00006361636865D0
:1047500020666C61736820636F64652063686563BD
:104760006B73756D206F6B0D0A0000726F6D5F6F5C
:1047700074615F636F64655F7570646174650D0A71
:10478000000000636163686520666C617368206384
:104790006F646520636865636B73756D206661691E
:1047A0006C650D0A000000636163686520666C73C8
:1047B000683A0D0A000000636B20253032782C2007
:1047C0002530327820253032780D0A0000000000B4
:1047D00020E8E610B50821002000F0E9FB10BD0F2D
:1047E000B410B5029900290AD003AA184801F0C9EB
:1047F000F8C1B2802900D98021154800F0F1FB10E2
:10480000BC08BC04B01847F8B5002415460E460095
:104810002801D0FFF7E4FF01277F0710E0600703BE
:10482000D1A1B20BA0FFF7DBFF315D0BA0FFF7D7E3
:10483000FF6007F84202D10AA0FFF7D1FF641CAC69
:1048400042ECDB600702D006A0FFF7C9FFF8BDC449
:104850005002205B253034785D20002530327820EE
:104860000000000D0A0000FFB583B0044600200CD4
:104870009F0D9E13460D4600900190042941D808D3
:104880002C3FD822461946684600F091FD042C06BC
:10489000D20421091B0098C9008840009007E00855
:1048A0002C05D20821091B0198C90088400190D02D
:1048B0004801790907090F2A011143017101792281
:1048C0000709090901120F11430171009981600163
:1048D00099C160417CFA0749084900D20F11434150
:1048E00074017C06740178012211430170017FC9B3
:1048F00007FCD0002D05D0BE492A46183106980085
:10490000F056FD07B0F0BDBA482030017901221100
:104910004301717047B748203001794908490001C7
:1049200071704710B5FFF7EFFFB348007800280318
:10493000D0B248416901208847FFF7ECFF10BDF76E
:10494000B5FF20013082B00D4681423ED8AB4FF812
:10495000688047A74C4034A07801210843A070A08C
:1049600078EF210840A070042D01D9042000E02830
:1049700046C6B2A148012387683146049A0298B816
:1049800047A81B85B20498861912E0082D01D908A2
:104990002000E02846C7B2FF21012000230191003A
:1049A00090324619463846FFF75EFFE81B85B2F69F
:1049B00019002DEAD1A07810210843A070A07840FA
:1049C000084000A0708D480069804705B0F0BD1F09
:1049D000B500239F20694602930873FFF794FF00F8
:1049E00093019302AB03AA03210120FFF73CFFFFD1
:1049F000F798FF029804B010BD10B57F4C206800F6
:104A00002802D1FFF7E4FF2060FFF77DFF7C4920FB
:104A100068884219D07B49884202D100F0A4FA018B
:104A2000E000F07BFA784860617848A0617848201F
:104A300061784860607848A0607848E0606E49011D
:104A4000200870FFF76EFF10BD00F0B7F9744860E2
:104A5000617448A06174482061744860607448A023
:104A6000607448EAE7FFB50646800783B0800F0010
:104A70009061480C460078002839D0FFF744FF00C9
:104A800098002830D004210D1AA54200D925465A95
:104A900049301A4F6801AA0421069BB847009801C3
:104AA000A909182A46059800F082FC0598401905C6
:104AB00090601B84B2761916E0042C01D9042500FD
:104AC000E025464D4801AA476804213046069BB8B8
:104AD000472A4601A9059800F06AFC059876194016
:104AE000190590601B84B2002CE6D1FFF71AFF086D
:104AF000E710B5404B1B78002B04D00123FFF7B221
:104B0000FF012010BD002010BDFFB53A4881B00064
:104B1000780C46002827D0FFF7F6FE374E16E00443
:104B20002C01D9042500E02546F0688047B76801CC
:104B3000232946039A0198B8473069804701984075
:104B4000190190039840190390601B84B2002CE671
:104B5000D1FFF7E7FE0498002804D03648017B0116
:104B60002211430173012030E7FFB5074622488137
:104B7000B0007816460D4600281DD0FFF7C4FE0D84
:104B8000E0FF240134A54200D82C463246214638A5
:104B900046FFF7D5FE3F193619281B85B2002DEFC9
:104BA000D1FFF7BFFE0498012804D12248017B0100
:104BB0002211430173012008E770B50C460A46052F
:104BC0004601461DA0FFF70BFE0B48007800280E9B
:104BD000D0FFF799FE094821468369284698472265
:104BE0004629461EA0FFF7FBFDFFF79BFE01207044
:104BF000BD0000005000500C400220445102201320
:104C0000381C003325C200A50D0220670D022009C3
:104C10000D02207D0C0220C10C02202D0D0220452A
:104C20000C0220070C0220A90B02201D0B022061A0
:104C30000B0220CD0B0220004000503E666C6173D9
:104C4000682065726173653A616464722825303248
:104C500078292C6E756D2825303278290D0A003C94
:104C6000666C6173682065726173653A6164647231
:104C70002825303278292C6E756D28253032782918
:104C80000D0A001FB51C460002000A0023002C0F6D
:104C9000D0EB242406204303930290FE230120013D
:104CA0009300901346C9B202AA0720FFF7DCFD1F4C
:104CB000BD0324240620430093019302901346C9A8
:104CC000B202AA0420F1E77FB51E46134604020D86
:104CD000460A46240A194603A800F069FB2D1D0068
:104CE0002E0ED0192040060443F02001210294002A
:104CF0009101900023E8B202AA1946FFF7B4FD7FA4
:104D0000BD012040060443002002940090F0E71FFC
:104D1000B505206946087200240121009403AB0206
:104D2000AA08460194FFF79FFD6846007BC007F381
:104D3000D11FBD1FB50621684601720024009423CF
:104D40004602AA214601200194FFF78DFD05216846
:104D50004601720121009403AB02AA08460194FFA8
:104D6000F782FD6846007B8007F3D51FBDFEB500C6
:104D7000240F460546264615E0FFF7DBFF29020112
:104D800020090A4007081800230290009602AA1979
:104D90004601960420FFF767FDFFF7B9FF012000E9
:104DA000032D18641CBC42E7DBFEBD08B503466A50
:104DB0004604210020FFF765FF08BD0EB5FFF7B9D7
:104DC000FF012168464172402101720020009003DA
:104DD000460146019002AA0220FFF745FDFFF79722
:104DE000FF0EBD1FB51C460002000A0023002C0F59
:104DF000D0EB242406204303930290FE23012001DC
:104E00009300901346C9B202AA0720FFF72CFD1F9A
:104E1000BD0324240620430093019302901346C946
:104E2000B202AA0420F1E77FB51E46134604020D24
:104E3000460A46240A194603A800F0B9FA2D1D00B7
:104E40002E0ED00720C0060443FE2001210294004C
:104E50009101900023E8B202AA1946FFF704FD7FF2
:104E6000BD012040060443002002940090F0E71F9B
:104E7000B505206946087200240121009403AB02A5
:104E8000AA08460194FFF7EFFC6846007BC007F3D1
:104E9000D11FBD1FB506216846017200240094236E
:104EA0004602AA214601200194FFF7DDFC05216896
:104EB0004601720121009403AB02AA08460194FF47
:104EC000F7D2FC6846007B8007F3D51FBDFEB50016
:104ED000240F460546264615E0FFF7DBFF290201B1
:104EE00020090A4007081800230290009602AA1918
:104EF0004601960420FFF7B7FCFFF7B9FF01200039
:104F0000032D18641CBC42E7DBFEBD08B503466AEE
:104F10004604210020FFF765FF08BDFEB5114C20B7
:104F2000788006850FFFF7B5FF012069468872403B
:104F3000204872002008722178CF2631401031219C
:104F400070009003460146019002AA0320FFF78BF0
:104F5000FCFFF78DFF20782901304008432070FEC8
:104F6000BD000000100050FEB5104C207880068572
:104F70000FFFF78FFF012168464172402101722027
:104F800078CF26304010302070002000900346017A
:104F900046019002AA0220FFF766FCFFF768FF2097
:104FA000782901304008432070FEBD0010005010E9
:104FB000B5184A52689378082423439370137809EC
:104FC000071B091B01090F0B431370117849064990
:104FD0000EC0010143117010784021084310701079
:104FE000BD70B50B4A002310245268DF250DE05632
:104FF00078C65C5670D6782643D6701678B606FC0E
:10500000D516782E4016705B1CDBB28B42EFD37046
:10501000BD704710400220062800D3052046498A6B
:10502000788F2340071A40400E02438A707047036E
:105030002800D903204049CA78FD231A40C3079BA2
:105040000F1A43CA70CA78800752085200C00F0274
:1050500043CA70704710B538480068002800D080F7
:105060004735482030417901221143417110BD314B
:105070004920310A785208520002430A7070472DC5
:105080004920310A7901235208520043401A430A49
:10509000710421002801D0294801E028488030010E
:1050A0006070470B4610B513439B0703D025A0FF44
:1050B000F796FB10BD202800D920201E4B2033DCA2
:1050C000788006A409A401800E0443DC709C78A4B7
:1050D00009A40104439C7018899C7A890324042044
:1050E00043800C8004890B08431881000C98729847
:1050F00089997B09040843800C80049103890B087B
:10510000439881000C987359780120014359709994
:1051100079C907FCD059790143597110BD10B50602
:10512000484068002800D080470348417D01221193
:1051300043417510BD000000B0025018400220002D
:10514000E100E053504920444D41206D75737420B7
:10515000626520342D6279746520616C69676E6DBB
:10516000656E740D0A000010B504000BD000211804
:105170002000F0E7F80021182000F073F82046FF27
:10518000F776FF10BDFFF773FF182000F08EF803CD
:1051900021182000F0D6F810BD1CB5002000902F7B
:1051A000A00068019004240120FFF761FF01AA69B3
:1051B000462046FFF776FF0020FFF759FF69464873
:1051C0007889780004090208436946C97808431CB5
:1051D000BDF7B590B00D4616460024202108A80062
:1051E000F0FFF82021684600F0FBF87709F606F694
:1051F0000E0120FFF7B8FF032168460170290C411A
:1052000070290A8170C5706A4608A90420FFF74911
:10521000FFFF222021684600F0DCF80DE06A460816
:10522000A92020FFF73EFF109861010818202208EE
:10523000A900F0BDF8641CA4B2BC42EFD330466AAA
:105240004608A9FFF72EFF1098610108183246089A
:10525000A900F0ADF80020FFF786FF13B0F0BD9F66
:10526000FFFFFF8206D30F20229043012230B58238
:105270004033489B00C4582276150A6576150CA564
:1052800076150EE576C058002907D00271110A4143
:1052900071110C8171110EC17130BD0272110A4180
:1052A00072110C8172110EC17230BD8106CA0F20BD
:1052B000218843012181409000214A105801710A40
:1052C0000A42710A0C8271090EC1717047F8B51B50
:1052D0004E0024A700F05914220146403189180AD3
:1052E0007815464A78120215438A78C9781204154F
:1052F0004309060D432030024611780846517809CB
:10530000020843917809040843D178090608430547
:105310004010D00A48001F0268002A02D029462007
:10532000469047F05940300575290A4175290C818E
:1053300075290EC175641CE4B2022CCAD3F8BD24D1
:1053400040022010B5272819D20907C307090FDB2F
:105350000F0B4A202802DA4010126802E02038526F
:1053600068401010180478002B01D00F2200E0F0E4
:10537000222240002B00D009010A43027010BD2CEC
:105380004002200448804704480047FEE7FEE7FE4D
:10539000E7FEE7FEE7FEE739120220C10002200225
:1053A0004901480860704740787D0134400220037D
:1053B000460B439B0703D009E008C9121F08C0042D
:1053C0002AFAD203E00B780370401C491C521EF9E4
:1053D000D27047D2B201E00270401C491EFBD2706D
:1053E000470022F6E710B513460A4604461946FF61
:1053F000F7F0FF204610BD0321001D401E03781268
:10540000021A43491EF9D510467047034603220885
:1054100070000A491C521EFAD51846704730B50B69
:1054200046014600202022012409E00D46D5409D7A
:105430004205D31D469540491B2546954040191508
:1054400046521E002DF1DC30BDF0B51FB4064600FB
:105450002082B005464024019100901BE001992272
:10546000460F46304600F009FA049A059B801A99C7
:105470004110D310461946224600F0EFF9361A8F34
:10548000410197224601200021009F00F0E6F938F3
:10549000184D4100902046641E0028DFDC019B006F
:1054A000982946324607B0F0BD0000F0B50746081F
:1054B00046584087B0C00F049048000E465900403F
:1054C000084908BC1A884105D2384631461E46179D
:1054D000460B4602465800400810434CD0300D039E
:1054E0009040055900400D490D0590401A0290402A
:1054F0002872DA18030121000B0905084301900402
:10550000980092002805D00199524200208841005D
:10551000920190029840210A1A0199009800F09D8A
:10552000F905460C466B4607CB00F0B8F9C0197177
:1055300041039A0E0D0023D71756401A467A40169B
:105540004344D0049A002A2DD0029A012A039A15C6
:10555000DC1205C01A914101263605001C7141D2AA
:105560000F059ED2070093019202962A4623460019
:10557000F0B5F907B0F0BD38463146FAE716052216
:105580004A0F46B218C01AB74101210905001C4F45
:105590004100187F41114618187941E20F10436D00
:1055A00019644113E0E2076D0815436408C207144B
:1055B00043039A01261205C01A91413605001C7159
:1055C00041CE07400830434908C01851412A4623BC
:1055D0004600F077F9CDE7FFE7049801224000C1CB
:1055E00017121A00238B4104983146C417381AA1A8
:1055F00041EEE730B40124E407634030BC55E730A6
:10560000B40124E407614030BC4FE70000E0FFF044
:10561000B51FB488B00B990998002448400999C077
:105620000F490049080991C0070B990090490049AA
:10563000080B9109990898A64608431CD00B990AB3
:1056400098084318D0099801244000420D480041B1
:105650000D099824050003000B204309900B9800C6
:1056600003000B20430B9050181C494018002201E6
:10567000901446104605E0002001460DB0F0BD0331
:105680002801DA034600E003239C46C11A0AAE0A49
:10569000E05F0008ADED5B4F00F75B7D430027AA9C
:1056A000187C41491C5B1E6145F2DD410004AB5A88
:1056B000522104120C0A43240C401C0828DFDB0191
:1056C0009802900099704601910090059B049A07FA
:1056D00099069800F003F9D0E700000DFCFFFFF0F9
:1056E000B50C465C4085B0E40FE40703944C000021
:1056F000266408590094464908024602962243212E
:10570000D062460A431ED06200570D4A000E0323A2
:1057100003550D012402462C492405781B1B0B362A
:105720000B401823432643614600901C46501AB490
:105730004103D30098401C009002E0921800985B4F
:1057400041002803DA0020014605B0F0BD00200129
:105750002109050746864611E064461D46141BB51F
:105760004106D36546521BB341744607430C43A61A
:1057700046CD0740084908284392185B4105460D6D
:1057800043EAD11046184313D06046194650407181
:1057900040084306D06046101AB34106D2012200E9
:1057A0002306E000220123DB0702E00122D243535B
:1057B00010009874460105381C6141029C039D004D
:1057C00019694100F07EF8BFE70000FD0300004AC0
:1057D0000009030123090B1B0519430A4B10B5529D
:1057E0000D9A4202DA0020014610BD064B34339A6E
:1057F0004203DC9A1A00F041F810BD034BD21800A6
:10580000F02CF810BD0000FF030000CDFBFFFF10DF
:10581000B5002904DB0124E40740428C4121460005
:105820002B04DB1C460123DB075242A341994200B3
:10583000D1904210BD0000064C0125064E05E0E364
:105840006807CC2B430C3C98471034B442F7D3FE86
:10585000F7EEFC282102204821022010B5202A045E
:10586000DB0146203A9140002010BD914020239C4E
:105870001A0346E3401943904010BD10B5202A0496
:10588000DB0846203AD040002110BD0B46D340D063
:10589000402024A21A91400843194610BD10B5209B
:1058A0002A06DBCB170846203A1041C1170B4306E6
:1058B000E00B461341D0402024A21A91400843191E
:1058C0004610BD10B5002B08DA0024401C6141923F
:1058D000185B411A4301D14008400010BDF0B51FCC
:1058E000B482B005460C0003D0084600F05CF80214
:1058F000E000F059F820300246009021462846FF8B
:10590000F7ACFF049B059A04460F46184311430861
:105910004314D0184610431BD0009840210A1A188F
:10592000460599FFF7AAFF05460E46009A05990419
:1059300098FFF793FF084305D0012004E020463983
:105940004607B0F0BD0020C11705430E432C433776
:105950004300990E986305401A7905E40A00220C69
:1059600043FD0A0A3002D500200146E9E70105108F
:105970001969410C9C0D9D00196941FFF7A2FFDFD9
:10598000E7000037B514460846064B6A4621460034
:10599000F0DCF804466946002000F073FC20463E27
:1059A000BD00001D2102202021020C01D010211079
:1059B00046020A01D010460839020901D0104609F2
:1059C0001F820801D01046891E420801D0881E702F
:1059D00047081A704702E008C8121F08C1002AFAD7
:1059E000D170477047002001E001C1121F002AFB5F
:1059F000D17047F0B51FB484B007980699020D0125
:105A00004314D04A484B491018484305140F9801D5
:105A1000280E981CD0281A401C0024464E474900E6
:105A20009401910290002814DA474227E00F980170
:105A30002443A3012808D0002104980F9A8460030E
:105A400060C260416009B0F0BD0E98C143F4E74008
:105A500042E2E7074612E0F80707D0224633460144
:105A6000990098FFF7D4FD0191009022463346102B
:105A7000461946FFF7CCFD04460E467F10002FEA7C
:105A8000D10298019B0028009A0799069802DAFF34
:105A9000F7BEFD01E0FFF723FE04460E4600222874
:105AA0004BFFF7B5FE03D80020C043014607E000D6
:105AB00022254B20463146FFF7F8FCFFF788FE1001
:105AC0002409E0002C0ADB0A220023FFF7BDFC05B5
:105AD0009B30321A55641E02460A43F2D1112264E9
:105AE0001C059B121B1C190F9B012B03D0012308C3
:105AF000430ED10AE0084304D011200E9000200F7D
:105B00009084E70E98151A6D1E0BE00E98824202E3
:105B1000DD00236D1C03E0824201DA00236D1E00CC
:105B20002BEED004980F998260C16030C08AE701E3
:105B3000FCFFFF104D0000000024400000F03F304B
:105B40000000000000F0430000E03FFFB597B00602
:105B500046002518E2252877D100242746FD490470
:105B60009400E00443761C32780120203A904008EB
:105B700042F7D130782A280ED00222307801463000
:105B800039092916D804990A235943303940181481
:105B900043761C0490F1E7189802C804911890000D
:105BA0002904DA01204003044348420490022004FF
:105BB00043761C30782E2814D10420044370787664
:105BC0001C2A2809D11898761C80C8189009E00A68
:105BD000214F43303FC719761C30780146303909D0
:105BE00029F5D930786C2810D006DC4C281AD068FA
:105BF000280ED06A2817D104E0742813D07A28120E
:105C0000D110E00120400504430CE0012109050109
:105C1000E0032109050C437178814203D101200082
:105C2000052418761C761C3078119066280BD0134A
:105C3000DC58287DD009DC00287BD04528F6D046EA
:105C400028F4D047281AD1A5E118E0632835D0649C
:105C50002870D0652812D19DE170286CD008DC67CF
:105C600028F1D069287BD06E280DD06F2806D1BAD4
:105C7000E073282ED0752871D0782859D01A9A1937
:105C80009990476D1C7EE16002400F022809D00305
:105C9000280DD00428189801680DD00D60001D183B
:105CA0009070E11898EA1701680D604A60F6E718ED
:105CB0009801680D80F2E70D70F0E718986A4601C8
:105CC000781172001D18900020507202A8009001F7
:105CD0002005E0189802C8189000200091C0436188
:105CE000070DD5002101E00199491C0191B942122B
:105CF000DA8142F8DB009A515C0029F4D10BE00014
:105D00002101E00199491C01918142FADB019A00CD
:105D100099895C0029F5D1019904981A9B471A21A9
:105D2000463846199A00F097FA0199401945180B20
:105D3000E04FE02CE113E04EE00098009900784934
:105D40001C00911A9A199990470198401E019040A1
:105D50001CF2D1214638461A9B199A10E137E00A05
:105D6000200021009001916002410F022907D01804
:105D70009A01CA1892C2179446032908D00AE0185B
:105D800098C01DC108C90005C91891944607E000D4
:105D9000B2C2179446042902D140B2C1178C460002
:105DA000226146944506DA0A460021404291418C20
:105DB000462D2102E0210504D52B216A46117301ED
:105DC0002103E0E10701D02021F7E7029155E00A25
:105DD000200AE0102008E010200090002104200498
:105DE000430191082703E008200021019100906001
:105DF00002410F022907D0189A01CA189200229472
:105E000046032908D008E01898C01DC108C900053C
:105E1000C91891944603E080B2042900D1C0B200B1
:105E2000210291210729D51199702906D0009A10D5
:105E300021019B4A401A4305D00EE040216A4611D9
:105E400073012108E06146014306D030216A461102
:105E5000731199517302210291009A0821019B4A02
:105E6000401A430AD16146014301D1610705D5308B
:105E7000216A46117301217F1E029111995829044C
:105E8000D035A10E910DA90D910DE037A1F9E76173
:105E900046019B009AFFF7D8FA0E9B8C469B5C0D3F
:105EA0009A521E0D92137061460143F0D10D980570
:105EB000A9081A20300190600703D501200004844E
:105EC0004300E001270198874201DD381A00E00015
:105ED00020019900904118029809180498401A046A
:105EE00090E00306D421461A9B199A049800F0B357
:105EF000F94519002706E003A81A9AC05D19999080
:105F0000476D1C7F1C02988742F5DBE0030CD5210E
:105F1000461A9B199A049800F09EF9451904E01A54
:105F20009A3020199990476D1C0099481E009000E6
:105F300029F5DC08E00D980D990078491C0D911A9F
:105F40009A199990476D1C0199481E01900029F1FA
:105F5000DC63E1092801003031323334353637381B
:105F600039616263646566000000003031323334A9
:105F70003536373839414243444546000000000079
:105F8000F05AF94519761C3078002800D0E2E5284F
:105F9000461BB0F0BD600700D406271898C01DC18D
:105FA00008C90048680A680831C30FDB071891194F
:105FB0000001D09CA108E0210501D59BA104E0E1EE
:105FC0000701D09AA100E09AA1430011985B081044
:105FD0009165280CD006DC452809D046281DD047FD
:105FE0002841D141E0662818D067283CD13CE00028
:105FF00021112F01DB112000E0781C019100900895
:10600000A911A8FFF7F6FC139905910021119A1523
:10601000927F1C12980197009150E00120C0070365
:10602000900120019008A9009711A8FFF7E2FC1346
:106030009A149905920022119B00921298159305CB
:106040009A0192002901D0104602E0791C40180103
:1060500090381A01D5019804E04042401E00907823
:106060001C0190C01B029043E0012F00DA012700C1
:1060700021112F01DD112000E03846019100900828
:10608000A911A8FFF7B6FC13990591119A002112E6
:106090009815920091019721070CD40599B94201F6
:1060A000DB019900E00191012904DD159A491E5197
:1060B0005C302906D0B84201DA011D05DA0121025F
:1060C0009115E00199491EEDE7002805DC00994192
:1060D0001800910199091A03E0019A411C914200AC
:1060E000DD01910099401A401C02900120C0070375
:1060F00090200706D402990198814202DB0020C05B
:1061000043029000206946C87707AF012103980336
:1061100037C907884224D0022011902B2012900307
:106120009800280CDA404203902D20129007E00AD4
:10613000210398FFF773F930317F1E0390397011F6
:1061400099481E11900029F2DC03980028EFD179BC
:106150001E129808703078202108404530BF1E3844
:106160007006A8C01BC01D0390109800780028007E
:10617000D00120019941180298C017091803980905
:10618000180498401A401E0490E00306D421461AD1
:106190009B199A049800F05FF84519109800780050
:1061A0002803D01A9A199990476D1CE00324D52131
:1061B000461A9B199A049800F04EF845191CE00005
:1061C00098002807DB00990598884203DD15984060
:1061D0005C199901E0199930201A9A904700986D3E
:1061E0001C401C00900298401E0290002804D11A06
:1061F0009A2E20199990476D1C0199481E01900014
:1062000029DDDC05E038781A9A7F1C199990476DD2
:106210001C0399481E03900029F4DC21461A9B199F
:106220009A0498ACE600002D0000002B000000202E
:1062300000000000000000F8B5044600251E4617C7
:1062400046880404D405E039462020B0476D1C641C
:106250001EF9D52846F8BDFFB50446002581B01EBD
:1062600046C80301D5302700E02027880404D5055F
:10627000E038460399B0476D1C641EF9D5284605E1
:10628000B0F0BD0A68531C0B6010707047000048E6
:1062900021022000400220380000006E18022080F9
:1062A00021022038400220281500007E180220001C
:1062B00000000060100050000000000000000070AE
:1062C000B0025078B0025000000000000000000052
:1062D0000000000000005080000050601000508C52
:1062E00010005040787D010008630310000000207A
:1062F000F08601002621001040660310F086012080
:1063000020250000DE21001002FFAA01FF01FF018D
:10631000FF01FF01FF01FF01FF01FF01FF01FF017D
:10632000FF01FF01FF01FF01FF01FF01FF01FF016D
:10633000FF01FF01FF01FF01FF01FF01FF01FF015D
:10634000FF01FF01FF01FF01FF01FF01FF01FF014D
:10661000FF01FF01FF01FF01FF012A1B5080044120
:106620001360101B508C041E70B00250780469086F
:106630001A40041A5404816D40787D013001100025
:04000005100000C126
:00000001FF
