Component: ARM Compiler 5.06 (build 20) Tool: armlink [4d35a3]

==============================================================================

Section Cross References

    main.o(.text) refers to main.o(.text) for gap_s_adv_parameters_set
    main.o(.text) refers to ota.o(.text) for ota_rsp
    main.o(.text) refers to queue.o(.text) for enqueue_all
    main.o(.text) refers to uread4.o(.text) for __aeabi_uread4
    main.o(.text) refers to rt_memcpy.o(.text) for __aeabi_memcpy
    main.o(.text) refers to main.o(.data) for dev_addr
    main.o(.text) refers to uart.o(.bss) for rx_queue
    main.o(.text) refers to ota.o(.data) for ota_state
    main.o(.text) refers to main.o(i.__ARM_common_switch8) for __ARM_common_switch8
    main.o(.text) refers to uwrite4.o(.text) for __aeabi_uwrite4
    main.o(.text) refers to aeabi_sdiv.o(.text) for __aeabi_idivmod
    main.o(.text) refers to uart.o(.text) for uart_write
    main.o(.text) refers to timer.o(.text) for timer_disable
    main.o(.text) refers to pad_mux_ctrl.o(.text) for pad_mux_write
    main.o(.text) refers to gpio.o(.text) for gpi_config
    main.o(.text) refers to main.o(.constdata) for _gatt_database_report_handle
    main.o(.text) refers to main.o(.bss) for uart_data_temp
    main.o(.text) refers to uart.o(.data) for UART_CTRL
==============================================================================

Removing Unused input sections from the image.

    Removing main.o(.rev16_text), (4 bytes).
    Removing main.o(.revsh_text), (4 bytes).
    Removing gpio.o(.rev16_text), (4 bytes).
    Removing gpio.o(.revsh_text), (4 bytes).
    Removing delay.o(.rev16_text), (4 bytes).
    Removing delay.o(.revsh_text), (4 bytes).
    Removing delay.o(.text), (56 bytes).
    Removing pad_mux_ctrl.o(.rev16_text), (4 bytes).
    Removing pad_mux_ctrl.o(.revsh_text), (4 bytes).
    Removing uart.o(.rev16_text), (4 bytes).
    Removing uart.o(.revsh_text), (4 bytes).
    Removing debug.o(.rev16_text), (4 bytes).
    Removing debug.o(.revsh_text), (4 bytes).
    Removing queue.o(.rev16_text), (4 bytes).
    Removing queue.o(.revsh_text), (4 bytes).
    Removing timer.o(.rev16_text), (4 bytes).
    Removing timer.o(.revsh_text), (4 bytes).
    Removing ota.o(.rev16_text), (4 bytes).
==============================================================================

Image Symbol Table

    Local Symbols

    Symbol Name                              Value     Ov Type        Size  Object(Section)

    ../clib/angel/boardlib.s                 0x00000000   Number         0  boardshut.o ABSOLUTE
    ../clib/angel/boardlib.s                 0x00000000   Number         0  boardinit3.o ABSOLUTE
    ../clib/angel/boardlib.s                 0x00000000   Number         0  boardinit2.o ABSOLUTE
    ../clib/angel/boardlib.s                 0x00000000   Number         0  boardinit1.o ABSOLUTE
    ../clib/angel/handlers.s                 0x00000000   Number         0  __scatter_copy.o ABSOLUTE
    ../clib/angel/handlers.s                 0x00000000   Number         0  __scatter_zi.o ABSOLUTE
    ../clib/angel/kernel.s                   0x00000000   Number         0  rtexit2.o ABSOLUTE
    ../clib/angel/kernel.s                   0x00000000   Number         0  __rtentry4.o ABSOLUTE
    ../clib/angel/kernel.s                   0x00000000   Number         0  __rtentry2.o ABSOLUTE
    ../clib/angel/kernel.s                   0x00000000   Number         0  rtexit.o ABSOLUTE
    ../clib/angel/kernel.s                   0x00000000   Number         0  __rtentry.o ABSOLUTE
    ../clib/angel/rt.s                       0x00000000   Number         0  rt_raise.o ABSOLUTE
    ../clib/angel/rt.s                       0x00000000   Number         0  rt_div0.o ABSOLUTE
    ../clib/angel/rt.s                       0x00000000   Number         0  aeabi_idiv0_sigfpe.o ABSOLUTE
    ../clib/angel/rt.s                       0x00000000   Number         0  aeabi_idiv0.o ABSOLUTE
    ../clib/angel/scatterp.s                 0x00000000   Number         0  __scatter.o ABSOLUTE
    ../clib/angel/startup.s                  0x00000000   Number         0  __main.o ABSOLUTE
    ../clib/angel/sys.s                      0x00000000   Number         0  libspace.o ABSOLUTE
    ../clib/angel/sys.s                      0x00000000   Number         0  sys_stackheap_outer.o ABSOLUTE
    ../clib/angel/sys.s                      0x00000000   Number         0  tempstk.o ABSOLUTE
    ../clib/angel/sys.s                      0x00000000   Number         0  use_no_semi.o ABSOLUTE
    ../clib/angel/sys.s                      0x00000000   Number         0  indicate_semi.o ABSOLUTE
    ../clib/angel/sysapp.c                   0x00000000   Number         0  sys_exit.o ABSOLUTE
    ../clib/angel/sysapp.c                   0x00000000   Number         0  sys_wrch.o ABSOLUTE
    ../clib/angel/sysapp.c                   0x00000000   Number         0  sys_command.o ABSOLUTE
    ../clib/armsys.c                         0x00000000   Number         0  argv_veneer.o ABSOLUTE
    ../clib/armsys.c                         0x00000000   Number         0  _get_argv_nomalloc.o ABSOLUTE
    ../clib/armsys.c                         0x00000000   Number         0  no_argv.o ABSOLUTE
    ../clib/division.s                       0x00000000   Number         0  aeabi_sdiv.o ABSOLUTE
    ../clib/division.s                       0x00000000   Number         0  aeabi_sdiv_div0.o ABSOLUTE
    ../clib/heapalloc.c                      0x00000000   Number         0  hrguard.o ABSOLUTE
    ../clib/heapaux.c                        0x00000000   Number         0  heapauxi.o ABSOLUTE
    ../clib/libinit.s                        0x00000000   Number         0  libshutdown2.o ABSOLUTE
    ../clib/libinit.s                        0x00000000   Number         0  libinit2.o ABSOLUTE
    ../clib/libinit.s                        0x00000000   Number         0  libinit.o ABSOLUTE
    ../clib/libinit.s                        0x00000000   Number         0  libshutdown.o ABSOLUTE
    ../clib/memcpset.c                       0x00000000   Number         0  rt_memcpy.o ABSOLUTE
    ../clib/memcpset.c                       0x00000000   Number         0  rt_memcpy.o ABSOLUTE
    ../clib/memcpset.c                       0x00000000   Number         0  rt_memclr.o ABSOLUTE
    ../clib/signal.c                         0x00000000   Number         0  defsig_fpe_formal.o ABSOLUTE
    ../clib/signal.c                         0x00000000   Number         0  defsig_fpe_outer.o ABSOLUTE
    ../clib/signal.c                         0x00000000   Number         0  defsig_fpe_inner.o ABSOLUTE
    ../clib/signal.c                         0x00000000   Number         0  defsig_exit.o ABSOLUTE
    ../clib/signal.c                         0x00000000   Number         0  defsig_rtmem_outer.o ABSOLUTE
    ../clib/signal.c                         0x00000000   Number         0  defsig_other.o ABSOLUTE
    ../clib/signal.c                         0x00000000   Number         0  defsig_segv_inner.o ABSOLUTE
    ../clib/signal.c                         0x00000000   Number         0  defsig_cppl_inner.o ABSOLUTE
    ../clib/signal.c                         0x00000000   Number         0  defsig_pvfn_inner.o ABSOLUTE
    ../clib/signal.c                         0x00000000   Number         0  defsig_stak_inner.o ABSOLUTE
    ../clib/signal.c                         0x00000000   Number         0  defsig_rtmem_formal.o ABSOLUTE
    ../clib/signal.c                         0x00000000   Number         0  defsig_rtmem_inner.o ABSOLUTE
    ../clib/signal.c                         0x00000000   Number         0  defsig_rtred_inner.o ABSOLUTE
    ../clib/signal.c                         0x00000000   Number         0  defsig_abrt_inner.o ABSOLUTE
    ../clib/signal.c                         0x00000000   Number         0  defsig_general.o ABSOLUTE
    ../clib/signal.c                         0x00000000   Number         0  __raise.o ABSOLUTE
    ../clib/signal.s                         0x00000000   Number         0  defsig.o ABSOLUTE
    ../clib/stdlib.c                         0x00000000   Number         0  exit.o ABSOLUTE
    ../clib/string.c                         0x00000000   Number         0  memcmp.o ABSOLUTE
    ../clib/unhosted.c                       0x00000000   Number         0  uwrite4.o ABSOLUTE
    ../clib/unhosted.c                       0x00000000   Number         0  uread4.o ABSOLUTE
    ../fplib/cfplib/daddsub.c                0x00000000   Number         0  daddsub.o ABSOLUTE
    ../fplib/cfplib/ddiv.c                   0x00000000   Number         0  ddiv.o ABSOLUTE
    ../fplib/cfplib/dmul.c                   0x00000000   Number         0  dmul.o ABSOLUTE
    ../fplib/cfplib/f2d.c                    0x00000000   Number         0  f2d.o ABSOLUTE
    ../fplib/cfplib/ffix.c                   0x00000000   Number         0  dfixui.o ABSOLUTE
    ../fplib/cfplib/fflt.c                   0x00000000   Number         0  fflti.o ABSOLUTE
    ../fplib/cfplib/fflt.c                   0x00000000   Number         0  dflti.o ABSOLUTE
    ../fplib/cfplib/fpinit.c                 0x00000000   Number         0  fpinit.o ABSOLUTE
    ../fplib/faddsub6m.s                     0x00000000   Number         0  faddsub.o ABSOLUTE
    ../fplib/usenofp.s                       0x00000000   Number         0  usenofp.o ABSOLUTE
    ..\..\..\BLE\ota.c                       0x00000000   Number         0  ota.o ABSOLUTE
    ..\..\..\Rtt\SEGGER_RTT.c                0x00000000   Number         0  segger_rtt.o ABSOLUTE
    ..\..\..\Rtt\SEGGER_RTT_Syscalls_KEIL.c  0x00000000   Number         0  segger_rtt_syscalls_keil.o ABSOLUTE
    ..\..\..\Rtt\SEGGER_RTT_printf.c         0x00000000   Number         0  segger_rtt_printf.o ABSOLUTE
    ..\..\..\Source\debug.c                  0x00000000   Number         0  debug.o ABSOLUTE
    ..\..\..\Source\delay.c                  0x00000000   Number         0  delay.o ABSOLUTE
    ..\..\..\Source\gpio.c                   0x00000000   Number         0  gpio.o ABSOLUTE
    ..\..\..\Source\pad_mux_ctrl.c           0x00000000   Number         0  pad_mux_ctrl.o ABSOLUTE
    ..\..\..\Source\queue.c                  0x00000000   Number         0  queue.o ABSOLUTE
    ..\..\..\Source\timer.c                  0x00000000   Number         0  timer.o ABSOLUTE
    ..\..\..\Source\uart.c                   0x00000000   Number         0  uart.o ABSOLUTE
    ..\\..\\..\\BLE\\ota.c                   0x00000000   Number         0  ota.o ABSOLUTE
    ..\\..\\..\\Rtt\\SEGGER_RTT.c            0x00000000   Number         0  segger_rtt.o ABSOLUTE
    ..\\..\\..\\Rtt\\SEGGER_RTT_Syscalls_KEIL.c 0x00000000   Number         0  segger_rtt_syscalls_keil.o ABSOLUTE
    ..\\..\\..\\Rtt\\SEGGER_RTT_printf.c     0x00000000   Number         0  segger_rtt_printf.o ABSOLUTE
    ..\\..\\..\\Source\\debug.c              0x00000000   Number         0  debug.o ABSOLUTE
    ..\\..\\..\\Source\\delay.c              0x00000000   Number         0  delay.o ABSOLUTE
    ..\\..\\..\\Source\\gpio.c               0x00000000   Number         0  gpio.o ABSOLUTE
    ..\\..\\..\\Source\\pad_mux_ctrl.c       0x00000000   Number         0  pad_mux_ctrl.o ABSOLUTE
    ..\\..\\..\\Source\\queue.c              0x00000000   Number         0  queue.o ABSOLUTE
    ..\\..\\..\\Source\\timer.c              0x00000000   Number         0  timer.o ABSOLUTE
    ..\\..\\..\\Source\\uart.c               0x00000000   Number         0  uart.o ABSOLUTE
    ..\\main.c                               0x00000000   Number         0  main.o ABSOLUTE
    ..\main.c                                0x00000000   Number         0  main.o ABSOLUTE
    Driver\\aec-ccm.c                        0x00000000   Number         0  aec-ccm.o ABSOLUTE
    Driver\aec-ccm.c                         0x00000000   Number         0  aec-ccm.o ABSOLUTE
    Driver\aes.c                             0x00000000   Number         0  aes.o ABSOLUTE
    Main\\main.c                             0x00000000   Number         0  main.o ABSOLUTE
    Main\\pmu.c                              0x00000000   Number         0  pmu.o ABSOLUTE
    Main\\rom.c                              0x00000000   Number         0  rom.o ABSOLUTE
    Main\main.c                              0x00000000   Number         0  main.o ABSOLUTE
    Main\pmu.c                               0x00000000   Number         0  pmu.o ABSOLUTE
    Main\rom.c                               0x00000000   Number         0  rom.o ABSOLUTE
    RTE\Device\ARMCM0\startup_ARMCM0.s       0x00000000   Number         0  startup_armcm0.o ABSOLUTE
    RTE\Device\ARMCM0\system_ARMCM0.c        0x00000000   Number         0  system_armcm0.o ABSOLUTE
    RTE\\Device\\ARMCM0\\system_ARMCM0.c     0x00000000   Number         0  system_armcm0.o ABSOLUTE
    dc.s                                     0x00000000   Number         0  dc.o ABSOLUTE
    RESET                                    0x10000000   Section      192  startup_armcm0.o(RESET)
    !!!main                                  0x100000c0   Section        8  __main.o(!!!main)
    !!!scatter                               0x100000c8   Section       60  __scatter.o(!!!scatter)
    !!handler_copy                           0x10000104   Section       26  __scatter_copy.o(!!handler_copy)
    !!handler_zi                             0x10000120   Section       28  __scatter_zi.o(!!handler_zi)
    .ARM.Collect$$libinit$$00000000          0x1000013c   Section        2  libinit.o(.ARM.Collect$$libinit$$00000000)
    .ARM.Collect$$libinit$$00000002          0x1000013e   Section        0  libinit2.o(.ARM.Collect$$libinit$$00000002)
    .ARM.Collect$$libinit$$00000004          0x1000013e   Section        0  libinit2.o(.ARM.Collect$$libinit$$00000004)
    .ARM.Collect$$libinit$$0000000A          0x1000013e   Section        0  libinit2.o(.ARM.Collect$$libinit$$0000000A)
    .ARM.Collect$$libinit$$0000000C          0x1000013e   Section        0  libinit2.o(.ARM.Collect$$libinit$$0000000C)
    .ARM.Collect$$libinit$$0000000E          0x1000013e   Section        0  libinit2.o(.ARM.Collect$$libinit$$0000000E)
    .ARM.Collect$$libinit$$00000011          0x1000013e   Section        0  libinit2.o(.ARM.Collect$$libinit$$00000011)
    .ARM.Collect$$libinit$$00000013          0x1000013e   Section        0  libinit2.o(.ARM.Collect$$libinit$$00000013)
    .ARM.Collect$$libinit$$00000015          0x1000013e   Section        0  libinit2.o(.ARM.Collect$$libinit$$00000015)
    .ARM.Collect$$libinit$$00000017          0x1000013e   Section        0  libinit2.o(.ARM.Collect$$libinit$$00000017)
    .ARM.Collect$$libinit$$00000019          0x1000013e   Section        0  libinit2.o(.ARM.Collect$$libinit$$00000019)
    .ARM.Collect$$libinit$$0000001B          0x1000013e   Section        0  libinit2.o(.ARM.Collect$$libinit$$0000001B)
    .ARM.Collect$$libinit$$0000001D          0x1000013e   Section        0  libinit2.o(.ARM.Collect$$libinit$$0000001D)
    .ARM.Collect$$libinit$$0000001F          0x1000013e   Section        0  libinit2.o(.ARM.Collect$$libinit$$0000001F)
    .ARM.Collect$$libinit$$00000021          0x1000013e   Section        0  libinit2.o(.ARM.Collect$$libinit$$00000021)
    .ARM.Collect$$libinit$$00000023          0x1000013e   Section        0  libinit2.o(.ARM.Collect$$libinit$$00000023)
    .ARM.Collect$$libinit$$00000025          0x1000013e   Section        0  libinit2.o(.ARM.Collect$$libinit$$00000025)
    .ARM.Collect$$libinit$$0000002C          0x1000013e   Section        0  libinit2.o(.ARM.Collect$$libinit$$0000002C)
    .ARM.Collect$$libinit$$0000002E          0x1000013e   Section        0  libinit2.o(.ARM.Collect$$libinit$$0000002E)
    .ARM.Collect$$libinit$$00000030          0x1000013e   Section        0  libinit2.o(.ARM.Collect$$libinit$$00000030)
    .ARM.Collect$$libinit$$00000032          0x1000013e   Section        0  libinit2.o(.ARM.Collect$$libinit$$00000032)
    .ARM.Collect$$libinit$$00000033          0x1000013e   Section        2  libinit2.o(.ARM.Collect$$libinit$$00000033)
    .ARM.Collect$$libshutdown$$00000000      0x10000140   Section        2  libshutdown.o(.ARM.Collect$$libshutdown$$00000000)
    .ARM.Collect$$libshutdown$$00000002      0x10000142   Section        0  libshutdown2.o(.ARM.Collect$$libshutdown$$00000002)
    .ARM.Collect$$libshutdown$$00000004      0x10000142   Section        0  libshutdown2.o(.ARM.Collect$$libshutdown$$00000004)
    .ARM.Collect$$libshutdown$$00000007      0x10000142   Section        0  libshutdown2.o(.ARM.Collect$$libshutdown$$00000007)
    .ARM.Collect$$libshutdown$$0000000A      0x10000142   Section        0  libshutdown2.o(.ARM.Collect$$libshutdown$$0000000A)
    .ARM.Collect$$libshutdown$$0000000C      0x10000142   Section        0  libshutdown2.o(.ARM.Collect$$libshutdown$$0000000C)
    .ARM.Collect$$libshutdown$$0000000F      0x10000142   Section        0  libshutdown2.o(.ARM.Collect$$libshutdown$$0000000F)
    .ARM.Collect$$libshutdown$$00000010      0x10000142   Section        2  libshutdown2.o(.ARM.Collect$$libshutdown$$00000010)
    .ARM.Collect$$rtentry$$00000000          0x10000144   Section        0  __rtentry.o(.ARM.Collect$$rtentry$$00000000)
    .ARM.Collect$$rtentry$$00000002          0x10000144   Section        0  __rtentry2.o(.ARM.Collect$$rtentry$$00000002)
    .ARM.Collect$$rtentry$$00000004          0x10000144   Section        6  __rtentry4.o(.ARM.Collect$$rtentry$$00000004)
    .ARM.Collect$$rtentry$$00000009          0x1000014a   Section        0  __rtentry2.o(.ARM.Collect$$rtentry$$00000009)
    .ARM.Collect$$rtentry$$0000000A          0x1000014a   Section        4  __rtentry2.o(.ARM.Collect$$rtentry$$0000000A)
    .ARM.Collect$$rtentry$$0000000C          0x1000014e   Section        0  __rtentry2.o(.ARM.Collect$$rtentry$$0000000C)
    .ARM.Collect$$rtentry$$0000000D          0x1000014e   Section        8  __rtentry2.o(.ARM.Collect$$rtentry$$0000000D)
    .ARM.Collect$$rtexit$$00000000           0x10000156   Section        2  rtexit.o(.ARM.Collect$$rtexit$$00000000)
    .ARM.Collect$$rtexit$$00000002           0x10000158   Section        0  rtexit2.o(.ARM.Collect$$rtexit$$00000002)
    .ARM.Collect$$rtexit$$00000003           0x10000158   Section        4  rtexit2.o(.ARM.Collect$$rtexit$$00000003)
    .ARM.Collect$$rtexit$$00000004           0x1000015c   Section        6  rtexit2.o(.ARM.Collect$$rtexit$$00000004)
    .emb_text                                0x10000164   Section        6  rom.o(.emb_text)
    .emb_text                                0x1000016c   Section       56  rt_memcpy.o(.emb_text)
    .text                                    0x100001a4   Section        0  main.o(.text)
    setup_adv_data                           0x100001a5   Thumb Code    96  main.o(.text)
    ble_gatt_read                            0x100002c7   Thumb Code   352  main.o(.text)
    ble_gatt_write                           0x10000427   Thumb Code    64  main.o(.text)
    ble_init                                 0x1000069d   Thumb Code   248  main.o(.text)
    NVIC_EnableIRQ                           0x10000aff   Thumb Code    14  main.o(.text)
    .text                                    0x10000b24   Section        0  gpio.o(.text)
    .text                                    0x10000e7c   Section        0  pad_mux_ctrl.o(.text)
    .text                                    0x10000f0c   Section        0  uart.o(.text)
    NVIC_EnableIRQ                           0x10001127   Thumb Code    14  uart.o(.text)
    NVIC_DisableIRQ                          0x10001135   Thumb Code    16  uart.o(.text)
    .text                                    0x1000115c   Section        0  queue.o(.text)
    .text                                    0x10001240   Section        0  timer.o(.text)
    .text                                    0x10001404   Section        0  ota.o(.text)
    EvtCommandComplete                       0x10001405   Thumb Code    46  ota.o(.text)
    CmdFwErase                               0x10001433   Thumb Code    32  ota.o(.text)
    CmdFwWrite                               0x10001453   Thumb Code   118  ota.o(.text)
    CmdFwUpgrade                             0x100014c9   Thumb Code    84  ota.o(.text)
    .text                                    0x100015ac   Section       56  startup_armcm0.o(.text)
    .text                                    0x100015e4   Section        0  system_armcm0.o(.text)
    .text                                    0x100015fc   Section        0  main.o(.text)
    update_profile_data                      0x10001d69   Thumb Code    84  main.o(.text)
    .text                                    0x10002d64   Section        0  rom.o(.text)
    AttReadByGroupTypeRsp                    0x10003507   Thumb Code   326  rom.o(.text)
    AttReadByTypeServiceRsp                  0x1000364d   Thumb Code   234  rom.o(.text)
    AttReadByTypeChartRsp                    0x10003737   Thumb Code   286  rom.o(.text)
    AttReadByTypeValRsp                      0x10003855   Thumb Code   462  rom.o(.text)
    AttReadByTypeReq                         0x10003a23   Thumb Code   122  rom.o(.text)
    FW_Encrypt_Packet                        0x10003a9d   Thumb Code   314  rom.o(.text)
    Get_OVER_SLPTH                           0x10003bd7   Thumb Code    42  rom.o(.text)
    LLENCReq                                 0x10003f1b   Thumb Code   526  rom.o(.text)
    LLTxStartENCRsp                          0x10004129   Thumb Code   500  rom.o(.text)
    _LCRxPkt_Handler                         0x100049c1   Thumb Code   560  rom.o(.text)
    _BBRXFIFO_Coex_Read                      0x1000509f   Thumb Code    92  rom.o(.text)
    _LCConnEvt_Handler                       0x100050fb   Thumb Code    68  rom.o(.text)
    LinkWakeup                               0x1000513f   Thumb Code   100  rom.o(.text)
    .text                                    0x100051c0   Section        0  pmu.o(.text)
    .text                                    0x1000536c   Section        0  aec-ccm.o(.text)
    ctr_next_ctr_block                       0x1000536d   Thumb Code    66  aec-ccm.o(.text)
    cbcmac_calc                              0x100053af   Thumb Code   318  aec-ccm.o(.text)
    cbcmac_verify                            0x100054ed   Thumb Code   344  aec-ccm.o(.text)
    ctr_payload                              0x10005645   Thumb Code   112  aec-ccm.o(.text)
    ctr_mic                                  0x100056b5   Thumb Code    86  aec-ccm.o(.text)
    cbcmac_clear                             0x100058b3   Thumb Code    12  aec-ccm.o(.text)
    cbcmac_append                            0x100058bf   Thumb Code    42  aec-ccm.o(.text)
    .text                                    0x100058ec   Section        0  aes.o(.text)
    expandKey                                0x100058ed   Thumb Code   186  aes.o(.text)
    aes_encr                                 0x100059a7   Thumb Code   912  aes.o(.text)
    aes_decr                                 0x10005d37   Thumb Code  1124  aes.o(.text)
    galois_mul2                              0x100061cd   Thumb Code    20  aes.o(.text)
    .text                                    0x100061e0   Section        0  memcmp.o(.text)
    .text                                    0x1000623a   Section        0  rt_memcpy.o(.text)
    .text                                    0x100062bc   Section        0  rt_memclr.o(.text)
    .text                                    0x100062fc   Section        0  uread4.o(.text)
    .text                                    0x1000631e   Section        0  uwrite4.o(.text)
    .text                                    0x1000632e   Section      346  aeabi_sdiv.o(.text)
    .text                                    0x10006488   Section        0  heapauxi.o(.text)
    .text                                    0x10006490   Section        0  daddsub.o(.text)
    _dadd1                                   0x10006491   Thumb Code   290  daddsub.o(.text)
    _dsub1                                   0x100065b3   Thumb Code   470  daddsub.o(.text)
    .text                                    0x100067e8   Section        0  ddiv.o(.text)
    .text                                    0x10006c30   Section        0  dfixui.o(.text)
    .text                                    0x10006c78   Section        0  dflti.o(.text)
    .text                                    0x10006cd0   Section        0  dmul.o(.text)
    .text                                    0x10006f18   Section        0  f2d.o(.text)
    .text                                    0x10006f6c   Section        0  fflti.o(.text)
    .text                                    0x10006fca   Section       62  sys_stackheap_outer.o(.text)
    .text                                    0x10007008   Section        0  exit.o(.text)
    .text                                    0x10007018   Section        8  libspace.o(.text)
    .text                                    0x10007020   Section        0  sys_exit.o(.text)
    .text                                    0x1000702c   Section        2  use_no_semi.o(.text)
    .text                                    0x1000702e   Section        0  indicate_semi.o(.text)
    PMU                                      0x10007030   Section        0  pmu.o(PMU)
    i.__ARM_common_switch8                   0x1000707c   Section        0  main.o(i.__ARM_common_switch8)
    x$fpl$fadd                               0x10007098   Section      140  faddsub.o(x$fpl$fadd)
    _fadd1                                   0x100070a5   Thumb Code     0  faddsub.o(x$fpl$fadd)
    x$fpl$fsub                               0x10007124   Section      208  faddsub.o(x$fpl$fsub)
    _fsub1                                   0x10007131   Thumb Code     0  faddsub.o(x$fpl$fsub)
    .constdata                               0x100071f4   Section      654  main.o(.constdata)
    x$fpl$usenofp                            0x100071f4   Section        0  usenofp.o(x$fpl$usenofp)
    _gatt_database_report_handle             0x100071f4   Data          31  main.o(.constdata)
    _gatt_database_include                   0x10007213   Data          11  main.o(.constdata)
    _gatt_database_primary                   0x1000721e   Data          63  main.o(.constdata)
    _gatt_database_characteristic            0x1000725d   Data         190  main.o(.constdata)
    _gatt_database_value                     0x1000731b   Data         359  main.o(.constdata)
    .constdata                               0x10007482   Section       50  rom.o(.constdata)
    _smp_key_                                0x10007482   Data          25  rom.o(.constdata)
    _smp_sc_key_                             0x1000749b   Data          25  rom.o(.constdata)
    .constdata                               0x100074b4   Section       32  pmu.o(.constdata)
    delay_table                              0x100074b4   Data          32  pmu.o(.constdata)
    .constdata                               0x100074d4   Section      523  aes.o(.constdata)
    sbox                                     0x100074d4   Data         256  aes.o(.constdata)
    rsbox                                    0x100075d4   Data         256  aes.o(.constdata)
    Rcon                                     0x100076d4   Data          11  aes.o(.constdata)
    .constdata                               0x100076df   Section      128  ddiv.o(.constdata)
    ddiv_reciptbl                            0x100076df   Data         128  ddiv.o(.constdata)
    .data                                    0x20000000   Section       63  main.o(.data)
    g_report                                 0x20000008   Data           4  main.o(.data)
    start_tx                                 0x2000000c   Data           1  main.o(.data)
    wechat_tx                                0x2000000d   Data           1  main.o(.data)
    dev_addr                                 0x20000038   Data           7  main.o(.data)
    .data                                    0x20000040   Section       12  gpio.o(.data)
    GPIO_CTRL                                0x20000040   Data           8  gpio.o(.data)
    gpio_callback                            0x20000048   Data           4  gpio.o(.data)
    .data                                    0x2000004c   Section        8  pad_mux_ctrl.o(.data)
    pad                                      0x2000004c   Data           8  pad_mux_ctrl.o(.data)
    .data                                    0x20000054   Section        8  uart.o(.data)
    .data                                    0x2000005c   Section       20  timer.o(.data)
    ctrl                                     0x2000005c   Data          20  timer.o(.data)
    .data                                    0x20000070   Section       12  ota.o(.data)
    EvtBuf                                   0x20000072   Data           4  ota.o(.data)
    .data                                    0x2000007c   Section        4  system_armcm0.o(.data)
    .data                                    0x20000080   Section       20  main.o(.data)
    syd_confirm                              0x20000080   Data           1  main.o(.data)
    sched_execute_mask                       0x20000081   Data           1  main.o(.data)
    profile_to_flash                         0x20000082   Data           1  main.o(.data)
    profile_update_offset                    0x20000084   Data           2  main.o(.data)
    PMU_CTRL                                 0x20000088   Data           4  main.o(.data)
    p_sched_callback                         0x2000008c   Data           4  main.o(.data)
    .data                                    0x20000094   Section      111  rom.o(.data)
    NumericYesOrNo                           0x20000094   Data           1  rom.o(.data)
    MCUFreq                                  0x20000095   Data           1  rom.o(.data)
    coex_evt_mask_sleep                      0x20000099   Data           1  rom.o(.data)
    passkey_cnt                              0x200000b0   Data           4  rom.o(.data)
    passkey_value                            0x200000b4   Data           4  rom.o(.data)
    save_device_to_flash                     0x200000b8   Data           4  rom.o(.data)
    ReadRsp                                  0x200000bc   Data           4  rom.o(.data)
    ReadRspLen                               0x200000c0   Data           4  rom.o(.data)
    ReadRspData                              0x200000c4   Data           4  rom.o(.data)
    IRQCallbackHook                          0x200000c8   Data           4  rom.o(.data)
    IRQCallbackSkip                          0x200000cc   Data           4  rom.o(.data)
    HCIDTM                                   0x200000d0   Data           4  rom.o(.data)
    ACLTx                                    0x200000d4   Data           4  rom.o(.data)
    ble_data                                 0x200000e4   Data           4  rom.o(.data)
    .data                                    0x20000104   Section        4  pmu.o(.data)
    lclink                                   0x20000104   Data           4  pmu.o(.data)
    .bss                                     0x20000108   Section       20  main.o(.bss)
    .bss                                     0x2000011c   Section     1056  uart.o(.bss)
    .bss                                     0x2000053c   Section       20  timer.o(.bss)
    cb                                       0x2000053c   Data          20  timer.o(.bss)
    .bss                                     0x20000550   Section       40  ota.o(.bss)
    .bss                                     0x20000578   Section     4173  main.o(.bss)
    confirmation_list                        0x20001578   Data          62  main.o(.bss)
    .bss                                     0x200015c8   Section     1055  rom.o(.bss)
    .bss                                     0x200019e7   Section       16  aec-ccm.o(.bss)
    cbcmac_xor                               0x200019e7   Data          16  aec-ccm.o(.bss)
    .bss                                     0x200019f8   Section       96  libspace.o(.bss)
    HEAP                                     0x20001a58   Section    16384  startup_armcm0.o(HEAP)
    Heap_Mem                                 0x20001a58   Data       16384  startup_armcm0.o(HEAP)
    STACK                                    0x20005a58   Section     4096  startup_armcm0.o(STACK)
    Stack_Mem                                0x20005a58   Data        4096  startup_armcm0.o(STACK)
    __initial_sp                             0x20006a58   Data           0  startup_armcm0.o(STACK)

    Global Symbols

    Symbol Name                              Value     Ov Type        Size  Object(Section)

    BuildAttributes$$THM_ISAv3M$S$PE$A:L22$X:L11$S22$IEEE1$IW$USESV6$~STKCKD$USESV7$~SHL$OSPACE$ROPI$EBA8$UX$STANDARDLIB$REQ8$EABIv2 0x00000000   Number         0  anon$$obj.o ABSOLUTE
    __ARM_use_no_argv                        0x00000000   Number         0  main.o ABSOLUTE
    __ARM_exceptions_init                     - Undefined Weak Reference
    __alloca_initialize                       - Undefined Weak Reference
    __arm_preinit_                            - Undefined Weak Reference
    __cpp_initialize__aeabi_                  - Undefined Weak Reference
    __cxa_finalize                            - Undefined Weak Reference
    __rt_locale                               - Undefined Weak Reference
    __sigvec_lookup                           - Undefined Weak Reference
    _atexit_init                              - Undefined Weak Reference
    _call_atexit_fns                          - Undefined Weak Reference
    _clock_init                               - Undefined Weak Reference
    _fp_trap_init                             - Undefined Weak Reference
    _fp_trap_shutdown                         - Undefined Weak Reference
    _get_lc_collate                           - Undefined Weak Reference
    _get_lc_ctype                             - Undefined Weak Reference
    _get_lc_monetary                          - Undefined Weak Reference
    _get_lc_numeric                           - Undefined Weak Reference
    _get_lc_time                              - Undefined Weak Reference
    _getenv_init                              - Undefined Weak Reference
    _handle_redirection                       - Undefined Weak Reference
    _init_alloc                               - Undefined Weak Reference
    _init_user_alloc                          - Undefined Weak Reference
    _initio                                   - Undefined Weak Reference
    _rand_init                                - Undefined Weak Reference
    _signal_finish                            - Undefined Weak Reference
    _signal_init                              - Undefined Weak Reference
    _terminate_alloc                          - Undefined Weak Reference
    _terminate_user_alloc                     - Undefined Weak Reference
    _terminateio                              - Undefined Weak Reference
    __Vectors_Size                           0x000000c0   Number         0  startup_armcm0.o ABSOLUTE
    __Vectors                                0x10000000   Data           4  startup_armcm0.o(RESET)
    __Vectors_End                            0x100000c0   Data           0  startup_armcm0.o(RESET)
    __main                                   0x100000c1   Thumb Code     8  __main.o(!!!main)
    __scatterload                            0x100000c9   Thumb Code     0  __scatter.o(!!!scatter)
    __scatterload_rt2                        0x100000c9   Thumb Code    52  __scatter.o(!!!scatter)
    __scatterload_rt2_thumb_only             0x100000c9   Thumb Code     0  __scatter.o(!!!scatter)
    __scatterload_null                       0x100000d9   Thumb Code     0  __scatter.o(!!!scatter)
    __scatterload_copy                       0x10000105   Thumb Code    26  __scatter_copy.o(!!handler_copy)
    __scatterload_zeroinit                   0x10000121   Thumb Code    28  __scatter_zi.o(!!handler_zi)
    __rt_lib_init                            0x1000013d   Thumb Code     0  libinit.o(.ARM.Collect$$libinit$$00000000)
    __rt_lib_init_alloca_1                   0x1000013f   Thumb Code     0  libinit2.o(.ARM.Collect$$libinit$$0000002E)
    __rt_lib_init_argv_1                     0x1000013f   Thumb Code     0  libinit2.o(.ARM.Collect$$libinit$$0000002C)
    __rt_lib_init_atexit_1                   0x1000013f   Thumb Code     0  libinit2.o(.ARM.Collect$$libinit$$0000001B)
    __rt_lib_init_clock_1                    0x1000013f   Thumb Code     0  libinit2.o(.ARM.Collect$$libinit$$00000021)
    __rt_lib_init_cpp_1                      0x1000013f   Thumb Code     0  libinit2.o(.ARM.Collect$$libinit$$00000032)
    __rt_lib_init_exceptions_1               0x1000013f   Thumb Code     0  libinit2.o(.ARM.Collect$$libinit$$00000030)
    __rt_lib_init_fp_1                       0x1000013f   Thumb Code     0  libinit2.o(.ARM.Collect$$libinit$$00000002)
    __rt_lib_init_fp_trap_1                  0x1000013f   Thumb Code     0  libinit2.o(.ARM.Collect$$libinit$$0000001F)
    __rt_lib_init_getenv_1                   0x1000013f   Thumb Code     0  libinit2.o(.ARM.Collect$$libinit$$00000023)
    __rt_lib_init_heap_1                     0x1000013f   Thumb Code     0  libinit2.o(.ARM.Collect$$libinit$$0000000A)
    __rt_lib_init_lc_collate_1               0x1000013f   Thumb Code     0  libinit2.o(.ARM.Collect$$libinit$$00000011)
    __rt_lib_init_lc_ctype_1                 0x1000013f   Thumb Code     0  libinit2.o(.ARM.Collect$$libinit$$00000013)
    __rt_lib_init_lc_monetary_1              0x1000013f   Thumb Code     0  libinit2.o(.ARM.Collect$$libinit$$00000015)
    __rt_lib_init_lc_numeric_1               0x1000013f   Thumb Code     0  libinit2.o(.ARM.Collect$$libinit$$00000017)
    __rt_lib_init_lc_time_1                  0x1000013f   Thumb Code     0  libinit2.o(.ARM.Collect$$libinit$$00000019)
    __rt_lib_init_preinit_1                  0x1000013f   Thumb Code     0  libinit2.o(.ARM.Collect$$libinit$$00000004)
    __rt_lib_init_rand_1                     0x1000013f   Thumb Code     0  libinit2.o(.ARM.Collect$$libinit$$0000000E)
    __rt_lib_init_return                     0x1000013f   Thumb Code     0  libinit2.o(.ARM.Collect$$libinit$$00000033)
    __rt_lib_init_signal_1                   0x1000013f   Thumb Code     0  libinit2.o(.ARM.Collect$$libinit$$0000001D)
    __rt_lib_init_stdio_1                    0x1000013f   Thumb Code     0  libinit2.o(.ARM.Collect$$libinit$$00000025)
    __rt_lib_init_user_alloc_1               0x1000013f   Thumb Code     0  libinit2.o(.ARM.Collect$$libinit$$0000000C)
    __rt_lib_shutdown                        0x10000141   Thumb Code     0  libshutdown.o(.ARM.Collect$$libshutdown$$00000000)
    __rt_lib_shutdown_cpp_1                  0x10000143   Thumb Code     0  libshutdown2.o(.ARM.Collect$$libshutdown$$00000002)
    __rt_lib_shutdown_fp_trap_1              0x10000143   Thumb Code     0  libshutdown2.o(.ARM.Collect$$libshutdown$$00000007)
    __rt_lib_shutdown_heap_1                 0x10000143   Thumb Code     0  libshutdown2.o(.ARM.Collect$$libshutdown$$0000000F)
    __rt_lib_shutdown_return                 0x10000143   Thumb Code     0  libshutdown2.o(.ARM.Collect$$libshutdown$$00000010)
    __rt_lib_shutdown_signal_1               0x10000143   Thumb Code     0  libshutdown2.o(.ARM.Collect$$libshutdown$$0000000A)
    __rt_lib_shutdown_stdio_1                0x10000143   Thumb Code     0  libshutdown2.o(.ARM.Collect$$libshutdown$$00000004)
    __rt_lib_shutdown_user_alloc_1           0x10000143   Thumb Code     0  libshutdown2.o(.ARM.Collect$$libshutdown$$0000000C)
    __rt_entry                               0x10000145   Thumb Code     0  __rtentry.o(.ARM.Collect$$rtentry$$00000000)
    __rt_entry_presh_1                       0x10000145   Thumb Code     0  __rtentry2.o(.ARM.Collect$$rtentry$$00000002)
    __rt_entry_sh                            0x10000145   Thumb Code     0  __rtentry4.o(.ARM.Collect$$rtentry$$00000004)
    __rt_entry_li                            0x1000014b   Thumb Code     0  __rtentry2.o(.ARM.Collect$$rtentry$$0000000A)
    __rt_entry_postsh_1                      0x1000014b   Thumb Code     0  __rtentry2.o(.ARM.Collect$$rtentry$$00000009)
    __rt_entry_main                          0x1000014f   Thumb Code     0  __rtentry2.o(.ARM.Collect$$rtentry$$0000000D)
    __rt_entry_postli_1                      0x1000014f   Thumb Code     0  __rtentry2.o(.ARM.Collect$$rtentry$$0000000C)
    __rt_exit                                0x10000157   Thumb Code     0  rtexit.o(.ARM.Collect$$rtexit$$00000000)
    __rt_exit_ls                             0x10000159   Thumb Code     0  rtexit2.o(.ARM.Collect$$rtexit$$00000003)
    __rt_exit_prels_1                        0x10000159   Thumb Code     0  rtexit2.o(.ARM.Collect$$rtexit$$00000002)
    __rt_exit_exit                           0x1000015d   Thumb Code     0  rtexit2.o(.ARM.Collect$$rtexit$$00000004)
    B01_correct_TXPacket_length              0x10000165   Thumb Code     6  rom.o(.emb_text)
    __aeabi_memcpy4                          0x1000016d   Thumb Code    56  rt_memcpy.o(.emb_text)
    __aeabi_memcpy8                          0x1000016d   Thumb Code     0  rt_memcpy.o(.emb_text)
    BLE_SendData                             0x10000205   Thumb Code    50  main.o(.text)
    BLSetConnectionUpdate                    0x10000237   Thumb Code   144  main.o(.text)
    ble_evt_callback                         0x10000467   Thumb Code   566  main.o(.text)
    uart_to_ble_transfer                     0x10000795   Thumb Code   198  main.o(.text)
    ble_to_uart_transfer                     0x1000085b   Thumb Code    34  main.o(.text)
    timer_uart_wait                          0x1000087d   Thumb Code    46  main.o(.text)
    Timer_Module_Init                        0x100008ab   Thumb Code    30  main.o(.text)
    gpio_init                                0x100008c9   Thumb Code   146  main.o(.text)
    ble_uart_init                            0x1000095b   Thumb Code   176  main.o(.text)
    main                                     0x10000a0b   Thumb Code   244  main.o(.text)
    gpi_irq_set_cb                           0x10000b25   Thumb Code     6  gpio.o(.text)
    gpi_config                               0x10000b2b   Thumb Code   114  gpio.o(.text)
    pad_input_configure                      0x10000b9d   Thumb Code    94  gpio.o(.text)
    gpo_config                               0x10000bfb   Thumb Code    90  gpio.o(.text)
    gpo_toggle                               0x10000c55   Thumb Code    42  gpio.o(.text)
    gpo_set                                  0x10000c7f   Thumb Code    42  gpio.o(.text)
    gpo_clr                                  0x10000ca9   Thumb Code    42  gpio.o(.text)
    gpi_get_val                              0x10000cd3   Thumb Code    70  gpio.o(.text)
    gpi_enable_int                           0x10000d19   Thumb Code   162  gpio.o(.text)
    gpi_disable_int                          0x10000dbb   Thumb Code    44  gpio.o(.text)
    GPIO_IRQHandler                          0x10000de7   Thumb Code   134  gpio.o(.text)
    pad_mux_read                             0x10000e7d   Thumb Code    62  pad_mux_ctrl.o(.text)
    pad_mux_write                            0x10000ebb   Thumb Code    78  pad_mux_ctrl.o(.text)
    uart_0_init                              0x10000f0d   Thumb Code   134  uart.o(.text)
    UART0_IRQHandler                         0x10000f93   Thumb Code    58  uart.o(.text)
    uart_1_init                              0x10000fcd   Thumb Code   112  uart.o(.text)
    UART1_IRQHandler                         0x1000103d   Thumb Code    60  uart.o(.text)
    uart_write                               0x10001079   Thumb Code    80  uart.o(.text)
    uart_read                                0x100010c9   Thumb Code    20  uart.o(.text)
    uart_queue_size                          0x100010dd   Thumb Code    56  uart.o(.text)
    uart_get_ctrl                            0x10001115   Thumb Code    18  uart.o(.text)
    queue_init                               0x1000115d   Thumb Code    12  queue.o(.text)
    queue_reset                              0x10001169   Thumb Code     6  queue.o(.text)
    enqueue_all                              0x1000116f   Thumb Code    96  queue.o(.text)
    enqueue                                  0x100011cf   Thumb Code    28  queue.o(.text)
    dequeue                                  0x100011eb   Thumb Code    42  queue.o(.text)
    is_queue_empty                           0x10001215   Thumb Code    18  queue.o(.text)
    queue_size                               0x10001227   Thumb Code    24  queue.o(.text)
    TIMER0_IRQHandler                        0x10001241   Thumb Code    36  timer.o(.text)
    TIMER1_IRQHandler                        0x10001265   Thumb Code    36  timer.o(.text)
    TIMER2_IRQHandler                        0x10001289   Thumb Code    36  timer.o(.text)
    TIMER3_IRQHandler                        0x100012ad   Thumb Code    36  timer.o(.text)
    TIMER4_IRQHandler                        0x100012d1   Thumb Code    36  timer.o(.text)
    is_timer_enabled                         0x100012f5   Thumb Code    16  timer.o(.text)
    timer_enable                             0x10001305   Thumb Code   186  timer.o(.text)
    timer_disable                            0x100013bf   Thumb Code    44  timer.o(.text)
    timer_state_get                          0x100013eb   Thumb Code    16  timer.o(.text)
    ota_cmd                                  0x1000151d   Thumb Code    88  ota.o(.text)
    ota_rsp                                  0x10001575   Thumb Code    34  ota.o(.text)
    Reset_Handler                            0x100015ad   Thumb Code     8  startup_armcm0.o(.text)
    NMI_Handler                              0x100015b5   Thumb Code     2  startup_armcm0.o(.text)
    HardFault_Handler                        0x100015b7   Thumb Code     2  startup_armcm0.o(.text)
    SVC_Handler                              0x100015b9   Thumb Code     2  startup_armcm0.o(.text)
    PendSV_Handler                           0x100015bb   Thumb Code     2  startup_armcm0.o(.text)
    SysTick_Handler                          0x100015bd   Thumb Code     2  startup_armcm0.o(.text)
    CAPDET_IRQHandler                        0x100015bf   Thumb Code     0  startup_armcm0.o(.text)
    GPADC_IRQHandler                         0x100015bf   Thumb Code     0  startup_armcm0.o(.text)
    I2CM0_IRQHandler                         0x100015bf   Thumb Code     0  startup_armcm0.o(.text)
    I2CM1_IRQHandler                         0x100015bf   Thumb Code     0  startup_armcm0.o(.text)
    I2CS_IRQHandler                          0x100015bf   Thumb Code     0  startup_armcm0.o(.text)
    I2S_IRQHandler                           0x100015bf   Thumb Code     0  startup_armcm0.o(.text)
    INTCOMB_IRQHandler                       0x100015bf   Thumb Code     0  startup_armcm0.o(.text)
    IR_IRQHandler                            0x100015bf   Thumb Code     0  startup_armcm0.o(.text)
    ISO_7816_IRQHandler                      0x100015bf   Thumb Code     0  startup_armcm0.o(.text)
    LLC2_IRQHandler                          0x100015bf   Thumb Code     0  startup_armcm0.o(.text)
    LLC3_IRQHandler                          0x100015bf   Thumb Code     0  startup_armcm0.o(.text)
    M2M_IRQHandler                           0x100015bf   Thumb Code     0  startup_armcm0.o(.text)
    PDM_IRQHandler                           0x100015bf   Thumb Code     0  startup_armcm0.o(.text)
    PWM1_IRQHandler                          0x100015bf   Thumb Code     0  startup_armcm0.o(.text)
    PWM2_IRQHandler                          0x100015bf   Thumb Code     0  startup_armcm0.o(.text)
    PWM3_IRQHandler                          0x100015bf   Thumb Code     0  startup_armcm0.o(.text)
    RTC_IRQHandler                           0x100015bf   Thumb Code     0  startup_armcm0.o(.text)
    SPIM_IRQHandler                          0x100015bf   Thumb Code     0  startup_armcm0.o(.text)
    SPIS_IRQHandler                          0x100015bf   Thumb Code     0  startup_armcm0.o(.text)
    SW_IRQHandler                            0x100015bf   Thumb Code     0  startup_armcm0.o(.text)
    TRNG_IRQHandler                          0x100015bf   Thumb Code     0  startup_armcm0.o(.text)
    UART2_IRQHandler                         0x100015bf   Thumb Code     0  startup_armcm0.o(.text)
    WDT_IRQHandler                           0x100015bf   Thumb Code     0  startup_armcm0.o(.text)
    __user_initial_stackheap                 0x100015c1   Thumb Code    10  startup_armcm0.o(.text)
    SystemCoreClockUpdate                    0x100015e5   Thumb Code     8  system_armcm0.o(.text)
    SystemInit                               0x100015ed   Thumb Code     8  system_armcm0.o(.text)
    sw_timer_update_callback                 0x100015fd   Thumb Code    20  main.o(.text)
    gap_s_ble_init                           0x10001611   Thumb Code    18  main.o(.text)
    gap_s_disconnect                         0x10001623   Thumb Code     8  main.o(.text)
    gap_s_validate_irk                       0x1000162b   Thumb Code     6  main.o(.text)
    gap_s_ble_gen_random_private_address     0x10001631   Thumb Code     6  main.o(.text)
    gap_s_ble_address_set                    0x10001637   Thumb Code     6  main.o(.text)
    gap_s_ble_address_get                    0x1000163d   Thumb Code     4  main.o(.text)
    gap_s_ble_feature_set                    0x10001641   Thumb Code     6  main.o(.text)
    gap_s_ble_feature_get                    0x10001647   Thumb Code     6  main.o(.text)
    gap_s_ble_slave_feature_set              0x1000164d   Thumb Code     6  main.o(.text)
    gap_s_ble_slave_feature_get              0x10001653   Thumb Code     6  main.o(.text)
    gap_s_adv_access_code_set                0x10001659   Thumb Code     6  main.o(.text)
    gap_s_adv_access_code_get                0x1000165f   Thumb Code     6  main.o(.text)
    gap_s_adv_parameters_set                 0x10001665   Thumb Code     6  main.o(.text)
    gap_s_adv_data_set                       0x1000166b   Thumb Code    10  main.o(.text)
    gap_s_adv_start                          0x10001675   Thumb Code     6  main.o(.text)
    gap_s_adv_stop                           0x1000167b   Thumb Code     4  main.o(.text)
    gap_s_adv_start_powersaving              0x1000167f   Thumb Code   610  main.o(.text)
    gap_s_adv_stop_powersaving               0x100018e1   Thumb Code    32  main.o(.text)
    gap_s_scan_parameters_set                0x10001901   Thumb Code     6  main.o(.text)
    gap_s_scan_start                         0x10001907   Thumb Code     6  main.o(.text)
    gap_s_scan_stop                          0x1000190d   Thumb Code     4  main.o(.text)
    gap_s_coex_adv_data_set                  0x10001911   Thumb Code    14  main.o(.text)
    gap_s_coex_scan_rsp_data_set             0x1000191f   Thumb Code    12  main.o(.text)
    gap_s_coex_adv_start                     0x1000192b   Thumb Code     8  main.o(.text)
    gap_s_coex_adv_stop                      0x10001933   Thumb Code     8  main.o(.text)
    gap_s_coex_scan_req_data_set             0x1000193b   Thumb Code     6  main.o(.text)
    gap_s_coex_scan_start                    0x10001941   Thumb Code     4  main.o(.text)
    gap_s_coex_scan_stop                     0x10001945   Thumb Code     6  main.o(.text)
    gap_s_gatt_profiles_set                  0x1000194b   Thumb Code     6  main.o(.text)
    gap_s_security_parameters_set            0x10001951   Thumb Code     6  main.o(.text)
    gap_s_security_parameters_get            0x10001957   Thumb Code     6  main.o(.text)
    gap_s_security_req                       0x1000195d   Thumb Code     6  main.o(.text)
    gap_s_numeric_comrison                   0x10001963   Thumb Code     8  main.o(.text)
    gap_s_connection_param_set               0x1000196b   Thumb Code     6  main.o(.text)
    gap_s_connection_param_get               0x10001971   Thumb Code     4  main.o(.text)
    gap_s_connection_update                  0x10001975   Thumb Code     6  main.o(.text)
    gap_s_link_parameters_get                0x1000197b   Thumb Code     6  main.o(.text)
    gap_s_passkey_set                        0x10001981   Thumb Code     8  main.o(.text)
    gap_s_connection_latency_mode            0x10001989   Thumb Code     8  main.o(.text)
    gap_s_check_fifo_sz                      0x10001991   Thumb Code     6  main.o(.text)
    BBCheckTXFIFOEmpty                       0x10001997   Thumb Code    12  main.o(.text)
    sw_timer_latency_callback                0x100019a3   Thumb Code   138  main.o(.text)
    smart_latency_start                      0x10001a2d   Thumb Code   186  main.o(.text)
    smart_latency_clear                      0x10001ae7   Thumb Code    12  main.o(.text)
    gap_evt_Callback                         0x10001af3   Thumb Code   332  main.o(.text)
    gap_s_evt_handler_set                    0x10001c3f   Thumb Code    32  main.o(.text)
    gap_s_att_c_evt_handler_set              0x10001c5f   Thumb Code     6  main.o(.text)
    gap_s_gatt_report_handle_get             0x10001c65   Thumb Code     6  main.o(.text)
    gap_s_gatt_read_rsp_set                  0x10001c6b   Thumb Code     6  main.o(.text)
    gap_s_gatt_write_err_rsp_set             0x10001c71   Thumb Code     6  main.o(.text)
    indicate_queue_size                      0x10001c77   Thumb Code    26  main.o(.text)
    sw_indicate_timer_callback               0x10001c91   Thumb Code    22  main.o(.text)
    gap_s_gatt_data_send                     0x10001ca7   Thumb Code    38  main.o(.text)
    gap_s_gatt_data_send_report_confirmation_handle 0x10001ccd   Thumb Code   112  main.o(.text)
    gap_s_profile_data_read                  0x10001d3d   Thumb Code    44  main.o(.text)
    gap_s_profile_data_write                 0x10001dbd   Thumb Code   212  main.o(.text)
    att_c_mtureq                             0x10001e91   Thumb Code     4  main.o(.text)
    att_c_findinforeq                        0x10001e95   Thumb Code     6  main.o(.text)
    att_c_findbytypevaluereq                 0x10001e9b   Thumb Code    14  main.o(.text)
    att_c_readbytypereq                      0x10001ea9   Thumb Code    12  main.o(.text)
    att_c_readreq                            0x10001eb5   Thumb Code     6  main.o(.text)
    att_c_readblobreq                        0x10001ebb   Thumb Code     6  main.o(.text)
    att_c_readmultiplereq                    0x10001ec1   Thumb Code     6  main.o(.text)
    att_c_readbygrouptypereq                 0x10001ec7   Thumb Code    12  main.o(.text)
    att_c_writereq                           0x10001ed3   Thumb Code     6  main.o(.text)
    att_c_writecmdreq                        0x10001ed9   Thumb Code     6  main.o(.text)
    att_c_preparewritereq                    0x10001edf   Thumb Code    12  main.o(.text)
    att_c_executewritereq                    0x10001eeb   Thumb Code     6  main.o(.text)
    att_c_confirmation                       0x10001ef1   Thumb Code     6  main.o(.text)
    bm_s_bond_manager_idx_set                0x10001ef7   Thumb Code     6  main.o(.text)
    bm_s_bond_manager_idx_get                0x10001efd   Thumb Code     4  main.o(.text)
    bm_s_bond_info_get                       0x10001f01   Thumb Code     6  main.o(.text)
    bm_s_bond_info_add                       0x10001f07   Thumb Code     6  main.o(.text)
    bm_s_bond_info_delete_all                0x10001f0d   Thumb Code     6  main.o(.text)
    bm_s_bond_info_delete                    0x10001f13   Thumb Code     6  main.o(.text)
    ecdh_public_key_get                      0x10001f19   Thumb Code     4  main.o(.text)
    sys_mcu_clock_get                        0x10001f1d   Thumb Code     6  main.o(.text)
    sys_mcu_clock_set                        0x10001f23   Thumb Code     8  main.o(.text)
    sys_mcu_clock_div_set                    0x10001f2b   Thumb Code     6  main.o(.text)
    sys_mcu_clock_div_get                    0x10001f31   Thumb Code     6  main.o(.text)
    sys_32k_clock_get                        0x10001f37   Thumb Code     6  main.o(.text)
    sys_32k_clock_set                        0x10001f3d   Thumb Code     8  main.o(.text)
    pmu_32m_xo_on                            0x10001f45   Thumb Code     4  main.o(.text)
    sys_32k_lpo_calibration                  0x10001f49   Thumb Code    66  main.o(.text)
    sys_mcu_rc_calibration                   0x10001f8b   Thumb Code     8  main.o(.text)
    pmu_32m_xo_off                           0x10001f93   Thumb Code     6  main.o(.text)
    BBRFWrite                                0x10001f99   Thumb Code     4  main.o(.text)
    BBRFRead                                 0x10001f9d   Thumb Code     6  main.o(.text)
    sys_mcu_rc_calibrationHF                 0x10001fa3   Thumb Code    82  main.o(.text)
    pmu_wakeup_config                        0x10001ff5   Thumb Code     6  main.o(.text)
    pmu_power_saving                         0x10001ffb   Thumb Code    10  main.o(.text)
    pmu_mcu_off                              0x10002005   Thumb Code     6  main.o(.text)
    pmu_system_off                           0x1000200b   Thumb Code     6  main.o(.text)
    pmu_reset                                0x10002011   Thumb Code     6  main.o(.text)
    pmu_system_reset                         0x10002017   Thumb Code     6  main.o(.text)
    pmu_mcu_reset                            0x1000201d   Thumb Code     6  main.o(.text)
    pmu_32m_xo_on_polling                    0x10002023   Thumb Code    18  main.o(.text)
    _enable_sw_ccm                           0x10002035   Thumb Code     6  main.o(.text)
    ota_code_erase                           0x1000203b   Thumb Code   344  main.o(.text)
    ota_code_write                           0x10002193   Thumb Code     6  main.o(.text)
    ota_code_read                            0x10002199   Thumb Code     4  main.o(.text)
    ota_code_info_read                       0x1000219d   Thumb Code    12  main.o(.text)
    ota_code_update                          0x100021a9   Thumb Code    10  main.o(.text)
    ble_sched_execute                        0x100021b3   Thumb Code   250  main.o(.text)
    sys_rc_get                               0x100022ad   Thumb Code     4  main.o(.text)
    sys_fclk_get                             0x100022b1   Thumb Code     6  main.o(.text)
    sys_pclk_get                             0x100022b7   Thumb Code     6  main.o(.text)
    sys_sclk_get                             0x100022bd   Thumb Code     6  main.o(.text)
    sys_hclk_get                             0x100022c3   Thumb Code     6  main.o(.text)
    gpadc_init                               0x100022c9   Thumb Code    22  main.o(.text)
    pdm_set_amic_gain                        0x100022df   Thumb Code    58  main.o(.text)
    att_c_get_mtu_size                       0x10002319   Thumb Code    18  main.o(.text)
    capdet_set_bias                          0x1000232b   Thumb Code    56  main.o(.text)
    capdet_get_bias                          0x10002363   Thumb Code    40  main.o(.text)
    module_clock_off                         0x1000238b   Thumb Code    14  main.o(.text)
    module_clock_on                          0x10002399   Thumb Code    14  main.o(.text)
    ll_length_req                            0x100023a7   Thumb Code    24  main.o(.text)
    get_pmu_reset_type                       0x100023bf   Thumb Code     4  main.o(.text)
    reset_module                             0x100023c3   Thumb Code    36  main.o(.text)
    SystemSleep                              0x100023e7   Thumb Code    50  main.o(.text)
    ble_flash_authority                      0x10002419   Thumb Code    88  main.o(.text)
    ble_flash_erase                          0x10002471   Thumb Code    12  main.o(.text)
    ble_flash_read                           0x1000247d   Thumb Code    32  main.o(.text)
    ble_flash_write                          0x1000249d   Thumb Code    14  main.o(.text)
    ble_flash_write_burst                    0x100024ab   Thumb Code    14  main.o(.text)
    _checksum_cache_496kb                    0x100024b9   Thumb Code   110  main.o(.text)
    ota_code_update_496kb                    0x10002527   Thumb Code   204  main.o(.text)
    gap_s_smart_update_latency               0x100025f3   Thumb Code   370  main.o(.text)
    smart_update_latency_updatareq           0x10002765   Thumb Code   298  main.o(.text)
    syd8821_chip_confirm                     0x1000288f   Thumb Code    24  main.o(.text)
    APPtimer_enable                          0x100028a7   Thumb Code    26  main.o(.text)
    APPtimer_disable                         0x100028c1   Thumb Code    24  main.o(.text)
    sched_callback_enable                    0x100028d9   Thumb Code    26  main.o(.text)
    gap_s_adv_state_get                      0x100028f3   Thumb Code     8  main.o(.text)
    gap_s_att_mtu_get                        0x100028fb   Thumb Code    18  main.o(.text)
    ble_SetTxPower                           0x1000290d   Thumb Code   470  main.o(.text)
    ll_set_replying_packet_timer             0x10002ae3   Thumb Code    10  main.o(.text)
    amic_set_bias                            0x10002aed   Thumb Code   124  main.o(.text)
    gap_s_verdor_datas_get                   0x10002b69   Thumb Code    26  main.o(.text)
    gap_s_verdor_datas_set                   0x10002b83   Thumb Code    78  main.o(.text)
    systemtick_delay                         0x10002bd1   Thumb Code    34  main.o(.text)
    Setting4kUpdate                          0x10002bf3   Thumb Code   136  main.o(.text)
    SetDevAddr_toflash                       0x10002c7b   Thumb Code    72  main.o(.text)
    flash_peotect_key_confirm                0x10002cc3   Thumb Code   126  main.o(.text)
    Confirm_NumericComrison                  0x10002d65   Thumb Code    12  rom.o(.text)
    SmpRxPairingConfirm                      0x10002d71   Thumb Code   210  rom.o(.text)
    SmpRxPairingRandom                       0x10002e43   Thumb Code   652  rom.o(.text)
    SmpPairingReq                            0x100030cf   Thumb Code   450  rom.o(.text)
    SmpPairingPublicKey                      0x10003291   Thumb Code   146  rom.o(.text)
    SmpPasskeyEntry                          0x10003323   Thumb Code   226  rom.o(.text)
    PreCkQueSz                               0x10003405   Thumb Code   146  rom.o(.text)
    AttNotify                                0x10003497   Thumb Code    56  rom.o(.text)
    AttIndication                            0x100034cf   Thumb Code    56  rom.o(.text)
    HW_LLC_Sleep_WorkAround                  0x10003c01   Thumb Code    54  rom.o(.text)
    HW_WindowOffsetWorkAround                0x10003c37   Thumb Code    68  rom.o(.text)
    LLLengthRsp                              0x10003c7b   Thumb Code   194  rom.o(.text)
    LLLengthReq                              0x10003d3d   Thumb Code   300  rom.o(.text)
    rvereseArray                             0x10003e69   Thumb Code    26  rom.o(.text)
    LLStartENCReq                            0x10003e83   Thumb Code   152  rom.o(.text)
    LLRxStartENCRsp                          0x1000431d   Thumb Code     2  rom.o(.text)
    Protocol_Hook_Callback                   0x1000431f   Thumb Code   374  rom.o(.text)
    B01_Hook_Callback                        0x10004495   Thumb Code    44  rom.o(.text)
    _rom_init                                0x100044c1   Thumb Code    78  rom.o(.text)
    LLTerminateReq                           0x1000450f   Thumb Code   120  rom.o(.text)
    _rom_gap_s_disconnect                    0x10004587   Thumb Code    32  rom.o(.text)
    _rom_sys_32k_lpo_calibration             0x100045a7   Thumb Code   134  rom.o(.text)
    _sys_32k_lpo_calibration                 0x1000462d   Thumb Code   136  rom.o(.text)
    _rom_sys_32k_clock_set                   0x100046b5   Thumb Code   118  rom.o(.text)
    _rom_gap_s_gatt_data_send                0x1000472b   Thumb Code    72  rom.o(.text)
    _rom_gap_s_coex_adv_start                0x10004773   Thumb Code    56  rom.o(.text)
    _rom_gap_s_coex_adv_stop                 0x100047ab   Thumb Code    40  rom.o(.text)
    BBRXFIFORead                             0x100047d3   Thumb Code   494  rom.o(.text)
    LCTxPkt_Handler                          0x10004bf1   Thumb Code   288  rom.o(.text)
    ConnectionLost                           0x10004d11   Thumb Code   122  rom.o(.text)
    LLC_IRQHandler                           0x10004d8b   Thumb Code   210  rom.o(.text)
    _sys_mcu_rc_calibration                  0x10004e5d   Thumb Code    54  rom.o(.text)
    _rom_sys_mcu_clock_div_get               0x10004e93   Thumb Code    12  rom.o(.text)
    _rom_sys_mcu_clock_get                   0x10004e9f   Thumb Code     8  rom.o(.text)
    BBMCUClockSel                            0x10004ea7   Thumb Code   206  rom.o(.text)
    _rom_sys_mcu_clock_set                   0x10004f75   Thumb Code    14  rom.o(.text)
    _rom_ota_code_erase                      0x10004f83   Thumb Code   116  rom.o(.text)
    _rom_gap_s_connection_latency_mode       0x10004ff7   Thumb Code   168  rom.o(.text)
    RCOSC_validate                           0x100051c1   Thumb Code    18  pmu.o(.text)
    syd8821_pmu_power_saving                 0x100051d3   Thumb Code   386  pmu.o(.text)
    aes_ccm_encrypt                          0x1000570b   Thumb Code   114  aec-ccm.o(.text)
    aes_ccm_decrypt                          0x1000577d   Thumb Code   152  aec-ccm.o(.text)
    aes_ccm_verify                           0x10005815   Thumb Code    96  aec-ccm.o(.text)
    CCM_NONCE                                0x10005875   Thumb Code    62  aec-ccm.o(.text)
    aes_encrypt                              0x1000619b   Thumb Code    24  aes.o(.text)
    aes_decrypt                              0x100061b3   Thumb Code    26  aes.o(.text)
    memcmp                                   0x100061e1   Thumb Code    90  memcmp.o(.text)
    __aeabi_memcpy                           0x1000623b   Thumb Code   130  rt_memcpy.o(.text)
    __rt_memcpy                              0x1000623b   Thumb Code     0  rt_memcpy.o(.text)
    _memset_w                                0x100062bd   Thumb Code    26  rt_memclr.o(.text)
    _memset                                  0x100062d7   Thumb Code    30  rt_memclr.o(.text)
    __aeabi_memclr                           0x100062f5   Thumb Code     4  rt_memclr.o(.text)
    __rt_memclr                              0x100062f5   Thumb Code     0  rt_memclr.o(.text)
    __aeabi_memclr4                          0x100062f9   Thumb Code     0  rt_memclr.o(.text)
    __aeabi_memclr8                          0x100062f9   Thumb Code     0  rt_memclr.o(.text)
    __rt_memclr_w                            0x100062f9   Thumb Code     4  rt_memclr.o(.text)
    __aeabi_uread4                           0x100062fd   Thumb Code    34  uread4.o(.text)
    __rt_uread4                              0x100062fd   Thumb Code     0  uread4.o(.text)
    __aeabi_uwrite4                          0x1000631f   Thumb Code    16  uwrite4.o(.text)
    __rt_uwrite4                             0x1000631f   Thumb Code     0  uwrite4.o(.text)
    __aeabi_uidiv                            0x1000632f   Thumb Code     0  aeabi_sdiv.o(.text)
    __aeabi_uidivmod                         0x1000632f   Thumb Code    20  aeabi_sdiv.o(.text)
    __aeabi_idiv                             0x10006343   Thumb Code     0  aeabi_sdiv.o(.text)
    __aeabi_idivmod                          0x10006343   Thumb Code   326  aeabi_sdiv.o(.text)
    __use_two_region_memory                  0x10006489   Thumb Code     2  heapauxi.o(.text)
    __rt_heap_escrow$2region                 0x1000648b   Thumb Code     2  heapauxi.o(.text)
    __rt_heap_expand$2region                 0x1000648d   Thumb Code     2  heapauxi.o(.text)
    __aeabi_dadd                             0x10006789   Thumb Code     0  daddsub.o(.text)
    _dadd                                    0x10006789   Thumb Code    26  daddsub.o(.text)
    __aeabi_dsub                             0x100067a3   Thumb Code     0  daddsub.o(.text)
    _dsub                                    0x100067a3   Thumb Code    22  daddsub.o(.text)
    __aeabi_drsub                            0x100067b9   Thumb Code     0  daddsub.o(.text)
    _drsb                                    0x100067b9   Thumb Code    28  daddsub.o(.text)
    __aeabi_ddiv                             0x100067e9   Thumb Code     0  ddiv.o(.text)
    _ddiv                                    0x100067e9   Thumb Code  1072  ddiv.o(.text)
    _drdiv                                   0x10006c19   Thumb Code    20  ddiv.o(.text)
    __aeabi_d2uiz                            0x10006c31   Thumb Code     0  dfixui.o(.text)
    _dfixu                                   0x10006c31   Thumb Code    68  dfixui.o(.text)
    __aeabi_i2d_normalise                    0x10006c79   Thumb Code    66  dflti.o(.text)
    __aeabi_i2d                              0x10006cbb   Thumb Code    16  dflti.o(.text)
    _dflt                                    0x10006cbb   Thumb Code     0  dflti.o(.text)
    __aeabi_ui2d                             0x10006ccb   Thumb Code     6  dflti.o(.text)
    _dfltu                                   0x10006ccb   Thumb Code     0  dflti.o(.text)
    __aeabi_dmul                             0x10006cd1   Thumb Code     0  dmul.o(.text)
    _dmul                                    0x10006cd1   Thumb Code   558  dmul.o(.text)
    __aeabi_f2d                              0x10006f19   Thumb Code     0  f2d.o(.text)
    _f2d                                     0x10006f19   Thumb Code    80  f2d.o(.text)
    __aeabi_i2f_normalise                    0x10006f6d   Thumb Code    72  fflti.o(.text)
    __aeabi_i2f                              0x10006fb5   Thumb Code    16  fflti.o(.text)
    _fflt                                    0x10006fb5   Thumb Code     0  fflti.o(.text)
    __aeabi_ui2f                             0x10006fc5   Thumb Code     6  fflti.o(.text)
    _ffltu                                   0x10006fc5   Thumb Code     0  fflti.o(.text)
    __user_setup_stackheap                   0x10006fcb   Thumb Code    62  sys_stackheap_outer.o(.text)
    exit                                     0x10007009   Thumb Code    16  exit.o(.text)
    __user_libspace                          0x10007019   Thumb Code     8  libspace.o(.text)
    __user_perproc_libspace                  0x10007019   Thumb Code     0  libspace.o(.text)
    __user_perthread_libspace                0x10007019   Thumb Code     0  libspace.o(.text)
    _sys_exit                                0x10007021   Thumb Code     8  sys_exit.o(.text)
    __I$use$semihosting                      0x1000702d   Thumb Code     0  use_no_semi.o(.text)
    __use_no_semihosting_swi                 0x1000702d   Thumb Code     2  use_no_semi.o(.text)
    __semihosting_library_function           0x1000702f   Thumb Code     0  indicate_semi.o(.text)
    syd8821_wfi                              0x10007031   Thumb Code    66  pmu.o(PMU)
    __ARM_common_switch8                     0x1000707d   Thumb Code    26  main.o(i.__ARM_common_switch8)
    __aeabi_fadd                             0x10007099   Thumb Code     0  faddsub.o(x$fpl$fadd)
    _fadd                                    0x10007099   Thumb Code   134  faddsub.o(x$fpl$fadd)
    __aeabi_fsub                             0x10007125   Thumb Code     0  faddsub.o(x$fpl$fsub)
    _fsub                                    0x10007125   Thumb Code   204  faddsub.o(x$fpl$fsub)
    __I$use$fp                               0x100071f4   Number         0  usenofp.o(x$fpl$usenofp)
    Region$$Table$$Base                      0x10007760   Number         0  anon$$obj.o(Region$$Table)
    Region$$Table$$Limit                     0x10007780   Number         0  anon$$obj.o(Region$$Table)
    GAP_Event                                0x20000000   Data           8  main.o(.data)
    connect_flag                             0x2000000e   Data           1  main.o(.data)
    update_latency_mode                      0x2000000f   Data           1  main.o(.data)
    latency_state                            0x20000010   Data           1  main.o(.data)
    timer_wait_cnt                           0x20000011   Data           1  main.o(.data)
    uart_data_temp_state                     0x20000012   Data           1  main.o(.data)
    ADV_DATA                                 0x20000013   Data          31  main.o(.data)
    ADV_DATA_SZ                              0x20000032   Data           2  main.o(.data)
    SCAN_DATA                                0x20000034   Data           1  main.o(.data)
    SCAN_DATA_SZ                             0x20000036   Data           2  main.o(.data)
    UART_CTRL                                0x20000054   Data           8  uart.o(.data)
    ota_state                                0x20000070   Data           1  ota.o(.data)
    ota_writecnt                             0x20000071   Data           1  ota.o(.data)
    pevt                                     0x20000078   Data           4  ota.o(.data)
    SystemCoreClock                          0x2000007c   Data           4  system_armcm0.o(.data)
    app_gap_evt_callback                     0x20000090   Data           4  main.o(.data)
    enable_sw_ccm                            0x20000096   Data           1  rom.o(.data)
    using_oob                                0x20000097   Data           1  rom.o(.data)
    using_numeric_compairison                0x20000098   Data           1  rom.o(.data)
    LL_Header                                0x2000009a   Data           1  rom.o(.data)
    isStartLlid                              0x2000009b   Data           1  rom.o(.data)
    LL_Header_len                            0x2000009c   Data           2  rom.o(.data)
    BB_CTRL                                  0x200000a0   Data           4  rom.o(.data)
    flash_hdr                                0x200000a4   Data           4  rom.o(.data)
    lclink                                   0x200000a8   Data           4  rom.o(.data)
    txpdu                                    0x200000ac   Data           4  rom.o(.data)
    flash                                    0x200000d8   Data           4  rom.o(.data)
    mic_len                                  0x200000dc   Data           4  rom.o(.data)
    l2capTmpBuf                              0x200000e0   Data           4  rom.o(.data)
    warning_report_evt                       0x200000e8   Data           5  rom.o(.data)
    att_handle_config_evt                    0x200000ed   Data           6  rom.o(.data)
    RxCounter                                0x200000f3   Data           8  rom.o(.data)
    TxCounter                                0x200000fb   Data           8  rom.o(.data)
    uart_data_temp                           0x20000108   Data          20  main.o(.bss)
    rx_queue                                 0x2000011c   Data          32  uart.o(.bss)
    rx_buf                                   0x2000013c   Data        1024  uart.o(.bss)
    ota_w                                    0x20000550   Data          40  ota.o(.bss)
    profile                                  0x20000578   Data        4096  main.o(.bss)
    smart_update_ctrol                       0x200015b6   Data          15  main.o(.bss)
    Nonce                                    0x200015c8   Data          13  rom.o(.bss)
    rxbuf                                    0x200015d8   Data         260  rom.o(.bss)
    encPayload                               0x200016dc   Data         260  rom.o(.bss)
    att_write_evt                            0x200017e0   Data         519  rom.o(.bss)
    __libspace_start                         0x200019f8   Data          96  libspace.o(.bss)
    __temporary_stack_top$libspace           0x20001a58   Data           0  libspace.o(.bss)



==============================================================================

Memory Map of the image

  Image Entry point : 0x100000c1

  Load Region LR_IROM1 (Base: 0x10000000, Size: 0x00007888, Max: 0x0003e000, ABSOLUTE)

    Execution Region ER_IROM1 (Base: 0x10000000, Size: 0x00007780, Max: 0x0003e000, ABSOLUTE)

    Base Addr    Size         Type   Attr      Idx    E Section Name        Object

    0x10000000   0x000000c0   Data   RO          368    RESET               startup_armcm0.o
    0x100000c0   0x00000008   Code   RO          607  * !!!main             c_p.l(__main.o)
    0x100000c8   0x0000003c   Code   RO          797    !!!scatter          c_p.l(__scatter.o)
    0x10000104   0x0000001a   Code   RO          799    !!handler_copy      c_p.l(__scatter_copy.o)
    0x1000011e   0x00000002   PAD
    0x10000120   0x0000001c   Code   RO          801    !!handler_zi        c_p.l(__scatter_zi.o)
    0x1000013c   0x00000002   Code   RO          667    .ARM.Collect$$libinit$$00000000  c_p.l(libinit.o)
    0x1000013e   0x00000000   Code   RO          681    .ARM.Collect$$libinit$$00000002  c_p.l(libinit2.o)
    0x1000013e   0x00000000   Code   RO          683    .ARM.Collect$$libinit$$00000004  c_p.l(libinit2.o)
    0x1000013e   0x00000000   Code   RO          686    .ARM.Collect$$libinit$$0000000A  c_p.l(libinit2.o)
    0x1000013e   0x00000000   Code   RO          688    .ARM.Collect$$libinit$$0000000C  c_p.l(libinit2.o)
    0x1000013e   0x00000000   Code   RO          690    .ARM.Collect$$libinit$$0000000E  c_p.l(libinit2.o)
    0x1000013e   0x00000000   Code   RO          693    .ARM.Collect$$libinit$$00000011  c_p.l(libinit2.o)
    0x1000013e   0x00000000   Code   RO          695    .ARM.Collect$$libinit$$00000013  c_p.l(libinit2.o)
    0x1000013e   0x00000000   Code   RO          697    .ARM.Collect$$libinit$$00000015  c_p.l(libinit2.o)
    0x1000013e   0x00000000   Code   RO          699    .ARM.Collect$$libinit$$00000017  c_p.l(libinit2.o)
    0x1000013e   0x00000000   Code   RO          701    .ARM.Collect$$libinit$$00000019  c_p.l(libinit2.o)
    0x1000013e   0x00000000   Code   RO          703    .ARM.Collect$$libinit$$0000001B  c_p.l(libinit2.o)
    0x1000013e   0x00000000   Code   RO          705    .ARM.Collect$$libinit$$0000001D  c_p.l(libinit2.o)
    0x1000013e   0x00000000   Code   RO          707    .ARM.Collect$$libinit$$0000001F  c_p.l(libinit2.o)
    0x1000013e   0x00000000   Code   RO          709    .ARM.Collect$$libinit$$00000021  c_p.l(libinit2.o)
    0x1000013e   0x00000000   Code   RO          711    .ARM.Collect$$libinit$$00000023  c_p.l(libinit2.o)
    0x1000013e   0x00000000   Code   RO          713    .ARM.Collect$$libinit$$00000025  c_p.l(libinit2.o)
    0x1000013e   0x00000000   Code   RO          717    .ARM.Collect$$libinit$$0000002C  c_p.l(libinit2.o)
    0x1000013e   0x00000000   Code   RO          719    .ARM.Collect$$libinit$$0000002E  c_p.l(libinit2.o)
    0x1000013e   0x00000000   Code   RO          721    .ARM.Collect$$libinit$$00000030  c_p.l(libinit2.o)
    0x1000013e   0x00000000   Code   RO          723    .ARM.Collect$$libinit$$00000032  c_p.l(libinit2.o)
    0x1000013e   0x00000002   Code   RO          724    .ARM.Collect$$libinit$$00000033  c_p.l(libinit2.o)
    0x10000140   0x00000002   Code   RO          755    .ARM.Collect$$libshutdown$$00000000  c_p.l(libshutdown.o)
    0x10000142   0x00000000   Code   RO          781    .ARM.Collect$$libshutdown$$00000002  c_p.l(libshutdown2.o)
    0x10000142   0x00000000   Code   RO          783    .ARM.Collect$$libshutdown$$00000004  c_p.l(libshutdown2.o)
    0x10000142   0x00000000   Code   RO          786    .ARM.Collect$$libshutdown$$00000007  c_p.l(libshutdown2.o)
    0x10000142   0x00000000   Code   RO          789    .ARM.Collect$$libshutdown$$0000000A  c_p.l(libshutdown2.o)
    0x10000142   0x00000000   Code   RO          791    .ARM.Collect$$libshutdown$$0000000C  c_p.l(libshutdown2.o)
    0x10000142   0x00000000   Code   RO          794    .ARM.Collect$$libshutdown$$0000000F  c_p.l(libshutdown2.o)
    0x10000142   0x00000002   Code   RO          795    .ARM.Collect$$libshutdown$$00000010  c_p.l(libshutdown2.o)
    0x10000144   0x00000000   Code   RO          630    .ARM.Collect$$rtentry$$00000000  c_p.l(__rtentry.o)
    0x10000144   0x00000000   Code   RO          637    .ARM.Collect$$rtentry$$00000002  c_p.l(__rtentry2.o)
    0x10000144   0x00000006   Code   RO          649    .ARM.Collect$$rtentry$$00000004  c_p.l(__rtentry4.o)
    0x1000014a   0x00000000   Code   RO          639    .ARM.Collect$$rtentry$$00000009  c_p.l(__rtentry2.o)
    0x1000014a   0x00000004   Code   RO          640    .ARM.Collect$$rtentry$$0000000A  c_p.l(__rtentry2.o)
    0x1000014e   0x00000000   Code   RO          642    .ARM.Collect$$rtentry$$0000000C  c_p.l(__rtentry2.o)
    0x1000014e   0x00000008   Code   RO          643    .ARM.Collect$$rtentry$$0000000D  c_p.l(__rtentry2.o)
    0x10000156   0x00000002   Code   RO          672    .ARM.Collect$$rtexit$$00000000  c_p.l(rtexit.o)
    0x10000158   0x00000000   Code   RO          728    .ARM.Collect$$rtexit$$00000002  c_p.l(rtexit2.o)
    0x10000158   0x00000004   Code   RO          729    .ARM.Collect$$rtexit$$00000003  c_p.l(rtexit2.o)
    0x1000015c   0x00000006   Code   RO          730    .ARM.Collect$$rtexit$$00000004  c_p.l(rtexit2.o)
    0x10000162   0x00000002   PAD
    0x10000164   0x00000006   Code   RO          454    .emb_text           syd8821_ble_slave.lib(rom.o)
    0x1000016a   0x00000002   PAD
    0x1000016c   0x00000038   Code   RO          591    .emb_text           c_p.l(rt_memcpy.o)
    0x100001a4   0x00000980   Code   RO            3    .text               main.o
    0x10000b24   0x00000358   Code   RO           99    .text               gpio.o
    0x10000e7c   0x00000090   Code   RO          159    .text               pad_mux_ctrl.o
    0x10000f0c   0x00000250   Code   RO          184    .text               uart.o
    0x1000115c   0x000000e2   Code   RO          244    .text               queue.o
    0x1000123e   0x00000002   PAD
    0x10001240   0x000001c4   Code   RO          267    .text               timer.o
    0x10001404   0x000001a8   Code   RO          293    .text               ota.o
    0x100015ac   0x00000038   Code   RO          369    .text               startup_armcm0.o
    0x100015e4   0x00000018   Code   RO          375    .text               system_armcm0.o
    0x100015fc   0x00001768   Code   RO          401    .text               syd8821_ble_slave.lib(main.o)
    0x10002d64   0x0000245c   Code   RO          455    .text               syd8821_ble_slave.lib(rom.o)
    0x100051c0   0x000001ac   Code   RO          490    .text               syd8821_ble_slave.lib(pmu.o)
    0x1000536c   0x00000580   Code   RO          544    .text               syd8821_ble_slave.lib(aec-ccm.o)
    0x100058ec   0x000008f4   Code   RO          574    .text               syd8821_ble_slave.lib(aes.o)
    0x100061e0   0x0000005a   Code   RO          589    .text               c_p.l(memcmp.o)
    0x1000623a   0x00000082   Code   RO          592    .text               c_p.l(rt_memcpy.o)
    0x100062bc   0x00000040   Code   RO          595    .text               c_p.l(rt_memclr.o)
    0x100062fc   0x00000022   Code   RO          597    .text               c_p.l(uread4.o)
    0x1000631e   0x00000010   Code   RO          599    .text               c_p.l(uwrite4.o)
    0x1000632e   0x0000015a   Code   RO          601    .text               c_p.l(aeabi_sdiv.o)
    0x10006488   0x00000006   Code   RO          605    .text               c_p.l(heapauxi.o)
    0x1000648e   0x00000002   PAD
    0x10006490   0x00000358   Code   RO          609    .text               fz_ps.l(daddsub.o)
    0x100067e8   0x00000448   Code   RO          611    .text               fz_ps.l(ddiv.o)
    0x10006c30   0x00000048   Code   RO          614    .text               fz_ps.l(dfixui.o)
    0x10006c78   0x00000058   Code   RO          616    .text               fz_ps.l(dflti.o)
    0x10006cd0   0x00000248   Code   RO          618    .text               fz_ps.l(dmul.o)
    0x10006f18   0x00000054   Code   RO          620    .text               fz_ps.l(f2d.o)
    0x10006f6c   0x0000005e   Code   RO          628    .text               fz_ps.l(fflti.o)
    0x10006fca   0x0000003e   Code   RO          653    .text               c_p.l(sys_stackheap_outer.o)
    0x10007008   0x00000010   Code   RO          656    .text               c_p.l(exit.o)
    0x10007018   0x00000008   Code   RO          668    .text               c_p.l(libspace.o)
    0x10007020   0x0000000c   Code   RO          725    .text               c_p.l(sys_exit.o)
    0x1000702c   0x00000002   Code   RO          744    .text               c_p.l(use_no_semi.o)
    0x1000702e   0x00000000   Code   RO          746    .text               c_p.l(indicate_semi.o)
    0x1000702e   0x00000002   PAD
    0x10007030   0x0000004c   Code   RO          491    PMU                 syd8821_ble_slave.lib(pmu.o)
    0x1000707c   0x0000001a   Code   RO          421    i.__ARM_common_switch8  syd8821_ble_slave.lib(main.o)
    0x10007096   0x00000002   PAD
    0x10007098   0x0000008c   Code   RO          622    x$fpl$fadd          fz_ps.l(faddsub.o)
    0x10007124   0x000000d0   Code   RO          624    x$fpl$fsub          fz_ps.l(faddsub.o)
    0x100071f4   0x00000000   Code   RO          635    x$fpl$usenofp       fz_ps.l(usenofp.o)
    0x100071f4   0x0000028e   Data   RO            5    .constdata          main.o
    0x10007482   0x00000032   Data   RO          457    .constdata          syd8821_ble_slave.lib(rom.o)
    0x100074b4   0x00000020   Data   RO          492    .constdata          syd8821_ble_slave.lib(pmu.o)
    0x100074d4   0x0000020b   Data   RO          575    .constdata          syd8821_ble_slave.lib(aes.o)
    0x100076df   0x00000080   Data   RO          612    .constdata          fz_ps.l(ddiv.o)
    0x1000775f   0x00000001   PAD
    0x10007760   0x00000020   Data   RO          796    Region$$Table       anon$$obj.o


    Execution Region RW_IRAM1 (Base: 0x20000000, Size: 0x00006a58, Max: 0x00028000, ABSOLUTE)

    Base Addr    Size         Type   Attr      Idx    E Section Name        Object

    0x20000000   0x0000003f   Data   RW            6    .data               main.o
    0x2000003f   0x00000001   PAD
    0x20000040   0x0000000c   Data   RW          100    .data               gpio.o
    0x2000004c   0x00000008   Data   RW          160    .data               pad_mux_ctrl.o
    0x20000054   0x00000008   Data   RW          186    .data               uart.o
    0x2000005c   0x00000014   Data   RW          269    .data               timer.o
    0x20000070   0x0000000c   Data   RW          295    .data               ota.o
    0x2000007c   0x00000004   Data   RW          376    .data               system_armcm0.o
    0x20000080   0x00000014   Data   RW          403    .data               syd8821_ble_slave.lib(main.o)
    0x20000094   0x0000006f   Data   RW          458    .data               syd8821_ble_slave.lib(rom.o)
    0x20000103   0x00000001   PAD
    0x20000104   0x00000004   Data   RW          493    .data               syd8821_ble_slave.lib(pmu.o)
    0x20000108   0x00000014   Zero   RW            4    .bss                main.o
    0x2000011c   0x00000420   Zero   RW          185    .bss                uart.o
    0x2000053c   0x00000014   Zero   RW          268    .bss                timer.o
    0x20000550   0x00000028   Zero   RW          294    .bss                ota.o
    0x20000578   0x0000104d   Zero   RW          402    .bss                syd8821_ble_slave.lib(main.o)
    0x200015c5   0x00000003   PAD
    0x200015c8   0x0000041f   Zero   RW          456    .bss                syd8821_ble_slave.lib(rom.o)
    0x200019e7   0x00000010   Zero   RW          545    .bss                syd8821_ble_slave.lib(aec-ccm.o)
    0x200019f7   0x00000001   PAD
    0x200019f8   0x00000060   Zero   RW          669    .bss                c_p.l(libspace.o)
    0x20001a58   0x00004000   Zero   RW          367    HEAP                startup_armcm0.o
    0x20005a58   0x00001000   Zero   RW          366    STACK               startup_armcm0.o


==============================================================================

Image component sizes


      Code (inc. data)   RO Data    RW Data    ZI Data      Debug   Object Name

         0          0          0          0          0      34552   delay.o
       856         16          0         12          0      45533   gpio.o
      2432        250        654         63         20      62773   main.o
       424         22          0         12         40       3682   ota.o
       144          4          0          8          0       1817   pad_mux_ctrl.o
       226          0          0          0          0       2379   queue.o
        56         26        192          0      20480        716   startup_armcm0.o
        24          8          0          4          0        869   system_armcm0.o
       452         10          0         20         20       3052   timer.o
       592         24          0          8       1056      10319   uart.o

    ----------------------------------------------------------------------
      5208        360        878        128      21616     165692   Object Totals
         0          0         32          0          0          0   (incl. Generated)
         2          0          0          1          0          0   (incl. Padding)

    ----------------------------------------------------------------------

      Code (inc. data)   RO Data    RW Data    ZI Data      Debug   Library Member Name

         8          0          0          0          0         68   __main.o
         0          0          0          0          0          0   __rtentry.o
        12          0          0          0          0          0   __rtentry2.o
         6          0          0          0          0          0   __rtentry4.o
        60          8          0          0          0          0   __scatter.o
        26          0          0          0          0          0   __scatter_copy.o
        28          0          0          0          0          0   __scatter_zi.o
       346          0          0          0          0         92   aeabi_sdiv.o
        16          0          0          0          0         68   exit.o
         6          0          0          0          0        136   heapauxi.o
         0          0          0          0          0          0   indicate_semi.o
         2          0          0          0          0          0   libinit.o
         2          0          0          0          0          0   libinit2.o
         2          0          0          0          0          0   libshutdown.o
         2          0          0          0          0          0   libshutdown2.o
         8          4          0          0         96         68   libspace.o
        90          0          0          0          0         68   memcmp.o
        64          0          0          0          0        108   rt_memclr.o
       186          0          0          0          0        144   rt_memcpy.o
         2          0          0          0          0          0   rtexit.o
        10          0          0          0          0          0   rtexit2.o
        12          4          0          0          0         60   sys_exit.o
        62          0          0          0          0         80   sys_stackheap_outer.o
        34          0          0          0          0         60   uread4.o
         2          0          0          0          0         68   use_no_semi.o
        16          0          0          0          0         60   uwrite4.o
       856         20          0          0          0        208   daddsub.o
      1096         26        128          0          0        112   ddiv.o
        72          4          0          0          0         68   dfixui.o
        88          0          0          0          0         92   dflti.o
       584         26          0          0          0         84   dmul.o
        84          4          0          0          0         60   f2d.o
       348          8          0          0          0        160   faddsub.o
        94          0          0          0          0         92   fflti.o
         0          0          0          0          0          0   usenofp.o
      1408          4          0          0         16       8115   aec-ccm.o
      2292         12        523          0          0       3442   aes.o
      6018        378          0         20       4173     119237   main.o
       504         34         32          4          0      11032   pmu.o
      9314        452         50        111       1055      24191   rom.o

    ----------------------------------------------------------------------
     23772        984        734        136       5344     167973   Library Totals
        12          0          1          1          4          0   (incl. Padding)

    ----------------------------------------------------------------------

      Code (inc. data)   RO Data    RW Data    ZI Data      Debug   Library Name

      1002         16          0          0         96       1080   c_p.l
      3222         88        128          0          0        876   fz_ps.l
     19536        880        605        135       5244     166017   syd8821_ble_slave.lib

    ----------------------------------------------------------------------
     23772        984        734        136       5344     167973   Library Totals

    ----------------------------------------------------------------------

==============================================================================


      Code (inc. data)   RO Data    RW Data    ZI Data      Debug   

     28980       1344       1612        264      26960     331773   Grand Totals
     28980       1344       1612        264      26960     331773   ELF Image Totals
     28980       1344       1612        264          0          0   ROM Totals

==============================================================================

    Total RO  Size (Code + RO Data)                30592 (  29.88kB)
    Total RW  Size (RW Data + ZI Data)             27224 (  26.59kB)
    Total ROM Size (Code + RO Data + RW Data)      30856 (  30.13kB)

==============================================================================

