:020000041000EA
:10000000F8940120351F00103D1F00103F1F001005
:1000100000000000000000000000000000000000E0
:10002000000000000000000000000000411F001060
:100030000000000000000000431F0010451F0010DA
:10004000BB060010471F0010471F0010471F00107D
:10005000471F0010471F001099080010471F00108D
:10006000471F0010471F0010471F0010471F0010B8
:10007000471F0010471F0010471F0010471F0010A8
:10008000471F0010471F0010471F0010471F001098
:10009000471F0010471F0010471F0010471F001088
:1000A000471F001043090010471F0010471F001092
:1000B000471F0010471F00106D0D0010471F001054
:1000C0000348854602F0A4F9004800470F020010DB
:1000D000F894012010B5072404E00921204600F01F
:1000E00056FB641C0C2CF8DB0C2000F01BFF0220DC
:1000F00000F022FF012000F000FF012000F0F2FEDE
:100100000021084600F0CAFE002000F0E0FE0020BA
:1001100000F0FEFE8E4800F039FE1E20002805DBB0
:10012000C206D20E012191408A4A116000BF10BD63
:1001300070B5044688480078401C87490870874895
:10014000007800284ED08548007801284AD1172031
:1001500000F0E6F9A007800F002817D080488149F9
:10016000086081480568E80F401942100846016898
:10017000002001F008F97C490868C10F09184910EE
:100180007A4A12688918794A116021E00320000236
:10019000204000281CD074490868C10F0918491074
:1001A0006F4A89186F4A11606F480568E80F401957
:1001B00042106C480168002001F0E5F86A490868BF
:1001C000C10F09184910694A12688918674A1160F5
:1001D000664800686649884204D300F03FFE00206C
:1001E0005E49087070BD10B5012080035E4908604B
:1001F000FF22084601685A4801F0F2FE5D4800F00F
:10020000C2FD59480168564800F0F6FD10BD72B6AF
:100210000021192000F0BBFA0021172000F0B7FAE6
:100220000021222000F0B3FA00210A2000F0AFFAEA
:100230000121192000F047F90121172000F043F9AE
:100240000121222000F03FF901210A2000F03BF9B2
:1002500000210E2000F09BFA00210F2000F097FAF9
:100260000021102000F093FA0021112000F08FFAF5
:1002700000210E2000F0BFF800210F2000F0BBF895
:100280000021102000F0B7F80021112000F0B3F891
:100290000721142000F07BFA0721152000F077FADF
:1002A00000F068FC34A000F06BFCFFF713FF01F0D6
:1002B0001FFB31A1002001F028FE62B60020264974
:1002C00008702649087041E00A2000F029F9224808
:1002D00000782E490978884224D01F4800782B499D
:1002E00008701E480078002805D11B48017828A016
:1002F00000F046FC16E019480078012809D11B4897
:100300000368184802681448017826A000F038FCF9
:1003100008E012480078022804D10F4801782CA088
:1003200000F02EFC0E2000F03AF900280ED1192022
:1003300000F0F6F809480078002807D12B480B494F
:100340000860012005490870FFF74DFFBCE7000079
:100350003030000000E100E0040000201000002028
:10036000540000200C0000200000002008000020A5
:100370005480012031010010535944383832312063
:100380004949532044454D4F0D0A00000500002007
:1003900069646C6520646D615F636E743A25780DE5
:1003A0000A0000007265636F726420646D615F63B0
:1003B0006E743A2578206275665F52616D5F7032A7
:1003C0003A257820646174615F703A2578000000F6
:1003D0007265636F72642066696E69736820646D0C
:1003E000615F636E743A25780D0A00005440002066
:1003F000D3490860704770B5024620241440630951
:1004000020251446AC430125A54028469C00CD4D2F
:100410002C592075050A6575050CA575050EE57541
:10042000002B13D0002908D1C74D6D7D0543ECB2D8
:10043000C54D6D7DC44E747515E0C34D6D7D85430E
:100440002C46C14D6D7DC04E74750CE0002905D160
:10045000BD4C64680443BC4D6C6004E0BA4C6468F5
:100460008443B94D6C6070BD70B5024620241440C1
:10047000630920251446AC430125A5402846002BDE
:1004800013D0002908D0B04DED7D0543ECB2AE4D40
:10049000ED7DAD4EF47515E0AB4DED7D85432C46FD
:1004A000A94DED7DA84EF4750CE0002905D0A64CB1
:1004B000E4680443A44DEC6004E0A34CE468844386
:1004C000A14DEC6070BD30B50B462024044061099D
:1004D00020250446AC430125A5402A468C00994DB1
:1004E0002C592276150A6576150CA576150EE5763B
:1004F000002B0AD08C00934D2C592271150A65717E
:10050000150CA571150EE57109E08C008D4D2C5967
:100510002272150A6572150CA572150EE57230BDB2
:1005200010B520230340590920240346A343012486
:100530009C4022468B00834CE3581A73140A5C7368
:10054000140C9C73140EDC7310BD10B520230340F3
:10055000590920240346A34301249C4022468B00D2
:10056000784CE3581A71140A5C71140C9C71140EC7
:10057000DC7110BD10B52023034059092024034627
:10058000A34301249C4022468B006E4CE3581A7210
:10059000140A5C72140C9C72140EDC7210BD30B51F
:1005A000014620200840420920240846A043012497
:1005B000844023469000634C205840301024041996
:1005C0002578284665782D022843A5782D042843F0
:1005D000E478240620431840002801D0012030BDD3
:1005E0000020FCE7F0B503460C46154620221A40D1
:1005F000500920261A46B243012696403146002C67
:100600000BD182004F4EB258403211720E0A567210
:100610000E0C96720E0ED6720AE08200494EB25847
:10062000403211710E0A56710E0C96710E0ED67173
:10063000002D0BD18200434EB258203211760E0AA3
:1006400056760E0C96760E0ED6760AE082003D4E59
:10065000B258203211750E0A56750E0C96750E0E94
:10066000D6758200374EB258203211710E0A56717B
:100670000E0C96710E0ED6710022002A05DBD706ED
:10068000FF0E0126BE40314F3E6000BFF0BD10B5E9
:1006900020230340590920240346A34301249C40FE
:1006A00022468B00274CE35820331A72140A5C72DE
:1006B000140C9C72140EDC7210BD70B500243CE06A
:1006C000A000204908584030142141180A781046EB
:1006D0004A78120210438A7812041043C978090636
:1006E0000843A100174A515820310A461378194689
:1006F00053781B02194393781B041943D2781206CE
:10070000114308400546002D00D114E00C48006854
:10071000002804D029462046094A12689047A000C4
:100720000849085840300575290A4175290C81751A
:10073000290EC17500BF601CC4B2022CC0DB70BDA5
:100740001C000020140000204010005000E100E0D8
:1007500010B50146272901DA002902DA0020C0433A
:1007600010BDCC07E40F202904DA4A101B480068AA
:10077000835C05E008462038421018484068835CD6
:10078000002C01D01811EBE71807000FE8E770B54F
:10079000272801DA002800DA70BD0907090FC4070D
:1007A000E40F202804DA43100C4E3668F21805E0F6
:1007B0000646203E7310094E7668F2181578002C14
:1007C00001D00F2600E0F0263540002C01D00E07A6
:1007D000310E2E460E43167000BFDDE720000020CC
:1007E000002815DBC206D20E01219140944A116007
:1007F00000BF00BF00BFBFF34F8F00BF00BF00BFEF
:1008000000BF00BF00BFBFF36F8F00BF00BF00BFBE
:10081000704770B504460D460620FFF7E1FF894892
:1008200000680078000900012907090F084385497D
:100830000968087083480068007880218843E101D6
:100840008022114008437F49096808707D4800688C
:100850000078402188437B4909680870794800681E
:1008600080780821884308307649096888709200AA
:100870007549764800F00AFA7548406A40210843F5
:10088000734948620846006A40210843704908627B
:10089000062000F0CBF870BD70B56A480068047897
:1008A00030206040054667480068057010202040F1
:1008B00000280DD000BF634800680179634800F04C
:1008C0001DFA60480068C078C007C00F0028F2D049
:1008D00070BD70B504460D461920FFF781FF5948D9
:1008E00040680078000900012907090F08435549AD
:1008F0004968087053484068007880218843E101C6
:100900008022114008434F49496808704D484068AB
:100910000078402188434B4949680870494840683D
:1009200080780821884308304649496888709200D9
:1009300048494648103000F0A9F9192000F076F82F
:1009400070BD70B53F48406804783020604005466F
:100950003C48406805701020204000280ED000BFA1
:100960003848406801793948103000F0C7F93548F7
:100970004068C078C007C00F0028F1D070BDF0B546
:100980000B4601242404002112E000BF85002D4EF7
:100990007559ED782D07ED0F002DF7D185007559AC
:1009A0006D785E5C35468600264FBE597570491CD1
:1009B0009142EADB00E0641E8500224E7559ED7815
:1009C0006D07ED0F002D01D1002CF4D1F0BD70B5F5
:1009D00004460D4621011D4A8818294600F09CF95D
:1009E00070BD70B504460D4600BF022C01DB00202F
:1009F00070BD2101154A881800F0A3F900280AD11A
:100A0000200112494018C5682101104A881800F0D9
:100A1000A1F9C0B2ECE70020EAE70146012901DDB7
:100A2000002070478800074A1058FAE7002806DBC4
:100A3000C206D20E01219140014A803A11607047EE
:100A400080E100E028000020748001205480012013
:100A5000008002207482012010B502460620002882
:100A600015DBC406E40E0123A3407F4C236000BFC6
:100A700000BF00BFBFF34F8F00BF00BF00BF00BF6C
:100A800000BF00BFBFF36F8F00BF00BF00BF00BF3C
:100A9000764800680078000900010B071B0F184317
:100AA000724B1B6818707148006800788023984367
:100AB000D3018024234018436C4B1B6818706B488B
:100AC00000680078402398434030684B1B681870DA
:100AD00066480068C078102398431030634B1B6849
:100AE000D8706248006880780823984308305F4BCC
:100AF0001B6898705E48406A402318435C4B5862FC
:100B00001846006A40231843594B186206200028F3
:100B100006DBC406E40E0123A340534C803C236053
:100B200000BF10BDF0B50B4601242404002112E0E3
:100B300000BF85004D4E7559ED782D07ED0F002D46
:100B4000F7D1850075596D785E5C35468600474F54
:100B5000BE597570491C9142EADB00E0641E8500B5
:100B6000424E7559ED786D07ED0F002D01D1002C27
:100B7000F4D1F0BD10B508210020FFF76DFF10BDC6
:100B80000FB438B500240498002803D138BC08BC41
:100B900004B0184705A800903648009A049901F05F
:100BA000DDFCC4B200200090802C00DD80242246B1
:100BB00030490020FFF7B6FF00BFE7E70FB438B5B4
:100BC000054600240598002803D138BC08BC04B0B1
:100BD000184706A800902748009A059901F0BEFC26
:100BE000C4B200200090802C00DD802422462149E0
:100BF0002846FFF797FF00BFE7E7F8B505460E4622
:100C000017460024002D02D02846FFF7B9FF002424
:100C10001BE02046E117490F0918C910C900611AE5
:100C200003D1A1B214A0FFF7ABFF315D14A0FFF711
:100C3000A7FF601CC117490F0918C910C900411A44
:100C400002D111A0FFF79CFF641CBC42E1DB2046EF
:100C5000E117490F0918C910C900611A02D00AA08A
:100C6000FFF78EFFF8BD000080E100E030000020BB
:100C700000800220748401205B253034785D2000E0
:100C800025303278200000000D0A00000023436068
:100C900003608260C1607047416801607047F8B5C9
:100CA00004460F46154660684019A168884219DB62
:100CB000A088281A86B26268E168881832463946E8
:100CC00001F07CF9A81B85B22068A84202DC2088CC
:100CD000401E85B2B9192A46E06801F06FF96560D7
:100CE0007019F8BD6268E16888182A46394601F033
:100CF00065F96068401960602846F2E7024653686B
:100D0000581C5060D068C15493685068984201DB09
:100D100000205060012070470246536810689842D6
:100D200001D1002070471368581C1060D068C05C67
:100D3000087093681068984201DB00201060012061
:100D4000F0E701464A680868904201D101207047E7
:100D50000020FCE7014600224B680868984200DD4D
:100D60008A68486880180B68C01A704710B57848C0
:100D70004469446177480068002803D020467549DB
:100D80000968884710BD734908607047724941403F
:100D90006F4A5161704730B504460B4619468807C3
:100DA000800F002801D0002030BD89089210002C4F
:100DB00010D1002905D06648C0898DB22846644DFF
:100DC000E881002A16D06248408A95B22846604DD4
:100DD00068820FE0002905D05D4880898DB22846E1
:100DE0005B4DA881002A05D05948008A95B2284653
:100DF000574D28820120D7E730B504460D465448A8
:100E0000007D4007C00F002801D0002030BD2A46D9
:100E100021460020FFF7BFFF4D48007A4008400000
:100E2000401C4B4908720120F0E730B504460D46DE
:100E30004748007D4007C00F002801D0002030BD8A
:100E40002A4621460120FFF7A6FF414800794008C5
:100E50004000401C3E4908710120F0E73C48007A00
:100E6000C007C00F002805D03948007A400840006C
:100E70003749087236480079C007C00F002805D0EE
:100E800033480079400840003149087100BF3048BC
:100E9000007D4007C00F0028F9D1704710B5002829
:100EA0000AD12B4A527880239A43CB0180242340D5
:100EB0001A43274B5A7009E0254A527840239A4337
:100EC0008B01402423401A43214B5A7010BD204906
:100ED000497820229143420120231A4011431C4AA1
:100EE000517070471A4949780C22914382000C23B3
:100EF0001A401143164A517070471549497810221B
:100F00009143020110231A401143114A5170704756
:100F10000F494978890889008207920F11430C4ACA
:100F2000517070470A490978090909010207120F2F
:100F30001143074A1170704705490978F02291431F
:100F40000201F0231A401143014A1170704700005A
:100F500000700250380000203030000010B5F64C10
:100F6000032020616061F5A0A061F749E1610521DE
:100F7000890321620021A1626162E162EFA0206623
:100F8000F149616605218903A16600212167E166B7
:100F90006167EEA1E01D01F03CF8EDA1204601F0F3
:100FA00038F82020A07110BDF7B582B0044617466E
:100FB00000200190E56800BF206900900098A842D9
:100FC00003D90098401B461E04E0A1680098281A27
:100FD000401C0E1AA068401BB04201D9304601E007
:100FE000A068401B0646BE4201D2304600E03846AB
:100FF0000646616848193246039900F0DFFF019800
:1010000080190190039880190390BF1BAD19A06847
:10101000A84200D10025E560002FCDD1019805B090
:10102000F0BDF7B582B004461546E668A068871B98
:10103000AF4208D9616888192A46039900F0BEFFBB
:101040007019E06010E0019761688819019A0399AE
:1010500000F0B4FFE81B0190039AD1196068019A6F
:1010600000F0ACFF0198E06005B0F0BD38B5054672
:101070000C46FF2168460170B748015D6846417023
:10108000022269462846FFF78FFF38BD10B501469A
:101090000A69CB689A4204D88C68641EE41AA018C6
:1010A00001E0D41A601E10BDF7B584B0174600BF2A
:1010B000A1480078002801D1FFF750FF00BF182198
:1010C000049848439C496031461805980190356959
:1010D000F0680290002003900298854219D9B06808
:1010E000441BBC4201D2204600E0384604467068EA
:1010F00041192246019800F061FF039800190390FE
:101100000198001901903F1B2D19B068A84200D129
:1011100000250298441BBC4201D2204600E038461C
:101120000446002C0DD0706841192246019800F049
:1011300045FF0398001903900198001901903F1B87
:101140002D190398002800D03561039807B0F0BD31
:10115000F8B504460D461646EFF310800746012009
:1011600080F3108800BF00BF324629462046FFF7B3
:101170009BFF0090F8B280F3108800BF00BF00987A
:10118000F8BDF7B582B007461646039801901820BF
:1011900078436949183144182169E068884202D1CE
:1011A000A068451E0EE02169E068884204D22069EB
:1011B000E168401A451E05E02069E168401A401EBA
:1011C000A1684518AE420CD92069711B40182061F6
:1011D00003E02069A168401A20612069A168884263
:1011E000F7D2E168A068451A00BFB5420AD9E268A3
:1011F000616888183246019900F0E0FEE0688019C5
:10120000E06010E0E268616888182A46019900F001
:10121000D5FE0198401901900020E060761BA0687F
:10122000451E002EE1D100BF05B0F0BDF7B584B07A
:101230001646059803901821049848433E491831F2
:10124000441820690290E5680298A84236D8A06840
:10125000401E471BB7420AD36168481932460399BA
:1012600000F0ACFEA819E060012007B0F0BD0298C4
:101270003F18B74231D3A068401B01900198B0429B
:1012800008D9616848193246039900F097FEA819F9
:10129000E06011E061684819019A039900F08EFE40
:1012A0000198321A019B0398C1186068009000F001
:1012B00085FE0198301AE0600120D6E70298401BB5
:1012C000471EB74209D3616848193246039900F0B6
:1012D00075FEA819E0600120C7E70020C5E7F7B553
:1012E00082B00746164603980190182078431249A9
:1012F00018314018009000984069002804D0012857
:1013000011D0022839D131E00098FFF7BFFE054621
:10131000B54201D2002405E03446324601990098D6
:10132000FFF77FFE2BE00098FFF7B0FE0546B542C1
:1013300014D2284613E00000007F02205465726D2D
:10134000696E616C0000000054400020525454004B
:1013500053454747455200003C00002030460446B4
:10136000224601990098FFF75CFE08E03246019999
:101370000098FFF719FE044601E0002400BF00BFFB
:10138000204605B0F0BDF8B504460D46164600BF30
:10139000FE480078002801D1FFF7E0FD00BFEFF321
:1013A00010800746012080F3108800BF00BF32463E
:1013B00029462046FFF793FF0090F8B280F310888B
:1013C00000BF00BF0098F8BD70B505460C4620462A
:1013D00000F018FE0646324621462846FFF7D3FFA6
:1013E00070BD70B503460C4618255D43E74E1836B0
:1013F000A919CD686A1C8D68954200D100220D693B
:10140000954205D0CE684D68AC55CA60012000E019
:10141000002070BDF3B581B0074600BFDB480078FF
:10142000002801D1FFF79AFD00BFEFF310800121E2
:1014300081F3108800BF00BF18217943D34A1832C6
:101440008C18E1684D1CA168A94200D100252169D2
:10145000A94206D00299E3686268D154E56001268A
:1014600000E00026C1B281F3108800BF00BF304603
:10147000FEBDF3B581B0074600BFC4480078002820
:1014800001D1FFF76BFD00BFEFF31080012181F365
:10149000108800BF00BF18217943BC4A18328C184D
:1014A000E1684D1CA168A94200D1002561690229AB
:1014B00003D100BF2169A942FCD02169A94206D00D
:1014C0000299E3686268D154E560012600E00026D5
:1014D000C1B281F3108800BF00BF3046FEBD38B5F1
:1014E000012269460020FFF733FE0446012C02D199
:1014F0006846047801E00024E443204638BD10B576
:1015000000BFFFF7ECFF0028FBDB10BD70B500BF8C
:101510009E480078002801D1FFF720FD00BF9B48BE
:10152000056FC06EA84201D0012400E000242046CF
:1015300070BD10B5014618204843944C6034021920
:10154000D3681069181A10BDFFB581B005460E4664
:10155000174600BF8D480078002801D1FFF7FEFC38
:1015600000BFEFF310810846012181F3108800BF0E
:1015700000BF002400BF18216143844A60328918EB
:101580004968002900D104E0641C80494969A142EE
:10159000F1DC00BF7D494969A1421DDD182161438D
:1015A0007A4A603255501821614389184E601821DB
:1015B000614389188F60002218216143734B6033A7
:1015C000C9180A6118216143C918CA601822624308
:1015D000D2180499516101E00024E443C1B281F3BF
:1015E000108800BF00BF204605B0F0BDFFB581B038
:1015F00005460E46174600BF64480078002801D112
:10160000FFF7ACFC00BFEFF310810846012181F326
:10161000108800BF00BF002400BF182161435B4A4F
:10162000183289184968002900D104E0641C574920
:101630000969A142F1DC00BF54490969A1421DDDDD
:1016400018216143514A18325550182161438918B5
:101650004E601821614389188F6000221821614370
:101660004A4B1833C9180A6118216143C918CA6066
:1016700018226243D2180499516101E00024E44326
:10168000C1B281F3108800BF00BF204605B0F0BD95
:10169000FFB581B004460E46174600BF3B480078B0
:1016A000002801D1FFF75AFC00BF38480069A0426A
:1016B00030D9EFF310810846012181F3108800BF73
:1016C00000BF002C18D018216143304A1832565000
:1016D0001821614389184F60182262432B4B18333D
:1016E000D21804999160002218216143C9180A6137
:1016F00018216143C918CA6018226243234B18336A
:10170000D2180A995161C1B281F3108800BF00BF9D
:10171000002501E00025ED43284605B0F0BDFFB5EA
:1017200081B004460E46174600BF184800780028CE
:1017300001D1FFF713FC00BF14484069A04232D921
:10174000EFF310810846012181F3108800BF00BF2C
:10175000002C18D0182161430C4A603256501821D1
:10176000614389184F6018226243084B6033D218D6
:1017700004999160002218216143C9180A61182157
:101780006143C918CA601822624301E0007F022049
:10179000BA4BD2180A995161C1B281F3108800BFC7
:1017A00000BF002501E00025ED43284605B0F0BD4F
:1017B00070B504460E4600BFB04860380078002877
:1017C00001D1FFF7CBFB00BFAC4860380069A042F5
:1017D00012D9EFF31080012181F3108800BF00BF00
:1017E00018216143A54A483A5650C1B281F3108886
:1017F00000BF00BF002501E00025ED43284670BD75
:1018000070B504460E4600BF9C486038007800283A
:1018100001D1FFF7A3FB00BF984860384069A042A0
:1018200011D9EFF31080012181F3108800BF00BFB0
:1018300018216143914A5650C1B281F3108800BF0C
:1018400000BF002501E00025ED43284670BD70B5BE
:1018500004460E4600BF894860380078002801D150
:10186000FFF77CFB00BF854860380069A04213D9B0
:10187000EFF31080012181F3108800BF00BF182111
:1018800061437E4A483A89184E61C1B281F310889B
:1018900000BF00BF002501E00025ED43284670BDD4
:1018A00070B504460E4600BF7448603800780028C2
:1018B00001D1FFF753FB00BF704860384069A04278
:1018C00012D9EFF31080012181F3108800BF00BF0F
:1018D00018216143694A89184E61C1B281F31088A9
:1018E00000BF00BF002501E00025ED43284670BD84
:1018F00010B5FFF733FB10BDFEB5044600BF5F48CF
:1019000060380078002801D1FFF728FB00BF0027CE
:10191000FF2069460871102C30DA5948005D487183
:10192000564D483DEFF310800090012080F3108861
:1019300000BF00BF287D8007800F022807D15148D3
:101940000470022201A92846FFF72EFB0FE028466B
:10195000FFF79CFB0646022E07D34A48047002227A
:1019600001A92846FFF75DFB01E00027FF4300982F
:10197000C0B280F3108800BF00BF01E00027FF4322
:101980003846FEBDF3B583B0074600BF3B4860381C
:101990000078002801D1FFF7E1FA00BF102F68DAC4
:1019A000364848380290049800F02CFB0646EFF3C6
:1019B00010800190012080F3108800BF00BF0298C2
:1019C000FFF764FB05460298007D8007800F002822
:1019D00004D0012817D0022840D12FE0301D8542C5
:1019E00001D200240EE039460298FFF73FFB324651
:1019F00004990298FFF7D8FA044622480178029821
:101A0000FFF734FB2DE0042D02D20024E44314E060
:101A100039460298FFF72AFB281FB04201D9304609
:101A200000E0281F024604990298FFF7BDFA044619
:101A3000144801780298FFF719FB12E03946029822
:101A4000FFF714FB324604990298FFF7ADFA0446FB
:101A50000C4801780298FFF709FB02E00024E443F8
:101A600000BF00BF0198C0B280F3108800BF00BF64
:101A700001E00024E443204605B0F0BD607F022071
:101A80003C0000204C00002070B504460E46A568BE
:101A9000681C6168814206D320684655681CA060B6
:101AA000E068401CE0606168A06888420DD1A268CF
:101AB00021682069FFF767FCA168884203D00020F5
:101AC000C043E06001E00020A06070BDFFB585B0BC
:101AD000064617461D460E9C06980290012003906C
:101AE000019007E03946029800F03EFA0290019812
:101AF000401C01900298B842F4D20198854200D966
:101B000001950F98C007C00F00281DD1002C1BD0D5
:101B100002210F980840022804D1002D02D1302064
:101B2000009001E02020009008E0641E30460099FB
:101B3000FFF7AAFFF068002800DA04E0002C02D0CA
:101B40000198A042F1D300BFF068002848DB0FE005
:101B5000012D01D96D1E08E00399069800F004FAE2
:101B600004900498B84200D203E0039878430390AD
:101B7000EEE700BF00BF0399069800F0F5F9049066
:101B80000399049848430699081A0690E84A04986D
:101B9000115C3046FFF778FFF068002800DA07E0B4
:101BA0003946039800F0E0F9039003980028E2D149
:101BB00000BF0F98C007C00F002811D0002C0FD015
:101BC00008E0641E20213046FFF75EFFF068002821
:101BD00000DA04E0002C02D00198A042F1D300BF4B
:101BE00009B0F0BDFFB585B006460F460F9D0E9CAF
:101BF000002F01DA784200E038460390012004907B
:101C000007E00799039800F0C5F903900498401C79
:101C10000490079903988842F3DA04990898884257
:101C200001D908980490002C06D0002F03DB042073
:101C30002840042800D1641E02202840002802D039
:101C40000898002815D0E807C00F002811D1002CF3
:101C50000FD008E0641E20213046FFF715FFF06822
:101C6000002800DA04E0002C02D00498A042F1D34E
:101C700000BFF06800283ADB002F05DA7F422D21F3
:101C80003046FFF701FF07E004202840042803D175
:101C90002B213046FFF7F8FEF068002827DB0220F2
:101CA0002840022818D1E807C00F002814D108984E
:101CB000002811D1002C0FD008E0641E30213046DE
:101CC000FFF7E2FEF068002800DA04E0002C02D002
:101CD0000498A042F1D300BFF068002807DB01950B
:101CE000009439463046089B079AFFF7EFFE09B08B
:101CF000F0BDF7B59AB00D46144602A815904020E5
:101D00001690002017901A9819900020189000BF84
:101D10002E786D1C002E00D1E4E0252E79D100270D
:101D20000120149000BF2E78232E12D02B2E0CD021
:101D30002D2E02D0302E10D103E0012007436D1C60
:101D40000EE0022007436D1C0AE0042007436D1CCF
:101D500006E0082007436D1C02E00020149000BF3D
:101D600000BF14980028DED1129000BF2E78302ECC
:101D700001DB392E00DD08E06D1C0A211298484372
:101D80003146303940181290F0E700BF0020139020
:101D90002E782E2E11D16D1C00BF2E78302E01DB37
:101DA000392E00DD08E06D1C0A21139848433146A6
:101DB000303940181390F0E700BF2E7800BF6C2E2A
:101DC00001D0682E02D16D1C2E7800E000E0F6E70D
:101DD00000BF702E63D008DC252E72D0582E38D06C
:101DE000632E09D0642E71D114E0732E40D0752E6D
:101DF0001FD0782E6AD12BE02168081D206008686A
:101E000014901498C0B2019015A80199FFF73CFEF8
:101E10005DE05FE02168081D20600868149012985A
:101E2000019700900A2215A8139B1499FFF7DAFE78
:101E30004DE02168081D20600868149012980197F1
:101E400000900A2215A8139B1499FFF73FFE3EE06D
:101E500000BF2168081D206008681490129801973F
:101E60000090102215A8139B1499FFF72FFE2EE067
:101E70002168081D20600868019000BF019806785D
:101E80000198401C0190002E00D106E0314615A8B3
:101E9000FFF7FAFD18980028F0DA00BF17E0216874
:101EA000081D206008681490002008210B461022AD
:101EB0000091019015A81499FFF708FE07E000E0D3
:101EC00004E0252115A8FFF7DFFD00E000BF00BFFB
:101ED0006D1C03E0314615A8FFF7D6FD18980028C1
:101EE00000DB15E700BF189800280BDD17980028C5
:101EF00004D002A9179A1A98FFF745FA179918986B
:101F00004018189018981DB0F0BD0FB438B50446AD
:101F100006A800906A4620460599FFF7EAFE0546A6
:101F200000200090284638BC08BC04B018470000C8
:101F3000662E00100448804704480047FEE7FEE78D
:101F4000FEE7FEE7FEE7FEE7591F0010C1000010A4
:101F50000348044908607047014802490860704717
:101F600040787D015000002030B50B46014600202E
:101F70002022012409E00D46D5409D4205D31D468F
:101F80009540491B2546954040191546521E002D87
:101F9000F1DC30BD70B500242546002801DA0124AB
:101FA0004042002901DA01254942FFF7DDFFAC423A
:101FB00000D04042002C00D0494270BD03460B4384
:101FC0009B0703D009E008C9121F08C0042AFAD2EF
:101FD00003E00B780370401C491C521EF9D2704775
:101FE000D2B201E00270401C491EFBD270470022B1
:101FF000F6E710B513460A4604461946FFF7F0FF08
:10200000204610BD421C0178401C0029FBD1801ADB
:10201000704703460A780270401C491C002AF9D117
:1020200018467047F0B51FB40646002082B005463A
:102030004024019100901BE0019922460F46304652
:1020400000F008FA049A059B801A994110D31046B3
:102050001946224600F0EEF9361A8F4101972246C2
:1020600001200021009F00F0E5F938184D41009053
:102070002046641E0028DFDC019B0098294632467A
:1020800007B0F0BDF0B507460846584087B0C00F0E
:10209000049048000E46590040084908BC1A88417F
:1020A00005D2384631461E4617460B4602465800B2
:1020B000400810434CD0300D039040055900400DAE
:1020C000490D0590401A0290402872DA1803012148
:1020D000000B09050843019004980092002805D0E0
:1020E00001995242002088410092019002984021BB
:1020F0000A1A0199009800F09DF905460C466B46B6
:1021000007CB00F0B8F9C0197141039A0E0D0023F6
:10211000D71756401A467A40164344D0049A002AEC
:102120002DD0029A012A039A15DC1205C01A91419A
:1021300001263605001C7141D20F059ED20700937F
:10214000019202962A46234600F0B5F907B0F0BD89
:1021500038463146FAE71605224A0F46B218C01A29
:10216000B74101210905001C4F4100187F4111466C
:1021700018187941E20F10436D19644113E0E2072A
:102180006D0815436408C2071443039A012612051B
:10219000C01A91413605001C7141CE0740083043FA
:1021A0004908C01851412A46234600F077F9CDE787
:1021B000FFE7049801224000C117121A00238B4147
:1021C00004983146C417381AA141EEE730B401240F
:1021D000E407634030BC55E730B40124E4076140B4
:1021E00030BC4FE70000E0FFF0B51FB488B00B999A
:1021F0000998002448400999C00F490049080991ED
:10220000C0070B990090490049080B91099908985B
:10221000A64608431CD00B990A98084318D0099881
:1022200001244000420D4800410D09982405000397
:10223000000B204309900B980003000B20430B90E8
:1022400050181C494018002201901446104605E021
:10225000002001460DB0F0BD032801DA034600E07E
:1022600003239C46C11A0AAE0AE05F0008ADED5B8D
:102270004F00F75B7D430027AA187C41491C5B1E79
:102280006145F2DD410004AB5A522104120C0A43AD
:10229000240C401C0828DFDB01980290009970464E
:1022A00001910090059B049A0799069800F003F9A4
:1022B000D0E700000DFCFFFFF0B50C465C4085B098
:1022C000E40FE40703944C00002664085900944688
:1022D000490802460296224321D062460A431ED094
:1022E0006200570D4A000E032303550D01240246D8
:1022F0002C492405781B1B0B360B4018234326431F
:10230000614600901C46501AB44103D30098401C0B
:10231000009002E0921800985B41002803DA002048
:10232000014605B0F0BD002001210905074686469B
:1023300011E064461D46141BB54106D36546521B89
:10234000B341744607430C43A646CD0740084908ED
:10235000284392185B4105460D43EAD110461843C5
:1023600013D06046194650407140084306D060467D
:10237000101AB34106D20122002306E000220123F5
:10238000DB0702E00122D243531000987446010596
:10239000381C6141029C039D0019694100F07EF8E0
:1023A000BFE70000FD0300004A0009030123090BF9
:1023B0001B0519430A4B10B5520D9A4202DA002050
:1023C000014610BD064B34339A4203DC9A1A00F0E2
:1023D00041F810BD034BD21800F02CF810BD0000DE
:1023E000FF030000CDFBFFFF10B5002904DB012433
:1023F000E40740428C412146002B04DB1C460123AC
:10240000DB075242A341994200D1904210BD000027
:10241000064C0125064E05E0E36807CC2B430C3C37
:1024200098471034B442F7D3FDF74EFE782E0010D3
:10243000982E001010B5202A04DB0146203A914066
:10244000002010BD914020239C1A0346E34019430D
:10245000904010BD10B5202A04DB0846203AD04039
:10246000002110BD0B46D340D0402024A21A914039
:102470000843194610BD10B5202A06DBCB170846C5
:10248000203A1041C1170B4306E00B461341D040E0
:102490002024A21A91400843194610BD10B5002B04
:1024A00008DA0024401C614192185B411A4301D1B3
:1024B0004008400010BDF0B51FB482B005460C00C6
:1024C00003D0084600F05CF802E000F059F8203034
:1024D0000246009021462846FFF7ACFF049B059A70
:1024E00004460F4618431143084314D018461043BE
:1024F0001BD0009840210A1A18460599FFF7AAFF39
:1025000005460E46009A05990498FFF793FF084385
:1025100005D0012004E02046394607B0F0BD002078
:10252000C11705430E432C43374300990E986305AA
:10253000401A7905E40A00220C43FD0A0A3002D54C
:1025400000200146E9E70105101969410C9C0D9D29
:1025500000196941FFF7A2FFDFE7000037B5144615
:102560000846064B6A46214600F0DCF804466946F8
:10257000002000F073FC20463EBD00005D2E0010E0
:102580002021020C01D010211046020A01D0104671
:102590000839020901D01046091F820801D01046EF
:1025A000891E420801D0881E7047081A704702E051
:1025B00008C8121F08C1002AFAD1704770470020CE
:1025C00001E001C1121F002AFBD17047F0B51FB412
:1025D00084B007980699020D014314D04A484B492C
:1025E0001018484305140F9801280E981CD0281A7B
:1025F000401C0024464E4749009401910290002857
:1026000014DA474227E00F98012443A3012808D099
:10261000002104980F9A84600360C260416009B091
:10262000F0BD0E98C143F4E74042E2E7074612E0EE
:10263000F80707D02246334601990098FFF7D4FDEA
:10264000019100902246334610461946FFF7CCFD13
:1026500004460E467F10002FEAD10298019B002805
:10266000009A0799069802DAFFF7BEFD01E0FFF72E
:1026700023FE04460E460022284BFFF7B5FE03D882
:102680000020C043014607E00022254B204631468A
:10269000FFF7F8FCFFF788FE102409E0002C0ADBA6
:1026A0000A220023FFF7BEFC059B30321A55641E38
:1026B00002460A43F2D11122641C059B121B1C190D
:1026C0000F9B012B03D0012308430ED10AE00843DE
:1026D00004D011200E9000200F9084E70E98151A58
:1026E0006D1E0BE00E98824202DD00236D1C03E09C
:1026F000824201DA00236D1E002BEED004980F9960
:102700008260C16030C08AE701FCFFFF104D00000D
:10271000000024400000F03F300000000000F043C3
:102720000000E03FFFB597B00646002518E22528D7
:1027300077D100242746FD49049400E00443761C29
:1027400032780120203A90400842F7D130782A2888
:102750000ED00222307801463039092916D8049962
:102760000A235943303940181443761C0490F1E78A
:10277000189802C804911890002904DA0120400337
:1027800004434842049002200443761C30782E28EB
:1027900014D1042004437078761C2A2809D1189893
:1027A000761C80C8189009E00A214F43303FC719B2
:1027B000761C3078014630390929F5D930786C28F3
:1027C00010D006DC4C281AD068280ED06A2817D101
:1027D00004E0742813D07A2812D110E001204005BB
:1027E00004430CE00121090501E0032109050C4324
:1027F0007178814203D1012000052418761C761CD3
:102800003078119066280BD013DC58287DD009DC75
:1028100000287BD04528F6D04628F4D047281AD186
:10282000A5E118E0632835D0642870D0652812D15E
:102830009DE170286CD008DC6728F1D069287BD036
:102840006E280DD06F2806D1BAE073282ED07528D7
:1028500071D0782859D01A9A199990476D1C7EE149
:102860006002400F022809D003280DD004281898D0
:1028700001680DD00D60001D189070E11898EA17DE
:1028800001680D604A60F6E7189801680D80F2E76C
:102890000D70F0E718986A4601781172001D1890C3
:1028A0000020507202A80090012005E0189802C88C
:1028B000189000200091C04361070DD5002101E070
:1028C0000199491C0191B94212DA8142F8DB009A60
:1028D000515C0029F4D10BE0002101E00199491C71
:1028E00001918142FADB019A0099895C0029F5D1B6
:1028F000019904981A9B471A21463846199A00F004
:1029000097FA0199401945180BE04FE02CE113E0CC
:102910004EE0009800990078491C00911A9A199984
:1029200090470198401E0190401CF2D12146384644
:102930001A9B199A10E137E00A20002100900191BA
:102940006002410F022907D0189A01CA1892C217D3
:102950009446032908D00AE01898C01DC108C90090
:1029600005C91891944607E000B2C217944604299D
:1029700002D140B2C1178C4600226146944506DA66
:102980000A460021404291418C462D2102E021055A
:1029900004D52B216A461173012103E0E10701D020
:1029A0002021F7E7029155E00A200AE0102008E014
:1029B000102000900021042004430191082703E027
:1029C00008200021019100906002410F022907D0E8
:1029D000189A01CA189200229446032908D008E0E8
:1029E0001898C01DC108C90005C91891944603E094
:1029F00080B2042900D1C0B200210291210729D55B
:102A00001199702906D0009A1021019B4A401A435F
:102A100005D00EE040216A461173012108E06146AD
:102A2000014306D030216A46117311995173022176
:102A30000291009A0821019B4A401A430AD161463B
:102A4000014301D1610705D530216A461173012187
:102A50007F1E02911199582904D035A10E910DA91C
:102A60000D910DE037A1F9E76146019B009AFFF750
:102A7000D9FA0E9B8C469B5C0D9A521E0D921370D8
:102A800061460143F0D10D9805A9081A2030019044
:102A9000600703D501200004844300E0012701986A
:102AA000874201DD381A00E00020019900904118AA
:102AB000029809180498401A0490E00306D42146AD
:102AC0001A9B199A049800F0B3F94519002706E0FB
:102AD00003A81A9AC05D199990476D1C7F1C029833
:102AE0008742F5DBE0030CD521461A9B199A04981E
:102AF00000F09EF9451904E01A9A30201999904780
:102B00006D1C0099481E00900029F5DC08E00D9826
:102B10000D990078491C0D911A9A199990476D1CCE
:102B20000199481E01900029F1DC63E109280100A8
:102B30003031323334353637383961626364656633
:102B400000000000303132333435363738394142F5
:102B5000434445460000000000F05AF94519761C30
:102B60003078002800D0E2E528461BB0F0BD6007B1
:102B700000D406271898C01DC108C90048680A6813
:102B80000831C30FDB071891190001D09CA108E0A0
:102B9000210501D59BA104E0E10701D09AA100E045
:102BA0009AA1430011985B08109165280CD006DCAF
:102BB000452809D046281DD0472841D141E0662844
:102BC00018D067283CD13CE00021112F01DB1120F7
:102BD00000E0781C0191009008A911A8FFF7F6FC0D
:102BE000139905910021119A15927F1C1298019753
:102BF000009150E00120C00703900120019008A936
:102C0000009711A8FFF7E2FC139A1499059200228D
:102C1000119B009212981593059A0192002901D0F8
:102C2000104602E0791C40180190381A01D501982D
:102C300004E04042401E0090781C0190C01B0290AE
:102C400043E0012F00DA01270021112F01DD1120BF
:102C500000E038460191009008A911A8FFF7B6FCE2
:102C600013990591119A00211298159200910197DC
:102C700021070CD40599B94201DB019900E00191CB
:102C8000012904DD159A491E515C302906D0B8424D
:102C900001DA011D05DA0121029115E00199491EB1
:102CA000EDE7002805DC0099411800910199091A07
:102CB00003E0019A411C914200DD01910099401A04
:102CC000401C02900120C0070390200706D40299FF
:102CD0000198814202DB0020C04302900020694637
:102CE000C87707AF012103980337C907884224D06A
:102CF000022011902B201290039800280CDA4042F9
:102D000003902D20129007E00A210398FFF72CF979
:102D100030317F1E039039701199481E119000299F
:102D2000F2DC03980028EFD1791E129808703078F1
:102D3000202108404530BF1E387006A8C01BC01DAA
:102D4000039010980078002800D0012001994118C4
:102D50000298C0170918039809180498401A401ED1
:102D60000490E00306D421461A9B199A049800F0B7
:102D70005FF8451910980078002803D01A9A19991D
:102D800090476D1CE00324D521461A9B199A04989C
:102D900000F04EF845191CE00098002807DB009968
:102DA0000598884203DD1598405C199901E019994E
:102DB00030201A9A904700986D1C401C0090029891
:102DC000401E0290002804D11A9A2E20199990478B
:102DD0006D1C0199481E01900029DDDC05E0387862
:102DE0001A9A7F1C199990476D1C0399481E0390ED
:102DF0000029F4DC21461A9B199A0498ACE60000DD
:102E00002D0000002B00000020000000000000004A
:102E1000F8B5044600251E461746880404D405E08C
:102E200039462020B0476D1C641EF9D52846F8BDF0
:102E3000FFB50446002581B01E46C80301D53027E2
:102E400000E02027880404D505E038460399B04700
:102E50006D1C641EF9D5284605B0F0BD0A68531CE8
:102E60000B601070704730313233343536373839B3
:102E70004142434445460000982E001000000020C7
:102E800054000000AE250010EC2E0010540000206D
:102E9000547F0200BE25001000000000000000006A
:102EA00054400020540000200000000000000050AA
:102EB0008000005000000000601000508C10005096
:102EC00070B0025078B0025070B0025078B002502A
:102ED0000000000030313233343536373839414262
:0C2EE000434445460000000040787D019E
:04000005100000C126
:00000001FF
