:020000041000EA
:10000000C0EF0020F91400100115001003150010B6
:1000100000000000000000000000000000000000E0
:1000200000000000000000000000000005150010A6
:100030000000000000000000071500100915001066
:10004000571100100B1500100B1500100B150010A8
:100050000B1500100B1500100B1500100B150010E0
:100060000B1500105D12001081120010A512001077
:10007000C9120010ED1200100B1500100B15001026
:100080000B1500100B1500100B1500100B150010B0
:100090000B1500100B1500100B1500100B150010A0
:1000A0000B150010D10900100B1500100B150010D6
:1000B000C13600100B1500100B1500100B150010A9
:1000C0000348854608F09CFC00480047D503001013
:1000D000C0EF002010B5002819DAFE4A03071B0FF5
:1000E000083B9B089B00D2588307DC0EFF23A340EC
:1000F0009A438B071B0E8407E40EA3401A43F54B6B
:100100000407240F083CA408A4001A5118E0F24A7E
:1001100003231B02D21883089B00D2588307DC0EEE
:10012000FF23A3409A438B071B0E8407E40EA340D2
:100130001A43E94B032424021B198408A4001A5112
:1001400010BD1CB50121684601704021417000219D
:1001500081708021C17000210171C1714171817173
:1001600002F092FD1CBD10B58AB004462822DB497E
:10017000684608F0F7F9DA4804900021204602F0BA
:10018000B1FD6946002002F0A5FD0AB010BD10B512
:100190000446601C08F02BFA022820D100210D2211
:1001A000A25620460E3081540D22A256083A01462E
:1001B0005018CCA108F0FAF900284BD00622C84903
:1001C000E01D08F007FA002844D1C9A001F02DF97C
:1001D000002002F06FFD0120CD4908703AE0601C5C
:1001E00008F005FA042809D1CAA001F01EF9002080
:1001F00002F07CFD0320C64908702BE0601C08F06B
:10020000F6F9082807D16179CEA001F00EF9052092
:10021000BF4908701EE0601C08F0E9F9012819D1F7
:10022000607A002808D1A279637910021843014648
:10023000CAA001F0FAF80DE0607A01280AD1A2798B
:100240006379100218430146CBA001F0EEF80420B8
:10025000AF49087010BD10B504462078012803D1BD
:10026000CDA001F0E2F85FE02078032803D1CEA012
:1002700001F0DBF858E02078052803D1CEA001F08A
:10028000D4F851E02078072803D1D0A001F0CDF8B0
:100290004AE02078092803D1D4A001F0C6F843E051
:1002A00020780B2805D16278A11CD6A001F0DBF8DC
:1002B0003AE020780D2803D1D6A001F0B6F833E05B
:1002C00020780F2803D1D8A001F0AFF82CE02078D7
:1002D000112803D1DAA001F0A8F825E0207813282E
:1002E00003D1DFA001F0A1F81EE02078172803D188
:1002F000DFA001F09AF817E02078192803D1E2A0D6
:1003000001F093F810E020781B2807D16078801E58
:1003100082B2211DE2A001F0A6F805E020781D2898
:1003200002D1E3A001F081F810BD10B502F09AFCF3
:10033000E649002008F065F9E449091DE44808F0A1
:1003400060F9E249002002F0B9FCE249002002F025
:10035000D2FC10BD10B5002439E0152C2AD008DCE1
:10036000022C19D0042C18D00B2C0BD0142C22D119
:100370001FE0182C1BD01E2C1AD01F2C0ED0222CA4
:1003800019D100E000BF0021204600F03DFF01210F
:10039000204600F090FE17E000BF00BF002120467D
:1003A00000F032FF0021204600F085FE0CE000BF87
:1003B00000BF00BF08E00021204600F025FF00211B
:1003C000204600F03FFE00BF00BF601CC4B2272CD7
:1003D000C3DB10BDFFB081B0002472B6002504E07D
:1003E000032168B2FFF776FE6D1C202DF8DB00219B
:1003F0001C20FFF76FFE0821002000F08DFFB6489B
:10040000807E402188434030B3498876B3A2B6A1AC
:10041000B8A001F00AF8C0A001F007F8FFF785FFC7
:10042000052001F01BFB01F0FDFA012001F01DFB8E
:10043000FFF790FF0821002000F06CFA00210A204D
:1004400000F0E2FE00210A2000F0FCFDFF21043153
:10045000B54808F0A0F800202D49087062B6B3A096
:1004600000F0E3FF05E202F05BFBAF488078022872
:1004700017D1AD480078401EC1B2AB48001D00F056
:1004800085FBAF480078002807D0A7480078401EB9
:10049000C1B2A548001D00F0A4FC0421A24808F048
:1004A0007AF80A2000F034FE002811D1052000F06F
:1004B0009BFE0A2000F02CFE002809D1A1A000F02C
:1004C000B4FFFF210431984808F065F800BF41E10E
:1004D00053E100001CED00E000E100E0B4820110F7
:1004E000000000205359445F554152540000000061
:1004F00066696E6420646576696365207468656EFC
:100500002073746F70207363616E0D0A0000000029
:100510000E0000206861766520436F6E6E6563741F
:1005200020746F20736C617665207468656E20643A
:100530006973636F766572207365766963650D0A0A
:1005400000000000736C61766520646973636F6EF0
:100550006E6563742025780D0A000000646973637A
:100560006F7665722073657276696365206C6F6F54
:10057000703A25780D0A0000646973636F766572BE
:1005800020736572766963652066696E6973683A7F
:1005900025780D0A000000004154545F4552525F17
:1005A0005253500D0A0000004154545F4D54555FA2
:1005B0005253500D0A0000004154545F46494E44C6
:1005C0005F494E464F5F5253500D0A004154545FED
:1005D00046494E445F42595F545950455F56414C1D
:1005E00055455F5253500D0A000000004154545FBE
:1005F000524541445F42595F545950455F525350F0
:100600000D0A00004154545F524541445F5253501B
:100610003A0D0A004154545F524541445F424C4FE9
:10062000425F5253500D0A004154545F52454144B9
:100630005F4D554C5449504C455F5253500D0A0084
:100640004154545F524541445F42595F47524F55B0
:10065000505F545950455F5253500D0A000000003E
:100660004154545F57524954455F5253500D0A004C
:100670004154545F505245504152455F575249547E
:10068000455F5253500D0A004154545F455845434D
:100690005554455F57524954455F5253500D0A0017
:1006A000536C617665206E6F746966793A0D0A0045
:1006B0004154545F48414E444C455F56414C5F495C
:1006C0004E4449434154494F4E0D0A000600002054
:1006D0008F010010570200106010005031363A357B
:1006E000393A3335000000004A616E20313720323C
:1006F000303232005359443838323120424C452090
:1007000043656E7472616C20756172742025733A52
:1007100025730D0A000000005359442D54454B2EFB
:10072000496E630D0A000000D80100206761705F08
:10073000735F7363616E5F73746172740D0A00009E
:10074000190000204B4559312050726573730D0A12
:10075000000000000A2000F0DBFC002800D1B6E613
:10076000FF20F53000F040FD4249434800F0F6FA22
:1007700000F02CFB41A000F058FE4648007801280C
:100780000CD145A000F051FE4848FFF7ECFC0020DA
:1007900002F0A4FA02203F4908700EE03D480078BC
:1007A00005280AD1FFF7CDFC002002F07FFA40A017
:1007B00000F03BFE0020374908700E2000F0A8FC36
:1007C00000280ED103217F917FA902F0E0FA70A8E2
:1007D000818F3BA000F029FE7D20C00000F004FDC9
:1007E00000BF0F2000F094FC00281BD12021684698
:1007F0000180002401222146641C801C42540022F6
:100800002146641C425422466946002002F0F0FA58
:10081000684601882FA000F008FE7D20C00000F08F
:10082000E3FC00BF102000F073FC002821D11D2143
:10083000684601800024A1222146641C801C425489
:1008400001222146641C42542146641C4254214624
:10085000641C425422466946002002F0C9FA6846E8
:10086000018826A000F0E1FD7D20C00000F0BCFC66
:1008700000BFF8E550EA000062980010554152545C
:10088000204D4153544552204F54412053746172BE
:10089000740D0A000E000020636F6E6E6563742095
:1008A000746F20736C6176650D0A000000000020F3
:1008B0007363616E20726573746172740D0A000057
:1008C0006174745F6D635F726561647265713A250E
:1008D000780D0A006174745F6D635F777269746587
:1008E00072657120746F20656E61626C65206E6F39
:1008F000746966793A25780D0A0000006174745FA6
:100900006D635F77726974657265713A25780D0A57
:100910000000000070B504460D460721002000F0DD
:1009200073FC0721012000F06FFC19200121814098
:100930005F4A116000BF5F4840680078000900010D
:100940002907090F08435B494968087059484068FE
:10095000007880218843E1018022114008435549F5
:1009600049680870534840680078402188435149DD
:10097000496808704F484068C0781021884310309B
:100980004C494968C8704B484068807808218843C2
:100990000830484949688870192001218140444A3B
:1009A000803A116000BF70BD30B50B46002100BF1A
:1009B0008400404D2C59247954544C1CE1B28400DD
:1009C0002C59E478E407E40F002CF1D0197030BD05
:1009D00070B591B0374840680578302068400646C9
:1009E0003448406806701020284000284AD06A46E3
:1009F00010A90120FFF7D8FF2F488078002822D1C6
:100A0000684600782C4908700020487000240AE0ED
:100A100069460A5D28494878411C274B5970D91C02
:100A20000A54601CC4B210A800788442F0DB012094
:100A300021498870084640780978884221D10220EF
:100A40001D4988701DE01C488078012819D10024B8
:100A50000AE069460A5D18494878411C164B5970EE
:100A6000D91C0A54601CC4B210A800788442F0DB80
:100A70001148407810490978884202D102200E4975
:100A8000887000BF11B070BD70B505460C46601C83
:100A90000A490870224629460848401C07F062FDB2
:100AA000601CC2B20549012000F097FC70BD000037
:100AB00080E100E010000020D8010020DB020020CF
:100AC00038B504460D46002000900E21684601709E
:100AD000022141708470C5700421FFF7D5FF38BD35
:100AE00010B5002400F06BFE044621461620FFF7E7
:100AF000E7FF10BD70B5044600BF204607F077FD44
:100B0000064660792279000210430146A21D304654
:100B100000F01AFF054629461720FFF7D1FF70BDE8
:100B200070B5044600BF204607F061FD0646314619
:100B3000D5A000F07AFC60792279000210430146CA
:100B4000D7A000F072FC204607F051FD0646607900
:100B5000217900020843034632460021084600F08E
:100B6000F5FE054629461820FFF7AAFF012D09D1F9
:100B7000D3A000F05AFCFF202D3000F035FB00F030
:100B8000EEFC02E0D7A000F050FC70BD70B504464A
:100B90000E4625462878162804D017280BD018288A
:100BA0001DD112E0D4A000F040FCFFF799FF012016
:100BB000D549087013E0D5A000F037FCA81CFFF75A
:100BC00099FF0220D049087009E0D6A000F02DFC62
:100BD000A81CFFF7A5FF0320CB49087000BF00BF8A
:100BE00070BD00B5A3B0882101A807F0D4FC162180
:100BF00068460171022141710121C1804079801C48
:100C0000C1B201A8FFF740FF23B000BD10B5A2B0EC
:100C10008821684607F0BFFC1821684601708621CC
:100C20004170C64807F0E3FC044600A9023107F012
:100C3000E8FCC248001D07F0DAFC81B26846C180BA
:100C40004078801CC1B26846FFF71EFF22B010BD7D
:100C500070B5A2B08821684607F09DFC802417205B
:100C600069460870B548103007F0C1FC0546B34826
:100C70000C3007F0BCFC854261D2B048103007F060
:100C8000B6FCC501AD490831284607F0BAFCAB48AF
:100C9000103007F0ACFC0546A8480C3007F0A7FC64
:100CA000401E854224D1A54807F0A1FC4406640EED
:100CB000A248083007F09BFC054600A9023107F066
:100CC000A0FC6846C4808079801D694648709B48B6
:100CD000143007F08CFC06469848083007F087FC73
:100CE00035186846C288294602A807F03BFC1EE07A
:100CF0009248083007F07BFC054600A9023107F056
:100D000080FC6846C4808079801D694648708B48A5
:100D1000143007F06CFC06468848083007F067FC82
:100D200035186846C288294602A807F01BFC6846A9
:100D30004078801CC1B26846FFF7A6FE0CE07F48F1
:100D4000103007F054FC05467C480C3007F04FFC8F
:100D5000854201D1FFF75AFF22B070BDF8B50646B3
:100D60000C4600250020764908701821734807F0CA
:100D700012FC72491431304607F043FC6F4920469B
:100D800007F03FFC00BF0BE06C48001D07F02FFC94
:100D9000715D47186949091D384607F032FC6D1C22
:100DA000A542F1D3E00965490C3107F02AFC600641
:100DB000400E002809D061480C3007F018FC471C91
:100DC0005E490C31384607F01CFCF8BD10B55C4894
:100DD0000078002804D1FFF704FF0120584908706B
:100DE00010BDF8B505460F462C4620780E2849D18F
:100DF000A078162804D0172815D0182841D12CE047
:100E000050A000F012FBE078012805D153A000F0BB
:100E10000CFBFFF71DFF05E056A000F006FB0220CB
:100E2000474908702DE059A000F0FFFAE07801284A
:100E30000DD15DA000F0F9FA4048103007F0D7FB63
:100E4000461C3E491031304607F0DBFB02E05EA055
:100E500000F0EBFAFFF7FCFE13E062A000F0E5FA09
:100E6000E078012806D167A000F0DFFA03203449BA
:100E7000087005E06BA000F0D8FA02203049087035
:100E800000BF00BFF8BD0000705F636D642D3E734E
:100E90007A2D2D2D2D2D3E3078253038780D0A00F5
:100EA000705F636D642D3E636865636B73756D2D54
:100EB0002D2D2D2D3E3078253038780D0A0000007C
:100EC00055415254204F54412053554343455353A9
:100ED0002C205265736574204D435520696E670D53
:100EE0000A00000055415254204F54412046616988
:100EF0006C65640D0A000000434D445F46575F4532
:100F0000524153450D0A000018000020554152542B
:100F10005F4F54415F434D445F57524954450D0A5A
:100F200000000000554152545F4F54415F434D440F
:100F30005F555047524144450D0A0000DB03002035
:100F400019000020434D445F46575F4552415345C9
:100F50002052455455524E0D0A000000434D445F47
:100F600046575F45524153452073756363657373FC
:100F70000D0A0000434D445F46575F4552415345BB
:100F8000206661696C65640D0A0000005541525489
:100F90005F4F54415F434D445F575249544520527F
:100FA000455455524E0D0A00554152545F4F54411D
:100FB0005F434D445F5752495445207375636365E1
:100FC00073730D0A00000000554152545F4F5441A5
:100FD0005F434D445F5752495445206661696C65D3
:100FE000640D0A00554152545F4F54415F434D44D4
:100FF0005F555047524144452052455455524E0D7D
:101000000A000000554152545F4F54415F434D4424
:101010005F55504752414445207375636365737350
:101020000D0A0000554152545F4F54415F434D44F7
:101030005F55504752414445206661696C65640DB7
:101040000A00000070B502462024144063092025E0
:101050001446AC430125A54028469C005F4D2C5901
:101060002075050A6575050CA575050EE575002B3F
:1010700013D0002908D15A4D6D7D0543ECB2584D6F
:101080006D7D574E747515E0554D6D7D85432C462D
:10109000534D6D7D524E74750CE0002905D1504CB6
:1010A000646804434E4D6C6004E04D4C64688443B6
:1010B0004B4D6C6070BD30B50B4620240440610977
:1010C00020250446AC430125A5402A468C00434D0B
:1010D0002C592276150A6576150CA576150EE5763F
:1010E000002B0AD08C003D4D2C592271150A6571D8
:1010F000150CA571150EE57109E08C00374D2C59C2
:101100002272150A6572150CA572150EE57230BDB6
:1011100030B5014620200840420920240846A0435B
:1011200001248440234690002C4C20584030102449
:1011300004192578284665782D022843A5782D04C2
:101140002843E478240620431840002801D00120D9
:1011500030BD0020FCE770B500243CE0A0001F4932
:1011600008584030142141180A7810464A78120273
:1011700010438A7812041043C97809060843A10075
:10118000164A515820310A461378194653781B02E3
:10119000194393781B041943D2781206114308406F
:1011A0000546002D00D114E00E480068002804D048
:1011B000294620460B4A12689047A0000749085864
:1011C00040300575290A4175290C8175290EC175B4
:1011D00000BF601CC4B2022CC0DB70BD1C0000202C
:1011E0004010005024000020002109E0002201E00E
:1011F000531C9AB27D239B019A42F9DB4B1C99B296
:101200008142F3DB7047000070B5272801DA00281F
:1012100000DA70BD0907090FC407E40F202804DABB
:1012200043100D4E3668F21805E00646203E731056
:10123000094E7668F2181578002C01D00F2600E0D0
:10124000F0263540002C01D00E07310E2E460E43FD
:10125000167000BFDDE700002800002010B52C4804
:101260000068007E40084000401C29490968087653
:1012700028480068002802D026490868804710BD29
:1012800010B523484068007E40084000401C2049BB
:10129000496808761F484068002802D01D49486800
:1012A000804710BD10B51A488068007E4008400095
:1012B000401C17498968087616488068002802D0C3
:1012C00014498868804710BD10B51148C068007E79
:1012D00040084000401C0E49C96808760D48C068A7
:1012E000002802D00B49C868804710BD10B50848D7
:1012F0000069007E40084000401C054909690876E5
:1013000004480069002802D002490869804710BDDE
:1013100030000020F403002070B504460D4607217C
:101320001420FFF771FF07211520FFF76DFF002C38
:1013300007D007211220FFF767FF07211320FFF7CF
:1013400063FF062001218140624A116000BF6248AC
:1013500000680078000900012907090F08435E4969
:10136000096808705C480068007880218843E101C2
:10137000802211400843584909680870564800689F
:10138000007840218843403053490968087052482A
:101390000068C0781021884310304F490968C87030
:1013A0004D48006880780821884308304A49096818
:1013B00088704A48406A40210843484948620846C4
:1013C000006A402108434549086206200121814006
:1013D000404A803A116000BF70BDF0B50B46012451
:1013E0002404002112E000BF85003B4E7559ED78C2
:1013F0002D07ED0F002DF7D1850075596D785E5CD6
:1014000035468600344FBE597570491C9142EADB5F
:1014100000E0641E8500304E7559ED786D07ED0FC4
:10142000002D01D1002CF4D1F0BD0FB438B500244B
:101430000498002803D138BC08BC04B0184705A89C
:1014400000902748009A049907F0D0FBC4B200200E
:101450000090802C00DD8024224621490020FFF7E7
:10146000BCFF00BFE7E7F8B505460E461746002467
:10147000002D02D02846FFF7D8FF00241BE02046AD
:10148000E117490F0918C910C900611A03D1A1B2A7
:1014900014A0FFF7CAFF315D14A0FFF7C6FF601C60
:1014A000C117490F0918C910C900411A02D111A06A
:1014B000FFF7BBFF641CBC42E1DB2046E117490F8C
:1014C0000918C910C900611A02D00AA0FFF7ADFFC0
:1014D000F8BD000080E100E0440000200080022010
:1014E000080400205B253034785D200025303278F8
:1014F000200000000D0A000004488047044800470F
:10150000FEE7FEE7FEE7FEE7FEE7FEE71515001043
:10151000C1000010014802490860704740787D0111
:101520004C00002038B5FC4C2078002804D1FB4941
:101530006846884701202070012038BDF8490A69B3
:10154000D208D2000A61401E486100208861086903
:101550000122104308610869C003FCD57047F148B7
:101560000047F04842380047EE4834380047FEB59F
:1015700000216846017001710D460121EA4E7F206D
:10158000B047E94C0A206946223CA04768460078EB
:101590000109090168460170022001430A20B04791
:1015A00001A90A20A04768460079400704D56D1CB0
:1015B000EDB2FA2DF4D108E0FA2D06D001A90A20E7
:1015C000A047684600794007F8D5684601780A20A8
:1015D000B0470020401C80B2FA28FBD301A90A20A2
:1015E000A04768460079000701D40120FEBD002015
:1015F000FEBD70B505460024FFF7B9FF012818D1DC
:10160000002000F032FAC6480169C908C90001612A
:1016100007214161002181610169012211430161BA
:101620000169C903FCD5002D02D1BE48343880477A
:101630000124204670BD70B5B74800244068254697
:10164000807A4006C60F72B6B648423880470220FC
:1016500000F00BFA641CA4B2FA2CFBD30024304631
:10166000FFF7C7FF002801D0012503E0641CE4B2A6
:10167000032CF4D362B6284670BDAC49084770B558
:10168000AB4C2468E47BA406A40E00280AD0A24D2B
:10169000AD682D78002D05D0052C07D0062C05D07F
:1016A0000F2C03D002F059FC012070BD002070BD4A
:1016B00070B50D460446112140198903164688422B
:1016C00001D3002070BD9B480068213006F08FFFD9
:1016D000994B001932462946984770BDF7B5070562
:1016E00001993F0D002912D0029900290FD08A4993
:1016F000497800290BD101997A18012109038A42FE
:1017000005D8019A112382181B039A4201D900209F
:10171000FEBD0025C41BEFF3108672B68548006835
:10172000213006F064FF611940188449824B4A1940
:101730002021984786F31088012636032035B542CC
:10174000E9DB7E48019AC019029906F00BFF7C493B
:101750000120884700280AD0EFF3108072B66E4946
:1017600001224C804A7080F310880120FEBDEFF307
:10177000108572B66F4F3868213006F038FF0019B7
:10178000704A0121904785F310886E4F0025F63F7F
:10179000EFF3108672B667480068213006F027FF25
:1017A00061194018654900234A192021B84786F37A
:1017B00010880120000320358542E9DBD5E7F8B524
:1017C000002472B65D4A01215B4B0903204698470D
:1017D00062B6584E30680546093006F008FF574992
:1017E0004718E878002811D02846313006F0FFFE6F
:1017F000064628462D3006F0FAFE301A4002060E44
:101800003878504F4B4D002857D073E02846293088
:1018100006F0EDFE06462846253006F0E8FE301AB2
:101820004002060E3878474F424D00280CD026E083
:1018300072B62868293006F0DAFEE1034018082164
:10184000B84762B6641CE4B2B442F1D32D682846AE
:10185000293006F0CCFE06462846253037E072B621
:10186000E203B01819E072B62868253006F0BFFE12
:10187000E10340180821B84762B6641CE4B2B442E0
:10188000F1D328680646293006F0B1FE05463046F9
:10189000253039E072B6E2038018B84762B60120FD
:1018A000F8BD72B62868313006F0A1FEE103401899
:1018B0000821B84762B6641CE4B2B442F1D32D6883
:1018C0002846313006F093FE064628462D3006F0B5
:1018D0008EFE301A4004410FC1D1E0E772B628688D
:1018E0002D3006F084FEE10340180821B84762B6A7
:1018F000641CE4B2B442F1D328680646313006F0E5
:1019000076FE054630462D3006F071FE291A490450
:10191000490FBFD1C3E70000500000209D2C0000FC
:1019200000E000E0AD660000A7290000356400007B
:101930007C000020780000208F1600008804002022
:10194000458500009F180000034B184730B4034C36
:10195000A44630BC604700002D67000061690000AC
:10196000FE498A6802438A607047FC488068704775
:10197000EFF3108172B6F94A9368834381F31088BC
:1019800093607047F5498968884301D0002070470B
:1019900001207047F149C8607047F048007B7047EC
:1019A00010B5EF4C002813D001281FD002280ED10B
:1019B00000217F20A04700210320A04720210420F0
:1019C000A04702217F20A04703210020A04710BD8F
:1019D00000217F20A04700210320A04720210420D0
:1019E000A04702217F20A0470021EEE700217F20B1
:1019F000A0471F210320A04702217F20A0470121EB
:101A00000020A04700217F20A0473F210420DDE7E0
:101A100010B5D2488078052801D0022801D101F004
:101A200049FA10BD38B5CF4C0120A0470021CC4D5C
:101A30007F20A847CA4A3B206946223A9047684619
:101A40000178FB200140684601703B20A847C6484A
:101A50008047FFF7DDFF0020A04738BD10B5C34920
:101A600004468847BD48847010BD99E708B500203A
:101A70006946087001217F2001F027FC02210A201D
:101A800001F023FC69460A2001F00FFC684600784B
:101A90004007F7D500210A2001F017FC69460A200B
:101AA00001F003FC68460078000701D4012008BD5E
:101AB000002008BD08B5AE484A21C1723821017323
:101AC00003210175AA48202160300174622141740C
:101AD000A84950208876A74900204031C876A548FB
:101AE0000A2120300170FF214171252181710021DF
:101AF0007F2001F0EAFB0421002001F0E6FBC02179
:101B0000102001F0E2FB0421162001F0DEFB012190
:101B1000372001F0DAFB0121382001F0D6FB6946BD
:101B2000012001F0C2FB68460178EF2001406846C1
:101B30000170012001F0C9FB01217F2001F0C5FBEC
:101B400053210B2001F0C1FB0121372001F0BDFB27
:101B50000021512001F0B9FB3521522001F0B5FBE5
:101B60000021552001F0B1FB2C215E2001F0ADFBDE
:101B70008A21612001F0A9FB1C21662001F0A5FB50
:101B800002217F2001F0A1FB3F21062001F09DFBF7
:101B90003F21072001F099FBDC21082001F095FB93
:101BA00001217F2001F091FB0A21602001F08DFBD3
:101BB000FFF75CFF08BD08B56D48012101724A219D
:101BC000C172382101730321694A0175C021403275
:101BD00051756749202260310A7462224A740021DB
:101BE000017464490C20087000217F2001F06DFB16
:101BF0004021012001F069FB2021102001F065FB4C
:101C00001021112001F061FB0421132001F05DFB84
:101C1000C0213A2001F059FB01217F2001F055FB42
:101C20000A21542001F051FBD821562001F04DFB30
:101C30005821572001F049FB01215B2001F045FBB1
:101C40002C215C2001F041FB2E215E2001F03DFBA8
:101C50002821602001F039FB8B21612001F035FB48
:101C60000321642001F031FB3F21652001F02DFBB1
:101C70002A21662001F029FB3621732001F025FB83
:101C800002217F2001F021FB5821012001F01DFBE2
:101C90009421082001F019FB01217F2001F015FBA0
:101CA00002210A2001F011FB69460A2001F0FDFA29
:101CB000684600784007F7D502217F2001F005FB38
:101CC0000121002001F001FB08BD10B528484A2180
:101CD000C172382101732649622060314874254859
:101CE0000F2181740121C1747421017599218175BD
:101CF00020498420C031087400217F2001F0E5FADA
:101D00000221002001F0E1FA3021012001F0DDFA8A
:101D10000021042001F0D9FAC021102001F0D5FAE9
:101D20008021132001F0D1FA1421162001F0CDFA00
:101D30000021302001F0C9FA0021372001F0C5FA56
:101D400004213E2001F0C1FA01217F2001F0BDFAFB
:101D50004121182001F0B9FA03210DE05C000020B8
:101D6000A7290000692D0000D9850000ED6300005F
:101D70000000015000010150302001F0A6FA0421BA
:101D8000502001F0A2FA0621532001F09EFA002112
:101D9000552001F09AFA2721622001F096FA1E21BF
:101DA000632001F092FA8821662001F08EFA072163
:101DB0006D2001F08AFA02217F2001F086FA4C2181
:101DC000082001F082FAFFF751FE10BD08B502218C
:101DD0007F2001F07AFA69460A2001F066FA684627
:101DE0000078002804D0D02805D0FFF763FE08BD96
:101DF000FFF76BFF08BDFFF7DEFE08BDF0B5E92178
:101E00008900FF4A414389184A89521C92B24A818B
:101E10008B899A427ED1FB4ACB794C256843146862
:101E2000002B0FD070256B542025022B235A2DD068
:101E3000AB4323520023CB710B4680339D6C10269D
:101E4000B5439D640B7A002B49D00B46C0331E6806
:101E50000D46CE6340351B792B70CF6BAE46EA4EF4
:101E60007D083540BC467F1B3D46E84EBF083540E7
:101E70003740ED192E097519E54E35402E0A7519B2
:101E80002E0C7519AF06BF0E002505E02B43D0E7D9
:101E9000DE0700D06D1C5B08002BF9D1EB196546FD
:101EA0000419A56114680419A58B764636786D0966
:101EB0006D01F606F60E3543A58314680519AC8B43
:101EC0003F2636029B06B4439B0C1C43AC83002385
:101ED0000B720B4680339C6C0825AC439C644B7A98
:101EE000002B39D00D4680350E6AAC7E1B27FE4193
:101EF000640134190526F4410C62A41C2407240F44
:101F00000C770224CC76EB1C5E7E1C461F7E3302CF
:101F10003B4300E020E00B866E1C777F367F3F025C
:101F200037434F86667F277F34023C438C860024EC
:101F3000CC864C7214680419E689F60BF6035B082C
:101F40001E43E681098E126849088018491CC18227
:101F5000A86C04218843A864F0BD00220A80E9220D
:101F600092005043A64A135C022B01D00020704718
:101F7000801840890880012070470622504310B520
:101F8000A04A12688018A34A8018062206F0EAFACE
:101F900010BDE9218900484399494018C18E808EBF
:101FA0000001814201D3012070470020704710B525
:101FB0000446FFF723FFE92080004443904820189F
:101FC000C18E491C89B2C186062901D3012010BDEA
:101FD000002010BDF0B54C2104464C438949002532
:101FE000096887B061184A899206920E00924A8960
:101FF000D204D20E02928F69898B814ACE06E921E2
:1020000089004143515CF60E022901D1FFF7F6FE2B
:10201000029900984018252106F07AFA01200A4614
:10202000202903D201469140394004E01346203B69
:1020300001469940314000290BD0724800682018B1
:102040004189920689098901920E1143418107B0A5
:10205000F0BD03468B403B4201D06D1CEDB2491CE4
:10206000C9B22029F5D3002103468B40334201D069
:102070006D1CEDB2491CC9B20529F5D3294610469D
:1020800006F046FA5F4800682018428989069209DE
:102090009201890E0A434281D9E770B5044601F0E6
:1020A000FEFAE92189004C43554961180C6ACD7E3E
:1020B00063015B090A8E012D17D00D462035A87EDD
:1020C000022814D00879022818D0032816D09818AE
:1020D000821C1207120F0A77E20ED2064001400955
:1020E000024302200A62C87670BD801CF0E7486A8D
:1020F0004001400980180322AA76F6E7088DC0182F
:10210000E6E738B5054600246946204603F0FFF9A6
:10211000012805D0641CE4B2102CF5D3002038BD92
:10212000684600782870012038BD3B4940000968A6
:10213000085A800401D40120704700207047002015
:102140002F4A0146E9239B004B439B181B79012B27
:1021500001D1401CC0B2491CC9B20329F2D3704757
:1021600000B5FFF7ECFF012000BDE92292005043CB
:10217000234A8018403042785118202900D9202164
:102180004170C8B27047E921890048431C491B22AD
:102190004018017FC91C0907090F0177016AD14165
:1021A00005226031D1410162704738B5144D0024D9
:1021B0006946204603F0ABF9012807D1684600784C
:1021C000E92189004843285C012804D0641CE4B25A
:1021D000102CEDD3002038BD38B5094D00246946D8
:1021E000204603F094F9012808D168460078E921D7
:1021F0008900484340190079022814D0641C0DE07E
:1022000088150020A400002055555555333333332D
:102210000F0F0F0F103E00003C830110E4B2102C92
:10222000DDD3002038BD012038BD38B5FB4D00247A
:102230006946204603F06BF9012808D1684600780A
:10224000E9218900484340190079032805D0641C1E
:10225000E4B2102CECD3002038BD012038BDFEB50F
:10226000E9218900ED4C41430E190546615C307F40
:10227000012701290AD03179032907D0022905D085
:102280006846FFF73EFF012869D0B5E0E4490978C8
:10229000FF2901D0A94226D101A903F038F901286C
:1022A00068460DD0FFF72DFF012839D0308C02A9E8
:1022B000401C0007000F03F02AF901283ED144E03A
:1022C0000079E92189004843215C02290CD00019DA
:1022D0000079032801D0022805D1FFF730FF3946E5
:1022E0002846FFF742FFFEBDFFF729FF6846394643
:1022F0000079FFF73AFF68460079FFF76BFE307F01
:10230000294603F013F9C648457005703079032853
:1023100001D00228E7D12846FFF735FF284655E0CF
:1023200068460078E92189004843011909790329A1
:102330000BD0022909D0205C022806D0307F294624
:1023400003F0F4F8B64805705BE0FFF7F8FE394695
:102350002846FFF70AFF2846FFF715FFFEBDFFF7E7
:1023600024FF01281AD068460078E92189004843F3
:1023700000190179032911D002290FD0403041788A
:102380004120805D814224D9FFF7D9FE3946284695
:10239000FFF7EBFE2846FFF71DFEFEBDFFF7CFFE61
:1023A00039462846FFF7E1FE2846FFF713FE684648
:1023B0000078E9218900414309190979032901D0ED
:1023C0000229EAD1FFF7DFFE68460078FFF765FED5
:1023D000FEBDFFF7B4FE684639460078FFF7C5FE3C
:1023E00068460078FFF7A1FE00280CD08C484078A2
:1023F000FF2801D0FFF7EEFD307F294603F096F865
:1024000087484570FEBD68460078F3E7F8B501F0EF
:1024100046F9834D814F00246860E92080006043C5
:10242000C619F07E002816D0306A01224101686882
:102430004909431A920593420DD8814202D12046A0
:10244000FFF70DFF306A696840014009884202D2F7
:102450002046FFF722FE641CE4B2032CDDD3FF20EC
:102460006870F8BD6F4A002112684B00D35A9B0B6D
:10247000012B0CD0491CC9B21029F6D30020410011
:10248000515A401CC0B21028F9D300207047017087
:1024900001207047E92170B58900604A41438A18DC
:1024A0003B21895C012919D1EFF3108372B61146E3
:1024B0008031158E8C6D641983F310888C6501232F
:1024C000CA6D5B0294420AD3EFF3108072B6002209
:1024D0008A658A6C9A4380F310888A6470BD0A26E4
:1024E0007543521BA242F9D88C6CA205F6D4EFF3C7
:1024F000108272B61C4382F310888C64012102F0B2
:102500002FFA70BDF0B587B004A8FFF7ABFF002825
:1025100071D0684601A9007C02F0F9FF00282ED096
:1025200068464049007C09684000085A3E4EC00495
:10253000C00C85192888394CC006C00E022875D0F9
:10254000082804D0092802D00F2818D118E06846BE
:102550000021007901F0FBFB288A01218004800C16
:1025600089030AE0801902885204520C0280028812
:102570008A43028000888004800C0028F2D1EBE0BE
:10258000688A8004800C8719B888E9224006C10F48
:1025900068460079920050430019E12211543946EF
:1025A00006220831E23005F0DDFF00202C464034E1
:1025B00008E039884904490C398039888904890C34
:1025C0008F19401C6189090A8142F2DC288A85043E
:1025D000AD0C0CD035430AD02888C00B07D0684614
:1025E000007902F047FE68460079FFF756FD0020AB
:1025F000012189030CE0B3E02A885204520C2A809E
:102600002A888A432A802A889204920C9519401CB1
:102610006289D2B28242EFDC9EE007E0881500209A
:102620005C0000203C83011000001050684602212D
:10263000007901F073FA014668460079E9229200B8
:10264000424312194032D175012101F080FB01464D
:1026500068460079E9220646920050430519562241
:102660000027515500291BD0EF86215C01294DD14F
:1026700002212154F949FF200870294602A80E3191
:102680000622013005F06EFFA87E6946087202A896
:102690000090072304220021304604F0D7FC35E0E7
:1026A000205C022802D0012823D055E0E88E298E34
:1026B0004018E8863046FFF76CFC002826D06846B4
:1026C0000079E9218900414309198031896CC722C9
:1026D0009200914301D0222100E0082102F0C0FBCA
:1026E00068460079E92189004843001980308764F1
:1026F0000CE03046FFF75BFC002807D068463E211F
:10270000007902F0ADFBD549FF20087068460079DA
:10271000E92189004143625C022A1DD10C1957212D
:10272000095DC034227B012A0AD1002908D0EFF3C9
:10273000108572B6E17C02F093FB277385F3108855
:102740006846007900F0F1FB68460079FFF7A2FEC9
:1027500068460079FFF752FB6846007C02F00CFFE8
:1027600075E430B589B005A8FFF77CFE002845D098
:10277000684603A9007D02F0CAFE00283ED0B84D8D
:1027800000206C4641004A199389635492890919C3
:10279000120A401CC0B24A700328F3D3207BE921FF
:1027A00089004843AF4910224118FF31AE48133128
:1027B00005F0D8FEAA498039886BFF2212029043A7
:1027C000FF300130886307AB6A46E11CA64800F081
:1027D00002FF01280ED16846007B06214843A34929
:1027E000062209684018F921890140189C490C31DA
:1027F00005F0B8FE286801210843286009B030BD03
:1028000010B59B4CA06B0102C200891809181E224A
:10281000490A50430818974905F07AFE2722120109
:10282000521A934940314B684001DB0EDB064009E8
:1028300003434B6008689205800A8002920D1043A2
:102840000860206B08210843206310BD10B5002AE2
:1028500004D00223D2B201F0F4F910BD0123F9E74C
:10286000F0B5054640888DB0002843D0824E092738
:10287000841920884004400C20806088384234D17C
:10288000A0880107090F68460171E18808A8017353
:10289000A08806224006C10F6846417121460831D2
:1028A000801D05F05FFEA0888004800E801F202818
:1028B00001DD202003E0A0888004800E801F69468F
:1028C0000873002801DA002008730C228A5621467A
:1028D00003A80E31013005F045FE01A80090A87A4A
:1028E00029230222002104F0B1FB20888004800CFF
:1028F000BED101200DB0F0BDF0B5458889B00446C9
:10290000002D0AD0A17AE9208000414355480818DB
:102910008030806C00060AD511E0002009B0F0BDBF
:1029200069460B7EA07A554A097802F0BDF8A07A74
:102930006B4606AA514900F079FF0028F0D14E4EAF
:102940004A4F04A80090A07A4C2148433968AD1939
:10295000401805AB03AA294600F0C6FC00287CD02D
:1029600068468189002978D0A8888007800F009068
:10297000012805D002280ED0414800224280018063
:10298000A07AE92189004843364940183B21095C77
:10299000012915D020E0A07AE9218900314A41437C
:1029A00089188031896CC90503D53D2102F058FA98
:1029B000E6E73349002048802889001D0880DFE7CA
:1029C00069468989002907D0EFF3108172B6002289
:1029D000803081F3108882652948018800295ED003
:1029E000694640888A898018FA280CD224482946EA
:1029F0000831001D05F0B6FD2148694640888989E7
:102A000040181F4948801E4841880388994246D192
:102A1000A07AE921890002464A431249895C0029CB
:102A200044D0104951188031896CCA0506D5009AE6
:102A3000032A03D03D2102F013FA37E0090635D509
:102A40000099032922D10E49097906292ED019DCD3
:102A500004292BD0052919D128E020E05C000020B2
:102A6000000111508815002074210020A4000020CE
:102A70000000115071020000000010508814002066
:102A8000742000200D2911D011290FD0DAB2F84995
:102A9000009B00F0A6FEF6490020091F0880288848
:102AA0008504AD0C00D04CE7012037E7F04AA07A4E
:102AB000121F1378121D009901F0F6FFEBE7F8B52D
:102AC000C188054600290CD0EA4E8C196088000A9E
:102AD00017D02088C00B14D06088C043800702D074
:102AE0000FE00020F8BDFF200330005D022808D170
:102AF000EFF3108772B6A87A162102F0B1F987F3C6
:102B00001088608880088000401C60802088400415
:102B1000400C208020888104890CD6D10120F8BD8A
:102B2000F0B585B00025EFF3108672B601F000FA1B
:102B3000040086F310881DD02078002804D00128D6
:102B400006D0022813D127E02046FFF789FE02E0D5
:102B50002046FFF7D1FE002809D0EFF3108672B6A9
:102B6000A2886188A07A01F094F986F31088204643
:102B700006F0D0FCC04E1D277F01E920800068438D
:102B80008019C4196178012914D0022926D003299B
:102B90002ED0042949D142E02046FFF790FF0028BB
:102BA000E5D0EFF3108672B62289E188A07A00F0B2
:102BB000D9FEDAE7A078002837D1B04869464870D6
:102BC000000A88700020C87008710920087000236E
:102BD0006A460121284601F0E8FD07E0A0780028B8
:102BE00023D1A74A0121284601F061FE617819E04E
:102BF000A078002819D1012168460180891E4180F2
:102C000000210171282141719D489E4914380161BC
:102C100006236A460121284602F0D0FEE6E7A078A6
:102C2000002802D1284604F087FA6D1CEDB2032D6E
:102C3000A3D3934814388468002C11D0600702D5C0
:102C40000420FEF795FEE00505D5FFF78AFDFF207D
:102C50000130FEF78DFE200702D50820FEF788FE22
:102C600005B0F0BD10B5FFF7B1F88748804700F018
:102C7000A3FB02F0B7FC012010BD8448417849084D
:102C800049004170012070471CB5C27981790192D9
:102C900000918278417813020B430279C1781202C5
:102CA0000A430178407902F024F81CBD10B502F007
:102CB000B9F810BD10B502F0CBF810BDE9229200B2
:102CC00050436D4A10B58018714A8018082205F0EB
:102CD00049FC10BD10B502F017F910BD10B502F097
:102CE000A1F810BD10B502F0E2FC10BD10B5012135
:102CF00004F015FA10BDE922920050435E4A801894
:102D000003221202801841667047E92210B5920032
:102D1000594B42439A5C022A01D0002010BD0A465A
:102D2000012102F031FE012010BDE92210B5920010
:102D3000514B42439A5C022A01D0002010BD0A4642
:102D4000012103F0AAFB012010BD10B5E9239B006F
:102D5000494C4343E35C022B01D0002010BD1346D5
:102D60000A46012103F03CFE012010BD10B5E92305
:102D70009B00414C4343E35C022B01D0002010BD7B
:102D800013460A46012103F06AF9012010BDE92229
:102D900010B59200384B42439A5C022A01D00020C1
:102DA00010BD0A46012103F042FA012010BDE922BC
:102DB00010B59200304B42439A5C022A01D00020A9
:102DC00010BD0A46012103F0E1FA012010BD10B543
:102DD000E9239B00284C4343E35C022B01D00020F5
:102DE00010BD13460A46012102F0E8FD012010BD86
:102DF00010B5E9239B00204C4343E35C022B01D038
:102E0000002010BD13460A46012103F079FB012082
:102E100010BD10B5E9239B00174C4343E35C022B24
:102E200001D0002010BD03F05CFC012010BD10B5E6
:102E3000E9239B00104C4343E35C022B01D00020AC
:102E400010BD13460A46012103F0EFFC012010BD1E
:102E5000E92210B59200084B42439A5C022A01D045
:102E6000002010BD0A46012103F095FD012010BD90
:102E70007820002000001050881500203A0900003A
:102E80007000002074220020DF5600000010005067
:102E900051030000E92210B59200354B42439A5C81
:102EA000022A01D00020E2E70A46012103F0E3FDF7
:102EB0000120DCE7F8B500212E4C7F20A0472D4DE6
:102EC0003E206946223DA847684600786946860646
:102ED000B60E3D20A8476846007881098901314334
:102EE0003D20A04769463F20A847684600788006F5
:102EF000800E0D2802D90D38C6B200E000266946C2
:102F00003C20A847684600788109890131433C206C
:102F1000A04769463B20A847684601780420014342
:102F2000684601703B20A047F8BD70B5E9218900D3
:102F30000F4A414389180C468034C726A26CB6005C
:102F4000B24314D0EFF3108572B6098E626D51183A
:102F50007D2252026165914207D3222101F080FF58
:102F6000A06C3040A0640020606585F3108870BDBF
:102F700088150020A7290000017070470180704764
:102F8000016070470078704700887047006870479C
:102F90000122920780180170704701229207801861
:102FA000007808707047F94A801801707047F74A36
:102FB000801800780870704770B514460D460646B4
:102FC000002305E0E95C3046FFF7EDFF5B1CDBB258
:102FD000A342F7D370BD70B514460D4606460023D4
:102FE00005E029463046FFF7E2FF5B1CDBB2A34257
:102FF000F7D370BDE64A8018007808707047E44A3D
:10300000801801707047F7B5E24C88B02168074618
:103010000D46A03110220E46684605F0A3FA294657
:103020001022B03104A805F09DFA1022394630462E
:1030300005F098FA206810220999B03005F092FA4C
:10304000216808464030027D01231A430275027D43
:10305000D207FCD11022B0310A9805F083FA20681B
:1030600010226946A03005F07DFA2068102204A9DC
:10307000B03005F077FA0BB0F0BDF7B58446C6481E
:103080008188827912041143890CC44A8904891801
:103090008180090C81718179802211438171C1790C
:1030A0000421C1718189490A49028181FF250023D8
:1030B0000720012400221F21C91A6646765C811A66
:1030C00027468F403E4206D0B3488189490A4902CB
:1030D0002943818109E06D1E521CD2B2EDB2082A4B
:1030E000EDD35B1CDBB2202BE4D3AB48202261463E
:1030F000103005F037FAA8482022A949303005F0F1
:1031000031FAA749A44820222031503005F02AFA8C
:10311000A14D6878204368709F4E8036707CC00750
:10312000FCD06878400840006870707C2043707460
:10313000994F202270373946019805F013FA6878C4
:10314000022108436870707CC007FCD06878FD21BC
:1031500008406870707C20437074202239460298C1
:1031600005F000FAFEBDFFB584468B4881B081882A
:103170008279120411438A0C212192040903511807
:103180008180090C81718179802211438171C1791B
:103190000421C1718189490A49028181FF250023E7
:1031A0000720012400221F21C91A6646765C811A75
:1031B00027468F403E4206D077488189490A490216
:1031C0002943818109E06D1E521CD2B2EDB2082A5A
:1031D000EDD35B1CDBB2202BE4D36F482022614689
:1031E000103005F0BFF96C4820223030029905F00C
:1031F000B9F9694820225030039905F0B3F96648BF
:10320000417821434170644980314A7CD207FCD027
:103210004278520852004270487C204348745E490C
:1032200020227031049805F09DF905B0F0BD70B50D
:103230005C4C0646A0881D46A3791B041843800CED
:10324000594B8004C018A080000CA071A079802385
:103250001843A071E0790420E07120899305800A69
:1032600080029B0D18432081504805F07BF94D48A2
:1032700010223146103005F075F94A4920310A7C98
:10328000012002430A746278024362704A7CD207CA
:10329000FCD00A7C520852000A744A7C02434A74E9
:1032A0001022284605F05EF970BD10B5404A9378AB
:1032B000012423439370137810701079087090786C
:1032C000C007FCD01079087010BD10B5384A93784B
:1032D00001242343937013781070507851709078C4
:1032E000C007FCD010BD704730B5039C0025257089
:1032F000304C21420AD04C88640609D04888C00965
:10330000C001488008884004400C0880002030BD7F
:103310000088400609D58888C004C00E042804D35C
:103320008888C004C00E001F02E08888C004C00E58
:10333000108088880007000F187008884004400C2F
:103340000880012030BD10B54288120A01D000204B
:1033500010BD42880B78D2B21B021A4342804288C9
:103360004B78920892009B079B0F1A434280428839
:1033700010239A438B78DB07DB0E1A4342800A78CE
:10338000001DC91C05F0EEF8012010BD0000015021
:10339000000101507C0000200090025000E102007A
:1033A000DC820110009102501000020074320020F3
:1033B00000020150FFFFEFAFF8B50026EC4DDE270D
:1033C000E920800070434419E9218900204605F076
:1033D000E2F8A773FA20E073FE202074CA2060741C
:1033E000A074E7740020A076304600F0F2F9761C55
:1033F000F6B2032EE4D3DF48417801221143417035
:10340000DD48016852061143016001688901FCD45E
:1034100001680122D2071143016001680029FCDB29
:10342000C168FF2401342143C160D44A5168FF239D
:1034300019435160D04980310B681B0A1B026E335F
:103440000B600B680F26360233430B600E68FF23B8
:103450001B0419279E43BF04F6190E600668F02767
:103460003E4306600668264306600E687F242406F5
:10347000A6437F05F6190E605669360A360269368C
:10348000566156697F143E43566156699E4319231F
:103490009B04F31853615369A343192424061B1991
:1034A0005361026801239B021A430260B24AEB890E
:1034B000203293802B8AD3806B8A13815389AC7E10
:1034C0005B085B00E407E40F23435381C268AC4B05
:1034D0001A43C2600A6907231A430A61016801227C
:1034E000120311430160A34A0221A032117701683F
:1034F000012252059143016001685210914301601D
:10350000A04910020860F8BD9F480068417A89060A
:10351000FCD470479C4800682030C17810221143C9
:10352000C1707047984800682030C178EF22114080
:10353000C170704794480068C078C007C00F7047DA
:10354000012000E000BF401EFCD2704700B54208D9
:10355000521C01E0FFF7F4FF521EFBD200BD10B574
:10356000894C246862756074A174080AE074207C38
:10357000F32108409907090F08432074207C022199
:1035800008432074207C012108432074FDE670B5B7
:103590007D4C5026246872252E5562756074A17486
:1035A000080AE074207CF32108409907090F0843BA
:1035B0002074207C022108432074207C4021084391
:1035C0002074207A00090001801C2072A078DF217D
:1035D0000840A07070BD70B56C4C1546A388A279E8
:1035E0008003120413439A0C9204800B0243A280BE
:1035F000100CA071A07980221043A071E079042002
:10360000E071207A40094001103020725F480322A7
:10361000103004F0A7FF5D4803222946133004F060
:10362000A1FF5A482030027C01210A4302746278CB
:103630000A436270427CD207FCD062785208520082
:103640006270027C520852000274427C0A43427447
:103650000078C00900D0012070BD4B480068017897
:103660000122114301707047474800684030407D97
:10367000704738B5044640790B4640060BD56A467C
:10368000E11C184603F07EFD03222146684604F043
:10369000A1FF002801D0002038BD012038BD3648E8
:1036A000C06940014009704700B5334901224869AB
:1036B000C007FCD08A61FFF7F2FF0007F7D100BD19
:1036C0007CB52D484469002C51D08461E00701D0BD
:1036D000FEF79CFEE0051BD5284D2B480C3506CD8A
:1036E0008260416025480168012211430160284839
:1036F000083D007D00280BD0254923480D39001DC9
:10370000FFF7B7FF002803D00121284601F0CFFFC3
:10371000A0061CD56846FEF7A5FE012804D1684620
:1037200001A9007801F0F3FE00206946194D0870E8
:1037300008782A684100515AC90401D001F01CFFE1
:1037400069460878401CC0B208701028F0D3A00762
:1037500002D50220FEF704F9200704D5FEF7D2FEB9
:103760000820FEF7FDF8600701D5FFF749F87CBD9A
:103770008815002000100050000011500001115069
:103780000000FFFF00E100E07C00002000920250FA
:10379000081900203C83011010B544003A48142158
:1037A000005F401C04F0CAFE3748801D005F814264
:1037B00001D1012010BD002010BD3349324A400024
:1037C000095E921D105E814201D1012070470020E8
:1037D00070472D4A00214000921D1152921F115234
:1037E0007047FFB581B01D4616460446FFF7D4FF6B
:1037F000002802D0002005B0F0BD244824496043D1
:10380000214F40186400395F32460B02591A465462
:1038100040184570801C029904F0A4FE385F142102
:10382000401C04F08BFE39530120E4E7F8B516463E
:103830008C460446FFF7C1FF002801D00020F8BDE8
:103840001248114D60436400AD1D11492A5F4018B4
:103850001702B91A415C3170295F0A02511A4118E6
:1038600049781970295F0A02511A41183278604666
:10387000891C04F077FE285F1421401C04F05EFED2
:1038800029530120F8BD000088000020EC1300003F
:1038900084320020E921F0B58900FF4A41438918AC
:1038A00000224031CA808A804A80CA814A810A81C6
:1038B0004C2203465343F94A14681B191C8AA40B73
:1038C000A4031C82F64BF64D58431368203DC318E1
:1038D0001C46E4340C815D194D818C810F24CC8110
:1038E000C033D98C1027B943D98401211368C41877
:1038F000FF2305334B43E4182546403D2E8CE4342A
:10390000B60BB603A404A40C26432E841468041931
:10391000E418C034E58CBD43E58414680419E41848
:10392000C034A58C6D046D0CA58414680419E418CA
:10393000C034A58C0126B603B543A58414680419C8
:10394000E418C034E58CEDB2E58414680419E3187A
:10395000C033DC8CA408A400641CDC84491C0F293F
:10396000C4DBF0BDF0B5E924A4006043CA4CCD4DE2
:1039700000194B190024002930D0002A2ED01E88AF
:103980000127BF03BE431E805E88F6B25E805E885C
:10399000B608B600761C5E805E881027BE435E8047
:1039A0001B889B049B0C5B19641C1E04E4B2360C40
:1039B000E5D1034640335E89002E10D0701905888A
:1039C0008E04AD0BAD03B60C354305805A81D88902
:1039D0000019D8819889002800D19981F0BD403024
:1039E000018142818181C481F0BDF0B5E924A40048
:1039F0006043A94C00260019002906D040300489F4
:103A0000002C02D0C5898D4201D20020F0BDA54D09
:103A100064191480C289521AC2818789A2B2BA423B
:103A200000D10126012900D11A80491E2288C9B27D
:103A30009204920C54190029EFD104811988491974
:103A40000A88920B92030A80002E01D0018981819D
:103A50000120F0BD7CB50546E92080008E49684311
:103A600044184034E088002808D0A288618828469D
:103A7000FFF778FF0020A0806080E080217C01AB10
:103A80006A462846FFF7B1FF002846D0E088854AFD
:103A9000002823D0A088801801886B461B88890BDA
:103AA00089039B049B0C1943018068468088A08091
:103AB000208AE0804C204543784800682818018A15
:103AC0006388890B89039B049B0C194301826088DE
:103AD000A1888018891810239C0211E0684600888C
:103AE0006080E2E745889D43458005886D046D0C44
:103AF00005800588A543058000888004800C801817
:103B00008842EFD148889843488008884004400C98
:103B100008800888A043088001207CBDF3B583B0ED
:103B200003984C2148435D49029009684018403091
:103B30004089E921C6B20398890048435649441890
:103B4000002E7BD04034618856480F18E088B04280
:103B500005D10020E080A18852480D1816E001210F
:103B60003D46721E4F4804E02B889B049B0C1D1899
:103B7000491C9142F8DB28888004800C60802888EA
:103B8000800B80032880E088801BE080102005F0F7
:103B9000EBFC00283BD00499017003998172C78027
:103BA00005810021C16000F0B3F9207CA17901AB4F
:103BB000401AC1B26A460398FFF717FF00283DD0AC
:103BC000E088002829D0A1883648081801886A466C
:103BD0001288890B89039204920C11430180684674
:103BE0008088A080208AE0802C480299006808180C
:103BF000018A6288890B89039204920C1143018225
:103C000061882848A28809181218102311E0AAB266
:103C1000B9B20398FFF7A6FEC7E768460088608040
:103C2000DDE70BE04C889C434C8009888904890CB3
:103C300009189142F6D1508898435080304605B01B
:103C4000F0BDFFB50746E92080001349784381B0F5
:103C500040180299154600292BD0403000908089E9
:103C6000002826D0EFF3108672B60E494418201DA6
:103C7000029904F077FC6088049980088000890725
:103C8000890F08436080002D15D04C20474303481E
:103C90000068C05B000607E088150020A400002033
:103CA0003C0F00000000105005D560882D1DC0B2EB
:103CB00003E00020C3E76088C0B2290208436080A7
:103CC0000498032804D102980178FF20033001559D
:103CD000208881040098890C818186F31088012056
:103CE000ADE7F0B5A5217F4AC900414314680B46F2
:103CF0000D197D497D4F6E18E92189004143C9198D
:103D000040314E827A4EAD198D824C2568430019A0
:103D1000448A498AA40BA4038904890C0C43448275
:103D20000120714C5B25ED0111685E18FF210931FE
:103D3000414371184E19378A0919BF0BBF03890413
:103D4000890C0F433782401C0528EDDBF0BDF3B52D
:103D50008BB00B984C214843624903900968401886
:103D600040304089E922060A0B98920050435F4A8E
:103D70001224851807954035688A01902C5F5D48AC
:103D800004430398085A4006C00F0890002004908E
:103D9000002E01D0002752E000200DB0F0BD618858
:103DA000687E0140490638D0618801404806618834
:103DB000400EC909C901014361800499491C04915D
:103DC000010704D50799079AC96D491CD1654106B9
:103DD00004D50799079A096E491C1166810604D516
:103DE0000799079A496E491C5166410704D50799FE
:103DF000079A896E491C9166C10704D00799079AF2
:103E0000C96E491CD166089900290FD0C0060DD58E
:103E10003D210B9801F024F808E00C98012805D109
:103E20006088400602D1A0888007F1D0701E8742CA
:103E300004D0208881042F48890C0C187F1CB742BD
:103E4000ADDB102005F090FB0028A6D02188890466
:103E5000890C69822349039A096851184A8A6B8A36
:103E6000920B92039B049B0C1A434A822188890B74
:103E7000890321800C9901700B998172019941800D
:103E800084800021C16000F043F80498301AC0B269
:103E900083E710B5002915D0E9239B00134C434359
:103EA0001B1940335C8A12B2002C0CD01420185E0F
:103EB000104C204304888904A40BA403890C0C43F0
:103EC00004809A8210BD59824C21484305490968F3
:103ED0004018418A5C8A890B8903A404A40C2143FD
:103EE0004182EEE7A4000020982E000088150020F3
:103EF000B83200000000105010B5124C03E0C16849
:103F0000216005F007FB20680028F8D1606010BD33
:103F100000280CD00B490A68002A02D04A68D060F9
:103F200000E00860486049680020C86001207047D0
:103F300004490868002804D0C2680A60002A00D139
:103F40004A60704794000020644800684078032865
:103F500001D80120704700207047FFB50E460021B0
:103F60008C465E4981B009681D464978032900D90D
:103F7000FEE7062871D25A494A785A4B5207D20FA7
:103F800012010978D2188906890F890051588E4686
:103F9000EFF31081009172B62A06514C042160346F
:103FA000002A07DB277E2A46FB233D461A400D40A8
:103FB00015432576F20703D0A27E02231A43A27688
:103FC000B20703D5A27E01231A43A276444A803267
:103FD000F30702D09378DB09FAD0B20704D5404A40
:103FE000803292789206F8D5002814D0012812D099
:103FF000022821D003281FD0E27E01231A43E27653
:10400000E27EFD231A40E276374A13690B431361BF
:1040100004281FD01AE0344A13698B431361A27E2F
:10402000002801D0F72313E008231A43A276039A4D
:104030000023002A18D111E0E27E52085200E276F5
:10404000294A13690B431361022803D0A27EFB2384
:104050001A40EBE7A27E0A43E8E73DE0234AD27A22
:10406000002A12D0002810D0012084462048720770
:1040700005D50169C908C9000161092103E0026988
:10408000D208D2000261416183617007C20F6146AC
:10409000704604F085FDB00703D5A07E40084000BF
:1040A000A076F0070BD0A07EFD210840A0760C483A
:1040B000803001E0F10702D08178C909FAD10848BF
:1040C0008030B10702D581788906FAD4280600D459
:1040D0002776009880F3108805B0F0BD9C00002082
:1040E000001000501C83011000ED00E000AA022027
:1040F00000E000E0E92189004843FE4910B540187E
:10410000018E1920400104F003FA082800D208208B
:1041100080B210BD10B51C46032801D9002010BD87
:104120000B462146FFF78DFD0028F8D0012010BD79
:10413000FFB50D46E9218900EE4A87B041438C184E
:10414000119E691E1F468E4200DDCEB2082E00D998
:104150000826002269460A704E70129A4A808D80A5
:10416000099ACA800F81109A4A816B460C2203215A
:10417000FFF7D0FFEFF3108072B6214680318A6CD2
:1041800004231A438A64109AA28101226272129A4D
:10419000520092198A76C91C6A000A76120A4A7677
:1041A0008134099A2277120A62770F773A0A4A779E
:1041B00080F310880BB0F0BDF1B58CB0E9210C98FC
:1041C00089004843CB4945182C46A934E078A178AA
:1041D00007020F43607821780002084387420CD918
:1041E000217A0E1E09D08019401E04F0A7F97043F1
:1041F000874202DB2070000A60700C98FFF77AFF9C
:1042000069896A8E8918401887B2601C0890A17A63
:10421000627A08021043E9220C9992005143B54A90
:104220008E18AC36002854D0717A327A09021143C4
:10423000B14A0A9191424CD0617822780902114327
:1042400006910291491E082901DD082101E0029929
:10425000491EC9B20191B84201D2381A00E0C01B10
:10426000298E49084843298E490804F051F90298DB
:10427000411A0A980818069904F04AF901988142EF
:1042800000D901463172090A71720121089801733F
:10429000090A4173707A317A000208430899C0B262
:1042A0004A7B0B7B11021943C9B20097019102901E
:1042B000E079A179030260790B43020221796078E9
:1042C0000A432478010221430C98FFF731FF0DB017
:1042D000F0BD0020307270720221D7E730B587B090
:1042E0000A9C00290BD0112269460A704B708C7011
:1042F00003226B461146FFF70DFF07B030BDE921E1
:104300007C4B890041431478C9188031032C12D0AA
:104310000F2CF2D1EFF3108372B640258C6CAC43B6
:104320008C64002483F310884C6551781A29E4D1F9
:10433000FFF742FFE1E7EFF3108072B6FF238A6CCC
:1043400081339A4380F310888A64D6E738B50546EE
:10435000E9208000674B6843C3180020EFF3108406
:1043600072B680339B6C0B4201D0232004E0C7213E
:1043700089000B4208D02A20134600900022012118
:104380002846FFF7ABFF012084F3108838BD10B535
:10439000E923584C9B0043431C1986B0002914D0D4
:1043A000022369460B704A706B4602220321FFF715
:1043B000B1FEEFF3108072B68034A16C202211435D
:1043C00080F31088A16406B010BDC034E2740120EF
:1043D0002073F8E7F0B587B00D4604460321684620
:1043E0000170297A4172697A817229461231042258
:1043F0000E46133004F0B6F800A808222946013012
:1044000004F0B0F829460A3102A808220D4603300C
:1044100004F0A8F8E9208000364960434718384680
:10442000FF302C300822294604F09CF83846FF3033
:1044300024300422314604F095F86B4617220321FC
:104440002046FFF767FEEFF3108172B638468030E2
:10445000826C80231A438264002281F310884265B3
:1044600007B0F0BDF3B54C210546244F4D433968E4
:1044700081B06E18E921890048431E49082244187A
:104480002046FF3034302036029904F06BF8204685
:104490000299FF3028300422083104F063F83868AC
:1044A0002146FF31281824310822303004F05AF810
:1044B0002146FF3120462C317C30324602F0EDFEA1
:1044C000002010231A1A9219203A315CD57F3554F6
:1044D000401CC0B2D1770828F4D3EFF3108072B635
:1044E0008034FF22A16C0132114380F31088A16453
:1044F000FEBD000088150020FFFF0000A400002082
:1045000010B586B00446062069460870012211469F
:10451000204600F0B8FC6B46012203212046FFF73D
:10452000F9FD50E700B587B00A216A4611706B4665
:1045300001220321FFF7EEFD07B000BD10B586B0E4
:1045400018246B461C7059709970DA70110A197131
:1045500005220321FFF7DEFD35E7890703D5800734
:1045600001D50220704701207047F7B586B0E924D5
:104570000698F74BA4006043C418254610278035E1
:1045800000290DD0162168460170117841705178CC
:10459000817003226B4611460698FFF7BBFD16E0BB
:1045A00051781078FFF7D9FF06467020005DB042C1
:1045B00010D0A28931460698FFF7C0FF0698FFF792
:1045C00099FD6189628E89184018A081E671A86CF6
:1045D000384301E0A86CB843A86409B0F0BDF3B556
:1045E0000646E9208000DA497043441887B0304617
:1045F000FFF780FD6189628E01278918401885B216
:1046000068460770C5800522401C089903F0AAFF80
:1046100020460522C030089903F0A4FF6B4608220B
:1046200003213046FFF776FD0028F7D0A5812772D9
:104630008034A06C08210843A064CEE730B587B071
:10464000002909D00D2269460A704B706B46022280
:104650000321FFF75FFD50E6E9218900BC4A414391
:104660008C188034A16C4A060ED5EFF3108272B616
:104670004025A943A164002182F3108861651A2BAB
:10468000E9D1FFF799FD38E60806E4D5EFF310808D
:1046900072B6FF228132914380F31088A1642CE628
:1046A00008B500910F2300220121FFF717FE08BD76
:1046B000F0B507461546E9208000A54A78438418DE
:1046C0002646A93687B0002920D00F2069460870F9
:1046D00000A817222946013003F044FF3046172274
:1046E000294603F03FFF6B46182203213846FFF7A7
:1046F00011FDEFF3108072B68034A16C402211439B
:10470000A164002180F310886165A9E60F220421CD
:104710003846FFF71BFE0028F7D168782A78010297
:104720001143062907D3E878AA780002104319221A
:10473000D201904208D91E2000900F2300220121AF
:104740003846FFF7CBFD8BE62A7A002A27D188422C
:1047500025D12146A3314A7A0B7A12021A4390429C
:104760001DD168792A7900021043A134627B237B32
:1047700012021A43904212D1E879AA79000210433A
:104780004A7B0B7B11021943884208D1297BEA7AC4
:104790000802104303D03846FFF70EFD60E63046AE
:1047A0001722294603F0DEFE5AE6FFB507460E46FD
:1047B000E92067498000784340180446002580348A
:1047C00087B0002E21D111782173937851781B0284
:1047D0000B43E3811179D278090211432182A16C44
:1047E0008A0709D5EFF3108072B60222914380F355
:1047F00010886565A164DDE41D21490140188178B8
:10480000012902D1407801281CD00C216846017092
:10481000092141704F49418085806B460622032162
:104820003846FFF777FC0A98002809D0EFF310808C
:1048300072B60222A16C114380F310886565A164F1
:10484000002ED8D10221384602F069FCB2E470B5DE
:104850000546E92080003E4A684384183E48082205
:10486000201803F07FFEEFF3108172B68034A06C45
:1048700040084000A064002081F310886065032197
:10488000284602F04CFC70BD10B586B004460920E5
:104890006946087000A808223049013003F062FE22
:1048A0006B46092203212046FFF734FC8BE530B527
:1048B00005461346E920264A80006843841887B0DD
:1048C00000291BD0082069460870024600A8194636
:1048D000013003F047FE6B46092203212846FFF70B
:1048E00019FCEFF3108072B68034A16C01221143E1
:1048F000A164002180F310886165FEE41648082257
:104900002018194603F02EFE2846FFF7BDFFF4E4F9
:1049100000B587B0002908D013216A4611706B4694
:1049200001220321FFF7F6FB06E6EFF3108172B6D2
:10493000E92292005043064A012380188030826C9D
:104940005B029A438264002281F310888265F3E55A
:10495000881500203A09000099030000700000202B
:1049600000B587B0002908D012216A4611706B4645
:1049700001220321FFF7CEFBDEE50121FFF7C8FF8F
:10498000DAE5FB2901D9FB2102E01B2900D21B211A
:10499000FB2A01D9FB2202E01B2A00D21B22E923B9
:1049A0009B005843C44BC3180D2080011818018583
:1049B0004285704710B586B0002916D01522694689
:1049C0000A70FB234B7000228A70BC4ACA70140A1A
:1049D0000C714B7100238B71CA71120A0A726B46FB
:1049E00009220321FFF796FBEDE4517814780B02BE
:1049F000517912790902234311431A46FFF7C1FF87
:104A0000E1E410B586B01346044600290FD0142007
:104A10006946087000A808221946013003F0A2FD7B
:104A20006B46092203212046FFF774FBCBE458783C
:104A30001978020258790A431B790102194320466A
:104A4000FFF79FFF002201212046FFF7B3FFBAE4E2
:104A500000B587B001290AD00F2A12D0122A1FD020
:104A6000142A03D100221146FFF78BFF64E50723C8
:104A700069460B704A706B4602220321FFF74AFB1E
:104A80005AE5E92189008C4A41438A180721C90166
:104A900051184A7EFD231A404A76FFF78DFB4BE5FD
:104AA0000021FFF735FF47E5F8B50C465B1ED9B28C
:104AB000032C05D0002902D0114602F051FFF8BDA9
:104AC000E9239B007C4C434316781F1900963C4613
:104AD000B61E00258034330004F0B1F8180DA4147C
:104AE0001A1FA2A436A43C418E495057966E737883
:104AF000808787A49FA401296FD152780021FFF7F6
:104B000046FCF8BD0C2968D1511CFFF7ABFCF8BD81
:104B1000002962D1FFF7F4FCF8BD00295DD1EFF365
:104B2000108072B6FF22A16C8132914380F310880D
:104B3000EFF310806565A16472B601212037F97624
:104B400080F31088A565F8BD08296BD1511CFFF7CB
:104B50007EFEF8BD002965D100F06CF8F8BD05298E
:104B600060D100231946521CFFF71FFEF8BD08292B
:104B700058D10021521CFFF79AFEF8BD172951D1D8
:104B80000021521CFFF794FDF8BD17294AD10646B3
:104B9000511C3846A930172203F0E4FCEFF31080D3
:104BA00072B64022A16C914380F31088656530464F
:104BB000A164FFF701FBF8BD002933D1FFF7D0FE58
:104BC000F8BD00292ED1FFF7A3FEF8BD082929D191
:104BD0000021521CFFF715FFF8BD20E0082921D164
:104BE0000021521CFFF7E6FEF6E702291AD1002148
:104BF000521CFFF7BAFCEFE7012913D153780022CA
:104C00001146FFF71BFDE7E702290BD100231946E8
:104C1000521C0095FFF762FBDEE70229DCD001E0C1
:104C2000012904D00121009AFFF712FFD4E752783E
:104C30000021F9E730B58FB005460B2168460170B9
:104C400000221146284600F01EF9EFF3108272B6DA
:104C50000223E92080001849684344183B210B5582
:104C60000021D820015182F310886B4601220321D4
:104C70002846FFF74FFA7A20015B684601842146F7
:104C80007131082206A803F06DFC2146FF310AA805
:104C900024310422023003F065FC2146FF3108A8CC
:104CA0002C310822023003F05DFC06A92846FFF7EC
:104CB00091FB0FB030BD00008815002048080000AF
:104CC00010B54A780C781302FE4A23439380CB78C0
:104CD0008C781B022343D3804B790C791902214332
:104CE00011815189C00749084900C00F0143518112
:104CF00010BDF8B50F46E92189000646F24D4E4336
:104D00007419E17E002901D00020F8BDD11E99421E
:104D100000DA0B460021A95502252571618625463A
:104D2000A1864035697029762285638509216976D7
:104D3000012270210A554C210546E44E4D4371680D
:104D40004A5B52095201002F01D0092300E00823D9
:104D50001A434A53DD4A0832138869184B80518838
:104D60007268AA18918071684A5B20239A434A535B
:104D7000D74A6918CA80716869180A89120A12022A
:104D800055320A81716869184A899209920125325F
:104D90004A8171686A1853890121C9030B43538101
:104DA0007268AA18D389678DDB0BDB037F047F0C45
:104DB0003B43D3817268AA18D3890B43D3817268AD
:104DC000618DAA18D182716869180A89079BD2B2CD
:104DD0001B021A430A81C0B2FEF73CFE7068281815
:104DE000008ABC498004800C4518FF21281D03F06F
:104DF000D2FB68880321C0B28902401868806888A5
:104E000000090001C01C68800698002806D02146D1
:104E100014310120FFF754FF0120F8BD21460E3167
:104E20000020F7E7E9218900484310B5A649441856
:104E3000E07E00280BD1FEF732FC001D216A400104
:104E40004009C90EC906014301202162E07610BD68
:104E5000E922920050439C4A00218018C176704795
:104E600003B581B00346FFF7F3FFE9208000964ABF
:104E700000215843115402A80090D8B201230822FF
:104E800002F0E4F80EBDF0B5904C4C2380270025CD
:104E90004343666800290CD099190D876168591839
:104EA0004D87616859188D876168CE5A3E43CE524E
:104EB00002E0F15AB943F152E926B6007043824E3E
:104EC000402180194030002A626812D09A18D58794
:104ED00062689A184032158062689A18403255808C
:104EE0006268D45A0C43D452EFF3108172B639225F
:104EF00006E0D45A8C43D452EFF3108172B62D22BF
:104F0000427681F31088F0BDF3B583B0E920039DAC
:104F100080006D4F4543EC19E07E0E46002802D01C
:104F2000002005B0F0BD0398C0B2FEF752FC706AD5
:104F3000042801DA04207062B069316840008142BF
:104F400001DA084601E0001F30607268C11E91421C
:104F500001DA001F706003980022C0B21146FFF70B
:104F600092FF2146203100200191C87622468032EE
:104F70005949D1659065785503212171318C61863D
:104F800031882185B1886185B18BA1860199022381
:104F90000B73214640310091487000990F23087629
:104FA00003991B0219436180411EE16300991F238D
:104FB0000B70019901258D76318B092349002186DB
:104FC000B18C218700994B76CC21085590642046FE
:104FD000A330328B0272120A42720146328B801E5B
:104FE0000272120A4272328C0273120A4273B08B3E
:104FF0000873000A48730020FF210722D2012318FA
:105000009B18401C59760828F9D3706900287DD078
:10501000214614310120FFF753FE70200555039DF2
:105020004C20454329484068415B2022914341532D
:105030000398C0B2FEF70EFD244840682818008A85
:1050400024498004800C4718FF21381D03F0A3FA7F
:105050001E49381DC86003991C4A890010328918FE
:10506000042203F07FFA19485522C0680321001D6D
:1050700003F08AFA1548318BC06804228172090A4C
:10508000C1720199097BC171618E0173090A417373
:10509000A18E8173090AC17321463C31103003F09F
:1050A00061FA009802780948C16805200A754875B8
:1050B00006484068415B490949010F3141530349A2
:1050C00008310BE02000115088150020A0000020BE
:1050D000555500000000105080BB00000A882818B9
:1050E0004280FF484988406828188180FC48FD4973
:1050F00040682818C180FA48406828180189090AC0
:10510000090255310181F648406800E00AE028189C
:105110000189327AC9B2120211430181B0680028B4
:1051200004D017E021460E31002074E7EC483169C5
:10513000406806222818203003F014FAE848406836
:10514000281820308179327B49084900D207D20FD4
:1051500011438171E248416869184A8992099201B4
:1051600025324A81416869184A891F231B029A43E4
:10517000FF3201324A81416869184A890123DB0301
:105180001A434A81416869188A89120A12028A817F
:10519000416869188A890F231B029A43FF32013242
:1051A0008A81416869188A8901231B031A438A810D
:1051B000416869188A895B001A438A8141686918C5
:1051C000CA89638DD20BD2035B045B0C1A43CA817C
:1051D00041686918CA890123DB031A43CA814168FF
:1051E00069184A8A5204520C4A824268618DAA1890
:1051F000891E91824268618DAA18D1824268E16B52
:10520000AA189161416869188A8B009B52091B7822
:105210005201DB06DB0E1A438A83416869188B8BC7
:105220003F2212022524934324021B198B834168D9
:105230006918CB8B9B0A9B02CB830199338B097B2B
:1052400040684908591A28188182788811219043AA
:10525000490240187880788840218843788078888F
:10526000802188437880788800090001401D78807B
:10527000012056E6F1B582B0E92102988900484341
:105280009949012244180A542271002620462030F0
:105290000090C6762546082040356870052028769F
:1052A000E6866681A681324631460298FFF769FBA1
:1052B000274604218037B974FE74387D08431021D5
:1052C000084380088000401C7975C006C00EF72195
:1052D0000840387501E0042E07D2FEF7C5F9A11980
:1052E000FF312131C870002003E0A119FF312131C5
:1052F000C870761CF6B2082EEDD3002601E0082E09
:1053000002D2FEF7B1F900E00020A119FF312131EE
:10531000761CF6B2C872102EF1D30026FEF7A4F95F
:10532000A119FF316131761CF6B28872102EF5D3C7
:1053300000202218FF320021E132401CC0B29172DD
:105340002028F6D30026FEF78FF9A119FF3101318D
:10535000761CF6B28870102EF5D30026FEF784F97D
:10536000A119FF31C131761CF6B288721F2EF5D318
:105370002646FF36E136FEF777F970728028FAD3B9
:105380000098022181762D2068760026CC200655D3
:105390002046FF3024300821BE6403F0FCF820468C
:1053A000FF302C30102103F0F6F802984C214843CE
:1053B0004B494A688218166356634A688218166217
:1053C00056629662D662E66526666666A666E666FA
:1053D0004A68135A2026B3431352135A5B095B01E0
:1053E0009B1C1352029B0F469B001037FE5A8218DB
:1053F0005680DA194B685288C3189A804B68394A2C
:10540000C318DA804A68821813891B0A1B025533B5
:1054100013814A6882181389DBB213814A688218A3
:1054200053899B099B0153814A68821853891F261F
:105430003602B343052636029B1953814A68831806
:105440005E890122D20316435E814B68C3189E8990
:10545000360A36029E814B68C618B3890F273F0271
:10546000BB43FF330133B3814B68C3189E89D71008
:10547000BE439E814B68C3189E899710BE439E8190
:105480004B68C318DE89278EF60BF6037F047F0C6A
:105490003E43DE814B68C318DE891643DE814A68CD
:1054A0008218538A5B045B0C53824B68FF22C3183B
:1054B0009A824B68228EC318DA824B68E26BC3185B
:1054C0009A614A688218938B2C785B095B01E40629
:1054D000E40E234393834A688218938B3F2405E0AC
:1054E000A000002055550000881500202402A34389
:1054F000252424021B19938349684018C18B890A0B
:105500008902C1830298FEF7A5FAFEBD7047BA4A28
:10551000125C032A08D2B94B4000C0180088C004AE
:1055200002D00A70012070470020704770B5B34A5E
:1055300043009A1813885B0B1DD11388B04D4C247F
:10554000AD884C435B0B64195B03E404E40C234318
:105550001380A94A1154E92080004143A94804223C
:105560000C18E276FEF79BF8616A40014009C90E0B
:10557000C9060143616270BD18B504466946FFF76C
:10558000C6FF00280CD068460078E921890048430E
:105590009C49401840304178002901D0491E417093
:1055A000964A00206100891808809349FF20085519
:1055B00018BD10B50020924A01461154401C022823
:1055C000FBDB8F4C904B6068FF223021C01802F04B
:1055D000DBFFF92360689B01FF221221C01802F053
:1055E000D3FF10BDF8B501218903844802F0D3FF31
:1055F0000024814EFF25E0B2FFF7BEFF3555641C45
:10560000102CF8D300247E4D7E4F26464C2069682E
:1056100060434018028A7D4B920B63435918E43172
:1056200092038904890C0A430282E0B2FEF759FB17
:10563000E0B2FEF72FF9E92080006043C019C6767A
:105640000121502211520721C9014018091DC674B9
:10565000C182641C0675032CD8D3FFF7AAFF6A48E1
:1056600069680A186A480263F9229201891841633D
:10567000816B090A090208318163816BFF221202E2
:1056800091430322120289188163F8BD70B55C4D05
:105690005D4E002406206968604340188019062288
:1056A0005C4902F097FF641C082CF3DB70BDF3B576
:1056B000534C81B00F0026D0012F57D1204640789F
:1056C000032853D20025F926B601062061686843F5
:1056D000401880190622019902F07CFF002835D07D
:1056E0006D1C032DF1DB002506206168684340181E
:1056F00080190622474902F06DFF00282CD06D1C4E
:10570000032DF1DB22E03E48007808282ED23E4EE1
:105710000025062061686843401880190622019917
:1057200002F058FF002811D06D1C082DF1DB002578
:10573000062061686843401880190622354902F046
:1057400049FF002808D06D1C082DF1DB2C48C15DF5
:10575000491CC1550120FEBD062045436068062254
:1057600028188019019902F0FDFEEFE70020FEBD28
:10577000F3B5234E0D46705D81B0002815D0374635
:10578000002D1AD0012D10D1002406207968604325
:105790004118F920800108180622019902F01AFF29
:1057A000002803D0641C032CEFDBFEBD062044431D
:1057B00078682118F920800115E000240620796816
:1057C00060434118104806220818019902F002FFB0
:1057D000002803D0641C082CF0DBFEBD06204443E7
:1057E000786821180848062208180A4902F0BAFE0B
:1057F000705D401E7055FEBD486E002000001050C8
:10580000A000002088150020103E00003C0F000082
:10581000800011504083011010B5491C11700B0A13
:105820005370042393700023091DD370C9B201F093
:105830002FFF10BDFFB50446FB4881B000681F462E
:105840000E46153002F0D3FEF94DF84A1421A84750
:10585000201E06D0012C07D0022C08D0032C09D022
:105860000CE0F248001D07E0F048083004E0EF4883
:105870000C3001E0ED48103002F0B9FE80193A46D4
:105880000399A84705B0F0BDF0B500258DB00E46D0
:1058900007462C466B46322229460220FFF7CAFFF4
:1058A00068468178427808021043B84208D26946B7
:1058B0004C790978344049198DB2DE498842E9D1E2
:1058C000A64302D000200DB0F0BD0120FBE7F0B5EB
:1058D00000268DB014460D46074600292BD0002027
:1058E000287068706B46322231460020FFF7A2FF15
:1058F00068468178427808021043B8421BD868464F
:1059000000781728684613D0017AC279080210433C
:105910002870000A68706846817942790802C54992
:105920001043884207D068460078801986B2D9E7CC
:10593000017DC27CEAE7002CC5D000202070BD4E5E
:10594000607005466B46322229460320FFF772FF3E
:1059500068464088B84210D168460079C009684658
:1059600003D0407C0102084303E0817942790802B8
:1059700010432070000A6070A5E7B042A3D06846CB
:105980000088401985B2DDE700B5C3B001290ED00B
:1059900000290AD103236946FB220B714A710022B8
:1059A0008A710A460221FFF737FF43B000BD022388
:1059B00069460B7113784B715278F1E770B5C2B03C
:1059C0001D4614460646012918D0002914D1062B7D
:1059D00039D0607C227C0102607811430202237876
:1059E000E0781A43A478030223439A422ED9012374
:1059F0001021304601F038FA42B070BD10216846DF
:105A00000171607822780102114368464171090AE8
:105A10008171E078A278010211436846C171090AD8
:105A20000172062D0AD01022211D093002F09AFDC4
:105A3000E9B26A463046FFF7EFFEDDE721794172B1
:105A400061798172F4E760792279C4E700200190DE
:105A5000009102900121304600F001F8CCE7FFB53B
:105A6000CFB00024599F15462646012909D00029A8
:105A70006FD1714E00203978062975D0142972D063
:105A800097E011216846002701710621417142AB60
:105A9000322239460020FFF7CDFE40AA907A527A92
:105AA0000002104342A9A84223D3529A904220D820
:105AB00040AB1A7BDB7A12021A43589B9A4218D1E8
:105AC00040AA127A172A23D0062161436A46891810
:105AD000C88040A8827B437B10021843088140A8FD
:105AE000C07B8872B61D40A8007C641CC872F6B2E8
:105AF000E4B2032C27D040A8817B427B08024D49A9
:105B0000104388421DD040A8007AC01987B2BEE772
:105B1000002C18D114266846467140A8827A407A33
:105B2000120202436846C28040A8827B407B120278
:105B300002436846028110220A30C91D02F012FD9C
:105B400001E0002C07D01536F1B26A464F98FFF7F6
:105B500063FE53B0F0BD0A232A4610214F9801F08E
:105B600083F9F6E700E011E0356809202870062087
:105B70006043C219511C5379EB719279E81C2A7267
:105B80003060487909790002084310E0002C32D1D6
:105B90003568172028701022791DE81D02F0E2FCFC
:105BA000306811303060B97C7A7C08021043694655
:105BB000888006206043C0198278417812020A4327
:105BC0006A70120AAA700379C278180210436871C9
:105BD000020AAA710522D202EA70120A2A713168F9
:105BE000641C891DE4B23160032C04D01149884241
:105BF00000D040E722E00F4A90421FD06946401C87
:105C00008881CA8100240C7428204874062303AAC2
:105C100001214F98FFF7D2FEA87869780002084367
:105C20006946C8800C7215E078000020586E00208C
:105C30008F160000FFFF00006C00002004214F9829
:105C400001F06DFAA8786A78010211436846C180B4
:105C50000121017201A800900523012200214F9823
:105C600001F0F4F975E7FFB5CFB00F460025092024
:105C70006946087104202C462E46487142AB3222F8
:105C800031460020FFF7D6FD40A8827A437A100201
:105C9000184342A9B8421CD3519A904219D840AA3D
:105CA000137BD27A1B021343529A934211D140AA1A
:105CB000127A172A1CD0AA0069465118C88040A839
:105CC000C07B0872241D40A8007C6D1C4872E4B2A1
:105CD000EDB2032D20D040A8817B427B0802FF4912
:105CE0001043884216D040A8007A801986B2C5E7D2
:105CF000002D11D112246846447140A8827A407A5E
:105D0000120202436846C280102202A8C91D02F096
:105D100029FC01E0002D06D01534E1B26A464F9807
:105D2000FFF77AFD15E70A233A4608214F9801F05C
:105D30009BF80EE7FFB5CFB00F4600250921684656
:105D4000017107212C462E46417142AB3222314669
:105D50000220FFF76FFD40A8827A437A10021843B1
:105D600042A9B84227D3519A904224D840AB1A7B1B
:105D7000DB7A12021A43529B9A421CD140AA127A31
:105D8000182A22D0E9004A1B694651188871020A74
:105D9000CA7140AA527B0A7240AAD2894A72120A78
:105DA0008A7240AA127CCA72E41D40AA527C6D1C01
:105DB0000A73E4B2EDB2032D25D0C849884220D041
:105DC00040A8007A801986B2BFE7002D1BD11524A8
:105DD0006846447140A8827A407A120202436846BB
:105DE000C28040A8427B6846027240A8C2896846C9
:105DF0004272120A827210220B30083102F0B2FB9A
:105E000001E0002D06D01634E1B26A464F98FFF744
:105E100003FD9EE60A233A4608214F9801F024F834
:105E200097E6FFB5CFB00D46002409206946AB4F79
:105E30001646087142AB322221460320FFF7FAFCD6
:105E400040A8007B42A9C00940A803D0407E0202BE
:105E5000104303E0827B437B1002184340AA52891F
:105E6000AA4236D3B24234D8529B984231D140A88C
:105E7000007BC209002A40AA128902A80ED0153A56
:105E800094B2132C00D91324A21C6B465A7140AB58
:105E90005A896B46DA80224615310DE0D21F94B242
:105EA000132C00D91324A21C6B465A7140AB5A899B
:105EB0006B46DA802246C91D02F054FBE41C200424
:105EC000000C0DD01630C1B26A464F98FFF7A4FC03
:105ED0003FE6BA4204D040A80089001984B2A9E77D
:105EE0000A232A4608214F9800F0BEFF31E6FFB58D
:105EF000E1B000250921684601720721774F2C4641
:105F0000417250AB322221460220FFF793FC50AE83
:105F100032783046182A2DD00189034680785B7884
:105F200000021843629B984272D3639B98426FD8D9
:105F3000649B99426CD10C21694301AA00208C1802
:105F40005F90F088664AE080002111703087718789
:105F50005DAA02325DA9FFF7BAFC5DA80823009094
:105F6000DA010021619801F071F85D48007801289C
:105F700002D008E0818AD0E759485A49467820463D
:105F8000083032464BE043AB322203205F99FFF7E3
:105F900051FCF17940A8B279C0890902114343AF9D
:105FA000884242D140A8007C400604D5619800F0A8
:105FB00068FF00281FD040A8007C810606D5C106D6
:105FC000C90E619800F06BFF002816D040A8C08968
:105FD0000221FFF759FC002840A811D0007CC0091D
:105FE00040A8808915D01538C6B2204608303946F9
:105FF0003246153113E0052300E00C23629A01E0DC
:10600000C28902230821619800F02EFF65B0F0BD1F
:106010001EE0C01FC6B2204608303246F91D02F00D
:10602000A1FA6846B61C467209E02C49884206D09F
:1060300040A881895F98081880B25F90A3E76D1C23
:106040000BD06846417A01AA6198FFF7E5FBDDE7CE
:10605000B84202D0101984B253E70A23CEE730B514
:10606000C3B014460546012919D0002915D1062BC5
:106070003AD0607C217C030260780B4301022278D5
:10608000E0781143A4780202224391422FD90A46B4
:1060900001230821284600F0E7FE43B030BD082167
:1060A00068460171607822780102114368464171A7
:1060B000090A8171E078A278010211436846C17132
:1060C000090A01721022211D093002F04BFA6A46BA
:1060D00014212846FFF7A0FBDFE70000FFFF0000C8
:1060E000F00000206C6E002060792179C3E7052064
:1060F000C002834202D0401C834203D12846FFF7EE
:10610000B2FDCAE7FA48834203D1284600F0D5FE23
:10611000C3E7F748401C834203D12846FFF70AFE35
:10612000BBE7180A2928284602D0FFF7E0FEB4E7AB
:10613000FFF777FEB1E7F3B5D3B00D460B20694604
:106140000872EC4E50A9002434708D80CC800F462C
:106150008A1C2846FFF7BBFB0823DA0100210097C1
:10616000539800F073FF307801AF012804D17278A2
:10617000E1491446781D3FE043AB3222214603201B
:10618000FFF758FB40A8C08943AEA84240D140A8C1
:10619000007CC10940A9898901D0153900E0C91FD7
:1061A0008CB2400604D5539800F06BFE00281BD03B
:1061B00040A8007C810606D5C106C90E539800F0A0
:1061C0006EFE002812D002212846FFF75DFB002852
:1061D0000ED0162C00D9162440A8007C2246C009F7
:1061E00008D03146153106E005231AE00C2318E0EB
:1061F000022316E0F11D781D02F0B4F9002C0FD037
:106200001634E1B201AA5398FFF706FB55B0FEE63B
:10621000BA49884204D040A88089001984B2ABE70B
:1062200001232A460A21539800F01EFEEEE700B52E
:10623000C3B0012909D0002905D15178127809028B
:106240001143FFF778FF43B000BD0A2369460B7185
:10625000517813780A021A4369464A71120A8A7100
:106260006A460221FFF7D8FAEDE7FFB5D3B01D4625
:106270001746012975D10D21684601729D4C50A821
:10628000002626708780C580821C01463846FFF7AD
:106290001EFB50A808230090DA010021539800F05B
:1062A000D5FE2078012812D0944C43AB32223146DF
:1062B0000320FFF7BFFA40A8C089B84253D140A8D5
:1062C000007CC10940A989890BD015390AE064789E
:1062D00002A822468849013002F044F9002C36D148
:1062E00052E0C91FCCB2400604D5539800F0C9FD56
:1062F00000281DD040A8007C810606D5C106C90E25
:10630000539800F0CCFD002814D002213846FFF746
:10631000BBFA002810D0A5422CD8601B0406240E1E
:106320002FD040A8007CC00908D07019153007E0B4
:10633000052320E00C231EE002231CE07019C01D81
:1063400081B202AB013322460320FFF773FAFF2C20
:1063500010D0FE2C15D01634E1B201AA5398FFF7E5
:106360005BFA57B053E6A0420ED040A8808980194E
:1063700086B29AE707233A460C21539800F074FD41
:10638000EFE701AA1621E9E70123F4E710B5C2B04F
:1063900001290ED000290AD1D17894780B02234329
:1063A000517814780A0222430121FFF75EFF42B0C0
:1063B00010BD0C2369460B71517814780B022343EE
:1063C00069464B711B0A8B71D17893780A021A4384
:1063D0006946CA71120A0A726A460421FFF71CFA5A
:1063E000E5E7FFB5CFB001294FD10024052168466C
:1063F00001710121414E25462746417142AB3222AF
:1064000039460320FFF716FA40A8028942A9B24292
:1064100002D14089B04230D040A84089519B984277
:1064200024D3529B984221D840AB1B7BDB090FD071
:10643000002C24D102226846427140A84289684655
:10644000C280102202A8491D02F08CF8122516E025
:10645000A30069465918C88040AB5B7B0B722D1DA9
:1064600040AB9B7B641C4B72EDB2E4B2032C06D0B4
:10647000B04202D0D01987B2C0E7002C06D0153543
:10648000E9B26A464F98FFF7C7F94BE40A230421A3
:10649000519A4F9800F0E8FC44E410B5C2B00129CD
:1064A0000DD0002983D1D17894780B022343517801
:1064B00014780A0222430121FFF793FF77E70423B0
:1064C00069460B71517814780B02234369464B716E
:1064D0001B0A8B71D17893780A021A436946CA71F4
:1064E000120A0A726A460421FFF796F95FE7000074
:1064F00002280000F00000206C6E0020FFFF00006A
:10650000FFB5FFB09EB01C4601292AD000297DD1DD
:106510000020064646909F989C1E417800780D0208
:1065200005434894E9219D9889004843FE49401855
:1065300047908DAB322203204699FFF77BF980A864
:10654000C08E8DAFA84270D188A8017EC80980A8EE
:10655000808E1DD01538C6B290A840790202104333
:106560001DE01221684601729F981A464178007812
:106570000902014368464172090A81729F990B30F2
:10658000891C01F0EFFFA41CE1B201AA9D989CE0D8
:10659000C01FC6B288A8827E437E100218430446FC
:1065A000480604D59D9800F06CFC002818D088A8F7
:1065B000007E810606D5C106C90E9D9800F06FFCCD
:1065C00000280FD0D9498C4205D008212846FFF772
:1065D0005BF9002808D04898B04207DD0D237AE027
:1065E000052378E00C2376E0032374E0002285A9DC
:1065F0002846FFF76CF980A8C48205834898C2B288
:1066000080A882769F991B30891C00E05FE001F032
:10661000A9FF80A8C18AC548814235D10520479984
:106620000024C00108184C902BE036E00A2147985E
:1066300061434118BE480A18507B127B0002104388
:1066400080AA128B904219D180AB187FDB7E0002AA
:106650001843B74B9B1EC9180874030A4B7480ABD0
:10666000998A90AB19855A8598859AA8012200903D
:106670000623D20300219D9800F0E8FC641C4C988E
:10668000E4B2007AA042D1D885A8012200901E234E
:10669000D20200219D9800F0D9FCF878B978000268
:1066A0000843A449884208D0787839780002084322
:1066B0004699401880B246903BE7002E0AD013213D
:1066C00040AA9D98117443AA0021FFF7A5F87FB056
:1066D00022B09CE401232A4612219D9800F0C4FBBD
:1066E000F5E7F7B59AB0002018901B98417800782C
:1066F0000D020543E9211A98890048438A49401848
:10670000199009AB322203201899FFF793F86846D5
:10671000C08C09AEA8425ED108A8007AC00908A8BA
:1067200002D0447D200202E0817A407A0C020443C8
:10673000002201A92846FFF7CAF86846C4800581EF
:106740001C98801EC2B2684682721B990B30891C4D
:1067500001F008FF6846C0887449884232D105219B
:1067600019980024C901471829E00A2119986143A2
:1067700041186F480A18507B127B000210436A468A
:106780001289904219D16B46187BDB7A00021843BC
:10679000674B9B1EC9180874030A4B746B46998893
:1067A00010AB19835A83988316A801220090062300
:1067B000D20300211A9800F049FC641CE4B2387A34
:1067C000A042D2D801A8012200901E23D2020021AB
:1067D0001A9800F03BFCF078B17800020843554964
:1067E000884208D070783178000208431899401820
:1067F00080B2189085E71DB009E430B51C46C3B0DF
:10680000134605461B206A4610715171080A9071A3
:1068100001A822461946033001F0A4FEA41CE1B2EF
:106820006A462846FEF7F8FF37E4FFB5FFB09CB094
:10683000144601291ED000297ED1607800272178D6
:1068400005023E460D438DAB322239460320FEF74A
:10685000F1FF80A8C08EA84277D188A8017EC80920
:1068600080A8808E22D01538C6B290A84079020246
:10687000104322E0162168460172607822780102F6
:10688000114368464172090A8172E078A2780102D8
:1068900011436846C172090A01731222211D0D308D
:1068A00001F060FE01AA16219B9868E0C01FC6B2E5
:1068B00088A8827E437E100218430090480604D5C3
:1068C0009B9800F0DEFA002849D088A8007E810657
:1068D00006D5C106C90E9B9800F0E1FA002840D009
:1068E00012490098884205D008212846FEF7CCFFBF
:1068F00000283AD0002285A92846FEF7E8FF80A8A4
:106900000099C1820583E078A17802020A4380A839
:1069100042839E98211D801EC2B280A802771D303E
:1069200001F020FE85A809E088150020022900005A
:1069300083020000FFFF000023E006E02023009018
:10694000DA0100219B9800F081FB80A8C08EF449F9
:1069500088420CD080A8808EC01987B273E70523C7
:1069600000E00C232A46122111E00323FAE7002E4F
:106970000AD0172140AA9B98117443AA0021FEF760
:106980004BFF7FB020B0F0BD01232A4616219B9813
:1069900000F06AFAF5E710B5C4B00446012916D034
:1069A000002912D110786946087101A801230090CE
:1069B0005A030021204600F049FB192269460A7358
:1069C000204602AA0021FEF727FF44B010BD18217F
:1069D00068460171117841716A4601212046F2E74B
:1069E00030B5C3B014460546012906D000292AD186
:1069F000082B29D9E07CA27C28E006206946087192
:106A0000607821780002084369464871000A88715D
:106A1000E078A178000208436946C871000A08724C
:106A2000607921790002084369464872000A887239
:106A300002A81022A11D033001F094FD6A46162120
:106A40002846FEF7E9FEEFE6E079A279010211435C
:106A5000607922790002104301910090E078A178DA
:106A6000030260780B43217802020A430121284681
:106A700000F072FAD8E600B5C3B0012909D00029A8
:106A800005D101220B469203009100F0DFFA43B0DA
:106A900000BD1E2369460B71517813780A021A4310
:106AA00069464A71120A8A716A460221FEF7B4FEEB
:106AB000EDE730B51C46C3B0134605461D206A46B7
:106AC00010715171080A907101A8224619460330CD
:106AD00001F048FDA41CE1B26A462846FEF79CFE80
:106AE000A2E6F7B5521E84B095B2E922049892004E
:106AF00050438C4A0E468218D01D05230978FF307A
:106B0000DB01FA30D718741C009110297ED00ADC02
:106B1000891E0B0002F093F80C524BF0E6EEED9E4E
:106B200097B9B2D3CC1F182971D008DC11390B00EA
:106B300002F085F80757FCFD1111FAF511001D2927
:106B400066D004DC19297BD01B2904D11EE11E2943
:106B500077D0522976D0062300220099049800F0BD
:106B600083F93078012819D0032817D0052815D0CB
:106B7000072813D0092811D00B280FD00D280DD0CD
:106B80000F280BD0112809D0132807D0172805D0BB
:106B9000192803D01B2801D01D2806D10094EBB280
:106BA00032780221049800F051FA07B0F0BDC06FAE
:106BB000C003F3D502230322009450E1C06FC00745
:106BC00006D002231A4603210094049800F024FA08
:106BD0003878C007C5D1721C00210498FEF7D4FE96
:106BE000BFE7C06F800306D5EBB2112203210094EA
:106BF000049800F011FA38688003B2D400206F4680
:106C000031C7034602460146049802E004E0E8E08A
:106C100016E1FEF724FFA4E7C06F800706D5EBB2AC
:106C2000102203210094049800F0F6F938788007C8
:106C300097D42B46721C00210498FEF7BFFE90E704
:106C4000C7E005E18FE0C06F4003A7D5EBB2092292
:106C5000009404E1C06F400706D5EBB2082203217F
:106C60000094049800F0D8F938784007B8D42B463F
:106C7000721C00210498FFF7F2F972E7C06F00035D
:106C80008CD516230B220094E9E0C06F000706D5CF
:106C900002230A2203210094049800F0BDF93878F9
:106CA00000079DD4721C00210498FFF7C0FA58E732
:106CB000C06FC002C9D516230D220094CFE0C06F6B
:106CC000C00606D504230C2203210094049800F08A
:106CD000A3F93878C0069ED4721C00210498FFF7EF
:106CE00055FB3EE7C06F8002AFD515230522009407
:106CF000B5E089E090E0FFE7C06F800606D5042389
:106D00001A4603210094049800F086F9387880062A
:106D100095D4721C00210498FFF7BFFB21E73DE0EA
:106D2000FFFF0000881500203FE000E007E0C06F93
:106D3000400284D50020EBB2132200908FE0C06F98
:106D4000400606D5EBB2122203210094049800F00D
:106D500063F93878400690D42B46721C00210498C1
:106D6000FFF7CEFBFDE6C06F000606D5EBB2522260
:106D700003210094049800F04FF93878000696D467
:106D80002A46711C0498FFF7ACFCEAE6C06F0002CB
:106D90008DD5002003461B22009060E0C06FC0012B
:106DA00085D5EBB21722009459E0C06FC00506D517
:106DB000EBB2162203210094049800F02DF93888D4
:106DC000C0058ED42B46721C00210498FFF72DFDC0
:106DD000C7E6C06F800184D50020EBB21922009075
:106DE0003DE0C06F800506D5EBB218220321009468
:106DF000049800F011F9388880058FD4721C0021A6
:106E00000498FFF7C8FDACE6C06F400100D4C5E6AA
:106E1000EBB20622009422E0C06F400506D5EBB22B
:106E2000062203210094049800F0F6F83888400503
:106E300098D42B46721C00210498FFF7D1FD90E6F0
:106E4000C06F00018ED5002003461D22009006E091
:106E5000C06F000586D5002003461E220090032146
:106E6000049800F0D9F87CE630B5C3B001256C4633
:106E700025716171E28023726A460421FEF7CCFC21
:106E8000D2E44C214843614909680A5A120604D5E4
:106E9000085A400601D50020704701207047E922BA
:106EA000920050435A4A8018FF302130807888423F
:106EB00001D20020704701207047FFB5CFB00D46CA
:106EC000002409206946534F1646087142AB32220E
:106ED00021460120FEF7AEFC40AA907A527A0002C9
:106EE000104342A9A84229D3B04227D840AB1A7B0D
:106EF000DB7A12021A43529B9A421FD140AB1A7A94
:106F00006B461046D21E5A7140AB9A7A5B7A1202D7
:106F10001A436B46DA80421F02A8491D01F022FB8A
:106F200040AB187AC01E0006000E0ED01830C1B259
:106F30006A464F98FEF770FC53B0F0BDB84204D0DB
:106F400040A8007A001984B2C0E70A232A46082123
:106F50004F98FFF789FFEFE7FFB50024CFB0072078
:106F6000694616462546087142AB32222946002062
:106F7000FEF760FC40A8027A172A32D0017CC37B5E
:106F80000802184340A98B7A4F7A19023943B1425B
:106F90002AD3529B994227D840AF3B7BFF7A1B02F2
:106FA0003B43589FBB421FD1599B98421CD140A8DC
:106FB000827A407A1202024368464271090A81715C
:106FC00040A8817B407B090201436846C171090AE0
:106FD0000172641C13D002461A214F98FEF71CFC64
:106FE000AAE7017FC37ECBE740A8817B437B0802F1
:106FF00008491843884202D0501985B2B4E70A23E1
:10700000324606214F98FFF72FFF95E7A400002096
:1070100088150020FFFF000030B58BB0044668469D
:107020000E9D0170428003711A462946401D01F0F1
:1070300099FAE92080004443504805212018C901ED
:1070400040184168684688470BB030BDFFB50C4614
:107050001546E9218900494A41438E1891B0002C18
:107060001CD0E92292005043444A032109028018AF
:107070004718012C31D0022C0ED1786E00280BD08D
:107080006846149941700570801C149A1A9901F091
:1070900069FA796E6846884715B0F0BD38483018EF
:1070A000074601F0A4FA0028F6D03548001F301832
:1070B00001F09DFA2842EFD1684604700446411C55
:1070C000284601F09EFA601D149A1A9901F04AFAB6
:1070D000384601F08CFA0146DCE70D2080013018BB
:1070E000017F0129D8D13E6E002ED5D0C08B284219
:1070F000D2D1684604706944284601F082FA684695
:10710000B047C9E7E922920050431C4A0023821885
:107110001D20400110188370417001207047E92242
:1071200092005043154A002382181D204001101878
:107130008370417001207047E922920050430F4A4A
:1071400082181D204001101842788A4201D0002088
:1071500070470121817008467047E9229200504330
:10716000064A82181D204001101842788A4201D038
:10717000002070470221817001207047881500208F
:107180005503000070B50D46064614461021FB4815
:1071900001F001FAF9492878087068784870A878F1
:1071A00088700A4610323046FBF72DFFF348103046
:1071B00001782170417861708078A07070BDFFB552
:1071C00081B00A9C0C9F24780D9DE6070C78F60F81
:1071D0006640EA4C002026703E784F78F607F60F9E
:1071E0007E4066700F18165CBF787E402718401CE2
:1071F000C0B2BE700728F5D300200E181A5C767A4C
:1072000072402618401CC0B272720728F5D3DB48C2
:107210001021103801F0BFF9D84E0020103E295C33
:107220003154401CC0B20628F9D300200B99321803
:10723000095C401CC0B291710628F7D3CF4ACF49F0
:1072400010320198FBF7DFFECC49002010310A5CB8
:10725000335C5A402254401CC0B21028F7D3C749AF
:107260000E9A0198FBF7CFFE05B0F0BD70B515463C
:10727000C24C0022AE5CA654521CD2B2082AF9D3EA
:1072800000228D5CA618521CD2B23572082AF8D39F
:107290001A46BA49FBF7B7FE70BD10B5FBF7B3FE4F
:1072A00010BDF0B591B0944606460020169A6D4682
:1072B0001F24271AF75D2F54401CC0B22028F8D392
:1072C0000020261A2F182037401C8E5DC0B23E7059
:1072D0002028F6D310A803701346412229466046A1
:1072E000FBF7A5FF11B0F0BDF0B50F469BB01646F9
:1072F00000211D460EAA1F24631AC35C5354491C67
:10730000C9B22029F8D316AB20220EA99C48FBF75E
:107310008EFF01206946087008A9C874002008750E
:1073200097496C4604222439601C01F01BF90020A7
:107330000F210A1A2118BB5C4B71401CB25CC0B211
:107340004A751028F4D300200622131A2118EE5C87
:1073500020314E71209E401CF35CC0B20B73072895
:10736000F3D33522694616A8219BFBF760FF002066
:1073700069460870219B352216A81033FBF757FF8A
:107380001BB0F0BDF0B591B0844600256C460F20CF
:10739000471BCE5D66556619D05D307420366D1C76
:1073A000DF5DEDB23770102DF1D300200221169A67
:1073B0000B1AD35C22182032401CC0B2137403286D
:1073C000F5D30020062317991A1A8D5C2118203155
:1073D000CD74189D401CAA5CC0B28A760728F2D3EF
:1073E000412221466046199BFBF721FF7AE7F0B561
:1073F00095B09446064600241A9A1F2568462F1B0E
:10740000F75D0755641CE4B2202CF8D300242E1B32
:107410008F5D06192036641CE4B23770202CF6D339
:1074200000210F24651A46184036491C5D5DC9B21B
:1074300035701029F6D31346014650226046FBF7FB
:10744000F6FE15B0F0BD704700B54D4995B020224D
:107450001031684601F086F849492022303108A8E9
:1074600001F080F8002010A90870454811AB4122B6
:1074700069465030FBF7DBFE15B000BD1FB5404933
:107480006B46202260313E48FBF7D1FE1FBDF0B5B0
:1074900093B00121684601703949042220396C46B5
:1074A000401C01F05FF8364910229031601D01F058
:1074B00059F8334905A801301022A0310E9001F08F
:1074C00051F82F4909A8013007221039074601F069
:1074D00049F82B490BA807220839064601F042F863
:1074E000274D08A8243D297AC174697A0175284678
:1074F0000FAB35226946A430FBF799FE00216846A0
:1075000001700422291D601C01F02CF8294610226C
:10751000B431601D01F026F829461022C4310E98BE
:1075200001F020F8294607221431384601F01AF8F4
:10753000294607221C31304601F014F8297A08A8A0
:10754000C174697A017528460FAB35226946A430AB
:10755000FBF76DFE13B0F0BD00B50A488BB002A971
:1075600001910346024601460090083B9932893159
:107570000930FFF7B9FE0BB000BD0000926E00208D
:107580006C830110FF0000203F4810B501463431E4
:107590001EC996B0009101A91CC1014644311EC903
:1075A000049105A91CC154300FC808AC0FC436495A
:1075B000032274390CA800F0D5FF334907226C3937
:1075C000E01C00F0CFFF30490EA8072264390230DA
:1075D00000F0C8FF2C4811AB412269466430FBF72C
:1075E00026FE16B010BD00B5284A89B004AB11467E
:1075F00008390393C81E6B4607C30346C433993248
:107600009131B430FFF7BEFE09B0B5E700B51E49B1
:1076100099B020224C39684600F0A4FF1A49202274
:107620002C3908A800F09EFF174B184674330ECB78
:107630007430C0681390144812931192109114ABD7
:10764000502269460C38FBF7F2FD19B094E700B5FB
:107650000D4885B08038006904900B486B460422C1
:1076600004A98430FBF7E3FD05B085E77047064ABF
:1076700000B5D43211462039A1B008466B462038F7
:10768000FBF771FD21B077E7C8830110FF000020F0
:1076900010B5032801D9002010BD13460A46022167
:1076A000FCF738FD10BD00B5C3B013236A46137153
:1076B000012353710223D3804A780B7811021943B6
:1076C0006A46118106211180052151800A21FFF7A8
:1076D000DFFF43B000BD60B4D14E8D1FB54210D85E
:1076E000551C4D436D009D420BDC002525706570D7
:1076F000E925AD00CB4E4543AD1929866A86AB8698
:1077000003E0012121700021617060BC2146CAE7BD
:1077100010B5C2B000291BD0162469460C714B71FC
:107720000423CB80517814780B02234369460B81E4
:10773000D17893780A021A4369464A8108220A805E
:1077400005224A800C216A46FFF7A2FF42B010BD15
:10775000B548517814788388090221438B42F5D1CA
:10776000D1789278090211438181EFE710B5C2B058
:107770000029EBD0152469460C714B710A23CB808C
:10778000517814780B02234369460B81D1789478A1
:107790000B02234369464B81517914790B02234331
:1077A00069468B81D17994790B0223436946CB8159
:1077B000517A137A0A021A4369460A820E220A8013
:1077C00005224A8012216A46FFF762FFBEE770B5C4
:1077D0000A24C2B000292CD0142569460D714B71C2
:1077E000CC80517814780B02234369460B81D17801
:1077F00094780B02234369464B81517914790B022B
:10780000234369468B81D17994790B0223436946DE
:10781000CB81517A137A0A021A4369460A820E22F0
:107820000A8005224A8012216A46FFF731FF42B0E2
:1078300070BDD17896780D027B4935438E88AE4273
:1078400002D169460C8119E00B7001244C81557AF4
:10785000167A2D0235438D81D57896782D023543E1
:107860004D80D57896782A0232438A8069460A800C
:10787000CC80FA224A808A8000220A810A460121AD
:10788000FFF774FFD3E7F0B5674CC3B0A389164682
:10789000054600292AD0002B26D05B1EA3817078D4
:1078A0003178000208436946888070783278010296
:1078B0006F461143B81D00F06EFE707831780202F9
:1078C0000A43B11CB81D00F04DFE707831780002FB
:1078D00008436946801C088062884A80001DC1B246
:1078E0006A462846FFF7D4FE43B0F0BD5B1CA38177
:1078F0006089002804D0401E0004000C6081F3D190
:10790000A088694608800120608148802178491C50
:107910000906090E217000D1207023786A460121E2
:107920002846FFF7F5FEDFE710B5C2B0449A0029FC
:107930000FD0012469460C714A710222CA800B8162
:1079400006220A8005224A800A216A46FFF7A0FE25
:10795000FCE640216A4611800121FEF715F8F5E6A4
:1079600070B505460C46C87889780002084304289B
:1079700004D005280BD0062812D10DE060782178BC
:1079800002020A43211D2846FFF7ABF808E0211D3B
:10799000284600F013F803E0211D284600F05FFDA3
:1079A000E078A178000208431F498988884204D101
:1079B000221D00212846FFF766FF70BD08B50A7832
:1079C000142A1BD004DC012A0ED0122A04D111E0A3
:1079D000152A19D0162A1DD04978002300911A467D
:1079E0000121FFF7A1FF08BD4A78002300920A1D7C
:1079F0001946F6E7091DFFF756FE08BD4B780A1D2C
:107A00000021FFF7E4FE08BD4B780A1D0021FFF7B7
:107A1000ADFE08BD4B780A1D0021FFF779FE08BDB9
:107A20007A0C000088150020B26E002010B5491CA9
:107A300011700B0A5370062393700023091DD37035
:107A4000C9B2FFF725FE10BD70B5FF4E0024E92036
:107A500080006043801905468035298B890410D544
:107A6000FA4903464218F949FF3320394118FF30DB
:107A7000EB33CB30FBF777FB288B0121490388439D
:107A80002883641CE4B2032CE1D370BD00B5C3B0FD
:107A9000002907D0052269460A714B716A46012107
:107AA000FFF7C4FF43B000BDF0B5C3B013460546B1
:107AB00000290FD00D206946087101A8102219462F
:107AC000013000F04FFD6A4610212846FFF7AEFF57
:107AD00043B0F0BDE92080002E464643DA4FDB4834
:107AE000F419403820181022194600F073FD0028C0
:107AF00006D00B23002201212846FFF7C7FFE7E746
:107B0000E9218900D04B6943C9180020FF31213198
:107B100008E09A183318D218FF3200276132401C4F
:107B20009776C0B28B781027C74AFF1A8742F0DCDD
:107B3000002000906946019008812146FF3102A88B
:107B40002C310822023000F00DFD2146FF3104A83F
:107B500024310422023000F005FD69462846FCF776
:107B600039FCB5E7F7B5C2B000290FD0042069464B
:107B7000087101A810220130449900F0F3FC6A4614
:107B800010214298FFF752FF45B0F0BDE92142981D
:107B900089004843AC4A06908418CE20015B002936
:107BA000F2D02046FF3021300A90C27EE92342986D
:107BB0009B005843A44BC0180346FF335B3320930C
:107BC00003460E332293D43321939B1E1D461E463B
:107BD0001F469A358A366A372393012A19D02146DF
:107BE0002198E1310390229A20460B461A300192E7
:107BF0000291623300900497DA1F28464499FFF7F8
:107C0000DEFA38461022209900F0E4FC002875D0F6
:107C10002EE0002310930A06E92142988900484388
:107C200089490D9340180146FF3112938B3103911E
:107C300086490E93203940180F9311931393149390
:107C40000290002A43DB824801210278406891407B
:107C500081430FD080230097449A03990298FFF73D
:107C600020FB38461022209900F0B4FC002803D0F5
:107C700004233DE08123EEE775480178491CC9B231
:107C80000170142913D2012240688A4082430CD02B
:107C900080230097324602990398FFF702FB3A4689
:107CA0000121429800F0D9F86EE78123F1E741689D
:107CB00008A80A0C827510A882710A0A08A84275E1
:107CC00010A8427108A8017510A801710BE0009777
:107CD000449A0399FFF7E5FA38461022209900F0FC
:107CE00079FC0028C4D19820005B800407D50B23C1
:107CF000002201214298FFF7C9FE45E76DE027A861
:107D000000903246449B02990398FFF770FB0822CB
:107D100015A8229900F026FC082217A8219900F046
:107D200021FCA07E002800D0012010A9887623988D
:107D3000407801284FD0012018A9887004A801902C
:107D4000204617AFFF300097EB3015AB3146449A11
:107D5000FFF7CAFA2046F230102204A900F002FC14
:107D60002846102204A900F0FDFB08A80FC81AAD90
:107D70000FC52146FF313E3103222BA800F0F2FB54
:107D8000FF2045300059269030482BA9303825185F
:107D900015A80395009101900297314611AB1AA8DE
:107DA000449AFFF7EFFA294815A94038201826AA67
:107DB000039000920291019732460DAB1AA84499A4
:107DC000FFF7E0FA27A8FFF73EFB2A460121429879
:107DD000FFF76AFED8E60020AEE72B4600273246C2
:107DE00018464499FFF742FA00221748102308E08A
:107DF0000D180699C9196918FF3161317F1C8A76FF
:107E0000FFB20A9989785D1ABD42F1DC2146EA3158
:107E10000822684600F0A6FB23986946008908817D
:107E20002146FF3102A82C310822023000F09AFBD3
:107E30002146FF3104A824310422023000F092FBD5
:107E40006946429806E00000881500204A020000BA
:107E5000C8010020FCF7BEFA96E630B5C3B0134661
:107E6000054600290FD003206946087101A8102299
:107E70001946013000F076FB6A4610212846FFF7CC
:107E8000D5FD43B030BDE9208000FB49684344186C
:107E9000CE20005B0028F4D0FF202330005DC01FFF
:107EA00009280ED82046FF305B301022194600F01A
:107EB00059FB2246FF326B3201212846FFF752FE62
:107EC000DFE70623002201212846FFF7DFFDD8E780
:107ED000F1B586B0E921069889004843E6490027B4
:107EE00044182046FF307B300646102100F053FB3B
:107EF000FF203C30015D2046FF306B300546203DC1
:107F0000012917D02146E2314A1E03912346C83980
:107F10000E3300910193029201460495EB1F5B32F0
:107F20003046FFF74CF92A4601210698FFF795FFE6
:107F300007B0F0BD02462146D048FF318B312018F2
:107F40003B460095FFF7ADF9F2E7F3B585B00020A9
:107F50000090009A0A235A4300920A5C009B401C3E
:107F6000D218C0B200920628F3D3E92105988900FF
:107F70004843C14944182046FF307B300646102153
:107F800000F009FB20466946FF30097861308176B0
:107F900069464978C1766946897801776946C97822
:107FA00041772546FF20FF353C306B35005D2F467D
:107FB000203F012816D02046E230411E2246039081
:107FC0000E32C83801920291FB1F00900497DA1F0D
:107FD00029463046FFF7F3F83A4601210598FFF7A6
:107FE0003CFFA5E7A6490098002248600A700121DD
:107FF000814317D0802000260190FBF735FBA119A3
:10800000FF316131761CF6B28872102EF5D39B4891
:108010002A4621182046FF308B300097019BFFF73E
:1080200040F9D9E78120E6E770B50546E9208000F0
:10803000914968434018FF213C310A5C0146FF31F9
:108040006B310C46203C86B0012A17D00246E23242
:10805000531E064603920293C83A0E3662330092CC
:10806000FF3001960494DA1F7B30FFF7A8F8224610
:1080700001212846FFF7F1FE06B070BDFF300A4629
:108080008B30002301460094FFF70BF9F4E730B57D
:1080900015462035C3B013460446002914D00C20E1
:1080A0006946087101A820221946013000F05AFAE9
:1080B00009A820222946013000F054FA6A464021DE
:1080C0002046FFF7B3FCDCE6E920800044436A4821
:1080D0002022241869481946201800F043FA6748FE
:1080E000202220302018294600F03CFA8034208BD2
:1080F0000121490308432083C3E670B504460E46B8
:10810000E92080005C4960434018FF21C2B001258E
:108110003D310D54FF30062231463E3000F022FA48
:108120006846057106223146401D00F01BFA6A467A
:1081300006212046FFF77AFC42B070BDF3B5C8783F
:1081400091B00E46072807D206230022012111987C
:10815000FFF79CFC13B0F0BDE9211198890048435A
:10816000454902224518FF20443042552846FF3039
:10817000002745300622314600F0F4F92846FF304A
:10818000213010211090817070792C46C007C034C6
:10819000002803D0607C0321084360747079810754
:1081A0000C20002902DA617C014361743179C9072E
:1081B00003D0217C0222114321743179890702D531
:1081C000217C01432174F078102801D21099887025
:1081D000E922119892005043274A31788018803064
:1081E00080230090032902D0B07840070BD4E089A7
:1081F0001843E081000620D52846FF307B3010214F
:1082000000F0C9F919E07078012803D10098C07C0A
:1082100001280AD000980A22807C49005043194A5C
:108220008018475A802F05D007E0E08901214902D4
:10823000084301E0E0891843E081B078000723D5C6
:108240000098007D00071FD510980121C1762946AE
:10825000FF318B312022684600F084F92946FF3136
:10826000AB31202208A800F07DF96A46012111985F
:10827000FFF70DFF0BE00000881500202A02000028
:10828000C8010020BC84011010980021C176E0894B
:10829000010603D51198FFF71BFE5BE7810503D5A7
:1082A0001198FFF7C1FE55E7FF2101318F4202D03F
:1082B00089008F42F1D10843E0814BE7F0B50546D4
:1082C0001746E920914A8000684383181C46F72628
:1082D000C034C3B0002912D0092168460171997ECB
:1082E000417107223946401D00F03CF96A460721DA
:1082F0002846FFF79BFB207C3040207431E4607CF3
:1083000030406074FAD1284600F02FF829E470B5A7
:1083100005461346E9207D4A8000684380180446DC
:10832000FB26C034C2B0002911D00820694608716C
:1083300001A810221946013000F014F96A461021F4
:108340002846FFF773FB207C30402074F4E6FF30B2
:1083500010221946133000F005F9607C304060743B
:10836000F4D1284600F001F8E6E6F0B50746E9202A
:1083700080006649784344182646C036307C85B074
:10838000800723D50025FBF76FF96119E0316D1CDB
:10839000EDB20872022DF6D30025FBF765F96119DD
:1083A000E0316D1CEDB28872082DF6D3E820005B39
:1083B00069460880214600A8EA310822023000F010
:1083C000D1F86A460121384600F022F8307C400797
:1083D0000AD5E11DFB311022684600F0C3F86A4659
:1083E00001213846FFF793FF307C00070ED5A07EB1
:1083F00069460870214600A80E310622013000F0BF
:10840000B1F86A4601213846FFF758FF05B0F0BDC4
:1084100070B513460546E9223C4892006A43141899
:10842000FD26C034C2B0002911D00720694608716A
:1084300001A80A221946013000F094F86A460A2180
:108440002846FFF7F3FA207C3040207474E6607C05
:1084500030406074FAD12846FFF787FF6CE67CB5A0
:10846000E9220D789200294B4243D418AD1E2B000F
:1084700000F0E5FB0C070B10151B272C310A3642C8
:10848000470A491CFFF75AFE7CBD4A1C0021FFF732
:10849000E4FC7CBD4A1C0021FFF764FB7CBD00238B
:1084A0004A1C1946FFF7F2FA7CBD2046F230102232
:1084B000491C00F057F8C034607C400840006074EC
:1084C0007CBD4A1C0021FFF7A3FF7CBD4A1C002194
:1084D000FFF71DFF7CBD4A1C0021FFF7EFFE7CBDAE
:1084E0000546214692310622684600F03BF869466F
:1084F0002846FFF702FE7CBD4A1C0021FFF7C7FD9E
:108500007CBD4A1C0021FFF7CFFA7CBD88150020F6
:1085100030B50B46014600202022012409E00D461B
:10852000D5409D4205D31D469540491B25469540A3
:1085300040191546521E002DF1DC30BD70B50024E7
:108540002546002801DA01244042002901DA0125EC
:108550004942FFF7DDFFAC4200D04042002C00D082
:10856000494270BD03460B439B0703D009E008C98D
:10857000121F08C0042AFAD203E00B780370401CD3
:10858000491C521EF9D27047D2B201E00270401C61
:10859000491EFBD270470022F6E710B513460A4683
:1085A00004461946FFF7F0FF204610BD30B50546DA
:1085B0002A460B4610781C78521C5B1C002801D000
:1085C000A042F7D0002C03D0002802D06D1CEFE7AA
:1085D000284630BD30B504460020034600E05B1C51
:1085E000934203D2E05CCD5C401BF8D030BD032148
:1085F000001D401E037812021A43491EF9D5104689
:108600007047034603220870000A491C521EFAD51F
:1086100018467047F0B51FB40646002082B00546E4
:108620004024019100901BE0019922460F463046FC
:1086300000F008FA049A059B801A994110D310465D
:108640001946224600F0EEF9361A8F41019722466C
:1086500001200021009F00F0E5F938184D410090FD
:108660002046641E0028DFDC019B00982946324624
:1086700007B0F0BDF0B507460846584087B0C00FB8
:10868000049048000E46590040084908BC1A884129
:1086900005D2384631461E4617460B46024658005C
:1086A000400810434CD0300D039040055900400D58
:1086B000490D0590401A0290402872DA18030121F2
:1086C000000B09050843019004980092002805D08A
:1086D0000199524200208841009201900298402165
:1086E0000A1A0199009800F09DF905460C466B4660
:1086F00007CB00F0B8F9C0197141039A0E0D0023A1
:10870000D71756401A467A40164344D0049A002A96
:108710002DD0029A012A039A15DC1205C01A914144
:1087200001263605001C7141D20F059ED207009329
:10873000019202962A46234600F0B5F907B0F0BD33
:1087400038463146FAE71605224A0F46B218C01AD3
:10875000B74101210905001C4F4100187F41114616
:1087600018187941E20F10436D19644113E0E207D4
:108770006D0815436408C2071443039A01261205C5
:10878000C01A91413605001C7141CE0740083043A4
:108790004908C01851412A46234600F077F9CDE731
:1087A000FFE7049801224000C117121A00238B41F1
:1087B00004983146C417381AA141EEE730B40124B9
:1087C000E407634030BC55E730B40124E40761405E
:1087D00030BC4FE70000E0FFF0B51FB488B00B9944
:1087E0000998002448400999C00F49004908099197
:1087F000C0070B990090490049080B910999089806
:10880000A64608431CD00B990A98084318D009982B
:1088100001244000420D4800410D09982405000341
:10882000000B204309900B980003000B20430B9092
:1088300050181C494018002201901446104605E0CB
:10884000002001460DB0F0BD032801DA034600E028
:1088500003239C46C11A0AAE0AE05F0008ADED5B37
:108860004F00F75B7D430027AA187C41491C5B1E23
:108870006145F2DD410004AB5A522104120C0A4357
:10888000240C401C0828DFDB0198029000997046F8
:1088900001910090059B049A0799069800F003F94E
:1088A000D0E700000DFCFFFFF0B50C465C4085B042
:1088B000E40FE40703944C00002664085900944632
:1088C000490802460296224321D062460A431ED03E
:1088D0006200570D4A000E032303550D0124024682
:1088E0002C492405781B1B0B360B401823432643C9
:1088F000614600901C46501AB44103D30098401CB6
:10890000009002E0921800985B41002803DA0020F2
:10891000014605B0F0BD0020012109050746864645
:1089200011E064461D46141BB54106D36546521B33
:10893000B341744607430C43A646CD074008490897
:10894000284392185B4105460D43EAD1104618436F
:1089500013D06046194650407140084306D0604627
:10896000101AB34106D20122002306E0002201239F
:10897000DB0702E00122D243531000987446010540
:10898000381C6141029C039D0019694100F07EF88A
:10899000BFE70000FD0300004A0009030123090BA3
:1089A0001B0519430A4B10B5520D9A4202DA0020FA
:1089B000014610BD064B34339A4203DC9A1A00F08C
:1089C00041F810BD034BD21800F02CF810BD000088
:1089D000FF030000CDFBFFFF10B5002904DB0124DD
:1089E000E40740428C412146002B04DB1C46012356
:1089F000DB075242A341994200D1904210BD0000D2
:108A0000064C0125064E05E0E36807CC2B430C3CE1
:108A100098471034B442F7D3F7F756FBF0840110AF
:108A20001085011010B5202A04DB0146203A914040
:108A3000002010BD914020239C1A0346E3401943B7
:108A4000904010BD10B5202A04DB0846203AD040E3
:108A5000002110BD0B46D340D0402024A21A9140E3
:108A60000843194610BD10B5202A06DBCB1708466F
:108A7000203A1041C1170B4306E00B461341D0408A
:108A80002024A21A91400843194610BD10B5002BAE
:108A900008DA0024401C614192185B411A4301D15D
:108AA0004008400010BDF0B51FB482B005460C0070
:108AB00003D0084600F0ACF802E000F0A9F820303E
:108AC0000246009021462846FFF7ACFF049B059A1A
:108AD00004460F4618431143084314D01846104368
:108AE0001BD0009840210A1A18460599FFF7AAFFE3
:108AF00005460E46009A05990498FFF793FF084330
:108B000005D0012004E02046394607B0F0BD002022
:108B1000C11705430E432C43374300990E98630554
:108B2000401A7905E40A00220C43FD0A0A3002D5F6
:108B300000200146E9E70105101969410C9C0D9DD3
:108B400000196941FFF7A2FFDFE770B58C180578BF
:108B5000401C6B075B0F01D10378401C2A1106D122
:108B60000278401C03E006780E70401C491C5B1E16
:108B7000F9D12B0705D40023521E0DD40B70491CCC
:108B8000FAE70378401CCB1A921C03E01D780D70A5
:108B9000491C5B1C521EF9D5A142D8D3002070BDE0
:108BA00010B5104B002A03D0DC7E6406640EDC7620
:108BB00000BF30BF401EFDD20028FBDC0028F9DCDE
:108BC000002A03D0D87E80221043D876002907D00F
:108BD000054801690122114301610169C903FCD5FE
:108BE00010BD00006010005000E000E037B51446F2
:108BF0000846064B6A46214600F0EAF804466946F4
:108C0000002000F081FC20463EBD000009950010C8
:108C10002021020C01D010211046020A01D010467A
:108C20000839020901D01046091F820801D01046F8
:108C3000891E420801D0881E7047081A704730B458
:108C40007446641E2578641CAB4200D21D46635DE9
:108C50005B00E31830BC184702E008C8121F08C1C7
:108C6000002AFAD170477047002001E001C1121FAD
:108C7000002AFBD170470000F0B51FB484B00798FC
:108C80000699020D014314D04A484B491018484335
:108C900005140F9801280E981CD0281A401C002497
:108CA000464E4749009401910290002814DA474249
:108CB00027E00F98012443A3012808D0002104983D
:108CC0000F9A84600360C260416009B0F0BD0E98E5
:108CD000C143F4E74042E2E7074612E0F80707D055
:108CE0002246334601990098FFF776FD01910090E6
:108CF0002246334610461946FFF76EFD04460E46DF
:108D00007F10002FEAD10298019B0028009A079952
:108D1000069802DAFFF760FD01E0FFF7C5FD0446A3
:108D20000E460022284BFFF757FE03D80020C04311
:108D3000014607E00022254B20463146FFF79AFC0A
:108D4000FFF72AFE102409E0002C0ADB0A22002388
:108D5000FFF760FC059B30321A55641E02460A4339
:108D6000F2D11122641C059B121B1C190F9B012BB5
:108D700003D0012308430ED10AE0084304D0112098
:108D80000E9000200F9084E70E98151A6D1E0BE0D0
:108D90000E98824202DD00236D1C03E0824201DA5C
:108DA00000236D1E002BEED004980F998260C160E5
:108DB00030C08AE701FCFFFF104D00000000244096
:108DC0000000F03F300000000000F0430000E03FF2
:108DD000FFB597B00646002518E2252877D1002474
:108DE0002746FD49049400E00443761C32780120B4
:108DF000203A90400842F7D130782A280ED002223B
:108E0000307801463039092916D804990A23594384
:108E1000303940181443761C0490F1E7189802C8C2
:108E200004911890002904DA0120400304434842C9
:108E3000049002200443761C30782E2814D104209C
:108E400004437078761C2A2809D11898761C80C8AB
:108E5000189009E00A214F43303FC719761C30783B
:108E6000014630390929F5D930786C2810D006DC54
:108E70004C281AD068280ED06A2817D104E074282C
:108E800013D07A2812D110E00120400504430CE0F1
:108E90000121090501E0032109050C437178814294
:108EA00003D1012000052418761C761C307811901F
:108EB00066280BD013DC58287DD009DC00287BD035
:108EC0004528F6D04628F4D047281AD1A5E118E065
:108ED000632835D0642870D0652812D19DE17028B0
:108EE0006CD008DC6728F1D069287BD06E280DD0C3
:108EF0006F2806D1BAE073282ED0752871D0782853
:108F000059D01A9A199990476D1C7EE16002400F62
:108F1000022809D003280DD00428189801680DD024
:108F20000D60001D189070E11898EA1701680D6037
:108F30004A60F6E7189801680D80F2E70D70F0E7D7
:108F400018986A4601781172001D1890002050721E
:108F500002A80090012005E0189802C8189000208F
:108F60000091C04361070DD5002101E00199491C22
:108F70000191B94212DA8142F8DB009A515C002972
:108F8000F4D10BE0002101E00199491C01918142DB
:108F9000FADB019A0099895C0029F5D101990498BE
:108FA0001A9B471A21463846199A00F097FA0199F8
:108FB000401945180BE04FE02CE113E04EE000981B
:108FC00000990078491C00911A9A199990470198C4
:108FD000401E0190401CF2D1214638461A9B199A36
:108FE00010E137E00A200021009001916002410F5A
:108FF000022907D0189A01CA1892C2179446032969
:1090000008D00AE01898C01DC108C90005C9189108
:10901000944607E000B2C2179446042902D140B238
:10902000C1178C4600226146944506DA0A460021A3
:10903000404291418C462D2102E0210504D52B218F
:109040006A461173012103E0E10701D02021F7E70F
:10905000029155E00A200AE0102008E0102000905C
:109060000021042004430191082703E00820002187
:10907000019100906002410F022907D0189A01CA9D
:10908000189200229446032908D008E01898C01DC1
:10909000C108C90005C91891944603E080B20429AB
:1090A00000D1C0B200210291210729D51199702960
:1090B00006D0009A1021019B4A401A4305D00EE0C9
:1090C00040216A461173012108E06146014306D040
:1090D00030216A4611731199517302210291009A4D
:1090E0000821019B4A401A430AD16146014301D13C
:1090F000610705D530216A46117301217F1E029157
:109100001199582904D035A10E910DA90D910DE0AA
:1091100037A1F9E76146019B009AFFF77BFA0E9BA6
:109120008C469B5C0D9A521E0D9213706146014352
:10913000F0D10D9805A9081A20300190600703D5D9
:1091400001200004844300E001270198874201DDEB
:10915000381A00E00020019900904118029809187F
:109160000498401A0490E00306D421461A9B199AE9
:10917000049800F0B3F94519002706E003A81A9AED
:10918000C05D199990476D1C7F1C02988742F5DBE2
:10919000E0030CD521461A9B199A049800F09EF919
:1091A000451904E01A9A3020199990476D1C0099CE
:1091B000481E00900029F5DC08E00D980D99007814
:1091C000491C0D911A9A199990476D1C0199481ED6
:1091D00001900029F1DC63E10928010030313233CC
:1091E00034353637383961626364656600000000E3
:1091F00030313233343536373839414243444546CD
:109200000000000000F05AF94519761C307800285B
:1092100000D0E2E528461BB0F0BD600700D4062769
:109220001898C01DC108C90048680A680831C30FF2
:10923000DB071891190001D09CA108E0210501D598
:109240009BA104E0E10701D09AA100E09AA14300AC
:1092500011985B08109165280CD006DC452809D0D0
:1092600046281DD0472841D141E0662818D06728FC
:109270003CD13CE00021112F01DB112000E0781CE3
:109280000191009008A911A8FFF7F6FC1399059128
:109290000021119A15927F1C12980197009150E0BD
:1092A0000120C00703900120019008A9009711A890
:1092B000FFF7E2FC139A149905920022119B009289
:1092C00012981593059A0192002901D0104602E0E8
:1092D000791C40180190381A01D5019804E04042E9
:1092E000401E0090781C0190C01B029043E0012FAB
:1092F00000DA01270021112F01DD112000E038469E
:109300000191009008A911A8FFF7B6FC13990591E7
:10931000119A0021129815920091019721070CD4FF
:109320000599B94201DB019900E00191012904DDB1
:10933000159A491E515C302906D0B84201DA011D48
:1093400005DA0121029115E00199491EEDE7002897
:1093500005DC0099411800910199091A03E0019A6E
:10936000411C914200DD01910099401A401C02907D
:109370000120C0070390200706D40299019881427A
:1093800002DB0020C043029000206946C87707AF87
:10939000012103980337C907884224D00220119085
:1093A0002B201290039800280CDA404203902D20C5
:1093B000129007E00A210398FFF7AAF830317F1EC8
:1093C000039039701199481E11900029F2DC03981E
:1093D0000028EFD1791E12980870307820210840BB
:1093E0004530BF1E387006A8C01BC01D03901098E2
:1093F0000078002800D00120019941180298C01778
:109400000918039809180498401A401E0490E003B4
:1094100006D421461A9B199A049800F05FF8451962
:1094200010980078002803D01A9A199990476D1C5B
:10943000E00324D521461A9B199A049800F04EF8AF
:1094400045191CE00098002807DB00990598884220
:1094500003DD1598405C199901E0199930201A9A9A
:10946000904700986D1C401C00900298401E02908E
:10947000002804D11A9A2E20199990476D1C019941
:10948000481E01900029DDDC05E038781A9A7F1C1F
:10949000199990476D1C0399481E03900029F4DC2C
:1094A00021461A9B199A0498ACE600002D00000092
:1094B0002B0000002000000000000000F8B504466A
:1094C00000251E461746880404D405E039462020AE
:1094D000B0476D1C641EF9D52846F8BDFFB504469B
:1094E000002581B01E46C80301D5302700E02027A3
:1094F000880404D505E038460399B0476D1C641E06
:10950000F9D5284605B0F0BD0A68531C0B601070F1
:109510007047000010B5002823D0124B0022001F16
:10952000196803E0814203D80A4649680029F9D145
:10953000002A0AD01368841A9C4204D100681818C3
:109540001060104602E0506000E01860002907D06B
:1095500002680B1A934203D10B68D2180260496863
:10956000416010BDD0010020F0B50B30C108C9002A
:10957000144F0026144A0FE003688B420BD38B4232
:1095800005D95C1A4318456830C3083B00E04368BE
:10959000136002C004E0021D10680028ECD13046C0
:1095A000002803D13868002801D00020F0BD064A09
:1095B00006481060064A121AD208D20044C00120A0
:1095C0003860D7E7D4010020D0010020C46F00200C
:1095D000C0AF002003010003001F00200000000FA7
:1095E00018192A260027000000E7FEC8FE2C002DCF
:1095F0000000000AFFFF0000FFFFFFFF000009015D
:109600000000280700001809080000280B000118B6
:10961000090C0000281A000A18091B000028200065
:1096200001000921000028230000FF092400002870
:1096300027000F180928000028FFFFE7FE0A020094
:1096400003280A0300002A0A040003280205000177
:109650002A0A06000328020700042A0A0900032830
:10966000020A00052A0A0D000328020E00292A0A10
:109670000F000328021000242A0A110003280212F6
:1096800000252A0A13000328021400272A0A1500BD
:109690000328021600262A0A1700032802180028A9
:1096A0002A0A19000328021A00502A0A1C0003285B
:1096B000081D0002000A1E000328101F0003000AF4
:1096C000220003280A230001FF0A2500032812268E
:1096D00000192A0A29000328082A00C7FE0A2B00BD
:1096E0000328222C00C8FE0A2E000328022F00C9DE
:1096F000FE0AFFFF000000FFFF000014000300103F
:10970000002A53594420424C45204D6F757365091A
:1097100000050010012AC2030F00070010042A06EA
:10972000000600300064000B000A0010052A00004B
:10973000000009000B0010022900000A000E0010B2
:10974000292A5359441400100010242A424C452D54
:109750004D4F44454C2D3030310E00120010252A5B
:10976000424C452D3030310A00140010272A312E8A
:10977000300A00160010262A312E300A0018001078
:10978000282A312E300E001A0010502A023A0954AD
:109790004201001C001D001002000000000000003B
:1097A0000000000000000000000000000000001C9D
:1097B000001F001003000000000000000000000077
:1097C0000000000000000000000000090020001060
:1097D000022900001C0023001001FF00000000000F
:1097E0000000000000000000000000000000000079
:1097F0000800260010192A64090027001002290019
:10980000001C002A0010C7FE00000000000000003D
:10981000000000000000000000000000001C002C00
:109820000010C8FE00000000000000000000000062
:1098300000000000000000000009002D00100229B7
:1098400000001C002F0010C9FE00000000000000F6
:109850000000000000000000000000000000FFFF0A
:10986000FFFF006D002031220010392200103B2242
:1098700000100000000000000000000000000000D8
:1098800000000000000000000000000000003D2279
:10989000001000000000000000003F2200104122E4
:1098A00000103B1700100F5A0010432200104322F3
:1098B000001043220010432200101F190010432201
:1098C000001043220010B11E0010D51E0010F91E1A
:1098D00000101D1F0010411F0010432200104322E2
:1098E00000104322001043220010432200104322A4
:1098F0000010432200104322001043220010432294
:10990000001043220010131A0010432200104322BB
:109910000010432200104322001043220010432273
:10992000001000F002F800F0BDF80CA030C80838B4
:1099300024182D18A246671EAB4654465D46AC421D
:1099400001D100F0AFF87E460F3E0FCCB64601269F
:10995000334200D0FB1AA246AB4633431847F4E625
:10996000000014E70000103A02D378C878C1FAD892
:10997000520701D330C830C101D504680C6070476C
:1099800000000023002400250026103A01D378C1EE
:10999000FBD8520700D330C100D50B60704710B51B
:1099A0006E2902D107F02FFE10BD702902D107F0F9
:1099B00069FF10BD662902D108F0FBFF10BD6529C3
:1099C00002D108F0F6FF10BD672902D108F0F1FFBF
:1099D00010BD612902D1C046C04610BD03681B0AF4
:1099E00001D380231943692902D107F0D6FD10BDA8
:1099F000642902D107F0D1FD10BD752902D107F00D
:109A0000CCFD10BD6F2902D107F0E7FE10BD78290B
:109A100002D107F024FF10BDE92902D107F083FE2F
:109A200010BDE42902D107F07EFE10BDF52902D158
:109A300007F079FE10BDEF2902D107F0DAFE10BD64
:109A4000F82902D107F019FF10BD0368DB0901D323
:109A500080231943632902D108F090FA10BD7329BD
:109A600002D108F093FA10BDE32902D108F09DFA63
:109A700010BDF32902D108F0A0FA10BD002010BDDE
:109A80001FB508F0FAFA04000020002108F0CDFE0E
:109A9000401C60600020002108F0B1FEE0601FBDA6
:109AA00010B510BD08F0C1FA1146FFF7E9FF00F04C
:109AB00074FD08F0E2FD03B4FFF7F2FF03BC08F009
:109AC0002CFE00B52D1D00BD000070B505460C46EE
:109AD000164602E00FCC0FC5103E102EFAD2082E0B
:109AE00002D303CC03C5083E042E07D301CC01C525
:109AF000361F03E021782970641C6D1C761EF9D294
:109B000070BD1FB5002168460170072141721921FF
:109B100089014181F749818103218173002101720B
:109B200002F013F8F44801F0FCFFF2484078F249E3
:109B3000C873F04880780874EF48C0784874ED48DE
:109B400000798874EC484079C874EA4880790875CF
:109B5000EB480378EB480178EB4AE74801F0F8FF5F
:109B60001FBD3EB504460D46E848007801280FD1D8
:109B7000012168460180032141801F21818001214C
:109B8000018123462A466946012002F0FFFA3EBDC4
:109B90000020FCE710B586B00446DCA103C90191A2
:109BA000009004A802F05CF96846428A018AD9A0B4
:109BB00001F0B7FC002C02D0012C3CD120E068461B
:109BC000408A002814D06846008A102810DD002042
:109BD000D8490870102168464181C821C1810021FF
:109BE0008181C02101720421417202A802F074FF38
:109BF000D1A001F096FC05216846FFF7B2FF1AE0FC
:109C00006846408A0A2815DA6846008A502811DA20
:109C10005021684641810A2181814B21C900C181BF
:109C2000C02101720421417202A802F055FFC7A0B1
:109C300001F077FC00BF00BF06B010BD13B584B0C3
:109C40006846408A15214902884209D1C6A207CA3E
:109C500001AB07C3092401A9204602F079FA9CE070
:109C60006846408AC349884208D1C2A00068039070
:109C7000022403A9204602F06BFA8EE06846408A6F
:109C8000BC492831884209D1BCA103C90391029083
:109C9000082402A9204602F05BFA7EE06846408A6A
:109CA000B4492331884209D1B6A003C80391029078
:109CB000072402A9204602F04BFA6EE06846408A6B
:109CC000AC492431884209D1B0A103C90391029063
:109CD000052402A9204602F03BFA5EE06846408A6D
:109CE000A4492631884208D1AAA000680390042420
:109CF00003A9204602F02CFA4FE06846408A9C49AE
:109D00002531884208D1A3A000680390042403A948
:109D1000204602F01DFA40E06846408A9549273106
:109D2000884208D19DA000680390042403A920461E
:109D300002F00EFA31E06846408A8D494F31884280
:109D400009D196A103C903910290072402A92046D4
:109D500002F0FEF921E06846408A9249884207D124
:109D600092A000680390042103A8FFF7FAFE14E014
:109D70006846408A8C49383188420DD100210391D0
:109D80000020029003A902A801F060FE02A9684623
:109D9000007B02F0DDF900E000BF06B010BD0FB49B
:109DA00010B568464089022807D16846827B03A91E
:109DB00003317E4801F044FC0DE068464089794952
:109DC0003831884207D100207A4908706846817B83
:109DD0000F3001F00FFE10BC08BC04B0184710B5DE
:109DE000FFB0FFB082B00446601C06F00CFD0128F5
:109DF00005D101F0B7FE6FA001F093FB91E1601C6B
:109E000006F001FD042814D100203F49087001200C
:109E10006E490870002046490870654908706B4912
:109E20000870634908700622A11D69A001F0B6FB05
:109E300077E1601C06F0E7FC08280DD1002062499C
:109E400008706249087030490870617967A001F0B4
:109E500068FB01F087FE64E1601C06F0D4FC012180
:109E6000C903884243D1A1796279080210430128CD
:109E700026D1217AE279080210432028BED1A17AA6
:109E8000627A0802104301280DD15FA001F049FB5E
:109E900001201D4908706148807E40218843403080
:109EA0005F4988763DE15EA001F03BFB002016494A
:109EB00008705A48807E402188435849887630E1AE
:109EC000A17962790802104337491E31884295D141
:109ED000217AE279080210432D288FD1A17A627A83
:109EE00008021043012803D15349087019E1A8E082
:109EF000A3E0FF3F000038000020130000203600E0
:109F0000002032000020340000200C000020FC0162
:109F1000000000000000696E74657276616C3A257D
:109F200078206C6174656E63793A25780D0A0000BB
:109F30000000100000205365745570646174652042
:109F40006F7461206C696E6B0D0A00000000536530
:109F50007455706461746520696F73206C696E6BF1
:109F60000D0A000000005359445F55415254460009
:109F70000000012A0000FFFF000053594420496EF1
:109F8000632E424C4520312E3000312E302E3000D1
:109F90000000322E3030332E3030342E3030023A42
:109FA00009050A020000C9FE000000010304500177
:109FB00000200F0000204741505F4556545F414448
:109FC000565F454E440D0A0000000E0000207C0044
:109FD00000204741505F4556545F434F4E4E454326
:109FE00054454420616464723A004741505F4556CD
:109FF000545F444953434F4E4E45435445442825EE
:10A00000303278290D0A0000000073746172745FA9
:10A01000747820656E61626C650D0A000000601046
:10A02000005073746172745F747820646973616244
:10A030006C650D0A00000D0000200020FE4908702C
:10A040006FE0601C06F0DFFB0121C902884210D1DD
:10A05000FF22F83221461531684606F073FBF64AB6
:10A06000611D7EA806F06EFB7EA80FC8FFF797FE65
:10A0700057E0601C06F0C7FB01218902884209D124
:10A080000822611DFEA806F05DFBFF99FE98FFF710
:10A09000D5FD46E0601C06F0B6FB0121890388422D
:10A0A0003FD0601C06F0AFFB102806D10120E34929
:10A0B0000870E3A001F035FA33E0601C06F0A3FB62
:10A0C000802803D1E4A001F02CFA2AE0601C06F0FD
:10A0D0009AFB01214902884223D1A17962790802C1
:10A0E0001043030008F05FFB0604080C1014181C52
:10A0F000DEA001F016FA13E0E2A001F012FA0FE080
:10A10000E6A001F00EFA0BE0EAA001F00AFA07E07F
:10A11000EEA001F006FA03E0F1A001F002FA00BFA0
:10A1200000BF7FB07FB002B010BD00B591B001F0AC
:10A13000E2FCEF480990EF480A90EF480B90EF4897
:10A140000C90EF480D9009A801F072FE03216846BB
:10A15000017700214177807F81088900491C68468A
:10A160008177807F042188430146684681771021EA
:10A17000C177002108A801700321417007A801F0F0
:10A180005AFE0621684681800921C180642101812F
:10A190004181062101733221417300218173C17312
:10A1A0000174012101A84173002181730221C1734F
:10A1B0000021017403214174002181740421C174C0
:10A1C00000210175052141750021817501F040FED6
:10A1D000CD49FF20013006F027FBCA49091DCA48B6
:10A1E00006F022FBC84801F09DFFC84801F0ADFF12
:10A1F000002002F0F3F8FFF784FC012108A80176A3
:10A20000002141760EA90231002006F00DFB0FA9B6
:10A210000231002006F008FB0EA802F05EF911B032
:10A2200000BDF8B5BB48007801286DD1BA4801F0EF
:10A230005AFA002868D100250024B64801F05CFADB
:10A240001421009006F002FB401CC6B2B24801F097
:10A2500053FA1421009006F0F9FACFB200BF4FE094
:10A26000701EA84225DCAC480078802108400028F8
:10A270000AD1002406E0A9480119A64801F01EFAF7
:10A28000601CC4B2BC42F6DBA448007880210843BD
:10A29000A24908703946A148FFF763FC002807D09F
:10A2A00000269D480078802188439B49087025E05E
:10A2B00028E0994800788021084000280AD100242D
:10A2C00006E096480119934801F0F8F9601CC4B201
:10A2D000142CF6DB91480078802108438F490870E0
:10A2E00014218E48FFF73DFC002806D08B480078EB
:10A2F000802188438949087000E003E0681CC5B2EA
:10A30000B542ADDB00BF00BFF8BD08B5002000902E
:10A3100004E001226946002001F008F869467D4802
:10A32000103001F0CBF90028F3D108BD10B57C48FE
:10A330000078401C7B4908700846007802280BDB37
:10A3400000200870012001F0A3FA724801F0CBF957
:10A35000002801D1FFF765FF10BD10B5012001F005
:10A3600097FA0123FF2248326F49184601F033FA69
:10A370000A2000F093F910BD10B5002433E0182C2A
:10A3800022D006DC022C15D0042C14D00B2C1ED1AC
:10A3900006E01E2C19D01F2C18D0222C17D100E05B
:10A3A00000BF0021204600F07FFE0121204600F082
:10A3B000FFFC15E000BF0021204600F075FE0021E3
:10A3C000204600F0F5FC0BE000BF00BF08E00021D4
:10A3D000204600F069FE0021204600F081FC00BF0D
:10A3E00000BF601CC4B2272CC9DB10BD70B5044689
:10A3F0000D460721142000F057FE0721152000F01C
:10A4000053FE002C07D00721122000F04DFE07213B
:10A41000132000F049FE062001218140434A1160CB
:10A4200000BF424800680078000900012907090FB1
:10A4300008433E497DE00D000020070200000F00A8
:10A4400000204741505F4556545F454E435F4B45A2
:10A45000590D0A0000004741505F4556545F454E74
:10A46000435F53544152540D0A0075706461746522
:10A47000207273702041434345505445440D0A00F7
:10A480000000757064617465207273702052454AD3
:10A4900045435445440D0A000000757064617465BD
:10A4A000207273702054494D45524F55540D0A0087
:10A4B0000000757064617465207273702053554399
:10A4C000434545440D0A00000000456E61626C651D
:10A4D000206C6174656E63790D0A000000004469A8
:10A4E0007361626C65206C6174656E63790D0A003E
:10A4F0000000609100108A9100107F910010C991B6
:10A50000001087920010000000207D050010080058
:10A5100000200C0000204001002012000020140147
:10A52000002011000020CB0A001080E100E058005C
:10A530000020096808705C48006800788021884322
:10A54000E1018022114008435849096808705648C3
:10A5500000680078402188435449096808705248CF
:10A56000006880780821884308304F49096888705E
:10A5700092004E494F4801F05AF84E48406A402137
:10A5800008434C4948620846006A4021084349494B
:10A590000862062000F082F870BD72B6FFF7C5FDB4
:10A5A000032001F031FF01F063FF002001F039FFCB
:10A5B00001F03DFFFFF7E0FE08210020FFF716FF46
:10A5C0000821002000F0F9FD3CA23EA141A000F0CE
:10A5D000A8FF47A000F0A5FF0122520249493448D4
:10A5E000103001F024F800210A2000F05DFD002168
:10A5F0000A2000F075FBFF210431424806F0FFF805
:10A6000062B601F0AFFA40A000F08BFF45E002F027
:10A6100043F83C488078022817D13A480078401E19
:10A62000C1B23848001D00F0FCF83C480078002812
:10A6300007D034480078401EC1B23248001D00F0F7
:10A640001BFA0421304806F0DAF80A2000F01CFC5E
:10A65000002822D1052000F0ECFC0A2000F014FCB8
:10A6600000281AD12FA000F05CFFFF2104312548FB
:10A6700006F0C5F800BF0A2000F006FC0028FAD05A
:10A68000FF20F53000F0D5FC2A492A4800F0B1F946
:10A6900000F0E7F929A000F044FFB8E7C206D20EA7
:10A6A000012191402B4A1160704758000020600141
:10A6B0000020400100200080022031343A31343A39
:10A6C0003339000000004A616E20313720323032C9
:10A6D0003200535944383832312055617274204F5A
:10A6E000746120546573742025733A25730D0A0034
:10A6F00000005359442D54454B2E496E630D0A00FA
:10A70000000060030020600500206761705F735FD8
:10A710006164765F73746172740D0A00000040001A
:10A7200000204B4559312050726573730D0A0000AB
:10A7300000004C500000EE93001055415254204D43
:10A740004153544552204F54412053746172740D4B
:10A750000A0000E100E038B504460D4600200090F4
:10A760000E2168460170022141708470C570042179
:10A7700000F029FE38BD10B5002401F0D1FE0446DA
:10A7800021461620FFF7E7FF10BD70B5044600BF55
:10A79000204606F038F80646607922790002104318
:10A7A0000146A21D304601F067FF054629461720E5
:10A7B000FFF7D1FF70BD70B5044600BF204606F01C
:10A7C00022F806463146D5A000F0ABFE607922792A
:10A7D000000210430146D7A000F0A3FE204606F079
:10A7E00012F8064660792179000208430346324692
:10A7F0000021084601F04BFF054629461820FFF7C7
:10A80000AAFF012D09D1D3A000F08BFEFF202D302F
:10A8100000F00FFC01F072FE02E0D7A000F081FE14
:10A8200070BD70B504460E4625462878162804D01B
:10A8300017280BD018281DD112E0D4A000F071FE0B
:10A84000FFF799FF0120D549087013E0D5A000F06B
:10A8500068FEA81CFFF799FF0220D049087009E0A4
:10A86000D6A000F05EFEA81CFFF7A5FF0320CB4991
:10A87000087000BF00BF70BD00B5A3B0882101A85B
:10A8800005F0BFFF162168460171022141710121C7
:10A89000C1804079801CC1B201A800F094FD23B0B2
:10A8A00000BD10B5A2B08821684605F0AAFF1821A6
:10A8B0006846017086214170C64805F0A4FF044631
:10A8C00000A9023105F0B0FFC248001D05F09BFF52
:10A8D00081B26846C1804078801CC1B2684600F0F1
:10A8E00072FD22B010BD70B5A2B08821684605F097
:10A8F00088FF8024172069460870B548103005F09D
:10A9000082FF0546B3480C3005F07DFF854261D2D9
:10A91000B048103005F077FFC501AD490831284631
:10A9200005F082FFAB48103005F06DFF0546A848E2
:10A930000C3005F068FF401E854224D1A54805F083
:10A9400062FF4406640EA248083005F05CFF05462D
:10A9500000A9023105F068FF6846C4808079801D37
:10A96000694648709B48143005F04DFF06469848EC
:10A97000083005F048FF35186846C288294602A805
:10A9800005F0E0FE1EE09248083005F03CFF054669
:10A9900000A9023105F048FF6846C4808079801D17
:10A9A000694648708B48143005F02DFF06468848EC
:10A9B000083005F028FF35186846C288294602A8E5
:10A9C00005F0C0FE68464078801CC1B2684600F0C1
:10A9D000FAFC0CE07F48103005F015FF05467C4876
:10A9E0000C3005F010FF854201D1FFF75AFF22B06D
:10A9F00070BDF8B506460C46002500207649087063
:10AA00001821734805F0FBFE72491431304605F0F9
:10AA10000BFF6F49204605F007FF00BF0BE06C48B5
:10AA2000001D05F0F0FE715D47186949091D3846A3
:10AA300005F0FAFE6D1CA542F1D3E00965490C3121
:10AA400005F0F2FE6006400E002809D061480C3087
:10AA500005F0D9FE471C5E490C31384605F0E4FE8E
:10AA6000F8BD10B55C480078002804D1FFF704FF5A
:10AA700001205849087010BDF8B505460F462C4610
:10AA800020780E2849D1A078162804D0172815D090
:10AA9000182841D12CE050A000F043FDE0780128B7
:10AAA00005D153A000F03DFDFFF71DFF05E056A0C6
:10AAB00000F037FD0220474908702DE059A000F052
:10AAC00030FDE07801280DD15DA000F02AFD40485E
:10AAD000103005F098FE461C3E491031304605F016
:10AAE000A3FE02E05EA000F01CFDFFF7FCFE13E0F9
:10AAF00062A000F016FDE078012806D167A000F002
:10AB000010FD03203449087005E06BA000F009FD3A
:10AB100002203049087000BF00BFF8BD0000705F20
:10AB2000636D642D3E737A2D2D2D2D2D3E307825AD
:10AB30003038780D0A00705F636D642D3E63686580
:10AB4000636B73756D2D2D2D2D2D3E30782530388E
:10AB5000780D0A00000055415254204F54412053B3
:10AB60005543434553532C205265736574204D4320
:10AB70005520696E670D0A00000055415254204F60
:10AB80005441204661696C65640D0A000000434D24
:10AB9000445F46575F45524153450D0A00003F0050
:10ABA0000020554152545F4F54415F434D445F571D
:10ABB000524954450D0A00000000554152545F4F60
:10ABC00054415F434D445F555047524144450D0A3F
:10ABD00000002801002040000020434D445F4657FC
:10ABE0005F45524153452052455455524E0D0A007F
:10ABF0000000434D445F46575F4552415345207323
:10AC00007563636573730D0A0000434D445F4657D7
:10AC10005F4552415345206661696C65640D0A00C9
:10AC20000000554152545F4F54415F434D445F57BC
:10AC3000524954452052455455524E0D0A00554133
:10AC400052545F4F54415F434D445F5752495445FE
:10AC500020737563636573730D0A0000000055412E
:10AC600052545F4F54415F434D445F5752495445DE
:10AC7000206661696C65640D0A00554152545F4F4E
:10AC800054415F434D445F55504752414445205223
:10AC9000455455524E0D0A000000554152545F4F25
:10ACA00054415F434D445F555047524144452073E2
:10ACB0007563636573730D0A0000554152545F4F0D
:10ACC00054415F434D445F555047524144452066CF
:10ACD00061696C65640D0A000000D1490860704725
:10ACE00070B5024620241440630920251446AC4365
:10ACF0000125A54028469C00CB4D2C592075050AFE
:10AD00006575050CA575050EE575002B13D000299A
:10AD100008D1C54D6D7D0543ECB2C34D6D7DC24E6E
:10AD2000747515E0C14D6D7D85432C46BF4D6D7D1D
:10AD3000BE4E74750CE0002905D1BB4C6468044319
:10AD4000BA4D6C6004E0B84C64688443B74D6C60E5
:10AD500070BD70B5024620241440630920251446B6
:10AD6000AC430125A5402846002B13D0002908D06C
:10AD7000AE4DED7D0543ECB2AC4DED7DAB4EF475C3
:10AD800015E0A94DED7D85432C46A74DED7DA64EE2
:10AD9000F4750CE0002905D0A44CE4680443A24DEE
:10ADA000EC6004E0A14CE46884439F4DEC6070BD0E
:10ADB00030B50B4620240440610920250446AC43ED
:10ADC0000125A5402A468C00974D2C592276150A5C
:10ADD0006576150CA576150EE576002B0AD08C004D
:10ADE000914D2C592271150A6571150CA571150E1E
:10ADF000E57109E08C008B4D2C592272150A6572A1
:10AE0000150CA572150EE57230BD10B52023034058
:10AE1000590920240346A34301249C4022468B0069
:10AE2000814CE3581A73140A5C73140C9C73140E4F
:10AE3000DC7310BD10B520230340590920240346BC
:10AE4000A34301249C4022468B00764CE3581A71A0
:10AE5000140A5C71140C9C71140EDC7110BD10B5D9
:10AE600020230340590920240346A34301249C4086
:10AE700022468B006C4CE3581A72140A5C72140C54
:10AE80009C72140EDC7210BD30B5014620200840C3
:10AE9000420920240846A043012484402346900010
:10AEA000614C2058403010240419257828466578D4
:10AEB0002D022843A5782D042843E4782406204356
:10AEC0001840002801D0012030BD0020FCE7F0B57B
:10AED00003460C46154620221A40500920261A46E1
:10AEE000B243012696403146002C0BD182004D4ED4
:10AEF000B258403211720E0A56720E0C96720E0E35
:10AF0000D6720AE08200474EB258403211710E0AE2
:10AF100056710E0C96710E0ED671002D0BD182005B
:10AF2000414EB258203211760E0A56760E0C9676A5
:10AF30000E0ED6760AE082003B4EB25820321175D2
:10AF40000E0A56750E0C96750E0ED6758200354E8D
:10AF5000B258203211710E0A56710E0C96710E0EF7
:10AF6000D671002201269640314F3E6000BFF0BDF1
:10AF700010B520230340590920240346A34301248C
:10AF80009C4022468B00274CE35820331A72140A47
:10AF90005C72140C9C72140EDC7210BD70B500242F
:10AFA0003CE0A000204908584030142141180A789C
:10AFB00010464A78120210438A7812041043C97866
:10AFC00009060843A100174A515820310A46137850
:10AFD000194653781B02194393781B041943D278FE
:10AFE0001206114308400546002D00D114E00C481C
:10AFF0000068002804D029462046094A1268904774
:10B00000A0000849085840300575290A4175290CE7
:10B010008175290EC17500BF601CC4B2022CC0DB53
:10B0200070BD4C000020440000204010005000E1A2
:10B0300000E0002109E0002201E0531C9AB27D23C8
:10B040009B019A42F9DB4B1C99B28142F3DB7047BA
:10B05000002107E0002201E0531C9AB2092AFBDB21
:10B060004B1C99B28142F5DB704710B50146272988
:10B0700001DA002902DA0020C04310BDCC07E40F3A
:10B08000202904DA4A101B480068835C05E0084662
:10B090002038421018484068835C002C01D01811F9
:10B0A000EBE71807000FE8E770B5272801DA00285A
:10B0B00000DA70BD0907090FC407E40F202804DA7D
:10B0C00043100C4E3668F21805E00646203E731019
:10B0D000094E7668F2181578002C01D00F2600E092
:10B0E000F0263540002C01D00E07310E2E460E43BF
:10B0F000167000BFDDE75000002070B504460D4615
:10B10000062000F07AF9C0480068007800090001C4
:10B110002907090F0843BC4909680870BB48006843
:10B12000007880218843E101802211400843B6491C
:10B1300009680870B5480068007840218843B24922
:10B1400009680870B1480068807808218843083091
:10B15000AE49096888709200AD49AD4800F067FAC1
:10B16000AD48406A40210843AB4948620846006A3E
:10B1700040210843A8490862062000F037F970BD55
:10B1800070B5A148006804783020604005469E48AC
:10B19000006805701020204000280DD000BF9A489C
:10B1A000006801799B4800F07BFA97480068C078F6
:10B1B000C007C00F0028F2D070BD70B504460D4620
:10B1C00007210020FFF770FF07210120FFF76CFF28
:10B1D000192000F012F98C4840680078000900013D
:10B1E0002907090F0843884949680870874840685B
:10B1F000007880218843E101802211400843824980
:10B2000049680870814840680078402188437E4939
:10B21000496808707D484068C07810218843103024
:10B220007A494968C870784840688078082188431E
:10B230000830754949688870920077497548103020
:10B2400000F0F5F9192000F0D1F870BD30B50B46CB
:10B25000002100BF84006C4D2C59247954544C1C9F
:10B26000E1B284002C59E478E407E40F002CF1D01B
:10B27000197030BD70B591B06448406805783020D1
:10B280006840064661484068067010202840002843
:10B290004AD06A4610A90120FFF7D8FF604880789D
:10B2A000002822D1684600785D4908700020487067
:10B2B00000240AE069460A5D59494878411C574B09
:10B2C0005970D91C0A54601CC4B210A8007884427A
:10B2D000F0DB01205249887008464078097888429E
:10B2E00021D102204E4988701DE04C488078012809
:10B2F00019D100240AE069460A5D48494878411C92
:10B30000474B5970D91C0A54601CC4B210A800786D
:10B310008442F0DB4248407841490978884202D1B2
:10B3200002203E49887000BF11B070BDF0B50B46D9
:10B3300001242404002112E000BF8500334E75591A
:10B34000ED782D07ED0F002DF7D1850075596D783B
:10B350005E5C354686002C4FBE597570491C914283
:10B36000EADB00E0641E8500284E7559ED786D0714
:10B37000ED0F002D01D1002CF4D1F0BD70B50446C5
:10B380000D4600BF022C01DB002070BD2101204AC8
:10B39000881800F0A8F900280AD120011D4940189A
:10B3A000C56821011B4A881800F0A6F9C0B2ECE775
:10B3B0000020EAE70146012901DD002070478800EE
:10B3C000124A1058FAE770B505460C46601C14493D
:10B3D0000870224629461248401C05F0B3F9601C4B
:10B3E000C2B20F490120FFF7A1FF70BDC206D20E05
:10B3F000012191400C4A11607047C206D20E012112
:10B400009140084A80321160704758000020600166
:10B410000020400100200080022060030020600521
:10B4200000206306002000E100E010B5024606207F
:10B4300001238340754C236000BF74480068007886
:10B44000000900010B071B0F1843704B1B68187095
:10B450006F480068007880239843D30180242340FC
:10B4600018436A4B1B6818706948006800784023CD
:10B4700098434030664B1B68187064480068C07879
:10B48000102398431030614B1B68D87060480068E7
:10B4900080780823984308305D4B1B6898705C489F
:10B4A000406A402318435A4B58621846006A4023AA
:10B4B0001843574B1862062001238340534C803CAD
:10B4C000236000BF10BDF0B50B4601242404002109
:10B4D00012E000BF85004D4E7559ED782D07ED0F38
:10B4E000002DF7D1850075596D785E5C3546860074
:10B4F000474FBE597570491C9142EADB00E0641E5B
:10B500008500424E7559ED786D07ED0F002D01D184
:10B51000002CF4D1F0BD10B508210020FFF785FF05
:10B5200010BD0FB438B500240498002803D138BCEE
:10B5300008BC04B0184705A800903648009A049942
:10B5400005F0C1F8C4B200200090802C00DD8024FA
:10B55000224630490020FFF7B6FF00BFE7E70FB4EF
:10B5600038B5054600240598002803D138BC08BC2E
:10B5700004B0184706A800902748009A059905F0DE
:10B58000A2F8C4B200200090802C00DD8024224666
:10B5900021492846FFF797FF00BFE7E7F8B50546C2
:10B5A0000E4617460024002D02D02846FFF7B9FFAB
:10B5B00000241BE02046E117490F0918C910C900F3
:10B5C000611A03D1A1B214A0FFF7ABFF315D14A043
:10B5D000FFF7A7FF601CC117490F0918C910C90060
:10B5E000411A02D111A0FFF79CFF641CBC42E1DBB1
:10B5F0002046E117490F0918C910C900611A02D085
:10B600000AA0FFF78EFFF8BD000080E100E06000B7
:10B61000002000800220630700205B253034785D25
:10B62000200025303278200000000D0A00000023A1
:10B63000436003608260C160704741680160704789
:10B64000F8B504460F46154660684019A16888425F
:10B650001ADB2089A188401A86B26268E1688818DE
:10B660003246394605F06EF8A81B85B22068A8421C
:10B6700002DC2088401E85B2B9192A46E06805F030
:10B6800061F865607019F8BD6268E16888182A463B
:10B69000394605F057F86068401960602846F2E7BF
:10B6A00002465368581C5060D068C1549368506873
:10B6B000984201DB00205060012070470246536829
:10B6C0001068984201D1002070471368581C106020
:10B6D000D068C05C087093681068984201DB002055
:10B6E00010600120F0E701464A680868904201D1E5
:10B6F000012070470020FCE7014600224B680868E3
:10B70000984200DD8A68486880180B68C01A704744
:10B71000000010B56E480068007E40084000401CE4
:10B720006B49096808766A480068002802D06849B1
:10B730000868804710BD10B565484068007E400825
:10B740004000401C6249496808766148406800280A
:10B7500002D05F494868804710BD10B55C488068DA
:10B76000007E40084000401C5949896808765848C6
:10B770008068002802D056498868804710BD10B5FF
:10B780005348C068007E40084000401C5049C968CA
:10B7900008764F48C068002802D04D49C8688047E5
:10B7A00010BD10B54A480069007E40084000401CAA
:10B7B00047490969087646480069002802D044498B
:10B7C0000869804710BD01468800404A105800783B
:10B7D000C007C00F7047F0B504460E461546204618
:10B7E000FFF7F1FF002801D1052C01DB0020F0BD9F
:10B7F000A00037490E50042C13D1A00034490A5838
:10B8000051791779090239430846917909040843A7
:10B81000A1002E4A51580D712A0A4A71280C8871CC
:10B820000EE0A0002A490958487909790002084326
:10B83000A9B20846A100254A51580871000A48716A
:10B84000002B0BD0A00021490858007F4008400081
:10B85000401CA1001E4A515808770CE0A0001B496B
:10B8600008582030007840084000401CA100174ACA
:10B87000515820310870A000154908580078400838
:10B880004000401CA100114A515808700120AEE749
:10B8900000B503461846FFF796FF002801D0052B98
:10B8A00000DB00BD980009490858007840084000B6
:10B8B0009900064A5158087000BFF2E70146880017
:10B8C000034A10580078C007C00F70470000680096
:10B8D0000020E407002070B504460E4615460E20F1
:10B8E000634909680870681C6149096848705F48C5
:10B8F000006884702A4631465D480068C01C04F028
:10B9000021FF70BD08B55AA0FFF70BFE00F008FE3E
:10B91000002802D00020009001E0012000900122C8
:10B9200069461620FFF7D7FF08BD38B50446002545
:10B9300000BF2CE0E01C415D524802790079401CB8
:10B94000C3B24F4803712038815420300079202839
:10B9500019DB4B492039096A4801494A203A20211C
:10B9600000F08AFE002802D00020009001E00120B3
:10B9700000900021434801712038006A401C404972
:10B980002039086201E000200090681CC5B2A07850
:10B99000A842CFDC012269461720FFF79CFF38BD83
:10B9A00038B5044637480079002808D0354A11795F
:10B9B000203A126A5001324A203A00F05DFE2046D9
:10B9C00004F021FF0546607921790002084303460F
:10B9D0002A460021084600F05AFE002802D0002026
:10B9E000009001E001200090012269461820FFF735
:10B9F00072FF38BD70B504460E46254628781628D5
:10BA000004D017280BD018281ED116E00020FEF70E
:10BA1000C1F8FFF777FF01201B49087014E0A81C4C
:10BA2000FFF783FF18480078002802D1022015494B
:10BA3000087000201549087006E0A81CFFF7B0FF49
:10BA400003201049087000BF00BF70BD70B50546E7
:10BA50000C46064800684078821C0C49284604F0D1
:10BA600071FE024800684078801C207070BD840020
:10BA70000020436D64467745726173650D0A0000CE
:10BA80000000180800207C0000207D0000207E00BF
:10BA900000200748804707480047FEE7FEE7FEE72B
:10BAA000FEE7FEE7FEE704480549054A064B7047F6
:10BAB000000071220010C1000010001D0020006D68
:10BAC0000020005D0020005D00200348044908605C
:10BAD0007047014802490860704740787D0188003E
:10BAE0000020F749202208781043EF22104004225A
:10BAF00010430870704710B5F3488047002802D003
:10BB000002F051FF012010BD10B502F0AFFF10BDD3
:10BB1000ED4928310847EB493C310847EA496C3187
:10BB20000847E9490847E8495C310847E7496A316D
:10BB30000847E54976310847E44986310847E24934
:10BB400094310847E149A2310847DF49AE3108473F
:10BB500030B4DE4CA44630BC6047DC48743000474B
:10BB6000DC480047F8B5DB4DCF222968DB4C08786C
:10BB70000026104008702068D94918308847286886
:10BB800022680178127F090912070901120F114377
:10BB900001700907090FBF27012921687DD00A46D6
:10BBA00022314B7809781B020B43114620310B716F
:10BBB0001B0A4B710378117A3B4089010B435906EC
:10BBC000490E0170226841784032127A8909921D2B
:10BBD00092068901920E1143417021680622801C51
:10BBE000093104F0AFFD21684820425C002A04D0EE
:10BBF00028684931083004F0A5FD2168B84A702052
:10BC0000405C323A713190472868B54A41788906DC
:10BC1000890E891C90472868017809090901091DC6
:10BC2000017022683940127AD207520E1143017016
:10BC3000226841782032127A8909921D9206890180
:10BC4000920E1143417021680622801C093104F0D4
:10BC500079FD21682820425C28682931083004F0E9
:10BC600071FD2868A04A41788906890E891C904791
:10BC7000256800206F7F012181400F4204D0E97FB9
:10BC80000B2251438E19761C401C0328F3D32C46FB
:10BC9000203460782178000200E01AE00843132184
:10BCA0004843401CB04206D2701E04F0C5FD401C43
:10BCB0002070000A60706078217800020843022832
:10BCC00003D20220207000206070287F012824D039
:10BCD0003AE00B4620318A79CA71197A0278C9078D
:10BCE0003A40490E0A43027051062268490E6032FA
:10BCF000127CD20111430170417806228909890121
:10BD00000C3141702168801C093104F01BFD28684A
:10BD100021680622083071316DE7E079002813D0E0
:10BD2000607822780102114313204143A079491C15
:10BD3000C00304F081FD401C06467F2104F07CFD19
:10BD4000401CC1B2E1711EE0607921790002084314
:10BD500031D06078227801021143132041432846F4
:10BD600022304278037810021843C003491C04F0C3
:10BD700063FD401C06467F2104F05EFD401C81B23D
:10BD80002171080A6071304604F056FD401C7F287E
:10BD900000D97F200121E975A97F0091617823787E
:10BDA00009021943514CEA7FC0B23B46A0474E48B6
:10BDB00034308047F8BD00204D4CE87503460246FC
:10BDC0000121A047F8BD4A48002201684A750A7C53
:10BDD000012002430A74404909682031C871087182
:10BDE0000020487170473A491A3108473948F43001
:10BDF00000474048004738B5049C00943E4C0E3440
:10BE0000A04738BD30B43B4CE834A44630BC604752
:10BE100010B502F021FF10BD10B502F039FF10BDC2
:10BE20003549A43108473448004733483230004789
:10BE30003249463108473049B23108472F49C231AB
:10BE400008472D4AD032104710B501F0FEF910BD59
:10BE50002A49FC3108472949084728490E31084733
:10BE600027493631084710B501F0CEFC10BD10B59A
:10BE700003F034FB10BD2148DC3000471D4800684A
:10BE8000C0788007C00F704770B513480068817C88
:10BE9000427C0802104312D0FFF7F0FF094C022544
:10BEA000012830D11648DC308047154988422AD114
:10BEB0002178012029430143217003F00FFB70BD5D
:10BEC00000005E180020DF560000155800002759BA
:10BED0000000CD5B0000B8000020B4000020451D2C
:10BEE00000002B26000047270000971B000031545C
:10BEF0000000AC000020F55C00005B5E0000675FA6
:10BF000000000604000020788021084328432070A8
:10BF1000D5E7F8B5FE48C079000656D5FD48066855
:10BF2000B17C707C0F020743F948057801D0A8075F
:10BF300001D4680749D5F54C207BE17A0002E41C66
:10BF4000084342D0002F40D0607821780002084397
:10BF50002AD1307CF17B0002084305F03BF9002236
:10BF6000ED4B05F03AF905F0E8F880B278430A2184
:10BF700004F06CFC4004010C2170080A6070307DF4
:10BF8000F27C000210430A224243914203D3401E36
:10BF90002070000A6070607821780002084303D1A5
:10BFA0000120207000206070FD210D40D848012143
:10BFB0000D430570002003F091FA607822780102A9
:10BFC0001143D64BD54A09209847F8BD10B50F212B
:10BFD000CF4804F014FC10BDF0B504468DB0401CF1
:10BFE00004F011FCCA4E00253E3E024604282AD029
:10BFF000C748D31F0178FF3BFA3B18D001239B03AE
:10C000009A4279D1C6490A2024318847707806219E
:10C01000484381190A22601D891C04F093FB707843
:10C02000401CC0B270700A2876D3757074E0C27973
:10C03000002A71D0CA066FD4A37966791A023243F6
:10C04000012A05D068E075703570FFF7BFFF63E027
:10C050008278521E1206120E82704ED0AC4943787E
:10C0600088794E7902023243887A4E7A0002304350
:10C07000491C012B47D0801A0872000A487200063A
:10C080000B7A000C1843831A6A46138350839F4A25
:10C09000167BD27A360216436A4696834A7B0F7B1A
:10C0A000110239436A46D183138050809680D18033
:10C0B00013723220507200209072D572280A1073C9
:10C0C00001205073002090730220D0730020107460
:10C0D00003205074002090740420D0740020107548
:10C0E00005205075002090758E49104688478C4970
:10C0F00006A81E3188470FE007E0027A82704022CE
:10C100001143017008E08018B6E7880604D5900452
:10C11000000F01D0FFF7FDFE8349204609698847DB
:10C120000DB0F0BD10B50446001D04F06CFB7D4958
:10C130000861211D7D4804F077FB794920465C3178
:10C14000884710BD77497E3108477549D431084783
:10C15000744ADC321047724AE43210476C490020BE
:10C160003E390A7849788A4200D90A200818801A8C
:10C17000401EC0B2704700B5FFF7F0FF002804D1A1
:10C18000634800213E384170017000BDF8B50E468D
:10C19000074666491C46154601208847002807D0F7
:10C1A000FFF7B7FE23462A463146384602F030FDF7
:10C1B000F8BDF8B50E4604465D491F4615460120F8
:10C1C0008847002814D0022C03D1FFF7C7FF0028AE
:10C1D00009D0EAB2534D3B4631462046F435A847D4
:10C1E000012807D004E00A214D4B514A08469847E0
:10C1F0000020F8BD022C12D1454C06213E3C20788F
:10C200000A46484300193146801C04F09BFA207806
:10C21000401CC0B220700A2801D3002020700120E9
:10C22000F8BD70B50D460446112140198903164624
:10C23000884201D3002042E63F480068213004F0E4
:10C24000E2FA3D4B001932462946984737E6F8B5E1
:10C250000646EFF3108472B6374D2868213004F09B
:10C26000D2FA8019364A0121904784F31088334F5F
:10C270000024F63FEFF3108572B62E480068213097
:10C2800004F0C1FA311940182E4900230A1920215F
:10C29000B84785F310880120000320348442E9DB8D
:10C2A000F8BDF7B5070501993F0D002912D0029995
:10C2B00000290FD01C49897800290BD101997A18DF
:10C2C000012109038A4205D8019A112382181B0310
:10C2D0009A4201D90020FEBD0025C41BEFF3108651
:10C2E00072B614480068213004F08DFA61194018C4
:10C2F0001449114B4A192021984786F310880120D0
:10C30000000320358542E9DB0E48C0191BE05E18AA
:10C310000020B40000200000F43F27260010D33393
:10C320000000575F00008C00002077270010458533
:10C33000000015290010B00000208F1600009F1883
:10C34000000020080020019A029904F0FBF9FB4943
:10C350000120884700280AD0EFF3108072B6F84910
:10C3600001228C808A7080F310880120FEBD204657
:10C37000FFF76DFFF9E7F3490847F24A0832104723
:10C3800038B5049C0094EF4C1034A04738BD30B44D
:10C39000ED4C1C34A44630BC6047EA4924310847C0
:10C3A000E94A2C321047E74A3432104730B4E54CA2
:10C3B0003C34A44630BC6047E34B44331847E14B60
:10C3C0004C33184730B4DF4C5434A44630BC60477B
:10C3D000DD495C310847DB4864300047DA496C319D
:10C3E0000847D9490847D84908310847D7498C3107
:10C3F0000847D548BE300047D448E2300047D34A0A
:10C400001047D2495231084710B503F026F810BD45
:10C41000CF4964310847CD496C310847CC49763162
:10C42000084710B502F0B9FB10BDC948004770B508
:10C43000C448002480682546807A4006C60F72B63C
:10C44000C4488047022002F0A8FB641CA4B2FA2C66
:10C45000FBD30024304602F05CFB002801D001250C
:10C4600003E0641CE4B2032CF4D362B6284626E54C
:10C4700010B502F066FF10BDB6480E300047B54A51
:10C480001047B44A223A104738B502F05AFFB24872
:10C490000068407805281FD1AA488068807A400645
:10C4A000C40FAB48804700217F20FFF7E8FF6946B3
:10C4B0003F20FFF7E6FF684600788109022906D190
:10C4C0004106490E684601703F20FFF7D8FF002C57
:10C4D00002D19F480E30804738BD9C49A43108479F
:10C4E00030B49E4CA44630BC60479848F6300047B4
:10C4F00098481438004796491C31084795484230FF
:10C50000004793484C30004710B591488047944C01
:10C510000120A0470020A04710BD92490870704735
:10C52000F8B5002472B6904A0121904B09032046C9
:10C53000984762B68F4E30680546093004F063F9BB
:10C540008A494718E878002811D02846313004F08D
:10C550005AF9064628462D3004F055F9301A4002A3
:10C56000060E3878844F824D002857D073E0284655
:10C57000293004F048F906462846253004F043F9EE
:10C58000301A4002060E38787B4F794D00280CD0C7
:10C5900026E072B62868293004F035F9E103401826
:10C5A0000821B84762B6641CE4B2B442F1D32D68E6
:10C5B0002846293004F027F906462846253037E07A
:10C5C00072B6E203B01819E072B62868253004F09C
:10C5D0001AF9E10340180821B84762B6641CE4B2B6
:10C5E000B442F1D328680646293004F00CF9054618
:10C5F0003046253039E072B6E2038018B84762B69B
:10C600000120F8BD72B62868313004F0FCF8E1036F
:10C6100040180821B84762B6641CE4B2B442F1D3B2
:10C620002D682846313004F0EEF8064628462D30B5
:10C6300004F0E9F8301A4004410FC1D1E0E772B6C6
:10C6400028682D3004F0DFF8E10340180821B847CE
:10C6500062B6641CE4B2B442F1D3286806463130B5
:10C6600004F0D1F8054630462D3004F0CCF8291AF4
:10C670004904490FBFD1C3E7364BC23318473E4B7D
:10C68000184730B43D4C6634A44630BC604730B4E3
:10C690003B4CA44630BC6047F8B539488047284D2C
:10C6A000A878002809D0A888FFF7D1FDEFF3108003
:10C6B00072B60021A97080F31088324CE07900280E
:10C6C00034D0000610D52078410705D5FFF721FCAE
:10C6D0002078FB21084006E0000605D5FFF719FC8D
:10C6E00020784006400E20702078274F284E4106C3
:10C6F0000AD5BF2108402070022069460880024602
:10C700006B4639460020B0472078C1070ED040085C
:10C7100040002070800701D5042000E00520694614
:10C72000088002226B4639460020B0476878C1076E
:10C7300004D0400840006870E8688047F8BD45852F
:10C7400000008C0000205D6100008B62000091639E
:10C7500000006B660000A7290000B4000020E9314A
:10C760000000692D0000A2000020200800208F1684
:10C770000000B00000209F1800001B6800006169E5
:10C780000000D16400005E18002000020000315457
:10C790000000FE480047FD483A300047FC48523050
:10C7A0000047FA486A300047F9486E300047F849B8
:10C7B0008A69120A120202434A61087C012210436C
:10C7C00008747047F8B50446F348017DE20649094C
:10C7D0004901D20E114301750221EF4D7F20A84778
:10C7E000EE4E25206946223EB04768460178214337
:10C7F00001702520A84769462520B0479EE7E748F5
:10C80000E84900684118487C097C000208437047E9
:10C81000F8B50546EFF3108472B60021DF4E7F2095
:10C82000B047DD4A17206946223A904768460178AA
:10C830009F200140A807400E014368460170172061
:10C84000B04784F3108879E738B5EFF3108472B6F7
:10C850000021D14A7F209047D04A17206946223ACA
:10C86000904784F31088684600784006800F38BDF2
:10C87000CD490840C7494A6882434A607047C94960
:10C880000840C3494A6802434A6070471CB56A467B
:10C8900090801180C5485080D0806946012001F009
:10C8A000C0FC1CBDC248004770B50546C1480C46D7
:10C8B0008268107AFB2108401072BE4928468847DA
:10C8C000BD4A214628465E3A9047B4E470B5BA4C5A
:10C8D0002468E47BA406A40E00280AD0B04D2D687D
:10C8E000ED7D002D05D0052C07D0062C05D00F2C92
:10C8F00003D002F0E1FE01209DE400209BE470B52E
:10C90000044603200003844221D9AC480568E87836
:10C91000002802D001280AD01BE02846253003F069
:10C9200072FF0646A04214D82846293008E028465F
:10C930002D3003F068FF0646A0420AD82846313061
:10C9400003F061FF0146801B0818A04201D90020B6
:10C9500071E401206FE410B572B6994A904762B64F
:10C9600010BD70B514460D460646FFF7C8FF0028F7
:10C9700006D072B62246934B29463046984762B697
:10C9800059E410B572B68F4BAE33984762B610BDFE
:10C9900010B572B68B4CF63CA04762B610BDF7B529
:10C9A0000025C80288B00E462C46070C11E00898F6
:10C9B00061010818844B6A46202198470020694687
:10C9C0000A5C401C5219C0B295B22028F8D3641CEE
:10C9D000A4B2BC42EBD3F6060898F60E6101081823
:10C9E000794B6A46314698470020694604E00A5C64
:10C9F0005219401C95B2C0B2B042F8D30A98854291
:10CA000002D101200BB0F0BD0020FBE7FFB50E46C0
:10CA10000121074609036B4BA5B06B4A00209847DC
:10CA200035226949684603F08DFE02A8013003F003
:10CA3000EAFE65495722441821460EA803F082FEFB
:10CA40002021601C03F0DBFE0025002F10D0002009
:10CA5000395C00290AD02218401CC0B2517020282D
:10CA6000F6D305E02118401C4D70C0B22028F9D340
:10CA700020460521213003F0C2FE002E12D00020F6
:10CA8000315C00290CD022182032401CC0B25170F9
:10CA90000528F5D306E021182031401C4D70C0B2A6
:10CAA0000528F8D321462631279803F0BDFE2146FC
:10CAB000223128980872000A48720121414A2570E3
:10CAC0000020904701213F4B090300203F4AAE332D
:10CAD0009847012029B0F0BDF0B5027889B0002A4E
:10CAE00077D03A49CA7142780A72002A01D0042AE2
:10CAF00001D904220A72C278847813022343334A8C
:10CB00001C0A537294724479057924022C43154609
:10CB1000EC72260A2E73A646C47985792002284332
:10CB20005073040A84461D489473046808252746F8
:10CB3000207CE47B000220430124521C83424C7081
:10CB400008D9181A07E01471200A01E01571280AA3
:10CB5000507107E0C01A0E7AB04270DA1471260ADA
:10CB600056710872087A88700D70002B63D0507966
:10CB7000117900020843191A68460183438361460C
:10CB8000C18371468183B87C797C000222E0713CCC
:10CB900000000010005040600250A7290000B400BF
:10CBA000002063050000FCFF0FFD480800000D3366
:10CBB00000008C000020AB310000AC000020B00071
:10CBC00000209F1800008F160000200800205E182B
:10CBD000002038E0084302D0002002F07FFC6846C5
:10CBE000018B0180428B4280828B8280C28BC2800B
:10CBF00001723221417200218172C172017344734A
:10CC0000210A81730221C17300210174032141743F
:10CC1000002181740421C174002101750521417531
:10CC200000218175F7498847F64906A81E318847D3
:10CC3000F54909208847012009B0F0BDFFE7F6005B
:10CC4000B04283DA7FE70020F6E7FEB50746EE48FC
:10CC500001780A077DD5F72211400170BA797C1C52
:10CC60007B7912021A437BD0C279120678D5102242
:10CC700011430170880673D4E54880470546607902
:10CC8000217900020843FF1C002832D004F0A2FAE8
:10CC900006460091787839780002084304F09AFA41
:10CCA000DC4F00223B4604F098FA3246009B04F029
:10CCB00094FA0090D84801910068017CC27B080278
:10CCC000104304F087FA00223B4604F086FA074638
:10CCD0000E46607A217A00020843401B04F072FA83
:10CCE0003A46334604F079FA019B009A03F0D1FFEB
:10CCF00024E0787839780002084304F0E8FB06461F
:10CD0000C5480068017CC27B0802104304F0DFFBC9
:10CD1000314605F0A0FD04F084FB0022BD4B04F079
:10CD20005CFA07460E46607A217A00020843401BEF
:10CD300004F048FA3A46334604F04FFA0022B64B64
:10CD400003F0D7FF04F0F9F90104090C00D1012127
:10CD500001E00EE004E0AB4B0920B04A243B9847C9
:10CD600003206946088102221102AD4C02AB00206B
:10CD7000A047FEBD38B5AB4C2078002804D1AA49A5
:10CD80006846884701202070012038BD10B50B305F
:10CD9000102801D9FF2010BD9B4BC4B22046243B74
:10CDA0009847204610BD10B50B30102801D9FF2040
:10CDB00010BDC4B2944920468847204610BD0728BC
:10CDC00001D90020704701228240964843781A43D7
:10CDD0004270C160012070478F480068C07D704775
:10CDE0008D48924900684118487C097C000208433C
:10CDF000704710B5030005F0D6FC09061C36506AD2
:10CE0000849EB0CAE60000217F20FFF738FB002196
:10CE10003020FFF734FB01217F20FFF730FB1E217C
:10CE20006320FFF72CFB1F216D20FFF728FB8821D3
:10CE300014E000217F20FFF722FB00213020FFF7C4
:10CE40001EFB01217F20FFF71AFB1E216320FFF745
:10CE500016FB1F216D20FFF712FB8A216120FFF7CF
:10CE60000EFB8121ACE000217F20FFF708FB0021B1
:10CE70003020FFF704FB01217F20FFF700FB1E217C
:10CE80006320FFF7FCFA1F216D20FFF7F8FA8A21D3
:10CE90006120FFF7F4FA832192E000217F20FFF761
:10CEA000EEFA00213020FFF7EAFA01217F20FFF798
:10CEB000E6FA1E216320FFF7E2FA1F216D20FFF73B
:10CEC000DEFA8A216120FFF7DAFA872178E0002173
:10CED0007F20FFF7D4FA00213020FFF7D0FA01219C
:10CEE0007F20FFF7CCFA1E216320FFF7C8FA1F212D
:10CEF0006D20FFF7C4FA8A216120FFF7C0FA8F2165
:10CF00005EE000217F20FFF7BAFA00213020FFF712
:10CF1000B6FA01217F20FFF7B2FA1E216320FFF746
:10CF2000AEFA1F216D20FFF7AAFA8A216120FFF7D0
:10CF3000A6FA9F2144E000217F20FFF7A0FA0021FC
:10CF40003020FFF79CFA01217F20FFF798FA1E217D
:10CF50006320FFF794FA1F212AE000217F20FFF7CA
:10CF60008EFA02213020FFF78AFA01217F20FFF795
:10CF700086FA1F216320FFF782FA03216D20FFF755
:10CF80007EFA8A216120FFF77AFAB02118E00021A9
:10CF90007F20FFF774FA02213020FFF770FA012199
:10CFA0007F20FFF76CFA1F216320FFF768FA072143
:10CFB0006D20FFF764FA8A216120FFF760FABF2134
:10CFC0006520FFF75CFA10BD1A49096860310874E2
:10CFD000704710B500280ED001282CD0022830D080
:10CFE000032807D102217F20FFF749FA4021292099
:10CFF000FFF745FA10BD02217F20FFF740FA4621D6
:10D00000F5E7575F0000F73300005E180020051BAE
:10D0100000000000F43FB400002000002440812202
:10D020000010315400008C0000209D2C000063058E
:10D030000000AC00002002217F20FFF720FA4421ED
:10D04000D5E702217F20FFF71AFA4221CFE710B57A
:10D05000044674480068093003F0D5FB1021724B78
:10D0600022465730984710BDF8B50546EFF31084B7
:10D0700072B66E4E01273F036C4B39460020326872
:10D08000984701216B4A00209047664800680930A4
:10D0900003F0B9FB3168102257314018294603F0DC
:10D0A00051FB0023634D39461846F63D3268A847C8
:10D0B00084F31088F8BD5F490A69D208D2000A617A
:10D0C000401E486100208861086901221043086100
:10D0D0000869C003FCD57047F0B500260B4604462E
:10D0E000012597B0304631462D03675C491CBE19B7
:10D0F000A942FAD30021675C491C7840A942FAD3BF
:10D100009E422BD1904229D1474E3068093003F01E
:10D110007AFB454B6A46572198473068093003F03F
:10D1200072FB00195722694603F00CFB30680D3082
:10D1300003F069FB4149001909680722083103F02F
:10D1400001FB01213B4A00209047374B002022463B
:10D150002946AE339847012017B06EE50020FBE763
:10D1600070B501252D030446304B344A2946002072
:10D1700098473349204688472B4800680D3003F014
:10D1800042FB2E49072240182C490968083103F058
:10D19000D9FA0121274A00209047234B0020274A33
:10D1A0002946AE33984770BDF8B504001AD025491A
:10D1B000684688470098002816D01C4D01210903B5
:10D1C0001A4B00202A689847174F3868093003F037
:10D1D0001AFB29686731405C401CC6B2052E05D990
:10D1E0000220F8BD0120F8BD0420F8BD0320800313
:10D1F00084430098A04201D10020F8BD01210C4ACF
:10D20000002090473868093003F0FDFA29680023B0
:10D21000673146540121064C09031846F63C2A683A
:10D22000A0470320F8BDB00000208F160000E400E6
:10D2300000209F18000000E000E0B400002020085B
:10D2400000204B570000C12C0000FE490A79002A3B
:10D2500000D008707047F8B5FB4C63695979002914
:10D2600015D0B121C95CC91F092956D801461846F5
:10D270001022D93003F066FAE07800250221012857
:10D28000606905D04279D2060FD5EF488047F8BDD6
:10D29000CA22125C012AFAD1C279012A01D1C571D0
:10D2A00037E0002AF3D1C171F8BDC279012AF8D163
:10D2B000CA21095C01292AD1E06980260178012070
:10D2C0008840216A0968884300D181260027DF4809
:10D2D00080476169C919E0317F1CFFB24876102F81
:10D2E000F5D3606933460146E93102460091FF31CA
:10D2F000F9321131D74EFF305A30B047E06900782B
:10D30000142803D261690120C87101E06069C57108
:10D310006069D049E9308847F8BDCB4B062200212F
:10D3200001208C3B9847F8BDF1B5C64CA4B06069AC
:10D33000417900292BD0CA210A5C2146C64F496990
:10D340001C370025E931012A23D0064602467136F2
:10D3500009320491711E531E0196BE4E0293039230
:10D36000CA33C23200917A36FF300A302499B0476E
:10D37000616910220846D930E93103F0B6F9002876
:10D380007CD0B14B0422002101208C3B984725B072
:10D39000F0BD0C950D950E950F9511951295139561
:10D3A000149542790126D206002A03DBA64A137996
:10D3B000002B7ED0F930B847A34C2079002822D02A
:10D3C0001DA8019500906369A44F18460146FF30DF
:10D3D000FF31FA305A31F933249AB8471DA8013089
:10D3E00003F011FA18A9097D000208439C4903F0D3
:10D3F00023FA0422019111049A4F01AB0020B8478F
:10D40000207800287DD0676907223946093115A8A0
:10D4100003F098F939460722713117A803F092F901
:10D42000387A002810A86DD086767020C05D00285C
:10D4300018A868D0867004A83A460190F9321046C0
:10D44000844E15ADC03017AB009546362499B047D1
:10D450006069102204A9813003F074F908AE0FCE80
:10D4600019AE0FC6616903220E4621A8D33103F01D
:10D4700069F903223146CC3122A800E073E003F0C1
:10D4800061F93046FF30EA30039017AF21A96846B2
:10D49000A2C03146714EF93111AB19A86A3E249AE7
:10D4A000B047626922A91046FF30DA300CAB019711
:10D4B00000E00AE000910390029519A8F93224993E
:10D4C000B04768490020884761E75E4A3446D26920
:10D4D0008023127894405B4A126A1268944300D108
:10D4E000812300910146FF315A31594CFF30FA3007
:10D4F000249AA0475448102240690146E931D930A6
:10D5000002E025E02BE02CE003F0EFF8002801D04A
:10D5100004221EE04C4C6069F930B847E06901789C
:10D52000491CC9B201701429CED3216A0868020CC3
:10D5300008A8827410A882710888020A08A8427498
:10D5400010A84271097808A8017410A8017133E786
:10D550000C223D4B002101208C3B984717E7857634
:10D5600063E7857067E760690026F930B84763694B
:10D57000384F1946FF330A33363F1846F931249A9B
:10D58000B847606910230146A03106E017183246FB
:10D59000FF320A32761CBD54F6B24A7C9F1AB7425B
:10D5A000F4DC304900208847606941794908490026
:10D5B0004171ECE6F0B50446C07885B0072807D283
:10D5C000224B0622002101208C3B984705B0F0BD7C
:10D5D0001D4E01217069CB221154002506222146DF
:10D5E000CC3003F0AFF81120716940010818A03168
:10D5F0004E7CC17E827F437F04920A07D20F009245
:10D6000003934A07CF06D30FFF0F02968A070197AD
:10D610000E4E920F817E407E643EB047A078102669
:10D620000007002843DA074A1121506949014718C9
:10D63000FB7E19073BD50121CA2211545A0715D484
:10D64000A278520711E0A00000205DA100004D2546
:10D650000000B3AA000055A90000FFAB0000404243
:10D660000F0031540000F73300000ED57B7E227886
:10D670009D005B19FE4D5B19D55C882D02D0102DE5
:10D6800003D005E0FB4A117102E041793143417159
:10D690004179C90634D50B21C9014018C07D012844
:10D6A0002ED16421F54BF34A0520984728E0F04F2E
:10D6B00000217869CA221154112149014118CA7EFA
:10D6C000520702D4A278520709D5497E22788B00EE
:10D6D000C918E64B193BC918555C102D02D1417988
:10D6E00031434171E44AE44B943AE44900209847BD
:10D6F0006079C00704D07869032281791143817170
:10D70000607980070BD5DA48112140694901411839
:10D71000897F890703D581790C2211438171207992
:10D7200080070BD5D3481121406949014118497F31
:10D73000890703D54179802211434171CD48416960
:10D740000846A0304674E278102A00D24274487924
:10D7500001221043CB4C4871202D08D0402D00D021
:10D7600034E700231A4640210020A0472EE700237B
:10D770001A462021F8E770B5BE4C0D4663690028B3
:10D7800025D0A0690C2181711946FF3120225A3120
:10D79000C01D02F0D7FF6169A069FF312022273048
:10D7A0007A3102F0CFFF0621B74A412090470B2182
:10D7B0006069C9014118C97D002907D14079C006B7
:10D7C00002D42079012801D1AB48804770BD1846AA
:10D7D000FF302022FA3002F0B5FF2022AB4B606907
:10D7E000A9180E46C01802F0ADFF6369A84C184690
:10D7F000FF309A30FF3332462946BA33A0472946D4
:10D800000120FFF7B8FF70BDF0B5994C064660697E
:10D8100085B04179C9072AD0FF3010210A3002F0C3
:10D82000EEFF6069320AC11DF9314E728A72320C04
:10D83000CA72320E0A73CA21095C0125012918D067
:10D840000346064601460933E9365A1E713101AFD7
:10D850004EC7491E0091C933C33289318D4EFF3006
:10D860000A30B0476069C17902292FD00BE000204F
:10D87000ACE6206A00210660E269802311706269CB
:10D88000D179022904D06069C17900292AD02AE01F
:10D8900000682946814300D18123E168002040319E
:10D8A0004E7D1718E037401CC0B27E761028F7D3A3
:10D8B0006069774E0146E93102460091FF31F93245
:10D8C0001131E436FF305A30B047CBE771497A392D
:10D8D000E93088476069CA21095C012902D000212A
:10D8E000C17100E0C571012070E6F8B5614C694F67
:10D8F0006169CA19517B127B09021143009102F040
:10D900009BFF0646A0780D46002826D063490820D4
:10D910008847002804D060490220884700280CD09E
:10D920006069C119487B097B00020843C01C704331
:10D9300084B2002D1AD0601916E06069C119487BC5
:10D940000A7B0102A06C1143C21C891871438CB27E
:10D95000002D0BD02818001906E00098C01C704359
:10D9600084B2002D02D06018C01C84B24C4880479D
:10D97000A04201D20020F8BD0120F8BD70B50546D7
:10D98000D01D14460E4680B2FFF7AFFF002810D01E
:10D9900038481B2180692A0A8171C57102722246AA
:10D9A0003146093002F0CEFEE41C364AA0B2042112
:10D9B000904770BD70B50546D01D14460E4680B226
:10D9C000FFF793FF002810D02A481D2180692A0AFA
:10D9D0008171C571027222463146093002F0B2FEF1
:10D9E000E41C284AA0B20421904770BDF7B5204E30
:10D9F000294970690024091F2546401802F003FFD9
:10DA0000B26911219171837846781B023343009EDD
:10DA1000421C0146B34258D3019EB34255D80E79F9
:10DA2000CF783302029E3B43B3424ED10B78172B83
:10DA300055D00F4E0623B669F371577813783F021D
:10DA40001F43062363439E1937723F0A7772567944
:10DA5000177936023E43064FBF69DF19BE72360A98
:10DA6000FE72034ECF79B6699E19377319E053E4FD
:10DA70000010A00000205DA10000D3330000B80B0F
:10DA8000000031540000ED7F000019020000EF2A71
:10DA90000000CFA90000610300006994000043600A
:10DAA0000000F74F0E7ABF69AD1DDB195E73F44BB2
:10DAB000F54E5B69ADB29E19737C367C1B02641C0B
:10DAC0003343AE1DE4B2B34225D3537916791A021B
:10DAD000EE4B32439A421ED00178081893E7002C8F
:10DAE0001BD1E74814238069C91DC3715478167887
:10DAF0002302334303721B0A4372537914791A02C7
:10DB000022438272120AC27210220C3002F01AFEF4
:10DB10001435ADB201E0002C05D0AD1CDC4AA8B232
:10DB200004219047FEBD0A22DA4B10200099984745
:10DB3000FEBDF7B5D34ED749706900252C46401875
:10DB400002F061FEB16909228A71837846781B026E
:10DB50003343009E421C0146B34232D3019EB3427E
:10DB60002FD80E79CF783302029E3B43B34228D19F
:10DB70000B78172B2FD0C24E0423B669241DF371E6
:10DB8000577813783F021F43AB009E1937723F0A44
:10DB90007772BB4ECF79B669A4B29E19B772B84FEF
:10DBA0000E7ABF696D1CDB19DE72B54BB64E5B6930
:10DBB000EDB29E19737C367C1B023343261DB342A3
:10DBC0001ED3537916791A02B04B32439A4217D0BA
:10DBD00001780818B9E7002D14D1A94812228069EC
:10DBE000C2718B784D781A022A430272120A42726D
:10DBF00010220A30C91D02F0A5FD1234A4B201E0C2
:10DC0000002D05D0A41CA14AA0B204219047FEBD5E
:10DC10000A229F4B082000999847FEBDF7B5984E01
:10DC20009D497069002508312C46401802F0EBFD33
:10DC3000B26909219171837846781B023343009EB3
:10DC4000421C0146B34242D3019EB3423FD80E79F3
:10DC5000CF783302029E3B43B34238D10B78182B66
:10DC60003FD0874E0723B669E41DF37157781378C8
:10DC70003F021F43EB005B1B9E1937723F0A77720E
:10DC8000804E4F79B669A4B29E19B772CE798F795A
:10DC900036023E437B4F6D1CBF69EDB2DF19FE7249
:10DCA000360A3E73774E0F7AB6699E197773744FB2
:10DCB0004E7ABF69DB199E73724B724E5B699E1977
:10DCC000737C367C1B023343E61DB34227D3537863
:10DCD00016781A026D4B32439A4220D00178081808
:10DCE000A9E7002D1DD1664815228069C2718A7886
:10DCF0004B7812021A430272120A42724A798272F5
:10DD0000CA798B7912021A43C272120A0273102264
:10DD10000D30083102F016FD1534A4B201E0002DDB
:10DD200005D0A41C5A4AA0B204219047FEBD0A2285
:10DD3000584B082000999847FEBDF7B5514E5549FC
:10DD40008AB07069083109900025401802F05BFD27
:10DD50000446B6690920B0710720F0712778204683
:10DD6000182F77D0417A207A09020143A37860788E
:10DD70001B0203430A9883426BD30B98834268D8F3
:10DD80000C98814265D1434909980C31401802F042
:10DD90003AFD0190E079A179000208430C212F4659
:10DDA0004F43B9190872000A487235480021806A49
:10DDB0003A4B0170E079A279000210436A469081E3
:10DDC000D1810A3202A998470822314ED1010020A0
:10DDD00002ABA436B0472A48806A007801283CD0BC
:10DDE000E079A379294A01021943019EF078B378BA
:10DDF0000002184388426DD13079400604D524488A
:10DE000020388047002836D03079810606D5C006F4
:10DE10002049C00E1039884700282ED0E079A1791A
:10DE2000000208431D4A0221343A9047002836D0A8
:10DE300030793178C00970783BD00002084315383A
:10DE4000C4B20F483146806922463818153139E08E
:10DE500000E052E0417D207D86E7094CE06A216BBD
:10DE60000678A069324638180A3002F06BFCA069C7
:10DE7000B61CC67137E0052200E00C220A9913E0B7
:10DE80000000A000002063050000FFFF0000ED7F00
:10DE900000008D5300005D030000F93E0000A078F3
:10DEA0006278010211430222F94B082098470DB015
:10DEB000F0BD00020843C01FC4B2F5482246806985
:10DEC0003818F11D0A3002F03DFCF148A41C8069AD
:10DED000C47108E0904206D070783378000218438D
:10DEE0008019019081E76D1C0CD0E94804218069FC
:10DEF000E94AC079801C9047D9E7E748834201D0BE
:10DF00003C192BE70A22B9E710B5062912D0417C4B
:10DF1000037C0A0241781A430B020478C1788078A6
:10DF20000902234301438B4207D9012219460820E5
:10DF3000D74B24E041790379EBE70520C002824208
:10DF400002D0401C824203D11846FFF7F2FD10BDFB
:10DF5000D348824203D11846CD4B18330FE0CF4847
:10DF6000401C824203D11846FFF758FE10BD100A2C
:10DF70002928184602D0FFF7E0FE10BDC94B98478C
:10DF800010BDF0B5C34C0746A07885B00D460028FB
:10DF90007DD0C44E0820B047002879D00220B04779
:10DFA000002875D1EFF31080049072B6A06C281889
:10DFB000801C86B2BD4880470100BC4803D0E168A0
:10DFC000C978C90708D08047002875D1B7481030F4
:10DFD0008047761CB0426FD3AE48AD49801D0770B4
:10DFE000B44800900822673101A802F0ABFB6369D6
:10DFF0000022B2330299019801F0AFFE022F02D045
:10E00000012F0BD016E00120E071206D0422411990
:10E01000A048891C4C3002F095FB0BE0E079012808
:10E0200006D19B49206D04224C31801C02F08AFBF2
:10E030000020E071206DA16C9F4E801C0291039620
:10E0400001950090934A60692389921D9949BA30DD
:10E0500001F0CEFDA06C711C2A18206D801C02F00E
:10E0600071FB8B4C6734201D02F0CDFB2378E278E6
:10E070001946637812061B021943A378C0091B04D2
:10E08000194311432279C0015206520E01E012E0F9
:10E0900012E0491C00235A415206520E10432170CF
:10E0A0000A0A62700A0CA270090EE17020710498CD
:10E0B00080F31088012017E4002015E47548C1683A
:10E0C0000A466032907E927EC007C00FD207D20F00
:10E0D000603105E0887E8A7EC007C00FD207D20F6C
:10E0E0009042F7D1704710B56A484069017CC27B05
:10E0F00008021043072807D8FFF7E0FF002804D0E4
:10E10000FFF7DCFF0128FBD010BDFFF7D7FF002889
:10E11000FBD0FFF7D3FF0128FBD010BD10B55C4842
:10E12000C168084622304279037912021A43624BD1
:10E130009A4214D9DC43121903711B0A4371FF235D
:10E1400020310B72FA2A0AD951015C4BD200C9184E
:10E1500089187D221201891A0175090A417510BDBD
:10E16000F0B400285BD048780A7807021743484A81
:10E1700015269469534DE01C631C1B2FA67041D9D2
:10E18000CC788E78240234431C71240A5C71CC79DB
:10E190008E79240234431C72240A5C7293780C78C2
:10E1A000002B4B7805D01B022343F92B12D9F92100
:10E1B00004E01B022343302B0CD9302101700B0AE1
:10E1C000437001710B0A4371506940190173090AC8
:10E1D000417312E05269521913731B0A53734A7840
:10E1E0000B7812021A430270120A42704A790B79B4
:10E1F000110219430171090A4171F0BC0921314A28
:10E20000032010471B21017000244470F3241C716B
:10E2100000265E71017146711C725E72D4E7F0BC1B
:10E220007047F0B4002850D01A4A142093699870AF
:10E2300048780D7804022C43DC70240A1C71CC78D9
:10E240008D7824022C435C71240A9C714C790D79E1
:10E2500024022C43DC71D81C240A4471CC798D79BA
:10E2600024022C435C72240A9C729578154C5B1C2A
:10E27000002D42D04D790E792D023543F92D28D944
:10E28000F9210171002343710170437041E08D5306
:10E290000000A0000020ED7F0000FFFF000002282A
:10E2A00000008742000069940000ED340000DD3476
:10E2B000000070180020841900203E060000C0E015
:10E2C000FFFF61030000958C0000F0BC00220120DC
:10E2D00046E705712D0A4571C8788D7800022843FC
:10E2E0001871000A58714879097900020843516988
:10E2F00009190873000A487324E04B780D781B0253
:10E300002B43302B0BD93021017000234370017156
:10E310004371506900190173090A417312E052698F
:10E32000121913731B0A53734A780B7812021A439B
:10E330000270120A42704A790B7911021943017175
:10E34000090A4171F0BC0921F84A0320104710B5B1
:10E3500007E0435C845C4454491C8354521EC9B298
:10E36000D2B29142F5D310BDF8B5F04D0520A969A0
:10E37000EE4A8870012103209047A87800282DD00C
:10E3800068690F220021BA30FFF7E1FF68690722B0
:10E390000021B230FFF7DBFF2E466736301D02F05A
:10E3A00032FA002434707470C009B470C001F47083
:10E3B000307146062F465F37760E381D02F023FA7D
:10E3C0003C70210A7970210CC009B970C001210E7E
:10E3D0003043F9703871A878002806D169690222A3
:10E3E0000846D34BBA30B23198477D214901D24B10
:10E3F000D14A03209847CF49082048398847F8BDBB
:10E40000F8B50546CE4908208847C84C0B206169FD
:10E41000C0010818807E01282FD10026374601E070
:10E42000042E04D260698019A030877406E0C048C9
:10E430000A38804761698919A0318874761CF6B260
:10E44000082EEDD3BB4F00260A3F01E0082E01D273
:10E45000002000E0B84761698919A031761CF6B246
:10E460008876102EF2D30026B84761698919E03109
:10E47000761CF6B24876102EF6D30B206169C001E7
:10E480000918487E042802D005281DD01EE0A84F98
:10E4900000260A3FB84761698919FF318131761C2E
:10E4A000F6B24876202EF5D36069A54B0146FF31C0
:10E4B000A1310A7EFF305206520E0A760A46273AEA
:10E4C00047399A30984701E0082048766169A06989
:10E4D0000E46042787700822C01CC231B63602F0EF
:10E4E00031F9A069042231460B3002F02BF90D21DD
:10E4F0008E4A032090476069294608220A31BA30C3
:10E5000002F020F96069294604221231B23002F08B
:10E5100019F92069C0780328606904D0CA21095C10
:10E5200001290AD019E0817D427D080210432A4664
:10E53000854B083229469847F8BD4179CA070CD067
:10E540008279520709D4C90907D1092189014018E4
:10E550000078012801D1616A08702A7A7B4E002A6E
:10E5600002D1687A00282BD0606901466030C37DF3
:10E570009A420AD16A7A007E824206D1082228464F
:10E58000793102F0B2F8002839D06A4B0622002116
:10E5900001200A339847694908200A3188476349AE
:10E5A0000120543102F040F96149062054310871CC
:10E5B0000B4601210522C904654C0020A047F8BD87
:10E5C0006069CA21095C01290BD00246BA32FF30CA
:10E5D00011460A30B0476069022241791143417106
:10E5E00012E04179024639434171BA321146813015
:10E5F000B04760696030C07B012802D004E06069E8
:10E60000EFE74E4902208847FFF7AEFEF8BDF8B5A8
:10E61000474CA078002804D101220021454B084630
:10E620009847A1690620887001213F4A032090473E
:10E63000A07800280CD0464861690818417B027B0D
:10E6400009021143F92903D9F9210173002141730A
:10E650006069374D417908228B070A3D0027002B5E
:10E6600025DA114341710026A84761698919803173
:10E670004870A84761698A1991218854A032761C94
:10E68000F6B25770102EEFD30026A847616989199A
:10E690006031761CF6B24876082EF6D3A847616939
:10E6A0006031C875A84761696031087614E0CA23F3
:10E6B0001B5C012B10D183795B070DD51143417190
:10E6C0000026A84761698A1991218854A032761CD6
:10E6D000F6B25770102EF4D318490320243188471E
:10E6E000174D0820103DA847002803D014490820E2
:10E6F0000A3188470220A847012815D10B206169FB
:10E70000C0010818407D01280ED12D2040010918B4
:10E710004A79002A21D0012A65D0022A04D1064B69
:10E7200089790C4A07209847F8BD958C0000A00015
:10E73000002057250000C1940000D3330000558508
:10E740000000C5290000996F0000ABAA00003154F9
:10E75000000061030000FB980000002535E00A225C
:10E760006A4351180A18507C167C0302FA48334356
:10E770000380F94B4380F94BFB4ECB18597D1B7D31
:10E78000090219438180022181710321C17107723D
:10E79000117600235376F24A038813701B0A5370D4
:10E7A00080889070000AD07011710020507113465B
:10E7B00006220121C903B047E94A01217B3AC90277
:10E7C000E54B0020B0476D1CEDB205206169C0012A
:10E7D0000A18D27BAA42C2D80B2062690121C0016B
:10E7E00010180175A0E7E26893789B06DB0FCB71E8
:10E7F0009178DF231940917061690818817901725D
:10E8000092E704E7F8B504460178401C002910D0CF
:10E81000022976D0032987D1417802780802104373
:10E8200010286DD0082803D1201DE178FFF76CFB7C
:10E830007AE74178027808021043062838D0032886
:10E8400039D014283BD015283ED0012842D00028CA
:10E85000EED1C348251D5938C16822314A7E0B7E4E
:10E860001102194300914069E37A017DC27C0E02D6
:10E870001643227B002711021943027CC37B10023E
:10E88000C9001843814200D80127FFF72CFCB64984
:10E8900028468847002820D0FFF740FCB148593867
:10E8A000C0682230417902790902114319D01DE074
:10E8B000FFF7ADFE38E7201DFFF7A2FD34E7211D6D
:10E8C0000020FFF7AEFC2FE70021221D0846FFF7CE
:10E8D00047FC29E7FFF707FC26E7A44928208847DB
:10E8E00009E0009989000175090A4175002F02D0DD
:10E8F0000673310A4173201DFEF7A7F914E700E003
:10E900001CE0417802780802104301280AD003284D
:10E910000CD004280ED00C288AD1211D0020FEF72F
:10E920002AFF01E7201DFEF745FEFDE6201DFEF74C
:10E9300092FCF9E6201DFEF7F7FCF5E6E078231DD2
:10E94000062814D0587C197C02020A43587819789A
:10E9500000020843D9789B7809021943884209D9F3
:10E960000146804B01221020A43B9847DCE65879F1
:10E970001979E9E7FFF73AF8D6E610B501780429E6
:10E9800005D18278437811021943022902D0FFF79A
:10E9900039FF10BD41790079FFF7F3FA0028F8D06C
:10E9A000FBF78FF810BD30B587B071480090801E1E
:10E9B000019000246846048144810621018241823D
:10E9C00027218181C18102258582C4826A480690FF
:10E9D0006A496846884762485938416B0A682A4341
:10E9E0000A60816B0A682A430A60C470047104706B
:10E9F00007B030BD70B55A4C0D46593C002828D0A0
:10EA00005F4DA8470028FCD05E4880475E4880479D
:10EA10005B49012008398847A069022181701321D0
:10EA2000C1700221594A0320904758490420884761
:10EA30006069017DC27C080210430A2101F0FCFEDE
:10EA40000A21401E41434E4B0120514AEE3B98475C
:10EA500070BDE0682021417041788906FCD54948A5
:10EA60000C38804742492878884770BD484910B51E
:10EA7000012010398847002804D000210120FFF729
:10EA8000B9FF10BD3A491320884710BDFEB50021DB
:10EA90006846017001710D46304E01217F20A53678
:10EAA000B0472D4C0A2069468334A0476846007859
:10EAB0000109090168460170022001430A20B0479C
:10EAC00001A90A20A04768460079400704D56D1CBB
:10EAD000EDB2FA2DF4D108E0FA2D06D001A90A20F2
:10EAE000A047684600794007F8D5684601780A20B3
:10EAF000B0470020401C80B2FA28FBD301A90A20AD
:10EB0000A04768460079000701D40120FEBD00201F
:10EB1000FEBD70B505460024FFF7B8FF012817D1E8
:10EB20000020FDF77EFC1B480169C908C90001618E
:10EB300007214161002181610169012211430161C5
:10EB40000169C903FCD5002D01D1FDF795FC012415
:10EB5000204670BD0000881A0020022900008202B1
:10EB60000000F900002031540000E52000006F9003
:10EB700000001B80010019510010936000002B1B46
:10EB80000000C1340000FF250000958C0000558571
:10EB900000008D94000000E000E010B5FE49FE4C3E
:10EBA00049690028887013D001281FD002280ED18F
:10EBB00000217F20A04700210320A047202104201E
:10EBC000A04702217F20A04703210020A04710BDBD
:10EBD00000217F20A04700210320A04720210420FE
:10EBE000A04702217F20A0470021EEE700217F20DF
:10EBF000A0471F210320A04702217F20A047012119
:10EC00000020A04700217F20A0473F210420DDE70E
:10EC100010B5012802D002280ED01BE0487A0C7AE9
:10EC200000022043C00715D0487909790002084343
:10EC30001946FEF7A3FE10BD487A0C7A0002204365
:10EC4000800707D548790979000208431946FEF77D
:10EC5000B1FE10BD002010BD70B5CE4CE068817EC5
:10EC6000FD22114081766069CD4D837F427F203047
:10EC700041780078090201430120A847E0688178C3
:10EC80004906C90F61718178BF221140817060E728
:10EC900010B5C04CE068817E022211438176BF48E6
:10ECA00034308047E0688178BF2211406279D20712
:10ECB000520E1143817010BDF0B51746B64A044696
:10ECC000D0681E460D46C37885B000211B0702D5CB
:10ECD000002005B0F0BD00BF491C89B26429FAD3F9
:10ECE0004030417C8907FCD4AB4841692D2040016C
:10ECF0000818C07A012804D1FF210531204601F00F
:10ED00007EFDA00707D1A3482D2142694901511872
:10ED1000897A01291DD09F4B0020D968C0310A791A
:10ED20002254401C80B20228F9D39A4880780028E7
:10ED300008D09B4908208847002803D096482178AE
:10ED4000801D0170207880066078288034D50120ED
:10ED500033E0C1680846E030427B037B12021A436D
:10ED6000837B1B041A43920C9204A3039B0B1A434C
:10ED70000273130A4373120C82734822525CC37BE2
:10ED80005206520EDB09DB011343C373027A5208A9
:10ED900052000272027A02231A430272E031087AA8
:10EDA0008007FCD4207880066078288001D5012077
:10EDB00000E00020387012E0002076493870CA6800
:10EDC0000020C032A41C03E013792354401C80B2FD
:10EDD0002B888342F8D8C8680122C0304272288844
:10EDE0006D4F801C2880B87800280AD06D49082013
:10EDF0008847002853D06A4902208847002809D054
:10EE00004DE0F8684030417C890748D4407CC00719
:10EE1000C00F45E02A8821466348921E01F092FC0B
:10EE200062485C49009008225F3101A801F08AFC29
:10EE30007B690122B2330299019800F08EFF554898
:10EE4000801D01788907890F01702888BA6C55499F
:10EE50000292801E009101904F4A78693B89921D71
:10EE60005249BA3000F049FFC0B2307001280ED1CB
:10EE700028884C49BA6C009101AB801E15C3454AE5
:10EE800078693B89921D4849BA3000F0EAFE28882B
:10EE9000B96C401A2880801EA41E607001E0012019
:10EEA0003070012015E7F0B54048002687B01830D3
:10EEB0000590684606820672067300273C490120C9
:10EEC000884700283B4803AB02AA04A90FD0FFF7EC
:10EED000F3FE00280FD12F48C068C078C00673D554
:10EEE00002AA04A9334800F04DFB012703E0314C8E
:10EEF000A047002868D0274D2869C278032A03D18B
:10EF0000E86B00780128D4D06846007A012801D146
:10EF1000002F07D0274C207886460007000F0528D1
:10EF200054D055E01F4C0820A04700282DD00220C7
:10EF3000A047002829D16846007B002841D0A87846
:10EF4000002822D0144C5F34201D01F05CFC237893
:10EF5000C1091A466378E0781B021A43A3780006B9
:10EF60001B041A4302432079C9014006400E521C7B
:10EF7000002358414006400E01432270100A607081
:10EF8000100CA070100EE07021716846008A801E7F
:10EF9000C1B2074812E0A0000020A7290000D91B39
:10EFA0000000699400008419002070180020458535
:10EFB000000080180020B127000005E0FE4A9047BD
:10EFC00077E7FD493D20884707B0F0BD002F03D00B
:10EFD0007146090718D04CE0F949A01C8847FFF793
:10EFE0009DF8F7490222087F10430877F6488047CA
:10EFF000207870214006C20F68690A540622A11CBD
:10F00000713001F09FFB54E76969CB7D022B10D072
:10F01000002360314F7B8C463946012F00D00027FA
:10F020003B4326D0032A06D06046007A012817D039
:10F0300040E00123EDE7059900916946098AE24F16
:10F040000839CBB271464906C90FA21CB847686996
:10F050006030007A0128B3D1DD49A01C884728E739
:10F06000012903D0DA49A01C884723E0A01CD84915
:10F07000FAE70328A4D00428A2D16969CB7D022B2A
:10F080000AD000236031497B012900D000210B43C5
:10F0900096D0032A02D00DE00123F3E705990091F1
:10F0A0006946098AC94D891FCBB271464906C90F05
:10F0B000A21CA8470598009001966846008AA21CE9
:10F0C0000838C3B22078C14C41060007C90F000FB1
:10F0D0006834A047EDE670B5FFB0BE4985B00420A6
:10F0E000884700280BD0BB4904201A318847BA480A
:10F0F0008047B149162088477FB005B029E5B74859
:10F100008047002500280FD0B64C606941790A0776
:10F110005FD58279D3071ED0B349813088476069B3
:10F120008179490849003BE068460580AC4DAA4E0C
:10F13000A54C86359236283C09E0694601A8A847C7
:10F140000028D9D068460088C1B201A8B047A047BE
:10F150000028F2D0D0E7930709D5A24A01467931B9
:10F160001C32773090476069FD22817908E05307AF
:10F1700008D59C496031913088476069FB228179CC
:10F1800011400DE01207F725002A0BDA027A01463A
:10F190001046944A0931423290476069817929408A
:10F1A0008171A9E729404171034677333A22102142
:10F1B0008E4D0020A847092160698901411809780E
:10F1C000012999D14079C00996D1616A012008705E
:10F1D00092E7E16B097800298ED1216C0978012929
:10F1E0008AD1817D427D08021043804A01219047E7
:10F1F000206C057080E7F0B585B00026794C00964C
:10F200000196029603966069017A01292ED1817BCD
:10F21000890901292AD110226946913001F065FA45
:10F22000002823D0002504AF6C48C23880477855A9
:10F230006D1CEDB2032DF7D36946887C4021400652
:10F24000400E08436946887460690621093001F060
:10F25000D6FA6069032204A90C3001F073FA6269DE
:10F26000644B1046913004A909329847267130E565
:10F2700070B55B4EF068447844705B4DE00706D093
:10F28000FFF729FF002301211A460846A847A007D7
:10F2900006D5FFF708FE002302211A460120A847E1
:10F2A000600706D554488047002304211A460120F0
:10F2B000A847200707D54F48BC30804700230821C6
:10F2C0001A460120A847E00610D5F0682030407D9E
:10F2D0003A49400701D53E2000E008208847002336
:10F2E00010211A460120A847FFF785FFA0060CD57C
:10F2F00000F076F9002320211A460120A8470023B8
:10F30000FF211A4601311846A847600611D5314938
:10F3100001208847002807D070696030807B012871
:10F3200002D1F16807204875002340211A460120C8
:10F33000A847E00904D0002380211A460120A847ED
:10F3400007E438B52D4C0120A04700212C4D7F202B
:10F35000A8472A4A3B206946223A904768460178E6
:10F36000FB200140684601703B20A8471A489430B2
:10F3700080470020A04738BD224909788906890FB7
:10F38000017070471749497801707047F8B51C4EF5
:10F390001B4C0546032836D300217F20A047D821E7
:10F3A0001120A0471D213A20A0477078FB2108407A
:10F3B000707035E000003F9C00006F900000CB1D96
:10F3C0000000200001505F1B0000CB6F0000155CA7
:10F3D0000000995D0000458500000F260000ED3417
:10F3E0000000A00000207BA60000315400004F6EFA
:10F3F000000095A90000C18D0000692D0000A7291B
:10F400000000001000507078042108437070002143
:10F410007F20A047D8211120A04719213A20A047DA
:10F420009A4A69463F209047694608782B00800633
:10F43000800E087003F0B7F9060A06040A06040AEB
:10F44000802100E0402108436946087009783F2088
:10F45000A0478E4840694570F8BD10B50446FFF7D7
:10F4600095FF8A48447010BD70B5884D012109038D
:10F47000884B00206A6C984728690446093001F0DF
:10F48000C2F9696C40180578012D01D9002057E7B1
:10F49000E07800280DD020462D3001F0B4F9064662
:10F4A0002046313001F0AFF90246964212D2911B4C
:10F4B00007E02046253001F0A6F90646204629300F
:10F4C000F0E7002D08D030460903724A090E904734
:10F4D000012035E7B11AF4E71046F5E7F8B56B4CB3
:10F4E0002D21E268656949016E18134611462033E3
:10F4F000603101281FD16F1CBC46A87C6F7C0002C4
:10F50000384318D065482C18607E247E00022043C2
:10F5100022321075000A50756046427C047C10024D
:10F5200020431873000A5873C87D10221043C87511
:10F5300001207072F8BD2D27707A7F010128F9D162
:10F54000307B002500280CD01D73280A5873C87D15
:10F5500010231843C8757572907902210843907181
:10F56000F8BD00F05FF8E068014620310D732A0A0B
:10F570004A736030C17D10221143C1756069C019A2
:10F580004572F8BD70B5414C0023E568C0352E7D4D
:10F59000C6545B1CDBB2022BF9D3037801259B0612
:10F5A000002B43780B8001DA157001E00023137003
:10F5B000E3680022801CC03303E01E7D8654521C89
:10F5C000D2B20E889642F8D8B0B2801C0880E068AB
:10F5D000D9210D5401790222114301710120AFE6B6
:10F5E00010B52E4901208847002815D028484169C8
:10F5F00060314A7B012A05D1C26860321378082441
:10F6000023431370897B012906D1C068017C402205
:10F610001143017400214175224880472148C430BC
:10F62000804710BD70B5194CE068203041780278F1
:10F630000D02417E1543027E0E021643AE4208D8EB
:10F6400061698A7C4B7C1102194349190176090AC8
:10F650004176FEF733FD00280DD0FEF72FFD01287F
:10F66000FBD0AE4205D8E0682030817802221143F9
:10F670008170012064E6FEF721FD0028FBD0FEF733
:10F680001DFD0128FBD0ECE7000085290000A0004B
:10F6900000208F1600009F1800008305000045859C
:10F6A0000000498F0000644800684078032801D8B2
:10F6B0000120704700207047FFB50E4600218C46A0
:10F6C0005E4981B009681D464978032900D9FEE7E3
:10F6D000062871D25A494A785A4B5207D20F120162
:10F6E0000978D2188906890F890051588E46EFF3A0
:10F6F0001081009172B62A06514C04216034002A10
:10F7000007DB277E2A46FB233D461A400D40154362
:10F710002576F20703D0A27E02231A43A276B2070F
:10F7200003D5A27E01231A43A276444A8032F3070E
:10F7300002D09378DB09FAD0B20704D5404A803270
:10F7400092789206F8D5002814D0012812D0022809
:10F7500021D003281FD0E27E01231A43E276E27E05
:10F76000FD231A40E276374A13690B4313610428DC
:10F770001FD01AE0344A13698B431361A27E00281C
:10F7800001D0F72313E008231A43A276039A00233B
:10F79000002A18D111E0E27E52085200E276294A8E
:10F7A00013690B431361022803D0A27EFB231A4086
:10F7B000EBE7A27E0A43E8E73DE0234AD27A002A3B
:10F7C00012D0002810D0012084462048720705D5A9
:10F7D0000169C908C9000161092103E00269D20871
:10F7E000D2000261416183617007C20F61467046B9
:10F7F00002F09BFFB00703D5A07E40084000A07632
:10F80000F0070BD0A07EFD210840A0760C48803088
:10F8100001E0F10702D08178C909FAD108488030A7
:10F82000B10702D581788906FAD4280600D4277654
:10F83000009880F3108805B0F0BD10010020001082
:10F8400000506CE4001000ED00E000AA022000E08F
:10F8500000E0F8B50F46064615461C46102118462E
:10F8600000F0CDFF01216846017021700D2239465C
:10F87000601C00F067FF2902280A014368460180E6
:10F880000078A07368464078E0733146204600F067
:10F89000F7FEF8BDFFB589B01D460F46139E00F078
:10F8A0007BFA00240294039404946846059404703F
:10F8B000002D01D0012000E0002081011498801E5D
:10F8C000C20F10184010C00040186946401C087054
:10F8D0000872394602AF0D22781C00F033FFB0B237
:10F8E0000202000A024369460A80CA8202A90998F4
:10F8F00000F058FA002D3DD0A9B20802090A0843C9
:10F9000002940394049469460594088008810E2D9E
:10F9100001D90E2200E02A46B81C0B9900F012FF14
:10F920000E2D01D90E2700E02F460E2D1ED90E20D8
:10F930002D1A099802A91BD000F034FA02940394FE
:10F9400004940594102D01D9102200E02A460B984A
:10F95000C11902A800F0F6FE102D01D9102000E018
:10F960002846C719102D01D91020E1E72846DFE706
:10F9700000F018FA002E24D0029403940494002579
:10F9800005940294039404940594102E01D9102236
:10F9900000E032461298411902A800F0D3FE102E62
:10F9A00001D9102000E030464519102E01D9102051
:10F9B00000E03046361A02A9099800F0F3F9002E4B
:10F9C000DFD102A9149A159800F0BCFE14980DB06E
:10F9D000F0BDFFB589B01C46139D00F0DDF900268F
:10F9E000029603960496684605960670002C01D090
:10F9F000012000E0002081011498801EC20F101821
:10FA00004010C00040186A46401C1070107202A8D6
:10FA10000D2201300A9900F095FEA8B20102000AF9
:10FA200001436A461180D18202A9099800F0BAF90F
:10FA3000002C3ED0A0B20102000A014302960396B8
:10FA4000049668460596018001810E2C01D90E228C
:10FA500000E0224602A802300B9900F073FE0E2C43
:10FA600001D90E2700E027460E2C1ED90E20241A9D
:10FA7000099802A91BD000F095F902960396049606
:10FA80000596102C01D9102200E022460B98C119CE
:10FA900002A800F057FE102C01D9102000E02046EB
:10FAA000C719102C01D91020E1E72046DFE700F04C
:10FAB00079F9002D32D000200290039004902C465A
:10FAC000064601270590BAB202AB0A990998FFF7DA
:10FAD000C0FE00203118A94203D3002102AA11540C
:10FAE00006E002AA135C129A515C4B4002A90B5427
:10FAF000401C1028EED37F1C102C01D9102000E0F0
:10FB000020468619102C01D9102000E02046241A26
:10FB100002A9099800F046F9002CD4D102A9149A40
:10FB2000159800F00FFE149851E7FFB5002585B039
:10FB30001F461C4601262BE06B4632460699059867
:10FB4000FFF787FE00202918B94209D2079B6A46B1
:10FB5000125C595C4A4069460A54401C1028F2DB8A
:10FB6000102C01D9102200E022460E986946401957
:10FB700000F0E8FD102C01D9102000E020464519C6
:10FB8000102C01D9102000E02046241A761CB6B2B1
:10FB9000002CD1D1284609B0F0BDFFB585B00026B4
:10FBA0001C460B46074600960196029601216846C0
:10FBB0000396017401700D2219466D46401C00F039
:10FBC000C1FD68460682C681394600F059FD002015
:10FBD00005E0079A295C125C51402954401CA04260
:10FBE000F7DB224669460E9800F0ACFD2046D2E7CE
:10FBF000FFB589B0159D1C461A462846149F139ED2
:10FC00000B9900F09FFD04A912986A460391C1C2A6
:10FC100009A807C82346FFF73DFE002801DBB842CC
:10FC200002D00020C043D2E6281900903346129A31
:10FC30000A990998FFF779FF002802DA0120C043EA
:10FC4000C5E6A419601900903B4604AA0A990998D0
:10FC5000FFF7A3FF002802DA0220C043B7E620180E
:10FC6000B5E6FFB58DB017ACA1CCA84203D20520F4
:10FC7000C04311B0F0BD461B169804A9009132187C
:10FC80002B460E990D98FFF788FF040001D4AC4273
:10FC900002D00020C043ECE733460097169A0E9935
:10FCA0000D98FFF742FF06000FD008A803900097B9
:10FCB000019602950DA80FC8FFF7ECFD002801DBA7
:10FCC000A84205D00220C043D3E70120C043D0E7BB
:10FCD000844202D00320C043CBE7002004A908AA35
:10FCE00007E00B5C155CAB4202D00420C043C0E7C8
:10FCF000401CA042F5D33046BBE7FFB58DB0189D40
:10FD0000179804A9169F461B0091F2192B460E99CD
:10FD10000D98FFF742FF040018D4AC4216D108A892
:10FD200003900097019602950DA80FC8FFF751FEAA
:10FD300000280BDBA84209D1844207D1002004A986
:10FD400008AA06E00B5C155CAB4201D0002090E7EE
:10FD5000401CA042F6DB01208BE770B54906490E36
:10FD6000049C0E06050A354320706570050C0E04D0
:10FD70003543A5700D02000E2843E070D001014309
:10FD80002171002007210A1A2518401C9A5CC0B274
:10FD90006A710828F7D370BD10B510210C4800F027
:10FDA0002EFD10BD70B50C460146084A0020235CAC
:10FDB000155C6B402354401C1028F8DB204600F0F3
:10FDC0005FFC10222146014800F0BCFC70BD8F1C76
:10FDD0000020FCB500228B5C8354521C92B2102A86
:10FDE000F9D301231D012A18114620390E7FFF4C3B
:10FDF000B6464E7F0F7CA65D7E40FD4FFF5C7E4089
:10FE000046558F7F0197E65D4F7C7E405670B44625
:10FE1000CE7F0096A75D8E7C774097707646A45D76
:10FE2000CE7C7440D4700E7D455D6E401671B64632
:10FE30004D7D664675405571AC468D7D76467D405C
:10FE40009571CF7D6740D7710C7E74401472A646C1
:10FE50004C7E6646744054728E7EA4466E40967206
:10FE6000CD7E74467D40D5720F7F67401773497F02
:10FE7000644661405173019F77409773009E5B1CFD
:10FE80006E409BB2D6730B2BACD3FCBDF0B591B0DA
:10FE90000D460446002739012278685C4919424022
:10FEA000D348825C227023790E797340C35C23713E
:10FEB000237A0E7A7340C35C2372237B0E7B7340DC
:10FEC000C35C237363784E7873409C4663794E79A4
:10FED0007340C35C63700593637A4E7A7340C35C6E
:10FEE0006371637B4E7B7340C35C63726346C35C28
:10FEF0006373A3788E7873409E46A6798B795E40B3
:10FF0000B446A37A8E7A5E40835DA3700493A37B8C
:10FF10008E7B5E40865DA6717346C35CA3726646A7
:10FF2000835DA373E37BCE7B73409C46E37ACE7AFA
:10FF30007340C35CE373E379CE797340C35CE372CF
:10FF4000E378C9784B40C15CE1716346C15CE17004
:10FF5000059B10465840049B06464B405E4002926B
:10FF600000F0A7FB21787040414021706078A178B3
:10FF7000484000F09EFB6178704041406170A0787D
:10FF8000E178484000F095FBA17870404140A170B5
:10FF9000E078029A504000F08CFBE17870404140DC
:10FFA000E170207962790146A379E67950400246F2
:10FFB0007340584006461046029100F07AFB2279C1
:10FFC000014671404A4022716079A179484000F0B1
:10FFD00070FB6279014671404A406271A079E17913
:10FFE000484000F066FBA279014671404A40A27188
:10FFF000E0790299484000F05CFBE27901467140EB
:020000041001E9
:100000004A40E271207A617A0246A37AE67A484051
:1000100001467340584006460846029200F049FBEC
:10002000227A014671404A402272607AA17A4840A1
:1000300000F03FFB627A014671404A406272A07A4A
:10004000E17A484000F035FBA27A014671404A400F
:10005000A272E07A029A504000F02BFBE27A01464D
:1000600071404A40E272207B627B0146A37BE67BC3
:10007000504002467340584006461046029100F038
:1000800018FB227B014671404A402273607BA17BB2
:10009000484000F00EFB627B014671404A406273AB
:1000A000A07BE17B484000F004FBA27B014671404D
:1000B0004A40A273E17B0298484000F0FAFAE27BE2
:1000C000014671404A407F1CFFB2E273092F00D203
:1000D000E1E63A012178A85C41404448415C217046
:1000E0001091511923790A795340C75C27710D97F4
:1000F000227A0B7A5A40875C27720997227B0B7B06
:100100005A40825C2273059262784B784E795A404D
:1001100063797340C75C6770637A4E7ABC467340FC
:10012000C75C67710C97637B4E7B7340C75C6772DB
:100130000897825C62730492A3788A788E79534020
:10014000A2798F7A7240A67A7E40875DA7700E975B
:10015000A67B8F7B7E40875DA7710B97C65CA672DE
:10016000825CA273E77B9646CA7BA0355740009716
:10017000E27ACB7A5A40835CE373E279CF797A40B2
:10018000825CE272E778C9784F40C15DE1710A9103
:10019000009FC05DE0702F781099794021706978D8
:1001A00067464F406770A9780E9F4F40A770E97867
:1001B0004840E07028790D9F4740277168790C9F6F
:1001C00047406771A8790B9F4740A771E8790A9962
:1001D0004140E171287A099F47402772687A089F59
:1001E00047406772A87A4640A672E87A03E08CE43A
:1001F00000108CE600104240E272287B059A4240D3
:100200002273687B049A42406273A87B7246424024
:10021000A273E87B4340E37311B0F0BDF0B5044630
:10022000027808460D46A030017891B04A4022700D
:10023000637841784B4063709E46A37881784B4049
:10024000A3700B93E378C1784B40E3700793217957
:10025000037959402171677943795F406771A379C8
:1002600086797340A3710993E379C6797340E3718A
:100270000693237A067A734023720E93637A467A42
:10028000734063720293A67A837A5E40A6720596E3
:10029000E37AC67A7340E3720493237B067B734050
:1002A00023730D93637B467B734063730193A67B3B
:1002B000837B5E40A6730396E37BC07B4340E3737E
:1002C0009C46FA489023825CEB5C5A402270425C68
:1002D000294690310B795A4022710E9BC25C0B7AF1
:1002E0005A4022720D9BC25C0B7B5A402273019BC9
:1002F0004E7BC25C4B785A40029BC35C7340637375
:10030000C35D4E7A734063727346C35C4E7973402B
:10031000637162700B9B8E7BC25C8B7A8F785A40C4
:10032000099BC35C7340059E865D7E40A670039E5C
:100330008F79865D7E40A671A272A373079BC25C13
:10034000CB7B5A40069BC35CCE787340E370049B22
:10035000CE79C35C7340E3716346C35CC97A4B409A
:10036000E372E27308262078A178484000F0A1F9F2
:1003700000F09FF907466078E178484000F099F96D
:1003800000F097F9217879402170617841406170DF
:10039000A1787940A170E1784140E1702079A1799C
:1003A000484000F086F900F084F907466079E17969
:1003B000484000F07EF900F07CF901462079784051
:1003C0002071607948406071A0797840A071E0792F
:1003D0004840E071207AA17A484000F06AF900F0C4
:1003E00068F90746607AE17A484000F062F900F067
:1003F00060F9217A79402172617A41406172A17A73
:100400007940A172E17A4140E172207BA17B4840B2
:1004100000F04FF900F04DF90746607BE17B484062
:1004200000F047F900F045F9217B79402173617BA9
:1004300041406173A17B7940A173E17B4140E1734D
:10044000207862780146A378E778504002467B40E6
:10045000584007461046029100F02BF922780146D9
:1004600079404A4022706078A178484000F021F934
:100470006278014679404A406270A078E17848404D
:1004800000F017F9A278014679404A40A270E0785E
:100490000299484000F00DF9E278014679404A405F
:1004A000E270207962790146A379E77950400246EB
:1004B0007B40584007461046029100F0FAF8227936
:1004C000014679404A4022716079A179484000F0A4
:1004D000F0F86279014679404A406271A079E17989
:1004E000484000F0E6F8A279014679404A40A271FE
:1004F000E0790299484000F0DCF8E2790146794061
:100500004A40E271207A627A0146A37AE77A504043
:1005100002467B40584007461046029100F0C9F859
:10052000227A014679404A402272607AA17A484094
:1005300000F0BFF8627A014679404A406272A07AC0
:10054000E17A484000F0B5F8A27A014679404A4085
:10055000A272E07A0299484000F0ABF8E27A0146D4
:1005600079404A40E272207B627B0146A37BE77BB5
:10057000504002467B40584007461046029100F02A
:1005800098F8227B014679404A402273607BA17B28
:10059000484000F08EF8627B014679404A40627321
:1005A000A07BE17B484000F084F8A27B01467940C3
:1005B0004A40A273E17B0298484000F07AF8014675
:1005C000E37B79404B40E373217838489E46425C98
:1005D00031016B5C49195A40227022790B79825C97
:1005E0005A402271227A0B7A825C5A402272227B14
:1005F0000B7B825C5A402273627B4B78825C4F7B20
:100600005A40637AC35C7B40637363794F7AC35CFF
:100610007B40637263784F79C35C7B406371627027
:10062000A2788F78835C8A7A5340A2799C46825C58
:100630008B7B5A40A37AC35C7B40A370A37B8F79EA
:10064000C35C7B40A3716346A372A273E278CB7B49
:10065000825C5A40E379CF78C35C761E7B40E370BE
:10066000E37ACF79C35C76B27B40E3717346C05CBA
:10067000C97A4840E072E273002E00DB73E6CBE5F6
:1006800010B5ACB004466846FFF7A3FB69462046A8
:10069000FFF7FCFB2CB010BD10B5ACB004466846AB
:1006A000FFF797FB69462046FFF7B8FDF2E78CE5B8
:1006B0000010C1094000002903D0C0B21B214840EE
:1006C0007047C0B270471CB50C46064B7B44694668
:1006D0000090204600F0B0FF04460020694600F07C
:1006E000BEFF20461CBD8F0F0000034610B50B4314
:1006F0009B070FD1042A0DD308C810C9121FA342AB
:10070000F8D018BA21BA884201D9012010BD0020C2
:10071000C04310BD002A03D0D30703D0521C07E00A
:10072000002010BD03780C78401C491C1B1B07D10E
:1007300003780C78401C491C1B1B01D1921EF1D17F
:10074000184610BDF8B5042A2CD3830712D00B78B5
:10075000491C0370401C521E83070BD00B78491CA8
:100760000370401C521E830704D00B78491C037091
:10077000401C521E8B079B0F05D0C91ADF00202397
:10078000DE1B08C90AE0F9F7A0F9F8BD1D4608C943
:10079000FD401C46B4402C4310C0121F042AF5D261
:1007A000F308C91A521EF0D40B78491C0370401C80
:1007B000521EEAD40B78491C0370401C012AE4D471
:1007C00009780170F8BD01E004C0091F0429FBD2BB
:1007D0008B0701D50280801CC90700D002707047CA
:1007E00000290BD0C30702D00270401C491E022909
:1007F00004D3830702D50280801C891EE3E7002210
:10080000EEE70022DFE70378C27819464378120644
:100810001B0219438378C0781B0419431143090252
:10082000090A000608437047020A08704A70020C61
:100830008A70020ECA707047002203098B422CD3C3
:10084000030A8B4211D300239C464EE003460B4320
:100850003CD4002243088B4231D303098B421CD382
:10086000030A8B4201D394463FE0C3098B4201D374
:10087000CB01C01A524183098B4201D38B01C01AAC
:10088000524143098B4201D34B01C01A5241030923
:100890008B4201D30B01C01A5241C3088B4201D3D2
:1008A000CB00C01A524183088B4201D38B00C01A7F
:1008B000524143088B4201D34B00C01A5241411AA6
:1008C00000D201465241104670475DE0CA0F00D089
:1008D0004942031000D34042534000229C46030982
:1008E0008B422DD3030A8B4212D3FC22890112BA08
:1008F000030A8B420CD3890192118B4208D38901E0
:1009000092118B4204D389013AD0921100E08909F7
:10091000C3098B4201D3CB01C01A524183098B42D8
:1009200001D38B01C01A524143098B4201D34B01C1
:10093000C01A524103098B4201D30B01C01A524124
:10094000C3088B4201D3CB00C01A524183088B42AB
:1009500001D38B00C01A5241D9D243088B4201D334
:100960004B00C01A5241411A00D20146634652411F
:100970005B10104601D34042002B00D5494270471E
:1009800063465B1000D3404201B50020C046C0461C
:1009900002BD7047704770470000F0B50C46871ADB
:1009A0009C410D46861A9D4103D2C01BA141D2191C
:1009B00063410D0D1F0DC94EEC1BAE435CD07F058E
:1009C0007F0D0026002F51D02D05AC46A943DD0236
:1009D0000123ED0A1B051D4320231B1B24D41746AE
:1009E000E740381871412F46E740CC199D40281840
:1009F000314661410C0D27D161449A4013D5002343
:100A0000401C594152000ED14008400001224B00C9
:100A10005205D34207D305204007C14201D5B04952
:100A200000E0B0493046F0BD6B00002A00D0012242
:100A30009A181F23203C1B1B01D5002302E0E54030
:100A4000281871410C0DD7D0012424050919C407B9
:100A5000CD0740084908E40F28436144002CD5D055
:100A60000024401C61419A40D0D1CDE76A05520D67
:100A7000D9D1C90FC907D5E79C4D4E00002801D038
:100A8000012400E0002434195F00002A01D001266F
:100A900000E00026BE19954FAC420CD8AE420AD8F1
:100AA000B44206D001256D05EC42BCD01046194673
:100AB000F0BD9942FCD000203946F0BDF0B51FB41E
:100AC0000C460F46811A9F412546861A9D4106D243
:100AD0000125ED076F40401ABC4152187B41210DA2
:100AE0001E0D8D1BAC467D4D8D437ED075056D0D65
:100AF0007CD00D05AE46AC431B031B0B794D524217
:100B00009D41202366469B1B14D31746F740381897
:100B100000260090744160462F460741E419009872
:100B20009D402818664116D4714671189A4025D503
:100B3000012320E093182A466A415200002B00D07E
:100B4000521C1E23203E9B1B002B61DD3541EE17FE
:100B500028186641E8D5001876415B1C9A4000D3FE
:100B6000401C4B05F3181524E34010D3002B52D042
:100B700071467118D30FC01802D3491C05B0F0BDDF
:100B80000123DB079A42F9D140084000F6E7012231
:100B90005205B21801D1002853D00123CC0ADB0240
:100BA0009943891E002A08D1020C03D0020C0004CC
:100BB000103902E00246002020390023550B05D1F0
:100BC00012020823550B01D152010D23550C01D1FE
:100BD00012011B1DD50C01D192009B1C150D01D1DA
:100BE00052005B1C2025EE1A01E02CE022E00546B5
:100BF000F54015439840CA1AE10769181305C9184A
:100C0000002ABBDA032040070818C10FC9070FE00C
:100C100071466118B2E7F10740080843711071444A
:100C20004A000CD001235B059A42A7D2C90FC9071D
:100C30000020A3E74905490D26D1002001E0002846
:100C4000F4D100219AE7284D6600002801D0012147
:100C500000E0002171185F00002A01D0012600E0A9
:100C60000026BE19224FA94210D8AE420ED8B1427A
:100C700008D001256D05E94206D01946A802414079
:100C800010467BE79C4201D0214677E70020394699
:100C900074E710B50C465C4005D50124E4076340B9
:100CA000FFF70CFF10BDFFF778FE10BD30B40C4607
:100CB0005C4004D50124E407634030BC6DE630BCE1
:100CC000FCE670B50124E40761400D465D4002D4A6
:100CD000FFF763FE70BD6340FFF7F0FE70BDFF07D6
:100CE00000000000F0FF0000F07F0000E0FF0000C7
:100CF000F87FF0B5F94D0C091E092C402E402F4607
:100D00008BB0A7437DD0B543FCD0002E7AD0002C09
:100D1000FCD00D465D40ED0F2543AC1BFF25AD0417
:100D200064190894C502440DC9022143500DDC0228
:100D300004430120C00701430443D2020191200C67
:100D4000110C00958C46010423468B430A916146A1
:100D50000904E24D8A430991010A7D444919803909
:100D6000097805464D4301266D18F605751B694344
:100D7000C90C640B891C4C436418B5012C1B250C51
:100D80002E04B4434C434D43210C69188909059145
:100D9000009DE90701D00121C90704912C46019962
:100DA0006708CD072F434C08059DE10B4D432D0CE3
:100DB00029466646754302950D4645432E46029DDB
:100DC0007D1BB44100950D465D4301942C0C2F040E
:100DD0000D465543AE462D0C3D4302950394754692
:100DE000049C2D04641B049406D2029C039D641C85
:100DF000002675410395029401AC70CC009F7D1BC9
:100E000001E03EE162E1B4410904009507910194DB
:100E10000599A4086143090C0C464443650BE7049B
:100E20000C4666467443A646640B3C430395029405
:100E30007446049DE4042C1B049406D2029C039D7A
:100E4000641C002675410395029401AC70CC009F90
:100E50007D1BB44101940C465C430095650FE7008F
:100E60000C465443A646640F3C43039502947446D3
:100E7000049DE4002C1B049406D2029C039D641C78
:100E8000002675410395029401AC70CC009F7D1B38
:100E9000B441AE09AF06049DC900AD092F43049DBE
:100EA000A406AD060495079D344369180791059D76
:100EB000E10B4D432D0C29466646754302950D46C0
:100EC00045432E46029D7D1BB44100950D465D4372
:100ED00001942C0C2F040D465543AE462D0C3D437A
:100EE000029503947546049C2D04641B049406D259
:100EF000029C039D641C002675410395029401AC7D
:100F000070CC009F7D1BB44101948C050694079C16
:100F1000890A611800950791019C0599A40861430D
:100F2000090C0D464543680BEF040D4664466543C6
:100F30006C0B3C43049FED047D1BAC4602D20025A4
:100F4000641C6841009E019D371B8541084658433B
:100F500001950C46460FC5005443600F2843654673
:100F6000E4002C1B02D20025401C6E41019D3F1A5B
:100F7000B5412846BD09800628438446A009BF061E
:100F80004E020699A40676180743079D0020684183
:100F90000A99079019430020099B00906046FF19A9
:100FA00013434041E20F64003A43A4460446D71A73
:100FB0008C41A04203D90120009020463A46C70F39
:100FC000941840416246D20F224364466400049460
:100FD000009CBE466400D71AA446044602978C4182
:100FE0007746002F01D1A04204D96046401C8446B8
:100FF000029A2046C40FA64694184041049A05461A
:10100000D20F224364466400D31A8D4171460029F1
:1010100001D1A84202D928461A46641C1043012275
:10102000002800D0164361020020079B891904465E
:101030005C410223002C02DB491813466441089DE1
:10104000CE0A2D145D194B056705E10A2C050D1913
:1010500008993E43C9076940002B08D0934006D346
:101060000022761C5141002B01D1760876001C4AE3
:10107000002D43DB154241D0AA433FD030460BB090
:10108000F0BD06180D464D41174C7642AC411AD3BF
:1010900095181C465C41134A6D42A24113D30122AC
:1010A00052054C00D4420AD15C00D4420BD04B40D4
:1010B00002D592021143E2E749004908DFE75940AF
:1010C000C90FC90718E000200849D8E705480142C0
:1010D0000DD10342F7D0F2E700000000FF079B713B
:1010E00000000000F07F0000E0FF0000F87F1148E2
:1010F00059400143C01241400020C0E70123089A33
:101100009B069A4205DC032252078918C90FC907BA
:10111000B5E7052252078918074A1143D2125140F8
:10112000ADE770B515461C4602460B4628462146DB
:10113000FFF7DFFD70BDFFFFFF7F0346CA02400DD2
:1011400010B510430A1504D00124E4072043002AF7
:1011500005DB0A4CA21A04D4D040FF2A00DD00208F
:1011600010BD4A00002B01D0012000E00020101823
:1011700001225205D042F2D8C817C04310BD1E0448
:1011800000001F22030C02D10F22000402D0030E24
:1011900003D004E00020014670470002083A030F24
:1011A00001D10001121F830F01D18000921E00287F
:1011B00001DB4000521E120551184205C0124118B1
:1011C00010467047C10FC90700D040420122920764
:1011D0001143D6E701218907D3E7F0B58B4C0F09FE
:1011E000254689B0BD437BD01D092646AE43FAD0C3
:1011F0000E465E402740F60F3E43254071D0240145
:101200002142FBD0FF24AD19A4042D1B0395012519
:101210002D05DB02DB0AC9022B43C90A29431E0143
:101220000901040F130F050121431701880B8203E5
:1012300091432D098C46A90B1E438A039543B30B9A
:101240009A0396433F09BA0B9403A74302962E468E
:101250007E430497B6464E19D7190C46019654435F
:1012600005977E43371B7646BF1B3601B646BE0B3D
:10127000361900967646BC043719009C01D3641CCD
:1012800000946400002F01D001263443029E049F85
:10129000754366467E430496760034196E00341911
:1012A0000094029C019E1C196643751BAE46069471
:1012B00065464519059C05956C435943754608914B
:1012C000691A0191049E01465143A41B0491611ABD
:1012D000009C0791E10605D061090122114302E05B
:1012E00072E06EE06109089D00272C0A2D0669183E
:1012F000049D7C412A0A2D066918019D6241AC0DAE
:10130000AD026D185441079A910D92025519614131
:10131000029A644658435443069B059A5A43121A4C
:10132000131B9A0E9B015B187A41010B0005C31831
:101330005141220A200644195A419A4200D2491CBE
:1013400001204002814203D315230226F64302E026
:1013500014230326F6432020C51AA9401746AF40A0
:10136000DA400A4320460399D84009147318190536
:101370005118039A3843D2075140AC4009D001229A
:10138000944006D30022401C5141002C01D140085A
:1013900040001E4A934212D30122039892069042C3
:1013A00007DB0520400709181A480143C0124140D5
:1013B00004E0032040070818C10FC907002009B046
:1013C000F0BD0020F107FAE705180C464C41114822
:1013D0006D42A04115D394181A465A410E486442F2
:1013E00090410ED301204A004005824209D35A00A1
:1013F000824206D35940C90F084AC9070020114349
:10140000DDE700200649DAE700000000FF07FE07DD
:101410000000FFFFFF7F0000E0FF0000F07F000002
:10142000F87F0121C9050123411842001B06D3188A
:101430005B0E0AD0C1100722D2068918400752421B
:10144000D14201D5520089187047090208D50146DA
:10145000002A03D0C10FC90700207047104670470B
:10146000420202D0002002497047072109050143CA
:10147000F4E70000F87F1F22030C02D10F220004C2
:101480001CD0030E01D10002083A030F01D1000164
:10149000121F830F01D18000921E002801DB400043
:1014A000521ED2055118021251181922904004D32D
:1014B000491C002801D14908490008467047C10F5E
:1014C000C90700D04042012292071143D3E701210E
:1014D0008907D0E770B5044685690068C10601D563
:1014E000302600E02026C00707D070BD6268304675
:1014F000A1689047206A401C20626D1EF6D570BD21
:1015000070B5044685690078C00707D170BD626870
:10151000A16820209047206A401C20626D1EF6D5ED
:1015200070BD09684A0501D540B27047C905FCD5B0
:1015300000B2704709684A0501D5C0B27047C905B5
:10154000FCD580B2704770B50C460546012A05D01F
:101550002878800600D5EA69002302E0012305E02F
:101560005B1C934202D2E05C0028F9D1A869E6181E
:10157000C01AA861286AC01828622846FFF7AAFF87
:1015800004E06A682078A968641C9047B442F8D3E4
:101590002846FFF7B5FF70BD0000F7B50025752997
:1015A0001068009914A611D0FFF7BBFF002802DADB
:1015B000404211A608E0009909688A0701D50FA6E4
:1015C00002E0490704D50EA6012501E0FFF7B2FFAE
:1015D000009F0024243704E000F013FD303139551A
:1015E000641C0028F8D12B4632462146009800F0B2
:1015F00057FAFEBD0000000000002D0000002B0087
:1016000000002000000011680268006A530501D53F
:10161000087009E0D30501D5088005E0130602D55E
:10162000C21705C100E00860012070470000016991
:101630004A1C02610878704700B58FB00291002102
:101640000591054901937944039111460490684638
:1016500000F025F90FB000BD0000E5FFFFFF0A68AC
:101660001070521C0A6070470000F7B5044615461A
:1016700086B02B487844002703C83E46009001916D
:1016800011E007986A467100415A02A800F099FCDF
:10169000411C07D02178890603D5E26939189142A7
:1016A0000ED83F18761C2078800602D5E069B84233
:1016B00006DDAE42E5DB07987100405A0028E0D114
:1016C000A069C01BA0612046FFF704FF15487844BD
:1016D0005A3803C800900020019116E041006A4684
:1016E0000798415A02A800F06CFC0590401C0AD0F3
:1016F000002505E0626802A8A168405D90476D1C66
:1017000005988542F6D30498401CB0420490E5DB6E
:10171000206AC01920622046FFF7F2FE09B0F0BD32
:10172000000002690000F7B5D21D0025D20815A6F9
:10173000D200F52905CA11D0002A05DA002140425D
:10174000914111A60A4608E0009909688B0701D566
:101750000FA602E0490701D50EA601251146009FFC
:101760000024243704E000F05EF930323A55641C5E
:1017700002460A43F7D12B4632462146009800F034
:101780008FF9FEBD0000000000002D0000002B00BE
:1017900000002000000070B504460021243408E059
:1017A0005507D2086D0F303565545D072A43DB08B5
:1017B000491C15461D43F3D10468002310A22507D8
:1017C00008D520252C400C4304D0C46901230CA269
:1017D000641EC46100F064F970BD10B50446214672
:1017E0001068FFF7A7FE002302462046FFF7D3FF4D
:1017F00010BDD21DD108C9000CC9CCE70000000003
:10180000000030000000F8B50F460188090502D538
:10181000224C7C4402E0204C7C440E3405460021DE
:10182000243508E016071209360FA65D6E541E0710
:1018300032431B09491C16461E43F3D12246047845
:101840000023240705D5702F06D0002901D00223DC
:10185000113200F025F9F8BD01231032F9E770B517
:1018600004460D4621461068FFF764FE0023024639
:1018700029462046FFF7C7FF70BDD21DD308DB0005
:101880000CCBC0E730B40368202412682343036004
:101890000823C36130BC0023B5E76C670000F3B5D3
:1018A0000446002081B020622046E1688847002875
:1018B00072D0252802D06268A168ABE0594F00269B
:1018C0007F442046E16888472028054608DB312D03
:1018D00006D2781920380078002801D00643F0E7B6
:1018E000B00701D5042086430020E0610746A061CF
:1018F0002A2D0AD0284600F07AFF002827D0B80009
:101900000019303D0090856119E00298BA00121963
:1019100002C8916102902046E1688847012F054680
:1019200017D1E06900281FDA202086431CE00098C8
:101930000A2180694843009940193038886120465F
:10194000E1688847054600F052FF0028EFD1012FDB
:101950000AD02E2D08D12046E16888470546202070
:1019600006437F1C022FC3DBA069002803DA404234
:10197000A06101200643F00701D0102086436C2DA2
:101980000BD0682D09D04C2D3CD06A2D38D0742D49
:1019900038D07A2D36D016E040E0E1682F46204658
:1019A0008847B842054609D16C2F29D00120800212
:1019B000E168064320468847054604E06C2F1DD0A9
:1019C000FF2001300643002D28D028464138192831
:1019D00003D80120C0020643203520462660294650
:1019E000029A1646F7F7DBFF002810D001280BD02B
:1019F000F61DF008C0000830029055E74020E1E7EE
:101A00008020D5E70020D3E7361D02964CE76268B8
:101A10002846A1689047206A401C44E7206AFEBD22
:101A20000000E66600000B4670B502468907800894
:101A3000084319469D08141AA941250908070543BA
:101A400008092C194841250A01060D43010A2C19E1
:101A50004141200C0D0428430D0C00194D4100217B
:101A600040194D41C00869070843E908840F8D00FB
:101A70002543840024184D4124196D41121BAB41AC
:101A800007E00925ED432C11521963410024401C45
:101A900061411C460A250026551BB441F1D270BD98
:101AA000FFB504460D4681B02430009021688806B9
:101AB00004D51022E0699143216000E00120A84292
:101AC00001DD471B00E000270498A1697A1910186E
:101AD000081AA0612078C00602D42046FFF7FAFC5D
:101AE000002608E003986268A168805D9047206A3C
:101AF000401C761C206204988642F3DB2078C006E6
:101B00000AD52046FFF7E6FC06E06268A1683020AF
:101B10009047206A401C206238467F1E0028F4DC73
:101B200007E000986268A168405D9047206A401C09
:101B3000206228466D1E0028F3DC2046FFF7E0FCFB
:101B40002078000602D5022005B0F0BD0120FBE799
:101B500000007047FFB50C461E468FB003CA0890C0
:101B600009914F007D0D00D16D1E00210846002017
:101B7000C0460321099A89050840002A03DA820039
:101B8000801840080840800D01280A9002DD0020DE
:101B9000C0430A90089807430DD0EF48F049281831
:101BA00048430714189800281DD07542291E1DDDD2
:101BB0000A9842421BE01898012802D000203021E8
:101BC00004E00020F24305E02154401CB042FBDB5E
:101BD00030460022189B002121540F998B600A6027
:101BE000486013B0F0BDBD1B6D1CDFE70A9A0029E9
:101BF00000DA69420BA800F088FA0BAB07CB03AB05
