:020000041000EA
:10000000B0660020B1110010B9110010BB11001032
:1000100000000000000000000000000000000000E0
:10002000000000000000000000000000BD110010F2
:100030000000000000000000BF110010C1110010FE
:10004000E70C0010FF460010C3110010C311001090
:10005000C3110010C3110010C3110010C311001010
:10006000C3110010450E0010690E00108D0E001017
:10007000B10E0010D50E0010C3110010C3110010F6
:10008000C3110010C3110010C3110010C3110010E0
:10009000C3110010C3110010C3110010C3110010D0
:1000A000C3110010C3110010C3110010C3110010C0
:1000B000C3110010C3110010C3110010C3110010B0
:1000C00000F002F800F03EF80CA030C80838241800
:1000D0002D18A246671EAB4654465D46AC4201D180
:1000E00000F030F87E460F3E0FCCB6460126334274
:1000F00000D0FB1AA246AB46334318470C700000F1
:100100002C700000103A02D378C878C1FAD8520790
:1001100001D330C830C101D504680C6070470000BD
:100120000023002400250026103A01D378C1FBD813
:10013000520700D330C100D50B6070471FB51FBDFB
:1001400010B510BD06F01DFB1146FFF7F7FF00F0DC
:10015000D0FB06F035FB03B4FFF7F2FF03BC06F05B
:100160003BFB000000B52D1D00BD000070B505462D
:100170000C46164602E00FCC0FC5103E102EFAD2E8
:10018000082E02D303CC03C5083E042E07D301CCAE
:1001900001C5361F03E021782970641C6D1C761E92
:1001A000F9D270BD1FB50021684601700721417268
:1001B000192189014181FA4981810321817300213B
:1001C000017201F051F8F74801F03AF8F648037867
:1001D000F6480178F64AF74801F049F81FBD3EB5E8
:1001E00004460D46F448007801280FD101216846E5
:1001F0000180032141801F2181800121018123464B
:100200002A466946012001F040FB3EBD0020FCE784
:1002100010B586B00446E9A103C90191009004A875
:1002200001F09DF9002C02D0012C33D11AE0684670
:10023000408A002811D06846008A10280DDD102160
:1002400068464181C821C18100218181C02101729C
:100250000421417202A801F098FF05216846FFF7CA
:10026000BEFF17E06846408A0A2812DA6846008A0C
:1002700050280EDA5021684641810A2181814B21A4
:10028000C900C181C02101720421417202A801F09C
:100290007CFF00BF00BF06B010BD13B586B0684636
:1002A000408B15214902884209D1C6A003C8059197
:1002B0000490082404A9204601F0C9FAB8E0684671
:1002C000408BC249884208D1C1A000680590022431
:1002D00005A9204601F0BBFAAAE06846408BBB495D
:1002E0002831884209D1BBA103C905910490082493
:1002F00004A9204601F0ABFA9AE06846408BB34966
:100300002331884209D1B5A103C90591049007247E
:1003100004A9204601F09BFA8AE06846408BAB496D
:100320002431884209D1AFA103C905910490052465
:1003300004A9204601F08BFA7AE06846408BA34975
:100340002631884208D1A9A000680590042405A997
:10035000204601F07CFA6BE06846408B9B492531D2
:10036000884208D1A2A000680590042405A920466F
:1003700001F06DFA5CE06846408B94492731884271
:1003800008D19CA000680590042405A9204601F02E
:100390005EFA4DE06846408B8C494F31884209D166
:1003A00095A103C905910490072404A9204601F0F2
:1003B0004EFA3DE06846408B9149884223D1142192
:1003C00001A805F075FB8F4800F03AFF8D48817950
:1003D000684601718B4841796846417189480179C5
:1003E000684681718748C1786846C17185488178BF
:1003F00068460172834841786846417201A9062027
:1004000001F025FA14E06846408B7D493831884276
:100410000DD1002105910020049005A904A800F049
:10042000ABFE04A96846007D01F011FA00E000BFB0
:1004300008B010BD0FB410B568464089022808D135
:100440006846C07BA1280FD10021012001F078F877
:100450000AE0684640896A493831884204D16846D2
:10046000817B0F3000F05CFE10BC08BC04B0184764
:100470003EB504460D4664480078012810D1634912
:10048000684601805149183141802621818001212F
:10049000018123462A466946012001F0F6F93EBD56
:1004A0000020FCE73EB504460D4659480078012877
:1004B00013D15649C91C6846018044494C314180DA
:1004C0004321C180422181800121018123462A46A6
:1004D0006946012001F0D9F93EBD0020FCE710B5C6
:1004E000FFB0FFB082B00446601C05F0E3FA0128BB
:1004F00002D100F0C1FE03E1601C05F0DBFA042824
:1005000009D100202C4908700120424908700020C0
:1005100041490870F4E0601C05F0CCFA082809D1C4
:1005200000203C4908703C4908702349087000F0DD
:10053000A3FEE5E0601C05F0BDFA0121C903884275
:100540006CD1A179627908021043012812D1217A75
:10055000E279080210432028CDD1A17A627A0802FC
:100560001043012802D114490870C9E00020124943
:100570000870C5E0A17962790802104323498842D6
:1005800051D1217AE279080210432728B3D1A17A08
:10059000627A08021043012841D11B490870AFE07C
:1005A000FF3F00003C0000203A0000203400002003
:1005B00036000020140000200C000020FC01000088
:1005C000000000005359445F4C6F7374012A00000F
:1005D000FFFF000053594420496E632E424C4520D2
:1005E000312E3000312E302E30000000322E3030CF
:1005F000332E3030342E3030023A09050A02000022
:10060000C9FE0000430000200D0000200F1800006C
:100610000E0000200F000020740000201DE00020CC
:10062000ED4908706CE0A179627908021043EB494A
:10063000884265D1217AE2790802104343285FD1CC
:10064000A17A627A08021043012802D1E4490870B5
:1006500056E00020E249087052E0601C05F02AFADA
:100660000121C902884210D1FF22F83221461531FA
:10067000684605F0BEF9DB4A611D7EA805F0B9F9B0
:100680007EA80FC8FFF7D6FE3AE0601C05F012FA0C
:1006900001218902884209D10822611DFEA805F0C6
:1006A000A8F9FF99FE98FFF7F8FD29E0601C05F016
:1006B00001FA01218903884222D0601C05F0FAF971
:1006C00010281DD0601C05F0F5F9802818D0601C9A
:1006D00005F0F0F901214902884211D1A17962792E
:1006E00008021043030006F07EF80604050607081A
:1006F000090A04E003E002E001E000E000BF00BFFF
:100700007FB07FB002B010BD00B591B000F082FDA7
:10071000B5480990B5480A90B5480B90B5480C907B
:10072000B5480D9009A800F002FF03216846017743
:1007300000214177807F81088900491C68468177C4
:10074000807F042188430146684681771021C17764
:10075000002108A801700321417007A800F0EAFEFB
:100760000621684681800921C1806421018141817F
:10077000062101733221417300218173C173017419
:10078000012101A84173002181730221C17300215D
:10079000017403214174002181740421C17400217A
:1007A0000175052141750021817500F0D0FE934946
:1007B000FF20013005F08FF99049091D904805F0A0
:1007C0008AF98E4801F02DF88E4801F03DF800209E
:1007D00001F081F9FFF7E6FC012108A801764176D6
:1007E0000EA902310320800305F075F90FA902312B
:1007F0000320800305F06FF90EA801F0BAF9082074
:1008000001F04EFE11B000BD10B5002457E0172CCA
:1008100028D00CDC0A2C27D004DC002C14D0042CAB
:1008200041D134E00E2C28D00F2C3CD126E01E2CD8
:1008300038D004DC182C34D0192C34D111E01F2C02
:1008400026D0222C2FD10EE00021204600F0D1FA34
:100850000121204600F0E9F80021204600F04DF982
:100860002AE000BF00BF00BF0021204600F0C1FA0F
:100870000121204600F041F91EE000BF0021204682
:1008800000F0B7FA0021204600F0CFF814E000BFD6
:100890000021204600F0ADFA0021204600F02DF99D
:1008A0000AE000BF08E00021204600F0A2FA002183
:1008B000204600F0BAF800BF00BF601CC4B2272C6D
:1008C000A5DB10BD10B550480078012810D04E4867
:1008D000007803280CD100204B490870FF20F53028
:1008E00000F04CFA01F059F97D20C00000F046FA02
:1008F00010BD72B6FFF708FF032001F002F901F006
:1009000034F9012001F00AF9FFF77EFF62B600F02A
:10091000B3FC5FE001F00FFA3C480078002802D1F8
:10092000172000F017F90E2000F053F9002810D11D
:10093000012037490870E9203649088002213548EE
:10094000FFF7B0FD00BF0E2000F043F90028FAD0F9
:100950000CE02F480078012808D100202C490870AD
:100960002C49088002212B48FFF79CFD0F2000F046
:1009700030F9002810D1012027490870EA202549C4
:10098000088002212348FFF78DFD00BF0F2000F0F3
:1009900020F90028FAD00CE01F480078012808D17F
:1009A00000201D4908701B49088002211948FFF7E3
:1009B00079FDFFF787FF642000F0E0F91748807E9B
:1009C00040218843154988761623154A04210120C1
:1009D00001F0D2FA9EE700000D000020121800007E
:1009E0000E000020070200005C690010C8690010BA
:1009F000BD690010106A0010466B00100000002056
:100A0000DF04001008000020740000200F00002008
:100A10001200002010000020130000206010005081
:100A2000F82A0000D1490860704770B502462024BA
:100A30001440630920251446AC430125A5402846EF
:100A40009C00CB4D2C592075050A6575050CA575C4
:100A5000050EE575002B13D0002908D1C54D6D7D1D
:100A60000543ECB2C34D6D7DC24E747515E0C14DAA
:100A70006D7D85432C46BF4D6D7DBE4E74750CE07B
:100A8000002905D1BB4C64680443BA4D6C6004E096
:100A9000B84C64688443B74D6C6070BD70B5024655
:100AA00020241440630920251446AC430125A540A9
:100AB0002846002B13D0002908D0AE4DED7D05430C
:100AC000ECB2AC4DED7DAB4EF47515E0A94DED7D6E
:100AD00085432C46A74DED7DA64EF4750CE000290C
:100AE00005D0A44CE4680443A24DEC6004E0A14CA2
:100AF000E46884439F4DEC6070BD30B50B46202404
:100B00000440610920250446AC430125A5402A463E
:100B10008C00974D2C592276150A6576150CA57612
:100B2000150EE576002B0AD08C00914D2C592271C0
:100B3000150A6571150CA571150EE57109E08C009B
:100B40008B4D2C592272150A6572150CA572150E63
:100B5000E57230BD10B52023034059092024034617
:100B6000A34301249C4022468B00814CE3581A7316
:100B7000140A5C73140C9C73140EDC7310BD10B556
:100B800020230340590920240346A34301249C4009
:100B900022468B00764CE3581A71140A5C71140CCF
:100BA0009C71140EDC7110BD10B52023034059094F
:100BB00020240346A34301249C4022468B006C4C16
:100BC000E3581A72140A5C72140C9C72140EDC72D4
:100BD00010BD30B5014620200840420920240846B7
:100BE000A0430124844023469000614C20584030AB
:100BF000102404192578284665782D022843A57805
:100C00002D042843E478240620431840002801D00E
:100C1000012030BD0020FCE7F0B503460C46154628
:100C200020221A40500920261A46B2430126964037
:100C30003146002C0BD182004D4EB2584032117219
:100C40000E0A56720E0C96720E0ED6720AE08200D2
:100C5000474EB258403211710E0A56710E0C967101
:100C60000E0ED671002D0BD18200414EB2582032AB
:100C700011760E0A56760E0C96760E0ED6760AE091
:100C800082003B4EB258203211750E0A56750E0C7A
:100C900096750E0ED6758200354EB25820321171FF
:100CA0000E0A56710E0C96710E0ED6710022012698
:100CB0009640314F3E6000BFF0BD10B52023034089
:100CC000590920240346A34301249C4022468B005B
:100CD000274CE35820331A72140A5C72140C9C726D
:100CE000140EDC7210BD70B500243CE0A000204959
:100CF00008584030142141180A7810464A781202E8
:100D000010438A7812041043C97809060843A100E9
:100D1000174A515820310A461378194653781B0256
:100D2000194393781B041943D278120611430840E3
:100D30000546002D00D114E00C480068002804D0BE
:100D400029462046094A12689047A00008490858D9
:100D500040300575290A4175290C8175290EC17528
:100D600000BF601CC4B2022CC0DB70BD5400002068
:100D70004C0000204010005000E100E0002109E09C
:100D8000002201E0531C9AB27D239B019A42F9DBB9
:100D90004B1C99B28142F3DB7047002107E000222F
:100DA00001E0531C9AB2092AFBDB4B1C99B2814229
:100DB000F5DB704710B50146272901DA002902DA70
:100DC0000020C04310BDCC07E40F202904DA4A10EC
:100DD0001B480068835C05E008462038421018482C
:100DE0004068835C002C01D01811EBE71807000F56
:100DF000E8E770B5272801DA002800DA70BD090796
:100E0000090FC407E40F202804DA43100C4E36689B
:100E1000F21805E00646203E7310094E7668F21877
:100E20001578002C01D00F2600E0F0263540002C6C
:100E300001D00E07310E2E460E43167000BFDDE7BF
:100E40005800002010B56E480068007E4008400041
:100E5000401C6B49096808766A480068002802D07F
:100E600068490868804710BD10B565484068007E35
:100E700040084000401C6249496808766148406863
:100E8000002802D05F494868804710BD10B55C4813
:100E90008068007E40084000401C594989680876F7
:100EA00058488068002802D056498868804710BD9D
:100EB00010B55348C068007E40084000401C5049AF
:100EC000C96808764F48C068002802D04D49C868F4
:100ED000804710BD10B54A480069007E40084000B8
:100EE000401C47490969087646480069002802D035
:100EF00044490869804710BD01468800404A10589F
:100F00000078C007C00F7047F0B504460E4615467E
:100F10002046FFF7F1FF002801D1052C01DB00205E
:100F2000F0BDA00037490E50042C13D1A000344965
:100F30000A58517917790902394308469179090409
:100F40000843A1002E4A51580D712A0A4A71280CF3
:100F500088710EE0A0002A490958487909790002F1
:100F60000843A9B20846A100254A51580871000A51
:100F70004871002B0BD0A00021490858007F400881
:100F80004000401CA1001E4A515808770CE0A00008
:100F90001B4908582030007840084000401CA10040
:100FA000174A515820310870A00015490858007898
:100FB00040084000401CA100114A5158087001200F
:100FC000AEE700B503461846FFF796FF002801D0AC
:100FD000052B00DB00BD980009490858007840083F
:100FE00040009900064A5158087000BFF2E70146D8
:100FF0008800034A10580078C007C00F70470000EF
:10100000600000200401002070B504460E4615461D
:101010000E20624909680870681C604909684870B8
:101020005E48006884702A4631465C480068C01CEF
:1010300004F0DFFC70BD08B500F0C1FD002802D04F
:101040000020009001E00120009001226946162056
:10105000FFF7DAFF08BD38B50446002500BF2CE0D5
:10106000E01C415D4E4802790079401CC3B24C48F7
:1010700003712038815420300079202819DB484939
:101080002039096A4801464A203A202100F043FEEF
:10109000002802D00020009001E0012000900021F3
:1010A0003F4801712038006A401C3D4920390862E0
:1010B00001E000200090681CC5B2A078A842CFDCF7
:1010C000012269461720FFF79FFF38BD38B5044657
:1010D00033480079002808D0314A1179203A126A41
:1010E00050012F4A203A00F016FE204604F0E2FCA0
:1010F0000546607921790002084303462A4600210B
:10110000084600F013FE002802D00020009001E005
:1011100001200090012269461820FFF775FF38BDB5
:1011200070B504460E4625462878162804D01728A0
:101130000BD018281ED116E00020FFF769F8FFF742
:101140007AFF01201749087014E0A81CFFF783FFFD
:1011500014480078002802D10220124908700020AB
:101160001149087006E0A81CFFF7B0FF03200D49E5
:10117000087000BF00BF70BD70B505460C4607483B
:1011800000684078821C0949284604F032FC034874
:1011900000684078801C207070BD00007C0000203A
:1011A0003801002074000020750000207600002027
:1011B0000748804707480047FEE7FEE7FEE7FEE7EF
:1011C000FEE7FEE704480549054A064B7047000064
:1011D000F1110010C1000010B0160020B066002010
:1011E000B0560020B05600200348044908607047FC
:1011F000014802490860704740787D018000002066
:10120000FE49202208781043EF22104004221043A8
:101210000870704710B5FA488047002802D002F0E5
:1012200001FE012010BD10B502F05FFE10BDF449B3
:1012300028310847F2493C310847F1496C310847E9
:10124000F0490847EF495C310847EE496A310847E1
:10125000EC4976310847EB4986310847E949943132
:101260000847E849A2310847E649AE31084730B49B
:10127000E54CA44630BC6047E34874300047E3487F
:101280000047F8B5E24DCF222968E24C08780026E5
:10129000104008702068E0491830884728682268A4
:1012A0000178127F090912070901120F1143017019
:1012B0000907090FBF27012921687DD00A4622317D
:1012C0004B7809781B020B43114620310B711B0A26
:1012D0004B710378117A3B4089010B435906490E43
:1012E0000170226841784032127A8909921D920673
:1012F0008901920E1143417021680622801C093138
:1013000004F077FB21684820425C002A04D028685A
:101310004931083004F06DFB2168BF4A7020405C01
:10132000323A713190472868BC4A41788906890E63
:10133000891C90472868017809090901091D017075
:1013400022683940127AD207520E11430170226886
:1013500041782032127A8909921D92068901920EF3
:101360001143417021680622801C093104F041FBC1
:1013700021682820425C28682931083004F039FBB4
:101380002868A74A41788906890E891C90472568F4
:1013900000206F7F012181400F4204D0E97F0B22A2
:1013A00051438E19761C401C0328F3D32C4620345D
:1013B00060782178000200E01AE0084313214843D6
:1013C000401CB04206D2701E04F08DFB401C207001
:1013D000000A60706078217800020843022803D276
:1013E0000220207000206070287F012824D03AE07D
:1013F0000B4620318A79CA71197A0278C9073A40B6
:10140000490E0A43027051062268490E6032127C6E
:10141000D2011143017041780622890989010C31FA
:1014200041702168801C093104F0E3FA28682168C2
:101430000622083071316DE7E079002813D060781A
:1014400022780102114313204143A079491CC003B3
:1014500004F049FB401C06467F2104F044FB401C7D
:10146000C1B2E1711EE0607921790002084331D0F8
:10147000607822780102114313204143284622302C
:101480004278037810021843C003491C04F02BFB78
:10149000401C06467F2104F026FB401C81B22171CE
:1014A000080A6071304604F01EFB401C7F2800D9FA
:1014B0007F200121E975A97F0091617823780902D5
:1014C0001943584CEA7FC0B23B46A04755483430D8
:1014D0008047F8BD0020544CE875034602460121C0
:1014E000A047F8BD49491A3108474848F430004739
:1014F0004E48004738B5049C00944C4C0E34A0472D
:1015000038BD30B4494CE834A44630BC604710B50F
:1015100002F0E0FD10BD10B502F0F8FD10BD43492A
:10152000A43108474248004741483230004740490B
:10153000463108473E49B23108473D49C231084764
:101540003B4AD032104710B501F0D6F810BD3849EB
:10155000FC3108473749084736490E3108473549B5
:101560003631084710B501F0A6FB10BD10B503F0E9
:10157000F8F910BD2F48DC3000472F480068C078CC
:101580008007C00F704770B522480068817C427C9C
:101590000802104312D0FFF7F0FF184C0225012873
:1015A0000DD12448DC3080472449884207D1217876
:1015B000012029430143217003F0D3F970BD207845
:1015C000802108432843207070BDF8B50B48C079CE
:1015D000000679D50F480668B17C707C0F0207437E
:1015E0000648057801D0A80701D468076CD5034CDC
:1015F000207BE17A0002E41C084321E00A1200206B
:10160000DF5600001558000027590000CD5B000090
:10161000B0000020AC000020451D00002B2600007B
:1016200047270000971B000031540000F55C0000C4
:101630005B5E0000675F0000A4000020060400005D
:1016400042D0002F40D060782178000208432AD190
:10165000307CF17B0002084304F013FF0022F74BBB
:1016600004F012FF04F0C0FE80B278430A2104F0B7
:1016700044FA4004010C2170080A6070307DF27C4D
:10168000000210430A224243914203D3401E2070BD
:10169000000A6070607821780002084303D10120BD
:1016A000207000206070FD210D40E54801210D43B0
:1016B0000570002003F055F960782278010211438B
:1016C000E14BE04A09209847F8BD10B50F21DC48EE
:1016D00004F0ECF910BDF0B504468DB0401C04F0E8
:1016E000E9F9D74E00253E3E024604282AD0D448C8
:1016F000D31F0178FF3BFA3B18D001239B039A428A
:1017000079D1D1490A20243188477078062148438D
:1017100081190A22601D891C04F06BF97078401C45
:10172000C0B270700A2876D3757074E0C279002A4E
:1017300071D0CA066FD4A37966791A023243012A9E
:1017400005D068E075703570FFF7BFFF63E0827801
:10175000521E1206120E82704ED0B9494378887913
:101760004E7902023243887A4E7A00023043491C95
:10177000012B47D0801A0872000A487200060B7AC3
:10178000000C1843831A6A4613835083AC4A167BB5
:10179000D27A360216436A4696834A7B0F7B110241
:1017A00039436A46D183138050809680D18013726A
:1017B0003220507200209072D572280A10730120D6
:1017C0005073002090730220D07300201074032007
:1017D0005074002090740420D074002010750520EF
:1017E000507500209075994910468847974906A87A
:1017F0001E3188470FE007E0027A827040221143D1
:10180000017008E08018B6E7880604D59004000F40
:1018100001D0FFF7DAFE8E492046096988470DB0EE
:10182000F0BD10B50446001D04F044F98849086174
:10183000211D884804F04FF9844920465C318847CF
:1018400010BD82497E3108478049D43108477F4A1C
:10185000DC3210477D4AE4321047794900203E3996
:101860000A7849788A4200D90A200818801A401E4E
:10187000C0B2704700B5FFF7F0FF002804D17048F0
:1018800000213E384170017000BDF8B50E46074694
:1018900071491C46154601208847002807D0FFF7EC
:1018A00094FE23462A463146384602F0EFFBF8BD47
:1018B000F8B50E46044668491F461546012088477C
:1018C000002814D0022C03D1FFF7C7FF002809D04D
:1018D000EAB25E4D3B4631462046F435A847012822
:1018E00007D004E00A21584B5C4A0846984700207C
:1018F000F8BD022C12D1524C06213E3C20780A46FB
:10190000484300193146801C04F073F82078401CCD
:10191000C0B220700A2801D3002020700120F8BD39
:1019200070B50D46044611214019890316468842B8
:1019300001D3002070BD4A480068213004F0BAF895
:10194000484B001932462946984770BDF8B50646FF
:10195000EFF3108472B6424D2868213004F0AAF8E3
:101960008019414A0121904784F310883E4F00249A
:10197000F63FEFF3108572B639480068213004F065
:1019800099F831194018394900230A192021B8471C
:1019900085F310880120000320348442E9DBF8BD80
:1019A000F7B5070501993F0D002912D002990029CA
:1019B0000FD02749897800290BD101997A18012184
:1019C00009038A4205D8019A112382181B039A42FF
:1019D00001D90020FEBD0025C41BEFF3108672B6AE
:1019E0001F480068213004F065F8611940181F494C
:1019F0001C4B4A192021984786F3108801200003C8
:101A000020358542E9DB1948019AC019029903F093
:101A1000F0FF11490120884700280AD0EFF3108019
:101A200072B60B4901228C808A7080F310880120E5
:101A3000FEBD2046FFF78AFFF9E700000000F43FF3
:101A40000A12002087150010D3330000575F0000F2
:101A500084000020D716001045850000751800107E
:101A6000A80000208F1600009F180000CC01002065
:101A7000FA490847F94A0832104738B5049C0094DF
:101A8000F64C1034A04738BD30B4F44C1C34A44696
:101A900030BC6047F14924310847F04A2C321047E6
:101AA000EE4A3432104730B4EC4C3C34A44630BCDF
:101AB0006047EA4B44331847E84B4C33184730B47F
:101AC000E64C5434A44630BC6047E4495C310847D6
:101AD000E24864300047E1496C310847E049084773
:101AE000DF4908310847DE498C310847DC48BE3001
:101AF0000047DB48E2300047DA4A1047D949523103
:101B0000084710B502F0C8FE10BDD6496431084739
:101B1000D4496C310847D3497631084710B502F0F3
:101B200057FA10BDD048004770B5D04800248068EF
:101B30002546807A4006C60F72B6CB488047022001
:101B400002F046FA641CA4B2FA2CFBD300243046FF
:101B500002F01DFA002801D0012503E0641CE4B264
:101B6000032CF4D362B6284670BD10B502F030FEE7
:101B700010BDBC49A431084730B4BD4CA44630BCAC
:101B80006047B848F6300047B74814380047B649B0
:101B90001C310847B44842300047B3484C30004736
:101BA000B1480E30004710B5AF488047B14C012016
:101BB000A0470020A04710BDAF4908707047F8B596
:101BC000002472B6AD4A0121AD4B09032046984767
:101BD00062B6AC4E30680546093003F06BFFA7498A
:101BE0004718E878002811D02846313003F062FF0A
:101BF000064628462D3003F05DFF301A4002060EDF
:101C00003878A14F9F4D002857D073E028462930DF
:101C100003F050FF06462846253003F04BFF301AEC
:101C20004002060E3878984F964D00280CD026E0DA
:101C300072B62868293003F03DFFE10340180821FF
:101C4000B84762B6641CE4B2B442F1D32D682846AA
:101C5000293003F02FFF06462846253037E072B6BC
:101C6000E203B01819E072B62868253003F022FFAD
:101C7000E10340180821B84762B6641CE4B2B442DC
:101C8000F1D328680646293003F014FF0546304694
:101C9000253039E072B6E2038018B84762B60120F9
:101CA000F8BD72B62868313003F004FFE103401834
:101CB0000821B84762B6641CE4B2B442F1D32D687F
:101CC0002846313003F0F6FE064628462D3003F054
:101CD000F1FE301A4004410FC1D1E0E772B6286826
:101CE0002D3003F0E7FEE10340180821B84762B643
:101CF000641CE4B2B442F1D328680646313003F0E4
:101D0000D9FE054630462D3003F0D4FE291A490489
:101D1000490FBFD1C3E7544BC23318475B4B184739
:101D200030B45A4C6634A44630BC604730B4584C8A
:101D3000A44630BC6047F8B5564880474B4DA8785C
:101D4000002809D0A888FFF701FEEFF3108072B6D3
:101D50000021A97080F310884F4CE079002834D01E
:101D6000000610D52078410705D5FFF72EFC207816
:101D7000FB21084006E0000605D5FFF726FC207889
:101D80004006400E20702078444F454E41060AD54B
:101D9000BF210840207002206946088002466B4639
:101DA00039460020B0472078C1070ED040084000D7
:101DB0002070800701D5042000E0052069460880D6
:101DC00002226B4639460020B0476878C10704D02C
:101DD000400840006870E8688047F8BD3148004717
:101DE00030483A3000472F48523000472D486A307B
:101DF00000472C486E3000472B498A69120A1202AC
:101E000002434A61087C0122104308747047F8B508
:101E100004462648017DE20649094901D20E1143D4
:101E200001750221224D7F20A847214E25206946B9
:101E3000223EB04768460178214301702520A8471B
:101E400069462520B047F8BD1A481B49006841186B
:101E5000487C097C00020843704700005D61000077
:101E60008B620000916300006B660000840000201C
:101E7000E9310000692D00009A000020CC0100200B
:101E80008F160000A80000209F1800001B680000AB
:101E900061690000D16400000A1200200002000005
:101EA00031540000713C00000010005040600250AE
:101EB000A7290000AC00002063050000F8B5054626
:101EC000EFF3108472B60021F84E7F20B047F74A36
:101ED00017206946223A9047684601789F200140C2
:101EE000A807400E0143684601701720B04784F3ED
:101EF0001088F8BD38B5EFF3108472B60021EB4AB4
:101F00007F209047E94A17206946223A904784F398
:101F10001088684600784006800F38BDE4490840C4
:101F2000E4494A6882434A6096E7E1490840E1494A
:101F30004A6802434A608FE71CB56A469080118068
:101F4000DD485080D0806946012001F0C1FB1CBDF6
:101F5000DA48004770B50546D9480C468268107AC1
:101F6000FB2108401072D74928468847D54A2146A8
:101F700028465E3A904770BD10B572B6D14C3E34DB
:101F8000A047D148006801214A02104206D1CF483B
:101F9000027ED20702D0027E0A43027662B6012098
:101FA00010BD70B5044603200003844221D9C848FF
:101FB0000568E878002802D001280AD01BE02846EE
:101FC000253003F077FD0646A04214D82846293074
:101FD00008E028462D3003F06DFD0646A0420AD8E1
:101FE0002846313003F066FD0146801B0818A042E8
:101FF00001D3002070BD012070BD10B572B6B54A86
:10200000904762B610BD70B514460D460646FFF700
:10201000C8FF002806D072B62246AF4B294630468C
:10202000984762B670BD10B572B6AB4BAE339847E9
:1020300062B610BD10B572B6A64CF63CA04762B6AB
:1020400010BDF7B50025C80288B00E462C46070C17
:1020500011E00898610108189F4B6A4620219847B3
:10206000002069460A5C401C5219C0B295B2202873
:10207000F8D3641CA4B2BC42EBD3F6060898F60E63
:1020800061010818944B6A4631469847002069461A
:1020900004E00A5C5219401C95B2C0B2B042F8D3B9
:1020A0000A98854202D101200BB0F0BD0020FBE769
:1020B000FFB50E46012107460903874B81B0874AC9
:1020C000002098478549352208468C3803F091FC5A
:1020D0008248833803F0EEFC8049572244187F4839
:1020E0002146573803F085FC2021601C03F0DEFCFC
:1020F0000025002F10D00020395C00290AD02218BA
:10210000401CC0B251702028F6D305E02118401CB5
:102110004D70C0B22028F9D320460521213003F0AC
:10212000C5FC002E12D00020315C00290CD02218F2
:102130002032401CC0B251700528F5D306E02118AA
:102140002031401C4D70C0B20528F8D321462631FD
:10215000039803F0C0FC2146223104980872000A5B
:10216000487201215B4A25700020904701215A4B9B
:1021700009030020594AAE339847012005B0F0BD4D
:102180004A4A1047494A223A1047F0B5027889B0C6
:10219000002A7DD05249CA7142780A72002A01D0C1
:1021A000042A01D904220A72C278847813022343D4
:1021B0004B4A1C0A537294724479057924022C43C9
:1021C0001546EC72260A2E73A646C479857920023C
:1021D00028435073040A84464248947304680825CF
:1021E0002746207CE47B000220430124521C8342CA
:1021F0004C7008D9181A07E01471200A01E0157113
:10220000280A507107E0C01A0E7AB0426FDA1471D2
:10221000260A56710872087A88700D70002B42D019
:102220005079117900020843191A684601834383E3
:102230006146C18371468183B87C797C0002084382
:1022400002D0002002F08DFB6846018B0180428B9A
:102250004280828B8280C28BC280017232214172A5
:1022600000218172C17201734473210A81730221BA
:10227000C173002101740321417400218174042180
:10228000C17400210175052141750021817500E0AF
:1022900031E015498847144906A81E318847074987
:1022A0000920EA318847012009B0F0BDA7290000C4
:1022B000FCFF0FFD00100050480800000D33000027
:1022C00084000020AB31000000E100E000A00050DD
:1022D000A80000209F1800008F160000CC010020ED
:1022E0000A120020AC000020575F0000FFE7F60054
:1022F000B04284DA80E70020D6E7FEB50746F24810
:1023000001780A077DD5F72211400170BA797C1C4B
:102310007B7912021A437AD0C279120677D510223D
:1023200011430170880672D4E848804705466079F9
:10233000217900020843FF1C002832D004F0A1F8E4
:1023400006460091787839780002084304F099F83D
:10235000DF4F00223B4604F097F83246009B04F022
:1023600093F80090DB4801910068017CC27B080271
:10237000104304F086F800223B4604F085F8074637
:102380000E46607A217A00020843401B04F071F87F
:102390003A46334604F078F8019B009A03F0D0FDEA
:1023A00024E0787839780002084304F0E7F906461B
:1023B000C8480068017CC27B0802104304F0DEF9C3
:1023C000314604F01DFA04F083F90022C04B04F0FA
:1023D0005BF807460E46607A217A00020843401BEC
:1023E00004F047F83A46334604F04EF80022BA4B60
:1023F00003F0D6FD03F0F8FF0104090C00D1012120
:1024000001E00DE003E0B64BB44A092098470320F1
:102410006946088102221102B24C02AB0020A0479B
:10242000FEBD38B5B04C2078002804D1AF496846CD
:10243000884701202070012038BD10B50B301028CE
:1024400001D9FF2010BDC4B2A54B204698472046B5
:1024500010BD10B50B30102801D9FF2010BDA049C8
:10246000C4B2204624318847204610BD072801D930
:102470000020F1E4012282409B4843781A434270D5
:10248000C1600120E8E493480068C07DE4E491481D
:10249000974900684118487C097C00020843DBE446
:1024A00010B5030004F09FF909061C36506A849E9B
:1024B000B0CAE60000217F20FFF762FE0021302035
:1024C000FFF75EFE01217F20FFF75AFE1E216320E9
:1024D000FFF756FE1F216D20FFF752FE882114E002
:1024E00000217F20FFF74CFE00213020FFF748FE3F
:1024F00001217F20FFF744FE1E216320FFF740FEED
:102500001F216D20FFF73CFE8A216120FFF738FE76
:102510008121ACE000217F20FFF732FE0021302036
:10252000FFF72EFE01217F20FFF72AFE1E216320E8
:10253000FFF726FE1F216D20FFF722FE8A21612072
:10254000FFF71EFE832192E000217F20FFF718FE97
:1025500000213020FFF714FE01217F20FFF710FE3D
:102560001E216320FFF70CFE1F216D20FFF708FEE0
:102570008A216120FFF704FE872178E000217F2077
:10258000FFF7FEFD00213020FFF7FAFD01217F203B
:10259000FFF7F6FD1E216320FFF7F2FD1F216D20DE
:1025A000FFF7EEFD8A216120FFF7EAFD8F215EE053
:1025B00000217F20FFF7E4FD00213020FFF7E0FD40
:1025C00001217F20FFF7DCFD1E216320FFF7D8FDEE
:1025D0001F216D20FFF7D4FD8A216120FFF7D0FD78
:1025E0009F2144E000217F20FFF7CAFD0021302019
:1025F000FFF7C6FD01217F20FFF7C2FD1E216320EA
:10260000FFF7BEFD1F212AE000217F20FFF7B8FD64
:1026100002213020FFF7B4FD01217F20FFF7B0FD3C
:102620001F216320FFF7ACFD03216D20FFF7A8FDFC
:102630008A216120FFF7A4FDB02118E000217F204E
:10264000FFF79EFD02213020FFF79AFD01217F2038
:10265000FFF796FD1F216320FFF792FD07216D20F4
:10266000FFF78EFD8A216120FFF78AFDBF216520DB
:10267000FFF786FD10BD1F4909686031087453E4F7
:1026800010B500280ED0012812D0022816D0032839
:1026900007D102217F20FFF773FD40212920FFF79A
:1026A0006FFD10BD02217F20FFF76AFD4621F5E78F
:1026B00002217F20FFF764FD4421EFE702217F2004
:1026C000FFF75EFD4221E9E70A120020051B00002A
:1026D0000000F43FAC000020000024400112001074
:1026E000D333000031540000840000209D2C0000F2
:1026F00063050000A4000020FE490A79002A00D0EA
:1027000008707047F8B5FB4C63695979002915D0FA
:10271000B121C95CC91F092956D8014618461022A3
:10272000D93003F066F9E0780025022101286069BC
:1027300005D04279D2060FD5EF488047F8BDCA22AE
:10274000125C012AFAD1C279012A01D1C57137E0A0
:10275000002AF3D1C171F8BDC279012AF8D1CA218A
:10276000095C01292AD1E06980260178012088408E
:10277000216A0968884300D181260027DF48804705
:102780006169C919E0317F1CFFB24876102FF5D37B
:10279000606933460146E93102460091FF31F93262
:1027A0001131D74EFF305A30B047E0690078142815
:1027B00003D261690120C87101E06069C571606977
:1027C000D049E9308847F8BDCB4B062200210120D3
:1027D0008C3B9847F8BDF1B5C64CA4B0606941790F
:1027E00000292BD0CA210A5C2146C64F49691C37F3
:1027F0000025E931012A23D0064602467136093206
:102800000491711E531E0196BE4E02930392CA3369
:10281000C23200917A36FF300A302499B04761699C
:1028200010220846D930E93103F0B6F800287CD0F0
:10283000B14B0422002101208C3B984725B0F0BD0C
:102840000C950D950E950F95119512951395149560
:1028500042790126D206002A03DBA64A1379002B0F
:102860007ED0F930B847A34C2079002822D01DA88B
:10287000019500906369A44F18460146FF30FF316F
:10288000FA305A31F933249AB8471DA8013003F0C1
:1028900011F918A9097D000208439C4903F023F9A6
:1028A0000422019111049A4F01AB0020B84720780F
:1028B00000287DD0676907223946093115A803F041
:1028C00098F839460722713117A803F092F8387A40
:1028D000002810A86DD086767020C05D002818A84A
:1028E00068D0867004A83A460190F9321046844EAA
:1028F00015ADC03017AB009546362499B0476069D6
:10290000102204A9813003F074F808AE0FCE19AE7E
:102910000FC6616903220E4621A8D33103F069F87E
:1029200003223146CC3122A800E073E003F061F8C5
:102930003046FF30EA30039017AF21A96846A2C0A5
:102940003146714EF93111AB19A86A3E249AB0474D
:10295000626922A91046FF30DA300CAB019700E023
:102960000AE000910390029519A8F9322499B04722
:1029700068490020884761E75E4A3446D26980236F
:10298000127894405B4A126A1268944300D1812302
:1029900000910146FF315A31594CFF30FA30249AE8
:1029A000A0475448102240690146E931D93002E07D
:1029B00025E02BE02CE002F0EFFF002801D00422FC
:1029C0001EE04C4C6069F930B847E0690178491C59
:1029D000C9B201701429CED3216A0868020C08A874
:1029E000827410A882710888020A08A8427410A88C
:1029F0004271097808A8017410A8017133E70C220C
:102A00003D4B002101208C3B984717E7857663E713
:102A1000857067E760690026F930B8476369384F09
:102A20001946FF330A33363F1846F931249AB8471E
:102A3000606910230146A03106E017183246FF32C4
:102A40000A32761CBD54F6B24A7C9F1AB742F4DCB7
:102A5000304900208847606941794908490041713F
:102A6000ECE6F0B50446C07885B0072807D2224BC3
:102A70000622002101208C3B984705B0F0BD1D4E79
:102A800001217069CB221154002506222146CC3049
:102A900002F0AFFF1120716940010818A0314E7C8F
:102AA000C17E827F437F04920A07D20F0092039374
:102AB0004A07CF06D30FFF0F02968A0701970E4EE3
:102AC000920F817E407E643EB047A07810260007BA
:102AD000002843DA074A1121506949014718FB7E53
:102AE00019073BD50121CA2211545A0715D4A278DF
:102AF000520711E0980000205DA100004D25000064
:102B0000B3AA000055A90000FFAB000040420F002F
:102B100031540000F73300000ED57B7E22789D00F3
:102B20005B19FE4D5B19D55C882D02D0102D03D0AA
:102B300005E0FB4A117102E041793143417141796D
:102B4000C90634D50B21C9014018C07D01282ED1FA
:102B50006421F54BF34A0520984728E0F04F002107
:102B60007869CA221154112149014118CA7E5207BD
:102B700002D4A278520709D5497E22788B00C91861
:102B8000E64B193BC918555C102D02D141793143F0
:102B90004171E44AE44B943AE44900209847607953
:102BA000C00704D07869032281791143817160796B
:102BB00080070BD5DA481121406949014118897F06
:102BC000890703D581790C2211438171207980070F
:102BD0000BD5D3481121406949014118497F890724
:102BE00003D54179802211434171CD48416908469E
:102BF000A0304674E278102A00D24274487901224B
:102C00001043CB4C4871202D08D0402D00D034E724
:102C100000231A4640210020A0472EE700231A4631
:102C20002021F8E770B5BE4C0D466369002825D019
:102C3000A0690C2181711946FF3120225A31C01D33
:102C400002F0D7FE6169A069FF31202227307A3176
:102C500002F0CFFE0621B74A412090470B21606960
:102C6000C9014118C97D002907D14079C00602D4A5
:102C70002079012801D1AB48804770BD1846FF304C
:102C80002022FA3002F0B5FE2022AB4B6069A91871
:102C90000E46C01802F0ADFE6369A84C1846FF301E
:102CA0009A30FF3332462946BA33A04729460120DD
:102CB000FFF7B8FF70BDF0B5994C0646606985B066
:102CC0004179C9072AD0FF3010210A3002F0EEFE08
:102CD0006069320AC11DF9314E728A72320CCA72B1
:102CE000320E0A73CA21095C0125012918D0034656
:102CF000064601460933E9365A1E713101AF4EC707
:102D0000491E0091C933C33289318D4EFF300A30DC
:102D1000B0476069C17902292FD00BE00020ACE6F2
:102D2000206A00210660E269802311706269D1790E
:102D3000022904D06069C17900292AD02AE00068FC
:102D40002946814300D18123E168002040314E7D36
:102D50001718E037401CC0B27E761028F7D36069A0
:102D6000774E0146E93102460091FF31F9321131C7
:102D7000E436FF305A30B047CBE771497A39E93051
:102D800088476069CA21095C012902D00021C1710C
:102D900000E0C571012070E6F8B5614C694F6169CA
:102DA000CA19517B127B09021143009102F09BFE6C
:102DB0000646A0780D46002826D06349082088479B
:102DC000002804D060490220884700280CD06069A0
:102DD000C119487B097B00020843C01C704384B2C0
:102DE000002D1AD0601916E06069C119487B0A7B72
:102DF0000102A06C1143C21C891871438CB2002DD2
:102E00000BD02818001906E00098C01C704384B24B
:102E1000002D02D06018C01C84B24C488047A042EC
:102E200001D20020F8BD0120F8BD70B50546D01DC7
:102E300014460E4680B2FFF7AFFF002810D0384886
:102E40001B2180692A0A8171C571027222463146AE
:102E5000093002F0CEFDE41C364AA0B204219047AE
:102E600070BD70B50546D01D14460E4680B2FFF702
:102E700093FF002810D02A481D2180692A0A8171F9
:102E8000C571027222463146093002F0B2FDE41CDF
:102E9000284AA0B20421904770BDF7B5204E2949B9
:102EA00070690024091F2546401802F003FEB2692C
:102EB00011219171837846781B023343009E421C96
:102EC0000146B34258D3019EB34255D80E79CF780C
:102ED0003302029E3B43B3424ED10B78172B55D0A1
:102EE0000F4E0623B669F371577813783F021F43DC
:102EF000062363439E1937723F0A77725679177912
:102F000036023E43064FBF69DF19BE72360AFE72B3
:102F1000034ECF79B6699E19377319E0646E0010BD
:102F2000980000205DA10000D3330000B80B000022
:102F300031540000ED7F000019020000EF2A00006C
:102F4000CFA9000061030000699400004360000005
:102F5000F74F0E7ABF69AD1DDB195E73F44BF54E6A
:102F60005B69ADB29E19737C367C1B02641C3343D3
:102F7000AE1DE4B2B34225D3537916791A02EE4B53
:102F800032439A421ED00178081893E7002C1BD1D7
:102F9000E74814238069C91DC37154781678230249
:102FA000334303721B0A4372537914791A02224382
:102FB0008272120AC27210220C3002F01AFD14350D
:102FC000ADB201E0002C05D0AD1CDC4AA8B2042152
:102FD0009047FEBD0A22DA4B102000999847FEBDAB
:102FE000F7B5D34ED749706900252C46401802F03A
:102FF00061FDB16909228A71837846781B023343E7
:10300000009E421C0146B34232D3019EB3422FD8E8
:103010000E79CF783302029E3B43B34228D10B781E
:10302000172B2FD0C24E0423B669241DF371577895
:1030300013783F021F43AB009E1937723F0A777225
:10304000BB4ECF79B669A4B29E19B772B84F0E7A4B
:10305000BF696D1CDB19DE72B54BB64E5B69EDB214
:103060009E19737C367C1B023343261DB3421ED34C
:10307000537916791A02B04B32439A4217D001782D
:103080000818B9E7002D14D1A94812228069C2712D
:103090008B784D781A022A430272120A4272102269
:1030A0000A30C91D02F0A5FC1234A4B201E0002DC3
:1030B00005D0A41CA14AA0B204219047FEBD0A225B
:1030C0009F4B082000999847FEBDF7B5984E9D4943
:1030D0007069002508312C46401802F0EBFCB269FB
:1030E00009219171837846781B023343009E421C6C
:1030F0000146B34242D3019EB3423FD80E79CF7806
:103100003302029E3B43B34238D10B78182B3FD099
:10311000874E0723B669E41DF371577813783F0291
:103120001F43EB005B1B9E1937723F0A7772804E7C
:103130004F79B669A4B29E19B772CE798F793602EB
:103140003E437B4F6D1CBF69EDB2DF19FE72360A3C
:103150003E73774E0F7AB6699E197773744F4E7A25
:10316000BF69DB199E73724B724E5B699E19737C4B
:10317000367C1B023343E61DB34227D353781678BF
:103180001A026D4B32439A4220D001780818A9E701
:10319000002D1DD1664815228069C2718A784B784E
:1031A00012021A430272120A42724A798272CA7970
:1031B0008B7912021A43C272120A027310220D3066
:1031C000083102F016FC1534A4B201E0002D05D040
:1031D000A41C5A4AA0B204219047FEBD0A22584BB3
:1031E000082000999847FEBDF7B5514E55498AB061
:1031F0007069083109900025401802F05BFC044614
:10320000B6690920B0710720F07127782046182F81
:1032100077D0417A207A09020143A37860781B02B3
:1032200003430A9883426BD30B98834268D80C9867
:10323000814265D1434909980C31401802F03AFCAB
:103240000190E079A179000208430C212F464F43F9
:10325000B9190872000A487235480021806A3A4B51
:103260000170E079A279000210436A469081D18111
:103270000A3202A998470822314ED101002002AB40
:10328000A436B0472A48806A007801283CD0E0790B
:10329000A379294A01021943019EF078B37800020C
:1032A000184388426DD13079400604D5244820382F
:1032B0008047002836D03079810606D5C0062049DF
:1032C000C00E1039884700282ED0E079A17900027D
:1032D00008431D4A0221343A9047002836D03079FD
:1032E0003178C00970783BD0000208431538C4B269
:1032F0000F483146806922463818153139E000E020
:1033000052E0417D207D86E7094CE06A216B06781A
:10331000A069324638180A3002F06BFBA069B61C6F
:10332000C67137E0052200E00C220A9913E0000084
:103330009800002063050000FFFF0000ED7F000003
:103340008D5300005D030000F93E0000A078627814
:10335000010211430222F94B082098470DB0F0BD3D
:1033600000020843C01FC4B2F548224680693818DD
:10337000F11D0A3002F03DFBF148A41C8069C471C4
:1033800008E0904206D07078337800021843801924
:10339000019081E76D1C0CD0E94804218069E94A5D
:1033A000C079801C9047D9E7E748834201D03C1997
:1033B0002BE70A22B9E710B5062912D0417C037C1D
:1033C0000A0241781A430B020478C1788078090216
:1033D000234301438B4207D9012219460820D74BCA
:1033E00024E041790379EBE70520C002824202D054
:1033F000401C824203D11846FFF7F2FD10BDD348AE
:10340000824203D11846CD4B18330FE0CF48401C01
:10341000824203D11846FFF758FE10BD100A292832
:10342000184602D0FFF7E0FE10BDC94B984710BD0B
:10343000F0B5C34C0746A07885B00D4600287DD076
:10344000C44E0820B047002879D00220B047002899
:1034500075D1EFF31080049072B6A06C2818801C10
:1034600086B2BD4880470100BC4803D0E168C978F6
:10347000C90708D08047002875D1B7481030804769
:10348000761CB0426FD3AE48AD49801D0770B4487A
:1034900000900822623101A802F0ABFA63690022B1
:1034A000B2330299019801F0C1FD022F02D0012F21
:1034B0000BD016E00120E071206D04224119A048D4
:1034C000891C4C3002F095FA0BE0E079012806D116
:1034D0009B49206D04224C31801C02F08AFA0020A6
:1034E000E071206DA16C9F4E801C029103960195A6
:1034F0000090934A60692389921D9949BA3001F07E
:10350000E0FCA06C711C2A18206D801C02F071FA7E
:103510008B4C6234201D02F0CDFA2378E2781946F4
:10352000637812061B021943A378C0091B041943D0
:1035300011432279C0015206520E01E012E012E05E
:10354000491C00235A415206520E104321700A0AA8
:1035500062700A0CA270090EE1702071049880F369
:103560001088012017E4002015E47548C1680A4658
:103570006032907E927EC007C00FD207D20F6031BA
:1035800005E0887E8A7EC007C00FD207D20F904226
:10359000F7D1704710B56A484069017CC27B0802C8
:1035A0001043072807D8FFF7E0FF002804D0FFF7F3
:1035B000DCFF0128FBD010BDFFF7D7FF0028FBD0B0
:1035C000FFF7D3FF0128FBD010BD10B55C48C168E0
:1035D000084622304279037912021A43624B9A421A
:1035E00014D9DC43121903711B0A4371FF232031E4
:1035F0000B72FA2A0AD951015C4BD200C9188918FA
:103600007D221201891A0175090A417510BDF0B4B5
:1036100000285BD048780A7807021743484A1526E5
:103620009469534DE01C631C1B2FA67041D9CC78C4
:103630008E78240234431C71240A5C71CC798E7913
:10364000240234431C72240A5C7293780C78002B99
:103650004B7805D01B022343F92B12D9F92104E042
:103660001B022343302B0CD9302101700B0A43700D
:1036700001710B0A4371506940190173090A4173C2
:1036800012E05269521913731B0A53734A780B786C
:1036900012021A430270120A42704A790B7911021F
:1036A00019430171090A4171F0BC0921314A032013
:1036B00010471B21017000244470F3241C71002664
:1036C0005E71017146711C725E72D4E7F0BC704786
:1036D000F0B4002850D01A4A1420936998704878A2
:1036E0000D7804022C43DC70240A1C71CC788D7890
:1036F00024022C435C71240A9C714C790D792402BC
:103700002C43DC71D81C240A4471CC798D792402B5
:103710002C435C72240A9C729578154C5B1C002D1E
:1037200042D04D790E792D023543F92D28D9F92152
:103730000171002343710170437041E08D5300001B
:1037400098000020ED7F0000FFFF0000022800002D
:103750008742000069940000ED340000DD34000071
:103760001C120020301300203E060000C0E0FFFFC6
:1037700061030000958C0000F0BC0022012046E7A8
:1037800005712D0A4571C8788D780002284318719B
:10379000000A5871487909790002084351690919EA
:1037A0000873000A487324E04B780D781B022B4302
:1037B000302B0BD93021017000234370017143710C
:1037C000506900190173090A417312E05269121914
:1037D00013731B0A53734A780B7812021A43027050
:1037E000120A42704A790B79110219430171090AD0
:1037F0004171F0BC0921FE4A0320104710B507E0D3
:10380000435C845C4454491C8354521EC9B2D2B2F6
:103810009142F5D310BDF8B5F64D0520A969F44ADB
:103820008870012103209047A87800282DD068696E
:103830000F220021BA30FFF7E1FF6869072200215B
:10384000B230FFF7DBFF2E466236301D02F032F950
:10385000002434707470C009B470C001F470307109
:1038600046062F465A37760E381D02F023F93C7073
:10387000210A7970210CC009B970C001210E3043B2
:10388000F9703871A878002806D1696902220846C3
:10389000D94BBA30B23198477D214901D84BD74A2C
:1038A00003209847D549082048398847F8BDF8B51E
:1038B0000546D44908208847CE4C0B206169C001D9
:1038C0000818807E01282FD10026374601E0042EFB
:1038D00004D260698019A030877406E0C6480A38AF
:1038E000804761698919A0318874761CF6B2082E68
:1038F000EDD3C14F00260A3F01E0082E01D200207F
:1039000000E0B84761698919A031761CF6B2887663
:10391000102EF2D30026B84761698919E031761C70
:10392000F6B24876102EF6D30B206169C001091853
:10393000487E042802D005281DD01EE0AE4F002688
:103940000A3FB84761698919FF318131761CF6B2A7
:103950004876202EF5D36069AB4B0146FF31A1318B
:103960000A7EFF305206520E0A760A46273A473937
:103970009A30984701E0082048766169A0690E46B0
:10398000042787700822C01CC231B63602F031F815
:10399000A069042231460B3002F02BF80D21944A25
:1039A000032090476069294608220A31BA3002F0A4
:1039B00020F86069294604221231B23002F019F869
:1039C0002069C0780328606904D0CA21095C0129F4
:1039D00009D018E0817D427D080210432A46083252
:1039E00029468A4B2CE04179CA070CD082795207CC
:1039F00009D4C90907D10921890140180078012893
:103A000001D1616A08702A7A814E002A02D1687A4F
:103A1000002817D0606901466030C37D9A420AD100
:103A20006A7A007E824206D108222846793101F066
:103A3000B3FF002825D0714B0622002101200A3354
:103A40009847F8BD6069CA21095C01290BD002467C
:103A5000BA32FF3011460A30B0476069022241791C
:103A60001143417112E04179024639434171BA3242
:103A700011468130B04760696030C07B012802D0B8
:103A800004E06069EFE75F4902208847FFF7C3FE63
:103A9000F8BDF8B5574CA078002804D101220021C8
:103AA000554B08469847A169062088700121504A65
:103AB00003209047A07800280CD056486169081868
:103AC000417B027B09021143F92903D9F9210173D2
:103AD000002141736069484D417908228B070A3DF6
:103AE0000027002B25DA114341710026A8476169A0
:103AF000891980314870A84761698A1991218854D1
:103B0000A032761CF6B25770102EEFD30026A847CD
:103B1000616989196031761CF6B24876082EF6D3B1
:103B2000A84761696031C875A84761696031087646
:103B300014E0CA231B5C012B10D183795B070DD5E0
:103B4000114341710026A84761698A19912188545F
:103B5000A032761CF6B25770102EF4D328490320F9
:103B600024318847274D0820103DA847002803D05E
:103B7000244908200A3188470220A847012815D186
:103B80000B216069C9014118497D01290ED12D22FF
:103B9000520180184179002909D0012962D00229F7
:103BA00004D18179164B1C4A07209847F8BD00259F
:103BB0004AE00A226A4351180A18507C167C030214
:103BC000164833430380104BC33B4380114BDF3B0C
:103BD000CB18597D1B7D0902194381800221817117
:103BE0000321C1710772117600235376038817E011
:103BF000958C00009800002057250000C19400001B
:103C0000D333000055850000C5290000996F0000DE
:103C1000ABAA000061030000FB98000034140020F0
:103C2000F94AFA4E13808088508091801346012112
:103C30000622C9030020B0470121C902F44BF54A0E
:103C40000020B0476D1CEDB205206169C0010A1863
:103C5000D27BAA42ADD80B2062690121C0011018A5
:103C60000175F8BDE1688B789B06DB0FC37188781E
:103C7000DF23184088706069801881790172F8BD6F
:103C800007E7F8B504460178401C002910D0022946
:103C900076D003290BD1417802780802104310280E
:103CA0006DD0082803D1201DE178FFF784FBF8BD13
:103CB0004178027808021043062838D0032839D00A
:103CC00014283BD015283ED0012842D00028EED140
:103CD000CD48251D5438C16822314A7E0B7E110221
:103CE000194300914069E37A017DC27C0E021643BC
:103CF000227B002711021943027CC37B1002C900FA
:103D00001843814200D80127FFF744FCC2492846E6
:103D10008847002820D0FFF758FCBB485438C068BB
:103D20002230417902790902114319D01DE0FFF7D1
:103D3000B0FEF8BD201DFFF7BAFDF8BD211D002023
:103D4000FFF7C6FCF8BD0021221D0846FFF75FFC07
:103D5000F8BDFFF71FFCF8BDB0492820884709E0EF
:103D6000009989000175090A4175002F02D0067378
:103D7000310A4173201DFEF7C0FAF8BD00E01CE0D7
:103D8000417802780802104301280AD003280CD099
:103D900004280ED00C28F0D1211D0020FEF742FF90
:103DA000EBE7201DFEF75DFEE7E7201DFEF7AAFC0E
:103DB000E3E7201DFEF70FFDDFE7E078231D06286F
:103DC00014D0587C197C02020A43587819780002F2
:103DD0000843D9789B7809021943884209D90146DA
:103DE0008A4B01221020A43B9847C6E758791979DD
:103DF000E9E7FFF752F8C0E710B50178042905D1CB
:103E00008278437811021943022902D0FFF739FF63
:103E100010BD41790079FFF70BFB0028F8D0FCF7C3
:103E2000A1F910BD30B587B07D480090801E01908B
:103E300000246846048144810621018241822721B1
:103E40008181C18102258582C482764806907649A7
:103E5000684688476C485438416B0A682A430A60B0
:103E6000816B0A682A430A60C4700471047007B049
:103E700030BD70B5644C0D46543C002828D06B4DC5
:103E8000A8470028FCD06A4880476A4880476749AD
:103E9000012008398847A069022181701321C1706F
:103EA0000221654A032090476449042088476069DD
:103EB000017DC27C080210430A2101F014FE0A2190
:103EC000401E41435A4B01205D4AEE3B984770BD6E
:103ED000E0682021417041788906FCD555480C38AE
:103EE00080474E492878884770BD544910B5012055
:103EF00010398847002804D000210120FFF7B9FFBE
:103F000010BD46491320884710BDFEB50021684604
:103F1000017001710D4601214A4E7F20B047494C86
:103F20000A206946223CA047684600780109090139
:103F300068460170022001430A20B04701A90A2007
:103F4000A04768460079400704D56D1CEDB2FA2DF4
:103F5000F4D108E0FA2D06D001A90A20A04768464E
:103F600000794007F8D5684601780A20B04700205C
:103F7000401C80B2FA28FBD301A90A20A04768465A
:103F80000079000701D40120FEBD0020FEBD70B500
:103F900005460024FFF7B9FF012817D10020FDF7DF
:103FA000BDFD29480169C908C900016107214161B6
:103FB0000021816101690122114301610169C90385
:103FC000FCD5002D01D1FDF7EBFD0124204670BD8D
:103FD0000D4910B5543949691A4C8870002835D0FC
:103FE000012841D002280ED100217F20A0470021C6
:103FF0000320A04720210420A04702217F20A047C2
:1040000003210020A04710BDEC0000203154000027
:104010003414002007020000E52000006F9000002B
:104020001B800100F93D0010936000002B1B000075
:10403000C1340000FF250000958C0000558500006C
:104040008D940000A729000000E000E000217F20FF
:10405000A04700210320A04720210420A0470221DF
:104060007F20A0470021CCE700217F20A0471F210F
:104070000320A04702217F20A04701210020A04764
:1040800000217F20A0473F210420BBE710B5012875
:1040900002D002280ED01BE0487A0C7A000220439E
:1040A000C00715D048790979000208431946FEF780
:1040B000BCFEA8E7487A0C7A00022043800707D5A7
:1040C00048790979000208431946FEF7CAFE9AE7C3
:1040D000002098E770B5F84CE068817EFD22114021
:1040E00081766069F54D837F427F2030417800788A
:1040F000090201430120A847E06881784906C90FF9
:1041000061718178BF221140817070BD10B5EA4C99
:10411000E068817E022211438176E848343080478E
:10412000E0688178BF2211406279D207520E1143B4
:10413000817068E7F0B51746DF4A0446D0681E462E
:104140000D46C37885B000211B0702D5002005B0BD
:10415000F0BD00BF491C89B26429FAD34030417CCC
:104160008907FCD4D44841692D2040010818C07A41
:10417000012804D1FF210531204601F097FCA0075A
:1041800007D1CD482D21426949015118897A012969
:104190001DD0C94B0020D968C0310A792254401C77
:1041A00080B20228F9D3C4488078002808D0C449D6
:1041B00008208847002803D0BF482178801D01705F
:1041C000207880066078288034D5012033E0C168EB
:1041D0000846E030427B037B12021A43837B1B04B8
:1041E0001A43920C9204A3039B0B1A430273130A03
:1041F0004373120C82734822525CC37B5206520EE8
:10420000DB09DB011343C373027A520852000272C6
:10421000027A02231A430272E031087A8007FCD442
:10422000207880066078288001D5012000E00020F9
:10423000387012E00020A0493870CA680020C032EF
:10424000A41C03E013792354401C80B22B888342C2
:10425000F8D8C8680122C03042722888964F801C66
:104260002880B87800280AD0954908208847002877
:1042700053D0934902208847002809D04DE0F868C0
:104280004030417C890748D4407CC007C00F45E0DE
:104290002A8821468B48921E01F0ABFB8A4886494A
:1042A000009008225A3101A801F0A3FB7B6901228A
:1042B000B2330299019800F0B9FE7F48801D017861
:1042C0008907890F01702888BA6C7E490292801E86
:1042D00000910190784A78693B89921D7A49BA30F9
:1042E00000F074FEC0B2307001280ED128887549E4
:1042F000BA6C009101AB801E15C36F4A78693B8987
:10430000921D7149BA3000F015FE2888B96C401A28
:104310002880801EA41E607001E001203070012002
:1043200015E7F0B56848002687B018300590684654
:104330000682067206730027644901208847002818
:10434000634803AB02AA04A90FD0FFF7F3FE0028CD
:104350000FD15948C068C078C0065FD502AA04A929
:104360005B4800F052FB012703E05A4CA0470028AD
:1043700054D0514D2869C278032A03D1E86B0078E4
:104380000128D4D06846007A012801D1002F07D037
:104390004F4C207886460007000F052840D041E0AA
:1043A000474C0820A04700282DD00220A047002815
:1043B00029D16846007B00282DD0A878002822D07B
:1043C0003D4C5A34201D01F075FB2378C1091A4673
:1043D0006378E0781B021A43A37800061B041A4393
:1043E00002432079C9014006400E521C0023584167
:1043F0004006400E01432270100A6070100CA0703D
:10440000100EE07021716846008A334A801EC1B2E6
:104410002F4890478BE731493D20884707B0F0BDD2
:10442000002F03D07146090719D06AE02C49A01C5F
:104430008847FFF7CAF82B490222087F1043087704
:104440001E487A388047207870214006C20F68697C
:104450000A540622A11C713001F0CBFA67E76969A2
:10446000CB7D022B10D0002360314F7B8C46394628
:10447000012F00D000273B4343D0032A06D06046DB
:10448000007A012834D05DE00123EDE70599009121
:104490006946098A144F0839CBB271464906C90FDB
:1044A000A21CB84768696030007A0128B2D10F4970
:1044B000A01C88473BE7000098000020D91B0000A3
:1044C00069940000301300201C1200204585000074
:1044D0002C120020B12700003F9C00006F900000CC
:1044E000CB1D000020000150CB6F0000155C0000C8
:1044F000012903D0FE49A01C884723E0A01CFD49E8
:10450000FAE7032886D0042884D16969CB7D022B81
:104510000AD000236031497B012900D000210B43E0
:104520009CD0032A02D00DE00123F3E70599009106
:104530006946098AF04D891FCBB271464906C90FF9
:10454000A21CA8470598009001966846008AA21C04
:104550000838C3B22078E64C41060007C90F000FA7
:104560006834A047E3E670B5FFB0E44985B00420A5
:10457000884700280BD0E14904201A318847E048D9
:104580008047E049162088477FB005B070BDDE48FF
:104590008047002500280FD0DC4C606941790A076C
:1045A0005ED58279D3071DD0D949813088476069AB
:1045B0008179490849003AE068460580D24DD04EDD
:1045C00086359236D34C09E0694601A8A8470028F1
:1045D000DAD068460088C1B201A8B047A0470028D9
:1045E000F2D0D1E7930709D5C94A014679311C3287
:1045F000773090476069FD22817908E0530708D53C
:10460000C3496031913088476069FB22817911404C
:104610000DE01207F725002A0BDA027A0146104650
:10462000BB4A0931423290476069817929408171E2
:10463000AAE729404171034677333A221021B64D4B
:104640000020A847092160698901411809780129DA
:104650009AD14079C00997D1616A0120087093E727
:10466000E16B097800298FD1216C097801298BD160
:10467000817D427D08021043A84A01219047206CA9
:10468000057081E7F0B585B00026A04C0096019634
:10469000029603966069017A01292ED1817B8909EE
:1046A00001292AD110226946913001F075F90028BC
:1046B00023D0002504AF9248C238804778556D1C3E
:1046C000EDB2032DF7D36946887C40214006400EA9
:1046D00008436946887460690621093001F0E6F9EB
:1046E0006069032204A90C3001F083F962698C4BE4
:1046F0001046913004A909329847267127E570B514
:10470000824EF06844784470834DE00706D0FFF78E
:104710002AFF002301211A460846A847A00706D50C
:10472000FFF7FFFD002302211A460120A84760077A
:1047300006D57C488047002304211A460120A8475B
:10474000200707D57748BC308047002308211A4648
:104750000120A847E00610D5F0682030407D694967
:10476000400701D53E2000E00820884700231021A3
:104770001A460120A847FFF785FFA0060CD500F0D8
:1047800072F9002320211A460120A8470023FF21A7
:104790001A4601311846A847600611D5574901202D
:1047A0008847002807D070696030807B012802D1DB
:1047B000F16807204875002340211A460120A847C8
:1047C000E00904D0002380211A460120A84770BDCB
:1047D00038B5554C0120A0470021544D7F20A847F3
:1047E000524A3B206946223A904768460178FB20AE
:1047F0000140684601703B20A847404894308047FC
:104800000020A04738BD4A4909788906890F017000
:1048100070473E49497801707047F8B5444E434CA3
:10482000054603280DD300217F20A047D821112061
:10483000A0471D213A20A0477078FB2108407070E6
:104840000CE0707804210843707000217F20A0479D
:10485000D8211120A04719213A20A047334A3F20F0
:104860006946223A9047694608782B008006800EF8
:10487000087001F0B8FF060A06040A06040A80213F
:1048800000E0402108436946087009783F20A047AE
:104890001E4840694570F8BD10B50446FFF7BDFFDE
:1048A0001A48447005E470B5184D01210903214BE5
:1048B00000206A6C984728690446093001F0FAF82C
:1048C000696C40180578012D01D9002070BDE07891
:1048D000002831D020462D3001F0ECF80646204665
:1048E000313001F0E7F80246964236D2911B2BE0B8
:1048F000155C0000995D0000CB6F0000458500004D
:104900000F2600006F900000ED340000980000209A
:104910007BA60000371B0000315400004F6E0000E2
:1049200095A90000C18D0000692D0000A729000095
:10493000001000508F1600002046253001F0BAF814
:10494000064620462930CCE7002D08D03046090322
:104950006F4A090E9047012070BDB11AF4E7104666
:10496000F5E7F8B56B4C2D21E268656949016E18D1
:10497000134611462033603101281FD16F1CBC46FD
:10498000A87C6F7C0002384318D063482C18607EE6
:10499000247E0002204322321075000A50756046C2
:1049A000427C047C100220431873000A5873C87DAF
:1049B00010221043C87501207072F8BD2D27707A3F
:1049C0007F010128F9D1307B002500280CD01D7310
:1049D000280A5873C87D10231843C87575729079DA
:1049E000022108439071F8BD00F05FF8E0680146CD
:1049F00020310D732A0A4A736030C17D10221143A1
:104A0000C1756069C0194572F8BD70B5414C00238D
:104A1000E568C0352E7DC6545B1CDBB2022BF9D392
:104A2000037801259B06002B43780B8001DA157073
:104A300001E000231370E3680022801CC03303E010
:104A40001E7D8654521CD2B20E889642F8D8B0B25F
:104A5000801C0880E068D9210D540179022211439D
:104A60000171012070BD10B52C4901208847002834
:104A700015D02848416960314A7B012A05D1C268B6
:104A800060321378082423431370897B012906D1EF
:104A9000C068017C40221143017400214175204807
:104AA00080471F48C4308047FCE670B5194CE06869
:104AB0002030417802780D02417E1543027E0E02BD
:104AC0001643AE4208D861698A7C4B7C11021943B7
:104AD00049190176090A4176FEF747FD00280DD0F5
:104AE000FEF743FD0128FBD0AE4205D8E068203038
:104AF0008178022211438170012070BDFEF735FDDF
:104B00000028FBD0FEF731FD0128FBD0ECE70000C8
:104B10009F180000980000208305000045850000D4
:104B2000498F0000F8B50F46064615461C46102171
:104B3000184600F0BBFF01216846017021700D226C
:104B40003946601C00F055FF2902280A01436846D7
:104B500001800078A07368464078E07331462046B3
:104B600000F0F7FEF8BDFFB589B01D460F46139E55
:104B700000F07BFA002402940394049468460594A0
:104B80000470002D01D0012000E000208101149864
:104B9000801EC20F10184010C00040186946401C0B
:104BA00008700872394602AF0D22781C00F021FF10
:104BB000B0B20202000A024369460A80CA8202A910
:104BC000099800F058FA002D3DD0A9B20802090A50
:104BD000084302940394049469460594088008816C
:104BE0000E2D01D90E2200E02A46B81C0B9900F0C8
:104BF00000FF0E2D01D90E2700E02F460E2D1ED9E5
:104C00000E202D1A099802A91BD000F034FA029444
:104C1000039404940594102D01D9102200E02A4633
:104C20000B98C11902A800F0E4FE102D01D9102044
:104C300000E02846C719102D01D91020E1E72846C9
:104C4000DFE700F018FA002E24D0029403940494B5
:104C5000002505940294039404940594102E01D920
:104C6000102200E032461298411902A800F0C1FE5D
:104C7000102E01D9102000E030464519102E01D920
:104C8000102000E03046361A02A9099800F0F3F926
:104C9000002EDFD102A9149A159800F0AAFE1498EC
:104CA0000DB0F0BDFFB589B01C46139D00F0DDF9D5
:104CB0000026029603960496684605960670002C18
:104CC00001D0012000E0002081011498801EC20F55
:104CD00010184010C00040186A46401C1070107236
:104CE00002A80D2201300A9900F083FEA8B2010249
:104CF000000A01436A461180D18202A9099800F096
:104D0000BAF9002C3ED0A0B20102000A014302967B
:104D10000396049668460596018001810E2C01D900
:104D20000E2200E0224602A802300B9900F061FE3C
:104D30000E2C01D90E2700E027460E2C1ED90E207E
:104D4000241A099802A91BD000F095F9029603963F
:104D500004960596102C01D9102200E022460B98EB
:104D6000C11902A800F045FE102C01D9102000E066
:104D70002046C719102C01D91020E1E72046DFE7B3
:104D800000F079F9002D32D00020029003900490B9
:104D90002C46064601270590BAB202AB0A9909983B
:104DA000FFF7C0FE00203118A94203D3002102AA58
:104DB000115406E002AA135C129A515C4B4002A9FE
:104DC0000B54401C1028EED37F1C102C01D910204E
:104DD00000E020468619102C01D9102000E0204662
:104DE000241A02A9099800F046F9002CD4D102A98E
:104DF000149A159800F0FDFD149851E7FFB50025B1
:104E000085B01F461C4601262BE06B4632460699AC
:104E10000598FFF787FE00202918B94209D2079BA1
:104E20006A46125C595C4A4069460A54401C102884
:104E3000F2DB102C01D9102200E022460E986946C0
:104E4000401900F0D6FD102C01D9102000E02046BA
:104E50004519102C01D9102000E02046241A761C98
:104E6000B6B2002CD1D1284609B0F0BDFFB585B04F
:104E700000261C460B460746009601960296012125
:104E800068460396017401700D2219466D46401C58
:104E900000F0AFFD68460682C681394600F059FD34
:104EA000002005E0079A295C125C51402954401CFF
:104EB000A042F7DB224669460E9800F09AFD204694
:104EC000D2E7FFB589B0159D1C461A462846149FA7
:104ED000139E0B9900F08DFD04A912986A46039168
:104EE000C1C209A807C82346FFF73DFE002801DB21
:104EF000B84202D00020C043D2E6281900903346C1
:104F0000129A0A990998FFF779FF002802DA01201E
:104F1000C043C5E6A419601900903B4604AA0A994B
:104F20000998FFF7A3FF002802DA0220C043B7E682
:104F30002018B5E6FFB58DB017ACA1CCA84203D2BE
:104F40000520C04311B0F0BD461B169804A900917E
:104F500032182B460E990D98FFF788FF040001D4F4
:104F6000AC4202D00020C043ECE733460097169ACB
:104F70000E990D98FFF742FF06000FD008A8039086
:104F80000097019602950DA80FC8FFF7ECFD0028C9
:104F900001DBA84205D00220C043D3E70120C04373
:104FA000D0E7844202D00320C043CBE7002004A90D
:104FB00008AA07E00B5C155CAB4202D00420C0439A
:104FC000C0E7401CA042F5D33046BBE7FFB58DB02B
:104FD000189D179804A9169F461B0091F2192B469D
:104FE0000E990D98FFF742FF040018D4AC4216D179
:104FF00008A803900097019602950DA80FC8FFF727
:1050000051FE00280BDBA84209D1844207D10020C1
:1050100004A908AA06E00B5C155CAB4201D0002095
:1050200090E7401CA042F6DB01208BE770B54906F3
:10503000490E049C0E06050A354320706570050C68
:105040000E043543A5700D02000E2843E070D00118
:1050500001432171002007210A1A2518401C9A5C7F
:10506000C0B26A710828F7D370BD10B510210C4882
:1050700000F01CFD10BD70B50C460146084A00202A
:10508000235C155C6B402354401C1028F8DB204641
:1050900000F05FFC10222146014800F0AAFC70BD20
:1050A0003B160020FCB500228B5C8354521C92B24C
:1050B000102AF9D301231D012A18114620390E7F29
:1050C000FF4CB6464E7F0F7CA65D7E40FD4FFF5CD9
:1050D0007E4046558F7F0197E65D4F7C7E4056703F
:1050E000B446CE7F0096A75D8E7C7740977076465B
:1050F000A45DCE7C7440D4700E7D455D6E4016710B
:10510000B6464D7D664675405571AC468D7D7646FA
:105110007D409571CF7D6740D7710C7E74401472CD
:10512000A6464C7E6646744054728E7EA4466E40FF
:105130009672CD7E74467D40D5720F7F674017739F
:10514000497F644661405173019F77409773009E89
:105150005B1C6E409BB2D6730B2BACD3FCBDF0B581
:1051600091B00D460446002739012278685C491940
:105170004240D348825C227023790E797340C35C2D
:105180002371237A0E7A7340C35C2372237B0E7BD8
:105190007340C35C237363784E7873409C46637995
:1051A0004E797340C35C63700593637A4E7A7340A3
:1051B000C35C6371637B4E7B7340C35C6372634605
:1051C000C35C6373A3788E7873409E46A6798B790F
:1051D0005E40B446A37A8E7A5E40835DA3700493EA
:1051E000A37B8E7B5E40865DA6717346C35CA37213
:1051F0006646835DA373E37BCE7B73409C46E37A74
:10520000CE7A7340C35CE373E379CE797340C35CB9
:10521000E372E378C9784B40C15CE1716346C15CDD
:10522000E170059B10465840049B06464B405E408B
:10523000029200F0A7FB2178704041402170607815
:10524000A178484000F09EFB617870404140617059
:10525000A078E178484000F095FBA178704041408B
:10526000A170E078029A504000F08CFBE178704029
:105270004140E170207962790146A379E679504096
:1052800002467340584006461046029100F07AFBF1
:105290002279014671404A4022716079A1794840E3
:1052A00000F070FB6279014671404A406271A0795A
:1052B000E179484000F066FBA279014671404A401E
:1052C000A271E0790299484000F05CFBE279014666
:1052D00071404A40E271207A617A0246A37AE67A06
:1052E000484001467340584006460846029200F086
:1052F00049FB227A014671404A402272607AA17AC3
:10530000484000F03FFB627A014671404A406272B9
:10531000A07AE17A484000F035FBA27A014671405C
:105320004A40A272E07A029A504000F02BFBE27AE7
:10533000014671404A40E272207B627B0146A37BBA
:10534000E67B5040024673405840064610460291A4
:1053500000F018FB227B014671404A402273607BBB
:10536000A17B484000F00EFB627B014671404A4041
:105370006273A07BE17B484000F004FBA27B014606
:1053800071404A40A273E17B0298484000F0FAFA6B
:10539000E27B014671404A407F1CFFB2E273092F55
:1053A00000D2E1E63A012178A85C41404448415CE2
:1053B00021701091511923790A795340C75C2771E4
:1053C0000D97227A0B7A5A40875C27720997227BC5
:1053D0000B7B5A40825C2273059262784B784E793F
:1053E0005A4063797340C75C6770637A4E7ABC46F3
:1053F0007340C75C67710C97637B4E7B7340C75CDF
:1054000067720897825C62730492A3788A788E79B7
:105410005340A2798F7A7240A67A7E40875DA7704A
:105420000E97A67B8F7B7E40875DA7710B97C65C2E
:10543000A672825CA273E77B9646CA7BA035574072
:105440000097E27ACB7A5A40835CE373E279CF79B2
:105450007A40825CE272E778C9784F40C15DE171C1
:105460000A91009FC05DE0702F78109979402170FB
:10547000697867464F406770A9780E9F4F40A770C4
:10548000E9784840E07028790D9F47402771687996
:105490000C9F47406771A8790B9F4740A771E87937
:1054A0000A994140E171287A099F47402772687A3A
:1054B000089F47406772A87A4640A672E87A03E0E0
:1054C0007D6E00107D7000104240E272287B059ACC
:1054D00042402273687B049A42406273A87B724602
:1054E0004240A273E87B4340E37311B0F0BDF0B5D6
:1054F0000446027808460D46A030017891B04A4033
:105500002270637841784B4063709E46A37881781F
:105510004B40A3700B93E378C1784B40E370079343
:105520002179037959402171677943795F40677127
:10553000A37986797340A3710993E379C67973409F
:10554000E3710693237A067A734023720E93637A8B
:10555000467A734063720293A67A837A5E40A6729B
:105560000596E37AC67A7340E3720493237B067B45
:10557000734023730D93637B467B73406373019386
:10558000A67B837B5E40A6730396E37BC07B434090
:10559000E3739C46FA489023825CEB5C5A4022708D
:1055A000425C294690310B795A4022710E9BC25CB5
:1055B0000B7A5A4022720D9BC25C0B7B5A402273BD
:1055C000019B4E7BC25C4B785A40029BC35C73408C
:1055D0006373C35D4E7A734063727346C35C4E79E6
:1055E0007340637162700B9B8E7BC25C8B7A8F7889
:1055F0005A40099BC35C7340059E865D7E40A67041
:10560000039E8F79865D7E40A671A272A373079B6D
:10561000C25CCB7B5A40069BC35CCE787340E37080
:10562000049BCE79C35C7340E3716346C35CC97A63
:105630004B40E372E27308262078A178484000F0DE
:10564000A1F900F09FF907466078E178484000F042
:1056500099F900F097F921787940217061784140FB
:105660006170A1787940A170E1784140E1702079C2
:10567000A179484000F086F900F084F90746607986
:10568000E179484000F07EF900F07CF9014620798C
:1056900078402071607948406071A0797840A071AD
:1056A000E0794840E071207AA17A484000F06AF938
:1056B00000F068F90746607AE17A484000F062F944
:1056C00000F060F9217A79402172617A414061727B
:1056D000A17A7940A172E17A4140E172207BA17BFD
:1056E000484000F04FF900F04DF90746607BE17B40
:1056F000484000F047F900F045F9217B79402173DB
:10570000617B41406173A17B7940A173E17B4140A2
:10571000E173207862780146A378E778504002462A
:105720007B40584007461046029100F02BF9227842
:10573000014679404A4022706078A178484000F0E4
:1057400021F96278014679404A406270A078E17898
:10575000484000F017F9A278014679404A40A2700B
:10576000E0780299484000F00DF9E278014679406E
:105770004A40E270207962790146A379E779504086
:1057800002467B40584007461046029100F0FAF866
:105790002279014679404A4022716079A1794840D6
:1057A00000F0F0F86279014679404A406271A079D0
:1057B000E179484000F0E6F8A279014679404A4094
:1057C000A271E0790299484000F0DCF8E2790146E4
:1057D00079404A40E271207A627A0146A37AE77AF8
:1057E000504002467B40584007461046029100F068
:1057F000C9F8227A014679404A402272607AA17A39
:10580000484000F0BFF8627A014679404A4062722F
:10581000A07AE17A484000F0B5F8A27A01467940D2
:105820004A40A272E07A0299484000F0ABF8E27A6E
:10583000014679404A40E272207B627B0146A37BAD
:10584000E77B504002467B40584007461046029195
:1058500000F098F8227B014679404A402273607B31
:10586000A17B484000F08EF8627B014679404A40B7
:105870006273A07BE17B484000F084F8A27B014684
:1058800079404A40A273E17B0298484000F07AF8E0
:105890000146E37B79404B40E373217838489E46CC
:1058A000425C31016B5C49195A40227022790B79B4
:1058B000825C5A402271227A0B7A825C5A402272B0
:1058C000227B0B7B825C5A402273627B4B78825C2A
:1058D0004F7B5A40637AC35C7B40637363794F7A32
:1058E000C35C7B40637263784F79C35C7B406371B8
:1058F0006270A2788F78835C8A7A5340A2799C4642
:10590000825C8B7B5A40A37AC35C7B40A370A37BF1
:105910008F79C35C7B40A3716346A372A273E27864
:10592000CB7B825C5A40E379CF78C35C761E7B40A8
:10593000E370E37ACF79C35C76B27B40E371734660
:10594000C05CC97A4840E072E273002E00DB73E667
:10595000CBE510B5ACB004466846FFF7A3FB69463B
:105960002046FFF7FCFB2CB010BD10B5ACB00446D0
:105970006846FFF797FB69462046FFF7B8FDF2E758
:105980007D6F0010C1094000002903D0C0B21B2167
:1059900048407047C0B27047034610B50B439B07A1
:1059A0000FD1042A0DD308C810C9121FA342F8D082
:1059B00018BA21BA884201D9012010BD0020C04385
:1059C00010BD002A03D0D30703D0521C07E00020EB
:1059D00010BD03780C78401C491C1B1B07D10378B1
:1059E0000C78401C491C1B1B01D1921EF1D118469A
:1059F00010BDF8B5042A2CD3830712D00B78491CAC
:105A00000370401C521E83070BD00B78491C037097
:105A1000401C521E830704D00B78491C0370401CA5
:105A2000521E8B079B0F05D0C91ADF002023DE1BF7
:105A300008C90AE0FAF79AFBF8BD1D4608C9FD40FF
:105A40001C46B4402C4310C0121F042AF5D2F308A0
:105A5000C91A521EF0D40B78491C0370401C521E08
:105A6000EAD40B78491C0370401C012AE4D409785D
:105A70000170F8BD01E004C0091F0429FBD28B07A7
:105A800001D50280801CC90700D002707047002930
:105A90000BD0C30702D00270401C491E022904D358
:105AA000830702D50280801C891EE3E70022EEE70F
:105AB0000022DFE70378C2781946437812061B02FA
:105AC00019438378C0781B04194311430902090A5A
:105AD000000608437047020A08704A70020C8A7078
:105AE000020ECA707047002203098B422CD3030AAE
:105AF0008B4211D300239C464EE003460B433CD41B
:105B0000002243088B4231D303098B421CD3030A82
:105B10008B4201D394463FE0C3098B4201D3CB01B2
:105B2000C01A524183098B4201D38B01C01A5241E2
:105B300043098B4201D34B01C01A524103098B42E6
:105B400001D30B01C01A5241C3088B4201D3CB00D1
:105B5000C01A524183088B4201D38B00C01A5241B4
:105B600043088B4201D34B00C01A5241411A00D264
:105B700001465241104670475DE0CA0F00D04942CD
:105B8000031000D34042534000229C4603098B423D
:105B90002DD3030A8B4212D3FC22890112BA030AC5
:105BA0008B420CD3890192118B4208D38901921147
:105BB0008B4204D389013AD0921100E08909C309CC
:105BC0008B4201D3CB01C01A524183098B4201D3CE
:105BD0008B01C01A524143098B4201D34B01C01AB9
:105BE000524103098B4201D30B01C01A5241C30831
:105BF0008B4201D3CB00C01A524183088B4201D3A0
:105C00008B00C01A5241D9D243088B4201D34B00BA
:105C1000C01A5241411A00D20146634652415B10FC
:105C2000104601D34042002B00D5494270476346DD
:105C30005B1000D3404201B50020C046C04602BD03
:105C40007047704770470000F0B50C46871A9C41BA
:105C50000D46861A9D4103D2C01BA141D219634152
:105C60000D0D1F0DC94EEC1BAE435CD07F057F0DA3
:105C70000026002F51D02D05AC46A943DD0201239B
:105C8000ED0A1B051D4320231B1B24D41746E740A8
:105C9000381871412F46E740CC199D4028183146ED
:105CA00061410C0D27D161449A4013D50023401C5B
:105CB000594152000ED14008400001224B005205CC
:105CC000D34207D305204007C14201D5B04900E0C7
:105CD000B0493046F0BD6B00002A00D001229A186E
:105CE0001F23203C1B1B01D5002302E0E5402818A0
:105CF00071410C0DD7D0012424050919C407CD0723
:105D000040084908E40F28436144002CD5D0002402
:105D1000401C61419A40D0D1CDE76A05520DD9D1DE
:105D2000C90FC907D5E79C4D4E00002801D00124BA
:105D300000E0002434195F00002A01D0012600E0B1
:105D40000026BE19954FAC420CD8AE420AD8B442D8
:105D500006D001256D05EC42BCD010461946F0BDB9
:105D60009942FCD000203946F0BDF0B51FB40C4676
:105D70000F46811A9F412546861A9D4106D201256C
:105D8000ED076F40401ABC4152187B41210D1E0D9A
:105D90008D1BAC467D4D8D437ED075056D0D7CD041
:105DA0000D05AE46AC431B031B0B794D52429D4182
:105DB000202366469B1B14D31746F740381800264D
:105DC0000090744160462F460741E41900989D40B9
:105DD0002818664116D4714671189A4025D50123BA
:105DE00020E093182A466A415200002B00D0521C32
:105DF0001E23203E9B1B002B61DD3541EE1728182A
:105E00006641E8D5001876415B1C9A4000D3401CDF
:105E10004B05F3181524E34010D3002B52D07146E4
:105E20007118D30FC01802D3491C05B0F0BD01236F
:105E3000DB079A42F9D140084000F6E701225205FB
:105E4000B21801D1002853D00123CC0ADB029943B8
:105E5000891E002A08D1020C03D0020C000410395C
:105E600002E00246002020390023550B05D1120222
:105E70000823550B01D152010D23550C01D11201FC
:105E80001B1DD50C01D192009B1C150D01D1520098
:105E90005B1C2025EE1A01E02CE022E00546F540CF
:105EA00015439840CA1AE10769181305C918002A52
:105EB000BBDA032040070818C10FC9070FE071467D
:105EC0006118B2E7F10740080843711071444A00B5
:105ED0000CD001235B059A42A7D2C90FC907002045
:105EE000A3E74905490D26D1002001E00028F4D19F
:105EF00000219AE7284D6600002801D0012100E02A
:105F0000002171185F00002A01D0012600E0002660
:105F1000BE19224FA94210D8AE420ED8B14208D0C5
:105F200001256D05E94206D01946A80241401046F8
:105F30007BE79C4201D0214677E70020394674E791
:105F400010B50C465C4005D50124E4076340FFF71B
:105F50000CFF10BDFFF778FE10BD30B40C465C405E
:105F600004D50124E407634030BC6DE630BCFCE698
:105F700070B50124E40761400D465D4002D4FFF78F
:105F800063FE70BD6340FFF7F0FE70BDFF070000C9
:105F90000000F0FF0000F07F0000E0FF0000F87F4D
:105FA000F0B5F94D0C091E092C402E402F468BB040
:105FB000A7437DD0B543FCD0002E7AD0002CFCD076
:105FC0000D465D40ED0F2543AC1BFF25AD04641964
:105FD0000894C502440DC9022143500DDC0204435C
:105FE0000120C00701430443D2020191200C110C8F
:105FF00000958C46010423468B430A9161460904AF
:10600000E24D8A430991010A7D4449198039097892
:1060100005464D4301266D18F605751B6943C90CED
:10602000640B891C4C436418B5012C1B250C2E04F1
:10603000B4434C434D43210C691889090591009DD7
:10604000E90701D00121C90704912C46019967088D
:10605000CD072F434C08059DE10B4D432D0C2946E0
:106060006646754302950D4645432E46029D7D1BAF
:10607000B44100950D465D4301942C0C2F040D4650
:106080005543AE462D0C3D43029503947546049C42
:106090002D04641B049406D2029C039D641C0026FC
:1060A00075410395029401AC70CC009F7D1B01E00B
:1060B0003EE162E1B441090400950791019405991C
:1060C000A4086143090C0C464443650BE7040C46E5
:1060D00066467443A646640B3C430395029474469B
:1060E000049DE4042C1B049406D2029C039D641CB2
:1060F000002675410395029401AC70CC009F7D1B76
:10610000B44101940C465C430095650FE7000C46D2
:106110005443A646640F3C43039502947446049D81
:10612000E4002C1B049406D2029C039D641C0026F0
:1061300075410395029401AC70CC009F7D1BB44166
:10614000AE09AF06049DC900AD092F43049DA40606
:10615000AD060495079D344369180791059DE10B31
:106160004D432D0C29466646754302950D46454321
:106170002E46029D7D1BB44100950D465D43019462
:106180002C0C2F040D465543AE462D0C3D43029575
:1061900003947546049C2D04641B049406D2029C4F
:1061A000039D641C002675410395029401AC70CCDC
:1061B000009F7D1BB44101948C050694079C890ABD
:1061C000611800950791019C0599A4086143090C89
:1061D0000D464543680BEF040D46644665436C0B62
:1061E0003C43049FED047D1BAC4602D20025641C99
:1061F0006841009E019D371B854108465843019523
:106200000C46460FC5005443600F28436546E40022
:106210002C1B02D20025401C6E41019D3F1AB54146
:106220002846BD09800628438446A009BF064E02C1
:106230000699A40676180743079D002068410A992D
:10624000079019430020099B00906046FF191343F3
:106250004041E20F64003A43A4460446D71A8C41F9
:10626000A04203D90120009020463A46C70F941857
:1062700040416246D20F2243644664000494009C6D
:10628000BE466400D71AA446044602978C4177465E
:10629000002F01D1A04204D96046401C8446029AD6
:1062A0002046C40FA64694184041049A0546D20FD2
:1062B000224364466400D31A8D417146002901D1FE
:1062C000A84202D928461A46641C1043012200281D
:1062D00000D0164361020020079B891904465C41E7
:1062E0000223002C02DB491813466441089DCE0AA4
:1062F0002D145D194B056705E10A2C050D19089948
:106300003E43C9076940002B08D0934006D30022C2
:10631000761C5141002B01D1760876001C4A002DD5
:1063200043DB154241D0AA433FD030460BB0F0BD0D
:1063300006180D464D41174C7642AC411AD39518BC
:106340001C465C41134A6D42A24113D301225205FF
:106350004C00D4420AD15C00D4420BD04B4002D551
:1063600092021143E2E749004908DFE75940C90FAB
:10637000C90718E000200849D8E7054801420DD1B7
:106380000342F7D0F2E700000000FF077C10000096
:106390000000F07F0000E0FF0000F87F1148594046
:1063A0000143C01241400020C0E70123089A9B0628
:1063B0009A4205DC032252078918C90FC907B5E7BD
:1063C000052252078918074A1143D2125140ADE7FE
:1063D00070B515461C4602460B4628462146FFF777
:1063E000DFFD70BDFFFFFF7F0346CA02400D10B501
:1063F00010430A1504D00124E4072043002A05DBDA
:106400000A4CA21A04D4D040FF2A00DD002010BD9F
:106410004A00002B01D0012000E0002010180122CA
:106420005205D042F2D8C817C04310BD1E04000068
:106430001F22030C02D10F22000402D0030E03D04E
:1064400004E00020014670470002083A030F01D122
:106450000001121F830F01D18000921E002801DB72
:106460004000521E120551184205C0124118104634
:106470007047C10FC90700D0404201229207114363
:10648000D6E701218907D3E7F0B58B4C0F092546E4
:1064900089B0BD437BD01D092646AE43FAD00E46D7
:1064A0005E402740F60F3E43254071D02401214233
:1064B000FBD0FF24AD19A4042D1B039501252D0548
:1064C000DB02DB0AC9022B43C90A29431E01090169
:1064D000040F130F050121431701880B8203914319
:1064E0002D098C46A90B1E438A039543B30B9A03CF
:1064F00096433F09BA0B9403A74302962E467E4368
:106500000497B6464E19D7190C4601965443059781
:106510007E43371B7646BF1B3601B646BE0B361987
:1065200000967646BC043719009C01D3641C009485
:106530006400002F01D001263443029E049F75435E
:1065400066467E430496760034196E003419009432
:10655000029C019E1C196643751BAE460694654657
:106560004519059C05956C43594375460891691A70
:106570000191049E01465143A41B0491611A009CA1
:106580000791E10605D061090122114302E072E0A2
:106590006EE06109089D00272C0A2D066918049DEC
:1065A0007C412A0A2D066918019D6241AC0DAD029D
:1065B0006D185441079A910D920255196141029A42
:1065C000644658435443069B059A5A43121A131BB8
:1065D0009A0E9B015B187A41010B0005C3185141CB
:1065E000220A200644195A419A4200D2491C01202D
:1065F0004002814203D315230226F64302E014230E
:106600000326F6432020C51AA9401746AF40DA40BA
:106610000A4320460399D8400914731819055118E4
:10662000039A3843D2075140AC4009D0012294402C
:1066300006D30022401C5141002C01D140084000EB
:106640001E4A934212D3012203989206904207DB1E
:106650000520400709181A480143C012414004E0D0
:10666000032040070818C10FC907002009B0F0BD7A
:106670000020F107FAE705180C464C4111486D421D
:10668000A04115D394181A465A410E4864429041CD
:106690000ED301204A004005824209D35A008242AB
:1066A00006D35940C90F084AC90700201143DDE746
:1066B00000200649DAE700000000FF07FE0700009F
:1066C000FFFFFF7F0000E0FF0000F07F0000F87F89
:1066D0000121C9050123411842001B06D3185B0E96
:1066E0000AD0C1100722D206891840075242D1426F
:1066F00001D5520089187047090208D50146002AC1
:1067000003D0C10FC90700207047104670474202EE
:1067100002D0002002497047072109050143F4E730
:106720000000F87F1F22030C02D10F2200041CD0AE
:10673000030E01D10002083A030F01D10001121F1C
:10674000830F01D18000921E002801DB4000521E01
:10675000D2055118021251181922904004D3491C35
:10676000002801D14908490008467047C10FC907F0
:1067700000D04042012292071143D3E7012189074B
:10678000D0E7754600F024F8AE460500694653464A
:10679000C008C000854618B020B5FAF713FD60BCEC
:1067A00000274908B6460026C0C5C0C5C0C5C0C53B
:1067B000C0C5C0C5C0C5C0C5403D49008D46704775
:1067C00010B50446C046C0462046F9F7C4FC10BDCB
:1067D000004870474C16002001491820ABBEFEE768
:1067E00026000200704730B47446641E2578641C8D
:1067F000AB4200D21D46635D5B00E31830BC184716
:1068000070B501250400ED074C4020D4441A01D294
:10681000001B0919C60D4B00F2B2FF2A29D01B0E2E
:106820002CD000020C02D31A2C43DC40284305195B
:1068300010D2280A02D3401C6D0611D0761EF60530
:106840008019FF2A00DA70BDC00DC00570BD694017
:1068500000F022F801200543C541521C761CE8E7F0
:1068600064089C40C90161408900E7D10124A0432C
:10687000E4E71B0E440200D0034870BD002AFCD19F
:10688000C00FC00770BD00BF0000C07F70B50125FC
:106890000400ED074C4022D4441A02D26C40001B85
:1068A0000919C60D4B00F2B2FF2A4BD01B0E50D077
:1068B00000020C02D31A2C43DC40A843051B05D56B
:1068C000AD0019D36D08761E521E37D0F605280A82
:1068D00001D2801970BD70416D0603D070BD694052
:1068E000FFF794FF9C4009026140490001D0401E1F
:1068F00070BD0124A04370BD6D081DD001202B0C7C
:1069000001D12D0410302B0E01D12D0208302B0F98
:1069100001D12D01001DAB0F01D1AD00801CEB0F8B
:1069200001D16D00401C6D00361A121A680AF50577
:106930004019012A02DB70BD002070BDC036300A4C
:10694000C00770BD1B0E440201D1FF2B00D10248CD
:1069500070BD002AF0D070BD0000C07F0A010003A6
:10696000001F00200000000F18192A260027000031
:1069700000E7FEC8FE2C002D000000E7FEA1FE315E
:106980000032000000E7FEA2FE34003500000012D5
:10699000184D2A3A003B00000012184D2A3E003FD5
:1069A00000000012184D2A42004300000012182275
:1069B0002A49004A001218332A4E004F000AFFFFEE
:1069C0000000FFFFFFFF0000090100002807000092
:1069D0001809080000280B000118090C0000281AEB
:1069E000000A18091B0000282000010009210000EE
:1069F00028230000FF092400002827000F18092879
:106A00000000283500E7FE0936000028FFFF1218B5
:106A10000A020003280A0300002A0A0400032802CD
:106A20000500012A0A06000328020700042A0A09B1
:106A3000000328020A00052A0A0D000328020E009E
:106A4000292A0A0F000328021000242A0A11000331
:106A500028021200252A0A13000328021400272AFC
:106A60000A15000328021600262A0A170003280226
:106A70001800282A0A19000328021A00502A0A1CA2
:106A8000000328081D0002000A1E000328101F0032
:106A900003000A220003280A230001FF0A2500033D
:106AA00028122600192A0A29000328082A00C7FEEE
:106AB0000A2B000328222C00C8FE0A2E00032802FD
:106AC0002F00C9FE0A30000328123100A1FE0A334C
:106AD0000003282A3400A2FE0A37000328063800E3
:106AE0004E2A0A39000328123A004D2A0A3D0003B3
:106AF00028123E004D2A0A410003281242004D2A66
:106B00000A450003280246004B2A0A4800032812BF
:106B10004900222A0A4B0003280E4C00322A0A4D53
:106B2000000328124E00332A0A50000328025100A5
:106B30004A2A0A520003280453004C2A0AFFFF0085
:106B40000000FFFF00001400030010002A53594406
:106B500020424C45204D6F757365090005001001FA
:106B60002AC2030F00070010042A060006003000A6
:106B700064000B000A0010052A0000000009000B49
:106B80000010022900000A000E0010292A5359445F
:106B90001400100010242A424C452D4D4F44454C02
:106BA0002D3030310E00120010252A424C452D3078
:106BB00030310A00140010272A312E300A00160046
:106BC00010262A312E300A00180010282A312E30C3
:106BD0000E001A0010502A023A09544201001C000B
:106BE0001D00100200000000000000000000000076
:106BF000000000000000000000001C001F00100347
:106C00000000000000000000000000000000000084
:106C10000000000000000900200010022900001CF4
:106C20000023001001FF0000000000000000000031
:106C30000000000000000000000000080026001016
:106C4000192A640900270010022900001C002A00EC
:106C500010C7FE000000000000000000000000005F
:106C600000000000000000001C002C0010C8FE0006
:106C70000000000000000000000000000000000014
:106C80000000000009002D0010022900001C002F48
:106C90000010C9FE0000000000000000000000001D
:106CA0000000000000000000001C00310010A1FEE8
:106CB00000000000000000000000000000000000D4
:106CC00000000000000900320010022900001C0032
:106CD000340010A2FE0000000000000000000000D0
:106CE0000000000000000000000009003500100254
:106CF00029000008003800104E2A010F003A0070E9
:106D00004D2A000000000000000009003B001002B6
:106D100029000009003C0010082901010F003E0075
:106D2000704D2A000000000000000009003F001024
:106D3000022900000900400010082902010F00424A
:106D400000704D2A00000000000000000900430010
:106D50001002290000090044001008290301A600C0
:106D60004600704B2A05010906A101850105071996
:106D7000E029E71500250175019508810295017547
:106D800008810195057501050819012905910295EC
:106D9000017503910195067508150025650507190C
:106DA0000029658100C005010902A10185020901D0
:106DB000A10005091901290815002501950875018B
:106DC000810205011601F826FF07750C95020930AE
:106DD000093181061581257F7508950109388106DD
:106DE000050C0A380295018106C0C0050C0901A1F5
:106DF00001850319002A9C021500269C0275109536
:106E0000018100C007004700100729080049001051
:106E1000222A0007004A0010022908004C00103204
:106E20002A000B004E0010332A0000000007004F1C
:106E3000001002290B005100104A2A11010003081A
:106E4000005300104C2A00FFFFFFFF1010401040BD
:106E50001010401040202020102010101010102082
:106E60002040102010104010401088401088202032
:106E700020102010101010102088401088637C779C
:106E80007BF26B6FC53001672BFED7AB76CA82C928
:106E90007DFA5947F0ADD4A2AF9CA472C0B7FD9360
:106EA00026363FF7CC34A5E5F171D8311504C72358
:106EB000C31896059A071280E2EB27B27509832C56
:106EC0001A1B6E5AA0523BD6B329E32F8453D1002C
:106ED000ED20FCB15B6ACBBE394A4C58CFD0EFAA4B
:106EE000FB434D338545F9027F503C9FA851A34099
:106EF0008F929D38F5BCB6DA2110FFF3D2CD0C137A
:106F0000EC5F974417C4A77E3D645D197360814FA1
:106F1000DC222A908846EEB814DE5E0BDBE0323AC3
:106F20000A4906245CC2D3AC629195E479E7C8377C
:106F30006D8DD54EA96C56F4EA657AAE08BA7825FF
:106F40002E1CA6B4C6E8DD741F4BBD8B8A703EB5FF
:106F5000664803F60E613557B986C11D9EE1F89863
:106F60001169D98E949B1E87E9CE5528DF8CA189A3
:106F70000DBFE6426841992D0FB054BB1652096A05
:106F8000D53036A538BF40A39E81F3D7FB7CE339CB
:106F9000829B2FFF87348E4344C4DEE9CB547B941D
:106FA00032A6C2233DEE4C950B42FAC34E082EA1E9
:106FB0006628D924B2765BA2496D8BD12572F8F68A
:106FC0006486689816D4A45CCC5D65B6926C7048F3
:106FD00050FDEDB9DA5E154657A78D9D8490D8AB6C
:106FE000008CBCD30AF7E45805B8B34506D02C1E74
:106FF0008FCA3F0F02C1AFBD0301138A6B3A9111D3
:10700000414F67DCEA97F2CFCEF0B4E67396AC74EA
:1070100022E7AD3585E2F937E81C75DF6E47F11AD6
:10702000711D29C5896FB7620EAA18BE1BFC563E9A
:107030004BC6D279209ADBC0FE78CD5AF41FDDA86A
:10704000338807C731B11210592780EC5F60517F38
:10705000A919B54A0D2DE57A9F93C99CEFA0E03B95
:107060004DAE2AF5B0C8EBBB3C83539961172B0496
:107070007EBA77D626E169146355210C7D8D010215
:107080000408102040801B3680807F7E7D7C7B7AC8
:107090007978777676757473727171706F6E6E6DC4
:1070A0006C6C6B6A6A69686867666665646463636A
:1070B00062616160605F5F5E5E5D5D5C5C5B5B5AF0
:1070C0005A5959585857575656555555545453535D
:1070D00052525251515050504F4F4F4E4E4D4D4DB8
:1070E0004C4C4C4B4B4B4A4A4A4949494848484703
:1070F0004747474646464545454444444443434341
:1071000043424242424141412871001000000020A8
:1071100004010000040100102C7200100401002082
:10712000AC6500002001001000000000000000001D
:107130000000000000000000000000000319000033
:107140000201050303121809FF00000000000000FF
:107150000009095359445F4C6F7374001F00030307
:10716000E7FE040000000000000000000000000036
:1071700000000000000000508000005000000000EF
:10718000601000508C10005000A0005000B0005063
:1071900000C0005000D0005000E00050000000008F
:1071A000000000007600002040787D010000000013
:1071B00000000000701000500000000000000000FF
:1071C000000300000000000001000000000001506A
:1071D00008AA0220309F0220F8A60220C8810220BF
:1071E000CC810220D580022074800220768002208B
:1071F0009A87022024800220208002208F80022093
:107200009080022099890220040000000000000004
:10721000F8A60220000000000000000000000000AE
:0C72200000000000000000000000000062
:04000005100000C126
:00000001FF
