:020000041000EA
:10000000801B0020CD110010D5110010D711001059
:1000100000000000000000000000000000000000E0
:10002000000000000000000000000000D9110010D6
:100030000000000000000000DB110010DD110010C6
:1000400077050010CB370010DF110010DF11001012
:10005000090900102D0900102D0F0010DF110010EC
:100060005D0D0010DF110010DF110010DF11001016
:10007000DF110010DF110010DF110010DF11001080
:10008000DF110010DF110010DF110010DF11001070
:10009000DF110010DF110010DF110010DF11001060
:1000A000DF110010D70F0010DF110010DF1100105A
:1000B000DF110010DF110010DF110010DF11001040
:1000C0000348854604F014F80048004799010010E1
:1000D000801B002010B50446554804605548807DBB
:1000E0004007C00F2040002809D05148016852A0A5
:1000F00000F084FB1022554955A000F0BCFB4D4890
:10010000807DC007C00F2040002804D04848016807
:1001100051A000F073FB4748807D8007C00F20404E
:10012000002812D04248016851A000F067FB01226C
:10013000464947A000F09FFB52480068401C5149C7
:1001400008600422002000F059FE10BD10B54E4892
:1001500000F016FE002000F034FE3C21084600F0BE
:100160003AFE012000F01EFE10223849012000F066
:1001700045FE04224349002000F040FE012000F02B
:1001800002FE0820002805DBC206D20E01219140A4
:100190003E4A116000BF10BD72B601F03BF801F09D
:1001A0008EFC642000F032FA052001F074FC00217E
:1001B000192000F066FA0021172000F062FA0021F1
:1001C000222000F05EFA00210A2000F05AFA0121F4
:1001D000192000F0D6F80121172000F0D2F80121F3
:1001E000222000F0CEF801210A2000F0CAF80721F1
:1001F000142000F046FA0721152000F042FA00F022
:10020000F7FA23A000F0FAFA0621102000F039FADC
:100210000621112000F035FAFFF798FF62B606E0DC
:100220000120800200F0DAF8642000F0EFF9F7E72F
:100230000000002020B00250494E545F4932435321
:100240005F57524954453A25640D0A00C00000200A
:1002500052583A0D0A000000494E545F4932435348
:100260005F53544F505045443A25640D0A00000036
:10027000494E545F493243535F524541443A2564E5
:100280000D0A000004000020D500001000E100E08D
:10029000535944383832312049494320536C6176F0
:1002A000652044454D4F0D0A00000000D349086009
:1002B000704770B502462024144063092025144677
:1002C000AC430125A54028469C00CD4D2C592075F6
:1002D000050A6575050CA575050EE575002B13D08F
:1002E000002908D1C74D6D7D0543ECB2C54D6D7D2C
:1002F000C44E747515E0C34D6D7D85432C46C14DCC
:100300006D7DC04E74750CE0002905D1BD4C64684C
:100310000443BC4D6C6004E0BA4C64688443B94D3E
:100320006C6070BD70B5024620241440630920251E
:100330001446AC430125A5402846002B13D00029C4
:1003400008D0B04DED7D0543ECB2AE4DED7DAD4E28
:10035000F47515E0AB4DED7D85432C46A94DED7D43
:10036000A84EF4750CE0002905D0A64CE4680443BF
:10037000A44DEC6004E0A34CE4688443A14DEC6020
:1003800070BD30B50B462024044061092025044689
:10039000AC430125A5402A468C00994D2C59227664
:1003A000150A6576150CA576150EE576002B0AD094
:1003B0008C00934D2C592271150A6571150CA5718D
:1003C000150EE57109E08C008D4D2C592272150A2D
:1003D0006572150CA572150EE57230BD10B520239F
:1003E0000340590920240346A34301249C4022468C
:1003F0008B00834CE3581A73140A5C73140C9C73BF
:10040000140EDC7310BD10B52023034059092024BD
:100410000346A34301249C4022468B00784CE358BA
:100420001A71140A5C71140C9C71140EDC7110BDED
:1004300010B520230340590920240346A343012477
:100440009C4022468B006E4CE3581A72140A5C7270
:10045000140C9C72140EDC7210BD30B501462020C5
:100460000840420920240846A04301248440234632
:100470009000634C205840301024041925782846F9
:1004800065782D022843A5782D042843E4782406B6
:1004900020431840002801D0012030BD0020FCE797
:1004A000F0B503460C46154620221A405009202676
:1004B0001A46B243012696403146002C0BD18200E9
:1004C0004F4EB258403211720E0A56720E0C96728E
:1004D0000E0ED6720AE08200494EB25840321171B7
:1004E0000E0A56710E0C96710E0ED671002D0BD1A0
:1004F0008200434EB258203211760E0A56760E0C08
:1005000096760E0ED6760AE082003D4EB258203224
:1005100011750E0A56750E0C96750E0ED675820064
:10052000374EB258203211710E0A56710E0C967168
:100530000E0ED6710022002A05DBD706FF0E01261B
:10054000BE40314F3E6000BFF0BD10B520230340D8
:10055000590920240346A34301249C4022468B00D2
:10056000274CE35820331A72140A5C72140C9C72E4
:10057000140EDC7210BD70B500243CE0A0002049D0
:1005800008584030142141180A7810464A7812025F
:1005900010438A7812041043C97809060843A10061
:1005A000174A515820310A461378194653781B02CE
:1005B000194393781B041943D2781206114308405B
:1005C0000546002D00D114E00C480068002804D036
:1005D00029462046094A12689047A0000849085851
:1005E00040300575290A4175290C8175290EC175A0
:1005F00000BF601CC4B2022CC0DB70BD4C000020E8
:10060000440000204010005000E100E0002109E01B
:10061000002201E0531C9AB27D239B019A42F9DB30
:100620004B1C99B28142F3DB7047002107E00022A6
:1006300001E0531C9AB2092AFBDB4B1C99B28142A0
:10064000F5DB704710B50146272901DA002902DAE7
:100650000020C04310BDCC07E40F202904DA4A1063
:100660001B480068835C05E00846203842101848A3
:100670004068835C002C01D01811EBE71807000FCD
:10068000E8E770B5272801DA002800DA70BD09070D
:10069000090FC407E40F202804DA43100C4E366813
:1006A000F21805E00646203E7310094E7668F218EF
:1006B0001578002C01D00F2600E0F0263540002CE4
:1006C00001D00E07310E2E460E43167000BFDDE737
:1006D0005000002010B502460620002815DBC40695
:1006E000E40E0123A3407F4C236000BF00BF00BF86
:1006F000BFF34F8F00BF00BF00BF00BF00BF00BFF0
:10070000BFF36F8F00BF00BF00BF00BF7648006817
:100710000078000900010B071B0F1843724B1B6880
:10072000187071480068007880239843D3018024B2
:10073000234018436C4B1B6818706B4800680078A6
:10074000402398434030684B1B6818706648006827
:10075000C078102398431030634B1B68D8706248F0
:10076000006880780823984308305F4B1B689870B6
:100770005E48406A402318435C4B58621846006A42
:1007800040231843594B18620620002806DBC40694
:10079000E40E0123A340534C803C236000BF10BDF6
:1007A000F0B50B4601242404002112E000BF8500AF
:1007B0004D4E7559ED782D07ED0F002DF7D18500C1
:1007C00075596D785E5C35468600474FBE59757029
:1007D000491C9142EADB00E0641E8500424E7559D7
:1007E000ED786D07ED0F002D01D1002CF4D1F0BD97
:1007F00010B508210020FFF76DFF10BD0FB438B50C
:1008000000240498002803D138BC08BC04B0184761
:1008100005A800903648009A049903F07BFCC4B206
:1008200000200090802C00DD8024224630490020EA
:10083000FFF7B6FF00BFE7E70FB438B50546002461
:100840000598002803D138BC08BC04B0184706A896
:1008500000902748009A059903F05CFCC4B2002080
:100860000090802C00DD8024224621492846FFF795
:1008700097FF00BFE7E7F8B505460E461746002488
:10088000002D02D02846FFF7B9FF00241BE02046C8
:10089000E117490F0918C910C900611A03D1A1B2A3
:1008A00014A0FFF7ABFF315D14A0FFF7A7FF601C9A
:1008B000C117490F0918C910C900411A02D111A066
:1008C000FFF79CFF641CBC42E1DB2046E117490FA7
:1008D0000918C910C900611A02D00AA0FFF78EFFDB
:1008E000F8BD000080E100E05800002000800220F8
:1008F000000100205B253034785D200025303278FF
:10090000200000000D0A000010B5F848006800281B
:1009100002D0F64908688047F548006840794008E9
:100920004000401CF2490968487110BD10B5EF48FD
:100930004068002802D0ED4948688047EC4840688C
:10094000407940084000401CE9494968487110BDA1
:1009500001468800E64A105870478200E34B9950E0
:10096000704710B58200E24B9A5812785208520034
:10097000002901D0012300E00023DB07DB0F1A432D
:100980008300DB4CE3581A7010BD10B58200D84BC1
:100990009A58127952085200002901D1012300E02F
:1009A0000023DB07DB0F1A438300D14CE3581A7195
:1009B00010BD10B58200CE4B9A58D27C08239A43C2
:1009C000002901D0012300E00023DB00082423409C
:1009D0001A438300C64CE358DA7410BD10B5820088
:1009E000C34B9A58D27CD208D2004B075B0F1A43F4
:1009F0008300BF4CE358DA7410BD10B58200BC4BC5
:100A00009A58927C80239A43002901D0012300E068
:100A10000023DB01802423401A438300B44CE358B5
:100A20009A7410BDFFB581B004460E461D460A9F5C
:100A3000B807800F002805D1002D03DDFF2001300D
:100A4000854206DDABA10020FFF7F6FE002005B0D1
:100A5000F0BDA000A64908580078C007C00F0028C4
:100A600005D12246AAA1FFF7E7FE0020EFE7A0008C
:100A70009F490958C878897800020843AB49084063
:100A8000E901AA4AD24311400843A100984A5158AB
:100A90008870000AC870A000114608580772390A09
:100AA0004172390C8172390EC172A000114608588A
:100AB000807CC009C0017106490E0843A10051584D
:100AC0008874A00011460958487C097C000208433C
:100AD000039989B20846A10051580874000A487465
:100AE000A00011460858407840084000401CA10072
:100AF000515848700120AAE7FFB581B004460E4660
:100B00001D460A9FB807800F002805D1002D03DD80
:100B1000FF200130854206DD76A10020FFF78CFE24
:100B2000002005B0F0BDA000714908580078C0074A
:100B3000C00F002805D1224675A1FFF77DFE0020D9
:100B4000EFE7A0006A49085881784278080210430C
:100B500077490840A901764AD24311400843A100D1
:100B6000634A51584870000A8870A000114608581E
:100B70000773390A4173390C8173390EC173A000B0
:100B800011460858807CC009C0017106490E08430F
:100B9000A10051588874A00011460958487C097C6E
:100BA00000020843039989B20846A100515808740D
:100BB000000A4874A0001146085840780221884372
:100BC000801CA100515848700120AAE7FEB50446D8
:100BD0000E4617461D46A000454908580079C00733
:100BE000C00F029000200190A00008580079400832
:100BF0004000401CA1003E4A51580871A000114617
:100C00000858407940084000401CA10051584871E4
:100C100000953A4631462046089BFFF76DFF0028B5
:100C200013D000BFA000324908588079C007C00F18
:100C30000028F7D0A0000858407940084000401C28
:100C4000A1002B4A5158487101E001200190A000F9
:100C5000274908580079400840000299C907C90F80
:100C60000843A100224A515808710198FEBDFEB503
:100C700004460E4617461D46A0001D490858007937
:100C8000C007C00F029000200190A0000858007912
:100C900040084000401CA100154A51580871A000AE
:100CA00011460858407940084000401CA1005158A6
:100CB000487100953A4631462046089BFFF7B2FE40
:100CC000002837D000BFA000094908588079C00724
:100CD000C00F0028F7D0A000085840794008400015
:100CE000401CA100024A5158487125E068000020CC
:100CF00060000020444D4120706172616D65746533
:100D00007220696E636F72726563740D0A00000071
:100D1000493243204D6173746572202564206973E4
:100D20002064697361626C65640D0A007F00FFFFD7
:100D30003F80FFFF01200190A0000749085800797B
:100D4000400840000299C907C90F0843A100024AA0
:100D5000515808710198FEBD6000002010B53D4853
:100D60000068002804D03C49887D3A4909688847D2
:100D70003948407D40084000401C3749487510BD47
:100D80003449086070473449097D49084900002802
:100D900001D1012200E00022D207D20F11432E4AD6
:100DA000117570472C49097C49084900002801D079
:100DB000012200E00022D207D20F1143264A11740B
:100DC00070472549497C890889008207920F1143A1
:100DD000214A51747047204A927CD209D2014306BD
:100DE0005B0E1A431C4B9A741A46D27CD209D2016C
:100DF0004B065B0E1A43184BDA747047F8B505467C
:100E00000E46144637461448007CC007C00F002821
:100E100004D112A1FFF710FD0020F8BD002D0CD168
:100E20000D481030C7600C486030008AA1B20846F7
:100E30000949603108820120EFE7074820388763BD
:100E400005486030408AA1B20846034960314882B3
:100E50000120E2E77000002020B002504932432018
:100E6000536C6176652069732064697361626C6597
:100E7000640D0A00002815DBC206D20E0121914044
:100E8000944A116000BF00BF00BFBFF34F8F00BF87
:100E900000BF00BF00BF00BF00BFBFF36F8F00BF28
:100EA00000BF00BF704770B504460D460620FFF72F
:100EB000E1FF894800680078000900012907090F4F
:100EC00008438549096808708348006800788021D4
:100ED0008843E1018022114008437F490968087076
:100EE0007D4800680078402188437B490968087084
:100EF0007948006880780821884308307649096875
:100F0000887092007549764800F0F0F87548406A9C
:100F100040210843734948620846006A402108435B
:100F200070490862062000F0CBF870BD70B56A48C1
:100F30000068047830206040054667480068057006
:100F40001020204000280DD000BF634800680179C0
:100F5000634800F003F960480068C078C007C00F1C
:100F60000028F2D070BD70B504460D461920FFF779
:100F700081FF594840680078000900012907090FDE
:100F800008435549496808705348406800788021F3
:100F90008843E1018022114008434F4949680870A5
:100FA0004D4840680078402188434B4949680870A3
:100FB0004948406880780821884308304649496894
:100FC0008870920048494648103000F08FF8192088
:100FD00000F076F870BD70B53F4840680478302066
:100FE000604005463C4840680570102020400028BD
:100FF0000ED000BF3848406801793948103000F001
:10100000ADF835484068C078C007C00F0028F1D05F
:1010100070BDF0B50B4601242404002112E000BF8E
:1010200085002D4E7559ED782D07ED0F002DF7D168
:10103000850075596D785E5C35468600264FBE5931
:101040007570491C9142EADB00E0641E8500224E67
:101050007559ED786D07ED0F002D01D1002CF4D1FD
:10106000F0BD70B504460D4621011D4A8818294679
:1010700000F082F870BD70B504460D4600BF022C2A
:1010800001DB002070BD2101154A881800F089F8A5
:1010900000280AD1200112494018C5682101104AD0
:1010A000881800F087F8C0B2ECE70020EAE70146B4
:1010B000012901DD002070478800074A1058FAE72F
:1010C000002806DBC206D20E01219140014A803A77
:1010D0001160704780E100E074000020A001002052
:1010E0008001002000800220A00300200023436034
:1010F00003608260C1607047416801607047F8B565
:1011000004460F46154660684019A168884219DBFD
:10111000A088281A86B26268E16888183246394683
:1011200002F022FCA81B85B22068A84202DC2088BD
:10113000401E85B2B9192A46E06802F015FC6560C8
:101140007019F8BD6268E16888182A46394602F0CD
:101150000BFC6068401960602846F2E7024653685D
:10116000581C5060D068C15493685068984201DBA5
:101170000020506001207047024653681068984272
:1011800001D1002070471368581C1060D068C05C03
:10119000087093681068984201DB002010600120FD
:1011A000F0E701464A680868904201D10120704783
:1011B0000020FCE7014600224B680868984200DDE9
:1011C0008A68486880180B68C01A704704488047CE
:1011D00004480047FEE7FEE7FEE7FEE7FEE7FEE71E
:1011E000F1110010C1000010034804490860704765
:1011F000014802490860704740787D017C0000206A
:10120000FE49202208781043EF22104004221043A8
:101210000870704710B5FA488047002802D001F0E6
:1012200086FF012010BDF6480A300047F4492831F6
:101230000847F3493C310847F1496C310847F14907
:101240000847F0495C310847EE496A310847ED49E3
:1012500076310847EB4986310847EA499431084717
:10126000E849A2310847E749AE31084730B4E64CB7
:10127000A44630BC6047E44874300047E348004768
:10128000F8B5E34DCF222968E24C087800261040DB
:1012900008702068E049183088472868226801787B
:1012A000127F090912070901120F11430170090782
:1012B000090FBF27012921687ED00A4622314B78C9
:1012C00009781B020B43114620310B711B0A4B712D
:1012D0000378117A3B4089010B435906490E01708E
:1012E000226841784032127A8909921D920689015A
:1012F000920E1143417021680622801C093102F0D0
:1013000033FB21684820425C002A04D02868493118
:10131000083002F029FB2168BF4A7020405C323A55
:10132000713190472868BD4A41788906890E891C29
:1013300090472868017809090901091D0170226890
:101340003940127AD207520E114301702268417857
:101350002032127A8909921D92068901920E114358
:10136000417021680622801C093102F0FDFA2168D3
:101370002820425C28682931083002F0F5FA2868F4
:10138000A74A41788906890E891C90472568002064
:101390006F7F012181400F4204D0E97F0B2251432E
:1013A0008E19761C401C0328F3D32C462034607819
:1013B00021780002084300E019E013214843401C53
:1013C000B04206D2701E02F0A5FA401C2070000A3E
:1013D00060706078217800020843022803D202205E
:1013E000207000206070287F012824D03AE00B464E
:1013F00020318A79CA71197A0278C9073A40490EB0
:101400000A43027051062268490E6032127CD201F2
:101410001143017041780622890989010C3141701C
:101420002168801C093102F09FFA28682168062291
:10143000083071316DE7E079002813D060782278A8
:101440000102114313204143A079491CC00302F05B
:1014500061FA401C06467F2102F05CFA401CC1B2D2
:10146000E1711EE0607921790002084331D0607893
:10147000227801021143132041432846223042784A
:10148000037810021843C003491C02F043FA401CC1
:1014900006467F2102F03EFA401C81B22171080A03
:1014A0006071304602F036FA401C7F2800D97F2058
:1014B0000121E975A97F0091617823780902194318
:1014C000584CEA7FC0B23B46A0475648343080476C
:1014D000F8BD0020544CE875034602460121A047A0
:1014E000F8BD4A491A3108474848F43000474F4888
:1014F000004738B5049C00944C4C0E34A04738BDCE
:1015000030B44A4CE834A44630BC604710B501F012
:10151000F9FE10BD10B501F011FF10BD4349A43113
:101520000847434800474248323000474049463167
:1015300008473F49B23108473D49C23108473C4A54
:10154000D032104710B500F0E3FD10BD3849FC3132
:1015500008473849084737490E3108473549363179
:10156000084710B501F0B4F810BD334908472948C1
:101570000068817C427C0802104308D01F4A022088
:10158000117801430120014311702B49084770472E
:10159000F8B51A48C079000679D51E480668B17CAE
:1015A000707C0F0207431548057801D0A80701D4C5
:1015B00068076CD5114C207BE17A0002E41C0843DB
:1015C00065D0002F63D060782178000208434DD1A8
:1015D000307CF17B0002084302F012FC0022174B22
:1015E00002F012FB02F01AFC80B278430A2102F0EA
:1015F000A7F94004010C2170080A21E06A160020B6
:10160000DF5600001558000027590000CD5B000090
:10161000A00000209C000020451D00002B2600009B
:1016200047270000971B000031540000F55C0000C4
:101630005B5E0000675F0000B56000000000F43FE3
:101640006070307DF27C000210430A2242439142D6
:1016500003D3401E2070000A607060782178000279
:10166000084303D10120207000206070FD210D404F
:101670000121F6480D430570F54900208847607840
:10168000227801021143F44BF24A09209847F8BD31
:1016900010B50F21ED4802F080F910BD7CB505466C
:1016A000401C02F092F9082831D0E84C00263E3C5C
:1016B000042831D0802874D0E449C31F0A78FF3B46
:1016C000FA3B18D001218903884263D1E2490A20FC
:1016D0002431884760780621484301190A22681D91
:1016E000891C02F041F96078401CC0B260700A2881
:1016F00057D3667055E0C879002852D0D00650D430
:10170000AB796C791802204301280AD049E001F036
:1017100015FED248804744E066702670FFF7B8FF98
:101720003FE08878401E0006000E88702AD0C74827
:101730004B788179427909021143827A447A120204
:101740002243401C012B23D0521A0272120A427209
:101750001206037A120C1A43531A69460B804A8008
:10176000BA490A7BC97A12020A4369468A80417BD8
:10177000027B080210436946C880B8496846E831D0
:1017800088470EE0087A8870402002430A7008E01B
:101790005218DAE7910604D58004000F01D0FFF754
:1017A000F7FEAF492846C96888477CBD10B5044696
:1017B000001D02F00AF9AA49C860211DA94802F0DB
:1017C0000EF9A9492046884710BDA749223108478C
:1017D000A54978310847A44A803210479C4A7A3A92
:1017E00010479B4872380047984900203E390A78D4
:1017F00049788A4200D90A200818801A401EC0B2CF
:10180000704700B5FFF7F0FF002804D18F48002192
:101810003E384170017000BDF8B50E460746934949
:101820001C46154601208847002805D023462A4635
:101830003146384601F042FDF8BDF8B50E46044683
:101840008A491F46154601208847002814D0022CDB
:1018500003D1FFF7C9FF002809D0EAB27C4D3B460F
:10186000314620466A3DA847012807D004E00A21F6
:10187000794B7F4A084698470020F8BD022C12D1C8
:10188000724C06213E3C20780A46484300193146F6
:10189000801C02F069F82078401CC0B220700A2831
:1018A00001D3002020700120F8BD70B50D4604461C
:1018B0001121401989031646884201D3002070BDCA
:1018C0006C480068213002F080F86B4B00193246FA
:1018D0002946984770BDF8B50646EFF3108472B6F6
:1018E000644D2868213002F070F88019634A0121A4
:1018F000904784F31088614F0024F63FEFF3108582
:1019000072B65C480068213002F05FF83119401867
:101910005B4900230A192021B84785F3108801206C
:10192000000320348442E9DBF8BDF7B507050199CF
:101930003F0D002912D0029900290FD0484989781B
:1019400000290BD101997A18012109038A4205D88F
:10195000019A112382181B039A4201D90020FEBD6F
:101960000025C41BEFF3108672B642480068213090
:1019700002F02BF86119401841493F4B4A192021C8
:10198000984786F310880120000320358542E9DB63
:101990003B48019AC019029901F0E6FF3349012042
:1019A000884700280AD0EFF3108072B62C49012234
:1019B0008C808A7080F310880120FEBD2046FFF7DE
:1019C0008AFFF9E72249A8310847214AB032104777
:1019D00038B5049C00941E4CB834A04738BD30B4D0
:1019E0001B4CC434A44630BC60471949CC3108476D
:1019F000174AD4321047164ADC32104730B4144C20
:101A0000E434A44630BC6047114BEC331847104B0C
:101A1000F433184730B40E4CFC34A44630BC604755
:101A20001849084717480830004716491031084739
:101A30001449D23108471349DA3108471249084797
:101A40001148323000471048563000476A160020CF
:101A5000B56000006F150010D33300008D5E0000EC
:101A6000800000209D160010B35F00004585000037
:101A700003180010980000208F1600009F18000027
:101A80002C060020B961000017630000F94A1047D6
:101A9000F84952310847F7495C310847F549643144
:101AA0000847F4496C310847F2497631084710B5C8
:101AB00001F0C9FB10BD10B501F060FB10BDED4891
:101AC00090300047EB49A431084730B4EA4CA446B3
:101AD00030BC6047E748F6300047E8480047E74930
:101AE00030310847E54856300047E4486030004749
:101AF000E24814300047E14822300047DF487230A6
:101B00000047DE4BD6331847DD4B184730B4DC4C6A
:101B10006634A44630BC604730B4DA4CA44630BCCE
:101B20006047F8B5D8488047D84CA078002809D03D
:101B3000A088FFF7D0FEEFF3108072B60021A170ED
:101B400080F31088D24DE87900282CD0000608D503
:101B50002878400705D5FFF71BFD2878FB210840B2
:101B600028702878CB4FCC4E41060AD5BF210840BB
:101B7000287002206946088002466B4639460020DC
:101B8000B0472878C1070ED0400840002870800771
:101B900001D5042000E005206946088002226B463A
:101BA00039460020B0476078C10704D040084000A3
:101BB0006070A0688047F8BDB8480047B7483A3021
:101BC0000047B64852300047B4486A300047B3482F
:101BD0006E300047B2498A69120A120202434A6112
:101BE000087C012210430874704710B572B6A24CED
:101BF000A047AC48006801214A02104206D1AA4819
:101C0000027ED20702D0027E0A43027662B601202B
:101C100010BD70B504460320000384422AD9A348AE
:101C200003260568B603E878002802D0012810D002
:101C30001EE02846253001F0C8FEA04202D88019D7
:101C4000A04217D2284629300EE08019A04211D2B6
:101C50000EE028462D3001F0B8FEA04202D88019CF
:101C6000A04207D22846313001F0AFFEA042ECD9A5
:101C7000012070BD002070BD10B572B68C4A90472F
:101C800062B610BD70B514460D460646FFF7C1FF9B
:101C9000002806D072B62246864B29463046984721
:101CA00062B670BD10B572B6824BAE33984762B65D
:101CB00010BD10B572B67E4CF63CA04762B610BDA2
:101CC000F7B50025C80288B00E462C46070C11E077
:101CD000089861010818774B6A4620219847002030
:101CE00069460A5C401C5219C0B295B22028F8D34C
:101CF000641CA4B2BC42EBD3F6060898F60E610150
:101D000008186C4B6A46314698470020694604E043
:101D10000A5C5219401C95B2C0B2B042F8D30A987E
:101D2000854202D101200BB0F0BD0020FBE7FFB5DA
:101D30000E460121074609035E4B81B05E4A002032
:101D400098475D49352208468C3801F00DFE5A4807
:101D5000833801F03AFE5849572244185648214624
:101D6000573801F001FE2021601C01F016FE00250D
:101D7000002F10D00020395C00290AD02218401C06
:101D8000C0B251702028F6D305E02118401C4D70D8
:101D9000C0B22028F9D320460521213001F0FDFDF5
:101DA000002E12D00020315C00290CD022182032E5
:101DB000401CC0B251700528F5D306E0211820312F
:101DC000401C4D70C0B20528F8D321462631039837
:101DD00001F005FE2146223104980872000A48727B
:101DE0000121334A2570002090470121314B09031E
:101DF0000020314AAE339847012005B0F0BD2F4A8C
:101E000010472E4A223A1047FEB50278002A7DD0AC
:101E10001F49CA7142780A72002A01D0042A01D9E6
:101E200004220A72C278847813022343184A1C0AD7
:101E3000537294724479057924022C431546EC724E
:101E4000260A2E73A646C47985792002284350734A
:101E5000040A84461A489473056808262C7CE87B9B
:101E6000240204430120521CA342487031D91C1B98
:101E700030E0000091630000E93100005766000087
:101E80001B68000061690000D16400008000002030
:101E90006A1600200002000031540000713C00006E
:101EA0000010005000E100E000A000509800002069
:101EB0009F1800008F1600002C060020A7290000A4
:101EC0009C0000201071000A01E01671300A507168
:101ED00007E0E41A0F7ABC4226DA1071000A50714A
:101EE0000C72087A88700E70002B1BD05079117913
:101EF00000020843191A6846018043806146C18088
:101F000071468180A87C697C000200E010E00843F3
:101F100002D0724900208847714968468847714954
:101F2000092088470120FEBDFF00BC42CDDAC9E789
:101F30000020FEBDFEB507466B4801780A077DD537
:101F4000F72211400170BA797C1C7B7912021A4386
:101F50007BD0C279120678D5102211430170880611
:101F600073D46248804705466079217900020843AE
:101F7000FF1C002832D001F043FF0646009178781C
:101F800039780002084301F03BFF594F00223B46DD
:101F900001F03AFE3246009B01F036FE00905548B3
:101FA00001910068017CC27B0802104301F028FF08
:101FB00000223B4601F028FE07460E46607A217A51
:101FC00000020843401B01F007FF3A46334601F088
:101FD0001BFE019B009A01F065FD24E078783978BA
:101FE0000002084301F0F0FE064642480068017C0A
:101FF000C27B0802104301F0E7FE314601F0F8FC15
:1020000001F02AFF00223A4B01F0FEFD07460E4682
:10201000607A217A00020843401B01F0DDFE3A4657
:10202000334601F0F1FD0022334B01F055FE01F083
:10203000F5FE0104090C00D1012101E00EE004E0ED
:10204000284B09202D4A243B9847032069460881E4
:10205000022211022A4C02AB0020A047FEBD38B577
:10206000284C2078002804D1274968468847012059
:102070002070012038BD10B50B30102801D9FF2089
:1020800010BD184BC4B22046243B9847204610BDD3
:1020900010B50B30102801D9FF2010BDC4B2114972
:1020A00020468847204610BD072801D900207047E8
:1020B00001228240134843781A4342708160012014
:1020C00070470C480068C07D70470A480F49006897
:1020D0004118487C097C000208437047B560000045
:1020E000755F0000F73300006A160020051B000032
:1020F0000000F43F9C00002000002440011200106A
:1021000031540000800000209D2C00006305000079
:10211000FE498A78002A00D008707047F8B5FB4C59
:10212000E3685979002914D0B121C95CC91F092974
:1021300058D8014618461022D93001F015FC6078B5
:1021400002210128E06805D04279D20611D5F04875
:102150008047F8BDCA22125C012AFAD1C279012A4D
:1021600003D1EC49E9308847F8BD002AFCD1C171A0
:10217000F8BDC279012AF8D1CA21095C012903D02E
:102180000021C171E068ECE7606901260178304602
:102190008840A16980250968884300D181250027EE
:1021A000DD488047E168C919E0317F1CFFB24876FD
:1021B000102FF5D3E0682B460146E9310246009125
:1021C000FF31F9321131D54DFF305A30A8476069DF
:1021D0000078142802D2E068C671D3E7E1680020D5
:1021E000C871CFE7CA4B0622002101208C3B9847DB
:1021F000F8BDF1B5C54CA4B0E068A27841791143AF
:102200002BD0CA210B5C2146C24FC9681C37002560
:10221000E931012B23D0064602467136093204917A
:10222000711E531E0196BB4E02930392CA33C232F3
:1022300000917A36FF300A302499B047E1681022C5
:102240000846D930E93101F0B3FB00287ED0B04B0D
:102250000422002101208C3B984725B0F0BD0C954D
:102260000D950E950F95119512951395149543792B
:102270000126DB06002B01DB002A68D0F930B847C5
:10228000A24CA078002822D01DA801950090E368F8
:10229000A34F18460146FF30FF31FA305A31F93367
:1022A000249AB8471DA8013001F08FFB18A9097DB9
:1022B000000208439B4901F02DFB04220191110407
:1022C000994F01AB0020B847207800287ED0E16804
:1022D00007220F4615A8093101F046FB39460722AF
:1022E000713117A801F040FB387A002810A86ED091
:1022F00086767020C05D002818A869D0867004A872
:102300003A460190F9321046844E15ADC03017ABF5
:10231000009546362499B047E068102204A9813020
:1023200001F022FB08AE0FCE19AE0FC6E168032202
:102330000E4621A8D33101F017FB31460322CC31E0
:1023400022A801F011FB3046FF3001E06EE01FE0F3
:10235000EA30039017AF21A96846A2C03146704EFB
:10236000F93111AB19A86A3E249AB047E26822A954
:102370001046FF30DA300197009103900CAB0295C4
:1023800019A8F9322499B04768490020884764E7C2
:102390005E4A8023526914783246A2405B4CA4699D
:1023A0002468A24300D1812300910146FF315A31B4
:1023B0005A4CFF30FA30249AA04754481022C06883
:1023C0000146E931D93001F0F3FA02E023E029E0D7
:1023D0002AE0002801D004221EE04C4CE068F930CD
:1023E000B84761690878401CC0B208701428CED381
:1023F000A1690868020C08A8827410A88271088874
:10240000020A08A8427410A84271097808A8017449
:1024100010A8017134E70C223D4B002101208C3BB8
:1024200098471AE7857664E7857068E7E0680026D4
:10243000F930B847E368394F1946FF330A33363F5E
:102440001846F931249AB847E06810230146A031B4
:1024500006E017183246FF320A32761CBD54F6B237
:102460004A7C9F1AB742F4DC304900208847E06874
:102470004179490849004171EFE6F0B50446C0785A
:1024800085B0072807D2224B0622002101208C3B71
:10249000984705B0F0BD1D4E0121F068CB221154C4
:1024A000002506222146CC3001F05EFA1120F168A9
:1024B00040010818A0314E7CC17E827F437F049288
:1024C0000A07D20F009203934A07CF06D30FFF0FDC
:1024D00002968A0701970E4E920F817E407E643EDF
:1024E000B047A07810260007002843DA074A1121D8
:1024F000D06849014718FB7E19073BD50121CA2244
:1025000011545A0715D4A278520711E09000002008
:102510005DA1000055A900004D250000B3AA0000F0
:10252000FFAB000040420F0031540000F7330000C1
:102530000ED57B7E22789D005B19FE4D5B19D55C24
:10254000882D02D0102D03D005E0FB4A917002E0E7
:102550004179314341714179C90634D50B21C90113
:102560004018C07D01282ED16421F54BF34A052087
:10257000984728E0F04F0021F868CA221154112131
:1025800049014118CA7E520702D4A278520709D5E0
:10259000497E22788B00C918E64B193BC918555C57
:1025A000102D02D1417931434171E44AE44B943A10
:1025B000E449002098476079C00704D0F8680322F6
:1025C000817911438171607980070BD5DA48112137
:1025D000C06849014118897F890703D581790C2298
:1025E00011438171207980070BD5D3481121C06830
:1025F00049014118497F890703D541798022114358
:102600004171CD48C1680846A0304674E278102A6E
:1026100000D24274487901221043CB4C4871202DDE
:1026200008D0402D00D034E700231A464021002076
:10263000A0472EE700231A462021F8E770B5BE4CCC
:102640000D46E36800281DD020690C2181711946D0
:10265000FF3120225A31C01D01F086F9E16820695E
:10266000FF31202227307A3101F07EF90621B74A66
:10267000412090470B21E068C9014118C97D00291C
:102680001DD01FE01846FF302022FA3001F06CF90F
:102690002022AF4BE068A9180E46C01801F064F97B
:1026A000E368AC4C1846FF309A30FF333246294677
:1026B000BA33A04729460120FFF7C0FF70BD40791B
:1026C000C00602D4A0780128F8D19C48804770BD8C
:1026D000F0B5994C0646E06885B04179C9072AD023
:1026E000FF3010210A3001F058F9E068320AC11DAC
:1026F000F9314E728A72320CCA72320E0A73CA21D2
:10270000095C0125012918D0034606460146093314
:10271000E9365A1E713101AF4EC7491E0091C933C7
:10272000C33289318C4EFF300A30B047E068C1793E
:1027300002292FD00BE00020ABE6A0690021066043
:10274000626980231170E268D179022904D0E068BF
:10275000C17900292AD02AE000682946814300D1A6
:1027600081236168002040314E7D1718E037401CFE
:10277000C0B27E761028F7D3E068774E0146E93183
:1027800002460091FF31F9321131E436FF305A3000
:10279000B047CBE770497A39E9308847E068CA2109
:1027A000095C012902D00021C17100E0C57101203E
:1027B0006FE670B51446604A1B25136922469D7169
:1027C000D871000A18721846093001F0CDF8E41CDF
:1027D0005E4AA0B20421904770BD70B51446564AB7
:1027E0001D25136922469D71D871000A187218467A
:1027F000093001F0B9F8E41C544AA0B20421904712
:1028000070BDF7B54C4F5549F8680024254640186F
:1028100001F0DBF83A691121917182784378120254
:102820001A43009B411C9A4238D3019B9A4235D8E7
:102830000379C2781B021343029A93422ED1027885
:10284000172A35D03B690622DA714E780A783602AB
:10285000164306226243D3181E72360A5E724B7903
:102860000E791B0233433E69AD1D9619B3721B0AE4
:10287000F3723E69C379961933733E69037A9219EC
:102880005373374BFA68EDB2D3185A7C1B7C120293
:10289000641C1A43AB1DE4B29A4225D34A790B79E2
:1028A0001102304A194391421ED001780818B4E74A
:1028B000002C1BD13B691422DA714C780E7822026D
:1028C00032431A72120A5A724A790C791102214360
:1028D0009972090AD972C11D184610220C3001F0F4
:1028E00043F81435EDB201E0002C04D00421174A5E
:1028F000A81C9047FEBD144B0A221020A43B00994F
:102900009847FEBDF7B50C4F1449F86800252C46D2
:10291000401801F05AF83A69092191718278437898
:1029200012021A43009B411C9A4249D3019B9A42CE
:1029300046D819E0374A0010900000205DA1000041
:10294000D3330000B80B000031540000ED7F0000CD
:1029500019020000EF2A0000CFA900005D0300006B
:1029600063050000FFFF00000379C2781B021343D8
:10297000029A934224D10278172A2BD03B69042271
:10298000DA714E780A7836021643AA00D3181E72FE
:10299000360A5E723E69C3799619B3723E69241D88
:1029A0009219037A6D1CD372E4B2EDB2FE4BFA6851
:1029B000D3185A7C1B7C12021A43231D9A421ED341
:1029C0004A790B791102F94A1943914217D00178DB
:1029D0000818A3E7002D14D13B691221D971827820
:1029E0004578110229431972090A5972C11D184606
:1029F00010220A3000F0B8FF1234E4B201E0002DDA
:102A000004D00421EA4AA01C9047FEBD0A22E94BEB
:102A1000082000999847FEBDF7B5E74FE749F868E9
:102A200000252C46401800F0D0FF3A690921917129
:102A30008278437812021A43009B411C9A423CD38D
:102A4000019B9A4239D80379C2781B021343029A38
:102A5000934232D10278182A39D03B690722DA71C1
:102A60004E780A7836021643EA00521BD3181E72BB
:102A7000360A5E723E6943799619B372C3798679D4
:102A80001B0233433E69E41D9619F3721B0A33732C
:102A90003E69037A961973733E69437A9219937368
:102AA000C14BFA68E4B2D3185A7C1B7C12026D1C2D
:102AB0001A43E31DEDB29A4228D34A780B781102EB
:102AC000BA4A1943914221D001780818B0E7002D85
:102AD0001ED13B691521D9718278457811022943AD
:102AE0001972090A597241799972C1798279090278
:102AF0001143D972090A1973014618461022083188
:102B00000D3000F031FF1534E4B201E0002D04D0A7
:102B10000421A74AA01C9047FEBD0A22A54B08200D
:102B200000999847FEBD30B4062912D0417C037C41
:102B30000A0241781A430B020478C17880780902AE
:102B4000234301438B4207D9012219460820994BA0
:102B50001FE041790379EBE70520C002824202D0F1
:102B6000401C824202D130BC1846CBE694488242D7
:102B700003D118468F4B18330BE09148401C82421A
:102B800002D130BC184647E7100A2928184602D05F
:102B90008C4B30BC18478B4BE43BFAE7F0B4002871
:102BA00065D0854C487823690A780702834D17431E
:102BB00015262D1F5A1CD81C1B2F9E7046D94B78EA
:102BC0000E781B023343302B1AD3302303700026B8
:102BD0004670CE788F7836023E431671360A5671AB
:102BE000037100264671C879897900020843107282
:102BF000000A5072E06840190373190A417320E01B
:102C000003701B0A4370CB788E781B023343137119
:102C10001B0A53714B790E791B02334303711B0A54
:102C20004371C8798B79000218431072000A507200
:102C30004878097800020843E16849190873000AD6
:102C40004873F0BC0921604A032010471B21017022
:102C500000234370F32313710026567101714671EE
:102C600013725672E068401901733146C6E7F0BC32
:102C7000704730B4002816D04F4814210069FB2259
:102C80008170C27000230371504B43711C0A847120
:102C9000C271002202724372190A817209214A4AE2
:102CA00030BC03201047002230BC012076E7F8B585
:102CB00005464749082088473F4C0B20E168C00182
:102CC0000818807E01282DD10026374601E0042E09
:102CD00004D2E0688019A030877405E03D48804741
:102CE000E1688919A0318874761CF6B2082EEED3FB
:102CF0000026384F01E0082E01D2002000E0B8473E
:102D0000E1688919A031761CF6B28876102EF2D3CC
:102D10000026B847E1688919E031761CF6B248769A
:102D2000102EF6D30B20E168C0010918487E042854
:102D300002D005281CD01DE0264F0026B847E168C8
:102D40008919FF318131761CF6B24876202EF5D3F1
:102D5000E068214B0146FF31A1310A7EFF30520667
:102D6000520E0A760A46273A47399A30984701E0C8
:102D700008204876E16820690E46042787700822FB
:102D8000C01CC231B63600F0EFFD20690422314686
:102D90000B3000F0E9FD0D210B4A0320904708227B
:102DA00029460A31E06819E063050000FFFF0000D2
:102DB000ED7F00008D5300009000002065030000AF
:102DC000022800006B430000958C000048080000BA
:102DD000558500004D250000C5290000BA3000F0DF
:102DE000C3FDE068294604221231B23000F0BCFD78
:102DF000A068C078032804D02A7AFE4E002A0AD0A0
:102E00000CE0E068FC4B817D427D080210432A46BD
:102E10000832294617E0687A002816D0E068014693
:102E20006030C37D9A420AD16A7A007E824206D11E
:102E300008222846793100F0BBFD002824D0062264
:102E40000021EE4B01209847F8BDE068CA21095CDB
:102E500001290BD00246BA32FF3011460A30B04782
:102E6000E068022241791143417112E04179024642
:102E700039434171BA3211468130B047E068603061
:102E8000C07B012802D004E0E068EFE7DC490220C3
:102E90008847DC488047F8BDF8B501220021DA4BAD
:102EA00008469847D94C06202169D94A88700121E3
:102EB00003209047E068D44D417908228B07002712
:102EC0000A3D002B25DA114341710026A847E1682D
:102ED000891980314870A847E1688A19912188547E
:102EE000A032761CF6B25770102EEFD30026A847FA
:102EF000E16889196031761CF6B24876082EF6D35F
:102F0000A847E1686031C875A847E1686031087674
:102F100014E0CA231B5C012B10D183795B070DD50C
:102F2000114341710026A847E16891228919505444
:102F3000A031761CF6B24F70102EF4D3B5490320A1
:102F40008847AF4D0820103DA847002803D0AC4962
:102F500008200A3188470220A84701283CD10B27C6
:102F6000E168FF01C819407D012835D12D204001BD
:102F70000A185379002B04D0012B19D0022B25D02D
:102F80002AE005220020D2018B1809E00A264643D8
:102F900076180325B61835760025401C7576C0B224
:102FA000DD7B8542F2D8E1680120C919087513E07C
:102FB00061688B789B06DB0FD3718A78DF231A4018
:102FC0008A70E16808188179017205E0914B917966
:102FD0000720914A243B9847884D0220623DA8472C
:102FE0000028E068817D407D0FD0090201438B4AB3
:102FF0000020904781490220483988470420A8478B
:10300000002801D086488047F8BD09020143834B60
:1030100001220020643B9847F8BD3DE710B50278D7
:10302000411C002A11D0022A33D0032A0CD14A783D
:103030000B781102194310295BD0082904D1021D15
:10304000C1781046FFF76FFD10BD4A780B7811026A
:10305000194306290BD003290CD014290ED01529A9
:1030600011D00029F0D1001DFEF764FF10BDFFF75D
:1030700013FF10BD001DFFF71AFE10BD011D00203B
:10308000FFF7F7FD10BD021D00210846FFF786FD82
:1030900010BD4A780B7811021943012918D0032971
:1030A0001AD004291CD00C291ED00D29F0D1574864
:1030B000C1688A795207EBD44A79D209E8D109224A
:1030C0009201891809780129E2D1C069017010BD07
:1030D000001DFFF7D2F910BD001DFFF71FF810BD4E
:1030E000001DFFF786F810BD011D0020FFF7A6FAAE
:1030F00010BD031DC078062813D0587C197C02022D
:103100000A435878197800020843D9789B78090255
:103110001943884208D901220146424B10209847A2
:1031200010BD58791979EAE7FFF76BFB10BD10B5B0
:1031300088B03D480090401E0190002468460481FC
:103140004481062101824182672181812721C18139
:103150008482C482354806903549684688472B48A2
:103160000221026A13680B431360426A13680B431F
:10317000136044708470047008B010BDFEB5002167
:103180006846017001710D4601212A4E7F20B0472B
:10319000284C0A206946223CA0476846007801096D
:1031A000090168460170022001430A20B04701A9C5
:1031B0000A20A04768460079400704D56D1CEDB28F
:1031C000FA2DF4D108E0FA2D06D001A90A20A04773
:1031D000684600794007F8D5684601780A20B0476C
:1031E0000020401C80B2FA28FBD301A90A20A04786
:1031F000684621E0ABAA0000996F0000CB94000064
:103200005585000001970000572500009000002020
:10321000958C0000F7330000FB9800006D6E0000F5
:10322000017A00008D530000198001001D3000104C
:1032300093600000A72900000079000701D4012055
:10324000FEBD0020FEBD10B5F949FA4CC968002842
:10325000887013D001281FD002280ED100217F20B2
:10326000A04700210320A04720210420A0470221DD
:103270007F20A04703210020A04710BD00217F2010
:10328000A04700210320A04720210420A0470221BD
:103290007F20A0470021EEE700217F20A0471F21CB
:1032A0000320A04702217F20A04701210020A04742
:1032B00000217F20A0473F210420DDE710B5012831
:1032C00002D002280ED01BE0487A0C7A000220437C
:1032D000C00715D048790979000208431946FFF75D
:1032E00068FA10BD487A0C7A00022043800707D59F
:1032F00048790979000208431946FFF76EFA10BDB4
:10330000002010BD70B5CA4C6068817EFD2211405E
:103310008176E068C84D837F427F20304178007815
:10332000090201430120A847606881784906C90F56
:10333000E1708178BF221140817070BD10B5BC4C26
:103340006068817E022211438176BB483430804719
:1033500060688178BF221140E278D207520E114393
:10336000817010BDFFB51646B14A044650680D463F
:10337000C37881B000211B0702D5002005B0F0BD45
:1033800000BF491C89B26429FAD34030417C8907C7
:10339000FCD4A748C1682D2040010818C07A012834
:1033A00004D1FF210531204600F0F7FAA0070127DC
:1033B000002807D19E482D21C26849015118897AF9
:1033C000012911D09A48002140680246C032137981
:1033D0006354491C89B20229F9D32178890661789E
:1033E000298034D5377034E041680846E030427BAC
:1033F000037B12021A43837B1B041A43920C920430
:10340000A3039B0B1A430273130A4373120C8273B8
:103410004822525CC37B5206520EDB09DB01134388
:10342000C373027A520852000272027A02231A43CC
:103430000272E031087A8007FCD420788006607838
:10344000288001D5377010E0002030700DE0002199
:1034500031700021A41C03E013796354491C89B224
:103460002B888B42F8D8C03047722888801C28806F
:103470006F4840684030417C890702D50498077046
:1034800004E0407CC1070498C90F0170012075E772
:10349000F0B587B069480026059068460682067236
:1034A000067300246649012088470028654803AB5D
:1034B00002AA04A910D0FFF755FF002810D15C48DC
:1034C0004068C078C0063CD55A4B02AA04A95D48A2
:1034D000803B9847012403E05B4DA847002830D08B
:1034E000534DA868C278032A03D1A86A007801283E
:1034F000D3D06846007A012801D1002C09D0514C64
:1035000021780807000F844605281CD0080744D0FE
:103510007AE04E4C0820A047002807D00220A047A0
:10352000002803D16846007B002807D06846008A3F
:10353000474A801EC1B243489047AEE745493D2007
:10354000884707B0F0BD4448E96808184279017916
:1035500010020843400705D5A31C222204213F4F37
:103560000846B8473C48E968801E0918487A097A35
:1035700000020843400790D42F487A3880472078CB
:1035800070224006C10FE86811540622A11C713058
:1035900000F0EAF9A01C32492BE0E868C37D022B59
:1035A0000FD000236030477B8646012F0BD00020D0
:1035B000034329D0032A08D07046007A01281AD084
:1035C00064E00123EEE70120F2E7059800906846E9
:1035D000008A244D0838C3B24806C10FA21C6046B9
:1035E000A8471348C0686030007A0128A5D11E4959
:1035F000A01C884751E7012F03D01B49A01C884716
:1036000044E0A01C1949FAE76046032895D0042835
:1036100093D1E868C37D022B2AD000236030407B21
:10362000012800D00020034387D0032A22D02DE0B8
:1036300090000020A7290000D91B0000841600205C
:10364000458500007C160020B12700006994000029
:103650003F9C00006F90000083020000EF540000C8
:10366000CB1D0000CB6F0000155C0000995D0000D1
:103670000123D3E7059800906846008A984D801F83
:10368000C3B24806C10FA21C6046A8470598009027
:1036900001966846008A0838C3B2207841060007C0
:1036A000C90F000FA21C8F4CA047F6E670B5FFB003
:1036B0008D4985B00420884700280BD08A49042012
:1036C0001A318847894880478949162088477FB042
:1036D00005B070BD87488047002500280FD0864C74
:1036E000E06841790A075ED58279D3071DD0834906
:1036F00081308847E0688179490849003AE06846A6
:1037000005807C4D794E863592367D4C09E06946C0
:1037100001A8A8470028DAD068460088C1B201A8ED
:10372000B047A0470028F2D0D1E7930709D5734AE4
:10373000014679311C3277309047E068FD2281796B
:1037400008E0530708D56D49603191308847E0683B
:10375000FB22817911400DE01207F725002A0BDAD0
:10376000027A01461046654A093142329047E068C4
:10377000817929408171AAE7294041710346773355
:103780003A2210215F4D0020A8470921E0688901F5
:103790004118097801299AD14079C00997D1E16986
:1037A0000120087093E7A16A097800298FD1E16AA6
:1037B000097801298BD1817D427D08021043524A4C
:1037C00001219047E06A057081E770B54A4E706844
:1037D000447844704B4DE00706D0FFF767FF0023A5
:1037E00001211A460846A847A00706D5FFF750FE54
:1037F000002302211A460120A847600706D5434846
:103800008047002304211A460120A847200707D536
:103810003E48BC308047002308211A460120A847B3
:10382000E00610D570682030407D3149400701D551
:103830003E2000E008208847002310211A4601207E
:10384000A8470020B070A0060CD500F027F8002390
:1038500020211A460120A8470023FF211A460131E2
:103860001846A847600611D51F490120884700283F
:1038700007D0F0686030807B012802D17168072092
:103880004875002340211A460120A847E00904D0CA
:10389000002380211A460120A84770BD10B51249A7
:1038A00001208847002815D01348C16860314A7B41
:1038B000012A05D14268603213780824234313702B
:1038C000897B012906D14068017C402211430174A3
:1038D000002141750E48804705486238804710BD79
:1038E000CB6F00007D5C0000458500000F260000C6
:1038F0006F900000ED340000900000207BA60000D7
:10390000371B0000315400004F6E0000C18D0000D5
:10391000498F000030B50B460146002020220124CB
:1039200009E00D46D5409D4205D31D469540491BF3
:103930002546954040191546521E002DF1DC30BD3C
:1039400070B500242546002801DA012440420029F0
:1039500001DA01254942FFF7DDFFAC4200D04042C9
:10396000002C00D0494270BD03460B439B0703D097
:1039700009E008C9121F08C0042AFAD203E00B7834
:103980000370401C491C521EF9D27047D2B201E0AC
:103990000270401C491EFBD270470022F6E710B5AA
:1039A00013460A4604461946FFF7F0FF204610BDAD
:1039B00030B504460020034600E05B1C934203D26E
:1039C000E05CCD5C401BF8D030BD0321001D401EE3
:1039D000037812021A43491EF9D510467047034670
:1039E00003220870000A491C521EFAD51846704777
:1039F000F8B502464A40D40F42004B0052085B081B
:103A00009A4202D20246084611464A0023D0C30D0C
:103A10004A00DDB2120EAD1A202D35DA4902012618
:103A2000490AF6058A19002C00D0524220214F1B6A
:103A30001146B9402A411018C20D9A4221D0002CDB
:103A400017D0012D08DCDA05801AD20F8019D207B1
:103A5000DBB200F081FAF8BDDA05801A01234000DC
:103A60001B06C01880185A428018CA0F104349001C
:103A700007E04908C2071143DA05801A8019400897
:103A8000801800F061FAF8BD61000122511A001B94
:103A9000F7E70122D2075140AAE70122D20750409E
:103AA000A6E70000F0B507460846584087B0C00FAB
:103AB000049048000E46590040084908BC1A884145
:103AC00005D2384631461E4617460B460246580078
:103AD000400810434CD0300D039040055900400D74
:103AE000490D0590401A0290402872DA180301210E
:103AF000000B09050843019004980092002805D0A6
:103B00000199524200208841009201900298402180
:103B10000A1A0199009800F0E3F905460C466B4635
:103B200007CB00F0FEF9C0197141039A0E0D002376
:103B3000D71756401A467A40164344D0049A002AB2
:103B40002DD0029A012A039A15DC1205C01A914160
:103B500001263605001C7141D20F059ED207009345
:103B6000019202962A46234600F03CFA07B0F0BDC7
:103B700038463146FAE71605224A0F46B218C01AEF
:103B8000B74101210905001C4F4100187F41114632
:103B900018187941E20F10436D19644113E0E207F0
:103BA0006D0815436408C2071443039A01261205E1
:103BB000C01A91413605001C7141CE0740083043C0
:103BC0004908C01851412A46234600F0FEF9CDE7C6
:103BD000FFE7049801224000C117121A00238B410D
:103BE00004983146C417381AA141EEE730B40124D5
:103BF000E407634030BC55E730B40124E40761407A
:103C000030BC4FE70000E0FFF0B51FB488B00B995F
:103C10000998002448400999C00F490049080991B2
:103C2000C0070B990090490049080B910999089821
:103C3000A64608431CD00B990A98084318D0099847
:103C400001244000420D4800410D0998240500035D
:103C5000000B204309900B980003000B20430B90AE
:103C600050181C494018002201901446104605E0E7
:103C7000002001460DB0F0BD032801DA034600E044
:103C800003239C46C11A0AAE0AE05F0008ADED5B53
:103C90004F00F75B7D430027AA187C41491C5B1E3F
:103CA0006145F2DD410004AB5A522104120C0A4373
:103CB000240C401C0828DFDB019802900099704614
:103CC00001910090059B049A0799069800F08AF9E3
:103CD000D0E700000DFCFFFFF0B50C465C4085B05E
:103CE000E40FE40703944C0000266408590094464E
:103CF000490802460296224321D062460A431ED05A
:103D00006200570D4A000E032303550D012402469D
:103D10002C492405781B1B0B360B401823432643E4
:103D2000614600901C46501AB44103D30098401CD1
:103D3000009002E0921800985B41002803DA00200E
:103D4000014605B0F0BD0020012109050746864661
:103D500011E064461D46141BB54106D36546521B4F
:103D6000B341744607430C43A646CD0740084908B3
:103D7000284392185B4105460D43EAD1104618438B
:103D800013D06046194650407140084306D0604643
:103D9000101AB34106D20122002306E000220123BB
:103DA000DB0702E00122D24353100098744601055C
:103DB000381C6141029C039D0019694100F005F91E
:103DC000BFE70000FD03000010B500229623114656
:103DD00000F0C2F810BD00000EB5C217C10F504070
:103DE000CA0740180021054B0293019200910A4630
:103DF0000B4600F0F7F803B000BD000033040000EC
:103E00000EB505490291002100910A460B46019129
:103E100000F0E8F803B000BD330400004A000903D5
:103E20000123090B1B051943094B10B5520D9A428A
:103E300001DA002010BD064B34339A4203DC9A1A93
:103E400000F05EF810BD03495118884010BD000015
:103E5000FF030000CDFBFFFFC20FD2074000400868
:103E60000BD0C10D0723DB01C91840020905400A28
:103E70001143C208400711437047002001467047B4
:103E8000F0B51FB40646002082B0054640240191DB
:103E900000901BE0019922460F46304600F030F8B2
:103EA000049A059B801A994110D310461946224660
:103EB00000F016F8361A8F410197224601200021A2
:103EC000009F00F00DF838184D4100902046641E08
:103ED0000028DFDC019B00982946324607B0F0BD80
:103EE00010B5202A04DB0146203A9140002010BD85
:103EF000914020239C1A0346E3401943904010BD93
:103F000010B5202A04DB0846203AD040002110BD1D
:103F10000B46D340D0402024A21A914008431946B2
:103F200010BD10B5202A06DBCB170846203A1041F9
:103F3000C1170B4306E00B461341D0402024A21AC0
:103F400091400843194610BD002904DA401C49007D
:103F500001D140084000704770B40024050C05D121
:103F60001024000402D1002921D01124050E01D112
:103F700000020834050F01D10001241D850F01D175
:103F80008000A41C002801DB4000641C002908D02C
:103F900020252E1B0D46F540A14000D001212943CC
:103FA000084301061B1B000ADB1D02D5002070BC64
:103FB0007047DB05181880180029F8DA401C490002
:103FC000F5D170BC40084000704710B5002B08DAEE
:103FD0000024401C614192185B411A4301D1400802
:103FE000400010BDF0B51FB482B005460C0003D0F0
:103FF000084600F0A1F802E000F09EF820300246EA
:10400000009021462846FFF76BFF049B059A044663
:104010000F4618431143084314D0184610431BD0D1
:10402000009840210A1A18460599FFF769FF0546CE
:104030000E46009A05990498FFF752FF084305D0F1
:10404000012004E02046394607B0F0BD0020C1172A
:1040500005430E432C43374300990E986305401ADD
:104060007905E40A00220C43FD0A0A3002D500203B
:104070000146E9E70105101969410C9C0D9D0019E5
:104080006941FFF7A2FFDFE74A0009030123090B9B
:104090001B0519430A4B10B5520D9A4202DA002053
:1040A000014610BD064B34339A4203DC9A1AFFF7DF
:1040B00027FF10BD034BD218FFF712FF10BD000001
:1040C000FF030000CDFBFFFF10B5002904DB012436
:1040D000E40740428C412146002B04DB1C460123AF
:1040E000DB075242A341994200D1904210BD00002B
:1040F000064C0125064E05E0E36807CC2B430C3C3B
:1041000098471034B442F7D3FBF7DEFF504A001053
:10411000704A001037B514460846064B6A462146D9
:1041200000F0DCF804466946002000F073FC2046ED
:104130003EBD0000154A00102021020C01D01021C4
:104140001046020A01D010460839020901D0104673
:10415000091F820801D01046891E420801D0881E1E
:104160007047081A704702E008C8121F08C1002AE9
:10417000FAD170477047002001E001C1121F002AE8
:10418000FBD17047F0B51FB484B007980699020DB3
:10419000014314D04A484B491018484305140F985E
:1041A00001280E981CD0281A401C0024464E47496E
:1041B000009401910290002814DA474227E00F98FA
:1041C000012443A3012808D0002104980F9A846099
:1041D0000360C260416009B0F0BD0E98C143F4E7CE
:1041E0004042E2E7074612E0F80707D0224633468E
:1041F00001990098FFF708FD01910090224633468F
:1042000010461946FFF700FD04460E467F10002FAA
:10421000EAD10298019B0028009A0799069802DAD1
:10422000FFF7F2FC01E0FFF757FD04460E460022BF
:10423000284BFFF749FF03D80020C043014607E0A1
:104240000022254B20463146FFF72CFCFFF71CFFD0
:10425000102409E0002C0ADB0A220023FFF710FEDD
:10426000059B30321A55641E02460A43F2D11122D0
:10427000641C059B121B1C190F9B012B03D00123EF
:1042800008430ED10AE0084304D011200E9000200C
:104290000F9084E70E98151A6D1E0BE00E9882425F
:1042A00002DD00236D1C03E0824201DA00236D1E53
:1042B000002BEED004980F998260C16030C08AE76D
:1042C00001FCFFFF104D0000000024400000F03F03
:1042D000300000000000F0430000E03FFFB597B061
:1042E0000646002518E2252877D100242746FD49F7
:1042F000049400E00443761C32780120203A904078
:104300000842F7D130782A280ED0022230780146B0
:104310003039092916D804990A23594330394018ED
:104320001443761C0490F1E7189802C80491189081
:10433000002904DA0120400304434842049002208B
:104340000443761C30782E2814D10420044370785E
:10435000761C2A2809D11898761C80C8189009E084
:104360000A214F43303FC719761C30780146303957
:104370000929F5D930786C2810D006DC4C281AD0E1
:1043800068280ED06A2817D104E0742813D07A2840
:1043900012D110E00120400504430CE00121090581
:1043A00001E0032109050C437178814203D101200A
:1043B00000052418761C761C3078119066280BD0E6
:1043C00013DC58287DD009DC00287BD04528F6D0A6
:1043D0004628F4D047281AD1A5E118E0632835D043
:1043E000642870D0652812D19DE170286CD008DC5B
:1043F0006728F1D069287BD06E280DD06F2806D1B0
:10440000BAE073282ED0752871D0782859D01A9A1E
:10441000199990476D1C7EE16002400F022809D077
:1044200003280DD00428189801680DD00D60001DD8
:10443000189070E11898EA1701680D604A60F6E775
:10444000189801680D80F2E70D70F0E718986A4639
:1044500001781172001D18900020507202A800907F
:10446000012005E0189802C8189000200091C04370
:1044700061070DD5002101E00199491C0191B94264
:1044800012DA8142F8DB009A515C0029F4D10BE08A
:10449000002101E00199491C01918142FADB019A56
:1044A0000099895C0029F5D1019904981A9B471A53
:1044B00021463846199A00F097FA01994019451893
:1044C0000BE04FE02CE113E04EE0009800990078FB
:1044D000491C00911A9A199990470198401E019021
:1044E000401CF2D1214638461A9B199A10E137E058
:1044F0000A200021009001916002410F022907D09B
:10450000189A01CA1892C2179446032908D00AE0E3
:104510001898C01DC108C90005C91891944607E044
:1045200000B2C2179446042902D140B2C1178C468A
:1045300000226146944506DA0A4600214042914134
:104540008C462D2102E0210504D52B216A461173EA
:10455000012103E0E10701D02021F7E7029155E0B6
:104560000A200AE0102008E010200090002104201A
:1045700004430191082703E00820002101910090E5
:104580006002410F022907D0189A01CA189200222E
:104590009446032908D008E01898C01DC108C90036
:1045A00005C91891944603E080B2042900D1C0B235
:1045B00000210291210729D51199702906D0009A6E
:1045C0001021019B4A401A4305D00EE040216A4663
:1045D0001173012108E06146014306D030216A468B
:1045E00011731199517302210291009A0821019BC4
:1045F0004A401A430AD16146014301D1610705D5FA
:1046000030216A46117301217F1E029111995829A8
:1046100004D035A10E910DA90D910DE037A1F9E758
:104620006146019B009AFFF72BFC0E9B8C469B5C1E
:104630000D9A521E0D92137061460143F0D10D98F0
:1046400005A9081A20300190600703D50120000455
:10465000844300E001270198874201DD381A00E019
:104660000020019900904118029809180498401AF6
:104670000490E00306D421461A9B199A049800F08E
:10468000B3F94519002706E003A81A9AC05D1999E5
:1046900090476D1C7F1C02988742F5DBE0030CD528
:1046A00021461A9B199A049800F09EF9451904E0D6
:1046B0001A9A3020199990476D1C0099481E009055
:1046C0000029F5DC08E00D980D990078491C0D9142
:1046D0001A9A199990476D1C0199481E019000295A
:1046E000F1DC63E1092801003031323334353637EB
:1046F000383961626364656600000000303132332E
:1047000034353637383941424344454600000000CD
:1047100000F05AF94519761C3078002800D0E2E5FF
:1047200028461BB0F0BD600700D406271898C01DAE
:10473000C108C90048680A680831C30FDB0718912F
:10474000190001D09CA108E0210501D59BA104E03E
:10475000E10701D09AA100E09AA1430011985B08FB
:10476000109165280CD006DC452809D046281DD0BC
:10477000472841D141E0662818D067283CD13CE069
:104780000021112F01DB112000E0781C0191009025
:1047900008A911A8FFF7F6FC139905910021119AB9
:1047A00015927F1C12980197009150E00120C007DC
:1047B00003900120019008A9009711A8FFF7E2FCDF
:1047C000139A149905920022119B00921298159346
:1047D000059A0192002901D0104602E0791C401888
:1047E0000190381A01D5019804E04042401E009023
:1047F000781C0190C01B029043E0012F00DA0127D2
:104800000021112F01DD112000E0384601910090B8
:1048100008A911A8FFF7B6FC13990591119A002178
:10482000129815920091019721070CD40599B9426D
:1048300001DB019900E00191012904DD159A491E6F
:10484000515C302906D0B84201DA011D05DA012198
:10485000029115E00199491EEDE7002805DC009959
:10486000411800910199091A03E0019A411C9142F3
:1048700000DD01910099401A401C02900120C00700
:104880000390200706D402990198814202DB0020A0
:10489000C043029000206946C87707AF0121039802
:1048A0000337C907884224D0022011902B20129090
:1048B000039800280CDA404203902D20129007E064
:1048C0000A210398FFF726F830317F1E03903970D4
:1048D0001199481E11900029F2DC03980028EFD1AD
:1048E000791E129808703078202108404530BF1E8C
:1048F000387006A8C01BC01D0390109800780028CF
:1049000000D00120019941180298C0170918039896
:1049100009180498401A401E0490E00306D421466A
:104920001A9B199A049800F05FF8451910980078BE
:10493000002803D01A9A199990476D1CE00324D5DA
:1049400021461A9B199A049800F04EF845191CE06C
:104950000098002807DB00990598884203DD159828
:10496000405C199901E0199930201A9A90470098F3
:104970006D1C401C00900298401E0290002804D13B
:104980001A9A2E20199990476D1C0199481E019082
:104990000029DDDC05E038781A9A7F1C19999047C8
:1049A0006D1C0399481E03900029F4DC21461A9BD4
:1049B000199A0498ACE600002D0000002B000000BE
:1049C0002000000000000000F8B5044600251E4647
:1049D0001746880404D405E039462020B0476D1CF2
:1049E000641EF9D52846F8BDFFB50446002581B000
:1049F0001E46C80301D5302700E02027880404D5CF
:104A000005E038460399B0476D1C641EF9D5284669
:104A100005B0F0BD0A68531C0B6010707047101091
:104A20004010401010401040202020102010101086
:104A3000101020204010201010401040108840100E
:104A4000882020201020101010101020884010887E
:104A5000704A001000000020C000000066410010F5
:104A6000304B0010C0000020C01A0000764100103A
:104A70000000000001000000020000000300000030
:104A80000400000005000000060000000000000017
:104A90000000000000000000000000000000000016
:104AA0000000000000000000000000000000000006
:104AB00000000000000000508000005000000000D6
:104AC000601000508C10005070B0025078B002504E
:104AD00040B0025054B0025000000000000000003E
:104AE0000000000070B0025078B0025040787D01A4
:104AF00000000000000000000000000000000000B6
:104B0000000000000000015008AA0220309F02208F
:104B1000F8A60220C8810220CC810220D580022084
:104B200024800220208002208F800220908002209A
:04000005100000C126
:00000001FF
