:020000041000EA
:1000000040270020690F0010710F0010730F0010BF
:1000100000000000000000000000000000000000E0
:10002000000000000000000000000000750F00103C
:100030000000000000000000770F0010790F001092
:100040004B070010673500107B0F00107B0F00106E
:100050007B0F00107B0F0010610900107B0F001058
:100060007B0F00107B0F00107B0F00107B0F001028
:100070007B0F00107B0F00107B0F00107B0F001018
:10008000570E00107B0F00107B0F00107B0F00102D
:100090007B0F00107B0F00107B0F00107B0F0010F8
:1000A0007B0F00100B0A00107B0F00107B0F00105D
:1000B0007B0F00107B0F00107B0F00107B0F0010D8
:1000C0000348854603F0E2FE00480047FB010010AC
:1000D00040270020002000BF06E00121C9034200A4
:1000E000B54B9952411CC8B21028F6DB002006E03F
:1000F0000121C9034200B14B9952411CC8B21028DA
:10010000F6DB704710B50346002000BF03E0440053
:100110001953441CE0B29042F9D310BD10B5044607
:10012000A7480078401CA6490870A6480078002817
:100130004AD0A4480078012837D102202040002866
:1001400013D09E48A0490860A048006800780122AA
:10015000D203811810229C480068FFF7D3FF9B4808
:100160000068401C9949086016E0E007C00F0028AD
:1001700012D09148944908609448006800780122A0
:10018000D2038118102290480068FFF7BBFF8F4808
:100190000068401C8D4908608C4800688C49884282
:1001A00012D30220874908700EE0864800780228A2
:1001B0000AD1FFF78FFF002082490870804802783B
:1001C00084A1002000F05EFD04202040002803D020
:1001D000214687A000F038FD08202040002803D0E9
:1001E00021468AA000F030FD10202040002803D0D6
:1001F00021468CA000F028FD10BD72B600F0D8FE9C
:10020000012001F022FB032001F013FB01F025FB8C
:100210000021192000F01FFB0021172000F01BFB1C
:100220000021222000F017FB00210A2000F013FB20
:100230000121192000F08FF90121172000F08BF91E
:100240000121222000F087F901210A2000F083F922
:1002500000210E2000F0FFFA00210F2000F0FBFA31
:100260000021102000F0F7FA0021112000F0F3FA2D
:1002700000210E2000F007F900210F2000F003F903
:100280000021102000F0FFF80021112000F0FBF801
:100290000721142000F0DFFA0721152000F0DBFA17
:1002A00000F0CCFC64A000F0CFFC08211A2000F084
:1002B000D2FA08211B2000F0CEFA08211C2000F001
:1002C000CAFA08211D2000F0C6FAFFF703FF20221A
:1002D000394960A000F0F5FC202238495DA000F00B
:1002E000F0FC00F008FE002000F0C4FD002000F04B
:1002F000C4FD314A1021002000F0C6FD2F4A102114
:10030000012000F0C1FD032000F0BAFDFF20013004
:1003100000F0DBFD0121032000F0F6FD1020002895
:1003200005DBC206D20E012191404C4A116000BF8C
:100330004B4800F07FFD002000F0CDFD62B63AE0B2
:100340000A2000F035F91E480078464909788842AD
:100350001CD01B480078434908701A4800780028D0
:1003600006D11748027840A1002000F08BFC0DE078
:1003700014480078012809D012480078022805D1D5
:100380000F48027813A1002000F07CFC0E2000F042
:100390004EF900280CD1192000F00AF9094800781C
:1003A000002805D135480949086001200549087031
:1003B000642000F015FAC3E77C0000209C000020B8
:1003C000000000200C000020080000200400002095
:1003D000BA670310706C61792066696E6973682072
:1003E000646D615F636E743A25780D0A0000000049
:1003F00070776D206C6F6F70636F756E74206669B7
:100400006E6973683A25780D0A00000070776D20D8
:10041000706572696F642066696E6973683A2578E1
:100420000D0A000070776D207461736B2073746F18
:10043000703A25780D0A000053594438383231207B
:10044000464153542050574D205741562054455350
:10045000540D0A00627566660D0A000000E100E0B6
:100460001D0100100100002069646C6520646D614D
:100470005F636E743A25780D0A000000E6470010AD
:10048000D3490860704770B50246202414406309C0
:1004900020251446AC430125A54028469C00CD4D9F
:1004A0002C592075050A6575050CA575050EE575B1
:1004B000002B13D0002908D1C74D6D7D0543ECB248
:1004C000C54D6D7DC44E747515E0C34D6D7D85437E
:1004D0002C46C14D6D7DC04E74750CE0002905D1D0
:1004E000BD4C64680443BC4D6C6004E0BA4C646865
:1004F0008443B94D6C6070BD70B502462024144031
:10050000630920251446AC430125A5402846002B4D
:1005100013D0002908D0B04DED7D0543ECB2AE4DAF
:10052000ED7DAD4EF47515E0AB4DED7D85432C466C
:10053000A94DED7DA84EF4750CE0002905D0A64C20
:10054000E4680443A44DEC6004E0A34CE4688443F5
:10055000A14DEC6070BD30B50B462024044061090C
:1005600020250446AC430125A5402A468C00994D20
:100570002C592276150A6576150CA576150EE576AA
:10058000002B0AD08C00934D2C592271150A6571ED
:10059000150CA571150EE57109E08C008D4D2C59D7
:1005A0002272150A6572150CA572150EE57230BD22
:1005B00010B520230340590920240346A3430124F6
:1005C0009C4022468B00834CE3581A73140A5C73D8
:1005D000140C9C73140EDC7310BD10B52023034063
:1005E000590920240346A34301249C4022468B0042
:1005F000784CE3581A71140A5C71140C9C71140E37
:10060000DC7110BD10B52023034059092024034696
:10061000A34301249C4022468B006E4CE3581A727F
:10062000140A5C72140C9C72140EDC7210BD30B58E
:10063000014620200840420920240846A043012406
:10064000844023469000634C205840301024041905
:100650002578284665782D022843A5782D0428435F
:10066000E478240620431840002801D0012030BD42
:100670000020FCE7F0B503460C46154620221A4040
:10068000500920261A46B243012696403146002CD6
:100690000BD182004F4EB258403211720E0A567280
:1006A0000E0C96720E0ED6720AE08200494EB258B7
:1006B000403211710E0A56710E0C96710E0ED671E3
:1006C000002D0BD18200434EB258203211760E0A13
:1006D00056760E0C96760E0ED6760AE082003D4EC9
:1006E000B258203211750E0A56750E0C96750E0E04
:1006F000D6758200374EB258203211710E0A5671EB
:100700000E0C96710E0ED6710022002A05DBD7065C
:10071000FF0E0126BE40314F3E6000BFF0BD10B558
:1007200020230340590920240346A34301249C406D
:1007300022468B00274CE35820331A72140A5C724D
:10074000140C9C72140EDC7210BD70B500243CE0D9
:10075000A000204908584030142141180A7810465A
:100760004A78120210438A7812041043C9780906A5
:100770000843A100174A515820310A4613781946F8
:1007800053781B02194393781B041943D27812063D
:10079000114308400546002D00D114E00C480068C4
:1007A000002804D029462046094A12689047A00034
:1007B0000849085840300575290A4175290C81758A
:1007C000290EC17500BF601CC4B2022CC0DB70BD15
:1007D00018000020100000204010005000E100E050
:1007E000002109E0002201E0531C9AB27D239B0105
:1007F0009A42F9DB4B1C99B28142F3DB704700212E
:1008000007E0002201E0531C9AB2092AFBDB4B1CD3
:1008100099B28142F5DB704710B50146272901DA0C
:10082000002902DA0020C04310BDCC07E40F2029C4
:1008300004DA4A101B480068835C05E0084620384B
:10084000421018484068835C002C01D01811EBE777
:100850001807000FE8E770B5272801DA002800DA4A
:1008600070BD0907090FC407E40F202804DA4310FC
:100870000C4E3668F21805E00646203E7310094E0D
:100880007668F2181578002C01D00F2600E0F026CB
:100890003540002C01D00E07310E2E460E43167047
:1008A00000BFDDE71C000020002815DBC206D20EC9
:1008B00001219140944A116000BF00BF00BFBFF307
:1008C0004F8F00BF00BF00BF00BF00BF00BFBFF31E
:1008D0006F8F00BF00BF00BF704770B504460D4664
:1008E0000620FFF7E1FF8948006800780009000151
:1008F0002907090F0843854909680870834800687B
:10090000007880218843E1018022114008437F491B
:10091000096808707D4800680078402188437B4959
:100920000968087079480068807808218843083091
:1009300076490968887092007549764800F00AFA8D
:100940007548406A40210843734948620846006A76
:100950004021084370490862062000F0CBF870BDC2
:1009600070B56A48006804783020604005466748E2
:10097000006805701020204000280DD000BF63489B
:1009800000680179634800F01DFA60480068C0788B
:10099000C007C00F0028F2D070BD70B504460D46E8
:1009A0001920FFF781FF59484068007800090001CD
:1009B0002907090F0843554949680870534840689A
:1009C000007880218843E1018022114008434F498B
:1009D000496808704D4840680078402188434B4979
:1009E0004968087049484068807808218843083081
:1009F000464949688870920048494648103000F0DE
:100A0000A9F9192000F076F870BD70B53F4840682C
:100A100004783020604005463C484068057010204E
:100A2000204000280ED000BF38484068017939487E
:100A3000103000F0C7F935484068C078C007C00FD3
:100A40000028F1D070BDF0B50B460124240400212C
:100A500012E000BF85002D4E7559ED782D07ED0F82
:100A6000002DF7D1850075596D785E5C354686009E
:100A7000264FBE597570491C9142EADB00E0641EA6
:100A80008500224E7559ED786D07ED0F002D01D1CF
:100A9000002CF4D1F0BD70B504460D4621011D4A6D
:100AA0008818294600F09CF970BD70B504460D46C3
:100AB00000BF022C01DB002070BD2101154A8818FF
:100AC00000F0A3F900280AD1200112494018C56896
:100AD0002101104A881800F0A1F9C0B2ECE700200B
:100AE000EAE70146012901DD002070478800074A36
:100AF0001058FAE7002806DBC206D20E0121914009
:100B0000014A803A1160704780E100E02400002033
:100B1000DC000020BC00002000800220DC0200205D
:100B200010B502460620002815DBC406E40E01239A
:100B3000A3407F4C236000BF00BF00BFBFF34F8FB7
:100B400000BF00BF00BF00BF00BF00BFBFF36F8F7B
:100B500000BF00BF00BF00BF7648006800780009F2
:100B600000010B071B0F1843724B1B68187071486C
:100B70000068007880239843D301802423401843E1
:100B80006C4B1B6818706B480068007840239843D2
:100B90004030684B1B68187066480068C0781023A6
:100BA00098431030634B1B68D870624800688078A7
:100BB0000823984308305F4B1B6898705E48406A72
:100BC000402318435C4B58621846006A4023184380
:100BD000594B18620620002806DBC406E40E0123E8
:100BE000A340534C803C236000BF10BDF0B50B46C2
:100BF00001242404002112E000BF85004D4E7559E8
:100C0000ED782D07ED0F002DF7D1850075596D7822
:100C10005E5C35468600474FBE597570491C91424F
:100C2000EADB00E0641E8500424E7559ED786D07E1
:100C3000ED0F002D01D1002CF4D1F0BD10B508212D
:100C40000020FFF76DFF10BD0FB438B500240498E5
:100C5000002803D138BC08BC04B0184705A8009090
:100C60003648009A049903F023F9C4B2002000909A
:100C7000802C00DD8024224630490020FFF7B6FF9B
:100C800000BFE7E70FB438B50546002405980028F3
:100C900003D138BC08BC04B0184706A80090274808
:100CA000009A059903F004F9C4B200200090802C4A
:100CB00000DD8024224621492846FFF797FF00BF28
:100CC000E7E7F8B505460E4617460024002D02D08A
:100CD0002846FFF7B9FF00241BE02046E117490F23
:100CE0000918C910C900611A03D1A1B214A0FFF7F5
:100CF000ABFF315D14A0FFF7A7FF601CC117490FC0
:100D00000918C910C900411A02D111A0FFF79CFFB0
:100D1000641CBC42E1DB2046E117490F0918C910E9
:100D2000C900611A02D00AA0FFF78EFFF8BD0000CB
:100D300080E100E02C00002000800220DC04002084
:100D40005B253034785D20002530327820000000AB
:100D50000D0A00000023436003608260C160704799
:100D6000416801607047F8B504460F461546606853
:100D70004019A168884219DBA088281A86B26268E7
:100D8000E16888183246394602F0BCFCA81B85B2DF
:100D90002068A84202DC2088401E85B2B9192A4684
:100DA000E06802F0AFFC65607019F8BD6268E16848
:100DB00088182A46394602F0A5FC60684019606030
:100DC0002846F2E702465368581C5060D068C15468
:100DD00093685068984201DB002050600120704702
:100DE000024653681068984201D10020704713688A
:100DF000581C1060D068C05C0870936810689842F6
:100E000001DB002010600120F0E701464A68086815
:100E1000904201D1012070470020FCE701460022EA
:100E20004B680868984200DD8A68486880180B683B
:100E3000C01A704710B5044638480068002807D02B
:100E400036480068A04203D035A10020FFF71AFF02
:100E50003248046010BD10B53A4804692F48006854
:100E6000002803D020462D4909688847E0433549CA
:100E7000086110BD33494862704732498862704743
:100E80003049403188607047F8B504460E46154633
:100E90002F46B807800F002804D02BA10020FFF7B1
:100EA000F1FEF8BD002C00D00124264830300C2182
:100EB000614340184660234830300C21614347505D
:100EC00000BFEEE71F49C86170471E4908627047BE
:100ED0001C49C8627047002800D00120012219492E
:100EE000091D8300CA5000BF1649091D8200895898
:100EF0000029F9D1704701201249086000BF11484C
:100F000000680028FBD17047002902D00D4A5061CB
:100F100070470C4A906100BFFAE7000034000020DF
:100F200050574D315F4952512063616C6C6261636F
:100F30006B206973206F7665727772697474656E61
:100F40000D0A00000020025050574D20444D412012
:100F50006D656D6F7279206E6F7420616C69676E5C
:100F600065640D0A000000000448804704480047FB
:100F7000FEE7FEE7FEE7FEE7FEE7FEE78D0F001067
:100F8000C100001003480449086070470148024945
:100F90000860704740787D0138000020FE4920221B
:100FA00008781043EF221040042210430870704765
:100FB00010B5FA488047002802D001F086FF0120D2
:100FC00010BDF6480A300047F44928310847F34974
:100FD0003C310847F1496C310847F1490847F0496D
:100FE0005C310847EE496A310847ED4976310847D8
:100FF000EB4986310847EA4994310847E849A2316C
:101000000847E749AE31084730B4E64CA44630BC47
:101010006047E44874300047E3480047F8B5E34DC3
:10102000CF222968E24C087800261040087020681A
:10103000E04918308847286822680178127F09093A
:1010400012070901120F114301700907090FBF2789
:10105000012921687ED00A4622314B7809781B028B
:101060000B43114620310B711B0A4B710378117A27
:101070003B4089010B435906490E017022684178B3
:101080004032127A8909921D92068901920E11430B
:10109000417021680622801C093102F033FB21686F
:1010A0004820425C002A04D028684931083002F008
:1010B00029FB2168BF4A7020405C323A7131904769
:1010C0002868BD4A41788906890E891C904728689E
:1010D000017809090901091D017022683940127A55
:1010E000D207520E11430170226841782032127AE1
:1010F0008909921D92068901920E1143417021685F
:101100000622801C093102F0FDFA21682820425C89
:1011100028682931083002F0F5FA2868A74A417892
:101120008906890E891C9047256800206F7F012160
:1011300081400F4204D0E97F0B2251438E19761C67
:10114000401C0328F3D32C46203460782178000219
:10115000084300E019E013214843401CB04206D286
:10116000701E02F0A5FA401C2070000A60706078C2
:10117000217800020843022803D2022020700020B8
:101180006070287F012824D03AE00B4620318A790C
:10119000CA71197A0278C9073A40490E0A430270A7
:1011A00051062268490E6032127CD201114301704F
:1011B00041780622890989010C3141702168801C1F
:1011C000093102F09FFA286821680622083071313F
:1011D0006DE7E079002813D060782278010211438E
:1011E00013204143A079491CC00302F061FA401C5E
:1011F00006467F2102F05CFA401CC1B2E1711EE09C
:10120000607921790002084331D0607822780102A8
:1012100011431320414328462230427803781002BC
:101220001843C003491C02F043FA401C06467F21C4
:1012300002F03EFA401C81B22171080A607130460A
:1012400002F036FA401C7F2800D97F200121E97581
:10125000A97F00916178237809021943584CEA7FED
:10126000C0B23B46A047564834308047F8BD002006
:10127000544CE875034602460121A047F8BD4A498F
:101280001A3108474848F43000474F48004738B5FE
:10129000049C00944C4C0E34A04738BD30B44A4CEA
:1012A000E834A44630BC604710B501F0F9FE10BD2B
:1012B00010B501F011FF10BD4349A4310847434860
:1012C00000474248323000474049463108473F49CD
:1012D000B23108473D49C23108473C4AD032104735
:1012E00010B500F0E3FD10BD3849FC31084738491E
:1012F000084737490E31084735493631084710B598
:1013000001F0B4F810BD3349084729480068817CD2
:10131000427C0802104308D01F4A02201178014382
:101320000120014311702B4908477047F8B51A484E
:10133000C079000679D51E480668B17C707C0F0222
:1013400007431548057801D0A80701D468076CD574
:10135000114C207BE17A0002E41C084365D0002F89
:1013600063D060782178000208434DD1307CF17B56
:101370000002084302F012FC0022174B02F012FB9D
:1013800002F01AFC80B278430A2102F0A7F9400467
:10139000010C2170080A21E026160020DF5600000B
:1013A0001558000027590000CD5B00005C000020AC
:1013B00058000020451D00002B2600004727000094
:1013C000971B000031540000F55C00005B5E0000DC
:1013D000675F0000B56000000000F43F6070307D82
:1013E000F27C000210430A224243914203D3401E82
:1013F0002070000A6070607821780002084303D1F1
:101400000120207000206070FD210D400121F64870
:101410000D430570F5490020884760782278010265
:101420001143F44BF24A09209847F8BD10B50F213B
:10143000ED4802F080F910BD7CB50546401C02F075
:1014400092F9082831D0E84C00263E3C042831D0DF
:10145000802874D0E449C31F0A78FF3BFA3B18D0B8
:1014600001218903884263D1E2490A202431884757
:1014700060780621484301190A22681D891C02F080
:1014800041F96078401CC0B260700A2857D366707A
:1014900055E0C879002852D0D00650D4AB796C7989
:1014A0001802204301280AD049E001F015FED24875
:1014B000804744E066702670FFF7B8FF3FE0887809
:1014C000401E0006000E88702AD0C7484B788179EC
:1014D000427909021143827A447A12022243401C63
:1014E000012B23D0521A0272120A42721206037A98
:1014F000120C1A43531A69460B804A80BA490A7B78
:10150000C97A12020A4369468A80417B027B08023B
:1015100010436946C880B8496846E83188470EE0FC
:10152000087A8870402002430A7008E05218DAE70F
:10153000910604D58004000F01D0FFF7F7FEAF49F4
:101540002846C96888477CBD10B50446001D02F0D6
:101550000AF9AA49C860211DA94802F00EF9A94953
:101560002046884710BDA74922310847A549783150
:101570000847A44A803210479C4A7A3A10479B4851
:1015800072380047984900203E390A7849788A42E3
:1015900000D90A200818801A401EC0B2704700B552
:1015A000FFF7F0FF002804D18F4800213E3841703A
:1015B000017000BDF8B50E46074693491C46154616
:1015C00001208847002805D023462A463146384660
:1015D00001F042FDF8BDF8B50E4604468A491F46A3
:1015E000154601208847002814D0022C03D1FFF7AC
:1015F000C9FF002809D0EAB27C4D3B46314620465F
:101600006A3DA847012807D004E00A21794B7F4AA8
:10161000084698470020F8BD022C12D1724C0621D2
:101620003E3C20780A46484300193146801C02F0AF
:1016300069F82078401CC0B220700A2801D300202D
:1016400020700120F8BD70B50D46044611214019E7
:1016500089031646884201D3002070BD6C4800689B
:10166000213002F080F86B4B00193246294698472A
:1016700070BDF8B50646EFF3108472B6644D286865
:10168000213002F070F88019634A0121904784F3F9
:101690001088614F0024F63FEFF3108572B65C4866
:1016A0000068213002F05FF8311940185B490023CF
:1016B0000A192021B84785F310880120000320343F
:1016C0008442E9DBF8BDF7B5070501993F0D002914
:1016D00012D0029900290FD04849897800290BD1EE
:1016E00001997A18012109038A4205D8019A112328
:1016F00082181B039A4201D90020FEBD0025C41B9D
:10170000EFF3108672B642480068213002F02BF8E1
:101710006119401841493F4B4A192021984786F3E7
:1017200010880120000320358542E9DB3B48019AFF
:10173000C019029901F0E6FF3349012088470028CB
:101740000AD0EFF3108072B62C4901228C808A7087
:1017500080F310880120FEBD2046FFF78AFFF9E7DD
:101760002249A8310847214AB032104738B5049CB5
:1017700000941E4CB834A04738BD30B41B4CC43460
:10178000A44630BC60471949CC310847174AD432C7
:101790001047164ADC32104730B4144CE434A446E7
:1017A00030BC6047114BEC331847104BF4331847EB
:1017B00030B40E4CFC34A44630BC6047184908478E
:1017C0001748083000471649103108471449D231EC
:1017D00008471349DA31084712490847114832309F
:1017E000004710485630004726160020B56000001C
:1017F0000B130010D33300008D5E00003C0000206E
:1018000039140010B35F0000458500009F150010DB
:10181000540000208F1600009F180000E8050020EB
:10182000B961000017630000F94A1047F8495231C6
:101830000847F7495C310847F54964310847F449DE
:101840006C310847F2497631084710B501F0C9FB01
:1018500010BD10B501F060FB10BDED4890300047A1
:10186000EB49A431084730B4EA4CA44630BC604789
:10187000E748F6300047E8480047E7493031084775
:10188000E54856300047E44860300047E2481430ED
:101890000047E14822300047DF4872300047DE4B06
:1018A000D6331847DD4B184730B4DC4C6634A446B9
:1018B00030BC604730B4DA4CA44630BC6047F8B561
:1018C000D8488047D84CA078002809D0A088FFF7D6
:1018D000D0FEEFF3108072B60021A17080F3108863
:1018E000D24DE87900282CD0000608D5287840078A
:1018F00005D5FFF71BFD2878FB21084028702878C4
:10190000CB4FCC4E41060AD5BF210840287002209B
:101910006946088002466B4639460020B047287861
:10192000C1070ED0400840002870800701D5042070
:1019300000E005206946088002226B4639460020F7
:10194000B0476078C10704D0400840006070A068CC
:101950008047F8BDB8480047B7483A300047B64816
:1019600052300047B4486A300047B3486E300047F1
:10197000B2498A69120A120202434A61087C0122B2
:1019800010430874704710B572B6A24CA047AC481B
:10199000006801214A02104206D1AA48027ED207FD
:1019A00002D0027E0A43027662B6012010BD70B5F5
:1019B00004460320000384422AD9A348032605686D
:1019C000B603E878002802D0012810D01EE028468F
:1019D000253001F0C8FEA04202D88019A04217D2DB
:1019E000284629300EE08019A04211D20EE0284688
:1019F0002D3001F0B8FEA04202D88019A04207D2D3
:101A00002846313001F0AFFEA042ECD9012070BD74
:101A1000002070BD10B572B68C4A904762B610BDFA
:101A200070B514460D460646FFF7C1FF002806D0E4
:101A300072B62246864B29463046984762B670BD3C
:101A400010B572B6824BAE33984762B610BD10B572
:101A500072B67E4CF63CA04762B610BDF7B50025C5
:101A6000C80288B00E462C46070C11E008986101A8
:101A70000818774B6A4620219847002069460A5C7F
:101A8000401C5219C0B295B22028F8D3641CA4B2ED
:101A9000BC42EBD3F6060898F60E610108186C4BB1
:101AA0006A46314698470020694604E00A5C5219AC
:101AB000401C95B2C0B2B042F8D30A98854202D118
:101AC00001200BB0F0BD0020FBE7FFB50E46012161
:101AD000074609035E4B81B05E4A002098475D4986
:101AE000352208468C3801F00DFE5A48833801F043
:101AF0003AFE58495722441856482146573801F0B3
:101B000001FE2021601C01F016FE0025002F10D0E0
:101B10000020395C00290AD02218401CC0B2517044
:101B20002028F6D305E02118401C4D70C0B22028B3
:101B3000F9D320460521213001F0FDFD002E12D001
:101B40000020315C00290CD022182032401CC0B289
:101B500051700528F5D306E021182031401C4D7046
:101B6000C0B20528F8D321462631039801F005FEBE
:101B70002146223104980872000A48720121334A32
:101B80002570002090470121314B09030020314A84
:101B9000AE339847012005B0F0BD2F4A10472E4ABA
:101BA000223A1047FEB50278002A7DD01F49CA713B
:101BB00042780A72002A01D0042A01D904220A724A
:101BC000C278847813022343184A1C0A5372947211
:101BD0004479057924022C431546EC72260A2E73AB
:101BE000A646C4798579200228435073040A8446A6
:101BF0001A489473056808262C7CE87B2402044369
:101C00000120521CA342487031D91C1B30E0000057
:101C100091630000E9310000576600001B68000076
:101C200061690000D16400003C00002026160020FD
:101C30000002000031540000713C00000010005010
:101C400000E100E000A00050540000209F180000B8
:101C50008F160000E8050020A7290000580000208A
:101C60001071000A01E01671300A507107E0E41AA1
:101C70000F7ABC4226DA1071000A50710C72087A91
:101C800088700E70002B1BD0507911790002084328
:101C9000191A6846018043806146C180714681807F
:101CA000A87C697C000200E010E0084302D0724981
:101CB000002088477149684688477149092088474C
:101CC0000120FEBDFF00BC42CDDAC9E70020FEBD09
:101CD000FEB507466B4801780A077DD5F72211400B
:101CE0000170BA797C1C7B7912021A437BD0C279CD
:101CF000120678D5102211430170880673D4624809
:101D0000804705466079217900020843FF1C0028BE
:101D100032D001F043FF064600917878397800020E
:101D2000084301F03BFF594F00223B4601F03AFEC9
:101D30003246009B01F036FE009055480191006844
:101D4000017CC27B0802104301F028FF00223B46C1
:101D500001F028FE07460E46607A217A0002084309
:101D6000401B01F007FF3A46334601F01BFE019B82
:101D7000009A01F065FD24E0787839780002084384
:101D800001F0F0FE064642480068017CC27B080272
:101D9000104301F0E7FE314601F0F8FC01F02AFFA4
:101DA00000223A4B01F0FEFD07460E46607A217A8A
:101DB00000020843401B01F0DDFE3A46334601F0C5
:101DC000F1FD0022334B01F055FE01F0F5FE010458
:101DD000090C00D1012101E00EE004E0284B0920AC
:101DE0002D4A243B984703206946088102221102AC
:101DF0002A4C02AB0020A047FEBD38B5284C207805
:101E0000002804D127496846884701202070012016
:101E100038BD10B50B30102801D9FF2010BD184B6C
:101E2000C4B22046243B9847204610BD10B50B3065
:101E3000102801D9FF2010BDC4B21149204688479F
:101E4000204610BD072801D900207047012282409A
:101E5000134843781A4342708160012070470C4850
:101E60000068C07D70470A480F4900684118487CE7
:101E7000097C000208437047B5600000755F0000F0
:101E8000F733000026160020051B00000000F43F79
:101E900058000020000024409D0F00103154000025
:101EA0003C0000209D2C000063050000FE498A785C
:101EB000002A00D008707047F8B5FB4CE3685979E8
:101EC000002914D0B121C95CC91F092958D801467D
:101ED00018461022D93001F015FC60780221012843
:101EE000E06805D04279D20611D5F0488047F8BDA8
:101EF000CA22125C012AFAD1C279012A03D1EC4923
:101F0000E9308847F8BD002AFCD1C171F8BDC2791B
:101F1000012AF8D1CA21095C012903D00021C1712D
:101F2000E068ECE760690126017830468840A169E5
:101F300080250968884300D181250027DD48804736
:101F4000E168C919E0317F1CFFB24876102FF5D344
:101F5000E0682B460146E93102460091FF31F93233
:101F60001131D54DFF305A30A847606900781428E8
:101F700002D2E068C671D3E7E1680020C871CFE7FC
:101F8000CA4B0622002101208C3B9847F8BDF1B5D1
:101F9000C54CA4B0E068A278417911432BD0CA2186
:101FA0000B5C2146C24FC9681C370025E931012B63
:101FB00023D006460246713609320491711E531E23
:101FC0000196BB4E02930392CA33C23200917A3615
:101FD000FF300A302499B047E16810220846D93012
:101FE000E93101F0B3FB00287ED0B04B0422002180
:101FF00001208C3B984725B0F0BD0C950D950E95B2
:102000000F95119512951395149543790126DB06CA
:10201000002B01DB002A68D0F930B847A24CA07829
:10202000002822D01DA801950090E368A34F184610
:102030000146FF30FF31FA305A31F933249AB8475C
:102040001DA8013001F08FFB18A9097D000208438B
:102050009B4901F02DFB042201911104994F01AB22
:102060000020B847207800287ED0E16807220F467C
:1020700015A8093101F046FB39460722713117A82E
:1020800001F040FB387A002810A86ED086767020C8
:10209000C05D002818A869D0867004A83A4601904F
:1020A000F9321046844E15ADC03017AB0095463658
:1020B0002499B047E068102204A9813001F022FB86
:1020C00008AE0FCE19AE0FC6E16803220E4621A856
:1020D000D33101F017FB31460322CC3122A801F0A5
:1020E00011FB3046FF3001E06EE01FE0EA30039064
:1020F00017AF21A96846A2C03146704EF93111AB25
:1021000019A86A3E249AB047E26822A91046FF3017
:10211000DA300197009103900CAB029519A8F932BF
:102120002499B04768490020884764E75E4A8023C5
:10213000526914783246A2405B4CA4692468A243D9
:1021400000D1812300910146FF315A315A4CFF30B2
:10215000FA30249AA04754481022C0680146E93159
:10216000D93001F0F3FA02E023E029E02AE0002868
:1021700001D004221EE04C4CE068F930B847616998
:102180000878401CC0B208701428CED3A169086832
:10219000020C08A8827410A882710888020A08A894
:1021A000427410A84271097808A8017410A801713E
:1021B00034E70C223D4B002101208C3B98471AE765
:1021C000857664E7857068E7E0680026F930B847EF
:1021D000E368394F1946FF330A33363F1846F93161
:1021E000249AB847E06810230146A03106E017188A
:1021F0003246FF320A32761CBD54F6B24A7C9F1A30
:10220000B742F4DC304900208847E068417949084A
:1022100049004171EFE6F0B50446C07885B0072863
:1022200007D2224B0622002101208C3B984705B0A3
:10223000F0BD1D4E0121F068CB221154002506226D
:102240002146CC3001F05EFA1120F16840010818F7
:10225000A0314E7CC17E827F437F04920A07D20F59
:10226000009203934A07CF06D30FFF0F02968A0707
:1022700001970E4E920F817E407E643EB047A0785B
:1022800010260007002843DA074A1121D0684901C7
:102290004718FB7E19073BD50121CA2211545A0762
:1022A00015D4A278520711E04C0000205DA1000077
:1022B00055A900004D250000B3AA0000FFAB0000A7
:1022C00040420F0031540000F73300000ED57B7EF2
:1022D00022789D005B19FE4D5B19D55C882D02D0DC
:1022E000102D03D005E0FB4A917002E041793143A3
:1022F00041714179C90634D50B21C9014018C07D0F
:1023000001282ED16421F54BF34A0520984728E097
:10231000F04F0021F868CA221154112149014118D7
:10232000CA7E520702D4A278520709D5497E227884
:102330008B00C918E64B193BC918555C102D02D10A
:10234000417931434171E44AE44B943AE449002035
:1023500098476079C00704D0F86803228179114357
:102360008171607980070BD5DA481121C068490175
:102370004118897F890703D581790C221143817126
:10238000207980070BD5D3481121C0684901411835
:10239000497F890703D54179802211434171CD4896
:1023A000C1680846A0304674E278102A00D2427410
:1023B000487901221043CB4C4871202D08D0402D84
:1023C00000D034E700231A4640210020A0472EE722
:1023D00000231A462021F8E770B5BE4C0D46E3688D
:1023E00000281DD020690C2181711946FF3120225F
:1023F0005A31C01D01F086F9E1682069FF312022C1
:1024000027307A3101F07EF90621B74A4120904702
:102410000B21E068C9014118C97D00291DD01FE0CA
:102420001846FF302022FA3001F06CF92022AF4B21
:10243000E068A9180E46C01801F064F9E368AC4CD6
:102440001846FF309A30FF3332462946BA33A04748
:1024500029460120FFF7C0FF70BD4079C00602D4B5
:10246000A0780128F8D19C48804770BDF0B5994C00
:102470000646E06885B04179C9072AD0FF301021AF
:102480000A3001F058F9E068320AC11DF9314E7284
:102490008A72320CCA72320E0A73CA21095C012593
:1024A000012918D00346064601460933E9365A1E6B
:1024B000713101AF4EC7491E0091C933C332893112
:1024C0008C4EFF300A30B047E068C17902292FD026
:1024D0000BE00020ABE6A069002106606269802362
:1024E0001170E268D179022904D0E068C17900292D
:1024F0002AD02AE000682946814300D181236168FF
:10250000002040314E7D1718E037401CC0B27E7667
:102510001028F7D3E068774E0146E9310246009172
:10252000FF31F9321131E436FF305A30B047CBE792
:1025300070497A39E9308847E068CA21095C012985
:1025400002D00021C17100E0C57101206FE670B5B5
:102550001446604A1B25136922469D71D871000AF2
:1025600018721846093001F0CDF8E41C5E4AA0B29A
:102570000421904770BD70B51446564A1D25136955
:1025800022469D71D871000A18721846093001F070
:10259000B9F8E41C544AA0B20421904770BDF7B5C5
:1025A0004C4F5549F86800242546401801F0DBF8E7
:1025B0003A69112191718278437812021A43009B83
:1025C000411C9A4238D3019B9A4235D80379C2788C
:1025D0001B021343029A93422ED10278172A35D058
:1025E0003B690622DA714E780A78360216430622D3
:1025F0006243D3181E72360A5E724B790E791B0243
:1026000033433E69AD1D9619B3721B0AF3723E69DE
:10261000C379961933733E69037A92195373374B12
:10262000FA68EDB2D3185A7C1B7C1202641C1A4360
:10263000AB1DE4B29A4225D34A790B791102304A94
:10264000194391421ED001780818B4E7002C1BD121
:102650003B691422DA714C780E78220232431A72E6
:10266000120A5A724A790C79110221439972090AA5
:10267000D972C11D184610220C3001F043F81435F0
:10268000EDB201E0002C04D00421174AA81C9047A9
:10269000FEBD144B0A221020A43B00999847FEBDB2
:1026A000F7B50C4F1449F86800252C46401801F086
:1026B0005AF83A69092191718278437812021A43D3
:1026C000009B411C9A4249D3019B9A4246D819E08B
:1026D000D36703104C0000205DA10000D33300003D
:1026E000B80B000031540000ED7F0000190200001B
:1026F000EF2A0000CFA900005D0300006305000081
:10270000FFFF00000379C2781B021343029A934231
:1027100024D10278172A2BD03B690422DA714E7833
:102720000A7836021643AA00D3181E72360A5E7261
:102730003E69C3799619B3723E69241D9219037AD2
:102740006D1CD372E4B2EDB2FE4BFA68D3185A7C1A
:102750001B7C12021A43231D9A421ED34A790B791D
:102760001102F94A1943914217D001780818A3E7DA
:10277000002D14D13B691221D9718278457811025C
:1027800029431972090A5972C11D184610220A30CC
:1027900000F0B8FF1234E4B201E0002D04D00421AF
:1027A000EA4AA01C9047FEBD0A22E94B0820009986
:1027B0009847FEBDF7B5E74FE749F86800252C4676
:1027C000401800F0D0FF3A6909219171827843786E
:1027D00012021A43009B411C9A423CD3019B9A422D
:1027E00039D80379C2781B021343029A934232D13B
:1027F0000278182A39D03B690722DA714E780A78B4
:1028000036021643EA00521BD3181E72360A5E7255
:102810003E6943799619B372C37986791B023343B3
:102820003E69E41D9619F3721B0A33733E69037AFD
:10283000961973733E69437A92199373C14BFA6880
:10284000E4B2D3185A7C1B7C12026D1C1A43E31DA0
:10285000EDB29A4228D34A780B781102BA4A19434A
:10286000914221D001780818B0E7002D1ED13B69B4
:102870001521D97182784578110229431972090A04
:10288000597241799972C179827909021143D972D9
:10289000090A197301461846102208310D3000F05C
:1028A00031FF1534E4B201E0002D04D00421A74A21
:1028B000A01C9047FEBD0A22A54B0820009998470E
:1028C000FEBD30B4062912D0417C037C0A02417857
:1028D0001A430B020478C17880780902234301432C
:1028E0008B4207D9012219460820994B1FE04179F4
:1028F0000379EBE70520C002824202D0401C8242ED
:1029000002D130BC1846CBE69448824203D1184627
:102910008F4B18330BE09148401C824202D130BCEF
:10292000184647E7100A2928184602D08C4B30BCBD
:1029300018478B4BE43BFAE7F0B4002865D0854C90
:10294000487823690A780702834D174315262D1FFF
:102950005A1CD81C1B2F9E7046D94B780E781B0230
:102960003343302B1AD33023037000264670CE78C1
:102970008F7836023E431671360A5671037100266F
:102980004671C8798979000208431072000A5072B2
:10299000E06840190373190A417320E003701B0AB1
:1029A0004370CB788E781B02334313711B0A53712B
:1029B0004B790E791B02334303711B0A4371C879AB
:1029C0008B79000218431072000A50724878097817
:1029D00000020843E16849190873000A4873F0BC13
:1029E0000921604A032010471B2101700023437016
:1029F000F3231371002656710171467113725672DA
:102A0000E068401901733146C6E7F0BC704730B446
:102A1000002816D04F4814210069FB228170C27033
:102A200000230371504B43711C0A8471C271002250
:102A300002724372190A817209214A4A30BC03208A
:102A40001047002230BC012076E7F8B5054647491B
:102A5000082088473F4C0B20E168C0010818807EA1
:102A600001282DD10026374601E0042E04D2E0686B
:102A70008019A030877405E03D488047E1688919D6
:102A8000A0318874761CF6B2082EEED30026384F9B
:102A900001E0082E01D2002000E0B847E168891962
:102AA000A031761CF6B28876102EF2D30026B847F5
:102AB000E1688919E031761CF6B24876102EF6D31B
:102AC0000B20E168C0010918487E042802D00528BF
:102AD0001CD01DE0264F0026B847E1688919FF3158
:102AE0008131761CF6B24876202EF5D3E068214B72
:102AF0000146FF31A1310A7EFF305206520E0A769E
:102B00000A46273A47399A30984701E00820487624
:102B1000E16820690E46042787700822C01CC23174
:102B2000B63600F0EFFD2069042231460B3000F08C
:102B3000E9FD0D210B4A03209047082229460A315E
:102B4000E06819E063050000FFFF0000ED7F000072
:102B50008D5300004C000020650300000228000097
:102B60006B430000958C000048080000558500006C
:102B70004D250000C5290000BA3000F0C3FDE06813
:102B8000294604221231B23000F0BCFDA068C078A2
:102B9000032804D02A7AFE4E002A0AD00CE0E0680E
:102BA000FC4B817D427D080210432A4608322946AB
:102BB00017E0687A002816D0E06801466030C37DCF
:102BC0009A420AD16A7A007E824206D108222846B9
:102BD000793100F0BBFD002824D006220021EE4B05
:102BE00001209847F8BDE068CA21095C01290BD093
:102BF0000246BA32FF3011460A30B047E06802227E
:102C000041791143417112E04179024639434171E2
:102C1000BA3211468130B047E0686030C07B01288D
:102C200002D004E0E068EFE7DC4902208847DC4896
:102C30008047F8BDF8B501220021DA4B08469847D5
:102C4000D94C06202169D94A887001210320904778
:102C5000E068D44D417908228B0700270A3D002BFC
:102C600025DA114341710026A847E16889198031AE
:102C70004870A847E1688A1991218854A032761CCF
:102C8000F6B25770102EEFD30026A847E1688919D5
:102C90006031761CF6B24876082EF6D3A847E16874
:102CA0006031C875A847E1686031087614E0CA232E
:102CB0001B5C012B10D183795B070DD5114341714A
:102CC0000026A847E168912289195054A031761C4A
:102CD000F6B24F70102EF4D3B54903208847AF4D9C
:102CE0000820103DA847002803D0AC4908200A312D
:102CF00088470220A84701283CD10B27E168FF0143
:102D0000C819407D012835D12D2040010A1853797A
:102D1000002B04D0012B19D0022B25D02AE005224C
:102D20000020D2018B1809E00A26464376180325B5
:102D3000B61835760025401C7576C0B2DD7B85421D
:102D4000F2D8E1680120C919087513E061688B7831
:102D50009B06DB0FD3718A78DF231A408A70E16803
:102D600008188179017205E0914B91790720914A09
:102D7000243B9847884D0220623DA8470028E06820
:102D8000817D407D0FD0090201438B4A002090478E
:102D900081490220483988470420A847002801D0EB
:102DA00086488047F8BD09020143834B0122002079
:102DB000643B9847F8BD3DE710B50278411C002AF6
:102DC00011D0022A33D0032A0CD14A780B78110291
:102DD000194310295BD0082904D1021DC17810467F
:102DE000FFF76FFD10BD4A780B78110219430629D1
:102DF0000BD003290CD014290ED0152911D000298D
:102E0000F0D1001DFEF764FF10BDFFF713FF10BDEA
:102E1000001DFFF71AFE10BD011D0020FFF7F7FD92
:102E200010BD021D00210846FFF786FD10BD4A783F
:102E30000B7811021943012918D003291AD004294B
:102E40001CD00C291ED00D29F0D15748C1688A79B1
:102E50005207EBD44A79D209E8D1092292018918A4
:102E600009780129E2D1C069017010BD001DFFF78A
:102E7000D2F910BD001DFFF71FF810BD001DFFF7B0
:102E800086F810BD011D0020FFF7A6FA10BD031D36
:102E9000C078062813D0587C197C02020A4358785F
:102EA000197800020843D9789B78090219438842AF
:102EB00008D901220146424B1020984710BD58798D
:102EC0001979EAE7FFF76BFB10BD10B588B03D48F4
:102ED0000090401E01900024684604814481062130
:102EE00001824182672181812721C1818482C4823C
:102EF000354806903549684688472B480221026AC2
:102F000013680B431360426A13680B4313604470E9
:102F10008470047008B010BDFEB5002168460170D1
:102F200001710D4601212A4E7F20B047284C0A200E
:102F30006946223CA04768460078010909016846B5
:102F40000170022001430A20B04701A90A20A047CE
:102F500068460079400704D56D1CEDB2FA2DF4D116
:102F600008E0FA2D06D001A90A20A047684600799A
:102F70004007F8D5684601780A20B0470020401C79
:102F800080B2FA28FBD301A90A20A047684621E0B5
:102F9000ABAA0000996F0000CB940000558500009B
:102FA00001970000572500004C000020958C000080
:102FB000F7330000FB9800006D6E0000017A0000FE
:102FC0008D53000019800100B92D0010936000009E
:102FD000A72900000079000701D40120FEBD0020D0
:102FE000FEBD10B5F949FA4CC9680028887013D0A5
:102FF00001281FD002280ED100217F20A0470021E8
:103000000320A04720210420A04702217F20A047C1
:1030100003210020A04710BD00217F20A0470021F0
:103020000320A04720210420A04702217F20A047A1
:103030000021EEE700217F20A0471F210320A047A9
:1030400002217F20A04701210020A04700217F20EE
:10305000A0473F210420DDE710B5012802D0022857
:103060000ED01BE0487A0C7A00022043C00715D02E
:1030700048790979000208431946FFF768FA10BD3C
:10308000487A0C7A00022043800707D548790979ED
:10309000000208431946FFF76EFA10BD002010BD6C
:1030A00070B5CA4C6068817EFD2211408176E0686F
:1030B000C84D837F427F2030417800780902014368
:1030C0000120A847606881784906C90FE1708178BE
:1030D000BF221140817070BD10B5BC4C6068817E0C
:1030E000022211438176BB48343080476068817882
:1030F000BF221140E278D207520E1143817010BDF9
:10310000FFB51646B14A044650680D46C37881B0F3
:1031100000211B0702D5002005B0F0BD00BF491CEF
:1031200089B26429FAD34030417C8907FCD4A7488E
:10313000C1682D2040010818C07A012804D1FF2160
:103140000531204600F0F7FAA0070127002807D133
:103150009E482D21C26849015118897A012911D050
:103160009A48002140680246C03213796354491CD2
:1031700089B20229F9D3217889066178298034D56A
:10318000377034E041680846E030427B037B12022E
:103190001A43837B1B041A43920C9204A3039B0BD8
:1031A0001A430273130A4373120C82734822525C4F
:1031B000C37B5206520EDB09DB011343C373027A51
:1031C000520852000272027A02231A430272E0315C
:1031D000087A8007FCD4207880066078288001D5A2
:1031E000377010E0002030700DE0002131700021B8
:1031F000A41C03E013796354491C89B22B888B42C9
:10320000F8D8C03047722888801C28806F484068F2
:103210004030417C890702D50498077004E0407C67
:10322000C1070498C90F0170012075E7F0B587B098
:1032300069480026059068460682067206730024D7
:103240006649012088470028654803AB02AA04A903
:1032500010D0FFF755FF002810D15C484068C078B7
:10326000C0063CD55A4B02AA04A95D48803B98474A
:10327000012403E05B4DA847002830D0534DA868D7
:10328000C278032A03D1A86A00780128D3D06846FF
:10329000007A012801D1002C09D0514C217808076F
:1032A000000F844605281CD0080744D07AE04E4C15
:1032B0000820A047002807D00220A047002803D1FB
:1032C0006846007B002807D06846008A474A801E6F
:1032D000C1B243489047AEE745493D20884707B013
:1032E000F0BD4448E96808184279017910020843A2
:1032F000400705D5A31C222204213F4F0846B847AA
:103300003C48E968801E0918487A097A0002084397
:10331000400790D42F487A388047207870224006A2
:10332000C10FE86811540622A11C713000F0EAF9BF
:10333000A01C32492BE0E868C37D022B0FD000238C
:103340006030477B8646012F0BD00020034329D0F5
:10335000032A08D07046007A01281AD064E00123BD
:10336000EEE70120F2E7059800906846008A244DB8
:103370000838C3B24806C10FA21C6046A8471348CC
:10338000C0686030007A0128A5D11E49A01C88477A
:1033900051E7012F03D01B49A01C884744E0A01C23
:1033A0001949FAE76046032895D0042893D1E868C4
:1033B000C37D022B2AD000236030407B012800D03F
:1033C0000020034387D0032A22D02DE04C000020A8
:1033D000A7290000D91B00004016002045850000E9
:1033E00038160020B1270000699400003F9C0000BF
:1033F0006F90000083020000EF540000CB1D00001E
:10340000CB6F0000155C0000995D00000123D3E73D
:10341000059800906846008A984D801FC3B2480600
:10342000C10FA21C6046A847059800900196684607
:10343000008A0838C3B2207841060007C90F000F80
:10344000A21C8F4CA047F6E670B5FFB08D4985B041
:103450000420884700280BD08A4904201A31884765
:10346000894880478949162088477FB005B070BDDC
:1034700087488047002500280FD0864CE0684179B6
:103480000A075ED58279D3071DD0834981308847EA
:10349000E0688179490849003AE0684605807C4D3A
:1034A000794E863592367D4C09E0694601A8A847D9
:1034B0000028DAD068460088C1B201A8B047A0470A
:1034C0000028F2D0D1E7930709D5734A0146793134
:1034D0001C3277309047E068FD22817908E053077D
:1034E00008D56D49603191308847E068FB228179C9
:1034F00011400DE01207F725002A0BDA027A014687
:103500001046654A093142329047E0688179294086
:103510008171AAE729404171034677333A2210218D
:103520005F4D0020A8470921E0688901411809780A
:1035300001299AD14079C00997D1E1690120087029
:1035400093E7A16A097800298FD1E16A09780129F6
:103550008BD1817D427D08021043524A0121904760
:10356000E06A057081E770B54A4E7068447844702F
:103570004B4DE00706D0FFF767FF002301211A46F5
:103580000846A847A00706D5FFF750FE00230221F2
:103590001A460120A847600706D543488047002304
:1035A00004211A460120A847200707D53E48BC3011
:1035B0008047002308211A460120A847E00610D5BD
:1035C00070682030407D3149400701D53E2000E041
:1035D00008208847002310211A460120A847002010
:1035E000B070A0060CD500F027F8002320211A4661
:1035F0000120A8470023FF211A4601311846A84799
:10360000600611D51F4901208847002807D0F068BF
:103610006030807B012802D1716807204875002343
:1036200040211A460120A847E00904D00023802148
:103630001A460120A84770BD10B5124901208847DD
:10364000002815D01348C16860314A7B012A05D192
:10365000426860321378082423431370897B012960
:1036600006D14068017C402211430174002141755C
:103670000E48804705486238804710BDCB6F000078
:103680007D5C0000458500000F2600006F90000063
:10369000ED3400004C0000207BA60000371B00002A
:1036A000315400004F6E0000C18D0000498F0000B2
:1036B00030B50B46014600202022012409E00D46CA
:1036C000D5409D4205D31D469540491B2546954052
:1036D00040191546521E002DF1DC30BD70B5002496
:1036E0002546002801DA01244042002901DA01259B
:1036F0004942FFF7DDFFAC4200D04042002C00D031
:10370000494270BD03460B439B0703D009E008C93B
:10371000121F08C0042AFAD203E00B780370401C81
:10372000491C521EF9D27047D2B201E00270401C0F
:10373000491EFBD270470022F6E710B513460A4631
:1037400004461946FFF7F0FF204610BD30B5044689
:103750000020034600E05B1C934203D2E05CCD5C9A
:10376000401BF8D030BD0321001D401E037812021B
:103770001A43491EF9D510467047034603220870C4
:10378000000A491C521EFAD518467047F8B5024681
:103790004A40D40F42004B0052085B089A4202D2C2
:1037A0000246084611464A0023D0C30D4A00DDB246
:1037B000120EAD1A202D35DA49020126490AF60506
:1037C0008A19002C00D0524220214F1B1146B940CB
:1037D0002A411018C20D9A4221D0002C17D0012D79
:1037E00008DCDA05801AD20F8019D207DBB200F0AC
:1037F00081FAF8BDDA05801A012340001B06C018C3
:1038000080185A428018CA0F1043490007E049083F
:10381000C2071143DA05801A80194008801800F0A9
:1038200061FAF8BD61000122511A001BF7E701227D
:10383000D2075140AAE70122D2075040A6E7000074
:10384000F0B507460846584087B0C00F04904800BE
:103850000E46590040084908BC1A884105D238462E
:1038600031461E4617460B46024658004008104394
:103870004CD0300D039040055900400D490D059086
:10388000401A0290402872DA18030121000B090542
:103890000843019004980092002805D001995242F3
:1038A0000020884100920190029840210A1A019953
:1038B000009800F0E3F905460C466B4607CB00F094
:1038C000FEF9C0197141039A0E0D0023D717564017
:1038D0001A467A40164344D0049A002A2DD0029A00
:1038E000012A039A15DC1205C01A914101263605FA
:1038F000001C7141D20F059ED207009301920296DF
:103900002A46234600F03CFA07B0F0BD384631465F
:10391000FAE71605224A0F46B218C01AB74101212C
:103920000905001C4F4100187F41114618187941C4
:10393000E20F10436D19644113E0E2076D0815436F
:103940006408C2071443039A01261205C01A914164
:103950003605001C7141CE07400830434908C018A5
:1039600051412A46234600F0FEF9CDE7FFE70498CF
:1039700001224000C117121A00238B4104983146DE
:10398000C417381AA141EEE730B40124E4076340BC
:1039900030BC55E730B40124E407614030BC4FE748
:1039A0000000E0FFF0B51FB488B00B99099800241F
:1039B00048400999C00F490049080991C0070B996F
:1039C0000090490049080B9109990898A6460843B8
:1039D0001CD00B990A98084318D00998012440007C
:1039E000420D4800410D099824050003000B2043B7
:1039F00009900B980003000B20430B9050181C49B2
:103A00004018002201901446104605E000200146AF
:103A10000DB0F0BD032801DA034600E003239C4605
:103A2000C11A0AAE0AE05F0008ADED5B4F00F75B1C
:103A30007D430027AA187C41491C5B1E6145F2DDCD
:103A4000410004AB5A522104120C0A43240C401CBE
:103A50000828DFDB019802900099704601910090E0
:103A6000059B049A0799069800F08AF9D0E70000B0
:103A70000DFCFFFFF0B50C465C4085B0E40FE40799
:103A800003944C00002664085900944649080246F5
:103A90000296224321D062460A431ED06200570D8F
:103AA0004A000E032303550D012402462C49240528
:103AB000781B1B0B360B40182343264361460090AE
:103AC0001C46501AB44103D30098401C009002E0F9
:103AD000921800985B41002803DA0020014605B0E7
:103AE000F0BD0020012109050746864611E0644625
:103AF0001D46141BB54106D36546521BB34174469F
:103B000007430C43A646CD074008490828439218AE
:103B10005B4105460D43EAD11046184313D0604679
:103B2000194650407140084306D06046101AB34110
:103B300006D20122002306E000220123DB0702E077
:103B40000122D2435310009874460105381C61418C
:103B5000029C039D0019694100F005F9BFE70000D0
:103B6000FD03000010B500229623114600F0C2F8B4
:103B700010BD00000EB5C217C10F5040CA07401853
:103B80000021054B0293019200910A460B4600F07A
:103B9000F7F803B000BD0000330400000EB505497E
:103BA0000291002100910A460B46019100F0E8F8CD
:103BB00003B000BD330400004A0009030123090BD0
:103BC0001B051943094B10B5520D9A4201DA00202A
:103BD00010BD064B34339A4203DC9A1A00F05EF8AB
:103BE00010BD03495118884010BD0000FF030000BC
:103BF000CDFBFFFFC20FD207400040080BD0C10D24
:103C00000723DB01C91840020905400A1143C20815
:103C1000400711437047002001467047F0B51FB4BC
:103C20000646002082B005464024019100901BE02A
:103C3000019922460F46304600F030F8049A059B61
:103C4000801A994110D310461946224600F016F802
:103C5000361A8F410197224601200021009F00F073
:103C60000DF838184D4100902046641E0028DFDC16
:103C7000019B00982946324607B0F0BD10B5202AB6
:103C800004DB0146203A9140002010BD91402023E2
:103C90009C1A0346E3401943904010BD10B5202AFA
:103CA00004DB0846203AD040002110BD0B46D3402B
:103CB000D0402024A21A91400843194610BD10B5E7
:103CC000202A06DBCB170846203A1041C1170B43C8
:103CD00006E00B461341D0402024A21A914008432D
:103CE000194610BD002904DA401C490001D14008E2
:103CF0004000704770B40024050C05D11024000466
:103D000002D1002921D01124050E01D1000208346E
:103D1000050F01D10001241D850F01D18000A41CD5
:103D2000002801DB4000641C002908D020252E1B40
:103D30000D46F540A14000D001212943084301066A
:103D40001B1B000ADB1D02D5002070BC7047DB0581
:103D5000181880180029F8DA401C4900F5D170BC09
:103D600040084000704710B5002B08DA0024401CC2
:103D7000614192185B411A4301D14008400010BDD7
:103D8000F0B51FB482B005460C0003D0084600F021
:103D9000A1F802E000F09EF8203002460090214693
:103DA0002846FFF76BFF049B059A04460F4618430D
:103DB0001143084314D0184610431BD000984021EB
:103DC0000A1A18460599FFF769FF05460E46009A3C
:103DD00005990498FFF752FF084305D0012004E03D
:103DE0002046394607B0F0BD0020C11705430E43F9
:103DF0002C43374300990E986305401A7905E40A6D
:103E000000220C43FD0A0A3002D500200146E9E7F2
:103E10000105101969410C9C0D9D00196941FFF7BE
:103E2000A2FFDFE74A0009030123090B1B05194321
:103E30000A4B10B5520D9A4202DA0020014610BD1D
:103E4000064B34339A4203DC9A1AFFF727FF10BD62
:103E5000034BD218FFF712FF10BD0000FF03000054
:103E6000CDFBFFFF10B5002904DB0124E40740422D
:103E70008C412146002B04DB1C460123DB07524208
:103E8000A341994200D1904210BD0000064C01258B
:103E9000064E05E0E36807CC2B430C3C98471034F2
:103EA000B442F7D3FCF710F9EC6703100C68031069
:103EB00037B514460846064B6A46214600F0DCF842
:103EC00004466946002000F073FC20463EBD000019
:103ED000B14700102021020C01D010211046020A27
:103EE00001D010460839020901D01046091F820886
:103EF00001D01046891E420801D0881E7047081A5A
:103F0000704702E008C8121F08C1002AFAD17047A2
:103F10007047002001E001C1121F002AFBD1704749
:103F2000F0B51FB484B007980699020D014314D070
:103F30004A484B491018484305140F9801280E9819
:103F40001CD0281A401C0024464E47490094019179
:103F50000290002814DA474227E00F98012443A377
:103F6000012808D0002104980F9A84600360C26081
:103F7000416009B0F0BD0E98C143F4E74042E2E76A
:103F8000074612E0F80707D0224633460199009809
:103F9000FFF708FD0191009022463346104619466E
:103FA000FFF700FD04460E467F10002FEAD102986D
:103FB000019B0028009A0799069802DAFFF7F2FCA5
:103FC00001E0FFF757FD04460E460022284BFFF79D
:103FD00049FF03D80020C043014607E00022254BDB
:103FE00020463146FFF72CFCFFF71CFF102409E0A8
:103FF000002C0ADB0A220023FFF710FE059B30325B
:104000001A55641E02460A43F2D11122641C059B14
:10401000121B1C190F9B012B03D0012308430ED147
:104020000AE0084304D011200E9000200F9084E78E
:104030000E98151A6D1E0BE00E98824202DD0023C9
:104040006D1C03E0824201DA00236D1E002BEED0CE
:1040500004980F998260C16030C08AE701FCFFFFBD
:10406000104D0000000024400000F03F3000000030
:104070000000F0430000E03FFFB597B00646002582
:1040800018E2252877D100242746FD49049400E052
:104090000443761C32780120203A90400842F7D140
:1040A00030782A280ED0022230780146303909298A
:1040B00016D804990A235943303940181443761C02
:1040C0000490F1E7189802C804911890002904DAC6
:1040D0000120400304434842049002200443761C1C
:1040E00030782E2814D1042004437078761C2A28B6
:1040F00009D11898761C80C8189009E00A214F430E
:10410000303FC719761C3078014630390929F5D976
:1041100030786C2810D006DC4C281AD068280ED0D5
:104120006A2817D104E0742813D07A2812D110E03D
:104130000120400504430CE00121090501E00321B1
:1041400009050C437178814203D101200005241830
:10415000761C761C3078119066280BD013DC58281A
:104160007DD009DC00287BD04528F6D04628F4D045
:1041700047281AD1A5E118E0632835D0642870D00B
:10418000652812D19DE170286CD008DC6728F1D039
:1041900069287BD06E280DD06F2806D1BAE073282D
:1041A0002ED0752871D0782859D01A9A199990472D
:1041B0006D1C7EE16002400F022809D003280DD05B
:1041C0000428189801680DD00D60001D189070E14A
:1041D0001898EA1701680D604A60F6E718980168B8
:1041E0000D80F2E70D70F0E718986A4601781172B9
:1041F000001D18900020507202A80090012005E0D8
:10420000189802C8189000200091C04361070DD58E
:10421000002101E00199491C0191B94212DA814261
:10422000F8DB009A515C0029F4D10BE0002101E099
:104230000199491C01918142FADB019A0099895C3C
:104240000029F5D1019904981A9B471A214638464E
:10425000199A00F097FA0199401945180BE04FE0C0
:104260002CE113E04EE0009800990078491C009181
:104270001A9A199990470198401E0190401CF2D15A
:10428000214638461A9B199A10E137E00A2000218E
:10429000009001916002410F022907D0189A01CACB
:1042A0001892C2179446032908D00AE01898C01D36
:1042B000C108C90005C91891944607E000B2C217A9
:1042C0009446042902D140B2C1178C4600226146AF
:1042D000944506DA0A460021404291418C462D2140
:1042E00002E0210504D52B216A461173012103E068
:1042F000E10701D02021F7E7029155E00A200AE00A
:10430000102008E0102000900021042004430191B7
:10431000082703E008200021019100906002410F6E
:10432000022907D0189A01CA18920022944603293C
:1043300008D008E01898C01DC108C90005C9189127
:10434000944603E080B2042900D1C0B2002102915A
:10435000210729D51199702906D0009A1021019BB7
:104360004A401A4305D00EE040216A4611730121EC
:1043700008E06146014306D030216A461173119965
:10438000517302210291009A0821019B4A401A436D
:104390000AD16146014301D1610705D530216A4642
:1043A000117301217F1E02911199582904D035A162
:1043B0000E910DA90D910DE037A1F9E76146019B22
:1043C000009AFFF72BFC0E9B8C469B5C0D9A521EAD
:1043D0000D92137061460143F0D10D9805A9081A9A
:1043E00020300190600703D501200004844300E0E1
:1043F00001270198874201DD381A00E00020019969
:1044000000904118029809180498401A0490E0039B
:1044100006D421461A9B199A049800F0B3F945195D
:10442000002706E003A81A9AC05D199990476D1CF1
:104430007F1C02988742F5DBE0030CD521461A9BCE
:10444000199A049800F09EF9451904E01A9A302050
:10445000199990476D1C0099481E00900029F5DCC1
:1044600008E00D980D990078491C0D911A9A199938
:1044700090476D1C0199481E01900029F1DC63E111
:10448000092801003031323334353637383961622A
:1044900063646566000000003031323334353637EE
:1044A00038394142434445460000000000F05AF9C3
:1044B0004519761C3078002800D0E2E528461BB06C
:1044C000F0BD600700D406271898C01DC108C900B8
:1044D00048680A680831C30FDB071891190001D03A
:1044E0009CA108E0210501D59BA104E0E10701D0D2
:1044F0009AA100E09AA1430011985B0810916528E9
:104500000CD006DC452809D046281DD0472841D1CB
:1045100041E0662818D067283CD13CE00021112FEB
:1045200001DB112000E0781C0191009008A911A87E
:10453000FFF7F6FC139905910021119A15927F1C43
:1045400012980197009150E00120C00703900120CC
:10455000019008A9009711A8FFF7E2FC139A14999B
:1045600005920022119B009212981593059A0192D0
:10457000002901D0104602E0791C40180190381A39
:1045800001D5019804E04042401E0090781C019043
:10459000C01B029043E0012F00DA01270021112FF8
:1045A00001DD112000E038460191009008A911A812
:1045B000FFF7B6FC13990591119A002112981592F4
:1045C0000091019721070CD40599B94201DB0199AB
:1045D00000E00191012904DD159A491E515C302942
:1045E00006D0B84201DA011D05DA0121029115E079
:1045F0000199491EEDE7002805DC0099411800915A
:104600000199091A03E0019A411C914200DD0191D0
:104610000099401A401C02900120C0070390200717
:1046200006D402990198814202DB0020C043029027
:1046300000206946C87707AF012103980337C907EF
:10464000884224D0022011902B2012900398002839
:104650000CDA404203902D20129007E00A210398C3
:10466000FFF726F830317F1E039039701199481EEC
:1046700011900029F2DC03980028EFD1791E1298DE
:1046800008703078202108404530BF1E387006A8D9
:10469000C01BC01D039010980078002800D0012096
:1046A000019941180298C01709180398091804982D
:1046B000401A401E0490E00306D421461A9B199A22
:1046C000049800F05FF8451910980078002803D08E
:1046D0001A9A199990476D1CE00324D521461A9B1C
:1046E000199A049800F04EF845191CE0009800282B
:1046F00007DB00990598884203DD1598405C1999FD
:1047000001E0199930201A9A904700986D1C401CBE
:1047100000900298401E0290002804D11A9A2E2080
:10472000199990476D1C0199481E01900029DDDC04
:1047300005E038781A9A7F1C199990476D1C0399E7
:10474000481E03900029F4DC21461A9B199A04980C
:10475000ACE600002D0000002B000000200000004F
:1047600000000000F8B5044600251E4617468804E0
:1047700004D405E039462020B0476D1C641EF9D5ED
:104780002846F8BDFFB50446002581B01E46C80383
:1047900001D5302700E02027880404D505E03846FD
:1047A0000399B0476D1C641EF9D5284605B0F0BDCD
:1047B0000A68531C0B60107070475249464645A664
:1047C0000E0057415645666D742010000000010030
:1047D0000100401F0000401F00000100080064614C
:1047E000746121A60E00808080808080808080801F
:1047F00080808080808080808080808080808080B9
:1048000080808080808080808080808080808080A8
:104810008080808080808080808080808080808098
:104820008080808080808080808080808080808088
:104A1000808080808080808080808080807F808097
:104A200080807F7F7F7F7F7F7F7F80807F7F7F8091
:104A3000807F7F807F7F80807F7F7F8080807F807E
:104A400080807F80807F7F808080807F80807F806B
:104A500080808080808080807F8080807F80807F59
:104A6000808080807F80808080807F7F807F7F7F4C
:104A700080808080807F7F80807F80807F7F80803B
:104A800080807F7F7F808080807F8080808080802A
:104A90007F807F80807F7F7F7F7F7F7F7F7F7F8022
:104AA00080807F7F8080807F8080807F807F7F800C
:104AB00080808080807F7F7F80807F8089939697B1
:104AC00098999999A1ABACA9A6A3A29F9A97939004
:104AD0008E89827C726C6863615F5F5B4A3A3438AE
:104AE00046442A1511100C162925120F1C21252FBA
:104AF000363B424A535C67758999A2AEBBC3CFDC93
:104B0000E7EFF0EEF1F3F2F1F1F1F1F1F0EDE9E9B7
:104B1000E8E2DFDCD6D1CCC6C3BDB2AAA195918EA6
:104B2000847B756C635C55504C453E3B3C382F286C
:104B30002422211E1C1A17141413100E0E0D0E0F12
:104B40000F100E0C0D10131516171A1B1C202629FA
:104B50002D353C434A5258616B727A848B919AA3EB
:104B6000A8B0B9C0C6CCD1D6DCE0E3E5E8EBEFF203
:104B7000F1F1F1F2F3F3F3F3F2F1F0F1F1F2F1EF1D
:104B8000EDEAE8E6E4E3E2DFDBD8D1CBC7C2BDB7AC
:104B9000B1AAA49D97918A827B746E67625C56501D
:104BA0004A45413D393533302D2A282624222121FA
:104BB000201F20201F2021212324252628292C2FB7
:104BC000313234383B3D3F4144484C51545658599A
:104BD0005B5F64676A6C6E7376797C7F8184878A99
:104BE0008E909396999C9EA0A3A6A9ACAEB0B2B2AB
:104BF000B4B6B8B9B9B9B9B9B9B8B8B6B5B5B3B04A
:104C0000AFAEACAAA8A6A4A19E9D9B989794918DA7
:104C10008B8A888583817F7E7C7A787775737170C3
:104C20006F6F6F6E6D6C6D6D6D6D6E6D6C6E6F6FA9
:104C3000717171737374767778797A7A7B7C7D7D04
:104C40007D7E7E7F80818181818283848484848350
:104C5000838383838483838383828182828182822C
:104C600082818282828182828281818180807F7E34
:104C70007E7E7E7D7B7A7A7A797978777777777896
:104C800078777778787878797A7B7B7B7C7D7E8083
:104C9000818384858587888989898A8B8B8B8C8C95
:104CA0008C8C8C8B8B8B8A89898988878685848478
:104CB0008382807F7F7F7E7E7D7C7C7C7B7B7B7C18
:104CC0007C7C7C7C7C7C7C7D7D7D7D7D7E7D7E7E18
:104CD0007D7D7E7E7E7E7D7D7C7B7B7B7A79787818
:104CE0007776767674747473737373727373737385
:104CF000747474757576777878797A7B7B7C7D7E31
:104D00007E7F7F80808080818180818080807F80A5
:104D1000807F7F7F7E7E7F7F7F7F7F7F80808080A0
:104D20008180808182828383838485868787878848
:104D3000898A8A8B8B8C8D8D8D8E8E8D8D8E8E8EAD
:104D40008E8E8E8E8D8D8D8D8C8B8B8A8A898988A7
:104D5000868585848383828181807F7F7E7D7D7C43
:104D60007C7B7B7B7A7A7A7A7A79797A7A7A7A7AA0
:104D70007A7A7979797979797978787878777878A9
:104D8000787878787878787879797979797A7A7A98
:104D90007A7B7B7C7B7C7C7C7C7D7D7D7E7E7E7F4C
:104DA0007F7F7F7E7F7F807F7F7F7F7F7F80808010
:104DB00080808181818080808181818181818281E7
:104DC00081818282828282828282828283828282C4
:104DD0008283838383838383848484848585868696
:104DE0008686868687868686868686868685858565
:104DF0008584848483838282818181807F7E7E7D9D
:104E00007D7D7C7C7B7B7A7A7979797979797979FE
:104E10007979797878797979797878797979797906
:104E20007979797979797979797A7A7A7A7A7B7BE9
:104E30007C7C7C7C7D7D7E7E7E7E7E7F7F80808193
:104E40008182828383838485858686868687878719
:104E500088888888888889898989898989898888CA
:104E600088888787868686868685848483838282EF
:104E70008282828180807F7F7F7F7E7E7D7D7D7D3F
:104E80007C7C7C7B7B7B7A7A7A7A79797979797880
:104E9000787878787978787879787878787979798D
:104EA00079797979797A7A7A7A7B7B7B7B7B7B7C5F
:104EB0007C7C7D7D7D7D7E7E7F7F7F80808080810C
:104EC00081828283838383848484848585858585A8
:104ED0008585858585858585858585858585858582
:104EE0008585848483838382828281818180807F9F
:104EF0007F7F7F7F7E7E7E7E7E7D7D7D7D7D7D7DD5
:104F00007D7D7D7D7D7D7D7D7D7E7E7F7F7F7F80C4
:104F100080808080808080808080807F7F7F7F7F96
:104F20007F7F7F7F7F7F7F7F7F7F7F7F7F7F7F7F91
:104F30007F7F7F7F7F7F7F80808080808080808078
:104F400080807F7F7F7F7F7F7F7E7E7E7E7E7E7E76
:104F50007E7E7E7E7E7E7E7E7E7E7E7E7E7F7F7F6E
:104F60007F7F7F8080808181818181828282828235
:104F70008282828282828282828282828282828211
:104F8000818181818080807F7F7F7F7F7E7E7E7E2A
:104F90007E7E7E7D7D7E7E7E7E7E7E7E7E7E7E7E33
:104FA0007E7E7E7E7E7E7F7F7F7F7F808080808012
:104FB00080808181818181818181818181818282E1
:104FC00082828282828282828282828282828281C2
:104FD000818181818180808080807F7F7F7E7E7ED5
:104FE0007E7D7D7D7C7C7C7B7B7B7B7B7A7A7A7A09
:104FF0007A7A7A7A7B7B7B7C7C7C7C7C7D7D7D7EF7
:105000007E7E7E7F7F7F80808080808181818282A2
:10501000828282828282828282828383838383836A
:105020008383838383838383838383838383838350
:10503000838282828282828181818181808080805C
:105040007F7F7F7F7F7E7E7E7E7E7E7E7E7E7E7D7C
:105050007D7D7D7D7D7D7D7D7D7D7D7D7D7D7D7D80
:105060007D7D7D7D7D7D7D7D7D7D7D7D7D7D7D7D70
:105070007D7D7D7E7E7E7E7E7F7F7F7F7F7F808049
:10508000808080808080808080808081818181811B
:105090008181818181818181818181818181818100
:1050A00081818181828282828282828282828282E4
:1050B00082818181818181818181808080808080E5
:1050C00080808080807F7F807F7F807F7F808080E6
:1050D00080808080808080808080808080808080D0
:1050E00080807F7F7F7F7F7F7F7F7F7F7F7F7F7ECF
:1050F0007E7E7E7E7E7E7E7E7E7E7E7E7E7E7D7DD2
:105100007D7E7E7E7E7E7E7E7E7E7E7E7E7E7E7EC0
:105110007F7F7F7F7F7F7F7F7F8080808080808098
:10512000808080808080808080808080808080807F
:105130008080808080818181818181818181818164
:105140008182828282828282828282828181818144
:1051500081808080807F7F7F7F7E7E7E7E7D7D7D63
:105160007D7D7D7D7D7D7C7C7C7C7C7C7D7D7D7D75
:105170007D7D7D7D7E7E7E7E7E7F7F7F7F7F7F7F4C
:105180007F7F808080808080808080808080808120
:1051900081818181818181818181818181818181FF
:1051A00081818182828282828282828282818181E5
:1051B00081818181818181818080808080807F7FE9
:1051C0007F7F7F7F7F7F7E7E7E7E7E7E7E7E7E7EF9
:1051D0007E7E7E7F7F7F7F7F7F7F7F7F7F7F7F7FE2
:1051E0007F7F7F7F80808080808080807F7F7F7FC7
:1051F0007F7F7F7F7F7F7F7F7F7F7F8080808080BA
:105200008080808080808080808080818181818199
:1052100081818181818180808080808080807F7F8A
:105220007F7F7F7F7F7F7E7E7E7E7E7E7E7E7E7E98
:105230007E7E7E7E7E7E7F7F7F7F7F7F7F7F7F7F84
:105240007F7F7F7F7F7F7F7F7F7F7F7F7F7F7F7F6E
:105250007E7E7E7E7E7E7E7E7E7E7E7E7E7E7E7E6E
:105260007E7E7E7E7F7F7F7F7F7F7F7F808080804E
:10527000808181818181818181818181818181811F
:10528000818180808080808080808080808080801C
:10529000808080808080808080808080808080800E
:1052A0008181818180808080808080808080807FFB
:1052B0007F7F7F7F7F7F7F7F7F7F7F7F7F7E7E7E01
:1052C0007E7E7E7E7E7E7E7E7E7E7E7E7F7F7F7FFA
:1052D0007F7F7F7F7F7F7F7F7F7F808080808080D8
:1052E00080808080808080808080808080808080BE
:1052F00080808080808080808080808080808080AE
:105300008080808080808080808181818181818196
:10531000818180808080808080807F7F7F7F7F7F91
:105320007F7F7F7F7F7F7F7F7F7F7F7F7F7F7F7F8D
:105330007F7F7F7F7F7F7F7F7F8080808080808076
:1053400080808080807F7F7F7F7F7F7F7F7F7F7F68
:105350007F7F7F7F7F7E7E7E7E7E7F7F7F7F7F7F62
:105360007F7F7F7F7F7F7F7F7F7F7F808080808048
:1053700080808080808080808080808080807F7F2F
:105380007F7F7F7F7F7F7F807F7F7F7F8080808028
:105390007F7F80808080808080808080808181810C
:1053A00081818181818181818181818080808080F2
:1053B00080808080808080808081808080808080EC
:1053C000807F7F7F7F7F7F7F7F7F7D7B7978777412
:1053D00072706D717D888F94969AA4ABA8A29E96E8
:1053E0008E8B867E7A7A786F655F5451554F464230
:1053F00042464D5359606976899BA7ADAEB4BCC196
:10540000C1C0BEBABBBFBBB8B7AA98918B7A6B5F5D
:105410004E44434039383E3F414B505156595F6DE1
:105420006F71869399ADBFBCBCC4C0BBC1BCAC9D01
:1054300099958B8C7C6673725B5B635B504F4F46B8
:105440004E5F595864686D767B8A988E8FA8ABA69C
:10545000B3B7A9A5AB9F939593897F766C65696770
:105460005D5B626A6E68636E74737777757E878A38
:10547000918F8A969CA0A09593929196928C898008
:1054800077798587797371666B746A636B6E6B74F9
:1054900079706F7D878984838585858A8D838393E1
:1054A0008F8E988D8A958883867874756965696A08
:1054B00069707C7D7B7C7B808689898281888686F9
:1054C0008F8D85878B898383807A828376777B78BB
:1054D0007D807C7D7D7D7D7A787B7C7978808581FF
:1054E00083888B908F8F928D8A857D7E7E79797867
:1054F00074747A7D7C7A7A7B797578807F7D7F82FF
:1055000086888180888884868480828787827F805D
:105510008081837F76757C7E78757977777A7878E5
:105520007D8280818A89858C877B7D807E7D80835A
:105530007F80837C7F80787B7E78797D7C7D85878A
:105540008383817C7E827F7E7E79777B7E80858867
:10555000888786878B8B8581828382807C797B7D1F
:105560007E7D7C7C7A7D7D797B7E7C7E7E7A7B8174
:10557000838484807F84837F8285828285848583FF
:105580007F8485807D7A78797B7E7A7A7F7E7F8240
:1055900082807F7F7D7E807D7A7D7E7F82817F801D
:1055A00083848282838283837D7B80807B7B7D7EFC
:1055B0007F7F7D7D7F7F7E7E81817F8183848586E5
:1055C0008583807D7D7D7B80837E7F837F7D8180E1
:1055D0007E7D7C7D7D7C7D7E7F8181818080817FE1
:1055E000818483828180807F7F80818180807F7DB4
:1055F0007E7F7F7E7D7E7B787C7F7F80817F8185C3
:10560000837E81838080817F81828080807F817F93
:105610007B7C807E7B7F807D7D807F7E81827F7FA3
:10562000828080818181828181807F82828381806A
:1056300082817F7E7D7D7C7A7B7B7C7C7B7E7F7E96
:105640007E7F80808081807F7F8080818282838254
:1056500081818383828181828482807F7D7C7C7D45
:105660007D7D7C7B7A7B7E7C7C7E8080808081815E
:10567000838483838384858383828282807F808105
:10568000807F807F7E7F7E7D7D7B7B7C7C7C7D7E42
:105690007D7E7D7D7F807F81828281818282838306
:1056A000818283818080807F7F7F7F7F7E7D7C7D04
:1056B0007D7D7C7C7F7F7C7D7F7F80808080808102
:1056C0008181828081818182828080818180807FCE
:1056D0007E7F807F80807E7F807F7F807F7F8080D5
:1056E000817F7F817F7E80818081808080828282B5
:1056F00082807F7F7F7E7E7F7F7E7F7F7F807F7FB8
:10570000817F7D7D7E7E7E7E7F7E7F8080808080AB
:105710007F7E80807F7F7F807E7F80807F81807F93
:1057200080817F7E7D7E7E7E7E7E7E7F808080808B
:1057300080807F8080807F7F7F8081818282828263
:105740008180807F7F7F7E7F7F7E7F81818181815D
:1057500080807F7E7E7F808180808081818180804B
:105760008080807E7E7F7F7F80808080807F7F8042
:105770007F7E7F7F7D7D7E7D7D7D7C7E7E7E7E7E4D
:105780007E7E7F7F7E7E7F80808182828283838215
:10579000828180807F7F8081808080807F80807F09
:1057A0007E808180807F8081818182818081807FF5
:1057B000807F7E7E807F7F7F7F7F7E7E7F7E7D7EFF
:1057C0007F7F7F7F7F7F7F8080808080807F7E7FE4
:1057D0008080818080808181818181817F7E7E7EC9
:1057E0007E7E7F7E7D7D7D7E7E7E7E7E7F7F7E7ED9
:1057F0007E7E7F8081828383838483828282818193
:10580000807F807F7F7F7F7F7E7E7E7E7E7D7D7DB1
:105810007D7D7E7E7F8081807F7F807F8081808094
:105820008080808081818181818180808081807F72
:105830007F7F7E7E7E7E7F7F7F7F8080807F7E7D7C
:105840007E7F7F8080818281818180818181818250
:1058500082807469645E544D453F5C95BACACECC73
:10586000D8E4E0DFDFD1BCA68B746A61503E3024FF
:105870001E1C1C20201E21272F39434E6185B9E1B3
:10588000EDF0EFEEEFEDE7E3E3DBCBBCAB9E907921
:105890005E463327211D1A1B202223272B323B4231
:1058A0004B545B64728192A2B2C3D7E5EBEDEDE994
:1058B000E0D4C1AF9E867771635249423E3D3B3B87
:1058C000404646464949505B5E647A7D7B9EB3A95B
:1058D000ADB6B2B7CBCBBBBDC0C0C4BDAD9A897DA0
:1058E0006E5A4B4648453D3E434649505764768183
:1058F0008797A4A4A5A5A0A09F9DA0A7A9A09490C8
:10590000908D7E7371707074797A776C625E5B5F74
:105910006463605D61696D747B818592A7A9A1A6AE
:10592000A9A0A6AF9F8F979884828D7F6E686360D1
:1059300061615956646963676F757C807F7D8E9C59
:10594000908B9292969B978F8B949B968F8A817A5D
:105950008080726961647279757179827E7C7C71F4
:1059600076887F7078868A888C9087899D9C8780CE
:10597000878888897F72737776746D6565646971CD
:105980006B6B7A807B819194909499969293908B93
:10599000847A7D84827F7F7E808282817F8181790B
:1059A0007A7D756D6B68737F736E7979798386857F
:1059B0008A908F8E94968E86818183868176747B81
:1059C0007A777C7C726F7B838184867E7573706F3F
:1059D0007275787F7F7F8A9295928E93958F8B8553
:1059E0008486807C79747575727372707373727942
:1059F0007B7A7C7C7F8484828587888A8884838480
:105A000088847F858A868383848588857E80807864
:105A10007A797375736D737A787777767A7F828700
:105A20008C8B8A8F908B848484807E7A7576767551
:105A30007A8185848486878481818282817F7F7B4D
:105A4000767171777A77797E80858A8A8684878372
:105A50008389857F7E79757576777678797D84847C
:105A600082848687888B89817D7B7A7B7B7D7C7A2B
:105A70007F838588888380848885817D78777A7B19
:105A80007B7D7F7F7D7B7D8082838283838181821A
:105A900084807877797C7F7E7C83857E7F8380801D
:105AA0008585838686837F7E807B767A7E7C7B7A03
:105AB000797C8084868586868483807F82817B79D9
:105AC00079797B7C7A767A808180828383868682EC
:105AD0008386827E81807A7B8083807F81828386B9
:105AE0008381828385837E7C7C7A787573777B7AE9
:105AF00078797D7F7E81848588888786868787847C
:105B00008384817D7B7D7F7E7D7D7E7F7F7F7F7EA9
:105B10007F7C797C7F7C7A7A7B7D7B7B7E808185B4
:105B20008684828283828485848283817F7F7E7B58
:105B30007B80827F7D7B7A7F8281818382807E7E73
:105B40007E7D7D80818283818080817F7F81808056
:105B50008384807C7E7F7D7E7F7E7E807D7A7B7C61
:105B60007B7C7F808081807E7F82818284827F8136
:105B7000817F7E7E808283838180807F7D7E807F27
:105B80007F807F7B7B7C7A7A7D7F7F7F7E7F828236
:105B900081818181818486838384837F8084817EE7
:105BA000808181807C7C80807E7D7A787A7C7A7925
:105BB0007D7E7F81817F80838686868586858282C1
:105BC000828283827F7D7B7A7B7D7B79797A7A7A08
:105BD0007B7E80818283828182818181817F7F80BF
:105BE0007F7F81828281818283838384827E7F81A1
:105BF0007E7E7F7E7D7C79777A7C7C7B7C7E7F7EDF
:105C00008081818181838483828080818184868474
:105C1000838485828083817E7F7D797878787979A5
:105C20007B7C7C7F80808282808387848182838367
:105C300084848281817F7E80808082817E7D7C7A67
:105C40007A7A7B7C7D7F7E7D7D7D7D7F8182838571
:105C500087868583817F7F7F807F7F807F7E7F7F38
:105C60007D7D7E7F80808080807E7E7F7E7D7D7B4F
:105C70007A7B7C7C7E80818282838485858688880D
:105C80008886858482807F7E7D7B79777677787839
:105C90007B7B7B7C7D7F7F7E7E7F80818283838315
:105CA00083828383828281818283838384838282CD
:105CB000817E7E7F7D7E7E7E7E7D7C7B79797A7C17
:105CC0007C7D7E7D7D7E7E7D7F80818284868786D1
:105CD0008586878888878685838082765B4E3D2F80
:105CE00042503E58BEF6E5E0D4C6C8BF995E322A9F
:105CF0002A2C3C52584F535E514348536FA5D3D77B
:105D0000D8E9ECE5E8E9E1D3B4875B4C57431F16CB
:105D1000171A2B617A4D3339383C41495C677085DD
:105D20009DAFBDCFE2E3D4B8AABBC9CCD0BCA6B569
:105D3000C2B8A892805B2C1C150E13181C2E434C65
:105D4000526781877F6E5D5F647098C6E1EBE8E221
:105D5000DCC8A69C9E8C837E685246434C56544FAA
:105D60004D494444494B4B53617B94897987AEDC60
:105D7000ECE0C6A197A3A6A29D9A9CAFBEB1987372
:105D800050505548474F4B4D5A6462585F73747179
:105D90007B7D7570788799B1C5CED1C8BCB6B0A8E7
:105DA000957357525E5F555E758B96866B67777DF0
:105DB00071696B676162646B737A8597A8A195942A
:105DC0008D8D918D908E83849092858893897A733E
:105DD0006F6659545D6E82969E948A85807F7C841E
:105DE0008D7F797A6B676A7287919BA3928E968872
:105DF00070656A6D737F71646D6767777D8489955F
:105E0000A7927F8D85829EA1938A78717B7F756A28
:105E10006A636587998F88796F8293929289746A91
:105E2000696A73777B8590907E6C6D727C90968E9C
:105E300087837E879A98887C716969747E79737785
:105E4000797C7D797B88918D89908C85918B706A26
:105E5000665F70807E8388868C909189838C8B7F2F
:105E60007B726B6C6C7278797977787D848F8C79A2
:105E7000788483848F8D858A94938888887B787DC5
:105E8000726A768385817A74757E828179716F6793
:105E90005F6B7977787E889CA0A0A89D9794827D7F
:105EA0007F797C7F79746D6C7986887C6C6D7B766C
:105EB0006B737D7F88948E85847F7880867E7A7DE3
:105EC000808383878C9098978F8B837A73696261C4
:105ED00067737B79746F727B7E797E868584837F1E
:105EE000818C959C9D9796958B8079716A6A717A61
:105EF000808288867B7A7D77716D69656D74777F26
:105F00008990949A9B908685807A7B7C7B7E807C2E
:105F10007C7F83888B8885827E7E7C716B6F7680A8
:105F2000888A8C8C807472787A777674767F7C79A4
:105F3000828E93969C9A8F8579757979797B7D7C11
:105F40007A7A7C7D7C7D7E7B7E817E7F84878C8E51
:105F50008C89847E756E6C6D7179858A8481848765
:105F6000898D8F8E8A847C757274787A7D7E818625
:105F7000827D7F7F79787875797E7D7F8688898F2D
:105F8000938F837975777A77767B7E868E8C8784FC
:105F90007D787B7D7B7573797D7D7C7F8A8E8F9309
:105FA0008E837E77747676777776797D7F8487881F
:105FB0008A8D8D877D75757A7E7E7B8087867E7BD8
:105FC0007B7878787A7E7D7E82858A8B8A8B8985BC
:105FD000857F77726F6F767E848584827F7E7E7FF9
:105FE0007D7E838483807C7D81838484807E7F81A9
:105FF0007F7A7A7C7B8085848284838384827F7DA0
:1060000079736F72787E84848385888C8B827A78AA
:1060100078777B807E81898B8C8B88878583807B5A
:1060200077757674767C7D7C7D7D81837D7A7B7BC4
:10603000808381817F7E848B8F8F8983807D7B7934
:10604000787A7B7A7D81838281817F7E8080808166
:10605000807C7A7B7D7D7D7F7E7A7B7F8181818163
:10606000868C8A8281848483807F7F7C7C7C797C1F
:106070008284838383817F7E7C787576797D7E7B45
:1060800078797C8186888885868C8C85807F7E81E6
:10609000868886858685827D7B7A78787672727529
:1060A000777877797E807F7E7C7C808384878A8AFC
:1060B0008A8D8C888A8E8C8887847F7B7A767374AD
:1060C0007779797A79787B7E7D7C7C7C7E7F7C7920
:1060D000797D818587888685868786838284858782
:1060E000898885817E7D7F80807D7B7774727275E3
:1060F0007776787B7C7A7A7C80878B89898B898993
:106100008B88858380828482807D7977787B7F828B
:10611000807E7B787A7A797C7D7B7D8182828282A7
:1061200085868583817D7B7B7D7F81848483848458
:10613000828284858482807E7C7B79787B7D7E8070
:106140007D7877797A7A7A7A7C7D81858786888A64
:10615000888A8B898987827E7B797775767A7E803B
:1061600081807F7E7D7B79787776797E8386848255
:1061700082838687848589898788878583817C7ADD
:106180007C7E7D7E7C7978777575757374777A7B84
:106190007C7F83868788898B8C8E8D8A868687878D
:1061A00085817F7F7F7E7C7A7A787674706D6F7060
:1061B00072757575797D81878A8B9092908E8C8BA4
:1061C000898683807F7F7D7D7D7D7E7E7F81807ED1
:1061D0007D7976767674737476787A7F8181848817
:1061E00087858787888B8C8C8C8A888686847E7945
:1061F0007674737171727375797D8183827F7D7F0F
:1062000081818281807F818384868889898A8A8A44
:106210008784828181807C7A7978777575787978BE
:106220007777787675787B7E838788898B8986896E
:106230008C8C8A8785868583817F7F8182807B782D
:1062400077757474767979767677787A7B7B7F84C4
:1062500087868484858688898887878686888885D6
:1062600085848382807E7B79777574727272706F99
:106270007074797D7F83868789898A8B8B8B8985EA
:106280008485838284858483817E7B797876757426
:1062900074787B7C7D7E7E808282828483807E7E19
:1062A0008082838588898682807F80807D7A7570F0
:1062B0007073777B7F8385848384848686858485D9
:1062C000848383838280818384817E7E7F7F7F80BD
:1062D0007F7C7A7A7877787877797B7C7E81828206
:1062E0008383838584838483818182828283817E88
:1062F0007F7F7D7C7E7E7E7F7F7E7F7F7E7F8080B6
:10630000807F7D7C7C7D7D7E7D7D7C7B7C7D7F81B7
:1063100082828386878684807F80818181807F7F5F
:106320007E8083817F7F7E7D7C7C7C7B7B7B797A9A
:106330007D7E7D7F807F8183838281828484848649
:10634000878585848281807D7A797A78797C7C7B67
:106350007C7D7F7F7E7B7D7F7E7E7E7C7D80828359
:1063600083838282838383848586878683828281F6
:106370007F7C7978787977787B7C7C7E808080815F
:10638000817F7F8183838281818081817F7E7F7F06
:106390007D7F8180808484838281808082817E7CF5
:1063A0007D7C7D7F807F7F7D7B7A7B7B7C7E7F8118
:1063B00083848483838586858584817F7F7E7E7DBB
:1063C0007C7D7F8081807E7C7A7A7A7A7B7D7E7FFD
:1063D000808183838281817F7F7F808080828484AB
:1063E00084848382817F7E7E7E807F7D7D7D7C7DB7
:1063F0007E7F7F7E7D7B7B7B7C7D7E8083868888A5
:106400008686858383838280807F7D7B7B7B7B7C8C
:106410007D7F807E7C7D80807D7D7E7E7F80808094
:10642000807E7E7F7F80807F838786858483828253
:10643000817E7C7D7E7F8181807F7E7C7A7A7A7A84
:10644000797B7F7F7E7E7E7F818485848282848447
:10645000828181808081828181808080807E7C7C3D
:106460007C7C7D7F807E7C7C7D7D7F807F7E7E7F4F
:10647000807F808283848584848485848381807FF7
:106480007E80807F807F7D7C7A7877787B7C7D7E44
:106490007F808283818182828181828485848282DD
:1064A00081807F7D7977787A7C7F7F7D7E81838410
:1064B00084858687878582807E7D7D7E7D7C7D7ECE
:1064C0007F7F807F7F808181807F7F7D7C7D7F7FDC
:1064D0007F808080808080808182848483817F7FB0
:1064E00081807E7D7C7C7C7C7F807E7E80818180C3
:1064F0007E7C7D7F81818081828283828180818197
:106500008282807F80807F8080807F807F7F807F8D
:106510007E7F7E7D7E7D7D7F80807F7D7C7C7C7CA0
:106520007C7C7B7B7D80828384838284868583825E
:1065300081818182807F7F80828483828081828248
:10654000817E7D7C7C7C7B7A7A7A7B7C7D7C7D7E87
:106550007E7E7E7F7E7E7F80818283858586878723
:10656000868585848383817F7E7D7B7A7977757646
:1065700076777979797B7D8082828282848686852E
:106580008584858684848482817F7D7A7A7B7C7C05
:106590007C7C7D7E7F80807F7E7F807F7D7E7E7E17
:1065A0007E7F80807F7F7F7F7F7F808281808283EC
:1065B00083838382828281807F7D7C7C7C7D7C7CE6
:1065C0007E8081818182828181807F7F7F80807EC9
:1065D0007C7B7D7E7E80807F7E7E7E7F81838482C9
:1065E0007F7F807E7E7D7C8175524444424337505C
:1065F00093B4D7F5DED3E3E4DFD8C89D5B362B1B1D
:10660000151D201E1D1F2A3C44413F446A978B8F55
:10661000D1F2EBEBE9E3DBD6CCC3BF9E818A763EB9
:1066200029302B1D15161C20272C2F3A444749537F
:1066300069707CB2CEC9E0ECDFE0E8E9E2DBD7D1FB
:10664000BFACA88E51302F2317161B1F2025292CD5
:106650003B525A58607086ABC3B3B8D9D9D2D7D49D
:10666000C9B5B5CAAF83817C696A7060493B373B65
:106670003B332E2D374853585A566389A09DA7BEE9
:10668000CBD1D6D2CDD5D3CBCDBC9D917D5A4A4668
:10669000434545464642424849484D596B797A7DC3
:1066A00080787790B2BCBDC5C4BFC5CEC9B8AAAA10
:1066B000A892745E4F52636051504E4956675D51C7
:1066C0005B646D7F8D877E8EA8AFAB9A7F8AA9A30E
:1066D00095A2AFA8A2A59D8C837A6E6969645D5A64
:1066E000626759576061656B6B6F83908480939D7F
:1066F0009C9FA091889AABA196979DA59E83716E51
:106700006C73735F5860645F504D595C575D686F80
:106710007E8C8B8C9FADACAB9F93A0A69E91838EFD
:106720009D9C9C8F6B5C69737070726F73777068DF
:106730006B665F71796B696C717F9299898AA1A789
:10674000A29B8C8C9291989E95867C7A77736A64D2
:1067500066656E797476776D747B7A7C7B7D7D7EE1
:1067600085867D7C8B917D6864605C5A5675BBEB39
:10677000F4ECE1E2E6DCC1A598846B737045282750
:106780002B241C242D2926282F3B44454D5C6FA12A
:10679000DDF1EFEFEFECE4E0DFD2C2C2C3B5A69FBC
:1067A0008E683B1F16141211151D20242D3233350F
:1067B0003C454C57697786A5C4D4DCE7EDEDECE4A5
:1067C000DBD7BFA4A193786A57453C3230333437C6
:1067D00039383A3E434F565971888B91938D8E9438
:1067E000A0ACB3BCC5CACED1C5BCC1B69D8F8577A0
:1067F0006A645849413F4143464C565F656C738219
:106800008B87898F93A3B7C7C7BAB0A69D9A949276
:106810009287848170615B58504547555954555D46
:106820006D817D6E75838692A49A93B0C5C1B9A31C
:106830008C81807E78767D89877C80846F5D6367BC
:106840006B6E5C555F605E65737F828793A1A497D2
:106850009DA69DA5A2929C9F8F82797D868078704F
:10686000696C635D675E5C6D74706A768D90858916
:106870009F9F8E94957D778B9A99979698A2987CF6
:1068800074766F6C6B71786F6A6E65585258686772
:1068900061656D7C888D8C8DA1AEA1989E9E9A9924
:1068A00090878984828A857E7F797B7B6B6A6A6226
:1068B000666B65606468727F7C7E8C897F899A9E36
:1068C0009C9B968A8284939C94857E8185857B712E
:1068D00072757074888978777777786B6361637481
:1068E00074676F808B909598919DB0A5A1ABA09295
:1068F0008B7E727477747278796E625D606A6B6693
:106900006B71727D83818D90868B9089888D8D8A45
:106910008E8B889191878A8B807E807E7D766A6A55
:10692000777A71757975777A77797B7675757982EB
:10693000868E999C9287878B8E8B7E75757C8282E2
:106940008788807D8087887F7F7A6C67686C7077A6
:1069500080838894948E908F8885807E83827D77D3
:10696000767674716B6C6D646571787E888E8D94AB
:1069700099918F8B7E7F8785817D7976777C7E77F5
:10698000757F8D8A7F838584857B7A868B89807BE2
:106990007E7D80847F79797B7D827F7979787B7F2A
:1069A0008183858583827C797D7E818480848984CE
:1069B00081817D7D7B7A808180817F848D8B8688BB
:1069C000857C7E7F7A787D7F7C756E70777B79722F
:1069D0006C6E7A858988868A8C8B8D8E908B868A60
:1069E000877A7677787B79757677797F84858482E4
:1069F0008789807B7F837F7A7A797A7C7A797B80BA
:106A00007E7D8385868C8A81828584848384858546
:106A100083807E7C7A7B7E7E7C7C7D7E7D7C7B79A8
:106A20007B7C7C807F7F82807F7F7B787B7D7D7F8E
:106A30007F80858582807F8287847F80838787852A
:106A400084827B75757A7C777677797E807E7D7C93
:106A50007A7B7F858D918E8F8F89888D8C858384BD
:106A6000837E7774757775747372747B807F7A7B9D
:106A7000808282828386868989817F8181807B7CF6
:106A800080808184848282858482817D7A78757514
:106A90007C7F7B7A7A7977777C7E807F7D81858821
:106AA0008684888A8B8C888282817B7B7F79767CC6
:106AB0007D77737374777D7E7A7D817F7F83848118
:106AC00083898A8A8B8784878884848483807A7A7E
:106AD0007C7A7B7C797A7B78787E807D7E7F7F81F3
:106AE00083828283827F8387848284848385888A69
:106AF000888482837E7C7971707472717271727411
:106B00007575787D7E838685868B8E8D8A8A8C8A44
:106B10008786858484827E7D7E7E7D7A7A7B7B7C7F
:106B20007D7D7B797A7A797877777575787C8185C0
:106B300086888D8E8C8E8E8B8C8C8C8F928F88819C
:106B40007C7A7B797470707071706D6F727274770B
:106B5000787B7B7C81868B8C8C92938E8D8E8B89BF
:106B60008683807C7B7B7977787A7D7D7B7A7B7B63
:106B7000797A7C7B797A7D7E7E7F7E7C7E7E7C7B53
:106B80007C7D808689898A8D8F918F8C8D8C878181
:106B90007B7A7B797878777878767574727577797F
:106BA0007E818183878786888B8A87888783828096
:106BB0007E7D7F81838282807C7A797777797C7C05
:106BC0007B7C7E7C7C807E7B7E7F7B7B7F7F7B7CF7
:106BD00082858485868687898787888582827F7C6F
:106BE00079777B7C7977777C7E7F808183848483CF
:106BF000828382828282807D7D7E7E7F7F7D7B7CA0
:106C00007C7B7D8181818383807F8181828281837E
:106C100084828384817C7B7A7979787A7C7D7E8298
:106C2000828282837F7B7A7A7A7D7F807F8084866E
:106C30008280807E7B7C7E7F8183817E81827F805B
:106C4000827F7D7A7B81827E7D80808182817F824E
:106C5000858483827E7C7C7C7B7979797A7D808057
:106C6000818283817F7F807E7C7E81838485848412
:106C7000868684817F80838283838282817E7B7902
:106C80007877767574767A7C7C7C7D7E80807D7D5D
:106C90007E7F8282818689878889868586868688A6
:106CA0008883817F7A797A78767471717374747459
:106CB00075787C7F808286898A8C9091919292915E
:106CC0008D89878582807D7A77757372716F6E701A
:106CD000737274787A7E82838384868786878785B9
:106CE00085868584868788878686848282817F7D63
:106CF0007C7A7877767678787574777A7D80807EFE
:106D00007F82828384858484878684838484858645
:106D10008686868786827F7B7775777775737374AF
:106D2000787B7A7A7E81828587888988878786843E
:106D3000858481807F7F7F7F7D7B7B7B7E7F7E8064
:106D4000818080807F7E7F8080818281818181803F
:106D5000807F7F7F7E7D7D7D7D7B7A7978797A7A71
:106D60007B7F807F818384858585878584848381FB
:106D70008283807E7F7E7D7F7F7F7E7D7C78777A39
:106D80007D7E7F81828588878686858282817E7EE0
:106D90007F7F80807F7E7E7E7D7B7A7A7B7C7A7B24
:106DA00080828688858585827F7F7F7D7A7B7B7ADE
:106DB00078787B7C7B7C7F808082858788878583D1
:106DC00082817F7E7C7D7E7F7E7E7F7E7B7B7B7AE9
:106DD0007C7F7F7F8080828584818182828586839B
:106DE000828382817F7E7E7F7D7B7A797C808081B9
:106DF000817E7D7F7F7D7B7C7D7E7F828586878592
:106E000083878A888582807E7E7E7D7B7B7C7D7E7B
:106E10007F7E7E8081807F7D7A797979797A7C7DA9
:106E20007F808283838383838383817F8182828344
:106E3000828080807D7A7A7878797A7A7B7E828483
:106E4000848382838381818385838282838382801A
:106E50007F7F8081818080807E7D7B7A7B7D7F814A
:106E6000807E7F807E7D7D7C7D7E7E7E8081828532
:106E70008583838283827F7E7F807E7B7A7A7B7B21
:106E800079777777797C7F807F8183868788878908
:106E90008B888685837E7C7B787777767475787A25
:106EA0007B7F8181818487888788888685858481A6
:106EB0007D7D7E7E7E7C7B797C7E7D7D7E7E7D7E03
:106EC0007F807F7F7F80848482818181807F8183B6
:106ED00083838383817E7F7F7E7F7F80817E7D7FB2
:106EE0007E7B7B7C7B7C7D7C7C7F818391A0A4A34B
:106EF000A19A958C828174708E844C394B48322CC7
:106F000035373B4D616F85919DA8B2CBC2AABAB50A
:106F1000999C9E94A2AA95847773787C8991919587
:106F20008A827F757780888D8A8581807C6D64698F
:106F3000675951442D2932363A46535A5E61605C96
:106F4000586070757B878D857E84898B98A9B2ADDA
:106F5000A9A9A5ADB5A9A7B8C1C4C3C1C4BDB8C5C9
:106F6000C3AA9D9B9185868B7F7374706E70634EF0
:106F7000484A4A4B43424947454A514A414C555376
:106F80004F484B595C54556574777B817D73768A85
:106F90009DADBCBFBEC9D8D5C9C7CBCAC2BAB7BBE5
:106FA000B9A89E9C9C9D94888178706E74776F6957
:106FB0006D6762645A51504A4344454A4C47423CCB
:106FC0003334424B4E565B636E798486828C989E36
:106FD0009F9BA1A69B979EA2A6AAA8A5A4A3AFBB70
:106FE000B7B6B3AAADB3B1AEAEA99E989C9A8B8248
:106FF000807973736D6354433B3E41434746495226
:107000005759575E6867676B70787A736B696C70F5
:1070100072706D6665747973777F868B96A5B1B74C
:10702000BDBFBDBEC2C2C3C4BDB8B7B6B5AC9D92EC
:10703000877E7D7E7C7A73656164696861574E4A9C
:107040004F565F635D585F635F5D60646261676D4B
:107050006E70726A61686F737B787178828C8F88CA
:10706000899093989C9EA4A9AAACADB1BEC3B7AFBA
:10707000AEB0B9BEB9B4ADA49C90817B7E7B6D638C
:107080005F5852504B474B51575D5C555050565DC1
:107090005C595E6262666967666B717274797C7C4A
:1070A0007C7B797B8283858C939DA2A4ACB5B9BA95
:1070B000B9BDBFB9B8BBB6B4B8B4AFABA0948A83FE
:1070C0007F776D665F5B585551515455595F5D5CD4
:1070D0006368676565696967646163696A6867654C
:1070E00062615D5D636B73757579828D94969CA307
:1070F000A8ACB0B3B3AEADB1B2AFAEB0B1ACA59EBB
:1071000098969595989C9B938D8B88807A767169DB
:10711000615A585A58514C4B4F5152535456555628
:107120005C626364676B6B6769727978787F82836E
:1071300086898D8D8C8F94989B9D9FA2A6ABAFB0B6
:10714000B0B2B4B5B4B2B1ADA19896938C847F7B44
:10715000746D6E706E6D6E6D6B6D6E6A6058585AA0
:1071600059595A5F635F5B5F626163686766666A0D
:107170006D69676C73787D838787898F959B9D99EF
:1071800097999A9CA1A6AAAFB2B5B8B4ACA7A7A587
:10719000A19FA2A29F9A90868686817B736A656270
:1071A0005F5E5F615F5B595A5B5752504D48444A7E
:1071B00054585A6065696E707070757D85898C90C1
:1071C00093959392979C9C9B9895959AA2A9ACAC09
:1071D000AAA5A1A0A2A5A19B999A98918A8582812E
:1071E000808384817C7570716F6E6E6C6967656376
:1071F0006161615F5D5B5655595F64676665646494
:10720000666C72777C81817E7B7B7E848A8E919393
:10721000999E9B9A9FA6AEAFA8A4A3A5A6A6A3A03D
:107220009D9B97938F8C8B8F908D88807A767370CF
:107230006E70726F676160605E5D5D5E5F5E5D5E19
:10724000605F5D5C5C61626161646A6F70737A81CA
:1072500085888C8E9296989999999BA0A3A3A4A2B5
:10726000A0A1A3A2A0A1A19D9B9B9997949291926A
:1072700091908C87807973716F6E6D6E6E6B6763A2
:107280005D5856595E5F5E5E5F5E5D5E6163656A16
:107290006C6D6D6B6A6B6C70787F7F7D828A8E916E
:1072A0009698999EA3A5A8AEB2B2B1B0ADA9A5A279
:1072B0009E9994939293938D868382818282817F1B
:1072C0007A757270706F6E6C6A6665656565635E0F
:1072D0005C5A595A5D5F6163636464636364676E9B
:1072E0007477797C82898E949A9FA0A1A3A19D9D99
:1072F0009FA1A2A2A2A1A0A1A19E9C9E9E9B999AA1
:107300009895918B8886827D7A75706C69686765BF
:107310006564636364656566656261626264656530
:1073200066666665646565686C7072777C7F80856B
:10733000898D9093959AA0A5AAABACABAAAAAAA551
:10734000A2A1A1A19F9C9796938E89837F7D7C7932
:10735000777676777572727372706E6D6B6866652C
:107360006461606061626261616363636264676BF0
:107370006D6F72767A7D8085888B8D9093959695CA
:107380009597999B9FA1A0A0A3A6A6A5A4A4A2A0FF
:107390009F9E9D9C97908D8A8886827A746F6B6879
:1073A000666566686866605D5F60616262616263AF
:1073B0006362636262646667686A6D71767A7D8013
:1073C00085898C8F919497999A9B9C9FA1A1A1A349
:1073D000A3A2A09D999695949292918D8A87858477
:1073E00084838383817F7D7A7676777776747272F1
:1073F000706C696768696764626162646566686A1F
:107400006B6D70706F707476777A7D7F8184888CF5
:107410009091919394949697969698999B9C9C9C06
:107420009C9C9C989493918E8D8B88858383848477
:1074300083827F7B77747271706E6B69666564623C
:10744000636567676664636366676868686B7176BF
:107450007A7D7D7F8185898B8C8B8B8C8C8C8B8DC1
:107460008E8E8E8F909497989897979896959594DE
:10747000949494949493908E8F8E8A87837E7A7757
:107480007573716E69656361606163626262636492
:10749000646467696B6D6F7376797979797A7B7CCF
:1074A0007F8181828282848687898B8E92979B9C42
:1074B0009A97989B9B9C9D9C9B9B9A9A9997959237
:1074C000908D8D8D8B87817C78757373726F6A66F2
:1074D0006361615F5F605E5D5E6164676B70737561
:1074E00077787979797979797B7D7E7F7F7F8081E3
:1074F0008487898C8F91929292949494939394968A
:1075000095939392909294939393939392918E8C5C
:107510008A87817D7B797572706D6A696969686631
:107520006362605F606466686B6C6D707375787BB6
:107530007C7C7D7E7C797A7C7F8283848587898A46
:107540008A8C8F8F909395979898989897969798FC
:107550009695959593908D8A8885817E7B777573B6
:1075600073727272717170706F6E6E6E6C6B6B6D28
:1075700070717172737272717171727272727476EB
:1075800077777A7C7E8184858788888A8C8E9192B1
:1075900092939291919191919293949494959494C1
:1075A00093929292918E8B89868382817D79767374
:1075B000706C68676665646362626466686B6D6E52
:1075C0006D6D6D6E71737576787A7C7E8081848442
:1075D00084858585888B8D8F9293939494949393CF
:1075E00093939293949291908E8D8C8A88858383C5
:1075F000828182818181807E7C7B7A7A79777574C1
:1076000072706E6D6D6E6E6E6E6D6D6C6B6B6C6EA2
:107610006E7073747577797A7C7E7F8082828182C6
:10762000848586888686888B8C8E90919395959498
:1076300094959797999B9B9A9A9895928F8C8A8804
:107640008683817F7C7A7774706E6D6B6967656500
:107650006565656565656566686A6D6F7174767682
:1076600077787A7B7E818385868787898B8C8D8FDF
:1076700090919292929393939393939495959391DF
:10768000908F8E8D8B8B8A888886858482807F7E82
:107690007D7C797774716E6C6B6B6A69696A6A6BF1
:1076A0006C6C6C6D6F717272727273767879797AB4
:1076B0007B7D7F7F7F80818283848586888B8E8F90
:1076C0008F8F8F8F90909092959798999A9A9A9A77
:1076D00099999794908E8C8A86827F7B7875726E4A
:1076E0006D6D6B68676565636163646567686A6C27
:1076F0006B6A6B6C6E7173747476787B7D7E7F8041
:107700008285898A8B8D8F9295989A99989797966A
:10771000969492919191908F8E8E8E8F8E8D8C8A71
:1077200088868584848381807D79777572706E6D9B
:107730006C6B6968676664646363656768686A6DD3
:10774000717376797B7C7E7F80808183848585865A
:10775000898B8B8C8E919293939495969695939317
:107760009495959593919191918F8B8986827F7D48
:107770007B7A7976747473706E6E6E6C6B6B6B6BF8
:107780006B6B6C6D6D6D6D6E6F6F70717273757606
:10779000787A7C7E8081828385878889898A8B8BB1
:1077A0008C8D8E8F909192929291908E8E8E8E8EE5
:1077B0008D8C8E8E8D8C8B898888888683807E7C4C
:1077C0007977747271706E6D6C6C6B6B6B6B6C6CCB
:1077D0006C6C6D6E6E6F7071717274757678797B8A
:1077E0007C7E808181828486878A8C8E8F90929421
:1077F0009596979897969696959393918F97A3A61B
:10780000A4A3A09C9A948A868782858372778D81AF
:107810005C3D32302F2D303A475054575A5E656EDA
:107820007275808A929FB0BCC0BEBEC3C5C4BFB3D0
:10783000AFACA6A6A6A3A4A199928B87837D7674EC
:107840007170717272767D848788868486867D7277
:107850006F6C6866645F5F5E5A55555349413B37AC
:1078600036393F44464B5054595F6369737B7E8081
:1078700082858C9394959BA0A7B0B9C0C0B9B8BEBF
:10788000BFBABABAB6B5B6B2ADACAEAFAEA9A39CEC
:10789000959495948F8A8988898D8C87827F797257
:1078A0006E6C696663636260615F5E5E5A575857CB
:1078B0005656565553515051525251504F505352A3
:1078C00052545858575E6668696F757A7F88959DDF
:1078D0009DA3ACB1B5B7BAC1C3C0C2C5C7CACBC9F5
:1078E000C8C9C7C3BEB7AFAAA49D99948F8D8B8812
:1078F000817D7B797573726F6C6B68615B5A5753CE
:1079000051504B46413E3B39393B3B3D43474A4C46
:107910004C4F525154595C636970777C7E83878BDE
:107920009196999EA5A9ACAFB1B1B1B3B6B6B4B2B8
:10793000B1AFABA8A7A6A4A09D9C9892918F8A876F
:107940008B8A878B90908F8E8D8C8987837E797BB5
:107950007E7E7D7B7D7D78706C696663605B55544F
:1079600056585A5855555859595C5E5E5D5D5C5E77
:10797000646667696C6E7073767879797D818589C4
:107980008E9094999B9FA4A6A9ADAEAFB0B2B3B1AF
:10799000ADA9A8A7A5A29D97918E8E8E8C89898866
:1079A000858484818284828183848383827E7874C7
:1079B0007271717373726F6C69686764616163651A
:1079C00064606164666668666364676A6C6E6D6C49
:1079D0006B6B6E6F7071737779797C7E7D7D7E7C49
:1079E0007B7D7E818586898C8C8F9497999C9EA1C6
:1079F000A5A9ACADACABAAA9A8A7A2A0A2A4A4A417
:107A0000A4A3A09D9A958E8986848381807E7A77AF
:107A1000747372706E6D6B6967646262605D5854F6
:107A200052514D4B49484647484B4F515253555878
:107A30005E5F5F63676A70767A7E818489909498CE
:107A40009DA0A0A3A8ACAEB0B3B5B6B8B6B5B4B15E
:107A5000AFAEADACABAAA8A8A6A5A3A3A29F9D9AC2
:107A60009895918F8E8A8784807F7C76716B666211
:107A70005F5C5754514E4D4D4B4A4A4A4947454623
:107A8000484B4F52545658595D606265686A6C6F36
:107A90007174777A7B7C80868A8E919397999C9F6C
:107AA000A2A4A7ABAEAFB0B3B6B8BAB9B8B7B7B8BF
:107AB000B7B2ADABA8A6A5A29C97938E8B88858301
:107AC000817D7A777674706D6964615E5D5D5D5FFE
:107AD0005F5D5B5A5959595857565656555557591F
:107AE0005A5D5F61636566686A6C6F707275797DF7
:107AF0007F807E7F83888B8E909193979B9EA0A1A1
:107B0000A2A4A7A9A8A9AAABAAAAAAA8A6A4A3A204
:107B1000A1A09F9E9C9A9794908C8B8A8886837F45
:107B20007C7876736F6C6B6968696866656668698E
:107B3000696A6B6C6B6A6A686563636464636262DA
:107B40006161646667696C70737576787B7D7E7E33
:107B50007E7D7D7D7E7F8284838282818080818321
:107B6000848686888C90949798989A9D9FA1A2A2CB
:107B7000A3A4A4A5A5A6A7A7A6A5A3A2A19F9E9CD2
:107B8000999592918F8B88827D7976726C68656108
:107B9000605F5D5D5D5C5A5A59595959595A5A5B33
:107BA0005B5A5B5D5E5E5E5F5E5D5F6263666A6ED2
:107BB00070717376797B7C7F83888B8F9294979892
:107BC000999A9A9A9B9C9D9EA0A2A5A8ABADAEAF98
:107BD000AEACABABAAA9A8A7A5A3A1A0A09F9C9A55
:107BE0009793908B8783807D7A7774716F6D6B68C4
:107BF00065615E5B595854514F4D4B49494A4A4A59
:107C00004A4B4C4D4F5255595C5E6164676B7073C3
:107C100076797B7E80838587898C8F9294979B9ED3
:107C2000A0A3A6A9AAACAFB0B1B3B5B6B6B6B6B666
:107C3000B8B8B5B1AEAAA6A3A09C9A999794918C16
:107C400087827C7773716F6C68635F5C58555352A1
:107C50004F4D4B4C4B4A4C4F525455585B5D6063F3
:107C600064656666686A6D6F727476787B7D7F8006
:107C7000828487898B8B8C90929395959494959719
:107C80009A9B9B9B9C9D9C9C9C9C9C9D9D9C9A9A3A
:107C90009A9A999897969492918F8D8D8B898887CF
:107CA00084817E7C7C7C7B7A797875747372716F49
:107CB0006E6E6D6D6E6E6D6D6D6B6B6A6969696808
:107CC0006767656463636465656667696A6D70713B
:107CD00073757677797B7C7C7C7C7E7F80828485E3
:107CE00086888B8D8F919191929394949596979984
:107CF0009B9D9EA0A3A5A6A7A7A7A7A7A6A4A2A150
:107D00009F9D9B9895908D8B8783807D7A787672E6
:107D10006E6B6A6866656564615F5E5E5D5C5A583D
:107D2000585758585859595B5C5C5C5C5C5D5E60A8
:107D3000636567696B6C6E7276787C808285888BF0
:107D40008D8F9296989B9D9FA1A1A2A3A5A6A7A760
:107D5000A8A8A8A7A6A5A4A3A3A2A1A1A1A1A1A1E7
:107D6000A09D9A9895928F8C88848382807D797566
:107D7000726F6C6A6865605D5B5855535150504F27
:107D80004F50505051535455575A5C5E6164666A67
:107D90006E717476787B7F828588898A8B8D8E8FD1
:107DA0008F91939495979A9C9E9E9F9F9F9FA0A131
:107DB000A1A2A2A2A1A09E9C9A9A99989796949209
:107DC000908E8E8C8A898784807E7D7A7775737297
:107DD000706E6C6B6A6969686868696A6A6A6A6BFE
:107DE0006B6A6A6A6B6B6B6C6D6D6D6D6D6C6B6CD9
:107DF0006C6C6C6D6E70737577797B7D7F80828320
:107E0000838384858788898A8C8E8E8E8F8F8F90CE
:107E1000909191929393939495969696979898991A
:107E200098979797969694939392918F8F8E8D8C27
:107E30008B8987858483817F7E7C797673706D6979
:107E40006663615F5E5D5C5B5B5B5B5A5B5D5E5F57
:107E500060626465666767686A6C6D707273757678
:107E600077797A7B7D7E80838587888A8A8C9093D8
:107E700095999B9D9FA2A3A3A5A6A6A6A6A6A6A7E5
:107E8000A6A5A4A4A3A1A09E9C9A9793908D8A8650
:107E900083817F7D7B797673716E6C6A69686765B3
:107EA00064636262626161626262616161606060BA
:107EB0005F5E5D5E5E5F60626365686A6C6E717373
:107EC000767A7C7F82848587898B8D8F9193959834
:107ED0009A9B9D9FA0A1A2A3A2A2A3A2A1A1A1A19E
:107EE000A1A1A1A0A1A09F9E9D9A98969492908DE9
:107EF0008A8886837F7B7873706D6A686665646341
:107F00006362605F5F5E5E5E5D5D5C5C5D5F606086
:107F100061636567686A6C6D6E6E6F727475767892
:107F20007A7D7F8183858788898A8B8E90929496CB
:107F3000999B9D9E9F9F9E9E9E9E9D9C9B99989780
:107F400096959492918F8E8D8C8A89878787858468
:107F5000828181807F7E7D7C7C7B7B7A7A79797857
:107F6000777675747371706F6F6F6E6D6D6D6C6B0E
:107F70006B6B6A696969696A6A6A6B6C6C6D6E6F52
:107F8000707172747576787A7B7D7D7F8081828452
:107F900085868788898A8B8C8D8E8F8F909192931E
:107FA00094959697999B9C9D9D9D9C9C9D9C9B9B2D
:107FB0009A999897959392908D8B898786848382DE
:107FC0007F7C7A7774726F6C6A6866656362605FE3
:107FD0005E5D5C5C5C5D5D5E5E5E606263656767A6
:107FE000696B6C6D6F70717273747677797B7D7F5E
:107FF000818385898C8E9295989B9D9FA2A3A3A433
:10800000A4A4A4A3A2A2A19F9D9C9B98969696959A
:108010009392918E8C8A8987858382817F7C7B7AFB
:1080200079797877767472706F6D6C6B6968676652
:1080300067676766656465656565656565656666E8
:1080400067686A6D6F70727476777A7C7E828586D7
:108050008789898A8A8B8B8C8E8F8F909090919153
:10806000919293959697999B9C9D9F9F9F9E9D9B78
:1080700099979593918F8D8C8A8887858382807D4F
:108080007A787675747373727171706F6F6E6E6DCE
:108090006C6B6B6A6A6A6A6A6B6C6D6E6E6E6D6D24
:1080A0006E6F6E6F6F6E6E6F6F70717274767778C1
:1080B0007A7C7E8081828485878A8C8E909192934F
:1080C00092929393929192929190908F9091908F9F
:1080D0008F909191918F8F90908F8E8E8E8E8E8EAD
:1080E0008D8B89888684817E7B7A797776757574A5
:1080F0007372717171706F6E6E6E6D6D6D6E6F6F8C
:108100006F6E6D6D6E6D6E6E6C6B6D6C6B6D6F6D9D
:108110006C6F6D74764E282B2F302A3071ACC3E60D
:10812000E5CCD6E3E1DED8C28954473E33343A3C4D
:108130003B3C455665676361729DA591B5E6E8E2F3
:10814000E1E0DDD5CDC6C3B18C8282572D28271D35
:1081500015101113131820262F383D43535C597FF7
:10816000B3B6BFDCD7CAD1D5D2CFC8C1B59E938B29
:108170005E2E27261B161A23252633373B536065B0
:10818000737D8AABCED0C1D0E2DEDADBDDCDB9CBF8
:10819000D2A894958279848269534C4C504E423ACD
:1081A000404C5860605E637B9DA7A2ADBCBFC6CA51
:1081B000BDBAC3BDB5B49C837A5D3B373C39353716
:1081C000393637404544454C5B6A717376746F7934
:1081D00094A9ABAEB3B3B1B7BCB4A8A2A1977D6666
:1081E000554D5A635752544E566A6E64666F778384
:1081F000949B9394ADC3C4BAA296ACB8A8A6B6B9E2
:10820000B1B1AF9D8C857A6D6A6C6B625E68645BA0
:10821000606260666E727D8F8D80899C9D9596945C
:10822000868A9F9C8B898C8A8D81675B575B6354A0
:10823000444A4F4C443E46504E4E58626D7E8583B4
:108240008EA4ACA9A59798A19D998A81949A9A9D8C
:1082500083676B777B7B79797C81857F7D83797F71
:1082600090867D8085909DA69F97A7B5B5B3A59A6A
:108270009D9998A4A190807B7C786D6567676A78EA
:10828000756F746A676E6D6F6D6E747070766E6503
:108290006C7C765E514B464B444985C4DADACFCBD1
:1082A000D3CBB49C8C8168606C5631252B2F27284A
:1082B000393D393D4249585F5F67748EBBDDE4E567
:1082C000E8E6DFDCDAD6CEC5C2BFB3ADA388603E38
:1082D0002C221F1D1B2027292E2F3032333D4649CB
:1082E00055667289A7BAC5D1DBDAD6D2C9C5BCA199
:1082F000918D7560513B2F251E2122252D2E2C326C
:108300003C424A4D587887888F908E94A1AEB4BA7B
:10831000C3CCD3D8D5CAC8C8B6A1978C7F797363AC
:1083200057504E5155575E6972787D8593948F945E
:1083300096A1B8C9CDC3B4A99E9A9693978F848508
:108340007A6560635E504C555A565351586E776546
:108350006070767B9095838CAAB5B19C84766E6DA7
:108360006A64637180756976735857646265615495
:1083700059615F616C7B82828A9DAA9F9DADA7A493
:10838000AEA5A3AEA896888893958E8A827F8078C2
:108390007B7A707883857E7B919F97919FAAA09C22
:1083A000A391798093938A86858F927D696A6A64A6
:1083B0006160635F5A5F5D534B4451605B555C671E
:1083C000757F807E8594958A888C8A87887E7A805E
:1083D0007F8383797B7C7C857F777E77747C7A72E0
:1083E000747678858B89949B918E9EABA9A5A49C6D
:1083F000918D949E9D9087868C908B7F7B807C77DF
:1084000086978B7F8181857E6D68666B71645E6CFB
:10841000788184888686989E94999D8F837A6A63F2
:1084200068655E656C675E57525964615E65696B2D
:1084300076787884817C86867F828580838B868827
:10844000938C8A948F868C8F9091867A828E868286
:108450008B89868B8C8A8B8B8986868B91969DA344
:108460009F908B8E8E8F887A73777F8182888479B4
:10847000797F847F797B72635F6366656B71727AE3
:10848000817D7D827E76726D7074716C6C6F6F6FA2
:108490006B676D6B636A74777F898A8B93918D8D1F
:1084A0008682898E8A85827F7C7D81807D818E9780
:1084B00091909592938C838991928A807F8284890E
:1084C00088807D7F82898A81808280838385888A73
:1084D0008885817D7D7F81878583888782827F7A79
:1084E0007877787C7C7A77777E827D7C7C726E73FD
:1084F000716C6D6E6F69605F656B6F6860626B76E3
:108500007E827E7F86878789888A898A8F867B7C20
:108510007E8284818185878990959796989C9A948C
:108520009396958E8B8986878786838586818188B9
:108530008A8C8C84828687837F7F7F7E7E7A757427
:10854000727274747373727272716D6B6C6E707020
:10855000727274747372706D6F73737679787C81D4
:108560007F7F80808588837F81838586888A887FD6
:108570007D838583818283868888898A8783868BA9
:108580008F93949395938E9398938E8F8F8B8581F1
:108590007E80817E7E7E7B7E83837B797D7E7C7BFD
:1085A0007A7977787B756E707273706D7176787A80
:1085B0007D7F80858886817C7977736F7275737112
:1085C0006F6C69696E70707372747A7D7D7D82875D
:1085D000898F8F8A8D918F8E92948F90938F8986B9
:1085E000848285888482858280828483828588874C
:1085F000888783868A858387878886838587878916
:10860000868383807B7E827D7B7C797676757370B2
:108610006F6C6B70716F6F6F7073787A7A7B7B7E23
:108620007F7D7C77737675747675757778787679D3
:1086300079787E7E797C7F80817F8184848587863E
:10864000878A8886878889898A8D8F91949391916A
:10865000918E8A878584817F7F8081858786898CBA
:108660008A8C8D8A8A8A898C8D8C88837F7D7E8195
:108670007E7978777675706D706F6B6C6E6E6C6AE4
:108680006A6C6F7171757A777579797879777572A7
:10869000717373717375767A7E7F818688898A8912
:1086A000878688898887868382848485888A8C8E59
:1086B0009091939190969A98999B97938E8C8B8892
:1086C0008685817F7F7A767574747576787B7C7CFD
:1086D0007D7D7C7C7E7F7C7A7A7977757574737406
:1086E00076747475726D6B6D6F72757676777A7954
:1086F00077787A787A7F7E7D818382828588888781
:108700008786838385868888868789888481828610
:10871000868282878B8D8D8D8F8E8D8A87868482CF
:108720008080807E7C7E7F7D7C7A79797978797C87
:108730007F7F7F8181808385868786878986828106
:10874000807C78787773737374726F7073747576D6
:108750007775767677797C7C7C7C7E7F7E7D7E7D6E
:108760007B7B7B7D8182807E7E807F7E7E7C7B7B2F
:108770007C7E818182868A8B8B8B8A898B8C8B8B8A
:108780008A898888898B898785868A8B898785836A
:10879000817F7F7E7B7C7E7F8282808183848684D2
:1087A000838588858284827F7C7975706E6D6B6C21
:1087B0006C6C6F7272717274767776757575787984
:1087C00077787C7A787C7C79797C7D8083858789D1
:1087D0008889898886858384848384848384878B3D
:1087E0008C8C8C8E8D8C8E8F8E8F908E8D8A8686C3
:1087F000848181807D7E7E7C7D7D79797C7B797BA7
:108800007D7D8182808080807F7E7D7C7979777498
:1088100076797A7B7A7B7D7D7D7D7B797B7D7A77AE
:108820007876767979767576797B7D7D7E808180A4
:1088300081828180818484818285868788898A8BF0
:108840008B8A888584828080817F7F8081848785F0
:1088500085898B8A8A8B89868384838284868583B3
:10886000828182827F7B7A797B7E7B7A7C7B7A7B3A
:108870007B797A7B7B7B7B7A7A7B7B7B7B7B7D7C4A
:108880007B7C7C7B7A7A777575747475767A7E7C5E
:108890007A7B7D7F807E7E7F7E7E807F7E80807FF4
:1088A000828586878786858382807D7D8083868991
:1088B00089898C8F8E8F8D8B8A898887878785831E
:1088C00081807F7D7C7C7C7D808383838485898A95
:1088D0008987858483807D7B79797A7977747374CD
:1088E0007474757472717274757575737272737451
:1088F0007475767A7D7E8082807D7E7F7F808180A8
:1089000080818181827F7E80828282818183848452
:10891000848587898B8A8A8A8B8E8F8F908F8D8DA5
:108920008C8B8987898A8A8A8B8A8783807F7F7EDE
:108930007C7A7A79777676757577787979797A7BB2
:108940007B7A78767574737271717476787A7C7DBF
:108950007D7E7E7D7C7B7978797A7A7A7B7B7C7F61
:108960007F7D7D7E7E8083858787898A8A8B8C89BF
:108970008887858687878686878889888685838194
:10898000818181807E7C7D7D7D7E818282818083EC
:108990008484848282838483838484848586878795
:1089A0008585837F7C7B7A7876767576767472732C
:1089B00074757778787878797A7977787A7A77763B
:1089C00077777574737275777778797C7E80838416
:1089D00084868A89888A8A88878787858585868626
:1089E00086858586858788898A8A8C8E8F908E8DEC
:1089F0008D8D8C8C8B888787848182848585858307
:108A0000807D7C7B787675717071707070706F711D
:108A100074747576757575777878767778777676F5
:108A20007572716F6F6F707175787A7C80818282D8
:108A30008181838587898A898B8C8B8B8B8B8A89B3
:108A40008A8B898989888888898A8B8B8A8A8C8B8A
:108A50008A8A8988878787868686858585858482B0
:108A60007F7D7E7E7D7E7E7C7A7976757473737170
:108A70006F70707072737272737576757577797BBB
:108A80007B7A7B7C7A7C7D7C7A7A7A7B79797A793D
:108A9000797C7C7C7D7F80818283848586888C8DB7
:108AA0008C8C8C8A8B8D8C8B8B8C8C8C8B89888A14
:108AB000898888888885838484848584818081816D
:108AC000828384848586878687878685827E7B7A73
:108AD000797776747374757472706E6D6E706F6F73
:108AE00072747475787979797A7B7C7F7F7D7E7EEC
:108AF0007F81817E7F8080818181808081807E7C7A
:108B00007A7B7B7D7F808081828386878686878A49
:108B10008D8F90919394949493929090908E8B8952
:108B2000868483817E7C7B797A7B7B7B7B7B7C7D6F
:108B30007E7D7D7D7D7C7D7E7F7F7E7D7B7A79786D
:108B400076747474747472706F6E70706E6D6E6F14
:108B500070717172757A7C7B7D7F81838382818362
:108B600084848586878788898685868585868586A7
:108B70008787898A8A8B8B8C8D8D8D8F8F8F909034
:108B80008F8E8D8B8A8888898785858381807F7E7B
:108B90007D7C7C7A78797877767676777776777752
:108BA000767575747271717171727474747475768E
:108BB0007676787B7A7B7D7C7A7A7B7B7B7B7D7E0D
:108BC0007F8081818183858585848385868687876B
:108BD0008888898A8A8A8B8D8D8C8C8C8C8C8D8BE5
:108BE000898989878787848484838181807E7D7D4C
:108BF0007B7A797A7B7C7F7F808081818283817F91
:108C00008081817F7D7A78777674727272727171E9
:108C10007070727271727272737475777A7E8081FD
:108C200081818081807F7F80818080808080808042
:108C300081838382828282838485868788898C8DE2
:108C40008D8D8F919191918F8E8F8E8C8B8A8A8949
:108C500086838382817F7D7C7B7A7B7D7C7C7E7F2B
:108C60007F7F7D7B7A7A7A7A797878787878787865
:108C7000777677787676757474757574726F6E6FB3
:108C80006F6F707273737577787A7C7E8082858758
:108C900088898B8D8F9092939493929393918D8AE0
:108CA000898887858382807F7F7E7E7E7E7F8082AB
:108CB000858686868889888888888A8B8A8885833D
:108CC00081807E7B7876757675737171706F6E6E4C
:108CD0006F727272747576767677797B7C7D7E7F23
:108CE0007F7F808080807F7E7E7D7C7C7C7B797AAC
:108CF0007C7C7C7C7E7F8182848588898989898847
:108D0000888A8A89898A8A8A8989898B8B8A8989CA
:108D100089878583807E7F7E7E8082828182817E3C
:108D20007E7E7D7B7D7F7F80807E7E807F7E7D7B63
:108D30007A7A7B7C7B7A79797A79787877767776A4
:108D400075747273747576787A7B7B7D7D7E7E7F99
:108D50007F818181818283848483848685858688DE
:108D6000898888878788888788888786878787868D
:108D700086858383828283868583848483838383B9
:108D8000828283838483827F7D7C7C7B7878787702
:108D90007777757475757576777778797979787767
:108DA00076767678797B7D7F807F7F7F7E7D7E7E05
:108DB0007E7E7E7E7F7F7E7D7E808281807F8080C2
:108DC0008181828384848687878787868586878852
:108DD000898A8A8B8A8A8B89888887868585848315
:108DE00083828282827F7F80807F7F7E7D7E7F7E86
:108DF0007D7D7C7D7D7E7F7E7F7F7E7D7A787775B1
:108E0000747372737271706E6E6F6F707375767843
:108E10007A7B7D7F80818284868889898A8A8A8A12
:108E2000898888888886858382817F7E7D7D7E8013
:108E3000818182848585868687898A8B8D8D8D8DBB
:108E40008D8C8A898885848381807E7B7979797904
:108E50007877777777767574767776777878797BA1
:108E60007C7C7D7F808081817F7F7E7D7C7C7B7927
:108E70007878787777777777787A7A7A7B7C7E805C
:108E80008182858787888787888786878888898A77
:108E90008A89898887858483817F7F7F7E7E7F7FA3
:108EA0007E7E7F81818181828383838382828281AE
:108EB00082838282828181818180807E7D7E7E7EAE
:108EC0007C79787778777676767678797A7B7A7A1D
:108ED0007B7B7B7C7C7D7D7E7F7E7E7E7D7D7F80BF
:108EE0007F7F7F7F7F7E7E7F808181808182828283
:108EF0008282828385868687888888888989878612
:108F0000868787878786858483817F7D7D7D7C7C3E
:108F10007C7D7D7E7E7E7F818181808181807E7D62
:108F20007D7D7D7E7E7E7F7F7E7D7D7D7B7A7A7B73
:108F30007B7B7B7A7A7A7B7A7A7A7A7B7C7C7A7A88
:108F40007B7C7C7D7D7D7D7E7F7F7E7F8182838437
:108F500085868684838383828282838282838382DE
:108F600082838483838384848282828282828283D6
:108F700085868583848585868686858583838280AC
:108F80007F7D7B7978777776757575767878797B5C
:108F90007B7B7D7E7E7E7E7F7F7E7D7E7D7C7D7EFB
:108FA0007D7E807F7E7F7E7C7B7B7A797A7A7A7AFF
:108FB0007A7A7B7D7E7E80838383838484848486A7
:108FC0008787878686878786858585838383818053
:108FD0007F7F7E7D7D7D7C7C7C7B7C7F80808081B3
:108FE00082828485848384838382807E7E7E7E7D6C
:108FF0007C7C7A78797A78777877777878787A7BE2
:109000007B7C7E7F80818181828282828384848452
:10901000848484838383817F7F7D7C7B7A7B7B7B5D
:109020007B7C7C7D7D7E7F7F7F808284858585853E
:109030008584838280818180808181818182828117
:1090400081817F7F81818182828081828283848409
:10905000838282828181818181818182807F7F7F01
:109060007E7D7C7B79787878787878787776767872
:109070007878797A7B7C7D7E80807F818182838510
:1090800085848484848382828282838381808080B9
:109090007F7D7C7D7F7F7F808182838384858686C0
:1090A000878888878786868684838383807F7F7F7F
:1090B0007F7E7D7D7E7E7D7C7D7E7E7E7D7C7C7BDD
:1090C00079787877797A7B7C7D7D7E807F7E7E7DE6
:1090D0007E7F7F7F80808080807E7E7E7F7E7E7FA1
:1090E00080807F7E7F80808081828180808081807F
:1090F00080828585858585848281818180807F7F4E
:109100007E7D7D7D7E7E7D7D7D7D7D7D7E8081827F
:109110008383848586858585848383838181828119
:10912000808080818181807F7E7C7B7B7B7B7C7B60
:109130007C7D7D7C7D7C7B7B7B7B7A7B7C7D7E7E6E
:109140007D7E7F7F7E7E7E8081817F7F7E7D7D7E36
:109150007E7E7E7E7E7E7E7E7E7D7D7E7F80818227
:10916000838384848485888989898A8A8A88878692
:1091700084838282828180807F7F7E7D7C7B7A79FE
:109180007A7B7C7D7D7D7E7F7F7E7E7E7E7F7F7E07
:109190007E7E7F7F7F7F7E7E80807F7F7E7D7D7DE8
:1091A0007D7C7C7D7D7D7C7C7D7C7B7B7C7D7E80F5
:1091B000818283858686868787878887868584845B
:1091C0008381807F807F7E7D7E7E7D7D7D7C7C7DBA
:1091D0007D7E7F7F7F7F7F81828383848586868675
:1091E00085848381807F7E7C7C7D7D7D7D7C7A789B
:1091F0007878777677797B7D7F808282838383829C
:109200008282828181807F7E7D7C7B7B7B7B7D7D7A
:109210007D7D7D7E7E7E7F80818181828282828251
:109220008282838383838384858484848484848406
:109230008383828282828181807F7F7F7E7D7D7D2C
:109240007D7E7F7F7F7E7F7F7F7E7E7E7E7E7D7D3B
:109250007D7D7D7D7D7D7C7C7C7C7C7C7D7E7E7E41
:109260007F807F7F7F7E7E7F7F7F7F818181818105
:1092700083838382828181818282818182838282CF
:1092800084848384848383828282817F7E7E7D7DC9
:109290007D7C7C7B7C7C7C7B7B7C7C7D7F7F7E7F04
:1092A000808282828383838382828282828282829C
:1092B000817F7F7E7C7B7A7979797879797A7B7BFB
:1092C0007C7C7C7E80818284848585858584848382
:1092D000828282807F7E7E7D7B7B7A7A7A7A7A7BBD
:1092E0007B7C7C7C7C7E7F7F7F808081828383838C
:1092F0008485858585848585858484828180808038
:109300007E7E7E7D7D7D7E7E7D7E7D7D7D7D7D7E86
:109310007E7D7F81818183838282818080807F7F47
:109320007E7E7D7D7C7A79797979797878797A7C95
:109330007E7E7E7F80818282818183838484848417
:109340008484838281808080807F7F7F7E7E7F7F18
:109350007E7E7E7E7D7D7E7F808080818281808119
:10936000828281818281808081807F7F7F7E7D7EFD
:109370007E7D7D7D7D7D7D7E7E7F80808081828102
:1093800081818282848483828282818080808080C5
:109390007F7F8080807F7F7F80807F7E7E7E7D7CE0
:1093A0007C7D7C7C7C7C7C7C7D7E7E7F7F818180E3
:1093B0007E7D7C7B7B7B7B7B7B7D7E7E7E7F7F80DF
:1093C0008182828384858584848484848384848365
:1093D0008181818181818282828282818181818277
:1093E0008382818180808080808080807F7E7E7D7E
:1093F0007C7B7A7B7B7A7A7B7A7A7B7C7D7E7E7FB4
:1094000080808082828282828180807F7F7F7E7E58
:109410007E7E7E7E7E7E7D7E7D7D7D7D7D7E7F7F70
:109420008080808182828181818282848585868616
:10943000858482807F7F7F7F7E7D7D7D7D7C7B7B41
:109440007C7D7E7E8081818284838282838382810F
:10945000828281807F7E7E7E7E7E7E7E7E7D7D7D21
:109460007C7B7A7B7C7D7D7C7B7C7D7D7E7F7F7F32
:109470007F80807F7E7E7E7E7F7F7F7F7F7F7F80FD
:1094800080807F7F7F807F7E7E7F7F7F80818282E2
:10949000838586868788898A88868584828180807C
:1094A0007F7F7F7E7C7D7D7D7E7E7E7E7F7F7F7FDA
:1094B0007F7E7E7F7F7F7F7F7F7F7F8080807F7EBC
:1094C0007E7E7E7D7C7C7C7C7B7A7B7B7A7A7B7CDF
:1094D0007C7C7D7D7D7E8080818182838282828290
:1094E0008281818281808282828182828281807F68
:1094F0007F7F80818180808080808182838383845C
:1095000084838282828180808080807F7E7E7D7D58
:109510007C7C7D7E7E7E7E7F7F7F7F7F7F7F7F8066
:1095200081818181818180808081818181807F7E34
:109530007D7C7B79797979797A7A7979797A7A7A8D
:109540007C7E7E80828384848484848484848484F6
:109550008382818180807F7F7E7F807F808080800A
:1095600081818181838485848486868586868686BA
:10957000868685848382807F7D7D7C7B7B7B7A7AF7
:109580007A7A7979787878787778797A7B7D7E803D
:109590008081828282838383818181807F7F7F7EBD
:1095A0007E7E7E7E7D7D7D7D7D7E7E7E7E7E7F81DC
:1095B0008181828383848585858586868585858569
:1095C00084838383828181807F7E7D7C7B7A7A7AAB
:1095D0007B7B7B7C7E7E7F7F7F808081828282839B
:1095E00083828080807F7E7E7E7D7D7D7C7C7C7B97
:1095F0007A7B7B7B7C7D7D7E7F8081818281818186
:10960000828281818180807F7E7E7D7D7D7C7D7D6B
:109610007E7E7E7E7E7F7F7F80818181818282824D
:109620008282828282828282818181818181818122
:10963000818180818180818181818182818180801D
:1096400080818080818180807F7E7C7B7A7A79793D
:1096500079797A7B7B7C7D7D7D7E7E7E7E7E7E7F42
:109660007F808080808081828282838383828180E8
:109670007F7F7F7F7F7F80808182838282828282E0
:1096800082838383838383838383828281818180B6
:109690007F7F7F7E7D7D7C7B7A797979797A7B7C0F
:1096A0007D7E7F7F808182828282838485848383A2
:1096B000838281807F7D7C7C7B7B7B7C7C7C7C7CD3
:1096C0007C7D7D7E7E7F8081828282838382828296
:1096D00082818080807F7E7D7D7D7C7D7D7D7C7CA8
:1096E0007D7D7D7D7D7E7E7F7F808181838485857C
:1096F0008585858687868585858584848382818026
:10970000807F7E7D7C7C7C7C7B7B7B7C7C7D7E7E8D
:109710007F80808081818181828281818181807F3F
:109720007E7D7D7D7C7B7B7A7A7B7B7A7A7B7B7B83
:109730007C7D7E7E7F7F7F7F808081828283858526
:109740008585858483828281807F7F7E7D7E7F7F09
:109750007E7F8081818081828181838384858584ED
:1097600083828180807F7E7E7F7F7E7D7D7C7C7C0E
:109770007C7C7C7D7E7D7E7F8080818181818181FA
:1097800081818181828181818281818181818180C8
:109790007F7F7E7E7E7E7E7E7D7D7D7C7C7D7D7CF2
:1097A0007D7D7C7D7D7E7E7E7F7F8080807F7E7ED6
:1097B0007F7F7F7F7F7F7F818181818180818181A8
:1097C0008181808081828283838383838383838476
:1097D000848483828282828180807F7E7E7E7E7E80
:1097E0007F7F7E7E7E7D7C7D7D7D7E7E7E7E7E7E9D
:1097F0007E7D7C7C7B7C7C7C7C7C7B7B7B7B7B7AAE
:109800007A7B7C7D7E7F8081828383838383838355
:1098100083848483838382818181808080807F7F31
:109820007F7E7F8080818182838484838282828222
:109830008181818080808080807F7E7E7D7D7D7C37
:109840007C7C7C7C7D7D7E7E7E7E7F7F7F7F7F7F3C
:109850007F80808181828281818080807F7E7E7E08
:109860007E7E7E7E7E7E7D7D7D7C7C7C7C7C7D7E26
:109870007F7F8081818283838383848483838282C8
:10988000818181807F7F7E7E7D7C7C7C7C7D7E7EF5
:109890007E7F808182838384858585868686858593
:1098A000858583838281807F7E7D7D7D7C7C7B7AC4
:1098B000797A7A79797A7A7B7C7C7D7D7E7E7F7FEE
:1098C0007F7E7E7F7F7F7F7F7F7F7F7F7E7E7E7DAF
:1098D0007D7D7C7C7D7D7D7D7D7D7F8080818283A3
:1098E0008383848383838484848484838383838342
:1098F000838382818180807F7E7E7E7D7D7E7F7F6F
:109900007E7F7F7F80807F80818181818181828154
:109910008080807F80807F7E7E7E7E7E7D7C7C7D61
:109920007D7D7D7F7F7E7F7F7F7F8080807F7F7E4C
:109930007D7D7D7E7F7F7E7E7E7E7E7E7E7D7D7E4A
:109940007E7E7E7E7E7F7F7E7E7F807F7F8080802A
:1099500081818182828282838383838383848585DC
:1099600084858483848483838382828181808080D0
:109970007F7E7E7E7E7E7E7E7D7D7D7D7C7C7D7D10
:109980007D7D7D7D7E7E7E7E7E7E7E7E7E7D7C7C00
:109990007B7B7B7B7B7B7A7A7B7B7B7B7C7C7D7E12
:1099A0007F7F808182828384848484848383828293
:1099B0008281828282828282818181818181808092
:1099C0008181818181818180807F7F7F7E7F7F7F98
:1099D0007F8080808080808080807F80807F7F7F8C
:1099E0007F7F7F7E7D7D7E7E7E7E7E7E7F7F7F7F92
:1099F0007F7F7F7F7F8080818180807F808081806A
:109A00007F7F807F7F7E7E7D7C7C7C7B7B7B7B7C85
:109A10007C7D7D7E7E7F8080808181828282828249
:109A20008282838283838383838282828181818114
:109A3000808080808080808181818181818182821B
:109A400083838483838282828180807F7F7F7E7D07
:109A50007E7E7D7C7B7B7B7A7A7A7A7B7C7C7C7B4E
:109A60007B7A7B7C7C7C7D7E7E7F80808081828215
:109A700082838383838281818181808181818181CD
:109A800081818182818182828281828282828282BC
:109A9000828181818180807F7F7F7F7E7E7E7E7ECE
:109AA0007E7E7E7D7E7E7E7E7E7E7F7F7F7F7F7FD1
:109AB00080807F7F7F80807F7F7F807F80808080AD
:109AC0007F7F7E7E7E7E7E7E7E7D7D7D7D7D7D7DBB
:109AD0007D7E7E7F7F7F7F7F7E7F7F7F7F7F7F7F9B
:109AE000808080808080818282828383838382825F
:109AF000828282828181818282828282828282814A
:109B0000818182818182818181818182828282823E
:109B1000818180807F7F7F7E7E7E7D7D7D7C7C7B62
:109B20007B7A7A7A7A7B7B7C7C7C7D7D7E7D7D7E78
:109B30007E7E7E7E7E7E7F7F7F808080818282822D
:109B40008282828181818181818180818181807F06
:109B50007F808080808182828283838384848483E7
:109B600083828282818180807F7F7F7E7E7D7D7DFA
:109B70007C7C7C7C7C7C7D7E7E7E7F7F7F7F80800A
:109B8000808081828281818180807F7F7F7E7E7ED6
:109B90007E7D7D7D7D7D7D7D7E7E7E7F7E7E7E7EEB
:109BA0007F7F8080808080808081818181828282AD
:109BB000818180807F7F7E7E7E7E7E7F7F808080B1
:109BC000818182818182818181818182828282837D
:109BD000838383838382818080807F7F7E7D7D7C81
:109BE0007C7C7B7B7C7C7C7D7D7D7D7D7D7E7E7EAB
:109BF0007E7E7F7F7F8080808080807F7E7E7E7E75
:109C00007E7D7E7F7F7F8080808081818181828157
:109C1000818282828181828282818181818181812E
:109C2000818080818080808080807F7F7F807F7F37
:109C30007E7E7E7E7E7E7F7E7D7E7E7F7F7E7F803F
:109C40008080808080808080818180807F7F7E7F17
:109C5000807F7F807F7F808282807F807F7E7F7E0B
:109C60007C7C7E7F7D7C7E80807F807F7F7F7F800D
:109C7000807F7E7E7E7F80818282807F807F7E80EB
:109C8000807F7F80818282828182838180808080C8
:109C90007F7E7D7E7E7E80818182848380808283C0
:109CA000838281818282817F7E80807E7D7D7E81B4
:109CB00081817F7F7F7E7D7E7D7B7D7E7C7B7C7DC9
:109CC0007D7D7E7C7C7D7F817E7C7D7E7E7E7E7DBB
:109CD0007D7D7F7F7F80808284838484828386856C
:109CE00083818182817F808282828282807F818162
:109CF0007D7C7D7E7F80808081838583807F7F8166
:109D0000807F7F7E7E7E7D7D7C7D8183808182825F
:109D1000807F7E7C7A7A7B7D7C7C7F7F7E7F808269
:109D2000828182817F7F7E7F7F80807F8182848528
:109D300082808080807F7B7D7D7B7C7D7D7C7E8240
:109D4000827F7F7F808587817A777D827F8285870A
:109D5000868182848381838A837472777E80808304
:109D600085827C797D8281818484817B777D8185F8
:109D700086878B837C7F80838280817E7B797A7CDF
:109D80007B797C7D7E7C797C7F7D797E8C8C827CEE
:109D90007D807F787374786D688DAC957368737A05
:109DA000727C9299897471797D808B9E9C8C818064
:109DB0007F78767C7B736B6E7B8A928E847A7474E8
:109DC0007A868D8F8A7D75787F81838B90938D8342
:109DD000817E787273777371767D7D777A807E7BF2
:109DE0007D84837B7D878A837D7E8488878C9A9C13
:109DF0008E8279726D707B7D747074787879818AC7
:109E00008376767C817E7E8788817E828E908F9617
:109E100099928275737076807A726F70747980848B
:109E2000827E7874777F878684838282878F9194FD
:109E30009A958E857A75767C7C746F71797E7C7F3D
:109E4000847E7370777D7D7C7F817D7B838A8B8828
:109E50008A938F867F7A7572797C746F72787A7A3A
:109E60007F817B77767A82848384848382868B8ADF
:109E7000878B96988F87837E77797E7A7172797DCA
:109E80007B7B80817C7175888A7F7B81877E7881EE
:109E90008C8E8989919186807E7B77787B77706ABA
:109EA0006F7A7A788082766E7584877F7C848A83E5
:109EB0007C81888681889596897E7E7D76757C7B7F
:109EC0007170777D797780847973798387848389CA
:109ED00087848887878C8D90938F8A857F79787B1C
:109EE0007D766C6C70747977787E7A7473798184FE
:109EF000858585868281898F8F9495928C858079DE
:109F000077797B766C6E777B79787A7E7B737680D7
:109F100085827F8285858280868F94938F8B8783CD
:109F20007F7B7C7F80766A6A71787B7776787873BE
:109F3000717984867F7D7F878782858E93908B8FD2
:109F4000928B7E797E83827870757C7C78757A7D41
:109F50007B797A808483807D81838285888C8D8AD9
:109F60008C8D8A857F7A7C807F796E6A7074777B2E
:109F70007C7D7774797C7E7F7E84868281868B87E8
:109F800085888C8D8B89837A767D857F716D767AD5
:109F9000797C7E7E7B797C7F8183838281838889C3
:109FA000878A8A878A8D8C88827E797C827C706B96
:109FB0006F74757A807F7B76767B7E8383838582E0
:109FC00083878687888887888A8A857C797C807958
:109FD0007071767A7B7A7E7E7B79797D82858784C3
:109FE000828486858385898B8A8A8A86827E787632
:109FF000797A7570717675767B7C7C7B797B7D80D8
:10A0000085888688888586888C8B878B8E8A8178E0
:10A0100075787D7976747476777C828279747B82A8
:10A020008281848A8B868385898B8C8A8B8D8882BA
:10A03000817B767878746E6E7678787A7B797373B4
:10A040007B818385888B898384898986898F8E86A5
:10A0500081837F767476757577797A79787A7C7969
:10A06000747A84858283868885828587888A8C8EA7
:10A070008C847F7C7877787572757B7C7A7A7E7C2D
:10A0800076767C8386878485878787858587888A97
:10A09000898A88827C7776797A7373797D7A797FF9
:10A0A000807A7A7E83827F83898985838484818391
:10A0B000888A8885807A74747B7A716D737C7E7BE4
:10A0C0007D8580727482898681878C878181848670
:10A0D00085878C8C8882807D7574787574797D7C99
:10A0E000797D8480787A808282858B8D8882828651
:10A0F00086878B8D89837F7D79757576736E707792
:10A100007C7C7B7D7B77797D81858686888A878646
:10A1100086868585898A88837D77727275736D716D
:10A120007B7B797A7D7B787B808585838A918A8128
:10A13000858A898A8D8D8C84807E7774757574721A
:10A14000797F7E7C7B7976747B828280848D8D851D
:10A1500083878884878D8D878485827771757670F3
:10A16000727E827E7B797A78757A8384838588870C
:10A170008282848486898B8C89827D767274716EEA
:10A18000747E807B7C7F7D79777F838081848786E6
:10A190008182878785868D8E8B857F7C77747779A2
:10A1A00073717A807D7B7F807B7A7D838482868ACF
:10A1B000868284868684868A8A8582807A7272768E
:10A1C0007370727F877F797D817D7A8189888184B0
:10A1D00089868182858482868A88817D7C756F6F7D
:10A1E0007070767F827E7E80807E7D808587858789
:10A1F0008B888484858484878A8985807E796F7042
:10A2000075716C7480827D7D807E7B7E8385858781
:10A210008C8A8585888783858A8C8A84807E7672FD
:10A2200074716D6F7B817D7B7C7B79797D81848589
:10A23000868686868685848688898988847E7574E4
:10A2400076726E727C7F7B7A7E7D78767B81868863
:10A250008889878181848687898A8A8682807C76BC
:10A26000747271727C83807C7A7D7B797D82858536
:10A27000878A8A87868685838387898684807B769A
:10A2800074717174797D7E7E7D7D7C7B7D80848719
:10A2900085898E8984868885838587847E7C7B7585
:10A2A00071706D6D757F827F7B7C7D7A7D82848607
:10A2B000888B8D888687878887898985827F79734F
:10A2C00071706C6C777F7D7D7C7B7A7B7F808386F1
:10A2D0008688898989898684858A8B8684837D7727
:10A2E0007474736D717D817D7B7D7D797A818787C3
:10A2F00084888D8A8686868584868785827E7B791A
:10A300007370706F798283817E7E7D797B82858692
:10A31000888A89848386858585878886827B74730D
:10A3200072706F727B80807F807E7B7A7D83868671
:10A33000878988858584828285898580807B737002
:10A34000706F70757F817E7F83827D7D8387868637
:10A35000898B888586858284898985807E787170DD
:10A36000706D6E7982818081807C7C818587878A0F
:10A370008C8A868585868687888884807C78746FB9
:10A38000696A72797D7E7F7C7A787A7E8386878916
:10A3900089878686848283868888837F7D7A7671A2
:10A3A0006D6E747A7F8181807C7A7B7E83878A8BD5
:10A3B0008C8B888685858585848484827F78747378
:10A3C0006F6E7279818382817D78797D8085888BBB
:10A3D0008C89878685858587888884807E78737157
:10A3E0006B6B72797E8081817E79777B7E83878BB0
:10A3F0008D8B878586868485888886817D78757231
:10A400006D6C6D747C7D7F807E7D7B7B7E8285889C
:10A410008D8F8C8988878686878987827F7B7571F7
:10A420006E6C6B717C7F7E80827F7A7A7D8085887E
:10A430008B908E8B89878685898B8886837C7572C5
:10A44000706B676D777D7E8183827C787B7E818572
:10A450008A8F8D89888785838589888684807974A9
:10A46000736F6968707B7C7D82837C787E8180835A
:10A47000878D8D8A8B8989878589888687837D7872
:10A4800076726D6A6D777E7C7F84817B797B7E813D
:10A4900084888B8D8B888786868787888885817A54
:10A4A000757670686B747A7A7E84817C7B7C7E7F23
:10A4B0008488888B8B898888868686878885827E33
:10A4C0007976726D6867757C7A7F84837C797E810A
:10A4D0008182878C8A88898A878587898985838113
:10A4E0007B77736F6C6A6D7880807E81817B797FEA
:10A4F0008585828A8E8B8989898586898A888480E8
:10A500007D7973706F6C6E767B7E8081807B7A7CC8
:10A51000808383898C8A8B8B8886878A8A898680C8
:10A520007C7A77736E696C757A7B80847F79787DAD
:10A530007E7E838B8D89898B8984848A8B898784AD
:10A54000817C7676726B6B71787B7E81807C797C86
:10A55000818283878B898889888585898B89848096
:10A560007F7C78736F6C6B737C7D7D82847E7A7E5A
:10A570008383868A89888A8B888487898886838270
:10A580007D7775736F696E7B7D7C8185827B7E8232
:10A590008181858A89868789878589898583817D67
:10A5A0007977746F6A6A737B7D7E81837E7C80821B
:10A5B0008384878988888A8987898A898680807B3D
:10A5C0007474746E676D797D7E8084837D7E8283F2
:10A5D00081858B8A88898A8886898C8A8785837C0D
:10A5E0007677746B676A72777C8183817E7E807FE9
:10A5F000818588888888898887898A8A88827D7900
:10A6000079756F6D6B6E77797C7F82807D7F8181BC
:10A6100083868B8A89898A87868B8B8987858178CF
:10A620007676706D69707A797C81837F7D80807F9A
:10A63000828689898A8C8A87878A8A898785817AAE
:10A6400077746F6B6A6D74797C7F81807E7E808089
:10A6500081848989888A8B89888A8A8988867F7992
:10A660007876706C696A72787C7F80827F7D7F806B
:10A670008083898B88898A8988898C8A8786837D6B
:10A680007775736E68687379797F83827C7E828048
:10A690008184898A878B8C88888B8D898887817C47
:10A6A0007977736C696B7176797F81807F7D7C7F30
:10A6B0008283858989898B8988898A898989827C2D
:10A6C0007A76746D676C7275797E82817F807D7D0C
:10A6D00080828689898A8B8A8988898A8989857F07
:10A6E0007B79756F6C6D7075797C81807F807F7DE3
:10A6F000808181878A8A8B8B8A888A8B89878480EC
:10A700007D7975716B696E7475787F82807F7F7DCE
:10A710007E80818588898B8C8B898A8C8A888782C8
:10A720007B7976706B696A71777A7D8182818180AD
:10A730008182828588888A8B8B8A8B8C8A8988849F
:10A740007E7A77726D696B7173777D80808081808E
:10A750007F8282838788888A8B8B8B8B8B89888684
:10A76000817C78746E68697174747B807F7E807E72
:10A770007B7F82808488888A8B8C8B8A8D8D898769
:10A78000837D79746F6A686E73747A7F7E7E807F52
:10A790007C7E8181858989898B8B8C8D8D8D8C8A3E
:10A7A00086807C78736E696C7272757E7F7D808125
:10A7B0007D7D818181868887898A888A8D8D8C8A32
:10A7C00087827C79766F6B6B6E7275797C7F828104
:10A7D0008080838281868887888B8A888A8B8B8A0F
:10A7E00088827C78746E6B696B7174787C7E8082F1
:10A7F0008281828381868986878B8B8A8C8D8D8BE3
:10A800008986807B77706B69696D70747B7D7D81D3
:10A810008280808382828789878A8D8B8D91918DBA
:10A820008D8A827E7B746E6A676A6F72777A7D7FAB
:10A8300081807F818282858687898A8B8B8D8E8CB1
:10A840008B88827D7A746E6C696A6E72767B7D7F8E
:10A8500080818182838385878687898A8B8D8F8E8D
:10A860008D8C86807D79726F6C6B6E6F73797A7E5A
:10A8700082818082848283868687898A8A8C8E8E72
:10A880008C8A86827F7A736D6B696B6E72767A7E44
:10A89000818384858584858684858888898C8D8D4F
:10A8A0008D8C89837F7C756F6C686A6E70757A7B1E
:10A8B0007E828383858584858585878A8B8B8E8F31
:10A8C0008F8C89867F7A766F6A68696A6C73777A0B
:10A8D0007F8281838584838685848789898D8F8F14
:10A8E000908F8C88838079716E6A686C6D70777BCD
:10A8F0007E82838383848383848486888A8B8D8FFE
:10A9000091908E8B84817C746E69686A6A6E7276AF
:10A910007B8081828584818484838686878A8B8DEF
:10A9200091908F8D89847F78726B6869676C73737F
:10A9300078818182868684868683858786888B8CCB
:10A940008D8E8D8D8984817A736D696A6B6C71755A
:10A95000787E838385888685878684848486898BB0
:10A960008D8E8E8D8984827C726E6C68686C6F723D
:10A97000767A808384878787898686868484888997
:10A980008A8D8D8C8A86847D76726A686B696D7318
:10A9900073797F81848787898A8988888686878872
:10A9A0008A8C8D8E8B88878078746D6A6A696C70EA
:10A9B00071777B7E8385868A88888B898686878661
:10A9C000898B8A8E8D8787847B76726B69696969CA
:10A9D0006F73747B8181858989898B8A8888888750
:10A9E000888A8B8C8C898A87807B766E6C6A676A92
:10A9F0006C6C73797B808587888B8C8B8A8B8A8A39
:10AA00008B89898D8C888B8A82817C73716D696951
:10AA100068696B6E72787B808586898E8C8A8C8B58
:10AA20008B8B8B8C8C8A8A8C8985837D78746F6FF5
:10AA30006C696A6C6D70747A7D8085888A8B8B8D69
:10AA40008B8A8B8B8B8C8B888A8A8484827B7977A8
:10AA500075716F706C6E6F6F74777A7E8086858586
:10AA60008A89898B8B8C898A8A8786868683807F70
:10AA70007E7E7B7778767372747874767C7A7B814D
:10AA8000827F848985888C88898D88858A88808161
:10AA900089807A847C787B787A75787B73797B7807
:10AAA000787B7C78807F7E83828585858883878795
:10AAB00083898782858081807B827D7A837E7B7E8D
:10AAC0007E7B787C7C777B7D7B7B7F7F7B807E7CC5
:10AAD000838180848280818182807D84857E82845E
:10AAE000807F80817D7F817C80837D7C827E7B8373
:10AAF0007F7983827B7F827E7A80817A81847E8265
:10AB000083818181848082847F828180828081812F
:10AB1000818180807E7F817F7F7D7E807E7F81803E
:10AB200081818180808381808080817F81827F811B
:10AB3000807F7E7F807F7E7D7E7F7D7E7E7D7E7F2F
:10AB40007D7E807F7E80817F7F80807D7F837E7C15
:10AB5000807E7D80807E7E7F7E7D7E7E7F7E807F0C
:10AB60007D81807E81807F80817F7F82807F807FEA
:10AB7000807F817F7F827D7E817D7E7E7F7F7F80E3
:10AB800080808081828080808080808081817E7FC3
:10AB9000817E80817F80807F7E7D807F7D80807EC2
:10ABA00080827F8083817F81817F7F82817F7F7FA1
:10ABB0007F7E807F7E807F7F807E807F7E817F7FA3
:10ABC000818181808182808182807F81817E7E817E
:10ABD0007F7D80807D7F807F807E7E807D80817E86
:10ABE00081827F82827F7F81807E7F817D7E807F68
:10ABF0007F7E7F7F7D80827E7F807E7E8080808062
:10AC00007F838280838080828081807F7F7F807F3E
:10AC10007E7F7E7E7E7E7E7E7E7E7D7D7E7F7E7F53
:10AC20007F7F80808183828081817F80807E7F7E24
:10AC30007E7F7D807E7B7F7D7B7D7F7E7D7F7F7D38
:10AC400080818081838282848283848083817E81EB
:10AC50007F81807F807D807E7B7E7C7E7E7D7F7D10
:10AC60007E7F81817F8383818284838182828182CE
:10AC700081838380807F7E7D7D7D7A7C7D7A7D7DF2
:10AC80007B7E7E7F807F8080808182817E7F8080CE
:10AC9000817F7F82817F7F807F7E7E7E7D7E7E7EC4
:10ACA0007E7F7F80817F81827F818382828282809A
:10ACB0008183817F80817F7F817F7D7E7E7C7C7FA1
:10ACC0007F7F7F7E807F80817E8082818080838085
:10ACD0007F817F808181807E7F807D7C7F807D7E83
:10ACE000817D7D80807E808280808281807F807F68
:10ACF0007D807F7D80807F7E80807E7E7E7C7E806A
:10AD00007F7E7F817F7F8282808082817F81817E42
:10AD100080807E7E7F7F7E7F81817F7D7F807D7F43
:10AD2000807E7F81807F818281818081828281801B
:10AD30007F807F7E7F807F7E80807E7F7F7F7D7F24
:10AD4000817E7E80817F7F83817F80818080818002
:10AD50007D7F807F7E7F807E7F817E7E80807D7D07
:10AD6000807E7E7F7F7F80817F80818082818080E6
:10AD7000807F7D7F7F7D7F80808080807F7F7E7EE3
:10AD80007F80807F81807F82818080828181827FBD
:10AD90007F807E7E7E7E7D7D7F7D7E807F7E7E7FCE
:10ADA0007F80818081808183808083828182838093
:10ADB00081807F7F7E7F7E7D7F7D7C7D7F7E7C7EB0
:10ADC0007F807F7F82807F82807F82838180848179
:10ADD0007F8180807E80817F7F7E7F7E7D7E7D7D86
:10ADE0007F7F7F7F807F7F8080828281818282805F
:10ADF00082817F817F7F807F807F7F7E7D7E7D7F60
:10AE0000807F817F7E7F808080828380818281813C
:10AE10008081807E80817E7E80807E7D7F7E7E7F41
:10AE20007D7E81807E7E7F7F7E7F7F81817E7F8130
:10AE3000807E7E7F7E7F7F8080807F7F7F7E7F7F22
:10AE40007E80818281818281808181818182817EF7
:10AE50007F7F7C7E7F7F7E7E817F7E7F7F7E7E7F09
:10AE60007F81807E8282818180828081827F807FDB
:10AE7000807E7B7F7E7D80807F7F817F7E7F7E7EE8
:10AE80007F7F807F80818081818282808181807FBD
:10AE90007F7F7E7E7D7E7F7E807F7F7F7E7F7F80C7
:10AEA000807F807F80807F8082817F818180807FA2
:10AEB000817F7E817F7E7F7F807E7E7F7F7E7E80A2
:10AEC0007E7E7F7F7F807F7F818180818181808086
:10AED00080807F7E807F7E8081817F82817F817F75
:10AEE0007F7F7F7F7E7F7F81817F8081807E808169
:10AEF0007E7E7E7E7E7E7F7F7E7E7E7E7E7F7F7F6D
:10AF0000807F81807E7F7F7F7F8081808181818043
:10AF10007D81837F7D80817E7E7F7F81807E7F813A
:10AF2000818182817F8181808082817F82837F7F16
:10AF300083837D7D817E7C7D7F7E7D80817E7B8025
:10AF4000847C7C81817D7D82807E8082817C818504
:10AF5000817E80857E7B80817E7B81807B7C8083FF
:10AF60007C7D8282818184858585838886828382B7
:10AF7000817D7B797B7871767C78778188868A92EF
:10AF8000928D8B8F8D827E817B6F6D6F6D6B6D73FC
:10AF9000777B81888A8B9094928F908D8787857D2F
:10AFA00076716C67666B71747A838A8B8D91918DE3
:10AFB0008C8C89848081807A74726D6461696E6E14
:10AFC000748088898C9496908D908E868183817907
:10AFD000736F695F5E686F7076848B888A91928BDD
:10AFE000888C8C87848889837A747065606A7375AD
:10AFF0007887908D898E928B86898B8480858985D0
:10B000007B746F666269757C818B94938E8C8D8A5C
:10B010008585898986868A877C706A625C62727E91
:10B02000828993948C8788868282898D8B898C8D86
:10B0300082716760595E6E7D828891928A817F817C
:10B040008182888F908D8E8F88776A625B5B6C803F
:10B05000888A8F928A7E787B7D7E828B908F8C8D82
:10B060008A7D6D65605A647C8D8F90939184797A26
:10B070008083838993938C89898272635D5B5A692B
:10B08000808D8E8F908980797A82878C949A968F22
:10B090008C8A806F625F5B5C6E858D898989817621
:10B0A000737A82868C969B958E8D8B817065656197
:10B0B0006273898F8985878277737A828487909576
:10B0C000918A88887F70656465657288928D8888AA
:10B0D000867C737882878A9199978C85847D716547
:10B0E0006363626C818F8D8786857F797C858B8D8C
:10B0F0009197968D868581776A646361637284898E
:10B10000848285837B7A838A8D90969B968C8887B0
:10B1100080726968646067798686807F817E7778CF
:10B1200081898C8E9395918A888780746B69676713
:10B13000717F87868281817D797B82898C8E9090D8
:10B140008D8986837B706B68636775858A8787873F
:10B15000857E7A7E878B8C8F93918A868581776DA9
:10B1600069666165758082828688837D7E858B8D28
:10B170008F9393908C8986827B726D6A63616B7802
:10B180007E7E7F82827F7D80878B8E919393918F4D
:10B190008C88837A706A646268737C7F8082817E27
:10B1A0007B7A7E84888C8F909090908C88847A7142
:10B1B0006B65646D787E818585817D7B7C808387EE
:10B1C0008C8E8D8C8E8E8B88837B757069676C7787
:10B1D0007E818384827E7B7C7F82858A8E8D8A8B32
:10B1E0008C8B87837D77716A6568737B7D7E8286B1
:10B1F000847E7C7F838585898D8D8B8A8B8C8A81EB
:10B2000076716D66636C7B817F808485817C7E86B0
:10B2100089888B8F908D8B8B8C887F75706B646524
:10B220006F797C7E8182817E7D808486888C918FFF
:10B230008D8E8F8C87807A736C65666E777C7D7F50
:10B2400080807E7C7D8083868A8E8F8D8C8D8D8A9A
:10B25000857C75726D686B757C7D7E81827F7C7D5F
:10B26000808385878A8C8B8A8A8B8B847A76746CB0
:10B27000676E787B7D7F8284837F7E8184838488F0
:10B280008B8B8A8B8B89847D77736E696C777D7DE0
:10B290007F8485827E7E82848383888B8A8A8B8B5F
:10B2A0008A857D75706C6A6D74797C7E81828282FC
:10B2B0008282838486888A8A8A8C8C89837D77714E
:10B2C0006B686C7478797D818382818184858587C0
:10B2D0008B8D8C8C8D8D8A837C76716B696D73758B
:10B2E000787C7F80818181848586878B8C8C8E8F12
:10B2F0008E8B867F78716B6B707476787D80807EA4
:10B300007D80828284888B8A898A8C8A86817B77F9
:10B31000716D707678787B7F807F7E818383848671
:10B3200089888888898987837D77716C6D72767743
:10B33000797E81828183868889898B8B8A898A89B3
:10B3400087837E78726D6D717474757A7E80808269
:10B35000868A8A898A8B8B8A898A8A87817A756F9D
:10B360006B6C707274787C80828385878888898C06
:10B370008C8A8A8B8A86807A746E6A6D717375780E
:10B380007D7F8081848788898B8C8C8C8C8C8B884A
:10B39000817C77716C6C717575767B7E7F80818422
:10B3A00085868889898989898986827D7975706F82
:10B3B0007276787A7B7E808182848688898A898881
:10B3C00088888784807D79736D6E737577797B7ECD
:10B3D0008182848688898A8B8B8A89888886827D07
:10B3E0007874706D6F737576787B7E8081838588C5
:10B3F000898A8A8A8A8A8A8885827F7B7672727431
:10B40000747475787B7B7D818486888A8B8B8B8C2A
:10B410008C8A8783807C7673737372727375787A83
:10B420007D808386898A8B8C8D8C8B8A8783807BB9
:10B430007572727170717375787A7D818588898B68
:10B440008C8B8A8B8C8A8582807A75727374747403
:10B4500076797B7E8184878A8B8C8C8B8B8C8A8798
:10B4600084807C7671707272717173777A7C7F835D
:10B47000878A8C8C8D8D8C8B8B88847F7A756F6C92
:10B480006D6D6D6F7175797C7F83888C8F919191D3
:10B490009293928F8B88837C7673727271717375BD
:10B4A00077797C7F8287888A8D8C8C8D8A8786824B
:10B4B0007C76716E6D6D6D6D6F74797B7F8387891E
:10B4C0008C8D8C8D8B8A8C8A8688847B7673706F4A
:10B4D0006F7174797D8183868A8A8C8E8B8C8E8D38
:10B4E0008B8A878079756D67686A6B6C72787A7CF5
:10B4F000818486898A8B8C8D9093918F8B857F79BF
:10B50000736E6D707171717577777B7F81888E8EA8
:10B510008D8D90908B8886817C77716D6D70727344
:10B5200076797C7C7E8284878D9093979693949293
:10B530008D8884807B757273716F70707175797D81
:10B540007F82878987858787858483817F7C7672E0
:10B5500071727171727475787B7E83888B8D8E8E1B
:10B560008F8E8E8E8E8D89858079726E71706F73DD
:10B570007677797C7F7E82868686888B8B8B8C8B98
:10B580008986817C7773717372717375787A7D8027
:10B5900083888A898C8F8F8C8C8D8984817E797445
:10B5A00073716F6E6E6E6F7376797D818587898E0C
:10B5B0009292929494918D8A87807A767473706E49
:10B5C0006E717475797F838687888B89878989896D
:10B5D0008B8984817B746C6668666265696D72783C
:10B5E0007D81878A8B8E90929395979794928E8681
:10B5F000817C747375747475797C7C7F8082858698
:10B600008B8F8F8E8F918D8784817B736C6766673C
:10B6100065686B6F7375797C8086878A9092919349
:10B6200095938F8D8B89827B7873706D67666A6C5A
:10B630006E757A7E81858889898B8D8D8E8E8D8CB5
:10B640008A86817B7674726E6F727374797C7E8366
:10B6500088898A8E90919395979491928B817E7729
:10B6600070716F686868696B6A6D7577797F8486B9
:10B670008B8F8D8D9293908D8D8A827B77736C6882
:10B6800068696B6E72777B7F8383878C8E929397CA
:10B690009D9C9897968E8480786D6D6C6665696CBC
:10B6A0006F767C7D82868586888D8F8B8E918E8A43
:10B6B0008786827A73726B646363666B6D7173796C
:10B6C0008181848E91919595929494908F8E8780AC
:10B6D0007875736C6C706B6B76797980868A8F92D3
:10B6E000918F9296959597928E8C8077756C63600A
:10B6F0005F6064676D72777E7F7E84888A8B8D95AC
:10B7000097959894908D847E7C736F6D6B6C696C4B
:10B710007778757C858A888489908D898A8D8F87D2
:10B7200087887874766F7372656A767574798184A8
:10B730008589898C94949195978F8D969389837A36
:10B74000706F6C64636469747677808380848F8E95
:10B750008A91959599948F8E888884736F716660AD
:10B7600062626871716C7384827B82858688899C31
:10B77000ABA299A0A08F8A9298988C7C79818080C6
:10B7800088858A918C8E928F908E888177736B5684
:10B79000433B454E412C221F181C303B312B354674
:10B7A00046414C4F4A59707B899089878F97A0B149
:10B7B000C1C7D4DFD8D1D3D1D6E2E9E7E2E1E0DFF7
:10B7C000E0E2DDD5D4D6C7B4AFA391887F7A7A7290
:10B7D0006E6D6258595E615B51514F433C4041363A
:10B7E0003441403532312A23211E1E241F1A2325BD
:10B7F00021263036353A3A323F5252485053485754
:10B80000675F5A5D595862676F7C7A74808C939930
:10B81000A0A5ADB0ACB0B5B1B1AFAAA8A49EA0A48C
:10B820009E9FB1B7B6C2C5BEC6DBDEDBE5E5DBDE9B
:10B83000EAEBE1DDDDCDC0C1BEB9B9B8AEA6AEB2AE
:10B84000B4BFC0C2CAD1D9D6D4D6CBC3BCB3AC99CD
:10B850008A83796F635C564443514E4A596A6B68D8
:10B8600071736E6F6D696661605A5352493C353031
:10B870002E353D3E3E464A495361605A5A5A5C5DF8
:10B880005856534A413B372D222520161D24272A7E
:10B89000292F3531343D44535848445559494F5C5C
:10B8A00054505657555B62626777868D94A1A9AB59
:10B8B000B0BBC6D1DBDDE2E5DEE0E8E3E1E2DEDEFF
:10B8C000DEDEDED7D4DADBD3D3D7D7DAD7D3D5D001
:10B8D000CBC3B8AC9B8C81736A68655D53504E4591
:10B8E000424649505A5B5F6862606D6D6E7979714E
:10B8F0006E7379756F6C6A6965666F797A70758336
:10B900008A9CADADABB2B5A8ABB5ABA1998D867F26
:10B910007673716864666463645F6171787A838A40
:10B920008A84888E827A75625A605E606864616615
:10B930006D70758188898E8E8FA0A9A6A49F9E9B0D
:10B94000938F858186807F8887818182808691918F
:10B95000969FA6ABA69A9080746A5C594A3A382C96
:10B960002B312B343C404B484B5B676D635E655D10
:10B9700053514F4C4B493B3948494960778191A11C
:10B98000ADB4BBC7C9C4C3BBB3AB9F9E9D928E87EA
:10B990007470756A6C83837D8D958E90928B857F94
:10B9A0007C7D756B6C6C6C6657585F5E6679858CB8
:10B9B00099A5B0B6B7BDBDB5B1AAA49E979A978711
:10B9C00080817C7D85868A8F8E95A6AFADB0BDBD0A
:10B9D000B1AAA293887C6F685C52473C424A536389
:10B9E0006D7A828A908D9599929A9D969C9A928E64
:10B9F00080716862616E7D7B7F8E969DA6A6A6A6ED
:10BA00009C9696908C8378756A5D5B493F4A4F5847
:10BA100063656B787E7B83867670746C65665F5930
:10BA2000514B4A362C454E3D4D615B6B7C7E8A9373
:10BA30008D8B8D8584867E8387848A837A848A8FA2
:10BA4000A0ACAEB7C7CAC9D1D0CDCEC7BBB5B2A81E
:10BA50009E94856B5E6A645767716B6F716D6F6ED4
:10BA60006D6C6F685B5D5A555247483F2E3C424BA8
:10BA7000686A6D828989919F948993897F8380798F
:10BA80006967715C4D67726A778B95A1A8A9B7C089
:10BA9000BAB4AEA59B958C86877F776A5D605F663A
:10BAA0007B848B9699A5ABA9ABA8A49F99938B8512
:10BAB000818379605F686771736F858F8491A59FBB
:10BAC00096A7A891908F847F7B756F68574F575DBD
:10BAD000656F787E7F858789948F80837D696568AF
:10BAE000625B57463A3F474C4F5C6B707881858B61
:10BAF0009797918B8A908D8C8E86827E6D707D78E3
:10BB000080939FAEBABFC0C3C2C0BFBCB2A7A59A44
:10BB1000939B927D706D655E63606A79716B7578D9
:10BB2000737876686662595D5F5552584A3E474A57
:10BB3000576A6A727E84898C979A9898938F8E8DB3
:10BB4000838280736E686A736E73838D8A929C9809
:10BB5000A2AAA1A09C97958B85796E70624D4F4FDC
:10BB60004857666F80868D9991919C969299978F90
:10BB70008B8B907B696C64626365757F858E949D09
:10BB80009B99A3A4999999908C888383796B635A24
:10BB9000565A656B717D7D838D8B8B857F7C75712E
:10BBA0006F706A60574C4A453D414D5B61616B76F1
:10BBB0007E888F8D929BA0ACACA9AEA5A6A5908BDC
:10BBC000857A8793999B9FB0B4B4BDC2BDB9BEBC02
:10BBD000B1AFB6AE9E9D927664544B4E52585654B9
:10BBE0005E65686C6A656C706870756B6E6F6259C3
:10BBF00054504B484746505C6068747A7D83847E1D
:10BC00008182868C84848C8A84776D71756E6F795D
:10BC1000788492929BA0A19E959C9D969892857EF9
:10BC20007A73717066676E6C767A78879195969A5A
:10BC3000A29DA8B6AAA9ADA59D928E877A75716BB3
:10BC40006B72777B8487898D8F9392908E93978B7D
:10BC5000807B7A776F6B655C5C5A5E6B6A7074721E
:10BC6000756F71796B646C6D666364605E60574A72
:10BC70004851565B6A7075878F9399A1A39BA1A8C1
:10BC80009D9BA09DA6ACA5A6A49B94929AA19E9FC5
:10BC9000A5A1A0ABA9A6A3978D8178786F6E7268D5
:10BCA0005D544D48454646494F535D696F757E7FEB
:10BCB0007C7A797D817E7B7A787873696A706F6E21
:10BCC00072747782888A8F989E948F8F8D91918CD1
:10BCD0008B868588847E7E7B7D7C787F83828A8C40
:10BCE00086807978797A817D787D7B78726C6F6EC9
:10BCF0006E77797C8C91909395989291948C8F9992
:10BD00009492948D878379737375787A7D81869008
:10BD10008C84898A8988858484827F7F78706E5F2D
:10BD2000535555565F63606B76726E757771706FA1
:10BD30006C6D6F6D6E7071716D6B717882848795AB
:10BD40009D9C9B9FA5A3A5ADA9A8AEAFAFADACAD83
:10BD5000A89F969393999A939290877F7C76737B12
:10BD60007B6D676A6760605F5858564F52545159EF
:10BD70006561616D71767A7D838686868883838727
:10BD8000837F7E756E6C696C737A79768083828E20
:10BD9000938F949892929490948B80807B77736D1C
:10BDA0007173706E71767C8387899094918E909177
:10BDB00090918D89888483867F7B828183847E862F
:10BDC000928D8B919396959194938A8687827673C0
:10BDD000756D6B716C6A7275787B7B7C7A7D77721E
:10BDE0007B73676A625D60534F564D484E54565B95
:10BDF000686B69747A7E878C919594979A97948FE3
:10BE00008E94928E8F8F8F98A2A3A8B0B5B7BABB2D
:10BE1000B9B8B1ACA79D9A98938B858076766F65FB
:10BE2000717065686E6B63666262675F5E635A52CB
:10BE3000565951555D5E636B7273747B7F80838648
:10BE4000888E8D87888586827C827E797C797879D8
:10BE50007D8485888D8C8E949697938B8784837E42
:10BE6000737875666A6C676C767A7D84898E909239
:10BE70009797959392928C8A8D877F80817B7A7B2E
:10BE80007C81878E919698979793928A8181787317
:10BE90007575746C6F75737E89858C928B8A8D87AE
:10BEA00083837E77726A62605954534E4F51535662
:10BEB000576268656E76777D82888F8B8A8B8B8ED2
:10BEC0008888918D8E958F93A2A3A3AAAFB6B5ACA7
:10BED000B0B6AEA9A89F98928B8C887C7C776F6F48
:10BEE00067687271717574756E686D6B615E615BA8
:10BEF00053545452515A5F606F75757D828989869B
:10BF00008E8D888D8E85807D747174737677797C43
:10BF10007C828B8E8F9193979A999791877E78796F
:10BF20007466696E686B6C666E757B7F818B8D8CB9
:10BF30008A88908C888B8A8981868D878C918C8E5B
:10BF40008F8A8C92979A95999C908B908B7E7B721E
:10BF500063656A6B6B6D79797D8D8B868D8C8B8734
:10BF60007F8583767E7B685F605D52545C53545D51
:10BF70005C5E6065696972756F787E7C8381777AB3
:10BF80007A76767E899093949AA6AEAEB4BCBCBD08
:10BF9000BBB5B9B8ADA49B928C868A8C8789898001
:10BFA0007A787675767877736F6D68615E5A5351DB
:10BFB000504D4B545C5D6771717B8886878C8B8A92
:10BFC00084828886837F79716C6B6968727A7B7DE5
:10BFD000828787868B8A8B918C8C928C87878175E0
:10BFE0007076706B787A7778757A83818386868E9F
:10BFF0008E817E88877D7E807A79767C86878E9218
:10C0000093959493949BA3A39E9E9C9489878574F7
:10C010006B6E6769727271787D7C868D888D8F8D6D
:10C020008E8680817B746E655C585856565D64665A
:10C03000696A6B6A6B6F6D7578747C7D77787C78D4
:10C040006C6D706E737F8C91919BA19DA3ABA9AA1F
:10C05000B2B3ACAAB2B1A7A19D9A918D94909092DF
:10C060008783867F787575787771716E6560616199
:10C07000544E504C52595458686D6E7D82828B8F4D
:10C080008C8E8F8D90928A847C716D6A6F77757AB1
:10C09000837F7C7F7D8285868F8E8E928C85837F49
:10C0A0006F656B6B6568787C7378817F7D888B8822
:10C0B0008E8F8B8886888583807E7C777B83848B3C
:10C0C000949696999792969B9D9F98989B8C878E15
:10C0D000807377706B73717378797D858C8A898AA8
:10C0E0008C8B82807D77746E6861595853535A5790
:10C0F00059605C6265626B6E737F7C7E86817E8335
:10C10000867D747574747C878C8A9098959AA7A99B
:10C11000A7B0B1AFADAAAAA69F96939388898C8940
:10C120008E8D87878B81787E7D7B7D75727067674A
:10C13000685F555550484D514F5561666B797F8109
:10C140008A8B87878A8A8A8B898780797A79777AB6
:10C150007F7E7C7E81817F8486868C8B8D8F898497
:10C16000817E736C706E696C76756D707473788097
:10C170008382858C8D848390908B8B8A868386883E
:10C180008E968F929C968F9196969697959A928777
:10C190009087797B736E6E6F7473788282889590C6
:10C1A0008C938D8787827E7C78726D645A58555146
:10C1B00053545357605C5B656769707677757E7D15
:10C1C0007983837B7C7E7C7E848F95949A9C9CAAC9
:10C1D000ADAAAFB1B1ACA7A6A7A49B999A908C8C3D
:10C1E0008688878187877F807C767C7B767A766F6E
:10C1F00075766964675D4F4E51504E535E5E66774B
:10C20000777B8682848E86818A8B85837D7473702A
:10C210006B70726D747F7F828B8C8E9294979797E0
:10C2200091898C847774746B6165696865686D6DDC
:10C23000797E79848C89858183888E8C898D8C8C9C
:10C240008C8C9493929B9D9C9C999BA19E9BA09D62
:10C25000979792867F80796E70716B686F706F7C34
:10C26000827F81878884848481817E7E796F6B65FB
:10C270005C5855504E545551585E5B616E6E727EDF
:10C280007E7B858A8280847F7B7D8187888D949662
:10C29000A0ABAAA9B1B5B6B6B1B3B0ABABA39C9CE9
:10C2A000918888827A7679797774707577757675E2
:10C2B000736D6D696367645A5758514D595F5C657A
:10C2C000767A7B83898B87868A89888786837A7B3F
:10C2D000797476726F6D747D787B8381848E8E8E97
:10C2E0009D9A90939189837F7D726A6A6D6A676B6C
:10C2F0006D757975797F848382848A8E8E9390851B
:10C300008B8C818385818792939597979EA19FA01F
:10C31000A3A29A9995878B887775756A6466696711
:10C320006B7B7C798486828380827F7B7E76707053
:10C330006965625E5D58545C5F5A6264616D7170DC
:10C3400076817E7984847D807F82827C848A858BDD
:10C3500094949EA4A0A6ADAEB1AEB0B5AEADB0A75C
:10C360009EA3A1928C867D7B7D7974706F73706BB8
:10C370006E726D696A66626662595E594D505554B7
:10C38000556172787C8893918F98989497978E874F
:10C3900089837E807A746C676F6C6D787978868B10
:10C3A000848E978D878A877C7E837C757175706695
:10C3B0006D6F6E797C7A828A888888888F8A8A9263
:10C3C0008A83898C89868B89878C8D8D8E8E9090BF
:10C3D00091979D9B9EA09291958B84857F6F6C70A9
:10C3E00066637079767A8586858383858586807C89
:10C3F00078716A63605E574C474D4A4C59595B6986
:10C40000706E7B8A86888D8B86868B887F84877CFE
:10C410007B848286959596A4A8AAADACB0B4ACAB4B
:10C42000AEA19DA3978B8C877C7B79747876717590
:10C43000757071767171756A696D635D5C5A514D85
:10C44000565352646F70788888868D939595989727
:10C45000928E8B8A848487776E706D6A6E74747620
:10C460007F8380899086898C848384817870736CC3
:10C470005F606364676F747A868B8C9192949C99E9
:10C48000979D939098918C8D867F838480858787F4
:10C490008C8F92979A989C998D92928682817A6CD1
:10C4A0006A6C6569747879838B89878889898887BC
:10C4B0007F7C7A716661605B50494B4B454B5454AD
:10C4C0005A676A6878857F868E89878F95898B956C
:10C4D00089838D8D8B949B959DA9A6A9B1ACA9AF9D
:10C4E000A9A5A9A09B9A9189857E7675726E716FB8
:10C4F00070757470777D787B7A707372656263583B
:10C500004C50524D57696C6B7B8582899192969CF9
:10C510009891928F877E8081746E6E6B6C6D777C44
:10C52000797F8787858E928C8B8B847D827E6D6CE4
:10C53000695A5C666566747876818987878C8B8D8D
:10C54000949094968F91969492928F8D8E8C8E93D8
:10C55000908E93958E9499929289838B857E807D1F
:10C560006D666A66656A747978858B888A8C8C8C2E
:10C570008F8C85828076646669584D4D4E4B4C5445
:10C5800057585F66666B7B7E7B8386818289868057
:10C5900082807C83898B96A2A1A5B2B8B4B5B9B2CA
:10C5A000B1B3ADACAAA197938E837C77757571708A
:10C5B00073726E73736C7273707269676E686064A5
:10C5C0006456535B59586572737B8888888C908F4A
:10C5D00093978F8C8C8B8779797C716A6D6F6C6F78
:10C5E00077797B7E85868591938C8F8F8581837A01
:10C5F000706E6760616766687478787D868480890C
:10C600008C8E91909698949190908F8D8A8D908C2D
:10C61000929997959E9F9AA19E9D9E8E8E93857AC4
:10C620007F7863616861606B75777A848785898BB1
:10C630008685877D797970665F5B59555252545271
:10C64000555F636167706D71808183877E7B8082B7
:10C650007D7A7B7C7A7E858B939799A4AEB2B5B4B4
:10C66000B7B9B5B1B0B1ABA49C938D85807C75731F
:10C67000707278747177746F777875746C6B6B63A4
:10C680005F5E574B4B5251566570737E898E939502
:10C6900098999D9E939091877D7573716B6765677F
:10C6A000686A7178798088858C95918F908A81806D
:10C6B0007E736F6C656568696F74727682878A8B2A
:10C6C0008B9194949395969192918987878585858E
:10C6D00087888E938F909998979D9F9E9D9896920C
:10C6E0008B8885776665655F606A6C6D7A807F820E
:10C6F0008485888887827D78726A5F5D594F4A4B4E
:10C700004B4A505960636A75757B8B89868D888129
:10C71000898C7E7E857A768082838E9092A4ADAF5E
:10C72000B5B6B9B8B5B1ADAEA7A59B8D938D7F7CDD
:10C7300077737275797473797570777671726D68C5
:10C740006562625D59514D525054656D6C798583B7
:10C750008D94929A9B999794918C89817F7F736E27
:10C760006E6866686E71757D8081848C8B898C8122
:10C770007C807C74737266626663666C6D74848A96
:10C780008B95969CA49B9EA49C9EA19A9395928B1C
:10C7900088827C7C8387848D949296979C9C9294CB
:10C7A000908988878176716C6764646B6E72797F1B
:10C7B00082848886878B85847E72716A5E5F60550D
:10C7C0004F5148444E53545C67696E7A7F8489891F
:10C7D000898991939092908F8B8B8C898E9296A45D
:10C7E000ACABADB2B0AEB1B2B1A9A9AA9E98948FCC
:10C7F000867A736A676D6C696E716D717374787126
:10C800006E6D686866635B575A545358585D666D21
:10C810007683898F94959E9C97988F8D8D84828244
:10C82000817974726C7078777A8487838B8C858B2E
:10C83000867C7E7D7773726B686A656464646A71F6
:10C840007B84878A9095969CA1A0A3A6A4A2A49E6F
:10C85000999C91868480828482878E8F8F94939016
:10C8600092908B888784807A72747162616462644A
:10C870006C747A8488878C90908B847D78746A68D5
:10C88000665E6058484748494D535E676A737D7ECF
:10C89000858B85878E8A8C908C888F9087898C8DEC
:10C8A000959FA7ABB1B0B0B5B4B3B0AEAAA19E96F8
:10C8B0008C8B847D706564635E6268696A6B6F737C
:10C8C0006F70746D696F726F6C676568615C615AD7
:10C8D0005A696B737F83868B909393918C8B88813D
:10C8E00085867D817C66676C686D70778281848ABD
:10C8F0008C908F8988898581807C7777756762665F
:10C90000616372777882878891989B9DA0A3A1A18B
:10C910009B9A9C9696928482868287939091969514
:10C920009B9B989A928C8F8D847E777675696461D3
:10C93000565B67686C7578777F8584847D767771C0
:10C940006C706B666D6351524F494E5861666E79DB
:10C950007B7C878A868C908D909292969993898918
:10C960008B878C98A09DA1AAA6ABB3B3B5B2ADAC92
:10C97000A496979786837B6967635A5F6664666D42
:10C980006F72727379747176726B6C6A6B6E645CC1
:10C990005B565B686E767B80888F929395928B87CF
:10C9A0008382827B7C7E726764635F616E76767D54
:10C9B0008686888C8A878787888B8781848682751C
:10C9C0006C6D6967727B7D818A8E949B9C9E9FA013
:10C9D000A19B979B978F9188797878757C878786BC
:10C9E00090969596989A928E92908F89807F7A7081
:10C9F0006B605A605E6370727A82818587857F7B07
:10CA00007875756F686A675A504D47464B56626530
:10CA10006E7A7F858A8D8D8E919095999598999350
:10CA20008A8789868C9CA1A0A8AEACAFB4B0A9A817
:10CA3000AAA69C9695867D8174635F5854575F5E65
:10CA40005B656B67666F716B6F757272736F727413
:10CA50006A635D606B6E7882848E9B9FA2A7A59DA2
:10CA6000999795958F88877E716B615C5A58636B37
:10CA70006A747F7E7F818183848284857C7A7D7BDA
:10CA800071646266656A7C84848F96969BA5A49F78
:10CA9000A4A8A1999F9E8C8C8A76727672717B86EF
:10CAA00083869595909296958F90928E8E898184AB
:10CAB00080726A65696B6C797F7F868D8D8D9089B8
:10CAC000817F7B78746E66655C4C45464742495C65
:10CAD0005D5E6B72767E817D8489868A918D8A9176
:10CAE00090847E8188868FA2A4A5AFB2B1B6BAB277
:10CAF000AFB3AEA7A39F928684736363615B5E6AE4
:10CB00006C6A6D7474717371716F6E706C6C666445
:10CB1000685E575558656D73818E939AA3A7ABA82D
:10CB2000A3A29894928A85847C6C6562605F5B6145
:10CB30006C6E717A7A777B79757777767673696BB5
:10CB400070665E60686A6D7E8C94999DA2A6ADB297
:10CB5000AFAFAFACA7A4A09991877C777B79757EA6
:10CB6000848384888E8D8D8D8A8C8B8A8987837847
:10CB70007572696867656C777C828C9496979B9BCD
:10CB800095908A7F797468616251403F4140414885
:10CB9000525C5E6474797B7F7E828582848B878021
:10CBA0008E8C7D81898C8C98A6A8B3BDB8B8BDBB8E
:10CBB000B8B7B0ACA69B938A8379695E5D635C5B12
:10CBC00068686A6D6E74747372757A767477776E4E
:10CBD000686C645B5D5C5F68707680898E979EA1EF
:10CBE000A2A2A29893928D89878174656061615C2D
:10CBF0005E6C74747A848786847F81817A797B7095
:10CC00006A71695F5D5B6061677A808796999CA6AF
:10CC1000ACB0AFADAFAAA2A5A097928C837D818165
:10CC20007A808482828A908D8E8E8A8D8C88868688
:10CC30007F797A726C685F6466666E757C858D90AC
:10CC4000929494938D86837F7A7570655A534A487F
:10CC500046414E57535D6B70777B787E807F8B8D1E
:10CC60008C95969192908A888785909C9DA7B0B369
:10CC7000B8B8B7B6B1ADA79F9E9A8A818274666133
:10CC8000554E505052535A656A7077777779797A52
:10CC90007B7B7A75777B736C6C6A66697076818B47
:10CCA000939DA3A3A59E9599989396928683807849
:10CCB00071645B62625D656E6D6F76797C7B7A7E96
:10CCC0007D7F84807B797875726E6963676969732B
:10CCD0007A7E88959EA0A2A3A7AEB1B0AEB0ACA656
:10CCE000A39C948B847C70757974787C7A7F85881A
:10CCF0008B8E8F918E92958D8781797372726B680E
:10CD00006967696E716F6B696E74757A7D7D7F7C02
:10CD10007C7D7370706A67696763615A575C595AA2
:10CD2000666A7280868996A0A1A4A7A8AAACA9A5C4
:10CD3000A5A7A49E9D9B9388817E7F817D7D818216
:10CD40008687838687807C7A7572716C666C6C606E
:10CD500063645B61645E666B686E76777880888AF0
:10CD6000939E9E9CA1A097908A898C8480837D72DB
:10CD70007072696366646466686E727473777C77D8
:10CD8000757676757472737878747373717078775A
:10CD9000727C81828B8E9497969BA1A5A9AAA9AB40
:10CDA000ABABAAA4A3A49C9894918E85807E7A7440
:10CDB00072746E727A7478827E80858283807C81C0
:10CDC0007C7D847B79807A71696463605C5F685F75
:10CDD000545F625B63645F67696D7C7B77797C809D
:10CDE0007B7A8584858D898B918D8F8A8B8D8993B4
:10CDF000928F94959A999AA7A89E9EA2A2A39D9776
:10CE00009692948A82857D76756C6C6F6A67626192
:10CE1000605C605F5F6662667170777777807C7C4C
:10CE200086878D9594959896958F898C8984888A24
:10CE3000857E7D7A78786E6E746968726F6A676CC9
:10CE4000726563726D69757671757B79777A7A7BB5
:10CE50007D81848388908D90989897919599949CE2
:10CE60009D9B9EA0AB9F96A1999497979391908933
:10CE7000868689837C847F797E7D7A7673706D6BFC
:10CE80006A686C6D6D707174726F6C66686B6A6FD6
:10CE9000716C6D7072706A6C716C6B7375706F729F
:10CEA0007472737B7E7C828483878C8E8F8F8E914D
:10CEB00096979797999DA09E9FA3A39E98969696C6
:10CEC000928D8E8A868C827777746F68656E6C62BD
:10CED000646865646B6C6A6D6E74756F7777727574
:10CEE0007274797B838886888D918E8A878B8987F7
:10CEF000938E85878481817C7B7B75727775727058
:10CF0000696E6D666D6B666F6E676B6F6F71757551
:10CF100073787D81848A909295999E9F9C9E9B9A1E
:10CF20009E9EA2A2A1AAA69D9B9997928E8F908D5C
:10CF300087858583838281807C7D7F7C7C7E7978F8
:10CF400078726E6F6D7275727173776F6B716863E3
:10CF50006F7068666B6D6B6B65666660656C6C6C3C
:10CF60006A70757277818380868E898B9492919195
:10CF7000908F90979794989C9B999FA39B9B988F39
:10CF80008D908D82848A84837F757473706D6E77C3
:10CF9000746C6E71706F7374716F7378737579756B
:10CFA0007474737373787F818181888C868787809E
:10CFB000838D887D8084818381797C797376737396
:10CFC000756C7071666C6F68686E6E666D76726F88
:10CFD000727574737B81818890949499A4A4A0A5A0
:10CFE000A2A1A8A9AAAAAAABA9A49C9B989394922F
:10CFF000918F898A8582878382817C807F78787A05
:10D000007670726D646B6D6B706E6D7273706F6F36
:10D01000696A706C696B6B6E7069686C67666F6E5D
:10D020006F74707179777B817F82898B8C8E9192FE
:10D030009394929295979996969B9A999C9E9A937F
:10D04000928F8B8E8A858B8882847E787774716DBF
:10D050007177726D6F6D6E74757474757C7F7A798B
:10D060007B7576766F6F75777A7F8180868A868307
:10D07000817E8087837E848280847E7B7C737479CA
:10D08000757777707176736E706F6E6F6D6C6F728F
:10D0900075757573757A7C81878B8C9095969DA13B
:10D0A0009B9C999BA39C9EA8A2A1A69F999A9A96A5
:10D0B0009192928B8887828085827D7D7D7E7C792E
:10D0C0007879756F6F69656A68676E6D6C71706D80
:10D0D0006D6A676A6F696A6E6D70716A6B6F686A94
:10D0E0007371717373767A797D8384878D8B8C925B
:10D0F000909092928E8E93959698999A9C999A9EDA
:10D100009794948A888B837F837E7D8078767873EA
:10D110007374747773717271757A777677767D7DB3
:10D120007475797673737273777C7E80818287875A
:10D1300082807E7C807F7B7E7D7B807D767B7C7326
:10D14000757B7774767374757071726F73747070A9
:10D1500073767372757171797E80878D8E92969CCD
:10D16000A09FA09B999FA29EA0A69E9DA39B9897DF
:10D1700096938C918E878A82818987827F81837F33
:10D180007F79787C7874736E6B6E6E6F6F6E6F6E76
:10D1900072716A6664656765686A6B706C676D6FEB
:10D1A000686970706F7171797E797C8283888F8EE7
:10D1B0008E94989694969590969B95989C9A98980C
:10D1C0009C9A94928C8989878383847E7F837772EB
:10D1D00075726D6B70706D6F6C717A767679777B26
:10D1E0007E7C79787A7575776D6D787A777C8684B0
:10D1F000878E888389867C82837B7F827C797A7D17
:10D200007A74767677776F71766E6D75726D7271EE
:10D210006A6E73707678717677767D848A8C909456
:10D22000949A9B999E9C9BA0A29FA0A5A19FA59E1E
:10D230009A9F989196968F8F8F8384908A81878A00
:10D24000888A857E80807674715F5E6A655B6368BC
:10D25000636466616065635D64655C697163606B8E
:10D260006F68636E747171757B80818285848C9B1D
:10D27000988E939697978F91999291989497A2A14F
:10D2800096949F9F95958F898D81798581717A82FA
:10D2900070697675686770716C6F5C3A38332B3FD4
:10D2A000392B7BDBDEC7CFD6D0D1BC835D51463C6A
:10D2B0003733343C444E5A5144464A5B7182B3E1A1
:10D2C000E4E0DDD1CFD3CABFBCA48786703E201670
:10D2D000212A2525293232272831323A505D6E8E97
:10D2E0009792A9CDD9DCD6C9C6CDDBDFD8D3D1CFB3
:10D2F000C1B0A2927D5533322E22272A3547444CA5
:10D300007486736F7871717E849AC5DFDEDADACC49
:10D31000C5C2A983696A746A564A3F2D2529272404
:10D320002A33322A2B303A4D5B636C7485A1A59F5A
:10D33000C3DCCAC7CECBC2C4DCE1DBDDC9A48F87A6
:10D340007B7064554D5A68594B4D494C4A4C585066
:10D350005F69597B9779719ABEC3C1B2ABBEA96FA1
:10D3600067878D7F705C547594776068564B534C1B
:10D370004C61696068756F6264809A927D8A9C9640
:10D3800092877FA0A793A09D86808D9A866964521C
:10D3900041586A5A607E7A73858F95937F747A9725
:10D3A000AD9E939AADAE9CA29B97B3B0A29C87739F
:10D3B000708074586F90897A756054696465898F3C
:10D3C00072789CA7ADB1A29EA4A79D93947F71751E
:10D3D0006C80957E6D6C69746F473B575F535656F2
:10D3E0004A56635B687C7665595F67646A7187A19A
:10D3F0009894A6ABA7A0A4AA9E9A9D9293A199994E
:10D40000ABA79A938D929B9E99887E7F7C6D697164
:10D4100067667B6C56666A606159546D8179798361
:10D420007C72839384797D7B78777B7D7876848B1F
:10D430007D7B8F9FA0A7AB998C908F828781656938
:10D440007172827761635E505961565D6A5E5B6A94
:10D450006866747F898F8D95A2A19C94949186882B
:10D4600084869794888A9190887E7B8F9B86737F31
:10D470008E817B8073748076727D7C7682939DAC86
:10D48000AFA0A4B8BCBCB9ACABA78767666C5B584F
:10D49000625C5E70756E72736D7175716F736552DB
:10D4A0005E66646760636E696769656D6F68747FE7
:10D4B0007E7C7C7B7578776C7288928C90A0A3AA16
:10D4C000C4CCBEBAB6A99D847476675F696D6D7071
:10D4D000889E8E869390908F796A6A5E4C4E5348F0
:10D4E00047575D617087979194A3ABB0AEAEA89398
:10D4F00087807B7B7065676C6C748789899EA69733
:10D500009299957E6F69605C46314758546C8D8B5B
:10D51000878D847D7E797476796B666B5E596B72CC
:10D52000707F9CA7A7B1B7B1A69C9E9F989390844B
:10D530007977706E797B80989D9BADB2A29DA6A6EF
:10D540009A97856A6B6659616C788893959AACA6B0
:10D550009595887980836D5A564434414C546A7449
:10D560006D7A9086737173747A7B6553544A3A442A
:10D57000575F646E7A899C9F9CA7AAB0B6A69B97BA
:10D58000887B7174889091A9BEB1AFBBAF9FA09901
:10D59000888E8F6F6061585C666461697B7A768182
:10D5A000777083817B8B8A7267645B5C64676C775E
:10D5B00083888B8D9299999DA8ADA68D7D735E5CB5
:10D5C000635D6A81888B949B978E877D716E73648F
:10D5D0004C473E2C3E5E666A7A8C93919A9C868973
:10D5E0009283888D7E7B7B7B878C8C969CA2B1B44A
:10D5F000A7A6AAA8A39EA09785807769666A6F7A76
:10D60000848D9A998D9EAC948D97968F80746C6260
:10D6100063696A6A6974847D798D8C767A89847F7E
:10D62000785E53554E5259585E686E6E67697A79C6
:10D630006E7B87827A705F565E636E848C919FA941
:10D64000ADABB0B4A4A6B7B0ABA98C726D6B717E54
:10D6500084838FA5A5989C9B84808D8272736A5366
:10D660004E504C575E596A84837C89978F88979572
:10D670008E948B7A6F67646B73787E888A868A8EC5
:10D680009496919BA9A99B88796F685E585E5A56BB
:10D690007179697176696B787C787B76605C6253AE
:10D6A0005365636479848AA2ADA9AFAFABABA59A89
:10D6B000948A81828482868F99A5A9AAABA29A991D
:10D6C000959499928373676A6157676F70859185A6
:10D6D0008FA190858D837C8886767272615864668E
:10D6E0005E6B796E73867D767A797E87826D5C510A
:10D6F000483C3A42474F606A6E7E8E969FA2A9B21E
:10D70000ADA8A38F827B73797C879B9C9AA7AEA9D7
:10D71000A1A09D999C998D816D615D58595F666E40
:10D72000747F8C867C828480858A848281776F6A0C
:10D73000666C767D888E8D929392979998928E8A58
:10D740007C6D6F6C5B60706F707A82848280818088
:10D7500080868A887C6966634F46526168666A780B
:10D76000736D82877681908C8A867E7C73656D83EB
:10D7700088889DB4B3B2BEC1BABDC2C1BCACA195CC
:10D780007D666474767379868E898790988F889188
:10D790008C7B7B7762534949535B657A8984828BA2
:10D7A0008D847F8C8F84827E716656484B51505396
:10D7B0005B5858686D686C777E7B767F857E716973
:10D7C0007175778C9594A1A5A1B0B8B7C4C3AFA962
:10D7D000B09B7A77776E777F767D8885888682851D
:10D7E0008780797A7A726C604E5162656C80878826
:10D7F0009091919E9F97999183817A706158646A04
:10D800006A71737C8E938F9A9C9196988A85806DAD
:10D81000625146585F525A6B696A77808488908F4C
:10D820008E9084786A544F5B5B586B80838B979E95
:10D83000A7A7A4A7ADB3B3AE9D8883818892909823
:10D84000A29C9CA6ADA8A4ADA291989478696053BF
:10D85000626C5E6889806E858B7A7E867E767A7F42
:10D86000756450435259516075736E7B827D818718
:10D870008078797A73604F4C4D4B4C57677D888721
:10D8800094A3A19CA7AEA4A4A488757A7169778398
:10D89000899496939CA9A8A1A8A7A0A49A867A6C1B
:10D8A000616262626B767676828583888B8C8585F1
:10D8B0008D806B6362656162737A777F878D969ADC
:10D8C0009AA19A8A8E8C7C7570696C73787D83813D
:10D8D000838B867F7779766568684F413D3E4A52F3
:10D8E0005B6D777B828D918D95A19A979A8F847AC3
:10D8F00073757679828A9BA5A7ACABABB1B0B4B196
:10D90000A2A1987764656B707A898E8F959FA5A385
:10D91000A1A49F958E877C685454595B5E64707790
:10D92000747D837A76777576796F625E574F545B34
:10D930005B636F6F686E79777581877E7C7C7675A7
:10D94000685F6C7479818F9A929EAE9B96A5A29C1B
:10D950009B968A7F72646F7D777C8D91939D9E9C50
:10D960009C999E988C8A7D72675C656767717A87DF
:10D97000898F97918E8E9393898477625A535362DD
:10D980006C7082928B8B9694989C919098948273F1
:10D99000695F626868676E79716D767271706D74B7
:10D9A000756E65584F4B5461666E7D8A8F8F979B5D
:10D9B0009DA3A6A7A39E978E857E7F86909A9DA500
:10D9C000ADAAADB1A8A0A3A09A9B8F766B625B684D
:10D9D000726F78888D8E969997928F8C807873610C
:10D9E000554F4B59605D626C71767E7E7D7F7A7A91
:10D9F0007A76715F524D48525E60667075767A83B2
:10DA000090928F959693958C7B72727B83888F967C
:10DA10009FA2A7ACADAAA19D9A8F887A665C5B6035
:10DA20006B77797E8B89888D8B90938E8B89847BA5
:10DA3000766B5C687B7E80858E92919491888888D5
:10DA4000858179746C5A494B58626F787886989EB4
:10DA5000A2A09D9E988F887A6F634E4953575B5F53
:10DA60006571777C818081827F7F7E7A72665A536E
:10DA70005B6B7C8A91959CA7B5B6B1B4B4B0B3AFDB
:10DA8000A0978F808189868A9292929BA0A0A09A6B
:10DA9000919392887F7765555764696B727571753C
:10DAA0007F8382817D78746F665A4D454346545E0C
:10DAB000646A6E7682878C908C847E7774716655EA
:10DAC0004A526575848E8D929FA8B1B8B9B5AA9F48
:10DAD0009892897D726D6E747E8D8F8B8E8D8E9AED
:10DAE0009D96949187807B70666463636F7D838766
:10DAF00087899193939C9D9389807971615A58513C
:10DB000052616C6F737B82878D908D8B8E877B7952
:10DB1000736B696A737B8086898E929293959795D1
:10DB20008A7D7671665D58575B606770767D81830C
:10DB3000898F908F92918A837974736F71777880CF
:10DB40008C949BA2ABB0B0B1AEA8A1968A857E752D
:10DB5000777B7D858889939A9896969A98938E83F9
:10DB600070645E554F4E50555B6166696E7B838570
:10DB70008B8F8E88827E6F616262606568696C6F70
:10DB8000737A7F8991919491847E776B6667696AD5
:10DB90006C727A80868F94959DA2A19E998F8782C0
:10DBA0007E7C7873757F8582848B9197959196950D
:10DBB0008E8E89807D756C6F717072767B7C7C7BBC
:10DBC0007978777C7F7977726765635F5C59626F7C
:10DBD000747F8B92959A9F9FA0A19892918C827B43
:10DBE0007F8A8D94A5AAA7AEB1ADB2BBB7AFADA4E5
:10DBF00095897F76726E6D6D6A6C747A76707271CB
:10DC00006F72736F695F584F4441454E565A616E4B
:10DC10007577828A8F959490918F847874716E6BEA
:10DC20006C72757B878E898990939292928C817C9D
:10DC3000787375787B868C8B9197979A9EA5AAA10D
:10DC400097968F817977726C6E7375797F7D7E83FD
:10DC50007F7D7C746C665A493F3C3E46525E6568E7
:10DC60006D7A8589939EA8ACA49992887E7E7E7DEC
:10DC700088969BA3AEB6B8B6B5B7BEB9A491867563
:10DC80005C50504C556A7272777E8186898B8D8A82
:10DC90007E70695E4F4E575E697780878E8E909258
:10DCA0008D8C9493837873665B5D65718496A1AC6B
:10DCB000B2ACA9ADACA9A5998A796A6360636D7AA3
:10DCC0008283898D87858580838174695C4C433F1D
:10DCD000404E668290969C9D99969EA8A59A9385A3
:10DCE0006D5853596E8AA0ABA59D98918B8E9694D2
:10DCF00086796A57494A586B84979B99958D888D88
:10DD0000908A86867C685C5C5A61798F9BA0988D2E
:10DD10008B8B85828380766752413F4D647F949CD4
:10DD20009A8F807A7F878B8D8C826F5F5D65789804
:10DD3000AEB6B7AEA49D9AA4AAA2968C8169555896
:10DD4000667587928E857A716E6C6F74736B5F5394
:10DD5000463E506E84979F988C84838B959C978BBE
:10DD60007F6B5652627990A9B5A68F8685858F956F
:10DD7000908D826A594F536C8A9FA79F8E888886A0
:10DD80008B8E857B6F6253484F657F92968F7F7332
:10DD9000757A7E8487847A6E665B5B7496B1B6A86A
:10DDA0009989838B9191938E8579685A5C6F8CAB3E
:10DDB000B7A88C7A787B8187877F726557494858E6
:10DDC00076969D8E7B70737C8D978E847F7568614F
:10DDD0005E698CACB1A38B7978818D928D858177CA
:10DDE000695D545D7C98A49B816F75869190887F56
:10DDF00079776853506388ACB9AE937C7E92A29ECB
:10DE0000938D8276695243527595A59675636A7BA8
:10DE10008F97897C7F7C6A564A5880A5B9AE8E7AE6
:10DE20007C8B968E807D82837A6A5B5B78A3B29DC1
:10DE30007E69708B9488796F717A7056474F719FA5
:10DE4000B09C7B62627989887A6D717B755E4A537A
:10DE500078A7C2B18A74819CA8A59A8F9197917C6A
:10DE60005A597FA6B9A7806E778993907E70788083
:10DE700076624D476391AB997561698092907C722F
:10DE80007B7F7765473C5F91ABA68F78768B9E99B9
:10DE9000887F82898973544C6491B4A88472789085
:10DEA000A6A28E85878B846C50435685ABAA886C5E
:10DEB0006E7F929A86737A89887157485682A9AF85
:10DEC00096746D869B98867C808C917F634F557E7F
:10DED000A7AF997A7183989C85707580857F654A14
:10DEE000527A9FA995726275919A928682878C89DF
:10DEF000705255779DB4A4806D7185938370717A4B
:10DF0000827C604643587C948D7563657D918D7FDE
:10DF10007C8894948263546D9DBDB8A08B899FAF1B
:10DF2000AA9A8788938C755849567C9FA38F7163F2
:10DF3000778B8B8276757F8271503A476E94A69864
:10DF40007D76879697897676888F806A524E6C9414
:10DF5000AC9D7B6F7888968B7C7D8288856A4E4AE3
:10DF60006798B2A7907D7988908983808795937B05
:10DF70005C4F648CA8A98C71738690887D767988B3
:10DF800089755A454C71949A88756D7B8E8D857B09
:10DF90007C8D938873585A7D9FB2A27D6F7B8A9146
:10DFA0008E8182929483674B486991A8A489777780
:10DFB00088988F80848B908E7454495E87A5A68F35
:10DFC0007A7C8E98918276747C755D46343D699337
:10DFD0009A856F6B798D938377829292816B555876
:10DFE00081AEC1B18F7F8A9CA1988C858F95826507
:10DFF0004A456692AEA4827173808F876F6D7D8172
:10E000007C6B4F49668CA6A28573788798998B881C
:10E010008B8F9279574C5C81A1A48D746D7E8B8B14
:10E02000817885958F7C5F464B6E919F967B6C7B4C
:10E0300091938A85878F978C694C507296A59F849F
:10E040006D768D958B7B7681877B655049658CA13C
:10E050009D816E778B9A94878A909292764D4A69C9
:10E060008AA7AF9683838D988E7A7B858A8A755727
:10E070004E597AA2A38979737D8F8D8079808983A7
:10E08000725B4C6088A4AA997D6D7482857F7677D7
:10E09000807A6454494D6C94A7977F79838E9291CE
:10E0A0008A8B959789745E59769CADA794848893E2
:10E0B000968F83828E908369524E5E81A09573679E
:10E0C0006B7381867F838985795F46475F85A7A7C4
:10E0D0009185808B9D988C9196938A745A4C60851B
:10E0E0009DA18B757A898F8B83808186806A52404F
:10E0F0004D7793988E7F7A849496888691968F7ABE
:10E1000061535A7DA1AB9B81727A827A787E808539
:10E1100083705B4B547BA3B0A08B82838E918278FB
:10E120008289857A6A5A5D7B9CA99D8A7E7E8D96BE
:10E130008D868B88827B6551556E8CA4A3877378FE
:10E140008081827C7F8C8978604943567995988359
:10E150006E6D7A828381858D8B8473544C688BA419
:10E16000AA9A89848E9EA29993928E7F6454525F5C
:10E17000829EA1927E7A8C9B978E8B8E8D7F654935
:10E180003D4D7290998C78747E86847D81898985D5
:10E19000775B4D5D7D9EAA957D7B83888C8F8B8F71
:10E1A00095877060525E8AAAB19E83797D81838350
:10E1B00081858A7F675046547796A5997A717F89C1
:10E1C0008986848C92897966525576949F94817C55
:10E1D000838B8B878A8E8F8C785A4B5676919E9341
:10E1E000786B6F787C7D808B9085725A48577C9FC6
:10E1F000BAB89D8C8E9598989598A0987A61514E52
:10E200006A909C9585767680837D777A827B614B58
:10E210004041597C9090837D838E918C8D929A9908
:10E2200083685B5B7499ACAC9C89878E8B82828897
:10E23000928E7559474A63869FA293838287878708
:10E24000868488816950464B61859B9D8B7B828744
:10E25000868B8A8A95947C635756678BA2A1998C8A
:10E2600083898C888A8E989A8773645A607D989A7D
:10E270008D8279787C7B7F878E9284695953557320
:10E2800098A295887D7B83858A8F8F8E7E614C4690
:10E290004F6D91A299867C7B848D8C8E94958B7624
:10E2A0005F4F4B64899A94868081848582808896AA
:10E2B0008E796C605C7293A7AAA0928B90918A8EE3
:10E2C00093948D7664574F658BA1A5978176767B65
:10E2D00076757F8178634E423E4D73929D9A8A7D1A
:10E2E00080898C919B9E9889786B5E5E7B98A29FBB
:10E2F000908482878C85859191877964514D618165
:10E30000979B8C7771747678838F918573644F4275
:10E3100055799EB4A9958C878B908F969B95867125
:10E320005F54586F8EA7A4928C88878B898B8D88B9
:10E330007E6B5C51475276949C8F84858686898B50
:10E3400090979281705C4A4F7198AB9F89817872E7
:10E3500072727E8A867B69584B47608AA4A6988D24
:10E360008886878588959584726A665A5E819FA1A2
:10E3700099938C8C9087879491857E7262555166B3
:10E380008B9F9F948685897E7C8D94928E7E685526
:10E3900046517A979A8D7F7976706D7A8B8B847FD0
:10E3A00074645456789EAAA19597978C848893910B
:10E3B000867D756D5C4A5C8596959495968C7D7886
:10E3C0007B7C7B7B756B57414263849395979992D5
:10E3D0008179818D95918A8D7F5E5368899B9B9C05
:10E3E0009E97887B7A828886818781675A60738A44
:10E3F000918E939893827A7C79777C84867B665D14
:10E4000063758B969AA2A3998E8787888887817671
:10E410006552454863787E868985827B767E8383D4
:10E42000827C776F6157617B8A8C95A3A9A29993AF
:10E430008E8B8A8A8C8A7F6C6067747F88898C8DCA
:10E440008377777975747A807C726E6D7086938C21
:10E450008B929087868A8F8E8B8E8F878182817C2C
:10E460007B7973706F73787A7C82888B8E908E86BE
:10E470007A74746E6A6C6A66686768747A77808C7E
:10E480008C89888587888384847E78727880787781
:10E490007E7F848685949F9EA09E958981828177C8
:10E4A0007068606368686B737A7F89999A90959AAF
:10E4B0008E8A8A817C7F7F7E80889398979CA3A197
:10E4C000A4B2BAB7AFA5A5A79E958C8381807B73B4
:10E4D00064544F4F4E5157574E423C3E4B4F3B2B8F
:10E4E0002C2A21202E342824323637424950585BBA
:10E4F000606366767F8595A4ADB6C3D2D7DDE9E9C2
:10E50000E4E6E8E6E7E7E1DDE0E0DDE6EEE5DDE2D2
:10E51000E4E1DFDBD4CBC9CCBEA89F9A8C847D71AB
:10E5200064594E47453B333A3D3834312E2D2E2E1B
:10E530002B251F1A1C1B1817181B212323211F26EC
:10E540002B2D3A392629332D2C313235383A414397
:10E55000424A505766696F83898D9E9F9EA7ABB5CF
:10E56000C2BEBBC2C6C9D2D8DBE2E7E5E8EDE7E050
:10E57000E4E4DCD7D5D4D5D9E0E2E3E6E5E3E3DDB6
:10E58000D2CCC9BBADA99D9CB0BCC1C7C3C1C0B7EB
:10E59000B4AC917D766D5C493F3735404F56555947
:10E5A000605D5752493A343A362E2B261F151B34DC
:10E5B0003F46525A5D5C4E4853534D504C3D2D22C0
:10E5C0001D1C1C26363B3F4D4F44464A4A4F504B7C
:10E5D0004E524A433E3C4B6578848E979B9595A15D
:10E5E000A49AA1B0AB9E9B968991ADC1CAD3DFE539
:10E5F000E0DCD7CFCAC4C2C7C2B4AAA49CA1B3C02E
:10E60000CBD4D5D6CAB1A2A19C8B8389826C595137
:10E610004B4E606E7177837D6A6870726C68696A50
:10E62000665B504135425764727E878D88848F9A2D
:10E630009088949B8F8278685B6A8488869198958D
:10E640008B80808C85757D847466635F575C6F7B7F
:10E650007C808F8D73676B6B655C657171696562BA
:10E66000524E687B828FA0A79D9593969FA0A3B2E0
:10E67000B9AB978F817D98AFB1B7CBD5C4B1AFB3EC
:10E68000AEA4A4A99F88715E4A414E6069707884E7
:10E6900084726A797D6E67686761544C413742576E
:10E6A000646C77848A827A7E827A777E888A7F72A7
:10E6B0006859516779767C8A908A7A757C79717409
:10E6C0007E7E706662534757676E7C818991857A3A
:10E6D000828C89848A8E877D746B6164809398A014
:10E6E000A7ABA79E9EA0978B85888E83706D6F6C5D
:10E6F0007890999DA8B2B4ACA2A3A39A9390939258
:10E7000083746F665E6D7C7C7E878D887F7D84815F
:10E71000757277746958433531394C5A616B757924
:10E720007775787F7E79818C8978727569667F9438
:10E73000999BABBDBDB5B3B8B6A8A2A8AAA5988C45
:10E74000857975818B8E8B90938276787366606500
:10E750006B695B4C46413D48575F63687378706FE7
:10E7600075736E6F72726C625C5B575D6E7B8792C5
:10E770009DA6A7A5A7ABA69792938D857D77767664
:10E78000767C808189949A9C9C978E87827B777710
:10E79000716865646362646B7175787E85868A943E
:10E7A0009694908E8E8D867C7D7C6F6D747573755E
:10E7B0007B828A8D8F969A9490908F8A86888B8898
:10E7C00084827E7A7C7E7D7F8485837D7C8287883F
:10E7D0008988837B7773706C625D5B575657555B96
:10E7E0005F61687173767E868B9194969B9E9C9EEA
:10E7F000A3A29E9DA2A6A3A2A6A7A5A19E9FA0A2FA
:10E80000A29E968F8C8985817A756F6765625C5B45
:10E810005A5D6265646060636161656763626466D6
:10E82000635E5E62626266686B6F6F7171727B813C
:10E83000878E8D8D908F8D8D8E8A86888783838439
:10E84000878B8B8A8C8B898D8F8C8A8783817E7A4C
:10E85000797E817D7980837D7D7E7D807E7E8282D2
:10E86000848A8A87888C8D8F908D8C8A817E7D7C2E
:10E870007B7D858A868583838885848B887C797B6C
:10E880007976767473726D6A6C717271727477795D
:10E8900078787776787873706E68646261605E60AD
:10E8A00062646767696D6F747C83878A8E919598BF
:10E8B000989DA4A8A5A0A6AAA9ADADAAABA5A2A6FD
:10E8C000A29EA2A099969188827F7977736A6765E4
:10E8D00061615F6267686967686D676770727070B1
:10E8E0006F6F70706E707373757A7D7D7B797A7DD2
:10E8F0007F838A8E8E90918E8D8D8E908C88878569
:10E900008687888D8D8A8C8D8D8D8C8C8F8F8C8851
:10E91000837E7F8180817C7877767573777B787B47
:10E920007F76737A7C7D82838080817C7D7E7B7D17
:10E930007E82848083868487898A8C8B888886817E
:10E940007C79777676706B6B69666B71716F6C6CC6
:10E950006E6B6A72767576746F6E6C696F716C6BC4
:10E960006A6A6A696E7272787F808384878E9397F1
:10E970009B99979BA0A1A2A1A2A9ABA9A8A9A79F77
:10E98000A1AAA4A1A49D95918D8887847E797168A0
:10E99000645E5D5D5A5F625B5B5B585A5E61656990
:10E9A00066615E5B60696A6A6F7170757C7E7D7F8F
:10E9B0008288888991908D94979495928A8B8A8188
:10E9C0007F818182818082818185898B89898B8AFF
:10E9D0008684827F84878686817F85878281838102
:10E9E0007D7F827D7A81827F82817B7C7F7D7B7B44
:10E9F0007878797B7B7B828684858787898B8C8FEF
:10EA0000908D89878484847C7A7E7C7B7B78767603
:10EA1000747475727075777376757172716C6E6ED1
:10EA200067686A68696B6E7175787A8188898D9379
:10EA300095939595959C9E9B9E9D9AA0A4A09DA123
:10EA4000A19EA0A19B969A9C9592908883837D76A7
:10EA5000706A6562625F595E635F5E615F5D5F5FA2
:10EA6000606465626260626765686E7074787B7C02
:10EA70007C7C7D8285888F918F93959192959191E1
:10EA8000908782818083827E7D7F7F80868782825D
:10EA9000878885837F7D818080837D7A7E7E7F816C
:10EAA00081828283848282858988898A878584801D
:10EAB0007E7E7C7A7B7F7E7C82837F81858383845C
:10EAC0008182888782807B7C7F79787B7A7B7C7B64
:10EAD0007C7A73717576757878777B7A7676736BD6
:10EAE0006F716B6665656668686B73747784898619
:10EAF0008A9195979898999E9FA1A39C9AA0A1A06E
:10EB0000A29F9B999A9B9A969495938F8D898580C5
:10EB100079756F68666462616163645F6065636193
:10EB20006869696E6A656664686D696A6E6F727538
:10EB3000787B7A787B8184858A8D8E919395969562
:10EB40009292958E8B8D89898B86868A878689831A
:10EB50007D7D7F7F7C7C7A767A7E7D7B757479770C
:10EB600076777573767B7B7C8181848A89898C8CAE
:10EB70008E8E898480818483808184818082858552
:10EB80008286898788847E7D7C7C7F7D767B85817B
:10EB9000787D827C7776797773787D7B78777571ED
:10EBA0006F6D6D6D646064656767636873737781AB
:10EBB000817F848B90939698979A9FA2A29FA0A5FD
:10EBC000A5A09D9D9C9A9B9B98969291938B8381E7
:10EBD0007F7E7A746C636469656265656361616395
:10EBE000625E646B696D6C656669676B6E6C6D7394
:10EBF000726E70737474777B7B7B81888B8F93923A
:10EC00009194928D8E8B878E92908E88898F8D8E27
:10EC100096928D8E8E8D888686838486817C797887
:10EC20007A7C7C7D7C7D80807D7C7F8184888482F1
:10EC30008385898986827F8387837F82858586888D
:10EC400086817C7D8182827F7B7D7C767B7F7B7BE6
:10EC50007D7C77737273727275797B7D80817D7C28
:10EC60007A777978716E6B6464686869696D7677B4
:10EC7000777E8181878E908E8E90919296979595D2
:10EC8000989A9997969A9E9F9E9C999896969894F2
:10EC90008E8E8D8A85807B76777A78767476767498
:10ECA0007473716D6B6F716F6B6A6D6C6A6A696892
:10ECB000686E73706D706E6B6F6F6D727478807E3E
:10ECC0007D7C797B7E7B7C7F7B787A7C7B787A828B
:10ECD0008280858583878A8C8E8F929490918E888E
:10ECE0008989868685818081817D7B7D8180838AFB
:10ECF000877F82848384807D7B7B7F7F7E7E82850D
:10ED000082848381807F8486827D7979787473752B
:10ED1000737172726F727675787B797B8080848C68
:10ED200088858987888D8783898682878886888475
:10ED30008084868483808187868485858482868595
:10ED40007E83827D8182807E7D7D7A777D807B7EE1
:10ED500085817E80808185827B7A787474777778EC
:10ED600077706E706F6D6E757B7B7A7A78777A7F4D
:10ED700082817F858A868D958F959E9B9FA6A19E79
:10ED8000A5A6A3A6A5A4A2968D8B89868687817940
:10ED900071706E64676A61656966666461626769FD
:10EDA000666463686C6B727570706E6964676C68BA
:10EDB000707770777D7A797A808383828891909159
:10EDC00096969A9B989798A1A4A9B9B1A5B2B6B204
:10EDD000B6B9BCBBB2AFB7B5A59594948A85827419
:10EDE0006A625655514D55483537383B423A2722CD
:10EDF00027212030372A22293132383D424C545EB7
:10EE00006C737E93A4A9B1BFC3C3CFDDDDD9DEDEB1
:10EE1000D5D7DDDAD9DCD8D2D4D6D0CCCECFC6BCCB
:10EE2000C3C4B5B0B4AEA19892887F7971716F6593
:10EE3000636255474446464D4E454B4D3E3E454127
:10EE40003C39352F2E2E2E2D26292D22222D2C29F0
:10EE50002D2D272C363432312C2E35393B3E414175
:10EE6000465050525F63616E7D817E838C8C8FA093
:10EE7000ACAEB4B9BBC2C9CBD1DADBD8D6D9DDD7F9
:10EE8000D7E2E0DAE0E9E7DEDCDDDCD9D4D3CFC7D6
:10EE9000C8C6C8CECDC4B9B5B8BAC0BDB6BAB7A792
:10EEA000A09A908B85766862594A40382B242B2F84
:10EEB0002D32342F343C414339333B3D3A37302EE9
:10EEC000302B231F2427262835403E4651505961B8
:10EED0004E45504F4A4E4B403F423C312A2D34352F
:10EEE000323E585A57676D6C78796F78807A7671B0
:10EEF000747B7B84847C858C95AABBC1C8D3DADB08
:10EF0000D6D4D9DBD8D9D8D5D6CEBFB9B2A09897A8
:10EF10008F929FA8ACA69FA0988A837E7C7E7E7FDE
:10EF20007A6A63645F5A4C3C3C4957646A6F70600C
:10EF30005F716552585D636E6C6B6F6D655D5A589D
:10EF40004C4A6989939BA6A39EA69E8E8C8D909118
:10EF5000989D8A8389807B715B5D70849AA5AAA93C
:10EF60009C9BA1908181848E9BA29A8A7D6E656311
:10EF7000594D55687B8E968C83807D807C71738122
:10EF80008F9BA2958076726A63645F6685A4A58E66
:10EF9000817C74797C7370767F8A938D75656362EA
:10EFA0005A46446074879D9788857C737271665B4E
:10EFB0006A8B938A7F66555C5E58647996B6C7D033
:10EFC000C9B2A59E9EA3A09BA4B6C4C0A689706129
:10EFD000615D5B6471879691816A524A51585555BB
:10EFE000616E7B8378645041434F586B8291989C4B
:10EFF00095816E67696D70717C8791A09879625771
:10F0000059636A7E9AA7ABAEAA9F8F7E7B878A8C54
:10F01000909AACA997886D5D5E5E6D83949F9FA367
:10F02000A3918279757B7D7B7E8490957F63503D33
:10F0300040515F707F878987817467666A70777CCB
:10F04000879CA39887756765687C9EAEB2B7ACA3B2
:10F05000A499877D7E83898F959B98867868575879
:10F060006A7E898C918E817A746C6D6C63656E6A30
:10F07000666B6D5D47424042607F8F999FA3A1A060
:10F08000AAACA29C9C9EA8B2B6B7AD9E8F817F8C85
:10F090009EADB0A79C8F85827A6D67615E6368685C
:10F0A000676863523F373F526B7C84837A79797308
:10F0B000787B726E747C808486817666565766761D
:10F0C0008CA1A9A1948C898A8B89888983808B8C57
:10F0D000827A6E6351485D768B9FA4988C898D8A65
:10F0E00089918E878A8A8E948F867E756D6E7788D9
:10F0F000A0AEAA988781827E7B7A78787A7F86878D
:10F1000082797570605D70899AA5A3978B858889CF
:10F11000888A837D7B797C7E7D756A5E4E4A5B76CC
:10F120008A94948572666365605B5A596165686B01
:10F130005D4C4236313243637985949183838F9558
:10F1400099A4AFACACB1B0B5B8B1A79D908C98A85C
:10F15000BCCECFBFAD9D928D8A857F7C7673736F59
:10F160006A645A51453B405875868E8D7B6F787323
:10F170006C7B78747F7F7E7F7C7D776F695E5C704F
:10F180008DA1B0B3A2938B898C8D8B88878E909242
:10F1900091877F746555454F7389949E92807D7EDB
:10F1A0007E818B8D868D938D8D8C7F77776E616060
:10F1B0006D88A3ACA08B7C74717273727573737A53
:10F1C0007A7474737269574F587092A4A59F94898A
:10F1D000868B8F8C8C89848E95918F8A7E746353F5
:10F1E00059728A9EA596857A706B6D6E696B6F7386
:10F1F000776E615F5D5C523D39465D809EA59B8F59
:10F200008A8D97A3A49FA3ACB1B5B8B0AEB1A493B7
:10F21000857881A1B9BAAF9D887E7B777167656F6C
:10F220007574736D66685D483F302B4662798681E0
:10F23000776E6C7277756A69788283838284857A47
:10F240006A625C5F7D9FACAEA692878B8C87827E64
:10F25000849192908B857F73696155484F6985943D
:10F2600092877B7B878985837E8090969091918D14
:10F270008E846F6466758DA5AEA28F8786817C7A39
:10F2800077768293958D8A837B7C705F5E637491C1
:10F29000A2A59B8A8485807874757C8D9793908CC9
:10F2A000827A776957535B6C848C80736D686A6C63
:10F2B0006560595D6D7370676061635C4A4351645A
:10F2C00085ABB1A6A8A7A5AFAFA2A4B1BAC7D1C656
:10F2D000B5B2B0A89D8D7D8098AAACAA977D7376B3
:10F2E0006F615B5F6B747A7B67595D53484333345E
:10F2F0004E6E85887B6F6B6B6D6A626371829096D0
:10F300008F7E777E7B6D635F6985A1A9A5978783D3
:10F31000878A83777D8A949A91807B7D72645C5220
:10F320004F698FA1A6A08B8189887C797D8496A85E
:10F33000A89A908B847E766661728CA3AFA0877F3B
:10F340008182807979828B979D8E807C726F6B55DC
:10F350004E5C7796A69F8E7B727475706E778592E1
:10F36000978D7971766B605D51526D838F91826D4F
:10F3700064686D5E5259616F7B746C655C5B58515B
:10F380004B4D678EAABCBAA69CA2A29CA4ACADBBF6
:10F39000CBCABFB4AEA59D9480727D94A7B4A98D4D
:10F3A0007C736E696463646B7A7E6F635C4F4E4FEF
:10F3B0003E38425A7D9091816A67706F6C7174809B
:10F3C000949E9C8E878A807A7666657B94AAB3A287
:10F3D000897F838780828C8F969C95877C786E65E9
:10F3E0005B4A48638098ABA2887E8079777F818270
:10F3F00093A1A0998B7F7974706761718EA7AFA478
:10F4000090827B7C7E7E85888F9E9B8B8780716CB3
:10F410006556525B7594A39C816E6D6F6E717779A2
:10F42000808C908B7A707269635D555D6F859B9A55
:10F430008672686B696067706C717B776C655D560E
:10F4400057524B597898B2BBAB979293959EA7AC05
:10F45000B4C3C7C3BDB1A6A09A90858595ACB9B415
:10F460009C7E706F6E6E72736E757F76665E5040B6
:10F470003E37313C4F6C868A77615D6162636A76A4
:10F480007E8C95948A7C7A7A726C686D87A1B1B50E
:10F49000A48B7E838C86839298949A9B87767063E4
:10F4A0005B584A4D6F92A1A4977D727879767D88DA
:10F4B0008990A1A091837770706B636E88A5B5B2B7
:10F4C000A1887C80848280899294A0A48E7D7B6EAA
:10F4D00064635B5E7891A6AC9573616773726D76B9
:10F4E0007C7E8B8F827063636459535D738E9C97AF
:10F4F00088705E606E6E666C767F81807A6A5C571B
:10F5000056534C557499ABA9A393868C9A9D9AA790
:10F51000B5B8C2C5B3A29A8F8B877E869DB8C6BB8D
:10F520009F8374767F7E787A84888584775C525056
:10F530003F373C455E7A838577594F59646A6B6FD4
:10F540007D888B8D84776E686965667C95AEBAAA76
:10F55000968A807F8E8F86919D9C9B9485796E6222
:10F560005A55545F79969F907E716669777D797E52
:10F570008E9592948B7A787365616E8097B4B9A3F7
:10F580008E7D727B8989888C99A8A3958E82726DF5
:10F590006B5E5D708DA4A3938470636C7C81817EAF
:10F5A00085928E81776D655C565357708E9EA08FC5
:10F5B0006F5F60606872716F7A827D71625B5A54AE
:10F5C0004C4B576C88A0A59784797E8C969EA3A6F9
:10F5D000B2BFBBAFA6998F928D7D87A5B5C1C7ADD0
:10F5E0008B807876868A8384878D8F7B69675C5071
:10F5F00049434A5D778F8D7260554C53626B7070D2
:10F60000757E7E736E6E6A655C5C6980A0B3B1A224
:10F61000897A7C81878E92969FA6A08F827C766D58
:10F62000615860768E9C9E8D7266676F797F858843
:10F630008C9493837A7871706C5F6684A2B3B8AD52
:10F640008E7F83848B9493979FA2A395817D8078EE
:10F650006D625D6D859CA7967B736D677076747A1D
:10F660008387887D686365635A4F52617D9BA49A46
:10F67000836A5F61666B707376808273645F5E5DC0
:10F6800053464556748F9B9A8A7B7B8391989BA3A4
:10F69000ADB9BFB7ACA49C9B9C8E868E9BB1C1BEFE
:10F6A000AF9584838585868C8F8E8F8A7665666319
:10F6B000564F4643566F828977635F5C5C66717212
:10F6C00074828A82746A666666615B5E6C87A5B1C5
:10F6D000AA988A8281898D89898F9A98897C777581
:10F6E000716B5F555D7792A1A08F7F7674797D7C79
:10F6F000808B95968F8275757B776964677395ADFE
:10F70000AD9C847D7F838A8C8E969DA6A997868AE0
:10F71000897E7A6E6371889DA69680756F6D72740E
:10F720007074848C81736C6969655B53505A7695EB
:10F73000A199837571696F7872717B827D6F635B4C
:10F740005955514A3E4A667E98A0968E898B949868
:10F750009398A9B2B6B4A59DA19F948E897F8BAAD8
:10F76000BDC2B99F908A83807F7F82878F8E7D6D97
:10F770006C685F594A424E64819184756A5C596332
:10F78000615A687C818280767072716E6A5E5E7486
:10F7900092ADB2A3958B86878A86828D9B9F998C2A
:10F7A0007D757573635252586F95A1988E7C757AEA
:10F7B0007974777F8894988B807F776E76725A5EA3
:10F7C0007990ABB29E8E87818186898892A8ADA000
:10F7D000989184827F71686468829FA6A49A7F6FE3
:10F7E0006F6861646F7A828682776E6969645B553F
:10F7F0005467879A9A907E6C6466676367727B80B1
:10F80000817A6E66655F59564A527492A9AE9F948A
:10F810009088858E99A1B4BFBDBFB8A19AA1947EEE
:10F82000767A8AA4B4B5AA94807878787578878F28
:10F830008C8C806B646159564E444C6378888E7E04
:10F84000645A5B54576366708289898379777673CB
:10F850006E65667A92A8B5AE99857D7D7D7B7E8842
:10F860009196978F83777071695A575B69879A9BD6
:10F8700095867169717173808895A7A08C888B8239
:10F88000797870646B8097A8A8978783827F869227
:10F89000959BA8A69B93847A7C766A65666E849C09
:10F8A0009E8F827462636B6A6F7D848887817971B1
:10F8B000706C625D5858677D919686756A60595D77
:10F8C00063686E777E7D746D6B6362676060738959
:10F8D000A0B6B6A1948F8A919C9EABBAB7B6C0B9B8
:10F8E000A398978E857E777D91A0A0988A776A6C81
:10F8F00073737881888B867C746F6760594D454C33
:10F9000063787D7D745F57606067757B828B9294AE
:10F910008F887E7878716B728196A8AB9E8F85797F
:10F9200078808080888F8C8583786667675C5A5C76
:10F93000637B93998C7E71666D7579878B8A98A4A9
:10F940009D8C83837E78756F74889CA8A9A2908310
:10F95000888D8D8F91969E9E99938A7E78756C6422
:10F96000697C878C90846D6769646A70737D828A14
:10F970008E8780776C6761575B6C7F8E8C7A706442
:10F98000595C605F66717C7C7572695D60615A600C
:10F9900071829BB3B0A29E97959DA2ABB4B4BBC538
:10F9A000C0B0A095908779767C889AA49F9487763A
:10F9B000747A7775767980837B7472675C58524D60
:10F9C00052668088827C695B5F61626C727A878E26
:10F9D0008F8A817B726A6F7072849BA8A695827EE3
:10F9E0007C787F817D85929992827469605D58559B
:10F9F000647B8A969B85706F6D6E787F8691999EE9
:10FA00009F94847D766D6A686B81A0ACA3978F8785
:10FA100086929894959BA6AFA6928783756A68682C
:10FA2000708499A3957E72696468696F7A7F85880E
:10FA3000837A746E6659525762758C958E7F6A5FB1
:10FA400063625F636669717B786B6158514C4B569A
:10FA50006C8BA6ADAAA391888E9297A4AFB6BFC1B6
:10FA6000BDB8AD9E948B81818D9DABB2AA8E7A7804
:10FA700073727A7E8184848787776A685E4D485086
:10FA80005F72848E8974665F5B6065687682868A41
:10FA90008988847871685D647A8D9DA49C8D817558
:10FAA000757C7B7D86888588897C716A5D534D5124
:10FAB0006781989D938A7E6F6F74747E8F939698FA
:10FAC000918A8982756D666B7E92A4A8A39A8983B8
:10FAD0008A8A8B959EA2A19D9C978D878679676C5B
:10FAE0008094A5A59A8E7A6C696664636C7E837F28
:10FAF0007E7B78746C62565260798C8F887C6F68DC
:10FB0000615C626568737671727067655E514A48C0
:10FB1000526E8C9E9E96928A848D928FA1B3B4BAB7
:10FB2000BEB3AAA89E928B82869BACB4B2A79785DF
:10FB30007D7E808182878A87847E71656461534778
:10FB40004C5F788A898177635A5F6060646F7E85D5
:10FB5000868582807B766F6567768DA1A8A598875C
:10FB60007B74787D787B898C89877D716A615A5333
:10FB70004E58718A9794887D6F6A737173878E8EE1
:10FB80009A9F9289898279726B6F8093A4A7A093C0
:10FB90008480888E8F96A0A4A4A5A1958B88806F61
:10FBA000656A798D9C9E9A8C766E6E66656D767FA1
:10FBB0008385827B726B675F54505A71868F8F8406
:10FBC000776D6463666264737774777366605E559D
:10FBD0004B4855728FA3A7A29A8D888A8891A2A8B4
:10FBE000ADBABEB2ACABA1958D83808B9CA8ACA7FF
:10FBF00099857A7D7D787D86888787867B71736D10
:10FC00005C4D4B53647986897D6B656057575F6D9A
:10FC10007880898C8E87818077696266798D9FA9CB
:10FC2000A3978A7C787974788788878F86757472B1
:10FC300062554C4B576B7F8F96907E76756C6D78C6
:10FC40007C85969B9596978F8880736C6E788A9F3B
:10FC5000AEADA195918B81848E90949FA19A9B9D2E
:10FC600095887C71686A7683939B928374675F60E2
:10FC7000666E787D858D8987847B72655A5757615A
:10FC80007381878171655E56555B5C67726F727BAD
:10FC9000756A635E5E5F626C7E97A9AAAAA5999653
:10FCA00097979CA7B1B3B7BBB6B1A99D9384767261
:10FCB0007A8B979EA29E8C7C79766D6B737A7E820E
:10FCC000888679706E665C56535B6B788283796B3D
:10FCD000636161656C79848A9396928F857E7B706F
:10FCE000676E77818F9698928279746E6E70727D4E
:10FCF0008887857F78746D675F595C616C808D91B2
:10FD00008D837976777D8189989DA1A39A95918538
:10FD10007D7C7A778091A1A8A7A6A09189888889FF
:10FD2000919EA199949189837D756F6760626973D3
:10FD30007D8281796D696E6F70787F8486807D7B2E
:10FD4000716C6C655D5756606A6F7472645D5B5868
:10FD50005E61646F777F868585888D918A848480D3
:10FD60008799A7B4B6B4B4AAA4A9A8AAAEADADACFD
:10FD7000A196948E827D776D6667717C8185857F83
:10FD800075706E6A676C717478767376776E66617B
:10FD9000554C515F6F7C8B969189847D797B7B81FB
:10FDA000898C8F92908D8981796E6362686F798773
:10FDB0008D887D746C66696F737A7C818A86808396
:10FDC0007C716D6862647385909FA498908C888A1A
:10FDD0008F8E8F9BA2A2A4A196908E8C857C798019
:10FDE0008C99A7AD9F8E89857F7D7C7E8589847B5C
:10FDF000756D64636761585C656A7683888982760D
:10FE00006E6865686B6F787A78756D6768655B5941
:10FE100058555761707B7E827F7B7976808984928A
:10FE2000A6A6A7ABAAA5A6A99F95999A9EABB3B47F
:10FE3000B6AD998D8B86858D8E90908C8983766EEC
:10FE40006C645B5D5D58606F777D7A6F6A6765652E
:10FE500065686A6E77807B777C7D7B7A7573767A4E
:10FE60008390999B968B8480797A7B757D8A867F37
:10FE7000817F77716B6660585E6C747A82867B7165
:10FE8000747571747A7F849098918E95928D8B841D
:10FE90007F82878E9AA2A09E9B97979491918E9332
:10FEA0009B9E9C9894908A81776F6F7479828C8BDB
:10FEB000807D776A686B6C6A6E787D80807D7A76EB
:10FEC0006E66615C5E64697788847B756B64605D77
:10FED0005E656C71777877756F6F73716B6C727B21
:10FEE0008BA0AAA49D9C96939DA29EAAB8B8B8B6D2
:10FEF000ADA6A0988A7B75757D8C969B95887D7341
:10FF00006E6D6D6F757C82817A756D6B6C655F5CF3
:10FF100055586A7B818380776E71797A7D7E838C78
:10FF20008E8D8C8681837B6E6E716E76858E918BC5
:10FF3000807B787572717173797B7C7D777377764E
:10FF40006A65686668747E81878C847F8A8C838BFF
:10FF50009392979D9F9C969697918D8A878588917D
:10FF60009AA3AAA79E9691908E8B888A93938B8949
:10FF70008479726F6A60595C626B7C868480766F6C
:10FF80006F6C6C67646F756E6B6E6D66676A6053DD
:10FF90004E4E5D7583847E7775767676787D879410
:10FFA0009794989C999A9D9283858A889BB2B1B0C8
:10FFB000B0A299978D8887838B97968D8B8B88823B
:10FFC00077666167676F7F898F8D7F73706F6869F0
:10FFD00072787C8081797372746F6666676A747DEB
:10FFE0008790938D817B7970686B757E87919189FD
:10FFF000827B7976706B696E787F878F8C837C7457
:020000041001E9
:1000000070726E707D7F7F88827779777072787872
:10001000787D8087959B95918B85888C8C919BA40E
:10002000A7A6A09A98959292938F888588949B967C
:10003000939183747577737274777A79736E73752D
:100040006F6C68635F59575F696E7170665D61655B
:10005000646466686C71747677787B7B797C7C7776
:100060007B858B95A2A09290938F8E929398A6AD4C
:10007000ACADACA39E9D958B8885868A898C939622
:1000800090877C7777747174767A807B6B6769650B
:10009000646E746A636663626C767F807875767B63
:1000A0007F7E81838689857D7C7B797E86847F8047
:1000B0007F7B7D838888817977797A7B797576777C
:1000C000787E7E787778726F747371797C777A80B6
:1000D00081868D8D888A8C898F999A9A9B94929625
:1000E0009A9B969395979592908B8B8F868085831C
:1000F0007C7672747479827E7572757A7A7C757189
:100100007E87878A8377746E676967636B736F6AAC
:100110006C6A6465656364676C7376737373727518
:1001200075788189949B98939296979394989AA1C5
:10013000AAA7A3A5A0989B988D8E93909495898348
:1001400085847C787A797573706E6A6F7166656A7A
:100150006666676C726C6F7A747176787D81808068
:10016000869095948E8988878383827C7981888420
:100170007E7F7D7A7D7B797975767B777475726FFA
:10018000706F6D70737778746D6D706E7178767650
:100190007D82858A898484888888919795989A98A1
:1001A0009DA19D98969A9D9D9892908D8D8C83810E
:1001B00084807C7C7B7B7B7D7D78787E7E7E80806E
:1001C0007D7F8383827F7A766E696F74736F6A66D0
:1001D000616265635F646869686363696A696C71B9
:1001E000757A7E807F7E858D90929594959B9B9865
:1001F0009BA2A6A39F9E9A949294979A978F8E8E75
:1002000087848584828485817D7A76716B6C6B614D
:100210006167656463646A7076756F757C7C828CD7
:10022000929293928E88868B8D88827E7B7774776C
:100230007C7B7D817B747574797C76737776737241
:1002400071717370707371706F6A6D747475797990
:10025000777C858C8F908D898C9090929898939BC9
:10026000A197949594969B999BA19C948F8B8C8B32
:1002700083848A847C7E8284837C716E767C7B7DA1
:100280007F7E7D7D7E817C727073706E6C6C6C6B1A
:100290006A686566696763605E6065686D6F6A69F4
:1002A0006C6D717B818081848B9496949290949CE8
:1002B0009B979CA4A9AFAA9E9B9C9C9A9699989563
:1002C000969186838780797D7976787471746E646F
:1002D000616264696962656F6D696B696C76777B71
:1002E000868B878A9193938D86878B8D8B8684816D
:1002F0007E8083807D807D7779797473727174726A
:100300007477706F74716A6E7879736F6F71737BC5
:100310007F7B797C838A8A898C8987909291949358
:1003200092949392999F96939B97949591908E8493
:100330007E81807E84837D8080797A786C6F797904
:100340007D8887807C7E84827772747476736D7208
:10035000746863666663656A6C6B68686B6B7377F9
:100360006E6E72707C857D7B8185898C908E8B9082
:10037000989B96979EA3A8A7A09E969398979491D2
:100380008D8F94908887867F7B7976787874727069
:100390006B67656262686A64636B6E6E6F6B6C74C8
:1003A000767A8489898B8C908E898B8D8C8E8B83C9
:1003B000858783888A8282857F7C7C767275777A4E
:1003C0007A7A7C756A6C706D6A6D717271716E6B20
:1003D0006B707372777E8690908C8D898A908E8EEA
:1003E0009396989D9E999796918F939699999491AB
:1003F000908B85817D7C80827D7C7F7D7E7A707410
:100400007A7A818985828283837D7777757377771E
:1004100072726E686965606A6E6360666564676B58
:100420006E6C6A707371787F7F818687888F8E8902
:100430008D8E939C9B999A9FA5A4A19E989999951E
:1004400097989793918E868381797A7B7A7F78715A
:1004500075736D6A6562656A6C6B6A6C70746D68E1
:100460007277758087868B8C8B8C8684898883874E
:100470008C8A88888380837F7E827B79817F7A796A
:1004800078797573746F6B7073716F6D696B6F6969
:10049000686E6C6D74777B7D848C89878885899183
:1004A00095989B9E9E9FA19C9B9A94989E9DA09B95
:1004B00092918D87847E7E818285827D7A7878751F
:1004C00071757677807F7D82817F7C77747373729C
:1004D0007278746C6B64636967696B64626968677E
:1004E0006A6B6C6E707374777C8081838684888F6E
:1004F0008B8D928E949C9E9D9EA4A59F9E9B959471
:10050000979797999892908C84837E777D7F7C7F54
:100510007E79746D696663626870716C6C6D6D7103
:100520006D6C747579828486898985838581848AD6
:1005300081808A8882817D7F827E7E7D77787D7AC8
:1005400077797A7A7A78767372767674716E6D6F5F
:100550006E696B6B666D787B7D83898987878687FB
:100560008C939595989B9B9F9F9E9D95959C9FA3F3
:10057000A39E9A958D8A88807E828483807B7979F8
:100580007570727373777B797A7D7F7A7375757006
:10059000716F7074706B67646C6F6B6B67606469AC
:1005A00067686D6E7073707276777C7E7A7F8788ED
:1005B000898D8E8F8E8B8E989D9CA0A6A7A3A09DC3
:1005C00099989C9D9A9C9991928F88827A7A7D7B4A
:1005D0007D7F7C7C796E6A6A64636B70716C696D17
:1005E0006E6D6E7075797A80858384868384878545
:1005F0008385817E82817C7E7F7F84837D7A777B09
:100600007A73787C7A7E7E7470716F6E6D6D7173A3
:100610006F7175716E6D676B79797985888587885B
:1006200088898A8E9193999C9EA1A09E9792979873
:10063000999E9F9D9D9C938C8E8A82868A837C7FC7
:100640008079787572787872787A77787675777538
:100650007273726E6D6F6A646769696F726C6464DD
:100660006B6A676C6D6F76767474797A74747A7F5E
:1006700083858A8E8D8F938E919D9C989DA2A19F3C
:100680009B99989495969497928C8F8F877F7E7F75
:100690007D7E81817D78756E6A6E6E6B7076706B13
:1006A00071726D6E71767978798186817C7E7F80BA
:1006B00085878789888484847F7D7E7C7E847D7322
:1006C000797C72757B767A7D767374746E6A6D6EE2
:1006D0006D6C6C6E706E6D6E6B707E817F878B88BB
:1006E0008C8B8A8D8E9094989C9B9B9FA29C9393BD
:1006F0009998979EA09C9B99918C8D8880858B84DE
:1007000080838077797E7B787671777A727477745C
:1007100073726E6E706A65686662636666696D663E
:100720005E616160686D6D757876787D7B76777DCA
:1007300081878A8C90939395948C8C9A9D999FA392
:100740009F9F9C9B9B9591949694918E8E8D867D78
:100750007E7D78797F807D7C79727073736E71771E
:10076000717078756F787C767676747B7C797C7E18
:100770007D80858483847E7C7D7A7A7E7E7E83857F
:100780007E78766F6F75787C7E7A777673706F6D12
:100790006A6C72716E73757576716B6D777F80851B
:1007A00089888B8B8F928F90959B9E9E9EA2A09AFC
:1007B0009A9D9B9597A0A09C9D988F8D8F8B8488E8
:1007C0008B8384867A79807B7779746F7474717483
:1007D000747070706D6F6F66626463646563666782
:1007E000615F5D5A5A5F66686B73787A7C7A797953
:1007F0007B83889095979E9E9D9C9694969EA4A49C
:10080000A3A3A39C9696928A8A8D8B8A88868E88CB
:100810007B7A7875757680817C7E786F7173706C69
:10082000707778787671737878777673777C777766
:100830007F7F7C81817B8082817F7B80847F7F85BD
:10084000827D817B70777B797F837F7B7E7D736EFA
:100850006B6769696C7273707176776D666D767CA3
:100860007E808589818189888991989C9C9A9DA2A6
:100870009C94999E9D9AA2AFA9A5ABA39496A2958C
:100880007E828F90887D7C7F7B7E80747079736A96
:100890007176706E6B625D646F66585C6967565402
:1008A00061635F5E56525A68777D74718083777793
:1008B0007E7D80848E9DA29C9AA1ACABA29FA1A3B9
:1008C000A6A7A5A29B97938A8884828279817E6459
:1008D00067726C69686A686A797F7E79717374750A
:1008E0008088817A808787868E8E818B9E99938F70
:1008F0008E8A7C7C69433737383D2E1B5DCBE0C741
:10090000C4D1DFDBC18C533E3F44402F2C35373000
:1009100039483D302F3B627D7CA8E7DFC9E0EBD74B
:10092000C9CED5CBAD9A865D3E35363F4948383A7B
:100930004E5047474752626A8AA89B93A2A9B7CBF9
:10094000D7D3C0CAD4BFC6C8B6BCAD98ACB4916D3D
:10095000563F37342A292C2A2F43524F4E504B45AD
:1009600051676C6981A2BCCAC5C4C2AA989085802F
:100970007D766D685D44454E3C3D4E5467766D67AF
:10098000727E8A9BA0989EADB9D0DAC9C3D0C9A99E
:10099000A0B0BDCAC3ADAA946C706B392B31221BB9
:1009A000263E463236474A585459818790BBBFABE2
:1009B000B4C0C5D9E5D5C9C1AC98897F84836848DE
:1009C0004F7A88725D585C5845415C706358646129
:1009D0005B67666D8990746A95AA9087838AA5A1E2
:1009E0009496999C9D94816B5C5F6550496B79628C
:1009F0006067677A929C8782AAB3ACB8B4B3BEB77B
:100A0000A8A199A2C0BAA0988D93A18770746F69AC
:100A10006E78816B565E5B54636A5B586671787260
:100A200064636767726E5A6874595876817A6D622A
:100A3000677674636167605F6D828C91968B8EA917
:100A4000B8B5B0AFB6B7A19CB0B0A9A29CA2ADA8F2
:100A5000907D7266606162595F6F757C786E7478A4
:100A6000756C6985927D6A5E6E7C7480847C8F98DB
:100A700095A0A8AAA395A2A4867A879A8B6A686A89
:100A8000625E615D5B646768676C797A82857C8190
:100A90008381817B7E83745C4E4B5C6A676764658F
:100AA000747C7468687A83767275718490828C9E87
:100AB000928FA3A69CAABAA99AA2A09FB0AA96A018
:100AC000A99E9E9F999BA196786D7A7D80857C7A60
:100AD000888572727873747B7D776E67686D6D6CD4
:100AE0006F675C6F78533E4D524D4F51565C5C5072
:100AF0004A69806E667F96988E85899BA6A09BAC7E
:100B0000B9B2AB9C939B9E998A84989C98A39F8E24
:100B100087847C777E76677A8674737C7D8884612F
:100B20005E766D5F768D7F777C798B958688918BED
:100B3000868886817B787D818182919B8F939B873C
:100B4000767E80849082788482736C6B67707A6C16
:100B500063665B5150545E6059555A6060676B67BD
:100B60006E7B86817F909192A18F7E9FAF9497A399
:100B7000918A90908A8192A5A2A3A3989090978938
:100B800077858C827E7A85988D787B88867E8C941A
:100B90008B8E8B8A979A978B8182807B6E6B807D00
:100BA0006B646168635A605E5B6263585155585963
:100BB0005851515D5F60768981737784898B9396F4
:100BC0008F94A8B6A69CBBC0A2A1AAA09898969202
:100BD0008679828A7D798C8676807E6E706D697664
:100BE0007B6E707F817E8282847A64637074727E91
:100BF000888287949492949794949A938A908D8AF9
:100C00008A82837E7280877A797575786A676D7358
:100C10007E6F5D676A605D57575E534D5C635A5DDA
:100C20006F72727E8487888887878A84849494937D
:100C3000A9ADA19E9697A29E919EAA9491A59E96DB
:100C4000998D88928F90978E838E90766C7574793B
:100C5000877C758B806B7A7F7379807B848E7B75C4
:100C60008D927C65626E6B626D776E5E575F6559C3
:100C70005A695E506477686375746A7779626881CF
:100C8000888E96979E9C909EACA1A5B2ACA8A9B068
:100C9000B6A8909096807A9184778D897071786BE0
:100CA000656A6366726F63647579757F796F78774B
:100CB000768089918A808287918F8793A099898A8B
:100CC0009A9586837F7E837E787F8785746E756C28
:100CD00068746D666B6A5E575E656E766D61667090
:100CE000726E68676D7170737E7B728088777487AF
:100CF0008E91999B96969C999196A1A9ACA2A0A43D
:100D00009C9FA39C9C9D9C928C94908A8A858077C2
:100D1000747E87847A7A77676E786969726B6E7190
:100D20006A6E79786D707A736C737B7C7978726A8D
:100D30006261696861657271687177767B6F656EF3
:100D4000747785908C8D9896909A998C95A09692B0
:100D5000989EA59F94979B968E898C92968D797874
:100D60007E6A67797166727973787E736D74766F57
:100D700069686F7E8179838C888A8C8E9294918B3E
:100D8000858281808884788586707F988A7B7B794C
:100D90007573777A706364696262645C65756D60AF
:100DA000635D5870745D69837E79827A7A8B8D8CED
:100DB000948D8D9C978790998C8792A2A9A6A09ECE
:100DC000A7A695908F8A888791928C9092959792FA
:100DD0008C8386938D8283808082766C767F776D1C
:100DE00073726469716862676A605D68686561589A
:100DF000617471697275656D7F706471797B878AC2
:100E00007D7D84838B8E88868B918E89898B909350
:100E10009491939F9E919195928B88898A8F9085CA
:100E2000828C8980837F767A807B74746A6776721D
:100E3000676B6A68757D78757E85807D83898C9205
:100E400095989D9A969796918F91887F84877A6DD1
:100E50006E72696B75695F6A6C615C5E5D5F66642A
:100E600058585F5C616C66647A89817F88807D8E6A
:100E7000928B939A9B9E99909CA7958D9EA1A2AAD6
:100E8000A19499998E8C8F8A8C96928A8C8D8A8760
:100E9000858587858688807D85837C817D76838234
:100EA00073787E6F69746D5E65716D64646B716C6F
:100EB00066696A64666C64596270665F6D75777A9C
:100EC00078787C77777F7E7B868B888D94949499D5
:100ED000A1A5A4A4A6A5A19A92928D8383878587B4
:100EE0008C8A85827D7471736C6C77797676737475
:100EF00074747673767D7F7F818384848483838812
:100F00008A8B8C8D8C87868582838583818285837D
:100F10007D80838184867C7374746A636868606092
:100F2000666867645E5E5F5F64676A70706E6F6C50
:100F30006C77808288929698999B9E9DA1A9AEB16C
:100F4000B2B2AFACABA39795968D898E8A837E7B28
:100F50007B797C7A757B817A76797B797576747109
:100F6000757578807E7A7A7C7B7A7978726D6F700D
:100F700069656B6C6B6E6B646265625D6060616914
:100F80006D6F79827F7F83868C8C868B9596939309
:100F90009293999E99989F9D9897948C898C888418
:100FA000888B898A8B877D7576746C6E767677747C
:100FB000737A7C78787A80847E7D84848080817F57
:100FC0007F8385878B8A8686898A8A8B89878587AE
:100FD000868080807C7D7A75736E6D6A676C6C69C3
:100FE0006766696C645B5C5D5F666A6D7071727286
:100FF0007171737B85858A94939399958F969A994D
:10100000A0A9ABAAABACA8A4A1A2A59F9D9F9A90B2
:10101000898A8882807F7F85857D7F817D7E7B76C2
:10102000756F6C707375726D6C6D6D6E706E6C6ECD
:101030006F6C6E74747577706A6B6B675E5F6665F4
:101040006A7071787E78737A7B778087878B8D90D2
:1010500098999493999D9A9C9F9895978B848B8847
:1010600081858B8B8F9383737C806F7181786C7893
:101070007F77737A7D747480888376798D9585788F
:10108000808E96918489918A8992917D73828173F1
:101090007C82787A7E7B787B8579687776554A5F23
:1010A00070594664705A627567576A80726C8182A3
:1010B0007479807A7E8C92908F96978D8B85818AB9
:1010C0008A8E9CA0A1A29DA1A39A94989C9394A07F
:1010D0009589969586878F867C7E7E7A77787E74D2
:1010E000636670706465736C606768696B676F7066
:1010F00062636B67697581817982918D84858E8F3A
:10110000858485838587919081848D8A8C8F8D8954
:1011100081848B807B82868B8F929188898B827E63
:101120008683777C878382867F706E74736C6A7621
:1011300075636A75696876776F7583817B828E8A3D
:101140007F848D8E918B8F9C9791938F8F8E8991B9
:101150008E807F817D77797D756B6C6C6964626749
:101160006B6B6E7075797A7E7D797D7D7D87887FEA
:101170008385797376726D747B80878B959CA0A72D
:10118000A9ACA99C9A9C9187817876726977888CA2
:1011900098A0A5A8A3A4A7A49F94938C6F6970613D
:1011A0004F4E5B645D6372797A716F7A7369696CB3
:1011B0006E665D5954565459727876828A938D7D45
:1011C00089948D8D8883898A8C88786B64718781F6
:1011D000798A948C8183857F868F9199979098984E
:1011E0008A837A7579797B848C8F878588827870F9
:1011F000727A7069737E817F88908A827064747657
:101200006D78838F9796A0AAA7A39B969187898FC5
:10121000929CA3A2A29E979288796C6A6B605A6195
:101220006F76717275665E5C5352504B505A616AAC
:10123000757A7678797371706E7A837C7A859091FD
:101240009099A4A4968C897E756C69707473787F6C
:10125000898E8C8A89837D7A7F8A8C8C999D9AA2CB
:10126000A7A3A4A4988C86776C777C7A8387898CD3
:10127000807C7E6F5D55524F5053596871717A7EF4
:10128000767D7F767B7B72747C838A949C9D9D9C0B
:101290009B9B928B8A86888A848A989791969A9348
:1012A00088888D8A8278747A7C77767673706C679A
:1012B000656563646C6D6768686E7A7D8389827921
:1012C000757A807C797E828483888F8E959A9699B0
:1012D0009C989EA09E9B938A89929592979A9CA196
:1012E000958D96938888867D75716F7175726E6D18
:1012F0006B6D6D655F5D5A5C5C5A6877767981814C
:101300007872787D7B7E7D7D8284878C908F8D88BE
:101310008082827A7F8A8C8A8985878D8B85817885
:101320006F6C6E727272777A7876787A797D817D59
:101330007B7980827D8487848787828284847E789B
:101340007871707B7C818D8B8485838183837D77AD
:1013500076797C7F7E848B8D938F87949A929297F7
:1013600093898489878482807E7B7A73665F6163D8
:1013700064696B6C737B7F7F7D7B75747C7E8182FF
:101380007E838885888E8A8586837C7C8285878C0F
:101390008E8E939A99948E817675777979808D94D3
:1013A0009A9C959494878487807A777679818889C6
:1013B0008584867F716B675F5E6B72707373707903
:1013C000817A747880837F7F837F777271757A7971
:1013D0007A828685838389908E898E939293918871
:1013E0007C6865706C6C767B7E7D787679776F6DC6
:1013F000706F6D6D737B818890979D9D93888579C3
:101400006C77827E85919BACAA9D9793836F6B715D
:1014100073717586918F88817B756E5F5B6B73725C
:101420007C8C93969DA2A6A39A91867B6A58504F76
:1014300057636E7E898D8D8B8D877A797671777CF7
:10144000838A8179786F6A6F767A7B7D838B9396B6
:101450009A9E9B98948D887F736C665D5C636D76B5
:101460007C8693958F929592908E8C8A80737078FB
:10147000786D6D7E8884808892928C8D9495918A07
:10148000888C816B696E68615E676D666671787C59
:10149000858F9391918C857E7B7D79757877788027
:1014A00080808383868886888C89837E79797B7324
:1014B0007076756F6D6D6D6C6D76807F818A8E8EA6
:1014C0009092989C928F9790858A8D867D7977757A
:1014D0007A82817D7D7F7D797571727778757D8364
:1014E0007E818A86818384817E818D877B85887FCA
:1014F000828784808387817774787468737F716E44
:101500007B7E7D797A80776D7C877B757F84807C1C
:10151000828D88818C8C7D7F8686857E8493867C77
:101520008D907F7B8B9184818F93868595947F7E30
:10153000888987838C92837E827D7A7778817C7B91
:1015400089878089887E7F8489837A807F737070A1
:10155000706F6F71747A7A777470727371787A774A
:101560007E817D81898783858685858484837D7C52
:10157000828482868989847F837E7476747177778A
:101580007373767C7F8285878D88868C8D8F8B8424
:10159000888D9092969B988F8D887F7D7B787573D0
:1015A000797C76787D7776797878777879727377C1
:1015B000737374787C797E86837C7A807F7C848464
:1015C0007F8383817F7F7F7E7E7878807E78787648
:1015D000767B7F8083878883868A838083808188E7
:1015E0008885848485878B86858B89858687847D9D
:1015F00077787F7F7D82857F797B78757774757842
:101600007883867C8289818082848885888A817FAC
:101610007F7A7A7E7F7E7D7E838177757A76767E0D
:101620007F7E7F7F8184808089837A80837F7D7DB8
:101630007D8186878B8E8B8B867D7C7B7D7A757991
:101640007D78747574727678767A7F7F7C7E8282FC
:101650007D7B828584888E8E8B8A8A89888A8C8B12
:101660008A8E948F8C918A83837D7C7B7476766E50
:101670006E706D6D71717275787D7B777E817C8007
:10168000858382858787898E8C87858285827B7911
:10169000767474777E7D7A807B757B7670787872CD
:1016A0007B807F81807D7F82807F868D8A8B9290F8
:1016B000898683807F81868C8A827F827C7276791C
:1016C000746E737D7E7C818281807D82837B7F824C
:1016D0007A7C807D80868786868A8E857F868680D6
:1016E00084888685838282808385807B7A7E7D78EC
:1016F000787776787E858381837F7C80807D807C0F
:101700007B82807C7A7576777977757E827D808121
:101710007B7977777A7577838581838385848185E3
:1017200088868389908B8F948F929792908D898BE6
:10173000867E7D7A7575747170717474707075734E
:1017400070787B797E837F7D858988888786888687
:1017500084837D7C818487848185807D7E76757A93
:1017600071727D77717573727775767A81888988E1
:10177000858183848483828991938F8D8D867F7FF9
:1017800082867F7B87888083837E7F7F7C7C7B785B
:1017900079777272737677787B7B7C7E7E7D838BA4
:1017A00088888F8E8E908E8682888C888281827FB8
:1017B0007B7773737270777A75787A73767A767AC4
:1017C0007B78818177797C797B807C7B838D908924
:1017D0008485837C7C7F797781817E84827E7E7B19
:1017E0007F848482858B89898C8487908B888B8881
:1017F00087837E7D77747977737879767A7B737651
:101800007A6F717C7A767D837F81898B8B87868ADC
:101810008783858684848387898385847C80867D8D
:101820007978757A7A767674747878757C807E7F2C
:10183000827F7A7A7C7C7C7C848C88888883828195
:101840007D7D83837C848E8984837E808382817F77
:101850007C7F7B7778767779767A7C787B817B79E9
:1018600084837C8588818488858485888B8B8D9012
:10187000908884888584828286817C7E7A77797755
:1018800075766F6E7B7A727677757A77767E7F7DE6
:101890008389827C8185828081848786828183811D
:1018A0007C7E82807B7C8688807F8180808184882A
:1018B000838187867F7F7F80837F7E828182827D16
:1018C00080867B79827B7B837E7B7E7E7B7A808237
:1018D00080807D7E80818482858E898688848284D2
:1018E000818082797C857C797E7B7A7672787D7D39
:1018F0007D817F757677727775717D7D777A7D8052
:101900007E7C81888B888C9595908F89878C8D8C37
:101910008E8A8688817678797372716F75746F7527
:10192000797C77727D7F777F8482848383868688C3
:101930008A8A88878684858B8A878B898785808336
:10194000817F847B757C7A747477766F707373791A
:101950007979807E77797A7C7B788389838487879D
:101960008682858885828184878588888280828432
:101970008383837D797876767876797C7B7E7F7CAD
:101980007F81807C7F85807D8788828486827B7C46
:101990008281818382838381828182848184857F25
:1019A000828182867A777C7776787A79777975778B
:1019B000807D7F867F7D817D7B7A78818581818135
:1019C000807F7F8381828682858D8A8A8B84858AC7
:1019D0008986848685827E7C7F7F7C7E7F7D7E7A01
:1019E00073767D7D787B7E7B7979787A7E7C7D804D
:1019F000807F8285858686818288898E8B83868694
:101A00008488878684818480797775787876757004
:101A10007477747B817670787D78777E8384858413
:101A2000868A847F8286888682868B8C8D8F898445
:101A30008A8A827F807E746A6F706A6D767B7A7C18
:101A400081808186848588847F7F7C797E807E8486
:101A5000898991979496948B87847D767477767331
:101A600075788085868B878487817875726A676CC4
:101A70006C6E70717E8A83848F92888186847B7A73
:101A80007471726F737E858B8D90979B9993887B11
:101A9000726F6A6464686A6368787C86969EAAAD91
:101AA000A9ADA99C968F8C949B9C98A3ADA7AFB829
:101AB000B8B3ABA493827661524C4A494C53585BFD
:101AC00061686B7476726F6154473B3D464D56605A
:101AD00067747B7983908C8286846E5D595B6166C6
:101AE0006D7881898D95A4AAA7A2A0A7A3928886C4
:101AF0008B91979EACBBB9B6BFB8B1ACA0958A7CB0
:101B0000695E64656771777E7D797E7F7A787672AB
:101B1000634D403C4550546070746D717D7E7570AE
:101B20006F6856474248545F6773828A8692A8B1AD
:101B3000ADA9ACACA28F8A91969B9DA6B6BBB8B757
:101B4000BABCB0A7B0AB917E716A70736D748483B8
:101B500074757F7F767176786953484B505458621C
:101B6000777F757782827C797B7D6F554A515F677D
:101B7000646C82867C7E86939692999C8E735D635C
:101B800075797F8C9AA29D9CA6ABA1979896897433
:101B90006369767475808D918B888D938C82868134
:101BA0006C5A4C4E5E6469717984847D8080746C5B
:101BB00072746751454D5F686E7D8F978C87929ADE
:101BC0009B9DA6AC9D857F86909799A1B2BBB3B42F
:101BD000BDBBAFACAEA68E70646871706F7E8A813B
:101BE00075737A76625D6D6C543F36363F494E5B55
:101BF0006D6D6062767F787B8686785F56637379D9
:101C00007E8B9CA0969AA7A9A19BA0A08C73676BC2
:101C10007D888A96A4A19496A19C90898D917E66D8
:101C20005E5B5E61687381867B7B84837D7D818161
:101C300074625757656D7175808C80798583767273
:101C400077745F4B484957666C78838682838C969D
:101C50009998A1AD9F89868085969CA8B9BFB8B296
:101C6000B8BBB2AEB4AE9C8775707677767B7F8159
:101C700078737B7F78747B7668564841424A565F1A
:101C8000666C6767757F7E7470726F62554C5365C2
:101C90006B73858F8E8F979D9F9E9DA2A088757177
:101CA00070767D808693938F979B9E9E999C9B8553
:101CB0006B5D59627077808C8D8D9393938E888C39
:101CC0008A7C6D605B62686F75787F7C757A7E77E1
:101CD00071716E69543C3B47505A63687680818FBE
:101CE000A2A49EA2A9A28B7A74727E8C9BA8AEB38A
:101CF000B8B9BABCB5B0B4B4A796857679808086F9
:101D00009093867C84867A787C7263524031303F2F
:101D10004A4B56696A6A7983817C7F81786A60540C
:101D20004E6377777D8E9592949F9F929399948935
:101D30007A6B5F616D757D8A9593969FA29E98964A
:101D4000988C72655A58687275839393959FA09A80
:101D500097999486786A5854666C69747E7E7E7E04
:101D60007A776E686E6A584C42333A525E637B8F64
:101D70008E949FA3A4A5A6A3998D7F747D919B9F0C
:101D8000B1C4BDB5C0C4BFB7AFA69C8E7462636B4F
:101D900072777886897E7F807C777475726655410C
:101DA0003C464F57626E747476767C7B777F7D6E8F
:101DB000635549556A727C94A19B9FA6A2A29F95E8
:101DC000928B77695E5D6877838B999D93979D94DD
:101DD0009093928774685D515C6D7A838894989231
