Component: ARM Compiler 5.06 update 6 (build 750) Tool: armlink [4d35ed]

==============================================================================

Section Cross References

    main.o(.text) refers to main.o(.text) for gap_s_adv_parameters_set
    main.o(.text) refers to debug.o(.text) for dbg_printf
    main.o(.text) refers to otav30.o(.text) for ota_rsp
    main.o(.text) refers to queue.o(.text) for enqueue_all
    main.o(.text) refers to uread4.o(.text) for __aeabi_uread4
    main.o(.text) refers to main.o(.data) for dev_addr
    main.o(.text) refers to uart.o(.bss) for rx_queue
    main.o(.text) refers to otav30.o(.data) for ota_state
    main.o(.text) refers to rt_memcpy.o(.text) for __aeabi_memcpy
    main.o(.text) refers to main.o(i.__ARM_common_switch8) for __ARM_common_switch8
    main.o(.text) refers to uwrite4.o(.text) for __aeabi_uwrite4
    main.o(.text) refers to aeabi_sdiv.o(.text) for __aeabi_idivmod
    main.o(.text) refers to uart.o(.text) for uart_write
    main.o(.text) refers to timer.o(.text) for timer_disable
    main.o(.text) refers to pad_mux_ctrl.o(.text) for pad_mux_write
    main.o(.text) refers to gpio.o(.text) for gpi_config
    main.o(.text) refers to main.o(.constdata) for _gatt_database_report_handle
    main.o(.text) refers to uart.o(.data) for UART_CTRL
==============================================================================

Removing Unused input sections from the image.

    Removing main.o(.rev16_text), (4 bytes).
    Removing main.o(.revsh_text), (4 bytes).
    Removing gpio.o(.rev16_text), (4 bytes).
    Removing gpio.o(.revsh_text), (4 bytes).
    Removing delay.o(.rev16_text), (4 bytes).
    Removing delay.o(.revsh_text), (4 bytes).
    Removing pad_mux_ctrl.o(.rev16_text), (4 bytes).
    Removing pad_mux_ctrl.o(.revsh_text), (4 bytes).
    Removing uart.o(.rev16_text), (4 bytes).
    Removing uart.o(.revsh_text), (4 bytes).
    Removing debug.o(.rev16_text), (4 bytes).
    Removing debug.o(.revsh_text), (4 bytes).
    Removing queue.o(.rev16_text), (4 bytes).
    Removing queue.o(.revsh_text), (4 bytes).
    Removing timer.o(.rev16_text), (4 bytes).
    Removing timer.o(.revsh_text), (4 bytes).
    Removing otav30.o(.rev16_text), (4 bytes).
    Removing otav30.o(.revsh_text), (4 bytes).
==============================================================================

Image Symbol Table

    Local Symbols

    Symbol Name                              Value     Ov Type        Size  Object(Section)

    ../clib/angel/boardlib.s                 0x00000000   Number         0  boardinit1.o ABSOLUTE
    ../clib/angel/boardlib.s                 0x00000000   Number         0  boardinit2.o ABSOLUTE
    ../clib/angel/boardlib.s                 0x00000000   Number         0  boardshut.o ABSOLUTE
    ../clib/angel/boardlib.s                 0x00000000   Number         0  boardinit3.o ABSOLUTE
    ../clib/angel/handlers.s                 0x00000000   Number         0  __scatter_zi.o ABSOLUTE
    ../clib/angel/handlers.s                 0x00000000   Number         0  __scatter_copy.o ABSOLUTE
    ../clib/angel/kernel.s                   0x00000000   Number         0  rtexit.o ABSOLUTE
    ../clib/angel/kernel.s                   0x00000000   Number         0  __rtentry.o ABSOLUTE
    ../clib/angel/kernel.s                   0x00000000   Number         0  __rtentry4.o ABSOLUTE
    ../clib/angel/kernel.s                   0x00000000   Number         0  __rtentry2.o ABSOLUTE
    ../clib/angel/kernel.s                   0x00000000   Number         0  rtexit2.o ABSOLUTE
    ../clib/angel/rt.s                       0x00000000   Number         0  rt_div0.o ABSOLUTE
    ../clib/angel/rt.s                       0x00000000   Number         0  aeabi_idiv0_sigfpe.o ABSOLUTE
    ../clib/angel/rt.s                       0x00000000   Number         0  rt_raise.o ABSOLUTE
    ../clib/angel/rt.s                       0x00000000   Number         0  aeabi_idiv0.o ABSOLUTE
    ../clib/angel/rt.s                       0x00000000   Number         0  rt_locale_intlibspace.o ABSOLUTE
    ../clib/angel/rt.s                       0x00000000   Number         0  rt_locale.o ABSOLUTE
    ../clib/angel/rt.s                       0x00000000   Number         0  rt_ctype_table.o ABSOLUTE
    ../clib/angel/scatterp.s                 0x00000000   Number         0  __scatter.o ABSOLUTE
    ../clib/angel/startup.s                  0x00000000   Number         0  __main.o ABSOLUTE
    ../clib/angel/sys.s                      0x00000000   Number         0  indicate_semi.o ABSOLUTE
    ../clib/angel/sys.s                      0x00000000   Number         0  use_no_semi.o ABSOLUTE
    ../clib/angel/sys.s                      0x00000000   Number         0  tempstk.o ABSOLUTE
    ../clib/angel/sys.s                      0x00000000   Number         0  libspace.o ABSOLUTE
    ../clib/angel/sys.s                      0x00000000   Number         0  sys_stackheap_outer.o ABSOLUTE
    ../clib/angel/sysapp.c                   0x00000000   Number         0  sys_command.o ABSOLUTE
    ../clib/angel/sysapp.c                   0x00000000   Number         0  sys_wrch.o ABSOLUTE
    ../clib/angel/sysapp.c                   0x00000000   Number         0  sys_exit.o ABSOLUTE
    ../clib/armsys.c                         0x00000000   Number         0  _get_argv_nomalloc.o ABSOLUTE
    ../clib/armsys.c                         0x00000000   Number         0  argv_veneer.o ABSOLUTE
    ../clib/armsys.c                         0x00000000   Number         0  no_argv.o ABSOLUTE
    ../clib/bigflt.c                         0x00000000   Number         0  bigflt0.o ABSOLUTE
    ../clib/btod.c                           0x00000000   Number         0  btod.o ABSOLUTE
    ../clib/division.c                       0x00000000   Number         0  lludiv10.o ABSOLUTE
    ../clib/division.c                       0x00000000   Number         0  rtudiv10.o ABSOLUTE
    ../clib/division.s                       0x00000000   Number         0  aeabi_sdiv.o ABSOLUTE
    ../clib/division.s                       0x00000000   Number         0  aeabi_sdiv_div0.o ABSOLUTE
    ../clib/heapalloc.c                      0x00000000   Number         0  hrguard.o ABSOLUTE
    ../clib/heapaux.c                        0x00000000   Number         0  heapauxi.o ABSOLUTE
    ../clib/libinit.s                        0x00000000   Number         0  libshutdown2.o ABSOLUTE
    ../clib/libinit.s                        0x00000000   Number         0  libinit2.o ABSOLUTE
    ../clib/libinit.s                        0x00000000   Number         0  libinit.o ABSOLUTE
    ../clib/libinit.s                        0x00000000   Number         0  libshutdown.o ABSOLUTE
    ../clib/locale.c                         0x00000000   Number         0  _wcrtomb.o ABSOLUTE
    ../clib/locale.s                         0x00000000   Number         0  lc_ctype_c.o ABSOLUTE
    ../clib/locale.s                         0x00000000   Number         0  lc_numeric_c.o ABSOLUTE
    ../clib/memcpset.c                       0x00000000   Number         0  rt_memcpy.o ABSOLUTE
    ../clib/memcpset.c                       0x00000000   Number         0  rt_memcpy.o ABSOLUTE
    ../clib/memcpset.c                       0x00000000   Number         0  rt_memclr.o ABSOLUTE
    ../clib/misc.s                           0x00000000   Number         0  printf_stubs.o ABSOLUTE
    ../clib/printf.c                         0x00000000   Number         0  _printf_hex_int_ll.o ABSOLUTE
    ../clib/printf.c                         0x00000000   Number         0  _printf_fp_dec.o ABSOLUTE
    ../clib/printf.c                         0x00000000   Number         0  _printf_intcommon.o ABSOLUTE
    ../clib/printf.c                         0x00000000   Number         0  c89vsprintf.o ABSOLUTE
    ../clib/printf.c                         0x00000000   Number         0  _printf_char_common.o ABSOLUTE
    ../clib/printf.c                         0x00000000   Number         0  __printf_flags_ss_wp.o ABSOLUTE
    ../clib/printf.c                         0x00000000   Number         0  __printf_ss_wp.o ABSOLUTE
    ../clib/printf.c                         0x00000000   Number         0  _printf_wchar.o ABSOLUTE
    ../clib/printf.c                         0x00000000   Number         0  __printf_flags_wp.o ABSOLUTE
    ../clib/printf.c                         0x00000000   Number         0  __printf_wp.o ABSOLUTE
    ../clib/printf.c                         0x00000000   Number         0  _printf_char.o ABSOLUTE
    ../clib/printf.c                         0x00000000   Number         0  __printf_flags_ss.o ABSOLUTE
    ../clib/printf.c                         0x00000000   Number         0  __printf_ss.o ABSOLUTE
    ../clib/printf.c                         0x00000000   Number         0  __printf_flags.o ABSOLUTE
    ../clib/printf.c                         0x00000000   Number         0  _printf_hex_int_ll_ptr.o ABSOLUTE
    ../clib/printf.c                         0x00000000   Number         0  _printf_hex_ll_ptr.o ABSOLUTE
    ../clib/printf.c                         0x00000000   Number         0  _printf_hex_int_ptr.o ABSOLUTE
    ../clib/printf.c                         0x00000000   Number         0  _sputc.o ABSOLUTE
    ../clib/printf.c                         0x00000000   Number         0  _printf_wctomb.o ABSOLUTE
    ../clib/printf.c                         0x00000000   Number         0  _printf_longlong_dec.o ABSOLUTE
    ../clib/printf.c                         0x00000000   Number         0  _printf_oct_ll.o ABSOLUTE
    ../clib/printf.c                         0x00000000   Number         0  _printf_charcount.o ABSOLUTE
    ../clib/printf.c                         0x00000000   Number         0  _printf_oct_int.o ABSOLUTE
    ../clib/printf.c                         0x00000000   Number         0  _printf_fp_infnan.o ABSOLUTE
    ../clib/printf.c                         0x00000000   Number         0  _printf_oct_int_ll.o ABSOLUTE
    ../clib/printf.c                         0x00000000   Number         0  _printf_str.o ABSOLUTE
    ../clib/printf.c                         0x00000000   Number         0  _printf_hex_ll.o ABSOLUTE
    ../clib/printf.c                         0x00000000   Number         0  _printf_truncate.o ABSOLUTE
    ../clib/printf.c                         0x00000000   Number         0  __printf_nopercent.o ABSOLUTE
    ../clib/printf.c                         0x00000000   Number         0  _printf_hex_int.o ABSOLUTE
    ../clib/printf.c                         0x00000000   Number         0  _printf_pad.o ABSOLUTE
    ../clib/printf.c                         0x00000000   Number         0  __printf.o ABSOLUTE
    ../clib/printf.c                         0x00000000   Number         0  _printf_hex_ptr.o ABSOLUTE
    ../clib/printf.c                         0x00000000   Number         0  _printf_dec.o ABSOLUTE
    ../clib/printf_percent.s                 0x00000000   Number         0  _printf_n.o ABSOLUTE
    ../clib/printf_percent.s                 0x00000000   Number         0  _printf_s.o ABSOLUTE
    ../clib/printf_percent.s                 0x00000000   Number         0  _printf_c.o ABSOLUTE
    ../clib/printf_percent.s                 0x00000000   Number         0  _printf_percent_end.o ABSOLUTE
    ../clib/printf_percent.s                 0x00000000   Number         0  _printf_u.o ABSOLUTE
    ../clib/printf_percent.s                 0x00000000   Number         0  _printf_llx.o ABSOLUTE
    ../clib/printf_percent.s                 0x00000000   Number         0  _printf_llo.o ABSOLUTE
    ../clib/printf_percent.s                 0x00000000   Number         0  _printf_ls.o ABSOLUTE
    ../clib/printf_percent.s                 0x00000000   Number         0  _printf_lc.o ABSOLUTE
    ../clib/printf_percent.s                 0x00000000   Number         0  _printf_l.o ABSOLUTE
    ../clib/printf_percent.s                 0x00000000   Number         0  _printf_ll.o ABSOLUTE
    ../clib/printf_percent.s                 0x00000000   Number         0  _printf_llu.o ABSOLUTE
    ../clib/printf_percent.s                 0x00000000   Number         0  _printf_lld.o ABSOLUTE
    ../clib/printf_percent.s                 0x00000000   Number         0  _printf_lli.o ABSOLUTE
    ../clib/printf_percent.s                 0x00000000   Number         0  _printf_percent.o ABSOLUTE
    ../clib/printf_percent.s                 0x00000000   Number         0  _printf_a.o ABSOLUTE
    ../clib/printf_percent.s                 0x00000000   Number         0  _printf_g.o ABSOLUTE
    ../clib/printf_percent.s                 0x00000000   Number         0  _printf_e.o ABSOLUTE
    ../clib/printf_percent.s                 0x00000000   Number         0  _printf_f.o ABSOLUTE
    ../clib/printf_percent.s                 0x00000000   Number         0  _printf_d.o ABSOLUTE
    ../clib/printf_percent.s                 0x00000000   Number         0  _printf_i.o ABSOLUTE
    ../clib/printf_percent.s                 0x00000000   Number         0  _printf_o.o ABSOLUTE
    ../clib/printf_percent.s                 0x00000000   Number         0  _printf_p.o ABSOLUTE
    ../clib/printf_percent.s                 0x00000000   Number         0  _printf_x.o ABSOLUTE
    ../clib/signal.c                         0x00000000   Number         0  defsig_other.o ABSOLUTE
    ../clib/signal.c                         0x00000000   Number         0  defsig_segv_inner.o ABSOLUTE
    ../clib/signal.c                         0x00000000   Number         0  defsig_cppl_inner.o ABSOLUTE
    ../clib/signal.c                         0x00000000   Number         0  defsig_pvfn_inner.o ABSOLUTE
    ../clib/signal.c                         0x00000000   Number         0  defsig_stak_inner.o ABSOLUTE
    ../clib/signal.c                         0x00000000   Number         0  defsig_rtmem_formal.o ABSOLUTE
    ../clib/signal.c                         0x00000000   Number         0  defsig_rtmem_outer.o ABSOLUTE
    ../clib/signal.c                         0x00000000   Number         0  defsig_rtred_inner.o ABSOLUTE
    ../clib/signal.c                         0x00000000   Number         0  defsig_general.o ABSOLUTE
    ../clib/signal.c                         0x00000000   Number         0  __raise.o ABSOLUTE
    ../clib/signal.c                         0x00000000   Number         0  defsig_abrt_inner.o ABSOLUTE
    ../clib/signal.c                         0x00000000   Number         0  defsig_rtmem_inner.o ABSOLUTE
    ../clib/signal.c                         0x00000000   Number         0  defsig_fpe_inner.o ABSOLUTE
    ../clib/signal.c                         0x00000000   Number         0  defsig_exit.o ABSOLUTE
    ../clib/signal.c                         0x00000000   Number         0  defsig_fpe_formal.o ABSOLUTE
    ../clib/signal.c                         0x00000000   Number         0  defsig_fpe_outer.o ABSOLUTE
    ../clib/signal.s                         0x00000000   Number         0  defsig.o ABSOLUTE
    ../clib/stdlib.c                         0x00000000   Number         0  exit.o ABSOLUTE
    ../clib/string.c                         0x00000000   Number         0  memcmp.o ABSOLUTE
    ../clib/string.c                         0x00000000   Number         0  strcmp.o ABSOLUTE
    ../clib/unhosted.c                       0x00000000   Number         0  uwrite4.o ABSOLUTE
    ../clib/unhosted.c                       0x00000000   Number         0  uread4.o ABSOLUTE
    ../fplib/cfplib/daddsub.c                0x00000000   Number         0  daddsub.o ABSOLUTE
    ../fplib/cfplib/ddiv.c                   0x00000000   Number         0  ddiv.o ABSOLUTE
    ../fplib/cfplib/dmul.c                   0x00000000   Number         0  dmul.o ABSOLUTE
    ../fplib/cfplib/f2d.c                    0x00000000   Number         0  f2d.o ABSOLUTE
    ../fplib/cfplib/ffix.c                   0x00000000   Number         0  dfixui.o ABSOLUTE
    ../fplib/cfplib/fflt.c                   0x00000000   Number         0  fflti.o ABSOLUTE
    ../fplib/cfplib/fflt.c                   0x00000000   Number         0  dflti.o ABSOLUTE
    ../fplib/cfplib/fpinit.c                 0x00000000   Number         0  fpinit.o ABSOLUTE
    ../fplib/cfplib/ieee_status.c            0x00000000   Number         0  ieee_status.o ABSOLUTE
    ../fplib/faddsub6m.s                     0x00000000   Number         0  faddsub.o ABSOLUTE
    ../fplib/printf1.s                       0x00000000   Number         0  printf1.o ABSOLUTE
    ../fplib/usenofp.s                       0x00000000   Number         0  usenofp.o ABSOLUTE
    ../mathlib/fpclassify.c                  0x00000000   Number         0  fpclassify.o ABSOLUTE
    ..\..\..\BLE\otaV30.c                    0x00000000   Number         0  otav30.o ABSOLUTE
    ..\..\..\Rtt\SEGGER_RTT.c                0x00000000   Number         0  segger_rtt.o ABSOLUTE
    ..\..\..\Rtt\SEGGER_RTT_Syscalls_KEIL.c  0x00000000   Number         0  segger_rtt_syscalls_keil.o ABSOLUTE
    ..\..\..\Rtt\SEGGER_RTT_printf.c         0x00000000   Number         0  segger_rtt_printf.o ABSOLUTE
    ..\..\..\Source\debug.c                  0x00000000   Number         0  debug.o ABSOLUTE
    ..\..\..\Source\delay.c                  0x00000000   Number         0  delay.o ABSOLUTE
    ..\..\..\Source\gpio.c                   0x00000000   Number         0  gpio.o ABSOLUTE
    ..\..\..\Source\pad_mux_ctrl.c           0x00000000   Number         0  pad_mux_ctrl.o ABSOLUTE
    ..\..\..\Source\queue.c                  0x00000000   Number         0  queue.o ABSOLUTE
    ..\..\..\Source\timer.c                  0x00000000   Number         0  timer.o ABSOLUTE
    ..\..\..\Source\uart.c                   0x00000000   Number         0  uart.o ABSOLUTE
    ..\\..\\..\\BLE\\otaV30.c                0x00000000   Number         0  otav30.o ABSOLUTE
    ..\\..\\..\\Rtt\\SEGGER_RTT.c            0x00000000   Number         0  segger_rtt.o ABSOLUTE
    ..\\..\\..\\Rtt\\SEGGER_RTT_Syscalls_KEIL.c 0x00000000   Number         0  segger_rtt_syscalls_keil.o ABSOLUTE
    ..\\..\\..\\Rtt\\SEGGER_RTT_printf.c     0x00000000   Number         0  segger_rtt_printf.o ABSOLUTE
    ..\\..\\..\\Source\\debug.c              0x00000000   Number         0  debug.o ABSOLUTE
    ..\\..\\..\\Source\\delay.c              0x00000000   Number         0  delay.o ABSOLUTE
    ..\\..\\..\\Source\\gpio.c               0x00000000   Number         0  gpio.o ABSOLUTE
    ..\\..\\..\\Source\\pad_mux_ctrl.c       0x00000000   Number         0  pad_mux_ctrl.o ABSOLUTE
    ..\\..\\..\\Source\\queue.c              0x00000000   Number         0  queue.o ABSOLUTE
    ..\\..\\..\\Source\\timer.c              0x00000000   Number         0  timer.o ABSOLUTE
    ..\\..\\..\\Source\\uart.c               0x00000000   Number         0  uart.o ABSOLUTE
    ..\\main.c                               0x00000000   Number         0  main.o ABSOLUTE
    ..\main.c                                0x00000000   Number         0  main.o ABSOLUTE
    Driver\\aec-ccm.c                        0x00000000   Number         0  aec-ccm.o ABSOLUTE
    Driver\aec-ccm.c                         0x00000000   Number         0  aec-ccm.o ABSOLUTE
    Driver\aes.c                             0x00000000   Number         0  aes.o ABSOLUTE
    Main\\main.c                             0x00000000   Number         0  main.o ABSOLUTE
    Main\\pmu.c                              0x00000000   Number         0  pmu.o ABSOLUTE
    Main\\rom.c                              0x00000000   Number         0  rom.o ABSOLUTE
    Main\main.c                              0x00000000   Number         0  main.o ABSOLUTE
    Main\pmu.c                               0x00000000   Number         0  pmu.o ABSOLUTE
    Main\rom.c                               0x00000000   Number         0  rom.o ABSOLUTE
    RTE\Device\ARMCM0\startup_ARMCM0.s       0x00000000   Number         0  startup_armcm0.o ABSOLUTE
    RTE\Device\ARMCM0\system_ARMCM0.c        0x00000000   Number         0  system_armcm0.o ABSOLUTE
    RTE\\Device\\ARMCM0\\system_ARMCM0.c     0x00000000   Number         0  system_armcm0.o ABSOLUTE
    dc.s                                     0x00000000   Number         0  dc.o ABSOLUTE
    RESET                                    0x10000000   Section      192  startup_armcm0.o(RESET)
    !!!main                                  0x100000c0   Section        8  __main.o(!!!main)
    !!!scatter                               0x100000c8   Section       60  __scatter.o(!!!scatter)
    !!handler_copy                           0x10000104   Section       26  __scatter_copy.o(!!handler_copy)
    !!handler_zi                             0x10000120   Section       28  __scatter_zi.o(!!handler_zi)
    .ARM.Collect$$_printf_percent$$00000000  0x1000013c   Section        2  _printf_percent.o(.ARM.Collect$$_printf_percent$$00000000)
    .ARM.Collect$$_printf_percent$$00000001  0x1000013e   Section       10  _printf_n.o(.ARM.Collect$$_printf_percent$$00000001)
    .ARM.Collect$$_printf_percent$$00000002  0x10000148   Section       10  _printf_p.o(.ARM.Collect$$_printf_percent$$00000002)
    .ARM.Collect$$_printf_percent$$00000003  0x10000152   Section       10  _printf_f.o(.ARM.Collect$$_printf_percent$$00000003)
    .ARM.Collect$$_printf_percent$$00000004  0x1000015c   Section       10  _printf_e.o(.ARM.Collect$$_printf_percent$$00000004)
    .ARM.Collect$$_printf_percent$$00000005  0x10000166   Section       10  _printf_g.o(.ARM.Collect$$_printf_percent$$00000005)
    .ARM.Collect$$_printf_percent$$00000006  0x10000170   Section       10  _printf_a.o(.ARM.Collect$$_printf_percent$$00000006)
    .ARM.Collect$$_printf_percent$$00000007  0x1000017a   Section       10  _printf_ll.o(.ARM.Collect$$_printf_percent$$00000007)
    .ARM.Collect$$_printf_percent$$00000008  0x10000184   Section       10  _printf_i.o(.ARM.Collect$$_printf_percent$$00000008)
    .ARM.Collect$$_printf_percent$$00000009  0x1000018e   Section       10  _printf_d.o(.ARM.Collect$$_printf_percent$$00000009)
    .ARM.Collect$$_printf_percent$$0000000A  0x10000198   Section       10  _printf_u.o(.ARM.Collect$$_printf_percent$$0000000A)
    .ARM.Collect$$_printf_percent$$0000000B  0x100001a2   Section       10  _printf_o.o(.ARM.Collect$$_printf_percent$$0000000B)
    .ARM.Collect$$_printf_percent$$0000000C  0x100001ac   Section       10  _printf_x.o(.ARM.Collect$$_printf_percent$$0000000C)
    .ARM.Collect$$_printf_percent$$0000000D  0x100001b6   Section       10  _printf_lli.o(.ARM.Collect$$_printf_percent$$0000000D)
    .ARM.Collect$$_printf_percent$$0000000E  0x100001c0   Section       10  _printf_lld.o(.ARM.Collect$$_printf_percent$$0000000E)
    .ARM.Collect$$_printf_percent$$0000000F  0x100001ca   Section       10  _printf_llu.o(.ARM.Collect$$_printf_percent$$0000000F)
    .ARM.Collect$$_printf_percent$$00000010  0x100001d4   Section       10  _printf_llo.o(.ARM.Collect$$_printf_percent$$00000010)
    .ARM.Collect$$_printf_percent$$00000011  0x100001de   Section       10  _printf_llx.o(.ARM.Collect$$_printf_percent$$00000011)
    .ARM.Collect$$_printf_percent$$00000012  0x100001e8   Section       10  _printf_l.o(.ARM.Collect$$_printf_percent$$00000012)
    .ARM.Collect$$_printf_percent$$00000013  0x100001f2   Section       10  _printf_c.o(.ARM.Collect$$_printf_percent$$00000013)
    .ARM.Collect$$_printf_percent$$00000014  0x100001fc   Section       10  _printf_s.o(.ARM.Collect$$_printf_percent$$00000014)
    .ARM.Collect$$_printf_percent$$00000015  0x10000206   Section       10  _printf_lc.o(.ARM.Collect$$_printf_percent$$00000015)
    .ARM.Collect$$_printf_percent$$00000016  0x10000210   Section       10  _printf_ls.o(.ARM.Collect$$_printf_percent$$00000016)
    .ARM.Collect$$_printf_percent$$00000017  0x1000021a   Section        4  _printf_percent_end.o(.ARM.Collect$$_printf_percent$$00000017)
    .ARM.Collect$$libinit$$00000000          0x1000021e   Section        2  libinit.o(.ARM.Collect$$libinit$$00000000)
    .ARM.Collect$$libinit$$00000002          0x10000220   Section        0  libinit2.o(.ARM.Collect$$libinit$$00000002)
    .ARM.Collect$$libinit$$00000004          0x10000220   Section        0  libinit2.o(.ARM.Collect$$libinit$$00000004)
    .ARM.Collect$$libinit$$0000000A          0x10000220   Section        0  libinit2.o(.ARM.Collect$$libinit$$0000000A)
    .ARM.Collect$$libinit$$0000000C          0x10000220   Section        0  libinit2.o(.ARM.Collect$$libinit$$0000000C)
    .ARM.Collect$$libinit$$0000000E          0x10000220   Section        0  libinit2.o(.ARM.Collect$$libinit$$0000000E)
    .ARM.Collect$$libinit$$0000000F          0x10000220   Section        6  libinit2.o(.ARM.Collect$$libinit$$0000000F)
    .ARM.Collect$$libinit$$00000011          0x10000226   Section        0  libinit2.o(.ARM.Collect$$libinit$$00000011)
    .ARM.Collect$$libinit$$00000012          0x10000226   Section       12  libinit2.o(.ARM.Collect$$libinit$$00000012)
    .ARM.Collect$$libinit$$00000013          0x10000232   Section        0  libinit2.o(.ARM.Collect$$libinit$$00000013)
    .ARM.Collect$$libinit$$00000015          0x10000232   Section        0  libinit2.o(.ARM.Collect$$libinit$$00000015)
    .ARM.Collect$$libinit$$00000016          0x10000232   Section       10  libinit2.o(.ARM.Collect$$libinit$$00000016)
    .ARM.Collect$$libinit$$00000017          0x1000023c   Section        0  libinit2.o(.ARM.Collect$$libinit$$00000017)
    .ARM.Collect$$libinit$$00000019          0x1000023c   Section        0  libinit2.o(.ARM.Collect$$libinit$$00000019)
    .ARM.Collect$$libinit$$0000001B          0x1000023c   Section        0  libinit2.o(.ARM.Collect$$libinit$$0000001B)
    .ARM.Collect$$libinit$$0000001D          0x1000023c   Section        0  libinit2.o(.ARM.Collect$$libinit$$0000001D)
    .ARM.Collect$$libinit$$0000001F          0x1000023c   Section        0  libinit2.o(.ARM.Collect$$libinit$$0000001F)
    .ARM.Collect$$libinit$$00000021          0x1000023c   Section        0  libinit2.o(.ARM.Collect$$libinit$$00000021)
    .ARM.Collect$$libinit$$00000023          0x1000023c   Section        0  libinit2.o(.ARM.Collect$$libinit$$00000023)
    .ARM.Collect$$libinit$$00000025          0x1000023c   Section        0  libinit2.o(.ARM.Collect$$libinit$$00000025)
    .ARM.Collect$$libinit$$0000002C          0x1000023c   Section        0  libinit2.o(.ARM.Collect$$libinit$$0000002C)
    .ARM.Collect$$libinit$$0000002E          0x1000023c   Section        0  libinit2.o(.ARM.Collect$$libinit$$0000002E)
    .ARM.Collect$$libinit$$00000030          0x1000023c   Section        0  libinit2.o(.ARM.Collect$$libinit$$00000030)
    .ARM.Collect$$libinit$$00000032          0x1000023c   Section        0  libinit2.o(.ARM.Collect$$libinit$$00000032)
    .ARM.Collect$$libinit$$00000033          0x1000023c   Section        2  libinit2.o(.ARM.Collect$$libinit$$00000033)
    .ARM.Collect$$libshutdown$$00000000      0x1000023e   Section        2  libshutdown.o(.ARM.Collect$$libshutdown$$00000000)
    .ARM.Collect$$libshutdown$$00000002      0x10000240   Section        0  libshutdown2.o(.ARM.Collect$$libshutdown$$00000002)
    .ARM.Collect$$libshutdown$$00000004      0x10000240   Section        0  libshutdown2.o(.ARM.Collect$$libshutdown$$00000004)
    .ARM.Collect$$libshutdown$$00000007      0x10000240   Section        0  libshutdown2.o(.ARM.Collect$$libshutdown$$00000007)
    .ARM.Collect$$libshutdown$$0000000A      0x10000240   Section        0  libshutdown2.o(.ARM.Collect$$libshutdown$$0000000A)
    .ARM.Collect$$libshutdown$$0000000C      0x10000240   Section        0  libshutdown2.o(.ARM.Collect$$libshutdown$$0000000C)
    .ARM.Collect$$libshutdown$$0000000F      0x10000240   Section        0  libshutdown2.o(.ARM.Collect$$libshutdown$$0000000F)
    .ARM.Collect$$libshutdown$$00000010      0x10000240   Section        2  libshutdown2.o(.ARM.Collect$$libshutdown$$00000010)
    .ARM.Collect$$rtentry$$00000000          0x10000242   Section        0  __rtentry.o(.ARM.Collect$$rtentry$$00000000)
    .ARM.Collect$$rtentry$$00000002          0x10000242   Section        0  __rtentry2.o(.ARM.Collect$$rtentry$$00000002)
    .ARM.Collect$$rtentry$$00000004          0x10000242   Section        6  __rtentry4.o(.ARM.Collect$$rtentry$$00000004)
    .ARM.Collect$$rtentry$$00000009          0x10000248   Section        0  __rtentry2.o(.ARM.Collect$$rtentry$$00000009)
    .ARM.Collect$$rtentry$$0000000A          0x10000248   Section        4  __rtentry2.o(.ARM.Collect$$rtentry$$0000000A)
    .ARM.Collect$$rtentry$$0000000C          0x1000024c   Section        0  __rtentry2.o(.ARM.Collect$$rtentry$$0000000C)
    .ARM.Collect$$rtentry$$0000000D          0x1000024c   Section        8  __rtentry2.o(.ARM.Collect$$rtentry$$0000000D)
    .ARM.Collect$$rtexit$$00000000           0x10000254   Section        2  rtexit.o(.ARM.Collect$$rtexit$$00000000)
    .ARM.Collect$$rtexit$$00000002           0x10000256   Section        0  rtexit2.o(.ARM.Collect$$rtexit$$00000002)
    .ARM.Collect$$rtexit$$00000003           0x10000256   Section        4  rtexit2.o(.ARM.Collect$$rtexit$$00000003)
    .ARM.Collect$$rtexit$$00000004           0x1000025a   Section        6  rtexit2.o(.ARM.Collect$$rtexit$$00000004)
    .emb_text                                0x10000260   Section        6  rom.o(.emb_text)
    .emb_text                                0x10000268   Section       56  rt_memcpy.o(.emb_text)
    .text                                    0x100002a0   Section        0  main.o(.text)
    setup_adv_data                           0x100002a1   Thumb Code    96  main.o(.text)
    ble_gatt_read                            0x1000040b   Thumb Code   358  main.o(.text)
    ble_gatt_write                           0x10000571   Thumb Code    64  main.o(.text)
    ble_init                                 0x100008b1   Thumb Code   248  main.o(.text)
    .text                                    0x10000e8c   Section        0  gpio.o(.text)
    .text                                    0x100011f4   Section        0  delay.o(.text)
    .text                                    0x1000122c   Section        0  pad_mux_ctrl.o(.text)
    .text                                    0x100012bc   Section        0  uart.o(.text)
    __NVIC_DisableIRQ                        0x100012bd   Thumb Code    50  uart.o(.text)
    __NVIC_EnableIRQ                         0x10001509   Thumb Code    28  uart.o(.text)
    .text                                    0x1000153c   Section        0  debug.o(.text)
    debug_uart_0_init                        0x1000153d   Thumb Code   212  debug.o(.text)
    debug_uart_write                         0x10001611   Thumb Code    80  debug.o(.text)
    .text                                    0x10001778   Section        0  queue.o(.text)
    .text                                    0x1000185c   Section        0  timer.o(.text)
    .text                                    0x10001a20   Section        0  otav30.o(.text)
    EvtCommandComplete                       0x10001a21   Thumb Code    46  otav30.o(.text)
    CmdFwWrite                               0x10001a73   Thumb Code   146  otav30.o(.text)
    CmdFwWriteStart                          0x10001b05   Thumb Code    36  otav30.o(.text)
    CmdFwUpgrade                             0x10001b29   Thumb Code   152  otav30.o(.text)
    CmdFwUpgradev20                          0x10001bc1   Thumb Code   146  otav30.o(.text)
    .text                                    0x10001f74   Section       56  startup_armcm0.o(.text)
    .text                                    0x10001fac   Section        0  system_armcm0.o(.text)
    .text                                    0x10001fc4   Section        0  main.o(.text)
    update_profile_data                      0x10002731   Thumb Code    84  main.o(.text)
    crc32_fun                                0x10003801   Thumb Code    34  main.o(.text)
    .text                                    0x1000384c   Section        0  rom.o(.text)
    AttReadByGroupTypeRsp                    0x10003fef   Thumb Code   326  rom.o(.text)
    AttReadByTypeServiceRsp                  0x10004135   Thumb Code   234  rom.o(.text)
    AttReadByTypeChartRsp                    0x1000421f   Thumb Code   286  rom.o(.text)
    AttReadByTypeValRsp                      0x1000433d   Thumb Code   462  rom.o(.text)
    AttReadByTypeReq                         0x1000450b   Thumb Code   122  rom.o(.text)
    FW_Encrypt_Packet                        0x10004585   Thumb Code   314  rom.o(.text)
    Get_OVER_SLPTH                           0x100046bf   Thumb Code    42  rom.o(.text)
    LLENCReq                                 0x10004a03   Thumb Code   484  rom.o(.text)
    LLTxStartENCRsp                          0x10004be7   Thumb Code   494  rom.o(.text)
    _LCRxPkt_Handler                         0x10005477   Thumb Code   606  rom.o(.text)
    _BBRXFIFO_Coex_Read                      0x10005b79   Thumb Code    92  rom.o(.text)
    _rom_rx_sweyntooth_protect               0x10005bd5   Thumb Code   172  rom.o(.text)
    _LCConnEvt_Handler                       0x10005c81   Thumb Code    68  rom.o(.text)
    LinkWakeup                               0x10005cc5   Thumb Code   100  rom.o(.text)
    .text                                    0x10005d44   Section        0  pmu.o(.text)
    .text                                    0x10005ef8   Section        0  aec-ccm.o(.text)
    ctr_next_ctr_block                       0x10005ef9   Thumb Code    66  aec-ccm.o(.text)
    cbcmac_calc                              0x10005f3b   Thumb Code   318  aec-ccm.o(.text)
    cbcmac_verify                            0x10006079   Thumb Code   344  aec-ccm.o(.text)
    ctr_payload                              0x100061d1   Thumb Code   112  aec-ccm.o(.text)
    ctr_mic                                  0x10006241   Thumb Code    86  aec-ccm.o(.text)
    cbcmac_clear                             0x1000643f   Thumb Code    12  aec-ccm.o(.text)
    cbcmac_append                            0x1000644b   Thumb Code    42  aec-ccm.o(.text)
    .text                                    0x10006478   Section        0  aes.o(.text)
    expandKey                                0x10006479   Thumb Code   186  aes.o(.text)
    aes_encr                                 0x10006533   Thumb Code   912  aes.o(.text)
    aes_decr                                 0x100068c3   Thumb Code  1124  aes.o(.text)
    galois_mul2                              0x10006d59   Thumb Code    20  aes.o(.text)
    .text                                    0x10006d6c   Section        0  c89vsprintf.o(.text)
    .text                                    0x10006d90   Section        0  memcmp.o(.text)
    .text                                    0x10006dea   Section        0  rt_memcpy.o(.text)
    .text                                    0x10006e6c   Section        0  rt_memclr.o(.text)
    .text                                    0x10006eac   Section        0  uread4.o(.text)
    .text                                    0x10006ece   Section        0  uwrite4.o(.text)
    .text                                    0x10006ede   Section      346  aeabi_sdiv.o(.text)
    .text                                    0x10007038   Section        0  heapauxi.o(.text)
    .text                                    0x10007040   Section        0  daddsub.o(.text)
    _dadd1                                   0x10007041   Thumb Code   290  daddsub.o(.text)
    _dsub1                                   0x10007163   Thumb Code   470  daddsub.o(.text)
    .text                                    0x10007398   Section        0  ddiv.o(.text)
    .text                                    0x100077e0   Section        0  dfixui.o(.text)
    .text                                    0x10007828   Section        0  dflti.o(.text)
    .text                                    0x10007880   Section        0  dmul.o(.text)
    .text                                    0x10007ac8   Section        0  f2d.o(.text)
    .text                                    0x10007b1c   Section        0  fflti.o(.text)
    .text                                    0x10007b7a   Section        0  _printf_pad.o(.text)
    .text                                    0x10007bc8   Section        0  _printf_truncate.o(.text)
    .text                                    0x10007bec   Section        0  _printf_str.o(.text)
    .text                                    0x10007c40   Section        0  _printf_dec.o(.text)
    .text                                    0x10007cac   Section        0  _printf_charcount.o(.text)
    .text                                    0x10007cd4   Section        0  _printf_char_common.o(.text)
    _printf_input_char                       0x10007cd5   Thumb Code    10  _printf_char_common.o(.text)
    .text                                    0x10007d04   Section        0  _sputc.o(.text)
    .text                                    0x10007d10   Section        0  _printf_wctomb.o(.text)
    .text                                    0x10007dcc   Section        0  _printf_longlong_dec.o(.text)
    .text                                    0x10007e3c   Section        0  _printf_oct_int_ll.o(.text)
    _printf_longlong_oct_internal            0x10007e3d   Thumb Code     0  _printf_oct_int_ll.o(.text)
    .text                                    0x10007eac   Section        0  _printf_hex_int_ll_ptr.o(.text)
    _printf_hex_common                       0x10007ead   Thumb Code     0  _printf_hex_int_ll_ptr.o(.text)
    .text                                    0x10007f44   Section        0  __printf_flags_ss_wp.o(.text)
    .text                                    0x100080cc   Section        0  lludiv10.o(.text)
    .text                                    0x10008146   Section        0  _printf_intcommon.o(.text)
    .text                                    0x100081f8   Section        0  _printf_fp_dec.o(.text)
    _fp_digits                               0x100081fb   Thumb Code   412  _printf_fp_dec.o(.text)
    .text                                    0x10008610   Section        0  _printf_char.o(.text)
    .text                                    0x1000863e   Section        0  _printf_wchar.o(.text)
    .text                                    0x1000866c   Section        0  _wcrtomb.o(.text)
    .text                                    0x100086ac   Section        0  rtudiv10.o(.text)
    .text                                    0x100086d4   Section       62  sys_stackheap_outer.o(.text)
    .text                                    0x10008714   Section       16  rt_ctype_table.o(.text)
    .text                                    0x10008724   Section        8  rt_locale_intlibspace.o(.text)
    .text                                    0x1000872c   Section        0  _printf_fp_infnan.o(.text)
    .text                                    0x100087b4   Section        0  bigflt0.o(.text)
    .text                                    0x1000888c   Section        0  btod.o(.text)
    btod_internal_mul                        0x100088cd   Thumb Code   492  btod.o(.text)
    btod_internal_div                        0x10008ab9   Thumb Code   520  btod.o(.text)
    .text                                    0x10008e0c   Section        0  exit.o(.text)
    .text                                    0x10008e1c   Section        8  libspace.o(.text)
    .text                                    0x10008e24   Section        0  strcmp.o(.text)
    .text                                    0x10008eac   Section        0  sys_exit.o(.text)
    .text                                    0x10008eb8   Section        2  use_no_semi.o(.text)
    .text                                    0x10008eba   Section        0  indicate_semi.o(.text)
    PMU                                      0x10008ebc   Section        0  pmu.o(PMU)
    i.__ARM_common_ll_muluu                  0x10008f08   Section        0  btod.o(i.__ARM_common_ll_muluu)
    i.__ARM_common_switch8                   0x10008f38   Section        0  main.o(i.__ARM_common_switch8)
    i.__ARM_fpclassify                       0x10008f54   Section        0  fpclassify.o(i.__ARM_fpclassify)
    i._is_digit                              0x10008f80   Section        0  __printf_wp.o(i._is_digit)
    locale$$code                             0x10008f90   Section       44  lc_numeric_c.o(locale$$code)
    locale$$code                             0x10008fbc   Section       44  lc_ctype_c.o(locale$$code)
    x$fpl$fadd                               0x10008fe8   Section      140  faddsub.o(x$fpl$fadd)
    _fadd1                                   0x10008ff5   Thumb Code     0  faddsub.o(x$fpl$fadd)
    x$fpl$fsub                               0x10009074   Section      208  faddsub.o(x$fpl$fsub)
    _fsub1                                   0x10009081   Thumb Code     0  faddsub.o(x$fpl$fsub)
    x$fpl$printf1                            0x10009144   Section       16  printf1.o(x$fpl$printf1)
    .constdata                               0x10009154   Section      654  main.o(.constdata)
    x$fpl$usenofp                            0x10009154   Section        0  usenofp.o(x$fpl$usenofp)
    _gatt_database_report_handle             0x10009154   Data          31  main.o(.constdata)
    _gatt_database_include                   0x10009173   Data          11  main.o(.constdata)
    _gatt_database_primary                   0x1000917e   Data          63  main.o(.constdata)
    _gatt_database_characteristic            0x100091bd   Data         190  main.o(.constdata)
    _gatt_database_value                     0x1000927b   Data         359  main.o(.constdata)
    .constdata                               0x100093e4   Section     1024  main.o(.constdata)
    crc32tab                                 0x100093e4   Data        1024  main.o(.constdata)
    .constdata                               0x100097e4   Section      104  rom.o(.constdata)
    _smp_key_                                0x100097e4   Data          25  rom.o(.constdata)
    _smp_sc_key_                             0x100097fd   Data          25  rom.o(.constdata)
    _ll_packet_length                        0x10009816   Data          25  rom.o(.constdata)
    _smp_packet_lenght                       0x10009830   Data          28  rom.o(.constdata)
    .constdata                               0x1000984c   Section       32  pmu.o(.constdata)
    delay_table                              0x1000984c   Data          32  pmu.o(.constdata)
    .constdata                               0x1000986c   Section      523  aes.o(.constdata)
    sbox                                     0x1000986c   Data         256  aes.o(.constdata)
    rsbox                                    0x1000996c   Data         256  aes.o(.constdata)
    Rcon                                     0x10009a6c   Data          11  aes.o(.constdata)
    .constdata                               0x10009a77   Section      128  ddiv.o(.constdata)
    ddiv_reciptbl                            0x10009a77   Data         128  ddiv.o(.constdata)
    .constdata                               0x10009af8   Section        8  _printf_wctomb.o(.constdata)
    initial_mbstate                          0x10009af8   Data           8  _printf_wctomb.o(.constdata)
    .constdata                               0x10009b00   Section       40  _printf_hex_int_ll_ptr.o(.constdata)
    uc_hextab                                0x10009b00   Data          20  _printf_hex_int_ll_ptr.o(.constdata)
    lc_hextab                                0x10009b14   Data          20  _printf_hex_int_ll_ptr.o(.constdata)
    .constdata                               0x10009b28   Section       17  __printf_flags_ss_wp.o(.constdata)
    maptable                                 0x10009b28   Data          17  __printf_flags_ss_wp.o(.constdata)
    .constdata                               0x10009b3c   Section      148  bigflt0.o(.constdata)
    tenpwrs_x                                0x10009b3c   Data          60  bigflt0.o(.constdata)
    tenpwrs_i                                0x10009b78   Data          64  bigflt0.o(.constdata)
    locale$$data                             0x10009bf0   Section       28  lc_numeric_c.o(locale$$data)
    __lcnum_c_name                           0x10009bf4   Data           2  lc_numeric_c.o(locale$$data)
    __lcnum_c_start                          0x10009bfc   Data           0  lc_numeric_c.o(locale$$data)
    __lcnum_c_point                          0x10009c08   Data           0  lc_numeric_c.o(locale$$data)
    __lcnum_c_thousands                      0x10009c0a   Data           0  lc_numeric_c.o(locale$$data)
    __lcnum_c_grouping                       0x10009c0b   Data           0  lc_numeric_c.o(locale$$data)
    locale$$data                             0x10009c0c   Section      272  lc_ctype_c.o(locale$$data)
    __lcnum_c_end                            0x10009c0c   Data           0  lc_numeric_c.o(locale$$data)
    __lcctype_c_name                         0x10009c10   Data           2  lc_ctype_c.o(locale$$data)
    __lcctype_c_start                        0x10009c18   Data           0  lc_ctype_c.o(locale$$data)
    __lcctype_c_end                          0x10009d1c   Data           0  lc_ctype_c.o(locale$$data)
    .data                                    0x20000000   Section       59  main.o(.data)
    g_report                                 0x20000008   Data           4  main.o(.data)
    start_tx                                 0x2000000c   Data           1  main.o(.data)
    wechat_tx                                0x2000000d   Data           1  main.o(.data)
    dev_addr                                 0x20000034   Data           7  main.o(.data)
    .data                                    0x2000003c   Section       12  gpio.o(.data)
    gpio_callback                            0x20000044   Data           4  gpio.o(.data)
    .data                                    0x20000048   Section        8  pad_mux_ctrl.o(.data)
    pad                                      0x20000048   Data           8  pad_mux_ctrl.o(.data)
    .data                                    0x20000050   Section        8  uart.o(.data)
    .data                                    0x20000058   Section        8  debug.o(.data)
    UART_CTRL                                0x20000058   Data           8  debug.o(.data)
    .data                                    0x20000060   Section       20  timer.o(.data)
    ctrl                                     0x20000060   Data          20  timer.o(.data)
    .data                                    0x20000074   Section       28  otav30.o(.data)
    EvtBuf                                   0x20000084   Data           8  otav30.o(.data)
    .data                                    0x20000090   Section        4  system_armcm0.o(.data)
    .data                                    0x20000094   Section       20  main.o(.data)
    syd_confirm                              0x20000094   Data           1  main.o(.data)
    sched_execute_mask                       0x20000095   Data           1  main.o(.data)
    profile_to_flash                         0x20000096   Data           1  main.o(.data)
    profile_update_offset                    0x20000098   Data           2  main.o(.data)
    PMU_CTRL                                 0x2000009c   Data           4  main.o(.data)
    p_sched_callback                         0x200000a0   Data           4  main.o(.data)
    .data                                    0x200000a8   Section      106  rom.o(.data)
    NumericYesOrNo                           0x200000a8   Data           1  rom.o(.data)
    MCUFreq                                  0x200000a9   Data           1  rom.o(.data)
    coex_evt_mask_sleep                      0x200000ad   Data           1  rom.o(.data)
    _valid_l2cap_lenght                      0x200000b0   Data           1  rom.o(.data)
    passkey_cnt                              0x200000c4   Data           4  rom.o(.data)
    passkey_value                            0x200000c8   Data           4  rom.o(.data)
    save_device_to_flash                     0x200000cc   Data           4  rom.o(.data)
    ReadRsp                                  0x200000d0   Data           4  rom.o(.data)
    ReadRspLen                               0x200000d4   Data           4  rom.o(.data)
    ReadRspData                              0x200000d8   Data           4  rom.o(.data)
    IRQCallbackHook                          0x200000dc   Data           4  rom.o(.data)
    IRQCallbackSkip                          0x200000e0   Data           4  rom.o(.data)
    HCIDTM                                   0x200000e4   Data           4  rom.o(.data)
    ACLTx                                    0x200000e8   Data           4  rom.o(.data)
    flash                                    0x200000ec   Data           4  rom.o(.data)
    ble_data                                 0x200000f8   Data           4  rom.o(.data)
    .data                                    0x20000114   Section        4  pmu.o(.data)
    count                                    0x20000114   Data           4  pmu.o(.data)
    .bss                                     0x20000118   Section     1056  uart.o(.bss)
    .bss                                     0x20000538   Section      128  debug.o(.bss)
    s_formatBuffer                           0x20000538   Data         128  debug.o(.bss)
    .bss                                     0x200005b8   Section       20  timer.o(.bss)
    cb                                       0x200005b8   Data          20  timer.o(.bss)
    .bss                                     0x200005cc   Section       40  otav30.o(.bss)
    .bss                                     0x200005f4   Section     4313  main.o(.bss)
    flash_hdr                                0x200005f4   Data          53  main.o(.bss)
    code_hdr                                 0x20000629   Data          87  main.o(.bss)
    profile                                  0x20000680   Data        4096  main.o(.bss)
    confirmation_list                        0x20001680   Data          62  main.o(.bss)
    .bss                                     0x200016d0   Section     1055  rom.o(.bss)
    .bss                                     0x20001aef   Section       16  aec-ccm.o(.bss)
    cbcmac_xor                               0x20001aef   Data          16  aec-ccm.o(.bss)
    .bss                                     0x20001b00   Section       96  libspace.o(.bss)
    HEAP                                     0x20001b60   Section    16384  startup_armcm0.o(HEAP)
    Heap_Mem                                 0x20001b60   Data       16384  startup_armcm0.o(HEAP)
    STACK                                    0x20005b60   Section     4096  startup_armcm0.o(STACK)
    Stack_Mem                                0x20005b60   Data        4096  startup_armcm0.o(STACK)
    __initial_sp                             0x20006b60   Data           0  startup_armcm0.o(STACK)

    Global Symbols

    Symbol Name                              Value     Ov Type        Size  Object(Section)

    BuildAttributes$$THM_ISAv3M$S$PE$A:L22$X:L11$S22$IEEE1$IW$USESV6$~STKCKD$USESV7$~SHL$OTIME$ROPI$IEEEJ$EBA8$UX$STANDARDLIB$REQ8$EABIv2 0x00000000   Number         0  anon$$obj.o ABSOLUTE
    __ARM_use_no_argv                        0x00000000   Number         0  main.o ABSOLUTE
    _printf_flags                            0x00000000   Number         0  printf_stubs.o ABSOLUTE
    _printf_return_value                     0x00000000   Number         0  printf_stubs.o ABSOLUTE
    _printf_sizespec                         0x00000000   Number         0  printf_stubs.o ABSOLUTE
    _printf_widthprec                        0x00000000   Number         0  printf_stubs.o ABSOLUTE
    __ARM_exceptions_init                     - Undefined Weak Reference
    __alloca_initialize                       - Undefined Weak Reference
    __arm_preinit_                            - Undefined Weak Reference
    __cpp_initialize__aeabi_                  - Undefined Weak Reference
    __cxa_finalize                            - Undefined Weak Reference
    __sigvec_lookup                           - Undefined Weak Reference
    _atexit_init                              - Undefined Weak Reference
    _call_atexit_fns                          - Undefined Weak Reference
    _clock_init                               - Undefined Weak Reference
    _fp_trap_init                             - Undefined Weak Reference
    _fp_trap_shutdown                         - Undefined Weak Reference
    _get_lc_collate                           - Undefined Weak Reference
    _get_lc_monetary                          - Undefined Weak Reference
    _get_lc_time                              - Undefined Weak Reference
    _getenv_init                              - Undefined Weak Reference
    _handle_redirection                       - Undefined Weak Reference
    _init_alloc                               - Undefined Weak Reference
    _init_user_alloc                          - Undefined Weak Reference
    _initio                                   - Undefined Weak Reference
    _printf_fp_hex                            - Undefined Weak Reference
    _printf_mbtowc                            - Undefined Weak Reference
    _printf_wc                                - Undefined Weak Reference
    _rand_init                                - Undefined Weak Reference
    _signal_finish                            - Undefined Weak Reference
    _signal_init                              - Undefined Weak Reference
    _terminate_alloc                          - Undefined Weak Reference
    _terminate_user_alloc                     - Undefined Weak Reference
    _terminateio                              - Undefined Weak Reference
    __Vectors_Size                           0x000000c0   Number         0  startup_armcm0.o ABSOLUTE
    __Vectors                                0x10000000   Data           4  startup_armcm0.o(RESET)
    __Vectors_End                            0x100000c0   Data           0  startup_armcm0.o(RESET)
    __main                                   0x100000c1   Thumb Code     8  __main.o(!!!main)
    __scatterload                            0x100000c9   Thumb Code     0  __scatter.o(!!!scatter)
    __scatterload_rt2                        0x100000c9   Thumb Code    52  __scatter.o(!!!scatter)
    __scatterload_rt2_thumb_only             0x100000c9   Thumb Code     0  __scatter.o(!!!scatter)
    __scatterload_null                       0x100000d9   Thumb Code     0  __scatter.o(!!!scatter)
    __scatterload_copy                       0x10000105   Thumb Code    26  __scatter_copy.o(!!handler_copy)
    __scatterload_zeroinit                   0x10000121   Thumb Code    28  __scatter_zi.o(!!handler_zi)
    _printf_percent                          0x1000013d   Thumb Code     0  _printf_percent.o(.ARM.Collect$$_printf_percent$$00000000)
    _printf_n                                0x1000013f   Thumb Code     0  _printf_n.o(.ARM.Collect$$_printf_percent$$00000001)
    _printf_p                                0x10000149   Thumb Code     0  _printf_p.o(.ARM.Collect$$_printf_percent$$00000002)
    _printf_f                                0x10000153   Thumb Code     0  _printf_f.o(.ARM.Collect$$_printf_percent$$00000003)
    _printf_e                                0x1000015d   Thumb Code     0  _printf_e.o(.ARM.Collect$$_printf_percent$$00000004)
    _printf_g                                0x10000167   Thumb Code     0  _printf_g.o(.ARM.Collect$$_printf_percent$$00000005)
    _printf_a                                0x10000171   Thumb Code     0  _printf_a.o(.ARM.Collect$$_printf_percent$$00000006)
    _printf_ll                               0x1000017b   Thumb Code     0  _printf_ll.o(.ARM.Collect$$_printf_percent$$00000007)
    _printf_i                                0x10000185   Thumb Code     0  _printf_i.o(.ARM.Collect$$_printf_percent$$00000008)
    _printf_d                                0x1000018f   Thumb Code     0  _printf_d.o(.ARM.Collect$$_printf_percent$$00000009)
    _printf_u                                0x10000199   Thumb Code     0  _printf_u.o(.ARM.Collect$$_printf_percent$$0000000A)
    _printf_o                                0x100001a3   Thumb Code     0  _printf_o.o(.ARM.Collect$$_printf_percent$$0000000B)
    _printf_x                                0x100001ad   Thumb Code     0  _printf_x.o(.ARM.Collect$$_printf_percent$$0000000C)
    _printf_lli                              0x100001b7   Thumb Code     0  _printf_lli.o(.ARM.Collect$$_printf_percent$$0000000D)
    _printf_lld                              0x100001c1   Thumb Code     0  _printf_lld.o(.ARM.Collect$$_printf_percent$$0000000E)
    _printf_llu                              0x100001cb   Thumb Code     0  _printf_llu.o(.ARM.Collect$$_printf_percent$$0000000F)
    _printf_llo                              0x100001d5   Thumb Code     0  _printf_llo.o(.ARM.Collect$$_printf_percent$$00000010)
    _printf_llx                              0x100001df   Thumb Code     0  _printf_llx.o(.ARM.Collect$$_printf_percent$$00000011)
    _printf_l                                0x100001e9   Thumb Code     0  _printf_l.o(.ARM.Collect$$_printf_percent$$00000012)
    _printf_c                                0x100001f3   Thumb Code     0  _printf_c.o(.ARM.Collect$$_printf_percent$$00000013)
    _printf_s                                0x100001fd   Thumb Code     0  _printf_s.o(.ARM.Collect$$_printf_percent$$00000014)
    _printf_lc                               0x10000207   Thumb Code     0  _printf_lc.o(.ARM.Collect$$_printf_percent$$00000015)
    _printf_ls                               0x10000211   Thumb Code     0  _printf_ls.o(.ARM.Collect$$_printf_percent$$00000016)
    _printf_percent_end                      0x1000021b   Thumb Code     0  _printf_percent_end.o(.ARM.Collect$$_printf_percent$$00000017)
    __rt_lib_init                            0x1000021f   Thumb Code     0  libinit.o(.ARM.Collect$$libinit$$00000000)
    __rt_lib_init_fp_1                       0x10000221   Thumb Code     0  libinit2.o(.ARM.Collect$$libinit$$00000002)
    __rt_lib_init_heap_1                     0x10000221   Thumb Code     0  libinit2.o(.ARM.Collect$$libinit$$0000000A)
    __rt_lib_init_lc_common                  0x10000221   Thumb Code     0  libinit2.o(.ARM.Collect$$libinit$$0000000F)
    __rt_lib_init_preinit_1                  0x10000221   Thumb Code     0  libinit2.o(.ARM.Collect$$libinit$$00000004)
    __rt_lib_init_rand_1                     0x10000221   Thumb Code     0  libinit2.o(.ARM.Collect$$libinit$$0000000E)
    __rt_lib_init_user_alloc_1               0x10000221   Thumb Code     0  libinit2.o(.ARM.Collect$$libinit$$0000000C)
    __rt_lib_init_lc_collate_1               0x10000227   Thumb Code     0  libinit2.o(.ARM.Collect$$libinit$$00000011)
    __rt_lib_init_lc_ctype_2                 0x10000227   Thumb Code     0  libinit2.o(.ARM.Collect$$libinit$$00000012)
    __rt_lib_init_lc_ctype_1                 0x10000233   Thumb Code     0  libinit2.o(.ARM.Collect$$libinit$$00000013)
    __rt_lib_init_lc_monetary_1              0x10000233   Thumb Code     0  libinit2.o(.ARM.Collect$$libinit$$00000015)
    __rt_lib_init_lc_numeric_2               0x10000233   Thumb Code     0  libinit2.o(.ARM.Collect$$libinit$$00000016)
    __rt_lib_init_alloca_1                   0x1000023d   Thumb Code     0  libinit2.o(.ARM.Collect$$libinit$$0000002E)
    __rt_lib_init_argv_1                     0x1000023d   Thumb Code     0  libinit2.o(.ARM.Collect$$libinit$$0000002C)
    __rt_lib_init_atexit_1                   0x1000023d   Thumb Code     0  libinit2.o(.ARM.Collect$$libinit$$0000001B)
    __rt_lib_init_clock_1                    0x1000023d   Thumb Code     0  libinit2.o(.ARM.Collect$$libinit$$00000021)
    __rt_lib_init_cpp_1                      0x1000023d   Thumb Code     0  libinit2.o(.ARM.Collect$$libinit$$00000032)
    __rt_lib_init_exceptions_1               0x1000023d   Thumb Code     0  libinit2.o(.ARM.Collect$$libinit$$00000030)
    __rt_lib_init_fp_trap_1                  0x1000023d   Thumb Code     0  libinit2.o(.ARM.Collect$$libinit$$0000001F)
    __rt_lib_init_getenv_1                   0x1000023d   Thumb Code     0  libinit2.o(.ARM.Collect$$libinit$$00000023)
    __rt_lib_init_lc_numeric_1               0x1000023d   Thumb Code     0  libinit2.o(.ARM.Collect$$libinit$$00000017)
    __rt_lib_init_lc_time_1                  0x1000023d   Thumb Code     0  libinit2.o(.ARM.Collect$$libinit$$00000019)
    __rt_lib_init_return                     0x1000023d   Thumb Code     0  libinit2.o(.ARM.Collect$$libinit$$00000033)
    __rt_lib_init_signal_1                   0x1000023d   Thumb Code     0  libinit2.o(.ARM.Collect$$libinit$$0000001D)
    __rt_lib_init_stdio_1                    0x1000023d   Thumb Code     0  libinit2.o(.ARM.Collect$$libinit$$00000025)
    __rt_lib_shutdown                        0x1000023f   Thumb Code     0  libshutdown.o(.ARM.Collect$$libshutdown$$00000000)
    __rt_lib_shutdown_cpp_1                  0x10000241   Thumb Code     0  libshutdown2.o(.ARM.Collect$$libshutdown$$00000002)
    __rt_lib_shutdown_fp_trap_1              0x10000241   Thumb Code     0  libshutdown2.o(.ARM.Collect$$libshutdown$$00000007)
    __rt_lib_shutdown_heap_1                 0x10000241   Thumb Code     0  libshutdown2.o(.ARM.Collect$$libshutdown$$0000000F)
    __rt_lib_shutdown_return                 0x10000241   Thumb Code     0  libshutdown2.o(.ARM.Collect$$libshutdown$$00000010)
    __rt_lib_shutdown_signal_1               0x10000241   Thumb Code     0  libshutdown2.o(.ARM.Collect$$libshutdown$$0000000A)
    __rt_lib_shutdown_stdio_1                0x10000241   Thumb Code     0  libshutdown2.o(.ARM.Collect$$libshutdown$$00000004)
    __rt_lib_shutdown_user_alloc_1           0x10000241   Thumb Code     0  libshutdown2.o(.ARM.Collect$$libshutdown$$0000000C)
    __rt_entry                               0x10000243   Thumb Code     0  __rtentry.o(.ARM.Collect$$rtentry$$00000000)
    __rt_entry_presh_1                       0x10000243   Thumb Code     0  __rtentry2.o(.ARM.Collect$$rtentry$$00000002)
    __rt_entry_sh                            0x10000243   Thumb Code     0  __rtentry4.o(.ARM.Collect$$rtentry$$00000004)
    __rt_entry_li                            0x10000249   Thumb Code     0  __rtentry2.o(.ARM.Collect$$rtentry$$0000000A)
    __rt_entry_postsh_1                      0x10000249   Thumb Code     0  __rtentry2.o(.ARM.Collect$$rtentry$$00000009)
    __rt_entry_main                          0x1000024d   Thumb Code     0  __rtentry2.o(.ARM.Collect$$rtentry$$0000000D)
    __rt_entry_postli_1                      0x1000024d   Thumb Code     0  __rtentry2.o(.ARM.Collect$$rtentry$$0000000C)
    __rt_exit                                0x10000255   Thumb Code     0  rtexit.o(.ARM.Collect$$rtexit$$00000000)
    __rt_exit_ls                             0x10000257   Thumb Code     0  rtexit2.o(.ARM.Collect$$rtexit$$00000003)
    __rt_exit_prels_1                        0x10000257   Thumb Code     0  rtexit2.o(.ARM.Collect$$rtexit$$00000002)
    __rt_exit_exit                           0x1000025b   Thumb Code     0  rtexit2.o(.ARM.Collect$$rtexit$$00000004)
    B01_correct_TXPacket_length              0x10000261   Thumb Code     6  rom.o(.emb_text)
    __aeabi_memcpy4                          0x10000269   Thumb Code    56  rt_memcpy.o(.emb_text)
    __aeabi_memcpy8                          0x10000269   Thumb Code     0  rt_memcpy.o(.emb_text)
    BLE_SendData                             0x10000301   Thumb Code    98  main.o(.text)
    BLSetConnectionUpdate                    0x10000363   Thumb Code   168  main.o(.text)
    ble_evt_callback                         0x100005b1   Thumb Code   768  main.o(.text)
    uart_to_ble_transfer                     0x100009a9   Thumb Code   156  main.o(.text)
    ble_to_uart_transfer                     0x10000a45   Thumb Code    34  main.o(.text)
    timer_uart_wait                          0x10000a67   Thumb Code    46  main.o(.text)
    gpio_init                                0x10000a95   Thumb Code   146  main.o(.text)
    ble_uart_init                            0x10000b27   Thumb Code   480  main.o(.text)
    ota_manage                               0x10000d07   Thumb Code   116  main.o(.text)
    main                                     0x10000d7b   Thumb Code   104  main.o(.text)
    gpi_irq_set_cb                           0x10000e8d   Thumb Code     6  gpio.o(.text)
    gpi_config                               0x10000e93   Thumb Code   114  gpio.o(.text)
    pad_input_configure                      0x10000f05   Thumb Code    94  gpio.o(.text)
    gpo_config                               0x10000f63   Thumb Code    90  gpio.o(.text)
    gpo_toggle                               0x10000fbd   Thumb Code    42  gpio.o(.text)
    gpo_set                                  0x10000fe7   Thumb Code    42  gpio.o(.text)
    gpo_clr                                  0x10001011   Thumb Code    42  gpio.o(.text)
    gpi_get_val                              0x1000103b   Thumb Code    70  gpio.o(.text)
    gpi_enable_int                           0x10001081   Thumb Code   178  gpio.o(.text)
    gpi_disable_int                          0x10001133   Thumb Code    44  gpio.o(.text)
    GPIO_IRQHandler                          0x1000115f   Thumb Code   134  gpio.o(.text)
    delay_ms                                 0x100011f5   Thumb Code    30  delay.o(.text)
    delay_us                                 0x10001213   Thumb Code    26  delay.o(.text)
    pad_mux_read                             0x1000122d   Thumb Code    62  pad_mux_ctrl.o(.text)
    pad_mux_write                            0x1000126b   Thumb Code    78  pad_mux_ctrl.o(.text)
    uart_0_init                              0x100012ef   Thumb Code   134  uart.o(.text)
    UART0_IRQHandler                         0x10001375   Thumb Code    58  uart.o(.text)
    uart_1_init                              0x100013af   Thumb Code   112  uart.o(.text)
    UART1_IRQHandler                         0x1000141f   Thumb Code    60  uart.o(.text)
    uart_write                               0x1000145b   Thumb Code    80  uart.o(.text)
    uart_read                                0x100014ab   Thumb Code    20  uart.o(.text)
    uart_queue_size                          0x100014bf   Thumb Code    56  uart.o(.text)
    uart_get_ctrl                            0x100014f7   Thumb Code    18  uart.o(.text)
    dbg_init                                 0x10001661   Thumb Code    12  debug.o(.text)
    dbg_printf                               0x1000166d   Thumb Code    60  debug.o(.text)
    dbg_printf_sel                           0x100016a9   Thumb Code    62  debug.o(.text)
    dbg_hexdump                              0x100016e7   Thumb Code   108  debug.o(.text)
    queue_init                               0x10001779   Thumb Code    12  queue.o(.text)
    queue_reset                              0x10001785   Thumb Code     6  queue.o(.text)
    enqueue_all                              0x1000178b   Thumb Code    96  queue.o(.text)
    enqueue                                  0x100017eb   Thumb Code    28  queue.o(.text)
    dequeue                                  0x10001807   Thumb Code    42  queue.o(.text)
    is_queue_empty                           0x10001831   Thumb Code    18  queue.o(.text)
    queue_size                               0x10001843   Thumb Code    24  queue.o(.text)
    TIMER0_IRQHandler                        0x1000185d   Thumb Code    36  timer.o(.text)
    TIMER1_IRQHandler                        0x10001881   Thumb Code    36  timer.o(.text)
    TIMER2_IRQHandler                        0x100018a5   Thumb Code    36  timer.o(.text)
    TIMER3_IRQHandler                        0x100018c9   Thumb Code    36  timer.o(.text)
    TIMER4_IRQHandler                        0x100018ed   Thumb Code    36  timer.o(.text)
    is_timer_enabled                         0x10001911   Thumb Code    16  timer.o(.text)
    timer_enable                             0x10001921   Thumb Code   186  timer.o(.text)
    timer_disable                            0x100019db   Thumb Code    44  timer.o(.text)
    timer_state_get                          0x10001a07   Thumb Code    16  timer.o(.text)
    CmdFwErase                               0x10001a4f   Thumb Code    36  otav30.o(.text)
    ota_variable_clear                       0x10001c53   Thumb Code    38  otav30.o(.text)
    ota_cmd                                  0x10001c79   Thumb Code   712  otav30.o(.text)
    ota_rsp                                  0x10001f41   Thumb Code    42  otav30.o(.text)
    Reset_Handler                            0x10001f75   Thumb Code     8  startup_armcm0.o(.text)
    NMI_Handler                              0x10001f7d   Thumb Code     2  startup_armcm0.o(.text)
    HardFault_Handler                        0x10001f7f   Thumb Code     2  startup_armcm0.o(.text)
    SVC_Handler                              0x10001f81   Thumb Code     2  startup_armcm0.o(.text)
    PendSV_Handler                           0x10001f83   Thumb Code     2  startup_armcm0.o(.text)
    SysTick_Handler                          0x10001f85   Thumb Code     2  startup_armcm0.o(.text)
    CAPDET_IRQHandler                        0x10001f87   Thumb Code     0  startup_armcm0.o(.text)
    GPADC_IRQHandler                         0x10001f87   Thumb Code     0  startup_armcm0.o(.text)
    I2CM0_IRQHandler                         0x10001f87   Thumb Code     0  startup_armcm0.o(.text)
    I2CM1_IRQHandler                         0x10001f87   Thumb Code     0  startup_armcm0.o(.text)
    I2CS_IRQHandler                          0x10001f87   Thumb Code     0  startup_armcm0.o(.text)
    I2S_IRQHandler                           0x10001f87   Thumb Code     0  startup_armcm0.o(.text)
    INTCOMB_IRQHandler                       0x10001f87   Thumb Code     0  startup_armcm0.o(.text)
    IR_IRQHandler                            0x10001f87   Thumb Code     0  startup_armcm0.o(.text)
    ISO_7816_IRQHandler                      0x10001f87   Thumb Code     0  startup_armcm0.o(.text)
    LLC2_IRQHandler                          0x10001f87   Thumb Code     0  startup_armcm0.o(.text)
    LLC3_IRQHandler                          0x10001f87   Thumb Code     0  startup_armcm0.o(.text)
    M2M_IRQHandler                           0x10001f87   Thumb Code     0  startup_armcm0.o(.text)
    PDM_IRQHandler                           0x10001f87   Thumb Code     0  startup_armcm0.o(.text)
    PWM1_IRQHandler                          0x10001f87   Thumb Code     0  startup_armcm0.o(.text)
    PWM2_IRQHandler                          0x10001f87   Thumb Code     0  startup_armcm0.o(.text)
    PWM3_IRQHandler                          0x10001f87   Thumb Code     0  startup_armcm0.o(.text)
    RTC_IRQHandler                           0x10001f87   Thumb Code     0  startup_armcm0.o(.text)
    SPIM_IRQHandler                          0x10001f87   Thumb Code     0  startup_armcm0.o(.text)
    SPIS_IRQHandler                          0x10001f87   Thumb Code     0  startup_armcm0.o(.text)
    SW_IRQHandler                            0x10001f87   Thumb Code     0  startup_armcm0.o(.text)
    TRNG_IRQHandler                          0x10001f87   Thumb Code     0  startup_armcm0.o(.text)
    UART2_IRQHandler                         0x10001f87   Thumb Code     0  startup_armcm0.o(.text)
    WDT_IRQHandler                           0x10001f87   Thumb Code     0  startup_armcm0.o(.text)
    __user_initial_stackheap                 0x10001f89   Thumb Code    10  startup_armcm0.o(.text)
    SystemCoreClockUpdate                    0x10001fad   Thumb Code     8  system_armcm0.o(.text)
    SystemInit                               0x10001fb5   Thumb Code     8  system_armcm0.o(.text)
    sw_timer_update_callback                 0x10001fc5   Thumb Code    20  main.o(.text)
    gap_s_ble_init                           0x10001fd9   Thumb Code    18  main.o(.text)
    gap_s_disconnect                         0x10001feb   Thumb Code     8  main.o(.text)
    gap_s_validate_irk                       0x10001ff3   Thumb Code     6  main.o(.text)
    gap_s_ble_gen_random_private_address     0x10001ff9   Thumb Code     6  main.o(.text)
    gap_s_ble_address_set                    0x10001fff   Thumb Code     6  main.o(.text)
    gap_s_ble_address_get                    0x10002005   Thumb Code     4  main.o(.text)
    gap_s_ble_feature_set                    0x10002009   Thumb Code     6  main.o(.text)
    gap_s_ble_feature_get                    0x1000200f   Thumb Code     6  main.o(.text)
    gap_s_ble_slave_feature_set              0x10002015   Thumb Code     6  main.o(.text)
    gap_s_ble_slave_feature_get              0x1000201b   Thumb Code     6  main.o(.text)
    gap_s_adv_access_code_set                0x10002021   Thumb Code     6  main.o(.text)
    gap_s_adv_access_code_get                0x10002027   Thumb Code     6  main.o(.text)
    gap_s_adv_parameters_set                 0x1000202d   Thumb Code     6  main.o(.text)
    gap_s_adv_data_set                       0x10002033   Thumb Code    10  main.o(.text)
    gap_s_adv_start                          0x1000203d   Thumb Code     6  main.o(.text)
    gap_s_adv_stop                           0x10002043   Thumb Code     4  main.o(.text)
    gap_s_adv_start_powersaving              0x10002047   Thumb Code   610  main.o(.text)
    gap_s_adv_stop_powersaving               0x100022a9   Thumb Code    32  main.o(.text)
    gap_s_scan_parameters_set                0x100022c9   Thumb Code     6  main.o(.text)
    gap_s_scan_start                         0x100022cf   Thumb Code     6  main.o(.text)
    gap_s_scan_stop                          0x100022d5   Thumb Code     4  main.o(.text)
    gap_s_coex_adv_data_set                  0x100022d9   Thumb Code    14  main.o(.text)
    gap_s_coex_scan_rsp_data_set             0x100022e7   Thumb Code    12  main.o(.text)
    gap_s_coex_adv_start                     0x100022f3   Thumb Code     8  main.o(.text)
    gap_s_coex_adv_stop                      0x100022fb   Thumb Code     8  main.o(.text)
    gap_s_coex_scan_req_data_set             0x10002303   Thumb Code     6  main.o(.text)
    gap_s_coex_scan_start                    0x10002309   Thumb Code     4  main.o(.text)
    gap_s_coex_scan_stop                     0x1000230d   Thumb Code     6  main.o(.text)
    gap_s_gatt_profiles_set                  0x10002313   Thumb Code     6  main.o(.text)
    gap_s_security_parameters_set            0x10002319   Thumb Code     6  main.o(.text)
    gap_s_security_parameters_get            0x1000231f   Thumb Code     6  main.o(.text)
    gap_s_security_req                       0x10002325   Thumb Code     6  main.o(.text)
    gap_s_numeric_comrison                   0x1000232b   Thumb Code     8  main.o(.text)
    gap_s_connection_param_set               0x10002333   Thumb Code     6  main.o(.text)
    gap_s_connection_param_get               0x10002339   Thumb Code     4  main.o(.text)
    gap_s_connection_update                  0x1000233d   Thumb Code     6  main.o(.text)
    gap_s_link_parameters_get                0x10002343   Thumb Code     6  main.o(.text)
    gap_s_passkey_set                        0x10002349   Thumb Code     8  main.o(.text)
    gap_s_connection_latency_mode            0x10002351   Thumb Code     8  main.o(.text)
    gap_s_check_fifo_sz                      0x10002359   Thumb Code     6  main.o(.text)
    BBCheckTXFIFOEmpty                       0x1000235f   Thumb Code    12  main.o(.text)
    sw_timer_latency_callback                0x1000236b   Thumb Code   138  main.o(.text)
    smart_latency_start                      0x100023f5   Thumb Code   186  main.o(.text)
    smart_latency_clear                      0x100024af   Thumb Code    12  main.o(.text)
    gap_evt_Callback                         0x100024bb   Thumb Code   332  main.o(.text)
    gap_s_evt_handler_set                    0x10002607   Thumb Code    32  main.o(.text)
    gap_s_att_c_evt_handler_set              0x10002627   Thumb Code     6  main.o(.text)
    gap_s_gatt_report_handle_get             0x1000262d   Thumb Code     6  main.o(.text)
    gap_s_gatt_read_rsp_set                  0x10002633   Thumb Code     6  main.o(.text)
    gap_s_gatt_write_err_rsp_set             0x10002639   Thumb Code     6  main.o(.text)
    indicate_queue_size                      0x1000263f   Thumb Code    26  main.o(.text)
    sw_indicate_timer_callback               0x10002659   Thumb Code    22  main.o(.text)
    gap_s_gatt_data_send                     0x1000266f   Thumb Code    38  main.o(.text)
    gap_s_gatt_data_send_report_confirmation_handle 0x10002695   Thumb Code   112  main.o(.text)
    gap_s_profile_data_read                  0x10002705   Thumb Code    44  main.o(.text)
    gap_s_profile_data_write                 0x10002785   Thumb Code   212  main.o(.text)
    att_c_mtureq                             0x10002859   Thumb Code     4  main.o(.text)
    att_c_findinforeq                        0x1000285d   Thumb Code     6  main.o(.text)
    att_c_findbytypevaluereq                 0x10002863   Thumb Code    14  main.o(.text)
    att_c_readbytypereq                      0x10002871   Thumb Code    12  main.o(.text)
    att_c_readreq                            0x1000287d   Thumb Code     6  main.o(.text)
    att_c_readblobreq                        0x10002883   Thumb Code     6  main.o(.text)
    att_c_readmultiplereq                    0x10002889   Thumb Code     6  main.o(.text)
    att_c_readbygrouptypereq                 0x1000288f   Thumb Code    12  main.o(.text)
    att_c_writereq                           0x1000289b   Thumb Code     6  main.o(.text)
    att_c_writecmdreq                        0x100028a1   Thumb Code     6  main.o(.text)
    att_c_preparewritereq                    0x100028a7   Thumb Code    12  main.o(.text)
    att_c_executewritereq                    0x100028b3   Thumb Code     6  main.o(.text)
    att_c_confirmation                       0x100028b9   Thumb Code     6  main.o(.text)
    bm_s_bond_manager_idx_set                0x100028bf   Thumb Code     6  main.o(.text)
    bm_s_bond_manager_idx_get                0x100028c5   Thumb Code     4  main.o(.text)
    bm_s_bond_info_get                       0x100028c9   Thumb Code     6  main.o(.text)
    bm_s_bond_info_add                       0x100028cf   Thumb Code     6  main.o(.text)
    bm_s_bond_info_delete_all                0x100028d5   Thumb Code     6  main.o(.text)
    bm_s_bond_info_delete                    0x100028db   Thumb Code     6  main.o(.text)
    ecdh_public_key_get                      0x100028e1   Thumb Code     4  main.o(.text)
    sys_mcu_clock_get                        0x100028e5   Thumb Code     6  main.o(.text)
    sys_mcu_clock_set                        0x100028eb   Thumb Code     8  main.o(.text)
    sys_mcu_clock_div_set                    0x100028f3   Thumb Code     6  main.o(.text)
    sys_mcu_clock_div_get                    0x100028f9   Thumb Code     6  main.o(.text)
    sys_32k_clock_get                        0x100028ff   Thumb Code     6  main.o(.text)
    sys_32k_clock_set                        0x10002905   Thumb Code     8  main.o(.text)
    pmu_32m_xo_on                            0x1000290d   Thumb Code     4  main.o(.text)
    sys_32k_lpo_calibration                  0x10002911   Thumb Code    66  main.o(.text)
    sys_mcu_rc_calibration                   0x10002953   Thumb Code     8  main.o(.text)
    pmu_wakeup_config                        0x1000295b   Thumb Code     6  main.o(.text)
    pmu_power_saving                         0x10002961   Thumb Code    10  main.o(.text)
    pmu_mcu_off                              0x1000296b   Thumb Code     6  main.o(.text)
    pmu_system_off                           0x10002971   Thumb Code     6  main.o(.text)
    pmu_reset                                0x10002977   Thumb Code     6  main.o(.text)
    pmu_system_reset                         0x1000297d   Thumb Code     6  main.o(.text)
    pmu_mcu_reset                            0x10002983   Thumb Code     6  main.o(.text)
    pmu_32m_xo_off                           0x10002989   Thumb Code     6  main.o(.text)
    pmu_32m_xo_on_polling                    0x1000298f   Thumb Code    18  main.o(.text)
    _enable_sw_ccm                           0x100029a1   Thumb Code     6  main.o(.text)
    ota_code_erase                           0x100029a7   Thumb Code   344  main.o(.text)
    ota_code_write                           0x10002aff   Thumb Code     6  main.o(.text)
    ota_code_read                            0x10002b05   Thumb Code     4  main.o(.text)
    ota_code_info_read                       0x10002b09   Thumb Code    12  main.o(.text)
    ota_code_update                          0x10002b15   Thumb Code    10  main.o(.text)
    ota_code_check_crc32                     0x10002b1f   Thumb Code   412  main.o(.text)
    ble_sched_execute                        0x10002cbb   Thumb Code   166  main.o(.text)
    sys_rc_get                               0x10002d61   Thumb Code     4  main.o(.text)
    sys_fclk_get                             0x10002d65   Thumb Code     6  main.o(.text)
    sys_pclk_get                             0x10002d6b   Thumb Code     6  main.o(.text)
    sys_sclk_get                             0x10002d71   Thumb Code     6  main.o(.text)
    sys_hclk_get                             0x10002d77   Thumb Code     6  main.o(.text)
    gpadc_init                               0x10002d7d   Thumb Code    22  main.o(.text)
    pdm_set_amic_gain                        0x10002d93   Thumb Code    58  main.o(.text)
    att_c_get_mtu_size                       0x10002dcd   Thumb Code    18  main.o(.text)
    capdet_set_bias                          0x10002ddf   Thumb Code    56  main.o(.text)
    capdet_get_bias                          0x10002e17   Thumb Code    40  main.o(.text)
    module_clock_off                         0x10002e3f   Thumb Code    14  main.o(.text)
    module_clock_on                          0x10002e4d   Thumb Code    14  main.o(.text)
    ll_length_req                            0x10002e5b   Thumb Code    24  main.o(.text)
    get_pmu_reset_type                       0x10002e73   Thumb Code     4  main.o(.text)
    reset_module                             0x10002e77   Thumb Code    36  main.o(.text)
    SystemSleep                              0x10002e9b   Thumb Code    10  main.o(.text)
    ble_flash_authority                      0x10002ea5   Thumb Code    88  main.o(.text)
    ble_flash_erase                          0x10002efd   Thumb Code    12  main.o(.text)
    ble_flash_read                           0x10002f09   Thumb Code    32  main.o(.text)
    ble_flash_write                          0x10002f29   Thumb Code    14  main.o(.text)
    ble_flash_write_burst                    0x10002f37   Thumb Code    14  main.o(.text)
    _checksum_cache_496kb                    0x10002f45   Thumb Code   110  main.o(.text)
    ota_code_update_496kb                    0x10002fb3   Thumb Code   286  main.o(.text)
    BBRFWrite                                0x100030d1   Thumb Code     4  main.o(.text)
    BBRFRead                                 0x100030d5   Thumb Code     6  main.o(.text)
    gap_s_smart_update_latency               0x100030db   Thumb Code   300  main.o(.text)
    smart_update_latency_updatareq           0x10003207   Thumb Code   298  main.o(.text)
    syd8821_chip_confirm                     0x10003331   Thumb Code    24  main.o(.text)
    APPtimer_enable                          0x10003349   Thumb Code    26  main.o(.text)
    APPtimer_disable                         0x10003363   Thumb Code    24  main.o(.text)
    sched_callback_enable                    0x1000337b   Thumb Code    26  main.o(.text)
    gap_s_adv_state_get                      0x10003395   Thumb Code     8  main.o(.text)
    gap_s_att_mtu_get                        0x1000339d   Thumb Code    18  main.o(.text)
    ble_SetTxPower                           0x100033af   Thumb Code   536  main.o(.text)
    ll_set_replying_packet_timer             0x100035c7   Thumb Code    10  main.o(.text)
    amic_set_bias                            0x100035d1   Thumb Code    72  main.o(.text)
    gap_s_verdor_datas_get                   0x10003619   Thumb Code    26  main.o(.text)
    gap_s_verdor_datas_set                   0x10003633   Thumb Code    76  main.o(.text)
    systemtick_delay                         0x1000367f   Thumb Code    34  main.o(.text)
    Setting4kUpdate                          0x100036a1   Thumb Code   148  main.o(.text)
    SetDevAddr_toflash                       0x10003735   Thumb Code    84  main.o(.text)
    flash_peotect_key_confirm                0x10003789   Thumb Code   120  main.o(.text)
    Confirm_NumericComrison                  0x1000384d   Thumb Code    12  rom.o(.text)
    SmpRxPairingConfirm                      0x10003859   Thumb Code   210  rom.o(.text)
    SmpRxPairingRandom                       0x1000392b   Thumb Code   652  rom.o(.text)
    SmpPairingReq                            0x10003bb7   Thumb Code   450  rom.o(.text)
    SmpPairingPublicKey                      0x10003d79   Thumb Code   146  rom.o(.text)
    SmpPasskeyEntry                          0x10003e0b   Thumb Code   226  rom.o(.text)
    PreCkQueSz                               0x10003eed   Thumb Code   146  rom.o(.text)
    AttNotify                                0x10003f7f   Thumb Code    56  rom.o(.text)
    AttIndication                            0x10003fb7   Thumb Code    56  rom.o(.text)
    HW_LLC_Sleep_WorkAround                  0x100046e9   Thumb Code    54  rom.o(.text)
    HW_WindowOffsetWorkAround                0x1000471f   Thumb Code    68  rom.o(.text)
    LLLengthRsp                              0x10004763   Thumb Code   194  rom.o(.text)
    LLLengthReq                              0x10004825   Thumb Code   300  rom.o(.text)
    rvereseArray                             0x10004951   Thumb Code    26  rom.o(.text)
    LLStartENCReq                            0x1000496b   Thumb Code   152  rom.o(.text)
    LLRxStartENCRsp                          0x10004dd5   Thumb Code     2  rom.o(.text)
    Protocol_Hook_Callback                   0x10004dd7   Thumb Code   374  rom.o(.text)
    B01_Hook_Callback                        0x10004f4d   Thumb Code    44  rom.o(.text)
    _rom_init                                0x10004f79   Thumb Code    78  rom.o(.text)
    LLTerminateReq                           0x10004fc7   Thumb Code   120  rom.o(.text)
    _rom_gap_s_disconnect                    0x1000503f   Thumb Code    32  rom.o(.text)
    _rom_sys_32k_lpo_calibration             0x1000505f   Thumb Code   132  rom.o(.text)
    _sys_32k_lpo_calibration                 0x100050e3   Thumb Code    66  rom.o(.text)
    _rom_sys_32k_clock_set                   0x10005125   Thumb Code   188  rom.o(.text)
    _rom_gap_s_gatt_data_send                0x100051e1   Thumb Code    72  rom.o(.text)
    _rom_gap_s_coex_adv_start                0x10005229   Thumb Code    56  rom.o(.text)
    _rom_gap_s_coex_adv_stop                 0x10005261   Thumb Code    40  rom.o(.text)
    BBRXFIFORead                             0x10005289   Thumb Code   494  rom.o(.text)
    LCTxPkt_Handler                          0x100056d5   Thumb Code   286  rom.o(.text)
    ConnectionLost                           0x100057f3   Thumb Code   122  rom.o(.text)
    LLC_IRQHandler                           0x1000586d   Thumb Code   210  rom.o(.text)
    _sys_mcu_rc_calibration                  0x1000593f   Thumb Code    54  rom.o(.text)
    _rom_sys_mcu_clock_div_get               0x10005975   Thumb Code    12  rom.o(.text)
    _rom_sys_mcu_clock_get                   0x10005981   Thumb Code     8  rom.o(.text)
    BBMCUClockSel                            0x10005989   Thumb Code   126  rom.o(.text)
    _rom_sys_mcu_clock_set                   0x10005a07   Thumb Code    14  rom.o(.text)
    _rom_ota_code_erase                      0x10005a15   Thumb Code   188  rom.o(.text)
    _rom_gap_s_connection_latency_mode       0x10005ad1   Thumb Code   168  rom.o(.text)
    syd8821_pmu_power_saving                 0x10005d45   Thumb Code   402  pmu.o(.text)
    aes_ccm_encrypt                          0x10006297   Thumb Code   114  aec-ccm.o(.text)
    aes_ccm_decrypt                          0x10006309   Thumb Code   152  aec-ccm.o(.text)
    aes_ccm_verify                           0x100063a1   Thumb Code    96  aec-ccm.o(.text)
    CCM_NONCE                                0x10006401   Thumb Code    62  aec-ccm.o(.text)
    aes_encrypt                              0x10006d27   Thumb Code    24  aes.o(.text)
    aes_decrypt                              0x10006d3f   Thumb Code    26  aes.o(.text)
    __c89vsprintf                            0x10006d6d   Thumb Code    32  c89vsprintf.o(.text)
    memcmp                                   0x10006d91   Thumb Code    90  memcmp.o(.text)
    __aeabi_memcpy                           0x10006deb   Thumb Code   130  rt_memcpy.o(.text)
    __rt_memcpy                              0x10006deb   Thumb Code     0  rt_memcpy.o(.text)
    _memset_w                                0x10006e6d   Thumb Code    26  rt_memclr.o(.text)
    _memset                                  0x10006e87   Thumb Code    30  rt_memclr.o(.text)
    __aeabi_memclr                           0x10006ea5   Thumb Code     4  rt_memclr.o(.text)
    __rt_memclr                              0x10006ea5   Thumb Code     0  rt_memclr.o(.text)
    __aeabi_memclr4                          0x10006ea9   Thumb Code     0  rt_memclr.o(.text)
    __aeabi_memclr8                          0x10006ea9   Thumb Code     0  rt_memclr.o(.text)
    __rt_memclr_w                            0x10006ea9   Thumb Code     4  rt_memclr.o(.text)
    __aeabi_uread4                           0x10006ead   Thumb Code    34  uread4.o(.text)
    __rt_uread4                              0x10006ead   Thumb Code     0  uread4.o(.text)
    __aeabi_uwrite4                          0x10006ecf   Thumb Code    16  uwrite4.o(.text)
    __rt_uwrite4                             0x10006ecf   Thumb Code     0  uwrite4.o(.text)
    __aeabi_uidiv                            0x10006edf   Thumb Code     0  aeabi_sdiv.o(.text)
    __aeabi_uidivmod                         0x10006edf   Thumb Code    20  aeabi_sdiv.o(.text)
    __aeabi_idiv                             0x10006ef3   Thumb Code     0  aeabi_sdiv.o(.text)
    __aeabi_idivmod                          0x10006ef3   Thumb Code   326  aeabi_sdiv.o(.text)
    __use_two_region_memory                  0x10007039   Thumb Code     2  heapauxi.o(.text)
    __rt_heap_escrow$2region                 0x1000703b   Thumb Code     2  heapauxi.o(.text)
    __rt_heap_expand$2region                 0x1000703d   Thumb Code     2  heapauxi.o(.text)
    __aeabi_dadd                             0x10007339   Thumb Code     0  daddsub.o(.text)
    _dadd                                    0x10007339   Thumb Code    26  daddsub.o(.text)
    __aeabi_dsub                             0x10007353   Thumb Code     0  daddsub.o(.text)
    _dsub                                    0x10007353   Thumb Code    22  daddsub.o(.text)
    __aeabi_drsub                            0x10007369   Thumb Code     0  daddsub.o(.text)
    _drsb                                    0x10007369   Thumb Code    28  daddsub.o(.text)
    __aeabi_ddiv                             0x10007399   Thumb Code     0  ddiv.o(.text)
    _ddiv                                    0x10007399   Thumb Code  1072  ddiv.o(.text)
    _drdiv                                   0x100077c9   Thumb Code    20  ddiv.o(.text)
    __aeabi_d2uiz                            0x100077e1   Thumb Code     0  dfixui.o(.text)
    _dfixu                                   0x100077e1   Thumb Code    68  dfixui.o(.text)
    __aeabi_i2d_normalise                    0x10007829   Thumb Code    66  dflti.o(.text)
    __aeabi_i2d                              0x1000786b   Thumb Code    16  dflti.o(.text)
    _dflt                                    0x1000786b   Thumb Code     0  dflti.o(.text)
    __aeabi_ui2d                             0x1000787b   Thumb Code     6  dflti.o(.text)
    _dfltu                                   0x1000787b   Thumb Code     0  dflti.o(.text)
    __aeabi_dmul                             0x10007881   Thumb Code     0  dmul.o(.text)
    _dmul                                    0x10007881   Thumb Code   558  dmul.o(.text)
    __aeabi_f2d                              0x10007ac9   Thumb Code     0  f2d.o(.text)
    _f2d                                     0x10007ac9   Thumb Code    80  f2d.o(.text)
    __aeabi_i2f_normalise                    0x10007b1d   Thumb Code    72  fflti.o(.text)
    __aeabi_i2f                              0x10007b65   Thumb Code    16  fflti.o(.text)
    _fflt                                    0x10007b65   Thumb Code     0  fflti.o(.text)
    __aeabi_ui2f                             0x10007b75   Thumb Code     6  fflti.o(.text)
    _ffltu                                   0x10007b75   Thumb Code     0  fflti.o(.text)
    _printf_pre_padding                      0x10007b7b   Thumb Code    44  _printf_pad.o(.text)
    _printf_post_padding                     0x10007ba7   Thumb Code    34  _printf_pad.o(.text)
    _printf_truncate_signed                  0x10007bc9   Thumb Code    18  _printf_truncate.o(.text)
    _printf_truncate_unsigned                0x10007bdb   Thumb Code    18  _printf_truncate.o(.text)
    _printf_str                              0x10007bed   Thumb Code    82  _printf_str.o(.text)
    _printf_int_dec                          0x10007c41   Thumb Code    90  _printf_dec.o(.text)
    _printf_charcount                        0x10007cad   Thumb Code    38  _printf_charcount.o(.text)
    _printf_char_common                      0x10007cdf   Thumb Code    32  _printf_char_common.o(.text)
    _sputc                                   0x10007d05   Thumb Code    10  _sputc.o(.text)
    _printf_wctomb                           0x10007d11   Thumb Code   182  _printf_wctomb.o(.text)
    _printf_longlong_dec                     0x10007dcd   Thumb Code    94  _printf_longlong_dec.o(.text)
    _printf_longlong_oct                     0x10007e3d   Thumb Code    68  _printf_oct_int_ll.o(.text)
    _printf_int_oct                          0x10007e81   Thumb Code    24  _printf_oct_int_ll.o(.text)
    _printf_ll_oct                           0x10007e99   Thumb Code    10  _printf_oct_int_ll.o(.text)
    _printf_longlong_hex                     0x10007ead   Thumb Code    88  _printf_hex_int_ll_ptr.o(.text)
    _printf_int_hex                          0x10007f05   Thumb Code    28  _printf_hex_int_ll_ptr.o(.text)
    _printf_ll_hex                           0x10007f21   Thumb Code    10  _printf_hex_int_ll_ptr.o(.text)
    _printf_hex_ptr                          0x10007f2b   Thumb Code    22  _printf_hex_int_ll_ptr.o(.text)
    __printf                                 0x10007f45   Thumb Code   386  __printf_flags_ss_wp.o(.text)
    _ll_udiv10                               0x100080cd   Thumb Code   122  lludiv10.o(.text)
    _printf_int_common                       0x10008147   Thumb Code   176  _printf_intcommon.o(.text)
    __lib_sel_fp_printf                      0x100081f9   Thumb Code     2  _printf_fp_dec.o(.text)
    _printf_fp_dec_real                      0x10008397   Thumb Code   620  _printf_fp_dec.o(.text)
    _printf_cs_common                        0x10008611   Thumb Code    22  _printf_char.o(.text)
    _printf_char                             0x10008627   Thumb Code    16  _printf_char.o(.text)
    _printf_string                           0x10008637   Thumb Code     8  _printf_char.o(.text)
    _printf_lcs_common                       0x1000863f   Thumb Code    22  _printf_wchar.o(.text)
    _printf_wchar                            0x10008655   Thumb Code    16  _printf_wchar.o(.text)
    _printf_wstring                          0x10008665   Thumb Code     8  _printf_wchar.o(.text)
    _wcrtomb                                 0x1000866d   Thumb Code    64  _wcrtomb.o(.text)
    __rt_udiv10                              0x100086ad   Thumb Code    40  rtudiv10.o(.text)
    __user_setup_stackheap                   0x100086d5   Thumb Code    62  sys_stackheap_outer.o(.text)
    __rt_ctype_table                         0x10008715   Thumb Code    16  rt_ctype_table.o(.text)
    __rt_locale                              0x10008725   Thumb Code     8  rt_locale_intlibspace.o(.text)
    _printf_fp_infnan                        0x1000872d   Thumb Code   120  _printf_fp_infnan.o(.text)
    _btod_etento                             0x100087b5   Thumb Code   210  bigflt0.o(.text)
    _btod_d2e                                0x1000888d   Thumb Code    64  btod.o(.text)
    _btod_emul                               0x10008cc1   Thumb Code    28  btod.o(.text)
    _btod_emuld                              0x10008cdd   Thumb Code   144  btod.o(.text)
    _btod_ediv                               0x10008d6d   Thumb Code    26  btod.o(.text)
    _btod_edivd                              0x10008d87   Thumb Code   124  btod.o(.text)
    exit                                     0x10008e0d   Thumb Code    16  exit.o(.text)
    __user_libspace                          0x10008e1d   Thumb Code     8  libspace.o(.text)
    __user_perproc_libspace                  0x10008e1d   Thumb Code     0  libspace.o(.text)
    __user_perthread_libspace                0x10008e1d   Thumb Code     0  libspace.o(.text)
    strcmp                                   0x10008e25   Thumb Code   132  strcmp.o(.text)
    _sys_exit                                0x10008ead   Thumb Code     8  sys_exit.o(.text)
    __I$use$semihosting                      0x10008eb9   Thumb Code     0  use_no_semi.o(.text)
    __use_no_semihosting_swi                 0x10008eb9   Thumb Code     2  use_no_semi.o(.text)
    __semihosting_library_function           0x10008ebb   Thumb Code     0  indicate_semi.o(.text)
    syd8821_wfi                              0x10008ebd   Thumb Code    66  pmu.o(PMU)
    __ARM_common_ll_muluu                    0x10008f09   Thumb Code    48  btod.o(i.__ARM_common_ll_muluu)
    __ARM_common_switch8                     0x10008f39   Thumb Code    26  main.o(i.__ARM_common_switch8)
    __ARM_fpclassify                         0x10008f55   Thumb Code    40  fpclassify.o(i.__ARM_fpclassify)
    _is_digit                                0x10008f81   Thumb Code    14  __printf_wp.o(i._is_digit)
    _get_lc_numeric                          0x10008f91   Thumb Code    44  lc_numeric_c.o(locale$$code)
    _get_lc_ctype                            0x10008fbd   Thumb Code    44  lc_ctype_c.o(locale$$code)
    __aeabi_fadd                             0x10008fe9   Thumb Code     0  faddsub.o(x$fpl$fadd)
    _fadd                                    0x10008fe9   Thumb Code   134  faddsub.o(x$fpl$fadd)
    __aeabi_fsub                             0x10009075   Thumb Code     0  faddsub.o(x$fpl$fsub)
    _fsub                                    0x10009075   Thumb Code   204  faddsub.o(x$fpl$fsub)
    _printf_fp_dec                           0x10009145   Thumb Code    16  printf1.o(x$fpl$printf1)
    __I$use$fp                               0x10009154   Number         0  usenofp.o(x$fpl$usenofp)
    Region$$Table$$Base                      0x10009bd0   Number         0  anon$$obj.o(Region$$Table)
    Region$$Table$$Limit                     0x10009bf0   Number         0  anon$$obj.o(Region$$Table)
    __ctype                                  0x10009c19   Data           0  lc_ctype_c.o(locale$$data)
    GAP_Event                                0x20000000   Data           8  main.o(.data)
    connect_flag                             0x2000000e   Data           1  main.o(.data)
    update_latency_mode                      0x2000000f   Data           1  main.o(.data)
    latency_state                            0x20000010   Data           1  main.o(.data)
    timer_wait_cnt                           0x20000011   Data           1  main.o(.data)
    ADV_DATA                                 0x20000012   Data          28  main.o(.data)
    ADV_DATA_SZ                              0x2000002e   Data           2  main.o(.data)
    SCAN_DATA                                0x20000030   Data           1  main.o(.data)
    SCAN_DATA_SZ                             0x20000032   Data           2  main.o(.data)
    GPIO_CTRL                                0x2000003c   Data           8  gpio.o(.data)
    UART_CTRL                                0x20000050   Data           8  uart.o(.data)
    ota_state                                0x20000074   Data           1  otav30.o(.data)
    ota_writecnt                             0x20000076   Data           2  otav30.o(.data)
    ota_section_size                         0x20000078   Data           2  otav30.o(.data)
    ota_receive_size                         0x2000007a   Data           2  otav30.o(.data)
    ota_section_check                        0x2000007c   Data           2  otav30.o(.data)
    ota_receive_check                        0x2000007e   Data           2  otav30.o(.data)
    ota_section_offset                       0x20000080   Data           4  otav30.o(.data)
    pevt                                     0x2000008c   Data           4  otav30.o(.data)
    SystemCoreClock                          0x20000090   Data           4  system_armcm0.o(.data)
    app_gap_evt_callback                     0x200000a4   Data           4  main.o(.data)
    enable_sw_ccm                            0x200000aa   Data           1  rom.o(.data)
    using_oob                                0x200000ab   Data           1  rom.o(.data)
    using_numeric_compairison                0x200000ac   Data           1  rom.o(.data)
    LL_Header                                0x200000ae   Data           1  rom.o(.data)
    isStartLlid                              0x200000af   Data           1  rom.o(.data)
    LL_Header_len                            0x200000b2   Data           2  rom.o(.data)
    BB_CTRL                                  0x200000b4   Data           4  rom.o(.data)
    flash_hdr                                0x200000b8   Data           4  rom.o(.data)
    lclink                                   0x200000bc   Data           4  rom.o(.data)
    txpdu                                    0x200000c0   Data           4  rom.o(.data)
    mic_len                                  0x200000f0   Data           4  rom.o(.data)
    l2capTmpBuf                              0x200000f4   Data           4  rom.o(.data)
    att_handle_config_evt                    0x200000fc   Data           6  rom.o(.data)
    RxCounter                                0x20000102   Data           8  rom.o(.data)
    TxCounter                                0x2000010a   Data           8  rom.o(.data)
    rx_queue                                 0x20000118   Data          32  uart.o(.bss)
    rx_buf                                   0x20000138   Data        1024  uart.o(.bss)
    ota_w                                    0x200005cc   Data          40  otav30.o(.bss)
    smart_update_ctrol                       0x200016be   Data          15  main.o(.bss)
    Nonce                                    0x200016d0   Data          13  rom.o(.bss)
    rxbuf                                    0x200016e0   Data         260  rom.o(.bss)
    encPayload                               0x200017e4   Data         260  rom.o(.bss)
    att_write_evt                            0x200018e8   Data         519  rom.o(.bss)
    __libspace_start                         0x20001b00   Data          96  libspace.o(.bss)
    __temporary_stack_top$libspace           0x20001b60   Data           0  libspace.o(.bss)



==============================================================================

Memory Map of the image

  Image Entry point : 0x100000c1

  Load Region LR_IROM1 (Base: 0x10000000, Size: 0x00009e34, Max: 0x0003e000, ABSOLUTE)

    Execution Region ER_IROM1 (Exec base: 0x10000000, Load base: 0x10000000, Size: 0x00009d1c, Max: 0x0003e000, ABSOLUTE)

    Exec Addr    Load Addr    Size         Type   Attr      Idx    E Section Name        Object

    0x10000000   0x10000000   0x000000c0   Data   RO          383    RESET               startup_armcm0.o
    0x100000c0   0x100000c0   0x00000008   Code   RO          625  * !!!main             c_p.l(__main.o)
    0x100000c8   0x100000c8   0x0000003c   Code   RO          953    !!!scatter          c_p.l(__scatter.o)
    0x10000104   0x10000104   0x0000001a   Code   RO          955    !!handler_copy      c_p.l(__scatter_copy.o)
    0x1000011e   0x1000011e   0x00000002   PAD
    0x10000120   0x10000120   0x0000001c   Code   RO          957    !!handler_zi        c_p.l(__scatter_zi.o)
    0x1000013c   0x1000013c   0x00000002   Code   RO          734    .ARM.Collect$$_printf_percent$$00000000  c_p.l(_printf_percent.o)
    0x1000013e   0x1000013e   0x0000000a   Code   RO          723    .ARM.Collect$$_printf_percent$$00000001  c_p.l(_printf_n.o)
    0x10000148   0x10000148   0x0000000a   Code   RO          725    .ARM.Collect$$_printf_percent$$00000002  c_p.l(_printf_p.o)
    0x10000152   0x10000152   0x0000000a   Code   RO          730    .ARM.Collect$$_printf_percent$$00000003  c_p.l(_printf_f.o)
    0x1000015c   0x1000015c   0x0000000a   Code   RO          731    .ARM.Collect$$_printf_percent$$00000004  c_p.l(_printf_e.o)
    0x10000166   0x10000166   0x0000000a   Code   RO          732    .ARM.Collect$$_printf_percent$$00000005  c_p.l(_printf_g.o)
    0x10000170   0x10000170   0x0000000a   Code   RO          733    .ARM.Collect$$_printf_percent$$00000006  c_p.l(_printf_a.o)
    0x1000017a   0x1000017a   0x0000000a   Code   RO          738    .ARM.Collect$$_printf_percent$$00000007  c_p.l(_printf_ll.o)
    0x10000184   0x10000184   0x0000000a   Code   RO          727    .ARM.Collect$$_printf_percent$$00000008  c_p.l(_printf_i.o)
    0x1000018e   0x1000018e   0x0000000a   Code   RO          728    .ARM.Collect$$_printf_percent$$00000009  c_p.l(_printf_d.o)
    0x10000198   0x10000198   0x0000000a   Code   RO          729    .ARM.Collect$$_printf_percent$$0000000A  c_p.l(_printf_u.o)
    0x100001a2   0x100001a2   0x0000000a   Code   RO          726    .ARM.Collect$$_printf_percent$$0000000B  c_p.l(_printf_o.o)
    0x100001ac   0x100001ac   0x0000000a   Code   RO          724    .ARM.Collect$$_printf_percent$$0000000C  c_p.l(_printf_x.o)
    0x100001b6   0x100001b6   0x0000000a   Code   RO          735    .ARM.Collect$$_printf_percent$$0000000D  c_p.l(_printf_lli.o)
    0x100001c0   0x100001c0   0x0000000a   Code   RO          736    .ARM.Collect$$_printf_percent$$0000000E  c_p.l(_printf_lld.o)
    0x100001ca   0x100001ca   0x0000000a   Code   RO          737    .ARM.Collect$$_printf_percent$$0000000F  c_p.l(_printf_llu.o)
    0x100001d4   0x100001d4   0x0000000a   Code   RO          742    .ARM.Collect$$_printf_percent$$00000010  c_p.l(_printf_llo.o)
    0x100001de   0x100001de   0x0000000a   Code   RO          743    .ARM.Collect$$_printf_percent$$00000011  c_p.l(_printf_llx.o)
    0x100001e8   0x100001e8   0x0000000a   Code   RO          739    .ARM.Collect$$_printf_percent$$00000012  c_p.l(_printf_l.o)
    0x100001f2   0x100001f2   0x0000000a   Code   RO          721    .ARM.Collect$$_printf_percent$$00000013  c_p.l(_printf_c.o)
    0x100001fc   0x100001fc   0x0000000a   Code   RO          722    .ARM.Collect$$_printf_percent$$00000014  c_p.l(_printf_s.o)
    0x10000206   0x10000206   0x0000000a   Code   RO          740    .ARM.Collect$$_printf_percent$$00000015  c_p.l(_printf_lc.o)
    0x10000210   0x10000210   0x0000000a   Code   RO          741    .ARM.Collect$$_printf_percent$$00000016  c_p.l(_printf_ls.o)
    0x1000021a   0x1000021a   0x00000004   Code   RO          776    .ARM.Collect$$_printf_percent$$00000017  c_p.l(_printf_percent_end.o)
    0x1000021e   0x1000021e   0x00000002   Code   RO          814    .ARM.Collect$$libinit$$00000000  c_p.l(libinit.o)
    0x10000220   0x10000220   0x00000000   Code   RO          837    .ARM.Collect$$libinit$$00000002  c_p.l(libinit2.o)
    0x10000220   0x10000220   0x00000000   Code   RO          839    .ARM.Collect$$libinit$$00000004  c_p.l(libinit2.o)
    0x10000220   0x10000220   0x00000000   Code   RO          842    .ARM.Collect$$libinit$$0000000A  c_p.l(libinit2.o)
    0x10000220   0x10000220   0x00000000   Code   RO          844    .ARM.Collect$$libinit$$0000000C  c_p.l(libinit2.o)
    0x10000220   0x10000220   0x00000000   Code   RO          846    .ARM.Collect$$libinit$$0000000E  c_p.l(libinit2.o)
    0x10000220   0x10000220   0x00000006   Code   RO          847    .ARM.Collect$$libinit$$0000000F  c_p.l(libinit2.o)
    0x10000226   0x10000226   0x00000000   Code   RO          849    .ARM.Collect$$libinit$$00000011  c_p.l(libinit2.o)
    0x10000226   0x10000226   0x0000000c   Code   RO          850    .ARM.Collect$$libinit$$00000012  c_p.l(libinit2.o)
    0x10000232   0x10000232   0x00000000   Code   RO          851    .ARM.Collect$$libinit$$00000013  c_p.l(libinit2.o)
    0x10000232   0x10000232   0x00000000   Code   RO          853    .ARM.Collect$$libinit$$00000015  c_p.l(libinit2.o)
    0x10000232   0x10000232   0x0000000a   Code   RO          854    .ARM.Collect$$libinit$$00000016  c_p.l(libinit2.o)
    0x1000023c   0x1000023c   0x00000000   Code   RO          855    .ARM.Collect$$libinit$$00000017  c_p.l(libinit2.o)
    0x1000023c   0x1000023c   0x00000000   Code   RO          857    .ARM.Collect$$libinit$$00000019  c_p.l(libinit2.o)
    0x1000023c   0x1000023c   0x00000000   Code   RO          859    .ARM.Collect$$libinit$$0000001B  c_p.l(libinit2.o)
    0x1000023c   0x1000023c   0x00000000   Code   RO          861    .ARM.Collect$$libinit$$0000001D  c_p.l(libinit2.o)
    0x1000023c   0x1000023c   0x00000000   Code   RO          863    .ARM.Collect$$libinit$$0000001F  c_p.l(libinit2.o)
    0x1000023c   0x1000023c   0x00000000   Code   RO          865    .ARM.Collect$$libinit$$00000021  c_p.l(libinit2.o)
    0x1000023c   0x1000023c   0x00000000   Code   RO          867    .ARM.Collect$$libinit$$00000023  c_p.l(libinit2.o)
    0x1000023c   0x1000023c   0x00000000   Code   RO          869    .ARM.Collect$$libinit$$00000025  c_p.l(libinit2.o)
    0x1000023c   0x1000023c   0x00000000   Code   RO          873    .ARM.Collect$$libinit$$0000002C  c_p.l(libinit2.o)
    0x1000023c   0x1000023c   0x00000000   Code   RO          875    .ARM.Collect$$libinit$$0000002E  c_p.l(libinit2.o)
    0x1000023c   0x1000023c   0x00000000   Code   RO          877    .ARM.Collect$$libinit$$00000030  c_p.l(libinit2.o)
    0x1000023c   0x1000023c   0x00000000   Code   RO          879    .ARM.Collect$$libinit$$00000032  c_p.l(libinit2.o)
    0x1000023c   0x1000023c   0x00000002   Code   RO          880    .ARM.Collect$$libinit$$00000033  c_p.l(libinit2.o)
    0x1000023e   0x1000023e   0x00000002   Code   RO          911    .ARM.Collect$$libshutdown$$00000000  c_p.l(libshutdown.o)
    0x10000240   0x10000240   0x00000000   Code   RO          937    .ARM.Collect$$libshutdown$$00000002  c_p.l(libshutdown2.o)
    0x10000240   0x10000240   0x00000000   Code   RO          939    .ARM.Collect$$libshutdown$$00000004  c_p.l(libshutdown2.o)
    0x10000240   0x10000240   0x00000000   Code   RO          942    .ARM.Collect$$libshutdown$$00000007  c_p.l(libshutdown2.o)
    0x10000240   0x10000240   0x00000000   Code   RO          945    .ARM.Collect$$libshutdown$$0000000A  c_p.l(libshutdown2.o)
    0x10000240   0x10000240   0x00000000   Code   RO          947    .ARM.Collect$$libshutdown$$0000000C  c_p.l(libshutdown2.o)
    0x10000240   0x10000240   0x00000000   Code   RO          950    .ARM.Collect$$libshutdown$$0000000F  c_p.l(libshutdown2.o)
    0x10000240   0x10000240   0x00000002   Code   RO          951    .ARM.Collect$$libshutdown$$00000010  c_p.l(libshutdown2.o)
    0x10000242   0x10000242   0x00000000   Code   RO          648    .ARM.Collect$$rtentry$$00000000  c_p.l(__rtentry.o)
    0x10000242   0x10000242   0x00000000   Code   RO          748    .ARM.Collect$$rtentry$$00000002  c_p.l(__rtentry2.o)
    0x10000242   0x10000242   0x00000006   Code   RO          760    .ARM.Collect$$rtentry$$00000004  c_p.l(__rtentry4.o)
    0x10000248   0x10000248   0x00000000   Code   RO          750    .ARM.Collect$$rtentry$$00000009  c_p.l(__rtentry2.o)
    0x10000248   0x10000248   0x00000004   Code   RO          751    .ARM.Collect$$rtentry$$0000000A  c_p.l(__rtentry2.o)
    0x1000024c   0x1000024c   0x00000000   Code   RO          753    .ARM.Collect$$rtentry$$0000000C  c_p.l(__rtentry2.o)
    0x1000024c   0x1000024c   0x00000008   Code   RO          754    .ARM.Collect$$rtentry$$0000000D  c_p.l(__rtentry2.o)
    0x10000254   0x10000254   0x00000002   Code   RO          823    .ARM.Collect$$rtexit$$00000000  c_p.l(rtexit.o)
    0x10000256   0x10000256   0x00000000   Code   RO          884    .ARM.Collect$$rtexit$$00000002  c_p.l(rtexit2.o)
    0x10000256   0x10000256   0x00000004   Code   RO          885    .ARM.Collect$$rtexit$$00000003  c_p.l(rtexit2.o)
    0x1000025a   0x1000025a   0x00000006   Code   RO          886    .ARM.Collect$$rtexit$$00000004  c_p.l(rtexit2.o)
    0x10000260   0x10000260   0x00000006   Code   RO          470    .emb_text           syd8821_ble_slave.lib(rom.o)
    0x10000266   0x10000266   0x00000002   PAD
    0x10000268   0x10000268   0x00000038   Code   RO          609    .emb_text           c_p.l(rt_memcpy.o)
    0x100002a0   0x100002a0   0x00000bec   Code   RO            3    .text               main.o
    0x10000e8c   0x10000e8c   0x00000368   Code   RO           99    .text               gpio.o
    0x100011f4   0x100011f4   0x00000038   Code   RO          131    .text               delay.o
    0x1000122c   0x1000122c   0x00000090   Code   RO          157    .text               pad_mux_ctrl.o
    0x100012bc   0x100012bc   0x00000280   Code   RO          182    .text               uart.o
    0x1000153c   0x1000153c   0x0000023c   Code   RO          218    .text               debug.o
    0x10001778   0x10001778   0x000000e2   Code   RO          258    .text               queue.o
    0x1000185a   0x1000185a   0x00000002   PAD
    0x1000185c   0x1000185c   0x000001c4   Code   RO          281    .text               timer.o
    0x10001a20   0x10001a20   0x00000554   Code   RO          307    .text               otav30.o
    0x10001f74   0x10001f74   0x00000038   Code   RO          384    .text               startup_armcm0.o
    0x10001fac   0x10001fac   0x00000018   Code   RO          390    .text               system_armcm0.o
    0x10001fc4   0x10001fc4   0x00001888   Code   RO          416    .text               syd8821_ble_slave.lib(main.o)
    0x1000384c   0x1000384c   0x000024f8   Code   RO          471    .text               syd8821_ble_slave.lib(rom.o)
    0x10005d44   0x10005d44   0x000001b4   Code   RO          506    .text               syd8821_ble_slave.lib(pmu.o)
    0x10005ef8   0x10005ef8   0x00000580   Code   RO          560    .text               syd8821_ble_slave.lib(aec-ccm.o)
    0x10006478   0x10006478   0x000008f4   Code   RO          590    .text               syd8821_ble_slave.lib(aes.o)
    0x10006d6c   0x10006d6c   0x00000024   Code   RO          605    .text               c_p.l(c89vsprintf.o)
    0x10006d90   0x10006d90   0x0000005a   Code   RO          607    .text               c_p.l(memcmp.o)
    0x10006dea   0x10006dea   0x00000082   Code   RO          610    .text               c_p.l(rt_memcpy.o)
    0x10006e6c   0x10006e6c   0x00000040   Code   RO          613    .text               c_p.l(rt_memclr.o)
    0x10006eac   0x10006eac   0x00000022   Code   RO          615    .text               c_p.l(uread4.o)
    0x10006ece   0x10006ece   0x00000010   Code   RO          617    .text               c_p.l(uwrite4.o)
    0x10006ede   0x10006ede   0x0000015a   Code   RO          619    .text               c_p.l(aeabi_sdiv.o)
    0x10007038   0x10007038   0x00000006   Code   RO          623    .text               c_p.l(heapauxi.o)
    0x1000703e   0x1000703e   0x00000002   PAD
    0x10007040   0x10007040   0x00000358   Code   RO          627    .text               fz_ps.l(daddsub.o)
    0x10007398   0x10007398   0x00000448   Code   RO          629    .text               fz_ps.l(ddiv.o)
    0x100077e0   0x100077e0   0x00000048   Code   RO          632    .text               fz_ps.l(dfixui.o)
    0x10007828   0x10007828   0x00000058   Code   RO          634    .text               fz_ps.l(dflti.o)
    0x10007880   0x10007880   0x00000248   Code   RO          636    .text               fz_ps.l(dmul.o)
    0x10007ac8   0x10007ac8   0x00000054   Code   RO          638    .text               fz_ps.l(f2d.o)
    0x10007b1c   0x10007b1c   0x0000005e   Code   RO          646    .text               fz_ps.l(fflti.o)
    0x10007b7a   0x10007b7a   0x0000004e   Code   RO          655    .text               c_p.l(_printf_pad.o)
    0x10007bc8   0x10007bc8   0x00000024   Code   RO          657    .text               c_p.l(_printf_truncate.o)
    0x10007bec   0x10007bec   0x00000052   Code   RO          659    .text               c_p.l(_printf_str.o)
    0x10007c3e   0x10007c3e   0x00000002   PAD
    0x10007c40   0x10007c40   0x0000006c   Code   RO          661    .text               c_p.l(_printf_dec.o)
    0x10007cac   0x10007cac   0x00000026   Code   RO          663    .text               c_p.l(_printf_charcount.o)
    0x10007cd2   0x10007cd2   0x00000002   PAD
    0x10007cd4   0x10007cd4   0x00000030   Code   RO          665    .text               c_p.l(_printf_char_common.o)
    0x10007d04   0x10007d04   0x0000000a   Code   RO          667    .text               c_p.l(_sputc.o)
    0x10007d0e   0x10007d0e   0x00000002   PAD
    0x10007d10   0x10007d10   0x000000bc   Code   RO          669    .text               c_p.l(_printf_wctomb.o)
    0x10007dcc   0x10007dcc   0x00000070   Code   RO          672    .text               c_p.l(_printf_longlong_dec.o)
    0x10007e3c   0x10007e3c   0x00000070   Code   RO          678    .text               c_p.l(_printf_oct_int_ll.o)
    0x10007eac   0x10007eac   0x00000098   Code   RO          698    .text               c_p.l(_printf_hex_int_ll_ptr.o)
    0x10007f44   0x10007f44   0x00000188   Code   RO          718    .text               c_p.l(__printf_flags_ss_wp.o)
    0x100080cc   0x100080cc   0x0000007a   Code   RO          764    .text               c_p.l(lludiv10.o)
    0x10008146   0x10008146   0x000000b0   Code   RO          766    .text               c_p.l(_printf_intcommon.o)
    0x100081f6   0x100081f6   0x00000002   PAD
    0x100081f8   0x100081f8   0x00000418   Code   RO          768    .text               c_p.l(_printf_fp_dec.o)
    0x10008610   0x10008610   0x0000002e   Code   RO          772    .text               c_p.l(_printf_char.o)
    0x1000863e   0x1000863e   0x0000002e   Code   RO          774    .text               c_p.l(_printf_wchar.o)
    0x1000866c   0x1000866c   0x00000040   Code   RO          777    .text               c_p.l(_wcrtomb.o)
    0x100086ac   0x100086ac   0x00000028   Code   RO          779    .text               c_p.l(rtudiv10.o)
    0x100086d4   0x100086d4   0x0000003e   Code   RO          781    .text               c_p.l(sys_stackheap_outer.o)
    0x10008712   0x10008712   0x00000002   PAD
    0x10008714   0x10008714   0x00000010   Code   RO          784    .text               c_p.l(rt_ctype_table.o)
    0x10008724   0x10008724   0x00000008   Code   RO          789    .text               c_p.l(rt_locale_intlibspace.o)
    0x1000872c   0x1000872c   0x00000088   Code   RO          791    .text               c_p.l(_printf_fp_infnan.o)
    0x100087b4   0x100087b4   0x000000d8   Code   RO          793    .text               c_p.l(bigflt0.o)
    0x1000888c   0x1000888c   0x00000580   Code   RO          796    .text               c_p.l(btod.o)
    0x10008e0c   0x10008e0c   0x00000010   Code   RO          803    .text               c_p.l(exit.o)
    0x10008e1c   0x10008e1c   0x00000008   Code   RO          819    .text               c_p.l(libspace.o)
    0x10008e24   0x10008e24   0x00000088   Code   RO          834    .text               c_p.l(strcmp.o)
    0x10008eac   0x10008eac   0x0000000c   Code   RO          881    .text               c_p.l(sys_exit.o)
    0x10008eb8   0x10008eb8   0x00000002   Code   RO          900    .text               c_p.l(use_no_semi.o)
    0x10008eba   0x10008eba   0x00000000   Code   RO          902    .text               c_p.l(indicate_semi.o)
    0x10008eba   0x10008eba   0x00000002   PAD
    0x10008ebc   0x10008ebc   0x0000004c   Code   RO          507    PMU                 syd8821_ble_slave.lib(pmu.o)
    0x10008f08   0x10008f08   0x00000030   Code   RO          798    i.__ARM_common_ll_muluu  c_p.l(btod.o)
    0x10008f38   0x10008f38   0x0000001a   Code   RO          437    i.__ARM_common_switch8  syd8821_ble_slave.lib(main.o)
    0x10008f52   0x10008f52   0x00000002   PAD
    0x10008f54   0x10008f54   0x0000002c   Code   RO          817    i.__ARM_fpclassify  m_ps.l(fpclassify.o)
    0x10008f80   0x10008f80   0x0000000e   Code   RO          711    i._is_digit         c_p.l(__printf_wp.o)
    0x10008f8e   0x10008f8e   0x00000002   PAD
    0x10008f90   0x10008f90   0x0000002c   Code   RO          801    locale$$code        c_p.l(lc_numeric_c.o)
    0x10008fbc   0x10008fbc   0x0000002c   Code   RO          828    locale$$code        c_p.l(lc_ctype_c.o)
    0x10008fe8   0x10008fe8   0x0000008c   Code   RO          640    x$fpl$fadd          fz_ps.l(faddsub.o)
    0x10009074   0x10009074   0x000000d0   Code   RO          642    x$fpl$fsub          fz_ps.l(faddsub.o)
    0x10009144   0x10009144   0x00000010   Code   RO          744    x$fpl$printf1       fz_ps.l(printf1.o)
    0x10009154   0x10009154   0x00000000   Code   RO          746    x$fpl$usenofp       fz_ps.l(usenofp.o)
    0x10009154   0x10009154   0x0000028e   Data   RO            4    .constdata          main.o
    0x100093e2   0x100093e2   0x00000002   PAD
    0x100093e4   0x100093e4   0x00000400   Data   RO          418    .constdata          syd8821_ble_slave.lib(main.o)
    0x100097e4   0x100097e4   0x00000068   Data   RO          473    .constdata          syd8821_ble_slave.lib(rom.o)
    0x1000984c   0x1000984c   0x00000020   Data   RO          508    .constdata          syd8821_ble_slave.lib(pmu.o)
    0x1000986c   0x1000986c   0x0000020b   Data   RO          591    .constdata          syd8821_ble_slave.lib(aes.o)
    0x10009a77   0x10009a77   0x00000080   Data   RO          630    .constdata          fz_ps.l(ddiv.o)
    0x10009af7   0x10009af7   0x00000001   PAD
    0x10009af8   0x10009af8   0x00000008   Data   RO          670    .constdata          c_p.l(_printf_wctomb.o)
    0x10009b00   0x10009b00   0x00000028   Data   RO          699    .constdata          c_p.l(_printf_hex_int_ll_ptr.o)
    0x10009b28   0x10009b28   0x00000011   Data   RO          719    .constdata          c_p.l(__printf_flags_ss_wp.o)
    0x10009b39   0x10009b39   0x00000003   PAD
    0x10009b3c   0x10009b3c   0x00000094   Data   RO          794    .constdata          c_p.l(bigflt0.o)
    0x10009bd0   0x10009bd0   0x00000020   Data   RO          952    Region$$Table       anon$$obj.o
    0x10009bf0   0x10009bf0   0x0000001c   Data   RO          800    locale$$data        c_p.l(lc_numeric_c.o)
    0x10009c0c   0x10009c0c   0x00000110   Data   RO          827    locale$$data        c_p.l(lc_ctype_c.o)


    Execution Region RW_IRAM1 (Exec base: 0x20000000, Load base: 0x10009d1c, Size: 0x00006b60, Max: 0x00028000, ABSOLUTE)

    Exec Addr    Load Addr    Size         Type   Attr      Idx    E Section Name        Object

    0x20000000   0x10009d1c   0x0000003b   Data   RW            5    .data               main.o
    0x2000003b   0x10009d57   0x00000001   PAD
    0x2000003c   0x10009d58   0x0000000c   Data   RW          100    .data               gpio.o
    0x20000048   0x10009d64   0x00000008   Data   RW          158    .data               pad_mux_ctrl.o
    0x20000050   0x10009d6c   0x00000008   Data   RW          184    .data               uart.o
    0x20000058   0x10009d74   0x00000008   Data   RW          220    .data               debug.o
    0x20000060   0x10009d7c   0x00000014   Data   RW          283    .data               timer.o
    0x20000074   0x10009d90   0x0000001c   Data   RW          309    .data               otav30.o
    0x20000090   0x10009dac   0x00000004   Data   RW          391    .data               system_armcm0.o
    0x20000094   0x10009db0   0x00000014   Data   RW          419    .data               syd8821_ble_slave.lib(main.o)
    0x200000a8   0x10009dc4   0x0000006a   Data   RW          474    .data               syd8821_ble_slave.lib(rom.o)
    0x20000112   0x10009e2e   0x00000002   PAD
    0x20000114   0x10009e30   0x00000004   Data   RW          509    .data               syd8821_ble_slave.lib(pmu.o)
    0x20000118        -       0x00000420   Zero   RW          183    .bss                uart.o
    0x20000538        -       0x00000080   Zero   RW          219    .bss                debug.o
    0x200005b8        -       0x00000014   Zero   RW          282    .bss                timer.o
    0x200005cc        -       0x00000028   Zero   RW          308    .bss                otav30.o
    0x200005f4        -       0x000010d9   Zero   RW          417    .bss                syd8821_ble_slave.lib(main.o)
    0x200016cd   0x10009e34   0x00000003   PAD
    0x200016d0        -       0x0000041f   Zero   RW          472    .bss                syd8821_ble_slave.lib(rom.o)
    0x20001aef        -       0x00000010   Zero   RW          561    .bss                syd8821_ble_slave.lib(aec-ccm.o)
    0x20001aff   0x10009e34   0x00000001   PAD
    0x20001b00        -       0x00000060   Zero   RW          820    .bss                c_p.l(libspace.o)
    0x20001b60        -       0x00004000   Zero   RW          382    HEAP                startup_armcm0.o
    0x20005b60        -       0x00001000   Zero   RW          381    STACK               startup_armcm0.o


==============================================================================

Image component sizes


      Code (inc. data)   RO Data    RW Data    ZI Data      Debug   Object Name

       572         38          0          8        128      11417   debug.o
        56          0          0          0          0      35268   delay.o
       872         16          0         12          0      47021   gpio.o
      3052        722        654         59          0      64190   main.o
      1364        326          0         28         40       5445   otav30.o
       144          4          0          8          0       1837   pad_mux_ctrl.o
       226          0          0          0          0       2391   queue.o
        56         26        192          0      20480        724   startup_armcm0.o
        24          8          0          4          0        877   system_armcm0.o
       452         10          0         20         20       3080   timer.o
       640         24          0          8       1056      11791   uart.o

    ----------------------------------------------------------------------
      7460       1174        880        148      21724     184041   Object Totals
         0          0         32          0          0          0   (incl. Generated)
         2          0          2          1          0          0   (incl. Padding)

    ----------------------------------------------------------------------

      Code (inc. data)   RO Data    RW Data    ZI Data      Debug   Library Member Name

         8          0          0          0          0         68   __main.o
       392          6         17          0          0         76   __printf_flags_ss_wp.o
        14          0          0          0          0         60   __printf_wp.o
         0          0          0          0          0          0   __rtentry.o
        12          0          0          0          0          0   __rtentry2.o
         6          0          0          0          0          0   __rtentry4.o
        60          8          0          0          0          0   __scatter.o
        26          0          0          0          0          0   __scatter_copy.o
        28          0          0          0          0          0   __scatter_zi.o
        10          0          0          0          0          0   _printf_a.o
        10          0          0          0          0          0   _printf_c.o
        46          0          0          0          0        100   _printf_char.o
        48          6          0          0          0         88   _printf_char_common.o
        38          0          0          0          0         60   _printf_charcount.o
        10          0          0          0          0          0   _printf_d.o
       108         18          0          0          0         76   _printf_dec.o
        10          0          0          0          0          0   _printf_e.o
        10          0          0          0          0          0   _printf_f.o
      1048         14          0          0          0        176   _printf_fp_dec.o
       136         16          0          0          0         76   _printf_fp_infnan.o
        10          0          0          0          0          0   _printf_g.o
       152          4         40          0          0        148   _printf_hex_int_ll_ptr.o
        10          0          0          0          0          0   _printf_i.o
       176          0          0          0          0         84   _printf_intcommon.o
        10          0          0          0          0          0   _printf_l.o
        10          0          0          0          0          0   _printf_lc.o
        10          0          0          0          0          0   _printf_ll.o
        10          0          0          0          0          0   _printf_lld.o
        10          0          0          0          0          0   _printf_lli.o
        10          0          0          0          0          0   _printf_llo.o
        10          0          0          0          0          0   _printf_llu.o
        10          0          0          0          0          0   _printf_llx.o
       112         18          0          0          0         76   _printf_longlong_dec.o
        10          0          0          0          0          0   _printf_ls.o
        10          0          0          0          0          0   _printf_n.o
        10          0          0          0          0          0   _printf_o.o
       112         10          0          0          0        112   _printf_oct_int_ll.o
        10          0          0          0          0          0   _printf_p.o
        78          0          0          0          0        100   _printf_pad.o
         2          0          0          0          0          0   _printf_percent.o
         4          0          0          0          0          0   _printf_percent_end.o
        10          0          0          0          0          0   _printf_s.o
        82          0          0          0          0         72   _printf_str.o
        36          0          0          0          0         76   _printf_truncate.o
        10          0          0          0          0          0   _printf_u.o
        46          0          0          0          0        100   _printf_wchar.o
       188          6          8          0          0         80   _printf_wctomb.o
        10          0          0          0          0          0   _printf_x.o
        10          0          0          0          0         60   _sputc.o
        64          0          0          0          0         72   _wcrtomb.o
       346          0          0          0          0         92   aeabi_sdiv.o
       216          6        148          0          0         80   bigflt0.o
      1456         30          0          0          0        336   btod.o
        36          4          0          0          0         68   c89vsprintf.o
        16          0          0          0          0         68   exit.o
         6          0          0          0          0        136   heapauxi.o
         0          0          0          0          0          0   indicate_semi.o
        44         10        272          0          0         76   lc_ctype_c.o
        44         10         28          0          0         76   lc_numeric_c.o
         2          0          0          0          0          0   libinit.o
        30          0          0          0          0          0   libinit2.o
         2          0          0          0          0          0   libshutdown.o
         2          0          0          0          0          0   libshutdown2.o
         8          4          0          0         96         68   libspace.o
       122          0          0          0          0         72   lludiv10.o
        90          0          0          0          0         68   memcmp.o
        16          4          0          0          0         76   rt_ctype_table.o
         8          4          0          0          0         68   rt_locale_intlibspace.o
        64          0          0          0          0        108   rt_memclr.o
       186          0          0          0          0        144   rt_memcpy.o
         2          0          0          0          0          0   rtexit.o
        10          0          0          0          0          0   rtexit2.o
        40          0          0          0          0         60   rtudiv10.o
       136          4          0          0          0         72   strcmp.o
        12          4          0          0          0         60   sys_exit.o
        62          0          0          0          0         80   sys_stackheap_outer.o
        34          0          0          0          0         60   uread4.o
         2          0          0          0          0         68   use_no_semi.o
        16          0          0          0          0         60   uwrite4.o
       856         20          0          0          0        208   daddsub.o
      1096         26        128          0          0        112   ddiv.o
        72          4          0          0          0         68   dfixui.o
        88          0          0          0          0         92   dflti.o
       584         26          0          0          0         84   dmul.o
        84          4          0          0          0         60   f2d.o
       348          8          0          0          0        160   faddsub.o
        94          0          0          0          0         92   fflti.o
        16          4          0          0          0         76   printf1.o
         0          0          0          0          0          0   usenofp.o
        44          4          0          0          0         60   fpclassify.o
      1408          4          0          0         16       8251   aec-ccm.o
      2292         12        523          0          0       3578   aes.o
      6306        378       1024         20       4313     121425   main.o
       512         44         32          4          0      10637   pmu.o
      9470        454        104        106       1055      25142   rom.o

    ----------------------------------------------------------------------
     29552       1174       2328        132       5484     173801   Library Totals
        22          0          4          2          4          0   (incl. Padding)

    ----------------------------------------------------------------------

      Code (inc. data)   RO Data    RW Data    ZI Data      Debug   Library Name

      6260        186        513          0         96       3756   c_p.l
      3238         92        128          0          0        952   fz_ps.l
        44          4          0          0          0         60   m_ps.l
     19988        892       1683        130       5384     169033   syd8821_ble_slave.lib

    ----------------------------------------------------------------------
     29552       1174       2328        132       5484     173801   Library Totals

    ----------------------------------------------------------------------

==============================================================================


      Code (inc. data)   RO Data    RW Data    ZI Data      Debug   

     37012       2348       3208        280      27208     354370   Grand Totals
     37012       2348       3208        280      27208     354370   ELF Image Totals
     37012       2348       3208        280          0          0   ROM Totals

==============================================================================

    Total RO  Size (Code + RO Data)                40220 (  39.28kB)
    Total RW  Size (RW Data + ZI Data)             27488 (  26.84kB)
    Total ROM Size (Code + RO Data + RW Data)      40500 (  39.55kB)

==============================================================================

