Component: ARM Compiler 5.06 update 6 (build 750) Tool: armlink [4d35ed]

==============================================================================

Section Cross References

    main_slave.o(.text) refers to pad_mux_ctrl.o(.text) for pad_mux_write
    main_slave.o(.text) refers to gpio.o(.text) for gpo_config
    main_slave.o(.text) refers to uart.o(.text) for uart_0_init
    main_slave.o(.text) refers to main.o(.text) for gap_s_ble_init
    main_slave.o(.text) refers to spi.o(.text) for spis_enable
    main_slave.o(.text) refers to debug.o(.text) for dbg_printf
    main_slave.o(.text) refers to main_slave.o(.data) for slave_done
    main_slave.o(.text) refers to main_slave.o(.bss) for srx
    gpio.o(.text) refers to gpio.o(.data) for gpio_callback
    pad_mux_ctrl.o(.text) refers to pad_mux_ctrl.o(.data) for pad
    uart.o(.text) refers to queue.o(.text) for queue_init
    uart.o(.text) refers to uart.o(.data) for UART_CTRL
    uart.o(.text) refers to uart.o(.bss) for rx_buf
    debug.o(.text) refers to printfa.o(i.__0vsprintf) for __c89vsprintf
    debug.o(.text) refers to debug.o(.data) for UART_CTRL
    debug.o(.text) refers to debug.o(.bss) for s_formatBuffer
    queue.o(.text) refers to memcpya.o(.text) for __aeabi_memcpy
    spi.o(.text) refers to debug.o(.text) for dbg_printf_sel
==============================================================================

Removing Unused input sections from the image.

    Removing main_slave.o(.rev16_text), (4 bytes).
    Removing main_slave.o(.revsh_text), (4 bytes).
    Removing gpio.o(.rev16_text), (4 bytes).
    Removing gpio.o(.revsh_text), (4 bytes).
    Removing delay.o(.rev16_text), (4 bytes).
    Removing delay.o(.revsh_text), (4 bytes).
    Removing delay.o(.text), (56 bytes).
    Removing pad_mux_ctrl.o(.rev16_text), (4 bytes).
    Removing pad_mux_ctrl.o(.revsh_text), (4 bytes).
    Removing uart.o(.rev16_text), (4 bytes).
    Removing uart.o(.revsh_text), (4 bytes).
    Removing debug.o(.rev16_text), (4 bytes).
    Removing debug.o(.revsh_text), (4 bytes).
    Removing queue.o(.rev16_text), (4 bytes).
    Removing queue.o(.revsh_text), (4 bytes).
    Removing spi.o(.rev16_text), (4 bytes).
    Removing spi.o(.revsh_text), (4 bytes).
    Removing startup_armcm0.o(HEAP), (16384 bytes).
==============================================================================

Image Symbol Table

    Local Symbols

    Symbol Name                              Value     Ov Type        Size  Object(Section)

    ../clib/microlib/division.c              0x00000000   Number         0  uldiv.o ABSOLUTE
    ../clib/microlib/division.c              0x00000000   Number         0  uidiv.o ABSOLUTE
    ../clib/microlib/division.c              0x00000000   Number         0  idiv.o ABSOLUTE
    ../clib/microlib/init/entry.s            0x00000000   Number         0  entry9a.o ABSOLUTE
    ../clib/microlib/init/entry.s            0x00000000   Number         0  entry10a.o ABSOLUTE
    ../clib/microlib/init/entry.s            0x00000000   Number         0  entry7b.o ABSOLUTE
    ../clib/microlib/init/entry.s            0x00000000   Number         0  entry2.o ABSOLUTE
    ../clib/microlib/init/entry.s            0x00000000   Number         0  entry8a.o ABSOLUTE
    ../clib/microlib/init/entry.s            0x00000000   Number         0  entry5.o ABSOLUTE
    ../clib/microlib/init/entry.s            0x00000000   Number         0  entry9b.o ABSOLUTE
    ../clib/microlib/init/entry.s            0x00000000   Number         0  entry8b.o ABSOLUTE
    ../clib/microlib/init/entry.s            0x00000000   Number         0  entry.o ABSOLUTE
    ../clib/microlib/init/entry.s            0x00000000   Number         0  entry11a.o ABSOLUTE
    ../clib/microlib/init/entry.s            0x00000000   Number         0  entry7a.o ABSOLUTE
    ../clib/microlib/init/entry.s            0x00000000   Number         0  entry10b.o ABSOLUTE
    ../clib/microlib/init/entry.s            0x00000000   Number         0  entry11b.o ABSOLUTE
    ../clib/microlib/longlong.c              0x00000000   Number         0  llshl.o ABSOLUTE
    ../clib/microlib/longlong.c              0x00000000   Number         0  llsshr.o ABSOLUTE
    ../clib/microlib/longlong.c              0x00000000   Number         0  llushr.o ABSOLUTE
    ../clib/microlib/printf/printf.c         0x00000000   Number         0  printfa.o ABSOLUTE
    ../clib/microlib/stdio/fputc.c           0x00000000   Number         0  fputc.o ABSOLUTE
    ../clib/microlib/stdio/semi.s            0x00000000   Number         0  semi.o ABSOLUTE
    ../clib/microlib/stdio/streams.c         0x00000000   Number         0  stdout.o ABSOLUTE
    ../clib/microlib/string/memcmp.c         0x00000000   Number         0  memcmp.o ABSOLUTE
    ../clib/microlib/string/memcpy.c         0x00000000   Number         0  memcpya.o ABSOLUTE
    ../clib/microlib/string/memcpy.c         0x00000000   Number         0  memcpyb.o ABSOLUTE
    ../clib/microlib/string/memset.c         0x00000000   Number         0  memseta.o ABSOLUTE
    ../clib/microlib/stubs.s                 0x00000000   Number         0  iusefp.o ABSOLUTE
    ../clib/microlib/stubs.s                 0x00000000   Number         0  iusesemip.o ABSOLUTE
    ../clib/microlib/unhosted.c              0x00000000   Number         0  uread4.o ABSOLUTE
    ../clib/microlib/unhosted.c              0x00000000   Number         0  uwrite4.o ABSOLUTE
    ../fplib/microlib/f2d.c                  0x00000000   Number         0  f2d.o ABSOLUTE
    ../fplib/microlib/fpadd.c                0x00000000   Number         0  fadd.o ABSOLUTE
    ../fplib/microlib/fpadd.c                0x00000000   Number         0  dadd.o ABSOLUTE
    ../fplib/microlib/fpdiv.c                0x00000000   Number         0  ddiv.o ABSOLUTE
    ../fplib/microlib/fpepilogue.c           0x00000000   Number         0  depilogue.o ABSOLUTE
    ../fplib/microlib/fpepilogue.c           0x00000000   Number         0  fepilogue.o ABSOLUTE
    ../fplib/microlib/fpfix.c                0x00000000   Number         0  dfixui.o ABSOLUTE
    ../fplib/microlib/fpfix.c                0x00000000   Number         0  dfixul.o ABSOLUTE
    ../fplib/microlib/fpflt.c                0x00000000   Number         0  dflti.o ABSOLUTE
    ../fplib/microlib/fpflt.c                0x00000000   Number         0  ffltui.o ABSOLUTE
    ../fplib/microlib/fpflt.c                0x00000000   Number         0  dfltui.o ABSOLUTE
    ../fplib/microlib/fpmul.c                0x00000000   Number         0  dmul.o ABSOLUTE
    ..\..\..\Source\debug.c                  0x00000000   Number         0  debug.o ABSOLUTE
    ..\..\..\Source\delay.c                  0x00000000   Number         0  delay.o ABSOLUTE
    ..\..\..\Source\gpio.c                   0x00000000   Number         0  gpio.o ABSOLUTE
    ..\..\..\Source\pad_mux_ctrl.c           0x00000000   Number         0  pad_mux_ctrl.o ABSOLUTE
    ..\..\..\Source\queue.c                  0x00000000   Number         0  queue.o ABSOLUTE
    ..\..\..\Source\spi.c                    0x00000000   Number         0  spi.o ABSOLUTE
    ..\..\..\Source\uart.c                   0x00000000   Number         0  uart.o ABSOLUTE
    ..\\..\\..\\Source\\debug.c              0x00000000   Number         0  debug.o ABSOLUTE
    ..\\..\\..\\Source\\delay.c              0x00000000   Number         0  delay.o ABSOLUTE
    ..\\..\\..\\Source\\gpio.c               0x00000000   Number         0  gpio.o ABSOLUTE
    ..\\..\\..\\Source\\pad_mux_ctrl.c       0x00000000   Number         0  pad_mux_ctrl.o ABSOLUTE
    ..\\..\\..\\Source\\queue.c              0x00000000   Number         0  queue.o ABSOLUTE
    ..\\..\\..\\Source\\spi.c                0x00000000   Number         0  spi.o ABSOLUTE
    ..\\..\\..\\Source\\uart.c               0x00000000   Number         0  uart.o ABSOLUTE
    ..\\main_slave.c                         0x00000000   Number         0  main_slave.o ABSOLUTE
    ..\main_slave.c                          0x00000000   Number         0  main_slave.o ABSOLUTE
    Driver\\aec-ccm.c                        0x00000000   Number         0  aec-ccm.o ABSOLUTE
    Driver\aec-ccm.c                         0x00000000   Number         0  aec-ccm.o ABSOLUTE
    Driver\aes.c                             0x00000000   Number         0  aes.o ABSOLUTE
    Main\\main.c                             0x00000000   Number         0  main.o ABSOLUTE
    Main\\pmu.c                              0x00000000   Number         0  pmu.o ABSOLUTE
    Main\\rom.c                              0x00000000   Number         0  rom.o ABSOLUTE
    Main\main.c                              0x00000000   Number         0  main.o ABSOLUTE
    Main\pmu.c                               0x00000000   Number         0  pmu.o ABSOLUTE
    Main\rom.c                               0x00000000   Number         0  rom.o ABSOLUTE
    RTE\Device\ARMCM0\startup_ARMCM0.s       0x00000000   Number         0  startup_armcm0.o ABSOLUTE
    RTE\Device\ARMCM0\system_ARMCM0.c        0x00000000   Number         0  system_armcm0.o ABSOLUTE
    RTE\\Device\\ARMCM0\\system_ARMCM0.c     0x00000000   Number         0  system_armcm0.o ABSOLUTE
    cdrcmple.s                               0x00000000   Number         0  cdrcmple.o ABSOLUTE
    dc.s                                     0x00000000   Number         0  dc.o ABSOLUTE
    handlers.s                               0x00000000   Number         0  handlers.o ABSOLUTE
    init.s                                   0x00000000   Number         0  init.o ABSOLUTE
    RESET                                    0x10000000   Section      192  startup_armcm0.o(RESET)
    .ARM.Collect$$$$00000000                 0x100000c0   Section        0  entry.o(.ARM.Collect$$$$00000000)
    .ARM.Collect$$$$00000001                 0x100000c0   Section        4  entry2.o(.ARM.Collect$$$$00000001)
    .ARM.Collect$$$$00000004                 0x100000c4   Section        4  entry5.o(.ARM.Collect$$$$00000004)
    .ARM.Collect$$$$00000008                 0x100000c8   Section        0  entry7b.o(.ARM.Collect$$$$00000008)
    .ARM.Collect$$$$0000000A                 0x100000c8   Section        0  entry8b.o(.ARM.Collect$$$$0000000A)
    .ARM.Collect$$$$0000000B                 0x100000c8   Section        8  entry9a.o(.ARM.Collect$$$$0000000B)
    .ARM.Collect$$$$0000000D                 0x100000d0   Section        0  entry10a.o(.ARM.Collect$$$$0000000D)
    .ARM.Collect$$$$0000000F                 0x100000d0   Section        0  entry11a.o(.ARM.Collect$$$$0000000F)
    .ARM.Collect$$$$00002712                 0x100000d0   Section        4  entry2.o(.ARM.Collect$$$$00002712)
    __lit__00000000                          0x100000d0   Data           4  entry2.o(.ARM.Collect$$$$00002712)
    .emb_text                                0x100000d4   Section        6  rom.o(.emb_text)
    .text                                    0x100000dc   Section        0  main_slave.o(.text)
    spi_test_slave_irq                       0x1000017d   Thumb Code    56  main_slave.o(.text)
    .text                                    0x100002d4   Section        0  gpio.o(.text)
    .text                                    0x1000063c   Section        0  pad_mux_ctrl.o(.text)
    .text                                    0x100006cc   Section        0  uart.o(.text)
    __NVIC_DisableIRQ                        0x100006cd   Thumb Code    50  uart.o(.text)
    __NVIC_EnableIRQ                         0x10000919   Thumb Code    28  uart.o(.text)
    .text                                    0x1000094c   Section        0  debug.o(.text)
    debug_uart_0_init                        0x1000094d   Thumb Code   212  debug.o(.text)
    debug_uart_write                         0x10000a21   Thumb Code    80  debug.o(.text)
    .text                                    0x10000b88   Section        0  queue.o(.text)
    .text                                    0x10000c6c   Section        0  spi.o(.text)
    __NVIC_DisableIRQ                        0x10000c6d   Thumb Code    50  spi.o(.text)
    __NVIC_EnableIRQ                         0x10000f47   Thumb Code    28  spi.o(.text)
    .text                                    0x10000f94   Section       28  startup_armcm0.o(.text)
    .text                                    0x10000fb0   Section        0  system_armcm0.o(.text)
    .text                                    0x10000fc8   Section        0  main.o(.text)
    update_profile_data                      0x10001735   Thumb Code    84  main.o(.text)
    .text                                    0x10002730   Section        0  rom.o(.text)
    AttReadByGroupTypeRsp                    0x10002ed3   Thumb Code   326  rom.o(.text)
    AttReadByTypeServiceRsp                  0x10003019   Thumb Code   234  rom.o(.text)
    AttReadByTypeChartRsp                    0x10003103   Thumb Code   286  rom.o(.text)
    AttReadByTypeValRsp                      0x10003221   Thumb Code   462  rom.o(.text)
    AttReadByTypeReq                         0x100033ef   Thumb Code   122  rom.o(.text)
    FW_Encrypt_Packet                        0x10003469   Thumb Code   314  rom.o(.text)
    Get_OVER_SLPTH                           0x100035a3   Thumb Code    42  rom.o(.text)
    LLENCReq                                 0x100038e7   Thumb Code   526  rom.o(.text)
    LLTxStartENCRsp                          0x10003af5   Thumb Code   500  rom.o(.text)
    _LCRxPkt_Handler                         0x1000438d   Thumb Code   560  rom.o(.text)
    _BBRXFIFO_Coex_Read                      0x10004a6b   Thumb Code    92  rom.o(.text)
    _LCConnEvt_Handler                       0x10004ac7   Thumb Code    68  rom.o(.text)
    LinkWakeup                               0x10004b0b   Thumb Code   100  rom.o(.text)
    .text                                    0x10004b8c   Section        0  pmu.o(.text)
    .text                                    0x10004d38   Section        0  aec-ccm.o(.text)
    ctr_next_ctr_block                       0x10004d39   Thumb Code    66  aec-ccm.o(.text)
    cbcmac_calc                              0x10004d7b   Thumb Code   318  aec-ccm.o(.text)
    cbcmac_verify                            0x10004eb9   Thumb Code   344  aec-ccm.o(.text)
    ctr_payload                              0x10005011   Thumb Code   112  aec-ccm.o(.text)
    ctr_mic                                  0x10005081   Thumb Code    86  aec-ccm.o(.text)
    cbcmac_clear                             0x1000527f   Thumb Code    12  aec-ccm.o(.text)
    cbcmac_append                            0x1000528b   Thumb Code    42  aec-ccm.o(.text)
    .text                                    0x100052b8   Section        0  aes.o(.text)
    expandKey                                0x100052b9   Thumb Code   186  aes.o(.text)
    aes_encr                                 0x10005373   Thumb Code   912  aes.o(.text)
    aes_decr                                 0x10005703   Thumb Code  1124  aes.o(.text)
    galois_mul2                              0x10005b99   Thumb Code    20  aes.o(.text)
    .text                                    0x10005bac   Section        0  uidiv.o(.text)
    .text                                    0x10005bd8   Section        0  idiv.o(.text)
    .text                                    0x10005c00   Section        0  memcpya.o(.text)
    .text                                    0x10005c24   Section        0  memseta.o(.text)
    .text                                    0x10005c48   Section        0  memcmp.o(.text)
    .text                                    0x10005c62   Section        0  uread4.o(.text)
    .text                                    0x10005c76   Section        0  uwrite4.o(.text)
    .text                                    0x10005c88   Section        0  fadd.o(.text)
    .text                                    0x10005d3c   Section        0  dadd.o(.text)
    .text                                    0x10005ea0   Section        0  dmul.o(.text)
    .text                                    0x10005f70   Section        0  ddiv.o(.text)
    .text                                    0x10006060   Section        0  ffltui.o(.text)
    .text                                    0x10006070   Section        0  dflti.o(.text)
    .text                                    0x10006098   Section        0  dfltui.o(.text)
    .text                                    0x100060b4   Section        0  dfixui.o(.text)
    .text                                    0x100060f0   Section        0  f2d.o(.text)
    .text                                    0x10006118   Section        0  uldiv.o(.text)
    .text                                    0x10006178   Section        0  llshl.o(.text)
    .text                                    0x10006198   Section        0  llushr.o(.text)
    .text                                    0x100061ba   Section        0  llsshr.o(.text)
    .text                                    0x100061e0   Section        0  fepilogue.o(.text)
    .text                                    0x100061e0   Section        0  iusefp.o(.text)
    .text                                    0x10006262   Section        0  depilogue.o(.text)
    .text                                    0x10006320   Section        0  dfixul.o(.text)
    .text                                    0x10006360   Section       40  cdrcmple.o(.text)
    .text                                    0x10006388   Section       36  init.o(.text)
    PMU                                      0x100063ac   Section        0  pmu.o(PMU)
    i.__0vsprintf                            0x100063f8   Section        0  printfa.o(i.__0vsprintf)
    i.__ARM_clz                              0x1000641c   Section        0  depilogue.o(i.__ARM_clz)
    i.__ARM_common_switch8                   0x1000644a   Section        0  main.o(i.__ARM_common_switch8)
    i.__scatterload_copy                     0x10006464   Section       14  handlers.o(i.__scatterload_copy)
    i.__scatterload_null                     0x10006472   Section        2  handlers.o(i.__scatterload_null)
    i.__scatterload_zeroinit                 0x10006474   Section       14  handlers.o(i.__scatterload_zeroinit)
    i._fp_digits                             0x10006484   Section        0  printfa.o(i._fp_digits)
    _fp_digits                               0x10006485   Thumb Code   344  printfa.o(i._fp_digits)
    i._printf_core                           0x100065f8   Section        0  printfa.o(i._printf_core)
    _printf_core                             0x100065f9   Thumb Code  1754  printfa.o(i._printf_core)
    i._printf_post_padding                   0x10006ce4   Section        0  printfa.o(i._printf_post_padding)
    _printf_post_padding                     0x10006ce5   Thumb Code    32  printfa.o(i._printf_post_padding)
    i._printf_pre_padding                    0x10006d04   Section        0  printfa.o(i._printf_pre_padding)
    _printf_pre_padding                      0x10006d05   Thumb Code    44  printfa.o(i._printf_pre_padding)
    i._sputc                                 0x10006d30   Section        0  printfa.o(i._sputc)
    _sputc                                   0x10006d31   Thumb Code    10  printfa.o(i._sputc)
    .constdata                               0x10006d3a   Section       50  rom.o(.constdata)
    _smp_key_                                0x10006d3a   Data          25  rom.o(.constdata)
    _smp_sc_key_                             0x10006d53   Data          25  rom.o(.constdata)
    .constdata                               0x10006d6c   Section       32  pmu.o(.constdata)
    delay_table                              0x10006d6c   Data          32  pmu.o(.constdata)
    .constdata                               0x10006d8c   Section      523  aes.o(.constdata)
    sbox                                     0x10006d8c   Data         256  aes.o(.constdata)
    rsbox                                    0x10006e8c   Data         256  aes.o(.constdata)
    Rcon                                     0x10006f8c   Data          11  aes.o(.constdata)
    .data                                    0x20000000   Section       40  main_slave.o(.data)
    slave_done                               0x20000020   Data           1  main_slave.o(.data)
    slave_ow                                 0x20000021   Data           1  main_slave.o(.data)
    slave_or                                 0x20000022   Data           1  main_slave.o(.data)
    slave_data_length                        0x20000024   Data           4  main_slave.o(.data)
    .data                                    0x20000028   Section       12  gpio.o(.data)
    GPIO_CTRL                                0x20000028   Data           8  gpio.o(.data)
    gpio_callback                            0x20000030   Data           4  gpio.o(.data)
    .data                                    0x20000034   Section        8  pad_mux_ctrl.o(.data)
    pad                                      0x20000034   Data           8  pad_mux_ctrl.o(.data)
    .data                                    0x2000003c   Section        8  uart.o(.data)
    .data                                    0x20000044   Section        8  debug.o(.data)
    UART_CTRL                                0x20000044   Data           8  debug.o(.data)
    .data                                    0x2000004c   Section        8  spi.o(.data)
    spi_irq_cb                               0x2000004c   Data           8  spi.o(.data)
    .data                                    0x20000054   Section        4  system_armcm0.o(.data)
    .data                                    0x20000058   Section       20  main.o(.data)
    syd_confirm                              0x20000058   Data           1  main.o(.data)
    sched_execute_mask                       0x20000059   Data           1  main.o(.data)
    profile_to_flash                         0x2000005a   Data           1  main.o(.data)
    profile_update_offset                    0x2000005c   Data           2  main.o(.data)
    PMU_CTRL                                 0x20000060   Data           4  main.o(.data)
    p_sched_callback                         0x20000064   Data           4  main.o(.data)
    .data                                    0x2000006c   Section      111  rom.o(.data)
    NumericYesOrNo                           0x2000006c   Data           1  rom.o(.data)
    MCUFreq                                  0x2000006d   Data           1  rom.o(.data)
    coex_evt_mask_sleep                      0x20000071   Data           1  rom.o(.data)
    passkey_cnt                              0x20000088   Data           4  rom.o(.data)
    passkey_value                            0x2000008c   Data           4  rom.o(.data)
    save_device_to_flash                     0x20000090   Data           4  rom.o(.data)
    ReadRsp                                  0x20000094   Data           4  rom.o(.data)
    ReadRspLen                               0x20000098   Data           4  rom.o(.data)
    ReadRspData                              0x2000009c   Data           4  rom.o(.data)
    IRQCallbackHook                          0x200000a0   Data           4  rom.o(.data)
    IRQCallbackSkip                          0x200000a4   Data           4  rom.o(.data)
    HCIDTM                                   0x200000a8   Data           4  rom.o(.data)
    ACLTx                                    0x200000ac   Data           4  rom.o(.data)
    ble_data                                 0x200000bc   Data           4  rom.o(.data)
    .data                                    0x200000dc   Section        4  pmu.o(.data)
    lclink                                   0x200000dc   Data           4  pmu.o(.data)
    .bss                                     0x200000e0   Section       32  main_slave.o(.bss)
    .bss                                     0x20000100   Section     1056  uart.o(.bss)
    .bss                                     0x20000520   Section      128  debug.o(.bss)
    s_formatBuffer                           0x20000520   Data         128  debug.o(.bss)
    .bss                                     0x200005a0   Section     4173  main.o(.bss)
    confirmation_list                        0x200015a0   Data          62  main.o(.bss)
    .bss                                     0x200015f0   Section     1055  rom.o(.bss)
    .bss                                     0x20001a0f   Section       16  aec-ccm.o(.bss)
    cbcmac_xor                               0x20001a0f   Data          16  aec-ccm.o(.bss)
    STACK                                    0x20001a20   Section     4096  startup_armcm0.o(STACK)

    Global Symbols

    Symbol Name                              Value     Ov Type        Size  Object(Section)

    BuildAttributes$$THM_ISAv3M$S$PE$A:L22$X:L11$S22$IEEE1$IW$USESV6$~STKCKD$USESV7$~SHL$OTIME$ROPI$EBA8$MICROLIB$REQ8$EABIv2 0x00000000   Number         0  anon$$obj.o ABSOLUTE
    __ARM_use_no_argv                        0x00000000   Number         0  main_slave.o ABSOLUTE
    __cpp_initialize__aeabi_                  - Undefined Weak Reference
    __cxa_finalize                            - Undefined Weak Reference
    __decompress                              - Undefined Weak Reference
    _clock_init                               - Undefined Weak Reference
    _microlib_exit                            - Undefined Weak Reference
    __Vectors_Size                           0x000000c0   Number         0  startup_armcm0.o ABSOLUTE
    __Vectors                                0x10000000   Data           4  startup_armcm0.o(RESET)
    __Vectors_End                            0x100000c0   Data           0  startup_armcm0.o(RESET)
    __main                                   0x100000c1   Thumb Code     0  entry.o(.ARM.Collect$$$$00000000)
    _main_stk                                0x100000c1   Thumb Code     0  entry2.o(.ARM.Collect$$$$00000001)
    _main_scatterload                        0x100000c5   Thumb Code     0  entry5.o(.ARM.Collect$$$$00000004)
    __main_after_scatterload                 0x100000c9   Thumb Code     0  entry5.o(.ARM.Collect$$$$00000004)
    _main_clock                              0x100000c9   Thumb Code     0  entry7b.o(.ARM.Collect$$$$00000008)
    _main_cpp_init                           0x100000c9   Thumb Code     0  entry8b.o(.ARM.Collect$$$$0000000A)
    _main_init                               0x100000c9   Thumb Code     0  entry9a.o(.ARM.Collect$$$$0000000B)
    __rt_final_cpp                           0x100000d1   Thumb Code     0  entry10a.o(.ARM.Collect$$$$0000000D)
    __rt_final_exit                          0x100000d1   Thumb Code     0  entry11a.o(.ARM.Collect$$$$0000000F)
    B01_correct_TXPacket_length              0x100000d5   Thumb Code     6  rom.o(.emb_text)
    LED_KEY_Module_Init                      0x100000dd   Thumb Code   132  main_slave.o(.text)
    UART_Module_Init                         0x10000161   Thumb Code    28  main_slave.o(.text)
    main                                     0x100001b5   Thumb Code   194  main_slave.o(.text)
    gpi_irq_set_cb                           0x100002d5   Thumb Code     6  gpio.o(.text)
    gpi_config                               0x100002db   Thumb Code   114  gpio.o(.text)
    pad_input_configure                      0x1000034d   Thumb Code    94  gpio.o(.text)
    gpo_config                               0x100003ab   Thumb Code    90  gpio.o(.text)
    gpo_toggle                               0x10000405   Thumb Code    42  gpio.o(.text)
    gpo_set                                  0x1000042f   Thumb Code    42  gpio.o(.text)
    gpo_clr                                  0x10000459   Thumb Code    42  gpio.o(.text)
    gpi_get_val                              0x10000483   Thumb Code    70  gpio.o(.text)
    gpi_enable_int                           0x100004c9   Thumb Code   178  gpio.o(.text)
    gpi_disable_int                          0x1000057b   Thumb Code    44  gpio.o(.text)
    GPIO_IRQHandler                          0x100005a7   Thumb Code   134  gpio.o(.text)
    pad_mux_read                             0x1000063d   Thumb Code    62  pad_mux_ctrl.o(.text)
    pad_mux_write                            0x1000067b   Thumb Code    78  pad_mux_ctrl.o(.text)
    uart_0_init                              0x100006ff   Thumb Code   134  uart.o(.text)
    UART0_IRQHandler                         0x10000785   Thumb Code    58  uart.o(.text)
    uart_1_init                              0x100007bf   Thumb Code   112  uart.o(.text)
    UART1_IRQHandler                         0x1000082f   Thumb Code    60  uart.o(.text)
    uart_write                               0x1000086b   Thumb Code    80  uart.o(.text)
    uart_read                                0x100008bb   Thumb Code    20  uart.o(.text)
    uart_queue_size                          0x100008cf   Thumb Code    56  uart.o(.text)
    uart_get_ctrl                            0x10000907   Thumb Code    18  uart.o(.text)
    dbg_init                                 0x10000a71   Thumb Code    12  debug.o(.text)
    dbg_printf                               0x10000a7d   Thumb Code    60  debug.o(.text)
    dbg_printf_sel                           0x10000ab9   Thumb Code    62  debug.o(.text)
    dbg_hexdump                              0x10000af7   Thumb Code   108  debug.o(.text)
    queue_init                               0x10000b89   Thumb Code    12  queue.o(.text)
    queue_reset                              0x10000b95   Thumb Code     6  queue.o(.text)
    enqueue_all                              0x10000b9b   Thumb Code    96  queue.o(.text)
    enqueue                                  0x10000bfb   Thumb Code    28  queue.o(.text)
    dequeue                                  0x10000c17   Thumb Code    42  queue.o(.text)
    is_queue_empty                           0x10000c41   Thumb Code    18  queue.o(.text)
    queue_size                               0x10000c53   Thumb Code    24  queue.o(.text)
    spi_set_speed                            0x10000c9f   Thumb Code    28  spi.o(.text)
    spi_set_mode                             0x10000cbb   Thumb Code    46  spi.o(.text)
    spi_set_irq_callback                     0x10000ce9   Thumb Code    16  spi.o(.text)
    SPIM_IRQHandler                          0x10000cf9   Thumb Code    36  spi.o(.text)
    spim_enable                              0x10000d1d   Thumb Code    24  spi.o(.text)
    spim_enable_int                          0x10000d35   Thumb Code    50  spi.o(.text)
    spim_resync                              0x10000d67   Thumb Code    16  spi.o(.text)
    spim_exchange                            0x10000d77   Thumb Code   192  spi.o(.text)
    SPI_Read_Write_A_Byte                    0x10000e37   Thumb Code    26  spi.o(.text)
    SPIS_IRQHandler                          0x10000e51   Thumb Code    32  spi.o(.text)
    spis_enable                              0x10000e71   Thumb Code    20  spi.o(.text)
    spis_enable_int                          0x10000e85   Thumb Code    46  spi.o(.text)
    spis_prepare_exchange                    0x10000eb3   Thumb Code   148  spi.o(.text)
    Reset_Handler                            0x10000f95   Thumb Code     8  startup_armcm0.o(.text)
    NMI_Handler                              0x10000f9d   Thumb Code     2  startup_armcm0.o(.text)
    HardFault_Handler                        0x10000f9f   Thumb Code     2  startup_armcm0.o(.text)
    SVC_Handler                              0x10000fa1   Thumb Code     2  startup_armcm0.o(.text)
    PendSV_Handler                           0x10000fa3   Thumb Code     2  startup_armcm0.o(.text)
    SysTick_Handler                          0x10000fa5   Thumb Code     2  startup_armcm0.o(.text)
    CAPDET_IRQHandler                        0x10000fa7   Thumb Code     0  startup_armcm0.o(.text)
    GPADC_IRQHandler                         0x10000fa7   Thumb Code     0  startup_armcm0.o(.text)
    I2CM0_IRQHandler                         0x10000fa7   Thumb Code     0  startup_armcm0.o(.text)
    I2CM1_IRQHandler                         0x10000fa7   Thumb Code     0  startup_armcm0.o(.text)
    I2CS_IRQHandler                          0x10000fa7   Thumb Code     0  startup_armcm0.o(.text)
    I2S_IRQHandler                           0x10000fa7   Thumb Code     0  startup_armcm0.o(.text)
    INTCOMB_IRQHandler                       0x10000fa7   Thumb Code     0  startup_armcm0.o(.text)
    IR_IRQHandler                            0x10000fa7   Thumb Code     0  startup_armcm0.o(.text)
    ISO_7816_IRQHandler                      0x10000fa7   Thumb Code     0  startup_armcm0.o(.text)
    LLC2_IRQHandler                          0x10000fa7   Thumb Code     0  startup_armcm0.o(.text)
    LLC3_IRQHandler                          0x10000fa7   Thumb Code     0  startup_armcm0.o(.text)
    M2M_IRQHandler                           0x10000fa7   Thumb Code     0  startup_armcm0.o(.text)
    PDM_IRQHandler                           0x10000fa7   Thumb Code     0  startup_armcm0.o(.text)
    PWM1_IRQHandler                          0x10000fa7   Thumb Code     0  startup_armcm0.o(.text)
    PWM2_IRQHandler                          0x10000fa7   Thumb Code     0  startup_armcm0.o(.text)
    PWM3_IRQHandler                          0x10000fa7   Thumb Code     0  startup_armcm0.o(.text)
    RTC_IRQHandler                           0x10000fa7   Thumb Code     0  startup_armcm0.o(.text)
    SW_IRQHandler                            0x10000fa7   Thumb Code     0  startup_armcm0.o(.text)
    TIMER0_IRQHandler                        0x10000fa7   Thumb Code     0  startup_armcm0.o(.text)
    TIMER1_IRQHandler                        0x10000fa7   Thumb Code     0  startup_armcm0.o(.text)
    TIMER2_IRQHandler                        0x10000fa7   Thumb Code     0  startup_armcm0.o(.text)
    TIMER3_IRQHandler                        0x10000fa7   Thumb Code     0  startup_armcm0.o(.text)
    TIMER4_IRQHandler                        0x10000fa7   Thumb Code     0  startup_armcm0.o(.text)
    TRNG_IRQHandler                          0x10000fa7   Thumb Code     0  startup_armcm0.o(.text)
    UART2_IRQHandler                         0x10000fa7   Thumb Code     0  startup_armcm0.o(.text)
    WDT_IRQHandler                           0x10000fa7   Thumb Code     0  startup_armcm0.o(.text)
    SystemCoreClockUpdate                    0x10000fb1   Thumb Code     8  system_armcm0.o(.text)
    SystemInit                               0x10000fb9   Thumb Code     8  system_armcm0.o(.text)
    sw_timer_update_callback                 0x10000fc9   Thumb Code    20  main.o(.text)
    gap_s_ble_init                           0x10000fdd   Thumb Code    18  main.o(.text)
    gap_s_disconnect                         0x10000fef   Thumb Code     8  main.o(.text)
    gap_s_validate_irk                       0x10000ff7   Thumb Code     6  main.o(.text)
    gap_s_ble_gen_random_private_address     0x10000ffd   Thumb Code     6  main.o(.text)
    gap_s_ble_address_set                    0x10001003   Thumb Code     6  main.o(.text)
    gap_s_ble_address_get                    0x10001009   Thumb Code     4  main.o(.text)
    gap_s_ble_feature_set                    0x1000100d   Thumb Code     6  main.o(.text)
    gap_s_ble_feature_get                    0x10001013   Thumb Code     6  main.o(.text)
    gap_s_ble_slave_feature_set              0x10001019   Thumb Code     6  main.o(.text)
    gap_s_ble_slave_feature_get              0x1000101f   Thumb Code     6  main.o(.text)
    gap_s_adv_access_code_set                0x10001025   Thumb Code     6  main.o(.text)
    gap_s_adv_access_code_get                0x1000102b   Thumb Code     6  main.o(.text)
    gap_s_adv_parameters_set                 0x10001031   Thumb Code     6  main.o(.text)
    gap_s_adv_data_set                       0x10001037   Thumb Code    10  main.o(.text)
    gap_s_adv_start                          0x10001041   Thumb Code     6  main.o(.text)
    gap_s_adv_stop                           0x10001047   Thumb Code     4  main.o(.text)
    gap_s_adv_start_powersaving              0x1000104b   Thumb Code   610  main.o(.text)
    gap_s_adv_stop_powersaving               0x100012ad   Thumb Code    32  main.o(.text)
    gap_s_scan_parameters_set                0x100012cd   Thumb Code     6  main.o(.text)
    gap_s_scan_start                         0x100012d3   Thumb Code     6  main.o(.text)
    gap_s_scan_stop                          0x100012d9   Thumb Code     4  main.o(.text)
    gap_s_coex_adv_data_set                  0x100012dd   Thumb Code    14  main.o(.text)
    gap_s_coex_scan_rsp_data_set             0x100012eb   Thumb Code    12  main.o(.text)
    gap_s_coex_adv_start                     0x100012f7   Thumb Code     8  main.o(.text)
    gap_s_coex_adv_stop                      0x100012ff   Thumb Code     8  main.o(.text)
    gap_s_coex_scan_req_data_set             0x10001307   Thumb Code     6  main.o(.text)
    gap_s_coex_scan_start                    0x1000130d   Thumb Code     4  main.o(.text)
    gap_s_coex_scan_stop                     0x10001311   Thumb Code     6  main.o(.text)
    gap_s_gatt_profiles_set                  0x10001317   Thumb Code     6  main.o(.text)
    gap_s_security_parameters_set            0x1000131d   Thumb Code     6  main.o(.text)
    gap_s_security_parameters_get            0x10001323   Thumb Code     6  main.o(.text)
    gap_s_security_req                       0x10001329   Thumb Code     6  main.o(.text)
    gap_s_numeric_comrison                   0x1000132f   Thumb Code     8  main.o(.text)
    gap_s_connection_param_set               0x10001337   Thumb Code     6  main.o(.text)
    gap_s_connection_param_get               0x1000133d   Thumb Code     4  main.o(.text)
    gap_s_connection_update                  0x10001341   Thumb Code     6  main.o(.text)
    gap_s_link_parameters_get                0x10001347   Thumb Code     6  main.o(.text)
    gap_s_passkey_set                        0x1000134d   Thumb Code     8  main.o(.text)
    gap_s_connection_latency_mode            0x10001355   Thumb Code     8  main.o(.text)
    gap_s_check_fifo_sz                      0x1000135d   Thumb Code     6  main.o(.text)
    BBCheckTXFIFOEmpty                       0x10001363   Thumb Code    12  main.o(.text)
    sw_timer_latency_callback                0x1000136f   Thumb Code   138  main.o(.text)
    smart_latency_start                      0x100013f9   Thumb Code   186  main.o(.text)
    smart_latency_clear                      0x100014b3   Thumb Code    12  main.o(.text)
    gap_evt_Callback                         0x100014bf   Thumb Code   332  main.o(.text)
    gap_s_evt_handler_set                    0x1000160b   Thumb Code    32  main.o(.text)
    gap_s_att_c_evt_handler_set              0x1000162b   Thumb Code     6  main.o(.text)
    gap_s_gatt_report_handle_get             0x10001631   Thumb Code     6  main.o(.text)
    gap_s_gatt_read_rsp_set                  0x10001637   Thumb Code     6  main.o(.text)
    gap_s_gatt_write_err_rsp_set             0x1000163d   Thumb Code     6  main.o(.text)
    indicate_queue_size                      0x10001643   Thumb Code    26  main.o(.text)
    sw_indicate_timer_callback               0x1000165d   Thumb Code    22  main.o(.text)
    gap_s_gatt_data_send                     0x10001673   Thumb Code    38  main.o(.text)
    gap_s_gatt_data_send_report_confirmation_handle 0x10001699   Thumb Code   112  main.o(.text)
    gap_s_profile_data_read                  0x10001709   Thumb Code    44  main.o(.text)
    gap_s_profile_data_write                 0x10001789   Thumb Code   212  main.o(.text)
    att_c_mtureq                             0x1000185d   Thumb Code     4  main.o(.text)
    att_c_findinforeq                        0x10001861   Thumb Code     6  main.o(.text)
    att_c_findbytypevaluereq                 0x10001867   Thumb Code    14  main.o(.text)
    att_c_readbytypereq                      0x10001875   Thumb Code    12  main.o(.text)
    att_c_readreq                            0x10001881   Thumb Code     6  main.o(.text)
    att_c_readblobreq                        0x10001887   Thumb Code     6  main.o(.text)
    att_c_readmultiplereq                    0x1000188d   Thumb Code     6  main.o(.text)
    att_c_readbygrouptypereq                 0x10001893   Thumb Code    12  main.o(.text)
    att_c_writereq                           0x1000189f   Thumb Code     6  main.o(.text)
    att_c_writecmdreq                        0x100018a5   Thumb Code     6  main.o(.text)
    att_c_preparewritereq                    0x100018ab   Thumb Code    12  main.o(.text)
    att_c_executewritereq                    0x100018b7   Thumb Code     6  main.o(.text)
    att_c_confirmation                       0x100018bd   Thumb Code     6  main.o(.text)
    bm_s_bond_manager_idx_set                0x100018c3   Thumb Code     6  main.o(.text)
    bm_s_bond_manager_idx_get                0x100018c9   Thumb Code     4  main.o(.text)
    bm_s_bond_info_get                       0x100018cd   Thumb Code     6  main.o(.text)
    bm_s_bond_info_add                       0x100018d3   Thumb Code     6  main.o(.text)
    bm_s_bond_info_delete_all                0x100018d9   Thumb Code     6  main.o(.text)
    bm_s_bond_info_delete                    0x100018df   Thumb Code     6  main.o(.text)
    ecdh_public_key_get                      0x100018e5   Thumb Code     4  main.o(.text)
    sys_mcu_clock_get                        0x100018e9   Thumb Code     6  main.o(.text)
    sys_mcu_clock_set                        0x100018ef   Thumb Code     8  main.o(.text)
    sys_mcu_clock_div_set                    0x100018f7   Thumb Code     6  main.o(.text)
    sys_mcu_clock_div_get                    0x100018fd   Thumb Code     6  main.o(.text)
    sys_32k_clock_get                        0x10001903   Thumb Code     6  main.o(.text)
    sys_32k_clock_set                        0x10001909   Thumb Code     8  main.o(.text)
    pmu_32m_xo_on                            0x10001911   Thumb Code     4  main.o(.text)
    sys_32k_lpo_calibration                  0x10001915   Thumb Code    66  main.o(.text)
    sys_mcu_rc_calibration                   0x10001957   Thumb Code     8  main.o(.text)
    pmu_32m_xo_off                           0x1000195f   Thumb Code     6  main.o(.text)
    BBRFWrite                                0x10001965   Thumb Code     4  main.o(.text)
    BBRFRead                                 0x10001969   Thumb Code     6  main.o(.text)
    sys_mcu_rc_calibrationHF                 0x1000196f   Thumb Code    82  main.o(.text)
    pmu_wakeup_config                        0x100019c1   Thumb Code     6  main.o(.text)
    pmu_power_saving                         0x100019c7   Thumb Code    10  main.o(.text)
    pmu_mcu_off                              0x100019d1   Thumb Code     6  main.o(.text)
    pmu_system_off                           0x100019d7   Thumb Code     6  main.o(.text)
    pmu_reset                                0x100019dd   Thumb Code     6  main.o(.text)
    pmu_system_reset                         0x100019e3   Thumb Code     6  main.o(.text)
    pmu_mcu_reset                            0x100019e9   Thumb Code     6  main.o(.text)
    pmu_32m_xo_on_polling                    0x100019ef   Thumb Code    18  main.o(.text)
    _enable_sw_ccm                           0x10001a01   Thumb Code     6  main.o(.text)
    ota_code_erase                           0x10001a07   Thumb Code   344  main.o(.text)
    ota_code_write                           0x10001b5f   Thumb Code     6  main.o(.text)
    ota_code_read                            0x10001b65   Thumb Code     4  main.o(.text)
    ota_code_info_read                       0x10001b69   Thumb Code    12  main.o(.text)
    ota_code_update                          0x10001b75   Thumb Code    10  main.o(.text)
    ble_sched_execute                        0x10001b7f   Thumb Code   250  main.o(.text)
    sys_rc_get                               0x10001c79   Thumb Code     4  main.o(.text)
    sys_fclk_get                             0x10001c7d   Thumb Code     6  main.o(.text)
    sys_pclk_get                             0x10001c83   Thumb Code     6  main.o(.text)
    sys_sclk_get                             0x10001c89   Thumb Code     6  main.o(.text)
    sys_hclk_get                             0x10001c8f   Thumb Code     6  main.o(.text)
    gpadc_init                               0x10001c95   Thumb Code    22  main.o(.text)
    pdm_set_amic_gain                        0x10001cab   Thumb Code    58  main.o(.text)
    att_c_get_mtu_size                       0x10001ce5   Thumb Code    18  main.o(.text)
    capdet_set_bias                          0x10001cf7   Thumb Code    56  main.o(.text)
    capdet_get_bias                          0x10001d2f   Thumb Code    40  main.o(.text)
    module_clock_off                         0x10001d57   Thumb Code    14  main.o(.text)
    module_clock_on                          0x10001d65   Thumb Code    14  main.o(.text)
    ll_length_req                            0x10001d73   Thumb Code    24  main.o(.text)
    get_pmu_reset_type                       0x10001d8b   Thumb Code     4  main.o(.text)
    reset_module                             0x10001d8f   Thumb Code    36  main.o(.text)
    SystemSleep                              0x10001db3   Thumb Code    50  main.o(.text)
    ble_flash_authority                      0x10001de5   Thumb Code    88  main.o(.text)
    ble_flash_erase                          0x10001e3d   Thumb Code    12  main.o(.text)
    ble_flash_read                           0x10001e49   Thumb Code    32  main.o(.text)
    ble_flash_write                          0x10001e69   Thumb Code    14  main.o(.text)
    ble_flash_write_burst                    0x10001e77   Thumb Code    14  main.o(.text)
    _checksum_cache_496kb                    0x10001e85   Thumb Code   110  main.o(.text)
    ota_code_update_496kb                    0x10001ef3   Thumb Code   204  main.o(.text)
    gap_s_smart_update_latency               0x10001fbf   Thumb Code   370  main.o(.text)
    smart_update_latency_updatareq           0x10002131   Thumb Code   298  main.o(.text)
    syd8821_chip_confirm                     0x1000225b   Thumb Code    24  main.o(.text)
    APPtimer_enable                          0x10002273   Thumb Code    26  main.o(.text)
    APPtimer_disable                         0x1000228d   Thumb Code    24  main.o(.text)
    sched_callback_enable                    0x100022a5   Thumb Code    26  main.o(.text)
    gap_s_adv_state_get                      0x100022bf   Thumb Code     8  main.o(.text)
    gap_s_att_mtu_get                        0x100022c7   Thumb Code    18  main.o(.text)
    ble_SetTxPower                           0x100022d9   Thumb Code   470  main.o(.text)
    ll_set_replying_packet_timer             0x100024af   Thumb Code    10  main.o(.text)
    amic_set_bias                            0x100024b9   Thumb Code   124  main.o(.text)
    gap_s_verdor_datas_get                   0x10002535   Thumb Code    26  main.o(.text)
    gap_s_verdor_datas_set                   0x1000254f   Thumb Code    78  main.o(.text)
    systemtick_delay                         0x1000259d   Thumb Code    34  main.o(.text)
    Setting4kUpdate                          0x100025bf   Thumb Code   136  main.o(.text)
    SetDevAddr_toflash                       0x10002647   Thumb Code    72  main.o(.text)
    flash_peotect_key_confirm                0x1000268f   Thumb Code   126  main.o(.text)
    Confirm_NumericComrison                  0x10002731   Thumb Code    12  rom.o(.text)
    SmpRxPairingConfirm                      0x1000273d   Thumb Code   210  rom.o(.text)
    SmpRxPairingRandom                       0x1000280f   Thumb Code   652  rom.o(.text)
    SmpPairingReq                            0x10002a9b   Thumb Code   450  rom.o(.text)
    SmpPairingPublicKey                      0x10002c5d   Thumb Code   146  rom.o(.text)
    SmpPasskeyEntry                          0x10002cef   Thumb Code   226  rom.o(.text)
    PreCkQueSz                               0x10002dd1   Thumb Code   146  rom.o(.text)
    AttNotify                                0x10002e63   Thumb Code    56  rom.o(.text)
    AttIndication                            0x10002e9b   Thumb Code    56  rom.o(.text)
    HW_LLC_Sleep_WorkAround                  0x100035cd   Thumb Code    54  rom.o(.text)
    HW_WindowOffsetWorkAround                0x10003603   Thumb Code    68  rom.o(.text)
    LLLengthRsp                              0x10003647   Thumb Code   194  rom.o(.text)
    LLLengthReq                              0x10003709   Thumb Code   300  rom.o(.text)
    rvereseArray                             0x10003835   Thumb Code    26  rom.o(.text)
    LLStartENCReq                            0x1000384f   Thumb Code   152  rom.o(.text)
    LLRxStartENCRsp                          0x10003ce9   Thumb Code     2  rom.o(.text)
    Protocol_Hook_Callback                   0x10003ceb   Thumb Code   374  rom.o(.text)
    B01_Hook_Callback                        0x10003e61   Thumb Code    44  rom.o(.text)
    _rom_init                                0x10003e8d   Thumb Code    78  rom.o(.text)
    LLTerminateReq                           0x10003edb   Thumb Code   120  rom.o(.text)
    _rom_gap_s_disconnect                    0x10003f53   Thumb Code    32  rom.o(.text)
    _rom_sys_32k_lpo_calibration             0x10003f73   Thumb Code   134  rom.o(.text)
    _sys_32k_lpo_calibration                 0x10003ff9   Thumb Code   136  rom.o(.text)
    _rom_sys_32k_clock_set                   0x10004081   Thumb Code   118  rom.o(.text)
    _rom_gap_s_gatt_data_send                0x100040f7   Thumb Code    72  rom.o(.text)
    _rom_gap_s_coex_adv_start                0x1000413f   Thumb Code    56  rom.o(.text)
    _rom_gap_s_coex_adv_stop                 0x10004177   Thumb Code    40  rom.o(.text)
    BBRXFIFORead                             0x1000419f   Thumb Code   494  rom.o(.text)
    LCTxPkt_Handler                          0x100045bd   Thumb Code   288  rom.o(.text)
    ConnectionLost                           0x100046dd   Thumb Code   122  rom.o(.text)
    LLC_IRQHandler                           0x10004757   Thumb Code   210  rom.o(.text)
    _sys_mcu_rc_calibration                  0x10004829   Thumb Code    54  rom.o(.text)
    _rom_sys_mcu_clock_div_get               0x1000485f   Thumb Code    12  rom.o(.text)
    _rom_sys_mcu_clock_get                   0x1000486b   Thumb Code     8  rom.o(.text)
    BBMCUClockSel                            0x10004873   Thumb Code   206  rom.o(.text)
    _rom_sys_mcu_clock_set                   0x10004941   Thumb Code    14  rom.o(.text)
    _rom_ota_code_erase                      0x1000494f   Thumb Code   116  rom.o(.text)
    _rom_gap_s_connection_latency_mode       0x100049c3   Thumb Code   168  rom.o(.text)
    RCOSC_validate                           0x10004b8d   Thumb Code    18  pmu.o(.text)
    syd8821_pmu_power_saving                 0x10004b9f   Thumb Code   386  pmu.o(.text)
    aes_ccm_encrypt                          0x100050d7   Thumb Code   114  aec-ccm.o(.text)
    aes_ccm_decrypt                          0x10005149   Thumb Code   152  aec-ccm.o(.text)
    aes_ccm_verify                           0x100051e1   Thumb Code    96  aec-ccm.o(.text)
    CCM_NONCE                                0x10005241   Thumb Code    62  aec-ccm.o(.text)
    aes_encrypt                              0x10005b67   Thumb Code    24  aes.o(.text)
    aes_decrypt                              0x10005b7f   Thumb Code    26  aes.o(.text)
    __aeabi_uidiv                            0x10005bad   Thumb Code     0  uidiv.o(.text)
    __aeabi_uidivmod                         0x10005bad   Thumb Code    44  uidiv.o(.text)
    __aeabi_idiv                             0x10005bd9   Thumb Code     0  idiv.o(.text)
    __aeabi_idivmod                          0x10005bd9   Thumb Code    40  idiv.o(.text)
    __aeabi_memcpy                           0x10005c01   Thumb Code    36  memcpya.o(.text)
    __aeabi_memcpy4                          0x10005c01   Thumb Code     0  memcpya.o(.text)
    __aeabi_memcpy8                          0x10005c01   Thumb Code     0  memcpya.o(.text)
    __aeabi_memset                           0x10005c25   Thumb Code    14  memseta.o(.text)
    __aeabi_memset4                          0x10005c25   Thumb Code     0  memseta.o(.text)
    __aeabi_memset8                          0x10005c25   Thumb Code     0  memseta.o(.text)
    __aeabi_memclr                           0x10005c33   Thumb Code     4  memseta.o(.text)
    __aeabi_memclr4                          0x10005c33   Thumb Code     0  memseta.o(.text)
    __aeabi_memclr8                          0x10005c33   Thumb Code     0  memseta.o(.text)
    _memset$wrapper                          0x10005c37   Thumb Code    18  memseta.o(.text)
    memcmp                                   0x10005c49   Thumb Code    26  memcmp.o(.text)
    __aeabi_uread4                           0x10005c63   Thumb Code    20  uread4.o(.text)
    __rt_uread4                              0x10005c63   Thumb Code     0  uread4.o(.text)
    _uread4                                  0x10005c63   Thumb Code     0  uread4.o(.text)
    __aeabi_uwrite4                          0x10005c77   Thumb Code    18  uwrite4.o(.text)
    __rt_uwrite4                             0x10005c77   Thumb Code     0  uwrite4.o(.text)
    _uwrite4                                 0x10005c77   Thumb Code     0  uwrite4.o(.text)
    __aeabi_fadd                             0x10005c89   Thumb Code   162  fadd.o(.text)
    __aeabi_fsub                             0x10005d2b   Thumb Code     8  fadd.o(.text)
    __aeabi_frsub                            0x10005d33   Thumb Code     8  fadd.o(.text)
    __aeabi_dadd                             0x10005d3d   Thumb Code   328  dadd.o(.text)
    __aeabi_dsub                             0x10005e85   Thumb Code    12  dadd.o(.text)
    __aeabi_drsub                            0x10005e91   Thumb Code    12  dadd.o(.text)
    __aeabi_dmul                             0x10005ea1   Thumb Code   202  dmul.o(.text)
    __aeabi_ddiv                             0x10005f71   Thumb Code   234  ddiv.o(.text)
    __aeabi_ui2f                             0x10006061   Thumb Code    14  ffltui.o(.text)
    __aeabi_i2d                              0x10006071   Thumb Code    34  dflti.o(.text)
    __aeabi_ui2d                             0x10006099   Thumb Code    24  dfltui.o(.text)
    __aeabi_d2uiz                            0x100060b5   Thumb Code    50  dfixui.o(.text)
    __aeabi_f2d                              0x100060f1   Thumb Code    40  f2d.o(.text)
    __aeabi_uldivmod                         0x10006119   Thumb Code    96  uldiv.o(.text)
    __aeabi_llsl                             0x10006179   Thumb Code    32  llshl.o(.text)
    _ll_shift_l                              0x10006179   Thumb Code     0  llshl.o(.text)
    __aeabi_llsr                             0x10006199   Thumb Code    34  llushr.o(.text)
    _ll_ushift_r                             0x10006199   Thumb Code     0  llushr.o(.text)
    __aeabi_lasr                             0x100061bb   Thumb Code    38  llsshr.o(.text)
    _ll_sshift_r                             0x100061bb   Thumb Code     0  llsshr.o(.text)
    __I$use$fp                               0x100061e1   Thumb Code     0  iusefp.o(.text)
    _float_round                             0x100061e1   Thumb Code    16  fepilogue.o(.text)
    _float_epilogue                          0x100061f1   Thumb Code   114  fepilogue.o(.text)
    _double_round                            0x10006263   Thumb Code    26  depilogue.o(.text)
    _double_epilogue                         0x1000627d   Thumb Code   164  depilogue.o(.text)
    __aeabi_d2ulz                            0x10006321   Thumb Code    54  dfixul.o(.text)
    __aeabi_cdrcmple                         0x10006361   Thumb Code    38  cdrcmple.o(.text)
    __scatterload                            0x10006389   Thumb Code    28  init.o(.text)
    __scatterload_rt2                        0x10006389   Thumb Code     0  init.o(.text)
    syd8821_wfi                              0x100063ad   Thumb Code    66  pmu.o(PMU)
    __0vsprintf                              0x100063f9   Thumb Code    30  printfa.o(i.__0vsprintf)
    __1vsprintf                              0x100063f9   Thumb Code     0  printfa.o(i.__0vsprintf)
    __2vsprintf                              0x100063f9   Thumb Code     0  printfa.o(i.__0vsprintf)
    __c89vsprintf                            0x100063f9   Thumb Code     0  printfa.o(i.__0vsprintf)
    vsprintf                                 0x100063f9   Thumb Code     0  printfa.o(i.__0vsprintf)
    __ARM_clz                                0x1000641d   Thumb Code    46  depilogue.o(i.__ARM_clz)
    __ARM_common_switch8                     0x1000644b   Thumb Code    26  main.o(i.__ARM_common_switch8)
    __scatterload_copy                       0x10006465   Thumb Code    14  handlers.o(i.__scatterload_copy)
    __scatterload_null                       0x10006473   Thumb Code     2  handlers.o(i.__scatterload_null)
    __scatterload_zeroinit                   0x10006475   Thumb Code    14  handlers.o(i.__scatterload_zeroinit)
    Region$$Table$$Base                      0x10006f98   Number         0  anon$$obj.o(Region$$Table)
    Region$$Table$$Limit                     0x10006fb8   Number         0  anon$$obj.o(Region$$Table)
    stx                                      0x20000000   Data          32  main_slave.o(.data)
    UART_CTRL                                0x2000003c   Data           8  uart.o(.data)
    SystemCoreClock                          0x20000054   Data           4  system_armcm0.o(.data)
    app_gap_evt_callback                     0x20000068   Data           4  main.o(.data)
    enable_sw_ccm                            0x2000006e   Data           1  rom.o(.data)
    using_oob                                0x2000006f   Data           1  rom.o(.data)
    using_numeric_compairison                0x20000070   Data           1  rom.o(.data)
    LL_Header                                0x20000072   Data           1  rom.o(.data)
    isStartLlid                              0x20000073   Data           1  rom.o(.data)
    LL_Header_len                            0x20000074   Data           2  rom.o(.data)
    BB_CTRL                                  0x20000078   Data           4  rom.o(.data)
    flash_hdr                                0x2000007c   Data           4  rom.o(.data)
    lclink                                   0x20000080   Data           4  rom.o(.data)
    txpdu                                    0x20000084   Data           4  rom.o(.data)
    flash                                    0x200000b0   Data           4  rom.o(.data)
    mic_len                                  0x200000b4   Data           4  rom.o(.data)
    l2capTmpBuf                              0x200000b8   Data           4  rom.o(.data)
    warning_report_evt                       0x200000c0   Data           5  rom.o(.data)
    att_handle_config_evt                    0x200000c5   Data           6  rom.o(.data)
    RxCounter                                0x200000cb   Data           8  rom.o(.data)
    TxCounter                                0x200000d3   Data           8  rom.o(.data)
    srx                                      0x200000e0   Data          32  main_slave.o(.bss)
    rx_queue                                 0x20000100   Data          32  uart.o(.bss)
    rx_buf                                   0x20000120   Data        1024  uart.o(.bss)
    profile                                  0x200005a0   Data        4096  main.o(.bss)
    smart_update_ctrol                       0x200015de   Data          15  main.o(.bss)
    Nonce                                    0x200015f0   Data          13  rom.o(.bss)
    rxbuf                                    0x20001600   Data         260  rom.o(.bss)
    encPayload                               0x20001704   Data         260  rom.o(.bss)
    att_write_evt                            0x20001808   Data         519  rom.o(.bss)
    __initial_sp                             0x20002a20   Data           0  startup_armcm0.o(STACK)



==============================================================================

Memory Map of the image

  Image Entry point : 0x100000c1

  Load Region LR_IROM1 (Base: 0x10000000, Size: 0x00007098, Max: 0x0003e000, ABSOLUTE)

    Execution Region ER_IROM1 (Exec base: 0x10000000, Load base: 0x10000000, Size: 0x00006fb8, Max: 0x0003e000, ABSOLUTE)

    Exec Addr    Load Addr    Size         Type   Attr      Idx    E Section Name        Object

    0x10000000   0x10000000   0x000000c0   Data   RO          317    RESET               startup_armcm0.o
    0x100000c0   0x100000c0   0x00000000   Code   RO          554  * .ARM.Collect$$$$00000000  mc_p.l(entry.o)
    0x100000c0   0x100000c0   0x00000004   Code   RO          619    .ARM.Collect$$$$00000001  mc_p.l(entry2.o)
    0x100000c4   0x100000c4   0x00000004   Code   RO          622    .ARM.Collect$$$$00000004  mc_p.l(entry5.o)
    0x100000c8   0x100000c8   0x00000000   Code   RO          624    .ARM.Collect$$$$00000008  mc_p.l(entry7b.o)
    0x100000c8   0x100000c8   0x00000000   Code   RO          626    .ARM.Collect$$$$0000000A  mc_p.l(entry8b.o)
    0x100000c8   0x100000c8   0x00000008   Code   RO          627    .ARM.Collect$$$$0000000B  mc_p.l(entry9a.o)
    0x100000d0   0x100000d0   0x00000000   Code   RO          629    .ARM.Collect$$$$0000000D  mc_p.l(entry10a.o)
    0x100000d0   0x100000d0   0x00000000   Code   RO          631    .ARM.Collect$$$$0000000F  mc_p.l(entry11a.o)
    0x100000d0   0x100000d0   0x00000004   Code   RO          620    .ARM.Collect$$$$00002712  mc_p.l(entry2.o)
    0x100000d4   0x100000d4   0x00000006   Code   RO          418    .emb_text           syd8821_ble_slave.lib(rom.o)
    0x100000da   0x100000da   0x00000002   PAD
    0x100000dc   0x100000dc   0x000001f8   Code   RO            3    .text               main_slave.o
    0x100002d4   0x100002d4   0x00000368   Code   RO           86    .text               gpio.o
    0x1000063c   0x1000063c   0x00000090   Code   RO          146    .text               pad_mux_ctrl.o
    0x100006cc   0x100006cc   0x00000280   Code   RO          171    .text               uart.o
    0x1000094c   0x1000094c   0x0000023c   Code   RO          210    .text               debug.o
    0x10000b88   0x10000b88   0x000000e2   Code   RO          259    .text               queue.o
    0x10000c6a   0x10000c6a   0x00000002   PAD
    0x10000c6c   0x10000c6c   0x00000328   Code   RO          282    .text               spi.o
    0x10000f94   0x10000f94   0x0000001c   Code   RO          318    .text               startup_armcm0.o
    0x10000fb0   0x10000fb0   0x00000018   Code   RO          324    .text               system_armcm0.o
    0x10000fc8   0x10000fc8   0x00001768   Code   RO          350    .text               syd8821_ble_slave.lib(main.o)
    0x10002730   0x10002730   0x0000245c   Code   RO          419    .text               syd8821_ble_slave.lib(rom.o)
    0x10004b8c   0x10004b8c   0x000001ac   Code   RO          454    .text               syd8821_ble_slave.lib(pmu.o)
    0x10004d38   0x10004d38   0x00000580   Code   RO          508    .text               syd8821_ble_slave.lib(aec-ccm.o)
    0x100052b8   0x100052b8   0x000008f4   Code   RO          541    .text               syd8821_ble_slave.lib(aes.o)
    0x10005bac   0x10005bac   0x0000002c   Code   RO          557    .text               mc_p.l(uidiv.o)
    0x10005bd8   0x10005bd8   0x00000028   Code   RO          559    .text               mc_p.l(idiv.o)
    0x10005c00   0x10005c00   0x00000024   Code   RO          561    .text               mc_p.l(memcpya.o)
    0x10005c24   0x10005c24   0x00000024   Code   RO          563    .text               mc_p.l(memseta.o)
    0x10005c48   0x10005c48   0x0000001a   Code   RO          565    .text               mc_p.l(memcmp.o)
    0x10005c62   0x10005c62   0x00000014   Code   RO          597    .text               mc_p.l(uread4.o)
    0x10005c76   0x10005c76   0x00000012   Code   RO          599    .text               mc_p.l(uwrite4.o)
    0x10005c88   0x10005c88   0x000000b2   Code   RO          601    .text               mf_p.l(fadd.o)
    0x10005d3a   0x10005d3a   0x00000002   PAD
    0x10005d3c   0x10005d3c   0x00000164   Code   RO          603    .text               mf_p.l(dadd.o)
    0x10005ea0   0x10005ea0   0x000000d0   Code   RO          605    .text               mf_p.l(dmul.o)
    0x10005f70   0x10005f70   0x000000f0   Code   RO          607    .text               mf_p.l(ddiv.o)
    0x10006060   0x10006060   0x0000000e   Code   RO          609    .text               mf_p.l(ffltui.o)
    0x1000606e   0x1000606e   0x00000002   PAD
    0x10006070   0x10006070   0x00000028   Code   RO          611    .text               mf_p.l(dflti.o)
    0x10006098   0x10006098   0x0000001c   Code   RO          613    .text               mf_p.l(dfltui.o)
    0x100060b4   0x100060b4   0x0000003c   Code   RO          615    .text               mf_p.l(dfixui.o)
    0x100060f0   0x100060f0   0x00000028   Code   RO          617    .text               mf_p.l(f2d.o)
    0x10006118   0x10006118   0x00000060   Code   RO          636    .text               mc_p.l(uldiv.o)
    0x10006178   0x10006178   0x00000020   Code   RO          638    .text               mc_p.l(llshl.o)
    0x10006198   0x10006198   0x00000022   Code   RO          640    .text               mc_p.l(llushr.o)
    0x100061ba   0x100061ba   0x00000026   Code   RO          642    .text               mc_p.l(llsshr.o)
    0x100061e0   0x100061e0   0x00000000   Code   RO          644    .text               mc_p.l(iusefp.o)
    0x100061e0   0x100061e0   0x00000082   Code   RO          645    .text               mf_p.l(fepilogue.o)
    0x10006262   0x10006262   0x000000be   Code   RO          647    .text               mf_p.l(depilogue.o)
    0x10006320   0x10006320   0x00000040   Code   RO          651    .text               mf_p.l(dfixul.o)
    0x10006360   0x10006360   0x00000028   Code   RO          653    .text               mf_p.l(cdrcmple.o)
    0x10006388   0x10006388   0x00000024   Code   RO          655    .text               mc_p.l(init.o)
    0x100063ac   0x100063ac   0x0000004c   Code   RO          455    PMU                 syd8821_ble_slave.lib(pmu.o)
    0x100063f8   0x100063f8   0x00000024   Code   RO          576    i.__0vsprintf       mc_p.l(printfa.o)
    0x1000641c   0x1000641c   0x0000002e   Code   RO          649    i.__ARM_clz         mf_p.l(depilogue.o)
    0x1000644a   0x1000644a   0x0000001a   Code   RO          369    i.__ARM_common_switch8  syd8821_ble_slave.lib(main.o)
    0x10006464   0x10006464   0x0000000e   Code   RO          661    i.__scatterload_copy  mc_p.l(handlers.o)
    0x10006472   0x10006472   0x00000002   Code   RO          662    i.__scatterload_null  mc_p.l(handlers.o)
    0x10006474   0x10006474   0x0000000e   Code   RO          663    i.__scatterload_zeroinit  mc_p.l(handlers.o)
    0x10006482   0x10006482   0x00000002   PAD
    0x10006484   0x10006484   0x00000174   Code   RO          577    i._fp_digits        mc_p.l(printfa.o)
    0x100065f8   0x100065f8   0x000006ec   Code   RO          578    i._printf_core      mc_p.l(printfa.o)
    0x10006ce4   0x10006ce4   0x00000020   Code   RO          579    i._printf_post_padding  mc_p.l(printfa.o)
    0x10006d04   0x10006d04   0x0000002c   Code   RO          580    i._printf_pre_padding  mc_p.l(printfa.o)
    0x10006d30   0x10006d30   0x0000000a   Code   RO          582    i._sputc            mc_p.l(printfa.o)
    0x10006d3a   0x10006d3a   0x00000032   Data   RO          421    .constdata          syd8821_ble_slave.lib(rom.o)
    0x10006d6c   0x10006d6c   0x00000020   Data   RO          456    .constdata          syd8821_ble_slave.lib(pmu.o)
    0x10006d8c   0x10006d8c   0x0000020b   Data   RO          542    .constdata          syd8821_ble_slave.lib(aes.o)
    0x10006f97   0x10006f97   0x00000001   PAD
    0x10006f98   0x10006f98   0x00000020   Data   RO          659    Region$$Table       anon$$obj.o


    Execution Region RW_IRAM1 (Exec base: 0x20000000, Load base: 0x10006fb8, Size: 0x00002a20, Max: 0x00028000, ABSOLUTE)

    Exec Addr    Load Addr    Size         Type   Attr      Idx    E Section Name        Object

    0x20000000   0x10006fb8   0x00000028   Data   RW            5    .data               main_slave.o
    0x20000028   0x10006fe0   0x0000000c   Data   RW           87    .data               gpio.o
    0x20000034   0x10006fec   0x00000008   Data   RW          147    .data               pad_mux_ctrl.o
    0x2000003c   0x10006ff4   0x00000008   Data   RW          173    .data               uart.o
    0x20000044   0x10006ffc   0x00000008   Data   RW          212    .data               debug.o
    0x2000004c   0x10007004   0x00000008   Data   RW          283    .data               spi.o
    0x20000054   0x1000700c   0x00000004   Data   RW          325    .data               system_armcm0.o
    0x20000058   0x10007010   0x00000014   Data   RW          352    .data               syd8821_ble_slave.lib(main.o)
    0x2000006c   0x10007024   0x0000006f   Data   RW          422    .data               syd8821_ble_slave.lib(rom.o)
    0x200000db   0x10007093   0x00000001   PAD
    0x200000dc   0x10007094   0x00000004   Data   RW          457    .data               syd8821_ble_slave.lib(pmu.o)
    0x200000e0        -       0x00000020   Zero   RW            4    .bss                main_slave.o
    0x20000100        -       0x00000420   Zero   RW          172    .bss                uart.o
    0x20000520        -       0x00000080   Zero   RW          211    .bss                debug.o
    0x200005a0        -       0x0000104d   Zero   RW          351    .bss                syd8821_ble_slave.lib(main.o)
    0x200015ed   0x10007098   0x00000003   PAD
    0x200015f0        -       0x0000041f   Zero   RW          420    .bss                syd8821_ble_slave.lib(rom.o)
    0x20001a0f        -       0x00000010   Zero   RW          509    .bss                syd8821_ble_slave.lib(aec-ccm.o)
    0x20001a1f   0x10007098   0x00000001   PAD
    0x20001a20        -       0x00001000   Zero   RW          315    STACK               startup_armcm0.o


==============================================================================

Image component sizes


      Code (inc. data)   RO Data    RW Data    ZI Data      Debug   Object Name

       572         38          0          8        128      46065   debug.o
         0          0          0          0          0      34576   delay.o
       872         16          0         12          0      47053   gpio.o
       504         94          0         40         32      49098   main_slave.o
       144          4          0          8          0       1877   pad_mux_ctrl.o
       226          0          0          0          0       2419   queue.o
       808         50          0          8          0      47268   spi.o
        28          8        192          0       4096        680   startup_armcm0.o
        24          8          0          4          0        909   system_armcm0.o
       640         24          0          8       1056      11847   uart.o

    ----------------------------------------------------------------------
      3820        242        224         88       5312     241792   Object Totals
         0          0         32          0          0          0   (incl. Generated)
         2          0          0          0          0          0   (incl. Padding)

    ----------------------------------------------------------------------

      Code (inc. data)   RO Data    RW Data    ZI Data      Debug   Library Member Name

         0          0          0          0          0          0   entry.o
         0          0          0          0          0          0   entry10a.o
         0          0          0          0          0          0   entry11a.o
         8          4          0          0          0          0   entry2.o
         4          0          0          0          0          0   entry5.o
         0          0          0          0          0          0   entry7b.o
         0          0          0          0          0          0   entry8b.o
         8          4          0          0          0          0   entry9a.o
        30          0          0          0          0          0   handlers.o
        40          0          0          0          0         72   idiv.o
        36          8          0          0          0         68   init.o
         0          0          0          0          0          0   iusefp.o
        32          0          0          0          0         68   llshl.o
        38          0          0          0          0         68   llsshr.o
        34          0          0          0          0         68   llushr.o
        26          0          0          0          0         72   memcmp.o
        36          0          0          0          0         60   memcpya.o
        36          0          0          0          0        100   memseta.o
      2266         96          0          0          0        460   printfa.o
        44          0          0          0          0         72   uidiv.o
        96          0          0          0          0         84   uldiv.o
        20          0          0          0          0         60   uread4.o
        18          0          0          0          0         60   uwrite4.o
        40          2          0          0          0         68   cdrcmple.o
       356          4          0          0          0        140   dadd.o
       240          6          0          0          0         84   ddiv.o
       236          0          0          0          0        216   depilogue.o
        60         10          0          0          0         68   dfixui.o
        64         10          0          0          0         68   dfixul.o
        40          6          0          0          0         68   dflti.o
        28          4          0          0          0         68   dfltui.o
       208          6          0          0          0         88   dmul.o
        40          0          0          0          0         60   f2d.o
       178          0          0          0          0        108   fadd.o
       130          0          0          0          0        144   fepilogue.o
        14          0          0          0          0         68   ffltui.o
      1408          4          0          0         16       8115   aec-ccm.o
      2292         12        523          0          0       3442   aes.o
      6018        378          0         20       4173     122285   main.o
       504         34         32          4          0      11032   pmu.o
      9314        452         50        111       1055      24191   rom.o

    ----------------------------------------------------------------------
     23950       1040        606        136       5248     171625   Library Totals
         8          0          1          1          4          0   (incl. Padding)

    ----------------------------------------------------------------------

      Code (inc. data)   RO Data    RW Data    ZI Data      Debug   Library Name

      2772        112          0          0          0       1312   mc_p.l
      1634         48          0          0          0       1248   mf_p.l
     19536        880        605        135       5244     169065   syd8821_ble_slave.lib

    ----------------------------------------------------------------------
     23950       1040        606        136       5248     171625   Library Totals

    ----------------------------------------------------------------------

==============================================================================


      Code (inc. data)   RO Data    RW Data    ZI Data      Debug   

     27770       1282        830        224      10560     411045   Grand Totals
     27770       1282        830        224      10560     411045   ELF Image Totals
     27770       1282        830        224          0          0   ROM Totals

==============================================================================

    Total RO  Size (Code + RO Data)                28600 (  27.93kB)
    Total RW  Size (RW Data + ZI Data)             10784 (  10.53kB)
    Total ROM Size (Code + RO Data + RW Data)      28824 (  28.15kB)

==============================================================================

