:020000041000EA
:1000000020B50020293A0010313A0010333A001090
:1000100000000000000000000000000000000000E0
:100020000000000000000000000000004B3900103C
:10003000000000000000000003010010F339001070
:10004000CB110010276000103B3A00103B3A001023
:100050003B3A00103B3A00103B3A00103B3A00108C
:100060003B3A00103B3A00103B3A00103B3A00107C
:100070003B3A00103B3A00103B3A00103B3A00106C
:100080003B3A00103B3A00103B3A00103B3A00105C
:100090003B3A00103B3A00103B3A00103B3A00104C
:1000A0003B3A00103B3A00103B3A00103B3A00103C
:1000B0003B3A00103B3A00103B3A00103B3A00102C
:1000C0000348854606F042FC004800472F04001014
:1000D00020B50020064B19680868203080F3098895
:1000E000022080F314883FBCAE4662B600BD00001B
:1000F0006C000020EFF3108072B6704780F3108818
:100100007047EFF309800E4B1A6820381060F0C07A
:1001100044464D4656465F46F0C008B572B602F0FA
:1001200041FA62B60CBC116808681030F0C8A046ED
:10013000A946B246BB4680F309882038F0C8184764
:100140006C00002038B50124FFF7D4FF05460023DA
:100150006A46C549C548006801F042FC044600985B
:10016000002803D001200007C1494860012C0AD1B2
:10017000BD480168BFA000F0F5FDBB480068401C09
:10018000B949086002E0C6A000F0ECFD2846FFF780
:10019000B5FF38BD70B505460C46002D02D0012DC7
:1001A00022D120E001208003201A0AD001218903F6
:1001B000401A09D04900401A0AD04900401A0FD10C
:1001C0000AE0FFF7BFFF0CE00A2000F031FF08E073
:1001D0000A2000F02DFF04E00A2000F029FF00E0D3
:1001E00000BF00BF01E000E000BF00BF70BD10B560
:1001F0000721142000F05BFE0721152000F057FEB8
:1002000000F0AAFDAEA2B1A1B3A000F0ABFD0021A9
:10021000192000F04CFE0021172000F048FE0021BC
:10022000222000F044FE00210A2000F040FE0121BF
:10023000192000F0D0FE0121172000F0CCFE012192
:10024000222000F0C8FE01210A2000F0C4FE002197
:100250000E2000F02CFE00210F2000F028FE0021CF
:10026000102000F024FE0021112000F020FE0021CB
:100270000E2000F048FE00210F2000F044FE002177
:10028000102000F040FE0021112000F03CFE9948B3
:1002900000F036FE012211460E2000F02BFF10BDAB
:1002A00005E0192000F0C4FEC82002F099F8F8E734
:1002B00010B50446172000F0BBFE10BD86B0012427
:1002C0001821684605F097FF00BF00231A466946CB
:1002D0008948006801F084FA0446012C10D187A0F7
:1002E00000F040FD6846018889A000F03BFD6846AB
:1002F0008278C11C89A000F072FD70A000F032FD70
:100300000A2002F06DF8E0E708B501240020009013
:1003100000BF00231A4669465448006801F060FA9D
:100320000446012C03D17FA0009900F01BFD0A2098
:1003300002F056F8EDE77FB5012483A000F012FD2E
:100340000020874A01230290009301920390034604
:10035000802284A1854801F0DCFD0446012C02D1F5
:1003600083A000F0FFFC8948002301227D21C90001
:10037000009087A003F0DBF88749086002F0B4FA28
:100380000546002003462A46012100908248006865
:1003900002F00CFF0446012C02D180A000F0E2FC28
:1003A00000200323019002900093039003468022D3
:1003B00084A1864801F0ADFD0446012C02D184A041
:1003C00000F0D0FC002002230190029000930390E3
:1003D0000346802289A18B4801F09BFD0446012C35
:1003E00002D189A000F0BEFC002218210A2000F0F2
:1003F000C2FF4149086008460068002802D08EA06C
:1004000000F0B0FC002204210A2000F0B4FF1749DC
:10041000086008460068002802D090A000F0A2FC06
:1004200096A000F09FFC25A000F09CFC7FBD10B5BD
:1004300072B600F024FB03F070FF012003F065FFAB
:10044000032003F056FFFFF7D2FE93A000F08AFCD2
:1004500003F03FFB96A000F085FC62B6FFF76BFF50
:1004600002F015FA002010BD100000200C00002042
:1004700000ED00E00D0A6B6579312069727120731F
:10048000656E64207175657565207375636365734A
:10049000732120646174613A25640D0A0000000034
:1004A0000D0A6B657931206972712073656E642065
:1004B0007175657565206572726F72210D0A000095
:1004C00032333A31363A323000000000446563205E
:1004D00031332032303138004672656552544F5303
:1004E00020424C452025733A2573202E2E2E0D0ACE
:1004F000000000009501001000000020424C452043
:10050000517565756520526563657669650D0A00EC
:10051000555549443A253034780D0A0064617461B8
:100520000D0A00006B657931206972712071756563
:100530007565207265636569766520646174613AEA
:1005400025640D0A00000000496E6974207461730F
:100550006B20616E642071756575650D0A00000081
:10056000040000204C45443100000000A1020010AE
:10057000437265617465204C454431205461736B4E
:100580002053756363657373210D0A00B102001077
:100590004C454432000000000800002043726561B1
:1005A0007465204C45443220536F667474696D65E0
:1005B00072205461736B2053756363657373210DEF
:1005C0000A000000424C455F52000000BD020010CE
:1005D00043726561746520424C455F517565756570
:1005E0005F526563656976655F5461736B2053750F
:1005F0006363657373210D0A000000004B45595F6A
:100600005200000009030010437265617465204BBD
:1006100065795F4952515F51756575655F526563D4
:10062000656976655F5461736B20537563636573A9
:1006300073210D0A00000000437265617465204259
:100640004C455F52585F51554555455F4C454E20CE
:1006500053756363657373210D0A0000437265610E
:100660007465204B45595F51554555455F4C454E86
:100670002053756363657373210D0A000D0A535986
:100680004438383231206672656552544F532053D6
:10069000746172740D0A0000626F61726420686197
:1006A00072647761726520696E69740D0A000000DA
:1006B000737461727420626C65206164760D0A0D3A
:1006C0000A0000001FB50021684601700721417231
:1006D00020214181FE498181032181730021017222
:1006E00003F0EFF9FB4803F0D8F9FA484078FA49EB
:1006F000C873F84880780874F648C0784874F5489C
:1007000000798874F3484079C874F2488079087594
:10071000F2480378F2480178F24AEF4803F0D4F93E
:100720001FBD70473EB504460D46EF4800780128CE
:100730000FD1012168460180032141801F21818062
:100740000121018123462A466946012003F092FCDB
:100750003EBD0020FCE713B582B0684640891521F4
:100760004902884209D1E1A003C801910090052403
:100770006946204603F05DFC88E068464089DD4913
:10078000884208D1DCA000680190022401A920461B
:1007900003F04FFC7AE068464089D6492831884208
:1007A00009D1D6A103C901910090082469462046C9
:1007B00003F03FFC6AE068464089CE492331884215
:1007C00009D1D0A103C901910090072469462046B0
:1007D00003F02FFC5AE068464089C649243188421C
:1007E00009D1CAA103C90191009005246946204698
:1007F00003F01FFC4AE068464089BE492631884222
:1008000008D1C4A000680190042401A9204603F087
:1008100010FC3BE068464089B6492531884208D142
:10082000BDA000680190042401A9204603F001FC4A
:100830002CE068464089AF492731884208D1B7A0EB
:1008400000680190042401A9204603F0F2FB1DE09A
:1008500068464089A7494F31884209D1B0A103C9F0
:100860000191009007246946204603F0E2FB0DE069
:1008700068464089AC49884207D1ACA00068019025
:10088000042101A8FFF74EFF00E000BF1FBD0FB419
:1008900010B588B0182102A805F0ADFC6846418D5E
:1008A000018108A8817B6846817214220BA903315B
:1008B0000B3005F087FCFFF71DFC0446002301AA5E
:1008C00002A99B48006801F08BF80198002803D02A
:1008D00001200007974948602046FFF70FFC08B049
:1008E00010BC08BC04B0184710B5FFB0FFB082B010
:1008F0000446601C05F097FC012802D103F0E9F8DA
:10090000B9E0601C05F08FFC04280ED10020764968
:1009100008700120884908700020884908708849BB
:1009200008700120FFF7FDFEA5E0601C05F07BFCD0
:10093000082807D10020804908706B49087003F02F
:10094000C8F898E0601C05F06EFC0121C9038842DC
:100950003AD1A179627908021043012819D1217A8C
:10096000E279080210432028CAD1A17A627A0802EB
:100970001043012806D173A000F0F4F901205A4970
:10098000087078E074A000F0EDF900205649087076
:1009900071E0A17962790802104363491E318842EF
:1009A00069D1217AE279080210432D2863D1A17A16
:1009B000627A08021043012802D16C4908705AE09B
:1009C00000206A49087056E0601C05F02CFC0121EB
:1009D000C902884210D1FF22F832214615316846FB
:1009E00005F0F0FB624A611D7EA805F0EBFB7EA8D6
:1009F0000FC8FFF74CFF3EE0601C05F014FC01211E
:100A00008902884209D10822611DFEA805F0DAFB9F
:100A1000FF99FE98FFF79FFE2DE0601C05F003FC98
:100A200001218903884226D0601C05F0FCFB1028B8
:100A300003D10120424908701DE0601C05F0F3FB62
:100A4000802818D0601C05F0EEFB01214902884285
:100A500011D1A179627908021043030005F0B1FFBA
:100A6000060405060708090A04E003E002E001E0C5
:100A700000E000BF00BF7FB07FB002B010BD00B586
:100A800091B002F0F5FF3B4809903B480A903B4883
:100A90000B903B480C903B480D9009A803F074F96B
:100AA00003216846017700214177807F8108890012
:100AB000491C68468177807F042188430146684647
:100AC00081771021C177002108A8017003215BE024
:100AD000FF3F0000480000202600002046000020C4
:100AE00042000020440000202000002055415254C4
:100AF00046000000012A0000FFFF00005359442077
:100B0000496E632E424C4520312E3000312E302E5E
:100B100030000000322E3030332E3030342E303062
:100B2000023A09050A020000C9FE000000010304A0
:100B30000000002000ED00E0220000202400002042
:100B40002300002073746172745F747820656E6195
:100B5000626C650D0A00000073746172745F7478D2
:100B60002064697361626C650D0A00002100002039
:100B70000702000096720010C0720010B5720010DB
:100B8000FF720010BD730010417007A803F0FFF85A
:100B90000621684681800921C1806421018141814B
:100BA000062101733221417300218173C1730174E5
:100BB000012101A84173002181730221C173002129
:100BC000017403214174002181740421C174002146
:100BD0000175052141750021817503F0E5F814497F
:100BE000FF20013005F029FB1149091D114805F0CE
:100BF00024FB0F4803F008FA0F4803F017FA00200F
:100C000003F041FBFFF75EFD012108A801760021FA
:100C100041760EA90231002005F00FFB0FA9023129
:100C2000002005F00AFB0EA803F07AFB11B000BD0E
:100C300014000020E90800101C00002010B5024636
:100C40000620002815DBC406E40E0123A3407F4CD8
:100C5000236000BF00BF00BFBFF34F8F00BF00BFC6
:100C600000BF00BF00BF00BFBFF36F8F00BF00BF5A
:100C700000BF00BF764800680078000900010B073C
:100C80001B0F1843724B1B6818707148006800787E
:100C900080239843D3018024234018436C4B1B6866
:100CA00018706B4800680078402398434030684BC8
:100CB0001B68187066480068C0781023984310308D
:100CC000634B1B68D870624800688078082398439B
:100CD00008305F4B1B6898705E48406A4023184399
:100CE0005C4B58621846006A40231843594B1862FF
:100CF0000620002806DBC406E40E0123A340534C63
:100D0000803C236000BF10BDF0B50B4601242404D5
:100D1000002112E000BF85004D4E7559ED782D077A
:100D2000ED0F002DF7D1850075596D785E5C354665
:100D30008600474FBE597570491C9142EADB00E0BE
:100D4000641E8500424E7559ED786D07ED0F002D3C
:100D500001D1002CF4D1F0BD10B508210020FFF71F
:100D60006DFF10BD0FB438B500240498002803D1DE
:100D700038BC08BC04B0184705A800903648009A53
:100D8000049905F0F5FDC4B200200090802C00DD30
:100D90008024224630490020FFF7B6FF00BFE7E776
:100DA0000FB438B5054600240598002803D138BC97
:100DB00008BC04B0184706A800902748009A059977
:100DC00005F0D6FDC4B200200090802C00DD802408
:100DD000224621492846FFF797FF00BFE7E7F8B50D
:100DE00005460E4617460024002D02D02846FFF780
:100DF000B9FF00241BE02046E117490F0918C9106C
:100E0000C900611A03D1A1B214A0FFF7ABFF315D95
:100E100014A0FFF7A7FF601CC117490F0918C910DC
:100E2000C900411A02D111A0FFF79CFF641CBC420B
:100E3000E1DB2046E117490F0918C910C900611A02
:100E400002D00AA0FFF78EFFF8BD000080E100E0AD
:100E500050000020008002201C0100205B2530345F
:100E6000785D200025303278200000000D0A000057
:100E700010B50146272901DA002902DA0020C04313
:100E800010BDCC07E40F202904DA4A101B48006883
:100E9000835C05E008462038421018484068835CAF
:100EA000002C01D01811EBE71807000FE8E770B528
:100EB000272801DA002800DA70BD0907090FC407E6
:100EC000E40F202804DA43100C4E3668F21805E0CF
:100ED0000646203E7310094E7668F2181578002CED
:100EE00001D00F2600E0F0263540002C01D00E077F
:100EF000310E2E460E43167000BFDDE7580000206D
:100F0000D3490860704770B5024620241440630935
:100F100020251446AC430125A54028469C00CD4D14
:100F20002C592075050A6575050CA575050EE57526
:100F3000002B13D0002908D1C74D6D7D0543ECB2BD
:100F4000C54D6D7DC44E747515E0C34D6D7D8543F3
:100F50002C46C14D6D7DC04E74750CE0002905D145
:100F6000BD4C64680443BC4D6C6004E0BA4C6468DA
:100F70008443B94D6C6070BD70B5024620241440A6
:100F8000630920251446AC430125A5402846002BC3
:100F900013D0002908D0B04DED7D0543ECB2AE4D25
:100FA000ED7DAD4EF47515E0AB4DED7D85432C46E2
:100FB000A94DED7DA84EF4750CE0002905D0A64C96
:100FC000E4680443A44DEC6004E0A34CE46884436B
:100FD000A14DEC6070BD30B50B4620240440610982
:100FE00020250446AC430125A5402A468C00994D96
:100FF0002C592276150A6576150CA576150EE57620
:10100000002B0AD08C00934D2C592271150A657162
:10101000150CA571150EE57109E08C008D4D2C594C
:101020002272150A6572150CA572150EE57230BD97
:1010300010B520230340590920240346A34301246B
:101040009C4022468B00834CE3581A73140A5C734D
:10105000140C9C73140EDC7310BD10B520230340D8
:10106000590920240346A34301249C4022468B00B7
:10107000784CE3581A71140A5C71140C9C71140EAC
:10108000DC7110BD10B5202303405909202403460C
:10109000A34301249C4022468B006E4CE3581A72F5
:1010A000140A5C72140C9C72140EDC7210BD30B504
:1010B000014620200840420920240846A04301247C
:1010C000844023469000634C20584030102404197B
:1010D0002578284665782D022843A5782D042843D5
:1010E000E478240620431840002801D0012030BDB8
:1010F0000020FCE7F0B503460C46154620221A40B6
:10110000500920261A46B243012696403146002C4B
:101110000BD182004F4EB258403211720E0A5672F5
:101120000E0C96720E0ED6720AE08200494EB2582C
:10113000403211710E0A56710E0C96710E0ED67158
:10114000002D0BD18200434EB258203211760E0A88
:1011500056760E0C96760E0ED6760AE082003D4E3E
:10116000B258203211750E0A56750E0C96750E0E79
:10117000D6758200374EB258203211710E0A567160
:101180000E0C96710E0ED6710022002A05DBD706D2
:10119000FF0E0126BE40314F3E6000BFF0BD10B5CE
:1011A00020230340590920240346A34301249C40E3
:1011B00022468B00274CE35820331A72140A5C72C3
:1011C000140C9C72140EDC7210BD70B500243CE04F
:1011D000A000204908584030142141180A781046D0
:1011E0004A78120210438A7812041043C97809061B
:1011F0000843A100174A515820310A46137819466E
:1012000053781B02194393781B041943D2781206B2
:10121000114308400546002D00D114E00C48006839
:10122000002804D029462046094A12689047A000A9
:101230000849085840300575290A4175290C8175FF
:10124000290EC17500BF601CC4B2022CC0DB70BD8A
:1012500068000020600000204010005000E100E025
:101260000146083141600021C943816001460831CF
:10127000C160016100210160704700210161704778
:1012800042684A6093688B60936859609160086116
:1012900003685B1C0360704710B502460B685C1C5A
:1012A000002C01D1106907E01046083000E04068CA
:1012B000446824689C42FAD944684C604C68A16038
:1012C000886041600A611468641C146010BD0146A6
:1012D0000A694B68886898608B68486858605068ED
:1012E000884201D188685060002008611068401E63
:1012F000106010687047000070B505460E462C4619
:10130000002C02D172B600BFFEE702F055FB216C43
:10131000E06B48432168401860600020A0632068AB
:10132000A060E06B401E216C484321684018E060DB
:101330000020C0436064A064002E10D12069002802
:1013400001D1012000E00020002810D120461030FB
:1013500001F08AFB01280AD102F025FB07E02046B4
:101360001030FFF77DFF20462430FFF779FF02F0B1
:101370002EFB012070BDFEB507460D4600200090F3
:10138000002F01D0012000E00020002802D172B619
:1013900000BFFEE7002D02D10020019003E0384697
:1013A0006843401C019001990846503002F0DCF976
:1013B0000646002E10D03446002D01D1246002E0F4
:1013C000304650302060E763256401212046FFF756
:1013D00093FF0020E06400940098002802D172B6C8
:1013E00000BFFEE70098FEBDF8B504460E46154660
:1013F0000027206C002809D12068002831D16068BE
:1014000001F079FC0746002060602AE0002D0FD132
:101410003146226CA06804F0D5FE216CA06840180B
:10142000A0606168A06888421BD32068A06018E0B3
:101430003146226CE06804F0C5FE216CE068401A79
:10144000E0602168E068884203D2216C6068401A3D
:10145000E060022D05D1A06B002802D0A06B401ED9
:10146000A063A06B401CA0633846F8BD73B50D4661
:101470000098C46C0026002C02D172B600BFFEE7B3
:10148000A06BE16B884201D2012000E0002000281F
:1014900002D172B600BFFEE7A06BE16B88421CD29E
:1014A0002A4669462046FFF79FFF0646A06C401C6F
:1014B00000280FD1606A002801D1012000E000203F
:1014C00000280AD12046243001F0CEFA002804D0AA
:1014D000012602E0A06C401CA06430467CBD10B523
:1014E000044602F069FA20E0E06C002808D00021F0
:1014F0002046FFF7BBFF012814D101F08CFB11E05F
:10150000606A002801D1012000E00020002808D1F5
:101510002046243001F0A8FA002803D001F07BFB1C
:1015200000E005E0A06C401EA064A06C0028DBDC9D
:1015300000BF0020C043A06402F049FA02F03CFA68
:1015400014E02069002801D1012000E000200028DB
:101550000BD12046103001F087FA002801D001F0AD
:101560005AFB606C401E606400E002E0606C002882
:10157000E7DC00BF0020C043606402F028FA10BD21
:1015800070B5054602F018FAA86BE96B884201D1E4
:10159000012400E0002402F01AFA204670BDFFB5D5
:1015A00083B006461D46002002903446002C02D12E
:1015B00072B600BFFEE70498002802D1206C002814
:1015C00001D1012000E00020002802D172B600BF46
:1015D000FEE7022D02D1E06B012801D1012000E0DD
:1015E0000020002802D172B600BFFEE701F035FBF3
:1015F000002802D10598002801D1012000E0002038
:10160000002802D172B600BFFEE700BF02F0D4F995
:10161000A06BE16B884201D3022D2BD12A462046D4
:101620000499FFF7E1FE0746E06C002808D0294640
:101630002046FFF71BFF012817D102F0B4F914E090
:10164000606A002801D1012000E00020002808D1B4
:101650002046243001F008FA012806D102F0A3F94F
:1016600003E0002F01D002F09EF902F0B0F9012052
:1016700007B0F0BD0598002803D102F0A8F90020BA
:10168000F6E70298002804D1684601F083FA0120A9
:10169000029002F09CF900F04DFE02F08DF9606CB2
:1016A000401C002800D16064A06C401C002800D1C0
:1016B000A06402F08CF905A9684601F077FA0028C9
:1016C00019D12046FFF75CFF00280ED020461030CD
:1016D000059901F054F92046FFF701FF00F07DFD68
:1016E000002893D102F05FF990E72046FFF7F7FE5C
:1016F00000F073FD8AE72046FFF7F1FE00F06DFD74
:101700000020B5E770B50546502002F02DF80446DC
:10171000002C1CD0002060602060A060E060A0630E
:101720000120E06300202064401E6064A06400206B
:10173000E06420461030FFF793FD20462430FFF789
:101740008FFD00231A4619462046FFF728FF002C7C
:1017500002D172B600BFFEE7204670BD70B50646E6
:101760003446002C02D172B600BFFEE701F072FAD7
:10177000616888420DD1E068401EE060E0680028A2
:1017800005D100231A4619462046FFF708FF012518
:1017900000E00025284670BD70B5054602F00CF942
:1017A000A86B002801D1012400E0002402F00FF909
:1017B000204670BD70B504460D46206C00280ED042
:1017C000216CE0684018E0606168E068884201D3FD
:1017D0002068E0602846226CE16804F0F3FC70BDEC
:1017E000FFB583B005460E46002002902C46002C23
:1017F00002D172B600BFFEE7002E02D1206C002895
:1018000001D1012000E00020002802D172B600BF03
:10181000FEE701F022FA002802D10598002801D144
:10182000012000E00020002802D172B600BFFEE7D0
:1018300000BF02F0C1F8A06B002837D0E76831463E
:101840002046FFF7B7FF0698002819D1A06B401E6D
:10185000A0632068002802D101F097FA6060206937
:10186000002801D1012000E00020002819D12046E5
:10187000103001F0F9F8012813D102F094F810E0CB
:10188000E760606A002801D1012000E00020002804
:1018900007D12046243001F0E7F8002801D002F0FB
:1018A00082F802F094F8012007B0F0BD05980028F6
:1018B00003D102F08CF80020F6E70298002804D14A
:1018C000684601F067F90120029002F080F800F00C
:1018D00031FD02F071F8606C401C002800D160649A
:1018E000A06C401C002800D1A06402F070F805A98B
:1018F000684601F05BF9002823D12046FFF74CFF32
:10190000002818D02068002806D102F055F8606839
:1019100001F0B1F902F05BF820462430059901F09E
:101920002EF82046FFF7DBFD00F057FC002880D1A1
:1019300002F039F87DE72046FFF7D1FD00F04DFCBD
:1019400077E72046FFF7CBFD00F047FC0020ABE730
:10195000F8B506460F463446002C02D172B600BFD9
:10196000FEE701F077F96168884204D1E068401C25
:10197000E06001250BE000233A4619462046FFF7B8
:101980002FFF0546012D02D1E068401CE06028468B
:10199000F8BD70B505460E46002D01D0012000E0CF
:1019A0000020002802D172B600BFFEE7AE4201D887
:1019B000012000E00020002802D172B600BFFEE73F
:1019C000022200212846FFF7D6FC0446002C00D056
:1019D000A663002C02D172B600BFFEE7204670BDA0
:1019E000FFB583B0074615461E463C46002C02D183
:1019F00072B600BFFEE70498002802D1206C0028D0
:101A000001D1012000E00020002802D172B600BF01
:101A1000FEE7022E02D1E06B012801D1012000E097
:101A20000020002802D172B600BFFEE7FEF762FB7D
:101A30000190A06BE16B884201D3022E2ED1324679
:101A400020460499FFF7D0FCA06C401C00281FD151
:101A5000E06C002809D031462046FFF707FD012839
:101A600019D1002D17D0286015E0606A002801D137
:101A7000012000E0002000280DD12046243000F095
:101A8000F3FF002807D0002D05D00120286002E0D8
:101A9000A06C401CA0640120029001E00020029094
:101AA0000198FEF72BFB029807B0F0BDF8B506468B
:101AB0000D463446002C02D172B600BFFEE7206C02
:101AC000002801D1012000E00020002802D172B6D8
:101AD00000BFFEE72068002802D16068002801D11D
:101AE000012000E00020002802D172B600BFFEE70E
:101AF000FEF700FB0090A06BE16B88422BD2A06B3D
:101B0000401CA063A06C401C00281FD1E06C002882
:101B100009D000212046FFF7A9FC012819D1002D8A
:101B200017D0286015E0606A002801D1012000E08C
:101B3000002000280DD12046243000F095FF002819
:101B400007D0002D05D00120286002E0A06C401CC9
:101B5000A064012700E000270098FEF7CFFA38467E
:101B6000F8BDF7B582B0054616462C46002C02D1CA
:101B700072B600BFFEE70398002802D1206C00284F
:101B800001D1012000E00020002802D172B600BF80
:101B9000FEE7FEF7AFFA0190A06B002822D02046A6
:101BA0000399FFF707FEA06B401EA063606C401C0A
:101BB000002812D12069002801D1012000E0002076
:101BC00000280DD12046103000F04EFF002807D02D
:101BD000002E05D00120306002E0606C401C606483
:101BE000012700E000270198FEF788FA384605B083
:101BF000F0BDF3B581B005462C46002C02D172B67B
:101C000000BFFEE70298002802D1206C002801D115
:101C1000012000E00020002802D172B600BFFEE7DC
:101C2000206C002801D0012000E00020002802D113
:101C300072B600BFFEE7FEF75DFA0090A06B0028C9
:101C400007D0E76820460299FFF7B4FDE760012658
:101C500000E000260098FEF751FA3046FEBD70B550
:101C60000446002C02D172B600BFFEE701F0A4FECC
:101C7000A56B01F0ACFE284670BD70B50446254644
:101C8000002D02D172B600BFFEE701F095FEA96BF0
:101C9000E86B461A01F09BFE304670BD01460029F4
:101CA00002D172B600BFFEE7886B704710B50146DF
:101CB00000200BE0C2005C4BD21852688A4204D16B
:101CC0000022C300584CE25002E0401C0A28F1D325
:101CD00000BF10BD70B504462546002D02D172B676
:101CE00000BFFEE72846FFF7E1FF284601F0C0FDF0
:101CF00070BD0146002902D172B600BFFEE78A6BB3
:101D0000002A01D1012000E000207047014600298F
:101D100002D172B600BFFEE78A6BCB6B9A4201D14B
:101D2000012000E00020704710B5024600200BE0C3
:101D3000C3003D4CE358002B05D1C300E150C30064
:101D40001B195A6002E0401C0A28F1D300BF10BDE5
:101D500070B505460E462C4601F02EFE606C401C08
:101D6000002800D16064A06C401C002800D1A06451
:101D700001F02DFEA06B002804D13146204624300E
:101D800000F058FE2046FFF7AAFB70BD70B5044670
:101D9000002204212046FFF7EEFA0546284670BDD2
:101DA00070B504460E4601F007FEE06C002801D035
:101DB000002506E0A06B002801D0002501E0E664C4
:101DC000012501F004FE284670BDF8B505460F4612
:101DD0002E46F06CB84201D000240BE0B06B002816
:101DE00001D0002406E001F0E7FD0020F06401F0DE
:101DF000EEFD01242046F8BD38B505460C4600200E
:101E000000900023224669462846FFF7E9FC009827
:101E100038BD38B5044600200090002269462046AF
:101E2000FFF79FFE009838BD9C01002010B50024EC
:101E300006E014216143FE4A8818FFF711FA641C7A
:101E40000A2CF6D3FB48FFF70BFAFB48FFF708FA1A
:101E5000FA48FFF705FAFA48FFF702FAF948FFF7E0
:101E6000FFF9F448F8490860F348F849086010BDE4
:101E7000F8B504460F461546002608E0B95D204631
:101E800034308155B85D002800D102E0761C052E63
:101E9000F4D300BF0021382001550A2D00D30925B5
:101EA000E562E56300202064201DFFF7E6F9204687
:101EB0001830FFF7E2F924610A20401BA061646238
:101EC00000206064002148200155F8BDF8B50546A2
:101ED0000F46002F03D1A80001F046FC00E0384671
:101EE0000646002E0BD04C2001F03EFC0446002C90
:101EF00001D0266304E0304601F0BAFC00E0002483
:101F0000002C04D0A900A522206B04F06DF9204616
:101F1000F8BDFFB583B016460C9D0398002802D18A
:101F200072B600BFFEE70A2D01D2012000E00020BA
:101F3000002802D172B600BFFEE730460E99FFF7C7
:101F4000C5FF0446002C5FD0701E8000216B08186E
:101F50000290029880088000029002988007800F0B
:101F6000002801D1012000E00020002802D172B633
:101F700000BFFEE700962A4620460F9B0499FFF714
:101F800077FF069A0399029801F0D2FC20600D9821
:101F9000002801D00D98046001F00EFDAC480068E7
:101FA000401CAB490860AB480068002808D1A9482C
:101FB00004600846006801280DD1FFF737FF0AE0EA
:101FC000A5480068002806D1A2480068C06AA84257
:101FD00001D8A0480460A1480068401C9F490860DF
:101FE0009F49E06A0968884202D99D49E06A086011
:101FF0001422E16A51438E4A8818211DFFF740F9E7
:10200000012701F0E4FC01E00027FF43012F0AD182
:1020100091480068002806D08E480068C06AA8422F
:1020200001D201F0C0FC384607B0F0BD864909680E
:102030000968002901D1012100E00021002904D014
:102040000021C943874A116006E07F490968C968D1
:10205000C868844A41681160704770B5054601F050
:10206000ABFC002D02D17B48006800E02846044606
:10207000201DFFF72CF9A06A002803D02046183055
:10208000FFF725F9211D6E48FFF7FAF8764800683A
:10209000401C7549086071480068401C6F49086021
:1020A00001F095FC6C480068002818D06948006869
:1020B00084420ED16D480068002801D1012000E063
:1020C0000020002802D172B600BFFEE701F06BFCD1
:1020D00005E001F071FCFFF7A9FF01F078FC70BD8D
:1020E000F8B50020009061480068002868D1604879
:1020F0000068401C5E49086008460668002E1CD136
:10210000514800680068002801D1012000E000204B
:10211000002802D172B600BFFEE74B4807684B4863
:102120000068494908604948076052480068401CF7
:1021300050490860FFF77AFF00BF4A4800688642AE
:102140003DD300BF404800680068002801D101204D
:1021500000E00020002804D00020C043414908606E
:102160002CE039480068C068C4686568AE4202D295
:102170003C48056022E0201DFFF7A9F8A06A00286E
:1021800003D020461830FFF7A2F83549E06A096805
:10219000884202D93249E06A08601422E16A514358
:1021A000234A8818211DFFF76BF82A49E06A09685D
:1021B000C96A8842C6D301200090C3E700BF04E08B
:1021C0002D480068401C2C4908602C4800680028F5
:1021D00001D0012000900098F8BD70B5002523487B
:1021E0000068002802D172B600BFFEE701F0E4FBF0
:1021F0001E480068401E1D49086008460068002807
:1022000075D113480068002871D04BE00B48C068B6
:10221000C46820461830FFF75AF8201DFFF757F81A
:102220000F49E06A096888422BD90D49E06A27E026
:10223000EC010020B4020020C8020020DC020020D3
:10224000F002002004030020700000207400002031
:10225000800000206C0000208C0000209C000020EA
:1022600088000020A000002078000020A4000020AA
:10227000840000209800002090000020940000209E
:1022800008601422E16A5143F94A8818211DFEF7BB
:10229000F7FFF849E06A0968C96A884202D3012059
:1022A000F5490860F5480068002801D1012000E0E8
:1022B00000200028AAD0F2480068002810D00BE0C7
:1022C000FFF70EFF002802D00120EB490860EC4820
:1022D0000068401EEA490860E94800680028EFD11C
:1022E000E5480068012802D1012501F05CFB01F0FE
:1022F0006EFB284670BD10B50446DE480068446099
:10230000E0480068844207D2DA480168091DDE48C7
:102310000068FEF7C1FF0CE0D6480168091DDB48E4
:102320000068FEF7B9FFDA480068844201D2D84855
:10233000046010BDD7480068401CD649086070474B
:10234000FEB504460E4600200190002C02D172B664
:1023500000BFFEE7002E01D0012000E00020002891
:1023600002D172B600BFFEE7CA480068002801D15A
:10237000012000E00020002802D172B600BFFEE775
:10238000FFF7D8FFBF4800680090206885192168D2
:102390000098814208D92068A8420DD9009885424A
:1023A0000AD90120019007E02068A84202D80098CD
:1023B000854201D90120019025600198002807D0AD
:1023C000AC480068001DFEF782FF2846FFF793FF28
:1023D000FFF703FF0746002F01D101F0E4FAFEBD2D
:1023E00070B504460026002C1BD0AA4800680028BF
:1023F00001D1012000E00020002802D172B600BF08
:10240000FEE7FFF797FF9F480068051999480068A5
:10241000001DFEF75CFF2846FFF76DFFFFF7DDFEAE
:102420000646002E01D101F0BEFA70BDF8B5074690
:102430003E46002E02D172B600BFFEE78D4800680E
:10244000864201D100241EE001F0B6FA756901F060
:10245000BEFA8E480068854203D08B4800688542EA
:1024600001D102240FE08C48854206D1B06A0028D1
:1024700001D1032407E0022405E08848854201D108
:10248000042400E001242046F8BD70B5044601F0A4
:1024900093FA002C02D17748006800E020460646F7
:1024A000F56A01F094FA284670BDF8B50446FDF7C8
:1024B00021FE0746002C02D16E48006800E020464D
:1024C0000646F56A3846FDF719FE2846F8BDFEB502
:1024D00007460D46002000900A2D01D2012000E0A1
:1024E0000020002802D172B600BFFEE70A2D00D3FB
:1024F000092501F061FA002F02D15E48006800E072
:1025000038460446E66BAE4249D0B5420BD959482D
:10251000006884420DD057480068C06AA84208D8B5
:102520000120009005E053480068844201D1012059
:102530000090E06A0190E16AE06B884200D1E562B8
:10254000E563A069C00FC007002802D10A20401B24
:10255000A0616169142201985043454A8018814264
:1025600001D1012000E00020002812D0201DFEF73C
:10257000AEFE4B49E06A0968884202D94849E06AE0
:1025800008601422E16A5143394A8818211DFEF778
:1025900077FE0098012801D101F005FA00BF01F093
:1025A00016FAFEBD3B480068002803D001203249DE
:1025B000086032E00020304908600BE038480068CD
:1025C000002802D172B600BFFEE735480068401E01
:1025D00033490860324800681421484324490858A8
:1025E000002801D1012000E000200028E6D12C497C
:1025F0000968142251431E4A88184168496841609D
:102600000146083142688A4202D141684968416006
:102610004168C968174A116000BF704770B5054628
:1026200001F0CAF9002D02D11248006800E02846E6
:102630000446201DFEF74BFEA06A002803D020466A
:102640001830FEF744FE211D1348FEF719FE01F075
:10265000BEF90848006884423CD11248006800284E
:102660002BD00C48006800281ED101201DE000007E
:10267000EC0100206C00002094000020DC0200200F
:1026800090000020840000207400002070000020D2
:10269000A0000020A400002004030020F00200207D
:1026A000880000208C0000200020002802D172B693
:1026B00000BFFEE701F077F916E0FE480068FE492A
:1026C0000968884203D10020FC4908600CE0FFF74C
:1026D00069FF09E0FA480068002805D001F06CF9AC
:1026E000FFF7A4FC01F073F970BD10B5024600209D
:1026F0001146002A02D172B600BFFEE7ED4C4B69CD
:10270000A34201D1012300E00023002B11D0ED4CA6
:102710008B6AA34201D1012300E00023002B08D1E2
:102720008B6A002B01D1012300E00023002B00D095
:10273000012010BD70B505462C46002D02D172B6A1
:1027400000BFFEE7002C27D0DC480068844223D07D
:1027500001F032F92046FFF7C8FF01281AD1201DE9
:10276000FEF7B5FDD849E06A0968884202D9D64922
:10277000E06A08601422E16A5143D44A8818211D96
:10278000FEF77EFDCD49E06A0968C96A884201D337
:1027900001F009F901F01BF970BDF8B505460026F6
:1027A0002C46002D02D172B600BFFEE7FDF7A2FC59
:1027B00007462046FFF799FF012823D1C448006847
:1027C00000281AD1BD49E06A0968C96A884200D365
:1027D0000126201DFEF77BFDBB49E06A096888429F
:1027E00002D9B949E06A08601422E16A5143B74A44
:1027F0008818211DFEF744FD04E021461831B14838
:10280000FEF73EFD3846FDF779FC3046F8BD10B5C1
:102810000446206B01F02CF8204601F029F810BD89
:1028200070B525E0FFF786FDAA480068002801D1B1
:10283000012000E000200546FFF7CFFC002D17D156
:1028400001F0BAF8A348C068C468201DFEF73FFD38
:1028500099480068401E984908609F480068401EDB
:102860009D49086001F0B3F82046FFF7D0FF00BF94
:10287000994800680028D5D170BD00BFFFF7D0FF90
:10288000924800680128F9D901F08DF8F6E71FB5E4
:102890000020924A00900290034601920390802209
:1028A0008FA19148FFF735FB0446012C02D100F0BF
:1028B00020FE0446012C09D172B60120804908602F
:1028C00000208A49086001F047F804E0002C02D19A
:1028D00072B600BFFEE71FBD10B572B60020784982
:1028E000086001F051F810BD10B501F065F87F489F
:1028F000046801F06CF8204610BD70B5FDF7FAFBD6
:1029000005467A4804682846FDF7F8FB204670BD66
:102910006948006870470146002902D1674800688D
:1029200000E008460246002A02D172B600BFFEE768
:1029300010463430704769480068002801D00120F3
:1029400000E00020002802D172B600BFFEE7634815
:1029500000687047654909680918654A126891421C
:1029600001D8012100E00021002902D172B600BF88
:10297000FEE75E49096809185C4A1160704770B546
:1029800005460C46002D02D172B600BFFEE74B484B
:10299000016818312846FEF77FFC48480068001D92
:1029A000FEF795FC601C002806D144480168091D0B
:1029B0004048FEF765FC05E04C48006806193046C3
:1029C000FFF799FC70BDF8B505460E461446002D7C
:1029D00002D172B600BFFEE73D480068002801D072
:1029E000012000E00020002802D172B600BFFEE7FF
:1029F0000120C00730433149096888612F480168C8
:102A000018312846FEF73CFC2C480068001DFEF7F4
:102A10005EFC601C002806D128480168091D254875
:102A2000FEF72EFC05E03148006807193846FFF72D
:102A300062FCF8BD70B504460D46002C02D172B69A
:102A400000BFFEE71D48016818312046FEF718FC5C
:102A50001A480068001DFEF73AFC24480068461931
:102A60003046FFF748FC70BD70B50646F068C46894
:102A7000002C02D172B600BFFEE720461830FEF7E8
:102A800026FC13480068002834D1201DFEF71FFCE7
:102A90000D49E06A0968884202D90B49E06A08607A
:102AA0001422E16A5143094A8818211DFEF7E8FB08
:102AB00025E0000004030020800000206C000020BE
:102AC0008C000020DC02002088000020EC010020A7
:102AD000A4000020F0020020780000207C000020EC
:102AE00049444C45000000007B2800108400002071
:102AF000A000002021461831FB48FEF7C1FBFB492E
:102B0000E06A0968C96A884204D901250120F849A8
:102B1000086000E00025284670BDF8B505460F4660
:102B2000F4480068002801D0012000E000200028BF
:102B300002D172B600BFFEE70120C007384328600B
:102B4000EC68002C02D172B600BFFEE72846FEF703
:102B5000BEFB201DFEF7BBFBE749E06A096888421F
:102B600002D9E549E06A08601422E16A5143E34A68
:102B70008818211DFEF784FBDC49E06A0968C96AF0
:102B8000884204D901260120D949086000E00026C6
:102B90003046F8BD002802D172B600BFFEE7D84922
:102BA00009680160D74909684160704770B50446FB
:102BB0000D46002C02D172B600BFFEE7002D02D1F7
:102BC00072B600BFFEE700F0F7FECE480268286844
:102BD000401C002801D1002619E0C9492068096875
:102BE000884204D06068904201D801260FE06068F6
:102BF000101A2968884209D228686168511A401A57
:102C000028602046FFF7C6FF002600E0012600F0FE
:102C1000DEFE304670BD0120B549086070470246AF
:102C2000002101E0521C491C1078A528FAD089081F
:102C300088B27047F8B50446002C02D1AB48006852
:102C400000E0204607463D6B2846FFF7E8FF0646B2
:102C50003046F8BDA54908687047AB4909680029A6
:102C600001D1012006E0A3490968002901D1022011
:102C700000E00020704770B505462C46002D39D085
:102C80009A49E06A0968C96A884233D2A069C00FCC
:102C9000C007002805D195480068C06A0A21081AB3
:102CA000A0611422E06A5043944A8018616981420D
:102CB00001D1012000E00020002817D0201DFEF7E0
:102CC00006FB8A480068C06AE0628B49E06A0968CE
:102CD000884202D98849E06A08601422E16A5143B7
:102CE000864A8818211DFEF7CBFA03E07F4800686A
:102CF000C06AE06270BD70B505462C460026002D06
:102D000035D07A480068844201D1012000E00020DB
:102D1000002802D172B600BFFEE7206C002802D165
:102D200072B600BFFEE7206C401E2064E16BE06AD3
:102D300088421CD0206C002819D1201DFEF7C7FA4C
:102D4000E06BE0620A21E06A081AA0616A49E06A61
:102D50000968884202D96849E06A08601422E16A79
:102D60005143664A8818211DFEF78AFA012630462B
:102D700070BD5E49096888695C490968C96A0A22A8
:102D8000511A5A4A126891617047584800680028E1
:102D900006D05649096808464030096C491C016054
:102DA000524800687047F8B506460C4600F004FE2D
:102DB0004E480068406C00281DD101214B48006836
:102DC00040300172002C16D048480068001DFEF704
:102DD0007EFA601C002806D144480168091D4B4852
:102DE000FEF74EFA05E04748006807193846FFF736
:102DF00082FA00F0D8FD00F0EAFD00F0DDFD3B486E
:102E00000068456C002D0DD0002E04D000203749FD
:102E10000968486406E03549096808464430496C49
:102E2000491E01600021314800684030017200F005
:102E3000CEFD2846F8BDFFB581B0074615461C46B5
:102E400000F0BAFD294800684030007A022825D0F9
:102E50002649096808464430496CB943016001219C
:102E60002248006840300172002C17D01F480068CB
:102E7000001DFEF72CFA601C002806D11B480168D3
:102E8000091D2248FEF7FCF906E01E4800680019FB
:102E900000900098FFF72FFA00F085FD00F097FDF5
:102EA00000F08AFD002D03D010480068406C2860B7
:102EB0000E4800684030007A012801D1002608E061
:102EC0000A490968084644304A6C02998A430260FC
:102ED00001260021054800684030017200F077FDAE
:102EE000304605B0F0BD0000DC0200206C00002080
:102EF00094000020A400002088000020EC010020A5
:102F000098000020840000208C0000200403002092
:102F1000FFB583B007460D46164601200190002FED
:102F200002D172B600BFFEE73C4600F045FD0698B0
:102F3000002802D0616C069801604820005D029074
:102F4000022148200155330003F03BFD051604081B
:102F50000C0E1700606C284360640EE0606C401C2F
:102F600060640AE0656408E00298022801D06564A4
:102F700001E00020019000E000BF00BF029801289E
:102F800025D1201DFEF7A3F97049E06A096888423F
:102F900002D96E49E06A08601422E16A51436C4A22
:102FA0008818211DFEF76CF9A06A002801D10120C4
:102FB00000E00020002802D172B600BFFEE765499C
:102FC000E06A0968C96A884201D900F0ECFC00F0A7
:102FD000FEFC019807B0F0BDFFB583B005460E4674
:102FE000174601200190002D02D172B600BFFEE706
:102FF0002C46FDF77FF800904820005D02900221EA
:10300000482001553B0003F0DCFC051604080C0EBB
:103010001700606C304360640EE0606C401C6064BC
:103020000AE0666408E00298022801D0666401E0C4
:103030000020019000E000BF00BF0298012833D1BA
:10304000A06A002801D1012000E00020002802D160
:1030500072B600BFFEE740480068002813D1201D6B
:10306000FEF735F93949E06A0968884202D93749DB
:10307000E06A08601422E16A5143354A8818211D2C
:10308000FEF7FEF804E0214618313448FEF7F8F860
:103090003049E06A0968C96A884205D9069800285B
:1030A00002D00121069801600098FDF727F80198E9
:1030B00007B0F0BDF8B505460E46002D02D172B638
:1030C00000BFFEE72C46FDF715F800904820075D8D
:1030D00002210155606C401C6064012F31D1A06A4F
:1030E000002801D1012000E00020002802D172B6A2
:1030F00000BFFEE718480068002813D1201DFEF726
:10310000E6F81249E06A0968884202D90F49E06A84
:1031100008601422E16A51430D4A8818211DFEF708
:10312000AFF804E0214618310C48FEF7A9F8094928
:10313000E06A0968C96A884203D9002E01D00120DB
:1031400030600098FCF7DAFFF8BD0000880000202E
:10315000EC0100206C000020A4000020DC02002014
:10316000F8B504460D4616461F46002000906560DF
:103170002461B5420CD8F01BA169884202D301201A
:10318000009011E0211DF9480068FEF785F80BE07A
:10319000BE4204D2BD4202D30120009004E0211DB2
:1031A000F3480068FEF778F80098F8BDF0B585B0F0
:1031B00005460C4616461F4600200490ED48006860
:1031C000002822D0009401960295062C15DAFFF70C
:1031D00044FD022808D100236946E6480A9A00689F
:1031E000FEF7DDF9049010E000231A466946E14835
:1031F0000068FEF7D4F9049007E000233A466946D8
:10320000DC480068FEF7ECFB0490049805B0F0BDC4
:10321000FEB52BE0D6480068C0680568D448006851
:10322000C068C468201DFEF752F82046616A8847CE
:10323000E06901281AD1A0694619AE4207D9666033
:103240002461211DCA480068FEF726F80EE0002020
:1032500003462A46014600902046FFF7A7FF07468F
:10326000002F02D172B600BFFEE700BFC048006861
:103270000068002801D1012000E000200028C9D00A
:10328000BB4800680190B9480068B9490860B7496F
:1032900001980860FEBD70B50446FFF725FB0546A2
:1032A000B5480068854204D2FFF7B2FF01202060D4
:1032B00001E000202060B0480560284670BDF0B5F0
:1032C00087B06EE0039800280ADA04AF002F02D11D
:1032D00072B600BFFEE73A68B9687868904700BFE9
:1032E000039800285DDB059C6069002801D101205E
:1032F00000E00020002802D1201DFDF7E8FF02A811
:10330000FFF7C9FF05460398030003F05AFB0A0ABA
:1033100006082C2E4407092D2F4800BF00BF00BF10
:1033200000BF0498A269811803462A462046FFF789
:1033300017FF012816D12046616A8847E0690128F5
:1033400010D1002000900498A1694218002319466A
:103350002046FFF72BFF0646002E02D172B600BFB3
:10336000FEE700BF1CE000BF1AE000BF0498A061A8
:10337000A069002801D0012000E00020002802D12F
:1033800072B600BFFEE7A06941192B462A462046C7
:10339000FFF7E6FE04E0204600F06AFA00E000BF16
:1033A00000BF00231A4603A972480068FEF718FA06
:1033B000002887D107B0F0BDF8B505460F466C4828
:1033C0000068C068C468201DFDF781FFE06901281E
:1033D00017D1A06941192B463A462046FFF7C0FE97
:1033E00001280ED1002003462A46014600902046BF
:1033F000FFF7DCFE0646002E02D172B600BFFEE7E4
:1034000000BF2046616A8847F8BDF8B504460E46FD
:10341000FEF790FF6846FFF73EFF0546009800283C
:1034200016D1002E08D1AC4206D8FEF7D6FE2946AA
:103430002046FFF7C1FF0DE0611B4E480068FEF714
:1034400087FCFEF7CAFE002804D100F0ACFA01E0C8
:10345000FEF7C3FEF8BD0146454A12681268002A0D
:1034600001D1012200E000220A600A68002A04D18A
:103470003F4A1268D268106800E00020704708B523
:1034800000BF6846FFF7E7FF044620460099FFF7B4
:10349000BCFFFFF714FFF4E710B500F08DFA3548D4
:1034A0000068002822D13548FDF7DAFE3448FDF7E0
:1034B000D7FE32482E49086031482C490860002266
:1034C00010212020FDF757FF2A49086008460068B0
:1034D000002802D172B600BFFEE726480068002827
:1034E00004D028A123480068FEF71EFC00F06FFA04
:1034F00010BD1FB50024FFF7CFFF1E48006800284D
:103500000DD00020214A05230290009301920390E0
:10351000034650221EA12048FEF7FBFC0446002C67
:1035200002D172B600BFFEE7204604B010BDFFB561
:1035300081B006460D461746002D01D1002411E04A
:10354000282000F011F90446002C0BD0FFF7A4FF4F
:103550002660A561E761049820620A986062201DD8
:10356000FDF78BFE002D19D0012018E0AC000020E3
:10357000A8000020B0000020B800002018030020A0
:103580002C030020546D725100000000B400002094
:10359000546D7220537663007F34001000200028A1
:1035A00002D172B600BFFEE7204605B0F0BD3B4831
:1035B0000068002801D0012000E00020002802D18E
:1035C00072B600BFFEE735480068704701460A46FC
:1035D0001068704770B50446264600F0EDF9706932
:1035E000002801D1012000E00020012105464D40C6
:1035F00000F0EDF9284670BD70B504462646002C53
:1036000002D172B600BFFEE700F0D6F9356A00F0CD
:10361000DEF9284670BD70B504460D462646002CDE
:1036200002D172B600BFFEE700F0C6F9356200F0C5
:10363000CEF970BDF0B585B004460D4616461F465E
:103640000120C043019002940395049600233A465A
:1036500001A913480068FEF7C3F90090009805B06F
:10366000F0BDFFB585B004460D4616460C4800680F
:10367000002802D172B600BFFEE70020C0430190CF
:10368000029403950496002301A90548089A00684E
:10369000FDF785FF0746384609B0F0BDB4000020AD
:1036A000B000002010B50146934800E000680368B0
:1036B0008B42FBD3024643689B188B4204D143687C
:1036C0004C681B19436001460A464B689B18046806
:1036D000A34211D1894C03682468A34208D04B68E7
:1036E000046864681B194B6003681B680B6005E085
:1036F000824B1B680B6001E003680B60884200D0BE
:10370000016010BD30B501235B037D488407A40F21
:10371000002C05D0C01C80088000794C041B1B1BAA
:103720000246754C22600024734D6C60D018083836
:1037300080088000714C20600024704D2D686C6002
:103740006E4D2D682C601146441A4C606B4C2468F9
:103750000C606C4D4C682C606B4D4C682C600124E7
:10376000E4076A4D2C6030BDF8B504460020009097
:10377000FEF7E0FD61480068002801D1FFF7C2FFB5
:10378000624800682040002861D1002C15D0083420
:10379000A007800F002810D0A007800F0421081A6E
:1037A0000419A007800F002801D1012000E00020AB
:1037B000002802D172B600BFFEE7002C47D0524865
:1037C0000068844243D84C4E3046056801E02E46DE
:1037D0002D686868A04202D228680028F7D14748BF
:1037E0000068854233D03068083000902868306027
:1037F0006868001B102813D92F19B807800F0028FC
:1038000001D1012000E00020002802D172B600BFE3
:10381000FEE76868001B78606C603846FFF742FF7F
:10382000394968680968081A374908600846006815
:1038300034490968884203D2334800683149086036
:103840003249686809680843686000202860FEF70C
:10385000C4FC00988007800F002801D1012000E0FF
:103860000020002802D172B600BFFEE70098F8BD24
:1038700070B506463546002E35D0083D2C46234906
:10388000606809680840002801D0012000E000209D
:10389000002802D172B600BFFEE72068002801D1DF
:1038A000012000E00020002802D172B600BFFEE730
:1038B0001649606809680840002814D0206800286C
:1038C00011D112496068096888436060FEF732FDD3
:1038D0000D496068096840180B4908602046FFF7E9
:1038E000E1FEFEF77AFC70BD0748006870470548A6
:1038F0000068704770470000BC000020C400002032
:1039000040030020CC000020C8000020D000002090
:1039100040480068401C002801D1012000E0002040
:10392000002802D172B600BFFEE772B600BFFEE704
:10393000001F01231B060360001F0160001F364BA0
:1039400003601438026020387047704733483449A8
:10395000486107200861704710B53248006AFF21AE
:10396000090408432F4908620846006AFF21090636
:1039700008432C490862FFF7E9FF00202549086049
:10398000FCF7A8FB002010BD224800687D21C9007B
:10399000884201D1012000E00020002802D172B647
:1039A00000BFFEE77047012000071E494860BFF3D3
:1039B0004F8FBFF36F8F704772B616480068401C78
:1039C00014490860BFF34F8FBFF36F8F70471148E2
:1039D0000068002802D172B600BFFEE70D480068FB
:1039E000401E0C49086008460068002800D162B6F5
:1039F000704710B5FCF77EFB0446FEF771FB00280C
:103A000003D001200007074948602046FCF776FBF9
:103A100010BD0000D400002011390010FFF9000093
:103A200000E000E000ED00E0044880470448004763
:103A3000FEE7FEE7FEE7FEE7FEE7FEE74D3A001091
:103A4000C10000100348044908607047014802495A
:103A5000086070470090D003D8000020FE49202263
:103A600008781043EF22104004221043087070477A
:103A700010B5FA488047002802D001F086FF0120E7
:103A800010BDF6480A300047F44928310847F34989
:103A90003C310847F1496C310847F1490847F04982
:103AA0005C310847EE496A310847ED4976310847ED
:103AB000EB4986310847EA4994310847E849A23181
:103AC0000847E749AE31084730B4E64CA44630BC5D
:103AD0006047E44874300047E3480047F8B5E34DD9
:103AE000CF222968E24C0878002610400870206830
:103AF000E04918308847286822680178127F090950
:103B000012070901120F114301700907090FBF279E
:103B1000012921687ED00A4622314B7809781B02A0
:103B20000B43114620310B711B0A4B710378117A3C
:103B30003B4089010B435906490E017022684178C8
:103B40004032127A8909921D92068901920E114320
:103B5000417021680622801C093102F033FB216884
:103B60004820425C002A04D028684931083002F01D
:103B700029FB2168BF4A7020405C323A713190477E
:103B80002868BD4A41788906890E891C90472868B3
:103B9000017809090901091D017022683940127A6A
:103BA000D207520E11430170226841782032127AF6
:103BB0008909921D92068901920E11434170216874
:103BC0000622801C093102F0FDFA21682820425C9F
:103BD00028682931083002F0F5FA2868A74A4178A8
:103BE0008906890E891C9047256800206F7F012176
:103BF00081400F4204D0E97F0B2251438E19761C7D
:103C0000401C0328F3D32C4620346078217800022E
:103C1000084300E019E013214843401CB04206D29B
:103C2000701E02F0A5FA401C2070000A60706078D7
:103C3000217800020843022803D2022020700020CD
:103C40006070287F012824D03AE00B4620318A7921
:103C5000CA71197A0278C9073A40490E0A430270BC
:103C600051062268490E6032127CD2011143017064
:103C700041780622890989010C3141702168801C34
:103C8000093102F09FFA2868216806220830713154
:103C90006DE7E079002813D06078227801021143A3
:103CA00013204143A079491CC00302F061FA401C73
:103CB00006467F2102F05CFA401CC1B2E1711EE0B1
:103CC000607921790002084331D0607822780102BE
:103CD00011431320414328462230427803781002D2
:103CE0001843C003491C02F043FA401C06467F21DA
:103CF00002F03EFA401C81B22171080A6071304620
:103D000002F036FA401C7F2800D97F200121E97596
:103D1000A97F00916178237809021943584CEA7F02
:103D2000C0B23B46A047564834308047F8BD00201B
:103D3000544CE875034602460121A047F8BD4A49A4
:103D40001A3108474848F43000474F48004738B513
:103D5000049C00944C4C0E34A04738BD30B44A4CFF
:103D6000E834A44630BC604710B501F0F9FE10BD40
:103D700010B501F011FF10BD4349A4310847434875
:103D800000474248323000474049463108473F49E2
:103D9000B23108473D49C23108473C4AD03210474A
:103DA00010B500F0E3FD10BD3849FC310847384933
:103DB000084737490E31084735493631084710B5AD
:103DC00001F0B4F810BD3349084729480068817CE8
:103DD000427C0802104308D01F4A02201178014398
:103DE0000120014311702B4908477047F8B51A4864
:103DF000C079000679D51E480668B17C707C0F0238
:103E000007431548057801D0A80701D468076CD589
:103E1000114C207BE17A0002E41C084365D0002F9E
:103E200063D060782178000208434DD1307CF17B6B
:103E30000002084302F012FC0022174B02F012FBB2
:103E400002F01AFC80B278430A2102F0A7F940047C
:103E5000010C2170080A21E00A340020DF5600001E
:103E60001558000027590000CD5B0000FC00002021
:103E7000F8000020451D00002B2600004727000009
:103E8000971B000031540000F55C00005B5E0000F1
:103E9000675F0000B56000000000F43F6070307D97
:103EA000F27C000210430A224243914203D3401E97
:103EB0002070000A6070607821780002084303D106
:103EC0000120207000206070FD210D400121F64886
:103ED0000D430570F549002088476078227801027B
:103EE0001143F44BF24A09209847F8BD10B50F2151
:103EF000ED4802F080F910BD7CB50546401C02F08B
:103F000092F9082831D0E84C00263E3C042831D0F4
:103F1000802874D0E449C31F0A78FF3BFA3B18D0CD
:103F200001218903884263D1E2490A20243188476C
:103F300060780621484301190A22681D891C02F095
:103F400041F96078401CC0B260700A2857D366708F
:103F500055E0C879002852D0D00650D4AB796C799E
:103F60001802204301280AD049E001F015FED2488A
:103F7000804744E066702670FFF7B8FF3FE088781E
:103F8000401E0006000E88702AD0C7484B78817901
:103F9000427909021143827A447A12022243401C78
:103FA000012B23D0521A0272120A42721206037AAD
:103FB000120C1A43531A69460B804A80BA490A7B8D
:103FC000C97A12020A4369468A80417B027B080251
:103FD00010436946C880B8496846E83188470EE012
:103FE000087A8870402002430A7008E05218DAE725
:103FF000910604D58004000F01D0FFF7F7FEAF490A
:104000002846C96888477CBD10B50446001D02F0EB
:104010000AF9AA49C860211DA94802F00EF9A94968
:104020002046884710BDA74922310847A549783165
:104030000847A44A803210479C4A7A3A10479B4866
:1040400072380047984900203E390A7849788A42F8
:1040500000D90A200818801A401EC0B2704700B567
:10406000FFF7F0FF002804D18F4800213E3841704F
:10407000017000BDF8B50E46074693491C4615462B
:1040800001208847002805D023462A463146384675
:1040900001F042FDF8BDF8B50E4604468A491F46B8
:1040A000154601208847002814D0022C03D1FFF7C1
:1040B000C9FF002809D0EAB27C4D3B463146204674
:1040C0006A3DA847012807D004E00A21794B7F4ABE
:1040D000084698470020F8BD022C12D1724C0621E8
:1040E0003E3C20780A46484300193146801C02F0C5
:1040F00069F82078401CC0B220700A2801D3002043
:1041000020700120F8BD70B50D46044611214019FC
:1041100089031646884201D3002070BD6C480068B0
:10412000213002F080F86B4B00193246294698473F
:1041300070BDF8B50646EFF3108472B6644D28687A
:10414000213002F070F88019634A0121904784F30E
:104150001088614F0024F63FEFF3108572B65C487B
:104160000068213002F05FF8311940185B490023E4
:104170000A192021B84785F3108801200003203454
:104180008442E9DBF8BDF7B5070501993F0D002929
:1041900012D0029900290FD04849897800290BD103
:1041A00001997A18012109038A4205D8019A11233D
:1041B00082181B039A4201D90020FEBD0025C41BB2
:1041C000EFF3108672B642480068213002F02BF8F7
:1041D0006119401841493F4B4A192021984786F3FD
:1041E00010880120000320358542E9DB3B48019A15
:1041F000C019029901F0E6FF3349012088470028E1
:104200000AD0EFF3108072B62C4901228C808A709C
:1042100080F310880120FEBD2046FFF78AFFF9E7F2
:104220002249A8310847214AB032104738B5049CCA
:1042300000941E4CB834A04738BD30B41B4CC43475
:10424000A44630BC60471949CC310847174AD432DC
:104250001047164ADC32104730B4144CE434A446FC
:1042600030BC6047114BEC331847104BF433184700
:1042700030B40E4CFC34A44630BC604718490847A3
:104280001748083000471649103108471449D23101
:1042900008471349DA3108471249084711483230B4
:1042A00000471048563000470A340020B56000002F
:1042B000CB3D0010D33300008D5E0000DC000020F9
:1042C000F93E0010B35F0000458500005F4000101C
:1042D000F40000208F1600009F180000CC2300205F
:1042E000B961000017630000F94A1047F8495231DC
:1042F0000847F7495C310847F54964310847F449F4
:104300006C310847F2497631084710B501F0C9FB16
:1043100010BD10B501F060FB10BDED4890300047B6
:10432000EB49A431084730B4EA4CA44630BC60479E
:10433000E748F6300047E8480047E749303108478A
:10434000E54856300047E44860300047E248143002
:104350000047E14822300047DF4872300047DE4B1B
:10436000D6331847DD4B184730B4DC4C6634A446CE
:1043700030BC604730B4DA4CA44630BC6047F8B576
:10438000D8488047D84CA078002809D0A088FFF7EB
:10439000D0FEEFF3108072B60021A17080F3108878
:1043A000D24DE87900282CD0000608D5287840079F
:1043B00005D5FFF71BFD2878FB21084028702878D9
:1043C000CB4FCC4E41060AD5BF21084028700220B1
:1043D0006946088002466B4639460020B047287877
:1043E000C1070ED0400840002870800701D5042086
:1043F00000E005206946088002226B46394600200D
:10440000B0476078C10704D0400840006070A068E1
:104410008047F8BDB8480047B7483A300047B6482B
:1044200052300047B4486A300047B3486E30004706
:10443000B2498A69120A120202434A61087C0122C7
:1044400010430874704710B572B6A24CA047AC4830
:10445000006801214A02104206D1AA48027ED20712
:1044600002D0027E0A43027662B6012010BD70B50A
:1044700004460320000384422AD9A3480326056882
:10448000B603E878002802D0012810D01EE02846A4
:10449000253001F0C8FEA04202D88019A04217D2F0
:1044A000284629300EE08019A04211D20EE028469D
:1044B0002D3001F0B8FEA04202D88019A04207D2E8
:1044C0002846313001F0AFFEA042ECD9012070BD8A
:1044D000002070BD10B572B68C4A904762B610BD10
:1044E00070B514460D460646FFF7C1FF002806D0FA
:1044F00072B62246864B29463046984762B670BD52
:1045000010B572B6824BAE33984762B610BD10B587
:1045100072B67E4CF63CA04762B610BDF7B50025DA
:10452000C80288B00E462C46070C11E008986101BD
:104530000818774B6A4620219847002069460A5C94
:10454000401C5219C0B295B22028F8D3641CA4B202
:10455000BC42EBD3F6060898F60E610108186C4BC6
:104560006A46314698470020694604E00A5C5219C1
:10457000401C95B2C0B2B042F8D30A98854202D12D
:1045800001200BB0F0BD0020FBE7FFB50E46012176
:10459000074609035E4B81B05E4A002098475D499B
:1045A000352208468C3801F00DFE5A48833801F058
:1045B0003AFE58495722441856482146573801F0C8
:1045C00001FE2021601C01F016FE0025002F10D0F6
:1045D0000020395C00290AD02218401CC0B251705A
:1045E0002028F6D305E02118401C4D70C0B22028C9
:1045F000F9D320460521213001F0FDFD002E12D017
:104600000020315C00290CD022182032401CC0B29E
:1046100051700528F5D306E021182031401C4D705B
:10462000C0B20528F8D321462631039801F005FED3
:104630002146223104980872000A48720121334A47
:104640002570002090470121314B09030020314A99
:10465000AE339847012005B0F0BD2F4A10472E4ACF
:10466000223A1047FEB50278002A7DD01F49CA7150
:1046700042780A72002A01D0042A01D904220A725F
:10468000C278847813022343184A1C0A5372947226
:104690004479057924022C431546EC72260A2E73C0
:1046A000A646C4798579200228435073040A8446BB
:1046B0001A489473056808262C7CE87B240204437E
:1046C0000120521CA342487031D91C1B30E000006D
:1046D00091630000E9310000576600001B6800008C
:1046E00061690000D1640000DC0000200A34002071
:1046F0000002000031540000713C00000010005026
:1047000000E100E000A00050F40000209F1800002D
:104710008F160000CC230020A7290000F8000020FD
:104720001071000A01E01671300A507107E0E41AB6
:104730000F7ABC4226DA1071000A50710C72087AA6
:1047400088700E70002B1BD050791179000208433D
:10475000191A6846018043806146C1807146818094
:10476000A87C697C000200E010E0084302D0724996
:104770000020884771496846884771490920884761
:104780000120FEBDFF00BC42CDDAC9E70020FEBD1E
:10479000FEB507466B4801780A077DD5F722114020
:1047A0000170BA797C1C7B7912021A437BD0C279E2
:1047B000120678D5102211430170880673D462481E
:1047C000804705466079217900020843FF1C0028D4
:1047D00032D001F043FF0646009178783978000224
:1047E000084301F03BFF594F00223B4601F03AFEDF
:1047F0003246009B01F036FE00905548019100685A
:10480000017CC27B0802104301F028FF00223B46D6
:1048100001F028FE07460E46607A217A000208431E
:10482000401B01F007FF3A46334601F01BFE019B97
:10483000009A01F065FD24E0787839780002084399
:1048400001F0F0FE064642480068017CC27B080287
:10485000104301F0E7FE314601F0F8FC01F02AFFB9
:1048600000223A4B01F0FEFD07460E46607A217A9F
:1048700000020843401B01F0DDFE3A46334601F0DA
:10488000F1FD0022334B01F055FE01F0F5FE01046D
:10489000090C00D1012101E00EE004E0284B0920C1
:1048A0002D4A243B984703206946088102221102C1
:1048B0002A4C02AB0020A047FEBD38B5284C20781A
:1048C000002804D12749684688470120207001202C
:1048D00038BD10B50B30102801D9FF2010BD184B82
:1048E000C4B22046243B9847204610BD10B50B307B
:1048F000102801D9FF2010BDC4B2114920468847B5
:10490000204610BD072801D90020704701228240AF
:10491000134843781A4342708160012070470C4865
:104920000068C07D70470A480F4900684118487CFC
:10493000097C000208437047B5600000755F000005
:10494000F73300000A340020051B00000000F43F8C
:10495000F8000020000024405D3A001031540000AF
:10496000DC0000209D2C000063050000FE498A78D1
:10497000002A00D008707047F8B5FB4CE3685979FD
:10498000002914D0B121C95CC91F092958D8014692
:1049900018461022D93001F015FC60780221012858
:1049A000E06805D04279D20611D5F0488047F8BDBD
:1049B000CA22125C012AFAD1C279012A03D1EC4938
:1049C000E9308847F8BD002AFCD1C171F8BDC27931
:1049D000012AF8D1CA21095C012903D00021C17143
:1049E000E068ECE760690126017830468840A169FB
:1049F00080250968884300D181250027DD4880474C
:104A0000E168C919E0317F1CFFB24876102FF5D359
:104A1000E0682B460146E93102460091FF31F93248
:104A20001131D54DFF305A30A847606900781428FD
:104A300002D2E068C671D3E7E1680020C871CFE711
:104A4000CA4B0622002101208C3B9847F8BDF1B5E6
:104A5000C54CA4B0E068A278417911432BD0CA219B
:104A60000B5C2146C24FC9681C370025E931012B78
:104A700023D006460246713609320491711E531E38
:104A80000196BB4E02930392CA33C23200917A362A
:104A9000FF300A302499B047E16810220846D93027
:104AA000E93101F0B3FB00287ED0B04B0422002195
:104AB00001208C3B984725B0F0BD0C950D950E95C7
:104AC0000F95119512951395149543790126DB06E0
:104AD000002B01DB002A68D0F930B847A24CA0783F
:104AE000002822D01DA801950090E368A34F184626
:104AF0000146FF30FF31FA305A31F933249AB84772
:104B00001DA8013001F08FFB18A9097D00020843A0
:104B10009B4901F02DFB042201911104994F01AB37
:104B20000020B847207800287ED0E16807220F4691
:104B300015A8093101F046FB39460722713117A843
:104B400001F040FB387A002810A86ED086767020DD
:104B5000C05D002818A869D0867004A83A46019064
:104B6000F9321046844E15ADC03017AB009546366D
:104B70002499B047E068102204A9813001F022FB9B
:104B800008AE0FCE19AE0FC6E16803220E4621A86B
:104B9000D33101F017FB31460322CC3122A801F0BA
:104BA00011FB3046FF3001E06EE01FE0EA30039079
:104BB00017AF21A96846A2C03146704EF93111AB3A
:104BC00019A86A3E249AB047E26822A91046FF302D
:104BD000DA300197009103900CAB029519A8F932D5
:104BE0002499B04768490020884764E75E4A8023DB
:104BF000526914783246A2405B4CA4692468A243EF
:104C000000D1812300910146FF315A315A4CFF30C7
:104C1000FA30249AA04754481022C0680146E9316E
:104C2000D93001F0F3FA02E023E029E02AE000287D
:104C300001D004221EE04C4CE068F930B8476169AD
:104C40000878401CC0B208701428CED3A169086847
:104C5000020C08A8827410A882710888020A08A8A9
:104C6000427410A84271097808A8017410A8017153
:104C700034E70C223D4B002101208C3B98471AE77A
:104C8000857664E7857068E7E0680026F930B84704
:104C9000E368394F1946FF330A33363F1846F93176
:104CA000249AB847E06810230146A03106E017189F
:104CB0003246FF320A32761CBD54F6B24A7C9F1A45
:104CC000B742F4DC304900208847E0684179490860
:104CD00049004171EFE6F0B50446C07885B0072879
:104CE00007D2224B0622002101208C3B984705B0B9
:104CF000F0BD1D4E0121F068CB2211540025062283
:104D00002146CC3001F05EFA1120F168400108180C
:104D1000A0314E7CC17E827F437F04920A07D20F6E
:104D2000009203934A07CF06D30FFF0F02968A071C
:104D300001970E4E920F817E407E643EB047A07870
:104D400010260007002843DA074A1121D0684901DC
:104D50004718FB7E19073BD50121CA2211545A0777
:104D600015D4A278520711E0EC0000205DA10000EC
:104D700055A900004D250000B3AA0000FFAB0000BC
:104D800040420F0031540000F73300000ED57B7E07
:104D900022789D005B19FE4D5B19D55C882D02D0F1
:104DA000102D03D005E0FB4A917002E041793143B8
:104DB00041714179C90634D50B21C9014018C07D24
:104DC00001282ED16421F54BF34A0520984728E0AD
:104DD000F04F0021F868CA221154112149014118ED
:104DE000CA7E520702D4A278520709D5497E22789A
:104DF0008B00C918E64B193BC918555C102D02D120
:104E0000417931434171E44AE44B943AE44900204A
:104E100098476079C00704D0F8680322817911436C
:104E20008171607980070BD5DA481121C06849018A
:104E30004118897F890703D581790C22114381713B
:104E4000207980070BD5D3481121C068490141184A
:104E5000497F890703D54179802211434171CD48AB
:104E6000C1680846A0304674E278102A00D2427425
:104E7000487901221043CB4C4871202D08D0402D99
:104E800000D034E700231A4640210020A0472EE737
:104E900000231A462021F8E770B5BE4C0D46E368A2
:104EA00000281DD020690C2181711946FF31202274
:104EB0005A31C01D01F086F9E1682069FF312022D6
:104EC00027307A3101F07EF90621B74A4120904718
:104ED0000B21E068C9014118C97D00291DD01FE0E0
:104EE0001846FF302022FA3001F06CF92022AF4B37
:104EF000E068A9180E46C01801F064F9E368AC4CEC
:104F00001846FF309A30FF3332462946BA33A0475D
:104F100029460120FFF7C0FF70BD4079C00602D4CA
:104F2000A0780128F8D19C48804770BDF0B5994C15
:104F30000646E06885B04179C9072AD0FF301021C4
:104F40000A3001F058F9E068320AC11DF9314E7299
:104F50008A72320CCA72320E0A73CA21095C0125A8
:104F6000012918D00346064601460933E9365A1E80
:104F7000713101AF4EC7491E0091C933C332893127
:104F80008C4EFF300A30B047E068C17902292FD03B
:104F90000BE00020ABE6A069002106606269802377
:104FA0001170E268D179022904D0E068C179002942
:104FB0002AD02AE000682946814300D18123616814
:104FC000002040314E7D1718E037401CC0B27E767D
:104FD0001028F7D3E068774E0146E9310246009188
:104FE000FF31F9321131E436FF305A30B047CBE7A8
:104FF00070497A39E9308847E068CA21095C01299B
:1050000002D00021C17100E0C57101206FE670B5CA
:105010001446604A1B25136922469D71D871000A07
:1050200018721846093001F0CDF8E41C5E4AA0B2AF
:105030000421904770BD70B51446564A1D2513696A
:1050400022469D71D871000A18721846093001F085
:10505000B9F8E41C544AA0B20421904770BDF7B5DA
:105060004C4F5549F86800242546401801F0DBF8FC
:105070003A69112191718278437812021A43009B98
:10508000411C9A4238D3019B9A4235D80379C278A1
:105090001B021343029A93422ED10278172A35D06D
:1050A0003B690622DA714E780A78360216430622E8
:1050B0006243D3181E72360A5E724B790E791B0258
:1050C00033433E69AD1D9619B3721B0AF3723E69F4
:1050D000C379961933733E69037A92195373374B28
:1050E000FA68EDB2D3185A7C1B7C1202641C1A4376
:1050F000AB1DE4B29A4225D34A790B791102304AAA
:10510000194391421ED001780818B4E7002C1BD136
:105110003B691422DA714C780E78220232431A72FB
:10512000120A5A724A790C79110221439972090ABA
:10513000D972C11D184610220C3001F043F8143505
:10514000EDB201E0002C04D00421174AA81C9047BE
:10515000FEBD144B0A221020A43B00999847FEBDC7
:10516000F7B50C4F1449F86800252C46401801F09B
:105170005AF83A69092191718278437812021A43E8
:10518000009B411C9A4249D3019B9A4246D819E0A0
:105190003D750010EC0000205DA10000D33300003D
:1051A000B80B000031540000ED7F00001902000030
:1051B000EF2A0000CFA900005D0300006305000096
:1051C000FFFF00000379C2781B021343029A934247
:1051D00024D10278172A2BD03B690422DA714E7849
:1051E0000A7836021643AA00D3181E72360A5E7277
:1051F0003E69C3799619B3723E69241D9219037AE8
:105200006D1CD372E4B2EDB2FE4BFA68D3185A7C2F
:105210001B7C12021A43231D9A421ED34A790B7932
:105220001102F94A1943914217D001780818A3E7EF
:10523000002D14D13B691221D97182784578110271
:1052400029431972090A5972C11D184610220A30E1
:1052500000F0B8FF1234E4B201E0002D04D00421C4
:10526000EA4AA01C9047FEBD0A22E94B082000999B
:105270009847FEBDF7B5E74FE749F86800252C468B
:10528000401800F0D0FF3A69092191718278437883
:1052900012021A43009B411C9A423CD3019B9A4242
:1052A00039D80379C2781B021343029A934232D150
:1052B0000278182A39D03B690722DA714E780A78C9
:1052C00036021643EA00521BD3181E72360A5E726B
:1052D0003E6943799619B372C37986791B023343C9
:1052E0003E69E41D9619F3721B0A33733E69037A13
:1052F000961973733E69437A92199373C14BFA6896
:10530000E4B2D3185A7C1B7C12026D1C1A43E31DB5
:10531000EDB29A4228D34A780B781102BA4A19435F
:10532000914221D001780818B0E7002D1ED13B69C9
:105330001521D97182784578110229431972090A19
:10534000597241799972C179827909021143D972EE
:10535000090A197301461846102208310D3000F071
:1053600031FF1534E4B201E0002D04D00421A74A36
:10537000A01C9047FEBD0A22A54B08200099984723
:10538000FEBD30B4062912D0417C037C0A0241786C
:105390001A430B020478C178807809022343014341
:1053A0008B4207D9012219460820994B1FE0417909
:1053B0000379EBE70520C002824202D0401C824202
:1053C00002D130BC1846CBE69448824203D118463D
:1053D0008F4B18330BE09148401C824202D130BC05
:1053E000184647E7100A2928184602D08C4B30BCD3
:1053F00018478B4BE43BFAE7F0B4002865D0854CA6
:10540000487823690A780702834D174315262D1F14
:105410005A1CD81C1B2F9E7046D94B780E781B0245
:105420003343302B1AD33023037000264670CE78D6
:105430008F7836023E431671360A56710371002684
:105440004671C8798979000208431072000A5072C7
:10545000E06840190373190A417320E003701B0AC6
:105460004370CB788E781B02334313711B0A537140
:105470004B790E791B02334303711B0A4371C879C0
:105480008B79000218431072000A5072487809782C
:1054900000020843E16849190873000A4873F0BC28
:1054A0000921604A032010471B210170002343702B
:1054B000F3231371002656710171467113725672EF
:1054C000E068401901733146C6E7F0BC704730B45C
:1054D000002816D04F4814210069FB228170C27049
:1054E00000230371504B43711C0A8471C271002266
:1054F00002724372190A817209214A4A30BC0320A0
:105500001047002230BC012076E7F8B50546474930
:10551000082088473F4C0B20E168C0010818807EB6
:1055200001282DD10026374601E0042E04D2E06880
:105530008019A030877405E03D488047E1688919EB
:10554000A0318874761CF6B2082EEED30026384FB0
:1055500001E0082E01D2002000E0B847E168891977
:10556000A031761CF6B28876102EF2D30026B8470A
:10557000E1688919E031761CF6B24876102EF6D330
:105580000B20E168C0010918487E042802D00528D4
:105590001CD01DE0264F0026B847E1688919FF316D
:1055A0008131761CF6B24876202EF5D3E068214B87
:1055B0000146FF31A1310A7EFF305206520E0A76B3
:1055C0000A46273A47399A30984701E0082048763A
:1055D000E16820690E46042787700822C01CC2318A
:1055E000B63600F0EFFD2069042231460B3000F0A2
:1055F000E9FD0D210B4A03209047082229460A3174
:10560000E06819E063050000FFFF0000ED7F000087
:105610008D530000EC00002065030000022800000C
:105620006B430000958C0000480800005585000081
:105630004D250000C5290000BA3000F0C3FDE06828
:10564000294604221231B23000F0BCFDA068C078B7
:10565000032804D02A7AFE4E002A0AD00CE0E06823
:10566000FC4B817D427D080210432A4608322946C0
:1056700017E0687A002816D0E06801466030C37DE4
:105680009A420AD16A7A007E824206D108222846CE
:10569000793100F0BBFD002824D006220021EE4B1A
:1056A00001209847F8BDE068CA21095C01290BD0A8
:1056B0000246BA32FF3011460A30B047E068022293
:1056C00041791143417112E04179024639434171F8
:1056D000BA3211468130B047E0686030C07B0128A3
:1056E00002D004E0E068EFE7DC4902208847DC48AC
:1056F0008047F8BDF8B501220021DA4B08469847EB
:10570000D94C06202169D94A88700121032090478D
:10571000E068D44D417908228B0700270A3D002B11
:1057200025DA114341710026A847E16889198031C3
:105730004870A847E1688A1991218854A032761CE4
:10574000F6B25770102EEFD30026A847E1688919EA
:105750006031761CF6B24876082EF6D3A847E16889
:105760006031C875A847E1686031087614E0CA2343
:105770001B5C012B10D183795B070DD5114341715F
:105780000026A847E168912289195054A031761C5F
:10579000F6B24F70102EF4D3B54903208847AF4DB1
:1057A0000820103DA847002803D0AC4908200A3142
:1057B00088470220A84701283CD10B27E168FF0158
:1057C000C819407D012835D12D2040010A18537990
:1057D000002B04D0012B19D0022B25D02AE0052262
:1057E0000020D2018B1809E00A26464376180325CB
:1057F000B61835760025401C7576C0B2DD7B854233
:10580000F2D8E1680120C919087513E061688B7846
:105810009B06DB0FD3718A78DF231A408A70E16818
:1058200008188179017205E0914B91790720914A1E
:10583000243B9847884D0220623DA8470028E06835
:10584000817D407D0FD0090201438B4A00209047A3
:1058500081490220483988470420A847002801D000
:1058600086488047F8BD09020143834B012200208E
:10587000643B9847F8BD3DE710B50278411C002A0B
:1058800011D0022A33D0032A0CD14A780B781102A6
:10589000194310295BD0082904D1021DC178104694
:1058A000FFF76FFD10BD4A780B78110219430629E6
:1058B0000BD003290CD014290ED0152911D00029A2
:1058C000F0D1001DFEF764FF10BDFFF713FF10BD00
:1058D000001DFFF71AFE10BD011D0020FFF7F7FDA8
:1058E00010BD021D00210846FFF786FD10BD4A7855
:1058F0000B7811021943012918D003291AD0042961
:105900001CD00C291ED00D29F0D15748C1688A79C6
:105910005207EBD44A79D209E8D1092292018918B9
:1059200009780129E2D1C069017010BD001DFFF79F
:10593000D2F910BD001DFFF71FF810BD001DFFF7C5
:1059400086F810BD011D0020FFF7A6FA10BD031D4B
:10595000C078062813D0587C197C02020A43587874
:10596000197800020843D9789B78090219438842C4
:1059700008D901220146424B1020984710BD5879A2
:105980001979EAE7FFF76BFB10BD10B588B03D4809
:105990000090401E01900024684604814481062145
:1059A00001824182672181812721C1818482C48251
:1059B000354806903549684688472B480221026AD7
:1059C00013680B431360426A13680B4313604470FF
:1059D0008470047008B010BDFEB5002168460170E7
:1059E00001710D4601212A4E7F20B047284C0A2024
:1059F0006946223CA04768460078010909016846CB
:105A00000170022001430A20B04701A90A20A047E3
:105A100068460079400704D56D1CEDB2FA2DF4D12B
:105A200008E0FA2D06D001A90A20A04768460079AF
:105A30004007F8D5684601780A20B0470020401C8E
:105A400080B2FA28FBD301A90A20A047684621E0CA
:105A5000ABAA0000996F0000CB94000055850000B0
:105A60000197000057250000EC000020958C0000F5
:105A7000F7330000FB9800006D6E0000017A000013
:105A80008D530000198001007958001093600000C8
:105A9000A72900000079000701D40120FEBD0020E5
:105AA000FEBD10B5F949FA4CC9680028887013D0BA
:105AB00001281FD002280ED100217F20A0470021FD
:105AC0000320A04720210420A04702217F20A047D7
:105AD00003210020A04710BD00217F20A047002106
:105AE0000320A04720210420A04702217F20A047B7
:105AF0000021EEE700217F20A0471F210320A047BF
:105B000002217F20A04701210020A04700217F2003
:105B1000A0473F210420DDE710B5012802D002286C
:105B20000ED01BE0487A0C7A00022043C00715D043
:105B300048790979000208431946FFF768FA10BD51
:105B4000487A0C7A00022043800707D54879097902
:105B5000000208431946FFF76EFA10BD002010BD81
:105B600070B5CA4C6068817EFD2211408176E06884
:105B7000C84D837F427F203041780078090201437D
:105B80000120A847606881784906C90FE1708178D3
:105B9000BF221140817070BD10B5BC4C6068817E21
:105BA000022211438176BB48343080476068817897
:105BB000BF221140E278D207520E1143817010BD0E
:105BC000FFB51646B14A044650680D46C37881B009
:105BD00000211B0702D5002005B0F0BD00BF491C05
:105BE00089B26429FAD34030417C8907FCD4A748A4
:105BF000C1682D2040010818C07A012804D1FF2176
:105C00000531204600F0F7FAA0070127002807D148
:105C10009E482D21C26849015118897A012911D065
:105C20009A48002140680246C03213796354491CE7
:105C300089B20229F9D3217889066178298034D57F
:105C4000377034E041680846E030427B037B120243
:105C50001A43837B1B041A43920C9204A3039B0BED
:105C60001A430273130A4373120C82734822525C64
:105C7000C37B5206520EDB09DB011343C373027A66
:105C8000520852000272027A02231A430272E03171
:105C9000087A8007FCD4207880066078288001D5B7
:105CA000377010E0002030700DE0002131700021CD
:105CB000A41C03E013796354491C89B22B888B42DE
:105CC000F8D8C03047722888801C28806F48406808
:105CD0004030417C890702D50498077004E0407C7D
:105CE000C1070498C90F0170012075E7F0B587B0AE
:105CF00069480026059068460682067206730024ED
:105D00006649012088470028654803AB02AA04A918
:105D100010D0FFF755FF002810D15C484068C078CC
:105D2000C0063CD55A4B02AA04A95D48803B98475F
:105D3000012403E05B4DA847002830D0534DA868EC
:105D4000C278032A03D1A86A00780128D3D0684614
:105D5000007A012801D1002C09D0514C2178080784
:105D6000000F844605281CD0080744D07AE04E4C2A
:105D70000820A047002807D00220A047002803D110
:105D80006846007B002807D06846008A474A801E84
:105D9000C1B243489047AEE745493D20884707B028
:105DA000F0BD4448E96808184279017910020843B7
:105DB000400705D5A31C222204213F4F0846B847BF
:105DC0003C48E968801E0918487A097A00020843AD
:105DD000400790D42F487A388047207870224006B8
:105DE000C10FE86811540622A11C713000F0EAF9D5
:105DF000A01C32492BE0E868C37D022B0FD00023A2
:105E00006030477B8646012F0BD00020034329D00A
:105E1000032A08D07046007A01281AD064E00123D2
:105E2000EEE70120F2E7059800906846008A244DCD
:105E30000838C3B24806C10FA21C6046A8471348E1
:105E4000C0686030007A0128A5D11E49A01C88478F
:105E500051E7012F03D01B49A01C884744E0A01C38
:105E60001949FAE76046032895D0042893D1E868D9
:105E7000C37D022B2AD000236030407B012800D054
:105E80000020034387D0032A22D02DE0EC0000201D
:105E9000A7290000D91B00002434002045850000FC
:105EA0001C340020B1270000699400003F9C0000D2
:105EB0006F90000083020000EF540000CB1D000033
:105EC000CB6F0000155C0000995D00000123D3E753
:105ED000059800906846008A984D801FC3B2480616
:105EE000C10FA21C6046A84705980090019668461D
:105EF000008A0838C3B2207841060007C90F000F96
:105F0000A21C8F4CA047F6E670B5FFB08D4985B056
:105F10000420884700280BD08A4904201A3188477A
:105F2000894880478949162088477FB005B070BDF1
:105F300087488047002500280FD0864CE0684179CB
:105F40000A075ED58279D3071DD0834981308847FF
:105F5000E0688179490849003AE0684605807C4D4F
:105F6000794E863592367D4C09E0694601A8A847EE
:105F70000028DAD068460088C1B201A8B047A0471F
:105F80000028F2D0D1E7930709D5734A0146793149
:105F90001C3277309047E068FD22817908E0530792
:105FA00008D56D49603191308847E068FB228179DE
:105FB00011400DE01207F725002A0BDA027A01469C
:105FC0001046654A093142329047E068817929409C
:105FD0008171AAE729404171034677333A221021A3
:105FE0005F4D0020A8470921E06889014118097820
:105FF00001299AD14079C00997D1E169012008703F
:1060000093E7A16A097800298FD1E16A097801290B
:106010008BD1817D427D08021043524A0121904775
:10602000E06A057081E770B54A4E70684478447044
:106030004B4DE00706D0FFF767FF002301211A460A
:106040000846A847A00706D5FFF750FE0023022107
:106050001A460120A847600706D543488047002319
:1060600004211A460120A847200707D53E48BC3026
:106070008047002308211A460120A847E00610D5D2
:1060800070682030407D3149400701D53E2000E056
:1060900008208847002310211A460120A847002025
:1060A000B070A0060CD500F027F8002320211A4676
:1060B0000120A8470023FF211A4601311846A847AE
:1060C000600611D51F4901208847002807D0F068D5
:1060D0006030807B012802D1716807204875002359
:1060E00040211A460120A847E00904D0002380215E
:1060F0001A460120A84770BD10B5124901208847F3
:10610000002815D01348C16860314A7B012A05D1A7
:10611000426860321378082423431370897B012975
:1061200006D14068017C4022114301740021417571
:106130000E48804705486238804710BDCB6F00008D
:106140007D5C0000458500000F2600006F90000078
:10615000ED340000EC0000207BA60000371B00009F
:10616000315400004F6E0000C18D0000498F0000C7
:1061700030B50B46014600202022012409E00D46DF
:10618000D5409D4205D31D469540491B2546954067
:1061900040191546521E002DF1DC30BD70B50024AB
:1061A0002546002801DA01244042002901DA0125B0
:1061B0004942FFF7DDFFAC4200D04042002C00D046
:1061C000494270BD03460B439B0703D009E008C951
:1061D000121F08C0042AFAD203E00B780370401C97
:1061E000491C521EF9D27047D2B201E00270401C25
:1061F000491EFBD270470022F6E710B513460A4647
:1062000004461946FFF7F0FF204610BD30B504469E
:106210000020034600E05B1C934203D2E05CCD5CAF
:10622000401BF8D030BD0321001D401E0378120230
:106230001A43491EF9D510467047034603220870D9
:10624000000A491C521EFAD518467047F8B5024696
:106250004A40D40F42004B0052085B089A4202D2D7
:106260000246084611464A0023D0C30D4A00DDB25B
:10627000120EAD1A202D35DA49020126490AF6051B
:106280008A19002C00D0524220214F1B1146B940E0
:106290002A411018C20D9A4221D0002C17D0012D8E
:1062A00008DCDA05801AD20F8019D207DBB200F0C1
:1062B00081FAF8BDDA05801A012340001B06C018D8
:1062C00080185A428018CA0F1043490007E0490855
:1062D000C2071143DA05801A80194008801800F0BF
:1062E00061FAF8BD61000122511A001BF7E7012293
:1062F000D2075140AAE70122D2075040A6E700008A
:10630000F0B507460846584087B0C00F04904800D3
:106310000E46590040084908BC1A884105D2384643
:1063200031461E4617460B460246580040081043A9
:106330004CD0300D039040055900400D490D05909B
:10634000401A0290402872DA18030121000B090557
:106350000843019004980092002805D00199524208
:106360000020884100920190029840210A1A019968
:10637000009800F0E3F905460C466B4607CB00F0A9
:10638000FEF9C0197141039A0E0D0023D71756402C
:106390001A467A40164344D0049A002A2DD0029A15
:1063A000012A039A15DC1205C01A9141012636050F
:1063B000001C7141D20F059ED207009301920296F4
:1063C0002A46234600F03CFA07B0F0BD3846314675
:1063D000FAE71605224A0F46B218C01AB741012142
:1063E0000905001C4F4100187F41114618187941DA
:1063F000E20F10436D19644113E0E2076D08154385
:106400006408C2071443039A01261205C01A914179
:106410003605001C7141CE07400830434908C018BA
:1064200051412A46234600F0FEF9CDE7FFE70498E4
:1064300001224000C117121A00238B4104983146F3
:10644000C417381AA141EEE730B40124E4076340D1
:1064500030BC55E730B40124E407614030BC4FE75D
:106460000000E0FFF0B51FB488B00B990998002434
:1064700048400999C00F490049080991C0070B9984
:106480000090490049080B9109990898A6460843CD
:106490001CD00B990A98084318D009980124400091
:1064A000420D4800410D099824050003000B2043CC
:1064B00009900B980003000B20430B9050181C49C7
:1064C0004018002201901446104605E000200146C5
:1064D0000DB0F0BD032801DA034600E003239C461B
:1064E000C11A0AAE0AE05F0008ADED5B4F00F75B32
:1064F0007D430027AA187C41491C5B1E6145F2DDE3
:10650000410004AB5A522104120C0A43240C401CD3
:106510000828DFDB019802900099704601910090F5
:10652000059B049A0799069800F08AF9D0E70000C5
:106530000DFCFFFFF0B50C465C4085B0E40FE407AE
:1065400003944C000026640859009446490802460A
:106550000296224321D062460A431ED06200570DA4
:106560004A000E032303550D012402462C4924053D
:10657000781B1B0B360B40182343264361460090C3
:106580001C46501AB44103D30098401C009002E00E
:10659000921800985B41002803DA0020014605B0FC
:1065A000F0BD0020012109050746864611E064463A
:1065B0001D46141BB54106D36546521BB3417446B4
:1065C00007430C43A646CD074008490828439218C4
:1065D0005B4105460D43EAD11046184313D060468F
:1065E000194650407140084306D06046101AB34126
:1065F00006D20122002306E000220123DB0702E08D
:106600000122D2435310009874460105381C6141A1
:10661000029C039D0019694100F005F9BFE70000E5
:10662000FD03000010B500229623114600F0C2F8C9
:1066300010BD00000EB5C217C10F5040CA07401868
:106640000021054B0293019200910A460B4600F08F
:10665000F7F803B000BD0000330400000EB5054993
:106660000291002100910A460B46019100F0E8F8E2
:1066700003B000BD330400004A0009030123090BE5
:106680001B051943094B10B5520D9A4201DA00203F
:1066900010BD064B34339A4203DC9A1A00F05EF8C0
:1066A00010BD03495118884010BD0000FF030000D1
:1066B000CDFBFFFFC20FD207400040080BD0C10D39
:1066C0000723DB01C91840020905400A1143C2082B
:1066D000400711437047002001467047F0B51FB4D2
:1066E0000646002082B005464024019100901BE040
:1066F000019922460F46304600F030F8049A059B77
:10670000801A994110D310461946224600F016F817
:10671000361A8F410197224601200021009F00F088
:106720000DF838184D4100902046641E0028DFDC2B
:10673000019B00982946324607B0F0BD10B5202ACB
:1067400004DB0146203A9140002010BD91402023F7
:106750009C1A0346E3401943904010BD10B5202A0F
:1067600004DB0846203AD040002110BD0B46D34040
:10677000D0402024A21A91400843194610BD10B5FC
:10678000202A06DBCB170846203A1041C1170B43DD
:1067900006E00B461341D0402024A21A9140084342
:1067A000194610BD002904DA401C490001D14008F7
:1067B0004000704770B40024050C05D1102400047B
:1067C00002D1002921D01124050E01D10002083484
:1067D000050F01D10001241D850F01D18000A41CEB
:1067E000002801DB4000641C002908D020252E1B56
:1067F0000D46F540A14000D0012129430843010680
:106800001B1B000ADB1D02D5002070BC7047DB0596
:10681000181880180029F8DA401C4900F5D170BC1E
:1068200040084000704710B5002B08DA0024401CD7
:10683000614192185B411A4301D14008400010BDEC
:10684000F0B51FB482B005460C0003D0084600F036
:10685000A1F802E000F09EF82030024600902146A8
:106860002846FFF76BFF049B059A04460F46184322
:106870001143084314D0184610431BD00098402100
:106880000A1A18460599FFF769FF05460E46009A51
:1068900005990498FFF752FF084305D0012004E052
:1068A0002046394607B0F0BD0020C11705430E430E
:1068B0002C43374300990E986305401A7905E40A82
:1068C00000220C43FD0A0A3002D500200146E9E708
:1068D0000105101969410C9C0D9D00196941FFF7D4
:1068E000A2FFDFE74A0009030123090B1B05194337
:1068F0000A4B10B5520D9A4202DA0020014610BD33
:10690000064B34339A4203DC9A1AFFF727FF10BD77
:10691000034BD218FFF712FF10BD0000FF03000069
:10692000CDFBFFFF10B5002904DB0124E407404242
:106930008C412146002B04DB1C460123DB0752421D
:10694000A341994200D1904210BD0000064C0125A0
:10695000064E05E0E36807CC2B430C3C9847103407
:10696000B442F7D3F9F7B0FB5875001078750010F2
:1069700037B514460846064B6A46214600F0EAF849
:1069800004466946002000F081FC20463EBD000020
:106990008D7200102021020C01D010211046020A35
:1069A00001D010460839020901D01046091F82089B
:1069B00001D01046891E420801D0881E7047081A6F
:1069C000704730B47446641E2578641CAB4204D30F
:1069D000635D5B00E31830BC18471D46F8E702E032
:1069E00008C8121F08C1002AFAD17047704700205A
:1069F00001E001C1121F002AFBD17047F0B51FB49E
:106A000084B007980699020D014314D04A484B49B7
:106A10001018484305140F9801280E981CD0281A06
:106A2000401C0024464E47490094019102900028E2
:106A300014DA474227E00F98012443A3012808D025
:106A4000002104980F9A84600360C260416009B01D
:106A5000F0BD0E98C143F4E74042E2E7074612E07A
:106A6000F80707D02246334601990098FFF7FAFC51
:106A7000019100902246334610461946FFF7F2FC7A
:106A800004460E467F10002FEAD10298019B002891
:106A9000009A0799069802DAFFF7E4FC01E0FFF795
:106AA00049FD04460E460022284BFFF73BFF03D862
:106AB0000020C043014607E00022254B2046314616
:106AC000FFF71EFCFFF70EFF102409E0002C0ADB85
:106AD0000A220023FFF702FE059B30321A55641E7E
:106AE00002460A43F2D11122641C059B121B1C1999
:106AF0000F9B012B03D0012308430ED10AE008436A
:106B000004D011200E9000200F9084E70E98151AE3
:106B10006D1E0BE00E98824202DD00236D1C03E027
:106B2000824201DA00236D1E002BEED004980F99EB
:106B30008260C16030C08AE701FCFFFF104D000099
:106B4000000024400000F03F300000000000F0434F
:106B50000000E03FFFB597B00646002518E2252863
:106B600077D100242746FD49049400E00443761CB5
:106B700032780120203A90400842F7D130782A2814
:106B80000ED00222307801463039092916D80499EE
:106B90000A235943303940181443761C0490F1E716
:106BA000189802C804911890002904DA01204003C3
:106BB00004434842049002200443761C30782E2877
:106BC00014D1042004437078761C2A2809D118981F
:106BD000761C80C8189009E00A214F43303FC7193E
:106BE000761C3078014630390929F5D930786C287F
:106BF00010D006DC4C281AD068280ED06A2817D18D
:106C000004E0742813D07A2812D110E00120400546
:106C100004430CE00121090501E0032109050C43AF
:106C20007178814203D1012000052418761C761C5E
:106C30003078119066280BD013DC58287DD009DC01
:106C400000287BD04528F6D04628F4D047281AD112
:106C5000A5E118E0632835D0642870D0652812D1EA
:106C60009DE170286CD008DC6728F1D069287BD0C2
:106C70006E280DD06F2806D1BAE073282ED0752863
:106C800071D0782859D01A9A199990476D1C7EE1D5
:106C90006002400F022809D003280DD0042818985C
:106CA00001680DD00D60001D189070E11898EA176A
:106CB00001680D604A60F6E7189801680D80F2E7F8
:106CC0000D70F0E718986A4601781172001D18904F
:106CD0000020507202A80090012005E0189802C818
:106CE000189000200091C04361070DD5002101E0FC
:106CF0000199491C0191B94212DA8142F8DB009AEC
:106D0000515C0029F4D10BE0002101E00199491CFC
:106D100001918142FADB019A0099895C0029F5D141
:106D2000019904981A9B471A21463846199A00F08F
:106D300097FA0199401945180BE04FE02CE113E058
:106D40004EE0009800990078491C00911A9A199910
:106D500090470198401E0190401CF2D121463846D0
:106D60001A9B199A10E137E00A2000210090019146
:106D70006002410F022907D0189A01CA1892C2175F
:106D80009446032908D00AE01898C01DC108C9001C
:106D900005C91891944607E000B2C2179446042929
:106DA00002D140B2C1178C4600226146944506DAF2
:106DB0000A460021404291418C462D2102E02105E6
:106DC00004D52B216A461173012103E0E10701D0AC
:106DD0002021F7E7029155E00A200AE0102008E0A0
:106DE000102000900021042004430191082703E0B3
:106DF00008200021019100906002410F022907D074
:106E0000189A01CA189200229446032908D008E073
:106E10001898C01DC108C90005C91891944603E01F
:106E200080B2042900D1C0B200210291210729D5E6
:106E30001199702906D0009A1021019B4A401A43EB
:106E400005D00EE040216A461173012108E0614639
:106E5000014306D030216A46117311995173022102
:106E60000291009A0821019B4A401A430AD16146C7
:106E7000014301D1610705D530216A461173012113
:106E80007F1E02911199582904D035A10E910DA9A8
:106E90000D910DE037A1F9E76146019B009AFFF7DC
:106EA0001DFC0E9B8C469B5C0D9A521E0D9213701E
:106EB00061460143F0D10D9805A9081A20300190D0
:106EC000600703D501200004844300E001270198F6
:106ED000874201DD381A00E0002001990090411836
:106EE000029809180498401A0490E00306D4214639
:106EF0001A9B199A049800F0B3F94519002706E087
:106F000003A81A9AC05D199990476D1C7F1C0298BE
:106F10008742F5DBE0030CD521461A9B199A0498A9
:106F200000F09EF9451904E01A9A3020199990470B
:106F30006D1C0099481E00900029F5DC08E00D98B2
:106F40000D990078491C0D911A9A199990476D1C5A
:106F50000199481E01900029F1DC63E10928010034
:106F600030313233343536373839616263646566BF
:106F70000000000030313233343536373839414281
:106F8000434445460000000000F05AF94519761CBC
:106F90003078002800D0E2E528461BB0F0BD60073D
:106FA00000D406271898C01DC108C90048680A689F
:106FB0000831C30FDB071891190001D09CA108E02C
:106FC000210501D59BA104E0E10701D09AA100E0D1
:106FD0009AA1430011985B08109165280CD006DC3B
:106FE000452809D046281DD0472841D141E06628D0
:106FF00018D067283CD13CE00021112F01DB112083
:1070000000E0781C0191009008A911A8FFF7F6FC98
:10701000139905910021119A15927F1C12980197DE
:10702000009150E00120C00703900120019008A9C1
:10703000009711A8FFF7E2FC139A14990592002219
:10704000119B009212981593059A0192002901D084
:10705000104602E0791C40180190381A01D50198B9
:1070600004E04042401E0090781C0190C01B02903A
:1070700043E0012F00DA01270021112F01DD11204B
:1070800000E038460191009008A911A8FFF7B6FC6E
:1070900013990591119A0021129815920091019768
:1070A00021070CD40599B94201DB019900E0019157
:1070B000012904DD159A491E515C302906D0B842D9
:1070C00001DA011D05DA0121029115E00199491E3D
:1070D000EDE7002805DC0099411800910199091A93
:1070E00003E0019A411C914200DD01910099401A90
:1070F000401C02900120C0070390200706D402998B
:107100000198814202DB0020C043029000206946C2
:10711000C87707AF012103980337C907884224D0F5
:10712000022011902B201290039800280CDA404284
:1071300003902D20129007E00A210398FFF718F81A
:1071400030317F1E039039701199481E119000292B
:10715000F2DC03980028EFD1791E1298087030787D
:10716000202108404530BF1E387006A8C01BC01D36
:10717000039010980078002800D001200199411850
:107180000298C0170918039809180498401A401E5D
:107190000490E00306D421461A9B199A049800F043
:1071A0005FF8451910980078002803D01A9A1999A9
:1071B00090476D1CE00324D521461A9B199A049828
:1071C00000F04EF845191CE00098002807DB0099F4
:1071D0000598884203DD1598405C199901E01999DA
:1071E00030201A9A904700986D1C401C009002981D
:1071F000401E0290002804D11A9A2E201999904717
:107200006D1C0199481E01900029DDDC05E03878ED
:107210001A9A7F1C199990476D1C0399481E039078
:107220000029F4DC21461A9B199A0498ACE6000068
:107230002D0000002B0000002000000000000000D6
:10724000F8B5044600251E461746880404D405E018
:1072500039462020B0476D1C641EF9D52846F8BD7C
:10726000FFB50446002581B01E46C80301D530276E
:1072700000E02027880404D505E038460399B0478C
:107280006D1C641EF9D5284605B0F0BD0A68531C74
:107290000B601070704703010003001F0020000006
:1072A000000F18192A260027000000E7FEC8FE2C50
:1072B000002D0000000AFFFF0000FFFFFFFF00009D
:1072C00009010000280700001809080000280B0029
:1072D0000118090C0000281A000A18091B000028D0
:1072E000200001000921000028230000FF092400DC
:1072F000002827000F180928000028FFFFE7FE0AD2
:10730000020003280A0300002A0A040003280205D9
:1073100000012A0A06000328020700042A0A0900BD
:107320000328020A00052A0A0D000328020E00297C
:107330002A0A0F000328021000242A0A1100032839
:10734000021200252A0A13000328021400272A0A21
:1073500015000328021600262A0A1700032802181F
:1073600000282A0A19000328021A00502A0A1C00C1
:107370000328081D0002000A1E000328101F000336
:10738000000A220003280A230001FF0A250003281F
:10739000122600192A0A29000328082A00C7FE0A13
:1073A0002B000328222C00C8FE0A2E000328022FDF
:1073B00000C9FE0AFFFF000000FFFF0000140003E9
:1073C0000010002A53594420424C45204D6F7573DC
:1073D000650900050010012AC2030F000700100410
:1073E0002A06000600300064000B000A0010052A7F
:1073F0000000000009000B0010022900000A000E26
:107400000010292A5359441400100010242A424C19
:10741000452D4D4F44454C2D3030310E001200109B
:10742000252A424C452D3030310A00140010272AFD
:10743000312E300A00160010262A312E300A00188C
:107440000010282A312E300E001A0010502A023A5D
:1074500009544201001C001D001002000000000041
:10746000000000000000000000000000000000001C
:10747000001C001F001003000000000000000000BE
:1074800000000000000000000000000000090020D3
:107490000010022900001C0023001001FF00000062
:1074A00000000000000000000000000000000000DC
:1074B00000000800260010192A64090027001002A5
:1074C0002900001C002A0010C7FE00000000000078
:1074D0000000000000000000000000000000001C90
:1074E000002C0010C8FE000000000000000000009A
:1074F000000000000000000000000009002D001046
:10750000022900001C002F0010C9FE00000000002E
:10751000000000000000000000000000000000006B
:10752000FFFFFFFF101040104010104010402020BF
:10753000201020101010101020204010201010409B
:1075400010401088401088202020102010101010AB
:10755000102088401088000078750010000000207E
:107560001C010000DE690010947600101C01002050
:1075700004B40000EE6900100000000000000000EC
:1075800000000000000000000000000000000000FB
:1075900000000000000000000000000000000319CF
:1075A00000000201050303010009FF0000000000C4
:1075B000000000060955415254461C00000000001E
:1075C000000000000000000070B0025078B00250CF
:1075D000601000508C1000500000005080000050DF
:1075E000000000000000000000000000000000009B
:1075F000000000000000000000000000000000008B
:10760000000000000000000000000000000000007A
:107610000000000000000000FFFFFFFF000000006E
:10762000000000000000000000000000000000005A
:10763000000000000000000000000000000000004A
:10764000000000000000000000000000AAAAAAAA92
:107650000090D003000000000000000000000000C7
:1076600000000000000000000000015008AA0220F5
:10767000309F0220F8A60220C8810220CC8102207F
:10768000D580022024800220208002208F800220CA
:0476900090800220C4
:04000005100000C126
:00000001FF
