:020000041000EA
:1000000070C70020D5000010DD000010DF000010D8
:1000100000000000000000000000000000000000E0
:10002000000000000000000000000000E1000010DF
:100030000000000000000000E3000010E5000010D8
:1000400045710010E7000010E7000010E700001005
:10005000E7000010E7000010E7000010E7000010C4
:10006000E70000100D7200102D7200104D7200108C
:100070006D7200108D720010E7000010E700001094
:10008000E7000010E7000010E7000010E700001094
:10009000E7000010E7000010E7000010E700001084
:1000A000E7000010E7000010E7000010E700001074
:1000B0002D1E0010E7000010E7000010E700001000
:1000C0000348854606F06EFF004800475D85001036
:1000D00070C700200448804704480047FEE7FEE759
:1000E000FEE7FEE7FEE7FEE7FD710010C10000102D
:1000F000FE498A6802438A607047FC4880687047FE
:10010000EFF3108172B6F94A9368834381F3108844
:1001100093607047F5498968884301D00020704793
:1001200001207047F149C8607047F048007B704774
:1001300010B5EF4C002813D001281FD002280ED193
:1001400000217F20A04700210320A0472021042078
:10015000A04702217F20A04703210020A04710BD17
:1001600000217F20A04700210320A0472021042058
:10017000A04702217F20A0470021EEE700217F2039
:10018000A0471F210320A04702217F20A047012173
:100190000020A04700217F20A0473F210420DDE769
:1001A00038B5D44C0120A0470021D14D7F20A8476D
:1001B000CF4A3B206946223A904768460178FB20A7
:1001C0000140684601703B20A847CB488047C7489C
:1001D0008078052801D0022801D101F021FA002001
:1001E000A04738BD10B5C54904468847BF4884704C
:1001F00010BD9DE708B500206946087001217F20E9
:1002000001F019FC02210A2001F015FC69460A20C0
:1002100001F001FC684600784007F7D500210A206C
:1002200001F009FC69460A2001F0F5FB68460078F8
:10023000000701D4012008BD002008BD08B5B04862
:100240004A21C1723821017303210175AC48202174
:100250006030017462214174AA4950208876A9490E
:1002600000204031C876A7480A2120300170FF21C4
:1002700041712521817100217F2001F0DCFB0421E7
:10028000002001F0D8FBC021102001F0D4FB042194
:10029000162001F0D0FB0121372001F0CCFB012119
:1002A000382001F0C8FB6946012001F0B4FB684624
:1002B0000178EF20014068460170012001F0BBFB8E
:1002C00001217F2001F0B7FB53210B2001F0B3FB8C
:1002D0000121372001F0AFFB0021512001F0ABFBE1
:1002E0003521522001F0A7FB0021552001F0A3FB8E
:1002F0002C215E2001F09FFB8A21612001F09BFBF5
:100300001C21662001F097FB02217F2001F093FB66
:100310003F21062001F08FFB3F21072001F08BFBDE
:10032000DC21082001F087FB01217F2001F083FB05
:100330000A21602001F07FFBFFF75CFF08BD08B5D4
:100340006F48012101724A21C172382101730321D2
:100350006B4A0175C02140325175694920226031D4
:100360000A7462224A740021017466490C200870E4
:1003700000217F2001F05FFB4021012001F05BFBA9
:100380002021102001F057FB1021112001F053FB18
:100390000421132001F04FFBC0213A2001F04BFB58
:1003A00001217F2001F047FB0A21542001F043FB8B
:1003B000D821562001F03FFB5821572001F03BFB8C
:1003C00001215B2001F037FB2C215C2001F033FB85
:1003D0002E215E2001F02FFB2821602001F02BFB55
:1003E0008B21612001F027FB0321642001F023FB16
:1003F0003F21652001F01FFB2A21662001F01BFB35
:100400003621732001F017FB02217F2001F013FB3E
:100410005821012001F00FFB9421082001F00BFB73
:1004200001217F2001F007FB02210A2001F003FBDC
:1004300069460A2001F0EFFA684600784007F7D5D0
:1004400002217F2001F0F7FA0121002001F0F3FAE8
:1004500008BD10B52A484A21C172382101732849C4
:1004600062206031487427480F2181740121C174D2
:10047000742101759921817522498420C031087445
:1004800000217F2001F0D7FA0221002001F0D3FAE9
:100490003021012001F0CFFA0021042001F0CBFA35
:1004A000C021102001F0C7FA8021132001F0C3FA07
:1004B0001421162001F0BFFA0021302001F0BBFA10
:1004C0000021372001F0B7FA04213E2001F0B3FAF1
:1004D00001217F2001F0AFFA4121182001F0ABFA91
:1004E0000321302001F0A7FA04210DE04C00002088
:1004F000A7290000692D0000D9850000ED630000E8
:100500000000015000010150502001F094FA062132
:10051000532001F090FA0021552001F08CFA272198
:10052000622001F088FA1E21632001F084FA8821FC
:10053000662001F080FA07216D2001F07CFA02218B
:100540007F2001F078FA4C21082001F074FAFFF7BF
:1005500051FE10BD08B502217F2001F06CFA6946FA
:100560000A2001F058FA68460078002804D0D02804
:1005700005D0FFF763FE08BDFFF76BFF08BDFFF76F
:10058000DEFE08BDF0B5E9218900FF4A4143891824
:100590004A89521C92B24A818B899A427ED1FB4A87
:1005A000CB794C2568431468002B0FD070256B5411
:1005B0002025022B235A2DD0AB4323520023CB718D
:1005C0000B4680339D6C1026B5439D640B7A002B3F
:1005D00049D00B46C0331E680D46CE6340351B79AB
:1005E0002B70CF6BAE46EA4E7D083540BC467F1B74
:1005F0003D46E84EBF0835403740ED192E097519C4
:10060000E54E35402E0A75192E0C7519AF06BF0E32
:10061000002505E02B43D0E7DE0700D06D1C5B080A
:10062000002BF9D1EB1965460419A561146804196A
:10063000A58B764636786D096D01F606F60E3543C4
:10064000A58314680519AC8B3F2636029B06B4437C
:100650009B0C1C43AC8300230B720B4680339C6CB9
:100660000825AC439C644B7A002B39D00B460F6AAB
:1006700080339E7EFD0EBE197601ED067609354368
:100680000D62AD1C2D072D0F0D770225CD76DC1CDC
:10069000667E2546277E34023C4300E020E00C863F
:1006A0005E1C777F367F3F0237434F866E7F2F7FFA
:1006B00035023D438D860025CD864D72156845195E
:1006C000EE89F60BF60364082643EE81098E126864
:1006D00049088018491CC182986C04218843986499
:1006E000F0BD00220A80E92292005043A64A135C22
:1006F000022B01D00020704780184089088001201B
:1007000070470622504310B5A04A12688018A34AC9
:100710008018062206F0F8F910BDE9218900484347
:1007200099494018C18E808E0001814201D3012079
:1007300070470020704710B50446FFF723FFE920FB
:100740008000444390482018C18E491C89B2C1865C
:10075000062901D3012010BD002010BDF0B54C21A9
:1007600004464C4389490025096887B061184A89C5
:100770009206920E00924A89D204D20E02928F699A
:10078000898B814ACE06E92189004143515CF60EEE
:10079000022901D1FFF7F6FE0299009840182521A1
:1007A00006F088F901200A46202903D2014691402B
:1007B000394004E01346203B01469940314000296E
:1007C0000BD0724800682018418992068909890176
:1007D000920E1143418107B0F0BD03468B403B426E
:1007E00001D06D1CEDB2491CC9B22029F5D30021FE
:1007F00003468B40334201D06D1CEDB2491CC9B297
:100800000529F5D32946104606F054F95F480068DB
:1008100020184289890692099201890E0A43428171
:10082000D9E770B5044601F0F0FAE92189004C439C
:10083000554961180C6ACD7E63015B090A8E012D52
:1008400017D00D462035A87E022814D0087902283A
:1008500018D0032816D09818821C1207120F0A7796
:10086000E20ED20640014009024302200A62C87625
:1008700070BD801CF0E7486A4001400980180322DF
:10088000AA76F6E7088DC018E6E738B505460024D5
:100890006946204603F01BF9012805D0641CE4B228
:1008A000102CF5D3002038BD684600782870012050
:1008B00038BD3B4940000968085A800401D4012032
:1008C00070470020704700202F4A0146E9239B0013
:1008D0004B439B181B79012B01D1401CC0B2491C12
:1008E0000906090EF2D0704700B5FFF7ECFF0120B2
:1008F00000BDE92292005043234A801840304278DC
:100900005118202900D920214170C8B27047E9212F
:10091000890048431C491B224018017FC91C090754
:10092000090F0177016AD14105226031D14101628D
:10093000704738B5144D00246946204603F0C7F8C7
:10094000012807D168460078E92189004843285CDE
:10095000012804D0641CE4B2102CEDD3002038BD73
:1009600038B5094D00246946204603F0B0F8012847
:1009700008D168460078E921890048434019007988
:10098000022814D0641C0DE07403002088000020AD
:1009900055555555333333330F0F0F0F8C3D000032
:1009A000D08A0010E4B2102CDDD3002038BD012025
:1009B00038BD38B5FB4D00246946204603F087F862
:1009C000012808D168460078E92189004843401988
:1009D0000079032805D0641CE4B2102CECD300206D
:1009E00038BD012038BDFEB5E9218900ED4C4143F9
:1009F0000E190546615C307F012701290AD0317943
:100A0000032907D0022905D06846FFF73EFF0128D9
:100A100069D0B5E0E4490978FF2901D0A94226D17F
:100A200001A903F054F8012868460DD0FFF72DFF07
:100A3000012839D0308C02A9401C0007000F03F0B8
:100A400046F801283ED144E00079E9218900484375
:100A5000215C02290CD000190079032801D002285A
:100A600005D1FFF730FF39462846FFF742FFFEBDAC
:100A7000FFF729FF684639460079FFF73AFF6846D5
:100A80000079FFF76BFE307F294603F02FF8C64848
:100A9000457005703079032801D00228E7D1284637
:100AA000FFF735FF284655E068460078E9218900C0
:100AB00048430119097903290BD0022909D0205C88
:100AC000022806D0307F294603F010F8B64805709A
:100AD0005BE0FFF7F8FE39462846FFF70AFF284695
:100AE000FFF715FFFEBDFFF724FF01281AD0684667
:100AF0000078E9218900484300190179032911D0C0
:100B000002290FD0403041784120805D814224D9B4
:100B1000FFF7D9FE39462846FFF7EBFE2846FFF7D8
:100B20001DFEFEBDFFF7CFFE39462846FFF7E1FE6A
:100B30002846FFF713FE68460078E9218900414303
:100B400009190979032901D00229EAD1FFF7DFFE4B
:100B500068460078FFF765FEFEBDFFF7B4FE684605
:100B600039460078FFF7C5FE68460078FFF7A1FE1A
:100B700000280CD08C484078FF2801D0FFF7EEFD0C
:100B8000307F294602F0B2FF87484570FEBD6846B7
:100B90000078F3E7F8B501F038F9834D814F002470
:100BA0006860E92080006043C619F07E002816D0F6
:100BB000306A0122410168684909431A920593424B
:100BC0000DD8814202D12046FFF70DFF306A6968D7
:100BD00040014009884202D22046FFF722FE641CF1
:100BE0002406240EDDD0FF206870F8BD6F4A002176
:100BF00012684B00D35A9B0B012B0CD0491CC9B275
:100C00001029F6D300204100515A401CC0B21028D0
:100C1000F9D300207047017001207047E92170B5B9
:100C20008900604A41438A183B21895C012919D116
:100C3000EFF3108372B611468031158E8C6D6419F6
:100C400083F310888C650123CA6D5B0294420AD33A
:100C5000EFF3108072B600228A658A6C9A4380F3A3
:100C600010888A6470BD0A267543521BA242F9D8C7
:100C70008C6CA205F6D4EFF3108272B61C4382F39B
:100C800010888C64012102F04BF970BDF0B587B07B
:100C900004A8FFF7ABFF002871D0684601A9007CCB
:100CA00002F015FF00282ED068464049007C0968F4
:100CB0004000085A3E4EC004C00C85192888394CA3
:100CC000C006C00E022875D0082804D0092802D01A
:100CD0000F2818D118E068460021007901F0EDFBDB
:100CE000288A01218004800C89030AE08019028887
:100CF0005204520C028002888A43028000888004D9
:100D0000800C0028F2D1EBE0688A8004800C8719FF
:100D1000B888E9224006C10F684600799200504326
:100D20000019E1221154394606220831E23005F05B
:100D3000EBFE00202C46403408E039884904490C79
:100D4000398039888904890C8F19401C6189090A06
:100D50008142F2DC288A8504AD0C0CD035430AD0E0
:100D60002888C00B07D06846007902F063FD68460A
:100D70000079FFF756FD0020012189030CE0B3E064
:100D80002A885204520C2A802A888A432A802A8878
:100D90009204920C9519401C6289D2B28242EFDC17
:100DA0009EE007E0740300204C000020D08A001071
:100DB0000000105068460221007901F065FA0146F2
:100DC00068460079E9229200424312194032D175F7
:100DD000012101F072FB014668460079E9220646CE
:100DE00092005043051956220027515500291BD067
:100DF000EF86215C01294DD102212154F549FF20C4
:100E00000870294602A80E310622013005F07CFE4A
:100E1000A87E6946087202A80090072304220021D8
:100E2000304604F0E5FB35E0205C022802D00128C2
:100E300023D055E0E88E298E4018E8863046FFF72B
:100E40006CFC002826D068460079E92189004143DE
:100E500009198031896CC7229200914301D0222167
:100E600000E0082102F0DCFA68460079E9218900F7
:100E700048430019803087640CE03046FFF75BFC84
:100E8000002807D068463E21007902F0C9FAD1490E
:100E9000FF20087068460079E92189004143625CBF
:100EA000022A1DD10C195721095DC034227B012A69
:100EB0000AD1002908D0EFF3108572B6E17C02F068
:100EC000AFFA277385F310886846007900F0E3FBDA
:100ED00068460079FFF7A2FE68460079FFF752FBEB
:100EE0006846007C02F028FE75E430B589B005A89C
:100EF000FFF77CFE002844D0684603A9007D02F07D
:100F0000E6FD00283DD0B44D00206C4641004A1952
:100F10009389635492890919120A401CC0B24A701D
:100F20000328F3D3207BE92189004843AB491022F1
:100F30004118FF31AA48133105F0E6FDA649803972
:100F4000886BFF2212029043FF300130886307ABA9
:100F50006A46E11CA24800F0F4FE01280DD1684663
:100F6000007B062148439F490622096840189E4994
:100F7000401899490C3105F0C7FD28680121084344
:100F8000286009B030BD10B5984CA06B0102C200BA
:100F9000891809181E22490A50430818944905F077
:100FA00089FD27221201521A904940314B684001B5
:100FB000DB0EDB06400903434B6008689205800A9C
:100FC0008002920D10430860206B082108432063C3
:100FD00010BD10B5002A04D00223D2B201F0E7F907
:100FE00010BD0123F9E7F0B5054640888DB0002813
:100FF0003CD0804E0927841920884004400C208072
:10100000608838422DD1A0880107090F6846017118
:10101000E18808A80173A08806224006C10F68462F
:10102000417121460831801D05F06EFDA0888004C5
:10103000800E801F202801DD202203E0A08880048C
:10104000820E921F6846027321460E310D3005F064
:101050005BFD01A80090A87A29230222002104F058
:10106000C7FA20888004800CC5D101200DB0F0BDE6
:10107000F0B5458889B00446002D0AD0A17AE92050
:1010800080004143554808188030806C00060AD51E
:1010900011E0002009B0F0BD69460B7EA07A564AE7
:1010A000097801F0E1FFA07A6B4606AA524900F0E8
:1010B00073FF0028F0D14F4E4A4F04A80090A07A49
:1010C0004C2148433968AD19401805AB03AA29469D
:1010D00000F0C0FC00287CD068468189002978D0C7
:1010E000A8888007800F0090012805D002280ED024
:1010F0004248002242800180A07AE92189004843C9
:10110000364940183B21095C012915D020E0A07A1E
:10111000E9218900314A414389188031896CC90528
:1011200003D53D2102F07CF9E6E7344900204880F0
:101130002889001D0880DFE769468989002907D0D2
:10114000EFF3108172B60022803081F3108882653F
:101150002A480188002960D0694640888A89801819
:10116000FA280CD2254829460831001D05F0CCFC90
:1011700022486946408889894018204948801F488C
:1011800041880388994248D1A07AE9218900024622
:101190004A431249895C002946D0104951188031D0
:1011A000896CCA0506D5009A032A03D03D2102F0B6
:1011B00037F939E0090637D50099032924D10F49B9
:1011C0000979062930D01BDC04292DD005291BD133
:1011D0002AE022E04C00002000011150740300209E
:1011E0001808002088000020BC3D000000001150BD
:1011F0007102000000001050740200201807002047
:101200000D2911D011290FD0DAB2FA49009B00F054
:101210009EFEF8490020091F088028888504AD0C2F
:1012200000D04AE7012035E7F24AA07A121F13786E
:10123000121D009901F018FFEBE7F8B5C1880546CB
:1012400000290CD0EC4E8C196088000A17D0208839
:10125000C00B14D06088C043800702D00FE000208C
:10126000F8BDFF200330005D022808D1EFF310879E
:1012700072B6A87A162102F0D3F887F31088608836
:1012800080088000401C608020884004400C208042
:1012900020888104890CD6D10120F8BDF0B585B035
:1012A0000025EFF3108672B601F0F8F9040086F31A
:1012B00010881DD02078002804D0012806D00228EC
:1012C00013D127E02046FFF78EFE02E02046FFF70D
:1012D000CFFE002809D0EFF3108672B6A28861888D
:1012E000A07A01F08CF986F31088204607F05EF8AA
:1012F000C24E1D277F01E920800068438019C41970
:101300006178012914D0022926D003292ED004297E
:1013100049D142E02046FFF790FF0028E5D0EFF3E7
:10132000108672B62289E188A07A00F0D1FEDAE751
:10133000A078002837D1B24869464870000A887002
:101340000020C87008710920087000236A46012136
:10135000284601F00AFD07E0A078002823D1A94A19
:101360000121284601F083FD617819E0A07800286A
:1013700019D1012168460180891E41800021017137
:10138000282141719F48A0491438016106236A460B
:101390000121284602F0E4FDE6E7A078002802D10A
:1013A000284604F09BF96D1C2D062D0EA3D0954800
:1013B00014388468002C11D0600702D50420FEF791
:1013C0009FFEE00505D5FFF790FDFF200130FEF7F9
:1013D00097FE200702D50820FEF792FE05B0F0BD6B
:1013E00010B5FFF7B7F88948804700F09BFB02F083
:1013F000D9FB012010BD1CB5C27981790192009101
:101400008278417813020B430279C17812020A43B1
:101410000178407901F04DFF1CBD10B501F0E2FFED
:1014200010BD10B501F0F4FF10BDE9229200504349
:10143000724A10B58018764A8018082205F064FBBD
:1014400010BD10B502F040F810BD10B501F0CAFF94
:1014500010BD10B502F0FFFB10BD10B5012104F066
:1014600030F910BDE92292005043644A80180322EB
:101470001202801841667047E92210B592005F4B56
:1014800042439A5C022A01D0002010BD0A46012185
:1014900002F04CFD012010BDE92210B59200574B1F
:1014A00042439A5C022A01D0002010BD0A46012165
:1014B00003F0C5FA012010BD10B5E9239B004F4C85
:1014C0004343E35C022B01D0002010BD13460A46C3
:1014D000012103F057FD012010BD10B5E9239B0049
:1014E000464C4343E35C022B01D0002010BD134661
:1014F0000A46012103F085F8012010BDE92210B54C
:1015000092003E4B42439A5C022A01D0002010BD5B
:101510000A46012103F05DF9012010BDE92210B552
:101520009200364B42439A5C022A01D0002010BD43
:101530000A46012103F0FCF9012010BD10B5E92392
:101540009B002E4C4343E35C022B01D0002010BDD6
:1015500013460A46012102F003FD012010BD10B51B
:10156000E9239B00254C4343E35C022B01D0002080
:1015700010BD13460A46012103F094FA012010BD64
:1015800010B5E9239B001D4C4343E35C022B01D0C3
:10159000002010BD03F077FB012010BD10B5E9233A
:1015A0009B00164C4343E35C022B01D0002010BD8E
:1015B00013460A46012103F00AFC012010BDE9226E
:1015C00010B592000D4B42439A5C022A01D00020D4
:1015D00010BD0A46012103F0B0FC012010BDE92234
:1015E00010B59200054B42439A5C022A12D00020AB
:1015F00010BD00001C0700200000105074030020E4
:101600003A0900006000002018090020DF560000A1
:10161000510300000A46012103F0FFFC0120E7E727
:10162000F8B500212D4C7F20A0472C4D3E20694667
:10163000223DA8476846007869468606B60E3D20DA
:10164000A847684600788109890131433D20A047B9
:1016500069463F20A847684600788006800E0D281E
:1016600002D90D38C6B200E0002669463C20A847E2
:10167000684600788109890131433C20A0476946CA
:101680003B20A84768460178042001436846017062
:101690003B20A047F8BD70B5E9218900104A4143BD
:1016A00089180C468034C726A26CB600B24314D009
:1016B000EFF3108572B6098E626D51187D225202C9
:1016C0006165914207D3222101F0AAFEA06C30404F
:1016D000A0640020606585F3108870BDA729000014
:1016E00074030020017070470180704701607047EB
:1016F00000787047008870470068704701229207A1
:1017000080180170704701229207801800780870D5
:101710007047F94A801801707047F74A80180078BE
:101720000870704770B514460D460646002305E064
:10173000E95C3046FFF7EDFF5B1CDBB2A342F7D359
:1017400070BD70B514460D460646002305E02946D7
:101750003046FFF7E2FF5B1CDBB2A342F7D370BD5C
:10176000E64A8018007808707047E44A80180170D3
:101770007047F7B5E24C88B0216807460D46A031A6
:1017800010220E46684605F0BFF929461022B031F6
:1017900004A805F0B9F910223946304605F0B4F92D
:1017A000206810220999B03005F0AEF9216808468A
:1017B0004030027D01231A430275027DD207FCD11D
:1017C0001022B0310A9805F09FF92068102269466E
:1017D000A03005F099F92068102204A9B03005F076
:1017E00093F90BB0F0BDF7B58446C648818882797D
:1017F00012041143890CC44A890489188180090C98
:1018000081718179802211438171C1790421C17173
:101810008189490A49028181FF250023072001248B
:1018200000221F21C91A6646765C811A27468F401E
:101830003E4206D0B3488189490A49022943818141
:1018400009E06D1E521CD2B2EDB2082AEDD35B1C2A
:10185000DBB2202BE4D3AB4820226146103005F0E8
:1018600053F9A8482022A949303005F04DF9A7497D
:10187000A44820222031503005F046F9A14D687867
:10188000204368709F4E8036707CC007FCD068781B
:10189000400840006870707C20437074994F20228B
:1018A00070373946019805F02FF96878022108430E
:1018B0006870707CC007FCD06878FD2108406870B3
:1018C000707C2043707420223946029805F01CF980
:1018D000FEBDFFB584468B4881B0818882791204B1
:1018E00011438A0C21219204090351188180090CAB
:1018F00081718179802211438171C1790421C17183
:101900008189490A49028181FF250023072001249A
:1019100000221F21C91A6646765C811A27468F402D
:101920003E4206D077488189490A4902294381818C
:1019300009E06D1E521CD2B2EDB2082AEDD35B1C39
:10194000DBB2202BE4D36F4820226146103005F033
:10195000DBF86C4820223030029905F0D5F8694850
:1019600020225030039905F0CFF866484178214392
:101970004170644980314A7CD207FCD042785208D9
:1019800052004270487C204348745E4920227031E6
:10199000049805F0B9F805B0F0BD70B55C4C06468A
:1019A000A0881D46A3791B041843800C594B800462
:1019B000C018A080000CA071A07980231843A071EA
:1019C000E0790420E07120899305800A80029B0D54
:1019D00018432081504805F097F84D4810223146B1
:1019E000103005F091F84A4920310A7C0120024369
:1019F0000A746278024362704A7CD207FCD00A7C87
:101A0000520852000A744A7C02434A741022284643
:101A100005F07AF870BD10B5404A9378012423434D
:101A2000937013781070107908709078C007FCD00C
:101A30001079087010BD10B5384A937801242343FB
:101A4000937013781070507851709078C007FCD064
:101A500010BD704730B5039C00252570304C2142E5
:101A60000AD04C88640609D04888C009C001488063
:101A700008884004400C0880002030BD00884006E3
:101A800009D58888C004C00E042804D38888C004FF
:101A9000C00E001F02E08888C004C00E1080888835
:101AA0000007000F187008884004400C08800120CF
:101AB00030BD10B54288120A01D0002010BD428806
:101AC0000B78D2B21B021A43428042884B789208AC
:101AD00092009B079B0F1A434280428810239A432F
:101AE0008B78DB07DB0E1A4342800A78001DC91C85
:101AF00005F00AF8012010BD00000150000101505E
:101B00006C0000200090025000E10200908A00105A
:101B1000009102501000020018190020000201502C
:101B2000FFFFEFAFF8B50026EC4DDE27E92080007F
:101B300070434419E9218900204604F0FEFFA77391
:101B4000FA20E073FE202074CA206074A074E77449
:101B50000020A076304600F0F2F9761C3606360EEC
:101B6000E4D0DF484178012211434170DD4801682B
:101B700052061143016001688901FCD40168012209
:101B8000D2071143016001680029FCDBC168FF2412
:101B900001342143C160D44A5168FF231943516085
:101BA000D04980310B681B0A1B026E330B600B6837
:101BB0000F26360233430B600E68FF231B041927E0
:101BC0009E43BF04F6190E600668F0273E43066088
:101BD0000668264306600E687F242406A6437F0518
:101BE000F6190E605669360A36026936566156692C
:101BF0007F143E43566156699E4319239B04F31894
:101C000053615369A343192424061B1953610268C5
:101C100001239B021A430260B24AEB89203293806F
:101C20002B8AD3806B8A13815389AC7E5B085B005F
:101C3000E407E40F23435381C268AC4B1A43C260EC
:101C40000A6907231A430A6101680122120311433A
:101C50000160A34A0221A0321177016801225205D6
:101C6000914301600168521091430160A049100244
:101C70000860F8BD9F480068417A8906FCD4704727
:101C80009C4800682030C17810221143C170704711
:101C9000984800682030C178EF221140C170704729
:101CA00094480068C078C007C00F7047012000E06A
:101CB00000BF401EFCD2704700B54208521C01E034
:101CC000FFF7F4FF521EFBD200BD10B5894C24680B
:101CD00062756074A174080AE074207CF3210840E6
:101CE0009907090F08432074207C022108432074BF
:101CF000207C012108432074FDE670B57D4C502600
:101D0000246872252E5562756074A174080AE07407
:101D1000207CF32108409907090F08432074207C98
:101D2000022108432074207C402108432074207A3B
:101D300000090001801C2072A078DF210840A070FB
:101D400070BD70B56C4C1546A388A279800312044F
:101D500013439A0C9204800B0243A280100CA071D2
:101D6000A07980221043A071E0790420E071207AEC
:101D700040094001103020725F480322103004F007
:101D8000C3FE5D4803222946133004F0BDFE5A48C5
:101D90002030027C01210A43027462780A43627097
:101DA000427CD207FCD06278520852006270027CFA
:101DB000520852000274427C0A4342740078C009FF
:101DC00000D0012070BD4B4800680178012211430A
:101DD00001707047474800684030407D704738B513
:101DE000044640790B4640060BD56A46E11C18466E
:101DF00003F09AFC03222146684604F0BDFE002849
:101E000001D0002038BD012038BD3648C0694001EE
:101E10004009704700B5334901224869C007FCD02A
:101E20008A61FFF7F2FF0007F7D100BD7CB52D48AE
:101E30004469002C51D08461E00701D0FEF7AAFE6E
:101E4000E0051BD5284D2B480C3506CD826041603E
:101E5000254801680122114301602848083D007DA2
:101E600000280BD0254923480D39001DFFF7B7FF87
:101E7000002803D00121284601F0EDFEA0061CD564
:101E80006846FEF7B3FE012804D1684601A9007830
:101E900001F01DFE00206946194D087008782A6877
:101EA0004100515AC90401D001F046FE6946087844
:101EB000401CC0B208701028F0D3A00702D5022041
:101EC000FEF716F9200704D5FEF7E0FE0820FEF71E
:101ED0000FF9600701D5FFF756F87CBD74030020A9
:101EE0000010005000001150000111500000FFFFD1
:101EF00000E100E06C00002000920250F406002097
:101F0000D08A001010B544003A482D21005F401CD3
:101F100004F0E6FD3748801C005F814201D10120BA
:101F200010BD002010BD3349324A4000095E921CAA
:101F3000105E814201D101207047002070472D4A78
:101F400000214000921C1152921E11527047FFB5A1
:101F500081B01D4616460446FFF7D4FF002802D084
:101F6000002005B0F0BD244824496043214F4018AB
:101F70006400395F32460B02591A465440184570C6
:101F8000801C029904F0C0FD385F2D21401C04F034
:101F9000A7FD39530120E4E7F8B516468C46044600
:101FA000FFF7C1FF002801D00020F8BD1248114DF5
:101FB00060436400AD1C11492A5F40181702B91A2A
:101FC000415C3170295F0A02511A41184978197031
:101FD000295F0A02511A411832786046891C04F0C0
:101FE00093FD285F2D21401C04F07AFD2953012028
:101FF000F8BD000078000020D32C00002819002034
:10200000E921F0B58900FF4A414389180022403197
:10201000CA808A804A80CA814A810A814C2203464A
:102020005343F94A14681B191C8AA40BA4031C828D
:10203000F64BF64D58431368B83DC3181C464C3454
:102040000C815D194D818C812824CC814033D98944
:102050001027B943D98101211368C418FF23053320
:102060004B43E4182546C03D2E894C34B60BB603CD
:10207000A404A40C26432E8114680419E4184034E7
:10208000E589BD43E58114680419E4184034A58945
:102090006D046D0CA58114680419E4184034A589F9
:1020A0000126B603B543A58114680419E418403429
:1020B000E589EDB2E58114680419E3184033DC8941
:1020C000A408A400641CDC81491C2829C4DBF0BDE1
:1020D000F0B5E924A4006043CA4CCD4D00194B195A
:1020E0000024002930D0002A2ED01E880127BF03EB
:1020F000BE431E805E88F6B25E805E88B608B6007B
:10210000761C5E805E881027BE435E801B889B0421
:102110009B0C5B19641C1E04E4B2360CE5D103462B
:1021200040335E89002E10D0701905888E04AD0BE7
:10213000AD03B60C354305805A81D8890019D88182
:102140009889002800D19981F0BD403001814281F9
:102150008181C481F0BDF0B5E924A4006043A94C9D
:1021600000260019002906D040300489002C02D036
:10217000C5898D4201D20020F0BDA54D641914809F
:10218000C289521AC2818789A2B2BA4200D10126FD
:10219000012900D11A80491E2288C9B29204920CEA
:1021A00054190029EFD10481198849190A88920B22
:1021B00092030A80002E01D0018981810120F0BDA7
:1021C0007CB50546E92080008E49684344184034B8
:1021D000E088002808D0A28861882846FFF778FFA9
:1021E0000020A0806080E080217C01AB6A46284608
:1021F000FFF7B1FF002846D0E088854A002823D0A9
:10220000A088801801886B461B88890B89039B0472
:102210009B0C1943018068468088A080208AE0805A
:102220004C204543784800682818018A6388890B48
:1022300089039B049B0C194301826088A188801844
:10224000891810239C0211E0684600886080E2E74C
:1022500045889D43458005886D046D0C0580058883
:10226000A543058000888004800C80188842EFD147
:1022700048889843488008884004400C08800888B3
:10228000A043088001207CBDF3B583B003984C21A6
:1022900048435D4902900968401840304089E9216F
:1022A000C6B203988900484356494418002E7BD093
:1022B0004034618856480F18E088B04205D10020AC
:1022C000E080A18852480D1816E001213D46721E9B
:1022D0004F4804E02B889B049B0C1D18491C91421D
:1022E000F8DB28888004800C60802888800B8003BD
:1022F0002880E088801BE080102006F0FFFA00288C
:102300003BD00499017003998172C7800581002137
:10231000C16000F0B3F9207CA17901AB401AC1B2D1
:102320006A460398FFF717FF00283DD0E088002891
:1023300029D0A1883648081801886A461288890B76
:1023400089039204920C1143018068468088A08022
:10235000208AE0802C48029900680818018A628867
:10236000890B89039204920C1143018261882848E9
:10237000A28809181218102311E0AAB2B9B2039862
:10238000FFF7A6FEC7E7684600886080DDE70BE040
:102390004C889C434C8009888904890C0918914217
:1023A000F6D1508898435080304605B0F0BDFFB557
:1023B0000746E92080001349784381B0401802990C
:1023C000154600292BD0403000908089002826D067
:1023D000EFF3108672B60E494418201D029904F0DE
:1023E00093FB60880499800880008907890F08435F
:1023F0006080002D15D04C20474303480068C05B27
:10240000000607E07403002088000020A0280000D8
:102410000000105005D560882D1DC0B203E00020DB
:10242000C3E76088C0B2290208436080049803288B
:1024300004D102980178FF200330015520888104DF
:102440000098890C818186F310880120ADE7F0B5F2
:10245000A5217F4A4901414314680B460D197D4966
:102460007D4F6E18E92189004143C91940314E82E0
:102470007A4EAD198D824C2568430019448A498AE9
:10248000A40BA4038904890C0C4344820120714CE1
:102490009F25AD0111685E18FF2109314143711874
:1024A0004E19B78C0919BF0BBF038904890C0F4360
:1024B000B784401C1428EDDBF0BDF3B58BB00B984E
:1024C0004C214843624903900968401840304089D4
:1024D000E922060A0B98920050435F4A122485189D
:1024E00007954035688A01902C5F5D480443039846
:1024F000085A4006C00F089000200490002E01D01A
:10250000002752E000200DB0F0BD6188687E0140D8
:10251000490638D06188014048066188400EC909E3
:10252000C901014361800499491C0491010704D544
:102530000799079AC96D491CD165410604D50799C9
:10254000079A096E491C1166810604D50799079AF6
:10255000496E491C5166410704D50799079A896E4F
:10256000491C9166C10704D00799079AC96E491C96
:10257000D166089900290FD0C0060DD53D210B98D2
:1025800000F04EFF08E00C98012805D16088400655
:1025900002D1A0888007F1D0701E874204D0208825
:1025A00081042F48890C0C187F1CB742ADDB10202A
:1025B00006F0A4F90028A6D021888904890C698234
:1025C0002349039A096851184A8A6B8A920B92032D
:1025D0009B049B0C1A434A822188890B8903218022
:1025E0000C9901700B9981720199418084800021BE
:1025F000C16000F043F80498301AC0B283E710B508
:10260000002915D0E9239B00134C43431B19403389
:102610005C8A12B2002C0CD01420185E104C20439F
:1026200004888904A40BA403890C0C4304809A82B7
:1026300010BD59824C214843054909684018418A18
:102640005C8A890B8903A404A40C21434182EEE730
:1026500088000020EC28000074030020843C000067
:102660000000105010B5124C03E0C168216005F065
:102670009DFE20680028F8D1606010BD00280CD0B5
:102680000B490A68002A02D04A68D06000E008605E
:10269000486049680020C860012070470449086804
:1026A000002804D0C2680A60002A00D14A6070473E
:1026B0007C000020E92189004843FE4910B54018FC
:1026C000018E1920400104F0F5F9082800D20820F5
:1026D00080B210BD10B51C46012801D9002010BDE4
:1026E0000B462146FFF763FE0028F8D0012010BDFD
:1026F000FFB50D46E9218900EE4A87B041438C18A9
:10270000119E691E1F468E4200DDCEB2082E00D9F2
:102710000826002269460A704E70129A4A808D80FF
:10272000099ACA800F81109A4A816B460C220321B4
:10273000FFF7D0FFEFF3108072B6214680318A6C2C
:1027400004231A438A64109AA28101226272129AA7
:10275000520092198A76C91C6A000A76120A4A76D1
:102760008134099A2277120A62770F773A0A4A77F8
:1027700080F310880BB0F0BDF1B58CB0E9210C9856
:1027800089004843CB4945182C46A934E078A17804
:1027900007020F43607821780002084387420CD972
:1027A000217A0E1E09D08019401E04F099F9704359
:1027B000874202DB2070000A60700C98FFF77AFFF6
:1027C00069896A8E8918401887B2601C0890A17ABE
:1027D000627A08021043E9220C9992005143B54AEB
:1027E0008E18AC36002854D0717A327A090211431F
:1027F000B14A0A9191424CD0617822780902114382
:1028000006910291491E082901DD082101E0029983
:10281000491EC9B20191B84201D2381A00E0C01B6A
:10282000298E49084843298E490804F043F9029843
:10283000411A0A980818069904F03CF90198814257
:1028400000D901463172090A717201210898017399
:10285000090A4173707A317A000208430899C0B2BC
:102860004A7B0B7B11021943C9B200970191029078
:10287000E079A179030260790B4302022179607843
:102880000A432478010221430C98FFF731FF0DB071
:10289000F0BD0020307270720221D7E730B587B0EA
:1028A0000A9C00290BD0112269460A704B708C706B
:1028B00003226B461146FFF70DFF07B030BDE9213B
:1028C0007C4B890041431478C9188031032C12D005
:1028D0000F2CF2D1EFF3108372B640258C6CAC4311
:1028E0008C64002483F310884C6551781A29E4D154
:1028F000FFF742FFE1E7EFF3108072B6FF238A6C27
:1029000081339A4380F310888A64D6E738B5054648
:10291000E9208000674B6843C3180020EFF3108460
:1029200072B680339B6C0B4201D0232004E0C72198
:1029300089000B4208D02A20134600900022012172
:102940002846FFF7ABFF012084F3108838BD10B58F
:10295000E923584C9B0043431C1986B0002914D02E
:10296000022369460B704A706B4602220321FFF76F
:10297000B1FEEFF3108072B68034A16C20221143B7
:1029800080F31088A16406B010BDC034E274012049
:102990002073F8E7F0B587B00D460446032168467A
:1029A0000170297A4172697A8172294612310422B2
:1029B0000E46133004F0A8F800A80822294601307A
:1029C00004F0A2F829460A3102A808220D46033075
:1029D00004F09AF8E92080003649604347183846E9
:1029E000FF302C300822294604F08EF83846FF309C
:1029F00024300422314604F087F86B461722032165
:102A00002046FFF767FEEFF3108172B6384680303C
:102A1000826C80231A438264002281F3108842650D
:102A200007B0F0BDF3B54C210546244F4D4339683E
:102A300081B06E18E921890048431E4908224418D4
:102A40002046FF3034302036029904F05DF82046ED
:102A50000299FF3028300422083104F055F8386814
:102A60002146FF31281824310822303004F04CF878
:102A70002146FF3120462C317C30324602F0DFFE09
:102A8000002010231A1A9219203A315CD57F355450
:102A9000401CC0B2D1770828F4D3EFF3108072B68F
:102AA0008034FF22A16C0132114380F31088A164AD
:102AB000FEBD000074030020FFFF0000880000201E
:102AC00010B586B0044606206946087001221146FA
:102AD000204600F0B8FC6B46012203212046FFF798
:102AE000F9FD50E700B587B00A216A4611706B46C0
:102AF00001220321FFF7EEFD07B000BD10B586B03F
:102B000018246B461C7059709970DA70110A19718B
:102B100005220321FFF7DEFD35E7890703D580078E
:102B200001D50220704701207047F7B586B0E9242F
:102B30000698F74BA4006043C4182546102780353B
:102B400000290DD016216846017011784170517826
:102B5000817003226B4611460698FFF7BBFD16E015
:102B600051781078FFF7D9FF06467020005DB0421B
:102B700010D0A28931460698FFF7C0FF0698FFF7EC
:102B800099FD6189628E89184018A081E671A86C50
:102B9000384301E0A86CB843A86409B0F0BDF3B5B0
:102BA0000646E9208000DA497043441887B0304671
:102BB000FFF780FD6189628E01278918401885B270
:102BC00068460770C5800522401C089903F09CFFE9
:102BD00020460522C030089903F096FF6B46082274
:102BE00003213046FFF776FD0028F7D0A581277234
:102BF0008034A06C08210843A064CEE730B587B0CC
:102C0000002909D00D2269460A704B706B460222DA
:102C10000321FFF75FFD50E6E9218900BC4A4143EB
:102C20008C188034A16C4A060ED5EFF3108272B670
:102C30004025A943A164002182F3108861651A2B05
:102C4000E9D1FFF799FD38E60806E4D5EFF31080E7
:102C500072B6FF228132914380F31088A1642CE682
:102C600008B500910F2300220121FFF717FE08BDD0
:102C7000F0B507461546E9208000A54A7843841838
:102C80002646A93687B0002920D00F206946087053
:102C900000A817222946013003F036FF30461722DC
:102CA000294603F031FF6B46182203213846FFF70F
:102CB00011FDEFF3108072B68034A16C40221143F5
:102CC000A164002180F310886165A9E60F22042128
:102CD0003846FFF71BFE0028F7D168782A780102F2
:102CE0001143062907D3E878AA7800021043192275
:102CF000D201904208D91E2000900F23002201210A
:102D00003846FFF7CBFD8BE62A7A002A27D1884286
:102D100025D12146A3314A7A0B7A12021A439042F6
:102D20001DD168792A7900021043A134627B237B8C
:102D300012021A43904212D1E879AA790002104394
:102D40004A7B0B7B11021943884208D1297BEA7A1E
:102D50000802104303D03846FFF70EFD60E6304608
:102D60001722294603F0D0FE5AE6FFB507460E4665
:102D7000E9206749800078434018044600258034E4
:102D800087B0002E21D111782173937851781B02DE
:102D90000B43E3811179D278090211432182A16C9E
:102DA0008A0709D5EFF3108072B60222914380F3AF
:102DB00010886565A164DDE41D2149014018817812
:102DC000012902D1407801281CD00C2168460170ED
:102DD000092141704F49418085806B4606220321BD
:102DE0003846FFF777FC0A98002809D0EFF31080E7
:102DF00072B60222A16C114380F310886565A1644C
:102E0000002ED8D10221384602F05BFCB2E470B546
:102E10000546E92080003E4A684384183E4808225F
:102E2000201803F071FEEFF3108172B68034A06CAD
:102E300040084000A064002081F3108860650321F1
:102E4000284602F03EFC70BD10B586B0044609204D
:102E50006946087000A808223049013003F054FE8A
:102E60006B46092203212046FFF734FC8BE530B581
:102E700005461346E920264A80006843841887B037
:102E800000291BD0082069460870024600A8194690
:102E9000013003F039FE6B46092203212846FFF773
:102EA00019FCEFF3108072B68034A16C012211433B
:102EB000A164002180F310886165FEE416480822B1
:102EC0002018194603F020FE2846FFF7BDFFF4E462
:102ED00000B587B0002908D013216A4611706B46EF
:102EE00001220321FFF7F6FB06E6EFF3108172B62D
:102EF000E92292005043064A012380188030826CF8
:102F00005B029A438264002281F310888265F3E5B4
:102F1000740300203A0900009903000060000020BB
:102F200000B587B0002908D012216A4611706B469F
:102F300001220321FFF7CEFBDEE50121FFF7C8FFE9
:102F4000DAE5FB2901D9FB2102E01B2900D21B2174
:102F5000FB2A01D9FB2202E01B2A00D21B22E92313
:102F60009B005843C44BC3180D20800118180185DD
:102F70004285704710B586B0002916D015226946E3
:102F80000A70FB234B7000228A70BC4ACA70140A74
:102F90000C714B7100238B71CA71120A0A726B4655
:102FA00009220321FFF796FBEDE4517814780B0218
:102FB000517912790902234311431A46FFF7C1FFE1
:102FC000E1E410B586B01346044600290FD0142062
:102FD0006946087000A808221946013003F094FDE4
:102FE0006B46092203212046FFF774FBCBE4587897
:102FF0001978020258790A431B79010219432046C5
:10300000FFF79FFF002201212046FFF7B3FFBAE43C
:1030100000B587B001290AD00F2A12D0122A1FD07A
:10302000142A03D100221146FFF78BFF64E5072322
:1030300069460B704A706B4602220321FFF74AFB78
:103040005AE5E92189008C4A41438A180721C901C0
:1030500051184A7EFD231A404A76FFF78DFB4BE557
:103060000021FFF735FF47E5F8B50C465B1ED9B2E6
:10307000032C05D0002902D0114602F043FFF8BD11
:10308000E9239B007C4C434316781F1900963C466D
:10309000B61E00258034330004F031F9180DA41455
:1030A0001A1FA2A436A43C418E495057966E7378DD
:1030B000808787A49FA401296FD152780021FFF750
:1030C00046FCF8BD0C2968D1511CFFF7ABFCF8BDDC
:1030D000002962D1FFF7F4FCF8BD00295DD1EFF3C0
:1030E000108072B6FF22A16C8132914380F3108868
:1030F000EFF310806565A16472B601212037F9767F
:1031000080F31088A565F8BD08296BD1511CFFF725
:103110007EFEF8BD002965D100F06CF8F8BD0529E8
:1031200060D100231946521CFFF71FFEF8BD082985
:1031300058D10021521CFFF79AFEF8BD172951D132
:103140000021521CFFF794FDF8BD17294AD106460D
:10315000511C3846A930172203F0D6FCEFF310803B
:1031600072B64022A16C914380F3108865653046A9
:10317000A164FFF701FBF8BD002933D1FFF7D0FEB2
:10318000F8BD00292ED1FFF7A3FEF8BD082929D1EB
:103190000021521CFFF715FFF8BD20E0082921D1BE
:1031A0000021521CFFF7E6FEF6E702291AD10021A2
:1031B000521CFFF7BAFCEFE7012913D15378002224
:1031C0001146FFF71BFDE7E702290BD10023194643
:1031D000521C0095FFF762FBDEE70229DCD001E01C
:1031E000012904D00121009AFFF712FFD4E7527899
:1031F0000021F9E730B58FB005460B216846017014
:1032000000221146284600F01EF9EFF3108272B634
:103210000223E92080001849684344183B210B55DC
:103220000021D820015182F310886B46012203212E
:103230002846FFF74FFA7A20015B68460184214651
:103240007131082206A803F05FFC2146FF310AA86D
:1032500024310422023003F057FC2146FF3108A834
:103260002C310822023003F04FFC06A92846FFF754
:1032700091FB0FB030BD000074030020480800002F
:1032800010B54A780C781302FE4A23439380CB781A
:103290008C781B022343D3804B790C79190221438C
:1032A00011815189C00749084900C00F014351816C
:1032B00010BDF8B50F46E92189000646F24D4E4390
:1032C0007419E17E002901D00020F8BDD11E994279
:1032D00000DA0B460021A955022525716186254695
:1032E000A186403569702976228563850921697632
:1032F000012270210A554C210546E44E4D43716868
:103300004A5B52095201002F01D0092300E0082333
:103310001A434A53DD4A0832138869184B80518892
:103320007268AA18918071684A5B20239A434A53B5
:10333000D74A6918CA80716869180A89120A120284
:1033400055320A81716869184A89920992012532B9
:103350004A8171686A1853890121C9030B4353815B
:103360007268AA18D389678DDB0BDB037F047F0C9F
:103370003B43D3817268AA18D3890B43D381726807
:10338000618DAA18D182716869180A89079BD2B227
:103390001B021A430A81C0B2FEF712FF7068281898
:1033A000008ABC498004800C4518FF21281D03F0C9
:1033B000C4FB68880321C0B289024018688068880D
:1033C00000090001C01C68800698002806D021462C
:1033D00014310120FFF754FF0120F8BD21460E31C2
:1033E0000020F7E7E9218900484310B5A6494418B1
:1033F000E07E00280BD1FEF708FD001D216A400188
:103400004009C90EC906014301202162E07610BDC2
:10341000E922920050439C4A00218018C1767047EF
:1034200003B581B00346FFF7F3FFE9208000964A19
:1034300000215843115402A80090D8B20123082259
:1034400002F0D6F80EBDF0B5904C4C238027002535
:103450004343666800290CD099190D876168591893
:103460004D87616859188D876168CE5A3E43CE52A8
:1034700002E0F15AB943F152E926B6007043824E98
:10348000402180194030002A626812D09A18D587EE
:1034900062689A184032158062689A1840325580E6
:1034A0006268D45A0C43D452EFF3108172B63922B9
:1034B00006E0D45A8C43D452EFF3108172B62D2219
:1034C000427681F31088F0BDF3B583B0E920039D07
:1034D00080006D4F4543EC19E07E0E46002802D077
:1034E000002005B0F0BD0398C0B2FEF728FD706A59
:1034F000042801DA04207062B0693168400081421A
:1035000001DA084601E0001F30607268C11E914276
:1035100001DA001F706003980022C0B21146FFF765
:1035200092FF2146203100200191C8762246803248
:103530005949D1659065785503212171318C618697
:1035400031882185B1886185B18BA18601990223DB
:103550000B73214640310091487000990F23087683
:1035600003991B0219436180411EE16300991F23E7
:103570000B70019901258D76318B09234900218635
:10358000B18C218700994B76CC2108559064204658
:10359000A330328B0272120A42720146328B801EB5
:1035A0000272120A4272328C0273120A4273B08B98
:1035B0000873000A48730020FF210722D201231854
:1035C0009B18401C59760828F9D3706900287DD0D3
:1035D000214614310120FFF753FE70200555039D4D
:1035E0004C20454329484068415B20229143415388
:1035F0000398C0B2FEF7E4FD244840682818008A0A
:1036000024498004800C4718FF21381D03F095FAE7
:103610001E49381DC86003991C4A89001032891858
:10362000042203F071FA19485522C0680321001DD5
:1036300003F07CFA1548318BC06804228172090AB4
:10364000C1720199097BC171618E0173090A4173CD
:10365000A18E8173090AC17321463C31103003F0F9
:1036600053FA009802780948C16805200A75487520
:1036700006484068415B490949010F3141530349FC
:1036800008310BE02000115074030020840000205A
:10369000555500000000105080BB00000A88281813
:1036A0004280FF484988406828188180FC48FD49CD
:1036B00040682818C180FA48406828180189090A1A
:1036C000090255310181F648406800E00AE02818F7
:1036D0000189327AC9B2120211430181B06800280F
:1036E00004D017E021460E31002074E7EC48316920
:1036F000406806222818203003F006FAE84840689F
:10370000281820308179327B49084900D207D20F2E
:1037100011438171E248416869184A89920992010E
:1037200025324A81416869184A891F231B029A433E
:10373000FF3201324A81416869184A890123DB035B
:103740001A434A81416869188A89120A12028A81D9
:10375000416869188A890F231B029A43FF3201329C
:103760008A81416869188A8901231B031A438A8167
:10377000416869188A895B001A438A81416869181F
:10378000CA89638DD20BD2035B045B0C1A43CA81D6
:1037900041686918CA890123DB031A43CA81416859
:1037A00069184A8A5204520C4A824268618DAA18EA
:1037B000891E91824268618DAA18D1824268E16BAC
:1037C000AA189161416869188A8B009B52091B787D
:1037D0005201DB06DB0E1A438A83416869188B8B22
:1037E0003F2212022524934324021B198B83416834
:1037F0006918CB8B9B0A9B02CB830199338B097B86
:1038000040684908591A2818818278881121904304
:1038100049024018788078884021884378807888E9
:10382000802188437880788800090001401D7880D5
:10383000012056E6F1B582B0E9210298890048439B
:103840009949012244180A5422710026204620304A
:103850000090C676254608204035687005202876F9
:10386000E6866681A681324631460298FFF769FBFB
:10387000274604218037B974FE74387D084310212F
:10388000084380088000401C7975C006C00EF721EF
:103890000840387501E0042E07D2FEF79BFAA11903
:1038A000FF312131C870002003E0A119FF3121311F
:1038B000C870761CF6B2082EEDD3002601E0082E63
:1038C00002D2FEF787FA00E00020A119FF31213172
:1038D000761CF6B2C872102EF1D30026FEF77AFAE3
:1038E000A119FF316131761CF6B28872102EF5D322
:1038F00000202218FF320021E132401CC0B2917238
:103900002028F6D30026FEF765FAA119FF31013110
:10391000761CF6B28870102EF5D30026FEF75AFA00
:10392000A119FF31C131761CF6B288721F2EF5D372
:103930002646FF36E136FEF74DFA70728028FAD33C
:103940000098022181762D2068760026CC2006552D
:103950002046FF3024300821BE6403F0EEF82046F4
:10396000FF302C30102103F0E8F802984C21484336
:103970004B494A688218166356634A688218166271
:1039800056629662D662E66526666666A666E66654
:103990004A68135A2026B3431352135A5B095B013A
:1039A0009B1C1352029B0F469B001037FE5A821835
:1039B0005680DA194B685288C3189A804B68394A86
:1039C000C318DA804A68821813891B0A1B02553310
:1039D00013814A6882181389DBB213814A688218FE
:1039E00053899B099B0153814A68821853891F267A
:1039F0003602B343052636029B1953814A68831861
:103A00005E890122D20316435E814B68C3189E89EA
:103A1000360A36029E814B68C618B3890F273F02CB
:103A2000BB43FF330133B3814B68C3189E89D71062
:103A3000BE439E814B68C3189E899710BE439E81EA
:103A40004B68C318DE89278EF60BF6037F047F0CC4
:103A50003E43DE814B68C318DE891643DE814A6827
:103A60008218538A5B045B0C53824B68FF22C31895
:103A70009A824B68228EC318DA824B68E26BC318B5
:103A80009A614A688218938B2C785B095B01E40683
:103A9000E40E234393834A688218938B3F2405E006
:103AA0008400002055550000740300202402A34325
:103AB000252424021B19938349684018C18B890A65
:103AC0008902C1830298FEF77BFBFEBD7047B44AB2
:103AD000125C002A08D1B34B4000C0180088C00413
:103AE00002D00A70012070470020704770B5AD4ABF
:103AF00043009A1813885B0B1DD11388AA4D4C24E0
:103B0000AD884C435B0B64195B03E404E40C234372
:103B10001380A34A1154E92080004143A3480422A2
:103B20000C18E276FEF771F9616A40014009C90E8E
:103B3000C9060143616270BD18B504466946FFF7C6
:103B4000C6FF00280CD068460078E9218900484368
:103B50009649401840304178002901D0491E4170F3
:103B6000904A00206100891808808D49FF2008557F
:103B700018BD10B500208C4A01461154401C022883
:103B8000FBDB894C8A4B6068FF223021C01802F0B1
:103B9000CDFF874B60683033FF221221C01802F03E
:103BA000C5FF10BD70B5012189037E4802F0C5FF35
:103BB00000247B4EFF25E0B2FFF7BEFF3555641CA5
:103BC000102CF8D3784D00246968088A0A46800BC7
:103BD0004C3280039204920C104308822046FEF778
:103BE00036FC2046FEF70CFA70490120CC765022B4
:103BF00050520720C0010818E121C4748900C18215
:103C00000475FFF7B6FF6A4869680A1869480263D5
:103C1000674A303289184163816B090A0902083109
:103C20008163816BFF2212029143032212028918E1
:103C3000816370BD70B55C4D5D4E002406206968DF
:103C400060434018801906225B4902F095FF641C0E
:103C5000082CF3DB70BDF3B5534C81B00F0026D0B8
:103C6000012F57D120464078032853D2504E0025CB
:103C70003036062061686843401880190622019991
:103C800002F07AFF002835D06D1C032DF1DB0025F2
:103C9000062061686843401880190622464902F0F0
:103CA0006BFF00282CD06D1C032DF1DB22E03E4879
:103CB000007808282ED23E4E002506206168684311
:103CC000401880190622019902F056FF002811D0F1
:103CD0006D1C082DF1DB0025062061686843401843
:103CE00080190622344902F047FF002808D06D1CD5
:103CF000082DF1DB2C48C15D491CC1550120FEBDDA
:103D0000062045436068062228188019019902F0B0
:103D1000FBFEEFE70020FEBDF3B5234E0D46705DC0
:103D200081B0002815D03746002D1AD0012D10D1B2
:103D3000002406207968604341181D48062230306F
:103D40000818019902F018FF002803D0641C032C06
:103D5000EFDBFEBD0620444378682118144830305C
:103D600015E00024062079686043411810480622B7
:103D70000818019902F000FF002803D0641C082CE9
:103D8000F0DBFEBD0620444378682118084806226F
:103D90000818094902F0B8FE705D401E7055FEBD5E
:103DA000FB45002000001050840000207403002018
:103DB0008C3D000080001150D48A001010B5491CC1
:103DC00011700B0A5370042393700023091DD370E4
:103DD000C9B201F02FFF10BDFFB50446FB4881B00A
:103DE00000681F460E46153002F0D3FEF94DF84A22
:103DF0001421A847201E06D0012C07D0022C08D081
:103E0000032C09D00CE0F248001D07E0F048083010
:103E100004E0EF480C3001E0ED48103002F0B9FE4C
:103E200080193A460399A84705B0F0BDF0B50025C2
:103E30008DB00E4607462C466B463222294602209C
:103E4000FFF7CAFF68468178427808021043B842FB
:103E500008D269464C790978344049198DB2DE4957
:103E60008842E9D1A64302D000200DB0F0BD012068
:103E7000FBE7F0B500268DB014460D460746002935
:103E80002BD00020287068706B463222314600200B
:103E9000FFF7A2FF68468178427808021043B842D3
:103EA0001BD8684600781728684613D0017AC27973
:103EB000080210432870000A6870684681794279C8
:103EC0000802C5491043884207D068460078801927
:103ED00086B2D9E7017DC27CEAE7002CC5D000207C
:103EE0002070BD4E607005466B4632222946032085
:103EF000FFF772FF68464088B84210D168460079E3
:103F0000C009684603D0407C0102084303E0817980
:103F10004279080210432070000A6070A5E7B042A1
:103F2000A3D068460088401985B2DDE700B5C3B06C
:103F300001290ED000290AD103236946FB220B7107
:103F40004A7100228A710A460221FFF737FF43B007
:103F500000BD022369460B7113784B715278F1E76B
:103F600070B5C2B01D4614460646012918D0002976
:103F700014D1062B39D0607C227C01026078114379
:103F800002022378E0781A43A478030223439A427A
:103F90002ED901231021304601F038FA42B070BD0D
:103FA0001021684601716078227801021143684649
:103FB0004171090A8171E078A278010211436846D3
:103FC000C171090A0172062D0AD01022211D093083
:103FD00002F09AFDE9B26A463046FFF7EFFEDDE7F0
:103FE0002179417261798172F4E760792279C4E7BD
:103FF00000200190009102900121304600F001F86C
:10400000CCE7FFB5CFB00024599F154626460129BD
:1040100009D000296FD1714E00203978062975D05A
:10402000142972D097E011216846002701710621FA
:10403000417142AB322239460020FFF7CDFE40AA43
:10404000907A527A0002104342A9A84223D3529A8E
:10405000904220D840AB1A7BDB7A12021A43589B5D
:104060009A4218D140AA127A172A23D00621614316
:104070006A468918C88040A8827B437B1002184397
:10408000088140A8C07B8872B61D40A8007C641CD3
:10409000C872F6B2E4B2032C27D040A8817B427BE1
:1040A00008024D49104388421DD040A8007AC0192B
:1040B00087B2BEE7002C18D114266846467140A886
:1040C000827A407A120202436846C28040A8827B0C
:1040D000407B120202436846028110220A30C91D49
:1040E00002F012FD01E0002C07D01536F1B26A464D
:1040F0004F98FFF763FE53B0F0BD0A232A46102104
:104100004F9801F083F9F6E700E011E035680920E7
:10411000287006206043C219511C5379EB719279C3
:10412000E81C2A723060487909790002084310E0DF
:10413000002C32D13568172028701022791DE81D17
:1041400002F0E2FC306811303060B97C7A7C080201
:1041500010436946888006206043C0198278417800
:1041600012020A436A70120AAA700379C27818020E
:1041700010436871020AAA710522D202EA70120A7B
:104180002A713168641C891DE4B23160032C04D0AB
:104190001149884200D040E722E00F4A90421FD0E8
:1041A0006946401C8881CA8100240C742820487408
:1041B000062303AA01214F98FFF7D2FEA878697859
:1041C000000208436946C8800C7215E068000020B0
:1041D0000B4600208F160000FFFF00005C0000204F
:1041E00004214F9801F06DFAA8786A780102114312
:1041F0006846C1800121017201A8009005230122B7
:1042000000214F9801F0F4F975E7FFB5CFB00F46E4
:10421000002509206946087104202C462E46487165
:1042200042AB322231460020FFF7D6FD40A8827A09
:10423000437A1002184342A9B8421CD3519A9042C3
:1042400019D840AA137BD27A1B021343529A934285
:1042500011D140AA127A172A1CD0AA006946511817
:10426000C88040A8C07B0872241D40A8007C6D1C3B
:104270004872E4B2EDB2032D20D040A8817B427B8E
:104280000802FF491043884216D040A8007A8019DE
:1042900086B2C5E7002D11D112246846447140A8AA
:1042A000827A407A120202436846C280102202A833
:1042B000C91D02F029FC01E0002D06D01534E1B241
:1042C0006A464F98FFF77AFD15E70A233A46082118
:1042D0004F9801F09BF80EE7FFB5CFB00F460025D1
:1042E00009216846017107212C462E46417142ABD7
:1042F000322231460220FFF76FFD40A8827A437ACE
:104300001002184342A9B84227D3519A904224D8A8
:1043100040AB1A7BDB7A12021A43529B9A421CD1A1
:1043200040AA127A182A22D0E9004A1B694651187D
:104330008871020ACA7140AA527B0A7240AAD289C5
:104340004A72120A8A7240AA127CCA72E41D40AAFA
:10435000527C6D1C0A73E4B2EDB2032D25D0C8491E
:10436000884220D040A8007A801986B2BFE7002D8D
:104370001BD115246846447140A8827A407A120203
:1043800002436846C28040A8427B6846027240A849
:10439000C28968464272120A827210220B300831BA
:1043A00002F0B2FB01E0002D06D01634E1B26A46FD
:1043B0004F98FFF703FD9EE60A233A4608214F98DF
:1043C00001F024F897E6FFB5CFB00D460024092090
:1043D0006946AB4F1646087142AB32222146032094
:1043E000FFF7FAFC40A8007B42A9C00940A803D00F
:1043F000407E0202104303E0827B437B100218439D
:1044000040AA5289AA4236D3B24234D8529B98422B
:1044100031D140A8007BC209002A40AA128902A813
:104420000ED0153A94B2132C00D91324A21C6B465B
:104430005A7140AB5A896B46DA80224615310DE03D
:10444000D21F94B2132C00D91324A21C6B465A71AC
:1044500040AB5A896B46DA802246C91D02F054FBF4
:10446000E41C2004000C0DD01630C1B26A464F98EF
:10447000FFF7A4FC3FE6BA4204D040A80089001927
:1044800084B2A9E70A232A4608214F9800F0BEFF0C
:1044900031E6FFB5E1B00025092168460172072128
:1044A000774F2C46417250AB322221460220FFF753
:1044B00093FC50AE32783046182A2DD0018903463D
:1044C00080785B7800021843629B984272D3639BAA
:1044D00098426FD8649B99426CD10C21694301AA20
:1044E00000208C185F90F088664AE08000211170EF
:1044F000308771875DAA02325DA9FFF7BAFC5DA81B
:1045000008230090DA010021619801F071F85D48FC
:104510000078012802D008E0818AD0E759485A493A
:1045200046782046083032464BE043AB3222032027
:104530005F99FFF751FCF17940A8B279C08909026F
:10454000114343AF884242D140A8007C400604D5C5
:10455000619800F068FF00281FD040A8007C810609
:1045600006D5C106C90E619800F06BFF002816D071
:1045700040A8C0890221FFF759FC002840A811D0AB
:10458000007CC00940A8808915D01538C6B22046E5
:10459000083039463246153113E0052300E00C237C
:1045A000629A01E0C28902230821619800F02EFF7F
:1045B00065B0F0BD1EE0C01FC6B2204608303246CE
:1045C000F91D02F0A1FA6846B61C467209E02C49B2
:1045D000884206D040A881895F98081880B25F9011
:1045E000A3E76D1C0BD06846417A01AA6198FFF7DA
:1045F000E5FBDDE7B84202D0101984B253E70A2385
:10460000CEE730B5C3B014460546012919D00029BC
:1046100015D1062B3AD0607C217C030260780B43D5
:1046200001022278E0781143A478020222439142E9
:104630002FD90A4601230821284600F0E7FE43B09F
:1046400030BD08216846017160782278010211436B
:1046500068464171090A8171E078A278010211432C
:104660006846C171090A01721022211D093002F049
:104670004BFA6A4614212846FFF7A0FBDFE700004B
:10468000FFFF0000D40000201F4600206079217940
:10469000C3E70520C002834202D0401C834203D1FD
:1046A0002846FFF7B2FDCAE7FA48834203D12846FD
:1046B00000F0D5FEC3E7F748401C834203D12846EB
:1046C000FFF70AFEBBE7180A2928284602D0FFF7A1
:1046D000E0FEB4E7FFF777FEB1E7F3B5D3B00D46E0
:1046E0000B2069460872EC4E50A9002434708D806E
:1046F000CC800F468A1C2846FFF7BBFB0823DA0153
:1047000000210097539800F073FF307801AF012823
:1047100004D17278E1491446781D3FE043AB322260
:1047200021460320FFF758FB40A8C08943AEA842AA
:1047300040D140A8007CC10940A9898901D0153920
:1047400000E0C91F8CB2400604D5539800F06BFE00
:1047500000281BD040A8007C810606D5C106C90EE2
:10476000539800F06EFE002812D002212846FFF771
:104770005DFB00280ED0162C00D9162440A8007C22
:104780002246C00908D03146153106E005231AE05B
:104790000C2318E0022316E0F11D781D02F0B4F995
:1047A000002C0FD01634E1B201AA5398FFF706FB94
:1047B00055B0FEE6BA49884204D040A88089001965
:1047C00084B2ABE701232A460A21539800F01EFE6B
:1047D000EEE700B5C3B0012909D0002905D1517811
:1047E000127809021143FFF778FF43B000BD0A2396
:1047F00069460B71517813780A021A4369464A7167
:10480000120A8A716A460221FFF7D8FAEDE7FFB56E
:10481000D3B01D461746012975D10D216846017296
:104820009D4C50A8002626708780C580821C0146BA
:104830003846FFF71EFB50A808230090DA0100213C
:10484000539800F0D5FE2078012812D0944C43AB49
:10485000322231460320FFF7BFFA40A8C089B84290
:1048600053D140A8007CC10940A989890BD01539D2
:104870000AE0647802A822468849013002F044F92F
:10488000002C36D152E0C91FCCB2400604D5539853
:1048900000F0C9FD00281DD040A8007C810606D587
:1048A000C106C90E539800F0CCFD002814D0022197
:1048B0003846FFF7BBFA002810D0A5422CD8601B61
:1048C0000406240E2FD040A8007CC00908D070191F
:1048D000153007E0052320E00C231EE002231CE036
:1048E0007019C01D81B202AB013322460320FFF7CD
:1048F00073FAFF2C10D0FE2C15D01634E1B201AAA9
:104900005398FFF75BFA57B053E6A0420ED040A889
:104910008089801986B29AE707233A460C2153987A
:1049200000F074FDEFE701AA1621E9E70123F4E79F
:1049300010B5C2B001290ED000290AD1D1789478DF
:104940000B022343517814780A0222430121FFF716
:104950005EFF42B010BD0C2369460B71517814788C
:104960000B02234369464B711B0A8B71D1789378F4
:104970000A021A436946CA71120A0A726A46042177
:10498000FFF71CFAE5E7FFB5CFB001294FD10024AE
:104990000521684601710121414E25462746417196
:1049A00042AB322239460320FFF716FA40A80289AB
:1049B00042A9B24202D14089B04230D040A84089D9
:1049C000519B984224D3529B984221D840AB1B7BE9
:1049D000DB090FD0002C24D102226846427140A886
:1049E00042896846C280102202A8491D02F08CF854
:1049F000122516E0A30069465918C88040AB5B7BBE
:104A00000B722D1D40AB9B7B641C4B72EDB2E4B26C
:104A1000032C06D0B04202D0D01987B2C0E7002CD8
:104A200006D01535E9B26A464F98FFF7C7F94BE44F
:104A30000A230421519A4F9800F0E8FC44E410B591
:104A4000C2B001290DD0002983D1D17894780B020E
:104A50002343517814780A0222430121FFF793FF80
:104A600077E7042369460B71517814780B022343CE
:104A700069464B711B0A8B71D17893780A021A43ED
:104A80006946CA71120A0A726A460421FFF796F94A
:104A90005FE7000002280000D40000201F4600202D
:104AA000FFFF0000FFB5FFB09EB01C4601292AD0D1
:104AB00000297DD10020064646909F989C1E417893
:104AC00000780D0205434894E9219D9889004843E8
:104AD000FE49401847908DAB322203204699FFF7DC
:104AE0007BF980A8C08E8DAFA84270D188A8017EC6
:104AF000C80980A8808E1DD01538C6B290A840790C
:104B0000020210431DE01221684601729F981A4666
:104B1000417800780902014368464172090A8172AE
:104B20009F990B30891C01F0EFFFA41CE1B201AA90
:104B30009D989CE0C01FC6B288A8827E437E10026A
:104B400018430446480604D59D9800F06CFC0028E4
:104B500018D088A8007E810606D5C106C90E9D988A
:104B600000F06FFC00280FD0D9498C4205D00821F5
:104B70002846FFF75BF9002808D04898B04207DDC7
:104B80000D237AE0052378E00C2376E0032374E01C
:104B9000002285A92846FFF76CF980A8C482058306
:104BA0004898C2B280A882769F991B30891C00E089
:104BB0005FE001F0A9FF80A8C18AC548814235D1D4
:104BC000052047990024C00108184C902BE036E0DE
:104BD0000A21479861434118BE480A18507B127B4E
:104BE0000002104380AA128B904219D180AB187F2B
:104BF000DB7E00021843B74B9B1EC9180874030ADA
:104C00004B7480AB998A90AB19855A8598859AA880
:104C1000012200900623D20300219D9800F0E8FCB9
:104C2000641C4C98E4B2007AA042D1D885A8012235
:104C300000901E23D20200219D9800F0D9FCF87844
:104C4000B97800020843A449884208D078783978B6
:104C5000000208434699401880B246903BE7002E78
:104C60000AD0132140AA9D98117443AA0021FFF78E
:104C7000A5F87FB022B09CE401232A4612219D981A
:104C800000F0C4FBF5E7F7B59AB0002018901B9828
:104C9000417800780D020543E9211A9889004843BC
:104CA0008A494018199009AB322203201899FFF75E
:104CB00093F86846C08C09AEA8425ED108A8007A75
:104CC000C00908A802D0447D200202E0817A407A1F
:104CD0000C020443002201A92846FFF7CAF86846DF
:104CE000C48005811C98801EC2B2684682721B99DE
:104CF0000B30891C01F008FF6846C088744988425F
:104D000032D1052119980024C901471829E00A2148
:104D10001998614341186F480A18507B127B0002B2
:104D200010436A461289904219D16B46187BDB7A90
:104D300000021843674B9B1EC9180874030A4B7482
:104D40006B46998810AB19835A83988316A8012261
:104D500000900623D20300211A9800F049FC641C3D
:104D6000E4B2387AA042D2D801A8012200901E23D2
:104D7000D20200211A9800F03BFCF078B1780002D2
:104D800008435549884208D07078317800020843BA
:104D90001899401880B2189085E71DB009E430B525
:104DA0001C46C3B0134605461B206A46107151715C
:104DB000080A907101A822461946033001F0A4FEAA
:104DC000A41CE1B26A462846FEF7F8FF37E4FFB5B7
:104DD000FFB09CB0144601291ED000297ED1607816
:104DE0000027217805023E460D438DAB322239461D
:104DF0000320FEF7F1FF80A8C08EA84277D188A8D3
:104E0000017EC80980A8808E22D01538C6B290A82D
:104E100040790202104322E0162168460172607850
:104E200022780102114368464172090A8172E078D2
:104E3000A278010211436846C172090A0173122265
:104E4000211D0D3001F060FE01AA16219B9868E03B
:104E5000C01FC6B288A8827E437E1002184300900D
:104E6000480604D59B9800F0DEFA002849D088A8AF
:104E7000007E810606D5C106C90E9B9800F0E1FAB6
:104E8000002840D012490098884205D008212846C1
:104E9000FEF7CCFF00283AD0002285A92846FEF76D
:104EA000E8FF80A80099C1820583E078A17802021A
:104EB0000A4380A842839E98211D801EC2B280A80A
:104EC00002771D3001F020FE85A809E07403002060
:104ED0000229000083020000FFFF000023E006E03B
:104EE00020230090DA0100219B9800F081FB80A82C
:104EF000C08EF44988420CD080A8808EC01987B239
:104F000073E7052300E00C232A46122111E0032356
:104F1000FAE7002E0AD0172140AA9B98117443AAE1
:104F20000021FEF74BFF7FB020B0F0BD01232A46E1
:104F300016219B9800F06AFAF5E710B5C4B0044654
:104F4000012916D0002912D110786946087101A8EC
:104F5000012300905A030021204600F049FB19224A
:104F600069460A73204602AA0021FEF727FF44B0D3
:104F700010BD182168460171117841716A460121FE
:104F80002046F2E730B5C3B014460546012906D0E5
:104F900000292AD1082B29D9E07CA27C28E0062010
:104FA00069460871607821780002084369464871B3
:104FB000000A8871E078A178000208436946C87148
:104FC000000A087260792179000208436946487234
:104FD000000A887202A81022A11D033001F094FD7E
:104FE0006A4616212846FEF7E9FEEFE6E079A27947
:104FF000010211436079227900021043019100906F
:10500000E078A178030260780B43217802020A431A
:105010000121284600F072FAD8E600B5C3B0012994
:1050200009D0002905D101220B469203009100F01E
:10503000DFFA43B000BD1E2369460B715178137827
:105040000A021A4369464A71120A8A716A460221A3
:10505000FEF7B4FEEDE730B51C46C3B01346054677
:105060001D206A4610715171080A907101A82246EC
:105070001946033001F048FDA41CE1B26A462846F7
:10508000FEF79CFEA2E6F7B5521E84B095B2E92267
:105090000498920050438C4A0E468218D01D052376
:1050A0000978FF30DB01FA30D718741C0091102901
:1050B0007ED00ADC891E0B0002F021F90C524BF065
:1050C000E6EEED9E97B9B2D3CC1F182971D008DC5B
:1050D00011390B0002F013F90757FCFD1111FAF515
:1050E00011001D2966D004DC19297BD01B2904D1AD
:1050F0001EE11E2977D0522976D00623002200997E
:10510000049800F083F93078012819D0032817D0CB
:10511000052815D0072813D0092811D00B280FD047
:105120000D280DD00F280BD0112809D0132807D037
:10513000172805D0192803D01B2801D01D2806D117
:105140000094EBB232780221049800F051FA07B0D3
:10515000F0BDC06FC003F3D502230322009450E1D9
:10516000C06FC00706D002231A460321009404989A
:1051700000F024FA3878C007C5D1721C00210498C9
:10518000FEF7D4FEBFE7C06F800306D5EBB2112255
:1051900003210094049800F011FA38688003B2D417
:1051A00000206F4631C7034602460146049802E0DC
:1051B00004E0E8E016E1FEF724FFA4E7C06F8007F3
:1051C00006D5EBB2102203210094049800F0F6F902
:1051D0003878800797D42B46721C00210498FEF77C
:1051E000BFFE90E7C7E005E18FE0C06F4003A7D5A1
:1051F000EBB20922009404E1C06F400706D5EBB280
:10520000082203210094049800F0D8F93878400768
:10521000B8D42B46721C00210498FFF7F2F972E70C
:10522000C06F00038CD516230B220094E9E0C06FF9
:10523000000706D502230A2203210094049800F0F7
:10524000BDF9387800079DD4721C00210498FFF73F
:10525000C0FA58E7C06FC002C9D516230D220094CA
:10526000CFE0C06FC00606D504230C2203210094B2
:10527000049800F0A3F93878C0069ED4721C00216F
:105280000498FFF755FB3EE7C06F8002AFD51523AA
:1052900005220094B5E089E090E0FFE7C06F80064A
:1052A00006D504231A4603210094049800F086F9D9
:1052B0003878800695D4721C00210498FFF7BFFB54
:1052C00021E73DE0FFFF0000740300203FE000E025
:1052D00007E0C06F400284D50020EBB2132200909B
:1052E0008FE0C06F400606D5EBB212220321009476
:1052F000049800F063F93878400690D42B46721C6D
:1053000000210498FFF7CEFBFDE6C06F000606D52E
:10531000EBB2522203210094049800F04FF9387840
:10532000000696D42A46711C0498FFF7ACFCEAE606
:10533000C06F00028DD5002003461B22009060E064
:10534000C06FC00185D5EBB21722009459E0C06F41
:10535000C00506D5EBB2162203210094049800F094
:105360002DF93888C0058ED42B46721C0021049874
:10537000FFF72DFDC7E6C06F800184D50020EBB29A
:10538000192200903DE0C06F800506D5EBB21822CF
:1053900003210094049800F011F9388880058FD417
:1053A000721C00210498FFF7C8FDACE6C06F4001F5
:1053B00000D4C5E6EBB20622009422E0C06F40059F
:1053C00006D5EBB2062203210094049800F0F6F80B
:1053D0003888400598D42B46721C00210498FFF7AA
:1053E000D1FD90E6C06F00018ED5002003461D223E
:1053F000009006E0C06F000586D5002003461E22FF
:1054000000900321049800F0D9F87CE630B5C3B0D1
:1054100001256C4625716171E28023726A46042180
:10542000FEF7CCFCD2E44C214843614909680A5A92
:10543000120604D5085A400601D500207047012005
:105440007047E922920050435A4A8018FF302130B9
:105450008078884201D20020704701207047FFB554
:10546000CFB00D46002409206946534F16460871F7
:1054700042AB322221460120FEF7AEFC40AA907AD0
:10548000527A0002104342A9A84229D3B04227D839
:1054900040AB1A7BDB7A12021A43529B9A421FD10D
:1054A00040AB1A7A6B461046D21E5A7140AB9A7ABC
:1054B0005B7A12021A436B46DA80421F02A8491D2A
:1054C00001F022FB40AB187AC01E0006000E0ED081
:1054D0001830C1B26A464F98FEF770FC53B0F0BD69
:1054E000B84204D040A8007A001984B2C0E70A2369
:1054F0002A4608214F98FFF789FFEFE7FFB5002400
:10550000CFB00720694616462546087142AB3222C5
:1055100029460020FEF760FC40A8027A172A32D004
:10552000017CC37B0802184340A98B7A4F7A190289
:105530003943B1422AD3529B994227D840AF3B7B93
:10554000FF7A1B023B43589FBB421FD1599B984295
:105550001CD140A8827A407A120202436846427106
:10556000090A817140A8817B407B0902014368469A
:10557000C171090A0172641C13D002461A214F98A6
:10558000FEF71CFCAAE7017FC37ECBE740A8817B26
:10559000437B080208491843884202D0501985B25B
:1055A000B4E70A23324606214F98FFF72FFF95E70D
:1055B0008800002074030020FFFF000030B58BB08E
:1055C000044668460E9D0170428003711A462946C2
:1055D000401D01F099FAE92080004443504805211C
:1055E0002018C90140184168684688470BB030BD93
:1055F000FFB50C461546E9218900494A41438E18FA
:1056000091B0002C1CD0E92292005043444A03215F
:10561000090280184718012C31D0022C0ED1786E67
:1056200000280BD06846149941700570801C149AAC
:105630001A9901F069FA796E6846884715B0F0BD8D
:1056400038483018074601F0A4FA0028F6D035484B
:10565000001F301801F09DFA2842EFD1684604700F
:105660000446411C284601F09EFA601D149A1A99BE
:1056700001F04AFA384601F08CFA0146DCE70D20C9
:1056800080013018017F0129D8D13E6E002ED5D07F
:10569000C08B2842D2D1684604706944284601F084
:1056A00082FA6846B047C9E7E922920050431C4A93
:1056B000002382181D2040011018837041700120C2
:1056C0007047E92292005043154A002382181D209A
:1056D000400110188370417001207047E922920048
:1056E00050430F4A82181D204001101842788A4208
:1056F00001D0002070470121817008467047E922DF
:1057000092005043064A82181D204001101842782A
:105710008A4201D000207047022181700120704729
:10572000740300205503000070B50D46064614466C
:105730001021FB4801F001FAF949287808706878CF
:105740004870A87888700A4610323046FCF711F885
:10575000F348103001782170417861708078A07032
:1057600070BDFFB581B00A9C0C9F24780D9DE607A3
:105770000C78F60F6640EA4C002026703E784F7891
:10578000F607F60F7E4066700F18165CBF787E40F5
:105790002718401CC0B2BE700728F5D300200E1891
:1057A0001A5C767A72402618401CC0B272720728C2
:1057B000F5D3DB481021103801F0BFF9D84E002096
:1057C000103E295C3154401CC0B20628F9D3002099
:1057D0000B993218095C401CC0B291710628F7D3AE
:1057E000CF4ACF4910320198FBF7C3FFCC490020C4
:1057F00010310A5C335C5A402254401CC0B210285D
:10580000F7D3C7490E9A0198FBF7B3FF05B0F0BD77
:1058100070B51546C24C0022AE5CA654521CD2B2E2
:10582000082AF9D300228D5CA618521CD2B2357218
:10583000082AF8D31A46BA49FBF79BFF70BD10B58A
:10584000FBF797FF10BDF0B591B0944606460020D7
:10585000169A6D461F24271AF75D2F54401CC0B2BC
:105860002028F8D30020261A2F182037401C8E5DE0
:10587000C0B23E702028F6D310A803701346412210
:1058800029466046FCF789F811B0F0BDF0B50F4627
:105890009BB0164600211D460EAA1F24631AC35C46
:1058A0005354491CC9B22029F8D316AB20220EA9A3
:1058B0009C48FCF772F801206946087008A9C87472
:1058C0000020087597496C4604222439601C01F0B9
:1058D0001BF900200F210A1A2118BB5C4B71401CD8
:1058E000B25CC0B24A751028F4D300200622131A05
:1058F0002118EE5C20314E71209E401CF35CC0B23A
:105900000B730728F3D33522694616A8219BFCF7B1
:1059100044F8002069460870219B352216A81033F0
:10592000FCF73BF81BB0F0BDF0B591B08446002504
:105930006C460F20471BCE5D66556619D05D3074EE
:1059400020366D1CDF5DEDB23770102DF1D30020D5
:105950000221169A0B1AD35C22182032401CC0B2C6
:1059600013740328F5D30020062317991A1A8D5CA7
:1059700021182031CD74189D401CAA5CC0B28A76D3
:105980000728F2D3412221466046199BFCF705F80F
:105990007AE7F0B595B09446064600241A9A1F257A
:1059A00068462F1BF75D0755641CE4B2202CF8D322
:1059B00000242E1B8F5D06192036641CE4B237705C
:1059C000202CF6D300210F24651A46184036491CB6
:1059D0005D5DC9B235701029F6D3134601465022D9
:1059E0006046FBF7DAFF15B0F0BD704700B54D49D2
:1059F00095B020221031684601F086F849492022EE
:105A0000303108A801F080F8002010A9087045483E
:105A100011AB412269465030FBF7BFFF15B000BD06
:105A20001FB540496B46202260313E48FBF7B5FF69
:105A30001FBDF0B593B001216846017039490422B9
:105A400020396C46401C01F05FF836491022903135
:105A5000601D01F059F8334905A801301022A0312A
:105A60000E9001F051F82F4909A801300722103992
:105A7000074601F049F82B490BA8072208390646CA
:105A800001F042F8274D08A8243D297AC174697AAB
:105A9000017528460FAB35226946A430FBF77DFF20
:105AA0000021684601700422291D601C01F02CF8B9
:105AB00029461022B431601D01F026F82946102233
:105AC000C4310E9801F020F82946072214313846D7
:105AD00001F01AF8294607221C31304601F014F86B
:105AE000297A08A8C174697A017528460FAB352256
:105AF0006946A430FBF751FF13B0F0BD00B50A486A
:105B00008BB002A901910346024601460090083B72
:105B1000993289310930FFF7B9FE0BB000BD0000A2
:105B200045460020008B0010E30000203F4810B5E0
:105B3000014634311EC996B0009101A91CC101462D
:105B400044311EC9049105A91CC154300FC808ACCA
:105B50000FC43649032274390CA800F0D5FF33492D
:105B600007226C39E01C00F0CFFF30490EA8072255
:105B70006439023000F0C8FF2C4811AB412269465D
:105B80006430FBF70AFF16B010BD00B5284A89B093
:105B900004AB114608390393C81E6B4607C303467E
:105BA000C43399329131B430FFF7BEFE09B0B5E786
:105BB00000B51E4999B020224C39684600F0A4FF78
:105BC0001A4920222C3908A800F09EFF174B1846CE
:105BD00074330ECB7430C068139014481293119232
:105BE000109114AB502269460C38FBF7D6FE19B061
:105BF00094E700B50D4885B08038006904900B48E3
:105C00006B46042204A98430FBF7C7FE05B085E784
:105C10007047064A00B5D43211462039A1B0084673
:105C20006B462038FBF755FE21B077E75C8B001000
:105C3000E300002010B5012801D9002010BD134653
:105C40000A460221FCF746FD10BD00B5C3B0132380
:105C50006A461371012353710223D3804A780B786B
:105C6000110219436A4611810621118005215180D4
:105C70000A21FFF7DFFF43B000BD60B4D14E8D1F96
:105C8000B54210D8551C4D436D009D420BDC0025DC
:105C900025706570E925AD00CB4E4543AD192986C9
:105CA0006A86AB8603E0012121700021617060BC2F
:105CB0002146CAE710B5C2B000291BD01624694698
:105CC0000C714B710423CB80517814780B02234361
:105CD00069460B81D17893780A021A4369464A8152
:105CE00008220A8005224A800C216A46FFF7A2FF9B
:105CF00042B010BDB5485178147883880902214319
:105D00008B42F5D1D1789278090211438181EFE776
:105D100010B5C2B00029EBD0152469460C714B7147
:105D20000A23CB80517814780B02234369460B81F8
:105D3000D17894780B02234369464B8151791479C9
:105D40000B02234369468B81D17994790B0223435B
:105D50006946CB81517A137A0A021A4369460A824C
:105D60000E220A8005224A8012216A46FFF762FF4E
:105D7000BEE770B50A24C2B000292CD014256946AC
:105D80000D714B71CC80517814780B022343694616
:105D90000B81D17894780B02234369464B8151796A
:105DA00014790B02234369468B81D17994790B02D4
:105DB00023436946CB81517A137A0A021A43694612
:105DC0000A820E220A8005224A8012216A46FFF7C3
:105DD00031FF42B070BDD17896780D027B493543D2
:105DE0008E88AE4202D169460C8119E00B70012405
:105DF0004C81557A167A2D0235438D81D578967867
:105E00002D0235434D80D57896782A0232438A8018
:105E100069460A80CC80FA224A808A8000220A8160
:105E20000A460121FFF774FFD3E7F0B5674CC3B012
:105E3000A3891646054600292AD0002B26D05B1ED2
:105E4000A3817078317800020843694688807078B1
:105E5000327801026F461143B81D00F06EFE707873
:105E6000317802020A43B11CB81D00F04DFE707873
:105E70003178000208436946801C088062884A80A5
:105E8000001DC1B26A462846FFF7D4FE43B0F0BDFC
:105E90005B1CA3816089002804D0401E0004000C14
:105EA0006081F3D1A0886946088001206081488024
:105EB0002178491C0906090E217000D12070237831
:105EC0006A4601212846FFF7F5FEDFE710B5C2B0AC
:105ED000449A00290FD0012469460C714A710222AC
:105EE000CA800B8106220A8005224A800A216A465E
:105EF000FFF7A0FEFCE640216A4611800121FEF773
:105F000015F8F5E670B505460C46C87889780002A4
:105F10000843042804D005280BD0062812D10DE030
:105F20006078217802020A43211D2846FFF7ABF86A
:105F300008E0211D284600F013F803E0211D284643
:105F400000F05FFDE078A178000208431F498988CE
:105F5000884204D1221D00212846FFF766FF70BD4C
:105F600008B50A78142A1BD004DC012A0ED0122AA4
:105F700004D111E0152A19D0162A1DD04978002322
:105F800000911A460121FFF7A1FF08BD4A780023BE
:105F900000920A1D1946F6E7091DFFF756FE08BDD7
:105FA0004B780A1D0021FFF7E4FE08BD4B780A1D5F
:105FB0000021FFF7ADFE08BD4B780A1D0021FFF759
:105FC00079FE08BD7A0C00007403002066460020AC
:105FD00010B5491C11700B0A5370062393700023EF
:105FE000091DD370C9B2FFF725FE10BD70B5FF4E75
:105FF0000024E92080006043801905468035298B04
:10600000890410D5FA4903464218F949FF3320396B
:106010004118FF30EB33CB30FBF75BFC288B0121C1
:10602000490388432883641C2406240EE1D070BDF4
:1060300000B5C3B0002907D0052269460A714B712B
:106040006A460121FFF7C4FF43B000BDF0B5C3B0FD
:106050001346054600290FD00D206946087101A896
:1060600010221946013000F04FFD6A4610212846E3
:10607000FFF7AEFF43B0F0BDE92080002E46464357
:10608000DA4FDB48F419403820181022194600F086
:1060900073FD002806D00B23002201212846FFF7BC
:1060A000C7FFE7E7E9218900D04B6943C918002001
:1060B000FF31213108E09A183318D218FF32002737
:1060C0006132401C9776C0B28B781027C74AFF1AFE
:1060D0008742F0DC0020009069460190088121464B
:1060E000FF3102A82C310822023000F00DFD2146BC
:1060F000FF3104A824310422023000F005FD694676
:106100002846FCF747FCB5E7F7B5C2B000290FD029
:1061100004206946087101A810220130449900F05A
:10612000F3FC6A4610214298FFF752FF45B0F0BDDC
:10613000E921429889004843AC4A06908418CE2051
:10614000015B0029F2D02046FF3021300A90C27E48
:10615000E92342989B005843A44BC0180346FF33E1
:106160005B33209303460E332293D43321939B1E3B
:106170001D461E461F469A358A366A372393012AE2
:1061800019D021462198E1310390229A20460B46EE
:106190001A3001920291623300900497DA1F284668
:1061A0004499FFF7DEFA38461022209900F0E4FC0B
:1061B000002875D02EE0002310930A06E9214298AA
:1061C0008900484389490D9340180146FF311293D5
:1061D0008B31039186490E93203940180F93119308
:1061E000139314930290002A43DB82480121027822
:1061F0004068914081430FD080230097449A0399CF
:106200000298FFF720FB38461022209900F0B4FCDA
:10621000002803D004233DE08123EEE77548017890
:10622000491CC9B20170142913D2012240688A4066
:1062300082430CD080230097324602990398FFF7DF
:1062400002FB3A460121429800F0D9F86EE781231B
:10625000F1E7416808A80A0C827510A882710A0A41
:1062600008A8427510A8427108A8017510A801710C
:106270000BE00097449A0399FFF7E5FA384610229D
:10628000209900F079FC0028C4D19820005B80049C
:1062900007D50B23002201214298FFF7C9FE45E7ED
:1062A0006DE027A800903246449B02990398FFF7BF
:1062B00070FB082215A8229900F026FC082217A8D6
:1062C000219900F021FCA07E002800D0012010A917
:1062D00088762398407801284FD0012018A988702B
:1062E00004A80190204617AFFF300097EB3015ABA4
:1062F0003146449AFFF7CAFA2046F230102204A928
:1063000000F002FC2846102204A900F0FDFB08A8BA
:106310000FC81AAD0FC52146FF313E3103222BA80D
:1063200000F0F2FBFF2045300059269030482BA9A1
:106330003038251815A80395009101900297314631
:1063400011AB1AA8449AFFF7EFFA294815A940386B
:10635000201826AA039000920291019732460DABB5
:106360001AA84499FFF7E0FA27A8FFF73EFB2A4650
:1063700001214298FFF76AFED8E60020AEE72B46DF
:106380000027324618464499FFF742FA0022174880
:10639000102308E00D180699C9196918FF316131F9
:1063A0007F1C8A76FFB20A9989785D1ABD42F1DCBA
:1063B0002146EA310822684600F0A6FB2398694688
:1063C000008908812146FF3102A82C3108220230C1
:1063D00000F09AFB2146FF3104A824310422023048
:1063E00000F092FB6946429806E00000740300202A
:1063F0004A020000AC010020FCF7CCFA96E630B56A
:10640000C3B01346054600290FD003206946087122
:1064100001A810221946013000F076FB6A461021CF
:106420002846FFF7D5FD43B030BDE9208000FB4989
:1064300068434418CE20005B0028F4D0FF202330AE
:10644000005DC01F09280ED82046FF305B301022A7
:10645000194600F059FB2246FF326B3201212846D3
:10646000FFF752FEDFE70623002201212846FFF74F
:10647000DFFDD8E7F1B586B0E921069889004843E9
:10648000E649002744182046FF307B30064610219D
:1064900000F053FBFF203C30015D2046FF306B30A5
:1064A0000546203D012917D02146E2314A1E0391BD
:1064B0002346C8390E330091019302920146049598
:1064C000EB1F5B323046FFF74CF92A460121069854
:1064D000FFF795FF07B0F0BD02462146D048FF31D7
:1064E0008B3120183B460095FFF7ADF9F2E7F3B585
:1064F00085B000200090009A0A235A4300920A5C5B
:10650000009B401CD218C0B200920628F3D3E921A8
:10651000059889004843C14944182046FF307B3024
:106520000646102100F009FB20466946FF30097835
:106530006130817669464978C17669468978017704
:106540006946C97841772546FF20FF353C306B35D9
:10655000005D2F46203F012816D02046E230411E24
:10656000224603900E32C83801920291FB1F009020
:106570000497DA1F29463046FFF7F3F83A4601211F
:106580000598FFF73CFFA5E7A64900980022486060
:106590000A700121814317D0802000260190FBF76B
:1065A00019FCA119FF316131761CF6B28872102EE8
:1065B000F5D39B482A4621182046FF308B300097A0
:1065C000019BFFF740F9D9E78120E6E770B5054662
:1065D000E9208000914968434018FF213C310A5C62
:1065E0000146FF316B310C46203C86B0012A17D0A2
:1065F0000246E232531E064603920293C83A0E3612
:1066000062330092FF3001960494DA1F7B30FFF76B
:10661000A8F8224601212846FFF7F1FE06B070BD1A
:10662000FF300A468B30002301460094FFF70BF938
:10663000F4E730B515462035C3B0134604460029AB
:1066400014D00C206946087101A820221946013097
:1066500000F05AFA09A820222946013000F054FA25
:106660006A4640212046FFF7B3FCDCE6E9208000C3
:1066700044436A482022241869481946201800F02B
:1066800043FA6748202220302018294600F03CFABF
:106690008034208B0121490308432083C3E670B571
:1066A00004460E46E92080005C4960434018FF2103
:1066B000C2B001253D310D54FF30062231463E3037
:1066C00000F022FA6846057106223146401D00F0AE
:1066D0001BFA6A4606212046FFF77AFC42B070BDDD
:1066E000F3B5C87891B00E46072807D206230022DA
:1066F00001211198FFF79CFC13B0F0BDE92111981E
:1067000089004843454902224518FF20443042553C
:106710002846FF30002745300622314600F0F4F9C4
:106720002846FF30213010211090817070792C465E
:10673000C007C034002803D0607C03210843607484
:10674000707981070C20002902DA617C01436174B1
:106750003179C90703D0217C022211432174317998
:10676000890702D5217C01432174F078102801D2D9
:1067700010998870E922119892005043274A317885
:106780008018803080230090032902D0B078400721
:106790000BD4E0891843E081000620D52846FF305D
:1067A0007B30102100F0C9F919E07078012803D17D
:1067B0000098C07C01280AD000980A22807C4900F9
:1067C0005043194A8018475A802F05D007E0E089C6
:1067D00001214902084301E0E0891843E081B078D3
:1067E000000723D50098007D00071FD510980121D0
:1067F000C1762946FF318B312022684600F084F9AA
:106800002946FF31AB31202208A800F07DF96A4605
:1068100001211198FFF70DFF0BE000007403002029
:106820002A020000AC010020508C001010980021BA
:10683000C176E089010603D51198FFF71BFE5BE7DF
:10684000810503D51198FFF7C1FE55E7FF210131FE
:106850008F4202D089008F42F1D10843E0814BE79B
:10686000F0B505461746E920914A80006843831831
:106870001C46F726C034C3B0002912D0092168464F
:106880000171997E417107223946401D00F03CF9A3
:106890006A4607212846FFF79BFB207C3040207486
:1068A00031E4607C30406074FAD1284600F02FF863
:1068B00029E470B505461346E9207D4A8000684307
:1068C00080180446FB26C034C2B0002911D008202D
:1068D0006946087101A810221946013000F014F928
:1068E0006A4610212846FFF773FB207C3040207455
:1068F000F4E6FF3010221946133000F005F9607CF1
:1069000030406074F4D1284600F001F8E6E6F0B5B6
:106910000746E92080006649784344182646C03679
:10692000307C85B0800723D50025FBF753FA611929
:10693000E0316D1CEDB20872022DF6D30025FBF795
:1069400049FA6119E0316D1CEDB28872082DF6D359
:10695000E820005B69460880214600A8EA31082249
:10696000023000F0D1F86A460121384600F022F8E2
:10697000307C40070AD5E11DFB311022684600F04B
:10698000C3F86A4601213846FFF793FF307C0007C1
:106990000ED5A07E69460870214600A80E31062259
:1069A000013000F0B1F86A4601213846FFF758FF80
:1069B00005B0F0BD70B513460546E9223C4892008B
:1069C0006A431418FD26C034C2B0002911D0072034
:1069D0006946087101A80A221946013000F094F8AE
:1069E0006A460A212846FFF7F3FA207C30402074DB
:1069F00074E6607C30406074FAD12846FFF787FF68
:106A00006CE67CB5E9220D789200294B4243D418FC
:106A1000AD1E2B0000F073FC0C070B10151B272C70
:106A2000310A3642470A491CFFF75AFE7CBD4A1C10
:106A30000021FFF7E4FC7CBD4A1C0021FFF764FB4A
:106A40007CBD00234A1C1946FFF7F2FA7CBD2046A4
:106A5000F2301022491C00F057F8C034607C400826
:106A6000400060747CBD4A1C0021FFF7A3FF7CBD81
:106A70004A1C0021FFF71DFF7CBD4A1C0021FFF7C7
:106A8000EFFE7CBD0546214692310622684600F0A5
:106A90003BF869462846FFF702FE7CBD4A1C0021F0
:106AA000FFF7C7FD7CBD4A1C0021FFF7CFFA7CBD74
:106AB0007403002030B50B4601460020202201243B
:106AC00009E00D46D5409D4205D31D469540491B22
:106AD0002546954040191546521E002DF1DC30BD6B
:106AE00070B500242546002801DA0124404200291F
:106AF00001DA01254942FFF7DDFFAC4200D04042F8
:106B0000002C00D0494270BD03460B439B0703D0C5
:106B100009E008C9121F08C0042AFAD203E00B7862
:106B20000370401C491C521EF9D27047D2B201E0DA
:106B30000270401C491EFBD270470022F6E710B5D8
:106B400013460A4604461946FFF7F0FF204610BDDB
:106B500030B505462A460B4610781C78521C5B1C43
:106B6000002801D0A042F7D0002C03D0002802D08A
:106B70006D1CEFE7284630BD30B5044600200346C3
:106B800000E05B1C934203D2E05CCD5C401BF8D07C
:106B900030BD0321001D401E037812021A43491E16
:106BA000F9D510467047034603220870000A491CB5
:106BB000521EFAD518467047F0B51FB4064600209D
:106BC00082B005464024019100901BE001992246C5
:106BD0000F46304600F008FA049A059B801A994146
:106BE00010D310461946224600F0EEF9361A8F41AE
:106BF0000197224601200021009F00F0E5F9381896
:106C00004D4100902046641E0028DFDC019B009867
:106C10002946324607B0F0BDF0B507460846584051
:106C200087B0C00F049048000E465900400849083C
:106C3000BC1A884105D2384631461E4617460B46D7
:106C400002465800400810434CD0300D03904005D8
:106C50005900400D490D0590401A0290402872DA03
:106C600018030121000B09050843019004980092C4
:106C7000002805D0019952420020884100920190DD
:106C8000029840210A1A0199009800F09DF90546E2
:106C90000C466B4607CB00F0B8F9C0197141039A56
:106CA0000E0D0023D71756401A467A40164344D09B
:106CB000049A002A2DD0029A012A039A15DC1205A3
:106CC000C01A914101263605001C7141D20F059E64
:106CD000D2070093019202962A46234600F0B5F9A6
:106CE00007B0F0BD38463146FAE71605224A0F468E
:106CF000B218C01AB74101210905001C4F41001804
:106D00007F41114618187941E20F10436D19644113
:106D100013E0E2076D0815436408C2071443039AA1
:106D200001261205C01A91413605001C7141CE079B
:106D3000400830434908C01851412A46234600F014
:106D400077F9CDE7FFE7049801224000C117121A36
:106D500000238B4104983146C417381AA141EEE74D
:106D600030B40124E407634030BC55E730B401245B
:106D7000E407614030BC4FE70000E0FFF0B51FB40E
:106D800088B00B990998002448400999C00F490020
:106D900049080991C0070B990090490049080B91D7
:106DA00009990898A64608431CD00B990A980843ED
:106DB00018D0099801244000420D4800410D09985F
:106DC00024050003000B204309900B980003000BDF
:106DD00020430B9050181C49401800220190144683
:106DE000104605E0002001460DB0F0BD032801DA91
:106DF000034600E003239C46C11A0AAE0AE05F0086
:106E000008ADED5B4F00F75B7D430027AA187C417E
:106E1000491C5B1E6145F2DD410004AB5A5221045E
:106E2000120C0A43240C401C0828DFDB0198029056
:106E30000099704601910090059B049A0799069865
:106E400000F003F9D0E700000DFCFFFFF0B50C46A1
:106E50005C4085B0E40FE40703944C00002664080E
:106E600059009446490802460296224321D06246C0
:106E70000A431ED06200570D4A000E032303550D2E
:106E8000012402462C492405781B1B0B360B4018A5
:106E900023432643614600901C46501AB44103D355
:106EA0000098401C009002E0921800985B41002876
:106EB00003DA0020014605B0F0BD002001210905DC
:106EC0000746864611E064461D46141BB54106D3AD
:106ED0006546521BB341744607430C43A646CD0793
:106EE00040084908284392185B4105460D43EAD102
:106EF0001046184313D0604619465040714008436D
:106F000006D06046101AB34106D20122002306E0E3
:106F100000220123DB0702E00122D2435310009834
:106F200074460105381C6141029C039D00196941AA
:106F300000F07EF8BFE70000FD0300004A000903EF
:106F40000123090B1B0519430A4B10B5520D9A4238
:106F500002DA0020014610BD064B34339A4203DCAE
:106F60009A1A00F041F810BD034BD21800F02CF82B
:106F700010BD0000FF030000CDFBFFFF10B500298E
:106F800004DB0124E40740428C412146002B04DB52
:106F90001C460123DB075242A341994200D1904293
:106FA00010BD0000064C0125064E05E0E36807CC45
:106FB0002B430C3C98471034B442F7D3F9F784F8CC
:106FC000848C0010A48C001010B5202A04DB01462C
:106FD000203A9140002010BD914020239C1A034686
:106FE000E3401943904010BD10B5202A04DB084649
:106FF000203AD040002110BD0B46D340D040202481
:10700000A21A91400843194610BD10B5202A06DB8C
:10701000CB170846203A1041C1170B4306E00B4638
:107020001341D0402024A21A91400843194610BDB4
:1070300010B5002B08DA0024401C614192185B4116
:107040001A4301D14008400010BDF0B51FB482B012
:1070500005460C0003D0084600F03AF902E000F0C3
:1070600037F920300246009021462846FFF7ACFF52
:10707000049B059A04460F4618431143084314D055
:10708000184610431BD0009840210A1A184605994B
:10709000FFF7AAFF05460E46009A05990498FFF7E8
:1070A00093FF084305D0012004E02046394607B08D
:1070B000F0BD0020C11705430E432C433743009910
:1070C0000E986305401A7905E40A00220C43FD0A74
:1070D0000A3002D500200146E9E70105101969418F
:1070E0000C9C0D9D00196941FFF7A2FFDFE770B509
:1070F0008C180578401C6B075B0F01D10378401C8E
:107100002A1106D10278401C03E006780E70401C5C
:10711000491C5B1EF9D12B0705D40023521E0DD448
:107120000B70491CFAE70378401CCB1A921C03E051
:107130001D780D70491C5B1C521EF9D5A142D8D395
:10714000002070BDF8B51B4F0024A600B9591422C9
:1071500008464030801802781546427812021543DE
:107160008278C078120415430006054320310A785E
:1071700010464A78120210438A78C97812041043E4
:1071800009060843054010D00A48001F0268002A7B
:1071900002D0294620469047B85940300575290A43
:1071A0004175290C8175290EC175641CE4B2022C4D
:1071B000CBD3F8BD1C0000208307FF22DB0E9A40D2
:1071C0008907090E994000280BDA0007000F0838DC
:1071D000830808489B001818C36993430B43C36195
:1071E0007047830804489B001818036893430B43B7
:1071F0000360704700ED00E000E400E00249014850
:107200000860704740787D0148000020054800680C
:10721000017E01221143017603480068002800D056
:10722000004770472C000020E0010020054840681E
:10723000017E01221143017603484068002800D0F6
:10724000004770472C000020E001002005488068BE
:10725000017E01221143017603488068002800D096
:10726000004770472C000020E00100200548C0685E
:10727000017E0122114301760348C068002800D036
:10728000004770472C000020E001002005480069FD
:10729000017E01221143017603480069002800D0D5
:1072A000004770472C000020E001002037B514464D
:1072B0000846064B6A46214600F0EAF8044669464D
:1072C000002000F081FC20463EBD0000C97B00107C
:1072D0002021020C01D010211046020A01D01046D4
:1072E0000839020901D01046091F820801D0104652
:1072F000891E420801D0881E7047081A704730B4B2
:107300007446641E2578641CAB4200D21D46635D42
:107310005B00E31830BC184702E008C8121F08C120
:10732000002AFAD170477047002001E001C1121F06
:10733000002AFBD170470000F0B51FB484B0079855
:107340000699020D014314D04A484B49101848438E
:1073500005140F9801280E981CD0281A401C0024F0
:10736000464E4749009401910290002814DA4742A2
:1073700027E00F98012443A3012808D00021049896
:107380000F9A84600360C260416009B0F0BD0E983E
:10739000C143F4E74042E2E7074612E0F80707D0AE
:1073A0002246334601990098FFF7E8FC01910090CE
:1073B0002246334610461946FFF7E0FC04460E46C7
:1073C0007F10002FEAD10298019B0028009A0799AC
:1073D000069802DAFFF7D2FC01E0FFF737FD04461A
:1073E0000E460022284BFFF7C9FD03D80020C043FA
:1073F000014607E00022254B20463146FFF70CFCF2
:10740000FFF79CFD102409E0002C0ADB0A22002370
:10741000FFF7D2FB059B30321A55641E02460A4321
:10742000F2D11122641C059B121B1C190F9B012B0E
:1074300003D0012308430ED10AE0084304D01120F1
:107440000E9000200F9084E70E98151A6D1E0BE029
:107450000E98824202DD00236D1C03E0824201DAB5
:1074600000236D1E002BEED004980F998260C1603E
:1074700030C08AE701FCFFFF104D000000002440EF
:107480000000F03F300000000000F0430000E03F4B
:10749000FFB597B00646002518E2252877D10024CD
:1074A0002746FD49049400E00443761C327801200D
:1074B000203A90400842F7D130782A280ED0022294
:1074C000307801463039092916D804990A235943DE
:1074D000303940181443761C0490F1E7189802C81C
:1074E00004911890002904DA012040030443484223
:1074F000049002200443761C30782E2814D10420F6
:1075000004437078761C2A2809D11898761C80C804
:10751000189009E00A214F43303FC719761C307894
:10752000014630390929F5D930786C2810D006DCAD
:107530004C281AD068280ED06A2817D104E0742885
:1075400013D07A2812D110E00120400504430CE04A
:107550000121090501E0032109050C4371788142ED
:1075600003D1012000052418761C761C3078119078
:1075700066280BD013DC58287DD009DC00287BD08E
:107580004528F6D04628F4D047281AD1A5E118E0BE
:10759000632835D0642870D0652812D19DE1702809
:1075A0006CD008DC6728F1D069287BD06E280DD01C
:1075B0006F2806D1BAE073282ED0752871D07828AC
:1075C00059D01A9A199990476D1C7EE16002400FBC
:1075D000022809D003280DD00428189801680DD07E
:1075E0000D60001D189070E11898EA1701680D6091
:1075F0004A60F6E7189801680D80F2E70D70F0E731
:1076000018986A4601781172001D18900020507277
:1076100002A80090012005E0189802C818900020E8
:107620000091C04361070DD5002101E00199491C7B
:107630000191B94212DA8142F8DB009A515C0029CB
:10764000F4D10BE0002101E00199491C0191814234
:10765000FADB019A0099895C0029F5D10199049817
:107660001A9B471A21463846199A00F097FA019951
:10767000401945180BE04FE02CE113E04EE0009874
:1076800000990078491C00911A9A1999904701981D
:10769000401E0190401CF2D1214638461A9B199A8F
:1076A00010E137E00A200021009001916002410FB3
:1076B000022907D0189A01CA1892C21794460329C2
:1076C00008D00AE01898C01DC108C90005C9189162
:1076D000944607E000B2C2179446042902D140B292
:1076E000C1178C4600226146944506DA0A460021FD
:1076F000404291418C462D2102E0210504D52B21E9
:107700006A461173012103E0E10701D02021F7E768
:10771000029155E00A200AE0102008E010200090B5
:107720000021042004430191082703E008200021E0
:10773000019100906002410F022907D0189A01CAF6
:10774000189200229446032908D008E01898C01D1A
:10775000C108C90005C91891944603E080B2042904
:1077600000D1C0B200210291210729D511997029B9
:1077700006D0009A1021019B4A401A4305D00EE022
:1077800040216A461173012108E06146014306D099
:1077900030216A4611731199517302210291009AA6
:1077A0000821019B4A401A430AD16146014301D195
:1077B000610705D530216A46117301217F1E0291B0
:1077C0001199582904D035A10E910DA90D910DE004
:1077D00037A1F9E76146019B009AFFF7EDF90E9B8F
:1077E0008C469B5C0D9A521E0D92137061460143AC
:1077F000F0D10D9805A9081A20300190600703D533
:1078000001200004844300E001270198874201DD44
:10781000381A00E0002001990090411802980918D8
:107820000498401A0490E00306D421461A9B199A42
:10783000049800F0B3F94519002706E003A81A9A46
:10784000C05D199990476D1C7F1C02988742F5DB3B
:10785000E0030CD521461A9B199A049800F09EF972
:10786000451904E01A9A3020199990476D1C009927
:10787000481E00900029F5DC08E00D980D9900786D
:10788000491C0D911A9A199990476D1C0199481E2F
:1078900001900029F1DC63E1092801003031323325
:1078A000343536373839616263646566000000003C
:1078B0003031323334353637383941424344454626
:1078C0000000000000F05AF94519761C30780028B5
:1078D00000D0E2E528461BB0F0BD600700D40627C3
:1078E0001898C01DC108C90048680A680831C30F4C
:1078F000DB071891190001D09CA108E0210501D5F2
:107900009BA104E0E10701D09AA100E09AA1430005
:1079100011985B08109165280CD006DC452809D029
:1079200046281DD0472841D141E0662818D0672855
:107930003CD13CE00021112F01DB112000E0781C3C
:107940000191009008A911A8FFF7F6FC1399059181
:107950000021119A15927F1C12980197009150E016
:107960000120C00703900120019008A9009711A8E9
:10797000FFF7E2FC139A149905920022119B0092E2
:1079800012981593059A0192002901D0104602E041
:10799000791C40180190381A01D5019804E0404242
:1079A000401E0090781C0190C01B029043E0012F04
:1079B00000DA01270021112F01DD112000E03846F7
:1079C0000191009008A911A8FFF7B6FC1399059141
:1079D000119A0021129815920091019721070CD459
:1079E0000599B94201DB019900E00191012904DD0B
:1079F000159A491E515C302906D0B84201DA011DA2
:107A000005DA0121029115E00199491EEDE70028F0
:107A100005DC0099411800910199091A03E0019AC7
:107A2000411C914200DD01910099401A401C0290D6
:107A30000120C0070390200706D4029901988142D3
:107A400002DB0020C043029000206946C87707AFE0
:107A5000012103980337C907884224D002201190DE
:107A60002B201290039800280CDA404203902D201E
:107A7000129007E00A210398FFF71CF830317F1EAF
:107A8000039039701199481E11900029F2DC039877
:107A90000028EFD1791E1298087030782021084014
:107AA0004530BF1E387006A8C01BC01D039010983B
:107AB0000078002800D00120019941180298C017D1
:107AC0000918039809180498401A401E0490E0030E
:107AD00006D421461A9B199A049800F05FF84519BC
:107AE00010980078002803D01A9A199990476D1CB5
:107AF000E00324D521461A9B199A049800F04EF809
:107B000045191CE00098002807DB00990598884279
:107B100003DD1598405C199901E0199930201A9AF3
:107B2000904700986D1C401C00900298401E0290E7
:107B3000002804D11A9A2E20199990476D1C01999A
:107B4000481E01900029DDDC05E038781A9A7F1C78
:107B5000199990476D1C0399481E03900029F4DC85
:107B600021461A9B199A0498ACE600002D000000EB
:107B70002B0000002000000000000000F8B50446C3
:107B800000251E461746880404D405E03946202007
:107B9000B0476D1C641EF9D52846F8BDFFB50446F4
:107BA000002581B01E46C80301D5302700E02027FC
:107BB000880404D505E038460399B0476D1C641E5F
:107BC000F9D5284605B0F0BD0A68531C0B6010704B
:107BD0007047000010B501780B2909D01B2906D188
:107BE0004178891E8AB2011D03A000F08BFB10BDF5
:107BF0004278811C04A0F8E7536C617665206E6FB3
:107C0000746966793A0D0A0043535F4E554D302C26
:107C1000204154545F524541445F5253503A0D0A3B
:107C20000000000010B501780B2909D01B2906D1EE
:107C30004178891E8AB2011D03A000F063FB10BDCC
:107C40004278811C04A0F8E7536C617665206E6F62
:107C5000746966793A0D0A0043535F4E554D312CD5
:107C6000204154545F524541445F5253503A0D0AEB
:107C70000000000010B501780B2909D01B2906D19E
:107C80004178891E8AB2011D03A000F03BFB10BDA4
:107C90004278811C04A0F8E7536C617665206E6F12
:107CA000746966793A0D0A0043535F4E554D322C84
:107CB000204154545F524541445F5253503A0D0A9B
:107CC00000000000F8B50446401CFEF762FF0025E6
:107CD0003E4F022812D004284AD0012856D0082846
:107CE0000BD161793AA000F03BFB3F490C230878A7
:107CF00005225843C01942720D70F8BD0D220021B3
:107D0000A25620460E301154A01D0D4600900C20A6
:107D10002E4646430D22A2560098B9591018FEF778
:107D200017FF002807D0F01941680622E01DFEF772
:107D300023FF002804D06D1CEDB2032DE7D3F8BD5E
:107D400029462AA000F00CFB0C206843C419062227
:107D500033A0616800F0D6FA002020720120607222
:107D6000214805700020F9F75CFB00212EA02AE0D5
:107D700032A000F0F5FA0020F9F76FFB1A480C2248
:107D8000007803215043C0194172F8BD607A641C29
:107D9000002813D00128F8D160792279010211431B
:107DA00032A000F0DDFA10480C2200780421504384
:107DB000C01941720C48C01C4570F8BD6079227929
:107DC0000102114331A000F0CBFAF8BDBC01002044
:107DD000736C61766520646973636F6E6E6563743E
:107DE0002025780D0A0000000000002046696E641E
:107DF000206465766963652C2063757272656E74A4
:107E00005F6465766963655F6E756D203D202564EE
:107E10002C2063735F6E756D203D20300D0A0000CD
:107E20004D41433A0000000053746F702063735F4C
:107E30006E756D203D2025640D0A00006861766531
:107E400020436F6E6E65637420746F20736C61766F
:107E500065207468656E20646973636F766572204F
:107E60007365766963650D0A0000000064697363D9
:107E70006F76657220736572766963652066696ED8
:107E80006973683A25780D0A00000000646973631D
:107E90006F7665722073657276696365206C6F6FAB
:107EA000703A25780D0A0000F8B50446401CFEF72C
:107EB00070FE00253D4F022812D0042848D001282A
:107EC00054D008280BD1617939A000F049FA3E4915
:107ED0000C23487805225843C01942724D70F8BDF2
:107EE0000D21615620460E300D540025A01D009036
:107EF0000C202E4646430D22A2560098B959101860
:107F0000FEF726FE002807D0F01941680622E01D82
:107F1000FEF732FE002804D06D1CEDB2032DE7D32E
:107F2000F8BD294629A000F01BFA0C206843C419AB
:107F3000062233A0616800F0E5F90120207260722A
:107F4000214845700120F9F76CFA01212EA02AE0A2
:107F500032A000F005FA0120F9F77FFA1A480C2246
:107F6000407803215043C0194172F8BD607A641C07
:107F7000002813D00128F8D1607922790102114339
:107F800032A000F0EDF910480C2240780421504353
:107F9000C01941720C48C01C4570F8BD6079227947
:107FA0000102114331A000F0DBF9F8BDBC01002053
:107FB000736C61766520646973636F6E6E6563745C
:107FC0002025780D0A0000000000002046696E643C
:107FD000206465766963652C2063757272656E74C2
:107FE0005F6465766963655F6E756D203D2025640D
:107FF0002C2063735F6E756D203D20310D0A0000EB
:108000004D41433A0000000053746F702063735F6A
:108010006E756D203D2025640D0A0000686176654F
:1080200020436F6E6E65637420746F20736C61768D
:1080300065207468656E20646973636F766572206D
:108040007365766963650D0A0000000064697363F7
:108050006F76657220736572766963652066696EF6
:108060006973683A25780D0A00000000646973633B
:108070006F7665722073657276696365206C6F6FC9
:10808000703A25780D0A0000F8B50446401CFEF74A
:1080900080FD00253E4F022812D0042849D0012837
:1080A00055D008280BD161793AA000F059F93F4921
:1080B0000C23887805225843C01942728D70F8BD90
:1080C0000D21615620460E300D540025A01D009054
:1080D0000C202E4646430D22A2560098B95910187E
:1080E000FEF736FD002807D0F01941680622E01D92
:1080F000FEF742FD002804D06D1CEDB2032DE7D33E
:10810000F8BD29462AA000F02BF90C206843C419B9
:10811000062234A0616800F0F5F8022020720120E8
:108120006072224885700220F9F77BF902212FA0A6
:108130002AE033A000F014F90220F9F78EF91B4869
:108140000C22807803215043C0194172F8BD607A37
:10815000641C002813D00128F8D16079227901022B
:10816000114333A000F0FCF810480C228078042161
:108170005043C01941720D48C01C4570F8BD60796C
:1081800022790102114332A000F0EAF8F8BD0000A4
:10819000BC010020736C61766520646973636F6E47
:1081A0006E6563742025780D0A0000000000002031
:1081B00046696E64206465766963652C2063757218
:1081C00072656E745F6465766963655F6E756D2058
:1081D0003D2025642C2063735F6E756D203D203239
:1081E0000D0A00004D41433A0000000053746F70C7
:1081F0002063735F6E756D203D2025640D0A0000BD
:108200006861766520436F6E6E65637420746F20BD
:10821000736C617665207468656E20646973636F42
:10822000766572207365766963650D0A000000004B
:10823000646973636F7665722073657276696365CE
:108240002066696E6973683A25780D0A000000009F
:10825000646973636F7665722073657276696365AE
:10826000206C6F6F703A25780D0A00001CB5F9F785
:10827000B7F81C4819A101601B49416000214172F7
:1082800016A2C260184A921D0261417513A2826152
:10829000154A0C32C261203041701448009101909F
:1082A00069460020F9F7C1F811490020F9F7DAF81A
:1082B0001048019069460120F9F7B7F80E490120EE
:1082C000F9F7D0F80D48019069460220F9F7ADF8AA
:1082D0000B490220F9F7C6F81CBD00005359443879
:1082E00038313100BC01002005000020C57C0010A1
:1082F000D57B0010A97E0010257C0010898000101D
:10830000757C0010F8B5002415460E46002801D0F3
:1083100000F026F801277F0710E0600703D1A1B223
:108320000AA000F01DF8315D0AA000F019F86007FE
:10833000F84202D109A000F013F8641CAC42ECDB57
:10834000600702D005A000F00BF8F8BD5B253034C3
:10835000785D200025303278200000000D0A0000F2
:108360000FB410B5029900290BD003AA0748FEF7F5
:108370009DFFC2B2802A00D980220449002000F06B
:1083800057FB10BC08BC04B018470000F4010020E3
:1083900000227D239B0106E00021491C89B29942FD
:1083A000FBD3521C92B28242F6D3704710B500281C
:1083B00023D0124B0022001F196803E0814203D82A
:1083C0000A4649680029F9D1002A0AD01368841A9C
:1083D0009C4204D1006818181060104602E05060FA
:1083E00000E01860002907D002680B1A934203D1FD
:1083F0000B68D21802604968416010BDB4010020CA
:108400008206D30F202210B59043012282400F4CE8
:10841000980020580275140A4475140C8475140EC3
:10842000C4750B48002B08D00029417D03D091432F
:10843000427D417510BD1143FAE70029416802D021
:108440009143416010BD1143FBE700001C00002078
:108450004010005081062022C90F90430123834021
:1084600088000A4908581021403041180A781046FF
:108470004A78120210438A78C97812041043090618
:108480000843184000D00120704700001C00002065
:1084900010B50024152C1DD00CDC042C31D004DCCC
:1084A000002C1CD0022C0DD12BE00A2C20D0142C37
:1084B00008D10FE0182C0DD01E2C0BD01F2C20D073
:1084C000222C15D00021204600F04EFA0021204633
:1084D000FFF796FF641CE4B2272CDBD310BD00210C
:1084E000204600F041FA01212046FFF789FF0CE009
:1084F0000021204600F038FA0121204600F008F85B
:10850000E8E70021204600F02FFA0021F5E70000FF
:108510008206D30F30B520229043012282400E4CB8
:108520009B00E0580276150A4576150C8576150EE7
:10853000C576E058002907D00271110A4171110C6B
:108540008171110EC17130BD0272110A4172110C9C
:108550008172110EC17230BD1C000020FFB081B0CD
:1085600072B60024032160B2FEF726FE641C202CA4
:10857000F8DB00211C20FEF71FFE0821002000F080
:1085800013FA8CA28EA191A0FFF7EAFE95A0FFF747
:10859000E7FEFFF76BFE0520F7F724FEF7F700FE76
:1085A0000120F7F726FEFFF773FF62B691A0FFF7F1
:1085B000D7FEF8F773FE944D002428786A780121DD
:1085C000A140084201D1002A0DD0641CE4B2032C62
:1085D000F5D300250C20294641438C480C18607ABD
:1085E000012820D038E0012669460E7040204870EE
:1085F000002088709620C87000200871C8714C71E6
:1086000088716846F8F7F7FE2046F8F706FF2878E5
:108610003146A1400843C2B22A706E7021467CA048
:10862000FFF79EFED5E7277A2822834968466668C9
:10863000FEF76AFA002130460496F8F70AFF694609
:108640003846F8F7FEFE207AF8F7FFFE0220607247
:10865000217A7AA0FFF784FE607A05280FD1207A6C
:10866000F8F7DFFE6848217A027801238B409A43AD
:10867000027000236372437079A0FFF771FE6D1CD6
:10868000EDB2032DA6D30E20FFF7E4FE002826D17D
:108690001E20FFF77DFE0E20FFF7DCFE002819D11B
:1086A0007BA0FFF75DFE0320694608800020F8F7F5
:1086B00025FF69460120F8F721FF69460220F8F7F7
:1086C0001DFF6946098874A0FFF74AFE7D20C0009F
:1086D000FFF75EFE0E20FFF7BDFE0028FAD00F2048
:1086E000FFF7B8FE00282DD11E20FFF751FE0F2006
:1086F000FFF7B0FE002820D16CA0FFF731FE1F204D
:10870000694608800120887000200224C870224633
:10871000F8F725FF224669460120F8F720FF224698
:1087200069460220F8F71BFF6946098861A0FFF738
:1087300017FE7D20C000FFF72BFE0F20FFF78AFEFB
:108740000028FAD01020FFF785FE002800D030E77F
:108750001E20FFF71DFE1020FFF77CFE002823D10E
:108760005EA0FFF7FDFD1C2069460880A1208870EF
:108770000120C87008714871042422460020F8F7CF
:10878000EEFE224669460120F8F7E9FE22466946D8
:108790000220F8F7E4FE6946098852A0FFF7E0FDE1
:1087A0007D20C000FFF7F4FD1020FFF753FE0028E6
:1087B000FAD0FEE632303A32333A35360000000065
:1087C0004465632020322032303139005359443817
:1087D00038323120424C45756172742025733A2538
:1087E000730D0A005359442D54454B2E496E630DA9
:1087F0000A0000006761705F735F7363616E5F738F
:10880000746172740D0A000003000020BC01002096
:108810000D0A4F70656E2063735F6E756D20256461
:108820002C2069646C655F6E756D203D2030782565
:108830003032780D0A000000688A0010436F6E6EB7
:1088400065637420746F20736C6176652C2063738C
:108850005F6E756D203D2025642E0D0A000000001E
:1088600063735F6E756D203D2025642064697363BA
:108870006F6E6E6563742C2069646C655F6E756DD8
:10888000203D203078253032782E0D0A000000007F
:108890004B6579310D0A00006174745F6D635F721E
:1088A0006561647265713A25780D0A004B6579320D
:1088B0000D0A00006174745F6D635F77726974659F
:1088C00072657120746F20656E61626C65206E6FD9
:1088D000746966793A25780D0A0000004B65793392
:1088E0000D0A00006174745F6D635F77726974656F
:1088F0007265713A25780D0A00000000F0B50B3062
:10890000C108C900144F0026144A0FE003688B42C7
:108910000BD38B4205D95C1A4318456830C3083B1A
:1089200000E04368136002C004E0021D10680028E4
:10893000ECD13046002803D13868002801D000204F
:10894000F0BD064A06481060064A121AD208D20044
:1089500044C001203860D7E7B8010020B4010020EE
:10896000744700207087002010B5272819D2090706
:10897000C207090FD20F0B4B202802DA40101B68E8
:1089800002E020385B68401018180478002A01D0F3
:108990000F2300E0F0232340002A00D009010B43FD
:1089A000037010BD2400002070B50D460446072159
:1089B0001420FFF7D9FF07211520FFF7D5FF002C62
:1089C00007D007211220FFF7CFFF07211320FFF761
:1089D000CBFF14484023036013480268107829072E
:1089E00000090001090F0843107010784006400E7E
:1089F000E10108431070107818431070D0781021EE
:108A00000843D07090780821084390700748416A65
:108A100019434162016A19430162024880380360C8
:108A200070BD000080E100E04000002000800220D6
:108A3000F0B50124240400230A4D860006E0C7781F
:108A40003F07FCD44778CF5C47705B1CA859934222
:108A5000F5DB00E0641EC178490701D4002CF9D190
:108A6000F0BD0000400000202000000020000000B9
:108A700000000000000000000000000000000000F6
:108A80000C00000090010000000000001800000031
:108A900096C298D84539A1F4A033EB2D817D037798
:108AA000F240A463E5E6BCF847422CE1F2D1176B33
:108AB000F551BF376840B6CBCE5E316B5733CE2B06
:108AC000169E0F7C4AEBE78E9B7F1AFEE242E34F35
:108AD00000001050FFFFFFFFFFFF000062746C6595
:108AE00062746C6501000000010102006C65627235
:108AF0000056123737BFCE0000A713702DCFC1002C
:108B0000BE83605ADB0B376038A5F5AA9183886C69
:108B100020B003D2F297BE2C5E2C83A7E9F9A5B949
:108B2000EFF49111ACF4FDDBCC0301480E359DE66A
:108B300055188B3D32F6BB9A900AFCFBEED4E72A1F
:108B400059CB9AC2F19D7CFB6B4FDD49F47FC5FD8B
:108B5000ABAE2B71ECB2FFFF3E7377D15484CBD513
:108B6000EC0234A357C8AD05341010A60A397D9B1A
:108B700099796B13B4F866F1868D34F373BFA698B8
:108B80008969AC8DDB4B6297883288DE208F123C7E
:108B9000D5CB8454D177733EFFFFB2EC712BAEABD3
:108BA000A6E8E7CC25A75F6E216583F7FF3DC4CF1C
:108BB0000C2D0FC808DA42D2B453BB5412A3343B75
:108BC000206E63CE206A3FFD024A08A176F1652936
:108BD000A6E8E7CC25A75F6E216583F7FF3DC4CFEC
:108BE0009B7D390AA610103405ADC857A33402EC9A
:108BF000637645D0F773ACB7FFDD0372B97285B405
:108C000041B65D0C5D5484601AA39A3C6916A506B2
:108C1000CC0065E1F56C0DCFEC96472066C9DB848E
:108C20008175A84DC0DFC79D1B3F3DF23FE465F451
:108C300079B2ECD8CA55A1A8434D6BCA10B0C20195
:108C4000C2334E1624C4EFEE99D8BBBC48D0010203
:108C50008000800000048000000480008000000488
:108C6000800000040001000100018000000180007C
:108C7000800080008000800000010001000480006E
:108C800000010000A48C001000000020BC010000C6
:108C9000EE700010AC8D0010BC010020B4C50000C7
:108CA000287300105142013BA002063A0306811BC3
:108CB0005080041360101B508C04191712501AB006
:108CC000041AC0041AD00412E01F5070B002507889
:108CD00004E740787D01FFFF1318093B207B5C21EE
:108CE0001D08AA0220690218501220471050D6BE53
:108CF000898E28257755D9D764120AEBAC84A25106
:108D0000544A57CAF288CE19D7F33B9E78844ED87E
:108D1000E16A1D2B572255B11840194A34E47118E5
:108D2000CE7CA3D377AE15273531DEA01B7A099E02
:108D30002D5BB2200A020101CEBF3737125637C170
:108D4000CF2D7013A700216098A6BF73F3348D86D2
:108D5000F166F8B4136B79999B7D390AA61010342B
:108D600005ADC857A33402EC004110ABAE2B71EC3B
:108D7000B2FFFF3E7377D15484CBD5CFC43DFFF70C
:108D80008365216E5FA725CCE7E8A6206E63CE2021
:108D90006A3FFD024A08A176F16529C80F2D0CD261
:0C8DA00042DA0854BB53B43B34A3120069
:04000005100000C126
:00000001FF
