:020000041000EA
:100000004014002021090010290900102B090010BC
:1000100000000000000000000000000000000000E0
:100020000000000000000000000000002D0900108A
:1000300000000000000000002F090010310900102E
:10004000A304001033090010330900103309001015
:100050003309001033090010810600103309001025
:100060003309001033090010330900103309001060
:100070003309001033090010330900103309001050
:100080003309001033090010330900103309001040
:100090003309001033090010330900103309001030
:1000A000330900102B07001033090010330900102A
:1000B0003309001033090010330900103309001010
:1000C0000348854600F058FC00480047D500001062
:1000D0004014002008B5002472B60021192000F059
:1000E0004AFA0021172000F046FA0021222000F0F1
:1000F00042FA00210A2000F03EFA0121192000F006
:10010000D6F80121172000F0D2F80121222000F0BA
:10011000CEF801210A2000F0CAF800210E2000F0DC
:100120002AFA00210F2000F026FA0021102000F00A
:1001300022FA0021112000F01EFA00210E2000F00A
:100140004EF800210F2000F04AF80021102000F0A6
:1001500046F80021112000F042F80721142000F099
:100160000AFA0721152000F006FA0821002000F005
:1001700044FA122213A1002000F0F5FA62B61FE043
:100180000A2000F0C1F83146002000F01EFB0446B2
:10019000002C15D000200090002500BF0AE0694621
:1001A000002000F008FB01226946002000F0DBFA85
:1001B000681C85B2A542F2DB192000F0A5F800BF4B
:1001C000DEE700005359443838323120554152544B
:1001D0002054455354000000D3490860704770B55F
:1001E000024620241440630920251446AC4301250F
:1001F000A54028469C00CD4D2C592075050A6575F3
:10020000050CA575050EE575002B13D0002908D146
:10021000C74D6D7D0543ECB2C54D6D7DC44E747503
:1002200015E0C34D6D7D85432C46C14D6D7DC04E9F
:1002300074750CE0002905D1BD4C64680443BC4DC5
:100240006C6004E0BA4C64688443B94D6C6070BD66
:1002500070B5024620241440630920251446AC439F
:100260000125A5402846002B13D0002908D0B04D09
:10027000ED7D0543ECB2AE4DED7DAD4EF47515E070
:10028000AB4DED7D85432C46A94DED7DA84EF47513
:100290000CE0002905D0A64CE4680443A44DEC60B2
:1002A00004E0A34CE4688443A14DEC6070BD30B51C
:1002B0000B4620240440610920250446AC43012557
:1002C000A5402A468C00994D2C592276150A657650
:1002D000150CA576150EE576002B0AD08C00934DF3
:1002E0002C592271150A6571150CA571150EE57151
:1002F00009E08C008D4D2C592272150A6572150C7F
:10030000A572150EE57230BD10B5202303405909C2
:1003100020240346A34301249C4022468B00834CA7
:10032000E3581A73140A5C73140C9C73140EDC7378
:1003300010BD10B520230340590920240346A343D0
:1003400001249C4022468B00784CE3581A71140A11
:100350005C71140C9C71140EDC7110BD10B520235F
:100360000340590920240346A34301249C4022460C
:100370008B006E4CE3581A72140A5C72140C9C7257
:10038000140EDC7210BD30B5014620200840420931
:1003900020240846A0430124844023469000634C57
:1003A00020584030102404192578284665782D02FD
:1003B0002843A5782D042843E478240620431840D8
:1003C000002801D0012030BD0020FCE7F0B5034635
:1003D0000C46154620221A40500920261A46B243E0
:1003E000012696403146002C0BD182004F4EB25868
:1003F000403211720E0A56720E0C96720E0ED672A2
:100400000AE08200494EB258403211710E0A56710C
:100410000E0C96710E0ED671002D0BD18200434E3C
:10042000B258203211760E0A56760E0C96760E0EC3
:10043000D6760AE082003D4EB258203211750E0A7F
:1004400056750E0C96750E0ED6758200374EB25844
:10045000203211710E0A56710E0C96710E0ED67165
:100460000022002A05DBD706FF0E0126BE40314FD1
:100470003E6000BFF0BD10B5202303405909202481
:100480000346A34301249C4022468B00274CE3589B
:1004900020331A72140A5C72140C9C72140EDC72F3
:1004A00010BD70B500243CE0A00020490858403041
:1004B000142141180A7810464A78120210438A78AB
:1004C00012041043C97809060843A100174A51587D
:1004D00020310A461378194653781B021943937842
:1004E0001B041943D2781206114308400546002D1B
:1004F00000D114E00C480068002804D029462046AA
:10050000094A12689047A00008490858403005750C
:10051000290A4175290C8175290EC17500BF601C1F
:10052000C4B2022CC0DB70BD080000200000002017
:100530004010005000E100E010B50146272901DA23
:10054000002902DA0020C04310BDCC07E40F2029A7
:1005500004DA4A101B480068835C05E0084620382E
:10056000421018484068835C002C01D01811EBE75A
:100570001807000FE8E770B5272801DA002800DA2D
:1005800070BD0907090FC407E40F202804DA4310DF
:100590000C4E3668F21805E00646203E7310094EF0
:1005A0007668F2181578002C01D00F2600E0F026AE
:1005B0003540002C01D00E07310E2E460E4316702A
:1005C00000BFDDE70C000020002815DBC206D20EBC
:1005D00001219140944A116000BF00BF00BFBFF3EA
:1005E0004F8F00BF00BF00BF00BF00BF00BFBFF301
:1005F0006F8F00BF00BF00BF704770B504460D4647
:100600000620FFF7E1FF8948006800780009000133
:100610002907090F0843854909680870834800685D
:10062000007880218843E1018022114008437F49FE
:10063000096808707D4800680078402188437B493C
:100640000968087079480068807808218843083074
:1006500076490968887092007549764800F0F0F88C
:100660007548406A40210843734948620846006A59
:100670004021084370490862062000F0CBF870BDA5
:1006800070B56A48006804783020604005466748C5
:10069000006805701020204000280DD000BF63487E
:1006A00000680179634800F003F960480068C07889
:1006B000C007C00F0028F2D070BD70B504460D46CB
:1006C0001920FFF781FF59484068007800090001B0
:1006D0002907090F0843554949680870534840687D
:1006E000007880218843E1018022114008434F496E
:1006F000496808704D4840680078402188434B495C
:100700004968087049484068807808218843083063
:10071000464949688870920048494648103000F0C0
:100720008FF8192000F076F870BD70B53F4840682A
:1007300004783020604005463C4840680570102031
:10074000204000280ED000BF384840680179394861
:10075000103000F0ADF835484068C078C007C00FD1
:100760000028F1D070BDF0B50B460124240400210F
:1007700012E000BF85002D4E7559ED782D07ED0F65
:10078000002DF7D1850075596D785E5C3546860081
:10079000264FBE597570491C9142EADB00E0641E89
:1007A0008500224E7559ED786D07ED0F002D01D1B2
:1007B000002CF4D1F0BD70B504460D4621011D4A50
:1007C0008818294600F082F870BD70B504460D46C1
:1007D00000BF022C01DB002070BD2101154A8818E2
:1007E00000F089F800280AD1200112494018C56894
:1007F0002101104A881800F087F8C0B2ECE7002009
:10080000EAE70146012901DD002070478800074A18
:100810001058FAE7002806DBC206D20E01219140EB
:10082000014A803A1160704780E100E01400002026
:100830004000002020000020008002204002002014
:100840000023436003608260C160704741680160BB
:100850007047F8B504460F46154660684019A16810
:10086000884219DBA088281A86B26268E168881875
:100870003246394600F06EF8A81B85B22068A842BF
:1008800002DC2088401E85B2B9192A46E06800F0D3
:1008900061F865607019F8BD6268E16888182A46D9
:1008A000394600F057F86068401960602846F2E762
:1008B00002465368581C5060D068C1549368506811
:1008C000984201DB002050600120704702465368C7
:1008D0001068984201D1002070471368581C1060BE
:1008E000D068C05C087093681068984201DB0020F3
:1008F00010600120F0E701464A680868904201D183
:10090000012070470020FCE7014600224B68086880
:10091000984200DD8A68486880180B68C01A7047E2
:100920000448804704480047FEE7FEE7FEE7FEE78D
:10093000FEE7FEE745090010C10000100348044926
:1009400008607047014802490860704740787D019F
:100950001C00002003460B439B0703D009E008C995
:10096000121F08C0042AFAD203E00B780370401C5F
:10097000491C521EF9D27047064C0125064E05E06F
:10098000E36807CC2B430C3C98471034B442F7D3B0
:10099000FFF79AFBBC090010DC09001002E008C850
:1009A000121F08C1002AFAD170477047002001E0E9
:1009B00001C1121F002AFBD170470000DC090010A2
:1009C00000000020200000009C090010FC0900101D
:1009D0002000002020140000AC090010000000508E
:1009E0008000005000000000601000508C1000508B
:0C09F00070B0025078B0025040787D01D9
:04000005100000C126
:00000001FF
