:020000041000EA
:10000000581500202913001031130010331300106D
:1000100000000000000000000000000000000000E0
:100020000000000000000000000000003513001078
:10003000000000000000000037130010391300100A
:10004000430800103B1300103B1300103B1300103B
:10005000D50E0010F90E0010270A00103B130010F7
:100060003B1300103B1300103B1300103B13001018
:100070003B1300103B1300103B1300103B13001008
:100080003B1300103B1300103B1300103B130010F8
:100090003B1300103B1300103B1300103B130010E8
:1000A0003B130010D10A00103B1300103B1300104B
:1000B0003B1300103B1300103B1300103B130010C8
:1000C0000348854601F07AFB00480047D500001040
:1000D0005815002088B02021684601F058F972B602
:1000E0000021192000F033FC0021172000F02FFC24
:1000F0000021222000F02BFC00210A2000F027FC28
:100100000121192000F0A7FA0121172000F0A3FA1D
:100110000121222000F09FFA01210A2000F09BFA21
:1001200000210E2000F013FC00210F2000F00FFC36
:100130000021102000F00BFC0021112000F007FC32
:1001400000210E2000F01FFA00210F2000F01BFA02
:100150000021102000F017FA0021112000F013FAFE
:100160000721142000F0F3FB0721152000F0EFFB1E
:1001700000F0B4FD1FA000F0B7FD0621082000F03C
:10018000E6FB0621092000F0E2FB0021012000F03F
:100190000BFF0121084600F0CAFE0121084600F0CD
:1001A000DAFE0121084600F00EFF04200121814003
:1001B000154A116000BF00F089F814A2002108461A
:1001C00000F0B2F914A20221002000F0ADF915A24E
:1001D0000421002000F0A8F915A20621002000F05B
:1001E000A3F962B605E00A2000F062FA642000F08C
:1001F00073FBF8E7535944383832312049494320DA
:1002000044454D4F0D0A000000E100E053594420E1
:10021000496E632E000000005359443838323120B3
:10022000455642006F6C65642064656D6F00000088
:10023000323031382D332D323000000001B582B01C
:10024000012002AB00223C21009000F0A5FF0EBD72
:1002500001B582B0012002AB40223C21009000F0A9
:100260009BFF0EBD70B50646002415E02146B03157
:10027000C8B2FFF7E3FF0120FFF7E0FF1020FFF710
:10028000DDFF002504E03046FFF7E2FF681CC5B241
:10029000802DF8DB601CC4B2082CE7DB70BD70B5A4
:1002A00004460D462946B031C8B2FFF7C7FFF0211A
:1002B0002140091108461030FFF7C0FF2107090F40
:1002C000012211430846FFF7B9FF70BD10B50021A8
:1002D000062000F03CFB0021062000F0BCF90A20BB
:1002E00000F0FAFA062000F0F8F90A2000F0F4FA1B
:1002F000AE20FFF7A3FF0020FFF7A0FF1020FFF7BD
:100300009DFF4020FFF79AFF8120FFF797FFCF2046
:10031000FFF794FFA120FFF791FFC820FFF78EFFA2
:10032000A620FFF78BFFA820FFF788FF3F20FFF7ED
:1003300085FFD320FFF782FF0020FFF77FFFD52046
:10034000FFF77CFF8020FFF779FFD920FFF776FFCA
:10035000F120FFF773FFDA20FFF770FF1220FFF79D
:100360006DFFDB20FFF76AFF4020FFF767FF2020CB
:10037000FFF764FF0220FFF761FF8D20FFF75EFFAC
:100380001420FFF75BFFA420FFF758FFA620FFF71C
:1003900055FFAF20FFF752FF0020FFF763FF00215A
:1003A0000846FFF77CFF10BDF7B582B0044615463E
:1003B000002001900026002720E0E85D2038C0B230
:1003C00001907E2C04DD00240398401CC0B20390F1
:1003D00020460399FFF763FF002609E006220199F2
:1003E0005143634A8918885DFFF732FF701CC6B21B
:1003F000062EF3DBA01DC4B2781CC7B2E85D00284E
:10040000DBD105B0F0BDFEB505460E46174600200F
:1004100001900024009034E00098385C2038C0B28D
:100420000190782D02DD0025701CC6B231462846A9
:10043000FFF735FF002408E00199090109194D4A29
:10044000505CFFF705FF601CC4B2082CF4DB701C85
:10045000C1B22846FFF723FF002409E001990901F2
:1004600009190831434A505CFFF7F2FE601CC4B220
:10047000082CF3DB28460830C5B20098401CC0B2F7
:1004800000900098385C0028C6D1FEBDF7B582B058
:100490000746164643E000243BE0232060433649EC
:1004A0004018203000783178884230D123206043D2
:1004B00031494018203040787178884227D1039A1A
:1004C000D1B2F8B2FFF7EBFE00250AE0232060432B
:1004D00029494018405D01900198FFF7B9FE681C5A
:1004E000C5B2102DF2DB039A521CD1B2F8B2FFF75D
:1004F000D6FE0AE0232060431F494018405D01906A
:100500000198FFF7A5FE681CC5B2202DF2DB601C28
:1005100084B2402CC1DBB61C3846103087B230782C
:100520000028B8D105B0F0BD0FB4F8B505460E46A9
:1005300000240898002803D1F8BC08BC04B0184770
:1005400009A800900D48009A089901F0DDF9C4B29D
:1005500000200090802C00DD8024002007490855F1
:100560000A4631462846FFF74EFF00BFE4E7000089
:1005700093230010BB250010122200103800002029
:10058000D1490860704770B50246202414406309C1
:1005900020251446AC430125A54028469C00CB4DA0
:1005A0002C592075050A6575050CA575050EE575B0
:1005B000002B13D0002908D1C54D6D7D0543ECB249
:1005C000C34D6D7DC24E747515E0C14D6D7D854383
:1005D0002C46BF4D6D7DBE4E74750CE0002905D1D3
:1005E000BB4C64680443BA4D6C6004E0B84C64686A
:1005F0008443B74D6C6070BD70B502462024144032
:10060000630920251446AC430125A5402846002B4C
:1006100013D0002908D0AE4DED7D0543ECB2AC4DB2
:10062000ED7DAB4EF47515E0A94DED7D85432C466F
:10063000A74DED7DA64EF4750CE0002905D0A44C25
:10064000E4680443A24DEC6004E0A14CE4688443F8
:100650009F4DEC6070BD30B50B462024044061090D
:1006600020250446AC430125A5402A468C00974D21
:100670002C592276150A6576150CA576150EE576A9
:10068000002B0AD08C00914D2C592271150A6571EE
:10069000150CA571150EE57109E08C008B4D2C59D8
:1006A0002272150A6572150CA572150EE57230BD21
:1006B00010B520230340590920240346A3430124F5
:1006C0009C4022468B00814CE3581A73140A5C73D9
:1006D000140C9C73140EDC7310BD10B52023034062
:1006E000590920240346A34301249C4022468B0041
:1006F000764CE3581A71140A5C71140C9C71140E38
:10070000DC7110BD10B52023034059092024034695
:10071000A34301249C4022468B006C4CE3581A7280
:10072000140A5C72140C9C72140EDC7210BD30B58D
:10073000014620200840420920240846A043012405
:10074000844023469000614C205840301024041906
:100750002578284665782D022843A5782D0428435E
:10076000E478240620431840002801D0012030BD41
:100770000020FCE7F0B503460C46154620221A403F
:10078000500920261A46B243012696403146002CD5
:100790000BD182004D4EB258403211720E0A567281
:1007A0000E0C96720E0ED6720AE08200474EB258B8
:1007B000403211710E0A56710E0C96710E0ED671E2
:1007C000002D0BD18200414EB258203211760E0A14
:1007D00056760E0C96760E0ED6760AE082003B4ECA
:1007E000B258203211750E0A56750E0C96750E0E03
:1007F000D6758200354EB258203211710E0A5671EC
:100800000E0C96710E0ED671002201269640314FC5
:100810003E6000BFF0BD10B52023034059092024DD
:100820000346A34301249C4022468B00274CE358F7
:1008300020331A72140A5C72140C9C72140EDC724F
:1008400010BD70B500243CE0A0002049085840309D
:10085000142141180A7810464A78120210438A7807
:1008600012041043C97809060843A100174A5158D9
:1008700020310A461378194653781B02194393789E
:100880001B041943D2781206114308400546002D77
:1008900000D114E00C480068002804D02946204606
:1008A000094A12689047A000084908584030057569
:1008B000290A4175290C8175290EC17500BF601C7C
:1008C000C4B2022CC0DB70BD080000200000002074
:1008D0004010005000E100E0002109E0002201E0AA
:1008E000531C9AB27D239B019A42F9DB4B1C99B2AF
:1008F0008142F3DB7047002107E0002201E0531C36
:100900009AB2092AFBDB4B1C99B28142F5DB704796
:1009100010B50146272901DA002902DA0020C04378
:1009200010BDCC07E40F202904DA4A101B480068E8
:10093000835C05E008462038421018484068835C14
:10094000002C01D01811EBE71807000FE8E770B58D
:10095000272801DA002800DA70BD0907090FC4074B
:10096000E40F202804DA43100C4E3668F21805E034
:100970000646203E7310094E7668F2181578002C52
:1009800001D00F2600E0F0263540002C01D00E07E4
:10099000310E2E460E43167000BFDDE70C0000201E
:1009A00070B504460D46062000F00EF98A4800682E
:1009B0000078000900012907090F084386490968E2
:1009C000087085480068007880218843E101802212
:1009D000114008438049096808707F480068007822
:1009E000402188437C49096808707B48006880780A
:1009F000082188430830784909688870920077494F
:100A0000774800F0F7F97748406A40210843754974
:100A100048620846006A402108437249086206207D
:100A200000F0CBF870BD70B56B48006804783020DA
:100A30006040054668480068057010202040002886
:100A40000DD000BF644800680179654800F00AFADB
:100A500061480068C078C007C00F0028F2D070BDA0
:100A600070B504460D46192000F0AEF85A484068AB
:100A70000078000900012907090F08435649496811
:100A8000087055484068007880218843E101802241
:100A9000114008435049496808704F484068007841
:100AA000402188434C49496808704B484068807829
:100AB00008218843083048494968887092004A49AB
:100AC0004748103000F096F9192000F076F870BD14
:100AD00070B54148406804783020604005463E4883
:100AE000406805701020204000280ED000BF3A4812
:100AF000406801793A48103000F0B4F9364840684F
:100B0000C078C007C00F0028F1D070BDF0B50B460B
:100B100001242404002112E000BF85002E4E7559E7
:100B2000ED782D07ED0F002DF7D1850075596D7803
:100B30005E5C35468600284FBE597570491C91424F
:100B4000EADB00E0641E8500234E7559ED786D07E1
:100B5000ED0F002D01D1002CF4D1F0BD70B504468D
:100B60000D4621011E4A8818294600F089F970BDFA
:100B700070B504460D4600BF022C01DB002070BD9D
:100B80002101174A881800F090F900280AD12001A5
:100B900013494018C5682101114A881800F08EF9E0
:100BA000C0B2ECE70020EAE70146012901DD0020A0
:100BB00070478800084A1058FAE7C206D20E012191
:100BC00091400A4A11607047C206D20E012191403D
:100BD000064A80321160704714000020D8000020BF
:100BE000B800002000800220D802002000E100E0D0
:100BF00010B50246062001238340754C236000BFD8
:100C0000744800680078000900010B071B0F1843A7
:100C1000704B1B6818706F480068007880239843F9
:100C2000D3018024234018436A4B1B68187069481D
:100C300000680078402398434030664B1B6818706A
:100C400064480068C078102398431030614B1B68DB
:100C5000D8706048006880780823984308305D4B5E
:100C60001B6898705C48406A402318435A4B58628E
:100C70001846006A40231843574B18620620012388
:100C80008340534C803C236000BF10BDF0B50B4641
:100C900001242404002112E000BF85004D4E755947
:100CA000ED782D07ED0F002DF7D1850075596D7882
:100CB0005E5C35468600474FBE597570491C9142AF
:100CC000EADB00E0641E8500424E7559ED786D0741
:100CD000ED0F002D01D1002CF4D1F0BD10B508218D
:100CE0000020FFF785FF10BD0FB438B5002404982D
:100CF000002803D138BC08BC04B0184705A80090F0
:100D00003648009A049900F0FFFDC4B2002000901C
:100D1000802C00DD8024224630490020FFF7B6FFFA
:100D200000BFE7E70FB438B5054600240598002852
:100D300003D138BC08BC04B0184706A80090274867
:100D4000009A059900F0E0FDC4B200200090802CCC
:100D500000DD8024224621492846FFF797FF00BF87
:100D6000E7E7F8B505460E4617460024002D02D0E9
:100D70002846FFF7B9FF00241BE02046E117490F82
:100D80000918C910C900611A03D1A1B214A0FFF754
:100D9000ABFF315D14A0FFF7A7FF601CC117490F1F
:100DA0000918C910C900411A02D111A0FFF79CFF10
:100DB000641CBC42E1DB2046E117490F0918C91049
:100DC000C900611A02D00AA0FFF78EFFF8BD00002B
:100DD00080E100E01C00002000800220D8040020F8
:100DE0005B253034785D200025303278200000000B
:100DF0000D0A00000023436003608260C1607047F9
:100E0000416801607047F8B504460F4615466068B2
:100E10004019A168884219DBA088281A86B2626846
:100E2000E16888183246394600F098FAA81B85B266
:100E30002068A84202DC2088401E85B2B9192A46E3
:100E4000E06800F08BFA65607019F8BD6268E168CF
:100E500088182A46394600F081FA606840196060B7
:100E60002846F2E702465368581C5060D068C154C7
:100E700093685068984201DB002050600120704761
:100E8000024653681068984201D1002070471368E9
:100E9000581C1060D068C05C087093681068984255
:100EA00001DB002010600120F0E701464A68086875
:100EB000904201D1012070470020FCE7014600224A
:100EC0004B680868984200DD8A68486880180B689B
:100ED000C01A704710B5F8480068002802D0F649DB
:100EE00008688047F5480068407940084000401C89
:100EF000F2490968487110BD10B5EF4840680028F4
:100F000002D0ED4948688047EC4840684079400885
:100F10004000401CE9494968487110BD01468800FD
:100F2000E64A105870478200E34B9950704710B55D
:100F30008200E24B9A58127852085200002901D0E0
:100F4000012300E00023DB07DB0F1A438300DB4CA7
:100F5000E3581A7010BD10B58200D84B9A58127918
:100F600052085200002901D1012300E00023DB07D1
:100F7000DB0F1A438300D14CE3581A7110BD10B532
:100F80008200CE4B9A58D27C08239A43002901D084
:100F9000012300E00023DB00082423401A438300E0
:100FA000C64CE358DA7410BD10B58200C34B9A5892
:100FB000D27CD208D2004B075B0F1A438300BF4C90
:100FC000E358DA7410BD10B58200BC4B9A58927C7D
:100FD00080239A43002901D0012300E00023DB0194
:100FE000802423401A438300B44CE3589A7410BD04
:100FF000FFB581B004460E461D460A9FB807800F14
:10100000002805D1002D03DDFF200130854206DDDB
:10101000ABA10020FFF786FE002005B0F0BDA000C8
:10102000A64908580078C007C00F002805D12246FD
:10103000AAA1FFF777FE0020EFE7A0009F4909581B
:10104000C878897800020843AB490840E901AA4AF8
:10105000D24311400843A100984A51588870000AB1
:10106000C870A000114608580772390A4172390C3D
:101070008172390EC172A00011460858807CC009E7
:10108000C0017106490E0843A10051588874A000A0
:1010900011460958487C097C00020843039989B22B
:1010A0000846A10051580874000A4874A00011466F
:1010B0000858407840084000401CA1005158487032
:1010C0000120AAE7FFB581B004460E461D460A9FDF
:1010D000B807800F002805D1002D03DDFF20013067
:1010E000854206DD76A10020FFF71CFE002005B03A
:1010F000F0BDA000714908580078C007C00F002853
:1011000005D1224675A1FFF70DFE0020EFE7A000F4
:101110006A490858817842780802104377490840A4
:10112000A901764AD24311400843A100634A5158AD
:101130004870000A8870A000114608580773390AE1
:101140004173390C8173390EC173A00011460858E0
:10115000807CC009C0017106490E0843A1005158A6
:101160008874A00011460958487C097C0002084395
:10117000039989B20846A10051580874000A4874BE
:10118000A00011460858407802218843801CA10025
:10119000515848700120AAE7FEB504460E4617468E
:1011A0001D46A000454908580079C007C00F0290AD
:1011B00000200190A0000858007940084000401C21
:1011C000A1003E4A51580871A000114608584079C4
:1011D00040084000401CA1005158487100953A4613
:1011E00031462046089BFFF76DFF002813D000BF53
:1011F000A000324908588079C007C00F0028F7D0F6
:10120000A0000858407940084000401CA1002B4A2B
:101210005158487101E001200190A0002749085869
:101220000079400840000299C907C90F0843A1008E
:10123000224A515808710198FEBDFEB504460E467B
:1012400017461D46A0001D4908580079C007C00F69
:10125000029000200190A00008580079400840004A
:10126000401CA100154A51580871A00011460858A9
:10127000407940084000401CA10051584871009539
:101280003A4631462046089BFFF7B2FE002837D089
:1012900000BFA000094908588079C007C00F002886
:1012A000F7D0A0000858407940084000401CA10039
:1012B000024A5158487125E02C00002024000020EB
:1012C000444D4120706172616D6574657220696E74
:1012D000636F72726563740D0A0000004932432027
:1012E0004D6173746572202564206973206469738D
:1012F00061626C65640D0A007F00FFFF3F80FFFFA5
:1013000001200190A00007490858007940084000DA
:101310000299C907C90F0843A100024A5158087130
:101320000198FEBD2400002004488047044800477F
:10133000FEE7FEE7FEE7FEE7FEE7FEE74D130010DF
:10134000C100001003480449086070470148024981
:101350000860704740787D013400002003460B434D
:101360009B0703D009E008C9121F08C0042AFAD25B
:1013700003E00B780370401C491C521EF9D27047E1
:10138000D2B201E00270401C491EFBD2704700221D
:10139000F6E710B513460A4604461946FFF7F0FF74
:1013A000204610BD30B50B46014600202022012406
:1013B00009E00D46D5409D4205D31D469540491B89
:1013C0002546954040191546521E002DF1DC30BDD2
:1013D000F0B51FB40646002082B0054640240191B6
:1013E00000901BE0019922460F46304600F008FAB3
:1013F000049A059B801A994110D31046194622463B
:1014000000F0EEF9361A8F410197224601200021A3
:10141000009F00F0E5F938184D4100902046641E09
:101420000028DFDC019B00982946324607B0F0BD5A
:10143000F0B507460846584087B0C00F04904800F2
:101440000E46590040084908BC1A884105D2384662
:1014500031461E4617460B460246580040081043C8
:101460004CD0300D039040055900400D490D0590BA
:10147000401A0290402872DA18030121000B090576
:101480000843019004980092002805D00199524227
:101490000020884100920190029840210A1A019987
:1014A000009800F09DF905460C466B4607CB00F00E
:1014B000B8F9C0197141039A0E0D0023D717564091
:1014C0001A467A40164344D0049A002A2DD0029A34
:1014D000012A039A15DC1205C01A9141012636052E
:1014E000001C7141D20F059ED20700930192029613
:1014F0002A46234600F0B5F907B0F0BD384631461C
:10150000FAE71605224A0F46B218C01AB741012160
:101510000905001C4F4100187F41114618187941F8
:10152000E20F10436D19644113E0E2076D081543A3
:101530006408C2071443039A01261205C01A914198
:101540003605001C7141CE07400830434908C018D9
:1015500051412A46234600F077F9CDE7FFE704988A
:1015600001224000C117121A00238B410498314612
:10157000C417381AA141EEE730B40124E4076340F0
:1015800030BC55E730B40124E407614030BC4FE77C
:101590000000E0FFF0B51FB488B00B990998002453
:1015A00048400999C00F490049080991C0070B99A3
:1015B0000090490049080B9109990898A6460843EC
:1015C0001CD00B990A98084318D0099801244000B0
:1015D000420D4800410D099824050003000B2043EB
:1015E00009900B980003000B20430B9050181C49E6
:1015F0004018002201901446104605E000200146E4
:101600000DB0F0BD032801DA034600E003239C4639
:10161000C11A0AAE0AE05F0008ADED5B4F00F75B50
:101620007D430027AA187C41491C5B1E6145F2DD01
:10163000410004AB5A522104120C0A43240C401CF2
:101640000828DFDB01980290009970460191009014
:10165000059B049A0799069800F003F9D0E700006B
:101660000DFCFFFFF0B50C465C4085B0E40FE407CD
:1016700003944C0000266408590094464908024629
:101680000296224321D062460A431ED06200570DC3
:101690004A000E032303550D012402462C4924055C
:1016A000781B1B0B360B40182343264361460090E2
:1016B0001C46501AB44103D30098401C009002E02D
:1016C000921800985B41002803DA0020014605B01B
:1016D000F0BD0020012109050746864611E0644659
:1016E0001D46141BB54106D36546521BB3417446D3
:1016F00007430C43A646CD074008490828439218E3
:101700005B4105460D43EAD11046184313D06046AD
:10171000194650407140084306D06046101AB34144
:1017200006D20122002306E000220123DB0702E0AB
:101730000122D2435310009874460105381C6141C0
:10174000029C039D0019694100F07EF8BFE700008C
:10175000FD0300004A0009030123090B1B0519437F
:101760000A4B10B5520D9A4202DA0020014610BD14
:10177000064B34339A4203DC9A1A00F041F810BD4C
:10178000034BD21800F02CF810BD0000FF0300003E
:10179000CDFBFFFF10B5002904DB0124E407404224
:1017A0008C412146002B04DB1C460123DB075242FF
:1017B000A341994200D1904210BD0000064C012582
:1017C000064E05E0E36807CC2B430C3C98471034E9
:1017D000B442F7D3FEF778FCAC2B0010CC2B0010F2
:1017E00010B5202A04DB0146203A9140002010BDAC
:1017F000914020239C1A0346E3401943904010BDBA
:1018000010B5202A04DB0846203AD040002110BD44
:101810000B46D340D0402024A21A914008431946D9
:1018200010BD10B5202A06DBCB170846203A104120
:10183000C1170B4306E00B461341D0402024A21AE7
:1018400091400843194610BD10B5002B08DA00245A
:10185000401C614192185B411A4301D1400840008D
:1018600010BDF0B51FB482B005460C0003D0084689
:1018700000F05CF802E000F059F8203002460090D9
:1018800021462846FFF7ACFF049B059A04460F4605
:1018900018431143084314D0184610431BD0009836
:1018A00040210A1A18460599FFF7AAFF05460E4679
:1018B000009A05990498FFF793FF084305D001208B
:1018C00004E02046394607B0F0BD0020C1170543AB
:1018D0000E432C43374300990E986305401A79054F
:1018E000E40A00220C43FD0A0A3002D5002001461A
:1018F000E9E70105101969410C9C0D9D001969412A
:10190000FFF7A2FFDFE7000037B514460846064B95
:101910006A46214600F0DCF804466946002000F0E3
:1019200073FC20463EBD0000092200102021020C5D
:1019300001D010211046020A01D0104608390209D0
:1019400001D01046091F820801D01046891E4208A6
:1019500001D0881E7047081A704702E008C8121F9D
:1019600008C1002AFAD170477047002001E001C188
:10197000121F002AFBD17047F0B51FB484B007983E
:101980000699020D014314D04A484B4910184843A8
:1019900005140F9801280E981CD0281A401C00240A
:1019A000464E4749009401910290002814DA4742BC
:1019B00027E00F98012443A3012808D000210498B0
:1019C0000F9A84600360C260416009B0F0BD0E9858
:1019D000C143F4E74042E2E7074612E0F80707D0C8
:1019E0002246334601990098FFF7D4FD01910090FB
:1019F0002246334610461946FFF7CCFD04460E46F4
:101A00007F10002FEAD10298019B0028009A0799C5
:101A1000069802DAFFF7BEFD01E0FFF723FE044659
:101A20000E460022284BFFF7B5FE03D80020C04326
:101A3000014607E00022254B20463146FFF7F8FC1F
:101A4000FFF788FE102409E0002C0ADB0A2200239D
:101A5000FFF7BEFC059B30321A55641E02460A434E
:101A6000F2D11122641C059B121B1C190F9B012B28
:101A700003D0012308430ED10AE0084304D011200B
:101A80000E9000200F9084E70E98151A6D1E0BE043
:101A90000E98824202DD00236D1C03E0824201DACF
:101AA00000236D1E002BEED004980F998260C16058
:101AB00030C08AE701FCFFFF104D00000000244009
:101AC0000000F03F300000000000F0430000E03F65
:101AD000FFB597B00646002518E2252877D10024E7
:101AE0002746FD49049400E00443761C3278012027
:101AF000203A90400842F7D130782A280ED00222AE
:101B0000307801463039092916D804990A235943F7
:101B1000303940181443761C0490F1E7189802C835
:101B200004911890002904DA01204003044348423C
:101B3000049002200443761C30782E2814D104200F
:101B400004437078761C2A2809D11898761C80C81E
:101B5000189009E00A214F43303FC719761C3078AE
:101B6000014630390929F5D930786C2810D006DCC7
:101B70004C281AD068280ED06A2817D104E074289F
:101B800013D07A2812D110E00120400504430CE064
:101B90000121090501E0032109050C437178814207
:101BA00003D1012000052418761C761C3078119092
:101BB00066280BD013DC58287DD009DC00287BD0A8
:101BC0004528F6D04628F4D047281AD1A5E118E0D8
:101BD000632835D0642870D0652812D19DE1702823
:101BE0006CD008DC6728F1D069287BD06E280DD036
:101BF0006F2806D1BAE073282ED0752871D07828C6
:101C000059D01A9A199990476D1C7EE16002400FD5
:101C1000022809D003280DD00428189801680DD097
:101C20000D60001D189070E11898EA1701680D60AA
:101C30004A60F6E7189801680D80F2E70D70F0E74A
:101C400018986A4601781172001D18900020507291
:101C500002A80090012005E0189802C81890002002
:101C60000091C04361070DD5002101E00199491C95
:101C70000191B94212DA8142F8DB009A515C0029E5
:101C8000F4D10BE0002101E00199491C019181424E
:101C9000FADB019A0099895C0029F5D10199049831
:101CA0001A9B471A21463846199A00F097FA01996B
:101CB000401945180BE04FE02CE113E04EE000988E
:101CC00000990078491C00911A9A19999047019837
:101CD000401E0190401CF2D1214638461A9B199AA9
:101CE00010E137E00A200021009001916002410FCD
:101CF000022907D0189A01CA1892C21794460329DC
:101D000008D00AE01898C01DC108C90005C918917B
:101D1000944607E000B2C2179446042902D140B2AB
:101D2000C1178C4600226146944506DA0A46002116
:101D3000404291418C462D2102E0210504D52B2102
:101D40006A461173012103E0E10701D02021F7E782
:101D5000029155E00A200AE0102008E010200090CF
:101D60000021042004430191082703E008200021FA
:101D7000019100906002410F022907D0189A01CA10
:101D8000189200229446032908D008E01898C01D34
:101D9000C108C90005C91891944603E080B204291E
:101DA00000D1C0B200210291210729D511997029D3
:101DB00006D0009A1021019B4A401A4305D00EE03C
:101DC00040216A461173012108E06146014306D0B3
:101DD00030216A4611731199517302210291009AC0
:101DE0000821019B4A401A430AD16146014301D1AF
:101DF000610705D530216A46117301217F1E0291CA
:101E00001199582904D035A10E910DA90D910DE01D
:101E100037A1F9E76146019B009AFFF7D9FA0E9BBB
:101E20008C469B5C0D9A521E0D92137061460143C5
:101E3000F0D10D9805A9081A20300190600703D54C
:101E400001200004844300E001270198874201DD5E
:101E5000381A00E0002001990090411802980918F2
:101E60000498401A0490E00306D421461A9B199A5C
:101E7000049800F0B3F94519002706E003A81A9A60
:101E8000C05D199990476D1C7F1C02988742F5DB55
:101E9000E0030CD521461A9B199A049800F09EF98C
:101EA000451904E01A9A3020199990476D1C009941
:101EB000481E00900029F5DC08E00D980D99007887
:101EC000491C0D911A9A199990476D1C0199481E49
:101ED00001900029F1DC63E109280100303132333F
:101EE0003435363738396162636465660000000056
:101EF0003031323334353637383941424344454640
:101F00000000000000F05AF94519761C30780028CE
:101F100000D0E2E528461BB0F0BD600700D40627DC
:101F20001898C01DC108C90048680A680831C30F65
:101F3000DB071891190001D09CA108E0210501D50B
:101F40009BA104E0E10701D09AA100E09AA143001F
:101F500011985B08109165280CD006DC452809D043
:101F600046281DD0472841D141E0662818D067286F
:101F70003CD13CE00021112F01DB112000E0781C56
:101F80000191009008A911A8FFF7F6FC139905919B
:101F90000021119A15927F1C12980197009150E030
:101FA0000120C00703900120019008A9009711A803
:101FB000FFF7E2FC139A149905920022119B0092FC
:101FC00012981593059A0192002901D0104602E05B
:101FD000791C40180190381A01D5019804E040425C
:101FE000401E0090781C0190C01B029043E0012F1E
:101FF00000DA01270021112F01DD112000E0384611
:102000000191009008A911A8FFF7B6FC139905915A
:10201000119A0021129815920091019721070CD472
:102020000599B94201DB019900E00191012904DD24
:10203000159A491E515C302906D0B84201DA011DBB
:1020400005DA0121029115E00199491EEDE700280A
:1020500005DC0099411800910199091A03E0019AE1
:10206000411C914200DD01910099401A401C0290F0
:102070000120C0070390200706D4029901988142ED
:1020800002DB0020C043029000206946C87707AFFA
:10209000012103980337C907884224D002201190F8
:1020A0002B201290039800280CDA404203902D2038
:1020B000129007E00A210398FFF774F930317F1E70
:1020C000039039701199481E11900029F2DC039891
:1020D0000028EFD1791E129808703078202108402E
:1020E0004530BF1E387006A8C01BC01D0390109855
:1020F0000078002800D00120019941180298C017EB
:102100000918039809180498401A401E0490E00327
:1021100006D421461A9B199A049800F05FF84519D5
:1021200010980078002803D01A9A199990476D1CCE
:10213000E00324D521461A9B199A049800F04EF822
:1021400045191CE00098002807DB00990598884293
:1021500003DD1598405C199901E0199930201A9A0D
:10216000904700986D1C401C00900298401E029001
:10217000002804D11A9A2E20199990476D1C0199B4
:10218000481E01900029DDDC05E038781A9A7F1C92
:10219000199990476D1C0399481E03900029F4DC9F
:1021A00021461A9B199A0498ACE600002D00000005
:1021B0002B0000002000000000000000F8B50446DD
:1021C00000251E461746880404D405E03946202021
:1021D000B0476D1C641EF9D52846F8BDFFB504460E
:1021E000002581B01E46C80301D5302700E0202716
:1021F000880404D505E038460399B0476D1C641E79
:10220000F9D5284605B0F0BD0A68531C0B60107064
:1022100070470020202020FF000000FF4020100811
:1022200000002060201010FF0000003F40404040B0
:102230007800B1B100040404E424242526242424D5
:10224000E4040404000040201B0242827E020202D9
:102250000B10600000BEA9000000FC242424E4044C
:102260001F6484453684000044437848497A494CC9
:102270004A7948497A474000CAA2001060028C009F
:10228000FE02F2525A565252F2020004047E4130CB
:102290000F201349817F0109132000D4B40040406E
:1022A00042CC00101010907F9010101010000040D1
:1022B000201F2048444241404041424C4000B4EF7E
:1022C000002424A4FEA3220022CC0000FF00000072
:1022D00000080601FF00010404040404FF020202D6
:1022E00000BFC600101010FF109008888888FF8873
:1022F000888808000444827F01808040432C102895
:1023000046818000BCBC0004040484E43C272424EF
:102310002424E40404040004020100FF090909095B
:1023200049897F00000000D3D00000FE225A8600B9
:10233000FE9292929292FE00000000FF04080700B5
:10234000FF4020030C1422414000CFDE00008040FB
:10235000201806800007182040800000000100209F
:1023600070282621202024386000010100B9AB002C
:10237000001012929292929292121202FE000000AB
:102380000000003F101010103F0040807F00000050
:10239000CBBE000000000000000000002F00000085
:1023A000000700070000147F147F1400242A7F2AEE
:1023B00012006264081323003649552250000005BC
:1023C00003000000001C224100000041221C00000C
:1023D00014083E08140008083E0808000000A06029
:1023E00000000808080808000060600000002010D5
:1023F000080402003E5149453E0000427F40000073
:102400004261514946002141454B31001814127F69
:1024100010002745454539003C4A494930000171C3
:1024200009050300364949493600064949291E0075
:102430000036360000000056360000000814224125
:1024400000001414141414000041221408000201A6
:1024500051090600324959513E007C1211127C008C
:102460007F49494936003E41414122007F41412296
:102470001C007F49494941007F09090901003E418B
:1024800049497A007F0808087F0000417F41000029
:102490002040413F01007F08142241007F4040401E
:1024A00040007F020C027F007F0408107F003E4145
:1024B00041413E007F09090906003E4151215E006D
:1024C0007F091929460046494949310001017F0128
:1024D00001003F4040403F001F2040201F003F4080
:1024E00038403F00631408146300070870080700B1
:1024F000615149454300007F41410000552A552A5A
:1025000055000041417F00000402010204004040E8
:102510004040400000010204000020545454780060
:102520007F484444380038444444200038444448F8
:102530007F00385454541800087E0901020018A482
:10254000A4A47C007F080404780000447D400000BF
:102550004080847D00007F102844000000417F40BF
:1025600000007C04180478007C08040478003844D7
:1025700044443800FC242424180018242418FC00A7
:102580007C0804040800485454542000043F44408C
:1025900020003C4040207C001C2040201C003C408F
:1025A00030403C004428102844001CA0A0A07C001F
:1025B0004464544C44141414141414000000000017
:1025C0000000000000000000000000000000F80013
:1025D000000000000000333000000000100C061066
:1025E0000C0600000000000000000040C07840C061
:1025F000784000043F04043F040400007088FC0895
:10260000300000001820FF211E0000F008F000E05C
:1026100018000000211C031E211E0000F008887015
:102620000000001E2123241927211010160E00007F
:102630000000000000000000000000000000E018A2
:10264000040200000000071820400000020418E007
:102650000000000040201807000000404080F0808B
:102660004040000202010F01020200000000F000E1
:102670000000000101011F01010100000000000035
:1026800000000080B07000000000000000000000AA
:102690000000000001010101010101000000000033
:1026A000000000003030000000000000000000804A
:1026B000601804006018060100000000E01008081F
:1026C00010E000000F102020100F00001010F80084
:1026D0000000000020203F202000000070080808B3
:1026E00088700000302824222130000030088888BB
:1026F0004830000018202020110E000000C02010DB
:10270000F8000000070424243F240000F80888880B
:102710000808000019212020110E0000E010888810
:10272000180000000F112020110E0000380808C802
:102730003808000000003F00000000007088080812
:10274000887000001C222121221C0000E0100808D3
:1027500010E0000000312222110F00000000C0C074
:102760000000000000003030000000000000800089
:102770000000000000806000000000000080402099
:1027800010080000010204081020004040404040B2
:102790004040000404040404040400000810204025
:1027A00080000000201008040201000070480808A2
:1027B00008F0000000003036010000C030C828E8F2
:1027C00010E0000718272423140B000000C038E095
:1027D000000000203C23020227382008F88888885F
:1027E000700000203F202020110E00C03008080893
:1027F000083800071820202010080008F8080808EA
:1028000010E000203F202020100F0008F88888E802
:10281000081000203F20202320180008F88888E8AE
:10282000081000203F200003000000C03008080806
:1028300038000007182020221E020008F8080000B7
:1028400008F808203F210101213F20000808F8086E
:102850000800000020203F2020000000000808F8A9
:10286000080800C08080807F00000008F888C02829
:10287000180800203F20012638200008F808000032
:10288000000000203F20202020300008F8F800F849
:10289000F80800203F003F003F200008F830C0004B
:1028A00008F808203F200007183F00E0100808083B
:1028B00010E0000F10202020100F0008F808080872
:1028C00008F000203F210101010000E01008080885
:1028D00010E0000F18242438504F0008F88888882A
:1028E000887000203F2000030C302000708808080A
:1028F0000838000038202121221C00180808F80898
:102900000818000000203F2000000008F808000020
:1029100008F808001F202020201F000878880000E9
:10292000C83808000007380E010000F80800F80059
:1029300008F800033C0700073C0300081868808083
:1029400068180820302C03032C30200838C800C831
:102950003808000000203F2000000010080808C8C8
:102960003808002038262120201800000000FE0230
:102970000202000000007F40404000000C30C00018
:10298000000000000000010638C00000020202FE44
:10299000000000004040407F0000000000040202F0
:1029A0000204000000000000000000000000000021
:1029B000000000808080808080808000020204000F
:1029C0000000000000000000000000000080808087
:1029D0008000000019242222223F2008F800808075
:1029E000000000003F112020110E00000000808038
:1029F000800000000E1120202011000000008080C7
:102A000088F800000E112020103F200000808080F8
:102A1000800000001F222222221300008080F08804
:102A20008888180020203F2020000000008080803F
:102A3000808000006B94949493600008F80080807C
:102A4000800000203F210000203F20008098980057
:102A50000000000020203F2020000000000080989F
:102A600098000000C08080807F000008F80000808F
:102A7000808000203F24022D302000000808F8004C
:102A80000000000020203F20200000808080808007
:102A9000808000203F20003F20003F808000808019
:102AA000800000203F210000203F20000080808027
:102AB000800000001F202020201F008080008080D8
:102AC00000000080FFA12020110E00000000808087
:102AD000808000000E112020A0FF80808080008078
:102AE00080800020203F21200001000000808080A5
:102AF0008080000033242424241900008080E0809A
:102B00008000000000001F202000008080000000E6
:102B1000808000001F202020103F20808080000047
:102B200080808000010E3008060100808000800057
:102B30008080800F300C030C300F000080800080FC
:102B40008080000020312E0E312000808080000027
:102B500080808080818E70180601000080808080D7
:102B60008080000021302C222130000000000080F5
:102B70007C020200000000003F404000000000FF17
:102B800000000000000000FF0000000002027C8046
:102B90000000000040403F0000000000060101026C
:102BA000020404000000000000000000CC2B001014
:102BB00000000020380000005A190010042C0010FA
:102BC00038000020201500006A1900100000005095
:102BD0008000005000000000601000508C10005079
:102BE00070B0025078B0025070B0025078B002500D
:102BF00040B0025054B0025000000000000000003D
:042C000040787D019A
:04000005100000C126
:00000001FF
