Component: ARM Compiler 5.06 update 6 (build 750) Tool: armlink [4d35ed]

==============================================================================

Section Cross References

    main.o(.text) refers to main.o(.text) for gap_s_adv_parameters_set
    main.o(.text) refers to ota.o(.text) for ota_rsp
    main.o(.text) refers to queue.o(.text) for enqueue_all
    main.o(.text) refers to uread4.o(.text) for __aeabi_uread4
    main.o(.text) refers to rt_memcpy.o(.text) for __aeabi_memcpy
    main.o(.text) refers to main.o(.data) for dev_addr
    main.o(.text) refers to uart.o(.bss) for rx_queue
    main.o(.text) refers to ota.o(.data) for ota_state
    main.o(.text) refers to main.o(i.__ARM_common_switch8) for __ARM_common_switch8
    main.o(.text) refers to uwrite4.o(.text) for __aeabi_uwrite4
    main.o(.text) refers to aeabi_sdiv.o(.text) for __aeabi_idivmod
    main.o(.text) refers to uart.o(.text) for uart_write
    main.o(.text) refers to timer.o(.text) for timer_disable
    main.o(.text) refers to pad_mux_ctrl.o(.text) for pad_mux_write
    main.o(.text) refers to gpio.o(.text) for gpi_config
    main.o(.text) refers to main.o(.constdata) for _gatt_database_report_handle
    main.o(.text) refers to main.o(.bss) for uart_data_temp
    main.o(.text) refers to uart.o(.data) for UART_CTRL
==============================================================================

Removing Unused input sections from the image.

    Removing main.o(.rev16_text), (4 bytes).
    Removing main.o(.revsh_text), (4 bytes).
    Removing gpio.o(.rev16_text), (4 bytes).
    Removing gpio.o(.revsh_text), (4 bytes).
    Removing delay.o(.rev16_text), (4 bytes).
    Removing delay.o(.revsh_text), (4 bytes).
    Removing delay.o(.text), (56 bytes).
    Removing pad_mux_ctrl.o(.rev16_text), (4 bytes).
    Removing pad_mux_ctrl.o(.revsh_text), (4 bytes).
    Removing uart.o(.rev16_text), (4 bytes).
    Removing uart.o(.revsh_text), (4 bytes).
    Removing debug.o(.rev16_text), (4 bytes).
    Removing debug.o(.revsh_text), (4 bytes).
    Removing queue.o(.rev16_text), (4 bytes).
    Removing queue.o(.revsh_text), (4 bytes).
    Removing timer.o(.rev16_text), (4 bytes).
    Removing timer.o(.revsh_text), (4 bytes).
    Removing ota.o(.rev16_text), (4 bytes).
==============================================================================

Image Symbol Table

    Local Symbols

    Symbol Name                              Value     Ov Type        Size  Object(Section)

    ../clib/angel/boardlib.s                 0x00000000   Number         0  boardshut.o ABSOLUTE
    ../clib/angel/boardlib.s                 0x00000000   Number         0  boardinit3.o ABSOLUTE
    ../clib/angel/boardlib.s                 0x00000000   Number         0  boardinit2.o ABSOLUTE
    ../clib/angel/boardlib.s                 0x00000000   Number         0  boardinit1.o ABSOLUTE
    ../clib/angel/handlers.s                 0x00000000   Number         0  __scatter_copy.o ABSOLUTE
    ../clib/angel/handlers.s                 0x00000000   Number         0  __scatter_zi.o ABSOLUTE
    ../clib/angel/kernel.s                   0x00000000   Number         0  rtexit2.o ABSOLUTE
    ../clib/angel/kernel.s                   0x00000000   Number         0  __rtentry4.o ABSOLUTE
    ../clib/angel/kernel.s                   0x00000000   Number         0  __rtentry2.o ABSOLUTE
    ../clib/angel/kernel.s                   0x00000000   Number         0  rtexit.o ABSOLUTE
    ../clib/angel/kernel.s                   0x00000000   Number         0  __rtentry.o ABSOLUTE
    ../clib/angel/rt.s                       0x00000000   Number         0  rt_raise.o ABSOLUTE
    ../clib/angel/rt.s                       0x00000000   Number         0  rt_div0.o ABSOLUTE
    ../clib/angel/rt.s                       0x00000000   Number         0  aeabi_idiv0_sigfpe.o ABSOLUTE
    ../clib/angel/rt.s                       0x00000000   Number         0  aeabi_idiv0.o ABSOLUTE
    ../clib/angel/scatterp.s                 0x00000000   Number         0  __scatter.o ABSOLUTE
    ../clib/angel/startup.s                  0x00000000   Number         0  __main.o ABSOLUTE
    ../clib/angel/sys.s                      0x00000000   Number         0  libspace.o ABSOLUTE
    ../clib/angel/sys.s                      0x00000000   Number         0  sys_stackheap_outer.o ABSOLUTE
    ../clib/angel/sys.s                      0x00000000   Number         0  tempstk.o ABSOLUTE
    ../clib/angel/sys.s                      0x00000000   Number         0  use_no_semi.o ABSOLUTE
    ../clib/angel/sys.s                      0x00000000   Number         0  indicate_semi.o ABSOLUTE
    ../clib/angel/sysapp.c                   0x00000000   Number         0  sys_exit.o ABSOLUTE
    ../clib/angel/sysapp.c                   0x00000000   Number         0  sys_wrch.o ABSOLUTE
    ../clib/angel/sysapp.c                   0x00000000   Number         0  sys_command.o ABSOLUTE
    ../clib/armsys.c                         0x00000000   Number         0  argv_veneer.o ABSOLUTE
    ../clib/armsys.c                         0x00000000   Number         0  _get_argv_nomalloc.o ABSOLUTE
    ../clib/armsys.c                         0x00000000   Number         0  no_argv.o ABSOLUTE
    ../clib/division.s                       0x00000000   Number         0  aeabi_sdiv.o ABSOLUTE
    ../clib/division.s                       0x00000000   Number         0  aeabi_sdiv_div0.o ABSOLUTE
    ../clib/heapalloc.c                      0x00000000   Number         0  hrguard.o ABSOLUTE
    ../clib/heapaux.c                        0x00000000   Number         0  heapauxi.o ABSOLUTE
    ../clib/libinit.s                        0x00000000   Number         0  libshutdown2.o ABSOLUTE
    ../clib/libinit.s                        0x00000000   Number         0  libinit2.o ABSOLUTE
    ../clib/libinit.s                        0x00000000   Number         0  libinit.o ABSOLUTE
    ../clib/libinit.s                        0x00000000   Number         0  libshutdown.o ABSOLUTE
    ../clib/memcpset.c                       0x00000000   Number         0  rt_memcpy.o ABSOLUTE
    ../clib/memcpset.c                       0x00000000   Number         0  rt_memcpy.o ABSOLUTE
    ../clib/memcpset.c                       0x00000000   Number         0  rt_memclr.o ABSOLUTE
    ../clib/signal.c                         0x00000000   Number         0  defsig_fpe_formal.o ABSOLUTE
    ../clib/signal.c                         0x00000000   Number         0  defsig_fpe_outer.o ABSOLUTE
    ../clib/signal.c                         0x00000000   Number         0  defsig_fpe_inner.o ABSOLUTE
    ../clib/signal.c                         0x00000000   Number         0  defsig_exit.o ABSOLUTE
    ../clib/signal.c                         0x00000000   Number         0  defsig_rtmem_outer.o ABSOLUTE
    ../clib/signal.c                         0x00000000   Number         0  defsig_other.o ABSOLUTE
    ../clib/signal.c                         0x00000000   Number         0  defsig_segv_inner.o ABSOLUTE
    ../clib/signal.c                         0x00000000   Number         0  defsig_cppl_inner.o ABSOLUTE
    ../clib/signal.c                         0x00000000   Number         0  defsig_pvfn_inner.o ABSOLUTE
    ../clib/signal.c                         0x00000000   Number         0  defsig_stak_inner.o ABSOLUTE
    ../clib/signal.c                         0x00000000   Number         0  defsig_rtmem_formal.o ABSOLUTE
    ../clib/signal.c                         0x00000000   Number         0  defsig_rtmem_inner.o ABSOLUTE
    ../clib/signal.c                         0x00000000   Number         0  defsig_rtred_inner.o ABSOLUTE
    ../clib/signal.c                         0x00000000   Number         0  defsig_abrt_inner.o ABSOLUTE
    ../clib/signal.c                         0x00000000   Number         0  defsig_general.o ABSOLUTE
    ../clib/signal.c                         0x00000000   Number         0  __raise.o ABSOLUTE
    ../clib/signal.s                         0x00000000   Number         0  defsig.o ABSOLUTE
    ../clib/stdlib.c                         0x00000000   Number         0  exit.o ABSOLUTE
    ../clib/string.c                         0x00000000   Number         0  memcmp.o ABSOLUTE
    ../clib/unhosted.c                       0x00000000   Number         0  uwrite4.o ABSOLUTE
    ../clib/unhosted.c                       0x00000000   Number         0  uread4.o ABSOLUTE
    ../fplib/cfplib/daddsub.c                0x00000000   Number         0  daddsub.o ABSOLUTE
    ../fplib/cfplib/ddiv.c                   0x00000000   Number         0  ddiv.o ABSOLUTE
    ../fplib/cfplib/dmul.c                   0x00000000   Number         0  dmul.o ABSOLUTE
    ../fplib/cfplib/f2d.c                    0x00000000   Number         0  f2d.o ABSOLUTE
    ../fplib/cfplib/ffix.c                   0x00000000   Number         0  dfixui.o ABSOLUTE
    ../fplib/cfplib/fflt.c                   0x00000000   Number         0  fflti.o ABSOLUTE
    ../fplib/cfplib/fflt.c                   0x00000000   Number         0  dflti.o ABSOLUTE
    ../fplib/cfplib/fpinit.c                 0x00000000   Number         0  fpinit.o ABSOLUTE
    ../fplib/faddsub6m.s                     0x00000000   Number         0  faddsub.o ABSOLUTE
    ../fplib/usenofp.s                       0x00000000   Number         0  usenofp.o ABSOLUTE
    ..\..\..\BLE\ota.c                       0x00000000   Number         0  ota.o ABSOLUTE
    ..\..\..\Rtt\SEGGER_RTT.c                0x00000000   Number         0  segger_rtt.o ABSOLUTE
    ..\..\..\Rtt\SEGGER_RTT_Syscalls_KEIL.c  0x00000000   Number         0  segger_rtt_syscalls_keil.o ABSOLUTE
    ..\..\..\Rtt\SEGGER_RTT_printf.c         0x00000000   Number         0  segger_rtt_printf.o ABSOLUTE
    ..\..\..\Source\debug.c                  0x00000000   Number         0  debug.o ABSOLUTE
    ..\..\..\Source\delay.c                  0x00000000   Number         0  delay.o ABSOLUTE
    ..\..\..\Source\gpio.c                   0x00000000   Number         0  gpio.o ABSOLUTE
    ..\..\..\Source\pad_mux_ctrl.c           0x00000000   Number         0  pad_mux_ctrl.o ABSOLUTE
    ..\..\..\Source\queue.c                  0x00000000   Number         0  queue.o ABSOLUTE
    ..\..\..\Source\timer.c                  0x00000000   Number         0  timer.o ABSOLUTE
    ..\..\..\Source\uart.c                   0x00000000   Number         0  uart.o ABSOLUTE
    ..\\..\\..\\BLE\\ota.c                   0x00000000   Number         0  ota.o ABSOLUTE
    ..\\..\\..\\Rtt\\SEGGER_RTT.c            0x00000000   Number         0  segger_rtt.o ABSOLUTE
    ..\\..\\..\\Rtt\\SEGGER_RTT_Syscalls_KEIL.c 0x00000000   Number         0  segger_rtt_syscalls_keil.o ABSOLUTE
    ..\\..\\..\\Rtt\\SEGGER_RTT_printf.c     0x00000000   Number         0  segger_rtt_printf.o ABSOLUTE
    ..\\..\\..\\Source\\debug.c              0x00000000   Number         0  debug.o ABSOLUTE
    ..\\..\\..\\Source\\delay.c              0x00000000   Number         0  delay.o ABSOLUTE
    ..\\..\\..\\Source\\gpio.c               0x00000000   Number         0  gpio.o ABSOLUTE
    ..\\..\\..\\Source\\pad_mux_ctrl.c       0x00000000   Number         0  pad_mux_ctrl.o ABSOLUTE
    ..\\..\\..\\Source\\queue.c              0x00000000   Number         0  queue.o ABSOLUTE
    ..\\..\\..\\Source\\timer.c              0x00000000   Number         0  timer.o ABSOLUTE
    ..\\..\\..\\Source\\uart.c               0x00000000   Number         0  uart.o ABSOLUTE
    ..\\main.c                               0x00000000   Number         0  main.o ABSOLUTE
    ..\main.c                                0x00000000   Number         0  main.o ABSOLUTE
    Driver\\aec-ccm.c                        0x00000000   Number         0  aec-ccm.o ABSOLUTE
    Driver\aec-ccm.c                         0x00000000   Number         0  aec-ccm.o ABSOLUTE
    Driver\aes.c                             0x00000000   Number         0  aes.o ABSOLUTE
    Main\\main.c                             0x00000000   Number         0  main.o ABSOLUTE
    Main\\pmu.c                              0x00000000   Number         0  pmu.o ABSOLUTE
    Main\\rom.c                              0x00000000   Number         0  rom.o ABSOLUTE
    Main\main.c                              0x00000000   Number         0  main.o ABSOLUTE
    Main\pmu.c                               0x00000000   Number         0  pmu.o ABSOLUTE
    Main\rom.c                               0x00000000   Number         0  rom.o ABSOLUTE
    RTE\Device\ARMCM0\startup_ARMCM0.s       0x00000000   Number         0  startup_armcm0.o ABSOLUTE
    RTE\Device\ARMCM0\system_ARMCM0.c        0x00000000   Number         0  system_armcm0.o ABSOLUTE
    RTE\\Device\\ARMCM0\\system_ARMCM0.c     0x00000000   Number         0  system_armcm0.o ABSOLUTE
    dc.s                                     0x00000000   Number         0  dc.o ABSOLUTE
    RESET                                    0x10000000   Section      192  startup_armcm0.o(RESET)
    !!!main                                  0x100000c0   Section        8  __main.o(!!!main)
    !!!scatter                               0x100000c8   Section       60  __scatter.o(!!!scatter)
    !!handler_copy                           0x10000104   Section       26  __scatter_copy.o(!!handler_copy)
    !!handler_zi                             0x10000120   Section       28  __scatter_zi.o(!!handler_zi)
    .ARM.Collect$$libinit$$00000000          0x1000013c   Section        2  libinit.o(.ARM.Collect$$libinit$$00000000)
    .ARM.Collect$$libinit$$00000002          0x1000013e   Section        0  libinit2.o(.ARM.Collect$$libinit$$00000002)
    .ARM.Collect$$libinit$$00000004          0x1000013e   Section        0  libinit2.o(.ARM.Collect$$libinit$$00000004)
    .ARM.Collect$$libinit$$0000000A          0x1000013e   Section        0  libinit2.o(.ARM.Collect$$libinit$$0000000A)
    .ARM.Collect$$libinit$$0000000C          0x1000013e   Section        0  libinit2.o(.ARM.Collect$$libinit$$0000000C)
    .ARM.Collect$$libinit$$0000000E          0x1000013e   Section        0  libinit2.o(.ARM.Collect$$libinit$$0000000E)
    .ARM.Collect$$libinit$$00000011          0x1000013e   Section        0  libinit2.o(.ARM.Collect$$libinit$$00000011)
    .ARM.Collect$$libinit$$00000013          0x1000013e   Section        0  libinit2.o(.ARM.Collect$$libinit$$00000013)
    .ARM.Collect$$libinit$$00000015          0x1000013e   Section        0  libinit2.o(.ARM.Collect$$libinit$$00000015)
    .ARM.Collect$$libinit$$00000017          0x1000013e   Section        0  libinit2.o(.ARM.Collect$$libinit$$00000017)
    .ARM.Collect$$libinit$$00000019          0x1000013e   Section        0  libinit2.o(.ARM.Collect$$libinit$$00000019)
    .ARM.Collect$$libinit$$0000001B          0x1000013e   Section        0  libinit2.o(.ARM.Collect$$libinit$$0000001B)
    .ARM.Collect$$libinit$$0000001D          0x1000013e   Section        0  libinit2.o(.ARM.Collect$$libinit$$0000001D)
    .ARM.Collect$$libinit$$0000001F          0x1000013e   Section        0  libinit2.o(.ARM.Collect$$libinit$$0000001F)
    .ARM.Collect$$libinit$$00000021          0x1000013e   Section        0  libinit2.o(.ARM.Collect$$libinit$$00000021)
    .ARM.Collect$$libinit$$00000023          0x1000013e   Section        0  libinit2.o(.ARM.Collect$$libinit$$00000023)
    .ARM.Collect$$libinit$$00000025          0x1000013e   Section        0  libinit2.o(.ARM.Collect$$libinit$$00000025)
    .ARM.Collect$$libinit$$0000002C          0x1000013e   Section        0  libinit2.o(.ARM.Collect$$libinit$$0000002C)
    .ARM.Collect$$libinit$$0000002E          0x1000013e   Section        0  libinit2.o(.ARM.Collect$$libinit$$0000002E)
    .ARM.Collect$$libinit$$00000030          0x1000013e   Section        0  libinit2.o(.ARM.Collect$$libinit$$00000030)
    .ARM.Collect$$libinit$$00000032          0x1000013e   Section        0  libinit2.o(.ARM.Collect$$libinit$$00000032)
    .ARM.Collect$$libinit$$00000033          0x1000013e   Section        2  libinit2.o(.ARM.Collect$$libinit$$00000033)
    .ARM.Collect$$libshutdown$$00000000      0x10000140   Section        2  libshutdown.o(.ARM.Collect$$libshutdown$$00000000)
    .ARM.Collect$$libshutdown$$00000002      0x10000142   Section        0  libshutdown2.o(.ARM.Collect$$libshutdown$$00000002)
    .ARM.Collect$$libshutdown$$00000004      0x10000142   Section        0  libshutdown2.o(.ARM.Collect$$libshutdown$$00000004)
    .ARM.Collect$$libshutdown$$00000007      0x10000142   Section        0  libshutdown2.o(.ARM.Collect$$libshutdown$$00000007)
    .ARM.Collect$$libshutdown$$0000000A      0x10000142   Section        0  libshutdown2.o(.ARM.Collect$$libshutdown$$0000000A)
    .ARM.Collect$$libshutdown$$0000000C      0x10000142   Section        0  libshutdown2.o(.ARM.Collect$$libshutdown$$0000000C)
    .ARM.Collect$$libshutdown$$0000000F      0x10000142   Section        0  libshutdown2.o(.ARM.Collect$$libshutdown$$0000000F)
    .ARM.Collect$$libshutdown$$00000010      0x10000142   Section        2  libshutdown2.o(.ARM.Collect$$libshutdown$$00000010)
    .ARM.Collect$$rtentry$$00000000          0x10000144   Section        0  __rtentry.o(.ARM.Collect$$rtentry$$00000000)
    .ARM.Collect$$rtentry$$00000002          0x10000144   Section        0  __rtentry2.o(.ARM.Collect$$rtentry$$00000002)
    .ARM.Collect$$rtentry$$00000004          0x10000144   Section        6  __rtentry4.o(.ARM.Collect$$rtentry$$00000004)
    .ARM.Collect$$rtentry$$00000009          0x1000014a   Section        0  __rtentry2.o(.ARM.Collect$$rtentry$$00000009)
    .ARM.Collect$$rtentry$$0000000A          0x1000014a   Section        4  __rtentry2.o(.ARM.Collect$$rtentry$$0000000A)
    .ARM.Collect$$rtentry$$0000000C          0x1000014e   Section        0  __rtentry2.o(.ARM.Collect$$rtentry$$0000000C)
    .ARM.Collect$$rtentry$$0000000D          0x1000014e   Section        8  __rtentry2.o(.ARM.Collect$$rtentry$$0000000D)
    .ARM.Collect$$rtexit$$00000000           0x10000156   Section        2  rtexit.o(.ARM.Collect$$rtexit$$00000000)
    .ARM.Collect$$rtexit$$00000002           0x10000158   Section        0  rtexit2.o(.ARM.Collect$$rtexit$$00000002)
    .ARM.Collect$$rtexit$$00000003           0x10000158   Section        4  rtexit2.o(.ARM.Collect$$rtexit$$00000003)
    .ARM.Collect$$rtexit$$00000004           0x1000015c   Section        6  rtexit2.o(.ARM.Collect$$rtexit$$00000004)
    .emb_text                                0x10000164   Section        6  rom.o(.emb_text)
    .emb_text                                0x1000016c   Section       56  rt_memcpy.o(.emb_text)
    .text                                    0x100001a4   Section        0  main.o(.text)
    setup_adv_data                           0x100001a5   Thumb Code    96  main.o(.text)
    ble_gatt_read                            0x100002c7   Thumb Code   354  main.o(.text)
    ble_gatt_write                           0x10000429   Thumb Code    64  main.o(.text)
    ble_init                                 0x1000069d   Thumb Code   248  main.o(.text)
    __NVIC_EnableIRQ                         0x10000b49   Thumb Code    26  main.o(.text)
    .text                                    0x10000b80   Section        0  gpio.o(.text)
    .text                                    0x10000ee8   Section        0  pad_mux_ctrl.o(.text)
    .text                                    0x10000f78   Section        0  uart.o(.text)
    __NVIC_DisableIRQ                        0x10000f79   Thumb Code    50  uart.o(.text)
    __NVIC_EnableIRQ                         0x100011c5   Thumb Code    28  uart.o(.text)
    .text                                    0x100011f8   Section        0  queue.o(.text)
    .text                                    0x100012dc   Section        0  timer.o(.text)
    .text                                    0x100014a0   Section        0  ota.o(.text)
    EvtCommandComplete                       0x100014a1   Thumb Code    46  ota.o(.text)
    CmdFwErase                               0x100014cf   Thumb Code    32  ota.o(.text)
    CmdFwWrite                               0x100014ef   Thumb Code   118  ota.o(.text)
    CmdFwUpgrade                             0x10001565   Thumb Code    84  ota.o(.text)
    .text                                    0x10001648   Section       56  startup_armcm0.o(.text)
    .text                                    0x10001680   Section        0  system_armcm0.o(.text)
    .text                                    0x10001698   Section        0  main.o(.text)
    update_profile_data                      0x10001e05   Thumb Code    84  main.o(.text)
    .text                                    0x10002e00   Section        0  rom.o(.text)
    AttReadByGroupTypeRsp                    0x100035a3   Thumb Code   326  rom.o(.text)
    AttReadByTypeServiceRsp                  0x100036e9   Thumb Code   234  rom.o(.text)
    AttReadByTypeChartRsp                    0x100037d3   Thumb Code   286  rom.o(.text)
    AttReadByTypeValRsp                      0x100038f1   Thumb Code   462  rom.o(.text)
    AttReadByTypeReq                         0x10003abf   Thumb Code   122  rom.o(.text)
    FW_Encrypt_Packet                        0x10003b39   Thumb Code   314  rom.o(.text)
    Get_OVER_SLPTH                           0x10003c73   Thumb Code    42  rom.o(.text)
    LLENCReq                                 0x10003fb7   Thumb Code   526  rom.o(.text)
    LLTxStartENCRsp                          0x100041c5   Thumb Code   500  rom.o(.text)
    _LCRxPkt_Handler                         0x10004a5d   Thumb Code   560  rom.o(.text)
    _BBRXFIFO_Coex_Read                      0x1000513b   Thumb Code    92  rom.o(.text)
    _LCConnEvt_Handler                       0x10005197   Thumb Code    68  rom.o(.text)
    LinkWakeup                               0x100051db   Thumb Code   100  rom.o(.text)
    .text                                    0x1000525c   Section        0  pmu.o(.text)
    .text                                    0x10005408   Section        0  aec-ccm.o(.text)
    ctr_next_ctr_block                       0x10005409   Thumb Code    66  aec-ccm.o(.text)
    cbcmac_calc                              0x1000544b   Thumb Code   318  aec-ccm.o(.text)
    cbcmac_verify                            0x10005589   Thumb Code   344  aec-ccm.o(.text)
    ctr_payload                              0x100056e1   Thumb Code   112  aec-ccm.o(.text)
    ctr_mic                                  0x10005751   Thumb Code    86  aec-ccm.o(.text)
    cbcmac_clear                             0x1000594f   Thumb Code    12  aec-ccm.o(.text)
    cbcmac_append                            0x1000595b   Thumb Code    42  aec-ccm.o(.text)
    .text                                    0x10005988   Section        0  aes.o(.text)
    expandKey                                0x10005989   Thumb Code   186  aes.o(.text)
    aes_encr                                 0x10005a43   Thumb Code   912  aes.o(.text)
    aes_decr                                 0x10005dd3   Thumb Code  1124  aes.o(.text)
    galois_mul2                              0x10006269   Thumb Code    20  aes.o(.text)
    .text                                    0x1000627c   Section        0  memcmp.o(.text)
    .text                                    0x100062d6   Section        0  rt_memcpy.o(.text)
    .text                                    0x10006358   Section        0  rt_memclr.o(.text)
    .text                                    0x10006398   Section        0  uread4.o(.text)
    .text                                    0x100063ba   Section        0  uwrite4.o(.text)
    .text                                    0x100063ca   Section      346  aeabi_sdiv.o(.text)
    .text                                    0x10006524   Section        0  heapauxi.o(.text)
    .text                                    0x1000652c   Section        0  daddsub.o(.text)
    _dadd1                                   0x1000652d   Thumb Code   290  daddsub.o(.text)
    _dsub1                                   0x1000664f   Thumb Code   470  daddsub.o(.text)
    .text                                    0x10006884   Section        0  ddiv.o(.text)
    .text                                    0x10006ccc   Section        0  dfixui.o(.text)
    .text                                    0x10006d14   Section        0  dflti.o(.text)
    .text                                    0x10006d6c   Section        0  dmul.o(.text)
    .text                                    0x10006fb4   Section        0  f2d.o(.text)
    .text                                    0x10007008   Section        0  fflti.o(.text)
    .text                                    0x10007066   Section       62  sys_stackheap_outer.o(.text)
    .text                                    0x100070a4   Section        0  exit.o(.text)
    .text                                    0x100070b4   Section        8  libspace.o(.text)
    .text                                    0x100070bc   Section        0  sys_exit.o(.text)
    .text                                    0x100070c8   Section        2  use_no_semi.o(.text)
    .text                                    0x100070ca   Section        0  indicate_semi.o(.text)
    PMU                                      0x100070cc   Section        0  pmu.o(PMU)
    i.__ARM_common_switch8                   0x10007118   Section        0  main.o(i.__ARM_common_switch8)
    x$fpl$fadd                               0x10007134   Section      140  faddsub.o(x$fpl$fadd)
    _fadd1                                   0x10007141   Thumb Code     0  faddsub.o(x$fpl$fadd)
    x$fpl$fsub                               0x100071c0   Section      208  faddsub.o(x$fpl$fsub)
    _fsub1                                   0x100071cd   Thumb Code     0  faddsub.o(x$fpl$fsub)
    .constdata                               0x10007290   Section      654  main.o(.constdata)
    x$fpl$usenofp                            0x10007290   Section        0  usenofp.o(x$fpl$usenofp)
    _gatt_database_report_handle             0x10007290   Data          31  main.o(.constdata)
    _gatt_database_include                   0x100072af   Data          11  main.o(.constdata)
    _gatt_database_primary                   0x100072ba   Data          63  main.o(.constdata)
    _gatt_database_characteristic            0x100072f9   Data         190  main.o(.constdata)
    _gatt_database_value                     0x100073b7   Data         359  main.o(.constdata)
    .constdata                               0x1000751e   Section       50  rom.o(.constdata)
    _smp_key_                                0x1000751e   Data          25  rom.o(.constdata)
    _smp_sc_key_                             0x10007537   Data          25  rom.o(.constdata)
    .constdata                               0x10007550   Section       32  pmu.o(.constdata)
    delay_table                              0x10007550   Data          32  pmu.o(.constdata)
    .constdata                               0x10007570   Section      523  aes.o(.constdata)
    sbox                                     0x10007570   Data         256  aes.o(.constdata)
    rsbox                                    0x10007670   Data         256  aes.o(.constdata)
    Rcon                                     0x10007770   Data          11  aes.o(.constdata)
    .constdata                               0x1000777b   Section      128  ddiv.o(.constdata)
    ddiv_reciptbl                            0x1000777b   Data         128  ddiv.o(.constdata)
    .data                                    0x20000000   Section       63  main.o(.data)
    g_report                                 0x20000008   Data           4  main.o(.data)
    start_tx                                 0x2000000c   Data           1  main.o(.data)
    wechat_tx                                0x2000000d   Data           1  main.o(.data)
    dev_addr                                 0x20000038   Data           7  main.o(.data)
    .data                                    0x20000040   Section       12  gpio.o(.data)
    GPIO_CTRL                                0x20000040   Data           8  gpio.o(.data)
    gpio_callback                            0x20000048   Data           4  gpio.o(.data)
    .data                                    0x2000004c   Section        8  pad_mux_ctrl.o(.data)
    pad                                      0x2000004c   Data           8  pad_mux_ctrl.o(.data)
    .data                                    0x20000054   Section        8  uart.o(.data)
    .data                                    0x2000005c   Section       20  timer.o(.data)
    ctrl                                     0x2000005c   Data          20  timer.o(.data)
    .data                                    0x20000070   Section       12  ota.o(.data)
    EvtBuf                                   0x20000072   Data           4  ota.o(.data)
    .data                                    0x2000007c   Section        4  system_armcm0.o(.data)
    .data                                    0x20000080   Section       20  main.o(.data)
    syd_confirm                              0x20000080   Data           1  main.o(.data)
    sched_execute_mask                       0x20000081   Data           1  main.o(.data)
    profile_to_flash                         0x20000082   Data           1  main.o(.data)
    profile_update_offset                    0x20000084   Data           2  main.o(.data)
    PMU_CTRL                                 0x20000088   Data           4  main.o(.data)
    p_sched_callback                         0x2000008c   Data           4  main.o(.data)
    .data                                    0x20000094   Section      111  rom.o(.data)
    NumericYesOrNo                           0x20000094   Data           1  rom.o(.data)
    MCUFreq                                  0x20000095   Data           1  rom.o(.data)
    coex_evt_mask_sleep                      0x20000099   Data           1  rom.o(.data)
    passkey_cnt                              0x200000b0   Data           4  rom.o(.data)
    passkey_value                            0x200000b4   Data           4  rom.o(.data)
    save_device_to_flash                     0x200000b8   Data           4  rom.o(.data)
    ReadRsp                                  0x200000bc   Data           4  rom.o(.data)
    ReadRspLen                               0x200000c0   Data           4  rom.o(.data)
    ReadRspData                              0x200000c4   Data           4  rom.o(.data)
    IRQCallbackHook                          0x200000c8   Data           4  rom.o(.data)
    IRQCallbackSkip                          0x200000cc   Data           4  rom.o(.data)
    HCIDTM                                   0x200000d0   Data           4  rom.o(.data)
    ACLTx                                    0x200000d4   Data           4  rom.o(.data)
    ble_data                                 0x200000e4   Data           4  rom.o(.data)
    .data                                    0x20000104   Section        4  pmu.o(.data)
    lclink                                   0x20000104   Data           4  pmu.o(.data)
    .bss                                     0x20000108   Section       20  main.o(.bss)
    .bss                                     0x2000011c   Section     1056  uart.o(.bss)
    .bss                                     0x2000053c   Section       20  timer.o(.bss)
    cb                                       0x2000053c   Data          20  timer.o(.bss)
    .bss                                     0x20000550   Section       40  ota.o(.bss)
    .bss                                     0x20000578   Section     4173  main.o(.bss)
    confirmation_list                        0x20001578   Data          62  main.o(.bss)
    .bss                                     0x200015c8   Section     1055  rom.o(.bss)
    .bss                                     0x200019e7   Section       16  aec-ccm.o(.bss)
    cbcmac_xor                               0x200019e7   Data          16  aec-ccm.o(.bss)
    .bss                                     0x200019f8   Section       96  libspace.o(.bss)
    HEAP                                     0x20001a58   Section    16384  startup_armcm0.o(HEAP)
    Heap_Mem                                 0x20001a58   Data       16384  startup_armcm0.o(HEAP)
    STACK                                    0x20005a58   Section     4096  startup_armcm0.o(STACK)
    Stack_Mem                                0x20005a58   Data        4096  startup_armcm0.o(STACK)
    __initial_sp                             0x20006a58   Data           0  startup_armcm0.o(STACK)

    Global Symbols

    Symbol Name                              Value     Ov Type        Size  Object(Section)

    BuildAttributes$$THM_ISAv3M$S$PE$A:L22$X:L11$S22$IEEE1$IW$USESV6$~STKCKD$USESV7$~SHL$OSPACE$ROPI$EBA8$UX$STANDARDLIB$REQ8$EABIv2 0x00000000   Number         0  anon$$obj.o ABSOLUTE
    __ARM_use_no_argv                        0x00000000   Number         0  main.o ABSOLUTE
    __ARM_exceptions_init                     - Undefined Weak Reference
    __alloca_initialize                       - Undefined Weak Reference
    __arm_preinit_                            - Undefined Weak Reference
    __cpp_initialize__aeabi_                  - Undefined Weak Reference
    __cxa_finalize                            - Undefined Weak Reference
    __rt_locale                               - Undefined Weak Reference
    __sigvec_lookup                           - Undefined Weak Reference
    _atexit_init                              - Undefined Weak Reference
    _call_atexit_fns                          - Undefined Weak Reference
    _clock_init                               - Undefined Weak Reference
    _fp_trap_init                             - Undefined Weak Reference
    _fp_trap_shutdown                         - Undefined Weak Reference
    _get_lc_collate                           - Undefined Weak Reference
    _get_lc_ctype                             - Undefined Weak Reference
    _get_lc_monetary                          - Undefined Weak Reference
    _get_lc_numeric                           - Undefined Weak Reference
    _get_lc_time                              - Undefined Weak Reference
    _getenv_init                              - Undefined Weak Reference
    _handle_redirection                       - Undefined Weak Reference
    _init_alloc                               - Undefined Weak Reference
    _init_user_alloc                          - Undefined Weak Reference
    _initio                                   - Undefined Weak Reference
    _rand_init                                - Undefined Weak Reference
    _signal_finish                            - Undefined Weak Reference
    _signal_init                              - Undefined Weak Reference
    _terminate_alloc                          - Undefined Weak Reference
    _terminate_user_alloc                     - Undefined Weak Reference
    _terminateio                              - Undefined Weak Reference
    __Vectors_Size                           0x000000c0   Number         0  startup_armcm0.o ABSOLUTE
    __Vectors                                0x10000000   Data           4  startup_armcm0.o(RESET)
    __Vectors_End                            0x100000c0   Data           0  startup_armcm0.o(RESET)
    __main                                   0x100000c1   Thumb Code     8  __main.o(!!!main)
    __scatterload                            0x100000c9   Thumb Code     0  __scatter.o(!!!scatter)
    __scatterload_rt2                        0x100000c9   Thumb Code    52  __scatter.o(!!!scatter)
    __scatterload_rt2_thumb_only             0x100000c9   Thumb Code     0  __scatter.o(!!!scatter)
    __scatterload_null                       0x100000d9   Thumb Code     0  __scatter.o(!!!scatter)
    __scatterload_copy                       0x10000105   Thumb Code    26  __scatter_copy.o(!!handler_copy)
    __scatterload_zeroinit                   0x10000121   Thumb Code    28  __scatter_zi.o(!!handler_zi)
    __rt_lib_init                            0x1000013d   Thumb Code     0  libinit.o(.ARM.Collect$$libinit$$00000000)
    __rt_lib_init_alloca_1                   0x1000013f   Thumb Code     0  libinit2.o(.ARM.Collect$$libinit$$0000002E)
    __rt_lib_init_argv_1                     0x1000013f   Thumb Code     0  libinit2.o(.ARM.Collect$$libinit$$0000002C)
    __rt_lib_init_atexit_1                   0x1000013f   Thumb Code     0  libinit2.o(.ARM.Collect$$libinit$$0000001B)
    __rt_lib_init_clock_1                    0x1000013f   Thumb Code     0  libinit2.o(.ARM.Collect$$libinit$$00000021)
    __rt_lib_init_cpp_1                      0x1000013f   Thumb Code     0  libinit2.o(.ARM.Collect$$libinit$$00000032)
    __rt_lib_init_exceptions_1               0x1000013f   Thumb Code     0  libinit2.o(.ARM.Collect$$libinit$$00000030)
    __rt_lib_init_fp_1                       0x1000013f   Thumb Code     0  libinit2.o(.ARM.Collect$$libinit$$00000002)
    __rt_lib_init_fp_trap_1                  0x1000013f   Thumb Code     0  libinit2.o(.ARM.Collect$$libinit$$0000001F)
    __rt_lib_init_getenv_1                   0x1000013f   Thumb Code     0  libinit2.o(.ARM.Collect$$libinit$$00000023)
    __rt_lib_init_heap_1                     0x1000013f   Thumb Code     0  libinit2.o(.ARM.Collect$$libinit$$0000000A)
    __rt_lib_init_lc_collate_1               0x1000013f   Thumb Code     0  libinit2.o(.ARM.Collect$$libinit$$00000011)
    __rt_lib_init_lc_ctype_1                 0x1000013f   Thumb Code     0  libinit2.o(.ARM.Collect$$libinit$$00000013)
    __rt_lib_init_lc_monetary_1              0x1000013f   Thumb Code     0  libinit2.o(.ARM.Collect$$libinit$$00000015)
    __rt_lib_init_lc_numeric_1               0x1000013f   Thumb Code     0  libinit2.o(.ARM.Collect$$libinit$$00000017)
    __rt_lib_init_lc_time_1                  0x1000013f   Thumb Code     0  libinit2.o(.ARM.Collect$$libinit$$00000019)
    __rt_lib_init_preinit_1                  0x1000013f   Thumb Code     0  libinit2.o(.ARM.Collect$$libinit$$00000004)
    __rt_lib_init_rand_1                     0x1000013f   Thumb Code     0  libinit2.o(.ARM.Collect$$libinit$$0000000E)
    __rt_lib_init_return                     0x1000013f   Thumb Code     0  libinit2.o(.ARM.Collect$$libinit$$00000033)
    __rt_lib_init_signal_1                   0x1000013f   Thumb Code     0  libinit2.o(.ARM.Collect$$libinit$$0000001D)
    __rt_lib_init_stdio_1                    0x1000013f   Thumb Code     0  libinit2.o(.ARM.Collect$$libinit$$00000025)
    __rt_lib_init_user_alloc_1               0x1000013f   Thumb Code     0  libinit2.o(.ARM.Collect$$libinit$$0000000C)
    __rt_lib_shutdown                        0x10000141   Thumb Code     0  libshutdown.o(.ARM.Collect$$libshutdown$$00000000)
    __rt_lib_shutdown_cpp_1                  0x10000143   Thumb Code     0  libshutdown2.o(.ARM.Collect$$libshutdown$$00000002)
    __rt_lib_shutdown_fp_trap_1              0x10000143   Thumb Code     0  libshutdown2.o(.ARM.Collect$$libshutdown$$00000007)
    __rt_lib_shutdown_heap_1                 0x10000143   Thumb Code     0  libshutdown2.o(.ARM.Collect$$libshutdown$$0000000F)
    __rt_lib_shutdown_return                 0x10000143   Thumb Code     0  libshutdown2.o(.ARM.Collect$$libshutdown$$00000010)
    __rt_lib_shutdown_signal_1               0x10000143   Thumb Code     0  libshutdown2.o(.ARM.Collect$$libshutdown$$0000000A)
    __rt_lib_shutdown_stdio_1                0x10000143   Thumb Code     0  libshutdown2.o(.ARM.Collect$$libshutdown$$00000004)
    __rt_lib_shutdown_user_alloc_1           0x10000143   Thumb Code     0  libshutdown2.o(.ARM.Collect$$libshutdown$$0000000C)
    __rt_entry                               0x10000145   Thumb Code     0  __rtentry.o(.ARM.Collect$$rtentry$$00000000)
    __rt_entry_presh_1                       0x10000145   Thumb Code     0  __rtentry2.o(.ARM.Collect$$rtentry$$00000002)
    __rt_entry_sh                            0x10000145   Thumb Code     0  __rtentry4.o(.ARM.Collect$$rtentry$$00000004)
    __rt_entry_li                            0x1000014b   Thumb Code     0  __rtentry2.o(.ARM.Collect$$rtentry$$0000000A)
    __rt_entry_postsh_1                      0x1000014b   Thumb Code     0  __rtentry2.o(.ARM.Collect$$rtentry$$00000009)
    __rt_entry_main                          0x1000014f   Thumb Code     0  __rtentry2.o(.ARM.Collect$$rtentry$$0000000D)
    __rt_entry_postli_1                      0x1000014f   Thumb Code     0  __rtentry2.o(.ARM.Collect$$rtentry$$0000000C)
    __rt_exit                                0x10000157   Thumb Code     0  rtexit.o(.ARM.Collect$$rtexit$$00000000)
    __rt_exit_ls                             0x10000159   Thumb Code     0  rtexit2.o(.ARM.Collect$$rtexit$$00000003)
    __rt_exit_prels_1                        0x10000159   Thumb Code     0  rtexit2.o(.ARM.Collect$$rtexit$$00000002)
    __rt_exit_exit                           0x1000015d   Thumb Code     0  rtexit2.o(.ARM.Collect$$rtexit$$00000004)
    B01_correct_TXPacket_length              0x10000165   Thumb Code     6  rom.o(.emb_text)
    __aeabi_memcpy4                          0x1000016d   Thumb Code    56  rt_memcpy.o(.emb_text)
    __aeabi_memcpy8                          0x1000016d   Thumb Code     0  rt_memcpy.o(.emb_text)
    BLE_SendData                             0x10000205   Thumb Code    50  main.o(.text)
    BLSetConnectionUpdate                    0x10000237   Thumb Code   144  main.o(.text)
    ble_evt_callback                         0x10000469   Thumb Code   564  main.o(.text)
    uart_to_ble_transfer                     0x10000795   Thumb Code   232  main.o(.text)
    ble_to_uart_transfer                     0x1000087d   Thumb Code    34  main.o(.text)
    timer_uart_wait                          0x1000089f   Thumb Code    46  main.o(.text)
    Timer_Module_Init                        0x100008cd   Thumb Code    30  main.o(.text)
    gpio_init                                0x100008eb   Thumb Code   146  main.o(.text)
    ble_uart_init                            0x1000097d   Thumb Code   294  main.o(.text)
    main                                     0x10000aa3   Thumb Code   166  main.o(.text)
    gpi_irq_set_cb                           0x10000b81   Thumb Code     6  gpio.o(.text)
    gpi_config                               0x10000b87   Thumb Code   114  gpio.o(.text)
    pad_input_configure                      0x10000bf9   Thumb Code    94  gpio.o(.text)
    gpo_config                               0x10000c57   Thumb Code    90  gpio.o(.text)
    gpo_toggle                               0x10000cb1   Thumb Code    42  gpio.o(.text)
    gpo_set                                  0x10000cdb   Thumb Code    42  gpio.o(.text)
    gpo_clr                                  0x10000d05   Thumb Code    42  gpio.o(.text)
    gpi_get_val                              0x10000d2f   Thumb Code    70  gpio.o(.text)
    gpi_enable_int                           0x10000d75   Thumb Code   178  gpio.o(.text)
    gpi_disable_int                          0x10000e27   Thumb Code    44  gpio.o(.text)
    GPIO_IRQHandler                          0x10000e53   Thumb Code   134  gpio.o(.text)
    pad_mux_read                             0x10000ee9   Thumb Code    62  pad_mux_ctrl.o(.text)
    pad_mux_write                            0x10000f27   Thumb Code    78  pad_mux_ctrl.o(.text)
    uart_0_init                              0x10000fab   Thumb Code   134  uart.o(.text)
    UART0_IRQHandler                         0x10001031   Thumb Code    58  uart.o(.text)
    uart_1_init                              0x1000106b   Thumb Code   112  uart.o(.text)
    UART1_IRQHandler                         0x100010db   Thumb Code    60  uart.o(.text)
    uart_write                               0x10001117   Thumb Code    80  uart.o(.text)
    uart_read                                0x10001167   Thumb Code    20  uart.o(.text)
    uart_queue_size                          0x1000117b   Thumb Code    56  uart.o(.text)
    uart_get_ctrl                            0x100011b3   Thumb Code    18  uart.o(.text)
    queue_init                               0x100011f9   Thumb Code    12  queue.o(.text)
    queue_reset                              0x10001205   Thumb Code     6  queue.o(.text)
    enqueue_all                              0x1000120b   Thumb Code    96  queue.o(.text)
    enqueue                                  0x1000126b   Thumb Code    28  queue.o(.text)
    dequeue                                  0x10001287   Thumb Code    42  queue.o(.text)
    is_queue_empty                           0x100012b1   Thumb Code    18  queue.o(.text)
    queue_size                               0x100012c3   Thumb Code    24  queue.o(.text)
    TIMER0_IRQHandler                        0x100012dd   Thumb Code    36  timer.o(.text)
    TIMER1_IRQHandler                        0x10001301   Thumb Code    36  timer.o(.text)
    TIMER2_IRQHandler                        0x10001325   Thumb Code    36  timer.o(.text)
    TIMER3_IRQHandler                        0x10001349   Thumb Code    36  timer.o(.text)
    TIMER4_IRQHandler                        0x1000136d   Thumb Code    36  timer.o(.text)
    is_timer_enabled                         0x10001391   Thumb Code    16  timer.o(.text)
    timer_enable                             0x100013a1   Thumb Code   186  timer.o(.text)
    timer_disable                            0x1000145b   Thumb Code    44  timer.o(.text)
    timer_state_get                          0x10001487   Thumb Code    16  timer.o(.text)
    ota_cmd                                  0x100015b9   Thumb Code    88  ota.o(.text)
    ota_rsp                                  0x10001611   Thumb Code    34  ota.o(.text)
    Reset_Handler                            0x10001649   Thumb Code     8  startup_armcm0.o(.text)
    NMI_Handler                              0x10001651   Thumb Code     2  startup_armcm0.o(.text)
    HardFault_Handler                        0x10001653   Thumb Code     2  startup_armcm0.o(.text)
    SVC_Handler                              0x10001655   Thumb Code     2  startup_armcm0.o(.text)
    PendSV_Handler                           0x10001657   Thumb Code     2  startup_armcm0.o(.text)
    SysTick_Handler                          0x10001659   Thumb Code     2  startup_armcm0.o(.text)
    CAPDET_IRQHandler                        0x1000165b   Thumb Code     0  startup_armcm0.o(.text)
    GPADC_IRQHandler                         0x1000165b   Thumb Code     0  startup_armcm0.o(.text)
    I2CM0_IRQHandler                         0x1000165b   Thumb Code     0  startup_armcm0.o(.text)
    I2CM1_IRQHandler                         0x1000165b   Thumb Code     0  startup_armcm0.o(.text)
    I2CS_IRQHandler                          0x1000165b   Thumb Code     0  startup_armcm0.o(.text)
    I2S_IRQHandler                           0x1000165b   Thumb Code     0  startup_armcm0.o(.text)
    INTCOMB_IRQHandler                       0x1000165b   Thumb Code     0  startup_armcm0.o(.text)
    IR_IRQHandler                            0x1000165b   Thumb Code     0  startup_armcm0.o(.text)
    ISO_7816_IRQHandler                      0x1000165b   Thumb Code     0  startup_armcm0.o(.text)
    LLC2_IRQHandler                          0x1000165b   Thumb Code     0  startup_armcm0.o(.text)
    LLC3_IRQHandler                          0x1000165b   Thumb Code     0  startup_armcm0.o(.text)
    M2M_IRQHandler                           0x1000165b   Thumb Code     0  startup_armcm0.o(.text)
    PDM_IRQHandler                           0x1000165b   Thumb Code     0  startup_armcm0.o(.text)
    PWM1_IRQHandler                          0x1000165b   Thumb Code     0  startup_armcm0.o(.text)
    PWM2_IRQHandler                          0x1000165b   Thumb Code     0  startup_armcm0.o(.text)
    PWM3_IRQHandler                          0x1000165b   Thumb Code     0  startup_armcm0.o(.text)
    RTC_IRQHandler                           0x1000165b   Thumb Code     0  startup_armcm0.o(.text)
    SPIM_IRQHandler                          0x1000165b   Thumb Code     0  startup_armcm0.o(.text)
    SPIS_IRQHandler                          0x1000165b   Thumb Code     0  startup_armcm0.o(.text)
    SW_IRQHandler                            0x1000165b   Thumb Code     0  startup_armcm0.o(.text)
    TRNG_IRQHandler                          0x1000165b   Thumb Code     0  startup_armcm0.o(.text)
    UART2_IRQHandler                         0x1000165b   Thumb Code     0  startup_armcm0.o(.text)
    WDT_IRQHandler                           0x1000165b   Thumb Code     0  startup_armcm0.o(.text)
    __user_initial_stackheap                 0x1000165d   Thumb Code    10  startup_armcm0.o(.text)
    SystemCoreClockUpdate                    0x10001681   Thumb Code     8  system_armcm0.o(.text)
    SystemInit                               0x10001689   Thumb Code     8  system_armcm0.o(.text)
    sw_timer_update_callback                 0x10001699   Thumb Code    20  main.o(.text)
    gap_s_ble_init                           0x100016ad   Thumb Code    18  main.o(.text)
    gap_s_disconnect                         0x100016bf   Thumb Code     8  main.o(.text)
    gap_s_validate_irk                       0x100016c7   Thumb Code     6  main.o(.text)
    gap_s_ble_gen_random_private_address     0x100016cd   Thumb Code     6  main.o(.text)
    gap_s_ble_address_set                    0x100016d3   Thumb Code     6  main.o(.text)
    gap_s_ble_address_get                    0x100016d9   Thumb Code     4  main.o(.text)
    gap_s_ble_feature_set                    0x100016dd   Thumb Code     6  main.o(.text)
    gap_s_ble_feature_get                    0x100016e3   Thumb Code     6  main.o(.text)
    gap_s_ble_slave_feature_set              0x100016e9   Thumb Code     6  main.o(.text)
    gap_s_ble_slave_feature_get              0x100016ef   Thumb Code     6  main.o(.text)
    gap_s_adv_access_code_set                0x100016f5   Thumb Code     6  main.o(.text)
    gap_s_adv_access_code_get                0x100016fb   Thumb Code     6  main.o(.text)
    gap_s_adv_parameters_set                 0x10001701   Thumb Code     6  main.o(.text)
    gap_s_adv_data_set                       0x10001707   Thumb Code    10  main.o(.text)
    gap_s_adv_start                          0x10001711   Thumb Code     6  main.o(.text)
    gap_s_adv_stop                           0x10001717   Thumb Code     4  main.o(.text)
    gap_s_adv_start_powersaving              0x1000171b   Thumb Code   610  main.o(.text)
    gap_s_adv_stop_powersaving               0x1000197d   Thumb Code    32  main.o(.text)
    gap_s_scan_parameters_set                0x1000199d   Thumb Code     6  main.o(.text)
    gap_s_scan_start                         0x100019a3   Thumb Code     6  main.o(.text)
    gap_s_scan_stop                          0x100019a9   Thumb Code     4  main.o(.text)
    gap_s_coex_adv_data_set                  0x100019ad   Thumb Code    14  main.o(.text)
    gap_s_coex_scan_rsp_data_set             0x100019bb   Thumb Code    12  main.o(.text)
    gap_s_coex_adv_start                     0x100019c7   Thumb Code     8  main.o(.text)
    gap_s_coex_adv_stop                      0x100019cf   Thumb Code     8  main.o(.text)
    gap_s_coex_scan_req_data_set             0x100019d7   Thumb Code     6  main.o(.text)
    gap_s_coex_scan_start                    0x100019dd   Thumb Code     4  main.o(.text)
    gap_s_coex_scan_stop                     0x100019e1   Thumb Code     6  main.o(.text)
    gap_s_gatt_profiles_set                  0x100019e7   Thumb Code     6  main.o(.text)
    gap_s_security_parameters_set            0x100019ed   Thumb Code     6  main.o(.text)
    gap_s_security_parameters_get            0x100019f3   Thumb Code     6  main.o(.text)
    gap_s_security_req                       0x100019f9   Thumb Code     6  main.o(.text)
    gap_s_numeric_comrison                   0x100019ff   Thumb Code     8  main.o(.text)
    gap_s_connection_param_set               0x10001a07   Thumb Code     6  main.o(.text)
    gap_s_connection_param_get               0x10001a0d   Thumb Code     4  main.o(.text)
    gap_s_connection_update                  0x10001a11   Thumb Code     6  main.o(.text)
    gap_s_link_parameters_get                0x10001a17   Thumb Code     6  main.o(.text)
    gap_s_passkey_set                        0x10001a1d   Thumb Code     8  main.o(.text)
    gap_s_connection_latency_mode            0x10001a25   Thumb Code     8  main.o(.text)
    gap_s_check_fifo_sz                      0x10001a2d   Thumb Code     6  main.o(.text)
    BBCheckTXFIFOEmpty                       0x10001a33   Thumb Code    12  main.o(.text)
    sw_timer_latency_callback                0x10001a3f   Thumb Code   138  main.o(.text)
    smart_latency_start                      0x10001ac9   Thumb Code   186  main.o(.text)
    smart_latency_clear                      0x10001b83   Thumb Code    12  main.o(.text)
    gap_evt_Callback                         0x10001b8f   Thumb Code   332  main.o(.text)
    gap_s_evt_handler_set                    0x10001cdb   Thumb Code    32  main.o(.text)
    gap_s_att_c_evt_handler_set              0x10001cfb   Thumb Code     6  main.o(.text)
    gap_s_gatt_report_handle_get             0x10001d01   Thumb Code     6  main.o(.text)
    gap_s_gatt_read_rsp_set                  0x10001d07   Thumb Code     6  main.o(.text)
    gap_s_gatt_write_err_rsp_set             0x10001d0d   Thumb Code     6  main.o(.text)
    indicate_queue_size                      0x10001d13   Thumb Code    26  main.o(.text)
    sw_indicate_timer_callback               0x10001d2d   Thumb Code    22  main.o(.text)
    gap_s_gatt_data_send                     0x10001d43   Thumb Code    38  main.o(.text)
    gap_s_gatt_data_send_report_confirmation_handle 0x10001d69   Thumb Code   112  main.o(.text)
    gap_s_profile_data_read                  0x10001dd9   Thumb Code    44  main.o(.text)
    gap_s_profile_data_write                 0x10001e59   Thumb Code   212  main.o(.text)
    att_c_mtureq                             0x10001f2d   Thumb Code     4  main.o(.text)
    att_c_findinforeq                        0x10001f31   Thumb Code     6  main.o(.text)
    att_c_findbytypevaluereq                 0x10001f37   Thumb Code    14  main.o(.text)
    att_c_readbytypereq                      0x10001f45   Thumb Code    12  main.o(.text)
    att_c_readreq                            0x10001f51   Thumb Code     6  main.o(.text)
    att_c_readblobreq                        0x10001f57   Thumb Code     6  main.o(.text)
    att_c_readmultiplereq                    0x10001f5d   Thumb Code     6  main.o(.text)
    att_c_readbygrouptypereq                 0x10001f63   Thumb Code    12  main.o(.text)
    att_c_writereq                           0x10001f6f   Thumb Code     6  main.o(.text)
    att_c_writecmdreq                        0x10001f75   Thumb Code     6  main.o(.text)
    att_c_preparewritereq                    0x10001f7b   Thumb Code    12  main.o(.text)
    att_c_executewritereq                    0x10001f87   Thumb Code     6  main.o(.text)
    att_c_confirmation                       0x10001f8d   Thumb Code     6  main.o(.text)
    bm_s_bond_manager_idx_set                0x10001f93   Thumb Code     6  main.o(.text)
    bm_s_bond_manager_idx_get                0x10001f99   Thumb Code     4  main.o(.text)
    bm_s_bond_info_get                       0x10001f9d   Thumb Code     6  main.o(.text)
    bm_s_bond_info_add                       0x10001fa3   Thumb Code     6  main.o(.text)
    bm_s_bond_info_delete_all                0x10001fa9   Thumb Code     6  main.o(.text)
    bm_s_bond_info_delete                    0x10001faf   Thumb Code     6  main.o(.text)
    ecdh_public_key_get                      0x10001fb5   Thumb Code     4  main.o(.text)
    sys_mcu_clock_get                        0x10001fb9   Thumb Code     6  main.o(.text)
    sys_mcu_clock_set                        0x10001fbf   Thumb Code     8  main.o(.text)
    sys_mcu_clock_div_set                    0x10001fc7   Thumb Code     6  main.o(.text)
    sys_mcu_clock_div_get                    0x10001fcd   Thumb Code     6  main.o(.text)
    sys_32k_clock_get                        0x10001fd3   Thumb Code     6  main.o(.text)
    sys_32k_clock_set                        0x10001fd9   Thumb Code     8  main.o(.text)
    pmu_32m_xo_on                            0x10001fe1   Thumb Code     4  main.o(.text)
    sys_32k_lpo_calibration                  0x10001fe5   Thumb Code    66  main.o(.text)
    sys_mcu_rc_calibration                   0x10002027   Thumb Code     8  main.o(.text)
    pmu_32m_xo_off                           0x1000202f   Thumb Code     6  main.o(.text)
    BBRFWrite                                0x10002035   Thumb Code     4  main.o(.text)
    BBRFRead                                 0x10002039   Thumb Code     6  main.o(.text)
    sys_mcu_rc_calibrationHF                 0x1000203f   Thumb Code    82  main.o(.text)
    pmu_wakeup_config                        0x10002091   Thumb Code     6  main.o(.text)
    pmu_power_saving                         0x10002097   Thumb Code    10  main.o(.text)
    pmu_mcu_off                              0x100020a1   Thumb Code     6  main.o(.text)
    pmu_system_off                           0x100020a7   Thumb Code     6  main.o(.text)
    pmu_reset                                0x100020ad   Thumb Code     6  main.o(.text)
    pmu_system_reset                         0x100020b3   Thumb Code     6  main.o(.text)
    pmu_mcu_reset                            0x100020b9   Thumb Code     6  main.o(.text)
    pmu_32m_xo_on_polling                    0x100020bf   Thumb Code    18  main.o(.text)
    _enable_sw_ccm                           0x100020d1   Thumb Code     6  main.o(.text)
    ota_code_erase                           0x100020d7   Thumb Code   344  main.o(.text)
    ota_code_write                           0x1000222f   Thumb Code     6  main.o(.text)
    ota_code_read                            0x10002235   Thumb Code     4  main.o(.text)
    ota_code_info_read                       0x10002239   Thumb Code    12  main.o(.text)
    ota_code_update                          0x10002245   Thumb Code    10  main.o(.text)
    ble_sched_execute                        0x1000224f   Thumb Code   250  main.o(.text)
    sys_rc_get                               0x10002349   Thumb Code     4  main.o(.text)
    sys_fclk_get                             0x1000234d   Thumb Code     6  main.o(.text)
    sys_pclk_get                             0x10002353   Thumb Code     6  main.o(.text)
    sys_sclk_get                             0x10002359   Thumb Code     6  main.o(.text)
    sys_hclk_get                             0x1000235f   Thumb Code     6  main.o(.text)
    gpadc_init                               0x10002365   Thumb Code    22  main.o(.text)
    pdm_set_amic_gain                        0x1000237b   Thumb Code    58  main.o(.text)
    att_c_get_mtu_size                       0x100023b5   Thumb Code    18  main.o(.text)
    capdet_set_bias                          0x100023c7   Thumb Code    56  main.o(.text)
    capdet_get_bias                          0x100023ff   Thumb Code    40  main.o(.text)
    module_clock_off                         0x10002427   Thumb Code    14  main.o(.text)
    module_clock_on                          0x10002435   Thumb Code    14  main.o(.text)
    ll_length_req                            0x10002443   Thumb Code    24  main.o(.text)
    get_pmu_reset_type                       0x1000245b   Thumb Code     4  main.o(.text)
    reset_module                             0x1000245f   Thumb Code    36  main.o(.text)
    SystemSleep                              0x10002483   Thumb Code    50  main.o(.text)
    ble_flash_authority                      0x100024b5   Thumb Code    88  main.o(.text)
    ble_flash_erase                          0x1000250d   Thumb Code    12  main.o(.text)
    ble_flash_read                           0x10002519   Thumb Code    32  main.o(.text)
    ble_flash_write                          0x10002539   Thumb Code    14  main.o(.text)
    ble_flash_write_burst                    0x10002547   Thumb Code    14  main.o(.text)
    _checksum_cache_496kb                    0x10002555   Thumb Code   110  main.o(.text)
    ota_code_update_496kb                    0x100025c3   Thumb Code   204  main.o(.text)
    gap_s_smart_update_latency               0x1000268f   Thumb Code   370  main.o(.text)
    smart_update_latency_updatareq           0x10002801   Thumb Code   298  main.o(.text)
    syd8821_chip_confirm                     0x1000292b   Thumb Code    24  main.o(.text)
    APPtimer_enable                          0x10002943   Thumb Code    26  main.o(.text)
    APPtimer_disable                         0x1000295d   Thumb Code    24  main.o(.text)
    sched_callback_enable                    0x10002975   Thumb Code    26  main.o(.text)
    gap_s_adv_state_get                      0x1000298f   Thumb Code     8  main.o(.text)
    gap_s_att_mtu_get                        0x10002997   Thumb Code    18  main.o(.text)
    ble_SetTxPower                           0x100029a9   Thumb Code   470  main.o(.text)
    ll_set_replying_packet_timer             0x10002b7f   Thumb Code    10  main.o(.text)
    amic_set_bias                            0x10002b89   Thumb Code   124  main.o(.text)
    gap_s_verdor_datas_get                   0x10002c05   Thumb Code    26  main.o(.text)
    gap_s_verdor_datas_set                   0x10002c1f   Thumb Code    78  main.o(.text)
    systemtick_delay                         0x10002c6d   Thumb Code    34  main.o(.text)
    Setting4kUpdate                          0x10002c8f   Thumb Code   136  main.o(.text)
    SetDevAddr_toflash                       0x10002d17   Thumb Code    72  main.o(.text)
    flash_peotect_key_confirm                0x10002d5f   Thumb Code   126  main.o(.text)
    Confirm_NumericComrison                  0x10002e01   Thumb Code    12  rom.o(.text)
    SmpRxPairingConfirm                      0x10002e0d   Thumb Code   210  rom.o(.text)
    SmpRxPairingRandom                       0x10002edf   Thumb Code   652  rom.o(.text)
    SmpPairingReq                            0x1000316b   Thumb Code   450  rom.o(.text)
    SmpPairingPublicKey                      0x1000332d   Thumb Code   146  rom.o(.text)
    SmpPasskeyEntry                          0x100033bf   Thumb Code   226  rom.o(.text)
    PreCkQueSz                               0x100034a1   Thumb Code   146  rom.o(.text)
    AttNotify                                0x10003533   Thumb Code    56  rom.o(.text)
    AttIndication                            0x1000356b   Thumb Code    56  rom.o(.text)
    HW_LLC_Sleep_WorkAround                  0x10003c9d   Thumb Code    54  rom.o(.text)
    HW_WindowOffsetWorkAround                0x10003cd3   Thumb Code    68  rom.o(.text)
    LLLengthRsp                              0x10003d17   Thumb Code   194  rom.o(.text)
    LLLengthReq                              0x10003dd9   Thumb Code   300  rom.o(.text)
    rvereseArray                             0x10003f05   Thumb Code    26  rom.o(.text)
    LLStartENCReq                            0x10003f1f   Thumb Code   152  rom.o(.text)
    LLRxStartENCRsp                          0x100043b9   Thumb Code     2  rom.o(.text)
    Protocol_Hook_Callback                   0x100043bb   Thumb Code   374  rom.o(.text)
    B01_Hook_Callback                        0x10004531   Thumb Code    44  rom.o(.text)
    _rom_init                                0x1000455d   Thumb Code    78  rom.o(.text)
    LLTerminateReq                           0x100045ab   Thumb Code   120  rom.o(.text)
    _rom_gap_s_disconnect                    0x10004623   Thumb Code    32  rom.o(.text)
    _rom_sys_32k_lpo_calibration             0x10004643   Thumb Code   134  rom.o(.text)
    _sys_32k_lpo_calibration                 0x100046c9   Thumb Code   136  rom.o(.text)
    _rom_sys_32k_clock_set                   0x10004751   Thumb Code   118  rom.o(.text)
    _rom_gap_s_gatt_data_send                0x100047c7   Thumb Code    72  rom.o(.text)
    _rom_gap_s_coex_adv_start                0x1000480f   Thumb Code    56  rom.o(.text)
    _rom_gap_s_coex_adv_stop                 0x10004847   Thumb Code    40  rom.o(.text)
    BBRXFIFORead                             0x1000486f   Thumb Code   494  rom.o(.text)
    LCTxPkt_Handler                          0x10004c8d   Thumb Code   288  rom.o(.text)
    ConnectionLost                           0x10004dad   Thumb Code   122  rom.o(.text)
    LLC_IRQHandler                           0x10004e27   Thumb Code   210  rom.o(.text)
    _sys_mcu_rc_calibration                  0x10004ef9   Thumb Code    54  rom.o(.text)
    _rom_sys_mcu_clock_div_get               0x10004f2f   Thumb Code    12  rom.o(.text)
    _rom_sys_mcu_clock_get                   0x10004f3b   Thumb Code     8  rom.o(.text)
    BBMCUClockSel                            0x10004f43   Thumb Code   206  rom.o(.text)
    _rom_sys_mcu_clock_set                   0x10005011   Thumb Code    14  rom.o(.text)
    _rom_ota_code_erase                      0x1000501f   Thumb Code   116  rom.o(.text)
    _rom_gap_s_connection_latency_mode       0x10005093   Thumb Code   168  rom.o(.text)
    RCOSC_validate                           0x1000525d   Thumb Code    18  pmu.o(.text)
    syd8821_pmu_power_saving                 0x1000526f   Thumb Code   386  pmu.o(.text)
    aes_ccm_encrypt                          0x100057a7   Thumb Code   114  aec-ccm.o(.text)
    aes_ccm_decrypt                          0x10005819   Thumb Code   152  aec-ccm.o(.text)
    aes_ccm_verify                           0x100058b1   Thumb Code    96  aec-ccm.o(.text)
    CCM_NONCE                                0x10005911   Thumb Code    62  aec-ccm.o(.text)
    aes_encrypt                              0x10006237   Thumb Code    24  aes.o(.text)
    aes_decrypt                              0x1000624f   Thumb Code    26  aes.o(.text)
    memcmp                                   0x1000627d   Thumb Code    90  memcmp.o(.text)
    __aeabi_memcpy                           0x100062d7   Thumb Code   130  rt_memcpy.o(.text)
    __rt_memcpy                              0x100062d7   Thumb Code     0  rt_memcpy.o(.text)
    _memset_w                                0x10006359   Thumb Code    26  rt_memclr.o(.text)
    _memset                                  0x10006373   Thumb Code    30  rt_memclr.o(.text)
    __aeabi_memclr                           0x10006391   Thumb Code     4  rt_memclr.o(.text)
    __rt_memclr                              0x10006391   Thumb Code     0  rt_memclr.o(.text)
    __aeabi_memclr4                          0x10006395   Thumb Code     0  rt_memclr.o(.text)
    __aeabi_memclr8                          0x10006395   Thumb Code     0  rt_memclr.o(.text)
    __rt_memclr_w                            0x10006395   Thumb Code     4  rt_memclr.o(.text)
    __aeabi_uread4                           0x10006399   Thumb Code    34  uread4.o(.text)
    __rt_uread4                              0x10006399   Thumb Code     0  uread4.o(.text)
    __aeabi_uwrite4                          0x100063bb   Thumb Code    16  uwrite4.o(.text)
    __rt_uwrite4                             0x100063bb   Thumb Code     0  uwrite4.o(.text)
    __aeabi_uidiv                            0x100063cb   Thumb Code     0  aeabi_sdiv.o(.text)
    __aeabi_uidivmod                         0x100063cb   Thumb Code    20  aeabi_sdiv.o(.text)
    __aeabi_idiv                             0x100063df   Thumb Code     0  aeabi_sdiv.o(.text)
    __aeabi_idivmod                          0x100063df   Thumb Code   326  aeabi_sdiv.o(.text)
    __use_two_region_memory                  0x10006525   Thumb Code     2  heapauxi.o(.text)
    __rt_heap_escrow$2region                 0x10006527   Thumb Code     2  heapauxi.o(.text)
    __rt_heap_expand$2region                 0x10006529   Thumb Code     2  heapauxi.o(.text)
    __aeabi_dadd                             0x10006825   Thumb Code     0  daddsub.o(.text)
    _dadd                                    0x10006825   Thumb Code    26  daddsub.o(.text)
    __aeabi_dsub                             0x1000683f   Thumb Code     0  daddsub.o(.text)
    _dsub                                    0x1000683f   Thumb Code    22  daddsub.o(.text)
    __aeabi_drsub                            0x10006855   Thumb Code     0  daddsub.o(.text)
    _drsb                                    0x10006855   Thumb Code    28  daddsub.o(.text)
    __aeabi_ddiv                             0x10006885   Thumb Code     0  ddiv.o(.text)
    _ddiv                                    0x10006885   Thumb Code  1072  ddiv.o(.text)
    _drdiv                                   0x10006cb5   Thumb Code    20  ddiv.o(.text)
    __aeabi_d2uiz                            0x10006ccd   Thumb Code     0  dfixui.o(.text)
    _dfixu                                   0x10006ccd   Thumb Code    68  dfixui.o(.text)
    __aeabi_i2d_normalise                    0x10006d15   Thumb Code    66  dflti.o(.text)
    __aeabi_i2d                              0x10006d57   Thumb Code    16  dflti.o(.text)
    _dflt                                    0x10006d57   Thumb Code     0  dflti.o(.text)
    __aeabi_ui2d                             0x10006d67   Thumb Code     6  dflti.o(.text)
    _dfltu                                   0x10006d67   Thumb Code     0  dflti.o(.text)
    __aeabi_dmul                             0x10006d6d   Thumb Code     0  dmul.o(.text)
    _dmul                                    0x10006d6d   Thumb Code   558  dmul.o(.text)
    __aeabi_f2d                              0x10006fb5   Thumb Code     0  f2d.o(.text)
    _f2d                                     0x10006fb5   Thumb Code    80  f2d.o(.text)
    __aeabi_i2f_normalise                    0x10007009   Thumb Code    72  fflti.o(.text)
    __aeabi_i2f                              0x10007051   Thumb Code    16  fflti.o(.text)
    _fflt                                    0x10007051   Thumb Code     0  fflti.o(.text)
    __aeabi_ui2f                             0x10007061   Thumb Code     6  fflti.o(.text)
    _ffltu                                   0x10007061   Thumb Code     0  fflti.o(.text)
    __user_setup_stackheap                   0x10007067   Thumb Code    62  sys_stackheap_outer.o(.text)
    exit                                     0x100070a5   Thumb Code    16  exit.o(.text)
    __user_libspace                          0x100070b5   Thumb Code     8  libspace.o(.text)
    __user_perproc_libspace                  0x100070b5   Thumb Code     0  libspace.o(.text)
    __user_perthread_libspace                0x100070b5   Thumb Code     0  libspace.o(.text)
    _sys_exit                                0x100070bd   Thumb Code     8  sys_exit.o(.text)
    __I$use$semihosting                      0x100070c9   Thumb Code     0  use_no_semi.o(.text)
    __use_no_semihosting_swi                 0x100070c9   Thumb Code     2  use_no_semi.o(.text)
    __semihosting_library_function           0x100070cb   Thumb Code     0  indicate_semi.o(.text)
    syd8821_wfi                              0x100070cd   Thumb Code    66  pmu.o(PMU)
    __ARM_common_switch8                     0x10007119   Thumb Code    26  main.o(i.__ARM_common_switch8)
    __aeabi_fadd                             0x10007135   Thumb Code     0  faddsub.o(x$fpl$fadd)
    _fadd                                    0x10007135   Thumb Code   134  faddsub.o(x$fpl$fadd)
    __aeabi_fsub                             0x100071c1   Thumb Code     0  faddsub.o(x$fpl$fsub)
    _fsub                                    0x100071c1   Thumb Code   204  faddsub.o(x$fpl$fsub)
    __I$use$fp                               0x10007290   Number         0  usenofp.o(x$fpl$usenofp)
    Region$$Table$$Base                      0x100077fc   Number         0  anon$$obj.o(Region$$Table)
    Region$$Table$$Limit                     0x1000781c   Number         0  anon$$obj.o(Region$$Table)
    GAP_Event                                0x20000000   Data           8  main.o(.data)
    connect_flag                             0x2000000e   Data           1  main.o(.data)
    update_latency_mode                      0x2000000f   Data           1  main.o(.data)
    latency_state                            0x20000010   Data           1  main.o(.data)
    timer_wait_cnt                           0x20000011   Data           1  main.o(.data)
    uart_data_temp_state                     0x20000012   Data           1  main.o(.data)
    ADV_DATA                                 0x20000013   Data          31  main.o(.data)
    ADV_DATA_SZ                              0x20000032   Data           2  main.o(.data)
    SCAN_DATA                                0x20000034   Data           1  main.o(.data)
    SCAN_DATA_SZ                             0x20000036   Data           2  main.o(.data)
    UART_CTRL                                0x20000054   Data           8  uart.o(.data)
    ota_state                                0x20000070   Data           1  ota.o(.data)
    ota_writecnt                             0x20000071   Data           1  ota.o(.data)
    pevt                                     0x20000078   Data           4  ota.o(.data)
    SystemCoreClock                          0x2000007c   Data           4  system_armcm0.o(.data)
    app_gap_evt_callback                     0x20000090   Data           4  main.o(.data)
    enable_sw_ccm                            0x20000096   Data           1  rom.o(.data)
    using_oob                                0x20000097   Data           1  rom.o(.data)
    using_numeric_compairison                0x20000098   Data           1  rom.o(.data)
    LL_Header                                0x2000009a   Data           1  rom.o(.data)
    isStartLlid                              0x2000009b   Data           1  rom.o(.data)
    LL_Header_len                            0x2000009c   Data           2  rom.o(.data)
    BB_CTRL                                  0x200000a0   Data           4  rom.o(.data)
    flash_hdr                                0x200000a4   Data           4  rom.o(.data)
    lclink                                   0x200000a8   Data           4  rom.o(.data)
    txpdu                                    0x200000ac   Data           4  rom.o(.data)
    flash                                    0x200000d8   Data           4  rom.o(.data)
    mic_len                                  0x200000dc   Data           4  rom.o(.data)
    l2capTmpBuf                              0x200000e0   Data           4  rom.o(.data)
    warning_report_evt                       0x200000e8   Data           5  rom.o(.data)
    att_handle_config_evt                    0x200000ed   Data           6  rom.o(.data)
    RxCounter                                0x200000f3   Data           8  rom.o(.data)
    TxCounter                                0x200000fb   Data           8  rom.o(.data)
    uart_data_temp                           0x20000108   Data          20  main.o(.bss)
    rx_queue                                 0x2000011c   Data          32  uart.o(.bss)
    rx_buf                                   0x2000013c   Data        1024  uart.o(.bss)
    ota_w                                    0x20000550   Data          40  ota.o(.bss)
    profile                                  0x20000578   Data        4096  main.o(.bss)
    smart_update_ctrol                       0x200015b6   Data          15  main.o(.bss)
    Nonce                                    0x200015c8   Data          13  rom.o(.bss)
    rxbuf                                    0x200015d8   Data         260  rom.o(.bss)
    encPayload                               0x200016dc   Data         260  rom.o(.bss)
    att_write_evt                            0x200017e0   Data         519  rom.o(.bss)
    __libspace_start                         0x200019f8   Data          96  libspace.o(.bss)
    __temporary_stack_top$libspace           0x20001a58   Data           0  libspace.o(.bss)



==============================================================================

Memory Map of the image

  Image Entry point : 0x100000c1

  Load Region LR_IROM1 (Base: 0x10000000, Size: 0x00007924, Max: 0x0003e000, ABSOLUTE)

    Execution Region ER_IROM1 (Exec base: 0x10000000, Load base: 0x10000000, Size: 0x0000781c, Max: 0x0003e000, ABSOLUTE)

    Exec Addr    Load Addr    Size         Type   Attr      Idx    E Section Name        Object

    0x10000000   0x10000000   0x000000c0   Data   RO          368    RESET               startup_armcm0.o
    0x100000c0   0x100000c0   0x00000008   Code   RO          626  * !!!main             c_p.l(__main.o)
    0x100000c8   0x100000c8   0x0000003c   Code   RO          816    !!!scatter          c_p.l(__scatter.o)
    0x10000104   0x10000104   0x0000001a   Code   RO          818    !!handler_copy      c_p.l(__scatter_copy.o)
    0x1000011e   0x1000011e   0x00000002   PAD
    0x10000120   0x10000120   0x0000001c   Code   RO          820    !!handler_zi        c_p.l(__scatter_zi.o)
    0x1000013c   0x1000013c   0x00000002   Code   RO          686    .ARM.Collect$$libinit$$00000000  c_p.l(libinit.o)
    0x1000013e   0x1000013e   0x00000000   Code   RO          700    .ARM.Collect$$libinit$$00000002  c_p.l(libinit2.o)
    0x1000013e   0x1000013e   0x00000000   Code   RO          702    .ARM.Collect$$libinit$$00000004  c_p.l(libinit2.o)
    0x1000013e   0x1000013e   0x00000000   Code   RO          705    .ARM.Collect$$libinit$$0000000A  c_p.l(libinit2.o)
    0x1000013e   0x1000013e   0x00000000   Code   RO          707    .ARM.Collect$$libinit$$0000000C  c_p.l(libinit2.o)
    0x1000013e   0x1000013e   0x00000000   Code   RO          709    .ARM.Collect$$libinit$$0000000E  c_p.l(libinit2.o)
    0x1000013e   0x1000013e   0x00000000   Code   RO          712    .ARM.Collect$$libinit$$00000011  c_p.l(libinit2.o)
    0x1000013e   0x1000013e   0x00000000   Code   RO          714    .ARM.Collect$$libinit$$00000013  c_p.l(libinit2.o)
    0x1000013e   0x1000013e   0x00000000   Code   RO          716    .ARM.Collect$$libinit$$00000015  c_p.l(libinit2.o)
    0x1000013e   0x1000013e   0x00000000   Code   RO          718    .ARM.Collect$$libinit$$00000017  c_p.l(libinit2.o)
    0x1000013e   0x1000013e   0x00000000   Code   RO          720    .ARM.Collect$$libinit$$00000019  c_p.l(libinit2.o)
    0x1000013e   0x1000013e   0x00000000   Code   RO          722    .ARM.Collect$$libinit$$0000001B  c_p.l(libinit2.o)
    0x1000013e   0x1000013e   0x00000000   Code   RO          724    .ARM.Collect$$libinit$$0000001D  c_p.l(libinit2.o)
    0x1000013e   0x1000013e   0x00000000   Code   RO          726    .ARM.Collect$$libinit$$0000001F  c_p.l(libinit2.o)
    0x1000013e   0x1000013e   0x00000000   Code   RO          728    .ARM.Collect$$libinit$$00000021  c_p.l(libinit2.o)
    0x1000013e   0x1000013e   0x00000000   Code   RO          730    .ARM.Collect$$libinit$$00000023  c_p.l(libinit2.o)
    0x1000013e   0x1000013e   0x00000000   Code   RO          732    .ARM.Collect$$libinit$$00000025  c_p.l(libinit2.o)
    0x1000013e   0x1000013e   0x00000000   Code   RO          736    .ARM.Collect$$libinit$$0000002C  c_p.l(libinit2.o)
    0x1000013e   0x1000013e   0x00000000   Code   RO          738    .ARM.Collect$$libinit$$0000002E  c_p.l(libinit2.o)
    0x1000013e   0x1000013e   0x00000000   Code   RO          740    .ARM.Collect$$libinit$$00000030  c_p.l(libinit2.o)
    0x1000013e   0x1000013e   0x00000000   Code   RO          742    .ARM.Collect$$libinit$$00000032  c_p.l(libinit2.o)
    0x1000013e   0x1000013e   0x00000002   Code   RO          743    .ARM.Collect$$libinit$$00000033  c_p.l(libinit2.o)
    0x10000140   0x10000140   0x00000002   Code   RO          774    .ARM.Collect$$libshutdown$$00000000  c_p.l(libshutdown.o)
    0x10000142   0x10000142   0x00000000   Code   RO          800    .ARM.Collect$$libshutdown$$00000002  c_p.l(libshutdown2.o)
    0x10000142   0x10000142   0x00000000   Code   RO          802    .ARM.Collect$$libshutdown$$00000004  c_p.l(libshutdown2.o)
    0x10000142   0x10000142   0x00000000   Code   RO          805    .ARM.Collect$$libshutdown$$00000007  c_p.l(libshutdown2.o)
    0x10000142   0x10000142   0x00000000   Code   RO          808    .ARM.Collect$$libshutdown$$0000000A  c_p.l(libshutdown2.o)
    0x10000142   0x10000142   0x00000000   Code   RO          810    .ARM.Collect$$libshutdown$$0000000C  c_p.l(libshutdown2.o)
    0x10000142   0x10000142   0x00000000   Code   RO          813    .ARM.Collect$$libshutdown$$0000000F  c_p.l(libshutdown2.o)
    0x10000142   0x10000142   0x00000002   Code   RO          814    .ARM.Collect$$libshutdown$$00000010  c_p.l(libshutdown2.o)
    0x10000144   0x10000144   0x00000000   Code   RO          649    .ARM.Collect$$rtentry$$00000000  c_p.l(__rtentry.o)
    0x10000144   0x10000144   0x00000000   Code   RO          656    .ARM.Collect$$rtentry$$00000002  c_p.l(__rtentry2.o)
    0x10000144   0x10000144   0x00000006   Code   RO          668    .ARM.Collect$$rtentry$$00000004  c_p.l(__rtentry4.o)
    0x1000014a   0x1000014a   0x00000000   Code   RO          658    .ARM.Collect$$rtentry$$00000009  c_p.l(__rtentry2.o)
    0x1000014a   0x1000014a   0x00000004   Code   RO          659    .ARM.Collect$$rtentry$$0000000A  c_p.l(__rtentry2.o)
    0x1000014e   0x1000014e   0x00000000   Code   RO          661    .ARM.Collect$$rtentry$$0000000C  c_p.l(__rtentry2.o)
    0x1000014e   0x1000014e   0x00000008   Code   RO          662    .ARM.Collect$$rtentry$$0000000D  c_p.l(__rtentry2.o)
    0x10000156   0x10000156   0x00000002   Code   RO          691    .ARM.Collect$$rtexit$$00000000  c_p.l(rtexit.o)
    0x10000158   0x10000158   0x00000000   Code   RO          747    .ARM.Collect$$rtexit$$00000002  c_p.l(rtexit2.o)
    0x10000158   0x10000158   0x00000004   Code   RO          748    .ARM.Collect$$rtexit$$00000003  c_p.l(rtexit2.o)
    0x1000015c   0x1000015c   0x00000006   Code   RO          749    .ARM.Collect$$rtexit$$00000004  c_p.l(rtexit2.o)
    0x10000162   0x10000162   0x00000002   PAD
    0x10000164   0x10000164   0x00000006   Code   RO          470    .emb_text           syd8821_ble_slave.lib(rom.o)
    0x1000016a   0x1000016a   0x00000002   PAD
    0x1000016c   0x1000016c   0x00000038   Code   RO          610    .emb_text           c_p.l(rt_memcpy.o)
    0x100001a4   0x100001a4   0x000009dc   Code   RO            3    .text               main.o
    0x10000b80   0x10000b80   0x00000368   Code   RO           99    .text               gpio.o
    0x10000ee8   0x10000ee8   0x00000090   Code   RO          159    .text               pad_mux_ctrl.o
    0x10000f78   0x10000f78   0x00000280   Code   RO          184    .text               uart.o
    0x100011f8   0x100011f8   0x000000e2   Code   RO          244    .text               queue.o
    0x100012da   0x100012da   0x00000002   PAD
    0x100012dc   0x100012dc   0x000001c4   Code   RO          267    .text               timer.o
    0x100014a0   0x100014a0   0x000001a8   Code   RO          293    .text               ota.o
    0x10001648   0x10001648   0x00000038   Code   RO          369    .text               startup_armcm0.o
    0x10001680   0x10001680   0x00000018   Code   RO          375    .text               system_armcm0.o
    0x10001698   0x10001698   0x00001768   Code   RO          401    .text               syd8821_ble_slave.lib(main.o)
    0x10002e00   0x10002e00   0x0000245c   Code   RO          471    .text               syd8821_ble_slave.lib(rom.o)
    0x1000525c   0x1000525c   0x000001ac   Code   RO          506    .text               syd8821_ble_slave.lib(pmu.o)
    0x10005408   0x10005408   0x00000580   Code   RO          560    .text               syd8821_ble_slave.lib(aec-ccm.o)
    0x10005988   0x10005988   0x000008f4   Code   RO          593    .text               syd8821_ble_slave.lib(aes.o)
    0x1000627c   0x1000627c   0x0000005a   Code   RO          608    .text               c_p.l(memcmp.o)
    0x100062d6   0x100062d6   0x00000082   Code   RO          611    .text               c_p.l(rt_memcpy.o)
    0x10006358   0x10006358   0x00000040   Code   RO          614    .text               c_p.l(rt_memclr.o)
    0x10006398   0x10006398   0x00000022   Code   RO          616    .text               c_p.l(uread4.o)
    0x100063ba   0x100063ba   0x00000010   Code   RO          618    .text               c_p.l(uwrite4.o)
    0x100063ca   0x100063ca   0x0000015a   Code   RO          620    .text               c_p.l(aeabi_sdiv.o)
    0x10006524   0x10006524   0x00000006   Code   RO          624    .text               c_p.l(heapauxi.o)
    0x1000652a   0x1000652a   0x00000002   PAD
    0x1000652c   0x1000652c   0x00000358   Code   RO          628    .text               fz_ps.l(daddsub.o)
    0x10006884   0x10006884   0x00000448   Code   RO          630    .text               fz_ps.l(ddiv.o)
    0x10006ccc   0x10006ccc   0x00000048   Code   RO          633    .text               fz_ps.l(dfixui.o)
    0x10006d14   0x10006d14   0x00000058   Code   RO          635    .text               fz_ps.l(dflti.o)
    0x10006d6c   0x10006d6c   0x00000248   Code   RO          637    .text               fz_ps.l(dmul.o)
    0x10006fb4   0x10006fb4   0x00000054   Code   RO          639    .text               fz_ps.l(f2d.o)
    0x10007008   0x10007008   0x0000005e   Code   RO          647    .text               fz_ps.l(fflti.o)
    0x10007066   0x10007066   0x0000003e   Code   RO          672    .text               c_p.l(sys_stackheap_outer.o)
    0x100070a4   0x100070a4   0x00000010   Code   RO          675    .text               c_p.l(exit.o)
    0x100070b4   0x100070b4   0x00000008   Code   RO          687    .text               c_p.l(libspace.o)
    0x100070bc   0x100070bc   0x0000000c   Code   RO          744    .text               c_p.l(sys_exit.o)
    0x100070c8   0x100070c8   0x00000002   Code   RO          763    .text               c_p.l(use_no_semi.o)
    0x100070ca   0x100070ca   0x00000000   Code   RO          765    .text               c_p.l(indicate_semi.o)
    0x100070ca   0x100070ca   0x00000002   PAD
    0x100070cc   0x100070cc   0x0000004c   Code   RO          507    PMU                 syd8821_ble_slave.lib(pmu.o)
    0x10007118   0x10007118   0x0000001a   Code   RO          421    i.__ARM_common_switch8  syd8821_ble_slave.lib(main.o)
    0x10007132   0x10007132   0x00000002   PAD
    0x10007134   0x10007134   0x0000008c   Code   RO          641    x$fpl$fadd          fz_ps.l(faddsub.o)
    0x100071c0   0x100071c0   0x000000d0   Code   RO          643    x$fpl$fsub          fz_ps.l(faddsub.o)
    0x10007290   0x10007290   0x00000000   Code   RO          654    x$fpl$usenofp       fz_ps.l(usenofp.o)
    0x10007290   0x10007290   0x0000028e   Data   RO            5    .constdata          main.o
    0x1000751e   0x1000751e   0x00000032   Data   RO          473    .constdata          syd8821_ble_slave.lib(rom.o)
    0x10007550   0x10007550   0x00000020   Data   RO          508    .constdata          syd8821_ble_slave.lib(pmu.o)
    0x10007570   0x10007570   0x0000020b   Data   RO          594    .constdata          syd8821_ble_slave.lib(aes.o)
    0x1000777b   0x1000777b   0x00000080   Data   RO          631    .constdata          fz_ps.l(ddiv.o)
    0x100077fb   0x100077fb   0x00000001   PAD
    0x100077fc   0x100077fc   0x00000020   Data   RO          815    Region$$Table       anon$$obj.o


    Execution Region RW_IRAM1 (Exec base: 0x20000000, Load base: 0x1000781c, Size: 0x00006a58, Max: 0x00028000, ABSOLUTE)

    Exec Addr    Load Addr    Size         Type   Attr      Idx    E Section Name        Object

    0x20000000   0x1000781c   0x0000003f   Data   RW            6    .data               main.o
    0x2000003f   0x1000785b   0x00000001   PAD
    0x20000040   0x1000785c   0x0000000c   Data   RW          100    .data               gpio.o
    0x2000004c   0x10007868   0x00000008   Data   RW          160    .data               pad_mux_ctrl.o
    0x20000054   0x10007870   0x00000008   Data   RW          186    .data               uart.o
    0x2000005c   0x10007878   0x00000014   Data   RW          269    .data               timer.o
    0x20000070   0x1000788c   0x0000000c   Data   RW          295    .data               ota.o
    0x2000007c   0x10007898   0x00000004   Data   RW          376    .data               system_armcm0.o
    0x20000080   0x1000789c   0x00000014   Data   RW          403    .data               syd8821_ble_slave.lib(main.o)
    0x20000094   0x100078b0   0x0000006f   Data   RW          474    .data               syd8821_ble_slave.lib(rom.o)
    0x20000103   0x1000791f   0x00000001   PAD
    0x20000104   0x10007920   0x00000004   Data   RW          509    .data               syd8821_ble_slave.lib(pmu.o)
    0x20000108        -       0x00000014   Zero   RW            4    .bss                main.o
    0x2000011c        -       0x00000420   Zero   RW          185    .bss                uart.o
    0x2000053c        -       0x00000014   Zero   RW          268    .bss                timer.o
    0x20000550        -       0x00000028   Zero   RW          294    .bss                ota.o
    0x20000578        -       0x0000104d   Zero   RW          402    .bss                syd8821_ble_slave.lib(main.o)
    0x200015c5   0x10007924   0x00000003   PAD
    0x200015c8        -       0x0000041f   Zero   RW          472    .bss                syd8821_ble_slave.lib(rom.o)
    0x200019e7        -       0x00000010   Zero   RW          561    .bss                syd8821_ble_slave.lib(aec-ccm.o)
    0x200019f7   0x10007924   0x00000001   PAD
    0x200019f8        -       0x00000060   Zero   RW          688    .bss                c_p.l(libspace.o)
    0x20001a58        -       0x00004000   Zero   RW          367    HEAP                startup_armcm0.o
    0x20005a58        -       0x00001000   Zero   RW          366    STACK               startup_armcm0.o


==============================================================================

Image component sizes


      Code (inc. data)   RO Data    RW Data    ZI Data      Debug   Object Name

         0          0          0          0          0      34560   delay.o
       872         16          0         12          0      46985   gpio.o
      2524        254        654         63         20      64321   main.o
       424         22          0         12         40       3710   ota.o
       144          4          0          8          0       1837   pad_mux_ctrl.o
       226          0          0          0          0       2391   queue.o
        56         26        192          0      20480        724   startup_armcm0.o
        24          8          0          4          0        877   system_armcm0.o
       452         10          0         20         20       3080   timer.o
       640         24          0          8       1056      11791   uart.o

    ----------------------------------------------------------------------
      5364        364        878        128      21616     170276   Object Totals
         0          0         32          0          0          0   (incl. Generated)
         2          0          0          1          0          0   (incl. Padding)

    ----------------------------------------------------------------------

      Code (inc. data)   RO Data    RW Data    ZI Data      Debug   Library Member Name

         8          0          0          0          0         68   __main.o
         0          0          0          0          0          0   __rtentry.o
        12          0          0          0          0          0   __rtentry2.o
         6          0          0          0          0          0   __rtentry4.o
        60          8          0          0          0          0   __scatter.o
        26          0          0          0          0          0   __scatter_copy.o
        28          0          0          0          0          0   __scatter_zi.o
       346          0          0          0          0         92   aeabi_sdiv.o
        16          0          0          0          0         68   exit.o
         6          0          0          0          0        136   heapauxi.o
         0          0          0          0          0          0   indicate_semi.o
         2          0          0          0          0          0   libinit.o
         2          0          0          0          0          0   libinit2.o
         2          0          0          0          0          0   libshutdown.o
         2          0          0          0          0          0   libshutdown2.o
         8          4          0          0         96         68   libspace.o
        90          0          0          0          0         68   memcmp.o
        64          0          0          0          0        108   rt_memclr.o
       186          0          0          0          0        144   rt_memcpy.o
         2          0          0          0          0          0   rtexit.o
        10          0          0          0          0          0   rtexit2.o
        12          4          0          0          0         60   sys_exit.o
        62          0          0          0          0         80   sys_stackheap_outer.o
        34          0          0          0          0         60   uread4.o
         2          0          0          0          0         68   use_no_semi.o
        16          0          0          0          0         60   uwrite4.o
       856         20          0          0          0        208   daddsub.o
      1096         26        128          0          0        112   ddiv.o
        72          4          0          0          0         68   dfixui.o
        88          0          0          0          0         92   dflti.o
       584         26          0          0          0         84   dmul.o
        84          4          0          0          0         60   f2d.o
       348          8          0          0          0        160   faddsub.o
        94          0          0          0          0         92   fflti.o
         0          0          0          0          0          0   usenofp.o
      1408          4          0          0         16       8115   aec-ccm.o
      2292         12        523          0          0       3442   aes.o
      6018        378          0         20       4173     122285   main.o
       504         34         32          4          0      11032   pmu.o
      9314        452         50        111       1055      24191   rom.o

    ----------------------------------------------------------------------
     23772        984        734        136       5344     171021   Library Totals
        12          0          1          1          4          0   (incl. Padding)

    ----------------------------------------------------------------------

      Code (inc. data)   RO Data    RW Data    ZI Data      Debug   Library Name

      1002         16          0          0         96       1080   c_p.l
      3222         88        128          0          0        876   fz_ps.l
     19536        880        605        135       5244     169065   syd8821_ble_slave.lib

    ----------------------------------------------------------------------
     23772        984        734        136       5344     171021   Library Totals

    ----------------------------------------------------------------------

==============================================================================


      Code (inc. data)   RO Data    RW Data    ZI Data      Debug   

     29136       1348       1612        264      26960     339405   Grand Totals
     29136       1348       1612        264      26960     339405   ELF Image Totals
     29136       1348       1612        264          0          0   ROM Totals

==============================================================================

    Total RO  Size (Code + RO Data)                30748 (  30.03kB)
    Total RW  Size (RW Data + ZI Data)             27224 (  26.59kB)
    Total ROM Size (Code + RO Data + RW Data)      31012 (  30.29kB)

==============================================================================

