:020000041000EA
:10000000F89B01203D140010451400104714001007
:1000100000000000000000000000000000000000E0
:100020000000000000000000000000004914001063
:1000300000000000000000004B1400104D140010E0
:10004000FF0800104F1400104F1400104F14001040
:10005000E90F00100D100010150B00104F140010C8
:100060004F1400104F1400104F1400104F140010C4
:100070004F1400104F1400104F1400104F140010B4
:100080004F1400104F1400104F1400104F140010A4
:100090004F1400104F1400104F1400104F14001094
:1000A0004F140010BF0B00104F1400104F1400101D
:1000B0004F1400104F1400104F1400104F14001074
:1000C0000348854601F0F2FB00480047D5000010C8
:1000D000F89B01200025002472B60021192000F0B1
:1000E00094FC0021172000F090FC0021222000F059
:1000F0008CFC00210A2000F088FC0121192000F06E
:1001000004FB0121172000F000FB0121222000F058
:10011000FCFA01210A2000F0F8FA00210E2000F07C
:1001200074FC00210F2000F070FC0021102000F072
:100130006CFC0021112000F068FC00210E2000F072
:100140007CFA00210F2000F078FA0021102000F046
:1001500074FA0021112000F070FA0721142000F039
:1001600054FC0721152000F050FC00F041FE37A0A0
:1001700000F044FE06210C2000F047FC06210D2073
:1001800000F043FC0021084600F098FF0121002008
:1001900000F057FF0121002000F067FF012100203F
:1001A00000F09BFF0420002805DBC206D20E0121CF
:1001B00091402D4A116000BF00F0E2F82BA200210F
:1001C000084600F00BFA2CA20221002000F006FAEB
:1001D0002DA20421002000F001FA2FA20621002008
:1001E00000F0FCF92022304930A000F044FE20222B
:1001F000314932A000F03FFE334800F0CBFB62B63D
:1002000023E00A2000F0AEFA294630A000F0F6FD07
:10021000314E002402E03570761C641C2F48844265
:10022000F9D3002409E07D20C00060432A4A8118E8
:1002300010222BA000F01FFE641C642CF3D3681C5A
:10024000C5B27D20C00000F0A5FBDAE75359443861
:10025000383231204341434845203234384B422024
:1002600044454D4F0D0A000000E100E05359442081
:1002700054454B2E00000000535944383832312089
:10028000426F617264000000436163686520343925
:10029000364B422073616D006D6169643A7069612B
:1002A0006F72616E0000000056230010666C61736F
:1002B000685F313A0D0A0000F6A90110666C61739F
:1002C000685F323A0D0A0000B80B0000766F6C3A96
:1002D00025780D0A0000000000000020A086010023
:1002E00052414D5F313A0D0A0000000001B582B065
:1002F000012002AB00223C210090104600F0D6FF06
:100300000EBD01B582B0012002AB40223C2100901D
:10031000002000F0CBFF0EBD70B50646002415E0AE
:100320002146B031C8B2FFF7E1FF0120FFF7DEFF41
:100330001020FFF7DBFF002504E03046FFF7E1FF68
:10034000681CC5B2802DF8DB601CC4B2082CE7DB4A
:1003500070BD70B504460D462946B031C8B2FFF7EE
:10036000C5FFF0212140091108461030FFF7BEFFFC
:100370002107090F012211430846FFF7B7FF70BD9F
:1003800010B500210E2000F040FB00210E2000F0EF
:10039000BCF90A2000F0FEFA0E2000F0F8F90A205D
:1003A00000F0F8FAAE20FFF7A1FF0020FFF79EFF54
:1003B0001020FFF79BFF4020FFF798FF8120FFF7F9
:1003C00095FFCF20FFF792FFA120FFF78FFFC820F6
:1003D000FFF78CFFA620FFF789FFA820FFF786FF15
:1003E0003F20FFF783FFD320FFF780FF0020FFF7B8
:1003F0007DFFD520FFF77AFF8020FFF777FFD92018
:10040000FFF774FFF120FFF771FFDA20FFF76EFFAF
:100410001220FFF76BFFDB20FFF768FF4020FFF79C
:1004200065FF2020FFF762FF0220FFF75FFF8D20AE
:10043000FFF75CFF1420FFF759FFA420FFF756FFDA
:10044000A620FFF753FFAF20FFF750FF0020FFF774
:1004500063FF00210846FFF77CFF10BDF7B582B0AF
:1004600004461546002001900026002720E0E85DA4
:100470002038C0B201907E2C04DD00240398401C7B
:10048000C0B2039020460399FFF763FF002609E0FE
:10049000062201995143634A8918885DFFF731FFAD
:1004A000701CC6B2062EF3DBA01DC4B2781CC7B206
:1004B000E85D0028DBD105B0F0BDFEB505460E466F
:1004C0001746002001900024009034E00098385C2A
:1004D0002038C0B20190782D02DD0025701CC6B214
:1004E00031462846FFF735FF002408E0019909014D
:1004F00009194D4A505CFFF704FF601CC4B2082C78
:10050000F4DB701CC1B22846FFF723FF002409E08A
:100510000199090109190831434A505CFFF7F1FEBE
:10052000601CC4B2082CF3DB28460830C5B2009822
:10053000401CC0B200900098385C0028C6D1FEBDB7
:10054000F7B582B00746164643E000243BE023207F
:10055000604336494018203000783178884230D1E5
:100560002320604331494018203040787178884218
:1005700027D1039AD1B2F8B2FFF7EBFE00250AE0CB
:100580002320604329494018405D01900198FFF7FE
:10059000B8FE681CC5B2102DF2DB039A521CD1B212
:1005A000F8B2FFF7D6FE0AE0232060431F49401847
:1005B000405D01900198FFF7A4FE681CC5B2202D94
:1005C000F2DB601C84B2402CC1DBB61C3846103014
:1005D00087B230780028B8D105B0F0BD0FB4F8B5B7
:1005E00005460E4600240898002803D1F8BC08BC34
:1005F00004B0184709A800900D48009A089901F026
:1006000025FAC4B200200090802C00DD8024002058
:10061000074908550A4631462846FFF74EFF00BFF6
:10062000E4E70000173203103F3403109630031044
:10063000D8860120D3490860704770B5024620244F
:100640001440630920251446AC430125A5402846E3
:100650009C00CD4D2C592075050A6575050CA575B6
:10066000050EE575002B13D0002908D1C74D6D7D0F
:100670000543ECB2C54D6D7DC44E747515E0C34D98
:100680006D7D85432C46C14D6D7DC04E74750CE06B
:10069000002905D1BD4C64680443BC4D6C6004E086
:1006A000BA4C64688443B94D6C6070BD70B5024645
:1006B00020241440630920251446AC430125A5409D
:1006C0002846002B13D0002908D0B04DED7D0543FE
:1006D000ECB2AE4DED7DAD4EF47515E0AB4DED7D5C
:1006E00085432C46A94DED7DA84EF4750CE00029FC
:1006F00005D0A64CE4680443A44DEC6004E0A34C90
:10070000E4688443A14DEC6070BD30B50B462024F5
:100710000440610920250446AC430125A5402A4632
:100720008C00994D2C592276150A6576150CA57604
:10073000150EE576002B0AD08C00934D2C592271B2
:10074000150A6571150CA571150EE57109E08C008F
:100750008D4D2C592272150A6572150CA572150E55
:10076000E57230BD10B5202303405909202403460B
:10077000A34301249C4022468B00834CE3581A7308
:10078000140A5C73140C9C73140EDC7310BD10B54A
:1007900020230340590920240346A34301249C40FD
:1007A00022468B00784CE3581A71140A5C71140CC1
:1007B0009C71140EDC7110BD10B520230340590943
:1007C00020240346A34301249C4022468B006E4C08
:1007D000E3581A72140A5C72140C9C72140EDC72C8
:1007E00010BD30B5014620200840420920240846AB
:1007F000A0430124844023469000634C205840309D
:10080000102404192578284665782D022843A578F8
:100810002D042843E478240620431840002801D002
:10082000012030BD0020FCE7F0B503460C4615461C
:1008300020221A40500920261A46B243012696402B
:100840003146002C0BD182004F4EB258403211720B
:100850000E0A56720E0C96720E0ED6720AE08200C6
:10086000494EB258403211710E0A56710E0C9671F3
:100870000E0ED671002D0BD18200434EB25820329D
:1008800011760E0A56760E0C96760E0ED6760AE085
:1008900082003D4EB258203211750E0A56750E0C6C
:1008A00096750E0ED6758200374EB25820321171F1
:1008B0000E0A56710E0C96710E0ED6710022002A89
:1008C00005DBD706FF0E0126BE40314F3E6000BF5C
:1008D000F0BD10B520230340590920240346A3434B
:1008E00001249C4022468B00274CE35820331A7287
:1008F000140A5C72140C9C72140EDC7210BD70B57C
:1009000000243CE0A0002049085840301421411840
:100910000A7810464A78120210438A78120410436B
:10092000C97809060843A100174A515820310A46E0
:100930001378194653781B02194393781B04194303
:10094000D2781206114308400546002D00D114E06C
:100950000C480068002804D029462046094A12683D
:100960009047A0000849085840300575290A41758C
:10097000290C8175290EC17500BF601CC4B2022C00
:10098000C0DB70BDA8860120A08601204010005069
:1009900000E100E0002109E0002201E0531C9AB2CE
:1009A0007D239B019A42F9DB4B1C99B28142F3DB18
:1009B0007047002107E0002201E0531C9AB2092A87
:1009C000FBDB4B1C99B28142F5DB704710B5014649
:1009D000272901DA002902DA0020C04310BDCC0724
:1009E000E40F202904DA4A101B480068835C05E004
:1009F00008462038421018484068835C002C01D01B
:100A00001811EBE71807000FE8E770B5272801DA9F
:100A1000002800DA70BD0907090FC407E40F202879
:100A200004DA43100C4E3668F21805E00646203E04
:100A30007310094E7668F2181578002C01D00F2635
:100A400000E0F0263540002C01D00E07310E2E4676
:100A50000E43167000BFDDE7AC860120002815DBD1
:100A6000C206D20E01219140944A116000BF00BF1E
:100A700000BFBFF34F8F00BF00BF00BF00BF00BF6C
:100A800000BFBFF36F8F00BF00BF00BF704770B5DE
:100A900004460D460620FFF7E1FF8948006800780C
:100AA000000900012907090F0843854909680870F2
:100AB00083480068007880218843E101802211404A
:100AC00008437F49096808707D4800680078402124
:100AD00088437B4909680870794800688078082154
:100AE00088430830764909688870920075497648CD
:100AF00000F00AFA7548406A402108437349486289
:100B00000846006A4021084370490862062000F048
:100B1000CBF870BD70B56A4800680478302060403A
:100B200005466748006805701020204000280DD059
:100B300000BF634800680179634800F01DFA60480F
:100B40000068C078C007C00F0028F2D070BD70B533
:100B500004460D461920FFF781FF59484068007888
:100B6000000900012907090F084355494968087021
:100B700053484068007880218843E1018022114079
:100B800008434F49496808704D4840680078402143
:100B900088434B4949680870494840688078082173
:100BA0008843083046494968887092004849464859
:100BB000103000F0A9F9192000F076F870BD70B57A
:100BC0003F48406804783020604005463C48406813
:100BD00005701020204000280ED000BF3848406823
:100BE00001793948103000F0C7F935484068C078BD
:100BF000C007C00F0028F1D070BDF0B50B4601242E
:100C00002404002112E000BF85002D4E7559ED78B7
:100C10002D07ED0F002DF7D1850075596D785E5CBD
:100C200035468600264FBE597570491C9142EADB55
:100C300000E0641E8500224E7559ED786D07ED0FBA
:100C4000002D01D1002CF4D1F0BD70B504460D4645
:100C500021011D4A8818294600F09CF970BD70B525
:100C600004460D4600BF022C01DB002070BD2101AF
:100C7000154A881800F0A3F900280AD1200112496A
:100C80004018C5682101104A881800F0A1F9C0B2C7
:100C9000ECE70020EAE70146012901DD002070476A
:100CA0008800074A1058FAE7002806DBC206D20E71
:100CB00001219140014A803A1160704780E100E0D3
:100CC000B486012078870120588701200080022007
:100CD0007889012010B502460620002815DBC406DD
:100CE000E40E0123A3407F4C236000BF00BF00BF80
:100CF000BFF34F8F00BF00BF00BF00BF00BF00BFEA
:100D0000BFF36F8F00BF00BF00BF00BF7648006811
:100D10000078000900010B071B0F1843724B1B687A
:100D2000187071480068007880239843D3018024AC
:100D3000234018436C4B1B6818706B4800680078A0
:100D4000402398434030684B1B6818706648006821
:100D5000C078102398431030634B1B68D8706248EA
:100D6000006880780823984308305F4B1B689870B0
:100D70005E48406A402318435C4B58621846006A3C
:100D800040231843594B18620620002806DBC4068E
:100D9000E40E0123A340534C803C236000BF10BDF0
:100DA000F0B50B4601242404002112E000BF8500A9
:100DB0004D4E7559ED782D07ED0F002DF7D18500BB
:100DC00075596D785E5C35468600474FBE59757023
:100DD000491C9142EADB00E0641E8500424E7559D1
:100DE000ED786D07ED0F002D01D1002CF4D1F0BD91
:100DF00010B508210020FFF76DFF10BD0FB438B506
:100E000000240498002803D138BC08BC04B018475B
:100E100005A800903648009A049900F017FEC4B265
:100E200000200090802C00DD8024224630490020E4
:100E3000FFF7B6FF00BFE7E70FB438B5054600245B
:100E40000598002803D138BC08BC04B0184706A890
:100E500000902748009A059900F0F8FDC4B20020E0
:100E60000090802C00DD8024224621492846FFF78F
:100E700097FF00BFE7E7F8B505460E461746002482
:100E8000002D02D02846FFF7B9FF00241BE02046C2
:100E9000E117490F0918C910C900611A03D1A1B29D
:100EA00014A0FFF7ABFF315D14A0FFF7A7FF601C94
:100EB000C117490F0918C910C900411A02D111A060
:100EC000FFF79CFF641CBC42E1DB2046E117490FA1
:100ED0000918C910C900611A02D00AA0FFF78EFFD5
:100EE000F8BD000080E100E0BC8601200080022007
:100EF000788B01205B253034785D200025303278F6
:100F0000200000000D0A000000234360036082609F
:100F1000C1607047416801607047F8B504460F46EC
:100F2000154660684019A168884219DBA088281A14
:100F300086B26268E16888183246394600F098FA4D
:100F4000A81B85B22068A84202DC2088401E85B21A
:100F5000B9192A46E06800F08BFA65607019F8BD8F
:100F60006268E16888182A46394600F081FA6068AC
:100F7000401960602846F2E702465368581C5060EA
:100F8000D068C15493685068984201DB00205060DB
:100F900001207047024653681068984201D1002032
:100FA00070471368581C1060D068C05C0870936864
:100FB0001068984201DB002010600120F0E7014634
:100FC0004A680868904201D1012070470020FCE780
:100FD000014600224B680868984200DD8A6848682C
:100FE00080180B68C01A704710B5F84800680028D0
:100FF00002D0F64908688047F54800684079400803
:101000004000401CF2490968487110BD10B5EF4816
:101010004068002802D0ED4948688047EC484068A5
:10102000407940084000401CE9494968487110BDBA
:1010300001468800E64A105870478200E34B9950F9
:10104000704710B58200E24B9A581278520852004D
:10105000002901D0012300E00023DB07DB0F1A4346
:101060008300DB4CE3581A7010BD10B58200D84BDA
:101070009A58127952085200002901D1012300E048
:101080000023DB07DB0F1A438300D14CE3581A71AE
:1010900010BD10B58200CE4B9A58D27C08239A43DB
:1010A000002901D0012300E00023DB0008242340B5
:1010B0001A438300C64CE358DA7410BD10B58200A1
:1010C000C34B9A58D27CD208D2004B075B0F1A430D
:1010D0008300BF4CE358DA7410BD10B58200BC4BDE
:1010E0009A58927C80239A43002901D0012300E082
:1010F0000023DB01802423401A438300B44CE358CF
:101100009A7410BDFFB581B004460E461D460A9F75
:10111000B807800F002805D1002D03DDFF20013026
:10112000854206DDABA10020FFF786FE002005B05A
:10113000F0BDA000A64908580078C007C00F0028DD
:1011400005D12246AAA1FFF777FE0020EFE7A00015
:101150009F490958C878897800020843AB4908407C
:10116000E901AA4AD24311400843A100984A5158C4
:101170008870000AC870A000114608580772390A22
:101180004172390C8172390EC172A00011460858A3
:10119000807CC009C0017106490E0843A100515866
:1011A0008874A00011460958487C097C0002084355
:1011B000039989B20846A10051580874000A48747E
:1011C000A00011460858407840084000401CA1008B
:1011D000515848700120AAE7FFB581B004460E4679
:1011E0001D460A9FB807800F002805D1002D03DD9A
:1011F000FF200130854206DD76A10020FFF71CFEAE
:10120000002005B0F0BDA000714908580078C00763
:10121000C00F002805D1224675A1FFF70DFE002062
:10122000EFE7A0006A490858817842780802104325
:1012300077490840A901764AD24311400843A100EA
:10124000634A51584870000A8870A0001146085837
:101250000773390A4173390C8173390EC173A000C9
:1012600011460858807CC009C0017106490E084328
:10127000A10051588874A00011460958487C097C87
:1012800000020843039989B20846A1005158087426
:10129000000A4874A000114608584078022188438B
:1012A000801CA100515848700120AAE7FEB50446F1
:1012B0000E4617461D46A000454908580079C0074C
:1012C000C00F029000200190A0000858007940084B
:1012D0004000401CA1003E4A51580871A000114630
:1012E0000858407940084000401CA10051584871FE
:1012F00000953A4631462046089BFFF76DFF0028CF
:1013000013D000BFA000324908588079C007C00F31
:101310000028F7D0A0000858407940084000401C41
:10132000A1002B4A5158487101E001200190A00012
:10133000274908580079400840000299C907C90F99
:101340000843A100224A515808710198FEBDFEB51C
:1013500004460E4617461D46A0001D490858007950
:10136000C007C00F029000200190A000085800792B
:1013700040084000401CA100154A51580871A000C7
:1013800011460858407940084000401CA1005158BF
:10139000487100953A4631462046089BFFF7B2FE59
:1013A000002837D000BFA000094908588079C0073D
:1013B000C00F0028F7D0A00008584079400840002E
:1013C000401CA100024A5158487125E0CC860120FA
:1013D000C4860120444D4120706172616D65746561
:1013E0007220696E636F72726563740D0A0000008B
:1013F000493243204D6173746572202564206973FE
:101400002064697361626C65640D0A007F00FFFFF0
:101410003F80FFFF01200190A00007490858007994
:10142000400840000299C907C90F0843A100024AB9
:10143000515808710198FEBDC486012004488047B8
:1014400004480047FEE7FEE7FEE7FEE7FEE7FEE7AB
:1014500061140010C100001003480449086070477F
:10146000014802490860704740787D01D486012018
:1014700003460B439B0703D009E008C9121F08C0AD
:10148000042AFAD203E00B780370401C491C521E58
:10149000F9D2704730B50B460146002020220124C6
:1014A00009E00D46D5409D4205D31D469540491B98
:1014B0002546954040191546521E002DF1DC30BDE1
:1014C000F0B51FB40646002082B0054640240191C5
:1014D00000901BE0019922460F46304600F008FAC2
:1014E000049A059B801A994110D31046194622464A
:1014F00000F0EEF9361A8F410197224601200021B3
:10150000009F00F0E5F938184D4100902046641E18
:101510000028DFDC019B00982946324607B0F0BD69
:10152000F0B507460846584087B0C00F0490480001
:101530000E46590040084908BC1A884105D2384671
:1015400031461E4617460B460246580040081043D7
:101550004CD0300D039040055900400D490D0590C9
:10156000401A0290402872DA18030121000B090585
:101570000843019004980092002805D00199524236
:101580000020884100920190029840210A1A019996
:10159000009800F09DF905460C466B4607CB00F01D
:1015A000B8F9C0197141039A0E0D0023D7175640A0
:1015B0001A467A40164344D0049A002A2DD0029A43
:1015C000012A039A15DC1205C01A9141012636053D
:1015D000001C7141D20F059ED20700930192029622
:1015E0002A46234600F0B5F907B0F0BD384631462B
:1015F000FAE71605224A0F46B218C01AB741012170
:101600000905001C4F4100187F4111461818794107
:10161000E20F10436D19644113E0E2076D081543B2
:101620006408C2071443039A01261205C01A9141A7
:101630003605001C7141CE07400830434908C018E8
:1016400051412A46234600F077F9CDE7FFE7049899
:1016500001224000C117121A00238B410498314621
:10166000C417381AA141EEE730B40124E4076340FF
:1016700030BC55E730B40124E407614030BC4FE78B
:101680000000E0FFF0B51FB488B00B990998002462
:1016900048400999C00F490049080991C0070B99B2
:1016A0000090490049080B9109990898A6460843FB
:1016B0001CD00B990A98084318D0099801244000BF
:1016C000420D4800410D099824050003000B2043FA
:1016D00009900B980003000B20430B9050181C49F5
:1016E0004018002201901446104605E000200146F3
:1016F0000DB0F0BD032801DA034600E003239C4649
:10170000C11A0AAE0AE05F0008ADED5B4F00F75B5F
:101710007D430027AA187C41491C5B1E6145F2DD10
:10172000410004AB5A522104120C0A43240C401C01
:101730000828DFDB01980290009970460191009023
:10174000059B049A0799069800F003F9D0E700007A
:101750000DFCFFFFF0B50C465C4085B0E40FE407DC
:1017600003944C0000266408590094464908024638
:101770000296224321D062460A431ED06200570DD2
:101780004A000E032303550D012402462C4924056B
:10179000781B1B0B360B40182343264361460090F1
:1017A0001C46501AB44103D30098401C009002E03C
:1017B000921800985B41002803DA0020014605B02A
:1017C000F0BD0020012109050746864611E0644668
:1017D0001D46141BB54106D36546521BB3417446E2
:1017E00007430C43A646CD074008490828439218F2
:1017F0005B4105460D43EAD11046184313D06046BD
:10180000194650407140084306D06046101AB34153
:1018100006D20122002306E000220123DB0702E0BA
:101820000122D2435310009874460105381C6141CF
:10183000029C039D0019694100F07EF8BFE700009B
:10184000FD0300004A0009030123090B1B0519438E
:101850000A4B10B5520D9A4202DA0020014610BD23
:10186000064B34339A4203DC9A1A00F041F810BD5B
:10187000034BD21800F02CF810BD0000FF0300004D
:10188000CDFBFFFF10B5002904DB0124E407404233
:101890008C412146002B04DB1C460123DB0752420E
:1018A000A341994200D1904210BD0000064C012591
:1018B000064E05E0E36807CC2B430C3C98471034F8
:1018C000B442F7D3FEF700FC303A0310503A03104D
:1018D00010B5202A04DB0146203A9140002010BDBB
:1018E000914020239C1A0346E3401943904010BDC9
:1018F00010B5202A04DB0846203AD040002110BD54
:101900000B46D340D0402024A21A914008431946E8
:1019100010BD10B5202A06DBCB170846203A10412F
:10192000C1170B4306E00B461341D0402024A21AF6
:1019300091400843194610BD10B5002B08DA002469
:10194000401C614192185B411A4301D1400840009C
:1019500010BDF0B51FB482B005460C0003D0084698
:1019600000F086F802E000F083F820300246009094
:1019700021462846FFF7ACFF049B059A04460F4614
:1019800018431143084314D0184610431BD0009845
:1019900040210A1A18460599FFF7AAFF05460E4688
:1019A000009A05990498FFF793FF084305D001209A
:1019B00004E02046394607B0F0BD0020C1170543BA
:1019C0000E432C43374300990E986305401A79055E
:1019D000E40A00220C43FD0A0A3002D50020014629
:1019E000E9E70105101969410C9C0D9D0019694139
:1019F000FFF7A2FFDFE770B58C180578401C6B0776
:101A00005B0F01D10378401C2A1106D10278401CDB
:101A100003E006780E70401C491C5B1EF9D12B07B1
:101A200005D40023521E0DD40B70491CFAE703782D
:101A3000401CCB1A921C03E01D780D70491C5B1CE6
:101A4000521EF9D5A142D8D3002070BD37B5144637
:101A50000846064B6A46214600F0DCF80446694613
:101A6000002000F073FC20463EBD00004D23001016
:101A70002021020C01D010211046020A01D010468C
:101A80000839020901D01046091F820801D010460A
:101A9000891E420801D0881E7047081A704702E06C
:101AA00008C8121F08C1002AFAD1704770470020E9
:101AB00001E001C1121F002AFBD17047F0B51FB42D
:101AC00084B007980699020D014314D04A484B4947
:101AD0001018484305140F9801280E981CD0281A96
:101AE000401C0024464E4749009401910290002872
:101AF00014DA474227E00F98012443A3012808D0B5
:101B0000002104980F9A84600360C260416009B0AC
:101B1000F0BD0E98C143F4E74042E2E7074612E009
:101B2000F80707D02246334601990098FFF7AAFD2F
:101B3000019100902246334610461946FFF7A2FD58
:101B400004460E467F10002FEAD10298019B002820
:101B5000009A0799069802DAFFF794FD01E0FFF773
:101B6000F9FD04460E460022284BFFF78BFE03D8F2
:101B70000020C043014607E00022254B20463146A5
:101B8000FFF7CEFCFFF75EFE102409E0002C0ADB15
:101B90000A220023FFF794FC059B30321A55641E7D
:101BA00002460A43F2D11122641C059B121B1C1928
:101BB0000F9B012B03D0012308430ED10AE00843F9
:101BC00004D011200E9000200F9084E70E98151A73
:101BD0006D1E0BE00E98824202DD00236D1C03E0B7
:101BE000824201DA00236D1E002BEED004980F997B
:101BF0008260C16030C08AE701FCFFFF104D000029
:101C0000000024400000F03F300000000000F043DE
:101C10000000E03FFFB597B00646002518E22528F2
:101C200077D100242746FD49049400E00443761C44
:101C300032780120203A90400842F7D130782A28A3
:101C40000ED00222307801463039092916D804997D
:101C50000A235943303940181443761C0490F1E7A5
:101C6000189802C804911890002904DA0120400352
:101C700004434842049002200443761C30782E2806
:101C800014D1042004437078761C2A2809D11898AE
:101C9000761C80C8189009E00A214F43303FC719CD
:101CA000761C3078014630390929F5D930786C280E
:101CB00010D006DC4C281AD068280ED06A2817D11C
:101CC00004E0742813D07A2812D110E001204005D6
:101CD00004430CE00121090501E0032109050C433F
:101CE0007178814203D1012000052418761C761CEE
:101CF0003078119066280BD013DC58287DD009DC91
:101D000000287BD04528F6D04628F4D047281AD1A1
:101D1000A5E118E0632835D0642870D0652812D179
:101D20009DE170286CD008DC6728F1D069287BD051
:101D30006E280DD06F2806D1BAE073282ED07528F2
:101D400071D0782859D01A9A199990476D1C7EE164
:101D50006002400F022809D003280DD004281898EB
:101D600001680DD00D60001D189070E11898EA17F9
:101D700001680D604A60F6E7189801680D80F2E787
:101D80000D70F0E718986A4601781172001D1890DE
:101D90000020507202A80090012005E0189802C8A7
:101DA000189000200091C04361070DD5002101E08B
:101DB0000199491C0191B94212DA8142F8DB009A7B
:101DC000515C0029F4D10BE0002101E00199491C8C
:101DD00001918142FADB019A0099895C0029F5D1D1
:101DE000019904981A9B471A21463846199A00F01F
:101DF00097FA0199401945180BE04FE02CE113E0E8
:101E00004EE0009800990078491C00911A9A19999F
:101E100090470198401E0190401CF2D1214638465F
:101E20001A9B199A10E137E00A20002100900191D5
:101E30006002410F022907D0189A01CA1892C217EE
:101E40009446032908D00AE01898C01DC108C900AB
:101E500005C91891944607E000B2C21794460429B8
:101E600002D140B2C1178C4600226146944506DA81
:101E70000A460021404291418C462D2102E0210575
:101E800004D52B216A461173012103E0E10701D03B
:101E90002021F7E7029155E00A200AE0102008E02F
:101EA000102000900021042004430191082703E042
:101EB00008200021019100906002410F022907D003
:101EC000189A01CA189200229446032908D008E003
:101ED0001898C01DC108C90005C91891944603E0AF
:101EE00080B2042900D1C0B200210291210729D576
:101EF0001199702906D0009A1021019B4A401A437B
:101F000005D00EE040216A461173012108E06146C8
:101F1000014306D030216A46117311995173022191
:101F20000291009A0821019B4A401A430AD1614656
:101F3000014301D1610705D530216A4611730121A2
:101F40007F1E02911199582904D035A10E910DA937
:101F50000D910DE037A1F9E76146019B009AFFF76B
:101F6000AFFA0E9B8C469B5C0D9A521E0D9213701D
:101F700061460143F0D10D9805A9081A203001905F
:101F8000600703D501200004844300E00127019885
:101F9000874201DD381A00E00020019900904118C5
:101FA000029809180498401A0490E00306D42146C8
:101FB0001A9B199A049800F0B3F94519002706E016
:101FC00003A81A9AC05D199990476D1C7F1C02984E
:101FD0008742F5DBE0030CD521461A9B199A049839
:101FE00000F09EF9451904E01A9A3020199990479B
:101FF0006D1C0099481E00900029F5DC08E00D9842
:102000000D990078491C0D911A9A199990476D1CE9
:102010000199481E01900029F1DC63E109280100C3
:10202000303132333435363738396162636465664E
:102030000000000030313233343536373839414210
:10204000434445460000000000F05AF94519761C4B
:102050003078002800D0E2E528461BB0F0BD6007CC
:1020600000D406271898C01DC108C90048680A682E
:102070000831C30FDB071891190001D09CA108E0BB
:10208000210501D59BA104E0E10701D09AA100E060
:102090009AA1430011985B08109165280CD006DCCA
:1020A000452809D046281DD0472841D141E066285F
:1020B00018D067283CD13CE00021112F01DB112012
:1020C00000E0781C0191009008A911A8FFF7F6FC28
:1020D000139905910021119A15927F1C129801976E
:1020E000009150E00120C00703900120019008A951
:1020F000009711A8FFF7E2FC139A149905920022A9
:10210000119B009212981593059A0192002901D013
:10211000104602E0791C40180190381A01D5019848
:1021200004E04042401E0090781C0190C01B0290C9
:1021300043E0012F00DA01270021112F01DD1120DA
:1021400000E038460191009008A911A8FFF7B6FCFD
:1021500013990591119A00211298159200910197F7
:1021600021070CD40599B94201DB019900E00191E6
:10217000012904DD159A491E515C302906D0B84268
:1021800001DA011D05DA0121029115E00199491ECC
:10219000EDE7002805DC0099411800910199091A22
:1021A00003E0019A411C914200DD01910099401A1F
:1021B000401C02900120C0070390200706D402991A
:1021C0000198814202DB0020C04302900020694652
:1021D000C87707AF012103980337C907884224D085
:1021E000022011902B201290039800280CDA404214
:1021F00003902D20129007E00A210398FFF74AF977
:1022000030317F1E039039701199481E11900029BA
:10221000F2DC03980028EFD1791E1298087030780C
:10222000202108404530BF1E387006A8C01BC01DC5
:10223000039010980078002800D0012001994118DF
:102240000298C0170918039809180498401A401EEC
:102250000490E00306D421461A9B199A049800F0D2
:102260005FF8451910980078002803D01A9A199938
:1022700090476D1CE00324D521461A9B199A0498B7
:1022800000F04EF845191CE00098002807DB009983
:102290000598884203DD1598405C199901E0199969
:1022A00030201A9A904700986D1C401C00900298AC
:1022B000401E0290002804D11A9A2E2019999047A6
:1022C0006D1C0199481E01900029DDDC05E038787D
:1022D0001A9A7F1C199990476D1C0399481E039008
:1022E0000029F4DC21461A9B199A0498ACE60000F8
:1022F0002D0000002B000000200000000000000066
:10230000F8B5044600251E461746880404D405E0A7
:1023100039462020B0476D1C641EF9D52846F8BD0B
:10232000FFB50446002581B01E46C80301D53027FD
:1023300000E02027880404D505E038460399B0471B
:102340006D1C641EF9D5284605B0F0BD0A68531C03
:102350000B6010707047CCCCCCCCCCCCCCCCCCCCE3
:10236000CCCCCCCCCCCCCCCCCCCCCCCCCCCCCCCCAD
:10237000CCCCCCCCCCCCCCCCCCCCCCCCCCCCCCCC9D
:10238000CCCCCCCCCCCCCCCCCCCCCCCCCCCCCCCC8D
:10239000CCCCCCCCCCCCCCCCCCCCCCCCCCCCCCCC7D
:020000041001E9
:10A99000CCCC00000000000000000000000000001F
:10A9A00000000000000000000000000000000000A7
:10A9B0000000000000000000000000000000000097
:10A9C0000000000000000000000000000000000087
:10A9D0000000000000000000000000000000000077
:10A9E0000000000000000000000000000000000067
:10A9F000000000000000DDDDDDDDDDDDDDDDDDDDB5
:10AA0000DDDDDDDDDDDDDDDDDDDDDDDDDDDDDDDD76
:10AA1000DDDDDDDDDDDDDDDDDDDDDDDDDDDDDDDD66
:10AA2000DDDDDDDDDDDDDDDDDDDDDDDDDDDDDDDD56
:10AA3000DDDDDDDDDDDDDDDDDDDDDDDDDDDDDDDD46
:020000041003E7
:10309000DDDDDDDDDDDD0020202020FF000000FF84
:1030A0004020100800002060201010FF0000003FAA
:1030B000404040407800B1B100040404E4242425D9
:1030C00026242424E4040404000040201B0242823D
:1030D0007E0202020B10600000BEA9000000FC246A
:1030E0002424E4041F648445368400004443784863
:1030F000497A494C4A7948497A474000CAA20010A7
:1031000060028C00FE02F2525A565252F202000441
:10311000047E41300F201349817F0109132000D420
:10312000B400404042CC00101010907F901010105E
:1031300010000040201F2048444241404041424C82
:103140004000B4EF002424A4FEA3220022CC0000FF
:10315000FF00000000080601FF000104040404044D
:10316000FF02020200BFC600101010FF1090088876
:103170008888FF88888808000444827F0180804016
:10318000432C102846818000BCBC0004040484E465
:103190003C2724242424E40404040004020100FF46
:1031A0000909090949897F00000000D3D00000FE09
:1031B000225A8600FE9292929292FE00000000FF38
:1031C00004080700FF4020030C1422414000CFDE1A
:1031D0000000804020180680000718204080000072
:1031E00000010020702826212020243860000101E1
:1031F00000B9AB00001012929292929292121202B7
:10320000FE0000000000003F101010103F00408042
:103210007F000000CBBE00000000000000000000A6
:103220002F000000000700070000147F147F140027
:10323000242A7F2A1200626408132300364955228B
:103240005000000503000000001C22410000004166
:10325000221C000014083E08140008083E0808005C
:103260000000A06000000808080808000060600076
:1032700000002010080402003E5149453E00004273
:103280007F4000004261514946002141454B3100D9
:103290001814127F10002745454539003C4A49491A
:1032A00030000171090503003649494936000649D5
:1032B00049291E0000363600000000563600000086
:1032C00008142241000014141414140000412214A4
:1032D0000800020151090600324959513E007C1292
:1032E00011127C007F49494936003E41414122008C
:1032F0007F4141221C007F49494941007F0909095A
:1033000001003E4149497A007F0808087F000041DA
:103310007F4100002040413F01007F08142241000E
:103320007F40404040007F020C027F007F04081075
:103330007F003E4141413E007F09090906003E41B0
:1033400051215E007F09192946004649494931004B
:1033500001017F0101003F4040403F001F2040200D
:103360001F003F4038403F00631408146300070803
:1033700070080700615149454300007F414100004A
:10338000552A552A55000041417F000004020102E0
:10339000040040404040400000010204000020546E
:1033A000545478007F484444380038444444200052
:1033B000384444487F00385454541800087E0901AA
:1033C000020018A4A4A47C007F0804047800004430
:1033D0007D4000004080847D00007F102844000074
:1033E00000417F4000007C04180478007C0804043D
:1033F0007800384444443800FC242424180018245D
:103400002418FC007C08040408004854545420008C
:10341000043F444020003C4040207C001C204020D1
:103420001C003C4030403C004428102844001CA0B4
:10343000A0A07C004464544C4414141414141400CC
:10344000000000000000000000000000000000007C
:103450000000F80000000000000033300000000011
:10346000100C06100C0600000000000000000040D8
:10347000C07840C0784000043F04043F04040000CA
:103480007088FC08300000001820FF211E0000F0AA
:1034900008F000E018000000211C031E211E00009F
:1034A000F00888700000001E212324192721101025
:1034B000160E0000000000000000000000000000E8
:1034C0000000E0180402000000000718204000007F
:1034D000020418E00000000040201807000000402F
:1034E0004080F0804040000202010F010202000013
:1034F0000000F0000000000101011F0101010000B7
:103500000000000000000080B0700000000000001B
:1035100000000000000000000101010101010100A4
:10352000000000000000000030300000000000003B
:103530000000008060180400601806010000000010
:10354000E010080810E000000F102020100F00000D
:103550001010F8000000000020203F202000000094
:1035600070080808887000003028242221300000EC
:10357000300888884830000018202020110E0000F4
:1035800000C02010F8000000070424243F2400009D
:10359000F80888880808000019212020110E000072
:1035A000E0108888180000000F112020110E000084
:1035B000380808C83808000000003F00000000007C
:1035C00070880808887000001C222121221C00003D
:1035D000E010080810E0000000312222110F000066
:1035E0000000C0C0000000000000303000000000FB
:1035F000000080000000000000806000000000006B
:103600000080402010080000010204081020004043
:10361000404040404040000404040404040400000E
:103620000810204080000000201008040201000063
:103630007048080808F0000000003036010000C0A3
:1036400030C828E810E0000718272423140B0000D6
:1036500000C038E0000000203C2302022738200888
:10366000F8888888700000203F202020110E00C0BC
:103670003008080808380007182020201008000823
:10368000F808080810E000203F202020100F000854
:10369000F88888E8081000203F2020232018000820
:1036A000F88888E8081000203F200003000000C0D0
:1036B0003008080838000007182020221E020008E1
:1036C000F808000008F808203F210101213F2000F0
:1036D0000808F8080800000020203F202000000013
:1036E000000808F8080800C08080807F00000008FB
:1036F000F888C028180800203F200126382000083C
:10370000F8080000000000203F20202020300008A2
:10371000F8F800F8F80800203F003F003F200008BC
:10372000F830C00008F808203F200007183F00E0EC
:103730001008080810E0000F10202020100F0008CB
:10374000F808080808F000203F210101010000E00E
:103750001008080810E0000F18242438504F000803
:10376000F8888888887000203F2000030C302000F3
:10377000708808080838000038202121221C001811
:103780000808F8080818000000203F200000000882
:10379000F808000008F808001F202020201F00085B
:1037A00078880000C83808000007380E010000F8CB
:1037B0000800F80008F800033C0700073C03000875
:1037C0001868808068180820302C03032C302008EB
:1037D00038C800C83808000000203F200000001052
:1037E000080808C8380800203826212020180000C2
:1037F0000000FE020202000000007F404040000086
:103800000C30C000000000000000010638C00000BD
:10381000020202FE000000004040407F0000000065
:10382000000402020204000000000000000000008A
:103830000000000000000080808080808080800088
:103840000202040000000000000000000000000070
:10385000008080808000000019242222223F20085E
:10386000F8008080000000003F112020110E0000B1
:1038700000008080800000000E1120202011000038
:103880000000808088F800000E112020103F2000EA
:1038900000808080800000001F222222221300006E
:1038A0008080F0888888180020203F2020000000B9
:1038B00000808080808000006B9494949360000866
:1038C000F8008080800000203F210000203F200081
:1038D000809898000000000020203F202000000079
:1038E0000000809898000000C08080807F00000861
:1038F000F8000080808000203F24022D302000004E
:103900000808F8000000000020203F202000008070
:1039100080808080808000203F20003F20003F800A
:1039200080008080800000203F210000203F200098
:1039300000808080800000001F202020201F008049
:103940008000808000000080FFA12020110E000078
:1039500000008080808000000E112020A0FF808069
:103960008080008080800020203F21200001000016
:1039700000808080808000003324242424190000EB
:103980008080E0808000000000001F202000008078
:1039900080000000808000001F202020103F208039
:1039A0008080000080808000010E300806010080C9
:1039B000800080008080800F300C030C300F0000EE
:1039C000808000808080000020312E0E3120008019
:1039D0008080000080808080818E70180601000049
:1039E000808080808080000021302C2221300000E7
:1039F000000000807C020200000000003F40400008
:103A0000000000FF00000000000000FF00000000B8
:103A100002027C800000000040403F0000000000E7
:103A20000601010202040400000000000000000082
:103A3000503A031000000020D8860100F61900104B
:103A4000883D0310D886012020150000AE1A001012
:103A500002FFAA01FF01FF01FF01FF01FF01FF01BA
:103A6000FF01FF01FF01FF01FF01FF01FF01FF0156
:103A7000FF01FF01FF01FF01FF01FF01FF01FF0146
:103A8000FF01FF01FF01FF01FF01FF01FF01FF0136
:103A9000FF01FF01FF01FF01FF01FF01FF01FF0126
:103D6000FF012A1B508004411360101B508C041E5D
:103D700070B00250780469081A40041A540481058E
:083D80000040787D0100000005
:04000005100000C126
:00000001FF
