:020000041000EA
:10000000683400201D1A0010251A0010271A00104D
:1000100000000000000000000000000000000000E0
:10002000000000000000000000000000291A00107D
:1000300000000000000000002B1A00102D1A001014
:10004000FB0400102F1A00102F1A00102F1A001096
:100050002F1A00102F1A0010110700102F1A00106D
:100060002F1A00102F1A00102F1A00102F1A00102C
:100070002F1A00102F1A00102F1A00102F1A00101C
:100080002F1A00102F1A00102F1A00102F1A00100C
:100090002F1A00102F1A00102F1A00102F1A0010FC
:1000A0002F1A0010BB0700102F1A00102F1A001073
:1000B0002F1A00102F1A00102F1A00102F1A0010DC
:1000C0000348854601F010FD00480047D5000010A8
:1000D0006834002072B60021192000F094FA002143
:1000E000172000F090FA0021222000F08CFA002165
:1000F0000A2000F088FA0121192000F004F90121FA
:10010000172000F000F90121222000F0FCF8012165
:100110000A2000F0F8F800210E2000F074FA002107
:100120000F2000F070FA0021102000F06CFA00217E
:10013000112000F068FA00210E2000F07CF8002168
:100140000F2000F078F80021102000F074F8002152
:10015000112000F070F80721142000F054FA072154
:10016000152000F050FA0821002000F08EFA12222B
:100170001CA1002000F03FFB01F0E4F862B600BFD4
:1001800018A1002001F0EBFB00BF29E00A2000F0DD
:10019000E7F80E2000F023F900280CD10B2216A15D
:1001A00000F029FB00BF18A1002001F0D8FB00BF20
:1001B000192000F0D5F80F2000F011F900280CD11B
:1001C0000B2214A100F017FB00BF16A1002001F0C4
:1001D000C6FB00BF172000F0C3F8642000F0D8F978
:1001E000D4E7000053594438383231205254542057
:1001F000544553540D0A00004B45593120444F5784
:100200004E0D0A0D0A0000004B45593120444F574E
:100210004E0D0A004B45593220444F574E0D0A0DE2
:100220000A0000004B45593220444F574E0D0A003A
:10023000D3490860704770B5024620241440630912
:1002400020251446AC430125A54028469C00CD4DF1
:100250002C592075050A6575050CA575050EE57503
:10026000002B13D0002908D1C74D6D7D0543ECB29A
:10027000C54D6D7DC44E747515E0C34D6D7D8543D0
:100280002C46C14D6D7DC04E74750CE0002905D122
:10029000BD4C64680443BC4D6C6004E0BA4C6468B7
:1002A0008443B94D6C6070BD70B502462024144083
:1002B000630920251446AC430125A5402846002BA0
:1002C00013D0002908D0B04DED7D0543ECB2AE4D02
:1002D000ED7DAD4EF47515E0AB4DED7D85432C46BF
:1002E000A94DED7DA84EF4750CE0002905D0A64C73
:1002F000E4680443A44DEC6004E0A34CE468844348
:10030000A14DEC6070BD30B50B462024044061095E
:1003100020250446AC430125A5402A468C00994D72
:100320002C592276150A6576150CA576150EE576FC
:10033000002B0AD08C00934D2C592271150A65713F
:10034000150CA571150EE57109E08C008D4D2C5929
:100350002272150A6572150CA572150EE57230BD74
:1003600010B520230340590920240346A343012448
:100370009C4022468B00834CE3581A73140A5C732A
:10038000140C9C73140EDC7310BD10B520230340B5
:10039000590920240346A34301249C4022468B0094
:1003A000784CE3581A71140A5C71140C9C71140E89
:1003B000DC7110BD10B520230340590920240346E9
:1003C000A34301249C4022468B006E4CE3581A72D2
:1003D000140A5C72140C9C72140EDC7210BD30B5E1
:1003E000014620200840420920240846A043012459
:1003F000844023469000634C205840301024041958
:100400002578284665782D022843A5782D042843B1
:10041000E478240620431840002801D0012030BD94
:100420000020FCE7F0B503460C46154620221A4092
:10043000500920261A46B243012696403146002C28
:100440000BD182004F4EB258403211720E0A5672D2
:100450000E0C96720E0ED6720AE08200494EB25809
:10046000403211710E0A56710E0C96710E0ED67135
:10047000002D0BD18200434EB258203211760E0A65
:1004800056760E0C96760E0ED6760AE082003D4E1B
:10049000B258203211750E0A56750E0C96750E0E56
:1004A000D6758200374EB258203211710E0A56713D
:1004B0000E0C96710E0ED6710022002A05DBD706AF
:1004C000FF0E0126BE40314F3E6000BFF0BD10B5AB
:1004D00020230340590920240346A34301249C40C0
:1004E00022468B00274CE35820331A72140A5C72A0
:1004F000140C9C72140EDC7210BD70B500243CE02C
:10050000A000204908584030142141180A781046AC
:100510004A78120210438A7812041043C9780906F7
:100520000843A100174A515820310A46137819464A
:1005300053781B02194393781B041943D27812068F
:10054000114308400546002D00D114E00C48006816
:10055000002804D029462046094A12689047A00086
:100560000849085840300575290A4175290C8175DC
:10057000290EC17500BF601CC4B2022CC0DB70BD67
:1005800008000020000000204010005000E100E0C2
:10059000002109E0002201E0531C9AB27D239B0157
:1005A0009A42F9DB4B1C99B28142F3DB7047002180
:1005B00007E0002201E0531C9AB2092AFBDB4B1C26
:1005C00099B28142F5DB704710B50146272901DA5F
:1005D000002902DA0020C04310BDCC07E40F202917
:1005E00004DA4A101B480068835C05E0084620389E
:1005F000421018484068835C002C01D01811EBE7CA
:100600001807000FE8E770B5272801DA002800DA9C
:1006100070BD0907090FC407E40F202804DA43104E
:100620000C4E3668F21805E00646203E7310094E5F
:100630007668F2181578002C01D00F2600E0F0261D
:100640003540002C01D00E07310E2E460E43167099
:1006500000BFDDE70C000020002815DBC206D20E2B
:1006600001219140944A116000BF00BF00BFBFF359
:100670004F8F00BF00BF00BF00BF00BF00BFBFF370
:100680006F8F00BF00BF00BF704770B504460D46B6
:100690000620FFF7E1FF89480068007800090001A3
:1006A0002907090F084385490968087083480068CD
:1006B000007880218843E1018022114008437F496E
:1006C000096808707D4800680078402188437B49AC
:1006D00009680870794800688078082188430830E4
:1006E00076490968887092007549764800F0F0F8FC
:1006F0007548406A40210843734948620846006AC9
:100700004021084370490862062000F0CBF870BD14
:1007100070B56A4800680478302060400546674834
:10072000006805701020204000280DD000BF6348ED
:1007300000680179634800F003F960480068C078F8
:10074000C007C00F0028F2D070BD70B504460D463A
:100750001920FFF781FF594840680078000900011F
:100760002907090F084355494968087053484068EC
:10077000007880218843E1018022114008434F49DD
:10078000496808704D4840680078402188434B49CB
:1007900049680870494840688078082188430830D3
:1007A000464949688870920048494648103000F030
:1007B0008FF8192000F076F870BD70B53F4840689A
:1007C00004783020604005463C48406805701020A1
:1007D000204000280ED000BF3848406801793948D1
:1007E000103000F0ADF835484068C078C007C00F41
:1007F0000028F1D070BDF0B50B460124240400217F
:1008000012E000BF85002D4E7559ED782D07ED0FD4
:10081000002DF7D1850075596D785E5C35468600F0
:10082000264FBE597570491C9142EADB00E0641EF8
:100830008500224E7559ED786D07ED0F002D01D121
:10084000002CF4D1F0BD70B504460D4621011D4ABF
:100850008818294600F082F870BD70B504460D4630
:1008600000BF022C01DB002070BD2101154A881851
:1008700000F089F800280AD1200112494018C56803
:100880002101104A881800F087F8C0B2ECE7002078
:10089000EAE70146012901DD002070478800074A88
:1008A0001058FAE7002806DBC206D20E012191405B
:1008B000014A803A1160704780E100E01400002096
:1008C0005400002034000020008002205402002048
:1008D0000023436003608260C1607047416801602B
:1008E0007047F8B504460F46154660684019A16880
:1008F000884219DBA088281A86B26268E1688818E5
:100900003246394601F0CEF8A81B85B22068A842CD
:1009100002DC2088401E85B2B9192A46E06801F041
:10092000C1F865607019F8BD6268E16888182A46E8
:10093000394601F0B7F86068401960602846F2E770
:1009400002465368581C5060D068C1549368506880
:10095000984201DB00205060012070470246536836
:100960001068984201D1002070471368581C10602D
:10097000D068C05C087093681068984201DB002062
:1009800010600120F0E701464A680868904201D1F2
:10099000012070470020FCE7014600224B680868F0
:1009A000984200DD8A68486880180B68C01A704752
:1009B00010B5F94C032020616061F8A0A061FA49EC
:1009C000E1610121490321620021A1626162E162CA
:1009D000F2A02066F54961661021A1660021216719
:1009E000E1666167F2A1E01D01F075F8F1A1204612
:1009F00001F071F82020A07110BDF7B582B0044657
:100A0000174600200190E56800BF2069009000981B
:100A1000A84203D90098401B461E04E0A168009834
:100A2000281A401C0E1AA068401BB04201D930465B
:100A300001E0A068401B0646BE4201D2304600E0FD
:100A400038460646616848193246039901F02AF88B
:100A5000019880190190039880190390BF1BAD196C
:100A6000A068A84200D10025E560002FCDD10198F3
:100A700005B0F0BDF7B582B004461546E668A0683B
:100A8000871BAF4208D9616888192A46039901F08B
:100A900009F87019E06010E0019761688819019AFF
:100AA000039900F0FFFFE81B0190039AD1196068D9
:100AB000019A00F0F7FF0198E06005B0F0BD38B58D
:100AC00005460C46FF2168460170BC48015D68463A
:100AD0004170022269462846FFF78FFF38BD10B5E6
:100AE00001460A69CB689A4204D88C68641EE41AED
:100AF000A01801E0D41A601E10BDF7B584B01746E7
:100B000000BFA5480078002801D1FFF751FF00BFC2
:100B1000182104984843A04960314618059801906F
:100B20003569F0680290002003900298854219D937
:100B3000B068441BBC4201D2204600E0384604465F
:100B4000706841192246019800F0ACFF0398001923
:100B500003900198001901903F1B2D19B068A8421D
:100B600000D100250298441BBC4201D2204600E07F
:100B700038460446002C0DD0706841192246019871
:100B800000F090FF0398001903900198001901905C
:100B90003F1B2D190398002800D03561039807B03A
:100BA000F0BDF8B504460D461646EFF31080074633
:100BB000012080F3108800BF00BF3246294620463E
:100BC000FFF79BFF0090F8B280F3108800BF00BFD2
:100BD0000098F8BDF7B582B0074616460398019015
:100BE000182078436C49183144182169E06888421C
:100BF00002D1A068451E0EE02169E068884204D257
:100C00002069E168401A451E05E02069E168401A44
:100C1000401EA1684518AE420CD92069711B4018CE
:100C2000206103E02069A168401A20612069A16861
:100C30008842F7D2E168A068451A00BFB5420AD9D8
:100C4000E268616888183246019900F02BFFE0687D
:100C50008019E06010E0E268616888182A4601990E
:100C600000F020FF0198401901900020E060761B01
:100C7000A068451E002EE1D100BF05B0F0BDF7B55C
:100C800084B01646059803901821049848434249B9
:100C90001831441820690290E5680298A84236D8B5
:100CA000A068401E471BB7420AD361684819324604
:100CB000039900F0F7FEA819E060012007B0F0BD2D
:100CC00002983F18B74231D3A068401B01900198A9
:100CD000B04208D9616848193246039900F0E2FE33
:100CE000A819E06011E061684819019A039900F0C1
:100CF000D9FE0198321A019B0398C11860680090D0
:100D000000F0D0FE0198301AE0600120D6E702988A
:100D1000401B471EB74209D3616848193246039900
:100D200000F0C0FEA819E0600120C7E70020C5E779
:100D3000F7B582B00746164603980190182078430D
:100D4000154918314018009000984069002804D0D7
:100D5000012811D002283AD132E00098FFF7BFFEF7
:100D60000546B54201D2002405E0344632460199D9
:100D70000098FFF77FFE2CE00098FFF7B0FE0546D5
:100D8000B54201D2284600E0304604462246019989
:100D90000098FFF76FFE1CE0007F02205465726D23
:100DA000696E616C0000000054040020542400208F
:100DB0005254540053454747455200001C00002040
:100DC000324601990098FFF718FE044601E000241E
:100DD00000BF00BF204605B0F0BDF8B504460D4683
:100DE000164600BFFE480078002801D1FFF7E0FD5D
:100DF00000BFEFF310800746012080F3108800BF8A
:100E000000BF324629462046FFF792FF0090F8B215
:100E100080F3108800BF00BF0098F8BD70B505468C
:100E20000C46204600F050FE064632462146284633
:100E3000FFF7D3FF70BD70B503460C4618255D4320
:100E4000E74E1836A919CD686A1C8D68954200D105
:100E500000220D69954205D0CE684D68AC55CA6038
:100E6000012000E0002070BDF3B581B0074600BF4F
:100E7000DB480078002801D1FFF79AFD00BFEFF3AF
:100E80001080012181F3108800BF00BF1821794331
:100E9000D34A18328C18E1684D1CA168A94200D1D0
:100EA00000252169A94206D00299E3686268D154FD
:100EB000E560012600E00026C1B281F3108800BF82
:100EC00000BF3046FEBDF3B581B0074600BFC44841
:100ED0000078002801D1FFF76BFD00BFEFF3108011
:100EE000012181F3108800BF00BF18217943BC4A5B
:100EF00018328C18E1684D1CA168A94200D1002568
:100F00006169022903D100BF2169A942FCD021698E
:100F1000A94206D00299E3686268D154E5600126CF
:100F200000E00026C1B281F3108800BF00BF304648
:100F3000FEBD38B5012269460020FFF732FE0446A7
:100F4000012C02D16846047801E00024E4432046E5
:100F500038BD10B500BFFFF7ECFF0028FBDB10BD6C
:100F600070B500BF9E480078002801D1FFF720FD32
:100F700000BF9B48056FC06EA84201D0012400E06D
:100F80000024204670BD10B5014618204843944CFB
:100F900060340219D3681069181A10BDFFB581B00A
:100FA00005460E46174600BF8D480078002801D13F
:100FB000FFF7FEFC00BFEFF310810846012181F32B
:100FC000108800BF00BF002400BF18216143844A7D
:100FD000603289184968002900D104E0641C804906
:100FE0004969A142F1DC00BF7D494969A1421DDD8B
:100FF000182161437A4A603255501821614389189B
:101000004E601821614389188F60002218216143C6
:10101000734B6033C9180A6118216143C918CA604B
:1010200018226243D2180499516101E00024E4437C
:10103000C1B281F3108800BF00BF204605B0F0BDEB
:10104000FFB581B005460E46174600BF64480078DC
:10105000002801D1FFF7ACFC00BFEFF31081084678
:10106000012181F3108800BF00BF002400BF1821B8
:1010700061435B4A183289184968002900D104E0AD
:10108000641C57490969A142F1DC00BF5449096950
:10109000A1421DDD18216143514A183255501821D3
:1010A000614389184E601821614389188F600022BE
:1010B000182161434A4B1833C9180A61182161434A
:1010C000C918CA6018226243D2180499516101E01C
:1010D0000024E443C1B281F3108800BF00BF204662
:1010E00005B0F0BDFFB581B004460E46174600BFFF
:1010F0003B480078002801D1FFF75AFC00BF384870
:101100000069A04230D9EFF310810846012181F334
:10111000108800BF00BF002C18D018216143304A4E
:10112000183256501821614389184F6018226243C3
:101130002B4B1833D2180499916000221821614377
:10114000C9180A6118216143C918CA60182262438C
:10115000234B1833D2180A995161C1B281F3108818
:1011600000BF00BF002501E00025ED43284605B083
:10117000F0BDFFB581B004460E46174600BF1848C3
:101180000078002801D1FFF713FC00BF1448406924
:10119000A04232D9EFF310810846012181F3108873
:1011A00000BF00BF002C18D0182161430C4A6032E8
:1011B00056501821614389184F6018226243084B2A
:1011C0006033D21804999160002218216143C91834
:1011D0000A6118216143C918CA601822624301E0FC
:1011E000007F0220BA4BD2180A995161C1B281F333
:1011F000108800BF00BF002501E00025ED43284610
:1012000005B0F0BD70B504460E4600BFB04860386A
:101210000078002801D1FFF7CBFB00BFAC48603855
:101220000069A04212D9EFF31080012181F31088E8
:1012300000BF00BF18216143A54A483A5650C1B2C9
:1012400081F3108800BF00BF002501E00025ED43B9
:10125000284670BD70B504460E4600BF9C486038F5
:101260000078002801D1FFF7A3FB00BF9848603841
:101270004069A04211D9EFF31080012181F3108859
:1012800000BF00BF18216143914A5650C1B281F39B
:10129000108800BF00BF002501E00025ED4328466F
:1012A00070BD70B504460E4600BF894860380078AE
:1012B000002801D1FFF77CFB00BF8548603800693A
:1012C000A04213D9EFF31080012181F3108800BFF1
:1012D00000BF182161437E4A483A89184E61C1B265
:1012E00081F3108800BF00BF002501E00025ED4319
:1012F000284670BD70B504460E4600BF744860387D
:101300000078002801D1FFF753FB00BF7048603818
:101310004069A04212D9EFF31080012181F31088B7
:1013200000BF00BF18216143694A89184E61C1B2EC
:1013300081F3108800BF00BF002501E00025ED43C8
:10134000284670BD10B5FFF733FB10BDFEB504464F
:1013500000BF5F4860380078002801D1FFF728FB04
:1013600000BF0027FF2069460871102C30DA594869
:10137000005D4871564D483DEFF31080009001200C
:1013800080F3108800BF00BF287D8007800F0228EF
:1013900007D151480470022201A92846FFF72DFB0E
:1013A0000FE02846FFF79BFB0646022E07D34A486C
:1013B0000470022201A92846FFF75CFB01E0002728
:1013C000FF430098C0B280F3108800BF00BF01E067
:1013D0000027FF433846FEBDF3B583B0074600BF84
:1013E0003B4860380078002801D1FFF7E1FA00BFE0
:1013F000102F68DA364848380290049800F064FBF1
:101400000646EFF310800190012080F3108800BFA2
:1014100000BF0298FFF763FB05460298007D800736
:10142000800F002804D0012817D0022840D12FE0D7
:10143000301D854201D200240EE039460298FFF7A4
:101440003EFB324604990298FFF7D7FA0446224839
:1014500001780298FFF733FB2DE0042D02D200241F
:10146000E44314E039460298FFF729FB281FB042F5
:1014700001D9304600E0281F024604990298FFF780
:10148000BCFA0446144801780298FFF718FB12E0F2
:1014900039460298FFF713FB324604990298FFF78A
:1014A000ACFA04460C4801780298FFF708FB02E00A
:1014B0000024E44300BF00BF0198C0B280F310884D
:1014C00000BF00BF01E00024E443204605B0F0BDAA
:1014D000607F02201C0000202C00002070B5044614
:1014E0000E46A568681C6168814206D3206846558F
:1014F000681CA060E068401CE0606168A0688842E9
:101500000DD1A26821682069FFF767FCA1688842B5
:1015100003D00020C043E06001E00020A06070BD67
:10152000FFB585B0064617461D460E9C06980290EC
:1015300001200390019007E03946029800F088FAF4
:1015400002900198401C01900298B842F4D2019890
:10155000854200D901950F98C007C00F00281DD102
:10156000002C1BD002210F980840022804D1002D26
:1015700002D13020009001E02020009008E0641E9D
:1015800030460099FFF7AAFFF068002800DA04E06F
:10159000002C02D00198A042F1D300BFF0680028CF
:1015A00048DB0FE0012D01D96D1E08E00399069874
:1015B00000F04EFA04900498B84200D203E0039879
:1015C00078430390EEE700BF00BF0399069800F050
:1015D0003FFA04900399049848430699081A069024
:1015E000FE4A0498115C3046FFF778FFF068002847
:1015F00000DA07E03946039800F02AFA03900398CE
:101600000028E2D100BF0F98C007C00F002811D0FA
:10161000002C0FD008E0641E20213046FFF75EFF4B
:10162000F068002800DA04E0002C02D00198A04203
:10163000F1D300BF09B0F0BDFFB585B006460F4637
:101640000F9D0E9C002F01DA784200E0384603908F
:101650000120049007E00799039800F00FFA039027
:101660000498401C0490079903988842F3DA04997F
:101670000898884201D908980490002C06D0002FC1
:1016800003DB04202840042800D1641E02202840E7
:10169000002802D00898002815D0E807C00F0028BD
:1016A00011D1002C0FD008E0641E20213046FFF736
:1016B00015FFF068002800DA04E0002C02D004983E
:1016C000A042F1D300BFF06800283ADB002F05DA12
:1016D0007F422D213046FFF701FF07E0042028401C
:1016E000042803D12B213046FFF7F8FEF0680028CC
:1016F00027DB02202840022818D1E807C00F002865
:1017000014D10898002811D1002C0FD008E0641ED5
:1017100030213046FFF7E2FEF068002800DA04E0EE
:10172000002C02D00498A042F1D300BFF06800283A
:1017300007DB0195009439463046089B079AFFF76E
:10174000EFFE09B0F0BDF7B59AB00D46144602A8F9
:10175000159040201690002017901A98199000209C
:10176000189000BF2E786D1C002E00D1E4E0252ECD
:1017700079D100270120149000BF2E78232E12D09B
:101780002B2E0CD02D2E02D0302E10D103E00120B4
:1017900007436D1C0EE0022007436D1C0AE0042085
:1017A00007436D1C06E0082007436D1C02E0002083
:1017B000149000BF00BF14980028DED1129000BF23
:1017C0002E78302E01DB392E00DD08E06D1C0A2159
:1017D000129848433146303940181290F0E700BF64
:1017E000002013902E782E2E11D16D1C00BF2E7864
:1017F000302E01DB392E00DD08E06D1C0A21139824
:1018000048433146303940181390F0E700BF2E7836
:1018100000BF6C2E01D0682E02D16D1C2E7800E026
:1018200000E0F6E700BF702E63D008DC252E72D0F2
:10183000582E38D0632E09D0642E71D114E0732E47
:1018400040D0752E1FD0782E6AD12BE02168081D5C
:101850002060086814901498C0B2019015A80199EE
:10186000FFF73CFE5DE05FE02168081D206008682E
:1018700014901298019700900A2215A8139B1499AE
:10188000FFF7DAFE4DE02168081D2060086814901B
:101890001298019700900A2215A8139B1499FFF73C
:1018A0003FFE3EE000BF2168081D206008681490DC
:1018B000129801970090102215A8139B1499FFF716
:1018C0002FFE2EE02168081D20600868019000BFEF
:1018D000019806780198401C0190002E00D106E086
:1018E000314615A8FFF7FAFD18980028F0DA00BF76
:1018F00017E02168081D2060086814900020082166
:101900000B4610220091019015A81499FFF708FECC
:1019100007E000E004E0252115A8FFF7DFFD00E067
:1019200000BF00BF6D1C03E0314615A8FFF7D6FDD0
:101930001898002800DB15E700BF189800280BDD79
:101940001798002804D002A9179A1A98FFF745FAA9
:10195000179918984018189018981DB0F0BD0FB43A
:1019600038B5044606A800906A4620460599FFF758
:10197000EAFE054600200090284638BC08BC04B0AA
:101980001847FFB581B00D4616461F460024002DAE
:1019900003D029460198FFF7E2FF00242BE0204600
:1019A000E117490F0918C910C900611A04D1A2B280
:1019B0000BA10198FFF7D3FF325D0BA10198FFF750
:1019C000CEFF601CC117490F0918C910C900411A80
:1019D00003D107A10198FFF7C2FF0BE02A1B0010FB
:1019E0005B253034785D20002530327820000000FF
:1019F0000D0A0000641CBC42D1DB2046E117490FF0
:101A00000918C910C900611A03D003A10198FFF792
:101A1000A6FF05B0F0BD00000D0A00000448804795
:101A200004480047FEE7FEE7FEE7FEE7FEE7FEE7C5
:101A3000411A0010C10000100348044908607047B3
:101A4000014802490860704740787D01300000205D
:101A500030B50B46014600202022012409E00D4646
:101A6000D5409D4205D31D469540491B25469540CE
:101A700040191546521E002DF1DC30BD70B5002412
:101A80002546002801DA01244042002901DA012517
:101A90004942FFF7DDFFAC4200D04042002C00D0AD
:101AA000494270BD03460B439B0703D009E008C9B8
:101AB000121F08C0042AFAD203E00B780370401CFE
:101AC000491C521EF9D27047421C0178401C002963
:101AD000FBD1801A704703460A780270401C491CEB
:101AE000002AF9D118467047064C0125064E05E03C
:101AF000E36807CC2B430C3C98471034B442F7D32F
:101B0000FEF7E2FA3C1B00105C1B001002E008C864
:101B1000121F08C1002AFAD170477047002001E067
:101B200001C1121F002AFBD17047303132333435E6
:101B30003637383941424344454600005C1B0010AB
:101B400000000020340000000C1B0010901B00104F
:101B500034000020747F02001C1B001000000050A5
:101B60008000005000000000601000508C100050F9
:101B700070B0025078B002503031323334353637DD
:101B800038394142434445460000000040787D0119
:04000005100000C126
:00000001FF
