Component: ARM Compiler 5.06 (build 20) Tool: armlink [4d35a3]

==============================================================================

Section Cross References

    main.o(.text) refers to main.o(.text) for gap_s_ble_init
    main.o(.text) refers to pad_mux_ctrl.o(.text) for pad_mux_write
    main.o(.text) refers to gpio.o(.text) for gpo_config
    main.o(.text) refers to debug.o(.text) for dbg_init
    main.o(.text) refers to memseta.o(.text) for __aeabi_memclr4
    main.o(.text) refers to delay.o(.text) for delay_ms
    gpio.o(.text) refers to gpio.o(.data) for gpio_callback
    pad_mux_ctrl.o(.text) refers to pad_mux_ctrl.o(.data) for pad
    uart.o(.text) refers to queue.o(.text) for queue_init
    uart.o(.text) refers to uart.o(.data) for UART_CTRL
    uart.o(.text) refers to uart.o(.bss) for rx_buf
    debug.o(.text) refers to printfa.o(i.__0vsprintf) for __c89vsprintf
    debug.o(.text) refers to debug.o(.data) for UART_CTRL
    debug.o(.text) refers to debug.o(.bss) for s_formatBuffer
    queue.o(.text) refers to memcpya.o(.text) for __aeabi_memcpy
    startup_armcm0.o(RESET) refers to startup_armcm0.o(STACK) for __initial_sp
    startup_armcm0.o(RESET) refers to startup_armcm0.o(.text) for Reset_Handler
    startup_armcm0.o(RESET) refers to gpio.o(.text) for GPIO_IRQHandler
==============================================================================

Removing Unused input sections from the image.

    Removing main.o(.rev16_text), (4 bytes).
    Removing main.o(.revsh_text), (4 bytes).
    Removing gpio.o(.rev16_text), (4 bytes).
    Removing gpio.o(.revsh_text), (4 bytes).
    Removing delay.o(.rev16_text), (4 bytes).
    Removing delay.o(.revsh_text), (4 bytes).
    Removing pad_mux_ctrl.o(.rev16_text), (4 bytes).
    Removing pad_mux_ctrl.o(.revsh_text), (4 bytes).
    Removing uart.o(.rev16_text), (4 bytes).
    Removing uart.o(.revsh_text), (4 bytes).
    Removing debug.o(.rev16_text), (4 bytes).
    Removing debug.o(.revsh_text), (4 bytes).
    Removing queue.o(.rev16_text), (4 bytes).
    Removing queue.o(.revsh_text), (4 bytes).
    Removing startup_armcm0.o(HEAP), (16384 bytes).
    Removing system_armcm0.o(.rev16_text), (4 bytes).
    Removing system_armcm0.o(.revsh_text), (4 bytes).
    Removing main.o(.rev16_text), (4 bytes).
==============================================================================

Image Symbol Table

    Local Symbols

    Symbol Name                              Value     Ov Type        Size  Object(Section)

    ../clib/microlib/division.c              0x00000000   Number         0  uldiv.o ABSOLUTE
    ../clib/microlib/division.c              0x00000000   Number         0  idiv.o ABSOLUTE
    ../clib/microlib/division.c              0x00000000   Number         0  uidiv.o ABSOLUTE
    ../clib/microlib/init/entry.s            0x00000000   Number         0  entry10a.o ABSOLUTE
    ../clib/microlib/init/entry.s            0x00000000   Number         0  entry11a.o ABSOLUTE
    ../clib/microlib/init/entry.s            0x00000000   Number         0  entry.o ABSOLUTE
    ../clib/microlib/init/entry.s            0x00000000   Number         0  entry7a.o ABSOLUTE
    ../clib/microlib/init/entry.s            0x00000000   Number         0  entry7b.o ABSOLUTE
    ../clib/microlib/init/entry.s            0x00000000   Number         0  entry2.o ABSOLUTE
    ../clib/microlib/init/entry.s            0x00000000   Number         0  entry8a.o ABSOLUTE
    ../clib/microlib/init/entry.s            0x00000000   Number         0  entry8b.o ABSOLUTE
    ../clib/microlib/init/entry.s            0x00000000   Number         0  entry9a.o ABSOLUTE
    ../clib/microlib/init/entry.s            0x00000000   Number         0  entry10b.o ABSOLUTE
    ../clib/microlib/init/entry.s            0x00000000   Number         0  entry5.o ABSOLUTE
    ../clib/microlib/init/entry.s            0x00000000   Number         0  entry11b.o ABSOLUTE
    ../clib/microlib/init/entry.s            0x00000000   Number         0  entry9b.o ABSOLUTE
    ../clib/microlib/longlong.c              0x00000000   Number         0  llsshr.o ABSOLUTE
    ../clib/microlib/longlong.c              0x00000000   Number         0  llushr.o ABSOLUTE
    ../clib/microlib/longlong.c              0x00000000   Number         0  llshl.o ABSOLUTE
    ../clib/microlib/printf/printf.c         0x00000000   Number         0  printfa.o ABSOLUTE
    ../clib/microlib/stdio/fputc.c           0x00000000   Number         0  fputc.o ABSOLUTE
    ../clib/microlib/stdio/semi.s            0x00000000   Number         0  semi.o ABSOLUTE
    ../clib/microlib/stdio/streams.c         0x00000000   Number         0  stdout.o ABSOLUTE
    ../clib/microlib/string/memcmp.c         0x00000000   Number         0  memcmp.o ABSOLUTE
    ../clib/microlib/string/memcpy.c         0x00000000   Number         0  memcpya.o ABSOLUTE
    ../clib/microlib/string/memcpy.c         0x00000000   Number         0  memcpyb.o ABSOLUTE
    ../clib/microlib/string/memset.c         0x00000000   Number         0  memseta.o ABSOLUTE
    ../clib/microlib/stubs.s                 0x00000000   Number         0  iusefp.o ABSOLUTE
    ../clib/microlib/stubs.s                 0x00000000   Number         0  iusesemip.o ABSOLUTE
    ../clib/microlib/unhosted.c              0x00000000   Number         0  uread4.o ABSOLUTE
    ../clib/microlib/unhosted.c              0x00000000   Number         0  uwrite4.o ABSOLUTE
    ../fplib/microlib/f2d.c                  0x00000000   Number         0  f2d.o ABSOLUTE
    ../fplib/microlib/fpadd.c                0x00000000   Number         0  dadd.o ABSOLUTE
    ../fplib/microlib/fpadd.c                0x00000000   Number         0  fadd.o ABSOLUTE
    ../fplib/microlib/fpdiv.c                0x00000000   Number         0  ddiv.o ABSOLUTE
    ../fplib/microlib/fpepilogue.c           0x00000000   Number         0  depilogue.o ABSOLUTE
    ../fplib/microlib/fpepilogue.c           0x00000000   Number         0  fepilogue.o ABSOLUTE
    ../fplib/microlib/fpfix.c                0x00000000   Number         0  dfixui.o ABSOLUTE
    ../fplib/microlib/fpfix.c                0x00000000   Number         0  dfixul.o ABSOLUTE
    ../fplib/microlib/fpflt.c                0x00000000   Number         0  ffltui.o ABSOLUTE
    ../fplib/microlib/fpflt.c                0x00000000   Number         0  dfltui.o ABSOLUTE
    ../fplib/microlib/fpflt.c                0x00000000   Number         0  dflti.o ABSOLUTE
    ../fplib/microlib/fpmul.c                0x00000000   Number         0  dmul.o ABSOLUTE
    ..\..\..\Source\debug.c                  0x00000000   Number         0  debug.o ABSOLUTE
    ..\..\..\Source\delay.c                  0x00000000   Number         0  delay.o ABSOLUTE
    ..\..\..\Source\gpio.c                   0x00000000   Number         0  gpio.o ABSOLUTE
    ..\..\..\Source\pad_mux_ctrl.c           0x00000000   Number         0  pad_mux_ctrl.o ABSOLUTE
    ..\..\..\Source\queue.c                  0x00000000   Number         0  queue.o ABSOLUTE
    ..\..\..\Source\uart.c                   0x00000000   Number         0  uart.o ABSOLUTE
    ..\\..\\..\\Source\\debug.c              0x00000000   Number         0  debug.o ABSOLUTE
    ..\\..\\..\\Source\\delay.c              0x00000000   Number         0  delay.o ABSOLUTE
    ..\\..\\..\\Source\\gpio.c               0x00000000   Number         0  gpio.o ABSOLUTE
    ..\\..\\..\\Source\\pad_mux_ctrl.c       0x00000000   Number         0  pad_mux_ctrl.o ABSOLUTE
    ..\\..\\..\\Source\\queue.c              0x00000000   Number         0  queue.o ABSOLUTE
    ..\\..\\..\\Source\\uart.c               0x00000000   Number         0  uart.o ABSOLUTE
    ..\\main.c                               0x00000000   Number         0  main.o ABSOLUTE
    ..\main.c                                0x00000000   Number         0  main.o ABSOLUTE
    Driver\\aec-ccm.c                        0x00000000   Number         0  aec-ccm.o ABSOLUTE
    Driver\aec-ccm.c                         0x00000000   Number         0  aec-ccm.o ABSOLUTE
    Driver\aes.c                             0x00000000   Number         0  aes.o ABSOLUTE
    Main\\main.c                             0x00000000   Number         0  main.o ABSOLUTE
    Main\\pmu.c                              0x00000000   Number         0  pmu.o ABSOLUTE
    Main\\rom.c                              0x00000000   Number         0  rom.o ABSOLUTE
    Main\main.c                              0x00000000   Number         0  main.o ABSOLUTE
    Main\pmu.c                               0x00000000   Number         0  pmu.o ABSOLUTE
    Main\rom.c                               0x00000000   Number         0  rom.o ABSOLUTE
    RTE\Device\ARMCM0\startup_ARMCM0.s       0x00000000   Number         0  startup_armcm0.o ABSOLUTE
    RTE\Device\ARMCM0\system_ARMCM0.c        0x00000000   Number         0  system_armcm0.o ABSOLUTE
    RTE\\Device\\ARMCM0\\system_ARMCM0.c     0x00000000   Number         0  system_armcm0.o ABSOLUTE
    cdrcmple.s                               0x00000000   Number         0  cdrcmple.o ABSOLUTE
    dc.s                                     0x00000000   Number         0  dc.o ABSOLUTE
    handlers.s                               0x00000000   Number         0  handlers.o ABSOLUTE
    init.s                                   0x00000000   Number         0  init.o ABSOLUTE
    RESET                                    0x10000000   Section      192  startup_armcm0.o(RESET)
    .ARM.Collect$$$$00000000                 0x100000c0   Section        0  entry.o(.ARM.Collect$$$$00000000)
    .ARM.Collect$$$$00000001                 0x100000c0   Section        4  entry2.o(.ARM.Collect$$$$00000001)
    .ARM.Collect$$$$00000004                 0x100000c4   Section        4  entry5.o(.ARM.Collect$$$$00000004)
    .ARM.Collect$$$$00000008                 0x100000c8   Section        0  entry7b.o(.ARM.Collect$$$$00000008)
    .ARM.Collect$$$$0000000A                 0x100000c8   Section        0  entry8b.o(.ARM.Collect$$$$0000000A)
    .ARM.Collect$$$$0000000B                 0x100000c8   Section        8  entry9a.o(.ARM.Collect$$$$0000000B)
    .ARM.Collect$$$$0000000D                 0x100000d0   Section        0  entry10a.o(.ARM.Collect$$$$0000000D)
    .ARM.Collect$$$$0000000F                 0x100000d0   Section        0  entry11a.o(.ARM.Collect$$$$0000000F)
    .ARM.Collect$$$$00002712                 0x100000d0   Section        4  entry2.o(.ARM.Collect$$$$00002712)
    __lit__00000000                          0x100000d0   Data           4  entry2.o(.ARM.Collect$$$$00002712)
    .emb_text                                0x100000d4   Section        6  rom.o(.emb_text)
    .text                                    0x100000dc   Section        0  main.o(.text)
    .text                                    0x10000288   Section        0  gpio.o(.text)
    .text                                    0x100005f0   Section        0  delay.o(.text)
    .text                                    0x10000628   Section        0  pad_mux_ctrl.o(.text)
    .text                                    0x100006b8   Section        0  uart.o(.text)
    __NVIC_EnableIRQ                         0x100008d3   Thumb Code    26  uart.o(.text)
    __NVIC_DisableIRQ                        0x100008ed   Thumb Code    28  uart.o(.text)
    .text                                    0x10000920   Section        0  debug.o(.text)
    debug_uart_0_init                        0x10000921   Thumb Code   188  debug.o(.text)
    debug_uart_write                         0x100009dd   Thumb Code    80  debug.o(.text)
    .text                                    0x10000b44   Section        0  queue.o(.text)
    .text                                    0x10000c28   Section       28  startup_armcm0.o(.text)
    .text                                    0x10000c44   Section        0  system_armcm0.o(.text)
    .text                                    0x10000c5c   Section        0  main.o(.text)
    update_profile_data                      0x100013c9   Thumb Code    84  main.o(.text)
    .text                                    0x1000240c   Section        0  rom.o(.text)
    AttReadByGroupTypeRsp                    0x10002baf   Thumb Code   326  rom.o(.text)
    AttReadByTypeServiceRsp                  0x10002cf5   Thumb Code   234  rom.o(.text)
    AttReadByTypeChartRsp                    0x10002ddf   Thumb Code   286  rom.o(.text)
    AttReadByTypeValRsp                      0x10002efd   Thumb Code   462  rom.o(.text)
    AttReadByTypeReq                         0x100030cb   Thumb Code   122  rom.o(.text)
    FW_Encrypt_Packet                        0x10003145   Thumb Code   314  rom.o(.text)
    Get_OVER_SLPTH                           0x1000327f   Thumb Code    42  rom.o(.text)
    LLENCReq                                 0x100035c3   Thumb Code   526  rom.o(.text)
    LLTxStartENCRsp                          0x100037d1   Thumb Code   500  rom.o(.text)
    _LCRxPkt_Handler                         0x10004091   Thumb Code   592  rom.o(.text)
    _BBRXFIFO_Coex_Read                      0x10004795   Thumb Code    92  rom.o(.text)
    _rom_rx_sweyntooth_protect               0x100047f1   Thumb Code   172  rom.o(.text)
    _LCConnEvt_Handler                       0x1000489d   Thumb Code    68  rom.o(.text)
    LinkWakeup                               0x100048e1   Thumb Code   100  rom.o(.text)
    .text                                    0x1000496c   Section        0  pmu.o(.text)
    .text                                    0x10004b18   Section        0  aec-ccm.o(.text)
    ctr_next_ctr_block                       0x10004b19   Thumb Code    66  aec-ccm.o(.text)
    cbcmac_calc                              0x10004b5b   Thumb Code   318  aec-ccm.o(.text)
    cbcmac_verify                            0x10004c99   Thumb Code   344  aec-ccm.o(.text)
    ctr_payload                              0x10004df1   Thumb Code   112  aec-ccm.o(.text)
    ctr_mic                                  0x10004e61   Thumb Code    86  aec-ccm.o(.text)
    cbcmac_clear                             0x1000505f   Thumb Code    12  aec-ccm.o(.text)
    cbcmac_append                            0x1000506b   Thumb Code    42  aec-ccm.o(.text)
    .text                                    0x10005098   Section        0  aes.o(.text)
    expandKey                                0x10005099   Thumb Code   186  aes.o(.text)
    aes_encr                                 0x10005153   Thumb Code   912  aes.o(.text)
    aes_decr                                 0x100054e3   Thumb Code  1124  aes.o(.text)
    galois_mul2                              0x10005979   Thumb Code    20  aes.o(.text)
    .text                                    0x1000598c   Section        0  uidiv.o(.text)
    .text                                    0x100059b8   Section        0  idiv.o(.text)
    .text                                    0x100059e0   Section        0  memcpya.o(.text)
    .text                                    0x10005a04   Section        0  memseta.o(.text)
    .text                                    0x10005a28   Section        0  memcmp.o(.text)
    .text                                    0x10005a42   Section        0  uread4.o(.text)
    .text                                    0x10005a56   Section        0  uwrite4.o(.text)
    .text                                    0x10005a68   Section        0  fadd.o(.text)
    .text                                    0x10005b1c   Section        0  dadd.o(.text)
    .text                                    0x10005c80   Section        0  dmul.o(.text)
    .text                                    0x10005d50   Section        0  ddiv.o(.text)
    .text                                    0x10005e40   Section        0  ffltui.o(.text)
    .text                                    0x10005e50   Section        0  dflti.o(.text)
    .text                                    0x10005e78   Section        0  dfltui.o(.text)
    .text                                    0x10005e94   Section        0  dfixui.o(.text)
    .text                                    0x10005ed0   Section        0  f2d.o(.text)
    .text                                    0x10005ef8   Section        0  uldiv.o(.text)
    .text                                    0x10005f58   Section        0  llshl.o(.text)
    .text                                    0x10005f78   Section        0  llushr.o(.text)
    .text                                    0x10005f9a   Section        0  llsshr.o(.text)
    .text                                    0x10005fc0   Section        0  fepilogue.o(.text)
    .text                                    0x10005fc0   Section        0  iusefp.o(.text)
    .text                                    0x10006042   Section        0  depilogue.o(.text)
    .text                                    0x10006100   Section        0  dfixul.o(.text)
    .text                                    0x10006140   Section       40  cdrcmple.o(.text)
    .text                                    0x10006168   Section       36  init.o(.text)
    PMU                                      0x1000618c   Section        0  pmu.o(PMU)
    i.__0vsprintf                            0x100061d8   Section        0  printfa.o(i.__0vsprintf)
    i.__ARM_clz                              0x100061fc   Section        0  depilogue.o(i.__ARM_clz)
    i.__ARM_common_switch8                   0x1000622a   Section        0  main.o(i.__ARM_common_switch8)
    i.__scatterload_copy                     0x10006244   Section       14  handlers.o(i.__scatterload_copy)
    i.__scatterload_null                     0x10006252   Section        2  handlers.o(i.__scatterload_null)
    i.__scatterload_zeroinit                 0x10006254   Section       14  handlers.o(i.__scatterload_zeroinit)
    i._fp_digits                             0x10006264   Section        0  printfa.o(i._fp_digits)
    _fp_digits                               0x10006265   Thumb Code   316  printfa.o(i._fp_digits)
    i._printf_core                           0x100063bc   Section        0  printfa.o(i._printf_core)
    _printf_core                             0x100063bd   Thumb Code  1754  printfa.o(i._printf_core)
    i._printf_post_padding                   0x10006aa8   Section        0  printfa.o(i._printf_post_padding)
    _printf_post_padding                     0x10006aa9   Thumb Code    32  printfa.o(i._printf_post_padding)
    i._printf_pre_padding                    0x10006ac8   Section        0  printfa.o(i._printf_pre_padding)
    _printf_pre_padding                      0x10006ac9   Thumb Code    44  printfa.o(i._printf_pre_padding)
    i._sputc                                 0x10006af4   Section        0  printfa.o(i._sputc)
    _sputc                                   0x10006af5   Thumb Code    10  printfa.o(i._sputc)
    .constdata                               0x10006afe   Section      104  rom.o(.constdata)
    _smp_key_                                0x10006afe   Data          25  rom.o(.constdata)
    _smp_sc_key_                             0x10006b17   Data          25  rom.o(.constdata)
    _ll_packet_length                        0x10006b30   Data          25  rom.o(.constdata)
    _smp_packet_lenght                       0x10006b4a   Data          28  rom.o(.constdata)
    .constdata                               0x10006b68   Section       32  pmu.o(.constdata)
    delay_table                              0x10006b68   Data          32  pmu.o(.constdata)
    .constdata                               0x10006b88   Section      523  aes.o(.constdata)
    sbox                                     0x10006b88   Data         256  aes.o(.constdata)
    rsbox                                    0x10006c88   Data         256  aes.o(.constdata)
    Rcon                                     0x10006d88   Data          11  aes.o(.constdata)
    .data                                    0x20000000   Section       12  gpio.o(.data)
    GPIO_CTRL                                0x20000000   Data           8  gpio.o(.data)
    gpio_callback                            0x20000008   Data           4  gpio.o(.data)
    .data                                    0x2000000c   Section        8  pad_mux_ctrl.o(.data)
    pad                                      0x2000000c   Data           8  pad_mux_ctrl.o(.data)
    .data                                    0x20000014   Section        8  uart.o(.data)
    .data                                    0x2000001c   Section        8  debug.o(.data)
    UART_CTRL                                0x2000001c   Data           8  debug.o(.data)
    .data                                    0x20000024   Section        4  system_armcm0.o(.data)
    .data                                    0x20000028   Section       20  main.o(.data)
    syd_confirm                              0x20000028   Data           1  main.o(.data)
    sched_execute_mask                       0x20000029   Data           1  main.o(.data)
    profile_to_flash                         0x2000002a   Data           1  main.o(.data)
    profile_update_offset                    0x2000002c   Data           2  main.o(.data)
    PMU_CTRL                                 0x20000030   Data           4  main.o(.data)
    p_sched_callback                         0x20000034   Data           4  main.o(.data)
    .data                                    0x2000003c   Section      111  rom.o(.data)
    NumericYesOrNo                           0x2000003c   Data           1  rom.o(.data)
    MCUFreq                                  0x2000003d   Data           1  rom.o(.data)
    coex_evt_mask_sleep                      0x20000041   Data           1  rom.o(.data)
    _valid_l2cap_lenght                      0x20000044   Data           1  rom.o(.data)
    passkey_cnt                              0x20000058   Data           4  rom.o(.data)
    passkey_value                            0x2000005c   Data           4  rom.o(.data)
    ReadRsp                                  0x20000064   Data           4  rom.o(.data)
    ReadRspLen                               0x20000068   Data           4  rom.o(.data)
    ReadRspData                              0x2000006c   Data           4  rom.o(.data)
    IRQCallbackHook                          0x20000070   Data           4  rom.o(.data)
    IRQCallbackSkip                          0x20000074   Data           4  rom.o(.data)
    HCIDTM                                   0x20000078   Data           4  rom.o(.data)
    ACLTx                                    0x2000007c   Data           4  rom.o(.data)
    ble_data                                 0x2000008c   Data           4  rom.o(.data)
    .data                                    0x200000ac   Section        4  pmu.o(.data)
    lclink                                   0x200000ac   Data           4  pmu.o(.data)
    .bss                                     0x200000b0   Section     1056  uart.o(.bss)
    .bss                                     0x200004d0   Section      128  debug.o(.bss)
    s_formatBuffer                           0x200004d0   Data         128  debug.o(.bss)
    .bss                                     0x20000550   Section     4173  main.o(.bss)
    confirmation_list                        0x20001550   Data          62  main.o(.bss)
    .bss                                     0x200015a0   Section     1055  rom.o(.bss)
    .bss                                     0x200019bf   Section       16  aec-ccm.o(.bss)
    cbcmac_xor                               0x200019bf   Data          16  aec-ccm.o(.bss)
    STACK                                    0x200019d0   Section     4096  startup_armcm0.o(STACK)

    Global Symbols

    Symbol Name                              Value     Ov Type        Size  Object(Section)

    BuildAttributes$$THM_ISAv3M$S$PE$A:L22$X:L11$S22$IEEE1$IW$USESV6$~STKCKD$USESV7$~SHL$OTIME$ROPI$EBA8$MICROLIB$REQ8$EABIv2 0x00000000   Number         0  anon$$obj.o ABSOLUTE
    __ARM_use_no_argv                        0x00000000   Number         0  main.o ABSOLUTE
    __cpp_initialize__aeabi_                  - Undefined Weak Reference
    __cxa_finalize                            - Undefined Weak Reference
    __decompress                              - Undefined Weak Reference
    _clock_init                               - Undefined Weak Reference
    _microlib_exit                            - Undefined Weak Reference
    __Vectors_Size                           0x000000c0   Number         0  startup_armcm0.o ABSOLUTE
    __Vectors                                0x10000000   Data           4  startup_armcm0.o(RESET)
    __Vectors_End                            0x100000c0   Data           0  startup_armcm0.o(RESET)
    __main                                   0x100000c1   Thumb Code     0  entry.o(.ARM.Collect$$$$00000000)
    _main_stk                                0x100000c1   Thumb Code     0  entry2.o(.ARM.Collect$$$$00000001)
    _main_scatterload                        0x100000c5   Thumb Code     0  entry5.o(.ARM.Collect$$$$00000004)
    __main_after_scatterload                 0x100000c9   Thumb Code     0  entry5.o(.ARM.Collect$$$$00000004)
    _main_clock                              0x100000c9   Thumb Code     0  entry7b.o(.ARM.Collect$$$$00000008)
    _main_cpp_init                           0x100000c9   Thumb Code     0  entry8b.o(.ARM.Collect$$$$0000000A)
    _main_init                               0x100000c9   Thumb Code     0  entry9a.o(.ARM.Collect$$$$0000000B)
    __rt_final_cpp                           0x100000d1   Thumb Code     0  entry10a.o(.ARM.Collect$$$$0000000D)
    __rt_final_exit                          0x100000d1   Thumb Code     0  entry11a.o(.ARM.Collect$$$$0000000F)
    B01_correct_TXPacket_length              0x100000d5   Thumb Code     6  rom.o(.emb_text)
    main                                     0x100000dd   Thumb Code   356  main.o(.text)
    gpi_irq_set_cb                           0x10000289   Thumb Code     6  gpio.o(.text)
    gpi_config                               0x1000028f   Thumb Code   114  gpio.o(.text)
    pad_input_configure                      0x10000301   Thumb Code    94  gpio.o(.text)
    gpo_config                               0x1000035f   Thumb Code    90  gpio.o(.text)
    gpo_toggle                               0x100003b9   Thumb Code    42  gpio.o(.text)
    gpo_set                                  0x100003e3   Thumb Code    42  gpio.o(.text)
    gpo_clr                                  0x1000040d   Thumb Code    42  gpio.o(.text)
    gpi_get_val                              0x10000437   Thumb Code    70  gpio.o(.text)
    gpi_enable_int                           0x1000047d   Thumb Code   178  gpio.o(.text)
    gpi_disable_int                          0x1000052f   Thumb Code    44  gpio.o(.text)
    GPIO_IRQHandler                          0x1000055b   Thumb Code   134  gpio.o(.text)
    delay_ms                                 0x100005f1   Thumb Code    30  delay.o(.text)
    delay_us                                 0x1000060f   Thumb Code    26  delay.o(.text)
    pad_mux_read                             0x10000629   Thumb Code    62  pad_mux_ctrl.o(.text)
    pad_mux_write                            0x10000667   Thumb Code    78  pad_mux_ctrl.o(.text)
    uart_0_init                              0x100006b9   Thumb Code   134  uart.o(.text)
    UART0_IRQHandler                         0x1000073f   Thumb Code    58  uart.o(.text)
    uart_1_init                              0x10000779   Thumb Code   112  uart.o(.text)
    UART1_IRQHandler                         0x100007e9   Thumb Code    60  uart.o(.text)
    uart_write                               0x10000825   Thumb Code    80  uart.o(.text)
    uart_read                                0x10000875   Thumb Code    20  uart.o(.text)
    uart_queue_size                          0x10000889   Thumb Code    56  uart.o(.text)
    uart_get_ctrl                            0x100008c1   Thumb Code    18  uart.o(.text)
    dbg_init                                 0x10000a2d   Thumb Code    12  debug.o(.text)
    dbg_printf                               0x10000a39   Thumb Code    60  debug.o(.text)
    dbg_printf_sel                           0x10000a75   Thumb Code    62  debug.o(.text)
    dbg_hexdump                              0x10000ab3   Thumb Code   108  debug.o(.text)
    queue_init                               0x10000b45   Thumb Code    12  queue.o(.text)
    queue_reset                              0x10000b51   Thumb Code     6  queue.o(.text)
    enqueue_all                              0x10000b57   Thumb Code    96  queue.o(.text)
    enqueue                                  0x10000bb7   Thumb Code    28  queue.o(.text)
    dequeue                                  0x10000bd3   Thumb Code    42  queue.o(.text)
    is_queue_empty                           0x10000bfd   Thumb Code    18  queue.o(.text)
    queue_size                               0x10000c0f   Thumb Code    24  queue.o(.text)
    Reset_Handler                            0x10000c29   Thumb Code     8  startup_armcm0.o(.text)
    NMI_Handler                              0x10000c31   Thumb Code     2  startup_armcm0.o(.text)
    HardFault_Handler                        0x10000c33   Thumb Code     2  startup_armcm0.o(.text)
    SVC_Handler                              0x10000c35   Thumb Code     2  startup_armcm0.o(.text)
    PendSV_Handler                           0x10000c37   Thumb Code     2  startup_armcm0.o(.text)
    SysTick_Handler                          0x10000c39   Thumb Code     2  startup_armcm0.o(.text)
    CAPDET_IRQHandler                        0x10000c3b   Thumb Code     0  startup_armcm0.o(.text)
    GPADC_IRQHandler                         0x10000c3b   Thumb Code     0  startup_armcm0.o(.text)
    I2CM0_IRQHandler                         0x10000c3b   Thumb Code     0  startup_armcm0.o(.text)
    I2CM1_IRQHandler                         0x10000c3b   Thumb Code     0  startup_armcm0.o(.text)
    I2CS_IRQHandler                          0x10000c3b   Thumb Code     0  startup_armcm0.o(.text)
    I2S_IRQHandler                           0x10000c3b   Thumb Code     0  startup_armcm0.o(.text)
    INTCOMB_IRQHandler                       0x10000c3b   Thumb Code     0  startup_armcm0.o(.text)
    IR_IRQHandler                            0x10000c3b   Thumb Code     0  startup_armcm0.o(.text)
    ISO_7816_IRQHandler                      0x10000c3b   Thumb Code     0  startup_armcm0.o(.text)
    LLC2_IRQHandler                          0x10000c3b   Thumb Code     0  startup_armcm0.o(.text)
    LLC3_IRQHandler                          0x10000c3b   Thumb Code     0  startup_armcm0.o(.text)
    M2M_IRQHandler                           0x10000c3b   Thumb Code     0  startup_armcm0.o(.text)
    PDM_IRQHandler                           0x10000c3b   Thumb Code     0  startup_armcm0.o(.text)
    PWM1_IRQHandler                          0x10000c3b   Thumb Code     0  startup_armcm0.o(.text)
    PWM2_IRQHandler                          0x10000c3b   Thumb Code     0  startup_armcm0.o(.text)
    PWM3_IRQHandler                          0x10000c3b   Thumb Code     0  startup_armcm0.o(.text)
    RTC_IRQHandler                           0x10000c3b   Thumb Code     0  startup_armcm0.o(.text)
    SPIM_IRQHandler                          0x10000c3b   Thumb Code     0  startup_armcm0.o(.text)
    SPIS_IRQHandler                          0x10000c3b   Thumb Code     0  startup_armcm0.o(.text)
    SW_IRQHandler                            0x10000c3b   Thumb Code     0  startup_armcm0.o(.text)
    TIMER0_IRQHandler                        0x10000c3b   Thumb Code     0  startup_armcm0.o(.text)
    TIMER1_IRQHandler                        0x10000c3b   Thumb Code     0  startup_armcm0.o(.text)
    TIMER2_IRQHandler                        0x10000c3b   Thumb Code     0  startup_armcm0.o(.text)
    TIMER3_IRQHandler                        0x10000c3b   Thumb Code     0  startup_armcm0.o(.text)
    TIMER4_IRQHandler                        0x10000c3b   Thumb Code     0  startup_armcm0.o(.text)
    TRNG_IRQHandler                          0x10000c3b   Thumb Code     0  startup_armcm0.o(.text)
    UART2_IRQHandler                         0x10000c3b   Thumb Code     0  startup_armcm0.o(.text)
    WDT_IRQHandler                           0x10000c3b   Thumb Code     0  startup_armcm0.o(.text)
    SystemCoreClockUpdate                    0x10000c45   Thumb Code     8  system_armcm0.o(.text)
    SystemInit                               0x10000c4d   Thumb Code     8  system_armcm0.o(.text)
    sw_timer_update_callback                 0x10000c5d   Thumb Code    20  main.o(.text)
    gap_s_ble_init                           0x10000c71   Thumb Code    18  main.o(.text)
    gap_s_disconnect                         0x10000c83   Thumb Code     8  main.o(.text)
    gap_s_validate_irk                       0x10000c8b   Thumb Code     6  main.o(.text)
    gap_s_ble_gen_random_private_address     0x10000c91   Thumb Code     6  main.o(.text)
    gap_s_ble_address_set                    0x10000c97   Thumb Code     6  main.o(.text)
    gap_s_ble_address_get                    0x10000c9d   Thumb Code     4  main.o(.text)
    gap_s_ble_feature_set                    0x10000ca1   Thumb Code     6  main.o(.text)
    gap_s_ble_feature_get                    0x10000ca7   Thumb Code     6  main.o(.text)
    gap_s_ble_slave_feature_set              0x10000cad   Thumb Code     6  main.o(.text)
    gap_s_ble_slave_feature_get              0x10000cb3   Thumb Code     6  main.o(.text)
    gap_s_adv_access_code_set                0x10000cb9   Thumb Code     6  main.o(.text)
    gap_s_adv_access_code_get                0x10000cbf   Thumb Code     6  main.o(.text)
    gap_s_adv_parameters_set                 0x10000cc5   Thumb Code     6  main.o(.text)
    gap_s_adv_data_set                       0x10000ccb   Thumb Code    10  main.o(.text)
    gap_s_adv_start                          0x10000cd5   Thumb Code     6  main.o(.text)
    gap_s_adv_stop                           0x10000cdb   Thumb Code     4  main.o(.text)
    gap_s_adv_start_powersaving              0x10000cdf   Thumb Code   610  main.o(.text)
    gap_s_adv_stop_powersaving               0x10000f41   Thumb Code    32  main.o(.text)
    gap_s_scan_parameters_set                0x10000f61   Thumb Code     6  main.o(.text)
    gap_s_scan_start                         0x10000f67   Thumb Code     6  main.o(.text)
    gap_s_scan_stop                          0x10000f6d   Thumb Code     4  main.o(.text)
    gap_s_coex_adv_data_set                  0x10000f71   Thumb Code    14  main.o(.text)
    gap_s_coex_scan_rsp_data_set             0x10000f7f   Thumb Code    12  main.o(.text)
    gap_s_coex_adv_start                     0x10000f8b   Thumb Code     8  main.o(.text)
    gap_s_coex_adv_stop                      0x10000f93   Thumb Code     8  main.o(.text)
    gap_s_coex_scan_req_data_set             0x10000f9b   Thumb Code     6  main.o(.text)
    gap_s_coex_scan_start                    0x10000fa1   Thumb Code     4  main.o(.text)
    gap_s_coex_scan_stop                     0x10000fa5   Thumb Code     6  main.o(.text)
    gap_s_gatt_profiles_set                  0x10000fab   Thumb Code     6  main.o(.text)
    gap_s_security_parameters_set            0x10000fb1   Thumb Code     6  main.o(.text)
    gap_s_security_parameters_get            0x10000fb7   Thumb Code     6  main.o(.text)
    gap_s_security_req                       0x10000fbd   Thumb Code     6  main.o(.text)
    gap_s_numeric_comrison                   0x10000fc3   Thumb Code     8  main.o(.text)
    gap_s_connection_param_set               0x10000fcb   Thumb Code     6  main.o(.text)
    gap_s_connection_param_get               0x10000fd1   Thumb Code     4  main.o(.text)
    gap_s_connection_update                  0x10000fd5   Thumb Code     6  main.o(.text)
    gap_s_link_parameters_get                0x10000fdb   Thumb Code     6  main.o(.text)
    gap_s_passkey_set                        0x10000fe1   Thumb Code     8  main.o(.text)
    gap_s_connection_latency_mode            0x10000fe9   Thumb Code     8  main.o(.text)
    gap_s_check_fifo_sz                      0x10000ff1   Thumb Code     6  main.o(.text)
    BBCheckTXFIFOEmpty                       0x10000ff7   Thumb Code    12  main.o(.text)
    sw_timer_latency_callback                0x10001003   Thumb Code   138  main.o(.text)
    smart_latency_start                      0x1000108d   Thumb Code   186  main.o(.text)
    smart_latency_clear                      0x10001147   Thumb Code    12  main.o(.text)
    gap_evt_Callback                         0x10001153   Thumb Code   332  main.o(.text)
    gap_s_evt_handler_set                    0x1000129f   Thumb Code    32  main.o(.text)
    gap_s_att_c_evt_handler_set              0x100012bf   Thumb Code     6  main.o(.text)
    gap_s_gatt_report_handle_get             0x100012c5   Thumb Code     6  main.o(.text)
    gap_s_gatt_read_rsp_set                  0x100012cb   Thumb Code     6  main.o(.text)
    gap_s_gatt_write_err_rsp_set             0x100012d1   Thumb Code     6  main.o(.text)
    indicate_queue_size                      0x100012d7   Thumb Code    26  main.o(.text)
    sw_indicate_timer_callback               0x100012f1   Thumb Code    22  main.o(.text)
    gap_s_gatt_data_send                     0x10001307   Thumb Code    38  main.o(.text)
    gap_s_gatt_data_send_report_confirmation_handle 0x1000132d   Thumb Code   112  main.o(.text)
    gap_s_profile_data_read                  0x1000139d   Thumb Code    44  main.o(.text)
    gap_s_profile_data_write                 0x1000141d   Thumb Code   212  main.o(.text)
    att_c_mtureq                             0x100014f1   Thumb Code     4  main.o(.text)
    att_c_findinforeq                        0x100014f5   Thumb Code     6  main.o(.text)
    att_c_findbytypevaluereq                 0x100014fb   Thumb Code    14  main.o(.text)
    att_c_readbytypereq                      0x10001509   Thumb Code    12  main.o(.text)
    att_c_readreq                            0x10001515   Thumb Code     6  main.o(.text)
    att_c_readblobreq                        0x1000151b   Thumb Code     6  main.o(.text)
    att_c_readmultiplereq                    0x10001521   Thumb Code     6  main.o(.text)
    att_c_readbygrouptypereq                 0x10001527   Thumb Code    12  main.o(.text)
    att_c_writereq                           0x10001533   Thumb Code     6  main.o(.text)
    att_c_writecmdreq                        0x10001539   Thumb Code     6  main.o(.text)
    att_c_preparewritereq                    0x1000153f   Thumb Code    12  main.o(.text)
    att_c_executewritereq                    0x1000154b   Thumb Code     6  main.o(.text)
    att_c_confirmation                       0x10001551   Thumb Code     6  main.o(.text)
    bm_s_bond_manager_idx_set                0x10001557   Thumb Code     6  main.o(.text)
    bm_s_bond_manager_idx_get                0x1000155d   Thumb Code     4  main.o(.text)
    bm_s_bond_info_get                       0x10001561   Thumb Code     6  main.o(.text)
    bm_s_bond_info_add                       0x10001567   Thumb Code     6  main.o(.text)
    bm_s_bond_info_delete_all                0x1000156d   Thumb Code     6  main.o(.text)
    bm_s_bond_info_delete                    0x10001573   Thumb Code     6  main.o(.text)
    bm_s_bond_info_isvalid                   0x10001579   Thumb Code    36  main.o(.text)
    ecdh_public_key_get                      0x1000159d   Thumb Code     4  main.o(.text)
    sys_mcu_clock_get                        0x100015a1   Thumb Code     6  main.o(.text)
    sys_mcu_clock_set                        0x100015a7   Thumb Code     8  main.o(.text)
    sys_mcu_clock_div_set                    0x100015af   Thumb Code     6  main.o(.text)
    sys_mcu_clock_div_get                    0x100015b5   Thumb Code     6  main.o(.text)
    sys_32k_clock_get                        0x100015bb   Thumb Code     6  main.o(.text)
    sys_32k_clock_set                        0x100015c1   Thumb Code     8  main.o(.text)
    pmu_32m_xo_on                            0x100015c9   Thumb Code     4  main.o(.text)
    sys_32k_lpo_calibration                  0x100015cd   Thumb Code    66  main.o(.text)
    sys_mcu_rc_calibration                   0x1000160f   Thumb Code     8  main.o(.text)
    pmu_32m_xo_off                           0x10001617   Thumb Code     6  main.o(.text)
    BBRFWrite                                0x1000161d   Thumb Code     4  main.o(.text)
    BBRFRead                                 0x10001621   Thumb Code     6  main.o(.text)
    sys_mcu_rc_calibrationHF                 0x10001627   Thumb Code    82  main.o(.text)
    pmu_wakeup_config                        0x10001679   Thumb Code     6  main.o(.text)
    pmu_power_saving                         0x1000167f   Thumb Code    10  main.o(.text)
    pmu_mcu_off                              0x10001689   Thumb Code     6  main.o(.text)
    pmu_system_off                           0x1000168f   Thumb Code     6  main.o(.text)
    pmu_reset                                0x10001695   Thumb Code     6  main.o(.text)
    pmu_system_reset                         0x1000169b   Thumb Code     6  main.o(.text)
    pmu_mcu_reset                            0x100016a1   Thumb Code     6  main.o(.text)
    pmu_32m_xo_on_polling                    0x100016a7   Thumb Code    18  main.o(.text)
    _enable_sw_ccm                           0x100016b9   Thumb Code     6  main.o(.text)
    ota_code_erase                           0x100016bf   Thumb Code   344  main.o(.text)
    ota_code_write                           0x10001817   Thumb Code     6  main.o(.text)
    ota_code_read                            0x1000181d   Thumb Code     4  main.o(.text)
    ota_code_info_read                       0x10001821   Thumb Code    12  main.o(.text)
    ota_code_update                          0x1000182d   Thumb Code    10  main.o(.text)
    ble_sched_execute                        0x10001837   Thumb Code   302  main.o(.text)
    sys_rc_get                               0x10001965   Thumb Code     4  main.o(.text)
    sys_fclk_get                             0x10001969   Thumb Code     6  main.o(.text)
    sys_pclk_get                             0x1000196f   Thumb Code     6  main.o(.text)
    sys_sclk_get                             0x10001975   Thumb Code     6  main.o(.text)
    sys_hclk_get                             0x1000197b   Thumb Code     6  main.o(.text)
    gpadc_init                               0x10001981   Thumb Code    22  main.o(.text)
    pdm_set_amic_gain                        0x10001997   Thumb Code    58  main.o(.text)
    att_c_get_mtu_size                       0x100019d1   Thumb Code    18  main.o(.text)
    capdet_set_bias                          0x100019e3   Thumb Code    56  main.o(.text)
    capdet_get_bias                          0x10001a1b   Thumb Code    40  main.o(.text)
    module_clock_off                         0x10001a43   Thumb Code    14  main.o(.text)
    module_clock_on                          0x10001a51   Thumb Code    14  main.o(.text)
    ll_length_req                            0x10001a5f   Thumb Code    24  main.o(.text)
    get_pmu_reset_type                       0x10001a77   Thumb Code     4  main.o(.text)
    reset_module                             0x10001a7b   Thumb Code    36  main.o(.text)
    SystemSleep                              0x10001a9f   Thumb Code    50  main.o(.text)
    ble_flash_authority                      0x10001ad1   Thumb Code    42  main.o(.text)
    ble_flash_erase                          0x10001afb   Thumb Code    12  main.o(.text)
    ble_flash_read                           0x10001b07   Thumb Code    32  main.o(.text)
    ble_flash_write                          0x10001b27   Thumb Code    16  main.o(.text)
    ble_flash_write_burst                    0x10001b37   Thumb Code    14  main.o(.text)
    _checksum_cache_496kb                    0x10001b45   Thumb Code   110  main.o(.text)
    ota_code_update_496kb                    0x10001bb3   Thumb Code   206  main.o(.text)
    gap_s_smart_update_latency               0x10001c81   Thumb Code   372  main.o(.text)
    smart_update_latency_updatareq           0x10001df5   Thumb Code   298  main.o(.text)
    syd8821_chip_confirm                     0x10001f1f   Thumb Code    24  main.o(.text)
    APPtimer_enable                          0x10001f37   Thumb Code    26  main.o(.text)
    APPtimer_disable                         0x10001f51   Thumb Code    24  main.o(.text)
    sched_callback_enable                    0x10001f69   Thumb Code    26  main.o(.text)
    gap_s_adv_state_get                      0x10001f83   Thumb Code     8  main.o(.text)
    gap_s_att_mtu_get                        0x10001f8b   Thumb Code    18  main.o(.text)
    ble_SetTxPower                           0x10001f9d   Thumb Code   470  main.o(.text)
    ll_set_replying_packet_timer             0x10002173   Thumb Code    10  main.o(.text)
    amic_set_bias                            0x1000217d   Thumb Code   124  main.o(.text)
    gap_s_verdor_datas_get                   0x100021f9   Thumb Code    26  main.o(.text)
    gap_s_verdor_datas_set                   0x10002213   Thumb Code    78  main.o(.text)
    systemtick_delay                         0x10002261   Thumb Code    34  main.o(.text)
    Setting4kUpdate                          0x10002283   Thumb Code   138  main.o(.text)
    SetDevAddr_toflash                       0x1000230d   Thumb Code    84  main.o(.text)
    flash_peotect_key_confirm                0x10002361   Thumb Code   136  main.o(.text)
    Confirm_NumericComrison                  0x1000240d   Thumb Code    12  rom.o(.text)
    SmpRxPairingConfirm                      0x10002419   Thumb Code   210  rom.o(.text)
    SmpRxPairingRandom                       0x100024eb   Thumb Code   652  rom.o(.text)
    SmpPairingReq                            0x10002777   Thumb Code   450  rom.o(.text)
    SmpPairingPublicKey                      0x10002939   Thumb Code   146  rom.o(.text)
    SmpPasskeyEntry                          0x100029cb   Thumb Code   226  rom.o(.text)
    PreCkQueSz                               0x10002aad   Thumb Code   146  rom.o(.text)
    AttNotify                                0x10002b3f   Thumb Code    56  rom.o(.text)
    AttIndication                            0x10002b77   Thumb Code    56  rom.o(.text)
    HW_LLC_Sleep_WorkAround                  0x100032a9   Thumb Code    54  rom.o(.text)
    HW_WindowOffsetWorkAround                0x100032df   Thumb Code    68  rom.o(.text)
    LLLengthRsp                              0x10003323   Thumb Code   194  rom.o(.text)
    LLLengthReq                              0x100033e5   Thumb Code   300  rom.o(.text)
    rvereseArray                             0x10003511   Thumb Code    26  rom.o(.text)
    LLStartENCReq                            0x1000352b   Thumb Code   152  rom.o(.text)
    LLRxStartENCRsp                          0x100039c5   Thumb Code     2  rom.o(.text)
    Protocol_Hook_Callback                   0x100039c7   Thumb Code   412  rom.o(.text)
    B01_Hook_Callback                        0x10003b63   Thumb Code    44  rom.o(.text)
    _rom_init                                0x10003b8f   Thumb Code    80  rom.o(.text)
    LLTerminateReq                           0x10003bdf   Thumb Code   120  rom.o(.text)
    _rom_gap_s_disconnect                    0x10003c57   Thumb Code    32  rom.o(.text)
    _rom_sys_32k_lpo_calibration             0x10003c77   Thumb Code   134  rom.o(.text)
    _sys_32k_lpo_calibration                 0x10003cfd   Thumb Code   136  rom.o(.text)
    _rom_sys_32k_clock_set                   0x10003d85   Thumb Code   118  rom.o(.text)
    _rom_gap_s_gatt_data_send                0x10003dfb   Thumb Code    72  rom.o(.text)
    _rom_gap_s_coex_adv_start                0x10003e43   Thumb Code    56  rom.o(.text)
    _rom_gap_s_coex_adv_stop                 0x10003e7b   Thumb Code    40  rom.o(.text)
    BBRXFIFORead                             0x10003ea3   Thumb Code   494  rom.o(.text)
    LCTxPkt_Handler                          0x100042e1   Thumb Code   288  rom.o(.text)
    ConnectionLost                           0x10004401   Thumb Code   122  rom.o(.text)
    LLC_IRQHandler                           0x1000447b   Thumb Code   210  rom.o(.text)
    _sys_mcu_rc_calibration                  0x1000454d   Thumb Code    54  rom.o(.text)
    _rom_sys_mcu_clock_div_get               0x10004583   Thumb Code    98  rom.o(.text)
    _rom_sys_mcu_clock_get                   0x100045e5   Thumb Code     8  rom.o(.text)
    BBMCUClockSel                            0x100045ed   Thumb Code   126  rom.o(.text)
    _rom_sys_mcu_clock_set                   0x1000466b   Thumb Code    14  rom.o(.text)
    _rom_ota_code_erase                      0x10004679   Thumb Code   116  rom.o(.text)
    _rom_gap_s_connection_latency_mode       0x100046ed   Thumb Code   168  rom.o(.text)
    RCOSC_validate                           0x1000496d   Thumb Code    18  pmu.o(.text)
    syd8821_pmu_power_saving                 0x1000497f   Thumb Code   386  pmu.o(.text)
    aes_ccm_encrypt                          0x10004eb7   Thumb Code   114  aec-ccm.o(.text)
    aes_ccm_decrypt                          0x10004f29   Thumb Code   152  aec-ccm.o(.text)
    aes_ccm_verify                           0x10004fc1   Thumb Code    96  aec-ccm.o(.text)
    CCM_NONCE                                0x10005021   Thumb Code    62  aec-ccm.o(.text)
    aes_encrypt                              0x10005947   Thumb Code    24  aes.o(.text)
    aes_decrypt                              0x1000595f   Thumb Code    26  aes.o(.text)
    __aeabi_uidiv                            0x1000598d   Thumb Code     0  uidiv.o(.text)
    __aeabi_uidivmod                         0x1000598d   Thumb Code    44  uidiv.o(.text)
    __aeabi_idiv                             0x100059b9   Thumb Code     0  idiv.o(.text)
    __aeabi_idivmod                          0x100059b9   Thumb Code    40  idiv.o(.text)
    __aeabi_memcpy                           0x100059e1   Thumb Code    36  memcpya.o(.text)
    __aeabi_memcpy4                          0x100059e1   Thumb Code     0  memcpya.o(.text)
    __aeabi_memcpy8                          0x100059e1   Thumb Code     0  memcpya.o(.text)
    __aeabi_memset                           0x10005a05   Thumb Code    14  memseta.o(.text)
    __aeabi_memset4                          0x10005a05   Thumb Code     0  memseta.o(.text)
    __aeabi_memset8                          0x10005a05   Thumb Code     0  memseta.o(.text)
    __aeabi_memclr                           0x10005a13   Thumb Code     4  memseta.o(.text)
    __aeabi_memclr4                          0x10005a13   Thumb Code     0  memseta.o(.text)
    __aeabi_memclr8                          0x10005a13   Thumb Code     0  memseta.o(.text)
    _memset$wrapper                          0x10005a17   Thumb Code    18  memseta.o(.text)
    memcmp                                   0x10005a29   Thumb Code    26  memcmp.o(.text)
    __aeabi_uread4                           0x10005a43   Thumb Code    20  uread4.o(.text)
    __rt_uread4                              0x10005a43   Thumb Code     0  uread4.o(.text)
    _uread4                                  0x10005a43   Thumb Code     0  uread4.o(.text)
    __aeabi_uwrite4                          0x10005a57   Thumb Code    18  uwrite4.o(.text)
    __rt_uwrite4                             0x10005a57   Thumb Code     0  uwrite4.o(.text)
    _uwrite4                                 0x10005a57   Thumb Code     0  uwrite4.o(.text)
    __aeabi_fadd                             0x10005a69   Thumb Code   162  fadd.o(.text)
    __aeabi_fsub                             0x10005b0b   Thumb Code     8  fadd.o(.text)
    __aeabi_frsub                            0x10005b13   Thumb Code     8  fadd.o(.text)
    __aeabi_dadd                             0x10005b1d   Thumb Code   328  dadd.o(.text)
    __aeabi_dsub                             0x10005c65   Thumb Code    12  dadd.o(.text)
    __aeabi_drsub                            0x10005c71   Thumb Code    12  dadd.o(.text)
    __aeabi_dmul                             0x10005c81   Thumb Code   202  dmul.o(.text)
    __aeabi_ddiv                             0x10005d51   Thumb Code   234  ddiv.o(.text)
    __aeabi_ui2f                             0x10005e41   Thumb Code    14  ffltui.o(.text)
    __aeabi_i2d                              0x10005e51   Thumb Code    34  dflti.o(.text)
    __aeabi_ui2d                             0x10005e79   Thumb Code    24  dfltui.o(.text)
    __aeabi_d2uiz                            0x10005e95   Thumb Code    50  dfixui.o(.text)
    __aeabi_f2d                              0x10005ed1   Thumb Code    40  f2d.o(.text)
    __aeabi_uldivmod                         0x10005ef9   Thumb Code    96  uldiv.o(.text)
    __aeabi_llsl                             0x10005f59   Thumb Code    32  llshl.o(.text)
    _ll_shift_l                              0x10005f59   Thumb Code     0  llshl.o(.text)
    __aeabi_llsr                             0x10005f79   Thumb Code    34  llushr.o(.text)
    _ll_ushift_r                             0x10005f79   Thumb Code     0  llushr.o(.text)
    __aeabi_lasr                             0x10005f9b   Thumb Code    38  llsshr.o(.text)
    _ll_sshift_r                             0x10005f9b   Thumb Code     0  llsshr.o(.text)
    __I$use$fp                               0x10005fc1   Thumb Code     0  iusefp.o(.text)
    _float_round                             0x10005fc1   Thumb Code    16  fepilogue.o(.text)
    _float_epilogue                          0x10005fd1   Thumb Code   114  fepilogue.o(.text)
    _double_round                            0x10006043   Thumb Code    26  depilogue.o(.text)
    _double_epilogue                         0x1000605d   Thumb Code   164  depilogue.o(.text)
    __aeabi_d2ulz                            0x10006101   Thumb Code    54  dfixul.o(.text)
    __aeabi_cdrcmple                         0x10006141   Thumb Code    38  cdrcmple.o(.text)
    __scatterload                            0x10006169   Thumb Code    28  init.o(.text)
    __scatterload_rt2                        0x10006169   Thumb Code     0  init.o(.text)
    syd8821_wfi                              0x1000618d   Thumb Code    66  pmu.o(PMU)
    __0vsprintf                              0x100061d9   Thumb Code    30  printfa.o(i.__0vsprintf)
    __1vsprintf                              0x100061d9   Thumb Code     0  printfa.o(i.__0vsprintf)
    __2vsprintf                              0x100061d9   Thumb Code     0  printfa.o(i.__0vsprintf)
    __c89vsprintf                            0x100061d9   Thumb Code     0  printfa.o(i.__0vsprintf)
    vsprintf                                 0x100061d9   Thumb Code     0  printfa.o(i.__0vsprintf)
    __ARM_clz                                0x100061fd   Thumb Code    46  depilogue.o(i.__ARM_clz)
    __ARM_common_switch8                     0x1000622b   Thumb Code    26  main.o(i.__ARM_common_switch8)
    __scatterload_copy                       0x10006245   Thumb Code    14  handlers.o(i.__scatterload_copy)
    __scatterload_null                       0x10006253   Thumb Code     2  handlers.o(i.__scatterload_null)
    __scatterload_zeroinit                   0x10006255   Thumb Code    14  handlers.o(i.__scatterload_zeroinit)
    Region$$Table$$Base                      0x10006d94   Number         0  anon$$obj.o(Region$$Table)
    Region$$Table$$Limit                     0x10006db4   Number         0  anon$$obj.o(Region$$Table)
    UART_CTRL                                0x20000014   Data           8  uart.o(.data)
    SystemCoreClock                          0x20000024   Data           4  system_armcm0.o(.data)
    app_gap_evt_callback                     0x20000038   Data           4  main.o(.data)
    enable_sw_ccm                            0x2000003e   Data           1  rom.o(.data)
    using_oob                                0x2000003f   Data           1  rom.o(.data)
    using_numeric_compairison                0x20000040   Data           1  rom.o(.data)
    LL_Header                                0x20000042   Data           1  rom.o(.data)
    isStartLlid                              0x20000043   Data           1  rom.o(.data)
    LL_Header_len                            0x20000046   Data           2  rom.o(.data)
    BB_CTRL                                  0x20000048   Data           4  rom.o(.data)
    flash_hdr                                0x2000004c   Data           4  rom.o(.data)
    lclink                                   0x20000050   Data           4  rom.o(.data)
    txpdu                                    0x20000054   Data           4  rom.o(.data)
    save_device_to_flash                     0x20000060   Data           4  rom.o(.data)
    flash                                    0x20000080   Data           4  rom.o(.data)
    mic_len                                  0x20000084   Data           4  rom.o(.data)
    l2capTmpBuf                              0x20000088   Data           4  rom.o(.data)
    warning_report_evt                       0x20000090   Data           5  rom.o(.data)
    att_handle_config_evt                    0x20000095   Data           6  rom.o(.data)
    RxCounter                                0x2000009b   Data           8  rom.o(.data)
    TxCounter                                0x200000a3   Data           8  rom.o(.data)
    rx_queue                                 0x200000b0   Data          32  uart.o(.bss)
    rx_buf                                   0x200000d0   Data        1024  uart.o(.bss)
    profile                                  0x20000550   Data        4096  main.o(.bss)
    smart_update_ctrol                       0x2000158e   Data          15  main.o(.bss)
    Nonce                                    0x200015a0   Data          13  rom.o(.bss)
    rxbuf                                    0x200015b0   Data         260  rom.o(.bss)
    encPayload                               0x200016b4   Data         260  rom.o(.bss)
    att_write_evt                            0x200017b8   Data         519  rom.o(.bss)
    __initial_sp                             0x200029d0   Data           0  startup_armcm0.o(STACK)



==============================================================================

Memory Map of the image

  Image Entry point : 0x100000c1

  Load Region LR_IROM1 (Base: 0x10000000, Size: 0x00006e64, Max: 0x00036000, ABSOLUTE)

    Execution Region ER_IROM1 (Base: 0x10000000, Size: 0x00006db4, Max: 0x00036000, ABSOLUTE)

    Base Addr    Size         Type   Attr      Idx    E Section Name        Object

    0x10000000   0x000000c0   Data   RO          242    RESET               startup_armcm0.o
    0x100000c0   0x00000000   Code   RO          460  * .ARM.Collect$$$$00000000  mc_p.l(entry.o)
    0x100000c0   0x00000004   Code   RO          525    .ARM.Collect$$$$00000001  mc_p.l(entry2.o)
    0x100000c4   0x00000004   Code   RO          528    .ARM.Collect$$$$00000004  mc_p.l(entry5.o)
    0x100000c8   0x00000000   Code   RO          530    .ARM.Collect$$$$00000008  mc_p.l(entry7b.o)
    0x100000c8   0x00000000   Code   RO          532    .ARM.Collect$$$$0000000A  mc_p.l(entry8b.o)
    0x100000c8   0x00000008   Code   RO          533    .ARM.Collect$$$$0000000B  mc_p.l(entry9a.o)
    0x100000d0   0x00000000   Code   RO          535    .ARM.Collect$$$$0000000D  mc_p.l(entry10a.o)
    0x100000d0   0x00000000   Code   RO          537    .ARM.Collect$$$$0000000F  mc_p.l(entry11a.o)
    0x100000d0   0x00000004   Code   RO          526    .ARM.Collect$$$$00002712  mc_p.l(entry2.o)
    0x100000d4   0x00000006   Code   RO          327    .emb_text           syd8821_ble_slave.lib(rom.o)
    0x100000da   0x00000002   PAD
    0x100000dc   0x000001ac   Code   RO            3    .text               main.o
    0x10000288   0x00000368   Code   RO           82    .text               gpio.o
    0x100005f0   0x00000038   Code   RO          110    .text               delay.o
    0x10000628   0x00000090   Code   RO          130    .text               pad_mux_ctrl.o
    0x100006b8   0x00000268   Code   RO          152    .text               uart.o
    0x10000920   0x00000224   Code   RO          185    .text               debug.o
    0x10000b44   0x000000e2   Code   RO          219    .text               queue.o
    0x10000c26   0x00000002   PAD
    0x10000c28   0x0000001c   Code   RO          243    .text               startup_armcm0.o
    0x10000c44   0x00000018   Code   RO          249    .text               system_armcm0.o
    0x10000c5c   0x000017b0   Code   RO          275    .text               syd8821_ble_slave.lib(main.o)
    0x1000240c   0x00002560   Code   RO          328    .text               syd8821_ble_slave.lib(rom.o)
    0x1000496c   0x000001ac   Code   RO          363    .text               syd8821_ble_slave.lib(pmu.o)
    0x10004b18   0x00000580   Code   RO          417    .text               syd8821_ble_slave.lib(aec-ccm.o)
    0x10005098   0x000008f4   Code   RO          447    .text               syd8821_ble_slave.lib(aes.o)
    0x1000598c   0x0000002c   Code   RO          463    .text               mc_p.l(uidiv.o)
    0x100059b8   0x00000028   Code   RO          465    .text               mc_p.l(idiv.o)
    0x100059e0   0x00000024   Code   RO          467    .text               mc_p.l(memcpya.o)
    0x10005a04   0x00000024   Code   RO          469    .text               mc_p.l(memseta.o)
    0x10005a28   0x0000001a   Code   RO          471    .text               mc_p.l(memcmp.o)
    0x10005a42   0x00000014   Code   RO          503    .text               mc_p.l(uread4.o)
    0x10005a56   0x00000012   Code   RO          505    .text               mc_p.l(uwrite4.o)
    0x10005a68   0x000000b2   Code   RO          507    .text               mf_p.l(fadd.o)
    0x10005b1a   0x00000002   PAD
    0x10005b1c   0x00000164   Code   RO          509    .text               mf_p.l(dadd.o)
    0x10005c80   0x000000d0   Code   RO          511    .text               mf_p.l(dmul.o)
    0x10005d50   0x000000f0   Code   RO          513    .text               mf_p.l(ddiv.o)
    0x10005e40   0x0000000e   Code   RO          515    .text               mf_p.l(ffltui.o)
    0x10005e4e   0x00000002   PAD
    0x10005e50   0x00000028   Code   RO          517    .text               mf_p.l(dflti.o)
    0x10005e78   0x0000001c   Code   RO          519    .text               mf_p.l(dfltui.o)
    0x10005e94   0x0000003c   Code   RO          521    .text               mf_p.l(dfixui.o)
    0x10005ed0   0x00000028   Code   RO          523    .text               mf_p.l(f2d.o)
    0x10005ef8   0x00000060   Code   RO          542    .text               mc_p.l(uldiv.o)
    0x10005f58   0x00000020   Code   RO          544    .text               mc_p.l(llshl.o)
    0x10005f78   0x00000022   Code   RO          546    .text               mc_p.l(llushr.o)
    0x10005f9a   0x00000026   Code   RO          548    .text               mc_p.l(llsshr.o)
    0x10005fc0   0x00000000   Code   RO          550    .text               mc_p.l(iusefp.o)
    0x10005fc0   0x00000082   Code   RO          551    .text               mf_p.l(fepilogue.o)
    0x10006042   0x000000be   Code   RO          553    .text               mf_p.l(depilogue.o)
    0x10006100   0x00000040   Code   RO          557    .text               mf_p.l(dfixul.o)
    0x10006140   0x00000028   Code   RO          559    .text               mf_p.l(cdrcmple.o)
    0x10006168   0x00000024   Code   RO          561    .text               mc_p.l(init.o)
    0x1000618c   0x0000004c   Code   RO          364    PMU                 syd8821_ble_slave.lib(pmu.o)
    0x100061d8   0x00000024   Code   RO          482    i.__0vsprintf       mc_p.l(printfa.o)
    0x100061fc   0x0000002e   Code   RO          555    i.__ARM_clz         mf_p.l(depilogue.o)
    0x1000622a   0x0000001a   Code   RO          294    i.__ARM_common_switch8  syd8821_ble_slave.lib(main.o)
    0x10006244   0x0000000e   Code   RO          567    i.__scatterload_copy  mc_p.l(handlers.o)
    0x10006252   0x00000002   Code   RO          568    i.__scatterload_null  mc_p.l(handlers.o)
    0x10006254   0x0000000e   Code   RO          569    i.__scatterload_zeroinit  mc_p.l(handlers.o)
    0x10006262   0x00000002   PAD
    0x10006264   0x00000158   Code   RO          483    i._fp_digits        mc_p.l(printfa.o)
    0x100063bc   0x000006ec   Code   RO          484    i._printf_core      mc_p.l(printfa.o)
    0x10006aa8   0x00000020   Code   RO          485    i._printf_post_padding  mc_p.l(printfa.o)
    0x10006ac8   0x0000002c   Code   RO          486    i._printf_pre_padding  mc_p.l(printfa.o)
    0x10006af4   0x0000000a   Code   RO          488    i._sputc            mc_p.l(printfa.o)
    0x10006afe   0x00000068   Data   RO          330    .constdata          syd8821_ble_slave.lib(rom.o)
    0x10006b66   0x00000002   PAD
    0x10006b68   0x00000020   Data   RO          365    .constdata          syd8821_ble_slave.lib(pmu.o)
    0x10006b88   0x0000020b   Data   RO          448    .constdata          syd8821_ble_slave.lib(aes.o)
    0x10006d93   0x00000001   PAD
    0x10006d94   0x00000020   Data   RO          565    Region$$Table       anon$$obj.o


    Execution Region RW_IRAM1 (Base: 0x20000000, Size: 0x000029d0, Max: 0x00028000, ABSOLUTE)

    Base Addr    Size         Type   Attr      Idx    E Section Name        Object

    0x20000000   0x0000000c   Data   RW           83    .data               gpio.o
    0x2000000c   0x00000008   Data   RW          131    .data               pad_mux_ctrl.o
    0x20000014   0x00000008   Data   RW          154    .data               uart.o
    0x2000001c   0x00000008   Data   RW          187    .data               debug.o
    0x20000024   0x00000004   Data   RW          250    .data               system_armcm0.o
    0x20000028   0x00000014   Data   RW          277    .data               syd8821_ble_slave.lib(main.o)
    0x2000003c   0x0000006f   Data   RW          331    .data               syd8821_ble_slave.lib(rom.o)
    0x200000ab   0x00000001   PAD
    0x200000ac   0x00000004   Data   RW          366    .data               syd8821_ble_slave.lib(pmu.o)
    0x200000b0   0x00000420   Zero   RW          153    .bss                uart.o
    0x200004d0   0x00000080   Zero   RW          186    .bss                debug.o
    0x20000550   0x0000104d   Zero   RW          276    .bss                syd8821_ble_slave.lib(main.o)
    0x2000159d   0x00000003   PAD
    0x200015a0   0x0000041f   Zero   RW          329    .bss                syd8821_ble_slave.lib(rom.o)
    0x200019bf   0x00000010   Zero   RW          418    .bss                syd8821_ble_slave.lib(aec-ccm.o)
    0x200019cf   0x00000001   PAD
    0x200019d0   0x00001000   Zero   RW          240    STACK               startup_armcm0.o


==============================================================================

Image component sizes


      Code (inc. data)   RO Data    RW Data    ZI Data      Debug   Object Name

       548         38          0          8        128       3589   debug.o
        56          0          0          0          0        700   delay.o
       872         16          0         12          0      46197   gpio.o
       428         72          0          0          0      40979   main.o
       144          4          0          8          0       1817   pad_mux_ctrl.o
       226          0          0          0          0       2379   queue.o
        28          8        192          0       4096        660   startup_armcm0.o
        24          8          0          4          0        869   system_armcm0.o
       616         24          0          8       1056      11335   uart.o

    ----------------------------------------------------------------------
      2944        170        224         40       5280     108525   Object Totals
         0          0         32          0          0          0   (incl. Generated)
         2          0          0          0          0          0   (incl. Padding)

    ----------------------------------------------------------------------

      Code (inc. data)   RO Data    RW Data    ZI Data      Debug   Library Member Name

         0          0          0          0          0          0   entry.o
         0          0          0          0          0          0   entry10a.o
         0          0          0          0          0          0   entry11a.o
         8          4          0          0          0          0   entry2.o
         4          0          0          0          0          0   entry5.o
         0          0          0          0          0          0   entry7b.o
         0          0          0          0          0          0   entry8b.o
         8          4          0          0          0          0   entry9a.o
        30          0          0          0          0          0   handlers.o
        40          0          0          0          0         72   idiv.o
        36          8          0          0          0         68   init.o
         0          0          0          0          0          0   iusefp.o
        32          0          0          0          0         68   llshl.o
        38          0          0          0          0         68   llsshr.o
        34          0          0          0          0         68   llushr.o
        26          0          0          0          0         72   memcmp.o
        36          0          0          0          0         60   memcpya.o
        36          0          0          0          0        100   memseta.o
      2238         96          0          0          0        460   printfa.o
        44          0          0          0          0         72   uidiv.o
        96          0          0          0          0         84   uldiv.o
        20          0          0          0          0         60   uread4.o
        18          0          0          0          0         60   uwrite4.o
        40          2          0          0          0         68   cdrcmple.o
       356          4          0          0          0        140   dadd.o
       240          6          0          0          0         84   ddiv.o
       236          0          0          0          0        216   depilogue.o
        60         10          0          0          0         68   dfixui.o
        64         10          0          0          0         68   dfixul.o
        40          6          0          0          0         68   dflti.o
        28          4          0          0          0         68   dfltui.o
       208          6          0          0          0         88   dmul.o
        40          0          0          0          0         60   f2d.o
       178          0          0          0          0        108   fadd.o
       130          0          0          0          0        144   fepilogue.o
        14          0          0          0          0         68   ffltui.o
      1408          4          0          0         16       8211   aec-ccm.o
      2292         12        523          0          0       3538   aes.o
      6090        388          0         20       4173     121208   main.o
       504         34         32          4          0      11032   pmu.o
      9574        464        104        111       1055      25232   rom.o

    ----------------------------------------------------------------------
     24254       1062        662        136       5248     171781   Library Totals
         8          0          3          1          4          0   (incl. Padding)

    ----------------------------------------------------------------------

      Code (inc. data)   RO Data    RW Data    ZI Data      Debug   Library Name

      2744        112          0          0          0       1312   mc_p.l
      1634         48          0          0          0       1248   mf_p.l
     19868        902        659        135       5244     169221   syd8821_ble_slave.lib

    ----------------------------------------------------------------------
     24254       1062        662        136       5248     171781   Library Totals

    ----------------------------------------------------------------------

==============================================================================


      Code (inc. data)   RO Data    RW Data    ZI Data      Debug   

     27198       1232        886        176      10528     278022   Grand Totals
     27198       1232        886        176      10528     278022   ELF Image Totals
     27198       1232        886        176          0          0   ROM Totals

==============================================================================

    Total RO  Size (Code + RO Data)                28084 (  27.43kB)
    Total RW  Size (RW Data + ZI Data)             10704 (  10.45kB)
    Total ROM Size (Code + RO Data + RW Data)      28260 (  27.60kB)

==============================================================================

