:020000041000EA
:10000000D06A0020151B00101D1B00101F1B0010C4
:1000100000000000000000000000000000000000E0
:10002000000000000000000000000000211B001084
:100030000000000000000000231B0010251B001022
:1000400003110010F3520010271B0010271B001093
:10005000271B0010271B0010E7120010271B0010A1
:10006000271B001095170010B9170010DD1700109E
:100070000118001025180010271B0010271B001066
:10008000271B0010271B0010271B0010271B001028
:10009000271B0010271B0010271B0010271B001018
:1000A000271B001091130010271B0010271B0010A6
:1000B000271B0010271B0010271B0010271B0010F8
:1000C00000F002F800F0BDF80CA030C80838241881
:1000D0002D18A246671EAB4654465D46AC4201D180
:1000E00000F0AFF87E460F3E0FCCB64601263342F5
:1000F00000D0FB1AA246AB46334318478C8F000052
:10010000AC8F0000103A02D378C878C1FAD85207F1
:1001100001D330C830C101D504680C6070470000BD
:100120000023002400250026103A01D378C1FBD813
:10013000520700D330C100D50B60704710B56E294F
:1001400002D107F0A1FA10BD702902D107F0DBFB44
:1001500010BD662902D108F06DFC10BD652902D1E1
:1001600008F068FC10BD672902D108F063FC10BDDF
:10017000612902D1C046C04610BD03681B0A01D3E5
:1001800080231943692902D107F048FA10BD642978
:1001900002D107F043FA10BD752902D107F03EFAEB
:1001A00010BD6F2902D107F059FB10BD782902D18B
:1001B00007F096FB10BDE92902D107F0F5FA10BD52
:1001C000E42902D107F0F0FA10BDF52902D107F0B9
:1001D000EBFA10BDEF2902D107F04CFB10BDF82956
:1001E00002D107F08BFB10BD0368DB0901D380232C
:1001F0001943632902D107F002FF10BD732902D110
:1002000007F005FF10BDE32902D107F00FFF10BD75
:10021000F32902D107F012FF10BD002010BD1FB559
:1002200007F06CFF04000020002108F03FFB401C99
:1002300060600020002108F023FBE0601FBD10B5C6
:1002400010BD07F033FF1146FFF7E9FF00F040FD56
:1002500008F054FA03B4FFF7F2FF03BC08F09EFA6B
:1002600000B52D1D00BD000070B505460C461646B4
:1002700002E00FCC0FC5103E102EFAD2082E02D38A
:1002800003CC03C5083E042E07D301CC01C5361F9D
:1002900003E021782970641C6D1C761EF9D270BDB4
:1002A0001FB500216846017007214172192189019B
:1002B0004181FE498181032181730021017201F096
:1002C00085FCFB4801F06EFCF9484078F949C87399
:1002D000F74880780874F648C0784874F448007984
:1002E0008874F3484079C874F14880790875F248F9
:1002F0000378F2480178F24AEE4801F06AFC1FBD2B
:100300003EB504460D46EF48007801280FD1012183
:1003100068460180032141801F21818001210181E4
:1003200023462A466946012001F071FF3EBD0020A8
:10033000FCE710B586B00446E3A103C90191009023
:1003400004A801F0CEFD6846428A018AE0A001F0CF
:100350002BF9002C02D0012C3CD120E06846408AC9
:10036000002814D06846008A102810DD0020DF49DC
:100370000870102168464181C821C1810021818116
:10038000C02101720421417202A802F0E6FBD8A04C
:1003900001F00AF905216846FFF7B2FF1AE0684646
:1003A000408A0A2815DA6846008A502811DA502156
:1003B000684641810A2181814B21C900C181C02148
:1003C00001720421417202A802F0C7FBCEA001F025
:1003D000EBF800BF00BF06B010BD13B582B0684691
:1003E000408915214902884209D1CDA003C8019155
:1003F000009005246946204601F0EBFE9CE068462B
:100400004089C949884208D1C8A0006801900224E7
:1004100001A9204601F0DDFE8EE068464089C24910
:100420002831884209D1C2A103C901910090082452
:100430006946204601F0CDFE7EE068464089BA4913
:100440002331884209D1BCA103C90191009007243E
:100450006946204601F0BDFE6EE068464089B2491B
:100460002431884209D1B6A103C901910090052425
:100470006946204601F0ADFE5EE068464089AA4923
:100480002631884208D1B0A000680190042401A957
:10049000204601F09EFE4FE068464089A249253182
:1004A000884208D1A9A000680190042401A920462F
:1004B00001F08FFE40E0684640899B492731884221
:1004C00008D1A3A000680190042401A9204601F0EE
:1004D00080FE31E06846408993494F31884209D116
:1004E0009CA103C90191009007246946204601F0B0
:1004F00070FE21E0684640899849884207D198A05B
:1005000000680190042101A8FFF7FAFE14E0684694
:1005100040899249383188420DD100210191002053
:10052000009001A9684601F0D2FA69466846007950
:1005300001F04FFE00E000BF1FBD0FB410B56846CC
:100540004089022807D16846827B03A90331854888
:1005500001F0B9F80DE06846408980493831884299
:1005600007D10020804908706846817B0F3001F078
:1005700082FA10BC08BC04B0184710B5FFB0FFB039
:1005800082B00446601C06F07FF9012805D101F015
:100590002AFB76A001F008F886E1601C06F074F9E9
:1005A000042817D1002047490870012074490870B9
:1005B00000204E4908706C490870724908706A49F9
:1005C00008700622A11D70A001F02BF80120FFF792
:1005D000B0FE69E1601C06F057F908280DD1002033
:1005E00067490870674908703649087061796CA0DE
:1005F00000F0DAFF01F0F7FA56E1601C06F044F96A
:100600000121C90388423AD1A179627908021043D5
:10061000012819D1217AE279080210432028BBD1A0
:10062000A17A627A08021043012806D164A000F082
:10063000BBFF01202349087036E166A000F0B4FF3B
:100640000020204908702FE1A17962790802104347
:1006500042491E3188429FD1217AE2790802104333
:100660002D2899D1A17A627A08021043012802D17B
:100670005D49087018E100205B49087014E1601CB6
:1006800006F002F90121C90288420DD1FF22F83299
:1006900021461531684606F096F8544A611D7EA839
:1006A00006F091F87EA8A3E0A6E00000FF3F00005E
:1006B0003800002012000020360000203200002008
:1006C000340000200C000020FC01000000000000AD
:1006D000696E74657276616C3A2578206C61746518
:1006E0006E63793A25780D0A0000000010000020A2
:1006F000536574557064617465206F7461206C6912
:100700006E6B0D0A000000005365745570646174CF
:100710006520696F73206C696E6B0D0A0000000024
:100720005541525446000000012A0000FFFF00001E
:1007300053594420496E632E424C4520312E3000DF
:10074000312E302E30000000322E3030332E30303B
:10075000342E3030023A09050A020000C9FE0000BA
:1007600000010304200100200F0000204741505FDA
:100770004556545F4144565F454E440D0A00000003
:100780000E000020780000204741505F4556545F1E
:10079000434F4E4E454354454420616464723A00D1
:1007A0004741505F4556545F444953434F4E4E4571
:1007B000435445442825303278290D0A00000000B2
:1007C00073746172745F747820656E61626C650D1C
:1007D0000A00000073746172745F74782064697336
:1007E00061626C650D0A00000D0000200702000028
:1007F0000FC8FFF7A2FE57E0601C06F045F8012184
:100800008902884209D10822611DFEA805F0DBFF9C
:10081000FF99FE98FFF7E1FD46E0601C06F034F812
:100820000121890388423FD0601C06F02DF8102872
:1008300006D10120EA490870EAA000F0B5FE33E0D5
:10084000601C06F021F8802803D1EBA000F0ACFE7C
:100850002AE0601C06F018F801214902884223D1E1
:10086000A179627908021043030007F0DDFF060456
:10087000080C1014181CE5A000F096FE13E0E9A087
:1008800000F092FE0FE0EDA000F08EFE0BE0F1A074
:1008900000F08AFE07E0F5A000F086FE03E0F8A075
:1008A00000F082FE00BF00BF7FB07FB002B010BD7D
:1008B00000B591B001F060F9F6480990F6480A9049
:1008C000F6480B90F6480C90F6480D9009A801F0F8
:1008D000F0FA03216846017700214177807F810883
:1008E0008900491C68468177807F0421884301463E
:1008F000684681771021C177002108A80170032183
:10090000417007A801F0D8FA0621684681800921C4
:10091000C18064210181418106210173322141732B
:1009200000218173C1730174012101A84173002169
:1009300081730221C17300210174032141740021DC
:1009400081740421C17400210175052141750021C4
:10095000817501F0BEFAD449FF20013005F0A5FFF2
:10096000D149091DD14805F0A0FFCF4801F01BFC7B
:10097000CF4801F02BFC002001F071FDFFF790FC47
:10098000012108A80176002141760EA9023100203C
:1009900005F08BFF0FA90231002005F086FF0EA89D
:1009A00001F0DCFD11B000BD70B5C248007801282F
:1009B00047D1C1480068C0494968884241D00024F5
:1009C000BD494968BC4A1268881A142105F07FFFA6
:1009D000401CC5B2B8494968B74A1268881A142140
:1009E00005F075FFCEB200BF27E0681EA04211DC03
:1009F000B149C968B04A126888183146FFF780FCCF
:100A0000002806D00025AC4800688019AA49086073
:100A100011E014E0A849C968A74A1268881814218F
:100A2000FFF76EFC002805D0A34800681430A249E7
:100A3000086000E003E0601CC4B2AC42D5DB00BF3C
:100A400000BF70BD08B50020009004E00122694697
:100A5000002000F0BBFC69469748103000F070FEA3
:100A60000028F3D108BD10B594480078401C934984
:100A700008700846007802280BDB0020087001206F
:100A800000F047FF8C4800F070FE002801D1FFF70E
:100A90008BFF10BD10B5002442E0182C32D008DCCA
:100AA000002C0DD0022C22D0042C21D00A2C2BD1CA
:100AB00013E01E2C27D01F2C1BD0222C24D10DE09C
:100AC0000021204600F0A3FB0121204600F0BBF9E5
:100AD0000021204600F01FFA1FE000BF0021204641
:100AE00000F095FB0121204600F015FA15E000BF4B
:100AF00000BF0021204600F08AFB0021204600F0C4
:100B00000AFA0AE000BF08E00021204600F07FFB5F
:100B10000021204600F097F900BF00BF601CC4B25E
:100B2000272CBADB10BD70B504460D4607211420F2
:100B300000F06DFB0721152000F069FB002C07D0A9
:100B40000721122000F063FB0721132000F05FFB58
:100B50000620012181405A4A116000BF59480068AF
:100B60000078000900012907090F08435549096861
:100B7000087054480068007880218843E101802291
:100B8000114008434F49096808704E4800680078D2
:100B9000402188434B49096808704A4800688078BA
:100BA00008218843083047490968887092004649FF
:100BB000414800F07FFD4548406A402108434349D1
:100BC00048620846006A40210843404908620620FE
:100BD000012181403A4A803A116000BF70BD000097
:100BE0000F0000204741505F4556545F454E435F1C
:100BF0004B45590D0A0000004741505F4556545F70
:100C0000454E435F53544152540D0A007570646160
:100C10007465207273702041434345505445440D20
:100C20000A00000075706461746520727370205250
:100C3000454A45435445440D0A00000075706461FF
:100C40007465207273702054494D45524F55540DB0
:100C50000A0000007570646174652072737020531F
:100C60005543434545440D0A00000000456E61624E
:100C70006C65206C6174656E63790D0A000000007C
:100C800044697361626C65206C6174656E63790D93
:100C90000A000000448A00106E8A0010638A001067
:100CA000AD8A00106B8B0010000000207B05001047
:100CB000080000200C00002010010020110000207E
:100CC00080E100E05400002030010020008002207C
:100CD00072B6FFF7EDFD032001F0D7FB01F009FC30
:100CE000002001F0DFFBFF20F53000F055FA01F0A5
:100CF000DFFBFFF7CFFE01F0D9FB08210020FFF753
:100D000012FF2CA22EA131A000F04EFC35A000F065
:100D10004BFC384802F089FA0446214636A000F020
:100D200043FC002C01D000BFFEE7012252023849EB
:100D3000384800F0BFFC62B600F055FF36A000F066
:100D400033FC35E001F0E9FC3848007801281CD17B
:100D50003048103800F009FD002816D1012000F0BD
:100D6000EEFD002806D10123FF2248323049184603
:100D700000F072FD2748103800F000FD402804DB29
:100D800000202C490870FFF70FFE224800F0EDFC10
:100D9000002801D1FFF756FE2748807E4021884376
:100DA000254988761623254A0421012001F0CFFD2C
:100DB000C8E7000031313A34353A333900000000D9
:100DC0005365702032302032303139005359443865
:100DD00038323120424C45756172742025733A25B2
:100DE000730D0A005359442D54454B2E496E630D23
:100DF0000A00000078563412666C6173685F706593
:100E00006F746563745F6B65793A25780000000044
:100E100030030020200100206761705F735F616410
:100E2000765F73746172740D0A0000000C0000207C
:100E3000670A00101100002060100050F82A00001E
:100E4000D1490860704770B50246202414406309F8
:100E500020251446AC430125A54028469C00CB4DD7
:100E60002C592075050A6575050CA575050EE575E7
:100E7000002B13D0002908D1C54D6D7D0543ECB280
:100E8000C34D6D7DC24E747515E0C14D6D7D8543BA
:100E90002C46BF4D6D7DBE4E74750CE0002905D10A
:100EA000BB4C64680443BA4D6C6004E0B84C6468A1
:100EB0008443B74D6C6070BD70B502462024144069
:100EC000630920251446AC430125A5402846002B84
:100ED00013D0002908D0AE4DED7D0543ECB2AC4DEA
:100EE000ED7DAB4EF47515E0A94DED7D85432C46A7
:100EF000A74DED7DA64EF4750CE0002905D0A44C5D
:100F0000E4680443A24DEC6004E0A14CE46884432F
:100F10009F4DEC6070BD30B50B4620240440610944
:100F200020250446AC430125A5402A468C00974D58
:100F30002C592276150A6576150CA576150EE576E0
:100F4000002B0AD08C00914D2C592271150A657125
:100F5000150CA571150EE57109E08C008B4D2C590F
:100F60002272150A6572150CA572150EE57230BD58
:100F700010B520230340590920240346A34301242C
:100F80009C4022468B00814CE3581A73140A5C7310
:100F9000140C9C73140EDC7310BD10B52023034099
:100FA000590920240346A34301249C4022468B0078
:100FB000764CE3581A71140A5C71140C9C71140E6F
:100FC000DC7110BD10B520230340590920240346CD
:100FD000A34301249C4022468B006C4CE3581A72B8
:100FE000140A5C72140C9C72140EDC7210BD30B5C5
:100FF000014620200840420920240846A04301243D
:10100000844023469000614C20584030102404193D
:101010002578284665782D022843A5782D04284395
:10102000E478240620431840002801D0012030BD78
:101030000020FCE7F0B503460C46154620221A4076
:10104000500920261A46B243012696403146002C0C
:101050000BD182004D4EB258403211720E0A5672B8
:101060000E0C96720E0ED6720AE08200474EB258EF
:10107000403211710E0A56710E0C96710E0ED67119
:10108000002D0BD18200414EB258203211760E0A4B
:1010900056760E0C96760E0ED6760AE082003B4E01
:1010A000B258203211750E0A56750E0C96750E0E3A
:1010B000D6758200354EB258203211710E0A567123
:1010C0000E0C96710E0ED671002201269640314FFD
:1010D0003E6000BFF0BD10B5202303405909202415
:1010E0000346A34301249C4022468B00274CE3582F
:1010F00020331A72140A5C72140C9C72140EDC7287
:1011000010BD70B500243CE0A000204908584030D4
:10111000142141180A7810464A78120210438A783E
:1011200012041043C97809060843A100174A515810
:1011300020310A461378194653781B0219439378D5
:101140001B041943D2781206114308400546002DAE
:1011500000D114E00C480068002804D0294620463D
:10116000094A12689047A0000849085840300575A0
:10117000290A4175290C8175290EC17500BF601CB3
:10118000C4B2022CC0DB70BD48000020400000202B
:101190004010005000E100E0002109E0002201E0E1
:1011A000531C9AB27D239B019A42F9DB4B1C99B2E6
:1011B0008142F3DB7047002107E0002201E0531C6D
:1011C0009AB2092AFBDB4B1C99B28142F5DB7047CE
:1011D00010B50146272901DA002902DA0020C043B0
:1011E00010BDCC07E40F202904DA4A101B48006820
:1011F000835C05E008462038421018484068835C4C
:10120000002C01D01811EBE71807000FE8E770B5C4
:10121000272801DA002800DA70BD0907090FC40782
:10122000E40F202804DA43100C4E3668F21805E06B
:101230000646203E7310094E7668F2181578002C89
:1012400001D00F2600E0F0263540002C01D00E071B
:10125000310E2E460E43167000BFDDE74C00002015
:1012600070B504460D46062000F00EF98A48006865
:101270000078000900012907090F08438649096819
:10128000087085480068007880218843E101802249
:10129000114008438049096808707F480068007859
:1012A000402188437C49096808707B480068807841
:1012B0000821884308307849096888709200774986
:1012C000774800F0F7F97748406A402108437549AC
:1012D00048620846006A40210843724908620620B5
:1012E00000F0CBF870BD70B56B4800680478302012
:1012F00060400546684800680570102020400028BE
:101300000DD000BF644800680179654800F00AFA12
:1013100061480068C078C007C00F0028F2D070BDD7
:1013200070B504460D46192000F0AEF85A484068E2
:101330000078000900012907090F08435649496848
:10134000087055484068007880218843E101802278
:10135000114008435049496808704F484068007878
:10136000402188434C49496808704B484068807860
:1013700008218843083048494968887092004A49E2
:101380004748103000F096F9192000F076F870BD4B
:1013900070B54148406804783020604005463E48BA
:1013A000406805701020204000280ED000BF3A4849
:1013B000406801793A48103000F0B4F93648406886
:1013C000C078C007C00F0028F1D070BDF0B50B4643
:1013D00001242404002112E000BF85002E4E75591F
:1013E000ED782D07ED0F002DF7D1850075596D783B
:1013F0005E5C35468600284FBE597570491C914287
:10140000EADB00E0641E8500234E7559ED786D0718
:10141000ED0F002D01D1002CF4D1F0BD70B50446C4
:101420000D4621011E4A8818294600F089F970BD31
:1014300070B504460D4600BF022C01DB002070BDD4
:101440002101174A881800F090F900280AD12001DC
:1014500013494018C5682101114A881800F08EF917
:10146000C0B2ECE70020EAE70146012901DD0020D7
:1014700070478800084A1058FAE7C206D20E0121C8
:1014800091400A4A11607047C206D20E0121914074
:10149000064A80321160704754000020300100205D
:1014A00010010020008002203003002000E100E055
:1014B00010B50246062001238340754C236000BF0F
:1014C000744800680078000900010B071B0F1843DF
:1014D000704B1B6818706F48006800788023984331
:1014E000D3018024234018436A4B1B681870694855
:1014F00000680078402398434030664B1B681870A2
:1015000064480068C078102398431030614B1B6812
:10151000D8706048006880780823984308305D4B95
:101520001B6898705C48406A402318435A4B5862C5
:101530001846006A40231843574B186206200123BF
:101540008340534C803C236000BF10BDF0B50B4678
:1015500001242404002112E000BF85004D4E75597E
:10156000ED782D07ED0F002DF7D1850075596D78B9
:101570005E5C35468600474FBE597570491C9142E6
:10158000EADB00E0641E8500424E7559ED786D0778
:10159000ED0F002D01D1002CF4D1F0BD10B50821C4
:1015A0000020FFF785FF10BD0FB438B50024049864
:1015B000002803D138BC08BC04B0184705A8009027
:1015C0003648009A049905F0BFF8C4B20020009094
:1015D000802C00DD8024224630490020FFF7B6FF32
:1015E00000BFE7E70FB438B505460024059800288A
:1015F00003D138BC08BC04B0184706A8009027489F
:10160000009A059905F0A0F8C4B200200090802C43
:1016100000DD8024224621492846FFF797FF00BFBE
:10162000E7E7F8B505460E4617460024002D02D020
:101630002846FFF7B9FF00241BE02046E117490FB9
:101640000918C910C900611A03D1A1B214A0FFF78B
:10165000ABFF315D14A0FFF7A7FF601CC117490F56
:101660000918C910C900411A02D111A0FFF79CFF47
:10167000641CBC42E1DB2046E117490F0918C91080
:10168000C900611A02D00AA0FFF78EFFF8BD000062
:1016900080E100E05C000020008002203005002096
:1016A0005B253034785D2000253032782000000042
:1016B0000D0A00000023436003608260C160704730
:1016C000416801607047F8B504460F4615466068EA
:1016D0004019A168884219DBA088281A86B262687E
:1016E000E16888183246394605F06DF8A81B85B2C6
:1016F0002068A84202DC2088401E85B2B9192A461B
:10170000E06805F060F865607019F8BD6268E1682E
:1017100088182A46394605F056F860684019606016
:101720002846F2E702465368581C5060D068C154FE
:1017300093685068984201DB002050600120704798
:10174000024653681068984201D100207047136820
:10175000581C1060D068C05C08709368106898428C
:1017600001DB002010600120F0E701464A680868AC
:10177000904201D1012070470020FCE70146002281
:101780004B680868984200DD8A68486880180B68D2
:10179000C01A704710B56E480068007E40084000CF
:1017A000401C6B49096808766A480068002802D026
:1017B00068490868804710BD10B565484068007EDC
:1017C00040084000401C624949680876614840680A
:1017D000002802D05F494868804710BD10B55C48BA
:1017E0008068007E40084000401C5949896808769E
:1017F00058488068002802D056498868804710BD44
:1018000010B55348C068007E40084000401C504955
:10181000C96808764F48C068002802D04D49C8689A
:10182000804710BD10B54A480069007E400840005E
:10183000401C47490969087646480069002802D0DB
:1018400044490869804710BD01468800404A105845
:101850000078C007C00F7047F0B504460E46154625
:101860002046FFF7F1FF002801D1052C01DB002005
:10187000F0BDA00037490E50042C13D1A00034490C
:101880000A585179177909023943084691790904B0
:101890000843A1002E4A51580D712A0A4A71280C9A
:1018A00088710EE0A0002A49095848790979000298
:1018B0000843A9B20846A100254A51580871000AF8
:1018C0004871002B0BD0A00021490858007F400828
:1018D0004000401CA1001E4A515808770CE0A000AF
:1018E0001B4908582030007840084000401CA100E7
:1018F000174A515820310870A0001549085800783F
:1019000040084000401CA100114A515808700120B5
:10191000AEE700B503461846FFF796FF002801D052
:10192000052B00DB00BD98000949085800784008E5
:1019300040009900064A5158087000BFF2E701467E
:101940008800034A10580078C007C00F7047000095
:1019500064000020B005002070B504460E46154610
:101960000E20634909680870681C6149096848705D
:101970005F48006884702A4631465D480068C01C94
:1019800004F021FF70BD08B55AA0FFF70DFE00F06E
:1019900008FE002802D00020009001E00120009005
:1019A000012269461620FFF7D7FF08BD38B5044667
:1019B000002500BF2CE0E01C415D5248027900790F
:1019C000401CC3B24F480371203881542030007945
:1019D000202819DB4B492039096A4801494A203A35
:1019E000202100F08AFE002802D00020009001E0B3
:1019F000012000900021434801712038006A401CFA
:101A000040492039086201E000200090681CC5B2FE
:101A1000A078A842CFDC012269461720FFF79CFF7F
:101A200038BD38B5044637480079002808D0354A13
:101A30001179203A126A5001324A203A00F05DFED4
:101A4000204604F021FF0546607921790002084311
:101A500003462A460021084600F05AFE002802D01C
:101A60000020009001E0012000900122694618202A
:101A7000FFF772FF38BD70B504460E46254628783C
:101A8000162804D017280BD018281ED116E00020E5
:101A9000FEF74FFCFFF777FF01201B49087014E0A9
:101AA000A81CFFF783FF18480078002802D1022005
:101AB0001549087000201549087006E0A81CFFF7BA
:101AC000B0FF03201049087000BF00BF70BD70B5A3
:101AD00005460C46064800684078821C0C4928469A
:101AE00004F071FE024800684078801C207070BDD0
:101AF00080000020436D64467745726173650D0A6E
:101B000000000000E405002078000020790000209B
:101B10007A0000200748804707480047FEE7FEE7B5
:101B2000FEE7FEE7FEE7FEE704480549054A064BE7
:101B300070470000551B0010C1000010D01A002093
:101B4000D06A0020D05A0020D05A0020034804490F
:101B500008607047014802490860704740787D017D
:101B600084000020F749202208781043EF2210401B
:101B7000042210430870704710B5F34880470028CE
:101B800002D002F051FF012010BD10B502F0AFFFEE
:101B900010BDED4928310847EB493C310847EA4977
:101BA0006C310847E9490847E8495C310847E7498B
:101BB0006A310847E54976310847E44986310847E4
:101BC000E24994310847E149A2310847DF49AE3183
:101BD000084730B4DE4CA44630BC6047DC48743063
:101BE0000047DC480047F8B5DB4DCF222968DB4CC5
:101BF00008780026104008702068D94918308847B6
:101C0000286822680178127F090912070901120F5A
:101C1000114301700907090FBF27012921687DD0F1
:101C20000A4622314B7809781B020B4311462031BA
:101C30000B711B0A4B710378117A3B4089010B43EE
:101C40005906490E0170226841784032127A89099A
:101C5000921D92068901920E11434170216806225D
:101C6000801C093104F0AFFD21684820425C002A45
:101C700004D028684931083004F0A5FD2168B84A2D
:101C80007020405C323A713190472868B54A4178FB
:101C90008906890E891C904728680178090909017D
:101CA000091D017022683940127AD207520E114381
:101CB0000170226841782032127A8909921D9206B9
:101CC0008901920E1143417021680622801C09315E
:101CD00004F079FD21682820425C28682931083009
:101CE00004F071FD2868A04A41788906890E891C94
:101CF0009047256800206F7F012181400F4204D06A
:101D0000E97F0B2251438E19761C401C0328F3D324
:101D10002C46203460782178000200E01AE0084365
:101D200013214843401CB04206D2701E04F0C5FD8A
:101D3000401C2070000A607060782178000208431F
:101D4000022803D20220207000206070287F012822
:101D500024D03AE00B4620318A79CA71197A027888
:101D6000C9073A40490E0A43027051062268490EDB
:101D70006032127CD2011143017041780622890938
:101D800089010C3141702168801C093104F01BFD70
:101D9000286821680622083071316DE7E079002853
:101DA00013D0607822780102114313204143A079B7
:101DB000491CC00304F081FD401C06467F2104F04D
:101DC0007CFD401CC1B2E1711EE060792179000206
:101DD000084331D060782278010211431320414337
:101DE000284622304278037810021843C003491C69
:101DF00004F063FD401C06467F2104F05EFD401C9C
:101E000081B22171080A6071304604F056FD401C11
:101E10007F2800D97F200121E975A97F0091617891
:101E2000237809021943514CEA7FC0B23B46A047D0
:101E30004E4834308047F8BD00204D4CE8750346CD
:101E400002460121A047F8BD4A48002201684A75B0
:101E50000A7C012002430A74404909682031C87194
:101E600008710020487170473A491A3108473948CB
:101E7000F43000474048004738B5049C00943E4C7D
:101E80000E34A04738BD30B43B4CE834A44630BCD7
:101E9000604710B502F021FF10BD10B502F039FF08
:101EA00010BD3549A4310847344800473348323023
:101EB00000473249463108473049B23108472F4977
:101EC000C23108472D4AD032104710B501F0FEF953
:101ED00010BD2A49FC3108472949084728490E31D5
:101EE000084727493631084710B501F0CEFC10BD30
:101EF00010B503F034FB10BD2148DC3000471D480D
:101F00000068C0788007C00F704770B5134800683C
:101F1000817C427C0802104312D0FFF7F0FF094C8D
:101F20000225012830D11648DC3080471549884207
:101F30002AD12178012029430143217003F00FFBAE
:101F400070BD00002A160020DF5600001558000062
:101F500027590000CD5B0000B4000020B000002035
:101F6000451D00002B26000047270000971B00009E
:101F700031540000A8000020F55C00005B5E00000A
:101F8000675F000006040000207880210843284392
:101F90002070D5E7F8B5FE48C079000656D5FD4853
:101FA0000668B17C707C0F020743F948057801D0C0
:101FB000A80701D4680749D5F54C207BE17A0002D7
:101FC000E41C084342D0002F40D060782178000202
:101FD00008432AD1307CF17B0002084305F03BF92D
:101FE0000022ED4B05F03AF905F0E8F880B27843AD
:101FF0000A2104F06CFC4004010C2170080A607096
:10200000307DF27C000210430A224243914203D306
:10201000401E2070000A607060782178000208433A
:1020200003D10120207000206070FD210D40D848B0
:1020300001210D430570002003F091FA60782278A9
:1020400001021143D64BD54A09209847F8BD10B577
:102050000F21CF4804F014FC10BDF0B504468DB03C
:10206000401C04F011FCCA4E00253E3E02460428E6
:102070002AD0C748D31F0178FF3BFA3B18D0012371
:102080009B039A4279D1C6490A2024318847707847
:102090000621484381190A22601D891C04F093FB24
:1020A0007078401CC0B270700A2876D3757074E0E6
:1020B000C279002A71D0CA066FD4A37966791A0250
:1020C0003243012A05D068E075703570FFF7BFFF15
:1020D00063E08278521E1206120E82704ED0AC4916
:1020E000437888794E7902023243887A4E7A000228
:1020F0003043491C012B47D0801A0872000A4872ED
:1021000000060B7A000C1843831A6A461383508327
:102110009F4A167BD27A360216436A4696834A7BDA
:102120000F7B110239436A46D18313805080968019
:10213000D18013723220507200209072D572280A1A
:10214000107301205073002090730220D073002080
:10215000107403205074002090740420D074002068
:10216000107505205075002090758E4910468847DF
:102170008C4906A81E3188470FE007E0027A82707A
:1021800040221143017008E08018B6E7880604D5A4
:102190009004000F01D0FFF7FDFE83492046096936
:1021A00088470DB0F0BD10B50446001D04F06CFB6F
:1021B0007D490861211D7D4804F077FB794920465F
:1021C0005C31884710BD77497E3108477549D43165
:1021D0000847744ADC321047724AE43210476C49AF
:1021E00000203E390A7849788A4200D90A20081826
:1021F000801A401EC0B2704700B5FFF7F0FF0028FC
:1022000004D1634800213E384170017000BDF8B52B
:102210000E46074666491C46154601208847002899
:1022200007D0FFF7B7FE23462A463146384602F06C
:1022300030FDF8BDF8B50E4604465D491F4615460B
:1022400001208847002814D0022C03D1FFF7C7FFD4
:10225000002809D0EAB2534D3B4631462046F435BA
:10226000A847012807D004E00A214D4B514A0846EF
:1022700098470020F8BD022C12D1454C06213E3C67
:1022800020780A46484300193146801C04F09BFA26
:102290002078401CC0B220700A2801D30020207092
:1022A0000120F8BD70B50D4604461121401989037F
:1022B0001646884201D3002042E63F48006821309C
:1022C00004F0E2FA3D4B001932462946984737E6BA
:1022D000F8B50646EFF3108472B6374D2868213002
:1022E00004F0D2FA8019364A0121904784F310880D
:1022F000334F0024F63FEFF3108572B62E48006886
:10230000213004F0C1FA311940182E4900230A196E
:102310002021B84785F3108801200003203484422F
:10232000E9DBF8BDF7B5070501993F0D002912D08B
:10233000029900290FD01C49897800290BD10199F5
:102340007A18012109038A4205D8019A11238218BB
:102350001B039A4201D90020FEBD0025C41BEFF3E8
:10236000108672B614480068213004F08DFA6119A5
:1023700040181449114B4A192021984786F31088B8
:102380000120000320358542E9DB0E48C0191BE01F
:102390002A160020B00000200000F43F0B1F0010A0
:1023A000D3330000575F0000880000205B2000103E
:1023B00045850000F9210010AC0000208F160000B8
:1023C0009F180000EC050020019A029904F0FBF927
:1023D000FB490120884700280AD0EFF3108072B62D
:1023E000F84901228C808A7080F310880120FEBD9C
:1023F0002046FFF76DFFF9E7F3490847F24A083234
:10240000104738B5049C0094EF4C1034A04738BDF9
:1024100030B4ED4C1C34A44630BC6047EA4924314A
:102420000847E94A2C321047E74A3432104730B4A3
:10243000E54C3C34A44630BC6047E34B443318477A
:10244000E14B4C33184730B4DF4C5434A44630BC15
:102450006047DD495C310847DB4864300047DA49B2
:102460006C310847D9490847D84908310847D74946
:102470008C310847D548BE300047D448E230004789
:10248000D34A1047D2495231084710B503F026F815
:1024900010BDCF4964310847CD496C310847CC495C
:1024A0007631084710B502F0B9FB10BDC9480047A6
:1024B00070B5C448002480682546807A4006C60F5F
:1024C00072B6C4488047022002F0A8FB641CA4B284
:1024D000FA2CFBD30024304602F05CFB002801D02C
:1024E000012503E0641CE4B2032CF4D362B6284651
:1024F00026E510B502F066FF10BDB6480E30004765
:10250000B54A1047B44A223A104738B502F05AFF8C
:10251000B2480068407805281FD1AA488068807AB0
:102520004006C40FAB48804700217F20FFF7E8FF3B
:1025300069463F20FFF7E6FF6846007881090229D7
:1025400006D14106490E684601703F20FFF7D8FFCB
:10255000002C02D19F480E30804738BD9C49A431E1
:10256000084730B49E4CA44630BC60479848F630CB
:10257000004798481438004796491C310847954849
:102580004230004793484C30004710B5914880478F
:10259000944C0120A0470020A04710BD924908702C
:1025A0007047F8B5002472B6904A0121904B090398
:1025B0002046984762B68F4E30680546093004F0D1
:1025C00063F98A494718E878002811D02846313045
:1025D00004F05AF9064628462D3004F055F9301A11
:1025E0004002060E3878844F824D002857D073E0A1
:1025F0002846293004F048F906462846253004F0DC
:1026000043F9301A4002060E38787B4F794D002886
:102610000CD026E072B62868293004F035F9E103C1
:1026200040180821B84762B6641CE4B2B442F1D342
:102630002D682846293004F027F90646284625301B
:1026400037E072B6E203B01819E072B62868253098
:1026500004F01AF9E10340180821B84762B6641C77
:10266000E4B2B442F1D328680646293004F00CF9EC
:1026700005463046253039E072B6E2038018B84787
:1026800062B60120F8BD72B62868313004F0FCF85B
:10269000E10340180821B84762B6641CE4B2B442B2
:1026A000F1D32D682846313004F0EEF8064628466E
:1026B0002D3004F0E9F8301A4004410FC1D1E0E7B1
:1026C00072B628682D3004F0DFF8E10340180821C5
:1026D000B84762B6641CE4B2B442F1D32868064637
:1026E000313004F0D1F8054630462D3004F0CCF8F6
:1026F000291A4904490FBFD1C3E7364BC2331847E3
:102700003E4B184730B43D4C6634A44630BC60475D
:1027100030B43B4CA44630BC6047F8B539488047DC
:10272000284DA878002809D0A888FFF7D1FDEFF33D
:10273000108072B60021A97080F31088324CE079C5
:10274000002834D0000610D52078410705D5FFF7C2
:1027500021FC2078FB21084006E0000605D5FFF7A4
:1027600019FC20784006400E20702078274F284E14
:1027700041060AD5BF210840207002206946088022
:1027800002466B4639460020B0472078C1070ED07C
:10279000400840002070800701D5042000E005209B
:1027A0006946088002226B4639460020B0476878A7
:1027B000C10704D0400840006870E8688047F8BD51
:1027C00045850000880000205D6100008B620000EC
:1027D000916300006B660000A7290000B000002094
:1027E000E9310000692D00009E000020EC0500206A
:1027F0008F160000AC0000209F1800001B6800002E
:1028000061690000D16400002A1600200002000067
:1028100031540000FE480047FD483A300047FC486C
:1028200052300047FA486A300047F9486E30004796
:10283000F8498A69120A120202434A61087C01229D
:10284000104308747047F8B50446F348017DE2066A
:1028500049094901D20E114301750221EF4D7F2034
:10286000A847EE4E25206946223EB04768460178CB
:10287000214301702520A84769462520B0479EE7DF
:10288000E748E84900684118487C097C0002084391
:102890007047F8B50546EFF3108472B60021DF4E9D
:1028A0007F20B047DD4A17206946223A90476846A4
:1028B00001789F200140A807400E0143684601703F
:1028C0001720B04784F3108879E738B5EFF3108408
:1028D00072B60021D14A7F209047D04A172069461E
:1028E000223A904784F31088684600784006800FAB
:1028F00038BDCD490840C7494A6882434A6070479D
:10290000C9490840C3494A6802434A6070471CB538
:102910006A4690801180C5485080D0806946012069
:1029200001F0C0FC1CBDC248004770B50546C14857
:102930000C468268107AFB2108401072BE49284676
:102940008847BD4A214628465E3A9047B4E470B5B0
:10295000BA4C2468E47BA406A40E00280AD0B04D2B
:102960002D68ED7D002D05D0052C07D0062C05D057
:102970000F2C03D002F0E1FE01209DE400209BE437
:1029800070B5044603200003844221D9AC48056891
:10299000E878002802D001280AD01BE0284625301C
:1029A00003F072FF0646A04214D82846293008E0FA
:1029B00028462D3003F068FF0646A0420AD8284674
:1029C000313003F061FF0146801B0818A04201D995
:1029D000002071E401206FE410B572B6994A904767
:1029E00062B610BD70B514460D460646FFF7C8FF27
:1029F000002806D072B62246934B294630469847A7
:102A000062B659E410B572B68F4BAE33984762B6D2
:102A100010BD10B572B68B4CF63CA04762B610BD27
:102A2000F7B50025C80288B00E462C46070C11E009
:102A3000089861010818844B6A46202198470020B5
:102A400069460A5C401C5219C0B295B22028F8D3DE
:102A5000641CA4B2BC42EBD3F6060898F60E6101E2
:102A60000818794B6A46314698470020694604E0C9
:102A70000A5C5219401C95B2C0B2B042F8D30A9811
:102A8000854202D101200BB0F0BD0020FBE7FFB56D
:102A90000E460121074609036B4BA5B06B4A002087
:102AA000984735226949684603F08DFE02A8013037
:102AB00003F0EAFE65495722441821460EA803F0A8
:102AC00082FE2021601C03F0DBFE0025002F10D0C9
:102AD0000020395C00290AD02218401CC0B2517075
:102AE0002028F6D305E02118401C4D70C0B22028E4
:102AF000F9D320460521213003F0C2FE002E12D06A
:102B00000020315C00290CD022182032401CC0B2B9
:102B100051700528F5D306E021182031401C4D7076
:102B2000C0B20528F8D321462631279803F0BDFE10
:102B30002146223128980872000A48720121414A30
:102B400025700020904701213F4B090300203F4A98
:102B5000AE339847012029B0F0BDF0B5027889B0B6
:102B6000002A77D03A49CA7142780A72002A01D005
:102B7000042A01D904220A72C278847813022343FA
:102B8000334A1C0A537294724479057924022C4307
:102B90001546EC72260A2E73A646C4798579200262
:102BA00028435073040A84461D489473046808251A
:102BB0002746207CE47B000220430124521C8342F0
:102BC0004C7008D9181A07E01471200A01E0157139
:102BD000280A507107E0C01A0E7AB04270DA1471F8
:102BE000260A56710872087A88700D70002B63D01F
:102BF0005079117900020843191A6846018343830A
:102C00006146C18371468183B87C797C000222E0F1
:102C1000713C00000010005040600250A7290000E5
:102C2000B000002063050000FCFF0FFD4808000015
:102C30000D33000088000020AB310000A800002008
:102C4000AC0000209F1800008F160000EC0500204B
:102C50002A16002038E0084302D0002002F07FFC52
:102C60006846018B0180428B4280828B8280C28BBE
:102C7000C28001723221417200218172C1720173DE
:102C80004473210A81730221C1730021017403215D
:102C90004174002181740421C17400210175052152
:102CA000417500218175F7498847F64906A81E310C
:102CB0008847F54909208847012009B0F0BDFFE7A2
:102CC000F600B04283DA7FE70020F6E7FEB507465C
:102CD000EE4801780A077DD5F72211400170BA79D4
:102CE0007C1C7B7912021A437BD0C279120678D5FC
:102CF000102211430170880673D4E54880470546C9
:102D00006079217900020843FF1C002832D004F0CA
:102D1000A2FA06460091787839780002084304F058
:102D20009AFADC4F00223B4604F098FA3246009BA8
:102D300004F094FA0090D84801910068017CC27BAD
:102D40000802104304F087FA00223B4604F086FA9A
:102D500007460E46607A217A00020843401B04F0C1
:102D600072FA3A46334604F079FA019B009A03F06E
:102D7000D1FF24E0787839780002084304F0E8FBBA
:102D80000646C5480068017CC27B0802104304F077
:102D9000DFFB314605F0A0FD04F084FB0022BD4BB3
:102DA00004F05CFA07460E46607A217A0002084376
:102DB000401B04F048FA3A46334604F04FFA00222A
:102DC000B64B03F0D7FF04F0F9F90104090C00D168
:102DD000012101E00EE004E0AB4B0920B04A243BA6
:102DE000984703206946088102221102AD4C02ABCC
:102DF0000020A047FEBD38B5AB4C2078002804D198
:102E0000AA496846884701202070012038BD10B5C6
:102E10000B30102801D9FF2010BD9B4BC4B22046B7
:102E2000243B9847204610BD10B50B30102801D91F
:102E3000FF2010BDC4B2944920468847204610BDEB
:102E4000072801D900207047012282409648437824
:102E50001A434270C160012070478F480068C07DEE
:102E600070478D48924900684118487C097C0002EF
:102E70000843704710B5030005F0D6FC09061C3660
:102E8000506A849EB0CAE60000217F20FFF738FB1D
:102E900000213020FFF734FB01217F20FFF730FBBA
:102EA0001E216320FFF72CFB1F216D20FFF728FB5D
:102EB000882114E000217F20FFF722FB0021302031
:102EC000FFF71EFB01217F20FFF71AFB1E21632065
:102ED000FFF716FB1F216D20FFF712FB8A216120EF
:102EE000FFF70EFB8121ACE000217F20FFF708FBFC
:102EF00000213020FFF704FB01217F20FFF700FBBA
:102F00001E216320FFF7FCFA1F216D20FFF7F8FA5E
:102F10008A216120FFF7F4FA832192E000217F20CB
:102F2000FFF7EEFA00213020FFF7EAFA01217F20B7
:102F3000FFF7E6FA1E216320FFF7E2FA1F216D205A
:102F4000FFF7DEFA8A216120FFF7DAFA872178E0BD
:102F500000217F20FFF7D4FA00213020FFF7D0FABC
:102F600001217F20FFF7CCFA1E216320FFF7C8FA6A
:102F70001F216D20FFF7C4FA8A216120FFF7C0FAF4
:102F80008F215EE000217F20FFF7BAFA0021302078
:102F9000FFF7B6FA01217F20FFF7B2FA1E21632066
:102FA000FFF7AEFA1F216D20FFF7AAFA8A216120F0
:102FB000FFF7A6FA9F2144E000217F20FFF7A0FA47
:102FC00000213020FFF79CFA01217F20FFF798FABB
:102FD0001E216320FFF794FA1F212AE000217F20A1
:102FE000FFF78EFA02213020FFF78AFA01217F20B5
:102FF000FFF786FA1F216320FFF782FA03216D2075
:10300000FFF77EFA8A216120FFF77AFAB02118E0F3
:1030100000217F20FFF774FA02213020FFF770FAB9
:1030200001217F20FFF76CFA1F216320FFF768FA68
:1030300007216D20FFF764FA8A216120FFF760FA0B
:10304000BF216520FFF75CFA10BD1A49096860319D
:103050000874704710B500280ED001282CD0022823
:1030600030D0032807D102217F20FFF749FA402101
:103070002920FFF745FA10BD02217F20FFF740FA13
:103080004621F5E7575F0000F73300002A160020BD
:10309000051B00000000F43FB000002000002440A9
:1030A000651B001031540000880000209D2C00009A
:1030B00063050000A800002002217F20FFF720FA0E
:1030C0004421D5E702217F20FFF71AFA4221CFE7FA
:1030D00010B5044674480068093003F0D5FB102190
:1030E000724B22465730984710BDF8B50546EFF3AE
:1030F000108472B66E4E01273F036C4B3946002098
:103100003268984701216B4A002090476648006862
:10311000093003F0B9FB31681022573140182946B5
:1031200003F051FB0023634D39461846F63D3268E3
:10313000A84784F31088F8BD5F490A69D208D20015
:103140000A61401E4861002088610869012210431D
:1031500008610869C003FCD57047F0B500260B462E
:103160000446012597B0304631462D03675C491C63
:10317000BE19A942FAD30021675C491C7840A942D4
:10318000FAD39E422BD1904229D1474E3068093064
:1031900003F07AFB454B6A4657219847306809305F
:1031A00003F072FB00195722694603F00CFB3068EC
:1031B0000D3003F069FB4149001909680722083105
:1031C00003F001FB01213B4A00209047374B0020D0
:1031D00022462946AE339847012017B06EE50020FD
:1031E000FBE770B501252D030446304B344A2946D0
:1031F000002098473349204688472B4800680D3007
:1032000003F042FB2E49072240182C490968083177
:1032100003F0D9FA0121274A00209047234B0020D0
:10322000274A2946AE33984770BDF8B504001AD036
:103230002549684688470098002816D01C4D012172
:1032400009031A4B00202A689847174F386809303D
:1032500003F01AFB29686731405C401CC6B2052E9A
:1032600005D90220F8BD0120F8BD0420F8BD0320D7
:10327000800384430098A04201D10020F8BD0121C1
:103280000C4A002090473868093003F0FDFA29689D
:103290000023673146540121064C09031846F63CC9
:1032A0002A68A0470320F8BDAC0000208F1600005C
:1032B000E00000209F18000000E000E0B0000020C7
:1032C000EC0500204B570000C12C0000FE490A7994
:1032D000002A00D008707047F8B5FB4C6369597933
:1032E000002915D0B121C95CC91F092956D801464A
:1032F00018461022D93003F066FAE0780025022142
:103300000128606905D04279D2060FD5EF48804781
:10331000F8BDCA22125C012AFAD1C279012A01D170
:10332000C57137E0002AF3D1C171F8BDC279012A15
:10333000F8D1CA21095C01292AD1E06980260178E7
:1033400001208840216A0968884300D1812600272E
:10335000DF4880476169C919E0317F1CFFB24876B8
:10336000102FF5D3606933460146E93102460091DA
:10337000FF31F9321131D74EFF305A30B047E06992
:103380000078142803D261690120C87101E06069E6
:10339000C5716069D049E9308847F8BDCB4B06223A
:1033A000002101208C3B9847F8BDF1B5C64CA4B074
:1033B0006069417900292BD0CA210A5C2146C64F99
:1033C00049691C370025E931012A23D00646024607
:1033D000713609320491711E531E0196BE4E02933E
:1033E0000392CA33C23200917A36FF300A302499F0
:1033F000B047616910220846D930E93103F0B6F9C7
:1034000000287CD0B14B0422002101208C3B98473E
:1034100025B0F0BD0C950D950E950F951195129553
:103420001395149542790126D206002A03DBA64A99
:103430001379002B7ED0F930B847A34C20790028AF
:1034400022D01DA8019500906369A44F184601463B
:10345000FF30FF31FA305A31F933249AB8471DA8AA
:10346000013003F011FA18A9097D000208439C49B4
:1034700003F023FA0422019111049A4F01AB0020BA
:10348000B847207800287DD067690722394609317E
:1034900015A803F098F939460722713117A803F0EF
:1034A00092F9387A002810A86DD086767020C05D19
:1034B000002818A868D0867004A83A460190F9320E
:1034C0001046844E15ADC03017AB00954636249992
:1034D000B0476069102204A9813003F074F908AE86
:1034E0000FCE19AE0FC6616903220E4621A8D33153
:1034F00003F069F903223146CC3122A800E073E0E1
:1035000003F061F93046FF30EA30039017AF21A98C
:103510006846A2C03146714EF93111AB19A86A3E16
:10352000249AB047626922A91046FF30DA300CAB0A
:10353000019700E00AE000910390029519A8F93282
:103540002499B04768490020884761E75E4A3446BD
:10355000D2698023127894405B4A126A12689443BD
:1035600000D1812300910146FF315A31594CFF307F
:10357000FA30249AA0475448102240690146E931A4
:10358000D93002E025E02BE02CE003F0EFF8002832
:1035900001D004221EE04C4C6069F930B847E06964
:1035A0000178491CC9B201701429CED3216A086878
:1035B000020C08A8827410A882710888020A08A860
:1035C000427410A84271097808A8017410A801710A
:1035D00033E70C223D4B002101208C3B984717E735
:1035E000857663E7857067E760690026F930B8473C
:1035F0006369384F1946FF330A33363F1846F931AD
:10360000249AB847606910230146A03106E01718D4
:103610003246FF320A32761CBD54F6B24A7C9F1AFB
:10362000B742F4DC30490020884760694179490895
:1036300049004171ECE6F0B50446C07885B0072832
:1036400007D2224B0622002101208C3B984705B06F
:10365000F0BD1D4E01217069CB22115400250622B8
:103660002146CC3003F0AFF81120716940010818F1
:10367000A0314E7CC17E827F437F04920A07D20F25
:10368000009203934A07CF06D30FFF0F02968A07D3
:1036900001970E4E920F817E407E643EB047A07827
:1036A00010260007002843DA074A11215069490112
:1036B0004718FB7E19073BD50121CA2211545A072E
:1036C00015D4A278520711E09C0000205DA10000F3
:1036D0004D250000B3AA000055A90000FFAB000073
:1036E00040420F0031540000F73300000ED57B7EBE
:1036F00022789D005B19FE4D5B19D55C882D02D0A8
:10370000102D03D005E0FB4A117102E041793143ED
:1037100041714179C90634D50B21C9014018C07DDA
:1037200001282ED16421F54BF34A0520984728E063
:10373000F04F00217869CA22115411214901411822
:10374000CA7E520702D4A278520709D5497E227850
:103750008B00C918E64B193BC918555C102D02D1D6
:10376000417931434171E44AE44B943AE449002001
:1037700098476079C00704D07869032281791143A2
:103780008171607980070BD5DA48112140694901C0
:103790004118897F890703D581790C2211438171F2
:1037A000207980070BD5D348112140694901411880
:1037B000497F890703D54179802211434171CD4862
:1037C00041690846A0304674E278102A00D242745B
:1037D000487901221043CB4C4871202D08D0402D50
:1037E00000D034E700231A4640210020A0472EE7EE
:1037F00000231A462021F8E770B5BE4C0D466369D8
:10380000002825D0A0690C2181711946FF312022A2
:103810005A31C01D02F0D7FF6169A069FF31202233
:1038200027307A3102F0CFFF0621B74A4120904776
:103830000B216069C9014118C97D002907D1407970
:10384000C00602D42079012801D1AB48804770BD61
:103850001846FF302022FA3002F0B5FF2022AB4B91
:103860006069A9180E46C01802F0ADFF6369A84C44
:103870001846FF309A30FF3332462946BA33A04704
:1038800029460120FFF7B8FF70BDF0B5994C0646F8
:10389000606985B04179C9072AD0FF3010210A300C
:1038A00002F0EEFF6069320AC11DF9314E728A7270
:1038B000320CCA72320E0A73CA21095C0125012931
:1038C00018D00346064601460933E9365A1E7131BF
:1038D00001AF4EC7491E0091C933C33289318D4EA5
:1038E000FF300A30B0476069C17902292FD00BE060
:1038F0000020ACE6206A00210660E2698023117096
:103900006269D179022904D06069C17900292AD07D
:103910002AE000682946814300D18123E168002024
:1039200040314E7D1718E037401CC0B27E7610281B
:10393000F7D36069774E0146E93102460091FF31C5
:10394000F9321131E436FF305A30B047CBE77149D4
:103950007A39E93088476069CA21095C012902D0B7
:103960000021C17100E0C571012070E6F8B5614C1D
:10397000694F6169CA19517B127B09021143009199
:1039800002F09BFF0646A0780D46002826D063492A
:1039900008208847002804D0604902208847002872
:1039A0000CD06069C119487B097B00020843C01C28
:1039B000704384B2002D1AD0601916E06069C119F5
:1039C000487B0A7B0102A06C1143C21C8918714319
:1039D0008CB2002D0BD02818001906E00098C01CEE
:1039E000704384B2002D02D06018C01C84B24C48D1
:1039F0008047A04201D20020F8BD0120F8BD70B57B
:103A00000546D01D14460E4680B2FFF7AFFF0028D2
:103A100010D038481B2180692A0A8171C571027251
:103A200022463146093002F0CEFEE41C364AA0B2EE
:103A30000421904770BD70B50546D01D14460E4652
:103A400080B2FFF793FF002810D02A481D2180691B
:103A50002A0A8171C571027222463146093002F08C
:103A6000B2FEE41C284AA0B20421904770BDF7B50D
:103A7000204E294970690024091F2546401802F08C
:103A800003FFB26911219171837846781B02334399
:103A9000009E421C0146B34258D3019EB34255D802
:103AA0000E79CF783302029E3B43B3424ED10B785E
:103AB000172B55D00F4E0623B669F371577813783C
:103AC0003F021F43062363439E1937723F0A7772F2
:103AD0005679177936023E43064FBF69DF19BE7229
:103AE000360AFE72034ECF79B6699E19377319E014
:103AF000EB8C00109C0000205DA10000D33300007F
:103B0000B80B000031540000ED7F000019020000E6
:103B1000EF2A0000CFA900006103000069940000B3
:103B200043600000F74F0E7ABF69AD1DDB195E736D
:103B3000F44BF54E5B69ADB29E19737C367C1B026B
:103B4000641C3343AE1DE4B2B34225D353791679D6
:103B50001A02EE4B32439A421ED00178081893E7BE
:103B6000002C1BD1E74814238069C91DC371547808
:103B700016782302334303721B0A43725379147974
:103B80001A0222438272120AC27210220C3002F010
:103B90001AFE1435ADB201E0002C05D0AD1CDC4A94
:103BA000A8B204219047FEBD0A22DA4B10200099EA
:103BB0009847FEBDF7B5D34ED749706900252C460E
:103BC000401802F061FEB16909228A718378467853
:103BD0001B023343009E421C0146B34232D3019E76
:103BE000B3422FD80E79CF783302029E3B43B342C3
:103BF00028D10B78172B2FD0C24E0423B669241D71
:103C0000F371577813783F021F43AB009E19377248
:103C10003F0A7772BB4ECF79B669A4B29E19B772CC
:103C2000B84F0E7ABF696D1CDB19DE72B54BB64E0C
:103C30005B69EDB29E19737C367C1B023343261DF3
:103C4000B3421ED3537916791A02B04B32439A42CB
:103C500017D001780818B9E7002D14D1A94812220D
:103C60008069C2718B784D781A022A430272120A57
:103C7000427210220A30C91D02F0A5FD1234A4B20E
:103C800001E0002D05D0A41CA14AA0B20421904758
:103C9000FEBD0A229F4B082000999847FEBDF7B54C
:103CA000984E9D497069002508312C46401802F055
:103CB000EBFDB26909219171837846781B02334389
:103CC000009E421C0146B34242D3019EB3423FD8FC
:103CD0000E79CF783302029E3B43B34238D10B7842
:103CE000182B3FD0874E0723B669E41DF371577830
:103CF00013783F021F43EB005B1B9E1937723F0A8C
:103D00007772804E4F79B669A4B29E19B772CE7998
:103D10008F7936023E437B4F6D1CBF69EDB2DF19D0
:103D2000FE72360A3E73774E0F7AB6699E19777324
:103D3000744F4E7ABF69DB199E73724B724E5B698A
:103D40009E19737C367C1B023343E61DB34227D396
:103D5000537816781A026D4B32439A4220D001787C
:103D60000818A9E7002D1DD1664815228069C27187
:103D70008A784B7812021A430272120A42724A7906
:103D80008272CA798B7912021A43C272120A0273C2
:103D900010220D30083102F016FD1534A4B201E0F6
:103DA000002D05D0A41C5A4AA0B204219047FEBDA4
:103DB0000A22584B082000999847FEBDF7B5514E8E
:103DC00055498AB07069083109900025401802F001
:103DD0005BFD0446B6690920B0710720F0712778B1
:103DE0002046182F77D0417A207A09020143A37820
:103DF00060781B0203430A9883426BD30B9883427B
:103E000068D80C98814265D1434909980C31401813
:103E100002F03AFD0190E079A179000208430C21FB
:103E20002F464F43B9190872000A487235480021DD
:103E3000806A3A4B0170E079A279000210436A4629
:103E40009081D1810A3202A998470822314ED101CE
:103E5000002002ABA436B0472A48806A00780128C7
:103E60003CD0E079A379294A01021943019EF078F8
:103E7000B3780002184388426DD13079400604D5EA
:103E8000244820388047002836D03079810606D56E
:103E9000C0062049C00E1039884700282ED0E0798E
:103EA000A179000208431D4A0221343A90470028B4
:103EB00036D030793178C00970783BD000020843A1
:103EC0001538C4B20F48314680692246381815317A
:103ED00039E000E052E0417D207D86E7094CE06A50
:103EE000216B0678A069324638180A3002F06BFC64
:103EF000A069B61CC67137E0052200E00C220A99C1
:103F000013E000009C00002063050000FFFF00009C
:103F1000ED7F00008D5300005D030000F93E0000BE
:103F2000A0786278010211430222F94B08209847D9
:103F30000DB0F0BD00020843C01FC4B2F5482246D0
:103F400080693818F11D0A3002F03DFCF148A41CCC
:103F50008069C47108E0904206D07078337800021E
:103F600018438019019081E76D1C0CD0E9480421A9
:103F70008069E94AC079801C9047D9E7E7488342C5
:103F800001D03C192BE70A22B9E710B5062912D057
:103F9000417C037C0A0241781A430B020478C17801
:103FA00080780902234301438B4207D90122194635
:103FB0000820D74B24E041790379EBE70520C002C4
:103FC000824202D0401C824203D11846FFF7F2FD24
:103FD00010BDD348824203D11846CD4B18330FE0B1
:103FE000CF48401C824203D11846FFF758FE10BD4F
:103FF000100A2928184602D0FFF7E0FE10BDC94B71
:10400000984710BDF0B5C34C0746A07885B00D4663
:1040100000287DD0C44E0820B047002879D0022067
:10402000B047002875D1EFF31080049072B6A06CF1
:104030002818801C86B2BD4880470100BC4803D0C8
:10404000E168C978C90708D08047002875D1B7480A
:1040500010308047761CB0426FD3AE48AD49801D0A
:104060000770B44800900822673101A802F0ABFB4A
:1040700063690022B2330299019801F0AFFE022F6A
:1040800002D0012F0BD016E00120E071206D042238
:104090004119A048891C4C3002F095FB0BE0E079F7
:1040A000012806D19B49206D04224C31801C02F06E
:1040B0008AFB0020E071206DA16C9F4E801C029154
:1040C000039601950090934A60692389921D99494E
:1040D000BA3001F0CEFDA06C711C2A18206D801C36
:1040E00002F071FB8B4C6734201D02F0CDFB23786E
:1040F000E2781946637812061B021943A378C009B7
:104100001B04194311432279C0015206520E01E0EB
:1041100012E012E0491C00235A415206520E10438D
:1041200021700A0A62700A0CA270090EE1702071F7
:10413000049880F31088012017E4002015E47548E6
:10414000C1680A466032907E927EC007C00FD207D7
:10415000D20F603105E0887E8A7EC007C00FD2078B
:10416000D20F9042F7D1704710B56A484069017C80
:10417000C27B08021043072807D8FFF7E0FF00289A
:1041800004D0FFF7DCFF0128FBD010BDFFF7D7FFFD
:104190000028FBD0FFF7D3FF0128FBD010BD10B5DE
:1041A0005C48C168084622304279037912021A43FA
:1041B000624B9A4214D9DC43121903711B0A4371F2
:1041C000FF2320310B72FA2A0AD951015C4BD2002D
:1041D000C91889187D221201891A0175090A4175C9
:1041E00010BDF0B400285BD048780A780702174366
:1041F000484A15269469534DE01C631C1B2FA6707A
:1042000041D9CC788E78240234431C71240A5C7125
:10421000CC798E79240234431C72240A5C72937820
:104220000C78002B4B7805D01B022343F92B12D9B5
:10423000F92104E01B022343302B0CD930210170FB
:104240000B0A437001710B0A4371506940190173E5
:10425000090A417312E05269521913731B0A53730E
:104260004A780B7812021A430270120A42704A7995
:104270000B79110219430171090A4171F0BC09213E
:10428000314A032010471B21017000244470F3249D
:104290001C7100265E71017146711C725E72D4E75A
:1042A000F0BC7047F0B4002850D01A4A142093692B
:1042B000987048780D7804022C43DC70240A1C7135
:1042C000CC788D7824022C435C71240A9C714C7943
:1042D0000D7924022C43DC71D81C240A4471CC795A
:1042E0008D7924022C435C72240A9C729578154CBB
:1042F0005B1C002D42D04D790E792D023543F92DEE
:1043000028D9F9210171002343710170437041E004
:104310008D5300009C000020ED7F0000FFFF000097
:10432000022800008742000069940000ED3400007C
:10433000DD3400003C160020501700203E0600002F
:10434000C0E0FFFF61030000958C0000F0BC00227C
:10435000012046E705712D0A4571C8788D78000265
:1043600028431871000A58714879097900020843F6
:10437000516909190873000A487324E04B780D78D5
:104380001B022B43302B0BD93021017000234370CB
:1043900001714371506900190173090A417312E0F8
:1043A0005269121913731B0A53734A780B7812025D
:1043B0001A430270120A42704A790B7911021943AA
:1043C0000171090A4171F0BC0921F84A0320104724
:1043D00010B507E0435C845C4454491C8354521E6E
:1043E000C9B2D2B29142F5D310BDF8B5F04D052057
:1043F000A969EE4A8870012103209047A878002817
:104400002DD068690F220021BA30FFF7E1FF6869FB
:1044100007220021B230FFF7DBFF2E466736301D42
:1044200002F032FA002434707470C009B470C00114
:10443000F470307146062F465F37760E381D02F055
:1044400023FA3C70210A7970210CC009B970C001AF
:10445000210E3043F9703871A878002806D16969B7
:1044600002220846D34BBA30B23198477D21490128
:10447000D24BD14A03209847CF4908204839884772
:10448000F8BDF8B50546CE4908208847C84C0B2032
:104490006169C0010818807E01282FD100263746A7
:1044A00001E0042E04D260698019A030877406E010
:1044B000C0480A38804761698919A0318874761C20
:1044C000F6B2082EEDD3BB4F00260A3F01E0082EBE
:1044D00001D2002000E0B84761698919A031761C3B
:1044E000F6B28876102EF2D30026B8476169891992
:1044F000E031761CF6B24876102EF6D30B206169B7
:10450000C0010918487E042802D005281DD01EE0ED
:10451000A84F00260A3FB84761698919FF318131E8
:10452000761CF6B24876202EF5D36069A54B01467D
:10453000FF31A1310A7EFF305206520E0A760A463A
:10454000273A47399A30984701E008204876616950
:10455000A0690E46042787700822C01CC231B636F7
:1045600002F031F9A069042231460B3002F02BF938
:104570000D218E4A032090476069294608220A319E
:10458000BA3002F020F96069294604221231B230B3
:1045900002F019F92069C0780328606904D0CA21A3
:1045A000095C01290AD019E0817D427D080210438F
:1045B0002A46854B083229469847F8BD4179CA07F3
:1045C0000CD08279520709D4C90907D10921890180
:1045D00040180078012801D1616A08702A7A7B4E60
:1045E000002A02D1687A00282BD060690146603029
:1045F000C37D9A420AD16A7A007E824206D108229D
:104600002846793102F0B2F8002839D06A4B0622E8
:10461000002101200A339847694908200A31884758
:1046200063490120543102F040F9614906205431B8
:1046300008710B4601210522C904654C0020A047E2
:10464000F8BD6069CA21095C01290BD00246BA3263
:10465000FF3011460A30B0476069022241791143A8
:10466000417112E04179024639434171BA32114633
:104670008130B04760696030C07B012802D004E01F
:104680006069EFE74E4902208847FFF7AEFEF8BDAC
:10469000F8B5474CA078002804D101220021454BF1
:1046A00008469847A1690620887001213F4A0320E7
:1046B0009047A07800280CD0464861690818417BD3
:1046C000027B09021143F92903D9F9210173002161
:1046D00041736069374D417908228B070A3D0027F5
:1046E000002B25DA114341710026A8476169891919
:1046F00080314870A84761698A1991218854A03295
:10470000761CF6B25770102EEFD30026A8476169C9
:1047100089196031761CF6B24876082EF6D3A84780
:1047200061696031C875A84761696031087614E035
:10473000CA231B5C012B10D183795B070DD5114374
:1047400041710026A84761698A1991218854A032D5
:10475000761CF6B25770102EF4D31849032024317A
:104760008847174D0820103DA847002803D014495A
:1047700008200A3188470220A847012815D10B20BC
:104780006169C0010818407D01280ED12D2040012B
:1047900009184A79002A21D0012A65D0022A04D1B9
:1047A000064B89790C4A07209847F8BD958C000084
:1047B0009C00002057250000C1940000D333000066
:1047C00055850000C5290000996F0000ABAA0000C4
:1047D0003154000061030000FB980000002535E023
:1047E0000A226A4351180A18507C167C0302FA48C0
:1047F00033430380F94B4380F94BFB4ECB18597D73
:104800001B7D090219438180022181710321C1713D
:104810000772117600235376F24A038813701B0A3D
:10482000537080889070000AD07011710020507110
:10483000134606220121C903B047E94A01217B3A08
:10484000C902E54B0020B0476D1CEDB2052061693F
:10485000C0010A18D27BAA42C2D80B20626901218A
:10486000C00110180175A0E7E26893789B06DB0F82
:10487000CB719178DF2319409170616908188179B3
:10488000017292E704E7F8B504460178401C00295C
:1048900010D0022976D0032987D141780278080206
:1048A000104310286DD0082803D1201DE178FFF7B0
:1048B0006CFB7AE74178027808021043062838D06A
:1048C000032839D014283BD015283ED0012842D0E7
:1048D0000028EED1C348251D5938C16822314A7ECF
:1048E0000B7E1102194300914069E37A017DC27C7D
:1048F0000E021643227B002711021943027CC37B60
:104900001002C9001843814200D80127FFF72CFC90
:10491000B64928468847002820D0FFF740FCB14818
:104920005938C0682230417902790902114319D0FF
:104930001DE0FFF7ADFE38E7201DFFF7A2FD34E7CD
:10494000211D0020FFF7AEFC2FE70021221D0846A5
:10495000FFF747FC29E7FFF707FC26E7A4492820D3
:10496000884709E0009989000175090A4175002FFF
:1049700002D00673310A4173201DFEF7A7F914E730
:1049800000E01CE0417802780802104301280AD0B8
:1049900003280CD004280ED00C288AD1211D002019
:1049A000FEF72AFF01E7201DFEF745FEFDE6201D6C
:1049B000FEF792FCF9E6201DFEF7F7FCF5E6E0783D
:1049C000231D062814D0587C197C02020A4358780B
:1049D000197800020843D9789B7809021943884264
:1049E00009D90146804B01221020A43B9847DCE600
:1049F00058791979E9E7FFF73AF8D6E610B5017862
:104A0000042905D18278437811021943022902D082
:104A1000FFF739FF10BD41790079FFF7F3FA00285D
:104A2000F8D0FBF71DFC10BD30B587B07148009081
:104A3000801E019000246846048144810621018281
:104A4000418227218181C18102258582C4826A48F1
:104A500006906A496846884762485938416B0A6837
:104A60002A430A60816B0A682A430A60C470047191
:104A7000047007B030BD70B55A4C0D46593C002843
:104A800028D05F4DA8470028FCD05E4880475E488C
:104A900080475B49012008398847A069022181705D
:104AA0001321C1700221594A03209047584904201C
:104AB00088476069017DC27C080210430A2101F029
:104AC000FCFE0A21401E41434E4B0120514AEE3B61
:104AD000984770BDE0682021417041788906FCD577
:104AE00049480C38804742492878884770BD484972
:104AF00010B5012010398847002804D0002101207A
:104B0000FFF7B9FF10BD3A491320884710BDFEB525
:104B100000216846017001710D46304E01217F2051
:104B2000A536B0472D4C0A2069468334A047684615
:104B300000780109090168460170022001430A203A
:104B4000B04701A90A20A04768460079400704D56C
:104B50006D1CEDB2FA2DF4D108E0FA2D06D001A9B2
:104B60000A20A047684600794007F8D568460178D2
:104B70000A20B0470020401C80B2FA28FBD301A9CC
:104B80000A20A04768460079000701D40120FEBD35
:104B90000020FEBD70B505460024FFF7B8FF0128D0
:104BA00017D10020FDF77EFC1B480169C908C90028
:104BB00001610721416100218161016901221143E5
:104BC00001610169C903FCD5002D01D1FDF795FCF8
:104BD0000124204670BD0000541800200229000066
:104BE00082020000F500002031540000E5200000A2
:104BF0006F9000001B800100FD49001093600000D1
:104C00002B1B0000C1340000FF250000958C000024
:104C1000558500008D94000000E000E010B5FE49CD
:104C2000FE4C49690028887013D001281FD0022843
:104C30000ED100217F20A04700210320A047202182
:104C40000420A04702217F20A04703210020A04785
:104C500010BD00217F20A04700210320A047202174
:104C60000420A04702217F20A0470021EEE7002179
:104C70007F20A0471F210320A04702217F20A047BB
:104C800001210020A04700217F20A0473F210420D0
:104C9000DDE710B5012802D002280ED01BE0487ACB
:104CA0000C7A00022043C00715D048790979000228
:104CB00008431946FEF7A3FE10BD487A0C7A00029D
:104CC0002043800707D5487909790002084319462F
:104CD000FEF7B1FE10BD002010BD70B5CE4CE068EF
:104CE000817EFD22114081766069CD4D837F427FB8
:104CF000203041780078090201430120A847E0688C
:104D000081784906C90F61718178BF221140817095
:104D100060E710B5C04CE068817E022211438176C5
:104D2000BF4834308047E0688178BF221140627903
:104D3000D207520E1143817010BDF0B51746B64A26
:104D40000446D0681E460D46C37885B000211B0777
:104D500002D5002005B0F0BD00BF491C89B264290E
:104D6000FAD34030417C8907FCD4AB4841692D20FF
:104D700040010818C07A012804D1FF2105312046DE
:104D800001F07EFDA00707D1A3482D21426949010A
:104D90005118897A01291DD09F4B0020D968C03154
:104DA0000A792254401C80B20228F9D39A488078AC
:104DB000002808D09B4908208847002803D096483F
:104DC0002178801D0170207880066078288034D595
:104DD000012033E0C1680846E030427B037B1202C9
:104DE0001A43837B1B041A43920C9204A3039B0B6C
:104DF0001A430273130A4373120C82734822525CE3
:104E0000C37B5206520EDB09DB011343C373027AE4
:104E1000520852000272027A02231A430272E031EF
:104E2000087A8007FCD4207880066078288001D535
:104E3000012000E00020387012E000207649387030
:104E4000CA680020C032A41C03E013792354401C1C
:104E500080B22B888342F8D8C8680122C0304272E1
:104E600028886D4F801C2880B87800280AD06D49AA
:104E700008208847002853D06A4902208847002824
:104E800009D04DE0F8684030417C890748D4407C27
:104E9000C007C00F45E02A8821466348921E01F0F2
:104EA00092FC62485C49009008225F3101A801F041
:104EB0008AFC7B690122B2330299019800F08EFFCF
:104EC0005548801D01788907890F01702888BA6CC0
:104ED00055490292801E009101904F4A78693B89A2
:104EE000921D5249BA3000F049FFC0B2307001281B
:104EF0000ED128884C49BA6C009101AB801E15C3B5
:104F0000454A78693B89921D4849BA3000F0EAFE6B
:104F10002888B96C401A2880801EA41E607001E0A9
:104F200001203070012015E7F0B54048002687B019
:104F300018300590684606820672067300273C49C1
:104F40000120884700283B4803AB02AA04A90FD0E0
:104F5000FFF7F3FE00280FD12F48C068C078C006C5
:104F600073D502AA04A9334800F04DFB012703E0E2
:104F7000314CA047002868D0274D2869C278032A01
:104F800003D1E86B00780128D4D06846007A012864
:104F900001D1002F07D0274C207886460007000F4C
:104FA000052854D055E01F4C0820A04700282DD0DC
:104FB0000220A047002829D16846007B002841D064
:104FC000A878002822D0144C5F34201D01F05CFC2E
:104FD0002378C1091A466378E0781B021A43A37844
:104FE00000061B041A4302432079C9014006400E03
:104FF000521C002358414006400E01432270100A03
:105000006070100CA070100EE07021716846008A6C
:10501000801EC1B2074812E09C000020A7290000B2
:10502000D91B000069940000501700203C16002096
:10503000458500004C160020B127000005E0FE4A1F
:10504000904777E7FD493D20884707B0F0BD002F26
:1050500003D07146090718D04CE0F949A01C8847D5
:10506000FFF79DF8F7490222087F10430877F648BA
:105070008047207870214006C20F68690A540622D2
:10508000A11C713001F09FFB54E76969CB7D022BB5
:1050900010D0002360314F7B8C463946012F00D061
:1050A00000273B4326D0032A06D06046007A012819
:1050B00017D040E00123EDE7059900916946098A80
:1050C000E24F0839CBB271464906C90FA21CB84756
:1050D00068696030007A0128B3D1DD49A01C884797
:1050E00028E7012903D0DA49A01C884723E0A01C47
:1050F000D849FAE70328A4D00428A2D16969CB7D56
:10510000022B0AD000236031497B012900D0002105
:105110000B4396D0032A02D00DE00123F3E7059953
:1051200000916946098AC94D891FCBB2714649066B
:10513000C90FA21CA8470598009001966846008AEE
:10514000A21C0838C3B22078C14C41060007C90F21
:10515000000F6834A047EDE670B5FFB0BE4985B0DA
:105160000420884700280BD0BB4904201A31884707
:10517000BA488047B149162088477FB005B029E575
:10518000B7488047002500280FD0B64C60694179A8
:105190000A075FD58279D3071ED0B349813088478B
:1051A00060698179490849003BE068460580AC4D5B
:1051B000AA4EA54C86359236283C09E0694601A8DE
:1051C000A8470028D9D068460088C1B201A8B047D6
:1051D000A0470028F2D0D0E7930709D5A24A01469C
:1051E00079311C32773090476069FD22817908E07F
:1051F000530708D59C496031913088476069FB228C
:10520000817911400DE01207F725002A0BDA027AA6
:1052100001461046944A09314232904760698179CB
:1052200029408171A9E729404171034677333A2229
:1052300010218E4D0020A84709216069890141187D
:105240000978012999D14079C00996D1616A012074
:10525000087092E7E16B097800298ED1216C0978FA
:1052600001298AD1817D427D08021043804A0121B3
:105270009047206C057080E7F0B585B00026794C2A
:1052800000960196029603966069017A01292ED153
:10529000817B890901292AD110226946913001F0C8
:1052A00065FA002823D0002504AF6C48C238804737
:1052B00078556D1CEDB2032DF7D36946887C4021EB
:1052C0004006400E0843694688746069062109302B
:1052D00001F0D6FA6069032204A90C3001F073FAD8
:1052E0006269644B1046913004A9093298472671CF
:1052F00030E570B55B4EF068447844705B4DE00774
:1053000006D0FFF729FF002301211A460846A847C7
:10531000A00706D5FFF708FE002302211A46012048
:10532000A847600706D554488047002304211A4641
:105330000120A847200707D54F48BC3080470023ED
:1053400008211A460120A847E00610D5F068203051
:10535000407D3A49400701D53E2000E008208847BB
:10536000002310211A460120A847FFF785FFA00659
:105370000CD500F076F9002320211A460120A84719
:105380000023FF211A4601311846A847600611D5AF
:10539000314901208847002807D070696030807B40
:1053A000012802D1F16807204875002340211A46E0
:1053B0000120A847E00904D0002380211A460120DB
:1053C000A84707E438B52D4C0120A04700212C4DFB
:1053D0007F20A8472A4A3B206946223A90476846E0
:1053E0000178FB200140684601703B20A8471A481D
:1053F000943080470020A04738BD224909788906AB
:10540000890F017070471749497801707047F8B5E6
:105410001C4E1B4C0546032836D300217F20A04795
:10542000D8211120A0471D213A20A0477078FB21E8
:105430000840707035E000003F9C00006F90000055
:10544000CB1D0000200001505F1B0000CB6F00004F
:10545000155C0000995D0000458500000F260000E6
:10546000ED3400009C0000207BA6000031540000B9
:105470004F6E000095A90000C18D0000692D00004D
:10548000A7290000001000507078042108437070B4
:1054900000217F20A047D8211120A04719213A20C0
:1054A000A0479A4A69463F209047694608782B00F2
:1054B0008006800E087003F0B7F9060A06040A0693
:1054C000040A802100E040210843694608700978F9
:1054D0003F20A0478E4840694570F8BD10B504468E
:1054E000FFF795FF8A48447010BD70B5884D0121C3
:1054F0000903884B00206A6C9847286904460930E4
:1055000001F0C2F9696C40180578012D01D900201D
:1055100057E7E07800280DD020462D3001F0B4F98F
:1055200006462046313001F0AFF90246964212D2CB
:10553000911B07E02046253001F0A6F906462046DB
:105540002930F0E7002D08D030460903724A090ED1
:105550009047012035E7B11AF4E71046F5E7F8B5B2
:105560006B4C2D21E268656949016E18134611469E
:105570002033603101281FD16F1CBC46A87C6F7C92
:105580000002384318D065482C18607E247E000243
:10559000204322321075000A50756046427C047C1C
:1055A000100220431873000A5873C87D102210435C
:1055B000C87501207072F8BD2D27707A7F0101280F
:1055C000F9D1307B002500280CD01D73280A5873B0
:1055D000C87D10231843C87575729079022108435D
:1055E0009071F8BD00F05FF8E068014620310D735E
:1055F0002A0A4A736030C17D10221143C175606967
:10560000C0194572F8BD70B5414C0023E568C0353E
:105610002E7DC6545B1CDBB2022BF9D30378012527
:105620009B06002B43780B8001DA157001E0002304
:105630001370E3680022801CC03303E01E7D865493
:10564000521CD2B20E889642F8D8B0B2801C0880A4
:10565000E068D9210D540179022211430171012022
:10566000AFE610B52E4901208847002815D02848FC
:10567000416960314A7B012A05D1C26860321378E2
:10568000082423431370897B012906D1C068017C5B
:10569000402211430174002141752248804721486E
:1056A000C430804710BD70B5194CE0682030417897
:1056B00002780D02417E1543027E0E021643AE4271
:1056C00008D861698A7C4B7C11021943491901761B
:1056D000090A4176FEF733FD00280DD0FEF72FFDB5
:1056E0000128FBD0AE4205D8E06820308178022244
:1056F00011438170012064E6FEF721FD0028FBD0F4
:10570000FEF71DFD0128FBD0ECE700008529000015
:105710009C0000208F1600009F18000083050000E9
:1057200045850000498F00006448006840780328E0
:1057300001D80120704700207047FFB50E460021B8
:105740008C465E4981B009681D464978032900D915
:10575000FEE7062871D25A494A785A4B5207D20FAF
:1057600012010978D2188906890F890051588E468E
:10577000EFF31081009172B62A06514C0421603477
:10578000002A07DB277E2A46FB233D461A400D40B0
:1057900015432576F20703D0A27E02231A43A27690
:1057A000B20703D5A27E01231A43A276444A80326F
:1057B000F30702D09378DB09FAD0B20704D5404A48
:1057C000803292789206F8D5002814D0012812D0A1
:1057D000022821D003281FD0E27E01231A43E2765B
:1057E000E27EFD231A40E276374A13690B431361C8
:1057F00004281FD01AE0344A13698B431361A27E38
:10580000002801D0F72313E008231A43A276039A55
:105810000023002A18D111E0E27E52085200E276FD
:10582000294A13690B431361022803D0A27EFB238C
:105830001A40EBE7A27E0A43E8E73DE0234AD27A2A
:10584000002A12D0002810D0012084462048720778
:1058500005D50169C908C9000161092103E0026990
:10586000D208D2000261416183617007C20F6146B4
:10587000704602F09BFFB00703D5A07E40084000B1
:10588000A076F0070BD0A07EFD210840A0760C4842
:10589000803001E0F10702D08178C909FAD10848C7
:1058A0008030B10702D581788906FAD4280600D461
:1058B0002776009880F3108805B0F0BD0C01002019
:1058C00000100050048D001000ED00E000AA02203E
:1058D00000E000E0F8B50F46064615461C461021CC
:1058E000184600F0CDFF01216846017021700D229D
:1058F0003946601C00F067FF2902280A0143684608
:1059000001800078A07368464078E07331462046F5
:1059100000F0F7FEF8BDFFB589B01D460F46139E97
:1059200000F07BFA002402940394049468460594E2
:105930000470002D01D0012000E0002081011498A6
:10594000801EC20F10184010C00040186946401C4D
:1059500008700872394602AF0D22781C00F033FF40
:10596000B0B20202000A024369460A80CA8202A952
:10597000099800F058FA002D3DD0A9B20802090A92
:1059800008430294039404946946059408800881AE
:105990000E2D01D90E2200E02A46B81C0B9900F00A
:1059A00012FF0E2D01D90E2700E02F460E2D1ED915
:1059B0000E202D1A099802A91BD000F034FA029487
:1059C000039404940594102D01D9102200E02A4676
:1059D0000B98C11902A800F0F6FE102D01D9102075
:1059E00000E02846C719102D01D91020E1E728460C
:1059F000DFE700F018FA002E24D0029403940494F8
:105A0000002505940294039404940594102E01D962
:105A1000102200E032461298411902A800F0D3FE8D
:105A2000102E01D9102000E030464519102E01D962
:105A3000102000E03046361A02A9099800F0F3F968
:105A4000002EDFD102A9149A159800F0BCFE14981C
:105A50000DB0F0BDFFB589B01C46139D00F0DDF917
:105A60000026029603960496684605960670002C5A
:105A700001D0012000E0002081011498801EC20F97
:105A800010184010C00040186A46401C1070107278
:105A900002A80D2201300A9900F095FEA8B2010279
:105AA000000A01436A461180D18202A9099800F0D8
:105AB000BAF9002C3ED0A0B20102000A01430296BE
:105AC0000396049668460596018001810E2C01D943
:105AD0000E2200E0224602A802300B9900F073FE6D
:105AE0000E2C01D90E2700E027460E2C1ED90E20C1
:105AF000241A099802A91BD000F095F90296039682
:105B000004960596102C01D9102200E022460B982D
:105B1000C11902A800F057FE102C01D9102000E096
:105B20002046C719102C01D91020E1E72046DFE7F5
:105B300000F079F9002D32D00020029003900490FB
:105B40002C46064601270590BAB202AB0A9909987D
:105B5000FFF7C0FE00203118A94203D3002102AA9A
:105B6000115406E002AA135C129A515C4B4002A940
:105B70000B54401C1028EED37F1C102C01D9102090
:105B800000E020468619102C01D9102000E02046A4
:105B9000241A02A9099800F046F9002CD4D102A9D0
:105BA000149A159800F00FFE149851E7FFB50025E0
:105BB00085B01F461C4601262BE06B4632460699EF
:105BC0000598FFF787FE00202918B94209D2079BE4
:105BD0006A46125C595C4A4069460A54401C1028C7
:105BE000F2DB102C01D9102200E022460E98694603
:105BF000401900F0E8FD102C01D9102000E02046EB
:105C00004519102C01D9102000E02046241A761CDA
:105C1000B6B2002CD1D1284609B0F0BDFFB585B091
:105C200000261C460B460746009601960296012167
:105C300068460396017401700D2219466D46401C9A
:105C400000F0C1FD68460682C681394600F059FD64
:105C5000002005E0079A295C125C51402954401C41
:105C6000A042F7DB224669460E9800F0ACFD2046C4
:105C7000D2E7FFB589B0159D1C461A462846149FE9
:105C8000139E0B9900F09FFD04A912986A46039198
:105C9000C1C209A807C82346FFF73DFE002801DB63
:105CA000B84202D00020C043D2E628190090334603
:105CB000129A0A990998FFF779FF002802DA012061
:105CC000C043C5E6A419601900903B4604AA0A998E
:105CD0000998FFF7A3FF002802DA0220C043B7E6C5
:105CE0002018B5E6FFB58DB017ACA1CCA84203D201
:105CF0000520C04311B0F0BD461B169804A90091C1
:105D000032182B460E990D98FFF788FF040001D436
:105D1000AC4202D00020C043ECE733460097169A0D
:105D20000E990D98FFF742FF06000FD008A80390C8
:105D30000097019602950DA80FC8FFF7ECFD00280B
:105D400001DBA84205D00220C043D3E70120C043B5
:105D5000D0E7844202D00320C043CBE7002004A94F
:105D600008AA07E00B5C155CAB4202D00420C043DC
:105D7000C0E7401CA042F5D33046BBE7FFB58DB06D
:105D8000189D179804A9169F461B0091F2192B46DF
:105D90000E990D98FFF742FF040018D4AC4216D1BB
:105DA00008A803900097019602950DA80FC8FFF769
:105DB00051FE00280BDBA84209D1844207D1002004
:105DC00004A908AA06E00B5C155CAB4201D00020D8
:105DD00090E7401CA042F6DB01208BE770B5490636
:105DE000490E049C0E06050A354320706570050CAB
:105DF0000E043543A5700D02000E2843E070D0015B
:105E000001432171002007210A1A2518401C9A5CC1
:105E1000C0B26A710828F7D370BD10B510210C48C4
:105E200000F02EFD10BD70B50C460146084A00205A
:105E3000235C155C6B402354401C1028F8DB204683
:105E400000F05FFC10222146014800F0BCFC70BD50
:105E50005B1A0020FCB500228B5C8354521C92B26A
:105E6000102AF9D301231D012A18114620390E7F6B
:105E7000FF4CB6464E7F0F7CA65D7E40FD4FFF5C1B
:105E80007E4046558F7F0197E65D4F7C7E40567081
:105E9000B446CE7F0096A75D8E7C7740977076469D
:105EA000A45DCE7C7440D4700E7D455D6E4016714D
:105EB000B6464D7D664675405571AC468D7D76463D
:105EC0007D409571CF7D6740D7710C7E7440147210
:105ED000A6464C7E6646744054728E7EA4466E4042
:105EE0009672CD7E74467D40D5720F7F67401773E2
:105EF000497F644661405173019F77409773009ECC
:105F00005B1C6E409BB2D6730B2BACD3FCBDF0B5C3
:105F100091B00D460446002739012278685C491982
:105F20004240D348825C227023790E797340C35C6F
:105F30002371237A0E7A7340C35C2372237B0E7B1A
:105F40007340C35C237363784E7873409C466379D7
:105F50004E797340C35C63700593637A4E7A7340E5
:105F6000C35C6371637B4E7B7340C35C6372634647
:105F7000C35C6373A3788E7873409E46A6798B7951
:105F80005E40B446A37A8E7A5E40835DA37004932C
:105F9000A37B8E7B5E40865DA6717346C35CA37255
:105FA0006646835DA373E37BCE7B73409C46E37AB6
:105FB000CE7A7340C35CE373E379CE797340C35CFC
:105FC000E372E378C9784B40C15CE1716346C15C20
:105FD000E170059B10465840049B06464B405E40CE
:105FE000029200F0A7FB2178704041402170607858
:105FF000A178484000F09EFB61787040414061709C
:10600000A078E178484000F095FBA17870404140CD
:10601000A170E078029A504000F08CFBE17870406B
:106020004140E170207962790146A379E6795040D8
:1060300002467340584006461046029100F07AFB33
:106040002279014671404A4022716079A179484025
:1060500000F070FB6279014671404A406271A0799C
:10606000E179484000F066FBA279014671404A4060
:10607000A271E0790299484000F05CFBE2790146A8
:1060800071404A40E271207A617A0246A37AE67A48
:10609000484001467340584006460846029200F0C8
:1060A00049FB227A014671404A402272607AA17A05
:1060B000484000F03FFB627A014671404A406272FC
:1060C000A07AE17A484000F035FBA27A014671409F
:1060D0004A40A272E07A029A504000F02BFBE27A2A
:1060E000014671404A40E272207B627B0146A37BFD
:1060F000E67B5040024673405840064610460291E7
:1061000000F018FB227B014671404A402273607BFD
:10611000A17B484000F00EFB627B014671404A4083
:106120006273A07BE17B484000F004FBA27B014648
:1061300071404A40A273E17B0298484000F0FAFAAD
:10614000E27B014671404A407F1CFFB2E273092F97
:1061500000D2E1E63A012178A85C41404448415C24
:1061600021701091511923790A795340C75C277126
:106170000D97227A0B7A5A40875C27720997227B07
:106180000B7B5A40825C2273059262784B784E7981
:106190005A4063797340C75C6770637A4E7ABC4635
:1061A0007340C75C67710C97637B4E7B7340C75C21
:1061B00067720897825C62730492A3788A788E79FA
:1061C0005340A2798F7A7240A67A7E40875DA7708D
:1061D0000E97A67B8F7B7E40875DA7710B97C65C71
:1061E000A672825CA273E77B9646CA7BA0355740B5
:1061F0000097E27ACB7A5A40835CE373E279CF79F5
:106200007A40825CE272E778C9784F40C15DE17103
:106210000A91009FC05DE0702F781099794021703D
:10622000697867464F406770A9780E9F4F40A77006
:10623000E9784840E07028790D9F474027716879D8
:106240000C9F47406771A8790B9F4740A771E87979
:106250000A994140E171287A099F47402772687A7C
:10626000089F47406772A87A4640A672E87A03E022
:10627000248D0010248F00104240E272287B059A82
:1062800042402273687B049A42406273A87B724644
:106290004240A273E87B4340E37311B0F0BDF0B518
:1062A0000446027808460D46A030017891B04A4075
:1062B0002270637841784B4063709E46A378817862
:1062C0004B40A3700B93E378C1784B40E370079386
:1062D0002179037959402171677943795F4067716A
:1062E000A37986797340A3710993E379C6797340E2
:1062F000E3710693237A067A734023720E93637ACE
:10630000467A734063720293A67A837A5E40A672DD
:106310000596E37AC67A7340E3720493237B067B87
:10632000734023730D93637B467B734063730193C8
:10633000A67B837B5E40A6730396E37BC07B4340D2
:10634000E3739C46FA489023825CEB5C5A402270CF
:10635000425C294690310B795A4022710E9BC25CF7
:106360000B7A5A4022720D9BC25C0B7B5A402273FF
:10637000019B4E7BC25C4B785A40029BC35C7340CE
:106380006373C35D4E7A734063727346C35C4E7928
:106390007340637162700B9B8E7BC25C8B7A8F78CB
:1063A0005A40099BC35C7340059E865D7E40A67083
:1063B000039E8F79865D7E40A671A272A373079BB0
:1063C000C25CCB7B5A40069BC35CCE787340E370C3
:1063D000049BCE79C35C7340E3716346C35CC97AA6
:1063E0004B40E372E27308262078A178484000F021
:1063F000A1F900F09FF907466078E178484000F085
:1064000099F900F097F9217879402170617841403D
:106410006170A1787940A170E1784140E170207904
:10642000A179484000F086F900F084F907466079C8
:10643000E179484000F07EF900F07CF901462079CE
:1064400078402071607948406071A0797840A071EF
:10645000E0794840E071207AA17A484000F06AF97A
:1064600000F068F90746607AE17A484000F062F986
:1064700000F060F9217A79402172617A41406172BD
:10648000A17A7940A172E17A4140E172207BA17B3F
:10649000484000F04FF900F04DF90746607BE17B82
:1064A000484000F047F900F045F9217B794021731D
:1064B000617B41406173A17B7940A173E17B4140E5
:1064C000E173207862780146A378E778504002466D
:1064D0007B40584007461046029100F02BF9227885
:1064E000014679404A4022706078A178484000F027
:1064F00021F96278014679404A406270A078E178DB
:10650000484000F017F9A278014679404A40A2704D
:10651000E0780299484000F00DF9E27801467940B0
:106520004A40E270207962790146A379E7795040C8
:1065300002467B40584007461046029100F0FAF8A8
:106540002279014679404A4022716079A179484018
:1065500000F0F0F86279014679404A406271A07912
:10656000E179484000F0E6F8A279014679404A40D6
:10657000A271E0790299484000F0DCF8E279014626
:1065800079404A40E271207A627A0146A37AE77A3A
:10659000504002467B40584007461046029100F0AA
:1065A000C9F8227A014679404A402272607AA17A7B
:1065B000484000F0BFF8627A014679404A40627272
:1065C000A07AE17A484000F0B5F8A27A0146794015
:1065D0004A40A272E07A0299484000F0ABF8E27AB1
:1065E000014679404A40E272207B627B0146A37BF0
:1065F000E77B504002467B405840074610460291D8
:1066000000F098F8227B014679404A402273607B73
:10661000A17B484000F08EF8627B014679404A40F9
:106620006273A07BE17B484000F084F8A27B0146C6
:1066300079404A40A273E17B0298484000F07AF822
:106640000146E37B79404B40E373217838489E460E
:10665000425C31016B5C49195A40227022790B79F6
:10666000825C5A402271227A0B7A825C5A402272F2
:10667000227B0B7B825C5A402273627B4B78825C6C
:106680004F7B5A40637AC35C7B40637363794F7A74
:10669000C35C7B40637263784F79C35C7B406371FA
:1066A0006270A2788F78835C8A7A5340A2799C4684
:1066B000825C8B7B5A40A37AC35C7B40A370A37B34
:1066C0008F79C35C7B40A3716346A372A273E278A7
:1066D000CB7B825C5A40E379CF78C35C761E7B40EB
:1066E000E370E37ACF79C35C76B27B40E3717346A3
:1066F000C05CC97A4840E072E273002E00DB73E6AA
:10670000CBE510B5ACB004466846FFF7A3FB69467D
:106710002046FFF7FCFB2CB010BD10B5ACB0044612
:106720006846FFF797FB69462046FFF7B8FDF2E79A
:10673000248E0010C1094000002903D0C0B21B21E3
:1067400048407047C0B270471CB50C46064B7B44AE
:1067500069460090204600F0B0FF044600206946DC
:1067600000F0BEFF20461CBD8F0F0000034610B591
:106770000B439B070FD1042A0DD308C810C9121F61
:10678000A342F8D018BA21BA884201D9012010BD1D
:106790000020C04310BD002A03D0D30703D0521CF1
:1067A00007E0002010BD03780C78401C491C1B1B1F
:1067B00007D103780C78401C491C1B1B01D1921E89
:1067C000F1D1184610BDF8B5042A2CD3830712D096
:1067D0000B78491C0370401C521E83070BD00B78AA
:1067E000491C0370401C521E830704D00B78491CBF
:1067F0000370401C521E8B079B0F05D0C91ADF0087
:106800002023DE1B08C90AE0F9F72EFDF8BD1D465E
:1068100008C9FD401C46B4402C4310C0121F042A76
:10682000F5D2F308C91A521EF0D40B78491C037034
:10683000401C521EEAD40B78491C0370401C012AEC
:10684000E4D409780170F8BD01E004C0091F0429EF
:10685000FBD28B0701D50280801CC90700D00270D3
:10686000704700290BD0C30702D00270401C491E9C
:10687000022904D3830702D50280801C891EE3E726
:106880000022EEE70022DFE70378C278194643785A
:1068900012061B0219438378C0781B041943114365
:1068A0000902090A000608437047020A08704A7084
:1068B000020C8A70020ECA707047002203098B42D4
:1068C0002CD3030A8B4211D300239C464EE003468F
:1068D0000B433CD4002243088B4231D303098B4243
:1068E0001CD3030A8B4201D394463FE0C3098B4279
:1068F00001D3CB01C01A524183098B4201D38B01D2
:10690000C01A524143098B4201D34B01C01A524174
:1069100003098B4201D30B01C01A5241C3088B42B9
:1069200001D3CB00C01A524183088B4201D38B00A4
:10693000C01A524143088B4201D34B00C01A524146
:10694000411A00D201465241104670475DE0CA0F1D
:1069500000D04942031000D34042534000229C46DD
:1069600003098B422DD3030A8B4212D3FC228901E7
:1069700012BA030A8B420CD3890192118B4208D3BD
:10698000890192118B4204D389013AD0921100E01F
:106990008909C3098B4201D3CB01C01A5241830933
:1069A0008B4201D38B01C01A524143098B4201D360
:1069B0004B01C01A524103098B4201D30B01C01A8B
:1069C0005241C3088B4201D3CB00C01A5241830805
:1069D0008B4201D38B00C01A5241D9D243088B425B
:1069E00001D34B00C01A5241411A00D201466346FE
:1069F00052415B10104601D34042002B00D5494262
:106A0000704763465B1000D3404201B50020C0468A
:106A1000C04602BD7047704770470000F0B50C4695
:106A2000871A9C410D46861A9D4103D2C01BA14185
:106A3000D21963410D0D1F0DC94EEC1BAE435CD046
:106A40007F057F0D0026002F51D02D05AC46A943B0
:106A5000DD020123ED0A1B051D4320231B1B24D44B
:106A60001746E740381871412F46E740CC199D4042
:106A70002818314661410C0D27D161449A4013D545
:106A80000023401C594152000ED140084000012211
:106A90004B005205D34207D305204007C14201D520
:106AA000B04900E0B0493046F0BD6B00002A00D08C
:106AB00001229A181F23203C1B1B01D5002302E052
:106AC000E540281871410C0DD7D00124240509197F
:106AD000C407CD0740084908E40F28436144002C4F
:106AE000D5D00024401C61419A40D0D1CDE76A0541
:106AF000520DD9D1C90FC907D5E79C4D4E000028CA
:106B000001D0012400E0002434195F00002A01D0E4
:106B1000012600E00026BE19954FAC420CD8AE42CB
:106B20000AD8B44206D001256D05EC42BCD010460F
:106B30001946F0BD9942FCD000203946F0BDF0B5B1
:106B40001FB40C460F46811A9F412546861A9D4167
:106B500006D20125ED076F40401ABC4152187B4117
:106B6000210D1E0D8D1BAC467D4D8D437ED07505D0
:106B70006D0D7CD00D05AE46AC431B031B0B794D50
:106B800052429D41202366469B1B14D31746F74073
:106B9000381800260090744160462F460741E419DA
:106BA00000989D402818664116D4714671189A4085
:106BB00025D5012320E093182A466A415200002B74
:106BC00000D0521C1E23203E9B1B002B61DD354153
:106BD000EE1728186641E8D5001876415B1C9A40EC
:106BE00000D3401C4B05F3181524E34010D3002BB1
:106BF00052D071467118D30FC01802D3491C05B08A
:106C0000F0BD0123DB079A42F9D140084000F6E7C6
:106C100001225205B21801D1002853D00123CC0A19
:106C2000DB029943891E002A08D1020C03D0020C12
:106C30000004103902E00246002020390023550BE1
:106C400005D112020823550B01D152010D23550C19
:106C500001D112011B1DD50C01D192009B1C150DF9
:106C600001D152005B1C2025EE1A01E02CE022E04D
:106C70000546F54015439840CA1AE10769181305FF
:106C8000C918002ABBDA032040070818C10FC9073A
:106C90000FE071466118B2E7F10740080843711030
:106CA00071444A000CD001235B059A42A7D2C90F58
:106CB000C9070020A3E74905490D26D1002001E0BE
:106CC0000028F4D100219AE7284D6600002801D061
:106CD000012100E0002171185F00002A01D0012687
:106CE00000E00026BE19224FA94210D8AE420ED8AD
:106CF000B14208D001256D05E94206D01946A80227
:106D0000414010467BE79C4201D0214677E70020B6
:106D1000394674E710B50C465C4005D50124E407FC
:106D20006340FFF70CFF10BDFFF778FE10BD30B4D5
:106D30000C465C4004D50124E407634030BC6DE69A
:106D400030BCFCE670B50124E40761400D465D40AF
:106D500002D4FFF763FE70BD6340FFF7F0FE70BD25
:106D6000FF0700000000F0FF0000F07F0000E0FFE0
:106D70000000F87FF0B5F94D0C091E092C402E409B
:106D80002F468BB0A7437DD0B543FCD0002E7AD0E0
:106D9000002CFCD00D465D40ED0F2543AC1BFF25BC
:106DA000AD0464190894C502440DC9022143500D75
:106DB000DC0204430120C00701430443D2020191D5
:106DC000200C110C00958C46010423468B430A913C
:106DD00061460904E24D8A430991010A7D4449193B
:106DE0008039097805464D4301266D18F605751B57
:106DF0006943C90C640B891C4C436418B5012C1BF6
:106E0000250C2E04B4434C434D43210C69188909C9
:106E10000591009DE90701D00121C90704912C4685
:106E200001996708CD072F434C08059DE10B4D43A1
:106E30002D0C29466646754302950D4645432E4660
:106E4000029D7D1BB44100950D465D4301942C0CC1
:106E50002F040D465543AE462D0C3D430295039439
:106E60007546049C2D04641B049406D2029C039D69
:106E7000641C002675410395029401AC70CC009F00
:106E80007D1B01E03EE162E1B441090400950791F8
:106E900001940599A4086143090C0C464443650B11
:106EA000E7040C4666467443A646640B3C430395D0
:106EB00002947446049DE4042C1B049406D2029CA4
:106EC000039D641C002675410395029401AC70CCAF
:106ED000009F7D1BB44101940C465C430095650FF7
:106EE000E7000C465443A646640F3C4303950294C6
:106EF0007446049DE4002C1B049406D2029C039D5E
:106F0000641C002675410395029401AC70CC009F6F
:106F10007D1BB441AE09AF06049DC900AD092F43E6
:106F2000049DA406AD060495079D34436918079196
:106F3000059DE10B4D432D0C294666467543029590
:106F40000D4645432E46029D7D1BB44100950D46DE
:106F50005D4301942C0C2F040D465543AE462D0C79
:106F60003D43029503947546049C2D04641B0494D0
:106F700006D2029C039D641C002675410395029471
:106F800001AC70CC009F7D1BB44101948C0506942C
:106F9000079C890A611800950791019C0599A4082E
:106FA0006143090C0D464543680BEF040D466446EA
:106FB00065436C0B3C43049FED047D1BAC4602D241
:106FC0000025641C6841009E019D371B85410846D1
:106FD000584301950C46460FC5005443600F2843A3
:106FE0006546E4002C1B02D20025401C6E41019D29
:106FF0003F1AB5412846BD09800628438446A009AA
:10700000BF064E020699A40676180743079D002086
:1070100068410A99079019430020099B0090604637
:10702000FF1913434041E20F64003A43A44604466B
:10703000D71A8C41A04203D90120009020463A463D
:10704000C70F941840416246D20F22436446640041
:107050000494009CBE466400D71AA44604460297D6
:107060008C417746002F01D1A04204D96046401CD4
:107070008446029A2046C40FA64694184041049ABA
:107080000546D20F224364466400D31A8D417146EF
:10709000002901D1A84202D928461A46641C10438F
:1070A0000122002800D0164361020020079B8919A5
:1070B00004465C410223002C02DB4918134664415C
:1070C000089DCE0A2D145D194B056705E10A2C05B4
:1070D0000D1908993E43C9076940002B08D0934019
:1070E00006D30022761C5141002B01D17608760090
:1070F0001C4A002D43DB154241D0AA433FD0304605
:107100000BB0F0BD06180D464D41174C7642AC4110
:107110001AD395181C465C41134A6D42A24113D301
:10712000012252054C00D4420AD15C00D4420BD05B
:107130004B4002D592021143E2E749004908DFE7DC
:107140005940C90FC90718E000200849D8E7054889
:1071500001420DD10342F7D0F2E700000000FF0723
:107160004F2100000000F07F0000E0FF0000F87FEA
:10717000114859400143C01241400020C0E701239B
:10718000089A9B069A4205DC032252078918C90F08
:10719000C907B5E7052252078918074A1143D212D9
:1071A0005140ADE770B515461C4602460B462846D1
:1071B0002146FFF7DFFD70BDFFFFFF7F0346CA02D8
:1071C000400D10B510430A1504D00124E4072043F4
:1071D000002A05DB0A4CA21A04D4D040FF2A00DDA5
:1071E000002010BD4A00002B01D0012000E000204B
:1071F000101801225205D042F2D8C817C04310BD62
:107200001E0400001F22030C02D10F22000402D032
:10721000030E03D004E00020014670470002083A44
:10722000030F01D10001121F830F01D18000921EB4
:10723000002801DB4000521E120551184205C01201
:10724000411810467047C10FC90700D040420122C3
:1072500092071143D6E701218907D3E7F0B58B4C9C
:107260000F09254689B0BD437BD01D092646AE4394
:10727000FAD00E465E402740F60F3E43254071D0BF
:1072800024012142FBD0FF24AD19A4042D1B03953A
:1072900001252D05DB02DB0AC9022B43C90A29435C
:1072A0001E010901040F130F050121431701880B6B
:1072B000820391432D098C46A90B1E438A039543F3
:1072C000B30B9A0396433F09BA0B9403A743029664
:1072D0002E467E430497B6464E19D7190C460196A2
:1072E000544305977E43371B7646BF1B3601B6468F
:1072F000BE0B361900967646BC043719009C01D3A4
:10730000641C00946400002F01D001263443029EC7
:10731000049F754366467E430496760034196E00DA
:1073200034190094029C019E1C196643751BAE46DD
:10733000069465464519059C05956C435943754669
:107340000891691A0191049E01465143A41B0491BE
:10735000611A009C0791E10605D0610901221143E1
:1073600002E072E06EE06109089D00272C0A2D06FC
:107370006918049D7C412A0A2D066918019D624105
:10738000AC0DAD026D185441079A910D920255193A
:107390006141029A644658435443069B059A5A43F6
:1073A000121A131B9A0E9B015B187A41010B000500
:1073B000C3185141220A200644195A419A4200D268
:1073C000491C01204002814203D315230226F643C3
:1073D00002E014230326F6432020C51AA9401746CD
:1073E000AF40DA400A4320460399D8400914731885
:1073F00019055118039A3843D2075140AC4009D0BF
:107400000122944006D30022401C5141002C01D19E
:10741000400840001E4A934212D30122039892066C
:10742000904207DB0520400709181A480143C012A3
:10743000414004E0032040070818C10FC90700209D
:1074400009B0F0BD0020F107FAE705180C464C41E1
:1074500011486D42A04115D394181A465A410E485E
:10746000644290410ED301204A004005824209D374
:107470005A00824206D35940C90F084AC907002062
:107480001143DDE700200649DAE700000000FF07AE
:10749000FE070000FFFFFF7F0000E0FF0000F07F1D
:1074A0000000F87F0121C9050123411842001B0695
:1074B000D3185B0E0AD0C1100722D20689184007E4
:1074C0005242D14201D5520089187047090208D5AD
:1074D0000146002A03D0C10FC9070020704710469B
:1074E0007047420202D00020024970470721090577
:1074F0000143F4E70000F87F1F22030C02D10F22A2
:1075000000041CD0030E01D10002083A030F01D180
:107510000001121F830F01D18000921E002801DBA1
:107520004000521ED20551180212511819229040E3
:1075300004D3491C002801D1490849000846704776
:10754000C10FC90700D04042012292071143D3E77F
:1075500001218907D0E770B5044685690068C10636
:1075600001D5302600E02026C00707D070BD626834
:107570003046A1689047206A401C20626D1EF6D5F7
:1075800070BD70B5044685690078C00707D170BD2D
:107590006268A16820209047206A401C20626D1E0E
:1075A000F6D570BD09684A0501D540B27047C905D6
:1075B000FCD500B2704709684A0501D5C0B27047D2
:1075C000C905FCD580B2704770B50C460546012A46
:1075D00005D02878800600D5EA69002302E001235F
:1075E00005E05B1C934202D2E05C0028F9D1A86957
:1075F000E618C01AA861286AC01828622846FFF752
:10760000AAFF04E06A682078A968641C9047B44225
:10761000F8D32846FFF7B5FF70BD0000F7B5002589
:1076200075291068009914A611D0FFF7BBFF002838
:1076300002DA404211A608E0009909688A0701D5DC
:107640000FA602E0490704D50EA6012501E0FFF7C9
:10765000B2FF009F0024243704E000F013FD303116
:107660003955641C0028F8D12B4632462146009833
:1076700000F057FAFEBD0000000000002D000000E1
:107680002B0000002000000011680268006A53050A
:1076900001D5087009E0D30501D5088005E013067F
:1076A00002D5C21705C100E0086001207047000044
:1076B00001694A1C02610878704700B58FB00291D9
:1076C00000210591054901937944039111460490E5
:1076D000684600F025F90FB000BD0000E5FFFFFF90
:1076E0000A681070521C0A6070470000F7B5044623
:1076F000154686B02B487844002703C83E460090C4
:10770000019111E007986A467100415A02A800F001
:1077100099FC411C07D02178890603D5E269391804
:1077200091420ED83F18761C2078800602D5E06979
:10773000B84206DDAE42E5DB07987100405A0028EA
:10774000E0D1A069C01BA0612046FFF704FF1548E7
:1077500078445A3803C800900020019116E0410097
:107760006A460798415A02A800F06CFC0590401C3C
:107770000AD0002505E0626802A8A168405D904734
:107780006D1C05988542F6D30498401CB0420490C5
:10779000E5DB206AC01920622046FFF7F2FE09B03F
:1077A000F0BD0000B6180000F7B5D21D0025D208C4
:1077B00015A6D200F52905CA11D0002A05DA002144
:1077C0004042914111A60A4608E0009909688B07DA
:1077D00001D50FA602E0490701D50EA601251146E5
:1077E000009F0024243704E000F05EF930323A555F
:1077F000641C02460A43F7D12B46324621460098C4
:1078000000F08FF9FEBD0000000000002D00000018
:107810002B0000002000000070B504460021243435
:1078200008E05507D2086D0F303565545D072A43CF
:10783000DB08491C15461D43F3D10468002310A240
:10784000250708D520252C400C4304D0C46901230A
:107850000CA2641EC46100F064F970BD10B504464A
:1078600021461068FFF7A7FE002302462046FFF7D7
:10787000D3FF10BDD21DD108C9000CC9CCE7000050
:107880000000000030000000F8B50F46018809052F
:1078900002D5224C7C4402E0204C7C440E34054648
:1078A0000021243508E016071209360FA65D6E5434
:1078B0001E0732431B09491C16461E43F3D12246BC
:1078C00004780023240705D5702F06D0002901D0A5
:1078D0000223113200F025F9F8BD01231032F9E737
:1078E00070B504460D4621461068FFF764FE00237C
:1078F000024629462046FFF7C7FF70BDD21DD308B8
:10790000DB000CCBC0E730B40368202412682343AB
:1079100003600823C36130BC0023B5E720170000D3
:10792000F3B50446002081B020622046E168884714
:10793000002872D0252802D06268A168ABE0594FB8
:1079400000267F442046E16888472028054608DB5A
:10795000312D06D2781920380078002801D006434E
:10796000F0E7B00701D5042086430020E061074618
:10797000A0612A2D0AD0284600F07AFF002827D0DF
:10798000B8000019303D0090856119E00298BA00F6
:10799000121902C8916102902046E1688847012FC0
:1079A000054617D1E06900281FDA202086431CE035
:1079B00000980A218069484300994019303888614D
:1079C0002046E1688847054600F052FF0028EFD1C5
:1079D000012F0AD02E2D08D12046E16888470546A0
:1079E000202006437F1C022FC3DBA069002803DA96
:1079F0004042A06101200643F00701D010208643D9
:107A00006C2D0BD0682D09D04C2D3CD06A2D38D070
:107A1000742D38D07A2D36D016E040E0E1682F463C
:107A200020468847B842054609D16C2F29D001204D
:107A30008002E168064320468847054604E06C2F33
:107A40001DD0FF2001300643002D28D028464138A4
:107A5000192803D80120C00206432035204626609D
:107A60002946029A1646F8F769FB002810D001282B
:107A70000BD0F61DF008C0000830029055E74020FA
:107A8000E1E78020D5E70020D3E7361D02964CE7DA
:107A900062682846A1689047206A401C44E7206A33
:107AA000FEBD00009A1600000B4670B5024689071D
:107AB0008008084319469D08141AA941250908079A
:107AC000054308092C194841250A01060D43010AFE
:107AD0002C194141200C0D0428430D0C00194D4177
:107AE000002140194D41C00869070843E908840F87
:107AF0008D002543840024184D4124196D41121B2B
:107B0000AB4107E00925ED432C11521963410024D4
:107B1000401C61411C460A250026551BB441F1D288
:107B200070BDFFB504460D4681B024300090216839
:107B3000880604D51022E0699143216000E001200D
:107B4000A84201DD471B00E000270498A1697A19CB
:107B50001018081AA0612078C00602D42046FFF74A
:107B6000FAFC002608E003986268A168805D9047EF
:107B7000206A401C761C206204988642F3DB207841
:107B8000C0060AD52046FFF7E6FC06E06268A16859
:107B900030209047206A401C206238467F1E002813
:107BA000F4DC07E000986268A168405D9047206AB5
:107BB000401C206228466D1E0028F3DC2046FFF79B
:107BC000E0FC2078000602D5022005B0F0BD0120BF
:107BD000FBE700007047FFB50C461E468FB003CA96
:107BE000089009914F007D0D00D16D1E00210846BF
:107BF0000020C0460321099A89050840002A03DABB
:107C00008200801840080840800D01280A9002DD9B
:107C10000020C0430A90089807430DD0EF48F04970
:107C2000281848430714189800281DD07542291EAB
:107C30001DDD0A9842421BE01898012802D000205E
:107C4000302104E00020F24305E02154401CB04202
:107C5000FBDB30460022189B002121540F998B60DA
:107C60000A60486013B0F0BDBD1B6D1CDFE70A9AC7
:107C7000002900DA69420BA800F088FA0BAB07CBA9
:107C800003AB07C30899099800F0E4FA6B4607C3F1
:107C90000146D4480918002D00910ADDD149039806
:107CA0000A9A4942401803A90390684600F0F7FC7D
:107CB00007E003990A9A081803A90390684600F0A0
:107CC000C4FC6B4607C30004000C03D00020C04373
:107CD000410800E01046189A002A03D000220092C2
:107CE00015461EE0751E05D4FFF7DEFE30326255E4
:107CF0006D1EF9D501220843079602D000227F1C91
:107D000004E02078302801D100227F1E002A069747
:107D100089D01EE0112D07DAFFF7C6FE303262551A
:107D20006D1C02460A43F5D1084303D00098002891
:107D300019D00EE00021681E05E0235C625C6354EC
:107D40002254401E491C8142F7DBA81B401E0795A8
:107D50000690079A18990020A0540F98079B069A3E
:107D600081600CC07EE71126002018905BE7D21DD1
:107D7000F0B50D460446D10893B0C90003C90C9074
:107D80000D9100F05FFD02460D98C00F01D02D202F
:107D900007E02068810701D52B2002E04007C00FD3
:107DA0004001032A0F9001D0072A05DB034629462C
:107DB000204600F0A7F90EE12078800601D5E7699A
:107DC00000E006272846652D04D0662814D0672DCC
:107DD00069D12DE00020112F009001DB112300E07C
:107DE0007B1C0CAA03A910A8FFF7F5FE1199002629
:107DF00010987D1C0E9142E001203B460CAAC00762
:107E00000B900120009003A910A8FFF7E4FE119D3C
:107E100012981099002600280E9501D1781C0D1893
:107E2000781B02D446427D1C761EE81B00903AE087
:107E3000012F00DA01270020112F009001DD11230E
:107E400000E03B460CAA03A910A8FFF7C4FE119955
:107E50003D46109800260E91217809070BD40E9903
:107E6000A94200DA0D4603A9012D04DD4A19203A82
:107E7000D27F302A06D0B84201DA011D04DA01218E
:107E800000910FE06D1EEFE7002802DC86192D1A25
:107E900003E0411CA94200DD0D46801B401C009000
:107EA0000120C0070B902078000705D40098A84255
:107EB00002DB0020C043009069460020C8720B9886
:107EC000012102AF0337C907884225D00220109054
:107ED0002B2011900B9800280BDA40420B902D209C
:107EE000119006E00B9800F0CDF830317F1E0B901A
:107EF00039701099481E00291090F3DC0B98002867
:107F0000F0D111987F1E38702088000501D54520DA
:107F100000E065207F1E387001A8C01BC01D0B90BB
:107F20000F98002800D0012041190098C0170918A7
:107F30000B980818A169081A401EA0612078C00695
:107F400002D42046FFF707FB0F98002805D062688F
:107F5000A1689047206A401C20622078C00625D581
:107F60002046FFF7F8FA21E0002E07DB0E98B0421A
:107F700004DD03A86268805DA16802E06268A16810
:107F800030209047206A761C401C20620098401EDA
:107F9000002800900AD100F0B1F8C068626801685A
:107FA000405CA1689047206A401C206228466D1EF4
:107FB0000028D9DC07E062683878A1687F1C904708
:107FC000206A401C20620B99481E00290B90F2DCAD
:107FD0002046FFF7D6FA032044E6000001FCFFFF2D
:107FE000104D0000E1DFFFFF10B54369002B02D008
:107FF000C046C04601E0FFF7E7FA012010BD127845
:10800000014624310A7000224A700122ECE711680F
:108010000022D243E8E710B54369002B02D0C046E6
:10802000C04601E0FFF762FB012010BD1288014647
:10803000243182840022C2840122ECE711680022EC
:10804000D243E8E770B516460C46054600F04EF8F8
:108050000368FF200230C05C012807D0FF2C0ED837
:10806000185D00280BD001202C7070BDFF33324604
:10807000214608331868C3182846984770BD002069
:10808000C04370BD01468008081A02091018020A90
:108090001018020C1018C008820012185200891A19
:1080A00001E0401C0A390A29FBD27047754600F0EE
:1080B0002DFBAE46050069465346C008C000854604
:1080C00018B020B5F9F730FD60BC00274908B64666
:1080D0000026C0C5C0C5C0C5C0C5C0C5C0C5C0C5D7
:1080E000C0C5403D49008D467047000010B500F006
:1080F00005F8001D10BD00BFB5070000004870471F
:108100008C1A0020F8B51F46044601230068DB02E4
:10811000032601461840072A05DB002801D017A5D1
:1081200006E017A504E0002801D016A500E016A57A
:10813000102081432160A069C01E002FA06101D0E2
:10814000401EA0612046FFF706FA002F09D03846EE
:108150006268A1689047206A401C2062C01C2062AF
:1081600006E0206AFAE762682878A1686D1C9047EB
:10817000761EF8D22046FFF704FAF8BD4E414E00B5
:108180006E616E00494E4600696E6600F7B5164690
:108190008AB02F4878446C4603467C33C06F5A68D7
:1081A0009B680DC42A487844763003AC0DC80DC4D2
:1081B0003720C001081837211B30FEF788FB054621
:1081C0000C46803D1B3C02D56442012000E00020AB
:1081D000002709900FE0E0070BD00C201C497843E2
:1081E000794432464C394118684600F02EFA6B4605
:1081F00007C364107F1C002CEDD1154F7F442C3F2A
:1082000015E0E80711D02001C0190EC806910893A7
:1082100007920068F04201D198190890324606A9E9
:1082200003A800F012FA03AB07C36D10641C002D05
:10823000E7D1324669460998002803A802D000F029
:108240002EFA01E000F001FA0A9B07C30DB0F0BD61
:108250005C0E0000034640000A4610B5400D0BD0EE
:108260000121C9070F24A40200191C03640821433B
:10827000540D2143D20207E000210120F2E7D40F80
:10828000490021435200401E0029F8DADB0FDB07CA
:10829000184310BDFFB50D46144685B048685168B7
:1082A00000F0AAFA00910190A868A16800F0A4FA71
:1082B00002910390A868616800F09EFA029A121871
:1082C0008242029201D2012000E00020019A0B18A4
:1082D000D2180028019202D08A4202D903E08A42D1
:1082E00001D2012000E00020009908180090686881
:1082F000A16800F081FA029A12188242029201D219
:10830000012000E00020019A0B18D21800280192E9
:1083100002D08A4202D903E08A4201D2012000E061
:108320000020009908180090286821684000490042
:10833000400849084018EE49471814E001994000E8
:10834000C90F08430090019802994000C90F0843E3
:108350000190029803994000C90F084302900398C6
:1083600040007F1E039000980028E7DA0898002854
:1083700001D0E04E00E00026B74228DAF71BF806ED
:10838000C00E15D0029B2021091A039A8B401A4374
:108390000392029A019BC2408B401A430292019AB7
:1083A000009BC2408B4000991A430192C14000914A
:1083B0007A110BD06B460320811A01D5002101E010
:1083C000890059588700401ED951F5D53746039882
:1083D0000299002800D0012001430898029100284A
:1083E00008460CD0002800D001200199019A4905C7
:1083F00008430121D20AC902D202019200E0012100
:108400000E9B0122D207012B02D0002B03D013E0D8
:10841000002807D116E0904204D890420CD1019B6D
:108420000B4209D0019B5918019105D10099491CB3
:10843000009101D17F1C0092002803D01021084632
:108440000020C04628682168019B009A4840C10F5F
:108450000598C90739430EC009B0F0BDFFB587B014
:10846000099A0898089953689268406889689646FE
:108470000022039317469446089A12685300099AFB
:108480005B081268520052089A1A9B4BD4180A9A39
:10849000002A01D0352200E040220692002201236A
:1084A00015460492DB07059324E0002D05D175469F
:1084B0000346039E4D1BB34109D375466646039B95
:1084C000491B049D9841059B7519AC465F41634665
:1084D0003B4308D0059B049EDD0776082E435B08CE
:1084E0000496059301E0521E641EC50FED0749185E
:1084F0004041521C069B9A42D7DB002D04D17546A1
:10850000039A6B1A824101D203200CE0039A0B46B6
:108510006B404240134303D0014303D0012002E0EB
:10852000022000E0002061460191002100970291A5
:108530000A99002905D06146400201436D4B019123
:1085400002E08007002302909C423ADA1A1BD00610
:10855000C00E15D0029D2021019C091AC5408C40F7
:108560002543029C8C4000D001242543019C0295A8
:108570003D46C4408D4039462C43C1400194009192
:1085800054111DD06D460221002202290CD1032076
:10859000001B07E0002804DB8600AE59002E00D047
:1085A0000122401C0328F5DB081B02D588002A5055
:1085B00004E08000285810438A00A850491EE3D5E3
:1085C0001C460A98002802980CD0002800D00120F0
:1085D0000199019A490508430121D20AC902D20230
:1085E000019200E00121109B0122D207012B02D051
:1085F000002B03D013E0002807D116E0904204D8E6
:1086000090420CD1019B0B4209D0019B591801915A
:1086100005D10099491C009101D1641C00920028E9
:1086200003D0102108460020C04608980999019AF5
:108630000068096848400099C30F0798DB07234387
:108640000360826041600BB0F0BD1FB50023009253
:108650000A46014601A8FFF71DFE01AB07CB04B097
:1086600010BD1FB5012300920A46014601A8FFF77D
:1086700011FE01AB0F2407CBA402C30F4000DB07A0
:108680004008001B002900DB0020490000054908C4
:10869000CC0A204349051843D20A1143DFE71FB52E
:1086A000002300920A46014601A8FFF7D7FE01AB5E
:1086B00007CBD4E71FB5012300920A46014601A863
:1086C000FFF7CCFE01AB0F2407CBA402C30F400081
:1086D000DB074008001B002900DB002049000005E3
:1086E0004908CC0A204349051843D20A1143B6E78A
:1086F00002C0FFFF013C0000FF3F000010B5044630
:10870000C046C0462046F7F7A5FD10BD004870479B
:108710006C1A0020024670B50A4392072AD11E4DFA
:10872000EE0104C808C9541B9443344017D0D0B29A
:10873000D9B2401A2106014310D190B299B2401A21
:10874000210401430AD110021902000A090A401A41
:108750002102014302D1100E190E401A70BD9A4237
:10876000DFD010BA19BA884201D9012070BD0020AB
:10877000C04370BD02780B78401C491C002A09D008
:108780009A4207D102780B78401C491C002A01D07C
:108790009A42EFD0D01A70BD0101010101491820A1
:1087A000ABBEFEE7260002007047000010B5104B7C
:1087B000002A03D0DC7E6406640EDC7600BF30BF86
:1087C000401EFDD20028FBDC0028F9DC002A03D083
:1087D000D87E80221043D876002907D00548016949
:1087E0000122114301610169C903FCD510BD0000DC
:1087F0006010005000E000E0F8B5040C8BB2264693
:1088000082B25E43104658430D0C370C36040021EB
:108810008019164679416E43370C36048019264676
:1088200079416E438919F8BD30B47446641E2578C9
:10883000641CAB4200D21D46635D5B00E31830BC94
:10884000184700004900CA020243100000D004206B
:108850004A0D01D001221043044A490D914201D131
:1088600002210843012800D105207047FF070000BE
:1088700030380A2801D201207047002070470000DC
:1088800010B500290AD00878002807D00548784498
:10889000FFF740FF002801D0002010BD02487844B7
:1088A00010BD00001A0800001208000010B50029D1
:1088B0000AD00878002807D005487844FFF72AFF37
:1088C000002801D0002010BD0248784410BD0000EF
:1088D0000A0800000208000070B501250400ED0739
:1088E0004C4020D4441A01D2001B0919C60D4B007C
:1088F000F2B2FF2A29D01B0E2CD000020C02D31A90
:108900002C43DC402843051910D2280A02D3401C0E
:108910006D0611D0761EF6058019FF2A00DA70BDAB
:10892000C00DC00570BD694000F022F8012005436C
:10893000C541521C761CE8E764089C40C9016140AF
:108940008900E7D10124A043E4E71B0E440200D0D4
:10895000034870BD002AFCD1C00FC00770BD00BF26
:108960000000C07F70B501250400ED074C4022D403
:10897000441A02D26C40001B0919C60D4B00F2B21A
:10898000FF2A4BD01B0E50D000020C02D31A2C43EE
:10899000DC40A843051B05D5AD0019D36D08761E34
:1089A000521E37D0F605280A01D2801970BD7041D9
:1089B0006D0603D070BD6940FFF794FF9C4009022B
:1089C0006140490001D0401E70BD0124A04370BD2C
:1089D0006D081DD001202B0C01D12D0410302B0E61
:1089E00001D12D0208302B0F01D12D01001DAB0F3D
:1089F00001D1AD00801CEB0F01D16D00401C6D005A
:108A0000361A121A680AF5054019012A02DB70BDF0
:108A1000002070BDC036300AC00770BD1B0E440276
:108A200001D1FF2B00D1024870BD002AF0D070BDEB
:108A30000000C07F03B402487844844603BC60470A
:108A400033F3FFFF03010003001F00200000000FAD
:108A500018192A260027000000E7FEC8FE2C002D6A
:108A60000000000AFFFF0000FFFFFFFF00000901F8
:108A70000000280700001809080000280B00011852
:108A8000090C0000281A000A18091B000028200001
:108A900001000921000028230000FF09240000280C
:108AA00027000F180928000028FFFFE7FE0A020030
:108AB00003280A0300002A0A040003280205000113
:108AC0002A0A06000328020700042A0A09000328CC
:108AD000020A00052A0A0D000328020E00292A0AAC
:108AE0000F000328021000242A0A11000328021292
:108AF00000252A0A13000328021400272A0A150059
:108B00000328021600262A0A170003280218002844
:108B10002A0A19000328021A00502A0A1C000328F6
:108B2000081D0002000A1E000328101F0003000A8F
:108B3000220003280A230001FF0A25000328122629
:108B400000192A0A29000328082A00C7FE0A2B0058
:108B50000328222C00C8FE0A2E000328022F00C979
:108B6000FE0AFFFF000000FFFF00001400030010DA
:108B7000002A53594420424C45204D6F75736509B6
:108B800000050010012AC2030F00070010042A0686
:108B9000000600300064000B000A0010052A0000E7
:108BA000000009000B0010022900000A000E00104E
:108BB000292A5359441400100010242A424C452DF0
:108BC0004D4F44454C2D3030310E00120010252AF7
:108BD000424C452D3030310A00140010272A312E26
:108BE000300A00160010262A312E300A0018001014
:108BF000282A312E300E001A0010502A023A095449
:108C00004201001C001D00100200000000000000D6
:108C10000000000000000000000000000000001C38
:108C2000001F001003000000000000000000000012
:108C300000000000000000000000000900200010FB
:108C4000022900001C0023001001FF0000000000AA
:108C50000000000000000000000000000000000014
:108C60000800260010192A640900270010022900B4
:108C7000001C002A0010C7FE0000000000000000D9
:108C8000000000000000000000000000001C002C9C
:108C90000010C8FE000000000000000000000000FE
:108CA00000000000000000000009002D0010022953
:108CB00000001C002F0010C9FE0000000000000092
:108CC0000000000000000000000000000000FFFFA6
:108CD000FFFF1010401040101040104020202010C6
:108CE00020101010101020204010201010401040B4
:108CF0001088401088202020102010101010102004
:108D000088401088C9090000E504000073020000D3
:108D10003A0100009002000048010000A400000099
:108D200052000000637C777BF26B6FC53001672BCC
:108D3000FED7AB76CA82C97DFA5947F0ADD4A2AF4F
:108D40009CA472C0B7FD9326363FF7CC34A5E5F15D
:108D500071D8311504C723C31896059A071280E20B
:108D6000EB27B27509832C1A1B6E5AA0523BD6B35F
:108D700029E32F8453D100ED20FCB15B6ACBBE39CF
:108D80004A4C58CFD0EFAAFB434D338545F9027FBB
:108D9000503C9FA851A3408F929D38F5BCB6DA2174
:108DA00010FFF3D2CD0C13EC5F974417C4A77E3DA0
:108DB000645D197360814FDC222A908846EEB814F6
:108DC000DE5E0BDBE0323A0A4906245CC2D3AC62B9
:108DD0009195E479E7C8376D8DD54EA96C56F4EAC4
:108DE000657AAE08BA78252E1CA6B4C6E8DD741FD5
:108DF0004BBD8B8A703EB5664803F60E613557B998
:108E000086C11D9EE1F8981169D98E949B1E87E951
:108E1000CE5528DF8CA1890DBFE6426841992D0F00
:108E2000B054BB1652096AD53036A538BF40A39E50
:108E300081F3D7FB7CE339829B2FFF87348E434439
:108E4000C4DEE9CB547B9432A6C2233DEE4C950B95
:108E500042FAC34E082EA16628D924B2765BA249F5
:108E60006D8BD12572F8F66486689816D4A45CCC14
:108E70005D65B6926C704850FDEDB9DA5E154657E7
:108E8000A78D9D8490D8AB008CBCD30AF7E458051D
:108E9000B8B34506D02C1E8FCA3F0F02C1AFBD0329
:108EA00001138A6B3A9111414F67DCEA97F2CFCEFA
:108EB000F0B4E67396AC7422E7AD3585E2F937E895
:108EC0001C75DF6E47F11A711D29C5896FB7620ED7
:108ED000AA18BE1BFC563E4BC6D279209ADBC0FEB8
:108EE00078CD5AF41FDDA8338807C731B112105965
:108EF0002780EC5F60517FA919B54A0D2DE57A9F57
:108F000093C99CEFA0E03B4DAE2AF5B0C8EBBB3C4B
:108F100083539961172B047EBA77D626E1691463CF
:108F200055210C7D8D01020408102040801B3680E5
:108F3000807F7E7D7C7B7A797877767675747372A4
:108F40007171706F6E6E6D6C6C6B6A6A6968686760
:108F50006666656464636362616160605F5F5E5EF4
:108F60005D5D5C5C5B5B5A5A595958585757565669
:108F70005555555454535352525251515050504FCD
:108F80004F4F4E4E4D4D4D4C4C4C4B4B4B4A4A4A1D
:108F90004949494848484747474746464645454561
:108FA00044444444434343434242424241414100DA
:108FB0000000000000000000303132333435363715
:108FC000383941424344454640305800303132330D
:108FD000343536373839616263646566403078000D
:108FE0000400000800000000000000020001000072
:108FF0001000000002400000000000A0000000007F
:1090000005400000000000C8000000000C40000007
:109010000000409C00000000194000000020BCBE81
:109020000000000034400000BFC91B8E0000000497
:10903000B5400000504BCFD06607E2CF01000000E2
:109040006C4100003E8251AADFEEA734010000000F
:10905000D9420000DCB5A0E23A301F97FFFFFFFFC6
:10906000B4450000FD25A0C8E9A3C14FFFFFFFFFE5
:10907000FF3F00000000008000000000FF3F0000F4
:109080000000008000000000D491001000000020CB
:109090001001000004010010E492001010010020F3
:1090A000C0690000200100101C0000004300000007
:1090B000F8FFFFFF0C0000000E0000000F00000092
:1090C0002E0000001001000043000000F8FFFFFF29
:1090D00000404040404040404040414141414140CB
:1090E0004040404040404040404040404040404080
:1090F000400502020202020202020202020202020F
:109100000220202020202020202020020202020213
:10911000020290909090909010101010101010106B
:109120001010101010101010101010100202020277
:1091300002028888888888880808080808080808BB
:1091400008080808080808080808080802020202B7
:1091500040000000000000000000000000000000CF
:1091600000000000000000000000000000000000FF
:1091700000000000000000000000000000000000EF
:1091800000000000000000000000000000000000DF
:1091900000000000000000000000000000000000CF
:1091A00000000000000000000000000000000000BF
:1091B00000000000000000000000000000000000AF
:1091C000000000000000000000000000000000009F
:1091D000000000000000000000000000000000008F
:1091E0000000000000000319000002010503030154
:1091F0000009FF0000000000000000090953594465
:109200005F55415254001F000000000000000000A4
:10921000000000000000005080000050000000002E
:10922000601000508C10005070B0025078B00250A6
:1092300070B0025078B0025000A0005000B0005052
:1092400000C0005000D0005000E0005000000000BE
:10925000000000007A00002040787D01000000003E
:10926000000000007010005000000000000000002E
:109270000003000000000000010000000000015099
:1092800008AA0220309F0220F8A60220C8810220EE
:10929000CC810220D58002207480022076800220BA
:1092A0009A87022024800220208002208F800220C2
:1092B0009080022099890220040000000000000034
:1092C000F8A60220000000000000000000000000DE
:1092D000000000000000000000000000000000008E
:0492E000309F022099
:04000005100000C126
:00000001FF
