Component: ARM Compiler 5.06 update 6 (build 750) Tool: armlink [4d35ed]

==============================================================================

Section Cross References

    main_master.o(.text) refers to pad_mux_ctrl.o(.text) for pad_mux_write
    main_master.o(.text) refers to gpio.o(.text) for gpo_config
    main_master.o(.text) refers to uart.o(.text) for uart_0_init
    main_master.o(.text) refers to spi.o(.text) for spi_set_speed
    main_master.o(.text) refers to main.o(.text) for gap_s_ble_init
    main_master.o(.text) refers to debug.o(.text) for dbg_printf
    main_master.o(.text) refers to delay.o(.text) for delay_ms
    gpio.o(.text) refers to gpio.o(.data) for gpio_callback
    pad_mux_ctrl.o(.text) refers to pad_mux_ctrl.o(.data) for pad
    uart.o(.text) refers to queue.o(.text) for queue_init
    uart.o(.text) refers to uart.o(.data) for UART_CTRL
    uart.o(.text) refers to uart.o(.bss) for rx_buf
    debug.o(.text) refers to printfa.o(i.__0vsprintf) for __c89vsprintf
    debug.o(.text) refers to debug.o(.data) for UART_CTRL
    debug.o(.text) refers to debug.o(.bss) for s_formatBuffer
    queue.o(.text) refers to memcpya.o(.text) for __aeabi_memcpy
    spi.o(.text) refers to debug.o(.text) for dbg_printf_sel
    spi.o(.text) refers to spi.o(.data) for spi_irq_cb
==============================================================================

Removing Unused input sections from the image.

    Removing main_master.o(.rev16_text), (4 bytes).
    Removing main_master.o(.revsh_text), (4 bytes).
    Removing gpio.o(.rev16_text), (4 bytes).
    Removing gpio.o(.revsh_text), (4 bytes).
    Removing delay.o(.rev16_text), (4 bytes).
    Removing delay.o(.revsh_text), (4 bytes).
    Removing pad_mux_ctrl.o(.rev16_text), (4 bytes).
    Removing pad_mux_ctrl.o(.revsh_text), (4 bytes).
    Removing uart.o(.rev16_text), (4 bytes).
    Removing uart.o(.revsh_text), (4 bytes).
    Removing debug.o(.rev16_text), (4 bytes).
    Removing debug.o(.revsh_text), (4 bytes).
    Removing queue.o(.rev16_text), (4 bytes).
    Removing queue.o(.revsh_text), (4 bytes).
    Removing spi.o(.rev16_text), (4 bytes).
    Removing spi.o(.revsh_text), (4 bytes).
    Removing startup_armcm0.o(HEAP), (16384 bytes).
    Removing system_armcm0.o(.rev16_text), (4 bytes).
==============================================================================

Image Symbol Table

    Local Symbols

    Symbol Name                              Value     Ov Type        Size  Object(Section)

    ../clib/microlib/division.c              0x00000000   Number         0  uldiv.o ABSOLUTE
    ../clib/microlib/division.c              0x00000000   Number         0  uidiv.o ABSOLUTE
    ../clib/microlib/division.c              0x00000000   Number         0  idiv.o ABSOLUTE
    ../clib/microlib/init/entry.s            0x00000000   Number         0  entry10a.o ABSOLUTE
    ../clib/microlib/init/entry.s            0x00000000   Number         0  entry8a.o ABSOLUTE
    ../clib/microlib/init/entry.s            0x00000000   Number         0  entry7b.o ABSOLUTE
    ../clib/microlib/init/entry.s            0x00000000   Number         0  entry7a.o ABSOLUTE
    ../clib/microlib/init/entry.s            0x00000000   Number         0  entry2.o ABSOLUTE
    ../clib/microlib/init/entry.s            0x00000000   Number         0  entry9b.o ABSOLUTE
    ../clib/microlib/init/entry.s            0x00000000   Number         0  entry10b.o ABSOLUTE
    ../clib/microlib/init/entry.s            0x00000000   Number         0  entry9a.o ABSOLUTE
    ../clib/microlib/init/entry.s            0x00000000   Number         0  entry5.o ABSOLUTE
    ../clib/microlib/init/entry.s            0x00000000   Number         0  entry11b.o ABSOLUTE
    ../clib/microlib/init/entry.s            0x00000000   Number         0  entry.o ABSOLUTE
    ../clib/microlib/init/entry.s            0x00000000   Number         0  entry11a.o ABSOLUTE
    ../clib/microlib/init/entry.s            0x00000000   Number         0  entry8b.o ABSOLUTE
    ../clib/microlib/longlong.c              0x00000000   Number         0  llsshr.o ABSOLUTE
    ../clib/microlib/longlong.c              0x00000000   Number         0  llushr.o ABSOLUTE
    ../clib/microlib/longlong.c              0x00000000   Number         0  llshl.o ABSOLUTE
    ../clib/microlib/printf/printf.c         0x00000000   Number         0  printfa.o ABSOLUTE
    ../clib/microlib/stdio/fputc.c           0x00000000   Number         0  fputc.o ABSOLUTE
    ../clib/microlib/stdio/semi.s            0x00000000   Number         0  semi.o ABSOLUTE
    ../clib/microlib/stdio/streams.c         0x00000000   Number         0  stdout.o ABSOLUTE
    ../clib/microlib/string/memcmp.c         0x00000000   Number         0  memcmp.o ABSOLUTE
    ../clib/microlib/string/memcpy.c         0x00000000   Number         0  memcpya.o ABSOLUTE
    ../clib/microlib/string/memcpy.c         0x00000000   Number         0  memcpyb.o ABSOLUTE
    ../clib/microlib/string/memset.c         0x00000000   Number         0  memseta.o ABSOLUTE
    ../clib/microlib/stubs.s                 0x00000000   Number         0  iusesemip.o ABSOLUTE
    ../clib/microlib/stubs.s                 0x00000000   Number         0  iusefp.o ABSOLUTE
    ../clib/microlib/unhosted.c              0x00000000   Number         0  uread4.o ABSOLUTE
    ../clib/microlib/unhosted.c              0x00000000   Number         0  uwrite4.o ABSOLUTE
    ../fplib/microlib/f2d.c                  0x00000000   Number         0  f2d.o ABSOLUTE
    ../fplib/microlib/fpadd.c                0x00000000   Number         0  fadd.o ABSOLUTE
    ../fplib/microlib/fpadd.c                0x00000000   Number         0  dadd.o ABSOLUTE
    ../fplib/microlib/fpdiv.c                0x00000000   Number         0  ddiv.o ABSOLUTE
    ../fplib/microlib/fpepilogue.c           0x00000000   Number         0  depilogue.o ABSOLUTE
    ../fplib/microlib/fpepilogue.c           0x00000000   Number         0  fepilogue.o ABSOLUTE
    ../fplib/microlib/fpfix.c                0x00000000   Number         0  dfixul.o ABSOLUTE
    ../fplib/microlib/fpfix.c                0x00000000   Number         0  dfixui.o ABSOLUTE
    ../fplib/microlib/fpflt.c                0x00000000   Number         0  ffltui.o ABSOLUTE
    ../fplib/microlib/fpflt.c                0x00000000   Number         0  dfltui.o ABSOLUTE
    ../fplib/microlib/fpflt.c                0x00000000   Number         0  dflti.o ABSOLUTE
    ../fplib/microlib/fpmul.c                0x00000000   Number         0  dmul.o ABSOLUTE
    ..\..\..\Source\debug.c                  0x00000000   Number         0  debug.o ABSOLUTE
    ..\..\..\Source\delay.c                  0x00000000   Number         0  delay.o ABSOLUTE
    ..\..\..\Source\gpio.c                   0x00000000   Number         0  gpio.o ABSOLUTE
    ..\..\..\Source\pad_mux_ctrl.c           0x00000000   Number         0  pad_mux_ctrl.o ABSOLUTE
    ..\..\..\Source\queue.c                  0x00000000   Number         0  queue.o ABSOLUTE
    ..\..\..\Source\spi.c                    0x00000000   Number         0  spi.o ABSOLUTE
    ..\..\..\Source\uart.c                   0x00000000   Number         0  uart.o ABSOLUTE
    ..\\..\\..\\Source\\debug.c              0x00000000   Number         0  debug.o ABSOLUTE
    ..\\..\\..\\Source\\delay.c              0x00000000   Number         0  delay.o ABSOLUTE
    ..\\..\\..\\Source\\gpio.c               0x00000000   Number         0  gpio.o ABSOLUTE
    ..\\..\\..\\Source\\pad_mux_ctrl.c       0x00000000   Number         0  pad_mux_ctrl.o ABSOLUTE
    ..\\..\\..\\Source\\queue.c              0x00000000   Number         0  queue.o ABSOLUTE
    ..\\..\\..\\Source\\spi.c                0x00000000   Number         0  spi.o ABSOLUTE
    ..\\..\\..\\Source\\uart.c               0x00000000   Number         0  uart.o ABSOLUTE
    ..\\main_master.c                        0x00000000   Number         0  main_master.o ABSOLUTE
    ..\main_master.c                         0x00000000   Number         0  main_master.o ABSOLUTE
    Driver\\aec-ccm.c                        0x00000000   Number         0  aec-ccm.o ABSOLUTE
    Driver\aec-ccm.c                         0x00000000   Number         0  aec-ccm.o ABSOLUTE
    Driver\aes.c                             0x00000000   Number         0  aes.o ABSOLUTE
    Main\\main.c                             0x00000000   Number         0  main.o ABSOLUTE
    Main\\pmu.c                              0x00000000   Number         0  pmu.o ABSOLUTE
    Main\\rom.c                              0x00000000   Number         0  rom.o ABSOLUTE
    Main\main.c                              0x00000000   Number         0  main.o ABSOLUTE
    Main\pmu.c                               0x00000000   Number         0  pmu.o ABSOLUTE
    Main\rom.c                               0x00000000   Number         0  rom.o ABSOLUTE
    RTE\Device\ARMCM0\startup_ARMCM0.s       0x00000000   Number         0  startup_armcm0.o ABSOLUTE
    RTE\Device\ARMCM0\system_ARMCM0.c        0x00000000   Number         0  system_armcm0.o ABSOLUTE
    RTE\\Device\\ARMCM0\\system_ARMCM0.c     0x00000000   Number         0  system_armcm0.o ABSOLUTE
    cdrcmple.s                               0x00000000   Number         0  cdrcmple.o ABSOLUTE
    dc.s                                     0x00000000   Number         0  dc.o ABSOLUTE
    handlers.s                               0x00000000   Number         0  handlers.o ABSOLUTE
    init.s                                   0x00000000   Number         0  init.o ABSOLUTE
    RESET                                    0x10000000   Section      192  startup_armcm0.o(RESET)
    .ARM.Collect$$$$00000000                 0x100000c0   Section        0  entry.o(.ARM.Collect$$$$00000000)
    .ARM.Collect$$$$00000001                 0x100000c0   Section        4  entry2.o(.ARM.Collect$$$$00000001)
    .ARM.Collect$$$$00000004                 0x100000c4   Section        4  entry5.o(.ARM.Collect$$$$00000004)
    .ARM.Collect$$$$00000008                 0x100000c8   Section        0  entry7b.o(.ARM.Collect$$$$00000008)
    .ARM.Collect$$$$0000000A                 0x100000c8   Section        0  entry8b.o(.ARM.Collect$$$$0000000A)
    .ARM.Collect$$$$0000000B                 0x100000c8   Section        8  entry9a.o(.ARM.Collect$$$$0000000B)
    .ARM.Collect$$$$0000000D                 0x100000d0   Section        0  entry10a.o(.ARM.Collect$$$$0000000D)
    .ARM.Collect$$$$0000000F                 0x100000d0   Section        0  entry11a.o(.ARM.Collect$$$$0000000F)
    .ARM.Collect$$$$00002712                 0x100000d0   Section        4  entry2.o(.ARM.Collect$$$$00002712)
    __lit__00000000                          0x100000d0   Data           4  entry2.o(.ARM.Collect$$$$00002712)
    .emb_text                                0x100000d4   Section        6  rom.o(.emb_text)
    .text                                    0x100000dc   Section        0  main_master.o(.text)
    .text                                    0x100002f8   Section        0  gpio.o(.text)
    .text                                    0x10000660   Section        0  delay.o(.text)
    .text                                    0x10000698   Section        0  pad_mux_ctrl.o(.text)
    .text                                    0x10000728   Section        0  uart.o(.text)
    __NVIC_DisableIRQ                        0x10000729   Thumb Code    50  uart.o(.text)
    __NVIC_EnableIRQ                         0x10000975   Thumb Code    28  uart.o(.text)
    .text                                    0x100009a8   Section        0  debug.o(.text)
    debug_uart_0_init                        0x100009a9   Thumb Code   212  debug.o(.text)
    debug_uart_write                         0x10000a7d   Thumb Code    80  debug.o(.text)
    .text                                    0x10000be4   Section        0  queue.o(.text)
    .text                                    0x10000cc8   Section        0  spi.o(.text)
    __NVIC_DisableIRQ                        0x10000cc9   Thumb Code    50  spi.o(.text)
    __NVIC_EnableIRQ                         0x10000fa3   Thumb Code    28  spi.o(.text)
    .text                                    0x10000ff0   Section       28  startup_armcm0.o(.text)
    .text                                    0x1000100c   Section        0  system_armcm0.o(.text)
    .text                                    0x10001024   Section        0  main.o(.text)
    update_profile_data                      0x10001791   Thumb Code    84  main.o(.text)
    .text                                    0x1000278c   Section        0  rom.o(.text)
    AttReadByGroupTypeRsp                    0x10002f2f   Thumb Code   326  rom.o(.text)
    AttReadByTypeServiceRsp                  0x10003075   Thumb Code   234  rom.o(.text)
    AttReadByTypeChartRsp                    0x1000315f   Thumb Code   286  rom.o(.text)
    AttReadByTypeValRsp                      0x1000327d   Thumb Code   462  rom.o(.text)
    AttReadByTypeReq                         0x1000344b   Thumb Code   122  rom.o(.text)
    FW_Encrypt_Packet                        0x100034c5   Thumb Code   314  rom.o(.text)
    Get_OVER_SLPTH                           0x100035ff   Thumb Code    42  rom.o(.text)
    LLENCReq                                 0x10003943   Thumb Code   526  rom.o(.text)
    LLTxStartENCRsp                          0x10003b51   Thumb Code   500  rom.o(.text)
    _LCRxPkt_Handler                         0x100043e9   Thumb Code   560  rom.o(.text)
    _BBRXFIFO_Coex_Read                      0x10004ac7   Thumb Code    92  rom.o(.text)
    _LCConnEvt_Handler                       0x10004b23   Thumb Code    68  rom.o(.text)
    LinkWakeup                               0x10004b67   Thumb Code   100  rom.o(.text)
    .text                                    0x10004be8   Section        0  pmu.o(.text)
    .text                                    0x10004d94   Section        0  aec-ccm.o(.text)
    ctr_next_ctr_block                       0x10004d95   Thumb Code    66  aec-ccm.o(.text)
    cbcmac_calc                              0x10004dd7   Thumb Code   318  aec-ccm.o(.text)
    cbcmac_verify                            0x10004f15   Thumb Code   344  aec-ccm.o(.text)
    ctr_payload                              0x1000506d   Thumb Code   112  aec-ccm.o(.text)
    ctr_mic                                  0x100050dd   Thumb Code    86  aec-ccm.o(.text)
    cbcmac_clear                             0x100052db   Thumb Code    12  aec-ccm.o(.text)
    cbcmac_append                            0x100052e7   Thumb Code    42  aec-ccm.o(.text)
    .text                                    0x10005314   Section        0  aes.o(.text)
    expandKey                                0x10005315   Thumb Code   186  aes.o(.text)
    aes_encr                                 0x100053cf   Thumb Code   912  aes.o(.text)
    aes_decr                                 0x1000575f   Thumb Code  1124  aes.o(.text)
    galois_mul2                              0x10005bf5   Thumb Code    20  aes.o(.text)
    .text                                    0x10005c08   Section        0  uidiv.o(.text)
    .text                                    0x10005c34   Section        0  idiv.o(.text)
    .text                                    0x10005c5c   Section        0  memcpya.o(.text)
    .text                                    0x10005c80   Section        0  memseta.o(.text)
    .text                                    0x10005ca4   Section        0  memcmp.o(.text)
    .text                                    0x10005cbe   Section        0  uread4.o(.text)
    .text                                    0x10005cd2   Section        0  uwrite4.o(.text)
    .text                                    0x10005ce4   Section        0  fadd.o(.text)
    .text                                    0x10005d98   Section        0  dadd.o(.text)
    .text                                    0x10005efc   Section        0  dmul.o(.text)
    .text                                    0x10005fcc   Section        0  ddiv.o(.text)
    .text                                    0x100060bc   Section        0  ffltui.o(.text)
    .text                                    0x100060cc   Section        0  dflti.o(.text)
    .text                                    0x100060f4   Section        0  dfltui.o(.text)
    .text                                    0x10006110   Section        0  dfixui.o(.text)
    .text                                    0x1000614c   Section        0  f2d.o(.text)
    .text                                    0x10006174   Section        0  uldiv.o(.text)
    .text                                    0x100061d4   Section        0  llshl.o(.text)
    .text                                    0x100061f4   Section        0  llushr.o(.text)
    .text                                    0x10006216   Section        0  llsshr.o(.text)
    .text                                    0x1000623c   Section        0  fepilogue.o(.text)
    .text                                    0x1000623c   Section        0  iusefp.o(.text)
    .text                                    0x100062be   Section        0  depilogue.o(.text)
    .text                                    0x1000637c   Section        0  dfixul.o(.text)
    .text                                    0x100063bc   Section       40  cdrcmple.o(.text)
    .text                                    0x100063e4   Section       36  init.o(.text)
    PMU                                      0x10006408   Section        0  pmu.o(PMU)
    i.__0vsprintf                            0x10006454   Section        0  printfa.o(i.__0vsprintf)
    i.__ARM_clz                              0x10006478   Section        0  depilogue.o(i.__ARM_clz)
    i.__ARM_common_switch8                   0x100064a6   Section        0  main.o(i.__ARM_common_switch8)
    i.__scatterload_copy                     0x100064c0   Section       14  handlers.o(i.__scatterload_copy)
    i.__scatterload_null                     0x100064ce   Section        2  handlers.o(i.__scatterload_null)
    i.__scatterload_zeroinit                 0x100064d0   Section       14  handlers.o(i.__scatterload_zeroinit)
    i._fp_digits                             0x100064e0   Section        0  printfa.o(i._fp_digits)
    _fp_digits                               0x100064e1   Thumb Code   344  printfa.o(i._fp_digits)
    i._printf_core                           0x10006654   Section        0  printfa.o(i._printf_core)
    _printf_core                             0x10006655   Thumb Code  1754  printfa.o(i._printf_core)
    i._printf_post_padding                   0x10006d40   Section        0  printfa.o(i._printf_post_padding)
    _printf_post_padding                     0x10006d41   Thumb Code    32  printfa.o(i._printf_post_padding)
    i._printf_pre_padding                    0x10006d60   Section        0  printfa.o(i._printf_pre_padding)
    _printf_pre_padding                      0x10006d61   Thumb Code    44  printfa.o(i._printf_pre_padding)
    i._sputc                                 0x10006d8c   Section        0  printfa.o(i._sputc)
    _sputc                                   0x10006d8d   Thumb Code    10  printfa.o(i._sputc)
    .constdata                               0x10006d96   Section       50  rom.o(.constdata)
    _smp_key_                                0x10006d96   Data          25  rom.o(.constdata)
    _smp_sc_key_                             0x10006daf   Data          25  rom.o(.constdata)
    .constdata                               0x10006dc8   Section       32  pmu.o(.constdata)
    delay_table                              0x10006dc8   Data          32  pmu.o(.constdata)
    .constdata                               0x10006de8   Section      523  aes.o(.constdata)
    sbox                                     0x10006de8   Data         256  aes.o(.constdata)
    rsbox                                    0x10006ee8   Data         256  aes.o(.constdata)
    Rcon                                     0x10006fe8   Data          11  aes.o(.constdata)
    .data                                    0x20000000   Section       12  gpio.o(.data)
    GPIO_CTRL                                0x20000000   Data           8  gpio.o(.data)
    gpio_callback                            0x20000008   Data           4  gpio.o(.data)
    .data                                    0x2000000c   Section        8  pad_mux_ctrl.o(.data)
    pad                                      0x2000000c   Data           8  pad_mux_ctrl.o(.data)
    .data                                    0x20000014   Section        8  uart.o(.data)
    .data                                    0x2000001c   Section        8  debug.o(.data)
    UART_CTRL                                0x2000001c   Data           8  debug.o(.data)
    .data                                    0x20000024   Section        8  spi.o(.data)
    spi_irq_cb                               0x20000024   Data           8  spi.o(.data)
    .data                                    0x2000002c   Section        4  system_armcm0.o(.data)
    .data                                    0x20000030   Section       20  main.o(.data)
    syd_confirm                              0x20000030   Data           1  main.o(.data)
    sched_execute_mask                       0x20000031   Data           1  main.o(.data)
    profile_to_flash                         0x20000032   Data           1  main.o(.data)
    profile_update_offset                    0x20000034   Data           2  main.o(.data)
    PMU_CTRL                                 0x20000038   Data           4  main.o(.data)
    p_sched_callback                         0x2000003c   Data           4  main.o(.data)
    .data                                    0x20000044   Section      111  rom.o(.data)
    NumericYesOrNo                           0x20000044   Data           1  rom.o(.data)
    MCUFreq                                  0x20000045   Data           1  rom.o(.data)
    coex_evt_mask_sleep                      0x20000049   Data           1  rom.o(.data)
    passkey_cnt                              0x20000060   Data           4  rom.o(.data)
    passkey_value                            0x20000064   Data           4  rom.o(.data)
    save_device_to_flash                     0x20000068   Data           4  rom.o(.data)
    ReadRsp                                  0x2000006c   Data           4  rom.o(.data)
    ReadRspLen                               0x20000070   Data           4  rom.o(.data)
    ReadRspData                              0x20000074   Data           4  rom.o(.data)
    IRQCallbackHook                          0x20000078   Data           4  rom.o(.data)
    IRQCallbackSkip                          0x2000007c   Data           4  rom.o(.data)
    HCIDTM                                   0x20000080   Data           4  rom.o(.data)
    ACLTx                                    0x20000084   Data           4  rom.o(.data)
    ble_data                                 0x20000094   Data           4  rom.o(.data)
    .data                                    0x200000b4   Section        4  pmu.o(.data)
    lclink                                   0x200000b4   Data           4  pmu.o(.data)
    .bss                                     0x200000b8   Section     1056  uart.o(.bss)
    .bss                                     0x200004d8   Section      128  debug.o(.bss)
    s_formatBuffer                           0x200004d8   Data         128  debug.o(.bss)
    .bss                                     0x20000558   Section     4173  main.o(.bss)
    confirmation_list                        0x20001558   Data          62  main.o(.bss)
    .bss                                     0x200015a8   Section     1055  rom.o(.bss)
    .bss                                     0x200019c7   Section       16  aec-ccm.o(.bss)
    cbcmac_xor                               0x200019c7   Data          16  aec-ccm.o(.bss)
    STACK                                    0x200019d8   Section     4096  startup_armcm0.o(STACK)

    Global Symbols

    Symbol Name                              Value     Ov Type        Size  Object(Section)

    BuildAttributes$$THM_ISAv3M$S$PE$A:L22$X:L11$S22$IEEE1$IW$USESV6$~STKCKD$USESV7$~SHL$OTIME$ROPI$EBA8$MICROLIB$REQ8$EABIv2 0x00000000   Number         0  anon$$obj.o ABSOLUTE
    __ARM_use_no_argv                        0x00000000   Number         0  main_master.o ABSOLUTE
    __cpp_initialize__aeabi_                  - Undefined Weak Reference
    __cxa_finalize                            - Undefined Weak Reference
    __decompress                              - Undefined Weak Reference
    _clock_init                               - Undefined Weak Reference
    _microlib_exit                            - Undefined Weak Reference
    __Vectors_Size                           0x000000c0   Number         0  startup_armcm0.o ABSOLUTE
    __Vectors                                0x10000000   Data           4  startup_armcm0.o(RESET)
    __Vectors_End                            0x100000c0   Data           0  startup_armcm0.o(RESET)
    __main                                   0x100000c1   Thumb Code     0  entry.o(.ARM.Collect$$$$00000000)
    _main_stk                                0x100000c1   Thumb Code     0  entry2.o(.ARM.Collect$$$$00000001)
    _main_scatterload                        0x100000c5   Thumb Code     0  entry5.o(.ARM.Collect$$$$00000004)
    __main_after_scatterload                 0x100000c9   Thumb Code     0  entry5.o(.ARM.Collect$$$$00000004)
    _main_clock                              0x100000c9   Thumb Code     0  entry7b.o(.ARM.Collect$$$$00000008)
    _main_cpp_init                           0x100000c9   Thumb Code     0  entry8b.o(.ARM.Collect$$$$0000000A)
    _main_init                               0x100000c9   Thumb Code     0  entry9a.o(.ARM.Collect$$$$0000000B)
    __rt_final_cpp                           0x100000d1   Thumb Code     0  entry10a.o(.ARM.Collect$$$$0000000D)
    __rt_final_exit                          0x100000d1   Thumb Code     0  entry11a.o(.ARM.Collect$$$$0000000F)
    B01_correct_TXPacket_length              0x100000d5   Thumb Code     6  rom.o(.emb_text)
    LED_KEY_Module_Init                      0x100000dd   Thumb Code   132  main_master.o(.text)
    UART_Module_Init                         0x10000161   Thumb Code    28  main_master.o(.text)
    SPI_Module_Init                          0x1000017d   Thumb Code    60  main_master.o(.text)
    SPI_SEND_DATA                            0x100001b9   Thumb Code    30  main_master.o(.text)
    main                                     0x100001d7   Thumb Code   214  main_master.o(.text)
    gpi_irq_set_cb                           0x100002f9   Thumb Code     6  gpio.o(.text)
    gpi_config                               0x100002ff   Thumb Code   114  gpio.o(.text)
    pad_input_configure                      0x10000371   Thumb Code    94  gpio.o(.text)
    gpo_config                               0x100003cf   Thumb Code    90  gpio.o(.text)
    gpo_toggle                               0x10000429   Thumb Code    42  gpio.o(.text)
    gpo_set                                  0x10000453   Thumb Code    42  gpio.o(.text)
    gpo_clr                                  0x1000047d   Thumb Code    42  gpio.o(.text)
    gpi_get_val                              0x100004a7   Thumb Code    70  gpio.o(.text)
    gpi_enable_int                           0x100004ed   Thumb Code   178  gpio.o(.text)
    gpi_disable_int                          0x1000059f   Thumb Code    44  gpio.o(.text)
    GPIO_IRQHandler                          0x100005cb   Thumb Code   134  gpio.o(.text)
    delay_ms                                 0x10000661   Thumb Code    30  delay.o(.text)
    delay_us                                 0x1000067f   Thumb Code    26  delay.o(.text)
    pad_mux_read                             0x10000699   Thumb Code    62  pad_mux_ctrl.o(.text)
    pad_mux_write                            0x100006d7   Thumb Code    78  pad_mux_ctrl.o(.text)
    uart_0_init                              0x1000075b   Thumb Code   134  uart.o(.text)
    UART0_IRQHandler                         0x100007e1   Thumb Code    58  uart.o(.text)
    uart_1_init                              0x1000081b   Thumb Code   112  uart.o(.text)
    UART1_IRQHandler                         0x1000088b   Thumb Code    60  uart.o(.text)
    uart_write                               0x100008c7   Thumb Code    80  uart.o(.text)
    uart_read                                0x10000917   Thumb Code    20  uart.o(.text)
    uart_queue_size                          0x1000092b   Thumb Code    56  uart.o(.text)
    uart_get_ctrl                            0x10000963   Thumb Code    18  uart.o(.text)
    dbg_init                                 0x10000acd   Thumb Code    12  debug.o(.text)
    dbg_printf                               0x10000ad9   Thumb Code    60  debug.o(.text)
    dbg_printf_sel                           0x10000b15   Thumb Code    62  debug.o(.text)
    dbg_hexdump                              0x10000b53   Thumb Code   108  debug.o(.text)
    queue_init                               0x10000be5   Thumb Code    12  queue.o(.text)
    queue_reset                              0x10000bf1   Thumb Code     6  queue.o(.text)
    enqueue_all                              0x10000bf7   Thumb Code    96  queue.o(.text)
    enqueue                                  0x10000c57   Thumb Code    28  queue.o(.text)
    dequeue                                  0x10000c73   Thumb Code    42  queue.o(.text)
    is_queue_empty                           0x10000c9d   Thumb Code    18  queue.o(.text)
    queue_size                               0x10000caf   Thumb Code    24  queue.o(.text)
    spi_set_speed                            0x10000cfb   Thumb Code    28  spi.o(.text)
    spi_set_mode                             0x10000d17   Thumb Code    46  spi.o(.text)
    spi_set_irq_callback                     0x10000d45   Thumb Code    16  spi.o(.text)
    SPIM_IRQHandler                          0x10000d55   Thumb Code    36  spi.o(.text)
    spim_enable                              0x10000d79   Thumb Code    24  spi.o(.text)
    spim_enable_int                          0x10000d91   Thumb Code    50  spi.o(.text)
    spim_resync                              0x10000dc3   Thumb Code    16  spi.o(.text)
    spim_exchange                            0x10000dd3   Thumb Code   192  spi.o(.text)
    SPI_Read_Write_A_Byte                    0x10000e93   Thumb Code    26  spi.o(.text)
    SPIS_IRQHandler                          0x10000ead   Thumb Code    32  spi.o(.text)
    spis_enable                              0x10000ecd   Thumb Code    20  spi.o(.text)
    spis_enable_int                          0x10000ee1   Thumb Code    46  spi.o(.text)
    spis_prepare_exchange                    0x10000f0f   Thumb Code   148  spi.o(.text)
    Reset_Handler                            0x10000ff1   Thumb Code     8  startup_armcm0.o(.text)
    NMI_Handler                              0x10000ff9   Thumb Code     2  startup_armcm0.o(.text)
    HardFault_Handler                        0x10000ffb   Thumb Code     2  startup_armcm0.o(.text)
    SVC_Handler                              0x10000ffd   Thumb Code     2  startup_armcm0.o(.text)
    PendSV_Handler                           0x10000fff   Thumb Code     2  startup_armcm0.o(.text)
    SysTick_Handler                          0x10001001   Thumb Code     2  startup_armcm0.o(.text)
    CAPDET_IRQHandler                        0x10001003   Thumb Code     0  startup_armcm0.o(.text)
    GPADC_IRQHandler                         0x10001003   Thumb Code     0  startup_armcm0.o(.text)
    I2CM0_IRQHandler                         0x10001003   Thumb Code     0  startup_armcm0.o(.text)
    I2CM1_IRQHandler                         0x10001003   Thumb Code     0  startup_armcm0.o(.text)
    I2CS_IRQHandler                          0x10001003   Thumb Code     0  startup_armcm0.o(.text)
    I2S_IRQHandler                           0x10001003   Thumb Code     0  startup_armcm0.o(.text)
    INTCOMB_IRQHandler                       0x10001003   Thumb Code     0  startup_armcm0.o(.text)
    IR_IRQHandler                            0x10001003   Thumb Code     0  startup_armcm0.o(.text)
    ISO_7816_IRQHandler                      0x10001003   Thumb Code     0  startup_armcm0.o(.text)
    LLC2_IRQHandler                          0x10001003   Thumb Code     0  startup_armcm0.o(.text)
    LLC3_IRQHandler                          0x10001003   Thumb Code     0  startup_armcm0.o(.text)
    M2M_IRQHandler                           0x10001003   Thumb Code     0  startup_armcm0.o(.text)
    PDM_IRQHandler                           0x10001003   Thumb Code     0  startup_armcm0.o(.text)
    PWM1_IRQHandler                          0x10001003   Thumb Code     0  startup_armcm0.o(.text)
    PWM2_IRQHandler                          0x10001003   Thumb Code     0  startup_armcm0.o(.text)
    PWM3_IRQHandler                          0x10001003   Thumb Code     0  startup_armcm0.o(.text)
    RTC_IRQHandler                           0x10001003   Thumb Code     0  startup_armcm0.o(.text)
    SW_IRQHandler                            0x10001003   Thumb Code     0  startup_armcm0.o(.text)
    TIMER0_IRQHandler                        0x10001003   Thumb Code     0  startup_armcm0.o(.text)
    TIMER1_IRQHandler                        0x10001003   Thumb Code     0  startup_armcm0.o(.text)
    TIMER2_IRQHandler                        0x10001003   Thumb Code     0  startup_armcm0.o(.text)
    TIMER3_IRQHandler                        0x10001003   Thumb Code     0  startup_armcm0.o(.text)
    TIMER4_IRQHandler                        0x10001003   Thumb Code     0  startup_armcm0.o(.text)
    TRNG_IRQHandler                          0x10001003   Thumb Code     0  startup_armcm0.o(.text)
    UART2_IRQHandler                         0x10001003   Thumb Code     0  startup_armcm0.o(.text)
    WDT_IRQHandler                           0x10001003   Thumb Code     0  startup_armcm0.o(.text)
    SystemCoreClockUpdate                    0x1000100d   Thumb Code     8  system_armcm0.o(.text)
    SystemInit                               0x10001015   Thumb Code     8  system_armcm0.o(.text)
    sw_timer_update_callback                 0x10001025   Thumb Code    20  main.o(.text)
    gap_s_ble_init                           0x10001039   Thumb Code    18  main.o(.text)
    gap_s_disconnect                         0x1000104b   Thumb Code     8  main.o(.text)
    gap_s_validate_irk                       0x10001053   Thumb Code     6  main.o(.text)
    gap_s_ble_gen_random_private_address     0x10001059   Thumb Code     6  main.o(.text)
    gap_s_ble_address_set                    0x1000105f   Thumb Code     6  main.o(.text)
    gap_s_ble_address_get                    0x10001065   Thumb Code     4  main.o(.text)
    gap_s_ble_feature_set                    0x10001069   Thumb Code     6  main.o(.text)
    gap_s_ble_feature_get                    0x1000106f   Thumb Code     6  main.o(.text)
    gap_s_ble_slave_feature_set              0x10001075   Thumb Code     6  main.o(.text)
    gap_s_ble_slave_feature_get              0x1000107b   Thumb Code     6  main.o(.text)
    gap_s_adv_access_code_set                0x10001081   Thumb Code     6  main.o(.text)
    gap_s_adv_access_code_get                0x10001087   Thumb Code     6  main.o(.text)
    gap_s_adv_parameters_set                 0x1000108d   Thumb Code     6  main.o(.text)
    gap_s_adv_data_set                       0x10001093   Thumb Code    10  main.o(.text)
    gap_s_adv_start                          0x1000109d   Thumb Code     6  main.o(.text)
    gap_s_adv_stop                           0x100010a3   Thumb Code     4  main.o(.text)
    gap_s_adv_start_powersaving              0x100010a7   Thumb Code   610  main.o(.text)
    gap_s_adv_stop_powersaving               0x10001309   Thumb Code    32  main.o(.text)
    gap_s_scan_parameters_set                0x10001329   Thumb Code     6  main.o(.text)
    gap_s_scan_start                         0x1000132f   Thumb Code     6  main.o(.text)
    gap_s_scan_stop                          0x10001335   Thumb Code     4  main.o(.text)
    gap_s_coex_adv_data_set                  0x10001339   Thumb Code    14  main.o(.text)
    gap_s_coex_scan_rsp_data_set             0x10001347   Thumb Code    12  main.o(.text)
    gap_s_coex_adv_start                     0x10001353   Thumb Code     8  main.o(.text)
    gap_s_coex_adv_stop                      0x1000135b   Thumb Code     8  main.o(.text)
    gap_s_coex_scan_req_data_set             0x10001363   Thumb Code     6  main.o(.text)
    gap_s_coex_scan_start                    0x10001369   Thumb Code     4  main.o(.text)
    gap_s_coex_scan_stop                     0x1000136d   Thumb Code     6  main.o(.text)
    gap_s_gatt_profiles_set                  0x10001373   Thumb Code     6  main.o(.text)
    gap_s_security_parameters_set            0x10001379   Thumb Code     6  main.o(.text)
    gap_s_security_parameters_get            0x1000137f   Thumb Code     6  main.o(.text)
    gap_s_security_req                       0x10001385   Thumb Code     6  main.o(.text)
    gap_s_numeric_comrison                   0x1000138b   Thumb Code     8  main.o(.text)
    gap_s_connection_param_set               0x10001393   Thumb Code     6  main.o(.text)
    gap_s_connection_param_get               0x10001399   Thumb Code     4  main.o(.text)
    gap_s_connection_update                  0x1000139d   Thumb Code     6  main.o(.text)
    gap_s_link_parameters_get                0x100013a3   Thumb Code     6  main.o(.text)
    gap_s_passkey_set                        0x100013a9   Thumb Code     8  main.o(.text)
    gap_s_connection_latency_mode            0x100013b1   Thumb Code     8  main.o(.text)
    gap_s_check_fifo_sz                      0x100013b9   Thumb Code     6  main.o(.text)
    BBCheckTXFIFOEmpty                       0x100013bf   Thumb Code    12  main.o(.text)
    sw_timer_latency_callback                0x100013cb   Thumb Code   138  main.o(.text)
    smart_latency_start                      0x10001455   Thumb Code   186  main.o(.text)
    smart_latency_clear                      0x1000150f   Thumb Code    12  main.o(.text)
    gap_evt_Callback                         0x1000151b   Thumb Code   332  main.o(.text)
    gap_s_evt_handler_set                    0x10001667   Thumb Code    32  main.o(.text)
    gap_s_att_c_evt_handler_set              0x10001687   Thumb Code     6  main.o(.text)
    gap_s_gatt_report_handle_get             0x1000168d   Thumb Code     6  main.o(.text)
    gap_s_gatt_read_rsp_set                  0x10001693   Thumb Code     6  main.o(.text)
    gap_s_gatt_write_err_rsp_set             0x10001699   Thumb Code     6  main.o(.text)
    indicate_queue_size                      0x1000169f   Thumb Code    26  main.o(.text)
    sw_indicate_timer_callback               0x100016b9   Thumb Code    22  main.o(.text)
    gap_s_gatt_data_send                     0x100016cf   Thumb Code    38  main.o(.text)
    gap_s_gatt_data_send_report_confirmation_handle 0x100016f5   Thumb Code   112  main.o(.text)
    gap_s_profile_data_read                  0x10001765   Thumb Code    44  main.o(.text)
    gap_s_profile_data_write                 0x100017e5   Thumb Code   212  main.o(.text)
    att_c_mtureq                             0x100018b9   Thumb Code     4  main.o(.text)
    att_c_findinforeq                        0x100018bd   Thumb Code     6  main.o(.text)
    att_c_findbytypevaluereq                 0x100018c3   Thumb Code    14  main.o(.text)
    att_c_readbytypereq                      0x100018d1   Thumb Code    12  main.o(.text)
    att_c_readreq                            0x100018dd   Thumb Code     6  main.o(.text)
    att_c_readblobreq                        0x100018e3   Thumb Code     6  main.o(.text)
    att_c_readmultiplereq                    0x100018e9   Thumb Code     6  main.o(.text)
    att_c_readbygrouptypereq                 0x100018ef   Thumb Code    12  main.o(.text)
    att_c_writereq                           0x100018fb   Thumb Code     6  main.o(.text)
    att_c_writecmdreq                        0x10001901   Thumb Code     6  main.o(.text)
    att_c_preparewritereq                    0x10001907   Thumb Code    12  main.o(.text)
    att_c_executewritereq                    0x10001913   Thumb Code     6  main.o(.text)
    att_c_confirmation                       0x10001919   Thumb Code     6  main.o(.text)
    bm_s_bond_manager_idx_set                0x1000191f   Thumb Code     6  main.o(.text)
    bm_s_bond_manager_idx_get                0x10001925   Thumb Code     4  main.o(.text)
    bm_s_bond_info_get                       0x10001929   Thumb Code     6  main.o(.text)
    bm_s_bond_info_add                       0x1000192f   Thumb Code     6  main.o(.text)
    bm_s_bond_info_delete_all                0x10001935   Thumb Code     6  main.o(.text)
    bm_s_bond_info_delete                    0x1000193b   Thumb Code     6  main.o(.text)
    ecdh_public_key_get                      0x10001941   Thumb Code     4  main.o(.text)
    sys_mcu_clock_get                        0x10001945   Thumb Code     6  main.o(.text)
    sys_mcu_clock_set                        0x1000194b   Thumb Code     8  main.o(.text)
    sys_mcu_clock_div_set                    0x10001953   Thumb Code     6  main.o(.text)
    sys_mcu_clock_div_get                    0x10001959   Thumb Code     6  main.o(.text)
    sys_32k_clock_get                        0x1000195f   Thumb Code     6  main.o(.text)
    sys_32k_clock_set                        0x10001965   Thumb Code     8  main.o(.text)
    pmu_32m_xo_on                            0x1000196d   Thumb Code     4  main.o(.text)
    sys_32k_lpo_calibration                  0x10001971   Thumb Code    66  main.o(.text)
    sys_mcu_rc_calibration                   0x100019b3   Thumb Code     8  main.o(.text)
    pmu_32m_xo_off                           0x100019bb   Thumb Code     6  main.o(.text)
    BBRFWrite                                0x100019c1   Thumb Code     4  main.o(.text)
    BBRFRead                                 0x100019c5   Thumb Code     6  main.o(.text)
    sys_mcu_rc_calibrationHF                 0x100019cb   Thumb Code    82  main.o(.text)
    pmu_wakeup_config                        0x10001a1d   Thumb Code     6  main.o(.text)
    pmu_power_saving                         0x10001a23   Thumb Code    10  main.o(.text)
    pmu_mcu_off                              0x10001a2d   Thumb Code     6  main.o(.text)
    pmu_system_off                           0x10001a33   Thumb Code     6  main.o(.text)
    pmu_reset                                0x10001a39   Thumb Code     6  main.o(.text)
    pmu_system_reset                         0x10001a3f   Thumb Code     6  main.o(.text)
    pmu_mcu_reset                            0x10001a45   Thumb Code     6  main.o(.text)
    pmu_32m_xo_on_polling                    0x10001a4b   Thumb Code    18  main.o(.text)
    _enable_sw_ccm                           0x10001a5d   Thumb Code     6  main.o(.text)
    ota_code_erase                           0x10001a63   Thumb Code   344  main.o(.text)
    ota_code_write                           0x10001bbb   Thumb Code     6  main.o(.text)
    ota_code_read                            0x10001bc1   Thumb Code     4  main.o(.text)
    ota_code_info_read                       0x10001bc5   Thumb Code    12  main.o(.text)
    ota_code_update                          0x10001bd1   Thumb Code    10  main.o(.text)
    ble_sched_execute                        0x10001bdb   Thumb Code   250  main.o(.text)
    sys_rc_get                               0x10001cd5   Thumb Code     4  main.o(.text)
    sys_fclk_get                             0x10001cd9   Thumb Code     6  main.o(.text)
    sys_pclk_get                             0x10001cdf   Thumb Code     6  main.o(.text)
    sys_sclk_get                             0x10001ce5   Thumb Code     6  main.o(.text)
    sys_hclk_get                             0x10001ceb   Thumb Code     6  main.o(.text)
    gpadc_init                               0x10001cf1   Thumb Code    22  main.o(.text)
    pdm_set_amic_gain                        0x10001d07   Thumb Code    58  main.o(.text)
    att_c_get_mtu_size                       0x10001d41   Thumb Code    18  main.o(.text)
    capdet_set_bias                          0x10001d53   Thumb Code    56  main.o(.text)
    capdet_get_bias                          0x10001d8b   Thumb Code    40  main.o(.text)
    module_clock_off                         0x10001db3   Thumb Code    14  main.o(.text)
    module_clock_on                          0x10001dc1   Thumb Code    14  main.o(.text)
    ll_length_req                            0x10001dcf   Thumb Code    24  main.o(.text)
    get_pmu_reset_type                       0x10001de7   Thumb Code     4  main.o(.text)
    reset_module                             0x10001deb   Thumb Code    36  main.o(.text)
    SystemSleep                              0x10001e0f   Thumb Code    50  main.o(.text)
    ble_flash_authority                      0x10001e41   Thumb Code    88  main.o(.text)
    ble_flash_erase                          0x10001e99   Thumb Code    12  main.o(.text)
    ble_flash_read                           0x10001ea5   Thumb Code    32  main.o(.text)
    ble_flash_write                          0x10001ec5   Thumb Code    14  main.o(.text)
    ble_flash_write_burst                    0x10001ed3   Thumb Code    14  main.o(.text)
    _checksum_cache_496kb                    0x10001ee1   Thumb Code   110  main.o(.text)
    ota_code_update_496kb                    0x10001f4f   Thumb Code   204  main.o(.text)
    gap_s_smart_update_latency               0x1000201b   Thumb Code   370  main.o(.text)
    smart_update_latency_updatareq           0x1000218d   Thumb Code   298  main.o(.text)
    syd8821_chip_confirm                     0x100022b7   Thumb Code    24  main.o(.text)
    APPtimer_enable                          0x100022cf   Thumb Code    26  main.o(.text)
    APPtimer_disable                         0x100022e9   Thumb Code    24  main.o(.text)
    sched_callback_enable                    0x10002301   Thumb Code    26  main.o(.text)
    gap_s_adv_state_get                      0x1000231b   Thumb Code     8  main.o(.text)
    gap_s_att_mtu_get                        0x10002323   Thumb Code    18  main.o(.text)
    ble_SetTxPower                           0x10002335   Thumb Code   470  main.o(.text)
    ll_set_replying_packet_timer             0x1000250b   Thumb Code    10  main.o(.text)
    amic_set_bias                            0x10002515   Thumb Code   124  main.o(.text)
    gap_s_verdor_datas_get                   0x10002591   Thumb Code    26  main.o(.text)
    gap_s_verdor_datas_set                   0x100025ab   Thumb Code    78  main.o(.text)
    systemtick_delay                         0x100025f9   Thumb Code    34  main.o(.text)
    Setting4kUpdate                          0x1000261b   Thumb Code   136  main.o(.text)
    SetDevAddr_toflash                       0x100026a3   Thumb Code    72  main.o(.text)
    flash_peotect_key_confirm                0x100026eb   Thumb Code   126  main.o(.text)
    Confirm_NumericComrison                  0x1000278d   Thumb Code    12  rom.o(.text)
    SmpRxPairingConfirm                      0x10002799   Thumb Code   210  rom.o(.text)
    SmpRxPairingRandom                       0x1000286b   Thumb Code   652  rom.o(.text)
    SmpPairingReq                            0x10002af7   Thumb Code   450  rom.o(.text)
    SmpPairingPublicKey                      0x10002cb9   Thumb Code   146  rom.o(.text)
    SmpPasskeyEntry                          0x10002d4b   Thumb Code   226  rom.o(.text)
    PreCkQueSz                               0x10002e2d   Thumb Code   146  rom.o(.text)
    AttNotify                                0x10002ebf   Thumb Code    56  rom.o(.text)
    AttIndication                            0x10002ef7   Thumb Code    56  rom.o(.text)
    HW_LLC_Sleep_WorkAround                  0x10003629   Thumb Code    54  rom.o(.text)
    HW_WindowOffsetWorkAround                0x1000365f   Thumb Code    68  rom.o(.text)
    LLLengthRsp                              0x100036a3   Thumb Code   194  rom.o(.text)
    LLLengthReq                              0x10003765   Thumb Code   300  rom.o(.text)
    rvereseArray                             0x10003891   Thumb Code    26  rom.o(.text)
    LLStartENCReq                            0x100038ab   Thumb Code   152  rom.o(.text)
    LLRxStartENCRsp                          0x10003d45   Thumb Code     2  rom.o(.text)
    Protocol_Hook_Callback                   0x10003d47   Thumb Code   374  rom.o(.text)
    B01_Hook_Callback                        0x10003ebd   Thumb Code    44  rom.o(.text)
    _rom_init                                0x10003ee9   Thumb Code    78  rom.o(.text)
    LLTerminateReq                           0x10003f37   Thumb Code   120  rom.o(.text)
    _rom_gap_s_disconnect                    0x10003faf   Thumb Code    32  rom.o(.text)
    _rom_sys_32k_lpo_calibration             0x10003fcf   Thumb Code   134  rom.o(.text)
    _sys_32k_lpo_calibration                 0x10004055   Thumb Code   136  rom.o(.text)
    _rom_sys_32k_clock_set                   0x100040dd   Thumb Code   118  rom.o(.text)
    _rom_gap_s_gatt_data_send                0x10004153   Thumb Code    72  rom.o(.text)
    _rom_gap_s_coex_adv_start                0x1000419b   Thumb Code    56  rom.o(.text)
    _rom_gap_s_coex_adv_stop                 0x100041d3   Thumb Code    40  rom.o(.text)
    BBRXFIFORead                             0x100041fb   Thumb Code   494  rom.o(.text)
    LCTxPkt_Handler                          0x10004619   Thumb Code   288  rom.o(.text)
    ConnectionLost                           0x10004739   Thumb Code   122  rom.o(.text)
    LLC_IRQHandler                           0x100047b3   Thumb Code   210  rom.o(.text)
    _sys_mcu_rc_calibration                  0x10004885   Thumb Code    54  rom.o(.text)
    _rom_sys_mcu_clock_div_get               0x100048bb   Thumb Code    12  rom.o(.text)
    _rom_sys_mcu_clock_get                   0x100048c7   Thumb Code     8  rom.o(.text)
    BBMCUClockSel                            0x100048cf   Thumb Code   206  rom.o(.text)
    _rom_sys_mcu_clock_set                   0x1000499d   Thumb Code    14  rom.o(.text)
    _rom_ota_code_erase                      0x100049ab   Thumb Code   116  rom.o(.text)
    _rom_gap_s_connection_latency_mode       0x10004a1f   Thumb Code   168  rom.o(.text)
    RCOSC_validate                           0x10004be9   Thumb Code    18  pmu.o(.text)
    syd8821_pmu_power_saving                 0x10004bfb   Thumb Code   386  pmu.o(.text)
    aes_ccm_encrypt                          0x10005133   Thumb Code   114  aec-ccm.o(.text)
    aes_ccm_decrypt                          0x100051a5   Thumb Code   152  aec-ccm.o(.text)
    aes_ccm_verify                           0x1000523d   Thumb Code    96  aec-ccm.o(.text)
    CCM_NONCE                                0x1000529d   Thumb Code    62  aec-ccm.o(.text)
    aes_encrypt                              0x10005bc3   Thumb Code    24  aes.o(.text)
    aes_decrypt                              0x10005bdb   Thumb Code    26  aes.o(.text)
    __aeabi_uidiv                            0x10005c09   Thumb Code     0  uidiv.o(.text)
    __aeabi_uidivmod                         0x10005c09   Thumb Code    44  uidiv.o(.text)
    __aeabi_idiv                             0x10005c35   Thumb Code     0  idiv.o(.text)
    __aeabi_idivmod                          0x10005c35   Thumb Code    40  idiv.o(.text)
    __aeabi_memcpy                           0x10005c5d   Thumb Code    36  memcpya.o(.text)
    __aeabi_memcpy4                          0x10005c5d   Thumb Code     0  memcpya.o(.text)
    __aeabi_memcpy8                          0x10005c5d   Thumb Code     0  memcpya.o(.text)
    __aeabi_memset                           0x10005c81   Thumb Code    14  memseta.o(.text)
    __aeabi_memset4                          0x10005c81   Thumb Code     0  memseta.o(.text)
    __aeabi_memset8                          0x10005c81   Thumb Code     0  memseta.o(.text)
    __aeabi_memclr                           0x10005c8f   Thumb Code     4  memseta.o(.text)
    __aeabi_memclr4                          0x10005c8f   Thumb Code     0  memseta.o(.text)
    __aeabi_memclr8                          0x10005c8f   Thumb Code     0  memseta.o(.text)
    _memset$wrapper                          0x10005c93   Thumb Code    18  memseta.o(.text)
    memcmp                                   0x10005ca5   Thumb Code    26  memcmp.o(.text)
    __aeabi_uread4                           0x10005cbf   Thumb Code    20  uread4.o(.text)
    __rt_uread4                              0x10005cbf   Thumb Code     0  uread4.o(.text)
    _uread4                                  0x10005cbf   Thumb Code     0  uread4.o(.text)
    __aeabi_uwrite4                          0x10005cd3   Thumb Code    18  uwrite4.o(.text)
    __rt_uwrite4                             0x10005cd3   Thumb Code     0  uwrite4.o(.text)
    _uwrite4                                 0x10005cd3   Thumb Code     0  uwrite4.o(.text)
    __aeabi_fadd                             0x10005ce5   Thumb Code   162  fadd.o(.text)
    __aeabi_fsub                             0x10005d87   Thumb Code     8  fadd.o(.text)
    __aeabi_frsub                            0x10005d8f   Thumb Code     8  fadd.o(.text)
    __aeabi_dadd                             0x10005d99   Thumb Code   328  dadd.o(.text)
    __aeabi_dsub                             0x10005ee1   Thumb Code    12  dadd.o(.text)
    __aeabi_drsub                            0x10005eed   Thumb Code    12  dadd.o(.text)
    __aeabi_dmul                             0x10005efd   Thumb Code   202  dmul.o(.text)
    __aeabi_ddiv                             0x10005fcd   Thumb Code   234  ddiv.o(.text)
    __aeabi_ui2f                             0x100060bd   Thumb Code    14  ffltui.o(.text)
    __aeabi_i2d                              0x100060cd   Thumb Code    34  dflti.o(.text)
    __aeabi_ui2d                             0x100060f5   Thumb Code    24  dfltui.o(.text)
    __aeabi_d2uiz                            0x10006111   Thumb Code    50  dfixui.o(.text)
    __aeabi_f2d                              0x1000614d   Thumb Code    40  f2d.o(.text)
    __aeabi_uldivmod                         0x10006175   Thumb Code    96  uldiv.o(.text)
    __aeabi_llsl                             0x100061d5   Thumb Code    32  llshl.o(.text)
    _ll_shift_l                              0x100061d5   Thumb Code     0  llshl.o(.text)
    __aeabi_llsr                             0x100061f5   Thumb Code    34  llushr.o(.text)
    _ll_ushift_r                             0x100061f5   Thumb Code     0  llushr.o(.text)
    __aeabi_lasr                             0x10006217   Thumb Code    38  llsshr.o(.text)
    _ll_sshift_r                             0x10006217   Thumb Code     0  llsshr.o(.text)
    __I$use$fp                               0x1000623d   Thumb Code     0  iusefp.o(.text)
    _float_round                             0x1000623d   Thumb Code    16  fepilogue.o(.text)
    _float_epilogue                          0x1000624d   Thumb Code   114  fepilogue.o(.text)
    _double_round                            0x100062bf   Thumb Code    26  depilogue.o(.text)
    _double_epilogue                         0x100062d9   Thumb Code   164  depilogue.o(.text)
    __aeabi_d2ulz                            0x1000637d   Thumb Code    54  dfixul.o(.text)
    __aeabi_cdrcmple                         0x100063bd   Thumb Code    38  cdrcmple.o(.text)
    __scatterload                            0x100063e5   Thumb Code    28  init.o(.text)
    __scatterload_rt2                        0x100063e5   Thumb Code     0  init.o(.text)
    syd8821_wfi                              0x10006409   Thumb Code    66  pmu.o(PMU)
    __0vsprintf                              0x10006455   Thumb Code    30  printfa.o(i.__0vsprintf)
    __1vsprintf                              0x10006455   Thumb Code     0  printfa.o(i.__0vsprintf)
    __2vsprintf                              0x10006455   Thumb Code     0  printfa.o(i.__0vsprintf)
    __c89vsprintf                            0x10006455   Thumb Code     0  printfa.o(i.__0vsprintf)
    vsprintf                                 0x10006455   Thumb Code     0  printfa.o(i.__0vsprintf)
    __ARM_clz                                0x10006479   Thumb Code    46  depilogue.o(i.__ARM_clz)
    __ARM_common_switch8                     0x100064a7   Thumb Code    26  main.o(i.__ARM_common_switch8)
    __scatterload_copy                       0x100064c1   Thumb Code    14  handlers.o(i.__scatterload_copy)
    __scatterload_null                       0x100064cf   Thumb Code     2  handlers.o(i.__scatterload_null)
    __scatterload_zeroinit                   0x100064d1   Thumb Code    14  handlers.o(i.__scatterload_zeroinit)
    Region$$Table$$Base                      0x10006ff4   Number         0  anon$$obj.o(Region$$Table)
    Region$$Table$$Limit                     0x10007014   Number         0  anon$$obj.o(Region$$Table)
    UART_CTRL                                0x20000014   Data           8  uart.o(.data)
    SystemCoreClock                          0x2000002c   Data           4  system_armcm0.o(.data)
    app_gap_evt_callback                     0x20000040   Data           4  main.o(.data)
    enable_sw_ccm                            0x20000046   Data           1  rom.o(.data)
    using_oob                                0x20000047   Data           1  rom.o(.data)
    using_numeric_compairison                0x20000048   Data           1  rom.o(.data)
    LL_Header                                0x2000004a   Data           1  rom.o(.data)
    isStartLlid                              0x2000004b   Data           1  rom.o(.data)
    LL_Header_len                            0x2000004c   Data           2  rom.o(.data)
    BB_CTRL                                  0x20000050   Data           4  rom.o(.data)
    flash_hdr                                0x20000054   Data           4  rom.o(.data)
    lclink                                   0x20000058   Data           4  rom.o(.data)
    txpdu                                    0x2000005c   Data           4  rom.o(.data)
    flash                                    0x20000088   Data           4  rom.o(.data)
    mic_len                                  0x2000008c   Data           4  rom.o(.data)
    l2capTmpBuf                              0x20000090   Data           4  rom.o(.data)
    warning_report_evt                       0x20000098   Data           5  rom.o(.data)
    att_handle_config_evt                    0x2000009d   Data           6  rom.o(.data)
    RxCounter                                0x200000a3   Data           8  rom.o(.data)
    TxCounter                                0x200000ab   Data           8  rom.o(.data)
    rx_queue                                 0x200000b8   Data          32  uart.o(.bss)
    rx_buf                                   0x200000d8   Data        1024  uart.o(.bss)
    profile                                  0x20000558   Data        4096  main.o(.bss)
    smart_update_ctrol                       0x20001596   Data          15  main.o(.bss)
    Nonce                                    0x200015a8   Data          13  rom.o(.bss)
    rxbuf                                    0x200015b8   Data         260  rom.o(.bss)
    encPayload                               0x200016bc   Data         260  rom.o(.bss)
    att_write_evt                            0x200017c0   Data         519  rom.o(.bss)
    __initial_sp                             0x200029d8   Data           0  startup_armcm0.o(STACK)



==============================================================================

Memory Map of the image

  Image Entry point : 0x100000c1

  Load Region LR_IROM1 (Base: 0x10000000, Size: 0x000070cc, Max: 0x0003e000, ABSOLUTE)

    Execution Region ER_IROM1 (Exec base: 0x10000000, Load base: 0x10000000, Size: 0x00007014, Max: 0x0003e000, ABSOLUTE)

    Exec Addr    Load Addr    Size         Type   Attr      Idx    E Section Name        Object

    0x10000000   0x10000000   0x000000c0   Data   RO          295    RESET               startup_armcm0.o
    0x100000c0   0x100000c0   0x00000000   Code   RO          532  * .ARM.Collect$$$$00000000  mc_p.l(entry.o)
    0x100000c0   0x100000c0   0x00000004   Code   RO          597    .ARM.Collect$$$$00000001  mc_p.l(entry2.o)
    0x100000c4   0x100000c4   0x00000004   Code   RO          600    .ARM.Collect$$$$00000004  mc_p.l(entry5.o)
    0x100000c8   0x100000c8   0x00000000   Code   RO          602    .ARM.Collect$$$$00000008  mc_p.l(entry7b.o)
    0x100000c8   0x100000c8   0x00000000   Code   RO          604    .ARM.Collect$$$$0000000A  mc_p.l(entry8b.o)
    0x100000c8   0x100000c8   0x00000008   Code   RO          605    .ARM.Collect$$$$0000000B  mc_p.l(entry9a.o)
    0x100000d0   0x100000d0   0x00000000   Code   RO          607    .ARM.Collect$$$$0000000D  mc_p.l(entry10a.o)
    0x100000d0   0x100000d0   0x00000000   Code   RO          609    .ARM.Collect$$$$0000000F  mc_p.l(entry11a.o)
    0x100000d0   0x100000d0   0x00000004   Code   RO          598    .ARM.Collect$$$$00002712  mc_p.l(entry2.o)
    0x100000d4   0x100000d4   0x00000006   Code   RO          396    .emb_text           syd8821_ble_slave.lib(rom.o)
    0x100000da   0x100000da   0x00000002   PAD
    0x100000dc   0x100000dc   0x0000021c   Code   RO            3    .text               main_master.o
    0x100002f8   0x100002f8   0x00000368   Code   RO           82    .text               gpio.o
    0x10000660   0x10000660   0x00000038   Code   RO          113    .text               delay.o
    0x10000698   0x10000698   0x00000090   Code   RO          139    .text               pad_mux_ctrl.o
    0x10000728   0x10000728   0x00000280   Code   RO          161    .text               uart.o
    0x100009a8   0x100009a8   0x0000023c   Code   RO          200    .text               debug.o
    0x10000be4   0x10000be4   0x000000e2   Code   RO          240    .text               queue.o
    0x10000cc6   0x10000cc6   0x00000002   PAD
    0x10000cc8   0x10000cc8   0x00000328   Code   RO          263    .text               spi.o
    0x10000ff0   0x10000ff0   0x0000001c   Code   RO          296    .text               startup_armcm0.o
    0x1000100c   0x1000100c   0x00000018   Code   RO          302    .text               system_armcm0.o
    0x10001024   0x10001024   0x00001768   Code   RO          328    .text               syd8821_ble_slave.lib(main.o)
    0x1000278c   0x1000278c   0x0000245c   Code   RO          397    .text               syd8821_ble_slave.lib(rom.o)
    0x10004be8   0x10004be8   0x000001ac   Code   RO          432    .text               syd8821_ble_slave.lib(pmu.o)
    0x10004d94   0x10004d94   0x00000580   Code   RO          486    .text               syd8821_ble_slave.lib(aec-ccm.o)
    0x10005314   0x10005314   0x000008f4   Code   RO          519    .text               syd8821_ble_slave.lib(aes.o)
    0x10005c08   0x10005c08   0x0000002c   Code   RO          535    .text               mc_p.l(uidiv.o)
    0x10005c34   0x10005c34   0x00000028   Code   RO          537    .text               mc_p.l(idiv.o)
    0x10005c5c   0x10005c5c   0x00000024   Code   RO          539    .text               mc_p.l(memcpya.o)
    0x10005c80   0x10005c80   0x00000024   Code   RO          541    .text               mc_p.l(memseta.o)
    0x10005ca4   0x10005ca4   0x0000001a   Code   RO          543    .text               mc_p.l(memcmp.o)
    0x10005cbe   0x10005cbe   0x00000014   Code   RO          575    .text               mc_p.l(uread4.o)
    0x10005cd2   0x10005cd2   0x00000012   Code   RO          577    .text               mc_p.l(uwrite4.o)
    0x10005ce4   0x10005ce4   0x000000b2   Code   RO          579    .text               mf_p.l(fadd.o)
    0x10005d96   0x10005d96   0x00000002   PAD
    0x10005d98   0x10005d98   0x00000164   Code   RO          581    .text               mf_p.l(dadd.o)
    0x10005efc   0x10005efc   0x000000d0   Code   RO          583    .text               mf_p.l(dmul.o)
    0x10005fcc   0x10005fcc   0x000000f0   Code   RO          585    .text               mf_p.l(ddiv.o)
    0x100060bc   0x100060bc   0x0000000e   Code   RO          587    .text               mf_p.l(ffltui.o)
    0x100060ca   0x100060ca   0x00000002   PAD
    0x100060cc   0x100060cc   0x00000028   Code   RO          589    .text               mf_p.l(dflti.o)
    0x100060f4   0x100060f4   0x0000001c   Code   RO          591    .text               mf_p.l(dfltui.o)
    0x10006110   0x10006110   0x0000003c   Code   RO          593    .text               mf_p.l(dfixui.o)
    0x1000614c   0x1000614c   0x00000028   Code   RO          595    .text               mf_p.l(f2d.o)
    0x10006174   0x10006174   0x00000060   Code   RO          614    .text               mc_p.l(uldiv.o)
    0x100061d4   0x100061d4   0x00000020   Code   RO          616    .text               mc_p.l(llshl.o)
    0x100061f4   0x100061f4   0x00000022   Code   RO          618    .text               mc_p.l(llushr.o)
    0x10006216   0x10006216   0x00000026   Code   RO          620    .text               mc_p.l(llsshr.o)
    0x1000623c   0x1000623c   0x00000000   Code   RO          622    .text               mc_p.l(iusefp.o)
    0x1000623c   0x1000623c   0x00000082   Code   RO          623    .text               mf_p.l(fepilogue.o)
    0x100062be   0x100062be   0x000000be   Code   RO          625    .text               mf_p.l(depilogue.o)
    0x1000637c   0x1000637c   0x00000040   Code   RO          629    .text               mf_p.l(dfixul.o)
    0x100063bc   0x100063bc   0x00000028   Code   RO          631    .text               mf_p.l(cdrcmple.o)
    0x100063e4   0x100063e4   0x00000024   Code   RO          633    .text               mc_p.l(init.o)
    0x10006408   0x10006408   0x0000004c   Code   RO          433    PMU                 syd8821_ble_slave.lib(pmu.o)
    0x10006454   0x10006454   0x00000024   Code   RO          554    i.__0vsprintf       mc_p.l(printfa.o)
    0x10006478   0x10006478   0x0000002e   Code   RO          627    i.__ARM_clz         mf_p.l(depilogue.o)
    0x100064a6   0x100064a6   0x0000001a   Code   RO          347    i.__ARM_common_switch8  syd8821_ble_slave.lib(main.o)
    0x100064c0   0x100064c0   0x0000000e   Code   RO          639    i.__scatterload_copy  mc_p.l(handlers.o)
    0x100064ce   0x100064ce   0x00000002   Code   RO          640    i.__scatterload_null  mc_p.l(handlers.o)
    0x100064d0   0x100064d0   0x0000000e   Code   RO          641    i.__scatterload_zeroinit  mc_p.l(handlers.o)
    0x100064de   0x100064de   0x00000002   PAD
    0x100064e0   0x100064e0   0x00000174   Code   RO          555    i._fp_digits        mc_p.l(printfa.o)
    0x10006654   0x10006654   0x000006ec   Code   RO          556    i._printf_core      mc_p.l(printfa.o)
    0x10006d40   0x10006d40   0x00000020   Code   RO          557    i._printf_post_padding  mc_p.l(printfa.o)
    0x10006d60   0x10006d60   0x0000002c   Code   RO          558    i._printf_pre_padding  mc_p.l(printfa.o)
    0x10006d8c   0x10006d8c   0x0000000a   Code   RO          560    i._sputc            mc_p.l(printfa.o)
    0x10006d96   0x10006d96   0x00000032   Data   RO          399    .constdata          syd8821_ble_slave.lib(rom.o)
    0x10006dc8   0x10006dc8   0x00000020   Data   RO          434    .constdata          syd8821_ble_slave.lib(pmu.o)
    0x10006de8   0x10006de8   0x0000020b   Data   RO          520    .constdata          syd8821_ble_slave.lib(aes.o)
    0x10006ff3   0x10006ff3   0x00000001   PAD
    0x10006ff4   0x10006ff4   0x00000020   Data   RO          637    Region$$Table       anon$$obj.o


    Execution Region RW_IRAM1 (Exec base: 0x20000000, Load base: 0x10007014, Size: 0x000029d8, Max: 0x00028000, ABSOLUTE)

    Exec Addr    Load Addr    Size         Type   Attr      Idx    E Section Name        Object

    0x20000000   0x10007014   0x0000000c   Data   RW           83    .data               gpio.o
    0x2000000c   0x10007020   0x00000008   Data   RW          140    .data               pad_mux_ctrl.o
    0x20000014   0x10007028   0x00000008   Data   RW          163    .data               uart.o
    0x2000001c   0x10007030   0x00000008   Data   RW          202    .data               debug.o
    0x20000024   0x10007038   0x00000008   Data   RW          264    .data               spi.o
    0x2000002c   0x10007040   0x00000004   Data   RW          303    .data               system_armcm0.o
    0x20000030   0x10007044   0x00000014   Data   RW          330    .data               syd8821_ble_slave.lib(main.o)
    0x20000044   0x10007058   0x0000006f   Data   RW          400    .data               syd8821_ble_slave.lib(rom.o)
    0x200000b3   0x100070c7   0x00000001   PAD
    0x200000b4   0x100070c8   0x00000004   Data   RW          435    .data               syd8821_ble_slave.lib(pmu.o)
    0x200000b8        -       0x00000420   Zero   RW          162    .bss                uart.o
    0x200004d8        -       0x00000080   Zero   RW          201    .bss                debug.o
    0x20000558        -       0x0000104d   Zero   RW          329    .bss                syd8821_ble_slave.lib(main.o)
    0x200015a5   0x100070cc   0x00000003   PAD
    0x200015a8        -       0x0000041f   Zero   RW          398    .bss                syd8821_ble_slave.lib(rom.o)
    0x200019c7        -       0x00000010   Zero   RW          487    .bss                syd8821_ble_slave.lib(aec-ccm.o)
    0x200019d7   0x100070cc   0x00000001   PAD
    0x200019d8        -       0x00001000   Zero   RW          293    STACK               startup_armcm0.o


==============================================================================

Image component sizes


      Code (inc. data)   RO Data    RW Data    ZI Data      Debug   Object Name

       572         38          0          8        128      11461   debug.o
        56          0          0          0          0      35296   delay.o
       872         16          0         12          0      47053   gpio.o
       540         76          0          0          0      41950   main_master.o
       144          4          0          8          0       1877   pad_mux_ctrl.o
       226          0          0          0          0       2419   queue.o
       808         50          0          8          0      46348   spi.o
        28          8        192          0       4096        680   startup_armcm0.o
        24          8          0          4          0        909   system_armcm0.o
       640         24          0          8       1056      11847   uart.o

    ----------------------------------------------------------------------
      3912        224        224         48       5280     199840   Object Totals
         0          0         32          0          0          0   (incl. Generated)
         2          0          0          0          0          0   (incl. Padding)

    ----------------------------------------------------------------------

      Code (inc. data)   RO Data    RW Data    ZI Data      Debug   Library Member Name

         0          0          0          0          0          0   entry.o
         0          0          0          0          0          0   entry10a.o
         0          0          0          0          0          0   entry11a.o
         8          4          0          0          0          0   entry2.o
         4          0          0          0          0          0   entry5.o
         0          0          0          0          0          0   entry7b.o
         0          0          0          0          0          0   entry8b.o
         8          4          0          0          0          0   entry9a.o
        30          0          0          0          0          0   handlers.o
        40          0          0          0          0         72   idiv.o
        36          8          0          0          0         68   init.o
         0          0          0          0          0          0   iusefp.o
        32          0          0          0          0         68   llshl.o
        38          0          0          0          0         68   llsshr.o
        34          0          0          0          0         68   llushr.o
        26          0          0          0          0         72   memcmp.o
        36          0          0          0          0         60   memcpya.o
        36          0          0          0          0        100   memseta.o
      2266         96          0          0          0        460   printfa.o
        44          0          0          0          0         72   uidiv.o
        96          0          0          0          0         84   uldiv.o
        20          0          0          0          0         60   uread4.o
        18          0          0          0          0         60   uwrite4.o
        40          2          0          0          0         68   cdrcmple.o
       356          4          0          0          0        140   dadd.o
       240          6          0          0          0         84   ddiv.o
       236          0          0          0          0        216   depilogue.o
        60         10          0          0          0         68   dfixui.o
        64         10          0          0          0         68   dfixul.o
        40          6          0          0          0         68   dflti.o
        28          4          0          0          0         68   dfltui.o
       208          6          0          0          0         88   dmul.o
        40          0          0          0          0         60   f2d.o
       178          0          0          0          0        108   fadd.o
       130          0          0          0          0        144   fepilogue.o
        14          0          0          0          0         68   ffltui.o
      1408          4          0          0         16       8115   aec-ccm.o
      2292         12        523          0          0       3442   aes.o
      6018        378          0         20       4173     122285   main.o
       504         34         32          4          0      11032   pmu.o
      9314        452         50        111       1055      24191   rom.o

    ----------------------------------------------------------------------
     23950       1040        606        136       5248     171625   Library Totals
         8          0          1          1          4          0   (incl. Padding)

    ----------------------------------------------------------------------

      Code (inc. data)   RO Data    RW Data    ZI Data      Debug   Library Name

      2772        112          0          0          0       1312   mc_p.l
      1634         48          0          0          0       1248   mf_p.l
     19536        880        605        135       5244     169065   syd8821_ble_slave.lib

    ----------------------------------------------------------------------
     23950       1040        606        136       5248     171625   Library Totals

    ----------------------------------------------------------------------

==============================================================================


      Code (inc. data)   RO Data    RW Data    ZI Data      Debug   

     27862       1264        830        184      10528     369049   Grand Totals
     27862       1264        830        184      10528     369049   ELF Image Totals
     27862       1264        830        184          0          0   ROM Totals

==============================================================================

    Total RO  Size (Code + RO Data)                28692 (  28.02kB)
    Total RW  Size (RW Data + ZI Data)             10712 (  10.46kB)
    Total ROM Size (Code + RO Data + RW Data)      28876 (  28.20kB)

==============================================================================

