:020000041000EA
:1000000090260020690B0010710B0010730B00107C
:1000100000000000000000000000000000000000E0
:10002000000000000000000000000000750B001040
:100030000000000000000000770B0010790B00109A
:1000400027050010673100107B0B00107B0B0010A0
:100050007B0B00107B0B0010050700107B0B0010C2
:100060007B0B0010A5090010C9090010ED09001054
:10007000110A0010350A00107B0B00107B0B0010DA
:100080007B0B00107B0B00107B0B00107B0B001018
:100090007B0B00107B0B00107B0B00107B0B001008
:1000A0007B0B0010AF0700107B0B00107B0B0010C8
:1000B0007B0B00107B0B00107B0B00107B0B0010E8
:1000C0000348854603F07EFC004800479901001074
:1000D0009026002010B50021192000F08EFA002192
:1000E000172000F08AFA0021222000F086FA002171
:1000F0000A2000F082FA0121192000F01AF90121EA
:10010000172000F016F90121222000F012F9012138
:100110000A2000F00EF900210E2000F06EFA0021F6
:100120000F2000F06AFA0021102000F066FA00218A
:100130000E2000F096F800210F2000F092F8002128
:10014000102000F08EF810BD10B50721042000F03B
:1001500054FA0721052000F050FA0821002000F091
:10016000EEFA192000F05DF8182232A1012000F00B
:100170003CFB10BD012036490870704710B50120C6
:1001800000F0CFFC0123DA033249184600F06CFC82
:100190000A2000F046F810BD08B5002472B600F041
:1001A00007FD012001F051F9032001F042F901F0AF
:1001B00054F9FFF78FFFFFF7C7FFFFF7DFFF62B6C6
:1001C0002EE00A2000F0E2F82148007800280AD04A
:1001D00000201F490870192000F0D8F8182215A136
:1001E000012000F002FB3146012000F030FB044604
:1001F000002C15D000200090002500BF0AE06946C1
:10020000012000F01AFB01226946104600F0EDFAC9
:10021000681C85B2A542F2DB172000F0B7F800BFDA
:10022000CFE7002805DBC206D20E012191400A4A21
:1002300011607047535944383832312054494D4584
:10024000523120317320544553540D0A00000000F0
:10025000000000207501001000E100E0D3490860B3
:10026000704770B5024620241440630920251446C7
:10027000AC430125A54028469C00CD4D2C59207546
:10028000050A6575050CA575050EE575002B13D0DF
:10029000002908D1C74D6D7D0543ECB2C54D6D7D7C
:1002A000C44E747515E0C34D6D7D85432C46C14D1C
:1002B0006D7DC04E74750CE0002905D1BD4C64689D
:1002C0000443BC4D6C6004E0BA4C64688443B94D8F
:1002D0006C6070BD70B5024620241440630920256F
:1002E0001446AC430125A5402846002B13D0002915
:1002F00008D0B04DED7D0543ECB2AE4DED7DAD4E79
:10030000F47515E0AB4DED7D85432C46A94DED7D93
:10031000A84EF4750CE0002905D0A64CE46804430F
:10032000A44DEC6004E0A34CE4688443A14DEC6070
:1003300070BD30B50B4620240440610920250446D9
:10034000AC430125A5402A468C00994D2C592276B4
:10035000150A6576150CA576150EE576002B0AD0E4
:100360008C00934D2C592271150A6571150CA571DD
:10037000150EE57109E08C008D4D2C592272150A7D
:100380006572150CA572150EE57230BD10B52023EF
:100390000340590920240346A34301249C402246DC
:1003A0008B00834CE3581A73140A5C73140C9C730F
:1003B000140EDC7310BD10B520230340590920240E
:1003C0000346A34301249C4022468B00784CE3580B
:1003D0001A71140A5C71140C9C71140EDC7110BD3E
:1003E00010B520230340590920240346A3430124C8
:1003F0009C4022468B006E4CE3581A72140A5C72C1
:10040000140C9C72140EDC7210BD30B50146202015
:100410000840420920240846A04301248440234682
:100420009000634C20584030102404192578284649
:1004300065782D022843A5782D042843E478240606
:1004400020431840002801D0012030BD0020FCE7E7
:10045000F0B503460C46154620221A4050092026C6
:100460001A46B243012696403146002C0BD1820039
:100470004F4EB258403211720E0A56720E0C9672DE
:100480000E0ED6720AE08200494EB2584032117107
:100490000E0A56710E0C96710E0ED671002D0BD1F0
:1004A0008200434EB258203211760E0A56760E0C58
:1004B00096760E0ED6760AE082003D4EB258203275
:1004C00011750E0A56750E0C96750E0ED6758200B5
:1004D000374EB258203211710E0A56710E0C9671B9
:1004E0000E0ED6710022002A05DBD706FF0E01266C
:1004F000BE40314F3E6000BFF0BD10B52023034029
:10050000590920240346A34301249C4022468B0022
:10051000274CE35820331A72140A5C72140C9C7234
:10052000140EDC7210BD70B500243CE0A000204920
:1005300008584030142141180A7810464A781202AF
:1005400010438A7812041043C97809060843A100B1
:10055000174A515820310A461378194653781B021E
:10056000194393781B041943D278120611430840AB
:100570000546002D00D114E00C480068002804D086
:1005800029462046094A12689047A00008490858A1
:1005900040300575290A4175290C8175290EC175F0
:1005A00000BF601CC4B2022CC0DB70BD0C00002078
:1005B000040000204010005000E100E010B50146AA
:1005C000272901DA002902DA0020C04310BDCC0738
:1005D000E40F202904DA4A101B480068835C05E018
:1005E00008462038421018484068835C002C01D02F
:1005F0001811EBE71807000FE8E770B5272801DAB4
:10060000002800DA70BD0907090FC407E40F20288D
:1006100004DA43100C4E3668F21805E00646203E18
:100620007310094E7668F2181578002C01D00F2649
:1006300000E0F0263540002C01D00E07310E2E468A
:100640000E43167000BFDDE710000020002815DB08
:10065000C206D20E01219140944A116000BF00BF32
:1006600000BFBFF34F8F00BF00BF00BF00BF00BF80
:1006700000BFBFF36F8F00BF00BF00BF704770B5F2
:1006800004460D460620FFF7E1FF89480068007820
:10069000000900012907090F084385490968087006
:1006A00083480068007880218843E101802211405E
:1006B00008437F49096808707D4800680078402138
:1006C00088437B4909680870794800688078082168
:1006D00088430830764909688870920075497648E1
:1006E00000F0F0F87548406A4021084373494862B9
:1006F0000846006A4021084370490862062000F05D
:10070000CBF870BD70B56A4800680478302060404E
:1007100005466748006805701020204000280DD06D
:1007200000BF634800680179634800F003F960483E
:100730000068C078C007C00F0028F2D070BD70B547
:1007400004460D461920FFF781FF5948406800789C
:10075000000900012907090F084355494968087035
:1007600053484068007880218843E101802211408D
:1007700008434F49496808704D4840680078402157
:1007800088434B4949680870494840688078082187
:10079000884308304649496888709200484946486D
:1007A000103000F08FF8192000F076F870BD70B5A9
:1007B0003F48406804783020604005463C48406827
:1007C00005701020204000280ED000BF3848406837
:1007D00001793948103000F0ADF835484068C078EC
:1007E000C007C00F0028F1D070BDF0B50B46012442
:1007F0002404002112E000BF85002D4E7559ED78CC
:100800002D07ED0F002DF7D1850075596D785E5CD1
:1008100035468600264FBE597570491C9142EADB69
:1008200000E0641E8500224E7559ED786D07ED0FCE
:10083000002D01D1002CF4D1F0BD70B504460D4659
:1008400021011D4A8818294600F082F870BD70B554
:1008500004460D4600BF022C01DB002070BD2101C3
:10086000154A881800F089F800280AD12001124999
:100870004018C5682101104A881800F087F8C0B2F6
:10088000ECE70020EAE70146012901DD002070477E
:100890008800074A1058FAE7002806DBC206D20E85
:1008A00001219140014A803A1160704780E100E0E7
:1008B000180000209800002078000020008002200E
:1008C000980200200023436003608260C16070478B
:1008D000416801607047F8B504460F4615466068E8
:1008E0004019A168884219DBA088281A86B262687C
:1008F000E16888183246394602F004FDA81B85B22B
:100900002068A84202DC2088401E85B2B9192A4618
:10091000E06802F0F7FC65607019F8BD6268E16894
:1009200088182A46394602F0EDFC6068401960607C
:100930002846F2E702465368581C5060D068C154FC
:1009400093685068984201DB002050600120704796
:10095000024653681068984201D10020704713681E
:10096000581C1060D068C05C08709368106898428A
:1009700001DB002010600120F0E701464A680868AA
:10098000904201D1012070470020FCE7014600227F
:100990004B680868984200DD8A68486880180B68D0
:1009A000C01A704710B56E480068007E40084000CD
:1009B000401C6B49096808766A480068002802D024
:1009C00068490868804710BD10B565484068007EDA
:1009D00040084000401C6249496808766148406808
:1009E000002802D05F494868804710BD10B55C48B8
:1009F0008068007E40084000401C5949896808769C
:100A000058488068002802D056498868804710BD41
:100A100010B55348C068007E40084000401C504953
:100A2000C96808764F48C068002802D04D49C86898
:100A3000804710BD10B54A480069007E400840005C
:100A4000401C47490969087646480069002802D0D9
:100A500044490869804710BD01468800404A105843
:100A60000078C007C00F7047F0B504460E46154623
:100A70002046FFF7F1FF002801D1052C01DB002003
:100A8000F0BDA00037490E50042C13D1A00034490A
:100A90000A585179177909023943084691790904AE
:100AA0000843A1002E4A51580D712A0A4A71280C98
:100AB00088710EE0A0002A49095848790979000296
:100AC0000843A9B20846A100254A51580871000AF6
:100AD0004871002B0BD0A00021490858007F400826
:100AE0004000401CA1001E4A515808770CE0A000AD
:100AF0001B4908582030007840084000401CA100E5
:100B0000174A515820310870A0001549085800783C
:100B100040084000401CA100114A515808700120B3
:100B2000AEE700B503461846FFF796FF002801D050
:100B3000052B00DB00BD98000949085800784008E3
:100B400040009900064A5158087000BFF2E701467C
:100B50008800034A10580078C007C00F7047000093
:100B600020000020980400200448804704480047E3
:100B7000FEE7FEE7FEE7FEE7FEE7FEE78D0B00106F
:100B8000C100001003480449086070470148024949
:100B90000860704740787D0134000020FE49202223
:100BA00008781043EF221040042210430870704769
:100BB00010B5FA488047002802D001F086FF0120D6
:100BC00010BDF6480A300047F44928310847F34978
:100BD0003C310847F1496C310847F1490847F04971
:100BE0005C310847EE496A310847ED4976310847DC
:100BF000EB4986310847EA4994310847E849A23170
:100C00000847E749AE31084730B4E64CA44630BC4B
:100C10006047E44874300047E3480047F8B5E34DC7
:100C2000CF222968E24C087800261040087020681E
:100C3000E04918308847286822680178127F09093E
:100C400012070901120F114301700907090FBF278D
:100C5000012921687ED00A4622314B7809781B028F
:100C60000B43114620310B711B0A4B710378117A2B
:100C70003B4089010B435906490E017022684178B7
:100C80004032127A8909921D92068901920E11430F
:100C9000417021680622801C093102F033FB216873
:100CA0004820425C002A04D028684931083002F00C
:100CB00029FB2168BF4A7020405C323A713190476D
:100CC0002868BD4A41788906890E891C90472868A2
:100CD000017809090901091D017022683940127A59
:100CE000D207520E11430170226841782032127AE5
:100CF0008909921D92068901920E11434170216863
:100D00000622801C093102F0FDFA21682820425C8D
:100D100028682931083002F0F5FA2868A74A417896
:100D20008906890E891C9047256800206F7F012164
:100D300081400F4204D0E97F0B2251438E19761C6B
:100D4000401C0328F3D32C4620346078217800021D
:100D5000084300E019E013214843401CB04206D28A
:100D6000701E02F0A5FA401C2070000A60706078C6
:100D7000217800020843022803D2022020700020BC
:100D80006070287F012824D03AE00B4620318A7910
:100D9000CA71197A0278C9073A40490E0A430270AB
:100DA00051062268490E6032127CD2011143017053
:100DB00041780622890989010C3141702168801C23
:100DC000093102F09FFA2868216806220830713143
:100DD0006DE7E079002813D0607822780102114392
:100DE00013204143A079491CC00302F061FA401C62
:100DF00006467F2102F05CFA401CC1B2E1711EE0A0
:100E0000607921790002084331D0607822780102AC
:100E100011431320414328462230427803781002C0
:100E20001843C003491C02F043FA401C06467F21C8
:100E300002F03EFA401C81B22171080A607130460E
:100E400002F036FA401C7F2800D97F200121E97585
:100E5000A97F00916178237809021943584CEA7FF1
:100E6000C0B23B46A047564834308047F8BD00200A
:100E7000544CE875034602460121A047F8BD4A4993
:100E80001A3108474848F43000474F48004738B502
:100E9000049C00944C4C0E34A04738BD30B44A4CEE
:100EA000E834A44630BC604710B501F0F9FE10BD2F
:100EB00010B501F011FF10BD4349A4310847434864
:100EC00000474248323000474049463108473F49D1
:100ED000B23108473D49C23108473C4AD032104739
:100EE00010B500F0E3FD10BD3849FC310847384922
:100EF000084737490E31084735493631084710B59C
:100F000001F0B4F810BD3349084729480068817CD6
:100F1000427C0802104308D01F4A02201178014386
:100F20000120014311702B4908477047F8B51A4852
:100F3000C079000679D51E480668B17C707C0F0226
:100F400007431548057801D0A80701D468076CD578
:100F5000114C207BE17A0002E41C084365D0002F8D
:100F600063D060782178000208434DD1307CF17B5A
:100F70000002084302F012FC0022174B02F012FBA1
:100F800002F01AFC80B278430A2102F0A7F940046B
:100F9000010C2170080A21E076150020DF560000C0
:100FA0001558000027590000CD5B000058000020B4
:100FB00054000020451D00002B260000472700009C
:100FC000971B000031540000F55C00005B5E0000E0
:100FD000675F0000B56000000000F43F6070307D86
:100FE000F27C000210430A224243914203D3401E86
:100FF0002070000A6070607821780002084303D1F5
:101000000120207000206070FD210D400121F64874
:101010000D430570F5490020884760782278010269
:101020001143F44BF24A09209847F8BD10B50F213F
:10103000ED4802F080F910BD7CB50546401C02F079
:1010400092F9082831D0E84C00263E3C042831D0E3
:10105000802874D0E449C31F0A78FF3BFA3B18D0BC
:1010600001218903884263D1E2490A20243188475B
:1010700060780621484301190A22681D891C02F084
:1010800041F96078401CC0B260700A2857D366707E
:1010900055E0C879002852D0D00650D4AB796C798D
:1010A0001802204301280AD049E001F015FED24879
:1010B000804744E066702670FFF7B8FF3FE088780D
:1010C000401E0006000E88702AD0C7484B788179F0
:1010D000427909021143827A447A12022243401C67
:1010E000012B23D0521A0272120A42721206037A9C
:1010F000120C1A43531A69460B804A80BA490A7B7C
:10110000C97A12020A4369468A80417B027B08023F
:1011100010436946C880B8496846E83188470EE000
:10112000087A8870402002430A7008E05218DAE713
:10113000910604D58004000F01D0FFF7F7FEAF49F8
:101140002846C96888477CBD10B50446001D02F0DA
:101150000AF9AA49C860211DA94802F00EF9A94957
:101160002046884710BDA74922310847A549783154
:101170000847A44A803210479C4A7A3A10479B4855
:1011800072380047984900203E390A7849788A42E7
:1011900000D90A200818801A401EC0B2704700B556
:1011A000FFF7F0FF002804D18F4800213E3841703E
:1011B000017000BDF8B50E46074693491C4615461A
:1011C00001208847002805D023462A463146384664
:1011D00001F042FDF8BDF8B50E4604468A491F46A7
:1011E000154601208847002814D0022C03D1FFF7B0
:1011F000C9FF002809D0EAB27C4D3B463146204663
:101200006A3DA847012807D004E00A21794B7F4AAC
:10121000084698470020F8BD022C12D1724C0621D6
:101220003E3C20780A46484300193146801C02F0B3
:1012300069F82078401CC0B220700A2801D3002031
:1012400020700120F8BD70B50D46044611214019EB
:1012500089031646884201D3002070BD6C4800689F
:10126000213002F080F86B4B00193246294698472E
:1012700070BDF8B50646EFF3108472B6644D286869
:10128000213002F070F88019634A0121904784F3FD
:101290001088614F0024F63FEFF3108572B65C486A
:1012A0000068213002F05FF8311940185B490023D3
:1012B0000A192021B84785F3108801200003203443
:1012C0008442E9DBF8BDF7B5070501993F0D002918
:1012D00012D0029900290FD04849897800290BD1F2
:1012E00001997A18012109038A4205D8019A11232C
:1012F00082181B039A4201D90020FEBD0025C41BA1
:10130000EFF3108672B642480068213002F02BF8E5
:101310006119401841493F4B4A192021984786F3EB
:1013200010880120000320358542E9DB3B48019A03
:10133000C019029901F0E6FF3349012088470028CF
:101340000AD0EFF3108072B62C4901228C808A708B
:1013500080F310880120FEBD2046FFF78AFFF9E7E1
:101360002249A8310847214AB032104738B5049CB9
:1013700000941E4CB834A04738BD30B41B4CC43464
:10138000A44630BC60471949CC310847174AD432CB
:101390001047164ADC32104730B4144CE434A446EB
:1013A00030BC6047114BEC331847104BF4331847EF
:1013B00030B40E4CFC34A44630BC60471849084792
:1013C0001748083000471649103108471449D231F0
:1013D00008471349DA3108471249084711483230A3
:1013E000004710485630004776150020B5600000D1
:1013F0000B0F0010D33300008D5E0000380000207A
:1014000039100010B35F0000458500009F110010E7
:10141000500000208F1600009F18000038050020A3
:10142000B961000017630000F94A1047F8495231CA
:101430000847F7495C310847F54964310847F449E2
:101440006C310847F2497631084710B501F0C9FB05
:1014500010BD10B501F060FB10BDED4890300047A5
:10146000EB49A431084730B4EA4CA44630BC60478D
:10147000E748F6300047E8480047E7493031084779
:10148000E54856300047E44860300047E2481430F1
:101490000047E14822300047DF4872300047DE4B0A
:1014A000D6331847DD4B184730B4DC4C6634A446BD
:1014B00030BC604730B4DA4CA44630BC6047F8B565
:1014C000D8488047D84CA078002809D0A088FFF7DA
:1014D000D0FEEFF3108072B60021A17080F3108867
:1014E000D24DE87900282CD0000608D5287840078E
:1014F00005D5FFF71BFD2878FB21084028702878C8
:10150000CB4FCC4E41060AD5BF210840287002209F
:101510006946088002466B4639460020B047287865
:10152000C1070ED0400840002870800701D5042074
:1015300000E005206946088002226B4639460020FB
:10154000B0476078C10704D0400840006070A068D0
:101550008047F8BDB8480047B7483A300047B6481A
:1015600052300047B4486A300047B3486E300047F5
:10157000B2498A69120A120202434A61087C0122B6
:1015800010430874704710B572B6A24CA047AC481F
:10159000006801214A02104206D1AA48027ED20701
:1015A00002D0027E0A43027662B6012010BD70B5F9
:1015B00004460320000384422AD9A3480326056871
:1015C000B603E878002802D0012810D01EE0284693
:1015D000253001F0C8FEA04202D88019A04217D2DF
:1015E000284629300EE08019A04211D20EE028468C
:1015F0002D3001F0B8FEA04202D88019A04207D2D7
:101600002846313001F0AFFEA042ECD9012070BD78
:10161000002070BD10B572B68C4A904762B610BDFE
:1016200070B514460D460646FFF7C1FF002806D0E8
:1016300072B62246864B29463046984762B670BD40
:1016400010B572B6824BAE33984762B610BD10B576
:1016500072B67E4CF63CA04762B610BDF7B50025C9
:10166000C80288B00E462C46070C11E008986101AC
:101670000818774B6A4620219847002069460A5C83
:10168000401C5219C0B295B22028F8D3641CA4B2F1
:10169000BC42EBD3F6060898F60E610108186C4BB5
:1016A0006A46314698470020694604E00A5C5219B0
:1016B000401C95B2C0B2B042F8D30A98854202D11C
:1016C00001200BB0F0BD0020FBE7FFB50E46012165
:1016D000074609035E4B81B05E4A002098475D498A
:1016E000352208468C3801F00DFE5A48833801F047
:1016F0003AFE58495722441856482146573801F0B7
:1017000001FE2021601C01F016FE0025002F10D0E4
:101710000020395C00290AD02218401CC0B2517048
:101720002028F6D305E02118401C4D70C0B22028B7
:10173000F9D320460521213001F0FDFD002E12D005
:101740000020315C00290CD022182032401CC0B28D
:1017500051700528F5D306E021182031401C4D704A
:10176000C0B20528F8D321462631039801F005FEC2
:101770002146223104980872000A48720121334A36
:101780002570002090470121314B09030020314A88
:10179000AE339847012005B0F0BD2F4A10472E4ABE
:1017A000223A1047FEB50278002A7DD01F49CA713F
:1017B00042780A72002A01D0042A01D904220A724E
:1017C000C278847813022343184A1C0A5372947215
:1017D0004479057924022C431546EC72260A2E73AF
:1017E000A646C4798579200228435073040A8446AA
:1017F0001A489473056808262C7CE87B240204436D
:101800000120521CA342487031D91C1B30E000005B
:1018100091630000E9310000576600001B6800007A
:1018200061690000D16400003800002076150020B6
:101830000002000031540000713C00000010005014
:1018400000E100E000A00050500000209F180000C0
:101850008F16000038050020A72900005400002042
:101860001071000A01E01671300A507107E0E41AA5
:101870000F7ABC4226DA1071000A50710C72087A95
:1018800088700E70002B1BD050791179000208432C
:10189000191A6846018043806146C1807146818083
:1018A000A87C697C000200E010E0084302D0724985
:1018B0000020884771496846884771490920884750
:1018C0000120FEBDFF00BC42CDDAC9E70020FEBD0D
:1018D000FEB507466B4801780A077DD5F72211400F
:1018E0000170BA797C1C7B7912021A437BD0C279D1
:1018F000120678D5102211430170880673D462480D
:10190000804705466079217900020843FF1C0028C2
:1019100032D001F043FF0646009178783978000212
:10192000084301F03BFF594F00223B4601F03AFECD
:101930003246009B01F036FE009055480191006848
:10194000017CC27B0802104301F028FF00223B46C5
:1019500001F028FE07460E46607A217A000208430D
:10196000401B01F007FF3A46334601F01BFE019B86
:10197000009A01F065FD24E0787839780002084388
:1019800001F0F0FE064642480068017CC27B080276
:10199000104301F0E7FE314601F0F8FC01F02AFFA8
:1019A00000223A4B01F0FEFD07460E46607A217A8E
:1019B00000020843401B01F0DDFE3A46334601F0C9
:1019C000F1FD0022334B01F055FE01F0F5FE01045C
:1019D000090C00D1012101E00EE004E0284B0920B0
:1019E0002D4A243B984703206946088102221102B0
:1019F0002A4C02AB0020A047FEBD38B5284C207809
:101A0000002804D12749684688470120207001201A
:101A100038BD10B50B30102801D9FF2010BD184B70
:101A2000C4B22046243B9847204610BD10B50B3069
:101A3000102801D9FF2010BDC4B2114920468847A3
:101A4000204610BD072801D900207047012282409E
:101A5000134843781A4342708160012070470C4854
:101A60000068C07D70470A480F4900684118487CEB
:101A7000097C000208437047B5600000755F0000F4
:101A8000F733000076150020051B00000000F43F2E
:101A900054000020000024409D0B00103154000031
:101AA000380000209D2C000063050000FE498A7864
:101AB000002A00D008707047F8B5FB4CE3685979EC
:101AC000002914D0B121C95CC91F092958D8014681
:101AD00018461022D93001F015FC60780221012847
:101AE000E06805D04279D20611D5F0488047F8BDAC
:101AF000CA22125C012AFAD1C279012A03D1EC4927
:101B0000E9308847F8BD002AFCD1C171F8BDC2791F
:101B1000012AF8D1CA21095C012903D00021C17131
:101B2000E068ECE760690126017830468840A169E9
:101B300080250968884300D181250027DD4880473A
:101B4000E168C919E0317F1CFFB24876102FF5D348
:101B5000E0682B460146E93102460091FF31F93237
:101B60001131D54DFF305A30A847606900781428EC
:101B700002D2E068C671D3E7E1680020C871CFE700
:101B8000CA4B0622002101208C3B9847F8BDF1B5D5
:101B9000C54CA4B0E068A278417911432BD0CA218A
:101BA0000B5C2146C24FC9681C370025E931012B67
:101BB00023D006460246713609320491711E531E27
:101BC0000196BB4E02930392CA33C23200917A3619
:101BD000FF300A302499B047E16810220846D93016
:101BE000E93101F0B3FB00287ED0B04B0422002184
:101BF00001208C3B984725B0F0BD0C950D950E95B6
:101C00000F95119512951395149543790126DB06CE
:101C1000002B01DB002A68D0F930B847A24CA0782D
:101C2000002822D01DA801950090E368A34F184614
:101C30000146FF30FF31FA305A31F933249AB84760
:101C40001DA8013001F08FFB18A9097D000208438F
:101C50009B4901F02DFB042201911104994F01AB26
:101C60000020B847207800287ED0E16807220F4680
:101C700015A8093101F046FB39460722713117A832
:101C800001F040FB387A002810A86ED086767020CC
:101C9000C05D002818A869D0867004A83A46019053
:101CA000F9321046844E15ADC03017AB009546365C
:101CB0002499B047E068102204A9813001F022FB8A
:101CC00008AE0FCE19AE0FC6E16803220E4621A85A
:101CD000D33101F017FB31460322CC3122A801F0A9
:101CE00011FB3046FF3001E06EE01FE0EA30039068
:101CF00017AF21A96846A2C03146704EF93111AB29
:101D000019A86A3E249AB047E26822A91046FF301B
:101D1000DA300197009103900CAB029519A8F932C3
:101D20002499B04768490020884764E75E4A8023C9
:101D3000526914783246A2405B4CA4692468A243DD
:101D400000D1812300910146FF315A315A4CFF30B6
:101D5000FA30249AA04754481022C0680146E9315D
:101D6000D93001F0F3FA02E023E029E02AE000286C
:101D700001D004221EE04C4CE068F930B84761699C
:101D80000878401CC0B208701428CED3A169086836
:101D9000020C08A8827410A882710888020A08A898
:101DA000427410A84271097808A8017410A8017142
:101DB00034E70C223D4B002101208C3B98471AE769
:101DC000857664E7857068E7E0680026F930B847F3
:101DD000E368394F1946FF330A33363F1846F93165
:101DE000249AB847E06810230146A03106E017188E
:101DF0003246FF320A32761CBD54F6B24A7C9F1A34
:101E0000B742F4DC304900208847E068417949084E
:101E100049004171EFE6F0B50446C07885B0072867
:101E200007D2224B0622002101208C3B984705B0A7
:101E3000F0BD1D4E0121F068CB2211540025062271
:101E40002146CC3001F05EFA1120F16840010818FB
:101E5000A0314E7CC17E827F437F04920A07D20F5D
:101E6000009203934A07CF06D30FFF0F02968A070B
:101E700001970E4E920F817E407E643EB047A0785F
:101E800010260007002843DA074A1121D0684901CB
:101E90004718FB7E19073BD50121CA2211545A0766
:101EA00015D4A278520711E0480000205DA100007F
:101EB00055A900004D250000B3AA0000FFAB0000AB
:101EC00040420F0031540000F73300000ED57B7EF6
:101ED00022789D005B19FE4D5B19D55C882D02D0E0
:101EE000102D03D005E0FB4A917002E041793143A7
:101EF00041714179C90634D50B21C9014018C07D13
:101F000001282ED16421F54BF34A0520984728E09B
:101F1000F04F0021F868CA221154112149014118DB
:101F2000CA7E520702D4A278520709D5497E227888
:101F30008B00C918E64B193BC918555C102D02D10E
:101F4000417931434171E44AE44B943AE449002039
:101F500098476079C00704D0F8680322817911435B
:101F60008171607980070BD5DA481121C068490179
:101F70004118897F890703D581790C22114381712A
:101F8000207980070BD5D3481121C0684901411839
:101F9000497F890703D54179802211434171CD489A
:101FA000C1680846A0304674E278102A00D2427414
:101FB000487901221043CB4C4871202D08D0402D88
:101FC00000D034E700231A4640210020A0472EE726
:101FD00000231A462021F8E770B5BE4C0D46E36891
:101FE00000281DD020690C2181711946FF31202263
:101FF0005A31C01D01F086F9E1682069FF312022C5
:1020000027307A3101F07EF90621B74A4120904706
:102010000B21E068C9014118C97D00291DD01FE0CE
:102020001846FF302022FA3001F06CF92022AF4B25
:10203000E068A9180E46C01801F064F9E368AC4CDA
:102040001846FF309A30FF3332462946BA33A0474C
:1020500029460120FFF7C0FF70BD4079C00602D4B9
:10206000A0780128F8D19C48804770BDF0B5994C04
:102070000646E06885B04179C9072AD0FF301021B3
:102080000A3001F058F9E068320AC11DF9314E7288
:102090008A72320CCA72320E0A73CA21095C012597
:1020A000012918D00346064601460933E9365A1E6F
:1020B000713101AF4EC7491E0091C933C332893116
:1020C0008C4EFF300A30B047E068C17902292FD02A
:1020D0000BE00020ABE6A069002106606269802366
:1020E0001170E268D179022904D0E068C179002931
:1020F0002AD02AE000682946814300D18123616803
:10210000002040314E7D1718E037401CC0B27E766B
:102110001028F7D3E068774E0146E9310246009176
:10212000FF31F9321131E436FF305A30B047CBE796
:1021300070497A39E9308847E068CA21095C012989
:1021400002D00021C17100E0C57101206FE670B5B9
:102150001446604A1B25136922469D71D871000AF6
:1021600018721846093001F0CDF8E41C5E4AA0B29E
:102170000421904770BD70B51446564A1D25136959
:1021800022469D71D871000A18721846093001F074
:10219000B9F8E41C544AA0B20421904770BDF7B5C9
:1021A0004C4F5549F86800242546401801F0DBF8EB
:1021B0003A69112191718278437812021A43009B87
:1021C000411C9A4238D3019B9A4235D80379C27890
:1021D0001B021343029A93422ED10278172A35D05C
:1021E0003B690622DA714E780A78360216430622D7
:1021F0006243D3181E72360A5E724B790E791B0247
:1022000033433E69AD1D9619B3721B0AF3723E69E2
:10221000C379961933733E69037A92195373374B16
:10222000FA68EDB2D3185A7C1B7C1202641C1A4364
:10223000AB1DE4B29A4225D34A790B791102304A98
:10224000194391421ED001780818B4E7002C1BD125
:102250003B691422DA714C780E78220232431A72EA
:10226000120A5A724A790C79110221439972090AA9
:10227000D972C11D184610220C3001F043F81435F4
:10228000EDB201E0002C04D00421174AA81C9047AD
:10229000FEBD144B0A221020A43B00999847FEBDB6
:1022A000F7B50C4F1449F86800252C46401801F08A
:1022B0005AF83A69092191718278437812021A43D7
:1022C000009B411C9A4249D3019B9A4246D819E08F
:1022D0004D3A0010480000205DA10000D3330000FB
:1022E000B80B000031540000ED7F0000190200001F
:1022F000EF2A0000CFA900005D0300006305000085
:10230000FFFF00000379C2781B021343029A934235
:1023100024D10278172A2BD03B690422DA714E7837
:102320000A7836021643AA00D3181E72360A5E7265
:102330003E69C3799619B3723E69241D9219037AD6
:102340006D1CD372E4B2EDB2FE4BFA68D3185A7C1E
:102350001B7C12021A43231D9A421ED34A790B7921
:102360001102F94A1943914217D001780818A3E7DE
:10237000002D14D13B691221D97182784578110260
:1023800029431972090A5972C11D184610220A30D0
:1023900000F0B8FF1234E4B201E0002D04D00421B3
:1023A000EA4AA01C9047FEBD0A22E94B082000998A
:1023B0009847FEBDF7B5E74FE749F86800252C467A
:1023C000401800F0D0FF3A69092191718278437872
:1023D00012021A43009B411C9A423CD3019B9A4231
:1023E00039D80379C2781B021343029A934232D13F
:1023F0000278182A39D03B690722DA714E780A78B8
:1024000036021643EA00521BD3181E72360A5E7259
:102410003E6943799619B372C37986791B023343B7
:102420003E69E41D9619F3721B0A33733E69037A01
:10243000961973733E69437A92199373C14BFA6884
:10244000E4B2D3185A7C1B7C12026D1C1A43E31DA4
:10245000EDB29A4228D34A780B781102BA4A19434E
:10246000914221D001780818B0E7002D1ED13B69B8
:102470001521D97182784578110229431972090A08
:10248000597241799972C179827909021143D972DD
:10249000090A197301461846102208310D3000F060
:1024A00031FF1534E4B201E0002D04D00421A74A25
:1024B000A01C9047FEBD0A22A54B08200099984712
:1024C000FEBD30B4062912D0417C037C0A0241785B
:1024D0001A430B020478C178807809022343014330
:1024E0008B4207D9012219460820994B1FE04179F8
:1024F0000379EBE70520C002824202D0401C8242F1
:1025000002D130BC1846CBE69448824203D118462B
:102510008F4B18330BE09148401C824202D130BCF3
:10252000184647E7100A2928184602D08C4B30BCC1
:1025300018478B4BE43BFAE7F0B4002865D0854C94
:10254000487823690A780702834D174315262D1F03
:102550005A1CD81C1B2F9E7046D94B780E781B0234
:102560003343302B1AD33023037000264670CE78C5
:102570008F7836023E431671360A56710371002673
:102580004671C8798979000208431072000A5072B6
:10259000E06840190373190A417320E003701B0AB5
:1025A0004370CB788E781B02334313711B0A53712F
:1025B0004B790E791B02334303711B0A4371C879AF
:1025C0008B79000218431072000A5072487809781B
:1025D00000020843E16849190873000A4873F0BC17
:1025E0000921604A032010471B210170002343701A
:1025F000F3231371002656710171467113725672DE
:10260000E068401901733146C6E7F0BC704730B44A
:10261000002816D04F4814210069FB228170C27037
:1026200000230371504B43711C0A8471C271002254
:1026300002724372190A817209214A4A30BC03208E
:102640001047002230BC012076E7F8B5054647491F
:10265000082088473F4C0B20E168C0010818807EA5
:1026600001282DD10026374601E0042E04D2E0686F
:102670008019A030877405E03D488047E1688919DA
:10268000A0318874761CF6B2082EEED30026384F9F
:1026900001E0082E01D2002000E0B847E168891966
:1026A000A031761CF6B28876102EF2D30026B847F9
:1026B000E1688919E031761CF6B24876102EF6D31F
:1026C0000B20E168C0010918487E042802D00528C3
:1026D0001CD01DE0264F0026B847E1688919FF315C
:1026E0008131761CF6B24876202EF5D3E068214B76
:1026F0000146FF31A1310A7EFF305206520E0A76A2
:102700000A46273A47399A30984701E00820487628
:10271000E16820690E46042787700822C01CC23178
:10272000B63600F0EFFD2069042231460B3000F090
:10273000E9FD0D210B4A03209047082229460A3162
:10274000E06819E063050000FFFF0000ED7F000076
:102750008D5300004800002065030000022800009F
:102760006B430000958C0000480800005585000070
:102770004D250000C5290000BA3000F0C3FDE06817
:10278000294604221231B23000F0BCFDA068C078A6
:10279000032804D02A7AFE4E002A0AD00CE0E06812
:1027A000FC4B817D427D080210432A4608322946AF
:1027B00017E0687A002816D0E06801466030C37DD3
:1027C0009A420AD16A7A007E824206D108222846BD
:1027D000793100F0BBFD002824D006220021EE4B09
:1027E00001209847F8BDE068CA21095C01290BD097
:1027F0000246BA32FF3011460A30B047E068022282
:1028000041791143417112E04179024639434171E6
:10281000BA3211468130B047E0686030C07B012891
:1028200002D004E0E068EFE7DC4902208847DC489A
:102830008047F8BDF8B501220021DA4B08469847D9
:10284000D94C06202169D94A88700121032090477C
:10285000E068D44D417908228B0700270A3D002B00
:1028600025DA114341710026A847E16889198031B2
:102870004870A847E1688A1991218854A032761CD3
:10288000F6B25770102EEFD30026A847E1688919D9
:102890006031761CF6B24876082EF6D3A847E16878
:1028A0006031C875A847E1686031087614E0CA2332
:1028B0001B5C012B10D183795B070DD5114341714E
:1028C0000026A847E168912289195054A031761C4E
:1028D000F6B24F70102EF4D3B54903208847AF4DA0
:1028E0000820103DA847002803D0AC4908200A3131
:1028F00088470220A84701283CD10B27E168FF0147
:10290000C819407D012835D12D2040010A1853797E
:10291000002B04D0012B19D0022B25D02AE0052250
:102920000020D2018B1809E00A26464376180325B9
:10293000B61835760025401C7576C0B2DD7B854221
:10294000F2D8E1680120C919087513E061688B7835
:102950009B06DB0FD3718A78DF231A408A70E16807
:1029600008188179017205E0914B91790720914A0D
:10297000243B9847884D0220623DA8470028E06824
:10298000817D407D0FD0090201438B4A0020904792
:1029900081490220483988470420A847002801D0EF
:1029A00086488047F8BD09020143834B012200207D
:1029B000643B9847F8BD3DE710B50278411C002AFA
:1029C00011D0022A33D0032A0CD14A780B78110295
:1029D000194310295BD0082904D1021DC178104683
:1029E000FFF76FFD10BD4A780B78110219430629D5
:1029F0000BD003290CD014290ED0152911D0002991
:102A0000F0D1001DFEF764FF10BDFFF713FF10BDEE
:102A1000001DFFF71AFE10BD011D0020FFF7F7FD96
:102A200010BD021D00210846FFF786FD10BD4A7843
:102A30000B7811021943012918D003291AD004294F
:102A40001CD00C291ED00D29F0D15748C1688A79B5
:102A50005207EBD44A79D209E8D1092292018918A8
:102A600009780129E2D1C069017010BD001DFFF78E
:102A7000D2F910BD001DFFF71FF810BD001DFFF7B4
:102A800086F810BD011D0020FFF7A6FA10BD031D3A
:102A9000C078062813D0587C197C02020A43587863
:102AA000197800020843D9789B78090219438842B3
:102AB00008D901220146424B1020984710BD587991
:102AC0001979EAE7FFF76BFB10BD10B588B03D48F8
:102AD0000090401E01900024684604814481062134
:102AE00001824182672181812721C1818482C48240
:102AF000354806903549684688472B480221026AC6
:102B000013680B431360426A13680B4313604470ED
:102B10008470047008B010BDFEB5002168460170D5
:102B200001710D4601212A4E7F20B047284C0A2012
:102B30006946223CA04768460078010909016846B9
:102B40000170022001430A20B04701A90A20A047D2
:102B500068460079400704D56D1CEDB2FA2DF4D11A
:102B600008E0FA2D06D001A90A20A047684600799E
:102B70004007F8D5684601780A20B0470020401C7D
:102B800080B2FA28FBD301A90A20A047684621E0B9
:102B9000ABAA0000996F0000CB940000558500009F
:102BA000019700005725000048000020958C000088
:102BB000F7330000FB9800006D6E0000017A000002
:102BC0008D53000019800100B929001093600000A6
:102BD000A72900000079000701D40120FEBD0020D4
:102BE000FEBD10B5F949FA4CC9680028887013D0A9
:102BF00001281FD002280ED100217F20A0470021EC
:102C00000320A04720210420A04702217F20A047C5
:102C100003210020A04710BD00217F20A0470021F4
:102C20000320A04720210420A04702217F20A047A5
:102C30000021EEE700217F20A0471F210320A047AD
:102C400002217F20A04701210020A04700217F20F2
:102C5000A0473F210420DDE710B5012802D002285B
:102C60000ED01BE0487A0C7A00022043C00715D032
:102C700048790979000208431946FFF768FA10BD40
:102C8000487A0C7A00022043800707D548790979F1
:102C9000000208431946FFF76EFA10BD002010BD70
:102CA00070B5CA4C6068817EFD2211408176E06873
:102CB000C84D837F427F203041780078090201436C
:102CC0000120A847606881784906C90FE1708178C2
:102CD000BF221140817070BD10B5BC4C6068817E10
:102CE000022211438176BB48343080476068817886
:102CF000BF221140E278D207520E1143817010BDFD
:102D0000FFB51646B14A044650680D46C37881B0F7
:102D100000211B0702D5002005B0F0BD00BF491CF3
:102D200089B26429FAD34030417C8907FCD4A74892
:102D3000C1682D2040010818C07A012804D1FF2164
:102D40000531204600F0F7FAA0070127002807D137
:102D50009E482D21C26849015118897A012911D054
:102D60009A48002140680246C03213796354491CD6
:102D700089B20229F9D3217889066178298034D56E
:102D8000377034E041680846E030427B037B120232
:102D90001A43837B1B041A43920C9204A3039B0BDC
:102DA0001A430273130A4373120C82734822525C53
:102DB000C37B5206520EDB09DB011343C373027A55
:102DC000520852000272027A02231A430272E03160
:102DD000087A8007FCD4207880066078288001D5A6
:102DE000377010E0002030700DE0002131700021BC
:102DF000A41C03E013796354491C89B22B888B42CD
:102E0000F8D8C03047722888801C28806F484068F6
:102E10004030417C890702D50498077004E0407C6B
:102E2000C1070498C90F0170012075E7F0B587B09C
:102E300069480026059068460682067206730024DB
:102E40006649012088470028654803AB02AA04A907
:102E500010D0FFF755FF002810D15C484068C078BB
:102E6000C0063CD55A4B02AA04A95D48803B98474E
:102E7000012403E05B4DA847002830D0534DA868DB
:102E8000C278032A03D1A86A00780128D3D0684603
:102E9000007A012801D1002C09D0514C2178080773
:102EA000000F844605281CD0080744D07AE04E4C19
:102EB0000820A047002807D00220A047002803D1FF
:102EC0006846007B002807D06846008A474A801E73
:102ED000C1B243489047AEE745493D20884707B017
:102EE000F0BD4448E96808184279017910020843A6
:102EF000400705D5A31C222204213F4F0846B847AE
:102F00003C48E968801E0918487A097A000208439B
:102F1000400790D42F487A388047207870224006A6
:102F2000C10FE86811540622A11C713000F0EAF9C3
:102F3000A01C32492BE0E868C37D022B0FD0002390
:102F40006030477B8646012F0BD00020034329D0F9
:102F5000032A08D07046007A01281AD064E00123C1
:102F6000EEE70120F2E7059800906846008A244DBC
:102F70000838C3B24806C10FA21C6046A8471348D0
:102F8000C0686030007A0128A5D11E49A01C88477E
:102F900051E7012F03D01B49A01C884744E0A01C27
:102FA0001949FAE76046032895D0042893D1E868C8
:102FB000C37D022B2AD000236030407B012800D043
:102FC0000020034387D0032A22D02DE048000020B0
:102FD000A7290000D91B000090150020458500009E
:102FE00088150020B1270000699400003F9C000074
:102FF0006F90000083020000EF540000CB1D000022
:10300000CB6F0000155C0000995D00000123D3E741
:10301000059800906846008A984D801FC3B2480604
:10302000C10FA21C6046A84705980090019668460B
:10303000008A0838C3B2207841060007C90F000F84
:10304000A21C8F4CA047F6E670B5FFB08D4985B045
:103050000420884700280BD08A4904201A31884769
:10306000894880478949162088477FB005B070BDE0
:1030700087488047002500280FD0864CE0684179BA
:103080000A075ED58279D3071DD0834981308847EE
:10309000E0688179490849003AE0684605807C4D3E
:1030A000794E863592367D4C09E0694601A8A847DD
:1030B0000028DAD068460088C1B201A8B047A0470E
:1030C0000028F2D0D1E7930709D5734A0146793138
:1030D0001C3277309047E068FD22817908E0530781
:1030E00008D56D49603191308847E068FB228179CD
:1030F00011400DE01207F725002A0BDA027A01468B
:103100001046654A093142329047E068817929408A
:103110008171AAE729404171034677333A22102191
:103120005F4D0020A8470921E0688901411809780E
:1031300001299AD14079C00997D1E169012008702D
:1031400093E7A16A097800298FD1E16A09780129FA
:103150008BD1817D427D08021043524A0121904764
:10316000E06A057081E770B54A4E70684478447033
:103170004B4DE00706D0FFF767FF002301211A46F9
:103180000846A847A00706D5FFF750FE00230221F6
:103190001A460120A847600706D543488047002308
:1031A00004211A460120A847200707D53E48BC3015
:1031B0008047002308211A460120A847E00610D5C1
:1031C00070682030407D3149400701D53E2000E045
:1031D00008208847002310211A460120A847002014
:1031E000B070A0060CD500F027F8002320211A4665
:1031F0000120A8470023FF211A4601311846A8479D
:10320000600611D51F4901208847002807D0F068C3
:103210006030807B012802D1716807204875002347
:1032200040211A460120A847E00904D0002380214C
:103230001A460120A84770BD10B5124901208847E1
:10324000002815D01348C16860314A7B012A05D196
:10325000426860321378082423431370897B012964
:1032600006D14068017C4022114301740021417560
:103270000E48804705486238804710BDCB6F00007C
:103280007D5C0000458500000F2600006F90000067
:10329000ED340000480000207BA60000371B000032
:1032A000315400004F6E0000C18D0000498F0000B6
:1032B00030B50B46014600202022012409E00D46CE
:1032C000D5409D4205D31D469540491B2546954056
:1032D00040191546521E002DF1DC30BD70B500249A
:1032E0002546002801DA01244042002901DA01259F
:1032F0004942FFF7DDFFAC4200D04042002C00D035
:10330000494270BD03460B439B0703D009E008C93F
:10331000121F08C0042AFAD203E00B780370401C85
:10332000491C521EF9D27047D2B201E00270401C13
:10333000491EFBD270470022F6E710B513460A4635
:1033400004461946FFF7F0FF204610BD30B504468D
:103350000020034600E05B1C934203D2E05CCD5C9E
:10336000401BF8D030BD0321001D401E037812021F
:103370001A43491EF9D510467047034603220870C8
:10338000000A491C521EFAD518467047F8B5024685
:103390004A40D40F42004B0052085B089A4202D2C6
:1033A0000246084611464A0023D0C30D4A00DDB24A
:1033B000120EAD1A202D35DA49020126490AF6050A
:1033C0008A19002C00D0524220214F1B1146B940CF
:1033D0002A411018C20D9A4221D0002C17D0012D7D
:1033E00008DCDA05801AD20F8019D207DBB200F0B0
:1033F00051FAF8BDDA05801A012340001B06C018F7
:1034000080185A428018CA0F1043490007E0490843
:10341000C2071143DA05801A80194008801800F0AD
:1034200031FAF8BD61000122511A001BF7E70122B1
:10343000D2075140AAE70122D2075040A6E7000078
:10344000F0B507460846584087B0C00F04904800C2
:103450000E46590040084908BC1A884105D2384632
:1034600031461E4617460B46024658004008104398
:103470004CD0300D039040055900400D490D05908A
:10348000401A0290402872DA18030121000B090546
:103490000843019004980092002805D001995242F7
:1034A0000020884100920190029840210A1A019957
:1034B000009800F0B3F905460C466B4607CB00F0C8
:1034C000CEF9C0197141039A0E0D0023D71756404B
:1034D0001A467A40164344D0049A002A2DD0029A04
:1034E000012A039A15DC1205C01A914101263605FE
:1034F000001C7141D20F059ED207009301920296E3
:103500002A46234600F00CFA07B0F0BD3846314693
:10351000FAE71605224A0F46B218C01AB741012130
:103520000905001C4F4100187F41114618187941C8
:10353000E20F10436D19644113E0E2076D08154373
:103540006408C2071443039A01261205C01A914168
:103550003605001C7141CE07400830434908C018A9
:1035600051412A46234600F0CEF9CDE7FFE7049803
:1035700001224000C117121A00238B4104983146E2
:10358000C417381AA141EEE730B40124E4076340C0
:1035900030BC55E730B40124E407614030BC4FE74C
:1035A0000000E0FFF0B51FB488B00B990998002423
:1035B00048400999C00F490049080991C0070B9973
:1035C0000090490049080B9109990898A6460843BC
:1035D0001CD00B990A98084318D009980124400080
:1035E000420D4800410D099824050003000B2043BB
:1035F00009900B980003000B20430B9050181C49B6
:103600004018002201901446104605E000200146B3
:103610000DB0F0BD032801DA034600E003239C4609
:10362000C11A0AAE0AE05F0008ADED5B4F00F75B20
:103630007D430027AA187C41491C5B1E6145F2DDD1
:10364000410004AB5A522104120C0A43240C401CC2
:103650000828DFDB019802900099704601910090E4
:10366000059B049A0799069800F05AF9D0E70000E4
:103670000DFCFFFFF0B50C465C4085B0E40FE4079D
:1036800003944C00002664085900944649080246F9
:103690000296224321D062460A431ED06200570D93
:1036A0004A000E032303550D012402462C4924052C
:1036B000781B1B0B360B40182343264361460090B2
:1036C0001C46501AB44103D30098401C009002E0FD
:1036D000921800985B41002803DA0020014605B0EB
:1036E000F0BD0020012109050746864611E0644629
:1036F0001D46141BB54106D36546521BB3417446A3
:1037000007430C43A646CD074008490828439218B2
:103710005B4105460D43EAD11046184313D060467D
:10372000194650407140084306D06046101AB34114
:1037300006D20122002306E000220123DB0702E07B
:103740000122D2435310009874460105381C614190
:10375000029C039D0019694100F0D5F8BFE7000005
:10376000FD03000010B500229623114600F092F8E8
:1037700010BD00000EB5C217C10F5040CA07401857
:103780000021054B0293019200910A460B4600F07E
:10379000C7F803B000BD0000330400000EB50549B2
:1037A0000291002100910A460B46019100F0B8F801
:1037B00003B000BD330400004A0009030123090BD4
:1037C0001B051943094B10B5520D9A4201DA00202E
:1037D00010BD064B34339A4203DC9A1A00F02EF8DF
:1037E00010BD03495118884010BD0000FF030000C0
:1037F000CDFBFFFFC20FD207400040080BD0C10D28
:103800000723DB01C91840020905400A1143C20819
:1038100040071143704700200146704710B5202A29
:1038200004DB0146203A9140002010BD9140202346
:103830009C1A0346E3401943904010BD10B5202A5E
:1038400004DB0846203AD040002110BD0B46D3408F
:10385000D0402024A21A91400843194610BD10B54B
:10386000202A06DBCB170846203A1041C1170B432C
:1038700006E00B461341D0402024A21A9140084391
:10388000194610BD002904DA401C490001D1400846
:103890004000704770B40024050C05D110240004CA
:1038A00002D1002921D01124050E01D100020834D3
:1038B000050F01D10001241D850F01D18000A41C3A
:1038C000002801DB4000641C002908D020252E1BA5
:1038D0000D46F540A14000D00121294308430106CF
:1038E0001B1B000ADB1D02D5002070BC7047DB05E6
:1038F000181880180029F8DA401C4900F5D170BC6E
:1039000040084000704710B5002B08DA0024401C26
:10391000614192185B411A4301D14008400010BD3B
:10392000F0B51FB482B005460C0003D0084600F085
:103930005BF802E000F058F8203002460090214683
:103940002846FFF76BFF049B059A04460F46184371
:103950001143084314D0184610431BD0009840214F
:103960000A1A18460599FFF769FF05460E46009AA0
:1039700005990498FFF752FF084305D0012004E0A1
:103980002046394607B0F0BD0020C11705430E435D
:103990002C43374300990E986305401A7905E40AD1
:1039A00000220C43FD0A0A3002D500200146E9E757
:1039B0000105101969410C9C0D9D00196941FFF723
:1039C000A2FFDFE7064C0125064E05E0E36807CCC1
:1039D0002B430C3C98471034B442F7D3FCF774FBEC
:1039E000683A0010883A00102021020C01D0102102
:1039F0001046020A01D010460839020901D01046CB
:103A0000091F820801D01046891E420801D0881E75
:103A10007047081A704702E008C8121F08C1002A40
:103A2000FAD170477047002001E001C1121F002A3F
:103A3000FBD1704710104010401010401040202063
:103A400020102010101010102020401020101040C6
:103A500010401088401088202020102010101010D6
:103A60001020884010880000883A001000000020D4
:103A700078000000163A0010003B0010780000208B
:103A800018260000263A0010000000000000005038
:103A90008000005000000000601000508C100050AA
:103AA00070B0025078B0025000A0005000B000503A
:103AB00000C0005000D0005000E0005040787D0170
:103AC00000000000000000000000000000000000F6
:103AD000000000000000015008AA0220309F0220D0
:103AE000F8A60220C8810220CC810220D5800220C5
:103AF00024800220208002208F80022090800220DB
:04000005100000C126
:00000001FF
