:020000041000EA
:10000000C8140020F50C0010FD0C0010FF0C0010AF
:1000100000000000000000000000000000000000E0
:1000200000000000000000000000000009020010B5
:100030000000000000000000030D0010050D00107E
:100040000B060010070D0010070D0010070D001023
:10005000070D0010070D0010350B0010070D0010E4
:10006000070D0010070D0010070D0010070D001000
:10007000070D0010070D0010070D0010070D0010F0
:10008000070D0010070D0010070D0010070D0010E0
:10009000070D0010070D0010070D0010070D0010D0
:1000A000070D0010DF0B0010070D0010070D0010EA
:1000B000070D0010070D0010070D0010070D0010B0
:1000C0000348854601F04EF800480047370100100C
:1000D000C814002010B504465FA000F0D9FB012031
:1000E00010BD10B560A000F0D3FB012010BD10B50D
:1000F00063A000F0CDFB012010BD10B566A000F09C
:10010000C7FB012010BD10B569A000F0C1FB0120A4
:1001100010BD10B56CA000F0BBFB012010BD10B5E8
:100120006FA000F0B5FB012010BD70B504460D4670
:10013000164601DF70BD002472B60021192000F0C0
:10014000EAFA0021172000F0E6FA0021222000F050
:10015000E2FA00210A2000F0DEFA0121192000F065
:100160005AF90121172000F056F90121222000F050
:1001700052F901210A2000F04EF900210E2000F072
:10018000CAFA00210F2000F0C6FA0021102000F06A
:10019000C2FA0021112000F0BEFA00210E2000F06A
:1001A000D2F800210F2000F0CEF80021102000F03E
:1001B000CAF80021112000F0C6F80721142000F031
:1001C000AAFA0721152000F0A6FA00F05BFB49A06F
:1001D00000F05EFB62B616E021464BA000F058FB33
:1001E0004E4A21460020FFF7A0FF29464CA000F010
:1001F0004FFB052C00D30024641C0A2000F038F9C2
:100200004B4800F04DFAE7E770B506460C46154638
:10021000214648A000F03CFB230001F072F80504E1
:10022000070A0D101300FFF75CFF0EE0FFF75FFFFA
:100230000BE0FFF762FF08E0FFF765FF05E0FFF75F
:1002400068FF02E0FFF76BFF00BF00BF2046A84732
:10025000192000F00DF970BD7376635F63616C6CFB
:100260006261636B0D0A0000736F6674776172657B
:100270005F696E74657272757074300D0A000000EB
:10028000736F6674776172655F696E74657272759B
:100290007074310D0A000000736F667477617265C7
:1002A0005F696E74657272757074320D0A000000B9
:1002B000736F6674776172655F696E74657272756B
:1002C0007074330D0A000000736F66747761726595
:1002D0005F696E74657272757074340D0A00000087
:1002E000706172616D65746572206572726F7221E2
:1002F0000D0A0000535944383832312053574920F1
:10030000544553540D0A0000636C6F636B5F736F49
:10031000757263653A25780D0A000000D50000105B
:100320006572725F636F64653A25780D0A0000009C
:10033000B80B00005356433A25780D0A0000000020
:10034000D3490860704770B5024620241440630901
:1003500020251446AC430125A54028469C00CD4DE0
:100360002C592075050A6575050CA575050EE575F2
:10037000002B13D0002908D1C74D6D7D0543ECB289
:10038000C54D6D7DC44E747515E0C34D6D7D8543BF
:100390002C46C14D6D7DC04E74750CE0002905D111
:1003A000BD4C64680443BC4D6C6004E0BA4C6468A6
:1003B0008443B94D6C6070BD70B502462024144072
:1003C000630920251446AC430125A5402846002B8F
:1003D00013D0002908D0B04DED7D0543ECB2AE4DF1
:1003E000ED7DAD4EF47515E0AB4DED7D85432C46AE
:1003F000A94DED7DA84EF4750CE0002905D0A64C62
:10040000E4680443A44DEC6004E0A34CE468844336
:10041000A14DEC6070BD30B50B462024044061094D
:1004200020250446AC430125A5402A468C00994D61
:100430002C592276150A6576150CA576150EE576EB
:10044000002B0AD08C00934D2C592271150A65712E
:10045000150CA571150EE57109E08C008D4D2C5918
:100460002272150A6572150CA572150EE57230BD63
:1004700010B520230340590920240346A343012437
:100480009C4022468B00834CE3581A73140A5C7319
:10049000140C9C73140EDC7310BD10B520230340A4
:1004A000590920240346A34301249C4022468B0083
:1004B000784CE3581A71140A5C71140C9C71140E78
:1004C000DC7110BD10B520230340590920240346D8
:1004D000A34301249C4022468B006E4CE3581A72C1
:1004E000140A5C72140C9C72140EDC7210BD30B5D0
:1004F000014620200840420920240846A043012448
:10050000844023469000634C205840301024041946
:100510002578284665782D022843A5782D042843A0
:10052000E478240620431840002801D0012030BD83
:100530000020FCE7F0B503460C46154620221A4081
:10054000500920261A46B243012696403146002C17
:100550000BD182004F4EB258403211720E0A5672C1
:100560000E0C96720E0ED6720AE08200494EB258F8
:10057000403211710E0A56710E0C96710E0ED67124
:10058000002D0BD18200434EB258203211760E0A54
:1005900056760E0C96760E0ED6760AE082003D4E0A
:1005A000B258203211750E0A56750E0C96750E0E45
:1005B000D6758200374EB258203211710E0A56712C
:1005C0000E0C96710E0ED6710022002A05DBD7069E
:1005D000FF0E0126BE40314F3E6000BFF0BD10B59A
:1005E00020230340590920240346A34301249C40AF
:1005F00022468B00274CE35820331A72140A5C728F
:10060000140C9C72140EDC7210BD70B500243CE01A
:10061000A000204908584030142141180A7810469B
:100620004A78120210438A7812041043C9780906E6
:100630000843A100174A515820310A461378194639
:1006400053781B02194393781B041943D27812067E
:10065000114308400546002D00D114E00C48006805
:10066000002804D029462046094A12689047A00075
:100670000849085840300575290A4175290C8175CB
:10068000290EC17500BF601CC4B2022CC0DB70BD56
:1006900008000020000000204010005000E100E0B1
:1006A000002109E0002201E0531C9AB27D239B0146
:1006B0009A42F9DB4B1C99B28142F3DB704700216F
:1006C00007E0002201E0531C9AB2092AFBDB4B1C15
:1006D00099B28142F5DB704710B50146272901DA4E
:1006E000002902DA0020C04310BDCC07E40F202906
:1006F00004DA4A101B480068835C05E0084620388D
:10070000421018484068835C002C01D01811EBE7B8
:100710001807000FE8E770B5272801DA002800DA8B
:1007200070BD0907090FC407E40F202804DA43103D
:100730000C4E3668F21805E00646203E7310094E4E
:100740007668F2181578002C01D00F2600E0F0260C
:100750003540002C01D00E07310E2E460E43167088
:1007600000BFDDE70C00002010B50246062000287F
:1007700015DBC406E40E0123A3407F4C236000BFB9
:1007800000BF00BFBFF34F8F00BF00BF00BF00BF5F
:1007900000BF00BFBFF36F8F00BF00BF00BF00BF2F
:1007A000764800680078000900010B071B0F18430A
:1007B000724B1B681870714800680078802398435A
:1007C000D3018024234018436C4B1B6818706B487E
:1007D00000680078402398434030684B1B681870CD
:1007E00066480068C078102398431030634B1B683C
:1007F000D8706248006880780823984308305F4BBF
:100800001B6898705E48406A402318435C4B5862EE
:100810001846006A40231843594B186206200028E6
:1008200006DBC406E40E0123A340534C803C236046
:1008300000BF10BDF0B50B4601242404002112E0D6
:1008400000BF85004D4E7559ED782D07ED0F002D39
:10085000F7D1850075596D785E5C35468600474F47
:10086000BE597570491C9142EADB00E0641E8500A8
:10087000424E7559ED786D07ED0F002D01D1002C1A
:10088000F4D1F0BD10B508210020FFF76DFF10BDB9
:100890000FB438B500240498002803D138BC08BC34
:1008A00004B0184705A800903648009A049900F053
:1008B000FFFCC4B200200090802C00DD8024224682
:1008C00030490020FFF7B6FF00BFE7E70FB438B5A7
:1008D000054600240598002803D138BC08BC04B0A4
:1008E000184706A800902748009A059900F0E0FCF8
:1008F000C4B200200090802C00DD802422462149D3
:100900002846FFF797FF00BFE7E7F8B505460E4614
:1009100017460024002D02D02846FFF7B9FF002417
:100920001BE02046E117490F0918C910C900611AD8
:1009300003D1A1B214A0FFF7ABFF315D14A0FFF704
:10094000A7FF601CC117490F0918C910C900411A37
:1009500002D111A0FFF79CFF641CBC42E1DB2046E2
:10096000E117490F0918C910C900611A02D00AA07D
:10097000FFF78EFFF8BD000080E100E014000020CA
:1009800000800220280000205B253034785D2000A4
:1009900025303278200000000D0A0000002343605B
:1009A00003608260C1607047416801607047F8B5BC
:1009B00004460F46154660684019A168884219DB55
:1009C000A088281A86B26268E168881832463946DB
:1009D00000F0AAF9A81B85B22068A84202DC208892
:1009E000401E85B2B9192A46E06800F09DF965609D
:1009F0007019F8BD6268E16888182A46394600F027
:100A000093F96068401960602846F2E7024653682F
:100A1000581C5060D068C15493685068984201DBFC
:100A200000205060012070470246536810689842C9
:100A300001D1002070471368581C1060D068C05C5A
:100A4000087093681068984201DB00201060012054
:100A5000F0E701464A680868904201D101207047DA
:100A60000020FCE7014600224B680868984200DD40
:100A70008A68486880180B68C01A7047002815DB20
:100A8000C206D20E01219140944A116000BF00BFFE
:100A900000BFBFF34F8F00BF00BF00BF00BF00BF4C
:100AA00000BFBFF36F8F00BF00BF00BF704770B5BE
:100AB00004460D460620FFF7E1FF894800680078EC
:100AC000000900012907090F0843854909680870D2
:100AD00083480068007880218843E101802211402A
:100AE00008437F49096808707D4800680078402104
:100AF00088437B4909680870794800688078082134
:100B000088430830764909688870920075497648AC
:100B1000FFF744FF7548406A402108437349486223
:100B20000846006A4021084370490862062000F028
:100B3000CBF870BD70B56A4800680478302060401A
:100B400005466748006805701020204000280DD039
:100B500000BF6348006801796348FFF757FF6048AA
:100B60000068C078C007C00F0028F2D070BD70B513
:100B700004460D461920FFF781FF59484068007868
:100B8000000900012907090F084355494968087001
:100B900053484068007880218843E1018022114059
:100BA00008434F49496808704D4840680078402123
:100BB00088434B4949680870494840688078082153
:100BC0008843083046494968887092004849464839
:100BD0001030FFF7E3FE192000F076F870BD70B515
:100BE0003F48406804783020604005463C484068F3
:100BF00005701020204000280ED000BF3848406803
:100C0000017939481030FFF701FF35484068C07856
:100C1000C007C00F0028F1D070BDF0B50B4601240D
:100C20002404002112E000BF85002D4E7559ED7897
:100C30002D07ED0F002DF7D1850075596D785E5C9D
:100C400035468600264FBE597570491C9142EADB35
:100C500000E0641E8500224E7559ED786D07ED0F9A
:100C6000002D01D1002CF4D1F0BD70B504460D4625
:100C700021011D4A88182946FFF7D6FE70BD70B5C0
:100C800004460D4600BF022C01DB002070BD21018F
:100C9000154A8818FFF7DDFE00280AD12001124905
:100CA0004018C5682101104A8818FFF7DBFEC0B262
:100CB000ECE70020EAE70146012901DD002070474A
:100CC0008800074A1058FAE7002806DBC206D20E51
:100CD00001219140014A803A1160704780E100E0B3
:100CE0001C000020C8000020A80000200080022076
:100CF000C80200200448804704480047FEE7FEE79A
:100D0000FEE7FEE7FEE7FEE7190D0010C100001048
:100D10000348044908607047014802490860704769
:100D200040787D012400002003460B439B0703D03D
:100D300009E008C9121F08C0042AFAD203E00B78A0
:100D40000370401C491C521EF9D2704730B50B4647
:100D5000014600202022012409E00D46D5409D4295
:100D600005D31D469540491B25469540401915461B
:100D7000521E002DF1DC30BDF0B51FB40646002038
:100D800082B005464024019100901BE00199224663
:100D90000F46304600F008FA049A059B801A9941E4
:100DA00010D310461946224600F0EEF9361A8F414C
:100DB0000197224601200021009F00F0E5F9381834
:100DC0004D4100902046641E0028DFDC019B009806
:100DD0002946324607B0F0BDF0B5074608465840F0
:100DE00087B0C00F049048000E46590040084908DB
:100DF000BC1A884105D2384631461E4617460B4676
:100E000002465800400810434CD0300D0390400576
:100E10005900400D490D0590401A0290402872DAA1
:100E200018030121000B0905084301900498009262
:100E3000002805D00199524200208841009201907B
:100E4000029840210A1A0199009800F09DF9054680
:100E50000C466B4607CB00F0B8F9C0197141039AF4
:100E60000E0D0023D71756401A467A40164344D039
:100E7000049A002A2DD0029A012A039A15DC120541
:100E8000C01A914101263605001C7141D20F059E02
:100E9000D2070093019202962A46234600F0B5F944
:100EA00007B0F0BD38463146FAE71605224A0F462C
:100EB000B218C01AB74101210905001C4F410018A2
:100EC0007F41114618187941E20F10436D196441B2
:100ED00013E0E2076D0815436408C2071443039A40
:100EE00001261205C01A91413605001C7141CE073A
:100EF000400830434908C01851412A46234600F0B3
:100F000077F9CDE7FFE7049801224000C117121AD4
:100F100000238B4104983146C417381AA141EEE7EB
:100F200030B40124E407634030BC55E730B40124F9
:100F3000E407614030BC4FE70000E0FFF0B51FB4AC
:100F400088B00B990998002448400999C00F4900BE
:100F500049080991C0070B990090490049080B9175
:100F600009990898A64608431CD00B990A9808438B
:100F700018D0099801244000420D4800410D0998FD
:100F800024050003000B204309900B980003000B7D
:100F900020430B9050181C49401800220190144621
:100FA000104605E0002001460DB0F0BD032801DA2F
:100FB000034600E003239C46C11A0AAE0AE05F0024
:100FC00008ADED5B4F00F75B7D430027AA187C411D
:100FD000491C5B1E6145F2DD410004AB5A522104FD
:100FE000120C0A43240C401C0828DFDB01980290F5
:100FF0000099704601910090059B049A0799069804
:1010000000F003F9D0E700000DFCFFFFF0B50C463F
:101010005C4085B0E40FE40703944C0000266408AC
:1010200059009446490802460296224321D062465E
:101030000A431ED06200570D4A000E032303550DCC
:10104000012402462C492405781B1B0B360B401843
:1010500023432643614600901C46501AB44103D3F3
:101060000098401C009002E0921800985B41002814
:1010700003DA0020014605B0F0BD0020012109057A
:101080000746864611E064461D46141BB54106D34B
:101090006546521BB341744607430C43A646CD0731
:1010A00040084908284392185B4105460D43EAD1A0
:1010B0001046184313D0604619465040714008430B
:1010C00006D06046101AB34106D20122002306E082
:1010D00000220123DB0702E00122D24353100098D3
:1010E00074460105381C6141029C039D0019694149
:1010F00000F07EF8BFE70000FD0300004A0009038E
:101100000123090B1B0519430A4B10B5520D9A42D6
:1011100002DA0020014610BD064B34339A4203DC4C
:101120009A1A00F041F810BD034BD21800F02CF8C9
:1011300010BD0000FF030000CDFBFFFF10B500292C
:1011400004DB0124E40740428C412146002B04DBF0
:101150001C460123DB075242A341994200D1904231
:1011600010BD0000064C0125064E05E0E36807CCE3
:101170002B430C3C98471034B442F7D3FEF7A4FF3E
:10118000D81B0010F81B001010B5202A04DB014604
:10119000203A9140002010BD914020239C1A034624
:1011A000E3401943904010BD10B5202A04DB0846E7
:1011B000203AD040002110BD0B46D340D04020241F
:1011C000A21A91400843194610BD10B5202A06DB2B
:1011D000CB170846203A1041C1170B4306E00B46D7
:1011E0001341D0402024A21A91400843194610BD53
:1011F00010B5002B08DA0024401C614192185B41B5
:101200001A4301D14008400010BDF0B51FB482B0B0
:1012100005460C0003D0084600F05CF802E000F040
:1012200059F820300246009021462846FFF7ACFFCF
:10123000049B059A04460F4618431143084314D0F3
:10124000184610431BD0009840210A1A18460599E9
:10125000FFF7AAFF05460E46009A05990498FFF786
:1012600093FF084305D0012004E02046394607B02B
:10127000F0BD0020C11705430E432C4337430099AE
:101280000E986305401A7905E40A00220C43FD0A12
:101290000A3002D500200146E9E70105101969412D
:1012A0000C9C0D9D00196941FFF7A2FFDFE70000CC
:1012B00037B514460846064B6A46214600F0EAF860
:1012C00004466946002000F081FC20463EBD000037
:1012D000CD1B00102021020C01D010211046020A63
:1012E00001D010460839020901D01046091F8208B2
:1012F00001D01046891E420801D0881E7047081A86
:10130000704730B47446641E2578641CAB4204D325
:10131000635D5B00E31830BC18471D46F8E702E048
:1013200008C8121F08C1002AFAD170477047002070
:1013300001E001C1121F002AFBD17047F0B51FB4B4
:1013400084B007980699020D014314D04A484B49CE
:101350001018484305140F9801280E981CD0281A1D
:10136000401C0024464E47490094019102900028F9
:1013700014DA474227E00F98012443A3012808D03C
:10138000002104980F9A84600360C260416009B034
:10139000F0BD0E98C143F4E74042E2E7074612E091
:1013A000F80707D02246334601990098FFF7C6FD9B
:1013B000019100902246334610461946FFF7BEFDC4
:1013C00004460E467F10002FEAD10298019B0028A8
:1013D000009A0799069802DAFFF7B0FD01E0FFF7DF
:1013E00015FE04460E460022284BFFF7A7FE03D841
:1013F0000020C043014607E00022254B204631462D
:10140000FFF7EAFCFFF77AFE102409E0002C0ADB64
:101410000A220023FFF7B0FC059B30321A55641EE8
:1014200002460A43F2D11122641C059B121B1C19AF
:101430000F9B012B03D0012308430ED10AE0084380
:1014400004D011200E9000200F9084E70E98151AFA
:101450006D1E0BE00E98824202DD00236D1C03E03E
:10146000824201DA00236D1E002BEED004980F9902
:101470008260C16030C08AE701FCFFFF104D0000B0
:10148000000024400000F03F300000000000F04366
:101490000000E03FFFB597B00646002518E225287A
:1014A00077D100242746FD49049400E00443761CCC
:1014B00032780120203A90400842F7D130782A282B
:1014C0000ED00222307801463039092916D8049905
:1014D0000A235943303940181443761C0490F1E72D
:1014E000189802C804911890002904DA01204003DA
:1014F00004434842049002200443761C30782E288E
:1015000014D1042004437078761C2A2809D1189835
:10151000761C80C8189009E00A214F43303FC71954
:10152000761C3078014630390929F5D930786C2895
:1015300010D006DC4C281AD068280ED06A2817D1A3
:1015400004E0742813D07A2812D110E0012040055D
:1015500004430CE00121090501E0032109050C43C6
:101560007178814203D1012000052418761C761C75
:101570003078119066280BD013DC58287DD009DC18
:1015800000287BD04528F6D04628F4D047281AD129
:10159000A5E118E0632835D0642870D0652812D101
:1015A0009DE170286CD008DC6728F1D069287BD0D9
:1015B0006E280DD06F2806D1BAE073282ED075287A
:1015C00071D0782859D01A9A199990476D1C7EE1EC
:1015D0006002400F022809D003280DD00428189873
:1015E00001680DD00D60001D189070E11898EA1781
:1015F00001680D604A60F6E7189801680D80F2E70F
:101600000D70F0E718986A4601781172001D189065
:101610000020507202A80090012005E0189802C82E
:10162000189000200091C04361070DD5002101E012
:101630000199491C0191B94212DA8142F8DB009A02
:10164000515C0029F4D10BE0002101E00199491C13
:1016500001918142FADB019A0099895C0029F5D158
:10166000019904981A9B471A21463846199A00F0A6
:1016700097FA0199401945180BE04FE02CE113E06F
:101680004EE0009800990078491C00911A9A199927
:1016900090470198401E0190401CF2D121463846E7
:1016A0001A9B199A10E137E00A200021009001915D
:1016B0006002410F022907D0189A01CA1892C21776
:1016C0009446032908D00AE01898C01DC108C90033
:1016D00005C91891944607E000B2C2179446042940
:1016E00002D140B2C1178C4600226146944506DA09
:1016F0000A460021404291418C462D2102E02105FD
:1017000004D52B216A461173012103E0E10701D0C2
:101710002021F7E7029155E00A200AE0102008E0B6
:10172000102000900021042004430191082703E0C9
:1017300008200021019100906002410F022907D08A
:10174000189A01CA189200229446032908D008E08A
:101750001898C01DC108C90005C91891944603E036
:1017600080B2042900D1C0B200210291210729D5FD
:101770001199702906D0009A1021019B4A401A4302
:1017800005D00EE040216A461173012108E0614650
:10179000014306D030216A46117311995173022119
:1017A0000291009A0821019B4A401A430AD16146DE
:1017B000014301D1610705D530216A46117301212A
:1017C0007F1E02911199582904D035A10E910DA9BF
:1017D0000D910DE037A1F9E76146019B009AFFF7F3
:1017E000CBFA0E9B8C469B5C0D9A521E0D92137089
:1017F00061460143F0D10D9805A9081A20300190E7
:10180000600703D501200004844300E0012701980C
:10181000874201DD381A00E000200199009041184C
:10182000029809180498401A0490E00306D421464F
:101830001A9B199A049800F0B3F94519002706E09D
:1018400003A81A9AC05D199990476D1C7F1C0298D5
:101850008742F5DBE0030CD521461A9B199A0498C0
:1018600000F09EF9451904E01A9A30201999904722
:101870006D1C0099481E00900029F5DC08E00D98C9
:101880000D990078491C0D911A9A199990476D1C71
:101890000199481E01900029F1DC63E1092801004B
:1018A00030313233343536373839616263646566D6
:1018B0000000000030313233343536373839414298
:1018C000434445460000000000F05AF94519761CD3
:1018D0003078002800D0E2E528461BB0F0BD600754
:1018E00000D406271898C01DC108C90048680A68B6
:1018F0000831C30FDB071891190001D09CA108E043
:10190000210501D59BA104E0E10701D09AA100E0E7
:101910009AA1430011985B08109165280CD006DC51
:10192000452809D046281DD0472841D141E06628E6
:1019300018D067283CD13CE00021112F01DB112099
:1019400000E0781C0191009008A911A8FFF7F6FCAF
:10195000139905910021119A15927F1C12980197F5
:10196000009150E00120C00703900120019008A9D8
:10197000009711A8FFF7E2FC139A14990592002230
:10198000119B009212981593059A0192002901D09B
:10199000104602E0791C40180190381A01D50198D0
:1019A00004E04042401E0090781C0190C01B029051
:1019B00043E0012F00DA01270021112F01DD112062
:1019C00000E038460191009008A911A8FFF7B6FC85
:1019D00013990591119A002112981592009101977F
:1019E00021070CD40599B94201DB019900E001916E
:1019F000012904DD159A491E515C302906D0B842F0
:101A000001DA011D05DA0121029115E00199491E53
:101A1000EDE7002805DC0099411800910199091AA9
:101A200003E0019A411C914200DD01910099401AA6
:101A3000401C02900120C0070390200706D40299A1
:101A40000198814202DB0020C043029000206946D9
:101A5000C87707AF012103980337C907884224D00C
:101A6000022011902B201290039800280CDA40429B
:101A700003902D20129007E00A210398FFF766F9E2
:101A800030317F1E039039701199481E1190002942
:101A9000F2DC03980028EFD1791E12980870307894
:101AA000202108404530BF1E387006A8C01BC01D4D
:101AB000039010980078002800D001200199411867
:101AC0000298C0170918039809180498401A401E74
:101AD0000490E00306D421461A9B199A049800F05A
:101AE0005FF8451910980078002803D01A9A1999C0
:101AF00090476D1CE00324D521461A9B199A04983F
:101B000000F04EF845191CE00098002807DB00990A
:101B10000598884203DD1598405C199901E01999F0
:101B200030201A9A904700986D1C401C0090029833
:101B3000401E0290002804D11A9A2E20199990472D
:101B40006D1C0199481E01900029DDDC05E0387804
:101B50001A9A7F1C199990476D1C0399481E03908F
:101B60000029F4DC21461A9B199A0498ACE600007F
:101B70002D0000002B0000002000000000000000ED
:101B8000F8B5044600251E461746880404D405E02F
:101B900039462020B0476D1C641EF9D52846F8BD93
:101BA000FFB50446002581B01E46C80301D5302785
:101BB00000E02027880404D505E038460399B047A3
:101BC0006D1C641EF9D5284605B0F0BD0A68531C8B
:101BD0000B60107070470000F81B00100000002020
:101BE000280000001E130010201C001028000020F8
:101BF000A01400002E1300100000005080000050C0
:101C000000000000601000508C10005070B00250B6
:101C100078B0025070B0025078B0025040787D0128
:04000005100000C126
:00000001FF
