Component: ARM Compiler 5.06 (build 20) Tool: armlink [4d35a3]

==============================================================================

Section Cross References

    main.o(.text) refers to main.o(.text) for gap_s_adv_parameters_set
    main.o(.text) refers to debug.o(.text) for dbg_printf
    main.o(.text) refers to ota.o(.text) for ota_rsp
    main.o(.text) refers to uread4.o(.text) for __aeabi_uread4
    main.o(.text) refers to rt_memcpy.o(.text) for __aeabi_memcpy
    main.o(.text) refers to main.o(.data) for dev_addr
    main.o(.text) refers to ota.o(.data) for ota_state
    main.o(.text) refers to main.o(i.__ARM_common_switch8) for __ARM_common_switch8
    main.o(.text) refers to uwrite4.o(.text) for __aeabi_uwrite4
    main.o(.text) refers to pad_mux_ctrl.o(.text) for pad_mux_write
    main.o(.text) refers to gpio.o(.text) for gpo_config
    main.o(.text) refers to uart_drive.o(.text) for uart_1_init
    main.o(.text) refers to rt_memclr.o(.text) for __aeabi_memclr
    main.o(.text) refers to uart_ota.o(.text) for uart_slave_ota_handle
    main.o(.text) refers to delay.o(.text) for delay_ms
    main.o(.text) refers to main.o(.constdata) for _gatt_database_report_handle
    main.o(.text) refers to uart_drive.o(.data) for UART_CTRL
    main.o(.text) refers to uart_drive.o(.bss) for uart_rx_buff
==============================================================================

Removing Unused input sections from the image.

    Removing main.o(.rev16_text), (4 bytes).
    Removing main.o(.revsh_text), (4 bytes).
    Removing main.o(.bss), (20 bytes).
    Removing uart_ota.o(.rev16_text), (4 bytes).
    Removing uart_ota.o(.revsh_text), (4 bytes).
    Removing uart_drive.o(.rev16_text), (4 bytes).
    Removing uart_drive.o(.revsh_text), (4 bytes).
    Removing gpio.o(.rev16_text), (4 bytes).
    Removing gpio.o(.revsh_text), (4 bytes).
    Removing delay.o(.rev16_text), (4 bytes).
    Removing delay.o(.revsh_text), (4 bytes).
    Removing pad_mux_ctrl.o(.rev16_text), (4 bytes).
    Removing pad_mux_ctrl.o(.revsh_text), (4 bytes).
    Removing debug.o(.rev16_text), (4 bytes).
    Removing debug.o(.revsh_text), (4 bytes).
    Removing queue.o(.rev16_text), (4 bytes).
    Removing queue.o(.revsh_text), (4 bytes).
    Removing queue.o(.text), (226 bytes).
==============================================================================

Image Symbol Table

    Local Symbols

    Symbol Name                              Value     Ov Type        Size  Object(Section)

    ../clib/angel/boardlib.s                 0x00000000   Number         0  boardinit2.o ABSOLUTE
    ../clib/angel/boardlib.s                 0x00000000   Number         0  boardinit3.o ABSOLUTE
    ../clib/angel/boardlib.s                 0x00000000   Number         0  boardinit1.o ABSOLUTE
    ../clib/angel/boardlib.s                 0x00000000   Number         0  boardshut.o ABSOLUTE
    ../clib/angel/handlers.s                 0x00000000   Number         0  __scatter_zi.o ABSOLUTE
    ../clib/angel/handlers.s                 0x00000000   Number         0  __scatter_copy.o ABSOLUTE
    ../clib/angel/kernel.s                   0x00000000   Number         0  __rtentry4.o ABSOLUTE
    ../clib/angel/kernel.s                   0x00000000   Number         0  __rtentry2.o ABSOLUTE
    ../clib/angel/kernel.s                   0x00000000   Number         0  rtexit2.o ABSOLUTE
    ../clib/angel/kernel.s                   0x00000000   Number         0  __rtentry.o ABSOLUTE
    ../clib/angel/kernel.s                   0x00000000   Number         0  rtexit.o ABSOLUTE
    ../clib/angel/rt.s                       0x00000000   Number         0  rt_locale.o ABSOLUTE
    ../clib/angel/rt.s                       0x00000000   Number         0  rt_div0.o ABSOLUTE
    ../clib/angel/rt.s                       0x00000000   Number         0  rt_locale_intlibspace.o ABSOLUTE
    ../clib/angel/rt.s                       0x00000000   Number         0  aeabi_idiv0.o ABSOLUTE
    ../clib/angel/rt.s                       0x00000000   Number         0  aeabi_idiv0_sigfpe.o ABSOLUTE
    ../clib/angel/rt.s                       0x00000000   Number         0  rt_raise.o ABSOLUTE
    ../clib/angel/rt.s                       0x00000000   Number         0  rt_ctype_table.o ABSOLUTE
    ../clib/angel/scatterp.s                 0x00000000   Number         0  __scatter.o ABSOLUTE
    ../clib/angel/startup.s                  0x00000000   Number         0  __main.o ABSOLUTE
    ../clib/angel/sys.s                      0x00000000   Number         0  use_no_semi.o ABSOLUTE
    ../clib/angel/sys.s                      0x00000000   Number         0  libspace.o ABSOLUTE
    ../clib/angel/sys.s                      0x00000000   Number         0  tempstk.o ABSOLUTE
    ../clib/angel/sys.s                      0x00000000   Number         0  indicate_semi.o ABSOLUTE
    ../clib/angel/sys.s                      0x00000000   Number         0  sys_stackheap_outer.o ABSOLUTE
    ../clib/angel/sysapp.c                   0x00000000   Number         0  sys_exit.o ABSOLUTE
    ../clib/angel/sysapp.c                   0x00000000   Number         0  sys_wrch.o ABSOLUTE
    ../clib/angel/sysapp.c                   0x00000000   Number         0  sys_command.o ABSOLUTE
    ../clib/armsys.c                         0x00000000   Number         0  argv_veneer.o ABSOLUTE
    ../clib/armsys.c                         0x00000000   Number         0  no_argv.o ABSOLUTE
    ../clib/armsys.c                         0x00000000   Number         0  _get_argv_nomalloc.o ABSOLUTE
    ../clib/bigflt.c                         0x00000000   Number         0  bigflt0.o ABSOLUTE
    ../clib/btod.c                           0x00000000   Number         0  btod.o ABSOLUTE
    ../clib/division.c                       0x00000000   Number         0  lludiv10.o ABSOLUTE
    ../clib/division.c                       0x00000000   Number         0  rtudiv10.o ABSOLUTE
    ../clib/division.s                       0x00000000   Number         0  aeabi_sdiv_div0.o ABSOLUTE
    ../clib/division.s                       0x00000000   Number         0  aeabi_sdiv.o ABSOLUTE
    ../clib/heapalloc.c                      0x00000000   Number         0  hrguard.o ABSOLUTE
    ../clib/heapaux.c                        0x00000000   Number         0  heapauxi.o ABSOLUTE
    ../clib/libinit.s                        0x00000000   Number         0  libshutdown.o ABSOLUTE
    ../clib/libinit.s                        0x00000000   Number         0  libshutdown2.o ABSOLUTE
    ../clib/libinit.s                        0x00000000   Number         0  libinit2.o ABSOLUTE
    ../clib/libinit.s                        0x00000000   Number         0  libinit.o ABSOLUTE
    ../clib/locale.c                         0x00000000   Number         0  _wcrtomb.o ABSOLUTE
    ../clib/locale.s                         0x00000000   Number         0  lc_ctype_c.o ABSOLUTE
    ../clib/locale.s                         0x00000000   Number         0  lc_numeric_c.o ABSOLUTE
    ../clib/memcpset.c                       0x00000000   Number         0  rt_memclr.o ABSOLUTE
    ../clib/memcpset.c                       0x00000000   Number         0  rt_memcpy.o ABSOLUTE
    ../clib/memcpset.c                       0x00000000   Number         0  rt_memcpy.o ABSOLUTE
    ../clib/misc.s                           0x00000000   Number         0  printf_stubs.o ABSOLUTE
    ../clib/printf.c                         0x00000000   Number         0  _printf_longlong_dec.o ABSOLUTE
    ../clib/printf.c                         0x00000000   Number         0  _sputc.o ABSOLUTE
    ../clib/printf.c                         0x00000000   Number         0  __printf_flags_ss_wp.o ABSOLUTE
    ../clib/printf.c                         0x00000000   Number         0  _printf_oct_ll.o ABSOLUTE
    ../clib/printf.c                         0x00000000   Number         0  __printf_ss_wp.o ABSOLUTE
    ../clib/printf.c                         0x00000000   Number         0  _printf_oct_int.o ABSOLUTE
    ../clib/printf.c                         0x00000000   Number         0  __printf_flags_ss.o ABSOLUTE
    ../clib/printf.c                         0x00000000   Number         0  _printf_char_common.o ABSOLUTE
    ../clib/printf.c                         0x00000000   Number         0  _printf_oct_int_ll.o ABSOLUTE
    ../clib/printf.c                         0x00000000   Number         0  _printf_charcount.o ABSOLUTE
    ../clib/printf.c                         0x00000000   Number         0  _printf_wctomb.o ABSOLUTE
    ../clib/printf.c                         0x00000000   Number         0  _printf_hex_ll.o ABSOLUTE
    ../clib/printf.c                         0x00000000   Number         0  __printf.o ABSOLUTE
    ../clib/printf.c                         0x00000000   Number         0  __printf_flags_wp.o ABSOLUTE
    ../clib/printf.c                         0x00000000   Number         0  __printf_ss.o ABSOLUTE
    ../clib/printf.c                         0x00000000   Number         0  c89vsprintf.o ABSOLUTE
    ../clib/printf.c                         0x00000000   Number         0  __printf_flags.o ABSOLUTE
    ../clib/printf.c                         0x00000000   Number         0  _printf_hex_int_ptr.o ABSOLUTE
    ../clib/printf.c                         0x00000000   Number         0  _printf_dec.o ABSOLUTE
    ../clib/printf.c                         0x00000000   Number         0  _printf_hex_int.o ABSOLUTE
    ../clib/printf.c                         0x00000000   Number         0  __printf_wp.o ABSOLUTE
    ../clib/printf.c                         0x00000000   Number         0  _printf_hex_int_ll_ptr.o ABSOLUTE
    ../clib/printf.c                         0x00000000   Number         0  _printf_fp_infnan.o ABSOLUTE
    ../clib/printf.c                         0x00000000   Number         0  _printf_truncate.o ABSOLUTE
    ../clib/printf.c                         0x00000000   Number         0  _printf_hex_ll_ptr.o ABSOLUTE
    ../clib/printf.c                         0x00000000   Number         0  _printf_str.o ABSOLUTE
    ../clib/printf.c                         0x00000000   Number         0  _printf_hex_int_ll.o ABSOLUTE
    ../clib/printf.c                         0x00000000   Number         0  _printf_hex_ptr.o ABSOLUTE
    ../clib/printf.c                         0x00000000   Number         0  _printf_pad.o ABSOLUTE
    ../clib/printf.c                         0x00000000   Number         0  _printf_wchar.o ABSOLUTE
    ../clib/printf.c                         0x00000000   Number         0  _printf_char.o ABSOLUTE
    ../clib/printf.c                         0x00000000   Number         0  __printf_nopercent.o ABSOLUTE
    ../clib/printf.c                         0x00000000   Number         0  _printf_fp_dec.o ABSOLUTE
    ../clib/printf.c                         0x00000000   Number         0  _printf_intcommon.o ABSOLUTE
    ../clib/printf_percent.s                 0x00000000   Number         0  _printf_ls.o ABSOLUTE
    ../clib/printf_percent.s                 0x00000000   Number         0  _printf_lc.o ABSOLUTE
    ../clib/printf_percent.s                 0x00000000   Number         0  _printf_l.o ABSOLUTE
    ../clib/printf_percent.s                 0x00000000   Number         0  _printf_ll.o ABSOLUTE
    ../clib/printf_percent.s                 0x00000000   Number         0  _printf_llu.o ABSOLUTE
    ../clib/printf_percent.s                 0x00000000   Number         0  _printf_lld.o ABSOLUTE
    ../clib/printf_percent.s                 0x00000000   Number         0  _printf_lli.o ABSOLUTE
    ../clib/printf_percent.s                 0x00000000   Number         0  _printf_percent.o ABSOLUTE
    ../clib/printf_percent.s                 0x00000000   Number         0  _printf_a.o ABSOLUTE
    ../clib/printf_percent.s                 0x00000000   Number         0  _printf_g.o ABSOLUTE
    ../clib/printf_percent.s                 0x00000000   Number         0  _printf_e.o ABSOLUTE
    ../clib/printf_percent.s                 0x00000000   Number         0  _printf_f.o ABSOLUTE
    ../clib/printf_percent.s                 0x00000000   Number         0  _printf_u.o ABSOLUTE
    ../clib/printf_percent.s                 0x00000000   Number         0  _printf_d.o ABSOLUTE
    ../clib/printf_percent.s                 0x00000000   Number         0  _printf_i.o ABSOLUTE
    ../clib/printf_percent.s                 0x00000000   Number         0  _printf_o.o ABSOLUTE
    ../clib/printf_percent.s                 0x00000000   Number         0  _printf_p.o ABSOLUTE
    ../clib/printf_percent.s                 0x00000000   Number         0  _printf_n.o ABSOLUTE
    ../clib/printf_percent.s                 0x00000000   Number         0  _printf_percent_end.o ABSOLUTE
    ../clib/printf_percent.s                 0x00000000   Number         0  _printf_s.o ABSOLUTE
    ../clib/printf_percent.s                 0x00000000   Number         0  _printf_c.o ABSOLUTE
    ../clib/printf_percent.s                 0x00000000   Number         0  _printf_x.o ABSOLUTE
    ../clib/printf_percent.s                 0x00000000   Number         0  _printf_llx.o ABSOLUTE
    ../clib/printf_percent.s                 0x00000000   Number         0  _printf_llo.o ABSOLUTE
    ../clib/signal.c                         0x00000000   Number         0  defsig_rtmem_outer.o ABSOLUTE
    ../clib/signal.c                         0x00000000   Number         0  defsig_rtmem_inner.o ABSOLUTE
    ../clib/signal.c                         0x00000000   Number         0  defsig_rtred_inner.o ABSOLUTE
    ../clib/signal.c                         0x00000000   Number         0  defsig_abrt_inner.o ABSOLUTE
    ../clib/signal.c                         0x00000000   Number         0  defsig_fpe_formal.o ABSOLUTE
    ../clib/signal.c                         0x00000000   Number         0  defsig_rtmem_formal.o ABSOLUTE
    ../clib/signal.c                         0x00000000   Number         0  defsig_stak_inner.o ABSOLUTE
    ../clib/signal.c                         0x00000000   Number         0  defsig_pvfn_inner.o ABSOLUTE
    ../clib/signal.c                         0x00000000   Number         0  defsig_cppl_inner.o ABSOLUTE
    ../clib/signal.c                         0x00000000   Number         0  defsig_segv_inner.o ABSOLUTE
    ../clib/signal.c                         0x00000000   Number         0  defsig_general.o ABSOLUTE
    ../clib/signal.c                         0x00000000   Number         0  __raise.o ABSOLUTE
    ../clib/signal.c                         0x00000000   Number         0  defsig_other.o ABSOLUTE
    ../clib/signal.c                         0x00000000   Number         0  defsig_fpe_inner.o ABSOLUTE
    ../clib/signal.c                         0x00000000   Number         0  defsig_exit.o ABSOLUTE
    ../clib/signal.c                         0x00000000   Number         0  defsig_fpe_outer.o ABSOLUTE
    ../clib/signal.s                         0x00000000   Number         0  defsig.o ABSOLUTE
    ../clib/stdlib.c                         0x00000000   Number         0  exit.o ABSOLUTE
    ../clib/string.c                         0x00000000   Number         0  memcmp.o ABSOLUTE
    ../clib/string.c                         0x00000000   Number         0  strcmp.o ABSOLUTE
    ../clib/unhosted.c                       0x00000000   Number         0  uwrite4.o ABSOLUTE
    ../clib/unhosted.c                       0x00000000   Number         0  uread4.o ABSOLUTE
    ../fplib/cfplib/daddsub.c                0x00000000   Number         0  daddsub.o ABSOLUTE
    ../fplib/cfplib/ddiv.c                   0x00000000   Number         0  ddiv.o ABSOLUTE
    ../fplib/cfplib/dmul.c                   0x00000000   Number         0  dmul.o ABSOLUTE
    ../fplib/cfplib/f2d.c                    0x00000000   Number         0  f2d.o ABSOLUTE
    ../fplib/cfplib/ffix.c                   0x00000000   Number         0  dfixui.o ABSOLUTE
    ../fplib/cfplib/fflt.c                   0x00000000   Number         0  dflti.o ABSOLUTE
    ../fplib/cfplib/fflt.c                   0x00000000   Number         0  fflti.o ABSOLUTE
    ../fplib/cfplib/fpinit.c                 0x00000000   Number         0  fpinit.o ABSOLUTE
    ../fplib/cfplib/ieee_status.c            0x00000000   Number         0  ieee_status.o ABSOLUTE
    ../fplib/faddsub6m.s                     0x00000000   Number         0  faddsub.o ABSOLUTE
    ../fplib/printf1.s                       0x00000000   Number         0  printf1.o ABSOLUTE
    ../fplib/usenofp.s                       0x00000000   Number         0  usenofp.o ABSOLUTE
    ../mathlib/fpclassify.c                  0x00000000   Number         0  fpclassify.o ABSOLUTE
    ..\..\..\BLE\ota.c                       0x00000000   Number         0  ota.o ABSOLUTE
    ..\..\..\Rtt\SEGGER_RTT.c                0x00000000   Number         0  segger_rtt.o ABSOLUTE
    ..\..\..\Rtt\SEGGER_RTT_Syscalls_KEIL.c  0x00000000   Number         0  segger_rtt_syscalls_keil.o ABSOLUTE
    ..\..\..\Rtt\SEGGER_RTT_printf.c         0x00000000   Number         0  segger_rtt_printf.o ABSOLUTE
    ..\..\..\Source\debug.c                  0x00000000   Number         0  debug.o ABSOLUTE
    ..\..\..\Source\delay.c                  0x00000000   Number         0  delay.o ABSOLUTE
    ..\..\..\Source\gpio.c                   0x00000000   Number         0  gpio.o ABSOLUTE
    ..\..\..\Source\pad_mux_ctrl.c           0x00000000   Number         0  pad_mux_ctrl.o ABSOLUTE
    ..\..\..\Source\queue.c                  0x00000000   Number         0  queue.o ABSOLUTE
    ..\..\..\Source\timer.c                  0x00000000   Number         0  timer.o ABSOLUTE
    ..\\..\\..\\BLE\\ota.c                   0x00000000   Number         0  ota.o ABSOLUTE
    ..\\..\\..\\Rtt\\SEGGER_RTT.c            0x00000000   Number         0  segger_rtt.o ABSOLUTE
    ..\\..\\..\\Rtt\\SEGGER_RTT_Syscalls_KEIL.c 0x00000000   Number         0  segger_rtt_syscalls_keil.o ABSOLUTE
    ..\\..\\..\\Rtt\\SEGGER_RTT_printf.c     0x00000000   Number         0  segger_rtt_printf.o ABSOLUTE
    ..\\..\\..\\Source\\debug.c              0x00000000   Number         0  debug.o ABSOLUTE
    ..\\..\\..\\Source\\delay.c              0x00000000   Number         0  delay.o ABSOLUTE
    ..\\..\\..\\Source\\gpio.c               0x00000000   Number         0  gpio.o ABSOLUTE
    ..\\..\\..\\Source\\pad_mux_ctrl.c       0x00000000   Number         0  pad_mux_ctrl.o ABSOLUTE
    ..\\..\\..\\Source\\queue.c              0x00000000   Number         0  queue.o ABSOLUTE
    ..\\..\\..\\Source\\timer.c              0x00000000   Number         0  timer.o ABSOLUTE
    ..\\main.c                               0x00000000   Number         0  main.o ABSOLUTE
    ..\\uart_drive.c                         0x00000000   Number         0  uart_drive.o ABSOLUTE
    ..\\uart_ota.c                           0x00000000   Number         0  uart_ota.o ABSOLUTE
    ..\main.c                                0x00000000   Number         0  main.o ABSOLUTE
    ..\uart_drive.c                          0x00000000   Number         0  uart_drive.o ABSOLUTE
    ..\uart_ota.c                            0x00000000   Number         0  uart_ota.o ABSOLUTE
    Driver\\aec-ccm.c                        0x00000000   Number         0  aec-ccm.o ABSOLUTE
    Driver\aec-ccm.c                         0x00000000   Number         0  aec-ccm.o ABSOLUTE
    Driver\aes.c                             0x00000000   Number         0  aes.o ABSOLUTE
    Main\\main.c                             0x00000000   Number         0  main.o ABSOLUTE
    Main\\pmu.c                              0x00000000   Number         0  pmu.o ABSOLUTE
    Main\\rom.c                              0x00000000   Number         0  rom.o ABSOLUTE
    Main\main.c                              0x00000000   Number         0  main.o ABSOLUTE
    Main\pmu.c                               0x00000000   Number         0  pmu.o ABSOLUTE
    Main\rom.c                               0x00000000   Number         0  rom.o ABSOLUTE
    RTE\Device\ARMCM0\startup_ARMCM0.s       0x00000000   Number         0  startup_armcm0.o ABSOLUTE
    RTE\Device\ARMCM0\system_ARMCM0.c        0x00000000   Number         0  system_armcm0.o ABSOLUTE
    RTE\\Device\\ARMCM0\\system_ARMCM0.c     0x00000000   Number         0  system_armcm0.o ABSOLUTE
    dc.s                                     0x00000000   Number         0  dc.o ABSOLUTE
    RESET                                    0x10000000   Section      192  startup_armcm0.o(RESET)
    !!!main                                  0x100000c0   Section        8  __main.o(!!!main)
    !!!scatter                               0x100000c8   Section       60  __scatter.o(!!!scatter)
    !!handler_copy                           0x10000104   Section       26  __scatter_copy.o(!!handler_copy)
    !!handler_zi                             0x10000120   Section       28  __scatter_zi.o(!!handler_zi)
    .ARM.Collect$$_printf_percent$$00000000  0x1000013c   Section        2  _printf_percent.o(.ARM.Collect$$_printf_percent$$00000000)
    .ARM.Collect$$_printf_percent$$00000001  0x1000013e   Section       10  _printf_n.o(.ARM.Collect$$_printf_percent$$00000001)
    .ARM.Collect$$_printf_percent$$00000002  0x10000148   Section       10  _printf_p.o(.ARM.Collect$$_printf_percent$$00000002)
    .ARM.Collect$$_printf_percent$$00000003  0x10000152   Section       10  _printf_f.o(.ARM.Collect$$_printf_percent$$00000003)
    .ARM.Collect$$_printf_percent$$00000004  0x1000015c   Section       10  _printf_e.o(.ARM.Collect$$_printf_percent$$00000004)
    .ARM.Collect$$_printf_percent$$00000005  0x10000166   Section       10  _printf_g.o(.ARM.Collect$$_printf_percent$$00000005)
    .ARM.Collect$$_printf_percent$$00000006  0x10000170   Section       10  _printf_a.o(.ARM.Collect$$_printf_percent$$00000006)
    .ARM.Collect$$_printf_percent$$00000007  0x1000017a   Section       10  _printf_ll.o(.ARM.Collect$$_printf_percent$$00000007)
    .ARM.Collect$$_printf_percent$$00000008  0x10000184   Section       10  _printf_i.o(.ARM.Collect$$_printf_percent$$00000008)
    .ARM.Collect$$_printf_percent$$00000009  0x1000018e   Section       10  _printf_d.o(.ARM.Collect$$_printf_percent$$00000009)
    .ARM.Collect$$_printf_percent$$0000000A  0x10000198   Section       10  _printf_u.o(.ARM.Collect$$_printf_percent$$0000000A)
    .ARM.Collect$$_printf_percent$$0000000B  0x100001a2   Section       10  _printf_o.o(.ARM.Collect$$_printf_percent$$0000000B)
    .ARM.Collect$$_printf_percent$$0000000C  0x100001ac   Section       10  _printf_x.o(.ARM.Collect$$_printf_percent$$0000000C)
    .ARM.Collect$$_printf_percent$$0000000D  0x100001b6   Section       10  _printf_lli.o(.ARM.Collect$$_printf_percent$$0000000D)
    .ARM.Collect$$_printf_percent$$0000000E  0x100001c0   Section       10  _printf_lld.o(.ARM.Collect$$_printf_percent$$0000000E)
    .ARM.Collect$$_printf_percent$$0000000F  0x100001ca   Section       10  _printf_llu.o(.ARM.Collect$$_printf_percent$$0000000F)
    .ARM.Collect$$_printf_percent$$00000010  0x100001d4   Section       10  _printf_llo.o(.ARM.Collect$$_printf_percent$$00000010)
    .ARM.Collect$$_printf_percent$$00000011  0x100001de   Section       10  _printf_llx.o(.ARM.Collect$$_printf_percent$$00000011)
    .ARM.Collect$$_printf_percent$$00000012  0x100001e8   Section       10  _printf_l.o(.ARM.Collect$$_printf_percent$$00000012)
    .ARM.Collect$$_printf_percent$$00000013  0x100001f2   Section       10  _printf_c.o(.ARM.Collect$$_printf_percent$$00000013)
    .ARM.Collect$$_printf_percent$$00000014  0x100001fc   Section       10  _printf_s.o(.ARM.Collect$$_printf_percent$$00000014)
    .ARM.Collect$$_printf_percent$$00000015  0x10000206   Section       10  _printf_lc.o(.ARM.Collect$$_printf_percent$$00000015)
    .ARM.Collect$$_printf_percent$$00000016  0x10000210   Section       10  _printf_ls.o(.ARM.Collect$$_printf_percent$$00000016)
    .ARM.Collect$$_printf_percent$$00000017  0x1000021a   Section        4  _printf_percent_end.o(.ARM.Collect$$_printf_percent$$00000017)
    .ARM.Collect$$libinit$$00000000          0x1000021e   Section        2  libinit.o(.ARM.Collect$$libinit$$00000000)
    .ARM.Collect$$libinit$$00000002          0x10000220   Section        0  libinit2.o(.ARM.Collect$$libinit$$00000002)
    .ARM.Collect$$libinit$$00000004          0x10000220   Section        0  libinit2.o(.ARM.Collect$$libinit$$00000004)
    .ARM.Collect$$libinit$$0000000A          0x10000220   Section        0  libinit2.o(.ARM.Collect$$libinit$$0000000A)
    .ARM.Collect$$libinit$$0000000C          0x10000220   Section        0  libinit2.o(.ARM.Collect$$libinit$$0000000C)
    .ARM.Collect$$libinit$$0000000E          0x10000220   Section        0  libinit2.o(.ARM.Collect$$libinit$$0000000E)
    .ARM.Collect$$libinit$$0000000F          0x10000220   Section        6  libinit2.o(.ARM.Collect$$libinit$$0000000F)
    .ARM.Collect$$libinit$$00000011          0x10000226   Section        0  libinit2.o(.ARM.Collect$$libinit$$00000011)
    .ARM.Collect$$libinit$$00000012          0x10000226   Section       12  libinit2.o(.ARM.Collect$$libinit$$00000012)
    .ARM.Collect$$libinit$$00000013          0x10000232   Section        0  libinit2.o(.ARM.Collect$$libinit$$00000013)
    .ARM.Collect$$libinit$$00000015          0x10000232   Section        0  libinit2.o(.ARM.Collect$$libinit$$00000015)
    .ARM.Collect$$libinit$$00000016          0x10000232   Section       10  libinit2.o(.ARM.Collect$$libinit$$00000016)
    .ARM.Collect$$libinit$$00000017          0x1000023c   Section        0  libinit2.o(.ARM.Collect$$libinit$$00000017)
    .ARM.Collect$$libinit$$00000019          0x1000023c   Section        0  libinit2.o(.ARM.Collect$$libinit$$00000019)
    .ARM.Collect$$libinit$$0000001B          0x1000023c   Section        0  libinit2.o(.ARM.Collect$$libinit$$0000001B)
    .ARM.Collect$$libinit$$0000001D          0x1000023c   Section        0  libinit2.o(.ARM.Collect$$libinit$$0000001D)
    .ARM.Collect$$libinit$$0000001F          0x1000023c   Section        0  libinit2.o(.ARM.Collect$$libinit$$0000001F)
    .ARM.Collect$$libinit$$00000021          0x1000023c   Section        0  libinit2.o(.ARM.Collect$$libinit$$00000021)
    .ARM.Collect$$libinit$$00000023          0x1000023c   Section        0  libinit2.o(.ARM.Collect$$libinit$$00000023)
    .ARM.Collect$$libinit$$00000025          0x1000023c   Section        0  libinit2.o(.ARM.Collect$$libinit$$00000025)
    .ARM.Collect$$libinit$$0000002C          0x1000023c   Section        0  libinit2.o(.ARM.Collect$$libinit$$0000002C)
    .ARM.Collect$$libinit$$0000002E          0x1000023c   Section        0  libinit2.o(.ARM.Collect$$libinit$$0000002E)
    .ARM.Collect$$libinit$$00000030          0x1000023c   Section        0  libinit2.o(.ARM.Collect$$libinit$$00000030)
    .ARM.Collect$$libinit$$00000032          0x1000023c   Section        0  libinit2.o(.ARM.Collect$$libinit$$00000032)
    .ARM.Collect$$libinit$$00000033          0x1000023c   Section        2  libinit2.o(.ARM.Collect$$libinit$$00000033)
    .ARM.Collect$$libshutdown$$00000000      0x1000023e   Section        2  libshutdown.o(.ARM.Collect$$libshutdown$$00000000)
    .ARM.Collect$$libshutdown$$00000002      0x10000240   Section        0  libshutdown2.o(.ARM.Collect$$libshutdown$$00000002)
    .ARM.Collect$$libshutdown$$00000004      0x10000240   Section        0  libshutdown2.o(.ARM.Collect$$libshutdown$$00000004)
    .ARM.Collect$$libshutdown$$00000007      0x10000240   Section        0  libshutdown2.o(.ARM.Collect$$libshutdown$$00000007)
    .ARM.Collect$$libshutdown$$0000000A      0x10000240   Section        0  libshutdown2.o(.ARM.Collect$$libshutdown$$0000000A)
    .ARM.Collect$$libshutdown$$0000000C      0x10000240   Section        0  libshutdown2.o(.ARM.Collect$$libshutdown$$0000000C)
    .ARM.Collect$$libshutdown$$0000000F      0x10000240   Section        0  libshutdown2.o(.ARM.Collect$$libshutdown$$0000000F)
    .ARM.Collect$$libshutdown$$00000010      0x10000240   Section        2  libshutdown2.o(.ARM.Collect$$libshutdown$$00000010)
    .ARM.Collect$$rtentry$$00000000          0x10000242   Section        0  __rtentry.o(.ARM.Collect$$rtentry$$00000000)
    .ARM.Collect$$rtentry$$00000002          0x10000242   Section        0  __rtentry2.o(.ARM.Collect$$rtentry$$00000002)
    .ARM.Collect$$rtentry$$00000004          0x10000242   Section        6  __rtentry4.o(.ARM.Collect$$rtentry$$00000004)
    .ARM.Collect$$rtentry$$00000009          0x10000248   Section        0  __rtentry2.o(.ARM.Collect$$rtentry$$00000009)
    .ARM.Collect$$rtentry$$0000000A          0x10000248   Section        4  __rtentry2.o(.ARM.Collect$$rtentry$$0000000A)
    .ARM.Collect$$rtentry$$0000000C          0x1000024c   Section        0  __rtentry2.o(.ARM.Collect$$rtentry$$0000000C)
    .ARM.Collect$$rtentry$$0000000D          0x1000024c   Section        8  __rtentry2.o(.ARM.Collect$$rtentry$$0000000D)
    .ARM.Collect$$rtexit$$00000000           0x10000254   Section        2  rtexit.o(.ARM.Collect$$rtexit$$00000000)
    .ARM.Collect$$rtexit$$00000002           0x10000256   Section        0  rtexit2.o(.ARM.Collect$$rtexit$$00000002)
    .ARM.Collect$$rtexit$$00000003           0x10000256   Section        4  rtexit2.o(.ARM.Collect$$rtexit$$00000003)
    .ARM.Collect$$rtexit$$00000004           0x1000025a   Section        6  rtexit2.o(.ARM.Collect$$rtexit$$00000004)
    .emb_text                                0x10000260   Section        6  rom.o(.emb_text)
    .emb_text                                0x10000268   Section       56  rt_memcpy.o(.emb_text)
    .text                                    0x100002a0   Section        0  main.o(.text)
    setup_adv_data                           0x100002a1   Thumb Code    96  main.o(.text)
    ble_gatt_read                            0x100003db   Thumb Code   354  main.o(.text)
    ble_gatt_write                           0x1000053d   Thumb Code    48  main.o(.text)
    ble_init                                 0x100008bb   Thumb Code   248  main.o(.text)
    .text                                    0x10000d34   Section        0  uart_ota.o(.text)
    Uart_Slave_OTA_CMD_Complete              0x10000d35   Thumb Code    32  uart_ota.o(.text)
    Uart_Slave_OTA_Cmd_Erase                 0x10000d55   Thumb Code    20  uart_ota.o(.text)
    Uart_Slave_OTA_Cmd_Write                 0x10000d69   Thumb Code    44  uart_ota.o(.text)
    Uart_Slave_OTA_Cmd_Upgrade               0x10000d95   Thumb Code   108  uart_ota.o(.text)
    uart_master_ota_cmd_erase                0x10000e57   Thumb Code    42  uart_ota.o(.text)
    uart_master_ota_cmd_upgrade              0x10000e81   Thumb Code    68  uart_ota.o(.text)
    uart_master_ota_cmd_write                0x10000ec5   Thumb Code   268  uart_ota.o(.text)
    .text                                    0x100012b8   Section        0  uart_drive.o(.text)
    .text                                    0x100014c4   Section        0  gpio.o(.text)
    .text                                    0x1000181c   Section        0  delay.o(.text)
    .text                                    0x10001854   Section        0  pad_mux_ctrl.o(.text)
    .text                                    0x100018e4   Section        0  debug.o(.text)
    debug_uart_0_init                        0x100018e5   Thumb Code   156  debug.o(.text)
    debug_uart_write                         0x10001981   Thumb Code    80  debug.o(.text)
    .text                                    0x10001ae8   Section        0  timer.o(.text)
    .text                                    0x10001cac   Section        0  ota.o(.text)
    EvtCommandComplete                       0x10001cad   Thumb Code    46  ota.o(.text)
    CmdFwErase                               0x10001cdb   Thumb Code    38  ota.o(.text)
    CmdFwWrite                               0x10001d01   Thumb Code   118  ota.o(.text)
    CmdFwUpgrade                             0x10001d77   Thumb Code    84  ota.o(.text)
    .text                                    0x10001e68   Section       56  startup_armcm0.o(.text)
    .text                                    0x10001ea0   Section        0  system_armcm0.o(.text)
    .text                                    0x10001eb8   Section        0  main.o(.text)
    update_profile_data                      0x10002625   Thumb Code    84  main.o(.text)
    .text                                    0x10003620   Section        0  rom.o(.text)
    AttReadByGroupTypeRsp                    0x10003dc3   Thumb Code   326  rom.o(.text)
    AttReadByTypeServiceRsp                  0x10003f09   Thumb Code   234  rom.o(.text)
    AttReadByTypeChartRsp                    0x10003ff3   Thumb Code   286  rom.o(.text)
    AttReadByTypeValRsp                      0x10004111   Thumb Code   462  rom.o(.text)
    AttReadByTypeReq                         0x100042df   Thumb Code   122  rom.o(.text)
    FW_Encrypt_Packet                        0x10004359   Thumb Code   314  rom.o(.text)
    Get_OVER_SLPTH                           0x10004493   Thumb Code    42  rom.o(.text)
    LLENCReq                                 0x100047d7   Thumb Code   526  rom.o(.text)
    LLTxStartENCRsp                          0x100049e5   Thumb Code   500  rom.o(.text)
    _LCRxPkt_Handler                         0x1000527d   Thumb Code   560  rom.o(.text)
    _BBRXFIFO_Coex_Read                      0x1000595b   Thumb Code    92  rom.o(.text)
    _LCConnEvt_Handler                       0x100059b7   Thumb Code    68  rom.o(.text)
    LinkWakeup                               0x100059fb   Thumb Code   100  rom.o(.text)
    .text                                    0x10005a7c   Section        0  pmu.o(.text)
    .text                                    0x10005c28   Section        0  aec-ccm.o(.text)
    ctr_next_ctr_block                       0x10005c29   Thumb Code    66  aec-ccm.o(.text)
    cbcmac_calc                              0x10005c6b   Thumb Code   318  aec-ccm.o(.text)
    cbcmac_verify                            0x10005da9   Thumb Code   344  aec-ccm.o(.text)
    ctr_payload                              0x10005f01   Thumb Code   112  aec-ccm.o(.text)
    ctr_mic                                  0x10005f71   Thumb Code    86  aec-ccm.o(.text)
    cbcmac_clear                             0x1000616f   Thumb Code    12  aec-ccm.o(.text)
    cbcmac_append                            0x1000617b   Thumb Code    42  aec-ccm.o(.text)
    .text                                    0x100061a8   Section        0  aes.o(.text)
    expandKey                                0x100061a9   Thumb Code   186  aes.o(.text)
    aes_encr                                 0x10006263   Thumb Code   912  aes.o(.text)
    aes_decr                                 0x100065f3   Thumb Code  1124  aes.o(.text)
    galois_mul2                              0x10006a89   Thumb Code    20  aes.o(.text)
    .text                                    0x10006a9c   Section        0  c89vsprintf.o(.text)
    .text                                    0x10006ac0   Section        0  memcmp.o(.text)
    .text                                    0x10006b1a   Section        0  rt_memcpy.o(.text)
    .text                                    0x10006b9c   Section        0  rt_memclr.o(.text)
    .text                                    0x10006bdc   Section        0  uread4.o(.text)
    .text                                    0x10006bfe   Section        0  uwrite4.o(.text)
    .text                                    0x10006c0e   Section      346  aeabi_sdiv.o(.text)
    .text                                    0x10006d68   Section        0  heapauxi.o(.text)
    .text                                    0x10006d70   Section        0  daddsub.o(.text)
    _dadd1                                   0x10006d71   Thumb Code   290  daddsub.o(.text)
    _dsub1                                   0x10006e93   Thumb Code   470  daddsub.o(.text)
    .text                                    0x100070c8   Section        0  ddiv.o(.text)
    .text                                    0x10007510   Section        0  dfixui.o(.text)
    .text                                    0x10007558   Section        0  dflti.o(.text)
    .text                                    0x100075b0   Section        0  dmul.o(.text)
    .text                                    0x100077f8   Section        0  f2d.o(.text)
    .text                                    0x1000784c   Section        0  fflti.o(.text)
    .text                                    0x100078aa   Section        0  _printf_pad.o(.text)
    .text                                    0x100078f8   Section        0  _printf_truncate.o(.text)
    .text                                    0x1000791c   Section        0  _printf_str.o(.text)
    .text                                    0x10007970   Section        0  _printf_dec.o(.text)
    .text                                    0x100079dc   Section        0  _printf_charcount.o(.text)
    .text                                    0x10007a04   Section        0  _printf_char_common.o(.text)
    _printf_input_char                       0x10007a05   Thumb Code    10  _printf_char_common.o(.text)
    .text                                    0x10007a34   Section        0  _sputc.o(.text)
    .text                                    0x10007a40   Section        0  _printf_wctomb.o(.text)
    .text                                    0x10007afc   Section        0  _printf_longlong_dec.o(.text)
    .text                                    0x10007b6c   Section        0  _printf_oct_int_ll.o(.text)
    _printf_longlong_oct_internal            0x10007b6d   Thumb Code     0  _printf_oct_int_ll.o(.text)
    .text                                    0x10007bdc   Section        0  _printf_hex_int_ll_ptr.o(.text)
    _printf_hex_common                       0x10007bdd   Thumb Code     0  _printf_hex_int_ll_ptr.o(.text)
    .text                                    0x10007c74   Section        0  __printf_flags_ss_wp.o(.text)
    .text                                    0x10007dfc   Section        0  lludiv10.o(.text)
    .text                                    0x10007e76   Section        0  _printf_intcommon.o(.text)
    .text                                    0x10007f28   Section        0  _printf_fp_dec.o(.text)
    _fp_digits                               0x10007f2b   Thumb Code   408  _printf_fp_dec.o(.text)
    .text                                    0x1000833c   Section        0  _printf_char.o(.text)
    .text                                    0x1000836a   Section        0  _printf_wchar.o(.text)
    .text                                    0x10008398   Section        0  _wcrtomb.o(.text)
    .text                                    0x100083d8   Section        0  rtudiv10.o(.text)
    .text                                    0x10008400   Section       62  sys_stackheap_outer.o(.text)
    .text                                    0x10008440   Section       16  rt_ctype_table.o(.text)
    .text                                    0x10008450   Section        8  rt_locale_intlibspace.o(.text)
    .text                                    0x10008458   Section        0  _printf_fp_infnan.o(.text)
    .text                                    0x100084e0   Section        0  bigflt0.o(.text)
    .text                                    0x100085a8   Section        0  btod.o(.text)
    btod_internal_mul                        0x100085e9   Thumb Code   456  btod.o(.text)
    btod_internal_div                        0x100087b1   Thumb Code   494  btod.o(.text)
    .text                                    0x10008a50   Section        0  exit.o(.text)
    .text                                    0x10008a60   Section        8  libspace.o(.text)
    .text                                    0x10008a68   Section        0  strcmp.o(.text)
    .text                                    0x10008af0   Section        0  sys_exit.o(.text)
    .text                                    0x10008afc   Section        2  use_no_semi.o(.text)
    .text                                    0x10008afe   Section        0  indicate_semi.o(.text)
    PMU                                      0x10008b00   Section        0  pmu.o(PMU)
    i.__ARM_common_ll_muluu                  0x10008b4c   Section        0  btod.o(i.__ARM_common_ll_muluu)
    i.__ARM_common_switch8                   0x10008b7c   Section        0  main.o(i.__ARM_common_switch8)
    i.__ARM_fpclassify                       0x10008b98   Section        0  fpclassify.o(i.__ARM_fpclassify)
    i._is_digit                              0x10008bc4   Section        0  __printf_wp.o(i._is_digit)
    locale$$code                             0x10008bd4   Section       44  lc_numeric_c.o(locale$$code)
    locale$$code                             0x10008c00   Section       44  lc_ctype_c.o(locale$$code)
    x$fpl$fadd                               0x10008c2c   Section      140  faddsub.o(x$fpl$fadd)
    _fadd1                                   0x10008c39   Thumb Code     0  faddsub.o(x$fpl$fadd)
    x$fpl$fsub                               0x10008cb8   Section      208  faddsub.o(x$fpl$fsub)
    _fsub1                                   0x10008cc5   Thumb Code     0  faddsub.o(x$fpl$fsub)
    x$fpl$printf1                            0x10008d88   Section       16  printf1.o(x$fpl$printf1)
    .constdata                               0x10008d98   Section    60638  main.o(.constdata)
    x$fpl$usenofp                            0x10008d98   Section        0  usenofp.o(x$fpl$usenofp)
    _gatt_database_report_handle             0x10008d98   Data          31  main.o(.constdata)
    _gatt_database_include                   0x10008db7   Data          11  main.o(.constdata)
    _gatt_database_primary                   0x10008dc2   Data          63  main.o(.constdata)
    _gatt_database_characteristic            0x10008e01   Data         190  main.o(.constdata)
    _gatt_database_value                     0x10008ebf   Data         359  main.o(.constdata)
    .constdata                               0x10017a76   Section       50  rom.o(.constdata)
    _smp_key_                                0x10017a76   Data          25  rom.o(.constdata)
    _smp_sc_key_                             0x10017a8f   Data          25  rom.o(.constdata)
    .constdata                               0x10017aa8   Section       32  pmu.o(.constdata)
    delay_table                              0x10017aa8   Data          32  pmu.o(.constdata)
    .constdata                               0x10017ac8   Section      523  aes.o(.constdata)
    sbox                                     0x10017ac8   Data         256  aes.o(.constdata)
    rsbox                                    0x10017bc8   Data         256  aes.o(.constdata)
    Rcon                                     0x10017cc8   Data          11  aes.o(.constdata)
    .constdata                               0x10017cd3   Section      128  ddiv.o(.constdata)
    ddiv_reciptbl                            0x10017cd3   Data         128  ddiv.o(.constdata)
    .constdata                               0x10017d54   Section        8  _printf_wctomb.o(.constdata)
    initial_mbstate                          0x10017d54   Data           8  _printf_wctomb.o(.constdata)
    .constdata                               0x10017d5c   Section       40  _printf_hex_int_ll_ptr.o(.constdata)
    uc_hextab                                0x10017d5c   Data          20  _printf_hex_int_ll_ptr.o(.constdata)
    lc_hextab                                0x10017d70   Data          20  _printf_hex_int_ll_ptr.o(.constdata)
    .constdata                               0x10017d84   Section       17  __printf_flags_ss_wp.o(.constdata)
    maptable                                 0x10017d84   Data          17  __printf_flags_ss_wp.o(.constdata)
    .constdata                               0x10017d98   Section      148  bigflt0.o(.constdata)
    tenpwrs_x                                0x10017d98   Data          60  bigflt0.o(.constdata)
    tenpwrs_i                                0x10017dd4   Data          64  bigflt0.o(.constdata)
    locale$$data                             0x10017e4c   Section       28  lc_numeric_c.o(locale$$data)
    __lcnum_c_name                           0x10017e50   Data           2  lc_numeric_c.o(locale$$data)
    __lcnum_c_start                          0x10017e58   Data           0  lc_numeric_c.o(locale$$data)
    __lcnum_c_point                          0x10017e64   Data           0  lc_numeric_c.o(locale$$data)
    __lcnum_c_thousands                      0x10017e66   Data           0  lc_numeric_c.o(locale$$data)
    __lcnum_c_grouping                       0x10017e67   Data           0  lc_numeric_c.o(locale$$data)
    locale$$data                             0x10017e68   Section      272  lc_ctype_c.o(locale$$data)
    __lcnum_c_end                            0x10017e68   Data           0  lc_numeric_c.o(locale$$data)
    __lcctype_c_name                         0x10017e6c   Data           2  lc_ctype_c.o(locale$$data)
    __lcctype_c_start                        0x10017e74   Data           0  lc_ctype_c.o(locale$$data)
    __lcctype_c_end                          0x10017f78   Data           0  lc_ctype_c.o(locale$$data)
    .data                                    0x20000000   Section       63  main.o(.data)
    g_report                                 0x20000008   Data           4  main.o(.data)
    start_tx                                 0x2000000c   Data           1  main.o(.data)
    wechat_tx                                0x2000000d   Data           1  main.o(.data)
    dev_addr                                 0x20000038   Data           7  main.o(.data)
    .data                                    0x2000003f   Section        2  uart_ota.o(.data)
    .data                                    0x20000044   Section        8  uart_drive.o(.data)
    .data                                    0x2000004c   Section       12  gpio.o(.data)
    GPIO_CTRL                                0x2000004c   Data           8  gpio.o(.data)
    gpio_callback                            0x20000054   Data           4  gpio.o(.data)
    .data                                    0x20000058   Section        8  pad_mux_ctrl.o(.data)
    pad                                      0x20000058   Data           8  pad_mux_ctrl.o(.data)
    .data                                    0x20000060   Section        8  debug.o(.data)
    UART_CTRL                                0x20000060   Data           8  debug.o(.data)
    .data                                    0x20000068   Section       20  timer.o(.data)
    ctrl                                     0x20000068   Data          20  timer.o(.data)
    .data                                    0x2000007c   Section       12  ota.o(.data)
    EvtBuf                                   0x2000007e   Data           4  ota.o(.data)
    .data                                    0x20000088   Section        4  system_armcm0.o(.data)
    .data                                    0x2000008c   Section       20  main.o(.data)
    syd_confirm                              0x2000008c   Data           1  main.o(.data)
    sched_execute_mask                       0x2000008d   Data           1  main.o(.data)
    profile_to_flash                         0x2000008e   Data           1  main.o(.data)
    profile_update_offset                    0x20000090   Data           2  main.o(.data)
    PMU_CTRL                                 0x20000094   Data           4  main.o(.data)
    p_sched_callback                         0x20000098   Data           4  main.o(.data)
    .data                                    0x200000a0   Section      111  rom.o(.data)
    NumericYesOrNo                           0x200000a0   Data           1  rom.o(.data)
    MCUFreq                                  0x200000a1   Data           1  rom.o(.data)
    coex_evt_mask_sleep                      0x200000a5   Data           1  rom.o(.data)
    passkey_cnt                              0x200000bc   Data           4  rom.o(.data)
    passkey_value                            0x200000c0   Data           4  rom.o(.data)
    save_device_to_flash                     0x200000c4   Data           4  rom.o(.data)
    ReadRsp                                  0x200000c8   Data           4  rom.o(.data)
    ReadRspLen                               0x200000cc   Data           4  rom.o(.data)
    ReadRspData                              0x200000d0   Data           4  rom.o(.data)
    IRQCallbackHook                          0x200000d4   Data           4  rom.o(.data)
    IRQCallbackSkip                          0x200000d8   Data           4  rom.o(.data)
    HCIDTM                                   0x200000dc   Data           4  rom.o(.data)
    ACLTx                                    0x200000e0   Data           4  rom.o(.data)
    ble_data                                 0x200000f0   Data           4  rom.o(.data)
    .data                                    0x20000110   Section        4  pmu.o(.data)
    lclink                                   0x20000110   Data           4  pmu.o(.data)
    .bss                                     0x20000114   Section       24  uart_ota.o(.bss)
    .bss                                     0x2000012c   Section      515  uart_drive.o(.bss)
    .bss                                     0x2000032f   Section      128  debug.o(.bss)
    s_formatBuffer                           0x2000032f   Data         128  debug.o(.bss)
    .bss                                     0x200003b0   Section       20  timer.o(.bss)
    cb                                       0x200003b0   Data          20  timer.o(.bss)
    .bss                                     0x200003c4   Section       40  ota.o(.bss)
    .bss                                     0x200003ec   Section     4173  main.o(.bss)
    confirmation_list                        0x200013ec   Data          62  main.o(.bss)
    .bss                                     0x2000143c   Section     1055  rom.o(.bss)
    .bss                                     0x2000185b   Section       16  aec-ccm.o(.bss)
    cbcmac_xor                               0x2000185b   Data          16  aec-ccm.o(.bss)
    .bss                                     0x2000186c   Section       96  libspace.o(.bss)
    HEAP                                     0x200018d0   Section    16384  startup_armcm0.o(HEAP)
    Heap_Mem                                 0x200018d0   Data       16384  startup_armcm0.o(HEAP)
    STACK                                    0x200058d0   Section     4096  startup_armcm0.o(STACK)
    Stack_Mem                                0x200058d0   Data        4096  startup_armcm0.o(STACK)
    __initial_sp                             0x200068d0   Data           0  startup_armcm0.o(STACK)

    Global Symbols

    Symbol Name                              Value     Ov Type        Size  Object(Section)

    BuildAttributes$$THM_ISAv3M$S$PE$A:L22$X:L11$S22$IEEE1$IW$USESV6$~STKCKD$USESV7$~SHL$OTIME$ROPI$IEEEJ$EBA8$UX$STANDARDLIB$REQ8$EABIv2 0x00000000   Number         0  anon$$obj.o ABSOLUTE
    __ARM_use_no_argv                        0x00000000   Number         0  main.o ABSOLUTE
    _printf_flags                            0x00000000   Number         0  printf_stubs.o ABSOLUTE
    _printf_return_value                     0x00000000   Number         0  printf_stubs.o ABSOLUTE
    _printf_sizespec                         0x00000000   Number         0  printf_stubs.o ABSOLUTE
    _printf_widthprec                        0x00000000   Number         0  printf_stubs.o ABSOLUTE
    __ARM_exceptions_init                     - Undefined Weak Reference
    __alloca_initialize                       - Undefined Weak Reference
    __arm_preinit_                            - Undefined Weak Reference
    __cpp_initialize__aeabi_                  - Undefined Weak Reference
    __cxa_finalize                            - Undefined Weak Reference
    __sigvec_lookup                           - Undefined Weak Reference
    _atexit_init                              - Undefined Weak Reference
    _call_atexit_fns                          - Undefined Weak Reference
    _clock_init                               - Undefined Weak Reference
    _fp_trap_init                             - Undefined Weak Reference
    _fp_trap_shutdown                         - Undefined Weak Reference
    _get_lc_collate                           - Undefined Weak Reference
    _get_lc_monetary                          - Undefined Weak Reference
    _get_lc_time                              - Undefined Weak Reference
    _getenv_init                              - Undefined Weak Reference
    _handle_redirection                       - Undefined Weak Reference
    _init_alloc                               - Undefined Weak Reference
    _init_user_alloc                          - Undefined Weak Reference
    _initio                                   - Undefined Weak Reference
    _printf_fp_hex                            - Undefined Weak Reference
    _printf_mbtowc                            - Undefined Weak Reference
    _printf_wc                                - Undefined Weak Reference
    _rand_init                                - Undefined Weak Reference
    _signal_finish                            - Undefined Weak Reference
    _signal_init                              - Undefined Weak Reference
    _terminate_alloc                          - Undefined Weak Reference
    _terminate_user_alloc                     - Undefined Weak Reference
    _terminateio                              - Undefined Weak Reference
    __Vectors_Size                           0x000000c0   Number         0  startup_armcm0.o ABSOLUTE
    __Vectors                                0x10000000   Data           4  startup_armcm0.o(RESET)
    __Vectors_End                            0x100000c0   Data           0  startup_armcm0.o(RESET)
    __main                                   0x100000c1   Thumb Code     8  __main.o(!!!main)
    __scatterload                            0x100000c9   Thumb Code     0  __scatter.o(!!!scatter)
    __scatterload_rt2                        0x100000c9   Thumb Code    52  __scatter.o(!!!scatter)
    __scatterload_rt2_thumb_only             0x100000c9   Thumb Code     0  __scatter.o(!!!scatter)
    __scatterload_null                       0x100000d9   Thumb Code     0  __scatter.o(!!!scatter)
    __scatterload_copy                       0x10000105   Thumb Code    26  __scatter_copy.o(!!handler_copy)
    __scatterload_zeroinit                   0x10000121   Thumb Code    28  __scatter_zi.o(!!handler_zi)
    _printf_percent                          0x1000013d   Thumb Code     0  _printf_percent.o(.ARM.Collect$$_printf_percent$$00000000)
    _printf_n                                0x1000013f   Thumb Code     0  _printf_n.o(.ARM.Collect$$_printf_percent$$00000001)
    _printf_p                                0x10000149   Thumb Code     0  _printf_p.o(.ARM.Collect$$_printf_percent$$00000002)
    _printf_f                                0x10000153   Thumb Code     0  _printf_f.o(.ARM.Collect$$_printf_percent$$00000003)
    _printf_e                                0x1000015d   Thumb Code     0  _printf_e.o(.ARM.Collect$$_printf_percent$$00000004)
    _printf_g                                0x10000167   Thumb Code     0  _printf_g.o(.ARM.Collect$$_printf_percent$$00000005)
    _printf_a                                0x10000171   Thumb Code     0  _printf_a.o(.ARM.Collect$$_printf_percent$$00000006)
    _printf_ll                               0x1000017b   Thumb Code     0  _printf_ll.o(.ARM.Collect$$_printf_percent$$00000007)
    _printf_i                                0x10000185   Thumb Code     0  _printf_i.o(.ARM.Collect$$_printf_percent$$00000008)
    _printf_d                                0x1000018f   Thumb Code     0  _printf_d.o(.ARM.Collect$$_printf_percent$$00000009)
    _printf_u                                0x10000199   Thumb Code     0  _printf_u.o(.ARM.Collect$$_printf_percent$$0000000A)
    _printf_o                                0x100001a3   Thumb Code     0  _printf_o.o(.ARM.Collect$$_printf_percent$$0000000B)
    _printf_x                                0x100001ad   Thumb Code     0  _printf_x.o(.ARM.Collect$$_printf_percent$$0000000C)
    _printf_lli                              0x100001b7   Thumb Code     0  _printf_lli.o(.ARM.Collect$$_printf_percent$$0000000D)
    _printf_lld                              0x100001c1   Thumb Code     0  _printf_lld.o(.ARM.Collect$$_printf_percent$$0000000E)
    _printf_llu                              0x100001cb   Thumb Code     0  _printf_llu.o(.ARM.Collect$$_printf_percent$$0000000F)
    _printf_llo                              0x100001d5   Thumb Code     0  _printf_llo.o(.ARM.Collect$$_printf_percent$$00000010)
    _printf_llx                              0x100001df   Thumb Code     0  _printf_llx.o(.ARM.Collect$$_printf_percent$$00000011)
    _printf_l                                0x100001e9   Thumb Code     0  _printf_l.o(.ARM.Collect$$_printf_percent$$00000012)
    _printf_c                                0x100001f3   Thumb Code     0  _printf_c.o(.ARM.Collect$$_printf_percent$$00000013)
    _printf_s                                0x100001fd   Thumb Code     0  _printf_s.o(.ARM.Collect$$_printf_percent$$00000014)
    _printf_lc                               0x10000207   Thumb Code     0  _printf_lc.o(.ARM.Collect$$_printf_percent$$00000015)
    _printf_ls                               0x10000211   Thumb Code     0  _printf_ls.o(.ARM.Collect$$_printf_percent$$00000016)
    _printf_percent_end                      0x1000021b   Thumb Code     0  _printf_percent_end.o(.ARM.Collect$$_printf_percent$$00000017)
    __rt_lib_init                            0x1000021f   Thumb Code     0  libinit.o(.ARM.Collect$$libinit$$00000000)
    __rt_lib_init_fp_1                       0x10000221   Thumb Code     0  libinit2.o(.ARM.Collect$$libinit$$00000002)
    __rt_lib_init_heap_1                     0x10000221   Thumb Code     0  libinit2.o(.ARM.Collect$$libinit$$0000000A)
    __rt_lib_init_lc_common                  0x10000221   Thumb Code     0  libinit2.o(.ARM.Collect$$libinit$$0000000F)
    __rt_lib_init_preinit_1                  0x10000221   Thumb Code     0  libinit2.o(.ARM.Collect$$libinit$$00000004)
    __rt_lib_init_rand_1                     0x10000221   Thumb Code     0  libinit2.o(.ARM.Collect$$libinit$$0000000E)
    __rt_lib_init_user_alloc_1               0x10000221   Thumb Code     0  libinit2.o(.ARM.Collect$$libinit$$0000000C)
    __rt_lib_init_lc_collate_1               0x10000227   Thumb Code     0  libinit2.o(.ARM.Collect$$libinit$$00000011)
    __rt_lib_init_lc_ctype_2                 0x10000227   Thumb Code     0  libinit2.o(.ARM.Collect$$libinit$$00000012)
    __rt_lib_init_lc_ctype_1                 0x10000233   Thumb Code     0  libinit2.o(.ARM.Collect$$libinit$$00000013)
    __rt_lib_init_lc_monetary_1              0x10000233   Thumb Code     0  libinit2.o(.ARM.Collect$$libinit$$00000015)
    __rt_lib_init_lc_numeric_2               0x10000233   Thumb Code     0  libinit2.o(.ARM.Collect$$libinit$$00000016)
    __rt_lib_init_alloca_1                   0x1000023d   Thumb Code     0  libinit2.o(.ARM.Collect$$libinit$$0000002E)
    __rt_lib_init_argv_1                     0x1000023d   Thumb Code     0  libinit2.o(.ARM.Collect$$libinit$$0000002C)
    __rt_lib_init_atexit_1                   0x1000023d   Thumb Code     0  libinit2.o(.ARM.Collect$$libinit$$0000001B)
    __rt_lib_init_clock_1                    0x1000023d   Thumb Code     0  libinit2.o(.ARM.Collect$$libinit$$00000021)
    __rt_lib_init_cpp_1                      0x1000023d   Thumb Code     0  libinit2.o(.ARM.Collect$$libinit$$00000032)
    __rt_lib_init_exceptions_1               0x1000023d   Thumb Code     0  libinit2.o(.ARM.Collect$$libinit$$00000030)
    __rt_lib_init_fp_trap_1                  0x1000023d   Thumb Code     0  libinit2.o(.ARM.Collect$$libinit$$0000001F)
    __rt_lib_init_getenv_1                   0x1000023d   Thumb Code     0  libinit2.o(.ARM.Collect$$libinit$$00000023)
    __rt_lib_init_lc_numeric_1               0x1000023d   Thumb Code     0  libinit2.o(.ARM.Collect$$libinit$$00000017)
    __rt_lib_init_lc_time_1                  0x1000023d   Thumb Code     0  libinit2.o(.ARM.Collect$$libinit$$00000019)
    __rt_lib_init_return                     0x1000023d   Thumb Code     0  libinit2.o(.ARM.Collect$$libinit$$00000033)
    __rt_lib_init_signal_1                   0x1000023d   Thumb Code     0  libinit2.o(.ARM.Collect$$libinit$$0000001D)
    __rt_lib_init_stdio_1                    0x1000023d   Thumb Code     0  libinit2.o(.ARM.Collect$$libinit$$00000025)
    __rt_lib_shutdown                        0x1000023f   Thumb Code     0  libshutdown.o(.ARM.Collect$$libshutdown$$00000000)
    __rt_lib_shutdown_cpp_1                  0x10000241   Thumb Code     0  libshutdown2.o(.ARM.Collect$$libshutdown$$00000002)
    __rt_lib_shutdown_fp_trap_1              0x10000241   Thumb Code     0  libshutdown2.o(.ARM.Collect$$libshutdown$$00000007)
    __rt_lib_shutdown_heap_1                 0x10000241   Thumb Code     0  libshutdown2.o(.ARM.Collect$$libshutdown$$0000000F)
    __rt_lib_shutdown_return                 0x10000241   Thumb Code     0  libshutdown2.o(.ARM.Collect$$libshutdown$$00000010)
    __rt_lib_shutdown_signal_1               0x10000241   Thumb Code     0  libshutdown2.o(.ARM.Collect$$libshutdown$$0000000A)
    __rt_lib_shutdown_stdio_1                0x10000241   Thumb Code     0  libshutdown2.o(.ARM.Collect$$libshutdown$$00000004)
    __rt_lib_shutdown_user_alloc_1           0x10000241   Thumb Code     0  libshutdown2.o(.ARM.Collect$$libshutdown$$0000000C)
    __rt_entry                               0x10000243   Thumb Code     0  __rtentry.o(.ARM.Collect$$rtentry$$00000000)
    __rt_entry_presh_1                       0x10000243   Thumb Code     0  __rtentry2.o(.ARM.Collect$$rtentry$$00000002)
    __rt_entry_sh                            0x10000243   Thumb Code     0  __rtentry4.o(.ARM.Collect$$rtentry$$00000004)
    __rt_entry_li                            0x10000249   Thumb Code     0  __rtentry2.o(.ARM.Collect$$rtentry$$0000000A)
    __rt_entry_postsh_1                      0x10000249   Thumb Code     0  __rtentry2.o(.ARM.Collect$$rtentry$$00000009)
    __rt_entry_main                          0x1000024d   Thumb Code     0  __rtentry2.o(.ARM.Collect$$rtentry$$0000000D)
    __rt_entry_postli_1                      0x1000024d   Thumb Code     0  __rtentry2.o(.ARM.Collect$$rtentry$$0000000C)
    __rt_exit                                0x10000255   Thumb Code     0  rtexit.o(.ARM.Collect$$rtexit$$00000000)
    __rt_exit_ls                             0x10000257   Thumb Code     0  rtexit2.o(.ARM.Collect$$rtexit$$00000003)
    __rt_exit_prels_1                        0x10000257   Thumb Code     0  rtexit2.o(.ARM.Collect$$rtexit$$00000002)
    __rt_exit_exit                           0x1000025b   Thumb Code     0  rtexit2.o(.ARM.Collect$$rtexit$$00000004)
    B01_correct_TXPacket_length              0x10000261   Thumb Code     6  rom.o(.emb_text)
    __aeabi_memcpy4                          0x10000269   Thumb Code    56  rt_memcpy.o(.emb_text)
    __aeabi_memcpy8                          0x10000269   Thumb Code     0  rt_memcpy.o(.emb_text)
    BLE_SendData                             0x10000301   Thumb Code    50  main.o(.text)
    BLSetConnectionUpdate                    0x10000333   Thumb Code   168  main.o(.text)
    ble_evt_callback                         0x1000056d   Thumb Code   846  main.o(.text)
    gpio_init                                0x100009b3   Thumb Code   116  main.o(.text)
    ble_uart_init                            0x10000a27   Thumb Code   174  main.o(.text)
    main                                     0x10000ad5   Thumb Code   244  main.o(.text)
    uart_slave_ota_handle                    0x10000e01   Thumb Code    86  uart_ota.o(.text)
    uart_master_ota_init                     0x10000fd1   Thumb Code   112  uart_ota.o(.text)
    uart_master_ota_start                    0x10001041   Thumb Code    22  uart_ota.o(.text)
    uart_master_ota_handle                   0x10001057   Thumb Code   164  uart_ota.o(.text)
    uart_1_init                              0x100012b9   Thumb Code   148  uart_drive.o(.text)
    uart_read_buf                            0x1000134d   Thumb Code    40  uart_drive.o(.text)
    UART1_IRQHandler                         0x10001375   Thumb Code   184  uart_drive.o(.text)
    uart_write                               0x1000142d   Thumb Code    80  uart_drive.o(.text)
    uart_get_ctrl                            0x1000147d   Thumb Code    18  uart_drive.o(.text)
    uart_send                                0x1000148f   Thumb Code    38  uart_drive.o(.text)
    gpi_irq_set_cb                           0x100014c5   Thumb Code     6  gpio.o(.text)
    gpi_config                               0x100014cb   Thumb Code   114  gpio.o(.text)
    pad_input_configure                      0x1000153d   Thumb Code    94  gpio.o(.text)
    gpo_config                               0x1000159b   Thumb Code    90  gpio.o(.text)
    gpo_toggle                               0x100015f5   Thumb Code    42  gpio.o(.text)
    gpo_set                                  0x1000161f   Thumb Code    42  gpio.o(.text)
    gpo_clr                                  0x10001649   Thumb Code    42  gpio.o(.text)
    gpi_get_val                              0x10001673   Thumb Code    70  gpio.o(.text)
    gpi_enable_int                           0x100016b9   Thumb Code   162  gpio.o(.text)
    gpi_disable_int                          0x1000175b   Thumb Code    44  gpio.o(.text)
    GPIO_IRQHandler                          0x10001787   Thumb Code   134  gpio.o(.text)
    delay_ms                                 0x1000181d   Thumb Code    30  delay.o(.text)
    delay_us                                 0x1000183b   Thumb Code    26  delay.o(.text)
    pad_mux_read                             0x10001855   Thumb Code    62  pad_mux_ctrl.o(.text)
    pad_mux_write                            0x10001893   Thumb Code    78  pad_mux_ctrl.o(.text)
    dbg_init                                 0x100019d1   Thumb Code    12  debug.o(.text)
    dbg_printf                               0x100019dd   Thumb Code    60  debug.o(.text)
    dbg_printf_sel                           0x10001a19   Thumb Code    62  debug.o(.text)
    dbg_hexdump                              0x10001a57   Thumb Code   108  debug.o(.text)
    TIMER0_IRQHandler                        0x10001ae9   Thumb Code    36  timer.o(.text)
    TIMER1_IRQHandler                        0x10001b0d   Thumb Code    36  timer.o(.text)
    TIMER2_IRQHandler                        0x10001b31   Thumb Code    36  timer.o(.text)
    TIMER3_IRQHandler                        0x10001b55   Thumb Code    36  timer.o(.text)
    TIMER4_IRQHandler                        0x10001b79   Thumb Code    36  timer.o(.text)
    is_timer_enabled                         0x10001b9d   Thumb Code    16  timer.o(.text)
    timer_enable                             0x10001bad   Thumb Code   186  timer.o(.text)
    timer_disable                            0x10001c67   Thumb Code    44  timer.o(.text)
    timer_state_get                          0x10001c93   Thumb Code    16  timer.o(.text)
    ota_cmd                                  0x10001dcb   Thumb Code    88  ota.o(.text)
    ota_rsp                                  0x10001e23   Thumb Code    34  ota.o(.text)
    Reset_Handler                            0x10001e69   Thumb Code     8  startup_armcm0.o(.text)
    NMI_Handler                              0x10001e71   Thumb Code     2  startup_armcm0.o(.text)
    HardFault_Handler                        0x10001e73   Thumb Code     2  startup_armcm0.o(.text)
    SVC_Handler                              0x10001e75   Thumb Code     2  startup_armcm0.o(.text)
    PendSV_Handler                           0x10001e77   Thumb Code     2  startup_armcm0.o(.text)
    SysTick_Handler                          0x10001e79   Thumb Code     2  startup_armcm0.o(.text)
    CAPDET_IRQHandler                        0x10001e7b   Thumb Code     0  startup_armcm0.o(.text)
    GPADC_IRQHandler                         0x10001e7b   Thumb Code     0  startup_armcm0.o(.text)
    I2CM0_IRQHandler                         0x10001e7b   Thumb Code     0  startup_armcm0.o(.text)
    I2CM1_IRQHandler                         0x10001e7b   Thumb Code     0  startup_armcm0.o(.text)
    I2CS_IRQHandler                          0x10001e7b   Thumb Code     0  startup_armcm0.o(.text)
    I2S_IRQHandler                           0x10001e7b   Thumb Code     0  startup_armcm0.o(.text)
    INTCOMB_IRQHandler                       0x10001e7b   Thumb Code     0  startup_armcm0.o(.text)
    IR_IRQHandler                            0x10001e7b   Thumb Code     0  startup_armcm0.o(.text)
    ISO_7816_IRQHandler                      0x10001e7b   Thumb Code     0  startup_armcm0.o(.text)
    LLC2_IRQHandler                          0x10001e7b   Thumb Code     0  startup_armcm0.o(.text)
    LLC3_IRQHandler                          0x10001e7b   Thumb Code     0  startup_armcm0.o(.text)
    M2M_IRQHandler                           0x10001e7b   Thumb Code     0  startup_armcm0.o(.text)
    PDM_IRQHandler                           0x10001e7b   Thumb Code     0  startup_armcm0.o(.text)
    PWM1_IRQHandler                          0x10001e7b   Thumb Code     0  startup_armcm0.o(.text)
    PWM2_IRQHandler                          0x10001e7b   Thumb Code     0  startup_armcm0.o(.text)
    PWM3_IRQHandler                          0x10001e7b   Thumb Code     0  startup_armcm0.o(.text)
    RTC_IRQHandler                           0x10001e7b   Thumb Code     0  startup_armcm0.o(.text)
    SPIM_IRQHandler                          0x10001e7b   Thumb Code     0  startup_armcm0.o(.text)
    SPIS_IRQHandler                          0x10001e7b   Thumb Code     0  startup_armcm0.o(.text)
    SW_IRQHandler                            0x10001e7b   Thumb Code     0  startup_armcm0.o(.text)
    TRNG_IRQHandler                          0x10001e7b   Thumb Code     0  startup_armcm0.o(.text)
    UART0_IRQHandler                         0x10001e7b   Thumb Code     0  startup_armcm0.o(.text)
    UART2_IRQHandler                         0x10001e7b   Thumb Code     0  startup_armcm0.o(.text)
    WDT_IRQHandler                           0x10001e7b   Thumb Code     0  startup_armcm0.o(.text)
    __user_initial_stackheap                 0x10001e7d   Thumb Code    10  startup_armcm0.o(.text)
    SystemCoreClockUpdate                    0x10001ea1   Thumb Code     8  system_armcm0.o(.text)
    SystemInit                               0x10001ea9   Thumb Code     8  system_armcm0.o(.text)
    sw_timer_update_callback                 0x10001eb9   Thumb Code    20  main.o(.text)
    gap_s_ble_init                           0x10001ecd   Thumb Code    18  main.o(.text)
    gap_s_disconnect                         0x10001edf   Thumb Code     8  main.o(.text)
    gap_s_validate_irk                       0x10001ee7   Thumb Code     6  main.o(.text)
    gap_s_ble_gen_random_private_address     0x10001eed   Thumb Code     6  main.o(.text)
    gap_s_ble_address_set                    0x10001ef3   Thumb Code     6  main.o(.text)
    gap_s_ble_address_get                    0x10001ef9   Thumb Code     4  main.o(.text)
    gap_s_ble_feature_set                    0x10001efd   Thumb Code     6  main.o(.text)
    gap_s_ble_feature_get                    0x10001f03   Thumb Code     6  main.o(.text)
    gap_s_ble_slave_feature_set              0x10001f09   Thumb Code     6  main.o(.text)
    gap_s_ble_slave_feature_get              0x10001f0f   Thumb Code     6  main.o(.text)
    gap_s_adv_access_code_set                0x10001f15   Thumb Code     6  main.o(.text)
    gap_s_adv_access_code_get                0x10001f1b   Thumb Code     6  main.o(.text)
    gap_s_adv_parameters_set                 0x10001f21   Thumb Code     6  main.o(.text)
    gap_s_adv_data_set                       0x10001f27   Thumb Code    10  main.o(.text)
    gap_s_adv_start                          0x10001f31   Thumb Code     6  main.o(.text)
    gap_s_adv_stop                           0x10001f37   Thumb Code     4  main.o(.text)
    gap_s_adv_start_powersaving              0x10001f3b   Thumb Code   610  main.o(.text)
    gap_s_adv_stop_powersaving               0x1000219d   Thumb Code    32  main.o(.text)
    gap_s_scan_parameters_set                0x100021bd   Thumb Code     6  main.o(.text)
    gap_s_scan_start                         0x100021c3   Thumb Code     6  main.o(.text)
    gap_s_scan_stop                          0x100021c9   Thumb Code     4  main.o(.text)
    gap_s_coex_adv_data_set                  0x100021cd   Thumb Code    14  main.o(.text)
    gap_s_coex_scan_rsp_data_set             0x100021db   Thumb Code    12  main.o(.text)
    gap_s_coex_adv_start                     0x100021e7   Thumb Code     8  main.o(.text)
    gap_s_coex_adv_stop                      0x100021ef   Thumb Code     8  main.o(.text)
    gap_s_coex_scan_req_data_set             0x100021f7   Thumb Code     6  main.o(.text)
    gap_s_coex_scan_start                    0x100021fd   Thumb Code     4  main.o(.text)
    gap_s_coex_scan_stop                     0x10002201   Thumb Code     6  main.o(.text)
    gap_s_gatt_profiles_set                  0x10002207   Thumb Code     6  main.o(.text)
    gap_s_security_parameters_set            0x1000220d   Thumb Code     6  main.o(.text)
    gap_s_security_parameters_get            0x10002213   Thumb Code     6  main.o(.text)
    gap_s_security_req                       0x10002219   Thumb Code     6  main.o(.text)
    gap_s_numeric_comrison                   0x1000221f   Thumb Code     8  main.o(.text)
    gap_s_connection_param_set               0x10002227   Thumb Code     6  main.o(.text)
    gap_s_connection_param_get               0x1000222d   Thumb Code     4  main.o(.text)
    gap_s_connection_update                  0x10002231   Thumb Code     6  main.o(.text)
    gap_s_link_parameters_get                0x10002237   Thumb Code     6  main.o(.text)
    gap_s_passkey_set                        0x1000223d   Thumb Code     8  main.o(.text)
    gap_s_connection_latency_mode            0x10002245   Thumb Code     8  main.o(.text)
    gap_s_check_fifo_sz                      0x1000224d   Thumb Code     6  main.o(.text)
    BBCheckTXFIFOEmpty                       0x10002253   Thumb Code    12  main.o(.text)
    sw_timer_latency_callback                0x1000225f   Thumb Code   138  main.o(.text)
    smart_latency_start                      0x100022e9   Thumb Code   186  main.o(.text)
    smart_latency_clear                      0x100023a3   Thumb Code    12  main.o(.text)
    gap_evt_Callback                         0x100023af   Thumb Code   332  main.o(.text)
    gap_s_evt_handler_set                    0x100024fb   Thumb Code    32  main.o(.text)
    gap_s_att_c_evt_handler_set              0x1000251b   Thumb Code     6  main.o(.text)
    gap_s_gatt_report_handle_get             0x10002521   Thumb Code     6  main.o(.text)
    gap_s_gatt_read_rsp_set                  0x10002527   Thumb Code     6  main.o(.text)
    gap_s_gatt_write_err_rsp_set             0x1000252d   Thumb Code     6  main.o(.text)
    indicate_queue_size                      0x10002533   Thumb Code    26  main.o(.text)
    sw_indicate_timer_callback               0x1000254d   Thumb Code    22  main.o(.text)
    gap_s_gatt_data_send                     0x10002563   Thumb Code    38  main.o(.text)
    gap_s_gatt_data_send_report_confirmation_handle 0x10002589   Thumb Code   112  main.o(.text)
    gap_s_profile_data_read                  0x100025f9   Thumb Code    44  main.o(.text)
    gap_s_profile_data_write                 0x10002679   Thumb Code   212  main.o(.text)
    att_c_mtureq                             0x1000274d   Thumb Code     4  main.o(.text)
    att_c_findinforeq                        0x10002751   Thumb Code     6  main.o(.text)
    att_c_findbytypevaluereq                 0x10002757   Thumb Code    14  main.o(.text)
    att_c_readbytypereq                      0x10002765   Thumb Code    12  main.o(.text)
    att_c_readreq                            0x10002771   Thumb Code     6  main.o(.text)
    att_c_readblobreq                        0x10002777   Thumb Code     6  main.o(.text)
    att_c_readmultiplereq                    0x1000277d   Thumb Code     6  main.o(.text)
    att_c_readbygrouptypereq                 0x10002783   Thumb Code    12  main.o(.text)
    att_c_writereq                           0x1000278f   Thumb Code     6  main.o(.text)
    att_c_writecmdreq                        0x10002795   Thumb Code     6  main.o(.text)
    att_c_preparewritereq                    0x1000279b   Thumb Code    12  main.o(.text)
    att_c_executewritereq                    0x100027a7   Thumb Code     6  main.o(.text)
    att_c_confirmation                       0x100027ad   Thumb Code     6  main.o(.text)
    bm_s_bond_manager_idx_set                0x100027b3   Thumb Code     6  main.o(.text)
    bm_s_bond_manager_idx_get                0x100027b9   Thumb Code     4  main.o(.text)
    bm_s_bond_info_get                       0x100027bd   Thumb Code     6  main.o(.text)
    bm_s_bond_info_add                       0x100027c3   Thumb Code     6  main.o(.text)
    bm_s_bond_info_delete_all                0x100027c9   Thumb Code     6  main.o(.text)
    bm_s_bond_info_delete                    0x100027cf   Thumb Code     6  main.o(.text)
    ecdh_public_key_get                      0x100027d5   Thumb Code     4  main.o(.text)
    sys_mcu_clock_get                        0x100027d9   Thumb Code     6  main.o(.text)
    sys_mcu_clock_set                        0x100027df   Thumb Code     8  main.o(.text)
    sys_mcu_clock_div_set                    0x100027e7   Thumb Code     6  main.o(.text)
    sys_mcu_clock_div_get                    0x100027ed   Thumb Code     6  main.o(.text)
    sys_32k_clock_get                        0x100027f3   Thumb Code     6  main.o(.text)
    sys_32k_clock_set                        0x100027f9   Thumb Code     8  main.o(.text)
    pmu_32m_xo_on                            0x10002801   Thumb Code     4  main.o(.text)
    sys_32k_lpo_calibration                  0x10002805   Thumb Code    66  main.o(.text)
    sys_mcu_rc_calibration                   0x10002847   Thumb Code     8  main.o(.text)
    pmu_32m_xo_off                           0x1000284f   Thumb Code     6  main.o(.text)
    BBRFWrite                                0x10002855   Thumb Code     4  main.o(.text)
    BBRFRead                                 0x10002859   Thumb Code     6  main.o(.text)
    sys_mcu_rc_calibrationHF                 0x1000285f   Thumb Code    82  main.o(.text)
    pmu_wakeup_config                        0x100028b1   Thumb Code     6  main.o(.text)
    pmu_power_saving                         0x100028b7   Thumb Code    10  main.o(.text)
    pmu_mcu_off                              0x100028c1   Thumb Code     6  main.o(.text)
    pmu_system_off                           0x100028c7   Thumb Code     6  main.o(.text)
    pmu_reset                                0x100028cd   Thumb Code     6  main.o(.text)
    pmu_system_reset                         0x100028d3   Thumb Code     6  main.o(.text)
    pmu_mcu_reset                            0x100028d9   Thumb Code     6  main.o(.text)
    pmu_32m_xo_on_polling                    0x100028df   Thumb Code    18  main.o(.text)
    _enable_sw_ccm                           0x100028f1   Thumb Code     6  main.o(.text)
    ota_code_erase                           0x100028f7   Thumb Code   344  main.o(.text)
    ota_code_write                           0x10002a4f   Thumb Code     6  main.o(.text)
    ota_code_read                            0x10002a55   Thumb Code     4  main.o(.text)
    ota_code_info_read                       0x10002a59   Thumb Code    12  main.o(.text)
    ota_code_update                          0x10002a65   Thumb Code    10  main.o(.text)
    ble_sched_execute                        0x10002a6f   Thumb Code   250  main.o(.text)
    sys_rc_get                               0x10002b69   Thumb Code     4  main.o(.text)
    sys_fclk_get                             0x10002b6d   Thumb Code     6  main.o(.text)
    sys_pclk_get                             0x10002b73   Thumb Code     6  main.o(.text)
    sys_sclk_get                             0x10002b79   Thumb Code     6  main.o(.text)
    sys_hclk_get                             0x10002b7f   Thumb Code     6  main.o(.text)
    gpadc_init                               0x10002b85   Thumb Code    22  main.o(.text)
    pdm_set_amic_gain                        0x10002b9b   Thumb Code    58  main.o(.text)
    att_c_get_mtu_size                       0x10002bd5   Thumb Code    18  main.o(.text)
    capdet_set_bias                          0x10002be7   Thumb Code    56  main.o(.text)
    capdet_get_bias                          0x10002c1f   Thumb Code    40  main.o(.text)
    module_clock_off                         0x10002c47   Thumb Code    14  main.o(.text)
    module_clock_on                          0x10002c55   Thumb Code    14  main.o(.text)
    ll_length_req                            0x10002c63   Thumb Code    24  main.o(.text)
    get_pmu_reset_type                       0x10002c7b   Thumb Code     4  main.o(.text)
    reset_module                             0x10002c7f   Thumb Code    36  main.o(.text)
    SystemSleep                              0x10002ca3   Thumb Code    50  main.o(.text)
    ble_flash_authority                      0x10002cd5   Thumb Code    88  main.o(.text)
    ble_flash_erase                          0x10002d2d   Thumb Code    12  main.o(.text)
    ble_flash_read                           0x10002d39   Thumb Code    32  main.o(.text)
    ble_flash_write                          0x10002d59   Thumb Code    14  main.o(.text)
    ble_flash_write_burst                    0x10002d67   Thumb Code    14  main.o(.text)
    _checksum_cache_496kb                    0x10002d75   Thumb Code   110  main.o(.text)
    ota_code_update_496kb                    0x10002de3   Thumb Code   204  main.o(.text)
    gap_s_smart_update_latency               0x10002eaf   Thumb Code   370  main.o(.text)
    smart_update_latency_updatareq           0x10003021   Thumb Code   298  main.o(.text)
    syd8821_chip_confirm                     0x1000314b   Thumb Code    24  main.o(.text)
    APPtimer_enable                          0x10003163   Thumb Code    26  main.o(.text)
    APPtimer_disable                         0x1000317d   Thumb Code    24  main.o(.text)
    sched_callback_enable                    0x10003195   Thumb Code    26  main.o(.text)
    gap_s_adv_state_get                      0x100031af   Thumb Code     8  main.o(.text)
    gap_s_att_mtu_get                        0x100031b7   Thumb Code    18  main.o(.text)
    ble_SetTxPower                           0x100031c9   Thumb Code   470  main.o(.text)
    ll_set_replying_packet_timer             0x1000339f   Thumb Code    10  main.o(.text)
    amic_set_bias                            0x100033a9   Thumb Code   124  main.o(.text)
    gap_s_verdor_datas_get                   0x10003425   Thumb Code    26  main.o(.text)
    gap_s_verdor_datas_set                   0x1000343f   Thumb Code    78  main.o(.text)
    systemtick_delay                         0x1000348d   Thumb Code    34  main.o(.text)
    Setting4kUpdate                          0x100034af   Thumb Code   136  main.o(.text)
    SetDevAddr_toflash                       0x10003537   Thumb Code    72  main.o(.text)
    flash_peotect_key_confirm                0x1000357f   Thumb Code   126  main.o(.text)
    Confirm_NumericComrison                  0x10003621   Thumb Code    12  rom.o(.text)
    SmpRxPairingConfirm                      0x1000362d   Thumb Code   210  rom.o(.text)
    SmpRxPairingRandom                       0x100036ff   Thumb Code   652  rom.o(.text)
    SmpPairingReq                            0x1000398b   Thumb Code   450  rom.o(.text)
    SmpPairingPublicKey                      0x10003b4d   Thumb Code   146  rom.o(.text)
    SmpPasskeyEntry                          0x10003bdf   Thumb Code   226  rom.o(.text)
    PreCkQueSz                               0x10003cc1   Thumb Code   146  rom.o(.text)
    AttNotify                                0x10003d53   Thumb Code    56  rom.o(.text)
    AttIndication                            0x10003d8b   Thumb Code    56  rom.o(.text)
    HW_LLC_Sleep_WorkAround                  0x100044bd   Thumb Code    54  rom.o(.text)
    HW_WindowOffsetWorkAround                0x100044f3   Thumb Code    68  rom.o(.text)
    LLLengthRsp                              0x10004537   Thumb Code   194  rom.o(.text)
    LLLengthReq                              0x100045f9   Thumb Code   300  rom.o(.text)
    rvereseArray                             0x10004725   Thumb Code    26  rom.o(.text)
    LLStartENCReq                            0x1000473f   Thumb Code   152  rom.o(.text)
    LLRxStartENCRsp                          0x10004bd9   Thumb Code     2  rom.o(.text)
    Protocol_Hook_Callback                   0x10004bdb   Thumb Code   374  rom.o(.text)
    B01_Hook_Callback                        0x10004d51   Thumb Code    44  rom.o(.text)
    _rom_init                                0x10004d7d   Thumb Code    78  rom.o(.text)
    LLTerminateReq                           0x10004dcb   Thumb Code   120  rom.o(.text)
    _rom_gap_s_disconnect                    0x10004e43   Thumb Code    32  rom.o(.text)
    _rom_sys_32k_lpo_calibration             0x10004e63   Thumb Code   134  rom.o(.text)
    _sys_32k_lpo_calibration                 0x10004ee9   Thumb Code   136  rom.o(.text)
    _rom_sys_32k_clock_set                   0x10004f71   Thumb Code   118  rom.o(.text)
    _rom_gap_s_gatt_data_send                0x10004fe7   Thumb Code    72  rom.o(.text)
    _rom_gap_s_coex_adv_start                0x1000502f   Thumb Code    56  rom.o(.text)
    _rom_gap_s_coex_adv_stop                 0x10005067   Thumb Code    40  rom.o(.text)
    BBRXFIFORead                             0x1000508f   Thumb Code   494  rom.o(.text)
    LCTxPkt_Handler                          0x100054ad   Thumb Code   288  rom.o(.text)
    ConnectionLost                           0x100055cd   Thumb Code   122  rom.o(.text)
    LLC_IRQHandler                           0x10005647   Thumb Code   210  rom.o(.text)
    _sys_mcu_rc_calibration                  0x10005719   Thumb Code    54  rom.o(.text)
    _rom_sys_mcu_clock_div_get               0x1000574f   Thumb Code    12  rom.o(.text)
    _rom_sys_mcu_clock_get                   0x1000575b   Thumb Code     8  rom.o(.text)
    BBMCUClockSel                            0x10005763   Thumb Code   206  rom.o(.text)
    _rom_sys_mcu_clock_set                   0x10005831   Thumb Code    14  rom.o(.text)
    _rom_ota_code_erase                      0x1000583f   Thumb Code   116  rom.o(.text)
    _rom_gap_s_connection_latency_mode       0x100058b3   Thumb Code   168  rom.o(.text)
    RCOSC_validate                           0x10005a7d   Thumb Code    18  pmu.o(.text)
    syd8821_pmu_power_saving                 0x10005a8f   Thumb Code   386  pmu.o(.text)
    aes_ccm_encrypt                          0x10005fc7   Thumb Code   114  aec-ccm.o(.text)
    aes_ccm_decrypt                          0x10006039   Thumb Code   152  aec-ccm.o(.text)
    aes_ccm_verify                           0x100060d1   Thumb Code    96  aec-ccm.o(.text)
    CCM_NONCE                                0x10006131   Thumb Code    62  aec-ccm.o(.text)
    aes_encrypt                              0x10006a57   Thumb Code    24  aes.o(.text)
    aes_decrypt                              0x10006a6f   Thumb Code    26  aes.o(.text)
    __c89vsprintf                            0x10006a9d   Thumb Code    32  c89vsprintf.o(.text)
    memcmp                                   0x10006ac1   Thumb Code    90  memcmp.o(.text)
    __aeabi_memcpy                           0x10006b1b   Thumb Code   130  rt_memcpy.o(.text)
    __rt_memcpy                              0x10006b1b   Thumb Code     0  rt_memcpy.o(.text)
    _memset_w                                0x10006b9d   Thumb Code    26  rt_memclr.o(.text)
    _memset                                  0x10006bb7   Thumb Code    30  rt_memclr.o(.text)
    __aeabi_memclr                           0x10006bd5   Thumb Code     4  rt_memclr.o(.text)
    __rt_memclr                              0x10006bd5   Thumb Code     0  rt_memclr.o(.text)
    __aeabi_memclr4                          0x10006bd9   Thumb Code     0  rt_memclr.o(.text)
    __aeabi_memclr8                          0x10006bd9   Thumb Code     0  rt_memclr.o(.text)
    __rt_memclr_w                            0x10006bd9   Thumb Code     4  rt_memclr.o(.text)
    __aeabi_uread4                           0x10006bdd   Thumb Code    34  uread4.o(.text)
    __rt_uread4                              0x10006bdd   Thumb Code     0  uread4.o(.text)
    __aeabi_uwrite4                          0x10006bff   Thumb Code    16  uwrite4.o(.text)
    __rt_uwrite4                             0x10006bff   Thumb Code     0  uwrite4.o(.text)
    __aeabi_uidiv                            0x10006c0f   Thumb Code     0  aeabi_sdiv.o(.text)
    __aeabi_uidivmod                         0x10006c0f   Thumb Code    20  aeabi_sdiv.o(.text)
    __aeabi_idiv                             0x10006c23   Thumb Code     0  aeabi_sdiv.o(.text)
    __aeabi_idivmod                          0x10006c23   Thumb Code   326  aeabi_sdiv.o(.text)
    __use_two_region_memory                  0x10006d69   Thumb Code     2  heapauxi.o(.text)
    __rt_heap_escrow$2region                 0x10006d6b   Thumb Code     2  heapauxi.o(.text)
    __rt_heap_expand$2region                 0x10006d6d   Thumb Code     2  heapauxi.o(.text)
    __aeabi_dadd                             0x10007069   Thumb Code     0  daddsub.o(.text)
    _dadd                                    0x10007069   Thumb Code    26  daddsub.o(.text)
    __aeabi_dsub                             0x10007083   Thumb Code     0  daddsub.o(.text)
    _dsub                                    0x10007083   Thumb Code    22  daddsub.o(.text)
    __aeabi_drsub                            0x10007099   Thumb Code     0  daddsub.o(.text)
    _drsb                                    0x10007099   Thumb Code    28  daddsub.o(.text)
    __aeabi_ddiv                             0x100070c9   Thumb Code     0  ddiv.o(.text)
    _ddiv                                    0x100070c9   Thumb Code  1072  ddiv.o(.text)
    _drdiv                                   0x100074f9   Thumb Code    20  ddiv.o(.text)
    __aeabi_d2uiz                            0x10007511   Thumb Code     0  dfixui.o(.text)
    _dfixu                                   0x10007511   Thumb Code    68  dfixui.o(.text)
    __aeabi_i2d_normalise                    0x10007559   Thumb Code    66  dflti.o(.text)
    __aeabi_i2d                              0x1000759b   Thumb Code    16  dflti.o(.text)
    _dflt                                    0x1000759b   Thumb Code     0  dflti.o(.text)
    __aeabi_ui2d                             0x100075ab   Thumb Code     6  dflti.o(.text)
    _dfltu                                   0x100075ab   Thumb Code     0  dflti.o(.text)
    __aeabi_dmul                             0x100075b1   Thumb Code     0  dmul.o(.text)
    _dmul                                    0x100075b1   Thumb Code   558  dmul.o(.text)
    __aeabi_f2d                              0x100077f9   Thumb Code     0  f2d.o(.text)
    _f2d                                     0x100077f9   Thumb Code    80  f2d.o(.text)
    __aeabi_i2f_normalise                    0x1000784d   Thumb Code    72  fflti.o(.text)
    __aeabi_i2f                              0x10007895   Thumb Code    16  fflti.o(.text)
    _fflt                                    0x10007895   Thumb Code     0  fflti.o(.text)
    __aeabi_ui2f                             0x100078a5   Thumb Code     6  fflti.o(.text)
    _ffltu                                   0x100078a5   Thumb Code     0  fflti.o(.text)
    _printf_pre_padding                      0x100078ab   Thumb Code    44  _printf_pad.o(.text)
    _printf_post_padding                     0x100078d7   Thumb Code    34  _printf_pad.o(.text)
    _printf_truncate_signed                  0x100078f9   Thumb Code    18  _printf_truncate.o(.text)
    _printf_truncate_unsigned                0x1000790b   Thumb Code    18  _printf_truncate.o(.text)
    _printf_str                              0x1000791d   Thumb Code    82  _printf_str.o(.text)
    _printf_int_dec                          0x10007971   Thumb Code    90  _printf_dec.o(.text)
    _printf_charcount                        0x100079dd   Thumb Code    38  _printf_charcount.o(.text)
    _printf_char_common                      0x10007a0f   Thumb Code    32  _printf_char_common.o(.text)
    _sputc                                   0x10007a35   Thumb Code    10  _sputc.o(.text)
    _printf_wctomb                           0x10007a41   Thumb Code   182  _printf_wctomb.o(.text)
    _printf_longlong_dec                     0x10007afd   Thumb Code    94  _printf_longlong_dec.o(.text)
    _printf_longlong_oct                     0x10007b6d   Thumb Code    68  _printf_oct_int_ll.o(.text)
    _printf_int_oct                          0x10007bb1   Thumb Code    24  _printf_oct_int_ll.o(.text)
    _printf_ll_oct                           0x10007bc9   Thumb Code    10  _printf_oct_int_ll.o(.text)
    _printf_longlong_hex                     0x10007bdd   Thumb Code    88  _printf_hex_int_ll_ptr.o(.text)
    _printf_int_hex                          0x10007c35   Thumb Code    28  _printf_hex_int_ll_ptr.o(.text)
    _printf_ll_hex                           0x10007c51   Thumb Code    10  _printf_hex_int_ll_ptr.o(.text)
    _printf_hex_ptr                          0x10007c5b   Thumb Code    22  _printf_hex_int_ll_ptr.o(.text)
    __printf                                 0x10007c75   Thumb Code   386  __printf_flags_ss_wp.o(.text)
    _ll_udiv10                               0x10007dfd   Thumb Code   122  lludiv10.o(.text)
    _printf_int_common                       0x10007e77   Thumb Code   176  _printf_intcommon.o(.text)
    __lib_sel_fp_printf                      0x10007f29   Thumb Code     2  _printf_fp_dec.o(.text)
    _printf_fp_dec_real                      0x100080c3   Thumb Code   620  _printf_fp_dec.o(.text)
    _printf_cs_common                        0x1000833d   Thumb Code    22  _printf_char.o(.text)
    _printf_char                             0x10008353   Thumb Code    16  _printf_char.o(.text)
    _printf_string                           0x10008363   Thumb Code     8  _printf_char.o(.text)
    _printf_lcs_common                       0x1000836b   Thumb Code    22  _printf_wchar.o(.text)
    _printf_wchar                            0x10008381   Thumb Code    16  _printf_wchar.o(.text)
    _printf_wstring                          0x10008391   Thumb Code     8  _printf_wchar.o(.text)
    _wcrtomb                                 0x10008399   Thumb Code    64  _wcrtomb.o(.text)
    __rt_udiv10                              0x100083d9   Thumb Code    40  rtudiv10.o(.text)
    __user_setup_stackheap                   0x10008401   Thumb Code    62  sys_stackheap_outer.o(.text)
    __rt_ctype_table                         0x10008441   Thumb Code    16  rt_ctype_table.o(.text)
    __rt_locale                              0x10008451   Thumb Code     8  rt_locale_intlibspace.o(.text)
    _printf_fp_infnan                        0x10008459   Thumb Code   120  _printf_fp_infnan.o(.text)
    _btod_etento                             0x100084e1   Thumb Code   196  bigflt0.o(.text)
    _btod_d2e                                0x100085a9   Thumb Code    64  btod.o(.text)
    _btod_emul                               0x1000899f   Thumb Code    24  btod.o(.text)
    _btod_emuld                              0x100089b7   Thumb Code    60  btod.o(.text)
    _btod_ediv                               0x100089f3   Thumb Code    22  btod.o(.text)
    _btod_edivd                              0x10008a09   Thumb Code    60  btod.o(.text)
    exit                                     0x10008a51   Thumb Code    16  exit.o(.text)
    __user_libspace                          0x10008a61   Thumb Code     8  libspace.o(.text)
    __user_perproc_libspace                  0x10008a61   Thumb Code     0  libspace.o(.text)
    __user_perthread_libspace                0x10008a61   Thumb Code     0  libspace.o(.text)
    strcmp                                   0x10008a69   Thumb Code   132  strcmp.o(.text)
    _sys_exit                                0x10008af1   Thumb Code     8  sys_exit.o(.text)
    __I$use$semihosting                      0x10008afd   Thumb Code     0  use_no_semi.o(.text)
    __use_no_semihosting_swi                 0x10008afd   Thumb Code     2  use_no_semi.o(.text)
    __semihosting_library_function           0x10008aff   Thumb Code     0  indicate_semi.o(.text)
    syd8821_wfi                              0x10008b01   Thumb Code    66  pmu.o(PMU)
    __ARM_common_ll_muluu                    0x10008b4d   Thumb Code    48  btod.o(i.__ARM_common_ll_muluu)
    __ARM_common_switch8                     0x10008b7d   Thumb Code    26  main.o(i.__ARM_common_switch8)
    __ARM_fpclassify                         0x10008b99   Thumb Code    40  fpclassify.o(i.__ARM_fpclassify)
    _is_digit                                0x10008bc5   Thumb Code    14  __printf_wp.o(i._is_digit)
    _get_lc_numeric                          0x10008bd5   Thumb Code    44  lc_numeric_c.o(locale$$code)
    _get_lc_ctype                            0x10008c01   Thumb Code    44  lc_ctype_c.o(locale$$code)
    __aeabi_fadd                             0x10008c2d   Thumb Code     0  faddsub.o(x$fpl$fadd)
    _fadd                                    0x10008c2d   Thumb Code   134  faddsub.o(x$fpl$fadd)
    __aeabi_fsub                             0x10008cb9   Thumb Code     0  faddsub.o(x$fpl$fsub)
    _fsub                                    0x10008cb9   Thumb Code   204  faddsub.o(x$fpl$fsub)
    _printf_fp_dec                           0x10008d89   Thumb Code    16  printf1.o(x$fpl$printf1)
    __I$use$fp                               0x10008d98   Number         0  usenofp.o(x$fpl$usenofp)
    uart_ota_test                            0x10009026   Data       59984  main.o(.constdata)
    Region$$Table$$Base                      0x10017e2c   Number         0  anon$$obj.o(Region$$Table)
    Region$$Table$$Limit                     0x10017e4c   Number         0  anon$$obj.o(Region$$Table)
    __ctype                                  0x10017e75   Data           0  lc_ctype_c.o(locale$$data)
    GAP_Event                                0x20000000   Data           8  main.o(.data)
    connect_flag                             0x2000000e   Data           1  main.o(.data)
    update_latency_mode                      0x2000000f   Data           1  main.o(.data)
    latency_state                            0x20000010   Data           1  main.o(.data)
    timer_wait_cnt                           0x20000011   Data           1  main.o(.data)
    uart_data_temp_state                     0x20000012   Data           1  main.o(.data)
    ADV_DATA                                 0x20000013   Data          31  main.o(.data)
    ADV_DATA_SZ                              0x20000032   Data           2  main.o(.data)
    SCAN_DATA                                0x20000034   Data           1  main.o(.data)
    SCAN_DATA_SZ                             0x20000036   Data           2  main.o(.data)
    uart_ota_state                           0x2000003f   Data           1  uart_ota.o(.data)
    uart_master_ota_flag                     0x20000040   Data           1  uart_ota.o(.data)
    UART_CTRL                                0x20000044   Data           8  uart_drive.o(.data)
    ota_state                                0x2000007c   Data           1  ota.o(.data)
    ota_writecnt                             0x2000007d   Data           1  ota.o(.data)
    pevt                                     0x20000084   Data           4  ota.o(.data)
    SystemCoreClock                          0x20000088   Data           4  system_armcm0.o(.data)
    app_gap_evt_callback                     0x2000009c   Data           4  main.o(.data)
    enable_sw_ccm                            0x200000a2   Data           1  rom.o(.data)
    using_oob                                0x200000a3   Data           1  rom.o(.data)
    using_numeric_compairison                0x200000a4   Data           1  rom.o(.data)
    LL_Header                                0x200000a6   Data           1  rom.o(.data)
    isStartLlid                              0x200000a7   Data           1  rom.o(.data)
    LL_Header_len                            0x200000a8   Data           2  rom.o(.data)
    BB_CTRL                                  0x200000ac   Data           4  rom.o(.data)
    flash_hdr                                0x200000b0   Data           4  rom.o(.data)
    lclink                                   0x200000b4   Data           4  rom.o(.data)
    txpdu                                    0x200000b8   Data           4  rom.o(.data)
    flash                                    0x200000e4   Data           4  rom.o(.data)
    mic_len                                  0x200000e8   Data           4  rom.o(.data)
    l2capTmpBuf                              0x200000ec   Data           4  rom.o(.data)
    warning_report_evt                       0x200000f4   Data           5  rom.o(.data)
    att_handle_config_evt                    0x200000f9   Data           6  rom.o(.data)
    RxCounter                                0x200000ff   Data           8  rom.o(.data)
    TxCounter                                0x20000107   Data           8  rom.o(.data)
    ota_fw_info                              0x20000114   Data          24  uart_ota.o(.bss)
    uart_rx_buff                             0x2000012c   Data         259  uart_drive.o(.bss)
    uart_tx_buff                             0x2000022f   Data         256  uart_drive.o(.bss)
    ota_w                                    0x200003c4   Data          40  ota.o(.bss)
    profile                                  0x200003ec   Data        4096  main.o(.bss)
    smart_update_ctrol                       0x2000142a   Data          15  main.o(.bss)
    Nonce                                    0x2000143c   Data          13  rom.o(.bss)
    rxbuf                                    0x2000144c   Data         260  rom.o(.bss)
    encPayload                               0x20001550   Data         260  rom.o(.bss)
    att_write_evt                            0x20001654   Data         519  rom.o(.bss)
    __libspace_start                         0x2000186c   Data          96  libspace.o(.bss)
    __temporary_stack_top$libspace           0x200018cc   Data           0  libspace.o(.bss)



==============================================================================

Memory Map of the image

  Image Entry point : 0x100000c1

  Load Region LR_IROM1 (Base: 0x10000000, Size: 0x0001808c, Max: 0x0003e000, ABSOLUTE)

    Execution Region ER_IROM1 (Base: 0x10000000, Size: 0x00017f78, Max: 0x0003e000, ABSOLUTE)

    Base Addr    Size         Type   Attr      Idx    E Section Name        Object

    0x10000000   0x000000c0   Data   RO          425    RESET               startup_armcm0.o
    0x100000c0   0x00000008   Code   RO          666  * !!!main             c_p.l(__main.o)
    0x100000c8   0x0000003c   Code   RO          994    !!!scatter          c_p.l(__scatter.o)
    0x10000104   0x0000001a   Code   RO          996    !!handler_copy      c_p.l(__scatter_copy.o)
    0x1000011e   0x00000002   PAD
    0x10000120   0x0000001c   Code   RO          998    !!handler_zi        c_p.l(__scatter_zi.o)
    0x1000013c   0x00000002   Code   RO          775    .ARM.Collect$$_printf_percent$$00000000  c_p.l(_printf_percent.o)
    0x1000013e   0x0000000a   Code   RO          764    .ARM.Collect$$_printf_percent$$00000001  c_p.l(_printf_n.o)
    0x10000148   0x0000000a   Code   RO          766    .ARM.Collect$$_printf_percent$$00000002  c_p.l(_printf_p.o)
    0x10000152   0x0000000a   Code   RO          771    .ARM.Collect$$_printf_percent$$00000003  c_p.l(_printf_f.o)
    0x1000015c   0x0000000a   Code   RO          772    .ARM.Collect$$_printf_percent$$00000004  c_p.l(_printf_e.o)
    0x10000166   0x0000000a   Code   RO          773    .ARM.Collect$$_printf_percent$$00000005  c_p.l(_printf_g.o)
    0x10000170   0x0000000a   Code   RO          774    .ARM.Collect$$_printf_percent$$00000006  c_p.l(_printf_a.o)
    0x1000017a   0x0000000a   Code   RO          779    .ARM.Collect$$_printf_percent$$00000007  c_p.l(_printf_ll.o)
    0x10000184   0x0000000a   Code   RO          768    .ARM.Collect$$_printf_percent$$00000008  c_p.l(_printf_i.o)
    0x1000018e   0x0000000a   Code   RO          769    .ARM.Collect$$_printf_percent$$00000009  c_p.l(_printf_d.o)
    0x10000198   0x0000000a   Code   RO          770    .ARM.Collect$$_printf_percent$$0000000A  c_p.l(_printf_u.o)
    0x100001a2   0x0000000a   Code   RO          767    .ARM.Collect$$_printf_percent$$0000000B  c_p.l(_printf_o.o)
    0x100001ac   0x0000000a   Code   RO          765    .ARM.Collect$$_printf_percent$$0000000C  c_p.l(_printf_x.o)
    0x100001b6   0x0000000a   Code   RO          776    .ARM.Collect$$_printf_percent$$0000000D  c_p.l(_printf_lli.o)
    0x100001c0   0x0000000a   Code   RO          777    .ARM.Collect$$_printf_percent$$0000000E  c_p.l(_printf_lld.o)
    0x100001ca   0x0000000a   Code   RO          778    .ARM.Collect$$_printf_percent$$0000000F  c_p.l(_printf_llu.o)
    0x100001d4   0x0000000a   Code   RO          783    .ARM.Collect$$_printf_percent$$00000010  c_p.l(_printf_llo.o)
    0x100001de   0x0000000a   Code   RO          784    .ARM.Collect$$_printf_percent$$00000011  c_p.l(_printf_llx.o)
    0x100001e8   0x0000000a   Code   RO          780    .ARM.Collect$$_printf_percent$$00000012  c_p.l(_printf_l.o)
    0x100001f2   0x0000000a   Code   RO          762    .ARM.Collect$$_printf_percent$$00000013  c_p.l(_printf_c.o)
    0x100001fc   0x0000000a   Code   RO          763    .ARM.Collect$$_printf_percent$$00000014  c_p.l(_printf_s.o)
    0x10000206   0x0000000a   Code   RO          781    .ARM.Collect$$_printf_percent$$00000015  c_p.l(_printf_lc.o)
    0x10000210   0x0000000a   Code   RO          782    .ARM.Collect$$_printf_percent$$00000016  c_p.l(_printf_ls.o)
    0x1000021a   0x00000004   Code   RO          817    .ARM.Collect$$_printf_percent$$00000017  c_p.l(_printf_percent_end.o)
    0x1000021e   0x00000002   Code   RO          855    .ARM.Collect$$libinit$$00000000  c_p.l(libinit.o)
    0x10000220   0x00000000   Code   RO          878    .ARM.Collect$$libinit$$00000002  c_p.l(libinit2.o)
    0x10000220   0x00000000   Code   RO          880    .ARM.Collect$$libinit$$00000004  c_p.l(libinit2.o)
    0x10000220   0x00000000   Code   RO          883    .ARM.Collect$$libinit$$0000000A  c_p.l(libinit2.o)
    0x10000220   0x00000000   Code   RO          885    .ARM.Collect$$libinit$$0000000C  c_p.l(libinit2.o)
    0x10000220   0x00000000   Code   RO          887    .ARM.Collect$$libinit$$0000000E  c_p.l(libinit2.o)
    0x10000220   0x00000006   Code   RO          888    .ARM.Collect$$libinit$$0000000F  c_p.l(libinit2.o)
    0x10000226   0x00000000   Code   RO          890    .ARM.Collect$$libinit$$00000011  c_p.l(libinit2.o)
    0x10000226   0x0000000c   Code   RO          891    .ARM.Collect$$libinit$$00000012  c_p.l(libinit2.o)
    0x10000232   0x00000000   Code   RO          892    .ARM.Collect$$libinit$$00000013  c_p.l(libinit2.o)
    0x10000232   0x00000000   Code   RO          894    .ARM.Collect$$libinit$$00000015  c_p.l(libinit2.o)
    0x10000232   0x0000000a   Code   RO          895    .ARM.Collect$$libinit$$00000016  c_p.l(libinit2.o)
    0x1000023c   0x00000000   Code   RO          896    .ARM.Collect$$libinit$$00000017  c_p.l(libinit2.o)
    0x1000023c   0x00000000   Code   RO          898    .ARM.Collect$$libinit$$00000019  c_p.l(libinit2.o)
    0x1000023c   0x00000000   Code   RO          900    .ARM.Collect$$libinit$$0000001B  c_p.l(libinit2.o)
    0x1000023c   0x00000000   Code   RO          902    .ARM.Collect$$libinit$$0000001D  c_p.l(libinit2.o)
    0x1000023c   0x00000000   Code   RO          904    .ARM.Collect$$libinit$$0000001F  c_p.l(libinit2.o)
    0x1000023c   0x00000000   Code   RO          906    .ARM.Collect$$libinit$$00000021  c_p.l(libinit2.o)
    0x1000023c   0x00000000   Code   RO          908    .ARM.Collect$$libinit$$00000023  c_p.l(libinit2.o)
    0x1000023c   0x00000000   Code   RO          910    .ARM.Collect$$libinit$$00000025  c_p.l(libinit2.o)
    0x1000023c   0x00000000   Code   RO          914    .ARM.Collect$$libinit$$0000002C  c_p.l(libinit2.o)
    0x1000023c   0x00000000   Code   RO          916    .ARM.Collect$$libinit$$0000002E  c_p.l(libinit2.o)
    0x1000023c   0x00000000   Code   RO          918    .ARM.Collect$$libinit$$00000030  c_p.l(libinit2.o)
    0x1000023c   0x00000000   Code   RO          920    .ARM.Collect$$libinit$$00000032  c_p.l(libinit2.o)
    0x1000023c   0x00000002   Code   RO          921    .ARM.Collect$$libinit$$00000033  c_p.l(libinit2.o)
    0x1000023e   0x00000002   Code   RO          952    .ARM.Collect$$libshutdown$$00000000  c_p.l(libshutdown.o)
    0x10000240   0x00000000   Code   RO          978    .ARM.Collect$$libshutdown$$00000002  c_p.l(libshutdown2.o)
    0x10000240   0x00000000   Code   RO          980    .ARM.Collect$$libshutdown$$00000004  c_p.l(libshutdown2.o)
    0x10000240   0x00000000   Code   RO          983    .ARM.Collect$$libshutdown$$00000007  c_p.l(libshutdown2.o)
    0x10000240   0x00000000   Code   RO          986    .ARM.Collect$$libshutdown$$0000000A  c_p.l(libshutdown2.o)
    0x10000240   0x00000000   Code   RO          988    .ARM.Collect$$libshutdown$$0000000C  c_p.l(libshutdown2.o)
    0x10000240   0x00000000   Code   RO          991    .ARM.Collect$$libshutdown$$0000000F  c_p.l(libshutdown2.o)
    0x10000240   0x00000002   Code   RO          992    .ARM.Collect$$libshutdown$$00000010  c_p.l(libshutdown2.o)
    0x10000242   0x00000000   Code   RO          689    .ARM.Collect$$rtentry$$00000000  c_p.l(__rtentry.o)
    0x10000242   0x00000000   Code   RO          789    .ARM.Collect$$rtentry$$00000002  c_p.l(__rtentry2.o)
    0x10000242   0x00000006   Code   RO          801    .ARM.Collect$$rtentry$$00000004  c_p.l(__rtentry4.o)
    0x10000248   0x00000000   Code   RO          791    .ARM.Collect$$rtentry$$00000009  c_p.l(__rtentry2.o)
    0x10000248   0x00000004   Code   RO          792    .ARM.Collect$$rtentry$$0000000A  c_p.l(__rtentry2.o)
    0x1000024c   0x00000000   Code   RO          794    .ARM.Collect$$rtentry$$0000000C  c_p.l(__rtentry2.o)
    0x1000024c   0x00000008   Code   RO          795    .ARM.Collect$$rtentry$$0000000D  c_p.l(__rtentry2.o)
    0x10000254   0x00000002   Code   RO          864    .ARM.Collect$$rtexit$$00000000  c_p.l(rtexit.o)
    0x10000256   0x00000000   Code   RO          925    .ARM.Collect$$rtexit$$00000002  c_p.l(rtexit2.o)
    0x10000256   0x00000004   Code   RO          926    .ARM.Collect$$rtexit$$00000003  c_p.l(rtexit2.o)
    0x1000025a   0x00000006   Code   RO          927    .ARM.Collect$$rtexit$$00000004  c_p.l(rtexit2.o)
    0x10000260   0x00000006   Code   RO          511    .emb_text           syd8821_ble_slave.lib(rom.o)
    0x10000266   0x00000002   PAD
    0x10000268   0x00000038   Code   RO          650    .emb_text           c_p.l(rt_memcpy.o)
    0x100002a0   0x00000a94   Code   RO            3    .text               main.o
    0x10000d34   0x00000584   Code   RO          108    .text               uart_ota.o
    0x100012b8   0x0000020c   Code   RO          151    .text               uart_drive.o
    0x100014c4   0x00000358   Code   RO          188    .text               gpio.o
    0x1000181c   0x00000038   Code   RO          219    .text               delay.o
    0x10001854   0x00000090   Code   RO          239    .text               pad_mux_ctrl.o
    0x100018e4   0x00000204   Code   RO          264    .text               debug.o
    0x10001ae8   0x000001c4   Code   RO          321    .text               timer.o
    0x10001cac   0x000001bc   Code   RO          347    .text               ota.o
    0x10001e68   0x00000038   Code   RO          426    .text               startup_armcm0.o
    0x10001ea0   0x00000018   Code   RO          432    .text               system_armcm0.o
    0x10001eb8   0x00001768   Code   RO          458    .text               syd8821_ble_slave.lib(main.o)
    0x10003620   0x0000245c   Code   RO          512    .text               syd8821_ble_slave.lib(rom.o)
    0x10005a7c   0x000001ac   Code   RO          547    .text               syd8821_ble_slave.lib(pmu.o)
    0x10005c28   0x00000580   Code   RO          601    .text               syd8821_ble_slave.lib(aec-ccm.o)
    0x100061a8   0x000008f4   Code   RO          631    .text               syd8821_ble_slave.lib(aes.o)
    0x10006a9c   0x00000024   Code   RO          646    .text               c_p.l(c89vsprintf.o)
    0x10006ac0   0x0000005a   Code   RO          648    .text               c_p.l(memcmp.o)
    0x10006b1a   0x00000082   Code   RO          651    .text               c_p.l(rt_memcpy.o)
    0x10006b9c   0x00000040   Code   RO          654    .text               c_p.l(rt_memclr.o)
    0x10006bdc   0x00000022   Code   RO          656    .text               c_p.l(uread4.o)
    0x10006bfe   0x00000010   Code   RO          658    .text               c_p.l(uwrite4.o)
    0x10006c0e   0x0000015a   Code   RO          660    .text               c_p.l(aeabi_sdiv.o)
    0x10006d68   0x00000006   Code   RO          664    .text               c_p.l(heapauxi.o)
    0x10006d6e   0x00000002   PAD
    0x10006d70   0x00000358   Code   RO          668    .text               fz_ps.l(daddsub.o)
    0x100070c8   0x00000448   Code   RO          670    .text               fz_ps.l(ddiv.o)
    0x10007510   0x00000048   Code   RO          673    .text               fz_ps.l(dfixui.o)
    0x10007558   0x00000058   Code   RO          675    .text               fz_ps.l(dflti.o)
    0x100075b0   0x00000248   Code   RO          677    .text               fz_ps.l(dmul.o)
    0x100077f8   0x00000054   Code   RO          679    .text               fz_ps.l(f2d.o)
    0x1000784c   0x0000005e   Code   RO          687    .text               fz_ps.l(fflti.o)
    0x100078aa   0x0000004e   Code   RO          696    .text               c_p.l(_printf_pad.o)
    0x100078f8   0x00000024   Code   RO          698    .text               c_p.l(_printf_truncate.o)
    0x1000791c   0x00000052   Code   RO          700    .text               c_p.l(_printf_str.o)
    0x1000796e   0x00000002   PAD
    0x10007970   0x0000006c   Code   RO          702    .text               c_p.l(_printf_dec.o)
    0x100079dc   0x00000026   Code   RO          704    .text               c_p.l(_printf_charcount.o)
    0x10007a02   0x00000002   PAD
    0x10007a04   0x00000030   Code   RO          706    .text               c_p.l(_printf_char_common.o)
    0x10007a34   0x0000000a   Code   RO          708    .text               c_p.l(_sputc.o)
    0x10007a3e   0x00000002   PAD
    0x10007a40   0x000000bc   Code   RO          710    .text               c_p.l(_printf_wctomb.o)
    0x10007afc   0x00000070   Code   RO          713    .text               c_p.l(_printf_longlong_dec.o)
    0x10007b6c   0x00000070   Code   RO          719    .text               c_p.l(_printf_oct_int_ll.o)
    0x10007bdc   0x00000098   Code   RO          739    .text               c_p.l(_printf_hex_int_ll_ptr.o)
    0x10007c74   0x00000188   Code   RO          759    .text               c_p.l(__printf_flags_ss_wp.o)
    0x10007dfc   0x0000007a   Code   RO          805    .text               c_p.l(lludiv10.o)
    0x10007e76   0x000000b0   Code   RO          807    .text               c_p.l(_printf_intcommon.o)
    0x10007f26   0x00000002   PAD
    0x10007f28   0x00000414   Code   RO          809    .text               c_p.l(_printf_fp_dec.o)
    0x1000833c   0x0000002e   Code   RO          813    .text               c_p.l(_printf_char.o)
    0x1000836a   0x0000002e   Code   RO          815    .text               c_p.l(_printf_wchar.o)
    0x10008398   0x00000040   Code   RO          818    .text               c_p.l(_wcrtomb.o)
    0x100083d8   0x00000028   Code   RO          820    .text               c_p.l(rtudiv10.o)
    0x10008400   0x0000003e   Code   RO          822    .text               c_p.l(sys_stackheap_outer.o)
    0x1000843e   0x00000002   PAD
    0x10008440   0x00000010   Code   RO          825    .text               c_p.l(rt_ctype_table.o)
    0x10008450   0x00000008   Code   RO          830    .text               c_p.l(rt_locale_intlibspace.o)
    0x10008458   0x00000088   Code   RO          832    .text               c_p.l(_printf_fp_infnan.o)
    0x100084e0   0x000000c8   Code   RO          834    .text               c_p.l(bigflt0.o)
    0x100085a8   0x000004a8   Code   RO          837    .text               c_p.l(btod.o)
    0x10008a50   0x00000010   Code   RO          844    .text               c_p.l(exit.o)
    0x10008a60   0x00000008   Code   RO          860    .text               c_p.l(libspace.o)
    0x10008a68   0x00000088   Code   RO          875    .text               c_p.l(strcmp.o)
    0x10008af0   0x0000000c   Code   RO          922    .text               c_p.l(sys_exit.o)
    0x10008afc   0x00000002   Code   RO          941    .text               c_p.l(use_no_semi.o)
    0x10008afe   0x00000000   Code   RO          943    .text               c_p.l(indicate_semi.o)
    0x10008afe   0x00000002   PAD
    0x10008b00   0x0000004c   Code   RO          548    PMU                 syd8821_ble_slave.lib(pmu.o)
    0x10008b4c   0x00000030   Code   RO          839    i.__ARM_common_ll_muluu  c_p.l(btod.o)
    0x10008b7c   0x0000001a   Code   RO          478    i.__ARM_common_switch8  syd8821_ble_slave.lib(main.o)
    0x10008b96   0x00000002   PAD
    0x10008b98   0x0000002c   Code   RO          858    i.__ARM_fpclassify  m_ps.l(fpclassify.o)
    0x10008bc4   0x0000000e   Code   RO          752    i._is_digit         c_p.l(__printf_wp.o)
    0x10008bd2   0x00000002   PAD
    0x10008bd4   0x0000002c   Code   RO          842    locale$$code        c_p.l(lc_numeric_c.o)
    0x10008c00   0x0000002c   Code   RO          869    locale$$code        c_p.l(lc_ctype_c.o)
    0x10008c2c   0x0000008c   Code   RO          681    x$fpl$fadd          fz_ps.l(faddsub.o)
    0x10008cb8   0x000000d0   Code   RO          683    x$fpl$fsub          fz_ps.l(faddsub.o)
    0x10008d88   0x00000010   Code   RO          785    x$fpl$printf1       fz_ps.l(printf1.o)
    0x10008d98   0x00000000   Code   RO          787    x$fpl$usenofp       fz_ps.l(usenofp.o)
    0x10008d98   0x0000ecde   Data   RO            5    .constdata          main.o
    0x10017a76   0x00000032   Data   RO          514    .constdata          syd8821_ble_slave.lib(rom.o)
    0x10017aa8   0x00000020   Data   RO          549    .constdata          syd8821_ble_slave.lib(pmu.o)
    0x10017ac8   0x0000020b   Data   RO          632    .constdata          syd8821_ble_slave.lib(aes.o)
    0x10017cd3   0x00000080   Data   RO          671    .constdata          fz_ps.l(ddiv.o)
    0x10017d53   0x00000001   PAD
    0x10017d54   0x00000008   Data   RO          711    .constdata          c_p.l(_printf_wctomb.o)
    0x10017d5c   0x00000028   Data   RO          740    .constdata          c_p.l(_printf_hex_int_ll_ptr.o)
    0x10017d84   0x00000011   Data   RO          760    .constdata          c_p.l(__printf_flags_ss_wp.o)
    0x10017d95   0x00000003   PAD
    0x10017d98   0x00000094   Data   RO          835    .constdata          c_p.l(bigflt0.o)
    0x10017e2c   0x00000020   Data   RO          993    Region$$Table       anon$$obj.o
    0x10017e4c   0x0000001c   Data   RO          841    locale$$data        c_p.l(lc_numeric_c.o)
    0x10017e68   0x00000110   Data   RO          868    locale$$data        c_p.l(lc_ctype_c.o)


    Execution Region RW_IRAM1 (Base: 0x20000000, Size: 0x000068d0, Max: 0x00028000, ABSOLUTE)

    Base Addr    Size         Type   Attr      Idx    E Section Name        Object

    0x20000000   0x0000003f   Data   RW            6    .data               main.o
    0x2000003f   0x00000002   Data   RW          110    .data               uart_ota.o
    0x20000041   0x00000003   PAD
    0x20000044   0x00000008   Data   RW          153    .data               uart_drive.o
    0x2000004c   0x0000000c   Data   RW          189    .data               gpio.o
    0x20000058   0x00000008   Data   RW          240    .data               pad_mux_ctrl.o
    0x20000060   0x00000008   Data   RW          266    .data               debug.o
    0x20000068   0x00000014   Data   RW          323    .data               timer.o
    0x2000007c   0x0000000c   Data   RW          349    .data               ota.o
    0x20000088   0x00000004   Data   RW          433    .data               system_armcm0.o
    0x2000008c   0x00000014   Data   RW          460    .data               syd8821_ble_slave.lib(main.o)
    0x200000a0   0x0000006f   Data   RW          515    .data               syd8821_ble_slave.lib(rom.o)
    0x2000010f   0x00000001   PAD
    0x20000110   0x00000004   Data   RW          550    .data               syd8821_ble_slave.lib(pmu.o)
    0x20000114   0x00000018   Zero   RW          109    .bss                uart_ota.o
    0x2000012c   0x00000203   Zero   RW          152    .bss                uart_drive.o
    0x2000032f   0x00000080   Zero   RW          265    .bss                debug.o
    0x200003af   0x00000001   PAD
    0x200003b0   0x00000014   Zero   RW          322    .bss                timer.o
    0x200003c4   0x00000028   Zero   RW          348    .bss                ota.o
    0x200003ec   0x0000104d   Zero   RW          459    .bss                syd8821_ble_slave.lib(main.o)
    0x20001439   0x00000003   PAD
    0x2000143c   0x0000041f   Zero   RW          513    .bss                syd8821_ble_slave.lib(rom.o)
    0x2000185b   0x00000010   Zero   RW          602    .bss                syd8821_ble_slave.lib(aec-ccm.o)
    0x2000186b   0x00000001   PAD
    0x2000186c   0x00000060   Zero   RW          861    .bss                c_p.l(libspace.o)
    0x200018cc   0x00000004   PAD
    0x200018d0   0x00004000   Zero   RW          424    HEAP                startup_armcm0.o
    0x200058d0   0x00001000   Zero   RW          423    STACK               startup_armcm0.o


==============================================================================

Image component sizes


      Code (inc. data)   RO Data    RW Data    ZI Data      Debug   Object Name

       516         38          0          8        128       3545   debug.o
        56          0          0          0          0        696   delay.o
       856         16          0         12          0      45513   gpio.o
      2708        702      60638         63          0      62251   main.o
       444         36          0         12         40       3638   ota.o
       144          4          0          8          0       1805   pad_mux_ctrl.o
        56         26        192          0      20480        712   startup_armcm0.o
        24          8          0          4          0        861   system_armcm0.o
       452         10          0         20         20       3036   timer.o
       524         16          0          8        515       3678   uart_drive.o
      1412        446          0          2         24      39528   uart_ota.o

    ----------------------------------------------------------------------
      7192       1302      60862        140      21208     165263   Object Totals
         0          0         32          0          0          0   (incl. Generated)
         0          0          0          3          1          0   (incl. Padding)

    ----------------------------------------------------------------------

      Code (inc. data)   RO Data    RW Data    ZI Data      Debug   Library Member Name

         8          0          0          0          0         68   __main.o
       392          6         17          0          0         76   __printf_flags_ss_wp.o
        14          0          0          0          0         60   __printf_wp.o
         0          0          0          0          0          0   __rtentry.o
        12          0          0          0          0          0   __rtentry2.o
         6          0          0          0          0          0   __rtentry4.o
        60          8          0          0          0          0   __scatter.o
        26          0          0          0          0          0   __scatter_copy.o
        28          0          0          0          0          0   __scatter_zi.o
        10          0          0          0          0          0   _printf_a.o
        10          0          0          0          0          0   _printf_c.o
        46          0          0          0          0        100   _printf_char.o
        48          6          0          0          0         88   _printf_char_common.o
        38          0          0          0          0         60   _printf_charcount.o
        10          0          0          0          0          0   _printf_d.o
       108         18          0          0          0         76   _printf_dec.o
        10          0          0          0          0          0   _printf_e.o
        10          0          0          0          0          0   _printf_f.o
      1044         14          0          0          0        176   _printf_fp_dec.o
       136         16          0          0          0         76   _printf_fp_infnan.o
        10          0          0          0          0          0   _printf_g.o
       152          4         40          0          0        148   _printf_hex_int_ll_ptr.o
        10          0          0          0          0          0   _printf_i.o
       176          0          0          0          0         84   _printf_intcommon.o
        10          0          0          0          0          0   _printf_l.o
        10          0          0          0          0          0   _printf_lc.o
        10          0          0          0          0          0   _printf_ll.o
        10          0          0          0          0          0   _printf_lld.o
        10          0          0          0          0          0   _printf_lli.o
        10          0          0          0          0          0   _printf_llo.o
        10          0          0          0          0          0   _printf_llu.o
        10          0          0          0          0          0   _printf_llx.o
       112         18          0          0          0         76   _printf_longlong_dec.o
        10          0          0          0          0          0   _printf_ls.o
        10          0          0          0          0          0   _printf_n.o
        10          0          0          0          0          0   _printf_o.o
       112         10          0          0          0        112   _printf_oct_int_ll.o
        10          0          0          0          0          0   _printf_p.o
        78          0          0          0          0        100   _printf_pad.o
         2          0          0          0          0          0   _printf_percent.o
         4          0          0          0          0          0   _printf_percent_end.o
        10          0          0          0          0          0   _printf_s.o
        82          0          0          0          0         72   _printf_str.o
        36          0          0          0          0         76   _printf_truncate.o
        10          0          0          0          0          0   _printf_u.o
        46          0          0          0          0        100   _printf_wchar.o
       188          6          8          0          0         80   _printf_wctomb.o
        10          0          0          0          0          0   _printf_x.o
        10          0          0          0          0         60   _sputc.o
        64          0          0          0          0         72   _wcrtomb.o
       346          0          0          0          0         92   aeabi_sdiv.o
       200          4        148          0          0         80   bigflt0.o
      1240         12          0          0          0        316   btod.o
        36          4          0          0          0         68   c89vsprintf.o
        16          0          0          0          0         68   exit.o
         6          0          0          0          0        136   heapauxi.o
         0          0          0          0          0          0   indicate_semi.o
        44         10        272          0          0         76   lc_ctype_c.o
        44         10         28          0          0         76   lc_numeric_c.o
         2          0          0          0          0          0   libinit.o
        30          0          0          0          0          0   libinit2.o
         2          0          0          0          0          0   libshutdown.o
         2          0          0          0          0          0   libshutdown2.o
         8          4          0          0         96         68   libspace.o
       122          0          0          0          0         72   lludiv10.o
        90          0          0          0          0         68   memcmp.o
        16          4          0          0          0         76   rt_ctype_table.o
         8          4          0          0          0         68   rt_locale_intlibspace.o
        64          0          0          0          0        108   rt_memclr.o
       186          0          0          0          0        144   rt_memcpy.o
         2          0          0          0          0          0   rtexit.o
        10          0          0          0          0          0   rtexit2.o
        40          0          0          0          0         60   rtudiv10.o
       136          4          0          0          0         72   strcmp.o
        12          4          0          0          0         60   sys_exit.o
        62          0          0          0          0         80   sys_stackheap_outer.o
        34          0          0          0          0         60   uread4.o
         2          0          0          0          0         68   use_no_semi.o
        16          0          0          0          0         60   uwrite4.o
       856         20          0          0          0        208   daddsub.o
      1096         26        128          0          0        112   ddiv.o
        72          4          0          0          0         68   dfixui.o
        88          0          0          0          0         92   dflti.o
       584         26          0          0          0         84   dmul.o
        84          4          0          0          0         60   f2d.o
       348          8          0          0          0        160   faddsub.o
        94          0          0          0          0         92   fflti.o
        16          4          0          0          0         76   printf1.o
         0          0          0          0          0          0   usenofp.o
        44          4          0          0          0         60   fpclassify.o
      1408          4          0          0         16       8115   aec-ccm.o
      2292         12        523          0          0       3442   aes.o
      6018        378          0         20       4173     119237   main.o
       504         34         32          4          0      11032   pmu.o
      9314        452         50        111       1055      24191   rom.o

    ----------------------------------------------------------------------
     28864       1142       1250        136       5348     170765   Library Totals
        22          0          4          1          8          0   (incl. Padding)

    ----------------------------------------------------------------------

      Code (inc. data)   RO Data    RW Data    ZI Data      Debug   Library Name

      6024        166        513          0         96       3736   c_p.l
      3238         92        128          0          0        952   fz_ps.l
        44          4          0          0          0         60   m_ps.l
     19536        880        605        135       5244     166017   syd8821_ble_slave.lib

    ----------------------------------------------------------------------
     28864       1142       1250        136       5348     170765   Library Totals

    ----------------------------------------------------------------------

==============================================================================


      Code (inc. data)   RO Data    RW Data    ZI Data      Debug   

     36056       2444      62112        276      26556     332644   Grand Totals
     36056       2444      62112        276      26556     332644   ELF Image Totals
     36056       2444      62112        276          0          0   ROM Totals

==============================================================================

    Total RO  Size (Code + RO Data)                98168 (  95.87kB)
    Total RW  Size (RW Data + ZI Data)             26832 (  26.20kB)
    Total ROM Size (Code + RO Data + RW Data)      98444 (  96.14kB)

==============================================================================

