:020000041000EA
:10000000181000201D0600102506001027060010FD
:1000100000000000000000000000000000000000E0
:100020000000000000000000000000002906001091
:1000300000000000000000002B0600102D0600103C
:10004000BF0400102F0600102F0600102F0600100E
:100050002F0600102F0600102F0600102F0600108C
:100060002F0600102F0600102F0600102F0600107C
:100070002F0600102F0600102F0600102F0600106C
:100080002F0600102F0600102F0600102F0600105C
:100090002F0600102F0600102F0600102F0600104C
:1000A0002F0600102F0600102F0600102F0600103C
:1000B0002F0600102F0600102F0600102F0600102C
:1000C0000348854600F0C4FA00480047FF000010CE
:1000D0001810002070B504460D46002C0ED10120EA
:1000E000000485420AD1142000F034FA102000F0F8
:1000F00058F9002802D1222000F014F970BD002424
:1001000072B60021192000F060FA0021172000F0DB
:100110005CFA0021222000F058FA00210A2000F0A9
:1001200054FA0121192000F0D0F80121172000F025
:10013000CCF80121222000F0C8F801210A2000F0AB
:10014000C4F800210E2000F040FA00210F2000F03A
:100150003CFA0021102000F038FA0021112000F0B4
:1001600034FA00210E2000F048F800210F2000F0A2
:1001700044F80021102000F040F80021112000F088
:100180003CF801221146102000F02EF9184800F02A
:1001900031F862B6002411E0192000F0C3F81720EE
:1001A00000F0C0F8222000F0BDF80A2000F0BAF8F4
:1001B000FF20F53000F0CEF9601CC4B2042CEBDB5C
:1001C00015E00A2000F0AEF80E2000F0EAF8002852
:1001D00002D1192000F0A6F80F2000F0E2F8002864
:1001E00002D1172000F09EF8642000F0B3F9E8E790
:1001F000D5000010D3490860704770B5024620242E
:100200001440630920251446AC430125A540284627
:100210009C00CD4D2C592075050A6575050CA575FA
:10022000050EE575002B13D0002908D1C74D6D7D53
:100230000543ECB2C54D6D7DC44E747515E0C34DDC
:100240006D7D85432C46C14D6D7DC04E74750CE0AF
:10025000002905D1BD4C64680443BC4D6C6004E0CA
:10026000BA4C64688443B94D6C6070BD70B5024689
:1002700020241440630920251446AC430125A540E1
:100280002846002B13D0002908D0B04DED7D054342
:10029000ECB2AE4DED7DAD4EF47515E0AB4DED7DA0
:1002A00085432C46A94DED7DA84EF4750CE0002940
:1002B00005D0A64CE4680443A44DEC6004E0A34CD4
:1002C000E4688443A14DEC6070BD30B50B4620243A
:1002D0000440610920250446AC430125A5402A4677
:1002E0008C00994D2C592276150A6576150CA57649
:1002F000150EE576002B0AD08C00934D2C592271F7
:10030000150A6571150CA571150EE57109E08C00D3
:100310008D4D2C592272150A6572150CA572150E99
:10032000E57230BD10B5202303405909202403464F
:10033000A34301249C4022468B00834CE3581A734C
:10034000140A5C73140C9C73140EDC7310BD10B58E
:1003500020230340590920240346A34301249C4041
:1003600022468B00784CE3581A71140A5C71140C05
:100370009C71140EDC7110BD10B520230340590987
:1003800020240346A34301249C4022468B006E4C4C
:10039000E3581A72140A5C72140C9C72140EDC720C
:1003A00010BD30B5014620200840420920240846EF
:1003B000A0430124844023469000634C20584030E1
:1003C000102404192578284665782D022843A5783D
:1003D0002D042843E478240620431840002801D047
:1003E000012030BD0020FCE7F0B503460C46154661
:1003F00020221A40500920261A46B2430126964070
:100400003146002C0BD182004F4EB258403211724F
:100410000E0A56720E0C96720E0ED6720AE082000A
:10042000494EB258403211710E0A56710E0C967137
:100430000E0ED671002D0BD18200434EB2582032E1
:1004400011760E0A56760E0C96760E0ED6760AE0C9
:1004500082003D4EB258203211750E0A56750E0CB0
:1004600096750E0ED6758200374EB2582032117135
:100470000E0A56710E0C96710E0ED6710022002ACD
:1004800005DBD706FF0E0126BE40314F3E6000BFA0
:10049000F0BD10B520230340590920240346A3438F
:1004A00001249C4022468B00274CE35820331A72CB
:1004B000140A5C72140C9C72140EDC7210BD70B5C0
:1004C00000243CE0A0002049085840301421411885
:1004D0000A7810464A78120210438A7812041043B0
:1004E000C97809060843A100174A515820310A4625
:1004F0001378194653781B02194393781B04194348
:10050000D2781206114308400546002D00D114E0B0
:100510000C480068002804D029462046094A126881
:100520009047A0000849085840300575290A4175D0
:10053000290C8175290EC17500BF601CC4B2022C44
:10054000C0DB70BD080000200000002040100050FB
:1005500000E100E0002109E0002201E0531C9AB212
:100560007D239B019A42F9DB4B1C99B28142F3DB5C
:100570007047002107E0002201E0531C9AB2092ACB
:10058000FBDB4B1C99B28142F5DB704710B501468D
:10059000272901DA002902DA0020C04310BDCC0768
:1005A000E40F202904DA4A101B480068835C05E048
:1005B00008462038421018484068835C002C01D05F
:1005C0001811EBE71807000FE8E770B5272801DAE4
:1005D000002800DA70BD0907090FC407E40F2028BE
:1005E00004DA43100C4E3668F21805E00646203E49
:1005F0007310094E7668F2181578002C01D00F267A
:1006000000E0F0263540002C01D00E07310E2E46BA
:100610000E43167000BFDDE70C0000200448804741
:1006200004480047FEE7FEE7FEE7FEE7FEE7FEE7D9
:1006300041060010C10000100348044908607047DB
:10064000014802490860704740787D01140000208D
:10065000064C0125064E05E0E36807CC2B430C3C15
:1006600098471034B442F7D3FFF72EFD94060010DC
:10067000B406001002E008C8121F08C1002AFAD10F
:1006800070477047002001E001C1121F002AFBD112
:1006900070470000B40600100000002018000000A1
:1006A00074060010CC060010180000200010000096
:1006B0008406001000000050800000500000000080
:0C06C000601000508C10005040787D014C
:04000005100000C126
:00000001FF
