Component: ARM Compiler 5.06 (build 20) Tool: armlink [4d35a3]

==============================================================================

Section Cross References

    main.o(.text) refers to lcctrl.o(.text) for gap_c_scan_parameters_set
    main.o(.text) refers to memcpya.o(.text) for __aeabi_memcpy4
    main.o(.text) refers to uread4.o(.text) for __aeabi_uread4
    main.o(.text) refers to strstr.o(.text) for strstr
    main.o(.text) refers to memcmp.o(.text) for memcmp
    main.o(.text) refers to debug.o(.text) for dbg_printf
    main.o(.text) refers to uwrite4.o(.text) for __aeabi_uwrite4
    main.o(.text) refers to pad_mux_ctrl.o(.text) for pad_mux_write
    main.o(.text) refers to gpio.o(.text) for gpo_config
    main.o(.text) refers to uart_drive.o(.text) for uart_1_init
    main.o(.text) refers to memseta.o(.text) for __aeabi_memclr
    main.o(.text) refers to uart_ota.o(.text) for uart_slave_ota_handle
    main.o(.text) refers to delay.o(.text) for delay_ms
    main.o(.text) refers to main.o(.constdata) for .constdata
    main.o(.text) refers to main.o(.data) for bd_addr
    main.o(.text) refers to uart_drive.o(.bss) for uart_rx_buff
    main.o(.text) refers to uart_ota.o(.data) for uart_master_ota_flag
    uart_drive.o(.text) refers to pad_mux_ctrl.o(.text) for pad_mux_write
==============================================================================

Removing Unused input sections from the image.

    Removing main.o(.rev16_text), (4 bytes).
    Removing main.o(.revsh_text), (4 bytes).
    Removing uart_drive.o(.rev16_text), (4 bytes).
    Removing uart_drive.o(.revsh_text), (4 bytes).
    Removing uart_drive.o(.text), (24 bytes).
    Removing uart_ota.o(.rev16_text), (4 bytes).
    Removing uart_ota.o(.revsh_text), (4 bytes).
    Removing gpio.o(.rev16_text), (4 bytes).
    Removing gpio.o(.revsh_text), (4 bytes).
    Removing gpio.o(.text), (12 bytes).
    Removing gpio.o(.text), (100 bytes).
    Removing gpio.o(.text), (48 bytes).
    Removing gpio.o(.text), (48 bytes).
    Removing gpio.o(.text), (48 bytes).
    Removing gpio.o(.text), (172 bytes).
    Removing gpio.o(.text), (48 bytes).
    Removing delay.o(.rev16_text), (4 bytes).
    Removing delay.o(.revsh_text), (4 bytes).
==============================================================================

Image Symbol Table

    Local Symbols

    Symbol Name                              Value     Ov Type        Size  Object(Section)

    ../clib/../cmprslib/zerorunl2.c          0x00000000   Number         0  __dczerorl2.o ABSOLUTE
    ../clib/microlib/division.c              0x00000000   Number         0  uidiv.o ABSOLUTE
    ../clib/microlib/division.c              0x00000000   Number         0  idiv.o ABSOLUTE
    ../clib/microlib/division.c              0x00000000   Number         0  uldiv.o ABSOLUTE
    ../clib/microlib/init/entry.s            0x00000000   Number         0  entry10b.o ABSOLUTE
    ../clib/microlib/init/entry.s            0x00000000   Number         0  entry11b.o ABSOLUTE
    ../clib/microlib/init/entry.s            0x00000000   Number         0  entry11a.o ABSOLUTE
    ../clib/microlib/init/entry.s            0x00000000   Number         0  entry5.o ABSOLUTE
    ../clib/microlib/init/entry.s            0x00000000   Number         0  entry2.o ABSOLUTE
    ../clib/microlib/init/entry.s            0x00000000   Number         0  entry10a.o ABSOLUTE
    ../clib/microlib/init/entry.s            0x00000000   Number         0  entry9b.o ABSOLUTE
    ../clib/microlib/init/entry.s            0x00000000   Number         0  entry9a.o ABSOLUTE
    ../clib/microlib/init/entry.s            0x00000000   Number         0  entry.o ABSOLUTE
    ../clib/microlib/init/entry.s            0x00000000   Number         0  entry7a.o ABSOLUTE
    ../clib/microlib/init/entry.s            0x00000000   Number         0  entry8b.o ABSOLUTE
    ../clib/microlib/init/entry.s            0x00000000   Number         0  entry8a.o ABSOLUTE
    ../clib/microlib/init/entry.s            0x00000000   Number         0  entry7b.o ABSOLUTE
    ../clib/microlib/longlong.c              0x00000000   Number         0  llsshr.o ABSOLUTE
    ../clib/microlib/longlong.c              0x00000000   Number         0  llushr.o ABSOLUTE
    ../clib/microlib/longlong.c              0x00000000   Number         0  llshl.o ABSOLUTE
    ../clib/microlib/malloc/malloc.c         0x00000000   Number         0  mallocr.o ABSOLUTE
    ../clib/microlib/malloc/malloc.c         0x00000000   Number         0  malloc.o ABSOLUTE
    ../clib/microlib/malloc/malloc.c         0x00000000   Number         0  mallocra.o ABSOLUTE
    ../clib/microlib/malloc/malloc.c         0x00000000   Number         0  malloca.o ABSOLUTE
    ../clib/microlib/malloc/mvars.c          0x00000000   Number         0  mvars.o ABSOLUTE
    ../clib/microlib/printf/printf.c         0x00000000   Number         0  printfa.o ABSOLUTE
    ../clib/microlib/stdio/fputc.c           0x00000000   Number         0  fputc.o ABSOLUTE
    ../clib/microlib/stdio/semi.s            0x00000000   Number         0  semi.o ABSOLUTE
    ../clib/microlib/stdio/streams.c         0x00000000   Number         0  stdout.o ABSOLUTE
    ../clib/microlib/string/memcmp.c         0x00000000   Number         0  memcmp.o ABSOLUTE
    ../clib/microlib/string/memcpy.c         0x00000000   Number         0  memcpya.o ABSOLUTE
    ../clib/microlib/string/memcpy.c         0x00000000   Number         0  memcpyb.o ABSOLUTE
    ../clib/microlib/string/memset.c         0x00000000   Number         0  memseta.o ABSOLUTE
    ../clib/microlib/string/strstr.c         0x00000000   Number         0  strstr.o ABSOLUTE
    ../clib/microlib/stubs.s                 0x00000000   Number         0  iusesemip.o ABSOLUTE
    ../clib/microlib/stubs.s                 0x00000000   Number         0  iusefp.o ABSOLUTE
    ../clib/microlib/unhosted.c              0x00000000   Number         0  uread4.o ABSOLUTE
    ../clib/microlib/unhosted.c              0x00000000   Number         0  uwrite4.o ABSOLUTE
    ../fplib/microlib/fpadd.c                0x00000000   Number         0  dadd.o ABSOLUTE
    ../fplib/microlib/fpdiv.c                0x00000000   Number         0  ddiv.o ABSOLUTE
    ../fplib/microlib/fpepilogue.c           0x00000000   Number         0  depilogue.o ABSOLUTE
    ../fplib/microlib/fpfix.c                0x00000000   Number         0  dfixul.o ABSOLUTE
    ../fplib/microlib/fpmul.c                0x00000000   Number         0  dmul.o ABSOLUTE
    ..\..\..\Rtt\SEGGER_RTT.c                0x00000000   Number         0  segger_rtt.o ABSOLUTE
    ..\..\..\Rtt\SEGGER_RTT_Syscalls_KEIL.c  0x00000000   Number         0  segger_rtt_syscalls_keil.o ABSOLUTE
    ..\..\..\Rtt\SEGGER_RTT_printf.c         0x00000000   Number         0  segger_rtt_printf.o ABSOLUTE
    ..\..\..\Source\delay.c                  0x00000000   Number         0  delay.o ABSOLUTE
    ..\..\..\Source\gpio.c                   0x00000000   Number         0  gpio.o ABSOLUTE
    ..\..\..\Source\pad_mux_ctrl.c           0x00000000   Number         0  pad_mux_ctrl.o ABSOLUTE
    ..\..\..\Source\timer.c                  0x00000000   Number         0  timer.o ABSOLUTE
    ..\\..\\..\\Rtt\\SEGGER_RTT.c            0x00000000   Number         0  segger_rtt.o ABSOLUTE
    ..\\..\\..\\Rtt\\SEGGER_RTT_Syscalls_KEIL.c 0x00000000   Number         0  segger_rtt_syscalls_keil.o ABSOLUTE
    ..\\..\\..\\Rtt\\SEGGER_RTT_printf.c     0x00000000   Number         0  segger_rtt_printf.o ABSOLUTE
    ..\\..\\..\\Source\\delay.c              0x00000000   Number         0  delay.o ABSOLUTE
    ..\\..\\..\\Source\\gpio.c               0x00000000   Number         0  gpio.o ABSOLUTE
    ..\\..\\..\\Source\\pad_mux_ctrl.c       0x00000000   Number         0  pad_mux_ctrl.o ABSOLUTE
    ..\\..\\..\\Source\\timer.c              0x00000000   Number         0  timer.o ABSOLUTE
    ..\\debug.c                              0x00000000   Number         0  debug.o ABSOLUTE
    ..\\main.c                               0x00000000   Number         0  main.o ABSOLUTE
    ..\\uart_drive.c                         0x00000000   Number         0  uart_drive.o ABSOLUTE
    ..\\uart_ota.c                           0x00000000   Number         0  uart_ota.o ABSOLUTE
    ..\debug.c                               0x00000000   Number         0  debug.o ABSOLUTE
    ..\main.c                                0x00000000   Number         0  main.o ABSOLUTE
    ..\uart_drive.c                          0x00000000   Number         0  uart_drive.o ABSOLUTE
    ..\uart_ota.c                            0x00000000   Number         0  uart_ota.o ABSOLUTE
    Main\\pmu.c                              0x00000000   Number         0  pmu.o ABSOLUTE
    Main\pmu.c                               0x00000000   Number         0  pmu.o ABSOLUTE
    RTE\Device\ARMCM0\startup_ARMCM0.s       0x00000000   Number         0  startup_armcm0.o ABSOLUTE
    RTE\Device\ARMCM0\system_ARMCM0.c        0x00000000   Number         0  system_armcm0.o ABSOLUTE
    RTE\\Device\\ARMCM0\\system_ARMCM0.c     0x00000000   Number         0  system_armcm0.o ABSOLUTE
    bt\\attctrl.c                            0x00000000   Number         0  attctrl.o ABSOLUTE
    bt\\ble_gap.c                            0x00000000   Number         0  ble_gap.o ABSOLUTE
    bt\\l2capctrl.c                          0x00000000   Number         0  l2capctrl.o ABSOLUTE
    bt\\lcctrl.c                             0x00000000   Number         0  lcctrl.o ABSOLUTE
    bt\\llctrl.c                             0x00000000   Number         0  llctrl.o ABSOLUTE
    bt\\m_em.c                               0x00000000   Number         0  m_em.o ABSOLUTE
    bt\\smpctrl.c                            0x00000000   Number         0  smpctrl.o ABSOLUTE
    bt\attctrl.c                             0x00000000   Number         0  attctrl.o ABSOLUTE
    bt\ble_gap.c                             0x00000000   Number         0  ble_gap.o ABSOLUTE
    bt\l2capctrl.c                           0x00000000   Number         0  l2capctrl.o ABSOLUTE
    bt\lcctrl.c                              0x00000000   Number         0  lcctrl.o ABSOLUTE
    bt\llctrl.c                              0x00000000   Number         0  llctrl.o ABSOLUTE
    bt\m_em.c                                0x00000000   Number         0  m_em.o ABSOLUTE
    bt\smpctrl.c                             0x00000000   Number         0  smpctrl.o ABSOLUTE
    cdrcmple.s                               0x00000000   Number         0  cdrcmple.o ABSOLUTE
    dc.s                                     0x00000000   Number         0  dc.o ABSOLUTE
    driver\\bbctrl.c                         0x00000000   Number         0  bbctrl.o ABSOLUTE
    driver\\crypto.c                         0x00000000   Number         0  crypto.o ABSOLUTE
    driver\\cs_queue.c                       0x00000000   Number         0  cs_queue.o ABSOLUTE
    driver\\deffered_task.c                  0x00000000   Number         0  deffered_task.o ABSOLUTE
    driver\\queue.c                          0x00000000   Number         0  queue.o ABSOLUTE
    driver\bbctrl.c                          0x00000000   Number         0  bbctrl.o ABSOLUTE
    driver\crypto.c                          0x00000000   Number         0  crypto.o ABSOLUTE
    driver\cs_queue.c                        0x00000000   Number         0  cs_queue.o ABSOLUTE
    driver\deffered_task.c                   0x00000000   Number         0  deffered_task.o ABSOLUTE
    driver\queue.c                           0x00000000   Number         0  queue.o ABSOLUTE
    handlers.s                               0x00000000   Number         0  handlers.o ABSOLUTE
    init.s                                   0x00000000   Number         0  init.o ABSOLUTE
    main\\main.c                             0x00000000   Number         0  main.o ABSOLUTE
    main\main.c                              0x00000000   Number         0  main.o ABSOLUTE
    RESET                                    0x10000000   Section      192  startup_armcm0.o(RESET)
    .ARM.Collect$$$$00000000                 0x100000c0   Section        0  entry.o(.ARM.Collect$$$$00000000)
    .ARM.Collect$$$$00000001                 0x100000c0   Section        4  entry2.o(.ARM.Collect$$$$00000001)
    .ARM.Collect$$$$00000004                 0x100000c4   Section        4  entry5.o(.ARM.Collect$$$$00000004)
    .ARM.Collect$$$$00000008                 0x100000c8   Section        0  entry7b.o(.ARM.Collect$$$$00000008)
    .ARM.Collect$$$$0000000A                 0x100000c8   Section        0  entry8b.o(.ARM.Collect$$$$0000000A)
    .ARM.Collect$$$$0000000B                 0x100000c8   Section        8  entry9a.o(.ARM.Collect$$$$0000000B)
    .ARM.Collect$$$$0000000D                 0x100000d0   Section        0  entry10a.o(.ARM.Collect$$$$0000000D)
    .ARM.Collect$$$$0000000F                 0x100000d0   Section        0  entry11a.o(.ARM.Collect$$$$0000000F)
    .ARM.Collect$$$$00002712                 0x100000d0   Section        4  entry2.o(.ARM.Collect$$$$00002712)
    __lit__00000000                          0x100000d0   Data           4  entry2.o(.ARM.Collect$$$$00002712)
    .text                                    0x100000d4   Section        0  main.o(.text)
    NVIC_SetPriority                         0x100000d5   Thumb Code   110  main.o(.text)
    setup_scan_data                          0x10000143   Thumb Code    36  main.o(.text)
    setup_connect_data                       0x10000167   Thumb Code    40  main.o(.text)
    ble_init                                 0x1000032b   Thumb Code    42  main.o(.text)
    .text                                    0x10000914   Section        0  uart_drive.o(.text)
    .text                                    0x10000ac0   Section        0  uart_ota.o(.text)
    Uart_Slave_OTA_CMD_Complete              0x10000ac1   Thumb Code    32  uart_ota.o(.text)
    Uart_Slave_OTA_Cmd_Erase                 0x10000ae1   Thumb Code    20  uart_ota.o(.text)
    Uart_Slave_OTA_Cmd_Write                 0x10000af5   Thumb Code    44  uart_ota.o(.text)
    Uart_Slave_OTA_Cmd_Upgrade               0x10000b21   Thumb Code   108  uart_ota.o(.text)
    uart_master_ota_cmd_erase                0x10000be3   Thumb Code    42  uart_ota.o(.text)
    uart_master_ota_cmd_upgrade              0x10000c0d   Thumb Code    68  uart_ota.o(.text)
    uart_master_ota_cmd_write                0x10000c51   Thumb Code   268  uart_ota.o(.text)
    .text                                    0x10001044   Section        0  gpio.o(.text)
    .text                                    0x100011e8   Section        0  delay.o(.text)
    .text                                    0x10001208   Section        0  pad_mux_ctrl.o(.text)
    .text                                    0x1000125c   Section        0  timer.o(.text)
    .text                                    0x10001318   Section        0  debug.o(.text)
    .text                                    0x100014f8   Section       28  startup_armcm0.o(.text)
    .text                                    0x10001514   Section        0  system_armcm0.o(.text)
    .text                                    0x10001524   Section        0  main.o(.text)
    .text                                    0x10001960   Section        0  lcctrl.o(.text)
    RF824Init                                0x10001ab5   Thumb Code   258  lcctrl.o(.text)
    RF815Init                                0x10001bb7   Thumb Code   276  lcctrl.o(.text)
    RF250Init                                0x10001ccb   Thumb Code   258  lcctrl.o(.text)
    HandleAuthenticatedTimeout               0x10002495   Thumb Code   112  lcctrl.o(.text)
    RC_Desense                               0x10002eb5   Thumb Code   118  lcctrl.o(.text)
    HandleLLControlTimeout                   0x10002f2b   Thumb Code    70  lcctrl.o(.text)
    .text                                    0x10002f78   Section        0  bbctrl.o(.text)
    .text                                    0x10003798   Section        0  queue.o(.text)
    .text                                    0x10003894   Section        0  cs_queue.o(.text)
    cs_tx_dequeue                            0x100039eb   Thumb Code   106  cs_queue.o(.text)
    .text                                    0x10003ef8   Section        0  deffered_task.o(.text)
    .text                                    0x10003f48   Section        0  pmu.o(.text)
    .text                                    0x100040f4   Section        0  llctrl.o(.text)
    LLENCRsp                                 0x10004465   Thumb Code   156  llctrl.o(.text)
    LLTxPauseENCRsp                          0x10004c35   Thumb Code   130  llctrl.o(.text)
    .text                                    0x10004cc0   Section        0  m_em.o(.text)
    .text                                    0x10005818   Section        0  attctrl.o(.text)
    AttReadFlash                             0x10005835   Thumb Code    84  attctrl.o(.text)
    AttCheckHdlPeoperty                      0x10005889   Thumb Code    70  attctrl.o(.text)
    AttGetHdlPrimary                         0x100058cf   Thumb Code   186  attctrl.o(.text)
    AttReadByTypeChartRsp                    0x10005d35   Thumb Code   238  attctrl.o(.text)
    AttReadByTypeChartExtendRsp              0x10005e23   Thumb Code   204  attctrl.o(.text)
    AttReadByTypeValRsp                      0x10005eef   Thumb Code   368  attctrl.o(.text)
    AttReadRsp                               0x10006137   Thumb Code   248  attctrl.o(.text)
    AttReadBlobRsp                           0x1000626b   Thumb Code   290  attctrl.o(.text)
    AttFindInfoRsp                           0x100063e3   Thumb Code   184  attctrl.o(.text)
    AttErrRsp                                0x10006e69   Thumb Code    26  attctrl.o(.text)
    AttCheckAuthen                           0x10006e83   Thumb Code    28  attctrl.o(.text)
    AttCheckKeySz                            0x10006e9f   Thumb Code    28  attctrl.o(.text)
    AttReadByTypeIncludeRsp                  0x10006ebb   Thumb Code   158  attctrl.o(.text)
    AttFindByTypeValueRsp                    0x10006f59   Thumb Code   180  attctrl.o(.text)
    .text                                    0x10007018   Section        0  ble_gap.o(.text)
    .text                                    0x10007184   Section        0  crypto.o(.text)
    .text                                    0x10007690   Section        0  l2capctrl.o(.text)
    L2capSigConnParamUpdateRsp               0x100076a7   Thumb Code    48  l2capctrl.o(.text)
    L2capLEFlowControlCredit                 0x10007711   Thumb Code    92  l2capctrl.o(.text)
    L2capLECreditBasedConnRsp                0x1000776d   Thumb Code    98  l2capctrl.o(.text)
    L2capLECreditBasedConnReq                0x100077cf   Thumb Code   184  l2capctrl.o(.text)
    L2capSigCmdReject                        0x10007929   Thumb Code    56  l2capctrl.o(.text)
    L2capSigPacketHandle                     0x100079bd   Thumb Code   100  l2capctrl.o(.text)
    .text                                    0x10007a2c   Section        0  smpctrl.o(.text)
    SmpPairingDHKeyCheck                     0x10007aa9   Thumb Code   188  smpctrl.o(.text)
    SmpPairingConfirm                        0x10007e5b   Thumb Code   118  smpctrl.o(.text)
    SmpPairingPublicKey                      0x1000808f   Thumb Code   108  smpctrl.o(.text)
    SmpIdAddrInfo                            0x100082bd   Thumb Code    82  smpctrl.o(.text)
    SmpIdentityInfo                          0x1000830f   Thumb Code    92  smpctrl.o(.text)
    SmpTxKeyDistribution                     0x1000836b   Thumb Code   166  smpctrl.o(.text)
    SmpMasterId                              0x10008411   Thumb Code    78  smpctrl.o(.text)
    .text                                    0x10008510   Section        0  uidiv.o(.text)
    .text                                    0x1000853c   Section        0  idiv.o(.text)
    .text                                    0x10008564   Section        0  memcpya.o(.text)
    .text                                    0x10008588   Section        0  memseta.o(.text)
    .text                                    0x100085ac   Section        0  strstr.o(.text)
    .text                                    0x100085d4   Section        0  memcmp.o(.text)
    .text                                    0x100085ee   Section        0  uread4.o(.text)
    .text                                    0x10008602   Section        0  uwrite4.o(.text)
    .text                                    0x10008614   Section        0  uldiv.o(.text)
    .text                                    0x10008674   Section        0  iusefp.o(.text)
    .text                                    0x10008674   Section        0  dadd.o(.text)
    .text                                    0x100087d8   Section        0  dmul.o(.text)
    .text                                    0x100088a8   Section        0  ddiv.o(.text)
    .text                                    0x10008998   Section        0  dfixul.o(.text)
    .text                                    0x100089d8   Section       40  cdrcmple.o(.text)
    .text                                    0x10008a00   Section       36  init.o(.text)
    .text                                    0x10008a24   Section        0  llshl.o(.text)
    .text                                    0x10008a44   Section        0  llushr.o(.text)
    .text                                    0x10008a66   Section        0  llsshr.o(.text)
    .text                                    0x10008a8c   Section        0  depilogue.o(.text)
    .text                                    0x10008b4a   Section        0  __dczerorl2.o(.text)
    PMU                                      0x10008ba0   Section        0  pmu.o(PMU)
    i.__0vsprintf                            0x10008bec   Section        0  printfa.o(i.__0vsprintf)
    i.__ARM_clz                              0x10008c10   Section        0  depilogue.o(i.__ARM_clz)
    i.__ARM_common_switch8                   0x10008c3e   Section        0  llctrl.o(i.__ARM_common_switch8)
    i.__scatterload_copy                     0x10008c58   Section       14  handlers.o(i.__scatterload_copy)
    i.__scatterload_null                     0x10008c66   Section        2  handlers.o(i.__scatterload_null)
    i.__scatterload_zeroinit                 0x10008c68   Section       14  handlers.o(i.__scatterload_zeroinit)
    i._fp_digits                             0x10008c78   Section        0  printfa.o(i._fp_digits)
    _fp_digits                               0x10008c79   Thumb Code   316  printfa.o(i._fp_digits)
    i._printf_core                           0x10008dd0   Section        0  printfa.o(i._printf_core)
    _printf_core                             0x10008dd1   Thumb Code  1754  printfa.o(i._printf_core)
    i._printf_post_padding                   0x100094bc   Section        0  printfa.o(i._printf_post_padding)
    _printf_post_padding                     0x100094bd   Thumb Code    32  printfa.o(i._printf_post_padding)
    i._printf_pre_padding                    0x100094dc   Section        0  printfa.o(i._printf_pre_padding)
    _printf_pre_padding                      0x100094dd   Thumb Code    44  printfa.o(i._printf_pre_padding)
    i._sputc                                 0x10009508   Section        0  printfa.o(i._sputc)
    _sputc                                   0x10009509   Thumb Code    10  printfa.o(i._sputc)
    i.free                                   0x10009514   Section        0  malloc.o(i.free)
    i.malloc                                 0x10009568   Section        0  malloc.o(i.malloc)
    .constdata                               0x100095d4   Section    60680  main.o(.constdata)
    _gatt_database_report_handle             0x100095d4   Data          31  main.o(.constdata)
    _gatt_database_include                   0x100095f3   Data          11  main.o(.constdata)
    _gatt_database_primary                   0x100095fe   Data          63  main.o(.constdata)
    _gatt_database_characteristic            0x1000963d   Data         190  main.o(.constdata)
    _gatt_database_value                     0x100096fb   Data         359  main.o(.constdata)
    .constdata                               0x100182dc   Section       64  bbctrl.o(.constdata)
    .constdata                               0x1001831c   Section       32  pmu.o(.constdata)
    delay_table                              0x1001831c   Data          32  pmu.o(.constdata)
    .constdata                               0x1001833c   Section        4  m_em.o(.constdata)
    .constdata                               0x10018340   Section        6  m_em.o(.constdata)
    empty_addr                               0x10018340   Data           6  m_em.o(.constdata)
    .constdata                               0x10018348   Section      372  crypto.o(.constdata)
    .constdata                               0x100184bc   Section       50  smpctrl.o(.constdata)
    _smp_key_                                0x100184bc   Data          50  smpctrl.o(.constdata)
    .data                                    0x20000000   Section       15  main.o(.data)
    .data                                    0x20000010   Section        8  uart_drive.o(.data)
    .data                                    0x20000018   Section        2  uart_ota.o(.data)
    .data                                    0x2000001c   Section       12  gpio.o(.data)
    GPIO_CTRL                                0x2000001c   Data           8  gpio.o(.data)
    gpio_callback                            0x20000024   Data           4  gpio.o(.data)
    .data                                    0x20000028   Section        8  pad_mux_ctrl.o(.data)
    pad                                      0x20000028   Data           8  pad_mux_ctrl.o(.data)
    .data                                    0x20000030   Section       20  timer.o(.data)
    ctrl                                     0x20000030   Data          20  timer.o(.data)
    .data                                    0x20000044   Section        8  debug.o(.data)
    UART_CTRL                                0x20000044   Data           8  debug.o(.data)
    .data                                    0x2000004c   Section        4  system_armcm0.o(.data)
    .data                                    0x20000050   Section       12  main.o(.data)
    syd_confirm                              0x20000050   Data           1  main.o(.data)
    profile_to_flash                         0x20000051   Data           1  main.o(.data)
    PMU_CTRL                                 0x20000054   Data           4  main.o(.data)
    .data                                    0x2000005c   Section       28  lcctrl.o(.data)
    lock_cs_init                             0x2000005c   Data           1  lcctrl.o(.data)
    expected_pro_cs                          0x2000005d   Data           1  lcctrl.o(.data)
    MCUFreq                                  0x2000005e   Data           1  lcctrl.o(.data)
    CS_Count                                 0x20000060   Data           4  lcctrl.o(.data)
    EvtState                                 0x20000064   Data           4  lcctrl.o(.data)
    SleepCheckState                          0x20000068   Data           4  lcctrl.o(.data)
    .data                                    0x20000078   Section        4  lcctrl.o(.data)
    .data                                    0x2000007c   Section       12  bbctrl.o(.data)
    .data                                    0x20000088   Section       12  queue.o(.data)
    QueueHead                                0x20000088   Data           6  queue.o(.data)
    QueueTail                                0x2000008e   Data           6  queue.o(.data)
    .data                                    0x20000094   Section        8  deffered_task.o(.data)
    task_head                                0x20000094   Data           4  deffered_task.o(.data)
    task_tail                                0x20000098   Data           4  deffered_task.o(.data)
    .data                                    0x2000009c   Section        4  pmu.o(.data)
    lclink                                   0x2000009c   Data           4  pmu.o(.data)
    .data                                    0x200000a0   Section       80  m_em.o(.data)
    wl_length                                0x200000a0   Data           2  m_em.o(.data)
    .data                                    0x200000f0   Section        2  attctrl.o(.data)
    ReadRsp                                  0x200000f0   Data           1  attctrl.o(.data)
    ReadRspLen                               0x200000f1   Data           1  attctrl.o(.data)
    .data                                    0x200000f4   Section      212  crypto.o(.data)
    .data                                    0x200001c8   Section        8  smpctrl.o(.data)
    passkey_cnt                              0x200001c8   Data           1  smpctrl.o(.data)
    passkey_value                            0x200001cc   Data           4  smpctrl.o(.data)
    .data                                    0x200001d0   Section        4  mvars.o(.data)
    .data                                    0x200001d4   Section        4  mvars.o(.data)
    .bss                                     0x200001d8   Section      515  uart_drive.o(.bss)
    .bss                                     0x200003db   Section       24  uart_ota.o(.bss)
    .bss                                     0x200003f4   Section       20  timer.o(.bss)
    cb                                       0x200003f4   Data          20  timer.o(.bss)
    .bss                                     0x20000408   Section      128  debug.o(.bss)
    s_formatBuffer                           0x20000408   Data         128  debug.o(.bss)
    .bss                                     0x20000488   Section     4096  main.o(.bss)
    .bss                                     0x20001488   Section     7660  lcctrl.o(.bss)
    tmp                                      0x20001488   Data         255  lcctrl.o(.bss)
    Irk                                      0x20002174   Data         256  lcctrl.o(.bss)
    .bss                                     0x20003274   Section       16  bbctrl.o(.bss)
    Cmac_m                                   0x20003274   Data          16  bbctrl.o(.bss)
    .bss                                     0x20003284   Section    15300  queue.o(.bss)
    QueueBuf                                 0x20003284   Data       15300  queue.o(.bss)
    .bss                                     0x20006e48   Section       16  m_em.o(.bss)
    .bss                                     0x20006e58   Section       42  attctrl.o(.bss)
    ReadRspData                              0x20006e6c   Data          22  attctrl.o(.bss)
    .bss                                     0x20006e82   Section       48  crypto.o(.bss)
    .bss                                     0x20006eb2   Section      264  l2capctrl.o(.bss)
    HEAP                                     0x20006fc0   Section    16384  startup_armcm0.o(HEAP)
    STACK                                    0x2000afc0   Section    16384  startup_armcm0.o(STACK)

    Global Symbols

    Symbol Name                              Value     Ov Type        Size  Object(Section)

    BuildAttributes$$THM_ISAv3M$S$PE$A:L22$X:L11$S22$IEEE1$IW$USESV6$~STKCKD$USESV7$~SHL$OSPACE$ROPI$EBA8$MICROLIB$REQ8$PRES8$EABIv2 0x00000000   Number         0  anon$$obj.o ABSOLUTE
    __ARM_use_no_argv                        0x00000000   Number         0  main.o ABSOLUTE
    __cpp_initialize__aeabi_                  - Undefined Weak Reference
    __cxa_finalize                            - Undefined Weak Reference
    _clock_init                               - Undefined Weak Reference
    _microlib_exit                            - Undefined Weak Reference
    __Vectors_Size                           0x000000c0   Number         0  startup_armcm0.o ABSOLUTE
    __Vectors                                0x10000000   Data           4  startup_armcm0.o(RESET)
    __Vectors_End                            0x100000c0   Data           0  startup_armcm0.o(RESET)
    __main                                   0x100000c1   Thumb Code     0  entry.o(.ARM.Collect$$$$00000000)
    _main_stk                                0x100000c1   Thumb Code     0  entry2.o(.ARM.Collect$$$$00000001)
    _main_scatterload                        0x100000c5   Thumb Code     0  entry5.o(.ARM.Collect$$$$00000004)
    __main_after_scatterload                 0x100000c9   Thumb Code     0  entry5.o(.ARM.Collect$$$$00000004)
    _main_clock                              0x100000c9   Thumb Code     0  entry7b.o(.ARM.Collect$$$$00000008)
    _main_cpp_init                           0x100000c9   Thumb Code     0  entry8b.o(.ARM.Collect$$$$0000000A)
    _main_init                               0x100000c9   Thumb Code     0  entry9a.o(.ARM.Collect$$$$0000000B)
    __rt_final_cpp                           0x100000d1   Thumb Code     0  entry10a.o(.ARM.Collect$$$$0000000D)
    __rt_final_exit                          0x100000d1   Thumb Code     0  entry11a.o(.ARM.Collect$$$$0000000F)
    ble_evt_callback_csnum0                  0x1000018f   Thumb Code   200  main.o(.text)
    ble_attc_evt_callback_csnum0             0x10000257   Thumb Code   212  main.o(.text)
    gpio_init                                0x10000355   Thumb Code   128  main.o(.text)
    main                                     0x100003d5   Thumb Code  1184  main.o(.text)
    uart_1_init                              0x10000915   Thumb Code   148  uart_drive.o(.text)
    uart_read_buf                            0x100009a9   Thumb Code    40  uart_drive.o(.text)
    UART1_IRQHandler                         0x100009d1   Thumb Code   184  uart_drive.o(.text)
    uart_send                                0x10000a89   Thumb Code    38  uart_drive.o(.text)
    uart_slave_ota_handle                    0x10000b8d   Thumb Code    86  uart_ota.o(.text)
    uart_master_ota_init                     0x10000d5d   Thumb Code   112  uart_ota.o(.text)
    uart_master_ota_start                    0x10000dcd   Thumb Code    22  uart_ota.o(.text)
    uart_master_ota_handle                   0x10000de3   Thumb Code   164  uart_ota.o(.text)
    gpi_config                               0x10001045   Thumb Code   114  gpio.o(.text)
    gpo_config                               0x100010b7   Thumb Code    90  gpio.o(.text)
    gpi_get_val                              0x10001111   Thumb Code    70  gpio.o(.text)
    GPIO_IRQHandler                          0x10001157   Thumb Code   134  gpio.o(.text)
    delay_ms                                 0x100011e9   Thumb Code    30  delay.o(.text)
    pad_mux_write                            0x10001209   Thumb Code    78  pad_mux_ctrl.o(.text)
    TIMER0_IRQHandler                        0x1000125d   Thumb Code    36  timer.o(.text)
    TIMER1_IRQHandler                        0x10001281   Thumb Code    36  timer.o(.text)
    TIMER2_IRQHandler                        0x100012a5   Thumb Code    36  timer.o(.text)
    TIMER3_IRQHandler                        0x100012c9   Thumb Code    36  timer.o(.text)
    TIMER4_IRQHandler                        0x100012ed   Thumb Code    36  timer.o(.text)
    uart_0_init                              0x10001319   Thumb Code   194  debug.o(.text)
    uart_write                               0x100013db   Thumb Code    80  debug.o(.text)
    dbg_printf                               0x1000142b   Thumb Code    60  debug.o(.text)
    dbg_hexdump                              0x10001467   Thumb Code   108  debug.o(.text)
    Reset_Handler                            0x100014f9   Thumb Code     8  startup_armcm0.o(.text)
    NMI_Handler                              0x10001501   Thumb Code     2  startup_armcm0.o(.text)
    HardFault_Handler                        0x10001503   Thumb Code     2  startup_armcm0.o(.text)
    SVC_Handler                              0x10001505   Thumb Code     2  startup_armcm0.o(.text)
    PendSV_Handler                           0x10001507   Thumb Code     2  startup_armcm0.o(.text)
    SysTick_Handler                          0x10001509   Thumb Code     2  startup_armcm0.o(.text)
    CAPDET_IRQHandler                        0x1000150b   Thumb Code     0  startup_armcm0.o(.text)
    GPADC_IRQHandler                         0x1000150b   Thumb Code     0  startup_armcm0.o(.text)
    I2CM0_IRQHandler                         0x1000150b   Thumb Code     0  startup_armcm0.o(.text)
    I2CM1_IRQHandler                         0x1000150b   Thumb Code     0  startup_armcm0.o(.text)
    I2CS_IRQHandler                          0x1000150b   Thumb Code     0  startup_armcm0.o(.text)
    I2S_IRQHandler                           0x1000150b   Thumb Code     0  startup_armcm0.o(.text)
    INTCOMB_IRQHandler                       0x1000150b   Thumb Code     0  startup_armcm0.o(.text)
    IR_IRQHandler                            0x1000150b   Thumb Code     0  startup_armcm0.o(.text)
    ISO_7816_IRQHandler                      0x1000150b   Thumb Code     0  startup_armcm0.o(.text)
    LLC3_IRQHandler                          0x1000150b   Thumb Code     0  startup_armcm0.o(.text)
    LLC_IRQHandler                           0x1000150b   Thumb Code     0  startup_armcm0.o(.text)
    M2M_IRQHandler                           0x1000150b   Thumb Code     0  startup_armcm0.o(.text)
    PDM_IRQHandler                           0x1000150b   Thumb Code     0  startup_armcm0.o(.text)
    PWM1_IRQHandler                          0x1000150b   Thumb Code     0  startup_armcm0.o(.text)
    PWM2_IRQHandler                          0x1000150b   Thumb Code     0  startup_armcm0.o(.text)
    PWM3_IRQHandler                          0x1000150b   Thumb Code     0  startup_armcm0.o(.text)
    RTC_IRQHandler                           0x1000150b   Thumb Code     0  startup_armcm0.o(.text)
    SPIM_IRQHandler                          0x1000150b   Thumb Code     0  startup_armcm0.o(.text)
    SPIS_IRQHandler                          0x1000150b   Thumb Code     0  startup_armcm0.o(.text)
    SW_IRQHandler                            0x1000150b   Thumb Code     0  startup_armcm0.o(.text)
    TRNG_IRQHandler                          0x1000150b   Thumb Code     0  startup_armcm0.o(.text)
    UART0_IRQHandler                         0x1000150b   Thumb Code     0  startup_armcm0.o(.text)
    UART2_IRQHandler                         0x1000150b   Thumb Code     0  startup_armcm0.o(.text)
    WDT_IRQHandler                           0x1000150b   Thumb Code     0  startup_armcm0.o(.text)
    SystemInit                               0x10001515   Thumb Code     8  system_armcm0.o(.text)
    syd8821_chip_confirm                     0x10001525   Thumb Code    24  main.o(.text)
    systemtick_delay                         0x1000153d   Thumb Code    34  main.o(.text)
    pmu_system_reset                         0x1000155f   Thumb Code     4  main.o(.text)
    pmu_32m_xo_on                            0x10001563   Thumb Code     6  main.o(.text)
    pmu_32m_xo_off                           0x10001569   Thumb Code     6  main.o(.text)
    _rom_sys_32k_lpo_calibration             0x1000156f   Thumb Code   132  main.o(.text)
    _sys_32k_lpo_calibration                 0x100015f3   Thumb Code    68  main.o(.text)
    sys_32k_lpo_calibration                  0x10001637   Thumb Code    68  main.o(.text)
    pmu_wakeup_config                        0x1000167b   Thumb Code     4  main.o(.text)
    SystemSleep                              0x1000167f   Thumb Code    50  main.o(.text)
    gap_s_profile_data_read                  0x100016b1   Thumb Code    44  main.o(.text)
    gap_s_profile_data_write                 0x100016dd   Thumb Code   226  main.o(.text)
    ota_code_erase                           0x100017bf   Thumb Code   394  main.o(.text)
    ota_code_write                           0x10001949   Thumb Code     4  main.o(.text)
    ota_code_update                          0x1000194d   Thumb Code    10  main.o(.text)
    SetEvent                                 0x10001961   Thumb Code    10  lcctrl.o(.text)
    GetEvent                                 0x1000196b   Thumb Code     6  lcctrl.o(.text)
    ClrEvent                                 0x10001971   Thumb Code    20  lcctrl.o(.text)
    CheckEvent                               0x10001985   Thumb Code    16  lcctrl.o(.text)
    SetSleepCheckReady                       0x10001995   Thumb Code     6  lcctrl.o(.text)
    GetSleepCheckReady                       0x1000199b   Thumb Code     6  lcctrl.o(.text)
    _rom_sys_32k_clock_set                   0x100019a1   Thumb Code   112  lcctrl.o(.text)
    rc_desense                               0x10001a11   Thumb Code    20  lcctrl.o(.text)
    sys_mcu_rc_calibration                   0x10001a25   Thumb Code    56  lcctrl.o(.text)
    sys_mcu_clock_set                        0x10001a5d   Thumb Code    14  lcctrl.o(.text)
    sys_32k_clock_set                        0x10001a6b   Thumb Code     2  lcctrl.o(.text)
    FW_LPOCalibration                        0x10001a6d   Thumb Code    72  lcctrl.o(.text)
    FW_RFInit                                0x10001dcd   Thumb Code    48  lcctrl.o(.text)
    UpdateConnEventCounter                   0x10001dfd   Thumb Code   350  lcctrl.o(.text)
    GetConnEventCounter                      0x10001f5b   Thumb Code    32  lcctrl.o(.text)
    ProcessPrivateAddress                    0x10001f7b   Thumb Code    24  lcctrl.o(.text)
    CheckSupervisionTimeout                  0x10001f93   Thumb Code    28  lcctrl.o(.text)
    Check6NCTimeout                          0x10001faf   Thumb Code    38  lcctrl.o(.text)
    UpdateChannelHop                         0x10001fd5   Thumb Code   198  lcctrl.o(.text)
    FindConnDevNextSlot                      0x1000209b   Thumb Code   104  lcctrl.o(.text)
    FindProcessingCSNum                      0x10002103   Thumb Code    40  lcctrl.o(.text)
    CheckExtablePtrValid                     0x1000212b   Thumb Code    20  lcctrl.o(.text)
    GetConnectDeviceTotal                    0x1000213f   Thumb Code    34  lcctrl.o(.text)
    GetSkipDeviceWeight                      0x10002161   Thumb Code    10  lcctrl.o(.text)
    IncreaseSkipCount                        0x1000216b   Thumb Code    28  lcctrl.o(.text)
    ReScheduleScanDevice                     0x10002187   Thumb Code    36  lcctrl.o(.text)
    CheckCSinConnectSetup                    0x100021ab   Thumb Code    46  lcctrl.o(.text)
    CheckCSinScanMode                        0x100021d9   Thumb Code    82  lcctrl.o(.text)
    CheckCSinInitiatorMode                   0x1000222b   Thumb Code    52  lcctrl.o(.text)
    InsertDev2ExTable                        0x1000225f   Thumb Code   430  lcctrl.o(.text)
    ProcessCSTimerEvent                      0x1000240d   Thumb Code    88  lcctrl.o(.text)
    FindExTableProcessedSlot                 0x10002465   Thumb Code    48  lcctrl.o(.text)
    ProcessEvtEndEvent                       0x10002505   Thumb Code   606  lcctrl.o(.text)
    ProcessPrivateAddrEvent                  0x10002763   Thumb Code   158  lcctrl.o(.text)
    ProcessWakeupEvent                       0x10002801   Thumb Code    76  lcctrl.o(.text)
    TXFIFOWrite                              0x1000284d   Thumb Code    20  lcctrl.o(.text)
    ProcessScanRX                            0x10002861   Thumb Code   152  lcctrl.o(.text)
    ProcessConnRX                            0x100028f9   Thumb Code   454  lcctrl.o(.text)
    ProcessConnTX                            0x10002abf   Thumb Code    98  lcctrl.o(.text)
    ble_c_sched_execute                      0x10002b21   Thumb Code   324  lcctrl.o(.text)
    gap_c_ble_init                           0x10002c65   Thumb Code    22  lcctrl.o(.text)
    gap_c_ble_stop                           0x10002c7b   Thumb Code    14  lcctrl.o(.text)
    gap_c_scan_parameters_set                0x10002c89   Thumb Code    36  lcctrl.o(.text)
    gap_c_scan_start                         0x10002cad   Thumb Code     8  lcctrl.o(.text)
    gap_c_scan_stop                          0x10002cb5   Thumb Code     8  lcctrl.o(.text)
    gap_c_evt_handler_set                    0x10002cbd   Thumb Code    24  lcctrl.o(.text)
    gap_c_connect_connect_config_set         0x10002cd5   Thumb Code     8  lcctrl.o(.text)
    gap_c_connect_start                      0x10002cdd   Thumb Code     8  lcctrl.o(.text)
    gap_c_add_white_list                     0x10002ce5   Thumb Code     8  lcctrl.o(.text)
    gap_c_discover_sevice_start              0x10002ced   Thumb Code    10  lcctrl.o(.text)
    gap_s_att_mc_evt_handler_set             0x10002cf7   Thumb Code    20  lcctrl.o(.text)
    att_mc_mtureq                            0x10002d0b   Thumb Code    32  lcctrl.o(.text)
    att_mc_findinforeq                       0x10002d2b   Thumb Code    32  lcctrl.o(.text)
    att_mc_findbytypevaluereq                0x10002d4b   Thumb Code    34  lcctrl.o(.text)
    att_mc_readbytypereq                     0x10002d6d   Thumb Code    34  lcctrl.o(.text)
    att_mc_readreq                           0x10002d8f   Thumb Code    32  lcctrl.o(.text)
    att_mc_readblobreq                       0x10002daf   Thumb Code    32  lcctrl.o(.text)
    att_mc_readbygrouptypereq                0x10002dcf   Thumb Code    34  lcctrl.o(.text)
    att_mc_writereq                          0x10002df1   Thumb Code    34  lcctrl.o(.text)
    att_mc_writecmdreq                       0x10002e13   Thumb Code    28  lcctrl.o(.text)
    att_mc_preparewritereq                   0x10002e2f   Thumb Code    34  lcctrl.o(.text)
    att_mc_executewritereq                   0x10002e51   Thumb Code    68  lcctrl.o(.text)
    att_mc_confirmation                      0x10002e95   Thumb Code    32  lcctrl.o(.text)
    reg_wr_8                                 0x10002f79   Thumb Code     4  bbctrl.o(.text)
    reg_wr_16                                0x10002f7d   Thumb Code     4  bbctrl.o(.text)
    reg_wr_32                                0x10002f81   Thumb Code     4  bbctrl.o(.text)
    reg_rd_8                                 0x10002f85   Thumb Code     4  bbctrl.o(.text)
    reg_rd_16                                0x10002f89   Thumb Code     4  bbctrl.o(.text)
    reg_rd_32                                0x10002f8d   Thumb Code     4  bbctrl.o(.text)
    MISCRegWrite                             0x10002f91   Thumb Code    10  bbctrl.o(.text)
    MISCRegRead                              0x10002f9b   Thumb Code    12  bbctrl.o(.text)
    MACRegWrite                              0x10002fa7   Thumb Code     8  bbctrl.o(.text)
    MACRegRead                               0x10002faf   Thumb Code    10  bbctrl.o(.text)
    MACRegBurstWrite                         0x10002fb9   Thumb Code    30  bbctrl.o(.text)
    MACRegBurstRead                          0x10002fd7   Thumb Code    30  bbctrl.o(.text)
    MDRegRead                                0x10002ff5   Thumb Code    10  bbctrl.o(.text)
    MDRegWrite                               0x10002fff   Thumb Code     8  bbctrl.o(.text)
    BBAES                                    0x10003007   Thumb Code   116  bbctrl.o(.text)
    BBEcdhPublicKey                          0x1000307b   Thumb Code   236  bbctrl.o(.text)
    BBCalDHKey                               0x10003167   Thumb Code   200  bbctrl.o(.text)
    BBCmac                                   0x1000322f   Thumb Code   124  bbctrl.o(.text)
    BB_c_RFRead                              0x100032ab   Thumb Code    32  bbctrl.o(.text)
    BB_c_RFWrite                             0x100032cb   Thumb Code    28  bbctrl.o(.text)
    RFMode                                   0x100032e7   Thumb Code     2  bbctrl.o(.text)
    BB_c_RXFIFORead                          0x100032e9   Thumb Code    94  bbctrl.o(.text)
    BBTXFIFOWrite                            0x10003347   Thumb Code   114  bbctrl.o(.text)
    BBInit                                   0x100033b9   Thumb Code   336  bbctrl.o(.text)
    BBPollAck                                0x10003509   Thumb Code    12  bbctrl.o(.text)
    BBDisableAck                             0x10003515   Thumb Code    16  bbctrl.o(.text)
    BBEnableAck                              0x10003525   Thumb Code    16  bbctrl.o(.text)
    BBCheckTXFIFOFull                        0x10003535   Thumb Code    12  bbctrl.o(.text)
    _DelayUS                                 0x10003541   Thumb Code    12  bbctrl.o(.text)
    BBDelayUS                                0x1000354d   Thumb Code    18  bbctrl.o(.text)
    BBStartAdv                               0x1000355f   Thumb Code    48  bbctrl.o(.text)
    BBStart_Coex_Adv                         0x1000358f   Thumb Code    72  bbctrl.o(.text)
    BBAar                                    0x100035d7   Thumb Code   132  bbctrl.o(.text)
    BBMACReset                               0x1000365b   Thumb Code    14  bbctrl.o(.text)
    BBRandGen                                0x10003669   Thumb Code    10  bbctrl.o(.text)
    BBValidateRPA                            0x10003673   Thumb Code    44  bbctrl.o(.text)
    GetCurrentTick                           0x1000369f   Thumb Code    10  bbctrl.o(.text)
    SyncBaseTickCount0                       0x100036a9   Thumb Code    24  bbctrl.o(.text)
    LLC2_IRQHandler                          0x100036c1   Thumb Code   176  bbctrl.o(.text)
    queryBufFull                             0x10003799   Thumb Code    34  queue.o(.text)
    queryBufEmpty                            0x100037bb   Thumb Code    24  queue.o(.text)
    init_queue                               0x100037d3   Thumb Code    16  queue.o(.text)
    en_queue                                 0x100037e3   Thumb Code    74  queue.o(.text)
    de_queue                                 0x1000382d   Thumb Code    90  queue.o(.text)
    cs_tx_queue_init                         0x10003895   Thumb Code   208  cs_queue.o(.text)
    cs_tx_done_process                       0x10003965   Thumb Code   134  cs_queue.o(.text)
    cs_tx_renew                              0x10003a55   Thumb Code   200  cs_queue.o(.text)
    cs_tx_process                            0x10003b1d   Thumb Code   294  cs_queue.o(.text)
    cs_tx_enqueue                            0x10003c43   Thumb Code   160  cs_queue.o(.text)
    cs_rx_queue_init                         0x10003ce3   Thumb Code   108  cs_queue.o(.text)
    cs_rx_process                            0x10003d4f   Thumb Code   324  cs_queue.o(.text)
    cs_rx_enqueue                            0x10003e93   Thumb Code    82  cs_queue.o(.text)
    deffered_task_init                       0x10003ef9   Thumb Code    24  deffered_task.o(.text)
    deffered_task_enqueue                    0x10003f11   Thumb Code    32  deffered_task.o(.text)
    deffered_task_dequeue                    0x10003f31   Thumb Code    20  deffered_task.o(.text)
    RCOSC_validate                           0x10003f49   Thumb Code    18  pmu.o(.text)
    syd8821_pmu_power_saving                 0x10003f5b   Thumb Code   386  pmu.o(.text)
    Calculate_Instant_offset                 0x100040f5   Thumb Code    32  llctrl.o(.text)
    LLTxPacket                               0x10004115   Thumb Code    28  llctrl.o(.text)
    LLConnectUpdateReq                       0x10004131   Thumb Code   136  llctrl.o(.text)
    LLDecideConnectionUpdateParameter        0x100041b9   Thumb Code   292  llctrl.o(.text)
    LLRejectExtInd                           0x100042dd   Thumb Code   112  llctrl.o(.text)
    LLProcedureCollision                     0x1000434d   Thumb Code    66  llctrl.o(.text)
    LL_c_TerminateReq                        0x1000438f   Thumb Code    70  llctrl.o(.text)
    LLENCReq                                 0x100043d5   Thumb Code   144  llctrl.o(.text)
    LLTxStartENCRsp                          0x10004501   Thumb Code    36  llctrl.o(.text)
    LLPauseENCReq                            0x10004525   Thumb Code    24  llctrl.o(.text)
    LLPHYUpdateInd                           0x1000453d   Thumb Code    30  llctrl.o(.text)
    phy_decision                             0x1000455b   Thumb Code    16  llctrl.o(.text)
    LLPHYReq                                 0x1000456b   Thumb Code   116  llctrl.o(.text)
    LLChannelMapReq                          0x100045df   Thumb Code    94  llctrl.o(.text)
    LLRejectInd                              0x1000463d   Thumb Code   100  llctrl.o(.text)
    LLRejectConnectionParameterReq           0x100046a1   Thumb Code    16  llctrl.o(.text)
    LLConnectionParamReq                     0x100046b1   Thumb Code   250  llctrl.o(.text)
    LLVersionInd                             0x100047ab   Thumb Code   164  llctrl.o(.text)
    LLFeatureRsp                             0x1000484f   Thumb Code    58  llctrl.o(.text)
    LLSlaveFeatureRsp                        0x10004889   Thumb Code    38  llctrl.o(.text)
    LLFeatureReq                             0x100048af   Thumb Code    98  llctrl.o(.text)
    LLPingRsp                                0x10004911   Thumb Code    80  llctrl.o(.text)
    LLPingReq                                0x10004961   Thumb Code    34  llctrl.o(.text)
    LLLengthUpdate                           0x10004983   Thumb Code    50  llctrl.o(.text)
    LL_c_LengthRsp                           0x100049b5   Thumb Code    78  llctrl.o(.text)
    LL_c_LengthReq                           0x10004a03   Thumb Code    78  llctrl.o(.text)
    LLUnknownResponse                        0x10004a51   Thumb Code    88  llctrl.o(.text)
    LLPacketHandle                           0x10004aa9   Thumb Code   396  llctrl.o(.text)
    m_em_set_dev_addr                        0x10004cc1   Thumb Code    50  m_em.o(.text)
    m_em_scan_init                           0x10004cf3   Thumb Code   306  m_em.o(.text)
    m_em_start                               0x10004e25   Thumb Code    44  m_em.o(.text)
    m_em_stop                                0x10004e51   Thumb Code    16  m_em.o(.text)
    m_em_disconnect                          0x10004e61   Thumb Code    38  m_em.o(.text)
    m_cs_crypt_en                            0x10004e87   Thumb Code   130  m_em.o(.text)
    m_em_initiator_init                      0x10004f09   Thumb Code   876  m_em.o(.text)
    m_em_master_conn_init                    0x10005275   Thumb Code   664  m_em.o(.text)
    m_em_kill_master_conn                    0x1000550d   Thumb Code     2  m_em.o(.text)
    m_em_cs_num_get                          0x1000550f   Thumb Code    30  m_em.o(.text)
    m_em_extable_set                         0x1000552d   Thumb Code    76  m_em.o(.text)
    m_em_extable_clr                         0x10005579   Thumb Code    58  m_em.o(.text)
    m_em_clear_white_list                    0x100055b3   Thumb Code    50  m_em.o(.text)
    m_em_init                                0x100055e5   Thumb Code   168  m_em.o(.text)
    test_white_list                          0x1000568d   Thumb Code    34  m_em.o(.text)
    m_em_add_white_list                      0x100056af   Thumb Code   194  m_em.o(.text)
    m_em_remove_from_white_list              0x10005771   Thumb Code   136  m_em.o(.text)
    AttTxPacket                              0x10005819   Thumb Code    28  attctrl.o(.text)
    AttExchangeMtuReq                        0x10005989   Thumb Code    52  attctrl.o(.text)
    AttReadByGroupTypeReq                    0x100059bd   Thumb Code   162  attctrl.o(.text)
    AttReadByGroupTypeRsp                    0x10005a5f   Thumb Code   520  attctrl.o(.text)
    AttReadByTypeServiceRsp                  0x10005c67   Thumb Code   206  attctrl.o(.text)
    AttReadByTypeReq                         0x1000605f   Thumb Code   216  attctrl.o(.text)
    AttReadReq                               0x1000622f   Thumb Code    60  attctrl.o(.text)
    AttReadBlobReq                           0x1000638d   Thumb Code    86  attctrl.o(.text)
    AttFindInfoReq                           0x1000649b   Thumb Code   102  attctrl.o(.text)
    AttWriteReq                              0x10006501   Thumb Code   482  attctrl.o(.text)
    AttWriteCmd                              0x100066e3   Thumb Code   280  attctrl.o(.text)
    AttNotify                                0x100067fb   Thumb Code    48  attctrl.o(.text)
    AttPrepareWriteReq                       0x1000682b   Thumb Code   364  attctrl.o(.text)
    AttExecuteWriteReq                       0x10006997   Thumb Code    74  attctrl.o(.text)
    AttFindByTypeValueReq                    0x100069e1   Thumb Code   150  attctrl.o(.text)
    AttHandleConfirmation                    0x10006a77   Thumb Code    60  attctrl.o(.text)
    AttIndication                            0x10006ab3   Thumb Code    48  attctrl.o(.text)
    AttPacketHandle                          0x10006ae3   Thumb Code   902  attctrl.o(.text)
    GAPProtocolHookCallback                  0x10007019   Thumb Code    52  ble_gap.o(.text)
    GAPCallback                              0x1000704d   Thumb Code   184  ble_gap.o(.text)
    GAP_GattSt_Get                           0x10007105   Thumb Code    26  ble_gap.o(.text)
    GAP_GattSt_Wait                          0x1000711f   Thumb Code    26  ble_gap.o(.text)
    GAP_GattSt_Pending                       0x10007139   Thumb Code    34  ble_gap.o(.text)
    GAP_GattSt_Finish                        0x1000715b   Thumb Code    34  ble_gap.o(.text)
    ah                                       0x10007185   Thumb Code    58  crypto.o(.text)
    c1                                       0x100071bf   Thumb Code   174  crypto.o(.text)
    s1                                       0x1000726d   Thumb Code    46  crypto.o(.text)
    aes                                      0x1000729b   Thumb Code     8  crypto.o(.text)
    f4                                       0x100072a3   Thumb Code    70  crypto.o(.text)
    f5                                       0x100072e9   Thumb Code   156  crypto.o(.text)
    f6                                       0x10007385   Thumb Code   106  crypto.o(.text)
    g2                                       0x100073ef   Thumb Code    88  crypto.o(.text)
    comp_value_to_decimal                    0x10007447   Thumb Code     2  crypto.o(.text)
    f4_test                                  0x10007449   Thumb Code    52  crypto.o(.text)
    salt_key_test                            0x1000747d   Thumb Code    18  crypto.o(.text)
    f5_test                                  0x1000748f   Thumb Code   202  crypto.o(.text)
    f5_test2                                 0x10007559   Thumb Code    48  crypto.o(.text)
    f6_test                                  0x10007589   Thumb Code    94  crypto.o(.text)
    f6_test2                                 0x100075e7   Thumb Code    38  crypto.o(.text)
    g2_test                                  0x1000760d   Thumb Code    66  crypto.o(.text)
    h6_test                                  0x1000764f   Thumb Code    30  crypto.o(.text)
    ah_test                                  0x1000766d   Thumb Code     2  crypto.o(.text)
    ecdh_test                                0x1000766f   Thumb Code    26  crypto.o(.text)
    L2capTxPacket                            0x10007691   Thumb Code    22  l2capctrl.o(.text)
    L2capSigConnParamUpdateReq               0x100076d7   Thumb Code    58  l2capctrl.o(.text)
    L2capTRxLEFrames                         0x10007887   Thumb Code   162  l2capctrl.o(.text)
    L2capPacketHandle                        0x10007961   Thumb Code    92  l2capctrl.o(.text)
    SmpTxPacket                              0x10007a2d   Thumb Code    28  smpctrl.o(.text)
    smp_shed_cal_dheky                       0x10007a49   Thumb Code    68  smpctrl.o(.text)
    SmpPairingFailed                         0x10007a8d   Thumb Code    28  smpctrl.o(.text)
    SmpPairingRandom                         0x10007b65   Thumb Code   758  smpctrl.o(.text)
    SmpJustWork                              0x10007ed1   Thumb Code   122  smpctrl.o(.text)
    Central_SmpPasskeyEntry                  0x10007f4b   Thumb Code   222  smpctrl.o(.text)
    SmpOutofBand                             0x10008029   Thumb Code   102  smpctrl.o(.text)
    Central_SmpPairingReq                    0x100080fb   Thumb Code    66  smpctrl.o(.text)
    SmpPairingRsp                            0x1000813d   Thumb Code   384  smpctrl.o(.text)
    SmpPacketHandle                          0x1000845f   Thumb Code   174  smpctrl.o(.text)
    __aeabi_uidiv                            0x10008511   Thumb Code     0  uidiv.o(.text)
    __aeabi_uidivmod                         0x10008511   Thumb Code    44  uidiv.o(.text)
    __aeabi_idiv                             0x1000853d   Thumb Code     0  idiv.o(.text)
    __aeabi_idivmod                          0x1000853d   Thumb Code    40  idiv.o(.text)
    __aeabi_memcpy                           0x10008565   Thumb Code    36  memcpya.o(.text)
    __aeabi_memcpy4                          0x10008565   Thumb Code     0  memcpya.o(.text)
    __aeabi_memcpy8                          0x10008565   Thumb Code     0  memcpya.o(.text)
    __aeabi_memset                           0x10008589   Thumb Code    14  memseta.o(.text)
    __aeabi_memset4                          0x10008589   Thumb Code     0  memseta.o(.text)
    __aeabi_memset8                          0x10008589   Thumb Code     0  memseta.o(.text)
    __aeabi_memclr                           0x10008597   Thumb Code     4  memseta.o(.text)
    __aeabi_memclr4                          0x10008597   Thumb Code     0  memseta.o(.text)
    __aeabi_memclr8                          0x10008597   Thumb Code     0  memseta.o(.text)
    _memset$wrapper                          0x1000859b   Thumb Code    18  memseta.o(.text)
    strstr                                   0x100085ad   Thumb Code    40  strstr.o(.text)
    memcmp                                   0x100085d5   Thumb Code    26  memcmp.o(.text)
    __aeabi_uread4                           0x100085ef   Thumb Code    20  uread4.o(.text)
    __rt_uread4                              0x100085ef   Thumb Code     0  uread4.o(.text)
    _uread4                                  0x100085ef   Thumb Code     0  uread4.o(.text)
    __aeabi_uwrite4                          0x10008603   Thumb Code    18  uwrite4.o(.text)
    __rt_uwrite4                             0x10008603   Thumb Code     0  uwrite4.o(.text)
    _uwrite4                                 0x10008603   Thumb Code     0  uwrite4.o(.text)
    __aeabi_uldivmod                         0x10008615   Thumb Code    96  uldiv.o(.text)
    __I$use$fp                               0x10008675   Thumb Code     0  iusefp.o(.text)
    __aeabi_dadd                             0x10008675   Thumb Code   328  dadd.o(.text)
    __aeabi_dsub                             0x100087bd   Thumb Code    12  dadd.o(.text)
    __aeabi_drsub                            0x100087c9   Thumb Code    12  dadd.o(.text)
    __aeabi_dmul                             0x100087d9   Thumb Code   202  dmul.o(.text)
    __aeabi_ddiv                             0x100088a9   Thumb Code   234  ddiv.o(.text)
    __aeabi_d2ulz                            0x10008999   Thumb Code    54  dfixul.o(.text)
    __aeabi_cdrcmple                         0x100089d9   Thumb Code    38  cdrcmple.o(.text)
    __scatterload                            0x10008a01   Thumb Code    28  init.o(.text)
    __scatterload_rt2                        0x10008a01   Thumb Code     0  init.o(.text)
    __aeabi_llsl                             0x10008a25   Thumb Code    32  llshl.o(.text)
    _ll_shift_l                              0x10008a25   Thumb Code     0  llshl.o(.text)
    __aeabi_llsr                             0x10008a45   Thumb Code    34  llushr.o(.text)
    _ll_ushift_r                             0x10008a45   Thumb Code     0  llushr.o(.text)
    __aeabi_lasr                             0x10008a67   Thumb Code    38  llsshr.o(.text)
    _ll_sshift_r                             0x10008a67   Thumb Code     0  llsshr.o(.text)
    _double_round                            0x10008a8d   Thumb Code    26  depilogue.o(.text)
    _double_epilogue                         0x10008aa7   Thumb Code   164  depilogue.o(.text)
    __decompress                             0x10008b4b   Thumb Code     0  __dczerorl2.o(.text)
    __decompress1                            0x10008b4b   Thumb Code    86  __dczerorl2.o(.text)
    syd8821_wfi                              0x10008ba1   Thumb Code    66  pmu.o(PMU)
    __0vsprintf                              0x10008bed   Thumb Code    30  printfa.o(i.__0vsprintf)
    __1vsprintf                              0x10008bed   Thumb Code     0  printfa.o(i.__0vsprintf)
    __2vsprintf                              0x10008bed   Thumb Code     0  printfa.o(i.__0vsprintf)
    __c89vsprintf                            0x10008bed   Thumb Code     0  printfa.o(i.__0vsprintf)
    vsprintf                                 0x10008bed   Thumb Code     0  printfa.o(i.__0vsprintf)
    __ARM_clz                                0x10008c11   Thumb Code    46  depilogue.o(i.__ARM_clz)
    __ARM_common_switch8                     0x10008c3f   Thumb Code    26  llctrl.o(i.__ARM_common_switch8)
    __scatterload_copy                       0x10008c59   Thumb Code    14  handlers.o(i.__scatterload_copy)
    __scatterload_null                       0x10008c67   Thumb Code     2  handlers.o(i.__scatterload_null)
    __scatterload_zeroinit                   0x10008c69   Thumb Code    14  handlers.o(i.__scatterload_zeroinit)
    free                                     0x10009515   Thumb Code    80  malloc.o(i.free)
    malloc                                   0x10009569   Thumb Code    92  malloc.o(i.malloc)
    uart_ota_test                            0x10009862   Data       59984  main.o(.constdata)
    ECDH_Gx                                  0x100182dc   Data          32  bbctrl.o(.constdata)
    ECDH_Gy                                  0x100182fc   Data          32  bbctrl.o(.constdata)
    EX_TABLE                                 0x1001833c   Data           4  m_em.o(.constdata)
    KeyID                                    0x10018348   Data           4  crypto.o(.constdata)
    smp_pattern_KeyID                        0x1001834c   Data           4  crypto.o(.constdata)
    smp_pattern_Length                       0x10018350   Data           4  crypto.o(.constdata)
    smp_pattern_IOcap                        0x10018354   Data           4  crypto.o(.constdata)
    smp_pattern_keyID                        0x10018358   Data           4  crypto.o(.constdata)
    smp_pattern_A1                           0x1001835c   Data           8  crypto.o(.constdata)
    smp_pattern_A2                           0x10018364   Data           8  crypto.o(.constdata)
    salt                                     0x1001836c   Data          16  crypto.o(.constdata)
    smp_pattern_u                            0x1001837c   Data          32  crypto.o(.constdata)
    smp_pattern_v                            0x1001839c   Data          32  crypto.o(.constdata)
    smp_pattern_x                            0x100183bc   Data          16  crypto.o(.constdata)
    smp_pattern_W                            0x100183cc   Data          32  crypto.o(.constdata)
    smp_pattern_T                            0x100183ec   Data          16  crypto.o(.constdata)
    smp_pattern_N1                           0x100183fc   Data          16  crypto.o(.constdata)
    smp_pattern_N2                           0x1001840c   Data          16  crypto.o(.constdata)
    smp_pattern_R                            0x1001841c   Data          16  crypto.o(.constdata)
    smp_pattern_MacKey                       0x1001842c   Data          16  crypto.o(.constdata)
    smp_pattern_Y                            0x1001843c   Data          16  crypto.o(.constdata)
    smp_pattern_Key                          0x1001844c   Data          16  crypto.o(.constdata)
    smp_pattern_skey                         0x1001845c   Data          32  crypto.o(.constdata)
    smp_pattern_peer_pkey_X                  0x1001847c   Data          32  crypto.o(.constdata)
    smp_pattern_peer_pkey_Y                  0x1001849c   Data          32  crypto.o(.constdata)
    Region$$Table$$Base                      0x100184f0   Number         0  anon$$obj.o(Region$$Table)
    Region$$Table$$Limit                     0x10018510   Number         0  anon$$obj.o(Region$$Table)
    bd_addr                                  0x20000000   Data           6  main.o(.data)
    GAP_Event_CsNum0                         0x20000006   Data           8  main.o(.data)
    device_state                             0x2000000e   Data           1  main.o(.data)
    UART_CTRL                                0x20000010   Data           8  uart_drive.o(.data)
    uart_ota_state                           0x20000018   Data           1  uart_ota.o(.data)
    uart_master_ota_flag                     0x20000019   Data           1  uart_ota.o(.data)
    SystemCoreClock                          0x2000004c   Data           4  system_armcm0.o(.data)
    profile_update_offset                    0x20000052   Data           2  main.o(.data)
    lclink                                   0x20000058   Data           4  main.o(.data)
    p_gatt_handle_data                       0x2000006c   Data           4  lcctrl.o(.data)
    le_local_features                        0x20000070   Data           8  lcctrl.o(.data)
    flash_hdr                                0x20000078   Data           4  lcctrl.o(.data)
    BB_CTRL                                  0x2000007c   Data           4  bbctrl.o(.data)
    prv_bd_addr                              0x20000080   Data           8  bbctrl.o(.data)
    CS_LIST                                  0x200000a4   Data           4  m_em.o(.data)
    ADV_ACC_CODE                             0x200000a8   Data           4  m_em.o(.data)
    ConnectReqPdu                            0x200000ac   Data           4  m_em.o(.data)
    CONN_ACC_CODE                            0x200000b0   Data          64  m_em.o(.data)
    smp_ptn_iocap                            0x200000f4   Data           3  crypto.o(.data)
    smp_ptn_A1                               0x200000f7   Data           8  crypto.o(.data)
    smp_ptn_A2                               0x200000ff   Data           8  crypto.o(.data)
    smp_ptn_W                                0x20000108   Data         128  crypto.o(.data)
    smp_ptn_N1                               0x20000188   Data          16  crypto.o(.data)
    smp_ptn_N2                               0x20000198   Data          16  crypto.o(.data)
    smp_ptn_Mackey                           0x200001a8   Data          16  crypto.o(.data)
    smp_ptn_R                                0x200001b8   Data          16  crypto.o(.data)
    __microlib_freelist                      0x200001d0   Data           4  mvars.o(.data)
    __microlib_freelist_initialised          0x200001d4   Data           4  mvars.o(.data)
    uart_rx_buff                             0x200001d8   Data         259  uart_drive.o(.bss)
    uart_tx_buff                             0x200002db   Data         256  uart_drive.o(.bss)
    ota_fw_info                              0x200003db   Data          24  uart_ota.o(.bss)
    profile                                  0x20000488   Data        4096  main.o(.bss)
    devlink                                  0x20001588   Data        2796  lcctrl.o(.bss)
    ll_data_buf                              0x20002074   Data         254  lcctrl.o(.bss)
    gatt_handle_data                         0x20002274   Data        4096  lcctrl.o(.bss)
    ext_cs_num                               0x20006e48   Data          16  m_em.o(.bss)
    gett_db_hdr                              0x20006e58   Data          20  attctrl.o(.bss)
    tmp                                      0x20006e82   Data          16  crypto.o(.bss)
    ptext                                    0x20006e92   Data          16  crypto.o(.bss)
    ctexp                                    0x20006ea2   Data          16  crypto.o(.bss)
    l2cap_param                              0x20006eb2   Data         264  l2capctrl.o(.bss)
    __heap_base                              0x20006fc0   Data           0  startup_armcm0.o(HEAP)
    __heap_limit                             0x2000afc0   Data           0  startup_armcm0.o(HEAP)
    __initial_sp                             0x2000efc0   Data           0  startup_armcm0.o(STACK)



==============================================================================

Memory Map of the image

  Image Entry point : 0x100000c1

  Load Region LR_IROM1 (Base: 0x10000000, Size: 0x000186e8, Max: 0x0003e000, ABSOLUTE, COMPRESSED[0x00018620])

    Execution Region ER_IROM1 (Base: 0x10000000, Size: 0x00018510, Max: 0x0003e000, ABSOLUTE)

    Base Addr    Size         Type   Attr      Idx    E Section Name        Object

    0x10000000   0x000000c0   Data   RO          468    RESET               startup_armcm0.o
    0x100000c0   0x00000000   Code   RO         1034  * .ARM.Collect$$$$00000000  mc_p.l(entry.o)
    0x100000c0   0x00000004   Code   RO         1111    .ARM.Collect$$$$00000001  mc_p.l(entry2.o)
    0x100000c4   0x00000004   Code   RO         1114    .ARM.Collect$$$$00000004  mc_p.l(entry5.o)
    0x100000c8   0x00000000   Code   RO         1116    .ARM.Collect$$$$00000008  mc_p.l(entry7b.o)
    0x100000c8   0x00000000   Code   RO         1118    .ARM.Collect$$$$0000000A  mc_p.l(entry8b.o)
    0x100000c8   0x00000008   Code   RO         1119    .ARM.Collect$$$$0000000B  mc_p.l(entry9a.o)
    0x100000d0   0x00000000   Code   RO         1121    .ARM.Collect$$$$0000000D  mc_p.l(entry10a.o)
    0x100000d0   0x00000000   Code   RO         1123    .ARM.Collect$$$$0000000F  mc_p.l(entry11a.o)
    0x100000d0   0x00000004   Code   RO         1112    .ARM.Collect$$$$00002712  mc_p.l(entry2.o)
    0x100000d4   0x00000840   Code   RO            3    .text               main.o
    0x10000914   0x000001ac   Code   RO          108    .text               uart_drive.o
    0x10000ac0   0x00000584   Code   RO          154    .text               uart_ota.o
    0x10001044   0x000001a4   Code   RO          198    .text               gpio.o
    0x100011e8   0x0000001e   Code   RO          270    .text               delay.o
    0x10001206   0x00000002   PAD
    0x10001208   0x00000054   Code   RO          297    .text               pad_mux_ctrl.o
    0x1000125c   0x000000bc   Code   RO          327    .text               timer.o
    0x10001318   0x000001e0   Code   RO          377    .text               debug.o
    0x100014f8   0x0000001c   Code   RO          469    .text               startup_armcm0.o
    0x10001514   0x00000010   Code   RO          476    .text               system_armcm0.o
    0x10001524   0x0000043c   Code   RO          507    .text               syd8821_ble_master.lib(main.o)
    0x10001960   0x00001618   Code   RO          611    .text               syd8821_ble_master.lib(lcctrl.o)
    0x10002f78   0x00000820   Code   RO          674    .text               syd8821_ble_master.lib(bbctrl.o)
    0x10003798   0x000000fc   Code   RO          712    .text               syd8821_ble_master.lib(queue.o)
    0x10003894   0x00000664   Code   RO          736    .text               syd8821_ble_master.lib(cs_queue.o)
    0x10003ef8   0x00000050   Code   RO          756    .text               syd8821_ble_master.lib(deffered_task.o)
    0x10003f48   0x000001ac   Code   RO          787    .text               syd8821_ble_master.lib(pmu.o)
    0x100040f4   0x00000bcc   Code   RO          841    .text               syd8821_ble_master.lib(llctrl.o)
    0x10004cc0   0x00000b58   Code   RO          864    .text               syd8821_ble_master.lib(m_em.o)
    0x10005818   0x00001800   Code   RO          900    .text               syd8821_ble_master.lib(attctrl.o)
    0x10007018   0x0000016c   Code   RO          930    .text               syd8821_ble_master.lib(ble_gap.o)
    0x10007184   0x0000050c   Code   RO          950    .text               syd8821_ble_master.lib(crypto.o)
    0x10007690   0x0000039c   Code   RO          981    .text               syd8821_ble_master.lib(l2capctrl.o)
    0x10007a2c   0x00000ae4   Code   RO         1012    .text               syd8821_ble_master.lib(smpctrl.o)
    0x10008510   0x0000002c   Code   RO         1037    .text               mc_p.l(uidiv.o)
    0x1000853c   0x00000028   Code   RO         1039    .text               mc_p.l(idiv.o)
    0x10008564   0x00000024   Code   RO         1041    .text               mc_p.l(memcpya.o)
    0x10008588   0x00000024   Code   RO         1043    .text               mc_p.l(memseta.o)
    0x100085ac   0x00000028   Code   RO         1045    .text               mc_p.l(strstr.o)
    0x100085d4   0x0000001a   Code   RO         1047    .text               mc_p.l(memcmp.o)
    0x100085ee   0x00000014   Code   RO         1107    .text               mc_p.l(uread4.o)
    0x10008602   0x00000012   Code   RO         1109    .text               mc_p.l(uwrite4.o)
    0x10008614   0x00000060   Code   RO         1128    .text               mc_p.l(uldiv.o)
    0x10008674   0x00000000   Code   RO         1132    .text               mc_p.l(iusefp.o)
    0x10008674   0x00000164   Code   RO         1133    .text               mf_p.l(dadd.o)
    0x100087d8   0x000000d0   Code   RO         1135    .text               mf_p.l(dmul.o)
    0x100088a8   0x000000f0   Code   RO         1137    .text               mf_p.l(ddiv.o)
    0x10008998   0x00000040   Code   RO         1139    .text               mf_p.l(dfixul.o)
    0x100089d8   0x00000028   Code   RO         1141    .text               mf_p.l(cdrcmple.o)
    0x10008a00   0x00000024   Code   RO         1143    .text               mc_p.l(init.o)
    0x10008a24   0x00000020   Code   RO         1146    .text               mc_p.l(llshl.o)
    0x10008a44   0x00000022   Code   RO         1148    .text               mc_p.l(llushr.o)
    0x10008a66   0x00000026   Code   RO         1150    .text               mc_p.l(llsshr.o)
    0x10008a8c   0x000000be   Code   RO         1153    .text               mf_p.l(depilogue.o)
    0x10008b4a   0x00000056   Code   RO         1165    .text               mc_p.l(__dczerorl2.o)
    0x10008ba0   0x0000004c   Code   RO          788    PMU                 syd8821_ble_master.lib(pmu.o)
    0x10008bec   0x00000024   Code   RO         1058    i.__0vsprintf       mc_p.l(printfa.o)
    0x10008c10   0x0000002e   Code   RO         1155    i.__ARM_clz         mf_p.l(depilogue.o)
    0x10008c3e   0x0000001a   Code   RO          856    i.__ARM_common_switch8  syd8821_ble_master.lib(llctrl.o)
    0x10008c58   0x0000000e   Code   RO         1159    i.__scatterload_copy  mc_p.l(handlers.o)
    0x10008c66   0x00000002   Code   RO         1160    i.__scatterload_null  mc_p.l(handlers.o)
    0x10008c68   0x0000000e   Code   RO         1161    i.__scatterload_zeroinit  mc_p.l(handlers.o)
    0x10008c76   0x00000002   PAD
    0x10008c78   0x00000158   Code   RO         1059    i._fp_digits        mc_p.l(printfa.o)
    0x10008dd0   0x000006ec   Code   RO         1060    i._printf_core      mc_p.l(printfa.o)
    0x100094bc   0x00000020   Code   RO         1061    i._printf_post_padding  mc_p.l(printfa.o)
    0x100094dc   0x0000002c   Code   RO         1062    i._printf_pre_padding  mc_p.l(printfa.o)
    0x10009508   0x0000000a   Code   RO         1064    i._sputc            mc_p.l(printfa.o)
    0x10009512   0x00000002   PAD
    0x10009514   0x00000054   Code   RO         1079    i.free              mc_p.l(malloc.o)
    0x10009568   0x0000006c   Code   RO         1080    i.malloc            mc_p.l(malloc.o)
    0x100095d4   0x0000ed08   Data   RO            4    .constdata          main.o
    0x100182dc   0x00000040   Data   RO          676    .constdata          syd8821_ble_master.lib(bbctrl.o)
    0x1001831c   0x00000020   Data   RO          789    .constdata          syd8821_ble_master.lib(pmu.o)
    0x1001833c   0x00000004   Data   RO          866    .constdata          syd8821_ble_master.lib(m_em.o)
    0x10018340   0x00000006   Data   RO          867    .constdata          syd8821_ble_master.lib(m_em.o)
    0x10018346   0x00000002   PAD
    0x10018348   0x00000174   Data   RO          952    .constdata          syd8821_ble_master.lib(crypto.o)
    0x100184bc   0x00000032   Data   RO         1013    .constdata          syd8821_ble_master.lib(smpctrl.o)
    0x100184ee   0x00000002   PAD
    0x100184f0   0x00000020   Data   RO         1157    Region$$Table       anon$$obj.o


    Execution Region RW_IRAM1 (Base: 0x20000000, Size: 0x0000efc0, Max: 0x00028000, ABSOLUTE, COMPRESSED[0x00000110])

    Base Addr    Size         Type   Attr      Idx    E Section Name        Object

    0x20000000   0x0000000f   Data   RW            5    .data               main.o
    0x2000000f   0x00000001   PAD
    0x20000010   0x00000008   Data   RW          111    .data               uart_drive.o
    0x20000018   0x00000002   Data   RW          156    .data               uart_ota.o
    0x2000001a   0x00000002   PAD
    0x2000001c   0x0000000c   Data   RW          205    .data               gpio.o
    0x20000028   0x00000008   Data   RW          298    .data               pad_mux_ctrl.o
    0x20000030   0x00000014   Data   RW          333    .data               timer.o
    0x20000044   0x00000008   Data   RW          381    .data               debug.o
    0x2000004c   0x00000004   Data   RW          477    .data               system_armcm0.o
    0x20000050   0x0000000c   Data   RW          509    .data               syd8821_ble_master.lib(main.o)
    0x2000005c   0x0000001c   Data   RW          613    .data               syd8821_ble_master.lib(lcctrl.o)
    0x20000078   0x00000004   Data   RW          616    .data               syd8821_ble_master.lib(lcctrl.o)
    0x2000007c   0x0000000c   Data   RW          678    .data               syd8821_ble_master.lib(bbctrl.o)
    0x20000088   0x0000000c   Data   RW          714    .data               syd8821_ble_master.lib(queue.o)
    0x20000094   0x00000008   Data   RW          757    .data               syd8821_ble_master.lib(deffered_task.o)
    0x2000009c   0x00000004   Data   RW          790    .data               syd8821_ble_master.lib(pmu.o)
    0x200000a0   0x00000050   Data   RW          868    .data               syd8821_ble_master.lib(m_em.o)
    0x200000f0   0x00000002   Data   RW          902    .data               syd8821_ble_master.lib(attctrl.o)
    0x200000f2   0x00000002   PAD
    0x200000f4   0x000000d4   Data   RW          956    .data               syd8821_ble_master.lib(crypto.o)
    0x200001c8   0x00000008   Data   RW         1014    .data               syd8821_ble_master.lib(smpctrl.o)
    0x200001d0   0x00000004   Data   RW         1130    .data               mc_p.l(mvars.o)
    0x200001d4   0x00000004   Data   RW         1131    .data               mc_p.l(mvars.o)
    0x200001d8   0x00000203   Zero   RW          110    .bss                uart_drive.o
    0x200003db   0x00000018   Zero   RW          155    .bss                uart_ota.o
    0x200003f3   0x00000001   PAD
    0x200003f4   0x00000014   Zero   RW          332    .bss                timer.o
    0x20000408   0x00000080   Zero   RW          380    .bss                debug.o
    0x20000488   0x00001000   Zero   RW          508    .bss                syd8821_ble_master.lib(main.o)
    0x20001488   0x00001dec   Zero   RW          612    .bss                syd8821_ble_master.lib(lcctrl.o)
    0x20003274   0x00000010   Zero   RW          675    .bss                syd8821_ble_master.lib(bbctrl.o)
    0x20003284   0x00003bc4   Zero   RW          713    .bss                syd8821_ble_master.lib(queue.o)
    0x20006e48   0x00000010   Zero   RW          865    .bss                syd8821_ble_master.lib(m_em.o)
    0x20006e58   0x0000002a   Zero   RW          901    .bss                syd8821_ble_master.lib(attctrl.o)
    0x20006e82   0x00000030   Zero   RW          951    .bss                syd8821_ble_master.lib(crypto.o)
    0x20006eb2   0x00000108   Zero   RW          982    .bss                syd8821_ble_master.lib(l2capctrl.o)
    0x20006fba   0x00000006   PAD
    0x20006fc0   0x00004000   Zero   RW          467    HEAP                startup_armcm0.o
    0x2000afc0   0x00004000   Zero   RW          466    STACK               startup_armcm0.o


==============================================================================

Image component sizes


      Code (inc. data)   RO Data    RW Data    ZI Data      Debug   Object Name

       480         38          0          8        128       3124   debug.o
        30          0          0          0          0        531   delay.o
       420         12          0         12          0      37480   gpio.o
      2112        802      60680         15          0      55928   main.o
        84          6          0          8          0       1452   pad_mux_ctrl.o
        28          8        192          0      32768        664   startup_armcm0.o
        16          8          0          4          0        763   system_armcm0.o
       188          8          0         20         20       2092   timer.o
       428         18          0          8        515       9501   uart_drive.o
      1412        446          0          2         24      39580   uart_ota.o

    ----------------------------------------------------------------------
      5200       1346      60904         80      33456     151115   Object Totals
         0          0         32          0          0          0   (incl. Generated)
         2          0          0          3          1          0   (incl. Padding)

    ----------------------------------------------------------------------

      Code (inc. data)   RO Data    RW Data    ZI Data      Debug   Library Member Name

        86          0          0          0          0          0   __dczerorl2.o
         0          0          0          0          0          0   entry.o
         0          0          0          0          0          0   entry10a.o
         0          0          0          0          0          0   entry11a.o
         8          4          0          0          0          0   entry2.o
         4          0          0          0          0          0   entry5.o
         0          0          0          0          0          0   entry7b.o
         0          0          0          0          0          0   entry8b.o
         8          4          0          0          0          0   entry9a.o
        30          0          0          0          0          0   handlers.o
        40          0          0          0          0         72   idiv.o
        36          8          0          0          0         68   init.o
         0          0          0          0          0          0   iusefp.o
        32          0          0          0          0         68   llshl.o
        38          0          0          0          0         68   llsshr.o
        34          0          0          0          0         68   llushr.o
       192         20          0          0          0        144   malloc.o
        26          0          0          0          0         72   memcmp.o
        36          0          0          0          0         60   memcpya.o
        36          0          0          0          0        100   memseta.o
         0          0          0          8          0          0   mvars.o
      2238         96          0          0          0        460   printfa.o
        40          0          0          0          0         72   strstr.o
        44          0          0          0          0         72   uidiv.o
        96          0          0          0          0         84   uldiv.o
        20          0          0          0          0         60   uread4.o
        18          0          0          0          0         60   uwrite4.o
        40          2          0          0          0         68   cdrcmple.o
       356          4          0          0          0        140   dadd.o
       240          6          0          0          0         84   ddiv.o
       236          0          0          0          0        216   depilogue.o
        64         10          0          0          0         68   dfixul.o
       208          6          0          0          0         88   dmul.o
      6144        112          0          2         42      21554   attctrl.o
      2080         84         64         12         16      18203   bbctrl.o
       364          8          0          0          0       2858   ble_gap.o
      1292         22        372        212         48       8236   crypto.o
      1636         36          0          0          0       5735   cs_queue.o
        80          4          0          8          0       1465   deffered_task.o
       924         12          0          0        264       5430   l2capctrl.o
      5656        156          0         32       7660      33870   lcctrl.o
      3046         66          0          0          0      14870   llctrl.o
      2904         68         10         80         16       9208   m_em.o
      1084         60          0         12       4096      99817   main.o
       504         34         32          4          0      11032   pmu.o
       252         14          0         12      15300       2312   queue.o
      2788         50         50          8          0       8726   smpctrl.o

    ----------------------------------------------------------------------
     32964        886        532        392      27448     245508   Library Totals
         4          0          4          2          6          0   (incl. Padding)

    ----------------------------------------------------------------------

      Code (inc. data)   RO Data    RW Data    ZI Data      Debug   Library Name

      3062        132          0          8          0       1528   mc_p.l
      1144         28          0          0          0        664   mf_p.l
     28754        726        528        382      27442     243316   syd8821_ble_master.lib

    ----------------------------------------------------------------------
     32964        886        532        392      27448     245508   Library Totals

    ----------------------------------------------------------------------

==============================================================================


      Code (inc. data)   RO Data    RW Data    ZI Data      Debug   

     38164       2232      61436        472      60904     393847   Grand Totals
     38164       2232      61436        272      60904     393847   ELF Image Totals (compressed)
     38164       2232      61436        272          0          0   ROM Totals

==============================================================================

    Total RO  Size (Code + RO Data)                99600 (  97.27kB)
    Total RW  Size (RW Data + ZI Data)             61376 (  59.94kB)
    Total ROM Size (Code + RO Data + RW Data)      99872 (  97.53kB)

==============================================================================

