:020000041000EA
:1000000018670020451D00104D1D00104F1D0010E9
:1000100000000000000000000000000000000000E0
:10002000000000000000000000000000511D001052
:100030000000000000000000531D0010551D0010BE
:10004000331600102B4C0010571D0010571D0010C8
:10005000571D0010571D0010571D0010571D001090
:10006000571D0010C5190010E91900100D1A0010D5
:10007000311A0010551A0010571D0010571D00109E
:10008000571D0010571D0010571D0010571D001060
:10009000571D0010571D0010571D0010571D001050
:1000A000571D0010571D0010571D0010571D001040
:1000B000571D0010571D0010571D0010571D001030
:1000C00000F002F800F0BDF80CA030C80838241881
:1000D0002D18A246671EAB4654465D46AC4201D180
:1000E00000F0AFF87E460F3E0FCCB64601263342F5
:1000F00000D0FB1AA246AB46334318477473000086
:1001000094730000103A02D378C878C1FAD8520725
:1001100001D330C830C101D504680C6070470000BD
:100120000023002400250026103A01D378C1FBD813
:10013000520700D330C100D50B60704710B56E294F
:1001400002D105F0D3FD10BD702902D105F00DFFDD
:1001500010BD662902D106F077FF10BD652902D1D6
:1001600006F072FF10BD672902D106F06DFF10BDC9
:10017000612902D1C046C04610BD03681B0A01D3E5
:1001800080231943692902D105F07AFD10BD642945
:1001900002D105F075FD10BD752902D105F070FD85
:1001A00010BD6F2902D105F08BFE10BD782902D158
:1001B00005F0C8FE10BDE92902D105F027FE10BDEB
:1001C000E42902D105F022FE10BDF52902D105F087
:1001D0001DFE10BDEF2902D105F07EFE10BDF829ED
:1001E00002D105F0BDFE10BD0368DB0901D38023F9
:1001F0001943632902D106F034FA10BD732902D1E4
:1002000006F037FA10BDE32902D106F041FA10BD1D
:10021000F32902D106F044FA10BD002010BD1FB52D
:1002200006F09EFA04000020002106F049FE401C62
:1002300060600020002106F02DFEE0601FBD10B5BB
:1002400010BD06F065FA1146FFF7E9FF00F085FFE3
:1002500006F086FD03B4FFF7F2FF03BC06F0D0FD05
:1002600070B505460C46164602E00FCC0FC5103E91
:10027000102EFAD2082E02D303CC03C5083E042E5A
:1002800007D301CC01C5361F03E021782970641C17
:100290006D1C761EF9D270BD1FB500216846017035
:1002A00007214172192189014181F7498181032187
:1002B00081730021017201F0A0FDF44801F089FD75
:1002C000F2484078F249C873F04880780874EF48E3
:1002D000C0784874ED4800798874EC484079C87457
:1002E000EA4880790875EB480378EB480178EB4AD7
:1002F000E74801F085FD1FBD3EB504460D46E848C0
:10030000007801280FD10121684601800321418036
:100310001F2181800121018123462A46694601204F
:1003200002F086F83EBD0020FCE710B586B004461A
:10033000DCA103C90191009004A801F0D9FE684630
:10034000428A018AD9A001F0B7FA002C02D0012C10
:1003500039D11DE06846408A002811D06846008ADD
:1003600010280DDD102168464181C821C18100217E
:100370008181C02101720421417202A802F080FB38
:10038000D1A001F099FA05216846FFF7B5FF1AE000
:100390006846408A0A2815DA6846008A502811DA29
:1003A0005021684641810A2181814B21C900C181C8
:1003B000C02101720421417202A802F061FBC8A0B1
:1003C00001F07AFA00BF00BF06B010BD13B582B0CD
:1003D0006846408915214902884209D1C6A003C850
:1003E0000191009005246946204602F003F89CE044
:1003F00068464089C249884208D1C2A0006801907D
:10040000022401A9204601F0F5FF8EE068464089EC
:10041000BB492831884209D1BBA103C90191009091
:1004200008246946204601F0E5FF7EE068464089E1
:10043000B3492331884209D1B5A103C90191009084
:1004400007246946204601F0D5FF6EE068464089E2
:10045000AB492431884209D1AFA103C90191009071
:1004600005246946204601F0C5FF5EE068464089E4
:10047000A3492631884208D1A9A00068019004242C
:1004800001A9204601F0B6FF4FE0684640899C492B
:100490002531884208D1A3A000680190042401A955
:1004A000204601F0A7FF40E0684640899449273183
:1004B000884208D19CA000680190042401A920462C
:1004C00001F098FF31E0684640898D494F318842FC
:1004D00009D196A103C901910090072469462046DD
:1004E00001F088FF21E0684640899249884207D19F
:1004F00091A000680190042101A8FFF7FDFE14E01F
:10050000684640898B49383188420DD100210191DC
:100510000020009001A9684601F0F1FB6946684699
:10052000007901F067FF00E000BF1FBD0FB410B5F8
:1005300068464089022808D16846C07BA1280FD1AF
:100540000021012001F0C5FD0AE068464089794993
:100550003831884204D16846817B0F3001F0A3FB1B
:1005600010BC08BC04B018473EB504460D4673489D
:100570000078012810D1724968460180604918311D
:100580004180262181800121018123462A46694636
:10059000012001F04DFF3EBD0020FCE710B5FFB08B
:1005A000FFB082B00446601C04F0A1FC012805D114
:1005B00001F02BFC63A001F07FF9DBE1601C04F08B
:1005C00096FC042810D100203549087001206249AA
:1005D0000870002061490870614908700622A11D59
:1005E00060A001F0A6F9C5E1601C04F080FC0828B9
:1005F0000FD10020584908705849087028490870E0
:100600005749087061795DA001F056F901F0FDFBD2
:10061000B0E1601C04F06BFC0121C903884230D1B9
:10062000227AE3791002184301465CA001F044F9F4
:10063000A27A637A1002184301465FA001F03CF9E8
:10064000A279637910021843014662A001F034F9DF
:10065000A179627908021043012813D1217AE27945
:10066000080210432028A8D1A17A627A0802104318
:10067000012808D15EA001F01FF901200849087087
:1006800078E108E1C5E0BDE0FF3F00003800002050
:100690001600002036000020320000203400002028
:1006A0000C000020FC01000000000000696E746571
:1006B0007276616C3A2578206C6174656E63793A64
:1006C00025780D0A0000000053657455706461744C
:1006D00065206F7461206C696E6B0D0A000000006C
:1006E00053657455706461746520696F73206C691B
:1006F0006E6B0D0A00000000554152544600000088
:10070000012A0000FFFF000053594420496E632E68
:10071000424C4520312E3000312E302E300000006A
:10072000322E3030332E3030342E3030023A09053C
:100730000A020000C9FE0000000103040D000020B1
:100740000F1800004741505F4556545F4144565FC3
:10075000454E440D0A0000000F00002070000020EC
:10076000100000204741505F4556545F434F4E4EA6
:10077000454354454420616464723A004741505FE8
:100780004556545F444953434F4E4E4543544544A8
:100790002825303278290D0A00000000636F6E664C
:1007A00069675F6576742E68646C3A20253032780C
:1007B00020200D0A00000000636F6E6669675F65A8
:1007C00076742E76616C75653A25303278200D0A84
:1007D00000000000636F6E6669675F6576742E7552
:1007E0007569643A2530327820200D0A0000000037
:1007F00073746172745F747820656E61626C650DEC
:100800000A0000000020FA490870FAA001F054F82C
:10081000B0E0A179627908021043FB49884219D1FE
:10082000217AE279080210432D28F1D1A17A627A67
:1008300008021043022806D1F4A001F03DF801207F
:10084000F749087096E0F7A001F036F80020F44967
:1008500008708FE0A179627908021043F649884256
:10086000D6D1217AE279080210432728D0D1A17A83
:10087000627A08021043012806D1F0A001F01CF8AA
:100880000120F349087075E00020F1490870F1A0DB
:1008900001F012F86EE0601C04F029FB0121C9028E
:1008A000884210D1FF22F83221461531684604F003
:1008B000B4FAEE4A611D7EA804F0AFFA7EA80FC814
:1008C000FFF734FE56E0601C04F011FB01218902A1
:1008D000884209D10822611DFEA804F09EFAFF9902
:1008E000FE98FFF773FD45E0601C04F000FB01215A
:1008F000890388423ED0601C04F0F9FA102803D125
:10090000DBA000F0D9FF35E0601C04F0F0FA80288D
:1009100005D102F038FBDBA000F0CEFF2AE0601C1E
:1009200004F0E5FA01214902884223D1A1796279D4
:1009300008021043030006F082FA0604080C1014A3
:10094000181CD5A000F0B8FF13E0D9A000F0B4FF48
:100950000FE0DDA000F0B0FF0BE0E1A000F0ACFF85
:1009600007E0E5A000F0A8FF03E0E8A000F0A4FF86
:1009700000BF00BF7FB07FB002B010BD10B504460D
:10098000204602F0E3FB10BD00B591B001F00CFA77
:10099000E3480990E3480A90E3480B90E3480C9041
:1009A000E3480D9009A801F08BFB0321684601770D
:1009B00000214177807F81088900491C6846817742
:1009C000807F042188430146684681771021C177E2
:1009D000002108A801700321417007A801F073FBF2
:1009E0000621684681800921C180642101814181FD
:1009F000062101733221417300218173C173017497
:100A0000012101A84173002181730221C1730021DA
:100A1000017403214174002181740421C1740021F7
:100A20000175052141750021817501F059FBC1490E
:100A3000FF20013004F06CFABE49091DBE4804F0E5
:100A400067FABC4801F0C1FCBC4801F0CDFCBC48D1
:100A500001F0CDFC002001F014FEFFF71DFC012188
:100A600008A80176002141760EA90231002004F089
:100A70004FFA0FA90231002004F04AFA0EA801F043
:100A80002DFE11B000BD10B50446012C06D0022C7D
:100A90000BD0032C10D0042C1CD114E00120A94948
:100AA0000870A9A000F008FF15E00220A549087011
:100AB000A8A000F001FF0EE00120A2490870A8A044
:100AC00000F0FAFE07E001209E490870A7A000F0A0
:100AD000F3FE00E000BF00BF10BD10B5002456E0DB
:100AE000172C30D00EDC0A2C2FD006DC002C16D0B0
:100AF000022C33D0042C3ED131E0142C1CD0152C08
:100B000039D11AE01E2C34D004DC182C30D0192C2A
:100B100031D117E01F2C2DD0222C2CD114E0002134
:100B2000204600F00CFE0121204600F020FC0021B0
:100B3000204600F084FC27E000BF0721204600F09B
:100B4000FEFD21E000BF00BF00BF0021204600F0F5
:100B5000F6FD0121204600F072FC15E000BF0021E7
:100B6000204600F0ECFD0021204600F068FC0BE080
:100B700000BF00BF08E00021204600F0E0FD00219A
:100B8000204600F0F4FB00BF00BF601CC4B2272C5D
:100B9000A6DB10BD10B57A480078012810D078483F
:100BA000007803280CD1002075490870FF20F5302B
:100BB00000F08AFD01F0A5FD7D20C00000F084FD5D
:100BC00010BD38B56F48007801280FD16D4C363410
:100BD0006C4841786CA000F06FFE214634396EA05D
:100BE00000F06AFE204616380178DBE0B4E200002F
:100BF0000C00002073746172745F747820646973F0
:100C000061626C650D0A0000E7FE000077656368AD
:100C100061745F747820656E61626C650D0A000016
:100C20000E0000207765636861745F7478206469E2
:100C30007361626C650D0A000F18000062617474C4
:100C40006572795F747820656E61626C650D0A006B
:100C50000D000020626174746572795F747820649D
:100C6000697361626C650D0A0000000007020000F4
:100C70004741505F4556545F454E435F4B45590DC4
:100C80000A0000004741505F4556545F454E435FA0
:100C900053544152540D0A0075706461746520729A
:100CA00073702041434345505445440D0A000000F1
:100CB000757064617465207273702052454A4543B3
:100CC0005445440D0A00000075706461746520721B
:100CD00073702054494D45524F55540D0A00000081
:100CE0007570646174652072737020535543434579
:100CF00045440D0A00000000456E61626C65206C81
:100D00006174656E63790D0A0000000044697361C7
:100D1000626C65206C6174656E63790D0A00000079
:100D2000587000108270001077700010C1700010B1
:100D30007F710010000000209D0500107D0900104B
:100D40000800002010000020616E637320656E644F
:100D50000D0A00006E6F7420616E63730D0A00004F
:100D60006E6F742062616E640D0A00006E6F7420F5
:100D7000656E6372797074696F6E0D0A0000000011
:100D8000700000204814002061707069645F6C6519
:100D90006E3A25640D0A000061707069643A25732B
:100DA0000D0A0000F7A000F087FD21461539F9A0D3
:100DB00000F082FD20463638818EF9A000F07CFDDF
:100DC00020463638828E2146F9A000F0B2FD04227A
:100DD000F949FAA000F0ADFDFCA12046343803F03B
:100DE000DBFF002809D00120FB490870FB49F248CD
:100DF00002880A8040884880ABE1F9A1FB4803F0F3
:100E0000CBFF0028F8D1FAA1F84803F0C5FF00286D
:100E10002AD0F9A1F548343003F0BEFF0446002C77
:100E20001FD0F2483430201A122803DAEF48343049
:100E3000201A00E01220C1B2EC481E300170027886
:100E400001461631401C03F0E8FFE848801E818E01
:100E50003630201A401C081AE449891E8886641C12
:100E600077E1E24C343474E1E4A1E04803F094FF0C
:100E700000283AD0DD48801E0078012806D1DEA186
:100E8000DA48343003F088FF044609E0DDA000684A
:100E900000906946D548343003F07EFF044600BF19
:100EA000002C1FD0D1483430201A122803DACF4842
:100EB0003430201A00E01220C1B2CC481E3001703C
:100EC000027801461631401C03F0A7FFC748801E78
:100ED000818E3630201A401C081AC449891E888623
:100EE000641C36E1C14C343433E1C7A1BF4803F080
:100EF00053FF00282AD0C0A1BC48343003F04CFF77
:100F00000446002C1FD0B9483430201A122803DAC6
:100F1000B6483430201A00E01220C1B2B3481E3067
:100F20000170027801461631401C03F076FFAF488D
:100F3000801E818E3630201A401C081AAB49891E4B
:100F40008886641C05E1A94C343402E1B0A1A748AD
:100F500003F022FF002863D0A448801E00780128F7
:100F600014D1A5A1A148343003F016FF0446002C8B
:100F700009D1AAA00068009069469C48343003F06B
:100F80000BFF044608E0994C343405E0A4A19748CF
:100F9000343003F001FF0446002C3ED09348343037
:100FA000201A122803DA91483430201A00E0122067
:100FB000C1B28E481E300170027801461631401CC5
:100FC00003F02BFF8948801E007802280BD1874848
:100FD000801E818E3630201A401C081A8349891ED3
:100FE0008886641CB5E081481E300078C01EC1B2FE
:100FF0007E481E300170027801461931401C03F012
:101000000CFF7A48801E818E3630201AC01C081AC8
:101010007649891E8886E41C9BE0744C343498E041
:1010200080A1724803F0B8FE00282AD07CA16F4846
:10103000343003F0B1FE0446002C1FD06B4834302E
:10104000201A122803DA69483430201A00E01220EE
:10105000C1B266481E300170027801461631401C4C
:1010600003F0DBFE6148801E818E3630201A401C62
:10107000081A5E49891E8886641C6AE05B4C343419
:1010800067E06BA1594803F087FE00282AD05AA1D7
:101090005648343003F080FE0446002C1FD05348DD
:1010A0003430201A122803DA50483430201A00E075
:1010B0001220C1B24D481E3001700278014616312F
:1010C000401C03F0AAFE4948801E818E3630201A4B
:1010D000401C081A4549891E8886641C39E0434C27
:1010E000343436E053A1414803F056FE00282AD09C
:1010F00041A13E48343003F04FFE0446002C1FD07F
:101100003A483430201A122803DA38483430201A8A
:1011100000E01220C1B235481E300170027801464D
:101120001631401C03F079FE3048801E818E363027
:10113000201A401C081A2D49891E8886641C08E064
:101140002A4C343405E000202849891E087001F03B
:1011500013FF01F011FF00BF38BD72B6FFF714FC9A
:10116000032001F0A4FA01F0B6FA012001F0ABFA75
:10117000FFF7B3FC00F09AFB2FA000F09DFB32A21A
:1011800034A16DE07469746C655F6C656E3A2564BA
:101190000D0A00007469746C653A25730D0A00002D
:1011A0006D7367206C656E3A256420200000000096
:1011B0006D73673A200D0A00AA150020616E6373F3
:1011C0005F7569643A200D0A000000006D6F626966
:1011D0006C6570686F6E65001100002012000020C1
:1011E0004D6F62696C65534D530000004A14002036
:1011F00054776565746965003A000000736B797017
:10120000650000000A0000004C696E6500000000E7
:10121000576861747341707000000000EFBC9A0061
:101220002000000066616365626F6F6B0000000064
:1012300078696E006D7171005359442D54454B2EE1
:10124000496E630D0A00000031353A33303A3238C6
:101250000000000044656320323520323031380010
:1012600028A000F029FB62B600F0CFFD2CA000F012
:1012700023FB45E001F061FA172000F00DF90E2084
:1012800000F049F9002817D12A48007801280DD12B
:1012900029480078012809D100202749087027A093
:1012A00000F00AFB01212A4802F0A4F800BF0E203A
:1012B00000F031F90028FAD00F2000F02CF90028B6
:1012C00017D11C48007801280DD11B48007801284F
:1012D00009D10020184908701EA000F0EDFA002185
:1012E0001B4802F087F800BF0F2000F014F9002817
:1012F000FAD0FFF766FCFFF74DFC642000F0E4F93C
:10130000B8E700005359443838323120424C452068
:10131000616E63732025733A25730D0A0000000087
:101320006761705F735F6164765F73746172740D7F
:101330000A0000000F0000201100002072656A659D
:101340006374207468652070686F6E650D0A000014
:1013500012000020616E73776572207468652070DA
:10136000686F6E650D0A0000D3490860704770B55C
:10137000024620241440630920251446AC4301256D
:10138000A54028469C00CD4D2C592075050A657551
:10139000050CA575050EE575002B13D0002908D1A5
:1013A000C74D6D7D0543ECB2C54D6D7DC44E747562
:1013B00015E0C34D6D7D85432C46C14D6D7DC04EFE
:1013C00074750CE0002905D1BD4C64680443BC4D24
:1013D0006C6004E0BA4C64688443B94D6C6070BDC5
:1013E00070B5024620241440630920251446AC43FE
:1013F0000125A5402846002B13D0002908D0B04D68
:10140000ED7D0543ECB2AE4DED7DAD4EF47515E0CE
:10141000AB4DED7D85432C46A94DED7DA84EF47571
:101420000CE0002905D0A64CE4680443A44DEC6010
:1014300004E0A34CE4688443A14DEC6070BD30B57A
:101440000B4620240440610920250446AC430125B5
:10145000A5402A468C00994D2C592276150A6576AE
:10146000150CA576150EE576002B0AD08C00934D51
:101470002C592271150A6571150CA571150EE571AF
:1014800009E08C008D4D2C592272150A6572150CDD
:10149000A572150EE57230BD10B520230340590921
:1014A00020240346A34301249C4022468B00834C06
:1014B000E3581A73140A5C73140C9C73140EDC73D7
:1014C00010BD10B520230340590920240346A3432F
:1014D00001249C4022468B00784CE3581A71140A70
:1014E0005C71140C9C71140EDC7110BD10B52023BE
:1014F0000340590920240346A34301249C4022466B
:101500008B006E4CE3581A72140A5C72140C9C72B5
:10151000140EDC7210BD30B501462020084042098F
:1015200020240846A0430124844023469000634CB5
:1015300020584030102404192578284665782D025B
:101540002843A5782D042843E47824062043184036
:10155000002801D0012030BD0020FCE7F0B5034693
:101560000C46154620221A40500920261A46B2433E
:10157000012696403146002C0BD182004F4EB258C6
:10158000403211720E0A56720E0C96720E0ED67200
:101590000AE08200494EB258403211710E0A56716B
:1015A0000E0C96710E0ED671002D0BD18200434E9B
:1015B000B258203211760E0A56760E0C96760E0E22
:1015C000D6760AE082003D4EB258203211750E0ADE
:1015D00056750E0C96750E0ED6758200374EB258A3
:1015E000203211710E0A56710E0C96710E0ED671C4
:1015F0000022002A05DBD706FF0E0126BE40314F30
:101600003E6000BFF0BD10B52023034059092024DF
:101610000346A34301249C4022468B00274CE358F9
:1016200020331A72140A5C72140C9C72140EDC7251
:1016300010BD70B500243CE0A0002049085840309F
:10164000142141180A7810464A78120210438A7809
:1016500012041043C97809060843A100174A5158DB
:1016600020310A461378194653781B0219439378A0
:101670001B041943D2781206114308400546002D79
:1016800000D114E00C480068002804D02946204608
:10169000094A12689047A00008490858403005756B
:1016A000290A4175290C8175290EC17500BF601C7E
:1016B000C4B2022CC0DB70BD4800002040000020F6
:1016C0004010005000E100E0002109E0002201E0AC
:1016D000531C9AB27D239B019A42F9DB4B1C99B2B1
:1016E0008142F3DB7047002107E0002201E0531C38
:1016F0009AB2092AFBDB4B1C99B28142F5DB704799
:1017000010B50146272901DA002902DA0020C0437A
:1017100010BDCC07E40F202904DA4A101B480068EA
:10172000835C05E008462038421018484068835C16
:10173000002C01D01811EBE71807000FE8E770B58F
:10174000272801DA002800DA70BD0907090FC4074D
:10175000E40F202804DA43100C4E3668F21805E036
:101760000646203E7310094E7668F2181578002C54
:1017700001D00F2600E0F0263540002C01D00E07E6
:10178000310E2E460E43167000BFDDE74C000020E0
:1017900010B502460620002815DBC406E40E01231E
:1017A000A3407F4C236000BF00BF00BFBFF34F8F3B
:1017B00000BF00BF00BF00BF00BF00BFBFF36F8FFF
:1017C00000BF00BF00BF00BF764800680078000976
:1017D00000010B071B0F1843724B1B6818707148F0
:1017E0000068007880239843D30180242340184365
:1017F0006C4B1B6818706B48006800784023984356
:101800004030684B1B68187066480068C078102329
:1018100098431030634B1B68D8706248006880782A
:101820000823984308305F4B1B6898705E48406AF5
:10183000402318435C4B58621846006A4023184303
:10184000594B18620620002806DBC406E40E01236B
:10185000A340534C803C236000BF10BDF0B50B4645
:1018600001242404002112E000BF85004D4E75596B
:10187000ED782D07ED0F002DF7D1850075596D78A6
:101880005E5C35468600474FBE597570491C9142D3
:10189000EADB00E0641E8500424E7559ED786D0765
:1018A000ED0F002D01D1002CF4D1F0BD10B50821B1
:1018B0000020FFF76DFF10BD0FB438B50024049869
:1018C000002803D138BC08BC04B0184705A8009014
:1018D0003648009A049903F04DFAC4B200200090F3
:1018E000802C00DD8024224630490020FFF7B6FF1F
:1018F00000BFE7E70FB438B5054600240598002877
:1019000003D138BC08BC04B0184706A8009027488B
:10191000009A059903F02EFAC4B200200090802CA2
:1019200000DD8024224621492846FFF797FF00BFAB
:10193000E7E7F8B505460E4617460024002D02D00D
:101940002846FFF7B9FF00241BE02046E117490FA6
:101950000918C910C900611A03D1A1B214A0FFF778
:10196000ABFF315D14A0FFF7A7FF601CC117490F43
:101970000918C910C900411A02D111A0FFF79CFF34
:10198000641CBC42E1DB2046E117490F0918C9106D
:10199000C900611A02D00AA0FFF78EFFF8BD00004F
:1019A00080E100E0540000200080022014010020AB
:1019B0005B253034785D200025303278200000002F
:1019C0000D0A000010B56E480068007E4008400017
:1019D000401C6B49096808766A480068002802D0F4
:1019E00068490868804710BD10B565484068007EAA
:1019F00040084000401C62494968087661484068D8
:101A0000002802D05F494868804710BD10B55C4887
:101A10008068007E40084000401C5949896808766B
:101A200058488068002802D056498868804710BD11
:101A300010B55348C068007E40084000401C504923
:101A4000C96808764F48C068002802D04D49C86868
:101A5000804710BD10B54A480069007E400840002C
:101A6000401C47490969087646480069002802D0A9
:101A700044490869804710BD01468800404A105813
:101A80000078C007C00F7047F0B504460E461546F3
:101A90002046FFF7F1FF002801D1052C01DB0020D3
:101AA000F0BDA00037490E50042C13D1A0003449DA
:101AB0000A5851791779090239430846917909047E
:101AC0000843A1002E4A51580D712A0A4A71280C68
:101AD00088710EE0A0002A49095848790979000266
:101AE0000843A9B20846A100254A51580871000AC6
:101AF0004871002B0BD0A00021490858007F4008F6
:101B00004000401CA1001E4A515808770CE0A0007C
:101B10001B4908582030007840084000401CA100B4
:101B2000174A515820310870A0001549085800780C
:101B300040084000401CA100114A51580870012083
:101B4000AEE700B503461846FFF796FF002801D020
:101B5000052B00DB00BD98000949085800784008B3
:101B600040009900064A5158087000BFF2E701464C
:101B70008800034A10580078C007C00F7047000063
:101B80005C0000209401002070B504460E46154606
:101B90000E20634909680870681C6149096848702B
:101BA0005F48006884702A4631465D480068C01C62
:101BB00003F033F970BD08B55AA0FFF77DFE00F0C1
:101BC000A9FD002802D00020009001E00120009033
:101BD000012269461620FFF7D7FF08BD38B5044635
:101BE000002500BF2CE0E01C415D524802790079DD
:101BF000401CC3B24F480371203881542030007913
:101C0000202819DB4B492039096A4801494A203A02
:101C1000202100F082FD002802D00020009001E089
:101C2000012000900021434801712038006A401CC7
:101C300040492039086201E000200090681CC5B2CC
:101C4000A078A842CFDC012269461720FFF79CFF4D
:101C500038BD38B5044637480079002808D0354AE1
:101C60001179203A126A5001324A203A00F055FDAB
:101C7000204603F03CF905466079217900020843CB
:101C800003462A460021084600F052FD002802D0F3
:101C90000020009001E001200090012269461820F8
:101CA000FFF772FF38BD70B504460E46254628780A
:101CB000162804D017280BD018281ED116E00020B3
:101CC000FEF733FBFFF777FF01201B49087014E094
:101CD000A81CFFF783FF18480078002802D10220D3
:101CE0001549087000201549087006E0A81CFFF788
:101CF000B0FF03201049087000BF00BF70BD70B571
:101D000005460C46064800684078821C0C49284667
:101D100003F083F8024800684078801C207070BD92
:101D200078000020436D64467745726173650D0A43
:101D300000000000C8010020700000207100002099
:101D4000720000200748804707480047FEE7FEE78B
:101D5000FEE7FEE7FEE7FEE704480549054A064BB5
:101D600070470000851D0010C100001018170020EA
:101D7000186700201857002018570020034804490E
:101D800008607047014802490860704740787D014B
:101D90007C000020FE49202208781043EF221040EA
:101DA000042210430870704710B5FA488047002895
:101DB00002D002F0ECFB012010BDF6480A300047CB
:101DC000F44928310847F3493C310847F1496C315F
:101DD0000847F1490847F0495C310847EE496A3144
:101DE0000847ED4976310847EB4986310847EA490B
:101DF00094310847E849A2310847E749AE3108471E
:101E000030B4E64CA44630BC6047E4487430004728
:101E1000E3480047F8B5E34DCF222968E24C087843
:101E20000026104008702068E0491830884728686C
:101E300022680178127F090912070901120F114364
:101E400001700907090FBF27012921687ED00A46C2
:101E500022314B7809781B020B43114620310B715C
:101E60001B0A4B710378117A3B4089010B435906D9
:101E7000490E0170226841784032127A8909921D18
:101E800092068901920E1143417021680622801C3E
:101E9000093102F0C2FF21684820425C002A04D0C8
:101EA00028684931083002F0B8FF2168BF4A702025
:101EB000405C323A713190472868BD4A41788906C2
:101EC000890E891C90472868017809090901091DB4
:101ED000017022683940127AD207520E1143017004
:101EE000226841782032127A8909921D920689016E
:101EF000920E1143417021680622801C093102F0C4
:101F00008CFF21682820425C28682931083002F0C3
:101F100084FF2868A74A41788906890E891C904762
:101F2000256800206F7F012181400F4204D0E97FA6
:101F30000B2251438E19761C401C0328F3D32C46E8
:101F40002034607821780002084300E019E0132172
:101F50004843401CB04206D2701E02F0E1FF401C14
:101F60002070000A6070607821780002084302281F
:101F700003D20220207000206070287F012824D026
:101F80003AE00B4620318A79CA71197A0278C9077A
:101F90003A40490E0A43027051062268490E6032E7
:101FA000127CD2011143017041780622890989010E
:101FB0000C3141702168801C093102F02EFF286825
:101FC00021680622083071316DE7E079002813D0CE
:101FD000607822780102114313204143A079491C03
:101FE000C00302F09DFF401C06467F2102F098FFCF
:101FF000401CC1B2E1711EE0607921790002084302
:1020000031D06078227801021143132041432846E1
:1020100022304278037810021843C003491C02F0B2
:102020007FFF401C06467F2102F07AFF401C81B2F0
:102030002171080A6071304602F072FF401C7F284F
:1020400000D97F200121E975A97F0091617823786B
:1020500009021943584CEA7FC0B23B46A047564894
:1020600034308047F8BD0020544CE87503460246E2
:102070000121A047F8BD4A491A3108474848F430C1
:1020800000474F48004738B5049C00944C4C0E3430
:10209000A04738BD30B44A4CE834A44630BC604751
:1020A00010B502F05FFB10BD10B502F077FB10BD5C
:1020B0004349A4310847434800474248323000476B
:1020C0004049463108473F49B23108473D49C2318E
:1020D00008473C4AD032104710B501F049FA10BD0C
:1020E0003849FC3108473849084737490E31084715
:1020F00035493631084710B501F01AFD10BD334996
:10210000084732487238004731480068C078800775
:10211000C00F704770B524480068817C427C08027B
:10212000104312D0FFF7F0FF194C022501280DD102
:102130002648723880472749884207D121780120F4
:102140002943014321702149884770BD20788021AF
:1021500008432843207070BDF8B50D48C0790006CB
:102160007BD511480668B17C707C0F020743084894
:10217000057801D0A80701D468076ED5044C207BF0
:10218000E17A0002E41C084367D0002F65D023E009
:102190009A120020DF560000155800002759000051
:1021A000CD5B0000F4000020F0000020451D000081
:1021B0002B26000047270000971B00003154000029
:1021C000F55C00005B5E0000675F0000B56000002A
:1021D000E80000200604000060782178000208432F
:1021E0002AD1307CF17B0002084303F066FB002219
:1021F000F94B03F065FB03F013FB80B278430A212F
:1022000002F098FE4004010C2170080A6070307DD5
:10221000F27C000210430A224243914203D3401E43
:102220002070000A6070607821780002084303D1B2
:102230000120207000206070FD210D400121E74841
:102240000D430570E6490020884760782278010236
:102250001143E54BE34A09209847F8BD10B50F211B
:10226000DE4802F040FE10BDF0B504468DB0401CC3
:1022700002F03DFE0146082831D0D84E00253E3EF2
:10228000042931D080291DD0D448CB1F0278FF3BD0
:10229000FA3B18D001239B0399427DD1D2490A20F1
:1022A0002431884770780621484381190A22601D2D
:1022B000891C02F0B2FD7078401CC0B270700A2810
:1022C0007DD375707BE0C179002978D0D10676D4B2
:1022D000A37966791902314301290AD06FE002F02F
:1022E0005DFAC24880476AE075703570FFF7B6FF47
:1022F00065E08178491E0906090E817050D0B74902
:10230000437888794E7902023243887A4E7A000205
:102310003043491C012B49D0801A0872000A4872C8
:1023200000060B7A000C1843831A6A461383508305
:10233000AA4A167BD27A360216436A4696834A7BAD
:102340000F7B110239436A46D183138050809680F7
:10235000D18013723220507200209072D572280AF8
:10236000107301205073002090730220D07300205E
:10237000107403205074002090740420D074002046
:102380001075052050750020984990751046CA3187
:10239000884706A8954900E00AE0E83188470EE042
:1023A000017A817040210A43027008E08018B4E786
:1023B000900604D58804000F01D0FFF7CDFE8C49AC
:1023C0002046C96888470DB0F0BD10B50446001D11
:1023D00002F08DFD8649C860211D864802F098FDF7
:1023E00085492046884710BD8349223108478249E4
:1023F00078310847804A80321047794A7A3A104744
:10240000764900203E390A7849788A4200D90A2064
:102410000818801A401EC0B2704700B5FFF7F0FFE1
:10242000002804D16D4800213E384170017000BD84
:10243000F8B50E46074671491C46154601208847E7
:10244000002807D0FFF788FE23462A463146384643
:1024500002F064F9F8BDF8B50E46044667491F4618
:10246000154601208847002814D0022C03D1FFF71D
:10247000C7FF002809D0EAB2594D3B4631462046F5
:102480006A3DA847012807D004E00A21564B5C4A60
:10249000084698470020F8BD022C12D14F4C062167
:1024A0003E3C20780A46484300193146801C02F021
:1024B000B4FC2078401CC0B220700A2801D3002050
:1024C00020700120F8BD70B50D4604461121401959
:1024D00089031646884201D3002070BD4948006830
:1024E000213002F004FD484B001932462946984736
:1024F00070BDF8B50646EFF3108472B6414D2868FA
:10250000213002F0F4FC8019404A0121904784F305
:1025100010883E4F0024F63FEFF3108572B639481D
:102520000068213002F0E3FC3119401838490023DB
:102530000A192021B84785F31088012000032034B0
:102540008442E9DBF8BDF7B5070501993F0D002985
:1025500012D0029900290FD02549897800290BD182
:1025600001997A18012109038A4205D8019A112399
:1025700082181B039A4201D90020FEBD0025C41B0E
:10258000EFF3108672B61F480068213002F0AFFCEE
:10259000611940181E491C4B4A192021984786F39F
:1025A00010880120000320358542E9DB1848019A94
:1025B000C019029902F031FC104901208847002817
:1025C00028D0EFF3108072B6094901228C808A70FE
:1025D00080F310880120FEBD0000F43F9A12002015
:1025E000B560000015210010D33300008D5E00009F
:1025F0008000002069220010B35F000045850000C4
:102600001B240010EC0000208F1600009F18000013
:102610005C0200202046FFF76CFFDBE7FE4908471D
:10262000FD4A0832104738B5049C0094FA4C103427
:10263000A04738BD30B4F84C1C34A44630BC6047C9
:10264000F54924310847F44A2C321047F24A343213
:10265000104730B4F04C3C34A44630BC6047EE4BDD
:1026600044331847EC4B4C33184730B4EA4C5434DD
:10267000A44630BC6047E8495C310847E64864300E
:102680000047E5496C310847E4490847E349083108
:102690000847E2498C310847E048BE300047DF4830
:1026A000E2300047DE4A1047DD4952310847DC4935
:1026B0005C310847DA4964310847D9496C31084729
:1026C000D7497631084710B501F0EDFF10BD10B5C0
:1026D00001F084FF10BDD24890300047D049A431AA
:1026E000084730B4CF4CA44630BC6047CC48F630E5
:1026F0000047CD480047CC4930310847CA485630DA
:102700000047C94860300047C74814300047C648F2
:1027100022300047C44872300047C34BD6331847B5
:10272000C24B184730B4C14C6634A44630BC604735
:1027300030B4BF4CA44630BC6047F8B5BD488047B4
:10274000BD4DA878002809D0A888FFF7D2FEEFF386
:10275000108072B60021A97080F31088B74CE07920
:10276000002834D0000610D52078410705D5FFF7A2
:10277000F3FC2078FB21084006E0000605D5FFF7B2
:10278000EBFC20784006400E20702078AC4FAD4E18
:1027900041060AD5BF210840207002206946088002
:1027A00002466B4639460020B0472078C1070ED05C
:1027B000400840002070800701D5042000E005207B
:1027C0006946088002226B4639460020B047687887
:1027D000C10704D0400840006870A8688047F8BD71
:1027E0009948004798483A30004797485230004788
:1027F00095486A30004794486E30004793498A698B
:10280000120A120202434A61087C01221043087432
:10281000704710B572B6834CA0478D4800680121FF
:102820004A02104206D18B48027ED20702D0027EB5
:102830000A43027662B6012010BD70B5044603203B
:10284000000384422AD9844803260568B603E87841
:10285000002802D0012810D01EE02846253002F0C2
:1028600046FBA04202D88019A04217D22846293040
:102870000EE08019A04211D20EE028462D3002F061
:1028800036FBA04202D88019A04207D22846313038
:1028900002F02DFBA042ECD9012070BD002070BDDC
:1028A00010B572B66D4A904762B610BD70B5144649
:1028B0000D460646FFF7C1FF002806D072B6224635
:1028C000674B29463046984762B670BD10B572B660
:1028D000634BAE33984762B610BD10B572B65F4C0D
:1028E000F63CA04762B610BDF7B50025C80288B017
:1028F0000E462C46070C11E0089861010818584B49
:102900006A4620219847002069460A5C401C5219FB
:10291000C0B295B22028F8D3641CA4B2BC42EBD359
:10292000F6060898F60E610108184D4B6A463146C6
:1029300098470020694604E00A5C5219401C95B291
:10294000C0B2B042F8D30A98854202D101200BB040
:10295000F0BD0020FBE7FFB50E4601210746090345
:102960003F4B81B03F4A002098473E4935220846F8
:102970008C3802F052FA3B48833802F0B8FA3949F1
:102980005722441837482146573802F046FA20218A
:10299000601C02F0A8FA0025002F10D00020395C3E
:1029A00000290AD02218401CC0B251702028F6D34A
:1029B00005E02118401C4D70C0B22028F9D32046F4
:1029C0000521213002F08FFA002E12D00020315C58
:1029D00000290CD022182032401CC0B251700528AA
:1029E000F5D306E021182031401C4D70C0B20528F7
:1029F000F8D321462631039802F08AFA2146223183
:102A000004980872000A48720121144A25700020B7
:102A10009047144A012127E05D6100008B620000AD
:102A200091630000E9310000576600001B68000058
:102A300061690000D1640000800000209A1200202B
:102A40000002000031540000713C000000100050F2
:102A500000E100E000A00050EC0000209F18000002
:102A60008F1600005C0200200903FE4B00209847EF
:102A7000012005B0F0BDFC4A1047FB4A223A10473E
:102A8000F0B5027889B0002A7ED0F849CA71427840
:102A90000A72002A01D0042A01D904220A72C278DB
:102AA000847813022343F14A1C0A537294724479C6
:102AB000057924022C431546EC72260A2E73A6468D
:102AC000C4798579200228435073040A8446E84873
:102AD0009473046808252746207CE47B0002204389
:102AE0000124521C83424C7008D9181A07E0147153
:102AF000200A01E01571280A507107E0C01A0E7A09
:102B0000B0424DDA1471260A56710872087A88703C
:102B10000D70002B41D05079117900020843191A29
:102B20006846018343836146C18371468183B87CD3
:102B3000797C0002084302D0CE49002088476846CD
:102B4000018B0180428B4280828B8280C28BC2804B
:102B500001723221417200218172C172017344738A
:102B6000210A81730221C173002101740321417480
:102B7000002181740421C174002101750521417572
:102B800000218175BC4900E00EE08847BA4906A8DB
:102B90001E318847B94909208847012009B0F0BD96
:102BA000F600B042A6DAA2E70020F7E7FEB5074636
:102BB000AE4801780A077DD5F72211400170BA7935
:102BC0007C1C7B7912021A437BD0C279120678D51D
:102BD000102211430170880673D4A9488047054626
:102BE0006079217900020843FF1C002832D002F0EE
:102BF00064FE06460091787839780002084302F0B6
:102C00005CFEA04F00223B4602F05AFE3246009B7B
:102C100002F056FE0090964801910068017CC27B4C
:102C20000802104302F049FE00223B4602F048FE33
:102C300007460E46607A217A00020843401B02F0E4
:102C400034FE3A46334602F03BFE019B009A02F006
:102C500093FB24E0787839780002084302F0AAFF59
:102C6000064683480068017CC27B0802104302F0DC
:102C7000A1FF314604F03AF902F046FF0022814BF1
:102C800002F01EFE07460E46607A217A00020843D3
:102C9000401B02F00AFE3A46334602F011FE0022C3
:102CA000794B02F099FB02F0BBFD0104090C00D145
:102CB000012101E00EE004E0704B0920734A243B3F
:102CC000984703206946088102221102704C02AB2A
:102CD0000020A047FEBD38B56E4C2078002804D1F6
:102CE0006D496846884701202070012038BD10B525
:102CF0000B30102801D9FF2010BD604BC4B2204614
:102D0000243B9847204610BD10B50B30102801D940
:102D1000FF2010BDC4B2594920468847204610BD47
:102D2000072801D900207047012282405948437882
:102D30001A4342708160012070474D480068C07D91
:102D400070474B48554900684118487C097C00028F
:102D50000843704710B5030004F071F809061C36EB
:102D6000506AA2BCCEE8FE0000217F20FFF783FE60
:102D700000213020FFF77FFE01217F20FFF77BFE3F
:102D80001E216320FFF777FE1F216D20FFF773FEE2
:102D9000882114E000217F20FFF76DFE0021302004
:102DA000FFF769FE01217F20FFF765FE1E216320EA
:102DB000FFF761FE1F216D20FFF75DFE8A21612074
:102DC000FFF759FE8121CCE000217F20FFF753FE61
:102DD00000213020FFF74FFE01217F20FFF74BFE3F
:102DE0001E216320FFF747FE1F216D20FFF743FEE2
:102DF0008A216120FFF73FFE8321B2E000217F207E
:102E0000FFF739FE00213020FFF735FE01217F203A
:102E1000FFF731FE1E216320FFF72DFE1F216D20DD
:102E2000FFF729FE8A216120FFF725FE872198E020
:102E300000217F20FFF71FFE00213020FFF71BFE3F
:102E400001217F20FFF717FE1E216320FFF713FEED
:102E50001F216D20FFF70FFE8A216120FFF70BFE77
:102E60008F217EE03D170000A72900009A12002064
:102E7000F0000020B5600000575F0000F73300004D
:102E8000051B00000000F43F00002440951D0010C9
:102E900031540000800000209D2C000063050000DC
:102EA00000217F20FFF7E7FD00213020FFF7E3FD41
:102EB00001217F20FFF7DFFD1E216320FFF7DBFDEF
:102EC0001F216D20FFF7D7FD8A216120FFF7D3FD79
:102ED0009F2146E000217F20FFF7CDFD002130201B
:102EE000FFF7C9FD01217F20FFF7C5FD1E216320EB
:102EF000FFF7C1FD1F212AE000217F20FFF7BBFD66
:102F000002213020FFF7B7FD01217F20FFF7B3FD3D
:102F10001F216320FFF7AFFD03216D20FFF7ABFDFD
:102F20008A216120FFF7A7FDB0211AE000217F2050
:102F3000FFF7A1FD02213020FFF79DFD01217F2039
:102F4000FFF799FD1F216320FFF795FD07216D20F5
:102F5000FFF791FD8A2100E006E06120FFF78BFD7D
:102F6000BF216520FFF787FD10BD02490968603168
:102F700008747047E800002010B5FF216731F84859
:102F800001F0B1FF10BD08B5FFF7A5FE002818D06D
:102F9000AA220421F34801F081FFF24855220421BE
:102FA000001D01F07BFFEF4800210C388170C170DB
:102FB0001430052200901023D202EB490120FFF7C4
:102FC00032FB08BDF8B505460E460020E54C6946C3
:102FD000642708700C3C68460078A84239D22178F2
:102FE00000290DD0012911D002291CD0032923D09A
:102FF000042927D00529EED16946401C0870EAE76C
:103000002A466946304600F059FA20E0411CA942A0
:1030100003D968460770002019E06B461970305CD0
:103020006070022013E0411CA942F2D86B4619706F
:10303000305C208103200AE02A466946304600F0D1
:103040001CFA04E02A466946304600F0ECF920708C
:10305000C1E7F8BDF0B589B00F46082849D1002670
:103060006D462E70397969707979A9707979E9702E
:10307000F979297105240422391DBC4801F0CDFEDF
:10308000B8480422391D001D01F0C7FE0020285554
:10309000641CE4B2012801D0022806D12021295560
:1030A000641CE1B26E54491CCCB2032807D12C2118
:1030B0002955641CE1B201226A54491CCCB2401C5F
:1030C000C0B20728E3D9A7480C384681467006816C
:1030D0000670807802280CD1A1480078002808D119
:1030E000A34841780278080210436A462146FFF758
:1030F000B6FA09B0F0BD10B59A4C0C3CA078012886
:1031000014D1214610310422081F01F059FE002875
:103110000DD00020E070208AA081608AE081A07834
:10312000022803D093490020FFF7FAFD10BDE07894
:10313000401CC0B2E0700228F1D1A07010BD10B5E3
:103140008D4A64210020FFF7D2FD10BDF0B5854FF8
:1031500002780C3F87B00446072A1DD0844D203DDD
:103160002846423002901E3000902E4640384C36A1
:1031700026350590092A1FD02946384626398088E9
:10318000052A7DD0132A7CD01B2A7BD0012A7AD134
:10319000A078062878D007E178A000680190E07850
:1031A000A17800020843B8806179227909021143AD
:1031B000F98001AB02226FE070A0006806906949B7
:1031C0002046083010221831049001F0F9FD002843
:1031D00010D0644910222831049801F0F1FD002834
:1031E0001FD0604910223831049801F0E9FD002811
:1031F0002DD041E05B495E4810220831203801F0B3
:103200000CFE58495A4810221831103801F005FEBA
:10321000E079A1790002084305990870000A487016
:103220002AE0504910220831284601F0F6FD4D49A8
:103230004F4810222831163001F0EFFDE079A179D6
:103240000002084302990871000A487114E04549D8
:1032500010220831304601F0E0FD42494448102276
:1032600038313C3001F0D9FDE079A1790002084302
:1032700000990873000A4873E079A179000204E01C
:103280000EE041E05AE009E088E00843401C80B2CB
:10329000B88006AB0222F988FFF7CCF907B0F0BD81
:1032A0002622424353181A460026223216705670C0
:1032B0006679022E0DD1A679292E0AD12679E478D5
:1032C000360226431670340A5470002220331A71D5
:1032D0005A71401C80B2B880022804D8262250437C
:1032E000401820307CE0294601202031B880087148
:1032F0000020487122350A1D6878297800020843A9
:103300000221FFF7ACF9C9E70128C7D10220B88034
:10331000304620300124047100214171021D223603
:1033200070783178000208430221FFF798F9BC70E9
:10333000FFF705FF0120FDF7A6FBAFE7E078A178D6
:103340000002084302994A790B7911021943884215
:1033500016D16078211D801EC0B2FFF77BFE9DE76D
:10336000481400209C000020FFFF0000AA15002048
:10337000CA1200203F310010F7300010032800006F
:1033800000994A7B0B7B11021943884286D16078F1
:10339000211D801EC0B2FFF715FE7FE760790A2865
:1033A000B1D10220FDF76FFBA07812280ED1607911
:1033B000052805D10320FDF766FBA078122805D16A
:1033C00060790F2802D10420FDF75DFB60790A289F
:1033D00099D1B888F988884295D10020B88005989D
:1033E0004178027808021043401C81B280B2FFF796
:1033F00017F953E700B589B002236A4613700378C2
:103400005370437893708378D370C0781071517182
:103410005448062142780378100218436A46FFF7A1
:103420001EF909B000BD70B50B781D465B1C9342B8
:1034300002D9642008701CE04B4C2289002A07D076
:103440000B70415D474B608952331954401C6081B9
:10345000618991420FD1434A6078523200F050F8AE
:103460006078072801D2012070BD00206081607063
:103470002081002070BD042070BD70B50C46097815
:1034800064254B1C934202D92570002070BD237027
:10349000405CFF23020234482D3301890A43002196
:1034A000028141819A4207D9417001812D48194614
:1034B000523001F018FDE7E7042070BD18B50B7815
:1034C0005C1D944203D964200870002018BD5A1C6A
:1034D000D2B20A70C35C002B01D0052018BD521C6B
:1034E000D2B2531C825C6C46DBB262705A1CC35C65
:1034F000D2B2A370531C0B70805CE070012018BD29
:103500001346024610B519480478002C14D1002A3D
:1035100013D0012A19D0032A0ED1FF222D32914255
:1035200000D311460446818610480A4619463630B3
:1035300001F073FC0120207010BD1E2900D31E2154
:10354000CAB242701946801C08E0122900D3122129
:103550000648CAB2203002701946401C01F05DFCDA
:1035600010BD0000CA120020900000204814002066
:10357000FE498A78002A00D008707047F8B5FB4CE5
:10358000E3685979002914D0B121C95CC91F092900
:1035900058D8014618461022D93001F03EFC607818
:1035A00002210128E06805D04279D20611D5F04801
:1035B0008047F8BDCA22125C012AFAD1C279012AD9
:1035C00003D1EC49E9308847F8BD002AFCD1C1712C
:1035D000F8BDC279012AF8D1CA21095C012903D0BA
:1035E0000021C171E068ECE760690126017830468E
:1035F0008840A16980250968884300D1812500277A
:10360000DD488047E168C919E0317F1CFFB2487688
:10361000102FF5D3E0682B460146E93102460091B0
:10362000FF31F9321131D54DFF305A30A84760696A
:103630000078142802D2E068C671D3E7E168002060
:10364000C871CFE7CA4B0622002101208C3B984766
:10365000F8BDF1B5C54CA4B0E068A278417911433A
:103660002BD0CA210B5C2146C24FC9681C370025EC
:10367000E931012B23D00646024671360932049106
:10368000711E531E0196BB4E02930392CA33C2327F
:1036900000917A36FF300A302499B047E168102251
:1036A0000846D930E93101F08BFB00287ED0B04BC1
:1036B0000422002101208C3B984725B0F0BD0C95D9
:1036C0000D950E950F9511951295139514954379B7
:1036D0000126DB06002B01DB002A68D0F930B84751
:1036E000A24CA078002822D01DA801950090E36884
:1036F000A34F18460146FF30FF31FA305A31F933F3
:10370000249AB8471DA8013001F0F1FB18A9097DE2
:10371000000208439B4901F003FC042201911104BB
:10372000994F01AB0020B847207800287ED0E1688F
:1037300007220F4615A8093101F06FFB3946072211
:10374000713117A801F069FB387A002810A86ED0F3
:1037500086767020C05D002818A869D0867004A8FD
:103760003A460190F9321046844E15ADC03017AB81
:10377000009546362499B047E068102204A98130AC
:1037800001F04BFB08AE0FCE19AE0FC6E168032265
:103790000E4621A8D33101F040FB31460322CC3143
:1037A00022A801F03AFB3046FF3001E06EE01FE056
:1037B000EA30039017AF21A96846A2C03146704E87
:1037C000F93111AB19A86A3E249AB047E26822A9E0
:1037D0001046FF30DA300197009103900CAB029550
:1037E00019A8F9322499B04768490020884764E74E
:1037F0005E4A8023526914783246A2405B4CA46929
:103800002468A24300D1812300910146FF315A313F
:103810005A4CFF30FA30249AA04754481022C0680E
:103820000146E931D93001F0CBFA02E023E029E08A
:103830002AE0002801D004221EE04C4CE068F93058
:10384000B84761690878401CC0B208701428CED30C
:10385000A1690868020C08A8827410A882710888FF
:10386000020A08A8427410A84271097808A80174D5
:1038700010A8017134E70C223D4B002101208C3B44
:1038800098471AE7857664E7857068E7E068002660
:10389000F930B847E368394F1946FF330A33363FEA
:1038A0001846F931249AB847E06810230146A03140
:1038B00006E017183246FF320A32761CBD54F6B2C3
:1038C0004A7C9F1AB742F4DC304900208847E06800
:1038D0004179490849004171EFE6F0B50446C078E6
:1038E00085B0072807D2224B0622002101208C3BFD
:1038F000984705B0F0BD1D4E0121F068CB22115450
:10390000002506222146CC3001F087FA1120F1680B
:1039100040010818A0314E7CC17E827F437F049213
:103920000A07D20F009203934A07CF06D30FFF0F67
:1039300002968A0701970E4E920F817E407E643E6A
:10394000B047A07810260007002843DA074A112163
:10395000D06849014718FB7E19073BD50121CA22CF
:1039600011545A0715D4A278520711E0E400002040
:103970005DA1000055A900004D250000B3AA00007C
:10398000FFAB000040420F0031540000F73300004D
:103990000ED57B7E22789D005B19FE4D5B19D55CB0
:1039A000882D02D0102D03D005E0FB4A917002E073
:1039B0004179314341714179C90634D50B21C9019F
:1039C0004018C07D01282ED16421F54BF34A052013
:1039D000984728E0F04F0021F868CA2211541121BD
:1039E00049014118CA7E520702D4A278520709D56C
:1039F000497E22788B00C918E64B193BC918555CE3
:103A0000102D02D1417931434171E44AE44B943A9B
:103A1000E449002098476079C00704D0F868032281
:103A2000817911438171607980070BD5DA481121C2
:103A3000C06849014118897F890703D581790C2223
:103A400011438171207980070BD5D3481121C068BB
:103A500049014118497F890703D5417980221143E3
:103A60004171CD48C1680846A0304674E278102AFA
:103A700000D24274487901221043CB4C4871202D6A
:103A800008D0402D00D034E700231A464021002002
:103A9000A0472EE700231A462021F8E770B5BE4C58
:103AA0000D46E36800281DD020690C21817119465C
:103AB000FF3120225A31C01D01F0AFF9E1682069C1
:103AC000FF31202227307A3101F0A7F90621B74AC9
:103AD000412090470B21E068C9014118C97D0029A8
:103AE0001DD01FE01846FF302022FA3001F095F972
:103AF0002022AF4BE068A9180E46C01801F08DF9DE
:103B0000E368AC4C1846FF309A30FF333246294602
:103B1000BA33A04729460120FFF7C0FF70BD4079A6
:103B2000C00602D4A0780128F8D19C48804770BD17
:103B3000F0B5994C0646E06885B04179C9072AD0AE
:103B4000FF3010210A3001F0CEF9E068320AC11DC1
:103B5000F9314E728A72320CCA72320E0A73CA215D
:103B6000095C0125012918D00346064601460933A0
:103B7000E9365A1E713101AF4EC7491E0091C93353
:103B8000C33289318C4EFF300A30B047E068C179CA
:103B900002292FD00BE00020ABE6A06900210660CF
:103BA000626980231170E268D179022904D0E0684B
:103BB000C17900292AD02AE000682946814300D132
:103BC00081236168002040314E7D1718E037401C8A
:103BD000C0B27E761028F7D3E068774E0146E9310F
:103BE00002460091FF31F9321131E436FF305A308C
:103BF000B047CBE770497A39E9308847E068CA2195
:103C0000095C012902D00021C17100E0C5710120C9
:103C10006FE670B51446604A1B25136922469D71F4
:103C2000D871000A18721846093001F0F6F8E41C41
:103C30005E4AA0B20421904770BD70B51446564A42
:103C40001D25136922469D71D871000A1872184605
:103C5000093001F0E2F8E41C544AA0B20421904774
:103C600070BDF7B54C4F5549F868002425464018FB
:103C700001F03DF93A69112191718278437812027D
:103C80001A43009B411C9A4238D3019B9A4235D873
:103C90000379C2781B021343029A93422ED1027811
:103CA000172A35D03B690622DA714E780A78360237
:103CB000164306226243D3181E72360A5E724B798F
:103CC0000E791B0233433E69AD1D9619B3721B0A70
:103CD000F3723E69C379961933733E69037A921978
:103CE0005373374BFA68EDB2D3185A7C1B7C12021F
:103CF000641C1A43AB1DE4B29A4225D34A790B796E
:103D00001102304A194391421ED001780818B4E7D5
:103D1000002C1BD13B691422DA714C780E782202F8
:103D200032431A72120A5A724A790C7911022143EB
:103D30009972090AD972C11D184610220C3001F07F
:103D40006CF81435EDB201E0002C04D00421174AC0
:103D5000A81C9047FEBD144B0A221020A43B0099DA
:103D60009847FEBDF7B50C4F1449F86800252C465E
:103D7000401801F0BCF83A690921917182784378C2
:103D800012021A43009B411C9A4249D3019B9A425A
:103D900046D819E0FF720010E40000205DA1000089
:103DA000D3330000B80B000031540000ED7F000059
:103DB00019020000EF2A0000CFA900005D030000F7
:103DC00063050000FFFF00000379C2781B02134364
:103DD000029A934224D10278172A2BD03B690422FD
:103DE000DA714E780A7836021643AA00D3181E728A
:103DF000360A5E723E69C3799619B3723E69241D14
:103E00009219037A6D1CD372E4B2EDB2FE4BFA68DC
:103E1000D3185A7C1B7C12021A43231D9A421ED3CC
:103E20004A790B791102F94A1943914217D0017866
:103E30000818A3E7002D14D13B691221D9718278AB
:103E40004578110229431972090A5972C11D184691
:103E500010220A3000F0E1FF1234E4B201E0002D3C
:103E600004D00421EA4AA01C9047FEBD0A22E94B77
:103E7000082000999847FEBDF7B5E74FE749F86875
:103E800000252C46401801F032F83A690921917159
:103E90008278437812021A43009B411C9A423CD319
:103EA000019B9A4239D80379C2781B021343029AC4
:103EB000934232D10278182A39D03B690722DA714D
:103EC0004E780A7836021643EA00521BD3181E7247
:103ED000360A5E723E6943799619B372C379867960
:103EE0001B0233433E69E41D9619F3721B0A3373B8
:103EF0003E69037A961973733E69437A92199373F4
:103F0000C14BFA68E4B2D3185A7C1B7C12026D1CB8
:103F10001A43E31DEDB29A4228D34A780B78110276
:103F2000BA4A1943914221D001780818B0E7002D10
:103F30001ED13B691521D971827845781102294338
:103F40001972090A597241799972C1798279090203
:103F50001143D972090A1973014618461022083113
:103F60000D3000F05AFF1534E4B201E0002D04D00A
:103F70000421A74AA01C9047FEBD0A22A54B082099
:103F800000999847FEBD30B4062912D0417C037CCD
:103F90000A0241781A430B020478C178807809023A
:103FA000234301438B4207D9012219460820994B2C
:103FB0001FE041790379EBE70520C002824202D07D
:103FC000401C824202D130BC1846CBE69448824263
:103FD00003D118468F4B18330BE09148401C8242A6
:103FE00002D130BC184647E7100A2928184602D0EB
:103FF0008C4B30BC18478B4BE43BFAE7F0B40028FD
:1040000065D0854C487823690A780702834D1743A9
:1040100015262D1F5A1CD81C1B2F9E7046D94B7875
:104020000E781B023343302B1AD330230370002643
:104030004670CE788F7836023E431671360A567136
:10404000037100264671C87989790002084310720D
:10405000000A5072E06840190373190A417320E0A6
:1040600003701B0A4370CB788E781B0233431371A5
:104070001B0A53714B790E791B02334303711B0AE0
:104080004371C8798B79000218431072000A50728C
:104090004878097800020843E16849190873000A62
:1040A0004873F0BC0921604A032010471B210170AE
:1040B00000234370F323137100265671017146717A
:1040C00013725672E068401901733146C6E7F0BCBE
:1040D000704730B4002816D04F4814210069FB22E5
:1040E0008170C27000230371504B43711C0A8471AC
:1040F000C271002202724372190A817209214A4A6E
:1041000030BC03201047002230BC012076E7F8B510
:1041100005464749082088473F4C0B20E168C0010D
:104120000818807E01282DD10026374601E0042E94
:1041300004D2E0688019A030877405E03D488047CC
:10414000E1688919A0318874761CF6B2082EEED386
:104150000026384F01E0082E01D2002000E0B847C9
:10416000E1688919A031761CF6B28876102EF2D358
:104170000026B847E1688919E031761CF6B2487626
:10418000102EF6D30B20E168C0010918487E0428E0
:1041900002D005281CD01DE0264F0026B847E16854
:1041A0008919FF318131761CF6B24876202EF5D37D
:1041B000E068214B0146FF31A1310A7EFF305206F3
:1041C000520E0A760A46273A47399A30984701E054
:1041D00008204876E16820690E4604278770082287
:1041E000C01CC231B63600F018FE206904223146E8
:1041F0000B3000F012FE0D210B4A032090470822DD
:1042000029460A31E06819E063050000FFFF00005D
:10421000ED7F00008D530000E400002065030000E6
:10422000022800006B430000958C00004808000045
:10423000558500004D250000C5290000BA3000F06A
:10424000ECFDE068294604221231B23000F0E5FDB1
:10425000A068C078032804D02A7AFE4E002A0AD02B
:104260000CE0E068FC4B817D427D080210432A4649
:104270000832294617E0687A002816D0E06801461F
:104280006030C37D9A420AD16A7A007E824206D1AA
:1042900008222846793100F093FD002824D0062218
:1042A0000021EE4B01209847F8BDE068CA21095C67
:1042B00001290BD00246BA32FF3011460A30B0470E
:1042C000E068022241791143417112E041790246CE
:1042D00039434171BA3211468130B047E0686030ED
:1042E000C07B012802D004E0E068EFE7DC4902204F
:1042F0008847DC488047F8BDF8B501220021DA4B39
:1043000008469847D94C06202169D94A887001216E
:1043100003209047E068D44D417908228B0700279D
:104320000A3D002B25DA114341710026A847E168B8
:10433000891980314870A847E1688A199121885409
:10434000A032761CF6B25770102EEFD30026A84785
:10435000E16889196031761CF6B24876082EF6D3EA
:10436000A847E1686031C875A847E1686031087600
:1043700014E0CA231B5C012B10D183795B070DD598
:10438000114341710026A847E168912289195054D0
:10439000A031761CF6B24F70102EF4D3B54903202D
:1043A0008847AF4D0820103DA847002803D0AC49EE
:1043B00008200A3188470220A84701283CD10B2752
:1043C000E168FF01C819407D012835D12D20400149
:1043D0000A185379002B04D0012B19D0022B25D0B9
:1043E0002AE005220020D2018B1809E00A26464364
:1043F00076180325B61835760025401C7576C0B2B0
:10440000DD7B8542F2D8E1680120C919087513E007
:1044100061688B789B06DB0FD3718A78DF231A40A3
:104420008A70E16808188179017205E0914B9179F1
:104430000720914A243B9847884D0220623DA847B7
:104440000028E068817D407D0FD0090201438B4A3E
:104450000020904781490220483988470420A84716
:10446000002801D086488047F8BD09020143834BEC
:1044700001220020643B9847F8BD3DE710B5027863
:10448000411C002A11D0022A33D0032A0CD14A78C9
:104490000B781102194310295BD0082904D1021DA1
:1044A000C1781046FFF76FFD10BD4A780B781102F6
:1044B000194306290BD003290CD014290ED0152935
:1044C00011D00029F0D1001DFEF770FB10BDFFF7E1
:1044D00013FF10BD001DFFF71AFE10BD011D0020C7
:1044E000FFF7F7FD10BD021D00210846FFF786FD0E
:1044F00010BD4A780B7811021943012918D00329FD
:104500001AD004291CD00C291ED00D29F0D15748EF
:10451000C1688A795207EBD44A79D209E8D10922D5
:104520009201891809780129E2D1C069017010BD92
:10453000001DFFF7D2F910BD001DFFF71FF810BDD9
:10454000001DFFF786F810BD011D0020FFF7A6FA39
:1045500010BD031DC078062813D0587C197C0202B8
:104560000A435878197800020843D9789B780902E1
:104570001943884208D901220146424B102098472E
:1045800010BD58791979EAE7FFF76BFB10BD10B53C
:1045900088B03D480090401E019000246846048188
:1045A0004481062101824182672181812721C181C5
:1045B0008482C482354806903549684688472B482E
:1045C0000221026A13680B431360426A13680B43AB
:1045D000136044708470047008B010BDFEB50021F3
:1045E0006846017001710D4601212A4E7F20B047B7
:1045F000284C0A206946223CA047684600780109F9
:10460000090168460170022001430A20B04701A950
:104610000A20A04768460079400704D56D1CEDB21A
:10462000FA2DF4D108E0FA2D06D001A90A20A047FE
:10463000684600794007F8D5684601780A20B047F7
:104640000020401C80B2FA28FBD301A90A20A04711
:10465000684621E0ABAA0000996F0000CB940000EF
:10466000558500000197000057250000E400002058
:10467000958C0000F7330000FB9800006D6E000081
:10468000017A00008D530000198001007D44001064
:1046900093600000A72900000079000701D40120E1
:1046A000FEBD0020FEBD10B5F949FA4CC9680028CE
:1046B000887013D001281FD002280ED100217F203E
:1046C000A04700210320A04720210420A047022169
:1046D0007F20A04703210020A04710BD00217F209C
:1046E000A04700210320A04720210420A047022149
:1046F0007F20A0470021EEE700217F20A0471F2157
:104700000320A04702217F20A04701210020A047CD
:1047100000217F20A0473F210420DDE710B50128BC
:1047200002D002280ED01BE0487A0C7A0002204307
:10473000C00715D048790979000208431946FFF7E8
:1047400068FA10BD487A0C7A00022043800707D52A
:1047500048790979000208431946FFF76EFA10BD3F
:10476000002010BD70B5CA4C6068817EFD221140EA
:104770008176E068C84D837F427F203041780078A1
:10478000090201430120A847606881784906C90FE2
:10479000E1708178BF221140817070BD10B5BC4CB2
:1047A0006068817E022211438176BB4834308047A5
:1047B00060688178BF221140E278D207520E11431F
:1047C000817010BDFFB5B24C0546606817460E46B5
:1047D000C27881B00021120702D5002005B0F0BDDB
:1047E00000BF491C89B26429FAD34030417C890753
:1047F000FCD42D20E16840010818C07A012804D1BA
:10480000FF210531284600F06EFBA8070023002891
:1048100006D12D20E16840010818807A012810D0C7
:1048200061680020C0310A792A54401C80B20228F5
:10483000F9D3287880066878308035D50120387023
:1048400033E061680846E030427B037B12021A4382
:10485000837B1B041A43920C9204AB039B0B1A43F9
:104860000273130A4373120C82734822525CC37B97
:104870005206520EDB09DB011343C373027A52085E
:1048800052000272027A02231A430272E031087A5D
:104890008007FCD4287880066878308001D5012014
:1048A00000E00020387010E03B7061680020C031EB
:1048B000AD1C03E00A792A54401C80B2328882423F
:1048C000F8D861680120C03148723088801C30807F
:1048D00060684030417C890703D504990120087045
:1048E00004E0407CC1070498C90F0170012075E7FE
:1048F000F0B587B0694800260590684606820672C2
:10490000067300246649012088470028654803ABE8
:1049100002AA04A910D0FFF755FF002810D15C4867
:104920004068C078C0063CD55A4B02AA04A95D482D
:10493000803B9847012403E05B4DA847002830D016
:10494000534DA868C278032A03D1A86A00780128C9
:10495000D3D06846007A012801D1002C09D0514CEF
:1049600021780807000F844605281CD0080744D08A
:104970007AE04E4C0820A047002807D00220A0472C
:10498000002803D16846007B002807D06846008ACB
:10499000474A801EC1B243489047AEE745493D2093
:1049A000884707B0F0BD4448E968081842790179A2
:1049B00010020843400705D5A31C222204213F4FC3
:1049C0000846B8473C48E968801E0918487A097AC1
:1049D00000020843400790D42F487A388047207857
:1049E00070224006C10FE86811540622A11C7130E4
:1049F00000F013FAA01C32492BE0E868C37D022BBB
:104A00000FD000236030477B8646012F0BD000205B
:104A1000034329D0032A08D07046007A01281AD00F
:104A200064E00123EEE70120F2E705980090684674
:104A3000008A244D0838C3B24806C10FA21C604644
:104A4000A8471348C0686030007A0128A5D11E49E4
:104A5000A01C884751E7012F03D01B49A01C8847A1
:104A600044E0A01C1949FAE76046032895D00428C1
:104A700093D1E868C37D022B2AD000236030407BAD
:104A8000012800D00020034387D0032A22D02DE044
:104A9000E4000020A7290000D91B0000B815002061
:104AA00045850000B0150020B12700006994000082
:104AB0003F9C00006F90000083020000EF54000054
:104AC000CB1D0000CB6F0000155C0000995D00005D
:104AD0000123D3E7059800906846008A984D801F0F
:104AE000C3B24806C10FA21C6046A84705980090B3
:104AF00001966846008A0838C3B22078410600074C
:104B0000C90F000FA21C8F4CA047F6E670B5FFB08E
:104B10008D4985B00420884700280BD08A4904209D
:104B20001A318847894880478949162088477FB0CD
:104B300005B070BD87488047002500280FD0864CFF
:104B4000E06841790A075ED58279D3071DD0834991
:104B500081308847E0688179490849003AE0684631
:104B600005807C4D794E863592367D4C09E069464C
:104B700001A8A8470028DAD068460088C1B201A879
:104B8000B047A0470028F2D0D1E7930709D5734A70
:104B9000014679311C3277309047E068FD228179F7
:104BA00008E0530708D56D49603191308847E068C7
:104BB000FB22817911400DE01207F725002A0BDA5C
:104BC000027A01461046654A093142329047E06850
:104BD000817929408171AAE72940417103467733E1
:104BE0003A2210215F4D0020A8470921E068890181
:104BF0004118097801299AD14079C00997D1E16912
:104C00000120087093E7A16A097800298FD1E16A31
:104C1000097801298BD1817D427D08021043524AD7
:104C200001219047E06A057081E770B54A4E7068CF
:104C3000447844704B4DE00706D0FFF767FF002330
:104C400001211A460846A847A00706D5FFF750FEDF
:104C5000002302211A460120A847600706D54348D1
:104C60008047002304211A460120A847200707D5C2
:104C70003E48BC308047002308211A460120A8473F
:104C8000E00610D570682030407D3149400701D5DD
:104C90003E2000E008208847002310211A4601200A
:104CA000A8470020B070A0060CD500F027F800231C
:104CB00020211A460120A8470023FF211A4601316E
:104CC0001846A847600611D51F49012088470028CB
:104CD00007D0F0686030807B012802D1716807201E
:104CE0004875002340211A460120A847E00904D056
:104CF000002380211A460120A84770BD10B5124933
:104D000001208847002815D01348C16860314A7BCC
:104D1000012A05D1426860321378082423431370B6
:104D2000897B012906D14068017C4022114301742E
:104D3000002141750E48804705486238804710BD04
:104D4000CB6F00007D5C0000458500000F26000051
:104D50006F900000ED340000E40000207BA600000E
:104D6000371B0000315400004F6E0000C18D000061
:104D7000498F00001CB50C46064B7B4469460090E9
:104D8000204600F0CCFF04460020694600F0DAFF20
:104D900020461CBDC70F000030B505460B462A460D
:104DA0001C781078521C5B1C002801D0A042F7D060
:104DB000002C03D0002802D06D1CEFE7284630BD40
:104DC000034610B50B439B070FD1042A0DD308C827
:104DD00010C9121FA342F8D018BA21BA884201D9CB
:104DE000012010BD0020C04310BD002A03D0D3070E
:104DF00003D0521C07E0002010BD03780C78401C43
:104E0000491C1B1B07D103780C78401C491C1B1B39
:104E100001D1921EF1D1184610BDF8B5042A2CD349
:104E2000830712D00B78491C0370401C521E830765
:104E30000BD00B78491C0370401C521E830704D012
:104E40000B78491C0370401C521E8B079B0F05D02A
:104E5000C91ADF002023DE1B08C90AE0FBF700FAAD
:104E6000F8BD1D4608C9FD401C46B4402C4310C087
:104E7000121F042AF5D2F308C91A521EF0D40B7877
:104E8000491C0370401C521EEAD40B78491C037065
:104E9000401C012AE4D409780170F8BDD2B210B5E3
:104EA00013029A1813049A1800F00EF810BD01E0CE
:104EB00004C0091F0429FBD28B0701D50280801C86
:104EC000C90700D00270704700290BD0C30702D079
:104ED0000270401C491E022904D3830702D50280B8
:104EE000801C891EE3E70022EEE70022DFE703785B
:104EF000C2781946437812061B0219438378C0789A
:104F00001B04194311430902090A000608437047AC
:104F1000020A08704A70020C8A70020ECA7070474A
:104F2000002203098B422CD3030A8B4211D30023A6
:104F30009C464EE003460B433CD4002243088B4280
:104F400031D303098B421CD3030A8B4201D394460D
:104F50003FE0C3098B4201D3CB01C01A5241830900
:104F60008B4201D38B01C01A524143098B4201D3BA
:104F70004B01C01A524103098B4201D30B01C01AE5
:104F80005241C3088B4201D3CB00C01A524183085F
:104F90008B4201D38B00C01A524143088B4201D38C
:104FA0004B00C01A5241411A00D2014652411046EC
:104FB00070475DE0CA0F00D04942031000D3404261
:104FC000534000229C4603098B422DD3030A8B4297
:104FD00012D3FC22890112BA030A8B420CD3890135
:104FE00092118B4208D3890192118B4204D389011B
:104FF0003AD0921100E08909C3098B4201D3CB0159
:10500000C01A524183098B4201D38B01C01A52410D
:1050100043098B4201D34B01C01A524103098B4211
:1050200001D30B01C01A5241C3088B4201D3CB00FC
:10503000C01A524183088B4201D38B00C01A5241DF
:10504000D9D243088B4201D34B00C01A5241411AB6
:1050500000D20146634652415B10104601D34042E4
:10506000002B00D54942704763465B1000D3404295
:1050700001B50020C046C04602BD7047704770476A
:10508000F0B50C46871A9C410D46861A9D4103D205
:10509000C01BA141D21963410D0D1F0DC94EEC1B60
:1050A000AE435CD07F057F0D0026002F51D02D052B
:1050B000AC46A943DD020123ED0A1B051D43202355
:1050C0001B1B24D41746E740381871412F46E74090
:1050D000CC199D402818314661410C0D27D16144FF
:1050E0009A4013D50023401C594152000ED140086C
:1050F000400001224B005205D34207D30520400750
:10510000C14201D5B04900E0B0493046F0BD6B0066
:10511000002A00D001229A181F23203C1B1B01D516
:10512000002302E0E540281871410C0DD7D001247E
:1051300024050919C407CD0740084908E40F28438E
:105140006144002CD5D00024401C61419A40D0D14C
:10515000CDE76A05520DD9D1C90FC907D5E79C4DD6
:105160004E00002801D0012400E0002434195F0023
:10517000002A01D0012600E00026BE19954FAC425E
:105180000CD8AE420AD8B44206D001256D05EC42D7
:10519000BCD010461946F0BD9942FCD000203946DB
:1051A000F0BDF0B51FB40C460F46811A9F4125464D
:1051B000861A9D4106D20125ED076F40401ABC4179
:1051C00052187B41210D1E0D8D1BAC467D4D8D432C
:1051D0007ED075056D0D7CD00D05AE46AC431B032E
:1051E0001B0B794D52429D41202366469B1B14D3D5
:1051F0001746F740381800260090744160462F4645
:105200000741E41900989D402818664116D471465C
:1052100071189A4025D5012320E093182A466A4147
:105220005200002B00D0521C1E23203E9B1B002B43
:1052300061DD3541EE1728186641E8D50018764142
:105240005B1C9A4000D3401C4B05F3181524E34027
:1052500010D3002B52D071467118D30FC01802D34F
:10526000491C05B0F0BD0123DB079A42F9D1400883
:105270004000F6E701225205B21801D1002853D0B0
:105280000123CC0ADB029943891E002A08D1020CB3
:1052900003D0020C0004103902E00246002020393D
:1052A0000023550B05D112020823550B01D15201E1
:1052B0000D23550C01D112011B1DD50C01D19200FB
:1052C0009B1C150D01D152005B1C2025EE1A01E03C
:1052D0002CE022E00546F54015439840CA1AE10744
:1052E00069181305C918002ABBDA032040070818FB
:1052F000C10FC9070FE071466118B2E7F107400816
:105300000843711071444A000CD001235B059A4296
:10531000A7D2C90FC9070020A3E74905490D26D127
:10532000002001E00028F4D100219AE7284D660012
:10533000002801D0012100E0002171185F00002A3F
:1053400001D0012600E00026BE19224FA94210D844
:10535000AE420ED8B14208D001256D05E94206D013
:105360001946A802414010467BE79C4201D02146E5
:1053700077E70020394674E710B50C465C4005D548
:105380000124E4076340FFF70CFF10BDFFF778FE30
:1053900010BD30B40C465C4004D50124E4076340E2
:1053A00030BC6DE630BCFCE670B50124E40761401A
:1053B0000D465D4002D4FFF763FE70BD6340FFF70A
:1053C000F0FE70BDFF0700000000F0FF0000F07F5E
:1053D0000000E0FF0000F87FF0B5F94D0C091E0950
:1053E0002C402E402F468BB0A7437DD0B543FCD038
:1053F000002E7AD0002CFCD00D465D40ED0F2543E9
:10540000AC1BFF25AD0464190894C502440DC90204
:105410002143500DDC0204430120C0070143044333
:10542000D2020191200C110C00958C4601042346F8
:105430008B430A9161460904E24D8A430991010AAE
:105440007D4449198039097805464D4301266D1878
:10545000F605751B6943C90C640B891C4C43641821
:10546000B5012C1B250C2E04B4434C434D43210C99
:10547000691889090591009DE90701D00121C90733
:1054800004912C4601996708CD072F434C08059DD0
:10549000E10B4D432D0C29466646754302950D469A
:1054A00045432E46029D7D1BB44100950D465D434C
:1054B00001942C0C2F040D465543AE462D0C3D4354
:1054C000029503947546049C2D04641B049406D233
:1054D000029C039D641C002675410395029401AC57
:1054E00070CC009F7D1B01E03EE162E1B441090404
:1054F0000095079101940599A4086143090C0C4695
:105500004443650BE7040C4666467443A646640BA9
:105510003C43039502947446049DE4042C1B0494BC
:1055200006D2029C039D641C0026754103950294DB
:1055300001AC70CC009F7D1BB44101940C465C43D0
:105540000095650FE7000C465443A646640F3C43A4
:10555000039502947446049DE4002C1B049406D227
:10556000029C039D641C002675410395029401ACC6
:1055700070CC009F7D1BB441AE09AF06049DC900ED
:10558000AD092F43049DA406AD060495079D344341
:1055900069180791059DE10B4D432D0C2946664680
:1055A000754302950D4645432E46029D7D1BB44131
:1055B00000950D465D4301942C0C2F040D46554378
:1055C000AE462D0C3D43029503947546049C2D0474
:1055D000641B049406D2029C039D641C0026754142
:1055E0000395029401AC70CC009F7D1BB4410194E3
:1055F0008C050694079C890A611800950791019C07
:105600000599A4086143090C0D464543680BEF0456
:105610000D46644665436C0B3C43049FED047D1BC3
:10562000AC4602D20025641C6841009E019D371BD8
:1056300085410846584301950C46460FC500544322
:10564000600F28436546E4002C1B02D20025401C55
:105650006E41019D3F1AB5412846BD098006284389
:105660008446A009BF064E020699A4067618074391
:10567000079D002068410A99079019430020099B63
:1056800000906046FF1913434041E20F64003A4323
:10569000A4460446D71A8C41A04203D901200090A9
:1056A00020463A46C70F941840416246D20F224323
:1056B000644664000494009CBE466400D71AA44665
:1056C000044602978C417746002F01D1A04204D9AD
:1056D0006046401C8446029A2046C40FA646941891
:1056E0004041049A0546D20F224364466400D31A0F
:1056F0008D417146002901D1A84202D928461A4697
:10570000641C10430122002800D0164361020020CF
:10571000079B891904465C410223002C02DB4918CF
:1057200013466441089DCE0A2D145D194B0567058B
:10573000E10A2C050D1908993E43C9076940002B61
:1057400008D0934006D30022761C5141002B01D192
:10575000760876001C4A002D43DB154241D0AA434F
:105760003FD030460BB0F0BD06180D464D41174CEA
:105770007642AC411AD395181C465C41134A6D42DF
:10578000A24113D3012252054C00D4420AD15C003D
:10579000D4420BD04B4002D592021143E2E74900BC
:1057A0004908DFE75940C90FC90718E00020084938
:1057B000D8E7054801420DD10342F7D0F2E70000D7
:1057C0000000FF07D41E00000000F07F0000E0FF93
:1057D0000000F87F114859400143C01241400020A9
:1057E000C0E70123089A9B069A4205DC0322520770
:1057F0008918C90FC907B5E7052252078918074A52
:105800001143D2125140ADE770B515461C46024611
:105810000B4628462146FFF7DFFD70BDFFFFFF7FE7
:105820000346CA02400D10B510430A1504D00124E6
:10583000E4072043002A05DB0A4CA21A04D4D04016
:10584000FF2A00DD002010BD4A00002B01D00120FE
:1058500000E00020101801225205D042F2D8C817EB
:10586000C04310BD1E0400001F22030C02D10F22F2
:10587000000402D0030E03D004E00020014670476C
:105880000002083A030F01D10001121F830F01D15A
:105890008000921E002801DB4000521E12055118A4
:1058A0004205C012411810467047C10FC90700D009
:1058B0004042012292071143D6E701218907D3E72D
:1058C000F0B58B4C0F09254689B0BD437BD01D092F
:1058D0002646AE43FAD00E465E402740F60F3E43C2
:1058E000254071D024012142FBD0FF24AD19A4042E
:1058F0002D1B039501252D05DB02DB0AC9022B4375
:10590000C90A29431E010901040F130F0501214390
:105910001701880B820391432D098C46A90B1E4366
:105920008A039543B30B9A0396433F09BA0B94033A
:10593000A74302962E467E430497B6464E19D719C2
:105940000C460196544305977E43371B7646BF1B92
:105950003601B646BE0B361900967646BC0437199A
:10596000009C01D3641C00946400002F01D0012628
:105970003443029E049F754366467E430496760038
:1059800034196E0034190094029C019E1C19664360
:10599000751BAE46069465464519059C05956C43F6
:1059A000594375460891691A0191049E0146514375
:1059B000A41B0491611A009C0791E10605D06109BE
:1059C0000122114302E072E06EE06109089D0027A8
:1059D0002C0A2D066918049D7C412A0A2D06691897
:1059E000019D6241AC0DAD026D185441079A910DB5
:1059F000920255196141029A644658435443069BEA
:105A0000059A5A43121A131B9A0E9B015B187A418E
:105A1000010B0005C3185141220A200644195A41BE
:105A20009A4200D2491C01204002814203D315232F
:105A30000226F64302E014230326F6432020C51A6B
:105A4000A9401746AF40DA400A4320460399D840A0
:105A50000914731819055118039A3843D207514095
:105A6000AC4009D00122944006D30022401C514191
:105A7000002C01D1400840001E4A934212D301225B
:105A800003989206904207DB0520400709181A4840
:105A90000143C012414004E0032040070818C10F31
:105AA000C907002009B0F0BD0020F107FAE705188A
:105AB0000C464C4111486D42A04115D394181A462A
:105AC0005A410E48644290410ED301204A004005DD
:105AD000824209D35A00824206D35940C90F084A6C
:105AE000C90700201143DDE700200649DAE700007E
:105AF0000000FF07FE070000FFFFFF7F0000E0FF40
:105B00000000F07F0000F87F0121C9050123411842
:105B100042001B06D3185B0E0AD0C1100722D20622
:105B2000891840075242D14201D552008918704766
:105B3000090208D50146002A03D0C10FC907002079
:105B4000704710467047420202D000200249704759
:105B5000072109050143F4E70000F87F1F22030C29
:105B600002D10F2200041CD0030E01D10002083A1A
:105B7000030F01D10001121F830F01D18000921E7B
:105B8000002801DB4000521ED205511802125118A4
:105B90001922904004D3491C002801D1490849002A
:105BA00008467047C10FC90700D040420122920742
:105BB0001143D3E701218907D0E770B50446856911
:105BC0000068C10601D5302600E02026C00707D0B6
:105BD00070BD62683046A1689047206A401C206210
:105BE0006D1EF6D570BD70B5044685690078C00796
:105BF00007D170BD6268A16820209047206A401CD0
:105C000020626D1EF6D570BD09684A0501D540B207
:105C10007047C905FCD500B2704709684A0501D52F
:105C2000C0B27047C905FCD580B2704770B50C464C
:105C30000546012A05D02878800600D5EA690023A8
:105C400002E0012305E05B1C934202D2E05C0028E5
:105C5000F9D1A869E618C01AA861286AC018286294
:105C60002846FFF7AAFF04E06A682078A968641C48
:105C70009047B442F8D32846FFF7B5FF70BD000047
:105C8000F7B5002575291068009914A611D0FFF703
:105C9000BBFF002802DA404211A608E0009909681B
:105CA0008A0701D50FA602E0490704D50EA60125F3
:105CB00001E0FFF7B2FF009F0024243704E000F06A
:105CC00013FD30313955641C0028F8D12B4632467B
:105CD0002146009800F057FAFEBD000000000000C9
:105CE0002D0000002B000000200000001168026859
:105CF000006A530501D5087009E0D30501D5088075
:105D000005E0130602D5C21705C100E008600120B6
:105D10007047000001694A1C02610878704700B5AD
:105D20008FB00291002105910549019379440391B7
:105D300011460490684600F025F90FB000BD000040
:105D4000E5FFFFFF0A681070521C0A6070470000F0
:105D5000F7B50446154686B02B487844002703C89B
:105D60003E460090019111E007986A467100415A41
:105D700002A800F099FC411C07D02178890603D5C0
:105D8000E269391891420ED83F18761C20788006B7
:105D900002D5E069B84206DDAE42E5DB0798710046
:105DA000405A0028E0D1A069C01BA0612046FFF73F
:105DB00004FF154878445A3803C800900020019128
:105DC00016E041006A460798415A02A800F06CFCB0
:105DD0000590401C0AD0002505E0626802A8A16871
:105DE000405D90476D1C05988542F6D30498401C91
:105DF000B0420490E5DB206AC01920622046FFF71C
:105E0000F2FE09B0F0BD00003A160000F7B5D21D51
:105E10000025D20815A6D200F52905CA11D0002AFE
:105E200005DA00214042914111A60A4608E0009996
:105E300009688B0701D50FA602E0490701D50EA618
:105E400001251146009F0024243704E000F05EF98C
:105E500030323A55641C02460A43F7D12B4632468B
:105E60002146009800F08FF9FEBD00000000000000
:105E70002D0000002B0000002000000070B504463B
:105E80000021243408E05507D2086D0F30356554E1
:105E90005D072A43DB08491C15461D43F3D10468FE
:105EA000002310A2250708D520252C400C4304D040
:105EB000C46901230CA2641EC46100F064F970BDC2
:105EC00010B5044621461068FFF7A7FE00230246DE
:105ED0002046FFF7D3FF10BDD21DD108C9000CC961
:105EE000CCE700000000000030000000F8B50F46CD
:105EF0000188090502D5224C7C4402E0204C7C44F8
:105F00000E3405460021243508E016071209360F25
:105F1000A65D6E541E0732431B09491C16461E43DC
:105F2000F3D1224604780023240705D5702F06D02C
:105F3000002901D00223113200F025F9F8BD012318
:105F40001032F9E770B504460D4621461068FFF798
:105F500064FE0023024629462046FFF7C7FF70BDB6
:105F6000D21DD308DB000CCBC0E730B4036820247B
:105F70001268234303600823C36130BC0023B5E7E4
:105F8000A4140000F3B50446002081B0206220462E
:105F9000E1688847002872D0252802D06268A1688D
:105FA000ABE0594F00267F442046E168884720280F
:105FB000054608DB312D06D27819203800780028F4
:105FC00001D00643F0E7B00701D504208643002046
:105FD000E0610746A0612A2D0AD0284600F052FF52
:105FE000002827D0B8000019303D0090856119E0E5
:105FF0000298BA00121902C8916102902046E16825
:106000008847012F054617D1E06900281FDA2020B4
:1060100086431CE000980A21806948430099401992
:10602000303888612046E1688847054600F02AFF3D
:106030000028EFD1012F0AD02E2D08D12046E1688B
:1060400088470546202006437F1C022FC3DBA0693A
:10605000002803DA4042A06101200643F00701D086
:10606000102086436C2D0BD0682D09D04C2D3CD0D0
:106070006A2D38D0742D38D07A2D36D016E040E015
:10608000E1682F4620468847B842054609D16C2F63
:1060900029D001208002E168064320468847054652
:1060A00004E06C2F1DD0FF2001300643002D28D0C6
:1060B00028464138192803D80120C002064320355C
:1060C000204626602946029A1646FAF737F8002835
:1060D00010D001280BD0F61DF008C0000830029047
:1060E00055E74020E1E78020D5E70020D3E7361DC3
:1060F00002964CE762682846A1689047206A401CD7
:1061000044E7206AFEBD00001E1400000B4670B577
:10611000024689078008084319469D08141AA941B8
:1061200025090807054308092C194841250A0106D5
:106130000D43010A2C194141200C0D0428430D0C7C
:1061400000194D41002140194D41C008690708431D
:10615000E908840F8D002543840024184D4124193B
:106160006D41121BAB4107E00925ED432C1152197B
:1061700063410024401C61411C460A250026551B32
:10618000B441F1D270BDFFB504460D4681B0243054
:1061900000902168880604D51022E06991432160AF
:1061A00000E00120A84201DD471B00E00027049821
:1061B000A1697A191018081AA0612078C00602D4C3
:1061C0002046FFF7FAFC002608E003986268A16801
:1061D000805D9047206A401C761C206204988642AD
:1061E000F3DB2078C0060AD52046FFF7E6FC06E080
:1061F0006268A16830209047206A401C20623846BF
:106200007F1E0028F4DC07E000986268A168405D0A
:106210009047206A401C206228466D1E0028F3DC4F
:106220002046FFF7E0FC2078000602D5022005B0EA
:10623000F0BD0120FBE700007047FFB50C461E468D
:106240008FB003CA089009914F007D0D00D16D1EDB
:10625000002108460020C0460321099A890508400C
:10626000002A03DA8200801840080840800D0128C7
:106270000A9002DD0020C0430A90089807430DD021
:10628000EF48F049281848430714189800281DD0F3
:106290007542291E1DDD0A9842421BE0189801280C
:1062A00002D00020302104E00020F24305E0215418
:1062B000401CB042FBDB30460022189B00212154D9
:1062C0000F998B600A60486013B0F0BDBD1B6D1C58
:1062D000DFE70A9A002900DA69420BA800F088FA81
:1062E0000BAB07CB03AB07C30899099800F0E4FA9E
:1062F0006B4607C30146D4480918002D00910ADDFA
:10630000D14903980A9A4942401803A90390684664
:1063100000F0F7FC07E003990A9A081803A9039014
:10632000684600F0C4FC6B4607C30004000C03D0B1
:106330000020C043410800E01046189A002A03D00C
:106340000022009215461EE0751E05D4FFF7DEFE02
:10635000303262556D1EF9D501220843079602D0EE
:1063600000227F1C04E02078302801D100227F1E0B
:10637000002A069789D01EE0112D07DAFFF7C6FE26
:10638000303262556D1C02460A43F5D1084303D0F2
:106390000098002819D00EE00021681E05E0235C5B
:1063A000625C63542254401E491C8142F7DBA81BE7
:1063B000401E07950690079A18990020A0540F9840
:1063C000079B069A81600CC07EE71126002018907A
:1063D0005BE7D21DF0B50D460446D10893B0C90065
:1063E00003C90C900D9100F037FD02460D98C00FC7
:1063F00001D02D2007E02068810701D52B2002E085
:106400004007C00F4001032A0F9001D0072A05DB87
:1064100003462946204600F0A7F90EE120788006C1
:1064200001D5E76900E006272846652D04D06628D7
:1064300014D0672D69D12DE00020112F009001DBD1
:10644000112300E07B1C0CAA03A910A8FFF7F5FE9E
:106450001199002610987D1C0E9142E001203B46C8
:106460000CAAC0070B900120009003A910A8FFF709
:10647000E4FE119D12981099002600280E9501D176
:10648000781C0D18781B02D446427D1C761EE81B32
:1064900000903AE0012F00DA01270020112F009030
:1064A00001DD112300E03B460CAA03A910A8FFF769
:1064B000C4FE11993D46109800260E9121780907D7
:1064C0000BD40E99A94200DA0D4603A9012D04DD73
:1064D0004A19203AD27F302A06D0B84201DA011D8B
:1064E00004DA012100910FE06D1EEFE7002802DCC5
:1064F00086192D1A03E0411CA94200DD0D46801BC0
:10650000401C00900120C0070B902078000705D4A4
:106510000098A84202DB0020C0430090694600209A
:10652000C8720B98012102AF0337C907884225D0F2
:10653000022010902B2011900B9800280BDA40427B
:106540000B902D20119006E00B9800F0CDF8303123
:106550007F1E0B9039701099481E00291090F3DCB3
:106560000B980028F0D111987F1E38702088000504
:1065700001D5452000E065207F1E387001A8C01BB2
:10658000C01D0B900F98002800D0012041190098E1
:10659000C01709180B980818A169081A401EA061B5
:1065A0002078C00602D42046FFF707FB0F9800288A
:1065B00005D06268A1689047206A401C206220785C
:1065C000C00625D52046FFF7F8FA21E0002E07DBAC
:1065D0000E98B04204DD03A86268805DA16802E005
:1065E0006268A16830209047206A761C401C2062B7
:1065F0000098401E002800900AD100F0B1F8C06851
:1066000062680168405CA1689047206A401C206273
:1066100028466D1E0028D9DC07E062683878A1683A
:106620007F1C9047206A401C20620B99481E00295D
:106630000B90F2DC2046FFF7D6FA032044E6000078
:1066400001FCFFFF104D0000E1DFFFFF10B54369C3
:10665000002B02D0C046C04601E0FFF7E7FA012058
:1066600010BD1278014624310A7000224A700122BE
:10667000ECE711680022D243E8E710B54369002B2C
:1066800002D0C046C04601E0FFF762FB012010BD0A
:1066900012880146243182840022C2840122ECE760
:1066A00011680022D243E8E770B516460C4605464D
:1066B00000F04EF80368FF200230C05C012807D0CC
:1066C000FF2C0ED8185D00280BD001202C7070BD57
:1066D000FF333246214608331868C31828469847C6
:1066E00070BD0020C04370BD01468008081A020931
:1066F0001018020A1018020C1018C0088200121894
:106700005200891A01E0401C0A390A29FBD270475D
:10671000754600F02DFBAE46050069465346C0089D
:10672000C000854618B020B5FBF716FB60BC0027FB
:106730004908B6460026C0C5C0C5C0C5C0C5C0C54D
:10674000C0C5C0C5C0C5403D49008D46704700006A
:1067500010B500F005F8001D10BD00BF6507000072
:1067600000487047D4160020F8B51F4604460123A0
:106770000068DB02032601461840072A05DB0028D3
:1067800001D017A506E017A504E0002801D016A542
:1067900000E016A5102081432160A069C01E002FD3
:1067A000A06101D0401EA0612046FFF706FA002F2D
:1067B00009D038466268A1689047206A401C206270
:1067C000C01C206206E0206AFAE762682878A168A7
:1067D0006D1C9047761EF8D22046FFF704FAF8BDEC
:1067E0004E414E006E616E00494E4600696E660075
:1067F000F7B516468AB02F4878446C4603467C337A
:10680000C06F5A689B680DC42A487844763003AC40
:106810000DC80DC43720C001081837211B30FEF702
:1068200089FB05460C46803D1B3C02D56442012095
:1068300000E00020002709900FE0E0070BD00C20BB
:106840001C497843794432464C394118684600F077
:106850002EFA6B4607C364107F1C002CEDD1154F38
:106860007F442C3F15E0E80711D02001C0190EC865
:106870000691089307920068F04201D19819089098
:10688000324606A903A800F012FA03AB07C36D1045
:10689000641C002DE7D1324669460998002803A8F8
:1068A00002D000F02EFA01E000F001FA0A9B07C3C3
:1068B0000DB0F0BDE00B0000034640000A4610B5E5
:1068C000400D0BD00121C9070F24A40200191C039D
:1068D00064082143540D2143D20207E00021012026
:1068E000F2E7D40F490021435200401E0029F8DA94
:1068F000DB0FDB07184310BDFFB50D46144685B00E
:106900004868516800F083FA00910190A868A16876
:1069100000F07DFA02910390A868616800F077FAB0
:10692000029A12188242029201D2012000E0002055
:10693000019A0B18D2180028019202D08A4202D97B
:1069400003E08A4201D2012000E0002000990818EB
:1069500000906868A16800F05AFA029A1218824200
:10696000029201D2012000E00020019A0B18D218F7
:106970000028019202D08A4202D903E08A4201D261
:10698000012000E000200099081800902868216884
:1069900040004900400849084018EE49471814E0F3
:1069A00001994000C90F08430090019802994000E6
:1069B000C90F08430190029803994000C90F08438A
:1069C0000290039840007F1E039000980028E7DAA9
:1069D0000898002801D0E04E00E00026B74228DAEF
:1069E000F71BF806C00E15D0029B2021091A039A46
:1069F0008B401A430392029A019BC2408B401A4378
:106A00000292019A009BC2408B4000991A43019266
:106A1000C14000917A110BD06B460320811A01D539
:106A2000002101E0890059588700401ED951F5D551
:106A3000374603980299002800D0012001430898A6
:106A40000291002808460CD0002800D001200199AE
:106A5000019A490508430121D20AC902D2020192D2
:106A600000E001210E9B0122D207012B02D0002B56
:106A700003D013E0002807D116E0904204D89042DA
:106A80000CD1019B0B4209D0019B5918019105D1F2
:106A90000099491C009101D17F1C0092002803D06D
:106AA000102108460020C04628682168019B009AF2
:106AB0004840C10F0598C90739430EC009B0F0BD61
:106AC000FFB587B0099A089808995368926840689A
:106AD000896896460022039317469446089A1268DE
:106AE0005300099A5B081268520052089A1A9B4B8D
:106AF000D4180A9A002A01D0352200E040220692DA
:106B00000022012315460492DB07059324E0002DA3
:106B100005D175460346039E4D1BB34109D3754607
:106B20006646039B491B049D9841059B7519AC461D
:106B30005F4163463B4308D0059B049EDD07760812
:106B40002E435B080496059301E0521E641EC50F98
:106B5000ED0749184041521C069B9A42D7DB002D95
:106B600004D17546039A6B1A824101D203200CE0CE
:106B7000039A0B466B404240134303D0014303D0BA
:106B8000012002E0022000E0002061460191002186
:106B9000009702910A99002905D0614640020143FD
:106BA0006D4B019102E08007002302909C423ADA8B
:106BB0001A1BD006C00E15D0029D2021019C091A77
:106BC000C5408C402543029C8C4000D001242543C5
:106BD000019C02953D46C4408D4039462C43C1403E
:106BE0000194009154111DD06D460221002202290A
:106BF0000CD10320001B07E0002804DB8600AE59FF
:106C0000002E00D00122401C0328F5DB081B02D512
:106C100088002A5004E08000285810438A00A850B9
:106C2000491EE3D51C460A98002802980CD000287B
:106C300000D001200199019A490508430121D20A97
:106C4000C902D202019200E00121109B0122D20769
:106C5000012B02D0002B03D013E0002807D116E04F
:106C6000904204D890420CD1019B0B4209D0019B69
:106C70005918019105D10099491C009101D1641C5A
:106C80000092002803D0102108460020C046089832
:106C90000999019A0068096848400099C30F07984C
:106CA000DB0723430360826041600BB0F0BD1FB57A
:106CB000002300920A46014601A8FFF71DFE01AB22
:106CC00007CB04B010BD1FB5012300920A46014650
:106CD00001A8FFF711FE01AB0F2407CBA402C30FDD
:106CE0004000DB074008001B002900DB00204900B2
:106CF00000054908CC0A204349051843D20A11432C
:106D0000DFE71FB5002300920A46014601A8FFF7FE
:106D1000D7FE01AB07CBD4E71FB5012300920A468B
:106D2000014601A8FFF7CCFE01AB0F2407CBA4025C
:106D3000C30F4000DB074008001B002900DB0020D8
:106D4000490000054908CC0A204349051843D20AE6
:106D50001143B6E702C0FFFF013C0000FF3F000007
:106D600010B50446C046C0462046F9F773FA10BD78
:106D700000487047B4160020024670B50A439207D7
:106D80002AD11E4DEE0104C808C9541B9443344057
:106D900017D0D0B2D9B2401A2106014310D190B217
:106DA00099B2401A210401430AD110021902000AC3
:106DB000090A401A2102014302D1100E190E401A8D
:106DC00070BD9A42DFD010BA19BA884201D90120A9
:106DD00070BD0020C04370BD02780B78401C491C78
:106DE000002A09D09A4207D102780B78401C491C2E
:106DF000002A01D09A42EFD0D01A70BD01010101E2
:106E000001491820ABBEFEE7260002007047F8B526
:106E1000040C8BB2264682B25E43104658430D0CDA
:106E2000370C360400218019164679416E43370C21
:106E300036048019264679416E438919F8BD30B46D
:106E40007446641E2578641CAB4200D21D46635D07
:106E50005B00E31830BC18474900CA020243100027
:106E600000D004204A0D01D001221043044A490DEC
:106E7000914201D102210843012800D10520704729
:106E8000FF07000030380A2801D201207047002097
:106E90007047000010B500290AD00878002807D0F4
:106EA00005487844FFF768FF002801D0002010BD96
:106EB0000248784410BD0000EE050000E605000021
:106EC00010B500290AD00878002807D00548784472
:106ED000FFF752FF002801D0002010BD024878447F
:106EE00010BD0000DE050000D605000070B50125CC
:106EF0000400ED074C4020D4441A01D2001B0919AC
:106F0000C60D4B00F2B2FF2A29D01B0E2CD0000276
:106F10000C02D31A2C43DC402843051910D2280A4E
:106F200002D3401C6D0611D0761EF6058019FF2A8B
:106F300000DA70BDC00DC00570BD694000F022F8D8
:106F400001200543C541521C761CE8E764089C40BB
:106F5000C90161408900E7D10124A043E4E71B0E89
:106F6000440200D0034870BD002AFCD1C00FC00706
:106F700070BD00BF0000C07F70B501250400ED07A3
:106F80004C4022D4441A02D26C40001B0919C60D91
:106F90004B00F2B2FF2A4BD01B0E50D000020C0265
:106FA000D31A2C43DC40A843051B05D5AD0019D3EB
:106FB0006D08761E521E37D0F605280A01D28019B8
:106FC00070BD70416D0603D070BD6940FFF794FF3E
:106FD0009C4009026140490001D0401E70BD01245F
:106FE000A04370BD6D081DD001202B0C01D12D04D4
:106FF00010302B0E01D12D0208302B0F01D12D01A5
:10700000001DAB0F01D1AD00801CEB0F01D16D0055
:10701000401C6D00361A121A680AF5054019012A3B
:1070200002DB70BD002070BDC036300AC00770BDE5
:107030001B0E440201D1FF2B00D1024870BD002A73
:10704000F0D070BD0000C07F03B40248784484468D
:1070500003BC604783F3FFFF03010003001F002010
:107060000000000F18192A260027000000E7FEC8BC
:10707000FE2C002D0000000AFFFF0000FFFFFFFFB5
:107080000000090100002807000018090800002876
:107090000B000118090C0000281A000A18091B002F
:1070A0000028200001000921000028230000FF091A
:1070B0002400002827000F180928000028FFFFE7F8
:1070C000FE0A020003280A0300002A0A040003281B
:1070D000020500012A0A06000328020700042A0A02
:1070E00009000328020A00052A0A0D000328020EDF
:1070F00000292A0A0F000328021000242A0A11007E
:107100000328021200252A0A13000328021400276C
:107110002A0A15000328021600262A0A1700032847
:10712000021800282A0A19000328021A00502A0A05
:107130001C000328081D0002000A1E000328101F5F
:107140000003000A220003280A230001FF0A250089
:107150000328122600192A0A29000328082A00C732
:10716000FE0A2B000328222C00C8FE0A2E0003284A
:10717000022F00C9FE0AFFFF000000FFFF000014FD
:1071800000030010002A53594420424C45204D6F03
:107190007573650900050010012AC2030F0007007E
:1071A00010042A06000600300064000B000A0010DC
:1071B000052A0000000009000B0010022900000A47
:1071C000000E0010292A5359441400100010242ADC
:1071D000424C452D4D4F44454C2D3030310E001260
:1071E0000010252A424C452D3030310A0014001081
:1071F000272A312E300A00160010262A312E300A96
:1072000000180010282A312E300E001A0010502AC3
:10721000023A09544201001C001D00100200000047
:10722000000000000000000000000000000000005E
:107230000000001C001F0010030000000000000000
:107240000000000000000000000000000000000935
:1072500000200010022900001C0023001001FF0084
:10726000000000000000000000000000000000001E
:10727000000000000800260010192A6409002700F9
:1072800010022900001C002A0010C7FE00000000A8
:1072900000000000000000000000000000000000EE
:1072A000001C002C0010C8FE0000000000000000C0
:1072B0000000000000000000000000000009002D98
:1072C0000010022900001C002F0010C9FE00000061
:1072D00000000000000000000000000000000000AE
:1072E0000000FFFFFFFF1010401040101040104042
:1072F00020202010201010101010202040102010EE
:1073000010401040108840108820202010201010BD
:10731000101010208840108880807F7E7D7C7B7AD2
:107320007978777676757473727171706F6E6E6D31
:107330006C6C6B6A6A6968686766666564646363D7
:1073400062616160605F5F5E5E5D5D5C5C5B5B5A5D
:107350005A595958585757565655555554545353CA
:1073600052525251515050504F4F4F4E4E4D4D4D25
:107370004C4C4C4B4B4B4A4A4A4949494848484770
:1073800047474746464645454544444444434343AE
:1073900043424242424141410000000000000000DF
:1073A000303132333435363738394142434445463B
:1073B0004030580030313233343536373839616235
:1073C0006364656640307800040000080000000037
:1073D0000000000200010000100000000240000058
:1073E000000000A00000000005400000000000C8F0
:1073F000000000000C4000000000409C0000000065
:10740000194000000020BCBE000000003440000015
:10741000BFC91B8E00000004B5400000504BCFD008
:107420006607E2CF010000006C4100003E8251AAD5
:10743000DFEEA73401000000D9420000DCB5A0E275
:107440003A301F97FFFFFFFFB4450000FD25A0C89D
:10745000E9A3C14FFFFFFFFFFF3F000000000080D6
:1074600000000000FF3F000000000080000000005E
:10747000BC75001000000020140100000401001081
:10748000D0760010140100200466000020010010D6
:107490001C00000043000000F8FFFFFF0C0000008C
:1074A0000E0000000F0000002E0000001001000080
:1074B00043000000F8FFFFFF0040404040404040D4
:1074C00040404141414141404040404040404040B7
:1074D000404040404040404040050202020202025B
:1074E00002020202020202020220202020202020AA
:1074F00020202002020202020202909090909090BE
:10750000101010101010101010101010101010107B
:1075100010101010020202020202888888888888EF
:1075200008080808080808080808080808080808DB
:1075300008080808020202024000000000000000E3
:10754000000000000000000000000000000000003B
:10755000000000000000000000000000000000002B
:10756000000000000000000000000000000000001B
:10757000000000000000000000000000000000000B
:1075800000000000000000000000000000000000FB
:1075900000000000000000000000000000000000EB
:1075A00000000000000000000000000000000000DB
:1075B00000000000000000000000000000000000CB
:1075C00000000000000000000000000000000000BB
:1075D0000000031900000201050303010009FF0078
:1075E00000000000000000060955415254461C00EE
:1075F000000000000000000000000000000000503B
:107600008000005000000000601000508C100050FE
:1076100070B0025078B0025000A0005000B000508E
:1076200000C0005000D0005000E0005000000000FA
:10763000000000007200002040787D010000000082
:10764000000000000000000000000000000000003A
:10765000000000000000000000000000000000002A
:10766000D0002D121E4B0FA4994ECEB531F40579E2
:10767000D9D9AAFDBD9B2198A849E145F3D8D16984
:10768000BD1DA299E625588CD94201630D12BF9FFA
:10769000FB7B7CCE6AB344BEB54BD624E9C6EA2256
:1076A000000000000000015008AA0220309F0220C4
:1076B000F8A60220C8810220CC810220D5800220B9
:1076C00024800220208002208F80022090800220CF
:04000005100000C126
:00000001FF
